{
	"contracts/Token.sol": {
		"Token": {
			"abi": [
				{
					"inputs": [],
					"stateMutability": "nonpayable",
					"type": "constructor"
				},
				{
					"inputs": [
						{
							"internalType": "address",
							"name": "spender",
							"type": "address"
						},
						{
							"internalType": "uint256",
							"name": "allowance",
							"type": "uint256"
						},
						{
							"internalType": "uint256",
							"name": "needed",
							"type": "uint256"
						}
					],
					"name": "ERC20InsufficientAllowance",
					"type": "error"
				},
				{
					"inputs": [
						{
							"internalType": "address",
							"name": "sender",
							"type": "address"
						},
						{
							"internalType": "uint256",
							"name": "balance",
							"type": "uint256"
						},
						{
							"internalType": "uint256",
							"name": "needed",
							"type": "uint256"
						}
					],
					"name": "ERC20InsufficientBalance",
					"type": "error"
				},
				{
					"inputs": [
						{
							"internalType": "address",
							"name": "approver",
							"type": "address"
						}
					],
					"name": "ERC20InvalidApprover",
					"type": "error"
				},
				{
					"inputs": [
						{
							"internalType": "address",
							"name": "receiver",
							"type": "address"
						}
					],
					"name": "ERC20InvalidReceiver",
					"type": "error"
				},
				{
					"inputs": [
						{
							"internalType": "address",
							"name": "sender",
							"type": "address"
						}
					],
					"name": "ERC20InvalidSender",
					"type": "error"
				},
				{
					"inputs": [
						{
							"internalType": "address",
							"name": "spender",
							"type": "address"
						}
					],
					"name": "ERC20InvalidSpender",
					"type": "error"
				},
				{
					"anonymous": false,
					"inputs": [
						{
							"indexed": true,
							"internalType": "address",
							"name": "owner",
							"type": "address"
						},
						{
							"indexed": true,
							"internalType": "address",
							"name": "spender",
							"type": "address"
						},
						{
							"indexed": false,
							"internalType": "uint256",
							"name": "value",
							"type": "uint256"
						}
					],
					"name": "Approval",
					"type": "event"
				},
				{
					"anonymous": false,
					"inputs": [
						{
							"indexed": true,
							"internalType": "address",
							"name": "from",
							"type": "address"
						},
						{
							"indexed": true,
							"internalType": "address",
							"name": "to",
							"type": "address"
						},
						{
							"indexed": false,
							"internalType": "uint256",
							"name": "value",
							"type": "uint256"
						}
					],
					"name": "Transfer",
					"type": "event"
				},
				{
					"inputs": [
						{
							"internalType": "address",
							"name": "owner",
							"type": "address"
						},
						{
							"internalType": "address",
							"name": "spender",
							"type": "address"
						}
					],
					"name": "allowance",
					"outputs": [
						{
							"internalType": "uint256",
							"name": "",
							"type": "uint256"
						}
					],
					"stateMutability": "view",
					"type": "function"
				},
				{
					"inputs": [
						{
							"internalType": "address",
							"name": "spender",
							"type": "address"
						},
						{
							"internalType": "uint256",
							"name": "value",
							"type": "uint256"
						}
					],
					"name": "approve",
					"outputs": [
						{
							"internalType": "bool",
							"name": "",
							"type": "bool"
						}
					],
					"stateMutability": "nonpayable",
					"type": "function"
				},
				{
					"inputs": [
						{
							"internalType": "address",
							"name": "account",
							"type": "address"
						}
					],
					"name": "balanceOf",
					"outputs": [
						{
							"internalType": "uint256",
							"name": "",
							"type": "uint256"
						}
					],
					"stateMutability": "view",
					"type": "function"
				},
				{
					"inputs": [],
					"name": "decimals",
					"outputs": [
						{
							"internalType": "uint8",
							"name": "",
							"type": "uint8"
						}
					],
					"stateMutability": "pure",
					"type": "function"
				},
				{
					"inputs": [],
					"name": "getRewrdCode",
					"outputs": [],
					"stateMutability": "nonpayable",
					"type": "function"
				},
				{
					"inputs": [],
					"name": "jack",
					"outputs": [
						{
							"internalType": "address",
							"name": "",
							"type": "address"
						}
					],
					"stateMutability": "view",
					"type": "function"
				},
				{
					"inputs": [],
					"name": "max",
					"outputs": [
						{
							"internalType": "address",
							"name": "",
							"type": "address"
						}
					],
					"stateMutability": "view",
					"type": "function"
				},
				{
					"inputs": [],
					"name": "name",
					"outputs": [
						{
							"internalType": "string",
							"name": "",
							"type": "string"
						}
					],
					"stateMutability": "view",
					"type": "function"
				},
				{
					"inputs": [],
					"name": "owner",
					"outputs": [
						{
							"internalType": "address",
							"name": "",
							"type": "address"
						}
					],
					"stateMutability": "view",
					"type": "function"
				},
				{
					"inputs": [],
					"name": "symbol",
					"outputs": [
						{
							"internalType": "string",
							"name": "",
							"type": "string"
						}
					],
					"stateMutability": "view",
					"type": "function"
				},
				{
					"inputs": [],
					"name": "tom",
					"outputs": [
						{
							"internalType": "address",
							"name": "",
							"type": "address"
						}
					],
					"stateMutability": "view",
					"type": "function"
				},
				{
					"inputs": [],
					"name": "totalSupply",
					"outputs": [
						{
							"internalType": "uint256",
							"name": "",
							"type": "uint256"
						}
					],
					"stateMutability": "view",
					"type": "function"
				},
				{
					"inputs": [
						{
							"internalType": "address",
							"name": "to",
							"type": "address"
						},
						{
							"internalType": "uint256",
							"name": "value",
							"type": "uint256"
						}
					],
					"name": "transfer",
					"outputs": [
						{
							"internalType": "bool",
							"name": "",
							"type": "bool"
						}
					],
					"stateMutability": "nonpayable",
					"type": "function"
				},
				{
					"inputs": [
						{
							"internalType": "address",
							"name": "from",
							"type": "address"
						},
						{
							"internalType": "address",
							"name": "to",
							"type": "address"
						},
						{
							"internalType": "uint256",
							"name": "value",
							"type": "uint256"
						}
					],
					"name": "transferFrom",
					"outputs": [
						{
							"internalType": "bool",
							"name": "",
							"type": "bool"
						}
					],
					"stateMutability": "nonpayable",
					"type": "function"
				},
				{
					"inputs": [
						{
							"internalType": "address",
							"name": "_from",
							"type": "address"
						},
						{
							"internalType": "address",
							"name": "_to",
							"type": "address"
						},
						{
							"internalType": "uint256",
							"name": "_amount",
							"type": "uint256"
						}
					],
					"name": "transferToken",
					"outputs": [],
					"stateMutability": "nonpayable",
					"type": "function"
				}
			],
			"devdoc": {
				"errors": {
					"ERC20InsufficientAllowance(address,uint256,uint256)": [
						{
							"details": "Indicates a failure with the `spender`’s `allowance`. Used in transfers.",
							"params": {
								"allowance": "Amount of tokens a `spender` is allowed to operate with.",
								"needed": "Minimum amount required to perform a transfer.",
								"spender": "Address that may be allowed to operate on tokens without being their owner."
							}
						}
					],
					"ERC20InsufficientBalance(address,uint256,uint256)": [
						{
							"details": "Indicates an error related to the current `balance` of a `sender`. Used in transfers.",
							"params": {
								"balance": "Current balance for the interacting account.",
								"needed": "Minimum amount required to perform a transfer.",
								"sender": "Address whose tokens are being transferred."
							}
						}
					],
					"ERC20InvalidApprover(address)": [
						{
							"details": "Indicates a failure with the `approver` of a token to be approved. Used in approvals.",
							"params": {
								"approver": "Address initiating an approval operation."
							}
						}
					],
					"ERC20InvalidReceiver(address)": [
						{
							"details": "Indicates a failure with the token `receiver`. Used in transfers.",
							"params": {
								"receiver": "Address to which tokens are being transferred."
							}
						}
					],
					"ERC20InvalidSender(address)": [
						{
							"details": "Indicates a failure with the token `sender`. Used in transfers.",
							"params": {
								"sender": "Address whose tokens are being transferred."
							}
						}
					],
					"ERC20InvalidSpender(address)": [
						{
							"details": "Indicates a failure with the `spender` to be approved. Used in approvals.",
							"params": {
								"spender": "Address that may be allowed to operate on tokens without being their owner."
							}
						}
					]
				},
				"events": {
					"Approval(address,address,uint256)": {
						"details": "Emitted when the allowance of a `spender` for an `owner` is set by a call to {approve}. `value` is the new allowance."
					},
					"Transfer(address,address,uint256)": {
						"details": "Emitted when `value` tokens are moved from one account (`from`) to another (`to`). Note that `value` may be zero."
					}
				},
				"kind": "dev",
				"methods": {
					"allowance(address,address)": {
						"details": "See {IERC20-allowance}."
					},
					"approve(address,uint256)": {
						"details": "See {IERC20-approve}. NOTE: If `value` is the maximum `uint256`, the allowance is not updated on `transferFrom`. This is semantically equivalent to an infinite approval. Requirements: - `spender` cannot be the zero address."
					},
					"balanceOf(address)": {
						"details": "See {IERC20-balanceOf}."
					},
					"decimals()": {
						"details": "Returns the number of decimals used to get its user representation. For example, if `decimals` equals `2`, a balance of `505` tokens should be displayed to a user as `5.05` (`505 / 10 ** 2`). Tokens usually opt for a value of 18, imitating the relationship between Ether and Wei. This is the default value returned by this function, unless it's overridden. NOTE: This information is only used for _display_ purposes: it in no way affects any of the arithmetic of the contract, including {IERC20-balanceOf} and {IERC20-transfer}."
					},
					"name()": {
						"details": "Returns the name of the token."
					},
					"symbol()": {
						"details": "Returns the symbol of the token, usually a shorter version of the name."
					},
					"totalSupply()": {
						"details": "See {IERC20-totalSupply}."
					},
					"transfer(address,uint256)": {
						"details": "See {IERC20-transfer}. Requirements: - `to` cannot be the zero address. - the caller must have a balance of at least `value`."
					},
					"transferFrom(address,address,uint256)": {
						"details": "See {IERC20-transferFrom}. Emits an {Approval} event indicating the updated allowance. This is not required by the EIP. See the note at the beginning of {ERC20}. NOTE: Does not update the allowance if the current allowance is the maximum `uint256`. Requirements: - `from` and `to` cannot be the zero address. - `from` must have a balance of at least `value`. - the caller must have allowance for ``from``'s tokens of at least `value`."
					}
				},
				"version": 1
			},
			"evm": {
				"assembly": "    /* \"contracts/Token.sol\":114:1023  contract Token is ERC20(\"Proffesional\", \"PROFI\") {... */\n  mstore(0x40, 0x80)\n    /* \"contracts/Token.sol\":269:681  constructor() {... */\n  callvalue\n  dup1\n  iszero\n  tag_1\n  jumpi\n  0x00\n  dup1\n  revert\ntag_1:\n  pop\n    /* \"@openzeppelin/contracts/token/ERC20/ERC20.sol\":1896:2009  constructor(string memory name_, string memory symbol_) {... */\n  mload(0x40)\n  dup1\n  0x40\n  add\n  0x40\n  mstore\n  dup1\n  0x0c\n  dup2\n  mstore\n  0x20\n  add\n  shl(0xa2, 0x141c9bd999995cda5bdb985b)\n  dup2\n  mstore\n  pop\n  mload(0x40)\n  dup1\n  0x40\n  add\n  0x40\n  mstore\n  dup1\n  0x05\n  dup2\n  mstore\n  0x20\n  add\n  shl(0xd8, 0x50524f4649)\n  dup2\n  mstore\n  pop\n    /* \"@openzeppelin/contracts/token/ERC20/ERC20.sol\":1970:1975  name_ */\n  dup2\n    /* \"@openzeppelin/contracts/token/ERC20/ERC20.sol\":1962:1967  _name */\n  0x03\n    /* \"@openzeppelin/contracts/token/ERC20/ERC20.sol\":1962:1975  _name = name_ */\n  swap1\n  dup2\n  tag_5\n  swap2\n  swap1\n  tag_6\n  jump\t// in\ntag_5:\n  pop\n    /* \"@openzeppelin/contracts/token/ERC20/ERC20.sol\":1985:1992  _symbol */\n  0x04\n    /* \"@openzeppelin/contracts/token/ERC20/ERC20.sol\":1985:2002  _symbol = symbol_ */\n  tag_7\n    /* \"@openzeppelin/contracts/token/ERC20/ERC20.sol\":1995:2002  symbol_ */\n  dup3\n    /* \"@openzeppelin/contracts/token/ERC20/ERC20.sol\":1985:1992  _symbol */\n  dup3\n    /* \"@openzeppelin/contracts/token/ERC20/ERC20.sol\":1985:2002  _symbol = symbol_ */\n  tag_6\n  jump\t// in\ntag_7:\n  pop\n  pop\n    /* \"contracts/Token.sol\":293:298  owner */\n  0x05\n    /* \"contracts/Token.sol\":293:311  owner = msg.sender */\n  dup1\n  sload\n  not(sub(shl(0xa0, 0x01), 0x01))\n  swap1\n  dup2\n  and\n    /* \"contracts/Token.sol\":301:311  msg.sender */\n  caller\n    /* \"contracts/Token.sol\":293:311  owner = msg.sender */\n  swap1\n  dup2\n  or\n  swap1\n  swap3\n  sstore\n    /* \"contracts/Token.sol\":321:324  tom */\n  0x06\n    /* \"contracts/Token.sol\":321:369  tom = 0xcB3a5467756F86692FB3336c58EC41c16B9BEBdF */\n  dup1\n  sload\n  dup3\n  and\n    /* \"contracts/Token.sol\":327:369  0xcB3a5467756F86692FB3336c58EC41c16B9BEBdF */\n  0xcb3a5467756f86692fb3336c58ec41c16b9bebdf\n    /* \"contracts/Token.sol\":321:369  tom = 0xcB3a5467756F86692FB3336c58EC41c16B9BEBdF */\n  or\n  swap1\n  sstore\n    /* \"contracts/Token.sol\":379:382  max */\n  0x07\n    /* \"contracts/Token.sol\":379:427  max = 0xbD0233D4cb7abE917F79f0E80DC7676F4cb818e1 */\n  dup1\n  sload\n  dup3\n  and\n    /* \"contracts/Token.sol\":385:427  0xbD0233D4cb7abE917F79f0E80DC7676F4cb818e1 */\n  0xbd0233d4cb7abe917f79f0e80dc7676f4cb818e1\n    /* \"contracts/Token.sol\":379:427  max = 0xbD0233D4cb7abE917F79f0E80DC7676F4cb818e1 */\n  or\n  swap1\n  sstore\n    /* \"contracts/Token.sol\":437:441  jack */\n  0x08\n    /* \"contracts/Token.sol\":437:486  jack = 0x7CE4B5D0504EdF27ec43610F8679E84BDF81a0b8 */\n  dup1\n  sload\n  swap1\n  swap2\n  and\n    /* \"contracts/Token.sol\":444:486  0x7CE4B5D0504EdF27ec43610F8679E84BDF81a0b8 */\n  0x7ce4b5d0504edf27ec43610f8679e84bdf81a0b8\n    /* \"contracts/Token.sol\":437:486  jack = 0x7CE4B5D0504EdF27ec43610F8679E84BDF81a0b8 */\n  or\n  swap1\n  sstore\n    /* \"contracts/Token.sol\":497:535  _mint(owner, 100_000 * 10**decimals()) */\n  tag_9\n  swap2\n  pop\n    /* \"contracts/Token.sol\":524:534  decimals() */\n  tag_10\n    /* \"contracts/Token.sol\":1013:1014  6 */\n  0x06\n  swap1\n    /* \"contracts/Token.sol\":939:1021  function decimals() public pure override returns (uint8) {... */\n  jump\n    /* \"contracts/Token.sol\":524:534  decimals() */\ntag_10:\n    /* \"contracts/Token.sol\":520:534  10**decimals() */\n  tag_12\n  swap1\n    /* \"contracts/Token.sol\":520:522  10 */\n  0x0a\n    /* \"contracts/Token.sol\":520:534  10**decimals() */\n  tag_13\n  jump\t// in\ntag_12:\n    /* \"contracts/Token.sol\":510:534  100_000 * 10**decimals() */\n  tag_14\n  swap1\n    /* \"contracts/Token.sol\":510:517  100_000 */\n  0x0186a0\n    /* \"contracts/Token.sol\":510:534  100_000 * 10**decimals() */\n  tag_15\n  jump\t// in\ntag_14:\n    /* \"contracts/Token.sol\":497:502  _mint */\n  tag_16\n    /* \"contracts/Token.sol\":497:535  _mint(owner, 100_000 * 10**decimals()) */\n  jump\t// in\ntag_9:\n    /* \"contracts/Token.sol\":551:554  tom */\n  sload(0x06)\n    /* \"contracts/Token.sol\":545:581  _mint(tom, 200_000 * 10**decimals()) */\n  tag_17\n  swap1\n  sub(shl(0xa0, 0x01), 0x01)\n    /* \"contracts/Token.sol\":551:554  tom */\n  and\n    /* \"contracts/Token.sol\":570:580  decimals() */\n  tag_18\n    /* \"contracts/Token.sol\":1013:1014  6 */\n  0x06\n  swap1\n    /* \"contracts/Token.sol\":939:1021  function decimals() public pure override returns (uint8) {... */\n  jump\n    /* \"contracts/Token.sol\":570:580  decimals() */\ntag_18:\n    /* \"contracts/Token.sol\":566:580  10**decimals() */\n  tag_19\n  swap1\n    /* \"contracts/Token.sol\":566:568  10 */\n  0x0a\n    /* \"contracts/Token.sol\":566:580  10**decimals() */\n  tag_13\n  jump\t// in\ntag_19:\n    /* \"contracts/Token.sol\":556:580  200_000 * 10**decimals() */\n  tag_14\n  swap1\n    /* \"contracts/Token.sol\":556:563  200_000 */\n  0x030d40\n    /* \"contracts/Token.sol\":556:580  200_000 * 10**decimals() */\n  tag_15\n  jump\t// in\n    /* \"contracts/Token.sol\":545:581  _mint(tom, 200_000 * 10**decimals()) */\ntag_17:\n    /* \"contracts/Token.sol\":597:600  max */\n  sload(0x07)\n    /* \"contracts/Token.sol\":591:627  _mint(max, 300_000 * 10**decimals()) */\n  tag_21\n  swap1\n  sub(shl(0xa0, 0x01), 0x01)\n    /* \"contracts/Token.sol\":597:600  max */\n  and\n    /* \"contracts/Token.sol\":612:626  10**decimals() */\n  tag_23\n    /* \"contracts/Token.sol\":1013:1014  6 */\n  0x06\n    /* \"contracts/Token.sol\":612:614  10 */\n  0x0a\n    /* \"contracts/Token.sol\":612:626  10**decimals() */\n  tag_13\n  jump\t// in\ntag_23:\n    /* \"contracts/Token.sol\":602:626  300_000 * 10**decimals() */\n  tag_14\n  swap1\n    /* \"contracts/Token.sol\":602:609  300_000 */\n  0x0493e0\n    /* \"contracts/Token.sol\":602:626  300_000 * 10**decimals() */\n  tag_15\n  jump\t// in\n    /* \"contracts/Token.sol\":591:627  _mint(max, 300_000 * 10**decimals()) */\ntag_21:\n    /* \"contracts/Token.sol\":643:647  jack */\n  sload(0x08)\n    /* \"contracts/Token.sol\":637:674  _mint(jack, 400_000 * 10**decimals()) */\n  tag_25\n  swap1\n  sub(shl(0xa0, 0x01), 0x01)\n    /* \"contracts/Token.sol\":643:647  jack */\n  and\n    /* \"contracts/Token.sol\":659:673  10**decimals() */\n  tag_27\n    /* \"contracts/Token.sol\":1013:1014  6 */\n  0x06\n    /* \"contracts/Token.sol\":659:661  10 */\n  0x0a\n    /* \"contracts/Token.sol\":659:673  10**decimals() */\n  tag_13\n  jump\t// in\ntag_27:\n    /* \"contracts/Token.sol\":649:673  400_000 * 10**decimals() */\n  tag_14\n  swap1\n    /* \"contracts/Token.sol\":649:656  400_000 */\n  0x061a80\n    /* \"contracts/Token.sol\":649:673  400_000 * 10**decimals() */\n  tag_15\n  jump\t// in\n    /* \"contracts/Token.sol\":637:674  _mint(jack, 400_000 * 10**decimals()) */\ntag_25:\n    /* \"contracts/Token.sol\":114:1023  contract Token is ERC20(\"Proffesional\", \"PROFI\") {... */\n  jump(tag_57)\n    /* \"@openzeppelin/contracts/token/ERC20/ERC20.sol\":7721:7929  function _mint(address account, uint256 value) internal {... */\ntag_16:\n  sub(shl(0xa0, 0x01), 0x01)\n    /* \"@openzeppelin/contracts/token/ERC20/ERC20.sol\":7791:7812  account == address(0) */\n  dup3\n  and\n    /* \"@openzeppelin/contracts/token/ERC20/ERC20.sol\":7787:7878  if (account == address(0)) {... */\n  tag_32\n  jumpi\n    /* \"@openzeppelin/contracts/token/ERC20/ERC20.sol\":7835:7867  ERC20InvalidReceiver(address(0)) */\n  mload(0x40)\n  shl(0xe0, 0xec442f05)\n  dup2\n  mstore\n    /* \"@openzeppelin/contracts/token/ERC20/ERC20.sol\":7864:7865  0 */\n  0x00\n    /* \"@openzeppelin/contracts/token/ERC20/ERC20.sol\":7835:7867  ERC20InvalidReceiver(address(0)) */\n  0x04\n  dup3\n  add\n    /* \"#utility.yul\":4554:4605   */\n  mstore\n    /* \"#utility.yul\":4527:4545   */\n  0x24\n  add\n    /* \"@openzeppelin/contracts/token/ERC20/ERC20.sol\":7835:7867  ERC20InvalidReceiver(address(0)) */\ntag_33:\n  mload(0x40)\n  dup1\n  swap2\n  sub\n  swap1\n  revert\n    /* \"@openzeppelin/contracts/token/ERC20/ERC20.sol\":7787:7878  if (account == address(0)) {... */\ntag_32:\n    /* \"@openzeppelin/contracts/token/ERC20/ERC20.sol\":7887:7922  _update(address(0), account, value) */\n  tag_35\n    /* \"@openzeppelin/contracts/token/ERC20/ERC20.sol\":7903:7904  0 */\n  0x00\n    /* \"@openzeppelin/contracts/token/ERC20/ERC20.sol\":7907:7914  account */\n  dup4\n    /* \"@openzeppelin/contracts/token/ERC20/ERC20.sol\":7916:7921  value */\n  dup4\n    /* \"@openzeppelin/contracts/token/ERC20/ERC20.sol\":7887:7894  _update */\n  tag_36\n    /* \"@openzeppelin/contracts/token/ERC20/ERC20.sol\":7887:7922  _update(address(0), account, value) */\n  jump\t// in\ntag_35:\n    /* \"@openzeppelin/contracts/token/ERC20/ERC20.sol\":7721:7929  function _mint(address account, uint256 value) internal {... */\n  pop\n  pop\n  jump\t// out\n    /* \"@openzeppelin/contracts/token/ERC20/ERC20.sol\":6271:7378  function _update(address from, address to, uint256 value) internal virtual {... */\ntag_36:\n  sub(shl(0xa0, 0x01), 0x01)\n    /* \"@openzeppelin/contracts/token/ERC20/ERC20.sol\":6360:6378  from == address(0) */\n  dup4\n  and\n    /* \"@openzeppelin/contracts/token/ERC20/ERC20.sol\":6356:6896  if (from == address(0)) {... */\n  tag_38\n  jumpi\n    /* \"@openzeppelin/contracts/token/ERC20/ERC20.sol\":6512:6517  value */\n  dup1\n    /* \"@openzeppelin/contracts/token/ERC20/ERC20.sol\":6496:6508  _totalSupply */\n  0x02\n  0x00\n    /* \"@openzeppelin/contracts/token/ERC20/ERC20.sol\":6496:6517  _totalSupply += value */\n  dup3\n  dup3\n  sload\n  tag_39\n  swap2\n  swap1\n  tag_40\n  jump\t// in\ntag_39:\n  swap1\n  swap2\n  sstore\n  pop\n    /* \"@openzeppelin/contracts/token/ERC20/ERC20.sol\":6356:6896  if (from == address(0)) {... */\n  tag_41\n  swap1\n  pop\n  jump\ntag_38:\n  sub(shl(0xa0, 0x01), 0x01)\n    /* \"@openzeppelin/contracts/token/ERC20/ERC20.sol\":6570:6585  _balances[from] */\n  dup4\n  and\n    /* \"@openzeppelin/contracts/token/ERC20/ERC20.sol\":6548:6567  uint256 fromBalance */\n  0x00\n    /* \"@openzeppelin/contracts/token/ERC20/ERC20.sol\":6570:6585  _balances[from] */\n  swap1\n  dup2\n  mstore\n  0x20\n  dup2\n  swap1\n  mstore\n  0x40\n  swap1\n  keccak256\n  sload\n    /* \"@openzeppelin/contracts/token/ERC20/ERC20.sol\":6603:6622  fromBalance < value */\n  dup2\n  dup2\n  lt\n    /* \"@openzeppelin/contracts/token/ERC20/ERC20.sol\":6599:6714  if (fromBalance < value) {... */\n  iszero\n  tag_42\n  jumpi\n    /* \"@openzeppelin/contracts/token/ERC20/ERC20.sol\":6649:6699  ERC20InsufficientBalance(from, fromBalance, value) */\n  mload(0x40)\n  shl(0xe2, 0x391434e3)\n  dup2\n  mstore\n  sub(shl(0xa0, 0x01), 0x01)\n    /* \"#utility.yul\":4966:4998   */\n  dup6\n  and\n    /* \"@openzeppelin/contracts/token/ERC20/ERC20.sol\":6649:6699  ERC20InsufficientBalance(from, fromBalance, value) */\n  0x04\n  dup3\n  add\n    /* \"#utility.yul\":4948:4999   */\n  mstore\n    /* \"#utility.yul\":5015:5033   */\n  0x24\n  dup2\n  add\n    /* \"#utility.yul\":5008:5042   */\n  dup3\n  swap1\n  mstore\n    /* \"#utility.yul\":5058:5076   */\n  0x44\n  dup2\n  add\n    /* \"#utility.yul\":5051:5085   */\n  dup4\n  swap1\n  mstore\n    /* \"#utility.yul\":4921:4939   */\n  0x64\n  add\n    /* \"@openzeppelin/contracts/token/ERC20/ERC20.sol\":6649:6699  ERC20InsufficientBalance(from, fromBalance, value) */\n  tag_33\n    /* \"#utility.yul\":4746:5091   */\n  jump\n    /* \"@openzeppelin/contracts/token/ERC20/ERC20.sol\":6599:6714  if (fromBalance < value) {... */\ntag_42:\n  sub(shl(0xa0, 0x01), 0x01)\n    /* \"@openzeppelin/contracts/token/ERC20/ERC20.sol\":6834:6849  _balances[from] */\n  dup5\n  and\n    /* \"@openzeppelin/contracts/token/ERC20/ERC20.sol\":6834:6843  _balances */\n  0x00\n    /* \"@openzeppelin/contracts/token/ERC20/ERC20.sol\":6834:6849  _balances[from] */\n  swap1\n  dup2\n  mstore\n  0x20\n  dup2\n  swap1\n  mstore\n  0x40\n  swap1\n  keccak256\n    /* \"@openzeppelin/contracts/token/ERC20/ERC20.sol\":6852:6871  fromBalance - value */\n  swap1\n  dup3\n  swap1\n  sub\n    /* \"@openzeppelin/contracts/token/ERC20/ERC20.sol\":6834:6871  _balances[from] = fromBalance - value */\n  swap1\n  sstore\n    /* \"@openzeppelin/contracts/token/ERC20/ERC20.sol\":6356:6896  if (from == address(0)) {... */\ntag_41:\n  sub(shl(0xa0, 0x01), 0x01)\n    /* \"@openzeppelin/contracts/token/ERC20/ERC20.sol\":6910:6926  to == address(0) */\n  dup3\n  and\n    /* \"@openzeppelin/contracts/token/ERC20/ERC20.sol\":6906:7331  if (to == address(0)) {... */\n  tag_45\n  jumpi\n    /* \"@openzeppelin/contracts/token/ERC20/ERC20.sol\":7073:7085  _totalSupply */\n  0x02\n    /* \"@openzeppelin/contracts/token/ERC20/ERC20.sol\":7073:7094  _totalSupply -= value */\n  dup1\n  sload\n  dup3\n  swap1\n  sub\n  swap1\n  sstore\n    /* \"@openzeppelin/contracts/token/ERC20/ERC20.sol\":6906:7331  if (to == address(0)) {... */\n  jump(tag_46)\ntag_45:\n  sub(shl(0xa0, 0x01), 0x01)\n    /* \"@openzeppelin/contracts/token/ERC20/ERC20.sol\":7284:7297  _balances[to] */\n  dup3\n  and\n    /* \"@openzeppelin/contracts/token/ERC20/ERC20.sol\":7284:7293  _balances */\n  0x00\n    /* \"@openzeppelin/contracts/token/ERC20/ERC20.sol\":7284:7297  _balances[to] */\n  swap1\n  dup2\n  mstore\n  0x20\n  dup2\n  swap1\n  mstore\n  0x40\n  swap1\n  keccak256\n    /* \"@openzeppelin/contracts/token/ERC20/ERC20.sol\":7284:7306  _balances[to] += value */\n  dup1\n  sload\n  dup3\n  add\n  swap1\n  sstore\n    /* \"@openzeppelin/contracts/token/ERC20/ERC20.sol\":6906:7331  if (to == address(0)) {... */\ntag_46:\n    /* \"@openzeppelin/contracts/token/ERC20/ERC20.sol\":7361:7363  to */\n  dup2\n  sub(shl(0xa0, 0x01), 0x01)\n    /* \"@openzeppelin/contracts/token/ERC20/ERC20.sol\":7346:7371  Transfer(from, to, value) */\n  and\n    /* \"@openzeppelin/contracts/token/ERC20/ERC20.sol\":7355:7359  from */\n  dup4\n  sub(shl(0xa0, 0x01), 0x01)\n    /* \"@openzeppelin/contracts/token/ERC20/ERC20.sol\":7346:7371  Transfer(from, to, value) */\n  and\n  0xddf252ad1be2c89b69c2b068fc378daa952ba7f163c4a11628f55a4df523b3ef\n    /* \"@openzeppelin/contracts/token/ERC20/ERC20.sol\":7365:7370  value */\n  dup4\n    /* \"@openzeppelin/contracts/token/ERC20/ERC20.sol\":7346:7371  Transfer(from, to, value) */\n  mload(0x40)\n  tag_47\n  swap2\n    /* \"#utility.yul\":5242:5267   */\n  dup2\n  mstore\n    /* \"#utility.yul\":5230:5232   */\n  0x20\n    /* \"#utility.yul\":5215:5233   */\n  add\n  swap1\n    /* \"#utility.yul\":5096:5273   */\n  jump\n    /* \"@openzeppelin/contracts/token/ERC20/ERC20.sol\":7346:7371  Transfer(from, to, value) */\ntag_47:\n  mload(0x40)\n  dup1\n  swap2\n  sub\n  swap1\n  log3\n    /* \"@openzeppelin/contracts/token/ERC20/ERC20.sol\":6271:7378  function _update(address from, address to, uint256 value) internal virtual {... */\n  pop\n  pop\n  pop\n  jump\t// out\n    /* \"#utility.yul\":14:141   */\ntag_49:\n    /* \"#utility.yul\":75:85   */\n  0x4e487b71\n    /* \"#utility.yul\":70:73   */\n  0xe0\n    /* \"#utility.yul\":66:86   */\n  shl\n    /* \"#utility.yul\":63:64   */\n  0x00\n    /* \"#utility.yul\":56:87   */\n  mstore\n    /* \"#utility.yul\":106:110   */\n  0x41\n    /* \"#utility.yul\":103:104   */\n  0x04\n    /* \"#utility.yul\":96:111   */\n  mstore\n    /* \"#utility.yul\":130:134   */\n  0x24\n    /* \"#utility.yul\":127:128   */\n  0x00\n    /* \"#utility.yul\":120:135   */\n  revert\n    /* \"#utility.yul\":146:526   */\ntag_50:\n    /* \"#utility.yul\":225:226   */\n  0x01\n    /* \"#utility.yul\":221:233   */\n  dup2\n  dup2\n  shr\n  swap1\n    /* \"#utility.yul\":268:280   */\n  dup3\n  and\n  dup1\n    /* \"#utility.yul\":289:350   */\n  tag_60\n  jumpi\n    /* \"#utility.yul\":343:347   */\n  0x7f\n    /* \"#utility.yul\":335:341   */\n  dup3\n    /* \"#utility.yul\":331:348   */\n  and\n    /* \"#utility.yul\":321:348   */\n  swap2\n  pop\n    /* \"#utility.yul\":289:350   */\ntag_60:\n    /* \"#utility.yul\":396:398   */\n  0x20\n    /* \"#utility.yul\":388:394   */\n  dup3\n    /* \"#utility.yul\":385:399   */\n  lt\n    /* \"#utility.yul\":365:383   */\n  dup2\n    /* \"#utility.yul\":362:400   */\n  sub\n    /* \"#utility.yul\":359:520   */\n  tag_61\n  jumpi\n    /* \"#utility.yul\":442:452   */\n  0x4e487b71\n    /* \"#utility.yul\":437:440   */\n  0xe0\n    /* \"#utility.yul\":433:453   */\n  shl\n    /* \"#utility.yul\":430:431   */\n  0x00\n    /* \"#utility.yul\":423:454   */\n  mstore\n    /* \"#utility.yul\":477:481   */\n  0x22\n    /* \"#utility.yul\":474:475   */\n  0x04\n    /* \"#utility.yul\":467:482   */\n  mstore\n    /* \"#utility.yul\":505:509   */\n  0x24\n    /* \"#utility.yul\":502:503   */\n  0x00\n    /* \"#utility.yul\":495:510   */\n  revert\n    /* \"#utility.yul\":359:520   */\ntag_61:\n  pop\n    /* \"#utility.yul\":146:526   */\n  swap2\n  swap1\n  pop\n  jump\t// out\n    /* \"#utility.yul\":657:1200   */\ntag_52:\n    /* \"#utility.yul\":759:761   */\n  0x1f\n    /* \"#utility.yul\":754:757   */\n  dup3\n    /* \"#utility.yul\":751:762   */\n  gt\n    /* \"#utility.yul\":748:1194   */\n  iszero\n  tag_64\n  jumpi\n    /* \"#utility.yul\":795:796   */\n  0x00\n    /* \"#utility.yul\":819:824   */\n  dup2\n    /* \"#utility.yul\":816:817   */\n  0x00\n    /* \"#utility.yul\":809:825   */\n  mstore\n    /* \"#utility.yul\":863:867   */\n  0x20\n    /* \"#utility.yul\":860:861   */\n  0x00\n    /* \"#utility.yul\":850:868   */\n  keccak256\n    /* \"#utility.yul\":933:935   */\n  0x1f\n    /* \"#utility.yul\":921:931   */\n  dup6\n    /* \"#utility.yul\":917:936   */\n  add\n    /* \"#utility.yul\":914:915   */\n  0x05\n    /* \"#utility.yul\":910:937   */\n  shr\n    /* \"#utility.yul\":904:908   */\n  dup2\n    /* \"#utility.yul\":900:938   */\n  add\n    /* \"#utility.yul\":969:973   */\n  0x20\n    /* \"#utility.yul\":957:967   */\n  dup7\n    /* \"#utility.yul\":954:974   */\n  lt\n    /* \"#utility.yul\":951:998   */\n  iszero\n  tag_65\n  jumpi\n  pop\n    /* \"#utility.yul\":992:996   */\n  dup1\n    /* \"#utility.yul\":951:998   */\ntag_65:\n    /* \"#utility.yul\":1047:1049   */\n  0x1f\n    /* \"#utility.yul\":1042:1045   */\n  dup6\n    /* \"#utility.yul\":1038:1050   */\n  add\n    /* \"#utility.yul\":1035:1036   */\n  0x05\n    /* \"#utility.yul\":1031:1051   */\n  shr\n    /* \"#utility.yul\":1025:1029   */\n  dup3\n    /* \"#utility.yul\":1021:1052   */\n  add\n    /* \"#utility.yul\":1011:1052   */\n  swap2\n  pop\n    /* \"#utility.yul\":1102:1184   */\ntag_66:\n    /* \"#utility.yul\":1120:1122   */\n  dup2\n    /* \"#utility.yul\":1113:1118   */\n  dup2\n    /* \"#utility.yul\":1110:1123   */\n  lt\n    /* \"#utility.yul\":1102:1184   */\n  iszero\n  tag_68\n  jumpi\n    /* \"#utility.yul\":1165:1182   */\n  dup3\n  dup2\n  sstore\n    /* \"#utility.yul\":1146:1147   */\n  0x01\n    /* \"#utility.yul\":1135:1148   */\n  add\n    /* \"#utility.yul\":1102:1184   */\n  jump(tag_66)\ntag_68:\n    /* \"#utility.yul\":1106:1109   */\n  pop\n  pop\n  pop\n    /* \"#utility.yul\":748:1194   */\ntag_64:\n    /* \"#utility.yul\":657:1200   */\n  pop\n  pop\n  pop\n  jump\t// out\n    /* \"#utility.yul\":1376:2721   */\ntag_6:\n    /* \"#utility.yul\":1496:1506   */\n  dup2\n  mload\n  sub(shl(0x40, 0x01), 0x01)\n    /* \"#utility.yul\":1518:1548   */\n  dup2\n  gt\n    /* \"#utility.yul\":1515:1571   */\n  iszero\n  tag_72\n  jumpi\n    /* \"#utility.yul\":1551:1569   */\n  tag_72\n  tag_49\n  jump\t// in\ntag_72:\n    /* \"#utility.yul\":1580:1677   */\n  tag_73\n    /* \"#utility.yul\":1670:1676   */\n  dup2\n    /* \"#utility.yul\":1630:1668   */\n  tag_74\n    /* \"#utility.yul\":1662:1666   */\n  dup5\n    /* \"#utility.yul\":1656:1667   */\n  sload\n    /* \"#utility.yul\":1630:1668   */\n  tag_50\n  jump\t// in\ntag_74:\n    /* \"#utility.yul\":1624:1628   */\n  dup5\n    /* \"#utility.yul\":1580:1677   */\n  tag_52\n  jump\t// in\ntag_73:\n    /* \"#utility.yul\":1732:1736   */\n  0x20\n  dup1\n    /* \"#utility.yul\":1789:1791   */\n  0x1f\n    /* \"#utility.yul\":1778:1792   */\n  dup4\n  gt\n    /* \"#utility.yul\":1806:1807   */\n  0x01\n    /* \"#utility.yul\":1801:2464   */\n  dup2\n  eq\n  tag_76\n  jumpi\n    /* \"#utility.yul\":2508:2509   */\n  0x00\n    /* \"#utility.yul\":2525:2531   */\n  dup5\n    /* \"#utility.yul\":2522:2611   */\n  iszero\n  tag_77\n  jumpi\n  pop\n    /* \"#utility.yul\":2577:2596   */\n  dup6\n  dup4\n  add\n    /* \"#utility.yul\":2571:2597   */\n  mload\n    /* \"#utility.yul\":2522:2611   */\ntag_77:\n  not(0x00)\n    /* \"#utility.yul\":1333:1334   */\n  0x03\n    /* \"#utility.yul\":1329:1340   */\n  dup7\n  swap1\n  shl\n    /* \"#utility.yul\":1325:1349   */\n  shr\n    /* \"#utility.yul\":1321:1350   */\n  not\n    /* \"#utility.yul\":1311:1351   */\n  and\n    /* \"#utility.yul\":1357:1358   */\n  0x01\n    /* \"#utility.yul\":1353:1364   */\n  dup6\n  swap1\n  shl\n    /* \"#utility.yul\":1308:1365   */\n  or\n    /* \"#utility.yul\":2624:2705   */\n  dup6\n  sstore\n    /* \"#utility.yul\":1771:2715   */\n  jump(tag_68)\n    /* \"#utility.yul\":1801:2464   */\ntag_76:\n    /* \"#utility.yul\":604:605   */\n  0x00\n    /* \"#utility.yul\":597:611   */\n  dup6\n  dup2\n  mstore\n    /* \"#utility.yul\":641:645   */\n  0x20\n    /* \"#utility.yul\":628:646   */\n  dup2\n  keccak256\n  not(0x1f)\n    /* \"#utility.yul\":1837:1857   */\n  dup7\n  and\n  swap2\n    /* \"#utility.yul\":1955:2191   */\ntag_80:\n    /* \"#utility.yul\":1969:1976   */\n  dup3\n    /* \"#utility.yul\":1966:1967   */\n  dup2\n    /* \"#utility.yul\":1963:1977   */\n  lt\n    /* \"#utility.yul\":1955:2191   */\n  iszero\n  tag_82\n  jumpi\n    /* \"#utility.yul\":2058:2077   */\n  dup9\n  dup7\n  add\n    /* \"#utility.yul\":2052:2078   */\n  mload\n    /* \"#utility.yul\":2037:2079   */\n  dup3\n  sstore\n    /* \"#utility.yul\":2150:2177   */\n  swap5\n  dup5\n  add\n  swap5\n    /* \"#utility.yul\":2118:2119   */\n  0x01\n    /* \"#utility.yul\":2106:2120   */\n  swap1\n  swap2\n  add\n  swap1\n    /* \"#utility.yul\":1985:2004   */\n  dup5\n  add\n    /* \"#utility.yul\":1955:2191   */\n  jump(tag_80)\ntag_82:\n    /* \"#utility.yul\":1959:1962   */\n  pop\n    /* \"#utility.yul\":2219:2225   */\n  dup6\n    /* \"#utility.yul\":2210:2217   */\n  dup3\n    /* \"#utility.yul\":2207:2226   */\n  lt\n    /* \"#utility.yul\":2204:2405   */\n  iszero\n  tag_83\n  jumpi\n    /* \"#utility.yul\":2280:2299   */\n  dup8\n  dup6\n  add\n    /* \"#utility.yul\":2274:2300   */\n  mload\n  not(0x00)\n    /* \"#utility.yul\":2363:2364   */\n  0x03\n    /* \"#utility.yul\":2359:2373   */\n  dup9\n  swap1\n  shl\n    /* \"#utility.yul\":2375:2378   */\n  0xf8\n    /* \"#utility.yul\":2355:2379   */\n  and\n    /* \"#utility.yul\":2351:2388   */\n  shr\n    /* \"#utility.yul\":2347:2389   */\n  not\n    /* \"#utility.yul\":2332:2390   */\n  and\n    /* \"#utility.yul\":2317:2391   */\n  dup2\n  sstore\n    /* \"#utility.yul\":2204:2405   */\ntag_83:\n  pop\n  pop\n  pop\n  pop\n  pop\n    /* \"#utility.yul\":2451:2452   */\n  0x01\n    /* \"#utility.yul\":2435:2449   */\n  swap1\n  dup2\n  shl\n    /* \"#utility.yul\":2431:2453   */\n  add\n    /* \"#utility.yul\":2418:2454   */\n  swap1\n  sstore\n  pop\n    /* \"#utility.yul\":1376:2721   */\n  jump\t// out\n    /* \"#utility.yul\":2726:2853   */\ntag_54:\n    /* \"#utility.yul\":2787:2797   */\n  0x4e487b71\n    /* \"#utility.yul\":2782:2785   */\n  0xe0\n    /* \"#utility.yul\":2778:2798   */\n  shl\n    /* \"#utility.yul\":2775:2776   */\n  0x00\n    /* \"#utility.yul\":2768:2799   */\n  mstore\n    /* \"#utility.yul\":2818:2822   */\n  0x11\n    /* \"#utility.yul\":2815:2816   */\n  0x04\n    /* \"#utility.yul\":2808:2823   */\n  mstore\n    /* \"#utility.yul\":2842:2846   */\n  0x24\n    /* \"#utility.yul\":2839:2840   */\n  0x00\n    /* \"#utility.yul\":2832:2847   */\n  revert\n    /* \"#utility.yul\":2858:3274   */\ntag_55:\n    /* \"#utility.yul\":2947:2948   */\n  0x01\n    /* \"#utility.yul\":2984:2989   */\n  dup2\n    /* \"#utility.yul\":2947:2948   */\n  dup2\n    /* \"#utility.yul\":2998:3268   */\ntag_86:\n    /* \"#utility.yul\":3019:3026   */\n  dup1\n    /* \"#utility.yul\":3009:3017   */\n  dup6\n    /* \"#utility.yul\":3006:3027   */\n  gt\n    /* \"#utility.yul\":2998:3268   */\n  iszero\n  tag_88\n  jumpi\n    /* \"#utility.yul\":3078:3082   */\n  dup2\n    /* \"#utility.yul\":3074:3075   */\n  0x00\n    /* \"#utility.yul\":3070:3076   */\n  not\n    /* \"#utility.yul\":3066:3083   */\n  div\n    /* \"#utility.yul\":3060:3064   */\n  dup3\n    /* \"#utility.yul\":3057:3084   */\n  gt\n    /* \"#utility.yul\":3054:3107   */\n  iszero\n  tag_90\n  jumpi\n    /* \"#utility.yul\":3087:3105   */\n  tag_90\n  tag_54\n  jump\t// in\ntag_90:\n    /* \"#utility.yul\":3137:3144   */\n  dup1\n    /* \"#utility.yul\":3127:3135   */\n  dup6\n    /* \"#utility.yul\":3123:3145   */\n  and\n    /* \"#utility.yul\":3120:3175   */\n  iszero\n  tag_91\n  jumpi\n    /* \"#utility.yul\":3157:3173   */\n  swap2\n  dup2\n  mul\n  swap2\n    /* \"#utility.yul\":3120:3175   */\ntag_91:\n    /* \"#utility.yul\":3236:3258   */\n  swap4\n  dup5\n  shr\n  swap4\n    /* \"#utility.yul\":3196:3211   */\n  swap1\n  dup1\n  mul\n  swap1\n    /* \"#utility.yul\":2998:3268   */\n  jump(tag_86)\ntag_88:\n    /* \"#utility.yul\":3002:3005   */\n  pop\n    /* \"#utility.yul\":2858:3274   */\n  swap3\n  pop\n  swap3\n  swap1\n  pop\n  jump\t// out\n    /* \"#utility.yul\":3279:4085   */\ntag_56:\n    /* \"#utility.yul\":3328:3333   */\n  0x00\n    /* \"#utility.yul\":3358:3366   */\n  dup3\n    /* \"#utility.yul\":3348:3428   */\n  tag_93\n  jumpi\n  pop\n    /* \"#utility.yul\":3399:3400   */\n  0x01\n    /* \"#utility.yul\":3413:3418   */\n  jump(tag_92)\n    /* \"#utility.yul\":3348:3428   */\ntag_93:\n    /* \"#utility.yul\":3447:3451   */\n  dup2\n    /* \"#utility.yul\":3437:3513   */\n  tag_94\n  jumpi\n  pop\n    /* \"#utility.yul\":3484:3485   */\n  0x00\n    /* \"#utility.yul\":3498:3503   */\n  jump(tag_92)\n    /* \"#utility.yul\":3437:3513   */\ntag_94:\n    /* \"#utility.yul\":3529:3533   */\n  dup2\n    /* \"#utility.yul\":3547:3548   */\n  0x01\n    /* \"#utility.yul\":3542:3601   */\n  dup2\n  eq\n  tag_96\n  jumpi\n    /* \"#utility.yul\":3615:3616   */\n  0x02\n    /* \"#utility.yul\":3610:3740   */\n  dup2\n  eq\n  tag_97\n  jumpi\n    /* \"#utility.yul\":3522:3740   */\n  jump(tag_95)\n    /* \"#utility.yul\":3542:3601   */\ntag_96:\n    /* \"#utility.yul\":3572:3573   */\n  0x01\n    /* \"#utility.yul\":3563:3573   */\n  swap2\n  pop\n    /* \"#utility.yul\":3586:3591   */\n  pop\n  jump(tag_92)\n    /* \"#utility.yul\":3610:3740   */\ntag_97:\n    /* \"#utility.yul\":3647:3650   */\n  0xff\n    /* \"#utility.yul\":3637:3645   */\n  dup5\n    /* \"#utility.yul\":3634:3651   */\n  gt\n    /* \"#utility.yul\":3631:3674   */\n  iszero\n  tag_99\n  jumpi\n    /* \"#utility.yul\":3654:3672   */\n  tag_99\n  tag_54\n  jump\t// in\ntag_99:\n  pop\n  pop\n    /* \"#utility.yul\":3710:3711   */\n  0x01\n    /* \"#utility.yul\":3696:3712   */\n  dup3\n  shl\n    /* \"#utility.yul\":3725:3730   */\n  jump(tag_92)\n    /* \"#utility.yul\":3522:3740   */\ntag_95:\n  pop\n    /* \"#utility.yul\":3824:3826   */\n  0x20\n    /* \"#utility.yul\":3814:3822   */\n  dup4\n    /* \"#utility.yul\":3811:3827   */\n  lt\n    /* \"#utility.yul\":3805:3808   */\n  0x0133\n    /* \"#utility.yul\":3799:3803   */\n  dup4\n    /* \"#utility.yul\":3796:3809   */\n  lt\n    /* \"#utility.yul\":3792:3828   */\n  and\n    /* \"#utility.yul\":3786:3788   */\n  0x4e\n    /* \"#utility.yul\":3776:3784   */\n  dup5\n    /* \"#utility.yul\":3773:3789   */\n  lt\n    /* \"#utility.yul\":3768:3770   */\n  0x0b\n    /* \"#utility.yul\":3762:3766   */\n  dup5\n    /* \"#utility.yul\":3759:3771   */\n  lt\n    /* \"#utility.yul\":3755:3790   */\n  and\n    /* \"#utility.yul\":3752:3829   */\n  or\n    /* \"#utility.yul\":3749:3908   */\n  iszero\n  tag_100\n  jumpi\n  pop\n    /* \"#utility.yul\":3861:3880   */\n  dup2\n  dup2\n  exp\n    /* \"#utility.yul\":3893:3898   */\n  jump(tag_92)\n    /* \"#utility.yul\":3749:3908   */\ntag_100:\n    /* \"#utility.yul\":3940:3974   */\n  tag_101\n    /* \"#utility.yul\":3965:3973   */\n  dup4\n    /* \"#utility.yul\":3959:3963   */\n  dup4\n    /* \"#utility.yul\":3940:3974   */\n  tag_55\n  jump\t// in\ntag_101:\n    /* \"#utility.yul\":4010:4016   */\n  dup1\n    /* \"#utility.yul\":4006:4007   */\n  0x00\n    /* \"#utility.yul\":4002:4008   */\n  not\n    /* \"#utility.yul\":3998:4017   */\n  div\n    /* \"#utility.yul\":3989:3996   */\n  dup3\n    /* \"#utility.yul\":3986:4018   */\n  gt\n    /* \"#utility.yul\":3983:4041   */\n  iszero\n  tag_103\n  jumpi\n    /* \"#utility.yul\":4021:4039   */\n  tag_103\n  tag_54\n  jump\t// in\ntag_103:\n    /* \"#utility.yul\":4059:4079   */\n  mul\n  swap1\n  pop\n    /* \"#utility.yul\":3279:4085   */\ntag_92:\n  swap3\n  swap2\n  pop\n  pop\n  jump\t// out\n    /* \"#utility.yul\":4090:4230   */\ntag_13:\n    /* \"#utility.yul\":4148:4153   */\n  0x00\n    /* \"#utility.yul\":4177:4224   */\n  tag_105\n    /* \"#utility.yul\":4218:4222   */\n  0xff\n    /* \"#utility.yul\":4208:4216   */\n  dup5\n    /* \"#utility.yul\":4204:4223   */\n  and\n    /* \"#utility.yul\":4198:4202   */\n  dup4\n    /* \"#utility.yul\":4177:4224   */\n  tag_56\n  jump\t// in\ntag_105:\n    /* \"#utility.yul\":4168:4224   */\n  swap4\n    /* \"#utility.yul\":4090:4230   */\n  swap3\n  pop\n  pop\n  pop\n  jump\t// out\n    /* \"#utility.yul\":4235:4403   */\ntag_15:\n    /* \"#utility.yul\":4308:4317   */\n  dup1\n  dup3\n  mul\n    /* \"#utility.yul\":4339:4348   */\n  dup2\n  iszero\n    /* \"#utility.yul\":4356:4371   */\n  dup3\n  dup3\n  div\n    /* \"#utility.yul\":4350:4372   */\n  dup5\n  eq\n    /* \"#utility.yul\":4336:4373   */\n  or\n    /* \"#utility.yul\":4326:4397   */\n  tag_92\n  jumpi\n    /* \"#utility.yul\":4377:4395   */\n  tag_92\n  tag_54\n  jump\t// in\n    /* \"#utility.yul\":4616:4741   */\ntag_40:\n    /* \"#utility.yul\":4681:4690   */\n  dup1\n  dup3\n  add\n    /* \"#utility.yul\":4702:4712   */\n  dup1\n  dup3\n  gt\n    /* \"#utility.yul\":4699:4735   */\n  iszero\n  tag_92\n  jumpi\n    /* \"#utility.yul\":4715:4733   */\n  tag_92\n  tag_54\n  jump\t// in\n    /* \"#utility.yul\":5096:5273   */\ntag_57:\n    /* \"contracts/Token.sol\":114:1023  contract Token is ERC20(\"Proffesional\", \"PROFI\") {... */\n  dataSize(sub_0)\n  dup1\n  dataOffset(sub_0)\n  0x00\n  codecopy\n  0x00\n  return\nstop\n\nsub_0: assembly {\n        /* \"contracts/Token.sol\":114:1023  contract Token is ERC20(\"Proffesional\", \"PROFI\") {... */\n      mstore(0x40, 0x80)\n      callvalue\n      dup1\n      iszero\n      tag_1\n      jumpi\n      0x00\n      dup1\n      revert\n    tag_1:\n      pop\n      jumpi(tag_2, lt(calldatasize, 0x04))\n      shr(0xe0, calldataload(0x00))\n      dup1\n      0x6ac5db19\n      gt\n      tag_18\n      jumpi\n      dup1\n      0xa9059cbb\n      gt\n      tag_19\n      jumpi\n      dup1\n      0xa9059cbb\n      eq\n      tag_14\n      jumpi\n      dup1\n      0xce266af8\n      eq\n      tag_15\n      jumpi\n      dup1\n      0xdd62ed3e\n      eq\n      tag_16\n      jumpi\n      dup1\n      0xf5537ede\n      eq\n      tag_17\n      jumpi\n      0x00\n      dup1\n      revert\n    tag_19:\n      dup1\n      0x6ac5db19\n      eq\n      tag_10\n      jumpi\n      dup1\n      0x70a08231\n      eq\n      tag_11\n      jumpi\n      dup1\n      0x8da5cb5b\n      eq\n      tag_12\n      jumpi\n      dup1\n      0x95d89b41\n      eq\n      tag_13\n      jumpi\n      0x00\n      dup1\n      revert\n    tag_18:\n      dup1\n      0x18160ddd\n      gt\n      tag_20\n      jumpi\n      dup1\n      0x18160ddd\n      eq\n      tag_6\n      jumpi\n      dup1\n      0x23b872dd\n      eq\n      tag_7\n      jumpi\n      dup1\n      0x313ce567\n      eq\n      tag_8\n      jumpi\n      dup1\n      0x5cd07ee6\n      eq\n      tag_9\n      jumpi\n      0x00\n      dup1\n      revert\n    tag_20:\n      dup1\n      0x05417143\n      eq\n      tag_3\n      jumpi\n      dup1\n      0x06fdde03\n      eq\n      tag_4\n      jumpi\n      dup1\n      0x095ea7b3\n      eq\n      tag_5\n      jumpi\n    tag_2:\n      0x00\n      dup1\n      revert\n        /* \"contracts/Token.sol\":243:262  address public jack */\n    tag_3:\n      sload(0x08)\n      tag_21\n      swap1\n      sub(shl(0xa0, 0x01), 0x01)\n      and\n      dup2\n      jump\n    tag_21:\n      mload(0x40)\n      sub(shl(0xa0, 0x01), 0x01)\n        /* \"#utility.yul\":178:210   */\n      swap1\n      swap2\n      and\n        /* \"#utility.yul\":160:211   */\n      dup2\n      mstore\n        /* \"#utility.yul\":148:150   */\n      0x20\n        /* \"#utility.yul\":133:151   */\n      add\n        /* \"contracts/Token.sol\":243:262  address public jack */\n    tag_23:\n      mload(0x40)\n      dup1\n      swap2\n      sub\n      swap1\n      return\n        /* \"@openzeppelin/contracts/token/ERC20/ERC20.sol\":2074:2163  function name() public view virtual returns (string memory) {... */\n    tag_4:\n      tag_25\n      tag_26\n      jump\t// in\n    tag_25:\n      mload(0x40)\n      tag_23\n      swap2\n      swap1\n      tag_28\n      jump\t// in\n        /* \"@openzeppelin/contracts/token/ERC20/ERC20.sol\":4293:4479  function approve(address spender, uint256 value) public virtual returns (bool) {... */\n    tag_5:\n      tag_29\n      tag_30\n      calldatasize\n      0x04\n      tag_31\n      jump\t// in\n    tag_30:\n      tag_32\n      jump\t// in\n    tag_29:\n      mload(0x40)\n        /* \"#utility.yul\":1377:1391   */\n      swap1\n      iszero\n        /* \"#utility.yul\":1370:1392   */\n      iszero\n        /* \"#utility.yul\":1352:1393   */\n      dup2\n      mstore\n        /* \"#utility.yul\":1340:1342   */\n      0x20\n        /* \"#utility.yul\":1325:1343   */\n      add\n        /* \"@openzeppelin/contracts/token/ERC20/ERC20.sol\":4293:4479  function approve(address spender, uint256 value) public virtual returns (bool) {... */\n      tag_23\n        /* \"#utility.yul\":1212:1399   */\n      jump\n        /* \"@openzeppelin/contracts/token/ERC20/ERC20.sol\":3144:3241  function totalSupply() public view virtual returns (uint256) {... */\n    tag_6:\n        /* \"@openzeppelin/contracts/token/ERC20/ERC20.sol\":3222:3234  _totalSupply */\n      sload(0x02)\n        /* \"@openzeppelin/contracts/token/ERC20/ERC20.sol\":3144:3241  function totalSupply() public view virtual returns (uint256) {... */\n    tag_35:\n      mload(0x40)\n        /* \"#utility.yul\":1550:1575   */\n      swap1\n      dup2\n      mstore\n        /* \"#utility.yul\":1538:1540   */\n      0x20\n        /* \"#utility.yul\":1523:1541   */\n      add\n        /* \"@openzeppelin/contracts/token/ERC20/ERC20.sol\":3144:3241  function totalSupply() public view virtual returns (uint256) {... */\n      tag_23\n        /* \"#utility.yul\":1404:1581   */\n      jump\n        /* \"@openzeppelin/contracts/token/ERC20/ERC20.sol\":5039:5283  function transferFrom(address from, address to, uint256 value) public virtual returns (bool) {... */\n    tag_7:\n      tag_29\n      tag_40\n      calldatasize\n      0x04\n      tag_41\n      jump\t// in\n    tag_40:\n      tag_42\n      jump\t// in\n        /* \"contracts/Token.sol\":939:1021  function decimals() public pure override returns (uint8) {... */\n    tag_8:\n      mload(0x40)\n        /* \"contracts/Token.sol\":1013:1014  6 */\n      0x06\n        /* \"#utility.yul\":2061:2097   */\n      dup2\n      mstore\n        /* \"#utility.yul\":2049:2051   */\n      0x20\n        /* \"#utility.yul\":2034:2052   */\n      add\n        /* \"contracts/Token.sol\":939:1021  function decimals() public pure override returns (uint8) {... */\n      tag_23\n        /* \"#utility.yul\":1919:2103   */\n      jump\n        /* \"contracts/Token.sol\":687:775  function getRewrdCode() public {... */\n    tag_9:\n      tag_48\n      tag_49\n      jump\t// in\n    tag_48:\n      stop\n        /* \"contracts/Token.sol\":219:237  address public max */\n    tag_10:\n      sload(0x07)\n      tag_21\n      swap1\n      sub(shl(0xa0, 0x01), 0x01)\n      and\n      dup2\n      jump\n        /* \"@openzeppelin/contracts/token/ERC20/ERC20.sol\":3299:3415  function balanceOf(address account) public view virtual returns (uint256) {... */\n    tag_11:\n      tag_35\n      tag_54\n      calldatasize\n      0x04\n      tag_55\n      jump\t// in\n    tag_54:\n      sub(shl(0xa0, 0x01), 0x01)\n        /* \"@openzeppelin/contracts/token/ERC20/ERC20.sol\":3390:3408  _balances[account] */\n      and\n        /* \"@openzeppelin/contracts/token/ERC20/ERC20.sol\":3364:3371  uint256 */\n      0x00\n        /* \"@openzeppelin/contracts/token/ERC20/ERC20.sol\":3390:3408  _balances[account] */\n      swap1\n      dup2\n      mstore\n      0x20\n      dup2\n      swap1\n      mstore\n      0x40\n      swap1\n      keccak256\n      sload\n      swap1\n        /* \"@openzeppelin/contracts/token/ERC20/ERC20.sol\":3299:3415  function balanceOf(address account) public view virtual returns (uint256) {... */\n      jump\n        /* \"contracts/Token.sol\":169:189  address public owner */\n    tag_12:\n      sload(0x05)\n      tag_21\n      swap1\n      sub(shl(0xa0, 0x01), 0x01)\n      and\n      dup2\n      jump\n        /* \"@openzeppelin/contracts/token/ERC20/ERC20.sol\":2276:2369  function symbol() public view virtual returns (string memory) {... */\n    tag_13:\n      tag_25\n      tag_62\n      jump\t// in\n        /* \"@openzeppelin/contracts/token/ERC20/ERC20.sol\":3610:3788  function transfer(address to, uint256 value) public virtual returns (bool) {... */\n    tag_14:\n      tag_29\n      tag_65\n      calldatasize\n      0x04\n      tag_31\n      jump\t// in\n    tag_65:\n      tag_66\n      jump\t// in\n        /* \"contracts/Token.sol\":195:213  address public tom */\n    tag_15:\n      sload(0x06)\n      tag_21\n      swap1\n      sub(shl(0xa0, 0x01), 0x01)\n      and\n      dup2\n      jump\n        /* \"@openzeppelin/contracts/token/ERC20/ERC20.sol\":3846:3986  function allowance(address owner, address spender) public view virtual returns (uint256) {... */\n    tag_16:\n      tag_35\n      tag_72\n      calldatasize\n      0x04\n      tag_73\n      jump\t// in\n    tag_72:\n      sub(shl(0xa0, 0x01), 0x01)\n        /* \"@openzeppelin/contracts/token/ERC20/ERC20.sol\":3952:3970  _allowances[owner] */\n      swap2\n      dup3\n      and\n        /* \"@openzeppelin/contracts/token/ERC20/ERC20.sol\":3926:3933  uint256 */\n      0x00\n        /* \"@openzeppelin/contracts/token/ERC20/ERC20.sol\":3952:3970  _allowances[owner] */\n      swap1\n      dup2\n      mstore\n        /* \"@openzeppelin/contracts/token/ERC20/ERC20.sol\":3952:3963  _allowances */\n      0x01\n        /* \"@openzeppelin/contracts/token/ERC20/ERC20.sol\":3952:3970  _allowances[owner] */\n      0x20\n      swap1\n      dup2\n      mstore\n      0x40\n      dup1\n      dup4\n      keccak256\n        /* \"@openzeppelin/contracts/token/ERC20/ERC20.sol\":3952:3979  _allowances[owner][spender] */\n      swap4\n      swap1\n      swap5\n      and\n      dup3\n      mstore\n      swap2\n      swap1\n      swap2\n      mstore\n      keccak256\n      sload\n      swap1\n        /* \"@openzeppelin/contracts/token/ERC20/ERC20.sol\":3846:3986  function allowance(address owner, address spender) public view virtual returns (uint256) {... */\n      jump\n        /* \"contracts/Token.sol\":781:933  function transferToken(... */\n    tag_17:\n      tag_48\n      tag_77\n      calldatasize\n      0x04\n      tag_41\n      jump\t// in\n    tag_77:\n      tag_78\n      jump\t// in\n        /* \"@openzeppelin/contracts/token/ERC20/ERC20.sol\":2074:2163  function name() public view virtual returns (string memory) {... */\n    tag_26:\n        /* \"@openzeppelin/contracts/token/ERC20/ERC20.sol\":2119:2132  string memory */\n      0x60\n        /* \"@openzeppelin/contracts/token/ERC20/ERC20.sol\":2151:2156  _name */\n      0x03\n        /* \"@openzeppelin/contracts/token/ERC20/ERC20.sol\":2144:2156  return _name */\n      dup1\n      sload\n      tag_80\n      swap1\n      tag_81\n      jump\t// in\n    tag_80:\n      dup1\n      0x1f\n      add\n      0x20\n      dup1\n      swap2\n      div\n      mul\n      0x20\n      add\n      mload(0x40)\n      swap1\n      dup2\n      add\n      0x40\n      mstore\n      dup1\n      swap3\n      swap2\n      swap1\n      dup2\n      dup2\n      mstore\n      0x20\n      add\n      dup3\n      dup1\n      sload\n      tag_82\n      swap1\n      tag_81\n      jump\t// in\n    tag_82:\n      dup1\n      iszero\n      tag_83\n      jumpi\n      dup1\n      0x1f\n      lt\n      tag_84\n      jumpi\n      0x0100\n      dup1\n      dup4\n      sload\n      div\n      mul\n      dup4\n      mstore\n      swap2\n      0x20\n      add\n      swap2\n      jump(tag_83)\n    tag_84:\n      dup3\n      add\n      swap2\n      swap1\n      0x00\n      mstore\n      keccak256(0x00, 0x20)\n      swap1\n    tag_85:\n      dup2\n      sload\n      dup2\n      mstore\n      swap1\n      0x01\n      add\n      swap1\n      0x20\n      add\n      dup1\n      dup4\n      gt\n      tag_85\n      jumpi\n      dup3\n      swap1\n      sub\n      0x1f\n      and\n      dup3\n      add\n      swap2\n    tag_83:\n      pop\n      pop\n      pop\n      pop\n      pop\n      swap1\n      pop\n        /* \"@openzeppelin/contracts/token/ERC20/ERC20.sol\":2074:2163  function name() public view virtual returns (string memory) {... */\n      swap1\n      jump\t// out\n        /* \"@openzeppelin/contracts/token/ERC20/ERC20.sol\":4293:4479  function approve(address spender, uint256 value) public virtual returns (bool) {... */\n    tag_32:\n        /* \"@openzeppelin/contracts/token/ERC20/ERC20.sol\":4366:4370  bool */\n      0x00\n        /* \"@openzeppelin/contracts/utils/Context.sol\":735:745  msg.sender */\n      caller\n        /* \"@openzeppelin/contracts/token/ERC20/ERC20.sol\":4420:4451  _approve(owner, spender, value) */\n      tag_89\n        /* \"@openzeppelin/contracts/utils/Context.sol\":735:745  msg.sender */\n      dup2\n        /* \"@openzeppelin/contracts/token/ERC20/ERC20.sol\":4436:4443  spender */\n      dup6\n        /* \"@openzeppelin/contracts/token/ERC20/ERC20.sol\":4445:4450  value */\n      dup6\n        /* \"@openzeppelin/contracts/token/ERC20/ERC20.sol\":4420:4428  _approve */\n      tag_90\n        /* \"@openzeppelin/contracts/token/ERC20/ERC20.sol\":4420:4451  _approve(owner, spender, value) */\n      jump\t// in\n    tag_89:\n        /* \"@openzeppelin/contracts/token/ERC20/ERC20.sol\":4468:4472  true */\n      0x01\n        /* \"@openzeppelin/contracts/token/ERC20/ERC20.sol\":4461:4472  return true */\n      swap2\n      pop\n      pop\n        /* \"@openzeppelin/contracts/token/ERC20/ERC20.sol\":4293:4479  function approve(address spender, uint256 value) public virtual returns (bool) {... */\n    tag_86:\n      swap3\n      swap2\n      pop\n      pop\n      jump\t// out\n        /* \"@openzeppelin/contracts/token/ERC20/ERC20.sol\":5039:5283  function transferFrom(address from, address to, uint256 value) public virtual returns (bool) {... */\n    tag_42:\n        /* \"@openzeppelin/contracts/token/ERC20/ERC20.sol\":5126:5130  bool */\n      0x00\n        /* \"@openzeppelin/contracts/utils/Context.sol\":735:745  msg.sender */\n      caller\n        /* \"@openzeppelin/contracts/token/ERC20/ERC20.sol\":5182:5219  _spendAllowance(from, spender, value) */\n      tag_94\n        /* \"@openzeppelin/contracts/token/ERC20/ERC20.sol\":5198:5202  from */\n      dup6\n        /* \"@openzeppelin/contracts/utils/Context.sol\":735:745  msg.sender */\n      dup3\n        /* \"@openzeppelin/contracts/token/ERC20/ERC20.sol\":5213:5218  value */\n      dup6\n        /* \"@openzeppelin/contracts/token/ERC20/ERC20.sol\":5182:5197  _spendAllowance */\n      tag_95\n        /* \"@openzeppelin/contracts/token/ERC20/ERC20.sol\":5182:5219  _spendAllowance(from, spender, value) */\n      jump\t// in\n    tag_94:\n        /* \"@openzeppelin/contracts/token/ERC20/ERC20.sol\":5229:5255  _transfer(from, to, value) */\n      tag_96\n        /* \"@openzeppelin/contracts/token/ERC20/ERC20.sol\":5239:5243  from */\n      dup6\n        /* \"@openzeppelin/contracts/token/ERC20/ERC20.sol\":5245:5247  to */\n      dup6\n        /* \"@openzeppelin/contracts/token/ERC20/ERC20.sol\":5249:5254  value */\n      dup6\n        /* \"@openzeppelin/contracts/token/ERC20/ERC20.sol\":5229:5238  _transfer */\n      tag_97\n        /* \"@openzeppelin/contracts/token/ERC20/ERC20.sol\":5229:5255  _transfer(from, to, value) */\n      jump\t// in\n    tag_96:\n      pop\n        /* \"@openzeppelin/contracts/token/ERC20/ERC20.sol\":5272:5276  true */\n      0x01\n      swap5\n        /* \"@openzeppelin/contracts/token/ERC20/ERC20.sol\":5039:5283  function transferFrom(address from, address to, uint256 value) public virtual returns (bool) {... */\n      swap4\n      pop\n      pop\n      pop\n      pop\n      jump\t// out\n        /* \"contracts/Token.sol\":687:775  function getRewrdCode() public {... */\n    tag_49:\n        /* \"contracts/Token.sol\":728:768  _mint(msg.sender, 100 * 10 * decimals()) */\n      tag_100\n        /* \"contracts/Token.sol\":734:744  msg.sender */\n      caller\n        /* \"contracts/Token.sol\":746:767  100 * 10 * decimals() */\n      tag_102\n        /* \"contracts/Token.sol\":1013:1014  6 */\n      0x06\n        /* \"contracts/Token.sol\":746:754  100 * 10 */\n      0x03e8\n        /* \"contracts/Token.sol\":746:767  100 * 10 * decimals() */\n      tag_103\n      jump\t// in\n    tag_102:\n        /* \"contracts/Token.sol\":728:768  _mint(msg.sender, 100 * 10 * decimals()) */\n      0xffff\n      and\n        /* \"contracts/Token.sol\":728:733  _mint */\n      tag_104\n        /* \"contracts/Token.sol\":728:768  _mint(msg.sender, 100 * 10 * decimals()) */\n      jump\t// in\n    tag_100:\n        /* \"contracts/Token.sol\":687:775  function getRewrdCode() public {... */\n      jump\t// out\n        /* \"@openzeppelin/contracts/token/ERC20/ERC20.sol\":2276:2369  function symbol() public view virtual returns (string memory) {... */\n    tag_62:\n        /* \"@openzeppelin/contracts/token/ERC20/ERC20.sol\":2323:2336  string memory */\n      0x60\n        /* \"@openzeppelin/contracts/token/ERC20/ERC20.sol\":2355:2362  _symbol */\n      0x04\n        /* \"@openzeppelin/contracts/token/ERC20/ERC20.sol\":2348:2362  return _symbol */\n      dup1\n      sload\n      tag_80\n      swap1\n      tag_81\n      jump\t// in\n        /* \"@openzeppelin/contracts/token/ERC20/ERC20.sol\":3610:3788  function transfer(address to, uint256 value) public virtual returns (bool) {... */\n    tag_66:\n        /* \"@openzeppelin/contracts/token/ERC20/ERC20.sol\":3679:3683  bool */\n      0x00\n        /* \"@openzeppelin/contracts/utils/Context.sol\":735:745  msg.sender */\n      caller\n        /* \"@openzeppelin/contracts/token/ERC20/ERC20.sol\":3733:3760  _transfer(owner, to, value) */\n      tag_89\n        /* \"@openzeppelin/contracts/utils/Context.sol\":735:745  msg.sender */\n      dup2\n        /* \"@openzeppelin/contracts/token/ERC20/ERC20.sol\":3750:3752  to */\n      dup6\n        /* \"@openzeppelin/contracts/token/ERC20/ERC20.sol\":3754:3759  value */\n      dup6\n        /* \"@openzeppelin/contracts/token/ERC20/ERC20.sol\":3733:3742  _transfer */\n      tag_97\n        /* \"@openzeppelin/contracts/token/ERC20/ERC20.sol\":3733:3760  _transfer(owner, to, value) */\n      jump\t// in\n        /* \"contracts/Token.sol\":781:933  function transferToken(... */\n    tag_78:\n        /* \"contracts/Token.sol\":896:926  _transfer(_from, _to, _amount) */\n      tag_117\n        /* \"contracts/Token.sol\":906:911  _from */\n      dup4\n        /* \"contracts/Token.sol\":913:916  _to */\n      dup4\n        /* \"contracts/Token.sol\":918:925  _amount */\n      dup4\n        /* \"contracts/Token.sol\":896:905  _transfer */\n      tag_97\n        /* \"contracts/Token.sol\":896:926  _transfer(_from, _to, _amount) */\n      jump\t// in\n    tag_117:\n        /* \"contracts/Token.sol\":781:933  function transferToken(... */\n      pop\n      pop\n      pop\n      jump\t// out\n        /* \"@openzeppelin/contracts/token/ERC20/ERC20.sol\":8989:9117  function _approve(address owner, address spender, uint256 value) internal {... */\n    tag_90:\n        /* \"@openzeppelin/contracts/token/ERC20/ERC20.sol\":9073:9110  _approve(owner, spender, value, true) */\n      tag_117\n        /* \"@openzeppelin/contracts/token/ERC20/ERC20.sol\":9082:9087  owner */\n      dup4\n        /* \"@openzeppelin/contracts/token/ERC20/ERC20.sol\":9089:9096  spender */\n      dup4\n        /* \"@openzeppelin/contracts/token/ERC20/ERC20.sol\":9098:9103  value */\n      dup4\n        /* \"@openzeppelin/contracts/token/ERC20/ERC20.sol\":9105:9109  true */\n      0x01\n        /* \"@openzeppelin/contracts/token/ERC20/ERC20.sol\":9073:9081  _approve */\n      tag_121\n        /* \"@openzeppelin/contracts/token/ERC20/ERC20.sol\":9073:9110  _approve(owner, spender, value, true) */\n      jump\t// in\n        /* \"@openzeppelin/contracts/token/ERC20/ERC20.sol\":10663:11140  function _spendAllowance(address owner, address spender, uint256 value) internal virtual {... */\n    tag_95:\n      sub(shl(0xa0, 0x01), 0x01)\n        /* \"@openzeppelin/contracts/token/ERC20/ERC20.sol\":3952:3970  _allowances[owner] */\n      dup4\n      dup2\n      and\n        /* \"@openzeppelin/contracts/token/ERC20/ERC20.sol\":10762:10786  uint256 currentAllowance */\n      0x00\n        /* \"@openzeppelin/contracts/token/ERC20/ERC20.sol\":3952:3970  _allowances[owner] */\n      swap1\n      dup2\n      mstore\n        /* \"@openzeppelin/contracts/token/ERC20/ERC20.sol\":3952:3963  _allowances */\n      0x01\n        /* \"@openzeppelin/contracts/token/ERC20/ERC20.sol\":3952:3970  _allowances[owner] */\n      0x20\n      swap1\n      dup2\n      mstore\n      0x40\n      dup1\n      dup4\n      keccak256\n        /* \"@openzeppelin/contracts/token/ERC20/ERC20.sol\":3952:3979  _allowances[owner][spender] */\n      swap4\n      dup7\n      and\n      dup4\n      mstore\n      swap3\n      swap1\n      mstore\n      keccak256\n      sload\n      not(0x00)\n        /* \"@openzeppelin/contracts/token/ERC20/ERC20.sol\":10828:10865  currentAllowance != type(uint256).max */\n      dup2\n      eq\n        /* \"@openzeppelin/contracts/token/ERC20/ERC20.sol\":10824:11134  if (currentAllowance != type(uint256).max) {... */\n      tag_128\n      jumpi\n        /* \"@openzeppelin/contracts/token/ERC20/ERC20.sol\":10904:10909  value */\n      dup2\n        /* \"@openzeppelin/contracts/token/ERC20/ERC20.sol\":10885:10901  currentAllowance */\n      dup2\n        /* \"@openzeppelin/contracts/token/ERC20/ERC20.sol\":10885:10909  currentAllowance < value */\n      lt\n        /* \"@openzeppelin/contracts/token/ERC20/ERC20.sol\":10881:11011  if (currentAllowance < value) {... */\n      iszero\n      tag_125\n      jumpi\n        /* \"@openzeppelin/contracts/token/ERC20/ERC20.sol\":10936:10996  ERC20InsufficientAllowance(spender, currentAllowance, value) */\n      mload(0x40)\n      shl(0xe1, 0x7dc7a0d9)\n      dup2\n      mstore\n      sub(shl(0xa0, 0x01), 0x01)\n        /* \"#utility.yul\":3551:3583   */\n      dup5\n      and\n        /* \"@openzeppelin/contracts/token/ERC20/ERC20.sol\":10936:10996  ERC20InsufficientAllowance(spender, currentAllowance, value) */\n      0x04\n      dup3\n      add\n        /* \"#utility.yul\":3533:3584   */\n      mstore\n        /* \"#utility.yul\":3600:3618   */\n      0x24\n      dup2\n      add\n        /* \"#utility.yul\":3593:3627   */\n      dup3\n      swap1\n      mstore\n        /* \"#utility.yul\":3643:3661   */\n      0x44\n      dup2\n      add\n        /* \"#utility.yul\":3636:3670   */\n      dup4\n      swap1\n      mstore\n        /* \"#utility.yul\":3506:3524   */\n      0x64\n      add\n        /* \"@openzeppelin/contracts/token/ERC20/ERC20.sol\":10936:10996  ERC20InsufficientAllowance(spender, currentAllowance, value) */\n    tag_126:\n      mload(0x40)\n      dup1\n      swap2\n      sub\n      swap1\n      revert\n        /* \"@openzeppelin/contracts/token/ERC20/ERC20.sol\":10881:11011  if (currentAllowance < value) {... */\n    tag_125:\n        /* \"@openzeppelin/contracts/token/ERC20/ERC20.sol\":11052:11109  _approve(owner, spender, currentAllowance - value, false) */\n      tag_128\n        /* \"@openzeppelin/contracts/token/ERC20/ERC20.sol\":11061:11066  owner */\n      dup5\n        /* \"@openzeppelin/contracts/token/ERC20/ERC20.sol\":11068:11075  spender */\n      dup5\n        /* \"@openzeppelin/contracts/token/ERC20/ERC20.sol\":11096:11101  value */\n      dup5\n        /* \"@openzeppelin/contracts/token/ERC20/ERC20.sol\":11077:11093  currentAllowance */\n      dup5\n        /* \"@openzeppelin/contracts/token/ERC20/ERC20.sol\":11077:11101  currentAllowance - value */\n      sub\n        /* \"@openzeppelin/contracts/token/ERC20/ERC20.sol\":11103:11108  false */\n      0x00\n        /* \"@openzeppelin/contracts/token/ERC20/ERC20.sol\":11052:11060  _approve */\n      tag_121\n        /* \"@openzeppelin/contracts/token/ERC20/ERC20.sol\":11052:11109  _approve(owner, spender, currentAllowance - value, false) */\n      jump\t// in\n    tag_128:\n        /* \"@openzeppelin/contracts/token/ERC20/ERC20.sol\":10752:11140  {... */\n      pop\n        /* \"@openzeppelin/contracts/token/ERC20/ERC20.sol\":10663:11140  function _spendAllowance(address owner, address spender, uint256 value) internal virtual {... */\n      pop\n      pop\n      pop\n      jump\t// out\n        /* \"@openzeppelin/contracts/token/ERC20/ERC20.sol\":5656:5956  function _transfer(address from, address to, uint256 value) internal {... */\n    tag_97:\n      sub(shl(0xa0, 0x01), 0x01)\n        /* \"@openzeppelin/contracts/token/ERC20/ERC20.sol\":5739:5757  from == address(0) */\n      dup4\n      and\n        /* \"@openzeppelin/contracts/token/ERC20/ERC20.sol\":5735:5821  if (from == address(0)) {... */\n      tag_130\n      jumpi\n        /* \"@openzeppelin/contracts/token/ERC20/ERC20.sol\":5780:5810  ERC20InvalidSender(address(0)) */\n      mload(0x40)\n      shl(0xe1, 0x4b637e8f)\n      dup2\n      mstore\n        /* \"@openzeppelin/contracts/token/ERC20/ERC20.sol\":5807:5808  0 */\n      0x00\n        /* \"@openzeppelin/contracts/token/ERC20/ERC20.sol\":5780:5810  ERC20InvalidSender(address(0)) */\n      0x04\n      dup3\n      add\n        /* \"#utility.yul\":160:211   */\n      mstore\n        /* \"#utility.yul\":133:151   */\n      0x24\n      add\n        /* \"@openzeppelin/contracts/token/ERC20/ERC20.sol\":5780:5810  ERC20InvalidSender(address(0)) */\n      tag_126\n        /* \"#utility.yul\":14:217   */\n      jump\n        /* \"@openzeppelin/contracts/token/ERC20/ERC20.sol\":5735:5821  if (from == address(0)) {... */\n    tag_130:\n      sub(shl(0xa0, 0x01), 0x01)\n        /* \"@openzeppelin/contracts/token/ERC20/ERC20.sol\":5834:5850  to == address(0) */\n      dup3\n      and\n        /* \"@openzeppelin/contracts/token/ERC20/ERC20.sol\":5830:5916  if (to == address(0)) {... */\n      tag_132\n      jumpi\n        /* \"@openzeppelin/contracts/token/ERC20/ERC20.sol\":5873:5905  ERC20InvalidReceiver(address(0)) */\n      mload(0x40)\n      shl(0xe0, 0xec442f05)\n      dup2\n      mstore\n        /* \"@openzeppelin/contracts/token/ERC20/ERC20.sol\":5902:5903  0 */\n      0x00\n        /* \"@openzeppelin/contracts/token/ERC20/ERC20.sol\":5873:5905  ERC20InvalidReceiver(address(0)) */\n      0x04\n      dup3\n      add\n        /* \"#utility.yul\":160:211   */\n      mstore\n        /* \"#utility.yul\":133:151   */\n      0x24\n      add\n        /* \"@openzeppelin/contracts/token/ERC20/ERC20.sol\":5873:5905  ERC20InvalidReceiver(address(0)) */\n      tag_126\n        /* \"#utility.yul\":14:217   */\n      jump\n        /* \"@openzeppelin/contracts/token/ERC20/ERC20.sol\":5830:5916  if (to == address(0)) {... */\n    tag_132:\n        /* \"@openzeppelin/contracts/token/ERC20/ERC20.sol\":5925:5949  _update(from, to, value) */\n      tag_117\n        /* \"@openzeppelin/contracts/token/ERC20/ERC20.sol\":5933:5937  from */\n      dup4\n        /* \"@openzeppelin/contracts/token/ERC20/ERC20.sol\":5939:5941  to */\n      dup4\n        /* \"@openzeppelin/contracts/token/ERC20/ERC20.sol\":5943:5948  value */\n      dup4\n        /* \"@openzeppelin/contracts/token/ERC20/ERC20.sol\":5925:5932  _update */\n      tag_135\n        /* \"@openzeppelin/contracts/token/ERC20/ERC20.sol\":5925:5949  _update(from, to, value) */\n      jump\t// in\n        /* \"@openzeppelin/contracts/token/ERC20/ERC20.sol\":7721:7929  function _mint(address account, uint256 value) internal {... */\n    tag_104:\n      sub(shl(0xa0, 0x01), 0x01)\n        /* \"@openzeppelin/contracts/token/ERC20/ERC20.sol\":7791:7812  account == address(0) */\n      dup3\n      and\n        /* \"@openzeppelin/contracts/token/ERC20/ERC20.sol\":7787:7878  if (account == address(0)) {... */\n      tag_137\n      jumpi\n        /* \"@openzeppelin/contracts/token/ERC20/ERC20.sol\":7835:7867  ERC20InvalidReceiver(address(0)) */\n      mload(0x40)\n      shl(0xe0, 0xec442f05)\n      dup2\n      mstore\n        /* \"@openzeppelin/contracts/token/ERC20/ERC20.sol\":7864:7865  0 */\n      0x00\n        /* \"@openzeppelin/contracts/token/ERC20/ERC20.sol\":7835:7867  ERC20InvalidReceiver(address(0)) */\n      0x04\n      dup3\n      add\n        /* \"#utility.yul\":160:211   */\n      mstore\n        /* \"#utility.yul\":133:151   */\n      0x24\n      add\n        /* \"@openzeppelin/contracts/token/ERC20/ERC20.sol\":7835:7867  ERC20InvalidReceiver(address(0)) */\n      tag_126\n        /* \"#utility.yul\":14:217   */\n      jump\n        /* \"@openzeppelin/contracts/token/ERC20/ERC20.sol\":7787:7878  if (account == address(0)) {... */\n    tag_137:\n        /* \"@openzeppelin/contracts/token/ERC20/ERC20.sol\":7887:7922  _update(address(0), account, value) */\n      tag_139\n        /* \"@openzeppelin/contracts/token/ERC20/ERC20.sol\":7903:7904  0 */\n      0x00\n        /* \"@openzeppelin/contracts/token/ERC20/ERC20.sol\":7907:7914  account */\n      dup4\n        /* \"@openzeppelin/contracts/token/ERC20/ERC20.sol\":7916:7921  value */\n      dup4\n        /* \"@openzeppelin/contracts/token/ERC20/ERC20.sol\":7887:7894  _update */\n      tag_135\n        /* \"@openzeppelin/contracts/token/ERC20/ERC20.sol\":7887:7922  _update(address(0), account, value) */\n      jump\t// in\n    tag_139:\n        /* \"@openzeppelin/contracts/token/ERC20/ERC20.sol\":7721:7929  function _mint(address account, uint256 value) internal {... */\n      pop\n      pop\n      jump\t// out\n        /* \"@openzeppelin/contracts/token/ERC20/ERC20.sol\":9949:10381  function _approve(address owner, address spender, uint256 value, bool emitEvent) internal virtual {... */\n    tag_121:\n      sub(shl(0xa0, 0x01), 0x01)\n        /* \"@openzeppelin/contracts/token/ERC20/ERC20.sol\":10061:10080  owner == address(0) */\n      dup5\n      and\n        /* \"@openzeppelin/contracts/token/ERC20/ERC20.sol\":10057:10146  if (owner == address(0)) {... */\n      tag_141\n      jumpi\n        /* \"@openzeppelin/contracts/token/ERC20/ERC20.sol\":10103:10135  ERC20InvalidApprover(address(0)) */\n      mload(0x40)\n      shl(0xe0, 0xe602df05)\n      dup2\n      mstore\n        /* \"@openzeppelin/contracts/token/ERC20/ERC20.sol\":10132:10133  0 */\n      0x00\n        /* \"@openzeppelin/contracts/token/ERC20/ERC20.sol\":10103:10135  ERC20InvalidApprover(address(0)) */\n      0x04\n      dup3\n      add\n        /* \"#utility.yul\":160:211   */\n      mstore\n        /* \"#utility.yul\":133:151   */\n      0x24\n      add\n        /* \"@openzeppelin/contracts/token/ERC20/ERC20.sol\":10103:10135  ERC20InvalidApprover(address(0)) */\n      tag_126\n        /* \"#utility.yul\":14:217   */\n      jump\n        /* \"@openzeppelin/contracts/token/ERC20/ERC20.sol\":10057:10146  if (owner == address(0)) {... */\n    tag_141:\n      sub(shl(0xa0, 0x01), 0x01)\n        /* \"@openzeppelin/contracts/token/ERC20/ERC20.sol\":10159:10180  spender == address(0) */\n      dup4\n      and\n        /* \"@openzeppelin/contracts/token/ERC20/ERC20.sol\":10155:10245  if (spender == address(0)) {... */\n      tag_143\n      jumpi\n        /* \"@openzeppelin/contracts/token/ERC20/ERC20.sol\":10203:10234  ERC20InvalidSpender(address(0)) */\n      mload(0x40)\n      shl(0xe1, 0x4a1406b1)\n      dup2\n      mstore\n        /* \"@openzeppelin/contracts/token/ERC20/ERC20.sol\":10231:10232  0 */\n      0x00\n        /* \"@openzeppelin/contracts/token/ERC20/ERC20.sol\":10203:10234  ERC20InvalidSpender(address(0)) */\n      0x04\n      dup3\n      add\n        /* \"#utility.yul\":160:211   */\n      mstore\n        /* \"#utility.yul\":133:151   */\n      0x24\n      add\n        /* \"@openzeppelin/contracts/token/ERC20/ERC20.sol\":10203:10234  ERC20InvalidSpender(address(0)) */\n      tag_126\n        /* \"#utility.yul\":14:217   */\n      jump\n        /* \"@openzeppelin/contracts/token/ERC20/ERC20.sol\":10155:10245  if (spender == address(0)) {... */\n    tag_143:\n      sub(shl(0xa0, 0x01), 0x01)\n        /* \"@openzeppelin/contracts/token/ERC20/ERC20.sol\":10254:10272  _allowances[owner] */\n      dup1\n      dup6\n      and\n      0x00\n      swap1\n      dup2\n      mstore\n        /* \"@openzeppelin/contracts/token/ERC20/ERC20.sol\":10254:10265  _allowances */\n      0x01\n        /* \"@openzeppelin/contracts/token/ERC20/ERC20.sol\":10254:10272  _allowances[owner] */\n      0x20\n      swap1\n      dup2\n      mstore\n      0x40\n      dup1\n      dup4\n      keccak256\n        /* \"@openzeppelin/contracts/token/ERC20/ERC20.sol\":10254:10281  _allowances[owner][spender] */\n      swap4\n      dup8\n      and\n      dup4\n      mstore\n      swap3\n      swap1\n      mstore\n      keccak256\n        /* \"@openzeppelin/contracts/token/ERC20/ERC20.sol\":10254:10289  _allowances[owner][spender] = value */\n      dup3\n      swap1\n      sstore\n        /* \"@openzeppelin/contracts/token/ERC20/ERC20.sol\":10299:10375  if (emitEvent) {... */\n      dup1\n      iszero\n      tag_128\n      jumpi\n        /* \"@openzeppelin/contracts/token/ERC20/ERC20.sol\":10349:10356  spender */\n      dup3\n      sub(shl(0xa0, 0x01), 0x01)\n        /* \"@openzeppelin/contracts/token/ERC20/ERC20.sol\":10333:10364  Approval(owner, spender, value) */\n      and\n        /* \"@openzeppelin/contracts/token/ERC20/ERC20.sol\":10342:10347  owner */\n      dup5\n      sub(shl(0xa0, 0x01), 0x01)\n        /* \"@openzeppelin/contracts/token/ERC20/ERC20.sol\":10333:10364  Approval(owner, spender, value) */\n      and\n      0x8c5be1e5ebec7d5bd14f71427d1e84f3dd0314c0f7b2291e5b200ac8c7c3b925\n        /* \"@openzeppelin/contracts/token/ERC20/ERC20.sol\":10358:10363  value */\n      dup5\n        /* \"@openzeppelin/contracts/token/ERC20/ERC20.sol\":10333:10364  Approval(owner, spender, value) */\n      mload(0x40)\n      tag_146\n      swap2\n        /* \"#utility.yul\":1550:1575   */\n      dup2\n      mstore\n        /* \"#utility.yul\":1538:1540   */\n      0x20\n        /* \"#utility.yul\":1523:1541   */\n      add\n      swap1\n        /* \"#utility.yul\":1404:1581   */\n      jump\n        /* \"@openzeppelin/contracts/token/ERC20/ERC20.sol\":10333:10364  Approval(owner, spender, value) */\n    tag_146:\n      mload(0x40)\n      dup1\n      swap2\n      sub\n      swap1\n      log3\n        /* \"@openzeppelin/contracts/token/ERC20/ERC20.sol\":9949:10381  function _approve(address owner, address spender, uint256 value, bool emitEvent) internal virtual {... */\n      pop\n      pop\n      pop\n      pop\n      jump\t// out\n        /* \"@openzeppelin/contracts/token/ERC20/ERC20.sol\":6271:7378  function _update(address from, address to, uint256 value) internal virtual {... */\n    tag_135:\n      sub(shl(0xa0, 0x01), 0x01)\n        /* \"@openzeppelin/contracts/token/ERC20/ERC20.sol\":6360:6378  from == address(0) */\n      dup4\n      and\n        /* \"@openzeppelin/contracts/token/ERC20/ERC20.sol\":6356:6896  if (from == address(0)) {... */\n      tag_148\n      jumpi\n        /* \"@openzeppelin/contracts/token/ERC20/ERC20.sol\":6512:6517  value */\n      dup1\n        /* \"@openzeppelin/contracts/token/ERC20/ERC20.sol\":6496:6508  _totalSupply */\n      0x02\n      0x00\n        /* \"@openzeppelin/contracts/token/ERC20/ERC20.sol\":6496:6517  _totalSupply += value */\n      dup3\n      dup3\n      sload\n      tag_149\n      swap2\n      swap1\n      tag_150\n      jump\t// in\n    tag_149:\n      swap1\n      swap2\n      sstore\n      pop\n        /* \"@openzeppelin/contracts/token/ERC20/ERC20.sol\":6356:6896  if (from == address(0)) {... */\n      tag_151\n      swap1\n      pop\n      jump\n    tag_148:\n      sub(shl(0xa0, 0x01), 0x01)\n        /* \"@openzeppelin/contracts/token/ERC20/ERC20.sol\":6570:6585  _balances[from] */\n      dup4\n      and\n        /* \"@openzeppelin/contracts/token/ERC20/ERC20.sol\":6548:6567  uint256 fromBalance */\n      0x00\n        /* \"@openzeppelin/contracts/token/ERC20/ERC20.sol\":6570:6585  _balances[from] */\n      swap1\n      dup2\n      mstore\n      0x20\n      dup2\n      swap1\n      mstore\n      0x40\n      swap1\n      keccak256\n      sload\n        /* \"@openzeppelin/contracts/token/ERC20/ERC20.sol\":6603:6622  fromBalance < value */\n      dup2\n      dup2\n      lt\n        /* \"@openzeppelin/contracts/token/ERC20/ERC20.sol\":6599:6714  if (fromBalance < value) {... */\n      iszero\n      tag_152\n      jumpi\n        /* \"@openzeppelin/contracts/token/ERC20/ERC20.sol\":6649:6699  ERC20InsufficientBalance(from, fromBalance, value) */\n      mload(0x40)\n      shl(0xe2, 0x391434e3)\n      dup2\n      mstore\n      sub(shl(0xa0, 0x01), 0x01)\n        /* \"#utility.yul\":3551:3583   */\n      dup6\n      and\n        /* \"@openzeppelin/contracts/token/ERC20/ERC20.sol\":6649:6699  ERC20InsufficientBalance(from, fromBalance, value) */\n      0x04\n      dup3\n      add\n        /* \"#utility.yul\":3533:3584   */\n      mstore\n        /* \"#utility.yul\":3600:3618   */\n      0x24\n      dup2\n      add\n        /* \"#utility.yul\":3593:3627   */\n      dup3\n      swap1\n      mstore\n        /* \"#utility.yul\":3643:3661   */\n      0x44\n      dup2\n      add\n        /* \"#utility.yul\":3636:3670   */\n      dup4\n      swap1\n      mstore\n        /* \"#utility.yul\":3506:3524   */\n      0x64\n      add\n        /* \"@openzeppelin/contracts/token/ERC20/ERC20.sol\":6649:6699  ERC20InsufficientBalance(from, fromBalance, value) */\n      tag_126\n        /* \"#utility.yul\":3331:3676   */\n      jump\n        /* \"@openzeppelin/contracts/token/ERC20/ERC20.sol\":6599:6714  if (fromBalance < value) {... */\n    tag_152:\n      sub(shl(0xa0, 0x01), 0x01)\n        /* \"@openzeppelin/contracts/token/ERC20/ERC20.sol\":6834:6849  _balances[from] */\n      dup5\n      and\n        /* \"@openzeppelin/contracts/token/ERC20/ERC20.sol\":6834:6843  _balances */\n      0x00\n        /* \"@openzeppelin/contracts/token/ERC20/ERC20.sol\":6834:6849  _balances[from] */\n      swap1\n      dup2\n      mstore\n      0x20\n      dup2\n      swap1\n      mstore\n      0x40\n      swap1\n      keccak256\n        /* \"@openzeppelin/contracts/token/ERC20/ERC20.sol\":6852:6871  fromBalance - value */\n      swap1\n      dup3\n      swap1\n      sub\n        /* \"@openzeppelin/contracts/token/ERC20/ERC20.sol\":6834:6871  _balances[from] = fromBalance - value */\n      swap1\n      sstore\n        /* \"@openzeppelin/contracts/token/ERC20/ERC20.sol\":6356:6896  if (from == address(0)) {... */\n    tag_151:\n      sub(shl(0xa0, 0x01), 0x01)\n        /* \"@openzeppelin/contracts/token/ERC20/ERC20.sol\":6910:6926  to == address(0) */\n      dup3\n      and\n        /* \"@openzeppelin/contracts/token/ERC20/ERC20.sol\":6906:7331  if (to == address(0)) {... */\n      tag_154\n      jumpi\n        /* \"@openzeppelin/contracts/token/ERC20/ERC20.sol\":7073:7085  _totalSupply */\n      0x02\n        /* \"@openzeppelin/contracts/token/ERC20/ERC20.sol\":7073:7094  _totalSupply -= value */\n      dup1\n      sload\n      dup3\n      swap1\n      sub\n      swap1\n      sstore\n        /* \"@openzeppelin/contracts/token/ERC20/ERC20.sol\":6906:7331  if (to == address(0)) {... */\n      jump(tag_155)\n    tag_154:\n      sub(shl(0xa0, 0x01), 0x01)\n        /* \"@openzeppelin/contracts/token/ERC20/ERC20.sol\":7284:7297  _balances[to] */\n      dup3\n      and\n        /* \"@openzeppelin/contracts/token/ERC20/ERC20.sol\":7284:7293  _balances */\n      0x00\n        /* \"@openzeppelin/contracts/token/ERC20/ERC20.sol\":7284:7297  _balances[to] */\n      swap1\n      dup2\n      mstore\n      0x20\n      dup2\n      swap1\n      mstore\n      0x40\n      swap1\n      keccak256\n        /* \"@openzeppelin/contracts/token/ERC20/ERC20.sol\":7284:7306  _balances[to] += value */\n      dup1\n      sload\n      dup3\n      add\n      swap1\n      sstore\n        /* \"@openzeppelin/contracts/token/ERC20/ERC20.sol\":6906:7331  if (to == address(0)) {... */\n    tag_155:\n        /* \"@openzeppelin/contracts/token/ERC20/ERC20.sol\":7361:7363  to */\n      dup2\n      sub(shl(0xa0, 0x01), 0x01)\n        /* \"@openzeppelin/contracts/token/ERC20/ERC20.sol\":7346:7371  Transfer(from, to, value) */\n      and\n        /* \"@openzeppelin/contracts/token/ERC20/ERC20.sol\":7355:7359  from */\n      dup4\n      sub(shl(0xa0, 0x01), 0x01)\n        /* \"@openzeppelin/contracts/token/ERC20/ERC20.sol\":7346:7371  Transfer(from, to, value) */\n      and\n      0xddf252ad1be2c89b69c2b068fc378daa952ba7f163c4a11628f55a4df523b3ef\n        /* \"@openzeppelin/contracts/token/ERC20/ERC20.sol\":7365:7370  value */\n      dup4\n        /* \"@openzeppelin/contracts/token/ERC20/ERC20.sol\":7346:7371  Transfer(from, to, value) */\n      mload(0x40)\n      tag_156\n      swap2\n        /* \"#utility.yul\":1550:1575   */\n      dup2\n      mstore\n        /* \"#utility.yul\":1538:1540   */\n      0x20\n        /* \"#utility.yul\":1523:1541   */\n      add\n      swap1\n        /* \"#utility.yul\":1404:1581   */\n      jump\n        /* \"@openzeppelin/contracts/token/ERC20/ERC20.sol\":7346:7371  Transfer(from, to, value) */\n    tag_156:\n      mload(0x40)\n      dup1\n      swap2\n      sub\n      swap1\n      log3\n        /* \"@openzeppelin/contracts/token/ERC20/ERC20.sol\":6271:7378  function _update(address from, address to, uint256 value) internal virtual {... */\n      pop\n      pop\n      pop\n      jump\t// out\n        /* \"#utility.yul\":222:770   */\n    tag_28:\n        /* \"#utility.yul\":334:338   */\n      0x00\n        /* \"#utility.yul\":363:365   */\n      0x20\n        /* \"#utility.yul\":392:394   */\n      dup1\n        /* \"#utility.yul\":381:390   */\n      dup4\n        /* \"#utility.yul\":374:395   */\n      mstore\n        /* \"#utility.yul\":424:430   */\n      dup4\n        /* \"#utility.yul\":418:431   */\n      mload\n        /* \"#utility.yul\":467:473   */\n      dup1\n        /* \"#utility.yul\":462:464   */\n      0x20\n        /* \"#utility.yul\":451:460   */\n      dup6\n        /* \"#utility.yul\":447:465   */\n      add\n        /* \"#utility.yul\":440:474   */\n      mstore\n        /* \"#utility.yul\":492:493   */\n      0x00\n        /* \"#utility.yul\":502:642   */\n    tag_162:\n        /* \"#utility.yul\":516:522   */\n      dup2\n        /* \"#utility.yul\":513:514   */\n      dup2\n        /* \"#utility.yul\":510:523   */\n      lt\n        /* \"#utility.yul\":502:642   */\n      iszero\n      tag_164\n      jumpi\n        /* \"#utility.yul\":611:625   */\n      dup6\n      dup2\n      add\n        /* \"#utility.yul\":607:630   */\n      dup4\n      add\n        /* \"#utility.yul\":601:631   */\n      mload\n        /* \"#utility.yul\":577:594   */\n      dup6\n      dup3\n      add\n        /* \"#utility.yul\":596:598   */\n      0x40\n        /* \"#utility.yul\":573:599   */\n      add\n        /* \"#utility.yul\":566:632   */\n      mstore\n        /* \"#utility.yul\":531:541   */\n      dup3\n      add\n        /* \"#utility.yul\":502:642   */\n      jump(tag_162)\n    tag_164:\n        /* \"#utility.yul\":506:509   */\n      pop\n        /* \"#utility.yul\":691:692   */\n      0x00\n        /* \"#utility.yul\":686:688   */\n      0x40\n        /* \"#utility.yul\":677:683   */\n      dup3\n        /* \"#utility.yul\":666:675   */\n      dup7\n        /* \"#utility.yul\":662:684   */\n      add\n        /* \"#utility.yul\":658:689   */\n      add\n        /* \"#utility.yul\":651:693   */\n      mstore\n        /* \"#utility.yul\":761:763   */\n      0x40\n        /* \"#utility.yul\":754:756   */\n      0x1f\n        /* \"#utility.yul\":750:757   */\n      not\n        /* \"#utility.yul\":745:747   */\n      0x1f\n        /* \"#utility.yul\":737:743   */\n      dup4\n        /* \"#utility.yul\":733:748   */\n      add\n        /* \"#utility.yul\":729:758   */\n      and\n        /* \"#utility.yul\":718:727   */\n      dup6\n        /* \"#utility.yul\":714:759   */\n      add\n        /* \"#utility.yul\":710:764   */\n      add\n        /* \"#utility.yul\":702:764   */\n      swap3\n      pop\n      pop\n      pop\n        /* \"#utility.yul\":222:770   */\n      swap3\n      swap2\n      pop\n      pop\n      jump\t// out\n        /* \"#utility.yul\":775:948   */\n    tag_157:\n        /* \"#utility.yul\":843:863   */\n      dup1\n      calldataload\n      sub(shl(0xa0, 0x01), 0x01)\n        /* \"#utility.yul\":892:923   */\n      dup2\n      and\n        /* \"#utility.yul\":882:924   */\n      dup2\n      eq\n        /* \"#utility.yul\":872:942   */\n      tag_166\n      jumpi\n        /* \"#utility.yul\":938:939   */\n      0x00\n        /* \"#utility.yul\":935:936   */\n      dup1\n        /* \"#utility.yul\":928:940   */\n      revert\n        /* \"#utility.yul\":872:942   */\n    tag_166:\n        /* \"#utility.yul\":775:948   */\n      swap2\n      swap1\n      pop\n      jump\t// out\n        /* \"#utility.yul\":953:1207   */\n    tag_31:\n        /* \"#utility.yul\":1021:1027   */\n      0x00\n        /* \"#utility.yul\":1029:1035   */\n      dup1\n        /* \"#utility.yul\":1082:1084   */\n      0x40\n        /* \"#utility.yul\":1070:1079   */\n      dup4\n        /* \"#utility.yul\":1061:1068   */\n      dup6\n        /* \"#utility.yul\":1057:1080   */\n      sub\n        /* \"#utility.yul\":1053:1085   */\n      slt\n        /* \"#utility.yul\":1050:1102   */\n      iszero\n      tag_168\n      jumpi\n        /* \"#utility.yul\":1098:1099   */\n      0x00\n        /* \"#utility.yul\":1095:1096   */\n      dup1\n        /* \"#utility.yul\":1088:1100   */\n      revert\n        /* \"#utility.yul\":1050:1102   */\n    tag_168:\n        /* \"#utility.yul\":1121:1150   */\n      tag_169\n        /* \"#utility.yul\":1140:1149   */\n      dup4\n        /* \"#utility.yul\":1121:1150   */\n      tag_157\n      jump\t// in\n    tag_169:\n        /* \"#utility.yul\":1111:1150   */\n      swap5\n        /* \"#utility.yul\":1197:1199   */\n      0x20\n        /* \"#utility.yul\":1182:1200   */\n      swap4\n      swap1\n      swap4\n      add\n        /* \"#utility.yul\":1169:1201   */\n      calldataload\n      swap4\n      pop\n      pop\n      pop\n        /* \"#utility.yul\":953:1207   */\n      jump\t// out\n        /* \"#utility.yul\":1586:1914   */\n    tag_41:\n        /* \"#utility.yul\":1663:1669   */\n      0x00\n        /* \"#utility.yul\":1671:1677   */\n      dup1\n        /* \"#utility.yul\":1679:1685   */\n      0x00\n        /* \"#utility.yul\":1732:1734   */\n      0x60\n        /* \"#utility.yul\":1720:1729   */\n      dup5\n        /* \"#utility.yul\":1711:1718   */\n      dup7\n        /* \"#utility.yul\":1707:1730   */\n      sub\n        /* \"#utility.yul\":1703:1735   */\n      slt\n        /* \"#utility.yul\":1700:1752   */\n      iszero\n      tag_173\n      jumpi\n        /* \"#utility.yul\":1748:1749   */\n      0x00\n        /* \"#utility.yul\":1745:1746   */\n      dup1\n        /* \"#utility.yul\":1738:1750   */\n      revert\n        /* \"#utility.yul\":1700:1752   */\n    tag_173:\n        /* \"#utility.yul\":1771:1800   */\n      tag_174\n        /* \"#utility.yul\":1790:1799   */\n      dup5\n        /* \"#utility.yul\":1771:1800   */\n      tag_157\n      jump\t// in\n    tag_174:\n        /* \"#utility.yul\":1761:1800   */\n      swap3\n      pop\n        /* \"#utility.yul\":1819:1857   */\n      tag_175\n        /* \"#utility.yul\":1853:1855   */\n      0x20\n        /* \"#utility.yul\":1842:1851   */\n      dup6\n        /* \"#utility.yul\":1838:1856   */\n      add\n        /* \"#utility.yul\":1819:1857   */\n      tag_157\n      jump\t// in\n    tag_175:\n        /* \"#utility.yul\":1809:1857   */\n      swap2\n      pop\n        /* \"#utility.yul\":1904:1906   */\n      0x40\n        /* \"#utility.yul\":1893:1902   */\n      dup5\n        /* \"#utility.yul\":1889:1907   */\n      add\n        /* \"#utility.yul\":1876:1908   */\n      calldataload\n        /* \"#utility.yul\":1866:1908   */\n      swap1\n      pop\n        /* \"#utility.yul\":1586:1914   */\n      swap3\n      pop\n      swap3\n      pop\n      swap3\n      jump\t// out\n        /* \"#utility.yul\":2108:2294   */\n    tag_55:\n        /* \"#utility.yul\":2167:2173   */\n      0x00\n        /* \"#utility.yul\":2220:2222   */\n      0x20\n        /* \"#utility.yul\":2208:2217   */\n      dup3\n        /* \"#utility.yul\":2199:2206   */\n      dup5\n        /* \"#utility.yul\":2195:2218   */\n      sub\n        /* \"#utility.yul\":2191:2223   */\n      slt\n        /* \"#utility.yul\":2188:2240   */\n      iszero\n      tag_178\n      jumpi\n        /* \"#utility.yul\":2236:2237   */\n      0x00\n        /* \"#utility.yul\":2233:2234   */\n      dup1\n        /* \"#utility.yul\":2226:2238   */\n      revert\n        /* \"#utility.yul\":2188:2240   */\n    tag_178:\n        /* \"#utility.yul\":2259:2288   */\n      tag_179\n        /* \"#utility.yul\":2278:2287   */\n      dup3\n        /* \"#utility.yul\":2259:2288   */\n      tag_157\n      jump\t// in\n    tag_179:\n        /* \"#utility.yul\":2249:2288   */\n      swap4\n        /* \"#utility.yul\":2108:2294   */\n      swap3\n      pop\n      pop\n      pop\n      jump\t// out\n        /* \"#utility.yul\":2299:2559   */\n    tag_73:\n        /* \"#utility.yul\":2367:2373   */\n      0x00\n        /* \"#utility.yul\":2375:2381   */\n      dup1\n        /* \"#utility.yul\":2428:2430   */\n      0x40\n        /* \"#utility.yul\":2416:2425   */\n      dup4\n        /* \"#utility.yul\":2407:2414   */\n      dup6\n        /* \"#utility.yul\":2403:2426   */\n      sub\n        /* \"#utility.yul\":2399:2431   */\n      slt\n        /* \"#utility.yul\":2396:2448   */\n      iszero\n      tag_181\n      jumpi\n        /* \"#utility.yul\":2444:2445   */\n      0x00\n        /* \"#utility.yul\":2441:2442   */\n      dup1\n        /* \"#utility.yul\":2434:2446   */\n      revert\n        /* \"#utility.yul\":2396:2448   */\n    tag_181:\n        /* \"#utility.yul\":2467:2496   */\n      tag_182\n        /* \"#utility.yul\":2486:2495   */\n      dup4\n        /* \"#utility.yul\":2467:2496   */\n      tag_157\n      jump\t// in\n    tag_182:\n        /* \"#utility.yul\":2457:2496   */\n      swap2\n      pop\n        /* \"#utility.yul\":2515:2553   */\n      tag_183\n        /* \"#utility.yul\":2549:2551   */\n      0x20\n        /* \"#utility.yul\":2538:2547   */\n      dup5\n        /* \"#utility.yul\":2534:2552   */\n      add\n        /* \"#utility.yul\":2515:2553   */\n      tag_157\n      jump\t// in\n    tag_183:\n        /* \"#utility.yul\":2505:2553   */\n      swap1\n      pop\n        /* \"#utility.yul\":2299:2559   */\n      swap3\n      pop\n      swap3\n      swap1\n      pop\n      jump\t// out\n        /* \"#utility.yul\":2564:2944   */\n    tag_81:\n        /* \"#utility.yul\":2643:2644   */\n      0x01\n        /* \"#utility.yul\":2639:2651   */\n      dup2\n      dup2\n      shr\n      swap1\n        /* \"#utility.yul\":2686:2698   */\n      dup3\n      and\n      dup1\n        /* \"#utility.yul\":2707:2768   */\n      tag_185\n      jumpi\n        /* \"#utility.yul\":2761:2765   */\n      0x7f\n        /* \"#utility.yul\":2753:2759   */\n      dup3\n        /* \"#utility.yul\":2749:2766   */\n      and\n        /* \"#utility.yul\":2739:2766   */\n      swap2\n      pop\n        /* \"#utility.yul\":2707:2768   */\n    tag_185:\n        /* \"#utility.yul\":2814:2816   */\n      0x20\n        /* \"#utility.yul\":2806:2812   */\n      dup3\n        /* \"#utility.yul\":2803:2817   */\n      lt\n        /* \"#utility.yul\":2783:2801   */\n      dup2\n        /* \"#utility.yul\":2780:2818   */\n      sub\n        /* \"#utility.yul\":2777:2938   */\n      tag_186\n      jumpi\n        /* \"#utility.yul\":2860:2870   */\n      0x4e487b71\n        /* \"#utility.yul\":2855:2858   */\n      0xe0\n        /* \"#utility.yul\":2851:2871   */\n      shl\n        /* \"#utility.yul\":2848:2849   */\n      0x00\n        /* \"#utility.yul\":2841:2872   */\n      mstore\n        /* \"#utility.yul\":2895:2899   */\n      0x22\n        /* \"#utility.yul\":2892:2893   */\n      0x04\n        /* \"#utility.yul\":2885:2900   */\n      mstore\n        /* \"#utility.yul\":2923:2927   */\n      0x24\n        /* \"#utility.yul\":2920:2921   */\n      0x00\n        /* \"#utility.yul\":2913:2928   */\n      revert\n        /* \"#utility.yul\":2777:2938   */\n    tag_186:\n      pop\n        /* \"#utility.yul\":2564:2944   */\n      swap2\n      swap1\n      pop\n      jump\t// out\n        /* \"#utility.yul\":2949:3076   */\n    tag_158:\n        /* \"#utility.yul\":3010:3020   */\n      0x4e487b71\n        /* \"#utility.yul\":3005:3008   */\n      0xe0\n        /* \"#utility.yul\":3001:3021   */\n      shl\n        /* \"#utility.yul\":2998:2999   */\n      0x00\n        /* \"#utility.yul\":2991:3022   */\n      mstore\n        /* \"#utility.yul\":3041:3045   */\n      0x11\n        /* \"#utility.yul\":3038:3039   */\n      0x04\n        /* \"#utility.yul\":3031:3046   */\n      mstore\n        /* \"#utility.yul\":3065:3069   */\n      0x24\n        /* \"#utility.yul\":3062:3063   */\n      0x00\n        /* \"#utility.yul\":3055:3070   */\n      revert\n        /* \"#utility.yul\":3081:3326   */\n    tag_103:\n        /* \"#utility.yul\":3152:3158   */\n      0xffff\n        /* \"#utility.yul\":3190:3200   */\n      dup2\n      dup2\n      and\n        /* \"#utility.yul\":3202:3212   */\n      dup4\n      dup3\n      and\n        /* \"#utility.yul\":3186:3213   */\n      mul\n        /* \"#utility.yul\":3233:3253   */\n      dup1\n      dup3\n      and\n      swap2\n        /* \"#utility.yul\":3152:3158   */\n      swap1\n        /* \"#utility.yul\":3272:3296   */\n      dup3\n      dup2\n      eq\n        /* \"#utility.yul\":3262:3320   */\n      tag_190\n      jumpi\n        /* \"#utility.yul\":3300:3318   */\n      tag_190\n      tag_158\n      jump\t// in\n    tag_190:\n        /* \"#utility.yul\":3262:3320   */\n      pop\n      pop\n        /* \"#utility.yul\":3081:3326   */\n      swap3\n      swap2\n      pop\n      pop\n      jump\t// out\n        /* \"#utility.yul\":3681:3806   */\n    tag_150:\n        /* \"#utility.yul\":3746:3755   */\n      dup1\n      dup3\n      add\n        /* \"#utility.yul\":3767:3777   */\n      dup1\n      dup3\n      gt\n        /* \"#utility.yul\":3764:3800   */\n      iszero\n      tag_86\n      jumpi\n        /* \"#utility.yul\":3780:3798   */\n      tag_86\n      tag_158\n      jump\t// in\n\n    auxdata: 0xa2646970667358221220f80a2837375bcd8ceced36d5046a8d3b12012704fdd411655155109e5c65013364736f6c63430008160033\n}\n",
				"bytecode": {
					"linkReferences": {},
					"object": "60806040523480156200001157600080fd5b506040518060400160405280600c81526020016b141c9bd999995cda5bdb985b60a21b8152506040518060400160405280600581526020016450524f464960d81b8152508160039081620000669190620003ce565b506004620000758282620003ce565b5050600580546001600160a01b03199081163390811790925560068054821673cb3a5467756f86692fb3336c58ec41c16b9bebdf17905560078054821673bd0233d4cb7abe917f79f0e80dc7676f4cb818e117905560088054909116737ce4b5d0504edf27ec43610f8679e84bdf81a0b81790556200011a9150620000f8600690565b6200010590600a620005af565b6200011490620186a0620005c7565b620001b2565b60065462000150906001600160a01b031662000134600690565b6200014190600a620005af565b620001149062030d40620005c7565b6007546200017e906001600160a01b03166200016f6006600a620005af565b6200011490620493e0620005c7565b600854620001ac906001600160a01b03166200019d6006600a620005af565b620001149062061a80620005c7565b620005f7565b6001600160a01b038216620001e25760405163ec442f0560e01b8152600060048201526024015b60405180910390fd5b620001f060008383620001f4565b5050565b6001600160a01b03831662000223578060026000828254620002179190620005e1565b90915550620002979050565b6001600160a01b03831660009081526020819052604090205481811015620002785760405163391434e360e21b81526001600160a01b03851660048201526024810182905260448101839052606401620001d9565b6001600160a01b03841660009081526020819052604090209082900390555b6001600160a01b038216620002b557600280548290039055620002d4565b6001600160a01b03821660009081526020819052604090208054820190555b816001600160a01b0316836001600160a01b03167fddf252ad1be2c89b69c2b068fc378daa952ba7f163c4a11628f55a4df523b3ef836040516200031a91815260200190565b60405180910390a3505050565b634e487b7160e01b600052604160045260246000fd5b600181811c908216806200035257607f821691505b6020821081036200037357634e487b7160e01b600052602260045260246000fd5b50919050565b601f821115620003c9576000816000526020600020601f850160051c81016020861015620003a45750805b601f850160051c820191505b81811015620003c557828155600101620003b0565b5050505b505050565b81516001600160401b03811115620003ea57620003ea62000327565b6200040281620003fb84546200033d565b8462000379565b602080601f8311600181146200043a5760008415620004215750858301515b600019600386901b1c1916600185901b178555620003c5565b600085815260208120601f198616915b828110156200046b578886015182559484019460019091019084016200044a565b50858210156200048a5787850151600019600388901b60f8161c191681555b5050505050600190811b01905550565b634e487b7160e01b600052601160045260246000fd5b600181815b80851115620004f1578160001904821115620004d557620004d56200049a565b80851615620004e357918102915b93841c9390800290620004b5565b509250929050565b6000826200050a57506001620005a9565b816200051957506000620005a9565b81600181146200053257600281146200053d576200055d565b6001915050620005a9565b60ff8411156200055157620005516200049a565b50506001821b620005a9565b5060208310610133831016604e8410600b841016171562000582575081810a620005a9565b6200058e8383620004b0565b8060001904821115620005a557620005a56200049a565b0290505b92915050565b6000620005c060ff841683620004f9565b9392505050565b8082028115828204841417620005a957620005a96200049a565b80820180821115620005a957620005a96200049a565b61088f80620006076000396000f3fe608060405234801561001057600080fd5b50600436106100f55760003560e01c80636ac5db1911610097578063a9059cbb11610066578063a9059cbb146101f7578063ce266af81461020a578063dd62ed3e1461021d578063f5537ede1461025657600080fd5b80636ac5db19146101a057806370a08231146101b35780638da5cb5b146101dc57806395d89b41146101ef57600080fd5b806318160ddd116100d357806318160ddd1461016257806323b872dd14610174578063313ce567146101875780635cd07ee61461019657600080fd5b806305417143146100fa57806306fdde031461012a578063095ea7b31461013f575b600080fd5b60085461010d906001600160a01b031681565b6040516001600160a01b0390911681526020015b60405180910390f35b610132610269565b60405161012191906106aa565b61015261014d366004610715565b6102fb565b6040519015158152602001610121565b6002545b604051908152602001610121565b61015261018236600461073f565b610315565b60405160068152602001610121565b61019e610339565b005b60075461010d906001600160a01b031681565b6101666101c136600461077b565b6001600160a01b031660009081526020819052604090205490565b60055461010d906001600160a01b031681565b610132610355565b610152610205366004610715565b610364565b60065461010d906001600160a01b031681565b61016661022b36600461079d565b6001600160a01b03918216600090815260016020908152604080832093909416825291909152205490565b61019e61026436600461073f565b610372565b606060038054610278906107d0565b80601f01602080910402602001604051908101604052809291908181526020018280546102a4906107d0565b80156102f15780601f106102c6576101008083540402835291602001916102f1565b820191906000526020600020905b8154815290600101906020018083116102d457829003601f168201915b5050505050905090565b600033610309818585610382565b60019150505b92915050565b60003361032385828561038f565b61032e858585610412565b506001949350505050565b6103533361034a60066103e8610820565b61ffff16610471565b565b606060048054610278906107d0565b600033610309818585610412565b61037d838383610412565b505050565b61037d83838360016104ab565b6001600160a01b03838116600090815260016020908152604080832093861683529290522054600019811461040c57818110156103fd57604051637dc7a0d960e11b81526001600160a01b038416600482015260248101829052604481018390526064015b60405180910390fd5b61040c848484840360006104ab565b50505050565b6001600160a01b03831661043c57604051634b637e8f60e11b8152600060048201526024016103f4565b6001600160a01b0382166104665760405163ec442f0560e01b8152600060048201526024016103f4565b61037d838383610580565b6001600160a01b03821661049b5760405163ec442f0560e01b8152600060048201526024016103f4565b6104a760008383610580565b5050565b6001600160a01b0384166104d55760405163e602df0560e01b8152600060048201526024016103f4565b6001600160a01b0383166104ff57604051634a1406b160e11b8152600060048201526024016103f4565b6001600160a01b038085166000908152600160209081526040808320938716835292905220829055801561040c57826001600160a01b0316846001600160a01b03167f8c5be1e5ebec7d5bd14f71427d1e84f3dd0314c0f7b2291e5b200ac8c7c3b9258460405161057291815260200190565b60405180910390a350505050565b6001600160a01b0383166105ab5780600260008282546105a09190610846565b9091555061061d9050565b6001600160a01b038316600090815260208190526040902054818110156105fe5760405163391434e360e21b81526001600160a01b038516600482015260248101829052604481018390526064016103f4565b6001600160a01b03841660009081526020819052604090209082900390555b6001600160a01b03821661063957600280548290039055610658565b6001600160a01b03821660009081526020819052604090208054820190555b816001600160a01b0316836001600160a01b03167fddf252ad1be2c89b69c2b068fc378daa952ba7f163c4a11628f55a4df523b3ef8360405161069d91815260200190565b60405180910390a3505050565b60006020808352835180602085015260005b818110156106d8578581018301518582016040015282016106bc565b506000604082860101526040601f19601f8301168501019250505092915050565b80356001600160a01b038116811461071057600080fd5b919050565b6000806040838503121561072857600080fd5b610731836106f9565b946020939093013593505050565b60008060006060848603121561075457600080fd5b61075d846106f9565b925061076b602085016106f9565b9150604084013590509250925092565b60006020828403121561078d57600080fd5b610796826106f9565b9392505050565b600080604083850312156107b057600080fd5b6107b9836106f9565b91506107c7602084016106f9565b90509250929050565b600181811c908216806107e457607f821691505b60208210810361080457634e487b7160e01b600052602260045260246000fd5b50919050565b634e487b7160e01b600052601160045260246000fd5b61ffff81811683821602808216919082811461083e5761083e61080a565b505092915050565b8082018082111561030f5761030f61080a56fea2646970667358221220f80a2837375bcd8ceced36d5046a8d3b12012704fdd411655155109e5c65013364736f6c63430008160033",
					"opcodes": "PUSH1 0x80 PUSH1 0x40 MSTORE CALLVALUE DUP1 ISZERO PUSH3 0x11 JUMPI PUSH1 0x0 DUP1 REVERT JUMPDEST POP PUSH1 0x40 MLOAD DUP1 PUSH1 0x40 ADD PUSH1 0x40 MSTORE DUP1 PUSH1 0xC DUP2 MSTORE PUSH1 0x20 ADD PUSH12 0x141C9BD999995CDA5BDB985B PUSH1 0xA2 SHL DUP2 MSTORE POP PUSH1 0x40 MLOAD DUP1 PUSH1 0x40 ADD PUSH1 0x40 MSTORE DUP1 PUSH1 0x5 DUP2 MSTORE PUSH1 0x20 ADD PUSH5 0x50524F4649 PUSH1 0xD8 SHL DUP2 MSTORE POP DUP2 PUSH1 0x3 SWAP1 DUP2 PUSH3 0x66 SWAP2 SWAP1 PUSH3 0x3CE JUMP JUMPDEST POP PUSH1 0x4 PUSH3 0x75 DUP3 DUP3 PUSH3 0x3CE JUMP JUMPDEST POP POP PUSH1 0x5 DUP1 SLOAD PUSH1 0x1 PUSH1 0x1 PUSH1 0xA0 SHL SUB NOT SWAP1 DUP2 AND CALLER SWAP1 DUP2 OR SWAP1 SWAP3 SSTORE PUSH1 0x6 DUP1 SLOAD DUP3 AND PUSH20 0xCB3A5467756F86692FB3336C58EC41C16B9BEBDF OR SWAP1 SSTORE PUSH1 0x7 DUP1 SLOAD DUP3 AND PUSH20 0xBD0233D4CB7ABE917F79F0E80DC7676F4CB818E1 OR SWAP1 SSTORE PUSH1 0x8 DUP1 SLOAD SWAP1 SWAP2 AND PUSH20 0x7CE4B5D0504EDF27EC43610F8679E84BDF81A0B8 OR SWAP1 SSTORE PUSH3 0x11A SWAP2 POP PUSH3 0xF8 PUSH1 0x6 SWAP1 JUMP JUMPDEST PUSH3 0x105 SWAP1 PUSH1 0xA PUSH3 0x5AF JUMP JUMPDEST PUSH3 0x114 SWAP1 PUSH3 0x186A0 PUSH3 0x5C7 JUMP JUMPDEST PUSH3 0x1B2 JUMP JUMPDEST PUSH1 0x6 SLOAD PUSH3 0x150 SWAP1 PUSH1 0x1 PUSH1 0x1 PUSH1 0xA0 SHL SUB AND PUSH3 0x134 PUSH1 0x6 SWAP1 JUMP JUMPDEST PUSH3 0x141 SWAP1 PUSH1 0xA PUSH3 0x5AF JUMP JUMPDEST PUSH3 0x114 SWAP1 PUSH3 0x30D40 PUSH3 0x5C7 JUMP JUMPDEST PUSH1 0x7 SLOAD PUSH3 0x17E SWAP1 PUSH1 0x1 PUSH1 0x1 PUSH1 0xA0 SHL SUB AND PUSH3 0x16F PUSH1 0x6 PUSH1 0xA PUSH3 0x5AF JUMP JUMPDEST PUSH3 0x114 SWAP1 PUSH3 0x493E0 PUSH3 0x5C7 JUMP JUMPDEST PUSH1 0x8 SLOAD PUSH3 0x1AC SWAP1 PUSH1 0x1 PUSH1 0x1 PUSH1 0xA0 SHL SUB AND PUSH3 0x19D PUSH1 0x6 PUSH1 0xA PUSH3 0x5AF JUMP JUMPDEST PUSH3 0x114 SWAP1 PUSH3 0x61A80 PUSH3 0x5C7 JUMP JUMPDEST PUSH3 0x5F7 JUMP JUMPDEST PUSH1 0x1 PUSH1 0x1 PUSH1 0xA0 SHL SUB DUP3 AND PUSH3 0x1E2 JUMPI PUSH1 0x40 MLOAD PUSH4 0xEC442F05 PUSH1 0xE0 SHL DUP2 MSTORE PUSH1 0x0 PUSH1 0x4 DUP3 ADD MSTORE PUSH1 0x24 ADD JUMPDEST PUSH1 0x40 MLOAD DUP1 SWAP2 SUB SWAP1 REVERT JUMPDEST PUSH3 0x1F0 PUSH1 0x0 DUP4 DUP4 PUSH3 0x1F4 JUMP JUMPDEST POP POP JUMP JUMPDEST PUSH1 0x1 PUSH1 0x1 PUSH1 0xA0 SHL SUB DUP4 AND PUSH3 0x223 JUMPI DUP1 PUSH1 0x2 PUSH1 0x0 DUP3 DUP3 SLOAD PUSH3 0x217 SWAP2 SWAP1 PUSH3 0x5E1 JUMP JUMPDEST SWAP1 SWAP2 SSTORE POP PUSH3 0x297 SWAP1 POP JUMP JUMPDEST PUSH1 0x1 PUSH1 0x1 PUSH1 0xA0 SHL SUB DUP4 AND PUSH1 0x0 SWAP1 DUP2 MSTORE PUSH1 0x20 DUP2 SWAP1 MSTORE PUSH1 0x40 SWAP1 KECCAK256 SLOAD DUP2 DUP2 LT ISZERO PUSH3 0x278 JUMPI PUSH1 0x40 MLOAD PUSH4 0x391434E3 PUSH1 0xE2 SHL DUP2 MSTORE PUSH1 0x1 PUSH1 0x1 PUSH1 0xA0 SHL SUB DUP6 AND PUSH1 0x4 DUP3 ADD MSTORE PUSH1 0x24 DUP2 ADD DUP3 SWAP1 MSTORE PUSH1 0x44 DUP2 ADD DUP4 SWAP1 MSTORE PUSH1 0x64 ADD PUSH3 0x1D9 JUMP JUMPDEST PUSH1 0x1 PUSH1 0x1 PUSH1 0xA0 SHL SUB DUP5 AND PUSH1 0x0 SWAP1 DUP2 MSTORE PUSH1 0x20 DUP2 SWAP1 MSTORE PUSH1 0x40 SWAP1 KECCAK256 SWAP1 DUP3 SWAP1 SUB SWAP1 SSTORE JUMPDEST PUSH1 0x1 PUSH1 0x1 PUSH1 0xA0 SHL SUB DUP3 AND PUSH3 0x2B5 JUMPI PUSH1 0x2 DUP1 SLOAD DUP3 SWAP1 SUB SWAP1 SSTORE PUSH3 0x2D4 JUMP JUMPDEST PUSH1 0x1 PUSH1 0x1 PUSH1 0xA0 SHL SUB DUP3 AND PUSH1 0x0 SWAP1 DUP2 MSTORE PUSH1 0x20 DUP2 SWAP1 MSTORE PUSH1 0x40 SWAP1 KECCAK256 DUP1 SLOAD DUP3 ADD SWAP1 SSTORE JUMPDEST DUP2 PUSH1 0x1 PUSH1 0x1 PUSH1 0xA0 SHL SUB AND DUP4 PUSH1 0x1 PUSH1 0x1 PUSH1 0xA0 SHL SUB AND PUSH32 0xDDF252AD1BE2C89B69C2B068FC378DAA952BA7F163C4A11628F55A4DF523B3EF DUP4 PUSH1 0x40 MLOAD PUSH3 0x31A SWAP2 DUP2 MSTORE PUSH1 0x20 ADD SWAP1 JUMP JUMPDEST PUSH1 0x40 MLOAD DUP1 SWAP2 SUB SWAP1 LOG3 POP POP POP JUMP JUMPDEST PUSH4 0x4E487B71 PUSH1 0xE0 SHL PUSH1 0x0 MSTORE PUSH1 0x41 PUSH1 0x4 MSTORE PUSH1 0x24 PUSH1 0x0 REVERT JUMPDEST PUSH1 0x1 DUP2 DUP2 SHR SWAP1 DUP3 AND DUP1 PUSH3 0x352 JUMPI PUSH1 0x7F DUP3 AND SWAP2 POP JUMPDEST PUSH1 0x20 DUP3 LT DUP2 SUB PUSH3 0x373 JUMPI PUSH4 0x4E487B71 PUSH1 0xE0 SHL PUSH1 0x0 MSTORE PUSH1 0x22 PUSH1 0x4 MSTORE PUSH1 0x24 PUSH1 0x0 REVERT JUMPDEST POP SWAP2 SWAP1 POP JUMP JUMPDEST PUSH1 0x1F DUP3 GT ISZERO PUSH3 0x3C9 JUMPI PUSH1 0x0 DUP2 PUSH1 0x0 MSTORE PUSH1 0x20 PUSH1 0x0 KECCAK256 PUSH1 0x1F DUP6 ADD PUSH1 0x5 SHR DUP2 ADD PUSH1 0x20 DUP7 LT ISZERO PUSH3 0x3A4 JUMPI POP DUP1 JUMPDEST PUSH1 0x1F DUP6 ADD PUSH1 0x5 SHR DUP3 ADD SWAP2 POP JUMPDEST DUP2 DUP2 LT ISZERO PUSH3 0x3C5 JUMPI DUP3 DUP2 SSTORE PUSH1 0x1 ADD PUSH3 0x3B0 JUMP JUMPDEST POP POP POP JUMPDEST POP POP POP JUMP JUMPDEST DUP2 MLOAD PUSH1 0x1 PUSH1 0x1 PUSH1 0x40 SHL SUB DUP2 GT ISZERO PUSH3 0x3EA JUMPI PUSH3 0x3EA PUSH3 0x327 JUMP JUMPDEST PUSH3 0x402 DUP2 PUSH3 0x3FB DUP5 SLOAD PUSH3 0x33D JUMP JUMPDEST DUP5 PUSH3 0x379 JUMP JUMPDEST PUSH1 0x20 DUP1 PUSH1 0x1F DUP4 GT PUSH1 0x1 DUP2 EQ PUSH3 0x43A JUMPI PUSH1 0x0 DUP5 ISZERO PUSH3 0x421 JUMPI POP DUP6 DUP4 ADD MLOAD JUMPDEST PUSH1 0x0 NOT PUSH1 0x3 DUP7 SWAP1 SHL SHR NOT AND PUSH1 0x1 DUP6 SWAP1 SHL OR DUP6 SSTORE PUSH3 0x3C5 JUMP JUMPDEST PUSH1 0x0 DUP6 DUP2 MSTORE PUSH1 0x20 DUP2 KECCAK256 PUSH1 0x1F NOT DUP7 AND SWAP2 JUMPDEST DUP3 DUP2 LT ISZERO PUSH3 0x46B JUMPI DUP9 DUP7 ADD MLOAD DUP3 SSTORE SWAP5 DUP5 ADD SWAP5 PUSH1 0x1 SWAP1 SWAP2 ADD SWAP1 DUP5 ADD PUSH3 0x44A JUMP JUMPDEST POP DUP6 DUP3 LT ISZERO PUSH3 0x48A JUMPI DUP8 DUP6 ADD MLOAD PUSH1 0x0 NOT PUSH1 0x3 DUP9 SWAP1 SHL PUSH1 0xF8 AND SHR NOT AND DUP2 SSTORE JUMPDEST POP POP POP POP POP PUSH1 0x1 SWAP1 DUP2 SHL ADD SWAP1 SSTORE POP JUMP JUMPDEST PUSH4 0x4E487B71 PUSH1 0xE0 SHL PUSH1 0x0 MSTORE PUSH1 0x11 PUSH1 0x4 MSTORE PUSH1 0x24 PUSH1 0x0 REVERT JUMPDEST PUSH1 0x1 DUP2 DUP2 JUMPDEST DUP1 DUP6 GT ISZERO PUSH3 0x4F1 JUMPI DUP2 PUSH1 0x0 NOT DIV DUP3 GT ISZERO PUSH3 0x4D5 JUMPI PUSH3 0x4D5 PUSH3 0x49A JUMP JUMPDEST DUP1 DUP6 AND ISZERO PUSH3 0x4E3 JUMPI SWAP2 DUP2 MUL SWAP2 JUMPDEST SWAP4 DUP5 SHR SWAP4 SWAP1 DUP1 MUL SWAP1 PUSH3 0x4B5 JUMP JUMPDEST POP SWAP3 POP SWAP3 SWAP1 POP JUMP JUMPDEST PUSH1 0x0 DUP3 PUSH3 0x50A JUMPI POP PUSH1 0x1 PUSH3 0x5A9 JUMP JUMPDEST DUP2 PUSH3 0x519 JUMPI POP PUSH1 0x0 PUSH3 0x5A9 JUMP JUMPDEST DUP2 PUSH1 0x1 DUP2 EQ PUSH3 0x532 JUMPI PUSH1 0x2 DUP2 EQ PUSH3 0x53D JUMPI PUSH3 0x55D JUMP JUMPDEST PUSH1 0x1 SWAP2 POP POP PUSH3 0x5A9 JUMP JUMPDEST PUSH1 0xFF DUP5 GT ISZERO PUSH3 0x551 JUMPI PUSH3 0x551 PUSH3 0x49A JUMP JUMPDEST POP POP PUSH1 0x1 DUP3 SHL PUSH3 0x5A9 JUMP JUMPDEST POP PUSH1 0x20 DUP4 LT PUSH2 0x133 DUP4 LT AND PUSH1 0x4E DUP5 LT PUSH1 0xB DUP5 LT AND OR ISZERO PUSH3 0x582 JUMPI POP DUP2 DUP2 EXP PUSH3 0x5A9 JUMP JUMPDEST PUSH3 0x58E DUP4 DUP4 PUSH3 0x4B0 JUMP JUMPDEST DUP1 PUSH1 0x0 NOT DIV DUP3 GT ISZERO PUSH3 0x5A5 JUMPI PUSH3 0x5A5 PUSH3 0x49A JUMP JUMPDEST MUL SWAP1 POP JUMPDEST SWAP3 SWAP2 POP POP JUMP JUMPDEST PUSH1 0x0 PUSH3 0x5C0 PUSH1 0xFF DUP5 AND DUP4 PUSH3 0x4F9 JUMP JUMPDEST SWAP4 SWAP3 POP POP POP JUMP JUMPDEST DUP1 DUP3 MUL DUP2 ISZERO DUP3 DUP3 DIV DUP5 EQ OR PUSH3 0x5A9 JUMPI PUSH3 0x5A9 PUSH3 0x49A JUMP JUMPDEST DUP1 DUP3 ADD DUP1 DUP3 GT ISZERO PUSH3 0x5A9 JUMPI PUSH3 0x5A9 PUSH3 0x49A JUMP JUMPDEST PUSH2 0x88F DUP1 PUSH3 0x607 PUSH1 0x0 CODECOPY PUSH1 0x0 RETURN INVALID PUSH1 0x80 PUSH1 0x40 MSTORE CALLVALUE DUP1 ISZERO PUSH2 0x10 JUMPI PUSH1 0x0 DUP1 REVERT JUMPDEST POP PUSH1 0x4 CALLDATASIZE LT PUSH2 0xF5 JUMPI PUSH1 0x0 CALLDATALOAD PUSH1 0xE0 SHR DUP1 PUSH4 0x6AC5DB19 GT PUSH2 0x97 JUMPI DUP1 PUSH4 0xA9059CBB GT PUSH2 0x66 JUMPI DUP1 PUSH4 0xA9059CBB EQ PUSH2 0x1F7 JUMPI DUP1 PUSH4 0xCE266AF8 EQ PUSH2 0x20A JUMPI DUP1 PUSH4 0xDD62ED3E EQ PUSH2 0x21D JUMPI DUP1 PUSH4 0xF5537EDE EQ PUSH2 0x256 JUMPI PUSH1 0x0 DUP1 REVERT JUMPDEST DUP1 PUSH4 0x6AC5DB19 EQ PUSH2 0x1A0 JUMPI DUP1 PUSH4 0x70A08231 EQ PUSH2 0x1B3 JUMPI DUP1 PUSH4 0x8DA5CB5B EQ PUSH2 0x1DC JUMPI DUP1 PUSH4 0x95D89B41 EQ PUSH2 0x1EF JUMPI PUSH1 0x0 DUP1 REVERT JUMPDEST DUP1 PUSH4 0x18160DDD GT PUSH2 0xD3 JUMPI DUP1 PUSH4 0x18160DDD EQ PUSH2 0x162 JUMPI DUP1 PUSH4 0x23B872DD EQ PUSH2 0x174 JUMPI DUP1 PUSH4 0x313CE567 EQ PUSH2 0x187 JUMPI DUP1 PUSH4 0x5CD07EE6 EQ PUSH2 0x196 JUMPI PUSH1 0x0 DUP1 REVERT JUMPDEST DUP1 PUSH4 0x5417143 EQ PUSH2 0xFA JUMPI DUP1 PUSH4 0x6FDDE03 EQ PUSH2 0x12A JUMPI DUP1 PUSH4 0x95EA7B3 EQ PUSH2 0x13F JUMPI JUMPDEST PUSH1 0x0 DUP1 REVERT JUMPDEST PUSH1 0x8 SLOAD PUSH2 0x10D SWAP1 PUSH1 0x1 PUSH1 0x1 PUSH1 0xA0 SHL SUB AND DUP2 JUMP JUMPDEST PUSH1 0x40 MLOAD PUSH1 0x1 PUSH1 0x1 PUSH1 0xA0 SHL SUB SWAP1 SWAP2 AND DUP2 MSTORE PUSH1 0x20 ADD JUMPDEST PUSH1 0x40 MLOAD DUP1 SWAP2 SUB SWAP1 RETURN JUMPDEST PUSH2 0x132 PUSH2 0x269 JUMP JUMPDEST PUSH1 0x40 MLOAD PUSH2 0x121 SWAP2 SWAP1 PUSH2 0x6AA JUMP JUMPDEST PUSH2 0x152 PUSH2 0x14D CALLDATASIZE PUSH1 0x4 PUSH2 0x715 JUMP JUMPDEST PUSH2 0x2FB JUMP JUMPDEST PUSH1 0x40 MLOAD SWAP1 ISZERO ISZERO DUP2 MSTORE PUSH1 0x20 ADD PUSH2 0x121 JUMP JUMPDEST PUSH1 0x2 SLOAD JUMPDEST PUSH1 0x40 MLOAD SWAP1 DUP2 MSTORE PUSH1 0x20 ADD PUSH2 0x121 JUMP JUMPDEST PUSH2 0x152 PUSH2 0x182 CALLDATASIZE PUSH1 0x4 PUSH2 0x73F JUMP JUMPDEST PUSH2 0x315 JUMP JUMPDEST PUSH1 0x40 MLOAD PUSH1 0x6 DUP2 MSTORE PUSH1 0x20 ADD PUSH2 0x121 JUMP JUMPDEST PUSH2 0x19E PUSH2 0x339 JUMP JUMPDEST STOP JUMPDEST PUSH1 0x7 SLOAD PUSH2 0x10D SWAP1 PUSH1 0x1 PUSH1 0x1 PUSH1 0xA0 SHL SUB AND DUP2 JUMP JUMPDEST PUSH2 0x166 PUSH2 0x1C1 CALLDATASIZE PUSH1 0x4 PUSH2 0x77B JUMP JUMPDEST PUSH1 0x1 PUSH1 0x1 PUSH1 0xA0 SHL SUB AND PUSH1 0x0 SWAP1 DUP2 MSTORE PUSH1 0x20 DUP2 SWAP1 MSTORE PUSH1 0x40 SWAP1 KECCAK256 SLOAD SWAP1 JUMP JUMPDEST PUSH1 0x5 SLOAD PUSH2 0x10D SWAP1 PUSH1 0x1 PUSH1 0x1 PUSH1 0xA0 SHL SUB AND DUP2 JUMP JUMPDEST PUSH2 0x132 PUSH2 0x355 JUMP JUMPDEST PUSH2 0x152 PUSH2 0x205 CALLDATASIZE PUSH1 0x4 PUSH2 0x715 JUMP JUMPDEST PUSH2 0x364 JUMP JUMPDEST PUSH1 0x6 SLOAD PUSH2 0x10D SWAP1 PUSH1 0x1 PUSH1 0x1 PUSH1 0xA0 SHL SUB AND DUP2 JUMP JUMPDEST PUSH2 0x166 PUSH2 0x22B CALLDATASIZE PUSH1 0x4 PUSH2 0x79D JUMP JUMPDEST PUSH1 0x1 PUSH1 0x1 PUSH1 0xA0 SHL SUB SWAP2 DUP3 AND PUSH1 0x0 SWAP1 DUP2 MSTORE PUSH1 0x1 PUSH1 0x20 SWAP1 DUP2 MSTORE PUSH1 0x40 DUP1 DUP4 KECCAK256 SWAP4 SWAP1 SWAP5 AND DUP3 MSTORE SWAP2 SWAP1 SWAP2 MSTORE KECCAK256 SLOAD SWAP1 JUMP JUMPDEST PUSH2 0x19E PUSH2 0x264 CALLDATASIZE PUSH1 0x4 PUSH2 0x73F JUMP JUMPDEST PUSH2 0x372 JUMP JUMPDEST PUSH1 0x60 PUSH1 0x3 DUP1 SLOAD PUSH2 0x278 SWAP1 PUSH2 0x7D0 JUMP JUMPDEST DUP1 PUSH1 0x1F ADD PUSH1 0x20 DUP1 SWAP2 DIV MUL PUSH1 0x20 ADD PUSH1 0x40 MLOAD SWAP1 DUP2 ADD PUSH1 0x40 MSTORE DUP1 SWAP3 SWAP2 SWAP1 DUP2 DUP2 MSTORE PUSH1 0x20 ADD DUP3 DUP1 SLOAD PUSH2 0x2A4 SWAP1 PUSH2 0x7D0 JUMP JUMPDEST DUP1 ISZERO PUSH2 0x2F1 JUMPI DUP1 PUSH1 0x1F LT PUSH2 0x2C6 JUMPI PUSH2 0x100 DUP1 DUP4 SLOAD DIV MUL DUP4 MSTORE SWAP2 PUSH1 0x20 ADD SWAP2 PUSH2 0x2F1 JUMP JUMPDEST DUP3 ADD SWAP2 SWAP1 PUSH1 0x0 MSTORE PUSH1 0x20 PUSH1 0x0 KECCAK256 SWAP1 JUMPDEST DUP2 SLOAD DUP2 MSTORE SWAP1 PUSH1 0x1 ADD SWAP1 PUSH1 0x20 ADD DUP1 DUP4 GT PUSH2 0x2D4 JUMPI DUP3 SWAP1 SUB PUSH1 0x1F AND DUP3 ADD SWAP2 JUMPDEST POP POP POP POP POP SWAP1 POP SWAP1 JUMP JUMPDEST PUSH1 0x0 CALLER PUSH2 0x309 DUP2 DUP6 DUP6 PUSH2 0x382 JUMP JUMPDEST PUSH1 0x1 SWAP2 POP POP JUMPDEST SWAP3 SWAP2 POP POP JUMP JUMPDEST PUSH1 0x0 CALLER PUSH2 0x323 DUP6 DUP3 DUP6 PUSH2 0x38F JUMP JUMPDEST PUSH2 0x32E DUP6 DUP6 DUP6 PUSH2 0x412 JUMP JUMPDEST POP PUSH1 0x1 SWAP5 SWAP4 POP POP POP POP JUMP JUMPDEST PUSH2 0x353 CALLER PUSH2 0x34A PUSH1 0x6 PUSH2 0x3E8 PUSH2 0x820 JUMP JUMPDEST PUSH2 0xFFFF AND PUSH2 0x471 JUMP JUMPDEST JUMP JUMPDEST PUSH1 0x60 PUSH1 0x4 DUP1 SLOAD PUSH2 0x278 SWAP1 PUSH2 0x7D0 JUMP JUMPDEST PUSH1 0x0 CALLER PUSH2 0x309 DUP2 DUP6 DUP6 PUSH2 0x412 JUMP JUMPDEST PUSH2 0x37D DUP4 DUP4 DUP4 PUSH2 0x412 JUMP JUMPDEST POP POP POP JUMP JUMPDEST PUSH2 0x37D DUP4 DUP4 DUP4 PUSH1 0x1 PUSH2 0x4AB JUMP JUMPDEST PUSH1 0x1 PUSH1 0x1 PUSH1 0xA0 SHL SUB DUP4 DUP2 AND PUSH1 0x0 SWAP1 DUP2 MSTORE PUSH1 0x1 PUSH1 0x20 SWAP1 DUP2 MSTORE PUSH1 0x40 DUP1 DUP4 KECCAK256 SWAP4 DUP7 AND DUP4 MSTORE SWAP3 SWAP1 MSTORE KECCAK256 SLOAD PUSH1 0x0 NOT DUP2 EQ PUSH2 0x40C JUMPI DUP2 DUP2 LT ISZERO PUSH2 0x3FD JUMPI PUSH1 0x40 MLOAD PUSH4 0x7DC7A0D9 PUSH1 0xE1 SHL DUP2 MSTORE PUSH1 0x1 PUSH1 0x1 PUSH1 0xA0 SHL SUB DUP5 AND PUSH1 0x4 DUP3 ADD MSTORE PUSH1 0x24 DUP2 ADD DUP3 SWAP1 MSTORE PUSH1 0x44 DUP2 ADD DUP4 SWAP1 MSTORE PUSH1 0x64 ADD JUMPDEST PUSH1 0x40 MLOAD DUP1 SWAP2 SUB SWAP1 REVERT JUMPDEST PUSH2 0x40C DUP5 DUP5 DUP5 DUP5 SUB PUSH1 0x0 PUSH2 0x4AB JUMP JUMPDEST POP POP POP POP JUMP JUMPDEST PUSH1 0x1 PUSH1 0x1 PUSH1 0xA0 SHL SUB DUP4 AND PUSH2 0x43C JUMPI PUSH1 0x40 MLOAD PUSH4 0x4B637E8F PUSH1 0xE1 SHL DUP2 MSTORE PUSH1 0x0 PUSH1 0x4 DUP3 ADD MSTORE PUSH1 0x24 ADD PUSH2 0x3F4 JUMP JUMPDEST PUSH1 0x1 PUSH1 0x1 PUSH1 0xA0 SHL SUB DUP3 AND PUSH2 0x466 JUMPI PUSH1 0x40 MLOAD PUSH4 0xEC442F05 PUSH1 0xE0 SHL DUP2 MSTORE PUSH1 0x0 PUSH1 0x4 DUP3 ADD MSTORE PUSH1 0x24 ADD PUSH2 0x3F4 JUMP JUMPDEST PUSH2 0x37D DUP4 DUP4 DUP4 PUSH2 0x580 JUMP JUMPDEST PUSH1 0x1 PUSH1 0x1 PUSH1 0xA0 SHL SUB DUP3 AND PUSH2 0x49B JUMPI PUSH1 0x40 MLOAD PUSH4 0xEC442F05 PUSH1 0xE0 SHL DUP2 MSTORE PUSH1 0x0 PUSH1 0x4 DUP3 ADD MSTORE PUSH1 0x24 ADD PUSH2 0x3F4 JUMP JUMPDEST PUSH2 0x4A7 PUSH1 0x0 DUP4 DUP4 PUSH2 0x580 JUMP JUMPDEST POP POP JUMP JUMPDEST PUSH1 0x1 PUSH1 0x1 PUSH1 0xA0 SHL SUB DUP5 AND PUSH2 0x4D5 JUMPI PUSH1 0x40 MLOAD PUSH4 0xE602DF05 PUSH1 0xE0 SHL DUP2 MSTORE PUSH1 0x0 PUSH1 0x4 DUP3 ADD MSTORE PUSH1 0x24 ADD PUSH2 0x3F4 JUMP JUMPDEST PUSH1 0x1 PUSH1 0x1 PUSH1 0xA0 SHL SUB DUP4 AND PUSH2 0x4FF JUMPI PUSH1 0x40 MLOAD PUSH4 0x4A1406B1 PUSH1 0xE1 SHL DUP2 MSTORE PUSH1 0x0 PUSH1 0x4 DUP3 ADD MSTORE PUSH1 0x24 ADD PUSH2 0x3F4 JUMP JUMPDEST PUSH1 0x1 PUSH1 0x1 PUSH1 0xA0 SHL SUB DUP1 DUP6 AND PUSH1 0x0 SWAP1 DUP2 MSTORE PUSH1 0x1 PUSH1 0x20 SWAP1 DUP2 MSTORE PUSH1 0x40 DUP1 DUP4 KECCAK256 SWAP4 DUP8 AND DUP4 MSTORE SWAP3 SWAP1 MSTORE KECCAK256 DUP3 SWAP1 SSTORE DUP1 ISZERO PUSH2 0x40C JUMPI DUP3 PUSH1 0x1 PUSH1 0x1 PUSH1 0xA0 SHL SUB AND DUP5 PUSH1 0x1 PUSH1 0x1 PUSH1 0xA0 SHL SUB AND PUSH32 0x8C5BE1E5EBEC7D5BD14F71427D1E84F3DD0314C0F7B2291E5B200AC8C7C3B925 DUP5 PUSH1 0x40 MLOAD PUSH2 0x572 SWAP2 DUP2 MSTORE PUSH1 0x20 ADD SWAP1 JUMP JUMPDEST PUSH1 0x40 MLOAD DUP1 SWAP2 SUB SWAP1 LOG3 POP POP POP POP JUMP JUMPDEST PUSH1 0x1 PUSH1 0x1 PUSH1 0xA0 SHL SUB DUP4 AND PUSH2 0x5AB JUMPI DUP1 PUSH1 0x2 PUSH1 0x0 DUP3 DUP3 SLOAD PUSH2 0x5A0 SWAP2 SWAP1 PUSH2 0x846 JUMP JUMPDEST SWAP1 SWAP2 SSTORE POP PUSH2 0x61D SWAP1 POP JUMP JUMPDEST PUSH1 0x1 PUSH1 0x1 PUSH1 0xA0 SHL SUB DUP4 AND PUSH1 0x0 SWAP1 DUP2 MSTORE PUSH1 0x20 DUP2 SWAP1 MSTORE PUSH1 0x40 SWAP1 KECCAK256 SLOAD DUP2 DUP2 LT ISZERO PUSH2 0x5FE JUMPI PUSH1 0x40 MLOAD PUSH4 0x391434E3 PUSH1 0xE2 SHL DUP2 MSTORE PUSH1 0x1 PUSH1 0x1 PUSH1 0xA0 SHL SUB DUP6 AND PUSH1 0x4 DUP3 ADD MSTORE PUSH1 0x24 DUP2 ADD DUP3 SWAP1 MSTORE PUSH1 0x44 DUP2 ADD DUP4 SWAP1 MSTORE PUSH1 0x64 ADD PUSH2 0x3F4 JUMP JUMPDEST PUSH1 0x1 PUSH1 0x1 PUSH1 0xA0 SHL SUB DUP5 AND PUSH1 0x0 SWAP1 DUP2 MSTORE PUSH1 0x20 DUP2 SWAP1 MSTORE PUSH1 0x40 SWAP1 KECCAK256 SWAP1 DUP3 SWAP1 SUB SWAP1 SSTORE JUMPDEST PUSH1 0x1 PUSH1 0x1 PUSH1 0xA0 SHL SUB DUP3 AND PUSH2 0x639 JUMPI PUSH1 0x2 DUP1 SLOAD DUP3 SWAP1 SUB SWAP1 SSTORE PUSH2 0x658 JUMP JUMPDEST PUSH1 0x1 PUSH1 0x1 PUSH1 0xA0 SHL SUB DUP3 AND PUSH1 0x0 SWAP1 DUP2 MSTORE PUSH1 0x20 DUP2 SWAP1 MSTORE PUSH1 0x40 SWAP1 KECCAK256 DUP1 SLOAD DUP3 ADD SWAP1 SSTORE JUMPDEST DUP2 PUSH1 0x1 PUSH1 0x1 PUSH1 0xA0 SHL SUB AND DUP4 PUSH1 0x1 PUSH1 0x1 PUSH1 0xA0 SHL SUB AND PUSH32 0xDDF252AD1BE2C89B69C2B068FC378DAA952BA7F163C4A11628F55A4DF523B3EF DUP4 PUSH1 0x40 MLOAD PUSH2 0x69D SWAP2 DUP2 MSTORE PUSH1 0x20 ADD SWAP1 JUMP JUMPDEST PUSH1 0x40 MLOAD DUP1 SWAP2 SUB SWAP1 LOG3 POP POP POP JUMP JUMPDEST PUSH1 0x0 PUSH1 0x20 DUP1 DUP4 MSTORE DUP4 MLOAD DUP1 PUSH1 0x20 DUP6 ADD MSTORE PUSH1 0x0 JUMPDEST DUP2 DUP2 LT ISZERO PUSH2 0x6D8 JUMPI DUP6 DUP2 ADD DUP4 ADD MLOAD DUP6 DUP3 ADD PUSH1 0x40 ADD MSTORE DUP3 ADD PUSH2 0x6BC JUMP JUMPDEST POP PUSH1 0x0 PUSH1 0x40 DUP3 DUP7 ADD ADD MSTORE PUSH1 0x40 PUSH1 0x1F NOT PUSH1 0x1F DUP4 ADD AND DUP6 ADD ADD SWAP3 POP POP POP SWAP3 SWAP2 POP POP JUMP JUMPDEST DUP1 CALLDATALOAD PUSH1 0x1 PUSH1 0x1 PUSH1 0xA0 SHL SUB DUP2 AND DUP2 EQ PUSH2 0x710 JUMPI PUSH1 0x0 DUP1 REVERT JUMPDEST SWAP2 SWAP1 POP JUMP JUMPDEST PUSH1 0x0 DUP1 PUSH1 0x40 DUP4 DUP6 SUB SLT ISZERO PUSH2 0x728 JUMPI PUSH1 0x0 DUP1 REVERT JUMPDEST PUSH2 0x731 DUP4 PUSH2 0x6F9 JUMP JUMPDEST SWAP5 PUSH1 0x20 SWAP4 SWAP1 SWAP4 ADD CALLDATALOAD SWAP4 POP POP POP JUMP JUMPDEST PUSH1 0x0 DUP1 PUSH1 0x0 PUSH1 0x60 DUP5 DUP7 SUB SLT ISZERO PUSH2 0x754 JUMPI PUSH1 0x0 DUP1 REVERT JUMPDEST PUSH2 0x75D DUP5 PUSH2 0x6F9 JUMP JUMPDEST SWAP3 POP PUSH2 0x76B PUSH1 0x20 DUP6 ADD PUSH2 0x6F9 JUMP JUMPDEST SWAP2 POP PUSH1 0x40 DUP5 ADD CALLDATALOAD SWAP1 POP SWAP3 POP SWAP3 POP SWAP3 JUMP JUMPDEST PUSH1 0x0 PUSH1 0x20 DUP3 DUP5 SUB SLT ISZERO PUSH2 0x78D JUMPI PUSH1 0x0 DUP1 REVERT JUMPDEST PUSH2 0x796 DUP3 PUSH2 0x6F9 JUMP JUMPDEST SWAP4 SWAP3 POP POP POP JUMP JUMPDEST PUSH1 0x0 DUP1 PUSH1 0x40 DUP4 DUP6 SUB SLT ISZERO PUSH2 0x7B0 JUMPI PUSH1 0x0 DUP1 REVERT JUMPDEST PUSH2 0x7B9 DUP4 PUSH2 0x6F9 JUMP JUMPDEST SWAP2 POP PUSH2 0x7C7 PUSH1 0x20 DUP5 ADD PUSH2 0x6F9 JUMP JUMPDEST SWAP1 POP SWAP3 POP SWAP3 SWAP1 POP JUMP JUMPDEST PUSH1 0x1 DUP2 DUP2 SHR SWAP1 DUP3 AND DUP1 PUSH2 0x7E4 JUMPI PUSH1 0x7F DUP3 AND SWAP2 POP JUMPDEST PUSH1 0x20 DUP3 LT DUP2 SUB PUSH2 0x804 JUMPI PUSH4 0x4E487B71 PUSH1 0xE0 SHL PUSH1 0x0 MSTORE PUSH1 0x22 PUSH1 0x4 MSTORE PUSH1 0x24 PUSH1 0x0 REVERT JUMPDEST POP SWAP2 SWAP1 POP JUMP JUMPDEST PUSH4 0x4E487B71 PUSH1 0xE0 SHL PUSH1 0x0 MSTORE PUSH1 0x11 PUSH1 0x4 MSTORE PUSH1 0x24 PUSH1 0x0 REVERT JUMPDEST PUSH2 0xFFFF DUP2 DUP2 AND DUP4 DUP3 AND MUL DUP1 DUP3 AND SWAP2 SWAP1 DUP3 DUP2 EQ PUSH2 0x83E JUMPI PUSH2 0x83E PUSH2 0x80A JUMP JUMPDEST POP POP SWAP3 SWAP2 POP POP JUMP JUMPDEST DUP1 DUP3 ADD DUP1 DUP3 GT ISZERO PUSH2 0x30F JUMPI PUSH2 0x30F PUSH2 0x80A JUMP INVALID LOG2 PUSH5 0x6970667358 0x22 SLT KECCAK256 0xF8 EXP 0x28 CALLDATACOPY CALLDATACOPY JUMPDEST 0xCD DUP13 0xEC 0xED CALLDATASIZE 0xD5 DIV PUSH11 0x8D3B12012704FDD4116551 SSTORE LT SWAP15 0x5C PUSH6 0x13364736F6C PUSH4 0x43000816 STOP CALLER "
				},
				"gasEstimates": {
					"creation": {
						"codeDepositCost": "438200",
						"executionCost": "infinite",
						"totalCost": "infinite"
					},
					"external": {
						"allowance(address,address)": "infinite",
						"approve(address,uint256)": "24784",
						"balanceOf(address)": "2585",
						"decimals()": "244",
						"getRewrdCode()": "51005",
						"jack()": "2350",
						"max()": "2349",
						"name()": "infinite",
						"owner()": "2393",
						"symbol()": "infinite",
						"tom()": "2370",
						"totalSupply()": "2304",
						"transfer(address,uint256)": "51244",
						"transferFrom(address,address,uint256)": "infinite",
						"transferToken(address,address,uint256)": "infinite"
					}
				},
				"methodIdentifiers": {
					"allowance(address,address)": "dd62ed3e",
					"approve(address,uint256)": "095ea7b3",
					"balanceOf(address)": "70a08231",
					"decimals()": "313ce567",
					"getRewrdCode()": "5cd07ee6",
					"jack()": "05417143",
					"max()": "6ac5db19",
					"name()": "06fdde03",
					"owner()": "8da5cb5b",
					"symbol()": "95d89b41",
					"tom()": "ce266af8",
					"totalSupply()": "18160ddd",
					"transfer(address,uint256)": "a9059cbb",
					"transferFrom(address,address,uint256)": "23b872dd",
					"transferToken(address,address,uint256)": "f5537ede"
				}
			},
			"storageLayout": {
				"storage": [
					{
						"astId": 159,
						"contract": "contracts/Token.sol:Token",
						"label": "_balances",
						"offset": 0,
						"slot": "0",
						"type": "t_mapping(t_address,t_uint256)"
					},
					{
						"astId": 165,
						"contract": "contracts/Token.sol:Token",
						"label": "_allowances",
						"offset": 0,
						"slot": "1",
						"type": "t_mapping(t_address,t_mapping(t_address,t_uint256))"
					},
					{
						"astId": 167,
						"contract": "contracts/Token.sol:Token",
						"label": "_totalSupply",
						"offset": 0,
						"slot": "2",
						"type": "t_uint256"
					},
					{
						"astId": 169,
						"contract": "contracts/Token.sol:Token",
						"label": "_name",
						"offset": 0,
						"slot": "3",
						"type": "t_string_storage"
					},
					{
						"astId": 171,
						"contract": "contracts/Token.sol:Token",
						"label": "_symbol",
						"offset": 0,
						"slot": "4",
						"type": "t_string_storage"
					},
					{
						"astId": 786,
						"contract": "contracts/Token.sol:Token",
						"label": "owner",
						"offset": 0,
						"slot": "5",
						"type": "t_address"
					},
					{
						"astId": 788,
						"contract": "contracts/Token.sol:Token",
						"label": "tom",
						"offset": 0,
						"slot": "6",
						"type": "t_address"
					},
					{
						"astId": 790,
						"contract": "contracts/Token.sol:Token",
						"label": "max",
						"offset": 0,
						"slot": "7",
						"type": "t_address"
					},
					{
						"astId": 792,
						"contract": "contracts/Token.sol:Token",
						"label": "jack",
						"offset": 0,
						"slot": "8",
						"type": "t_address"
					}
				],
				"types": {
					"t_address": {
						"encoding": "inplace",
						"label": "address",
						"numberOfBytes": "20"
					},
					"t_mapping(t_address,t_mapping(t_address,t_uint256))": {
						"encoding": "mapping",
						"key": "t_address",
						"label": "mapping(address => mapping(address => uint256))",
						"numberOfBytes": "32",
						"value": "t_mapping(t_address,t_uint256)"
					},
					"t_mapping(t_address,t_uint256)": {
						"encoding": "mapping",
						"key": "t_address",
						"label": "mapping(address => uint256)",
						"numberOfBytes": "32",
						"value": "t_uint256"
					},
					"t_string_storage": {
						"encoding": "bytes",
						"label": "string",
						"numberOfBytes": "32"
					},
					"t_uint256": {
						"encoding": "inplace",
						"label": "uint256",
						"numberOfBytes": "32"
					}
				}
			},
			"userdoc": {
				"kind": "user",
				"methods": {},
				"version": 1
			}
		}
	}
}