{
	"data": {
		"bytecode": {
			"linkReferences": {},
			"object": "608060405234801562000010575f80fd5b506040516200653538038062006535833981016040819052620000339162000a5b565b60408051602081019091525f81526200004c8162000254565b50600580546001600160a01b0319166001600160a01b0383169081179091556040805163313ce56760e01b8152905163313ce567916004808201926020929091908290030181865afa158015620000a5573d5f803e3d5ffd5b505050506040513d601f19601f82011682018060405250810190620000cb919062000a8a565b620000d890600a62000bbb565b600355600480546001600160a01b03191633179055604080518082018252600e81526d684d685f685e685f68c3e85ae85d60911b602080830191909152825160608101909352602f80845262000163935f9392909190620064ba9083013960408051808201909152600c81526b6361745f6e6674312e706e6760a01b60208201525f60014262000266565b620001da5f604051806040016040528060128152602001710d092d0bad183d181d0bdd18fd188d0bad0b60741b8152506040518060800160405280604c8152602001620064e9604c913960408051808201909152600c81526b6361745f6e6674322e706e6760a01b60208201525f60014262000266565b6200024d5f6040518060400160405280600e81526020016d684fe8c1e85be8c5e8c0685c685d60911b815250604051806060016040528060388152602001620064826038913960408051808201909152600c81526b6361745f6e6674332e706e6760a01b60208201525f60014262000266565b5062000ec8565b600262000262828262000c66565b5050565b6004546001600160a01b03163314620002fd5760405162461bcd60e51b815260206004820152604860248201527fd0a2d0bed0bbd18cd0bad0be20d0b2d0bbd0b0d0b4d0b5d0bbd0b5d18620d0bc60448201527fd0bed0b6d0b5d18220d18dd182d0be20d0b8d181d0bfd0bed0bbd18cd0b7d0be606482015267342cb42c3460b46360c21b608482015260a4015b60405180910390fd5b5f8781526008602052604090206005015415620003835760405162461bcd60e51b815260206004820152603660248201527f4e465420d18120d182d0b0d0bad0b8d0bc20696420d183d0b6d0b520d0b5d18160448201527fd182d18c20d0b220d181d0b8d181d182d0b5d0bcd0b5000000000000000000006064820152608401620002f4565b620003a533888460405180602001604052805f8152506200054a60201b60201c565b6040805161010081018252888152335f90815260096020908152838220548184019081528385018b8152606085018b9052608085018a905260a0850189905260c0850188905260e085018790528c845260089092529390912082518155925160018401555190919060028201906200041e908262000c66565b506060820151600382019062000435908262000c66565b50608082015160048201906200044c908262000c66565b5060a082810151600583015560c080840151600684015560e093840151600790930192909255335f9081526009602081815260408084208151610100810183528f815293835280548484018181529285018f8152606086018f9052608086018e90529685018c90529684018a90529683018890526001808701885596845292208151600890950201938455905193830193909355516002820190620004f2908262000c66565b506060820151600382019062000509908262000c66565b506080820151600482019062000520908262000c66565b5060a0820151816005015560c0820151816006015560e08201518160070155505050505050505050565b6001600160a01b0384166200057557604051632bfa23e760e11b81525f6004820152602401620002f4565b60408051600180825260208201869052818301908152606082018590526080820190925290620005a95f87848487620005b1565b505050505050565b620005bf8585858562000614565b6001600160a01b038416156200060d5782513390600103620005fd5760208481015190840151620005f583898985858962000832565b5050620005a9565b620005a981878787878762000969565b5050505050565b8051825114620006455781518151604051635b05999160e01b815260048101929092526024820152604401620002f4565b335f5b83518110156200074f576020818102858101820151908501909101516001600160a01b03881615620006fd575f828152602081815260408083206001600160a01b038c16845290915290205481811015620006d7576040516303dee4c560e01b81526001600160a01b038a166004820152602481018290526044810183905260648101849052608401620002f4565b5f838152602081815260408083206001600160a01b038d16845290915290209082900390555b6001600160a01b0387161562000744575f828152602081815260408083206001600160a01b038b168452909152812080548392906200073e90849062000d2e565b90915550505b505060010162000648565b508251600103620007d25760208301515f906020840151909150856001600160a01b0316876001600160a01b0316846001600160a01b03167fc3d58168c5ae7397731d063d5bbf3d657854427343f4c083240f7aacaa2d0f628585604051620007c2929190918252602082015260400190565b60405180910390a450506200060d565b836001600160a01b0316856001600160a01b0316826001600160a01b03167f4a39dc06d4c0dbc64b70af90fd698a233a518aa5d07e595d983b8c0526c8f7fb86866040516200082392919062000d80565b60405180910390a45050505050565b6001600160a01b0384163b15620005a95760405163f23a6e6160e01b81526001600160a01b0385169063f23a6e619062000879908990899088908890889060040162000df6565b6020604051808303815f875af1925050508015620008b6575060408051601f3d908101601f19168201909252620008b39181019062000e3c565b60015b62000922573d808015620008e6576040519150601f19603f3d011682016040523d82523d5f602084013e620008eb565b606091505b5080515f036200091a57604051632bfa23e760e11b81526001600160a01b0386166004820152602401620002f4565b805181602001fd5b6001600160e01b0319811663f23a6e6160e01b146200096057604051632bfa23e760e11b81526001600160a01b0386166004820152602401620002f4565b50505050505050565b6001600160a01b0384163b15620005a95760405163bc197c8160e01b81526001600160a01b0385169063bc197c8190620009b0908990899088908890889060040162000e65565b6020604051808303815f875af1925050508015620009ed575060408051601f3d908101601f19168201909252620009ea9181019062000e3c565b60015b62000a1d573d808015620008e6576040519150601f19603f3d011682016040523d82523d5f602084013e620008eb565b6001600160e01b0319811663bc197c8160e01b146200096057604051632bfa23e760e11b81526001600160a01b0386166004820152602401620002f4565b5f6020828403121562000a6c575f80fd5b81516001600160a01b038116811462000a83575f80fd5b9392505050565b5f6020828403121562000a9b575f80fd5b815160ff8116811462000a83575f80fd5b634e487b7160e01b5f52601160045260245ffd5b600181815b8085111562000b0057815f190482111562000ae45762000ae462000aac565b8085161562000af257918102915b93841c939080029062000ac5565b509250929050565b5f8262000b185750600162000bb5565b8162000b2657505f62000bb5565b816001811462000b3f576002811462000b4a5762000b6a565b600191505062000bb5565b60ff84111562000b5e5762000b5e62000aac565b50506001821b62000bb5565b5060208310610133831016604e8410600b841016171562000b8f575081810a62000bb5565b62000b9b838362000ac0565b805f190482111562000bb15762000bb162000aac565b0290505b92915050565b5f62000a8360ff84168362000b08565b634e487b7160e01b5f52604160045260245ffd5b600181811c9082168062000bf457607f821691505b60208210810362000c1357634e487b7160e01b5f52602260045260245ffd5b50919050565b601f82111562000c6157805f5260205f20601f840160051c8101602085101562000c405750805b601f840160051c820191505b818110156200060d575f815560010162000c4c565b505050565b81516001600160401b0381111562000c825762000c8262000bcb565b62000c9a8162000c93845462000bdf565b8462000c19565b602080601f83116001811462000cd0575f841562000cb85750858301515b5f19600386901b1c1916600185901b178555620005a9565b5f85815260208120601f198616915b8281101562000d005788860151825594840194600190910190840162000cdf565b508582101562000d1e57878501515f19600388901b60f8161c191681555b5050505050600190811b01905550565b8082018082111562000bb55762000bb562000aac565b5f815180845260208085019450602084015f5b8381101562000d755781518752958201959082019060010162000d57565b509495945050505050565b604081525f62000d94604083018562000d44565b828103602084015262000da8818562000d44565b95945050505050565b5f81518084525f5b8181101562000dd75760208185018101518683018201520162000db9565b505f602082860101526020601f19601f83011685010191505092915050565b6001600160a01b03868116825285166020820152604081018490526060810183905260a0608082018190525f9062000e319083018462000db1565b979650505050505050565b5f6020828403121562000e4d575f80fd5b81516001600160e01b03198116811462000a83575f80fd5b6001600160a01b0386811682528516602082015260a0604082018190525f9062000e929083018662000d44565b828103606084015262000ea6818662000d44565b9050828103608084015262000ebc818562000db1565b98975050505050505050565b6155ac8062000ed65f395ff3fe608060405234801561000f575f80fd5b5060043610610186575f3560e01c80637327df25116100d9578063a22cb46511610093578063e985e9c51161006e578063e985e9c514610373578063f242432a14610386578063f897692114610399578063fb2facc3146103ae575f80fd5b8063a22cb46514610338578063a2a376cd1461034b578063b8acb41614610360575f80fd5b80637327df25146102c45780637ba9165c146102d9578063845c54f6146102ec57806390420aee146102ff578063958828e31461031257806397f588c614610325575f80fd5b80634dad2aab116101445780635c222bad1161011f5780635c222bad1461027457806368dadec214610289578063694f82b41461029c5780636bf1955d146102af575f80fd5b80634dad2aab1461022e5780634e1273f414610241578063598647f814610261575f80fd5b8062fdd58e1461018a57806301ffc9a7146101b05780630e89341c146101d3578063222d9c5c146101f35780632eb2c2d6146102085780633aacc9121461021b575b5f80fd5b61019d6101983660046146ba565b6103c1565b6040519081526020015b60405180910390f35b6101c36101be3660046146f7565b6103e8565b60405190151581526020016101a7565b6101e66101e1366004614719565b610437565b6040516101a7919061477d565b610206610201366004614719565b6104c9565b005b6102066102163660046148cf565b610d6d565b610206610229366004614972565b610dd4565b6101e661023c3660046149ac565b6111dd565b61025461024f366004614a18565b6113d7565b6040516101a79190614b0c565b61020661026f366004614b1e565b6114a2565b61027c6116ff565b6040516101a79190614b3e565b610206610297366004614c14565b61193d565b6102066102aa366004614c3d565b612105565b6102b7612356565b6040516101a79190614cdf565b6102cc6123e9565b6040516101a79190614d5f565b6102066102e7366004614de7565b612491565b6102066102fa366004614e16565b612668565b61020661030d366004614b1e565b6128c2565b610206610320366004614ebb565b61297f565b610206610333366004614f12565b612c08565b610206610346366004614f4c565b612e3b565b610353612e4a565b6040516101a79190614f85565b61020661036e366004614b1e565b612f4f565b6101c3610381366004615001565b613312565b610206610394366004615032565b61333f565b6103a161339e565b6040516101a79190615092565b6102066103bc366004614719565b6135c6565b5f818152602081815260408083206001600160a01b03861684529091529020545b92915050565b5f6001600160e01b03198216636cdb3d1360e11b148061041857506001600160e01b031982166303a24d0760e21b145b806103e257506301ffc9a760e01b6001600160e01b03198316146103e2565b6060600280546104469061514b565b80601f01602080910402602001604051908101604052809291908181526020018280546104729061514b565b80156104bd5780601f10610494576101008083540402835291602001916104bd565b820191905f5260205f20905b8154815290600101906020018083116104a057829003601f168201915b50505050509050919050565b6004546001600160a01b031633146104fc5760405162461bcd60e51b81526004016104f390615183565b60405180910390fd5b6004546010805461067a926001600160a01b0316919084908110610522576105226151f1565b905f5260205f2090600802016006015f9054906101000a90046001600160a01b0316600f60108581548110610559576105596151f1565b905f5260205f2090600802016001015481548110610579576105796151f1565b905f5260205f2090600502016003018054806020026020016040519081016040528092919081815260200182805480156105d057602002820191905f5260205f20905b8154815260200190600101908083116105bc575b5050505050600f601086815481106105ea576105ea6151f1565b905f5260205f209060080201600101548154811061060a5761060a6151f1565b905f5260205f20906005020160040180548060200260200160405190810160405280929190818152602001828054801561066157602002820191905f5260205f20905b81548152602001906001019080831161064d575b505050505060405180602001604052805f815250613f13565b5f5b600f60108381548110610691576106916151f1565b905f5260205f20906008020160010154815481106106b1576106b16151f1565b905f5260205f20906005020160030180549050811015610d235760095f601084815481106106e1576106e16151f1565b905f5260205f2090600802016006015f9054906101000a90046001600160a01b03166001600160a01b03166001600160a01b031681526020019081526020015f20604051806101000160405280600f60108681548110610743576107436151f1565b905f5260205f2090600802016001015481548110610763576107636151f1565b905f5260205f2090600502016003018481548110610783576107836151f1565b905f5260205f200154815260200160095f601087815481106107a7576107a76151f1565b905f5260205f2090600802016006015f9054906101000a90046001600160a01b03166001600160a01b03166001600160a01b031681526020019081526020015f2080549050815260200160085f600a5f6010898154811061080a5761080a6151f1565b905f5260205f2090600802016001015481526020019081526020015f20600301868154811061083b5761083b6151f1565b905f5260205f20015481526020019081526020015f20600201805461085f9061514b565b80601f016020809104026020016040519081016040528092919081815260200182805461088b9061514b565b80156108d65780601f106108ad576101008083540402835291602001916108d6565b820191905f5260205f20905b8154815290600101906020018083116108b957829003601f168201915b5050505050815260200160085f600a5f601089815481106108f9576108f96151f1565b905f5260205f2090600802016001015481526020019081526020015f20600301868154811061092a5761092a6151f1565b905f5260205f20015481526020019081526020015f20600301805461094e9061514b565b80601f016020809104026020016040519081016040528092919081815260200182805461097a9061514b565b80156109c55780601f1061099c576101008083540402835291602001916109c5565b820191905f5260205f20905b8154815290600101906020018083116109a857829003601f168201915b5050505050815260200160085f600a5f601089815481106109e8576109e86151f1565b905f5260205f2090600802016001015481526020019081526020015f206003018681548110610a1957610a196151f1565b905f5260205f20015481526020019081526020015f206004018054610a3d9061514b565b80601f0160208091040260200160405190810160405280929190818152602001828054610a699061514b565b8015610ab45780601f10610a8b57610100808354040283529160200191610ab4565b820191905f5260205f20905b815481529060010190602001808311610a9757829003601f168201915b5050505050815260200160085f600a5f60108981548110610ad757610ad76151f1565b905f5260205f2090600802016001015481526020019081526020015f206003018681548110610b0857610b086151f1565b905f5260205f20015481526020019081526020015f206006015481526020016003546001610b369190615219565b815260200160085f600a5f60108981548110610b5457610b546151f1565b905f5260205f2090600802016001015481526020019081526020015f206003018681548110610b8557610b856151f1565b5f91825260208083209091015483528281019390935260409182018120600701549093528454600181810187559584529282902084516008909402019283559083015193820193909355918101519091906002820190610be59082615274565b5060608201516003820190610bfa9082615274565b5060808201516004820190610c0f9082615274565b5060a0820151600582015560c0820151600682015560e0909101516007909101556004546001600160a01b03165f9081526009602052604081206010805491926008929091600a9183919088908110610c6a57610c6a6151f1565b905f5260205f2090600802016001015481526020019081526020015f206003018481548110610c9b57610c9b6151f1565b905f5260205f20015481526020019081526020015f206001015481548110610cc557610cc56151f1565b5f918252602082206008909102018181556001810182905590610ceb6002830182614593565b610cf8600383015f614593565b610d05600483015f614593565b505f600582018190556006820181905560079091015560010161067c565b505f60108281548110610d3857610d386151f1565b905f5260205f2090600802016006015f6101000a8154816001600160a01b0302191690836001600160a01b0316021790555050565b336001600160a01b0386168114801590610d8e5750610d8c8682613312565b155b15610dbf5760405163711bec9160e11b81526001600160a01b038083166004830152871660248201526044016104f3565b610dcc8686868686613f13565b505050505050565b610def3383868460405180602001604052805f815250613f78565b335f908152600960205260409020805482919085908110610e1257610e126151f1565b905f5260205f2090600802016006015f828254610e2f9190615330565b90915550506001600160a01b0382165f908152600960209081526040808320815161010081018352888152815481850152888552600890935292819020600201805491830191610e7e9061514b565b80601f0160208091040260200160405190810160405280929190818152602001828054610eaa9061514b565b8015610ef55780601f10610ecc57610100808354040283529160200191610ef5565b820191905f5260205f20905b815481529060010190602001808311610ed857829003601f168201915b5050505050815260200160085f8881526020019081526020015f206003018054610f1e9061514b565b80601f0160208091040260200160405190810160405280929190818152602001828054610f4a9061514b565b8015610f955780601f10610f6c57610100808354040283529160200191610f95565b820191905f5260205f20905b815481529060010190602001808311610f7857829003601f168201915b5050505050815260200160085f8881526020019081526020015f206004018054610fbe9061514b565b80601f0160208091040260200160405190810160405280929190818152602001828054610fea9061514b565b80156110355780601f1061100c57610100808354040283529160200191611035565b820191905f5260205f20905b81548152906001019060200180831161101857829003601f168201915b5050505050815260200183815260200160095f336001600160a01b03166001600160a01b031681526020019081526020015f208681548110611079576110796151f1565b5f918252602080832060089283020160050154845289835281815260408084206007015494820194909452855460018082018855968452928190208551939092029091019182558301519381019390935581015190919060028201906110df9082615274565b50606082015160038201906110f49082615274565b50608082015160048201906111099082615274565b5060a0820151600582015560c0820151600682015560e090910151600790910155335f90815260096020526040902080548490811061114a5761114a6151f1565b905f5260205f209060080201600601545f036111d757335f908152600960205260409020805484908110611180576111806151f1565b5f9182526020822060089091020181815560018101829055906111a66002830182614593565b6111b3600383015f614593565b6111c0600483015f614593565b505f60058201819055600682018190556007909101555b50505050565b60603360066111ef8160028688615343565b60405160200161120092919061536a565b60408051601f198184030181529082905261121a91615397565b908152604051908190036020019020600101546001600160a01b0316036112955760405162461bcd60e51b815260206004820152602960248201527fd092d18b20d183d0b6d0b520d181d0bed0b7d0b4d0b0d0bbd0b820d180d0b5d160448201526884d0b5d180d0b0d0bb60b81b60648201526084016104f3565b5f6112a4600660028587615343565b6040516020016112b592919061536a565b60408051601f198184030181526060830182528083523360208401525f8383015290519092506006906112e9908490615397565b908152604051908190036020019020815181906113069082615274565b50602082810151600180840180546001600160a01b039093166001600160a01b031990931692909217909155604093840151600290930192909255825160608101845284815233918101919091525f928101839052600d80549283018155909252815160039091027fd7b6990105719101dabeb77144f2a3385c8033acd3af97e9423a695e81ad1eb50190819061139d9082615274565b5060208201516001820180546001600160a01b0319166001600160a01b039092169190911790556040909101516002909101559392505050565b606081518351146114085781518351604051635b05999160e01b8152600481019290925260248201526044016104f3565b5f835167ffffffffffffffff8111156114235761142361478f565b60405190808252806020026020018201604052801561144c578160200160208202803683370190505b5090505f5b845181101561149a57602080820286010151611475906020808402870101516103c1565b828281518110611487576114876151f1565b6020908102919091010152600101611451565b509392505050565b601082815481106114b5576114b56151f1565b905f5260205f20906008020160040154805f036114e45760405162461bcd60e51b81526004016104f3906153b2565b81601084815481106114f8576114f86151f1565b905f5260205f209060080201600701541061156d5760405162461bcd60e51b815260206004820152602f60248201527fd0a2d0b5d0bad183d189d0b0d18f20d181d182d0b0d0b2d0bad0b020d0b2d18b60448201526ed188d0b520d0b2d0b0d188d0b5d0b960881b60648201526084016104f3565b60055460048054604051637aa9bf6f60e11b815233928101929092526001600160a01b039081166024830152604482018590529091169063f5537ede906064015f604051808303815f87803b1580156115c4575f80fd5b505af11580156115d6573d5f803e3d5ffd5b5050505081601084815481106115ee576115ee6151f1565b905f5260205f209060080201600701819055503360108481548110611615576116156151f1565b5f918252602080832060066008909302019190910180546001600160a01b039485166001600160a01b031991821617909155868352600b825260408084208151808301909252878252338285019081528154600181810184559287529490952091516002909402909101928355925191909201805491909316911617905560108054849081106116a7576116a76151f1565b905f5260205f20906008020160040154600354836116c59190615219565b106116fa575f601084815481106116de576116de6151f1565b905f5260205f209060080201600401819055506116fa836135c6565b505050565b6060600e805480602002602001604051908101604052809291908181526020015f905b82821015611934578382905f5260205f209060080201604051806101000160405290815f8201548152602001600182015481526020016002820180546117679061514b565b80601f01602080910402602001604051908101604052809291908181526020018280546117939061514b565b80156117de5780601f106117b5576101008083540402835291602001916117de565b820191905f5260205f20905b8154815290600101906020018083116117c157829003601f168201915b505050505081526020016003820180546117f79061514b565b80601f01602080910402602001604051908101604052809291908181526020018280546118239061514b565b801561186e5780601f106118455761010080835404028352916020019161186e565b820191905f5260205f20905b81548152906001019060200180831161185157829003601f168201915b505050505081526020016004820180546118879061514b565b80601f01602080910402602001604051908101604052809291908181526020018280546118b39061514b565b80156118fe5780601f106118d5576101008083540402835291602001916118fe565b820191905f5260205f20905b8154815290600101906020018083116118e157829003601f168201915b50505050508152602001600582015481526020016006820154815260200160078201548152505081526020019060010190611722565b50505050905090565b5f60648284600c8781548110611955576119556151f1565b905f5260205f2090600602016005015461196f9190615219565b6119799190615219565b61198391906153e9565b83600c8681548110611997576119976151f1565b905f5260205f209060060201600501546119b19190615219565b6119bb9190615330565b905082600c85815481106119d1576119d16151f1565b905f5260205f209060060201600401541015611a605760405162461bcd60e51b815260206004820152604260248201527fd092d18b20d0bfd18bd182d0b0d0b5d182d0b5d181d18c20d0bad183d0bfd0b860448201527fd182d18c20d0b1d0bed0bbd18cd188d0b52c20d187d0b5d0bc20d0b5d181d182606482015261346360f21b608482015260a4016104f3565b611ad1600c8581548110611a7657611a766151f1565b905f5260205f2090600602016003015f9054906101000a90046001600160a01b031633600c8781548110611aac57611aac6151f1565b905f5260205f209060060201600101548660405180602001604052805f815250613f78565b600554600c80546001600160a01b039092169163f5537ede91339188908110611afc57611afc6151f1565b5f91825260209091206006909102016003015460405160e084901b6001600160e01b03191681526001600160a01b03928316600482015291166024820152604481018490526064015f604051808303815f87803b158015611b5b575f80fd5b505af1158015611b6d573d5f803e3d5ffd5b5050505082600c8581548110611b8557611b856151f1565b905f5260205f2090600602016004015f828254611ba29190615330565b925050819055508260095f600c8781548110611bc057611bc06151f1565b5f9182526020808320600360069093020191909101546001600160a01b031683528201929092526040019020600c805487908110611c0057611c006151f1565b905f5260205f2090600602016001015481548110611c2057611c206151f1565b905f5260205f2090600802016006015f828254611c3d9190615330565b9091555050335f8181526009602081815260408084208151610100810183528a8152958552928252825491850191909152600c80549294939184019260089291908a908110611c8e57611c8e6151f1565b905f5260205f2090600602016001015481526020019081526020015f206002018054611cb99061514b565b80601f0160208091040260200160405190810160405280929190818152602001828054611ce59061514b565b8015611d305780601f10611d0757610100808354040283529160200191611d30565b820191905f5260205f20905b815481529060010190602001808311611d1357829003601f168201915b5050505050815260200160085f600c8981548110611d5057611d506151f1565b905f5260205f2090600602016001015481526020019081526020015f206003018054611d7b9061514b565b80601f0160208091040260200160405190810160405280929190818152602001828054611da79061514b565b8015611df25780601f10611dc957610100808354040283529160200191611df2565b820191905f5260205f20905b815481529060010190602001808311611dd557829003601f168201915b5050505050815260200160085f600c8981548110611e1257611e126151f1565b905f5260205f2090600602016001015481526020019081526020015f206004018054611e3d9061514b565b80601f0160208091040260200160405190810160405280929190818152602001828054611e699061514b565b8015611eb45780601f10611e8b57610100808354040283529160200191611eb4565b820191905f5260205f20905b815481529060010190602001808311611e9757829003601f168201915b50505050508152602001858152602001600c8781548110611ed757611ed76151f1565b905f5260205f20906006020160050154815260200160085f600c8981548110611f0257611f026151f1565b5f91825260208083206001600690930201820154845283810194909452604092830182206007015490945285548085018755958152829020845160089096020194855590830151918401919091558101519091906002820190611f659082615274565b5060608201516003820190611f7a9082615274565b5060808201516004820190611f8f9082615274565b5060a0820151816005015560c0820151816006015560e08201518160070155505060095f600c8681548110611fc657611fc66151f1565b5f9182526020808320600360069093020191909101546001600160a01b031683528201929092526040019020600c805486908110612006576120066151f1565b905f5260205f2090600602016001015481548110612026576120266151f1565b905f5260205f209060080201600601545f036120875760095f600c8681548110612052576120526151f1565b5f9182526020808320600360069093020191909101546001600160a01b031683528201929092526040018120612087916145cd565b600c848154811061209a5761209a6151f1565b905f5260205f209060060201600401545f036111d757600c84815481106120c3576120c36151f1565b5f9182526020822060069091020181815560018101829055600281018290556003810180546001600160a01b0319169055600481018290556005015550505050565b6004546001600160a01b0316331461212f5760405162461bcd60e51b81526004016104f390615183565b5f858152600a60205260409020548590036121b25760405162461bcd60e51b815260206004820152603f60248201527fd09ad0bed0bbd0bbd0b5d0bad186d0b8d18f20d18120d182d0b0d0bad0b8d0bc60448201527f20696420d183d0b6d0b520d181d183d189d0b5d181d182d0b2d183d0b5d1820060648201526084016104f3565b6121cc33838360405180602001604052805f815250614004565b6040805160a081018252868152602080820187815282840187905260608301869052608083018590525f898152600a90925292902081518155915190919060018201906122199082615274565b506040820151600282019061222e9082615274565b506060820151805161224a9160038401916020909101906145eb565b50608082015180516122669160048401916020909101906145eb565b50506040805160a081018252878152602081018781529181018690526060810185905260808101849052600f80546001810182555f91909152815160059091027f8d1108e10bcb7c27dddfc02ed9d693a074039d026cf4ea4240b40f7d581ac80281019182559251919350917f8d1108e10bcb7c27dddfc02ed9d693a074039d026cf4ea4240b40f7d581ac80301906122ff9082615274565b50604082015160028201906123149082615274565b50606082015180516123309160038401916020909101906145eb565b506080820151805161234c9160048401916020909101906145eb565b5050505050505050565b6060600c805480602002602001604051908101604052809291908181526020015f905b82821015611934575f8481526020908190206040805160c08101825260068602909201805483526001808201548486015260028201549284019290925260038101546001600160a01b03166060840152600481015460808401526005015460a08301529083529092019101612379565b60606010805480602002602001604051908101604052809291908181526020015f905b82821015611934575f84815260209081902060408051610100810182526008860290920180548352600180820154848601526002820154928401929092526003810154606084015260048101546080840152600581015460a084015260068101546001600160a01b031660c08401526007015460e0830152908352909201910161240c565b335f9081526009602052604090208054839190859081106124b4576124b46151f1565b905f5260205f2090600802016006015410156125215760405162461bcd60e51b815260206004820152602660248201527fd0a320d0b2d0b0d18120d0bdd0b5d0b4d0bed181d182d0b0d182d0bed187d0bd604482015265342f8813919560d21b60648201526084016104f3565b6040805160c081018252600c80548083526020830197885292820195865233606083019081526080830195865260a083019485526001840182555f9190915290517fdf6966c971051c3d54ec59162606531493a51404a002842f56009d7e5cf4a8c760069093029283015594517fdf6966c971051c3d54ec59162606531493a51404a002842f56009d7e5cf4a8c882015592517fdf6966c971051c3d54ec59162606531493a51404a002842f56009d7e5cf4a8c984015592517fdf6966c971051c3d54ec59162606531493a51404a002842f56009d7e5cf4a8ca830180546001600160a01b0319166001600160a01b03909216919091179055517fdf6966c971051c3d54ec59162606531493a51404a002842f56009d7e5cf4a8cb82015590517fdf6966c971051c3d54ec59162606531493a51404a002842f56009d7e5cf4a8cc90910155565b6004546001600160a01b031633146126925760405162461bcd60e51b81526004016104f390615183565b5f878152600860205260409020600501541561270f5760405162461bcd60e51b815260206004820152603660248201527f4e465420d18120d182d0b0d0bad0b8d0bc20696420d183d0b6d0b520d0b5d181604482015275d182d18c20d0b220d181d0b8d181d182d0b5d0bcd0b560501b60648201526084016104f3565b61272933888460405180602001604052805f81525061403a565b6040805161010081018252888152335f90815260096020908152838220548184019081528385018b8152606085018b9052608085018a905260a0850189905260c0850188905260e085018790528c845260089092529390912082518155925160018401555190919060028201906127a09082615274565b50606082015160038201906127b59082615274565b50608082015160048201906127ca9082615274565b5060a082810151600583015560c080840151600684015560e093840151600790930192909255335f9081526009602081815260408084208151610100810183528f815293835280548484018181529285018f8152606086018f9052608086018e90529685018c90529684018a9052968301889052600180870188559684529220815160089095020193845590519383019390935551600282019061286e9082615274565b50606082015160038201906128839082615274565b50608082015160048201906128989082615274565b5060a0820151816005015560c0820151816006015560e08201518160070155505050505050505050565b336001600160a01b0316600c83815481106128df576128df6151f1565b5f9182526020909120600360069092020101546001600160a01b0316146129485760405162461bcd60e51b815260206004820152601960248201527fd0add182d0be20d0bdd0b520d0b2d0b0d18820d0bbd0bed1820000000000000060448201526064016104f3565b6003546129559082615219565b600c8381548110612968576129686151f1565b905f5260205f209060060201600501819055505050565b6004546001600160a01b031633146129a95760405162461bcd60e51b81526004016104f390615183565b5f5b601054811015612a645787601082815481106129c9576129c96151f1565b905f5260205f2090600802016001015403612a5c5760405162461bcd60e51b815260206004820152604760248201527fd090d183d0bad186d0b8d0bed0bd20d18120d182d0b0d0bad0bed0b920d0bad060448201527fbed0bbd0bbd0b5d0bad186d0b8d0b5d0b920d183d0b6d0b520d0b7d0b0d0bfd160648201526683d189d0b5d0bd60c81b608482015260a4016104f3565b6001016129ab565b50604080516101008101825260108054808352602083019a8b52928201988952606082019788526080820196875260a082019586526001600160a01b0394851660c0830190815260e083019485526001840182555f9190915290517f1b6847dc741a1b0cd08d278845f9d819d87b734759afb55fe2de5cb82a9ae67260089093029283015597517f1b6847dc741a1b0cd08d278845f9d819d87b734759afb55fe2de5cb82a9ae67382015595517f1b6847dc741a1b0cd08d278845f9d819d87b734759afb55fe2de5cb82a9ae67487015593517f1b6847dc741a1b0cd08d278845f9d819d87b734759afb55fe2de5cb82a9ae67586015591517f1b6847dc741a1b0cd08d278845f9d819d87b734759afb55fe2de5cb82a9ae676850155517f1b6847dc741a1b0cd08d278845f9d819d87b734759afb55fe2de5cb82a9ae67784015592517f1b6847dc741a1b0cd08d278845f9d819d87b734759afb55fe2de5cb82a9ae678830180546001600160a01b031916919094161790925590517f1b6847dc741a1b0cd08d278845f9d819d87b734759afb55fe2de5cb82a9ae67990910155565b80604051602001612c199190615397565b60405160208183030381529060405280519060200120600682604051612c3f9190615397565b90815260405160209181900382018120612c5b92909101615408565b6040516020818303038152906040528051906020012014612cf45760405162461bcd60e51b815260206004820152604760248201527fd0a2d0b0d0bad0bed0b3d0be20d180d0b5d184d0b5d180d0b0d0bbd18cd0bdd060448201527fbed0b3d0be20d0bad0bed0b4d0b020d0bdd0b5d18220d0b220d181d0b8d181d160648201526682d0b5d0bcd0b560c81b608482015260a4016104f3565b335f9081526007602052604090205460ff161515600103612d6b5760405162461bcd60e51b815260206004820152602b60248201527fd092d18b20d183d0b6d0b520d0b8d181d0bfd0bed0bbd18cd0b7d0bed0b2d0b060448201526a342ef42e08342eb42fb42d60aa1b60648201526084016104f3565b60055f9054906101000a90046001600160a01b03166001600160a01b0316635cd07ee66040518163ffffffff1660e01b81526004015f604051808303815f87803b158015612db7575f80fd5b505af1158015612dc9573d5f803e3d5ffd5b5050335f9081526007602052604090819020805460ff191660011790555160069250612df791508390615397565b9081526020016040518091039020600201546001612e15919061547a565b600682604051612e259190615397565b9081526040519081900360200190206002015550565b612e46338383614095565b5050565b6060600d805480602002602001604051908101604052809291908181526020015f905b82821015611934578382905f5260205f2090600302016040518060600160405290815f82018054612e9d9061514b565b80601f0160208091040260200160405190810160405280929190818152602001828054612ec99061514b565b8015612f145780601f10612eeb57610100808354040283529160200191612f14565b820191905f5260205f20905b815481529060010190602001808311612ef757829003601f168201915b50505091835250506001828101546001600160a01b031660208084019190915260029093015460409092019190915291835292019101612e6d565b60108281548110612f6257612f626151f1565b905f5260205f20906008020160040154805f03612f915760405162461bcd60e51b81526004016104f3906153b2565b600a821015612ff95760405162461bcd60e51b815260206004820152602e60248201527fd09cd0b8d0bdd0b8d0bcd0b0d0bbd18cd0bdd0b0d18f20d181d182d0b0d0b2d060448201526dbad0b0202d2031302050524f464960901b60648201526084016104f3565b336001600160a01b031660108481548110613016576130166151f1565b5f9182526020909120600660089092020101546001600160a01b0316036130785760405162461bcd60e51b815260206004820152601660248201527501a125a31641a307a16da16a41a177a171a169a16ba360571b60448201526064016104f3565b5f5b5f848152600b60205260409020548110156111d7575f848152600b602052604090208054339190839081106130b1576130b16151f1565b5f9182526020909120600160029092020101546001600160a01b03160361330a576003546130df9084615219565b5f858152600b602052604090208054839081106130fe576130fe6151f1565b905f5260205f2090600202015f015f82825461311a919061547a565b909155505060055460048054604051637aa9bf6f60e11b815233928101929092526001600160a01b039081166024830152604482018690529091169063f5537ede906064015f604051808303815f87803b158015613176575f80fd5b505af1158015613188573d5f803e3d5ffd5b505050506010848154811061319f5761319f6151f1565b905f5260205f20906008020160070154600b5f8681526020019081526020015f2082815481106131d1576131d16151f1565b905f5260205f2090600202015f01541115613281575f848152600b60205260409020805482908110613205576132056151f1565b905f5260205f2090600202015f015460108581548110613227576132276151f1565b905f5260205f20906008020160070181905550336010858154811061324e5761324e6151f1565b905f5260205f2090600802016006015f6101000a8154816001600160a01b0302191690836001600160a01b031602179055505b60108481548110613294576132946151f1565b905f5260205f20906008020160040154600b5f8681526020019081526020015f2082815481106132c6576132c66151f1565b905f5260205f2090600202015f01541061330a575f601085815481106132ee576132ee6151f1565b905f5260205f2090600802016004018190555061330a846135c6565b60010161307a565b6001600160a01b039182165f90815260016020908152604080832093909416825291909152205460ff1690565b336001600160a01b0386168114801590613360575061335e8682613312565b155b156133915760405163711bec9160e11b81526001600160a01b038083166004830152871660248201526044016104f3565b610dcc8686868686613f78565b6060600f805480602002602001604051908101604052809291908181526020015f905b82821015611934578382905f5260205f2090600502016040518060a00160405290815f82015481526020016001820180546133fb9061514b565b80601f01602080910402602001604051908101604052809291908181526020018280546134279061514b565b80156134725780601f1061344957610100808354040283529160200191613472565b820191905f5260205f20905b81548152906001019060200180831161345557829003601f168201915b5050505050815260200160028201805461348b9061514b565b80601f01602080910402602001604051908101604052809291908181526020018280546134b79061514b565b80156135025780601f106134d957610100808354040283529160200191613502565b820191905f5260205f20905b8154815290600101906020018083116134e557829003601f168201915b505050505081526020016003820180548060200260200160405190810160405280929190818152602001828054801561355857602002820191905f5260205f20905b815481526020019060010190808311613544575b50505050508152602001600482018054806020026020016040519081016040528092919081815260200182805480156135ae57602002820191905f5260205f20905b81548152602001906001019080831161359a575b505050505081525050815260200190600101906133c1565b6004546001600160a01b031633146135f05760405162461bcd60e51b81526004016104f390615183565b60108181548110613603576136036151f1565b905f5260205f20906008020160040154805f036136325760405162461bcd60e51b81526004016104f3906153b2565b60108281548110613645576136456151f1565b905f5260205f209060080201600401545f148061369857505f6001600160a01b03166010838154811061367a5761367a6151f1565b5f9182526020909120600660089092020101546001600160a01b0316145b6136f85760405162461bcd60e51b815260206004820152602b60248201527fd090d183d0bad186d0b8d0bed0bd20d0b5d189d19120d0bdd0b520d0b7d0b0d060448201526ab2d0b5d180d188d0b5d0bd60a81b60648201526084016104f3565b336001600160a01b031660108381548110613715576137156151f1565b5f9182526020909120600660089092020101546001600160a01b0316146137975760405162461bcd60e51b815260206004820152603060248201527fd092d18b20d0bdd0b520d0bfd0bed0b1d0b5d0b4d0b8d182d0b5d0bbd18c20d060448201526f05868c1e85d68c3685c685f685ee858160851b60648201526084016104f3565b60045460108054613853926001600160a01b0316913391600f9190879081106137c2576137c26151f1565b905f5260205f20906008020160010154815481106137e2576137e26151f1565b905f5260205f20906005020160030180548060200260200160405190810160405280929190818152602001828054801561383957602002820191905f5260205f20905b815481526020019060010190808311613825575b5050505050600f601087815481106105ea576105ea6151f1565b5f5b600f6010848154811061386a5761386a6151f1565b905f5260205f209060080201600101548154811061388a5761388a6151f1565b905f5260205f20906005020160030180549050811015613ec85760095f336001600160a01b03166001600160a01b031681526020019081526020015f20604051806101000160405280600f601087815481106138e8576138e86151f1565b905f5260205f2090600802016001015481548110613908576139086151f1565b905f5260205f2090600502016003018481548110613928576139286151f1565b905f5260205f200154815260200160095f6010888154811061394c5761394c6151f1565b905f5260205f2090600802016006015f9054906101000a90046001600160a01b03166001600160a01b03166001600160a01b031681526020019081526020015f2080549050815260200160085f600a5f60108a815481106139af576139af6151f1565b905f5260205f2090600802016001015481526020019081526020015f2060030186815481106139e0576139e06151f1565b905f5260205f20015481526020019081526020015f206002018054613a049061514b565b80601f0160208091040260200160405190810160405280929190818152602001828054613a309061514b565b8015613a7b5780601f10613a5257610100808354040283529160200191613a7b565b820191905f5260205f20905b815481529060010190602001808311613a5e57829003601f168201915b5050505050815260200160085f600a5f60108a81548110613a9e57613a9e6151f1565b905f5260205f2090600802016001015481526020019081526020015f206003018681548110613acf57613acf6151f1565b905f5260205f20015481526020019081526020015f206003018054613af39061514b565b80601f0160208091040260200160405190810160405280929190818152602001828054613b1f9061514b565b8015613b6a5780601f10613b4157610100808354040283529160200191613b6a565b820191905f5260205f20905b815481529060010190602001808311613b4d57829003601f168201915b5050505050815260200160085f600a5f60108a81548110613b8d57613b8d6151f1565b905f5260205f2090600802016001015481526020019081526020015f206003018681548110613bbe57613bbe6151f1565b905f5260205f20015481526020019081526020015f206004018054613be29061514b565b80601f0160208091040260200160405190810160405280929190818152602001828054613c0e9061514b565b8015613c595780601f10613c3057610100808354040283529160200191613c59565b820191905f5260205f20905b815481529060010190602001808311613c3c57829003601f168201915b5050505050815260200160085f600a5f60108a81548110613c7c57613c7c6151f1565b905f5260205f2090600802016001015481526020019081526020015f206003018681548110613cad57613cad6151f1565b905f5260205f20015481526020019081526020015f206006015481526020016003546001613cdb9190615219565b815260200160085f600a5f60108a81548110613cf957613cf96151f1565b905f5260205f2090600802016001015481526020019081526020015f206003018681548110613d2a57613d2a6151f1565b5f91825260208083209091015483528281019390935260409182018120600701549093528454600181810187559584529282902084516008909402019283559083015193820193909355918101519091906002820190613d8a9082615274565b5060608201516003820190613d9f9082615274565b5060808201516004820190613db49082615274565b5060a0820151600582015560c0820151600682015560e0909101516007909101556004546001600160a01b03165f9081526009602052604081206010805491926008929091600a9183919089908110613e0f57613e0f6151f1565b905f5260205f2090600802016001015481526020019081526020015f206003018481548110613e4057613e406151f1565b905f5260205f20015481526020019081526020015f206001015481548110613e6a57613e6a6151f1565b5f918252602082206008909102018181556001810182905590613e906002830182614593565b613e9d600383015f614593565b613eaa600483015f614593565b505f6005820181905560068201819055600790910155600101613855565b505f60108381548110613edd57613edd6151f1565b905f5260205f2090600802016006015f6101000a8154816001600160a01b0302191690836001600160a01b031602179055505050565b6001600160a01b038416613f3c57604051632bfa23e760e11b81525f60048201526024016104f3565b6001600160a01b038516613f6457604051626a0d4560e21b81525f60048201526024016104f3565b613f718585858585614129565b5050505050565b6001600160a01b038416613fa157604051632bfa23e760e11b81525f60048201526024016104f3565b6001600160a01b038516613fc957604051626a0d4560e21b81525f60048201526024016104f3565b60408051600180825260208201869052818301908152606082018590526080820190925290613ffb8787848487614129565b50505050505050565b6001600160a01b03841661402d57604051632bfa23e760e11b81525f60048201526024016104f3565b6111d75f85858585614129565b6001600160a01b03841661406357604051632bfa23e760e11b81525f60048201526024016104f3565b60408051600180825260208201869052818301908152606082018590526080820190925290610dcc5f87848487614129565b6001600160a01b0382166140bd5760405162ced3e160e81b81525f60048201526024016104f3565b6001600160a01b038381165f81815260016020908152604080832094871680845294825291829020805460ff191686151590811790915591519182527f17307eab39ab6107e8899845ad3d59bd9653f200f220920489ca2b5937696c31910160405180910390a3505050565b6141358585858561417c565b6001600160a01b03841615613f71578251339060010361416e576020848101519084015161416783898985858961438b565b5050610dcc565b610dcc8187878787876144ac565b80518251146141ab5781518151604051635b05999160e01b8152600481019290925260248201526044016104f3565b335f5b83518110156142ad576020818102858101820151908501909101516001600160a01b0388161561425f575f828152602081815260408083206001600160a01b038c16845290915290205481811015614239576040516303dee4c560e01b81526001600160a01b038a1660048201526024810182905260448101839052606481018490526084016104f3565b5f838152602081815260408083206001600160a01b038d16845290915290209082900390555b6001600160a01b038716156142a3575f828152602081815260408083206001600160a01b038b1684529091528120805483929061429d90849061547a565b90915550505b50506001016141ae565b50825160010361432d5760208301515f906020840151909150856001600160a01b0316876001600160a01b0316846001600160a01b03167fc3d58168c5ae7397731d063d5bbf3d657854427343f4c083240f7aacaa2d0f62858560405161431e929190918252602082015260400190565b60405180910390a45050613f71565b836001600160a01b0316856001600160a01b0316826001600160a01b03167f4a39dc06d4c0dbc64b70af90fd698a233a518aa5d07e595d983b8c0526c8f7fb868660405161437c92919061548d565b60405180910390a45050505050565b6001600160a01b0384163b15610dcc5760405163f23a6e6160e01b81526001600160a01b0385169063f23a6e61906143cf90899089908890889088906004016154ba565b6020604051808303815f875af1925050508015614409575060408051601f3d908101601f19168201909252614406918101906154fe565b60015b614470573d808015614436576040519150601f19603f3d011682016040523d82523d5f602084013e61443b565b606091505b5080515f0361446857604051632bfa23e760e11b81526001600160a01b03861660048201526024016104f3565b805181602001fd5b6001600160e01b0319811663f23a6e6160e01b14613ffb57604051632bfa23e760e11b81526001600160a01b03861660048201526024016104f3565b6001600160a01b0384163b15610dcc5760405163bc197c8160e01b81526001600160a01b0385169063bc197c81906144f09089908990889088908890600401615519565b6020604051808303815f875af192505050801561452a575060408051601f3d908101601f19168201909252614527918101906154fe565b60015b614557573d808015614436576040519150601f19603f3d011682016040523d82523d5f602084013e61443b565b6001600160e01b0319811663bc197c8160e01b14613ffb57604051632bfa23e760e11b81526001600160a01b03861660048201526024016104f3565b50805461459f9061514b565b5f825580601f106145ae575050565b601f0160209004905f5260205f20908101906145ca9190614634565b50565b5080545f8255600802905f5260205f20908101906145ca9190614648565b828054828255905f5260205f20908101928215614624579160200282015b82811115614624578251825591602001919060010190614609565b50614630929150614634565b5090565b5b80821115614630575f8155600101614635565b80821115614630575f808255600182018190556146686002830182614593565b614675600383015f614593565b614682600483015f614593565b505f60058201819055600682018190556007820155600801614648565b80356001600160a01b03811681146146b5575f80fd5b919050565b5f80604083850312156146cb575f80fd5b6146d48361469f565b946020939093013593505050565b6001600160e01b0319811681146145ca575f80fd5b5f60208284031215614707575f80fd5b8135614712816146e2565b9392505050565b5f60208284031215614729575f80fd5b5035919050565b5f5b8381101561474a578181015183820152602001614732565b50505f910152565b5f8151808452614769816020860160208601614730565b601f01601f19169290920160200192915050565b602081525f6147126020830184614752565b634e487b7160e01b5f52604160045260245ffd5b604051601f8201601f1916810167ffffffffffffffff811182821017156147cc576147cc61478f565b604052919050565b5f67ffffffffffffffff8211156147ed576147ed61478f565b5060051b60200190565b5f82601f830112614806575f80fd5b8135602061481b614816836147d4565b6147a3565b8083825260208201915060208460051b87010193508684111561483c575f80fd5b602086015b848110156148585780358352918301918301614841565b509695505050505050565b5f82601f830112614872575f80fd5b813567ffffffffffffffff81111561488c5761488c61478f565b61489f601f8201601f19166020016147a3565b8181528460208386010111156148b3575f80fd5b816020850160208301375f918101602001919091529392505050565b5f805f805f60a086880312156148e3575f80fd5b6148ec8661469f565b94506148fa6020870161469f565b9350604086013567ffffffffffffffff80821115614916575f80fd5b61492289838a016147f7565b94506060880135915080821115614937575f80fd5b61494389838a016147f7565b93506080880135915080821115614958575f80fd5b5061496588828901614863565b9150509295509295909350565b5f805f8060808587031215614985575f80fd5b843593506020850135925061499c6040860161469f565b9396929550929360600135925050565b5f80602083850312156149bd575f80fd5b823567ffffffffffffffff808211156149d4575f80fd5b818501915085601f8301126149e7575f80fd5b8135818111156149f5575f80fd5b866020828501011115614a06575f80fd5b60209290920196919550909350505050565b5f8060408385031215614a29575f80fd5b823567ffffffffffffffff80821115614a40575f80fd5b818501915085601f830112614a53575f80fd5b81356020614a63614816836147d4565b82815260059290921b84018101918181019089841115614a81575f80fd5b948201945b83861015614aa657614a978661469f565b82529482019490820190614a86565b96505086013592505080821115614abb575f80fd5b50614ac8858286016147f7565b9150509250929050565b5f815180845260208085019450602084015f5b83811015614b0157815187529582019590820190600101614ae5565b509495945050505050565b602081525f6147126020830184614ad2565b5f8060408385031215614b2f575f80fd5b50508035926020909101359150565b5f60208083018184528085518083526040925060408601915060408160051b8701018488015f5b83811015614c0657603f198984030185528151610100815185528882015189860152878201518189870152614b9c82870182614752565b91505060608083015186830382880152614bb68382614752565b9250505060808083015186830382880152614bd18382614752565b60a0858101519089015260c0808601519089015260e09485015194909701939093525050509386019390860190600101614b65565b509098975050505050505050565b5f805f60608486031215614c26575f80fd5b505081359360208301359350604090920135919050565b5f805f805f60a08688031215614c51575f80fd5b85359450602086013567ffffffffffffffff80821115614c6f575f80fd5b614c7b89838a01614863565b95506040880135915080821115614c90575f80fd5b614c9c89838a01614863565b94506060880135915080821115614cb1575f80fd5b614cbd89838a016147f7565b93506080880135915080821115614cd2575f80fd5b50614965888289016147f7565b602080825282518282018190525f919060409081850190868401855b82811015614d5257815180518552868101518786015285810151868601526060808201516001600160a01b0316908601526080808201519086015260a0908101519085015260c09093019290850190600101614cfb565b5091979650505050505050565b602080825282518282018190525f919060409081850190868401855b82811015614d525781518051855286810151878601528581015186860152606080820151908601526080808201519086015260a0808201519086015260c0808201516001600160a01b03169086015260e090810151908501526101009093019290850190600101614d7b565b5f805f8060808587031215614dfa575f80fd5b5050823594602084013594506040840135936060013592509050565b5f805f805f805f60e0888a031215614e2c575f80fd5b87359650602088013567ffffffffffffffff80821115614e4a575f80fd5b614e568b838c01614863565b975060408a0135915080821115614e6b575f80fd5b614e778b838c01614863565b965060608a0135915080821115614e8c575f80fd5b50614e998a828b01614863565b979a969950949760808101359660a0820135965060c090910135945092505050565b5f805f805f805f60e0888a031215614ed1575f80fd5b8735965060208801359550604088013594506060880135935060808801359250614efd60a0890161469f565b915060c0880135905092959891949750929550565b5f60208284031215614f22575f80fd5b813567ffffffffffffffff811115614f38575f80fd5b614f4484828501614863565b949350505050565b5f8060408385031215614f5d575f80fd5b614f668361469f565b915060208301358015158114614f7a575f80fd5b809150509250929050565b5f60208083018184528085518083526040925060408601915060408160051b8701018488015f5b83811015614c0657603f19898403018552815160608151818652614fd282870182614752565b838b01516001600160a01b0316878c015292890151958901959095525094870194925090860190600101614fac565b5f8060408385031215615012575f80fd5b61501b8361469f565b91506150296020840161469f565b90509250929050565b5f805f805f60a08688031215615046575f80fd5b61504f8661469f565b945061505d6020870161469f565b93506040860135925060608601359150608086013567ffffffffffffffff811115615086575f80fd5b61496588828901614863565b5f60208083018184528085518083526040925060408601915060408160051b8701018488015f5b83811015614c0657603f19898403018552815160a08151855288820151818a8701526150e782870182614752565b91505087820151858203898701526150ff8282614752565b915050606080830151868303828801526151198382614ad2565b92505050608080830151925085820381870152506151378183614ad2565b9689019694505050908601906001016150b9565b600181811c9082168061515f57607f821691505b60208210810361517d57634e487b7160e01b5f52602260045260245ffd5b50919050565b60208082526048908201527fd0a2d0bed0bbd18cd0bad0be20d0b2d0bbd0b0d0b4d0b5d0bbd0b5d18620d0bc60408201527fd0bed0b6d0b5d18220d18dd182d0be20d0b8d181d0bfd0bed0bbd18cd0b7d0be606082015267342cb42c3460b46360c21b608082015260a00190565b634e487b7160e01b5f52603260045260245ffd5b634e487b7160e01b5f52601160045260245ffd5b80820281158282048414176103e2576103e2615205565b601f8211156116fa57805f5260205f20601f840160051c810160208510156152555750805b601f840160051c820191505b81811015613f71575f8155600101615261565b815167ffffffffffffffff81111561528e5761528e61478f565b6152a28161529c845461514b565b84615230565b602080601f8311600181146152d5575f84156152be5750858301515b5f19600386901b1c1916600185901b178555610dcc565b5f85815260208120601f198616915b82811015615303578886015182559484019460019091019084016152e4565b508582101561532057878501515f19600388901b60f8161c191681555b5050505050600190811b01905550565b818103818111156103e2576103e2615205565b5f8085851115615351575f80fd5b8386111561535d575f80fd5b5050820193919092039150565b6550524f46492d60d01b815281836006830137630c8c0c8d60e21b91016006810191909152600a01919050565b5f82516153a8818460208701614730565b9190910192915050565b6020808252601f908201527fd090d183d0bad186d0b8d0bed0bd20d0b7d0b0d0b2d0b5d180d188d191d0bd00604082015260600190565b5f8261540357634e487b7160e01b5f52601260045260245ffd5b500490565b5f8083546154158161514b565b6001828116801561542d57600181146154425761546e565b60ff198416875282151583028701945061546e565b875f526020805f205f5b858110156154655781548a82015290840190820161544c565b50505082870194505b50929695505050505050565b808201808211156103e2576103e2615205565b604081525f61549f6040830185614ad2565b82810360208401526154b18185614ad2565b95945050505050565b6001600160a01b03868116825285166020820152604081018490526060810183905260a0608082018190525f906154f390830184614752565b979650505050505050565b5f6020828403121561550e575f80fd5b8151614712816146e2565b6001600160a01b0386811682528516602082015260a0604082018190525f9061554490830186614ad2565b82810360608401526155568186614ad2565b9050828103608084015261556a8185614752565b9897505050505050505056fea2646970667358221220b88c0adaff09cc6c0dbfe6cd1c8559a0823b0107f54f8fa0e8fa262cd09e07be64736f6c63430008170033d09fd183d0b7d18bd180d0b8d0ba20d0bfd0bed185d0b8d182d0b8d0bb20d0bad0bed182d0b8d0bad0b020d18120d097d0b5d0bcd0bbd0b8d09ad0bed0bcd0bed187d0b5d0ba20d181d0bbd0b8d0bbd181d18f20d18120d0bad0bed181d0bcd0bed181d0bed0bcd092d0bad183d181d0bdd18fd188d0bad0b020d0b2d0bfd0b5d180d0b2d18bd0b520d0bfd180d0bed0b1d183d0b5d18220d18fd0bfd0bed0bdd181d0bad183d18e20d0bad183d185d0bdd18e",
			"opcodes": "PUSH1 0x80 PUSH1 0x40 MSTORE CALLVALUE DUP1 ISZERO PUSH3 0x10 JUMPI PUSH0 DUP1 REVERT JUMPDEST POP PUSH1 0x40 MLOAD PUSH3 0x6535 CODESIZE SUB DUP1 PUSH3 0x6535 DUP4 CODECOPY DUP2 ADD PUSH1 0x40 DUP2 SWAP1 MSTORE PUSH3 0x33 SWAP2 PUSH3 0xA5B JUMP JUMPDEST PUSH1 0x40 DUP1 MLOAD PUSH1 0x20 DUP2 ADD SWAP1 SWAP2 MSTORE PUSH0 DUP2 MSTORE PUSH3 0x4C DUP2 PUSH3 0x254 JUMP JUMPDEST POP PUSH1 0x5 DUP1 SLOAD PUSH1 0x1 PUSH1 0x1 PUSH1 0xA0 SHL SUB NOT AND PUSH1 0x1 PUSH1 0x1 PUSH1 0xA0 SHL SUB DUP4 AND SWAP1 DUP2 OR SWAP1 SWAP2 SSTORE PUSH1 0x40 DUP1 MLOAD PUSH4 0x313CE567 PUSH1 0xE0 SHL DUP2 MSTORE SWAP1 MLOAD PUSH4 0x313CE567 SWAP2 PUSH1 0x4 DUP1 DUP3 ADD SWAP3 PUSH1 0x20 SWAP3 SWAP1 SWAP2 SWAP1 DUP3 SWAP1 SUB ADD DUP2 DUP7 GAS STATICCALL ISZERO DUP1 ISZERO PUSH3 0xA5 JUMPI RETURNDATASIZE PUSH0 DUP1 RETURNDATACOPY RETURNDATASIZE PUSH0 REVERT JUMPDEST POP POP POP POP PUSH1 0x40 MLOAD RETURNDATASIZE PUSH1 0x1F NOT PUSH1 0x1F DUP3 ADD AND DUP3 ADD DUP1 PUSH1 0x40 MSTORE POP DUP2 ADD SWAP1 PUSH3 0xCB SWAP2 SWAP1 PUSH3 0xA8A JUMP JUMPDEST PUSH3 0xD8 SWAP1 PUSH1 0xA PUSH3 0xBBB JUMP JUMPDEST PUSH1 0x3 SSTORE PUSH1 0x4 DUP1 SLOAD PUSH1 0x1 PUSH1 0x1 PUSH1 0xA0 SHL SUB NOT AND CALLER OR SWAP1 SSTORE PUSH1 0x40 DUP1 MLOAD DUP1 DUP3 ADD DUP3 MSTORE PUSH1 0xE DUP2 MSTORE PUSH14 0x684D685F685E685F68C3E85AE85D PUSH1 0x91 SHL PUSH1 0x20 DUP1 DUP4 ADD SWAP2 SWAP1 SWAP2 MSTORE DUP3 MLOAD PUSH1 0x60 DUP2 ADD SWAP1 SWAP4 MSTORE PUSH1 0x2F DUP1 DUP5 MSTORE PUSH3 0x163 SWAP4 PUSH0 SWAP4 SWAP3 SWAP1 SWAP2 SWAP1 PUSH3 0x64BA SWAP1 DUP4 ADD CODECOPY PUSH1 0x40 DUP1 MLOAD DUP1 DUP3 ADD SWAP1 SWAP2 MSTORE PUSH1 0xC DUP2 MSTORE PUSH12 0x6361745F6E6674312E706E67 PUSH1 0xA0 SHL PUSH1 0x20 DUP3 ADD MSTORE PUSH0 PUSH1 0x1 TIMESTAMP PUSH3 0x266 JUMP JUMPDEST PUSH3 0x1DA PUSH0 PUSH1 0x40 MLOAD DUP1 PUSH1 0x40 ADD PUSH1 0x40 MSTORE DUP1 PUSH1 0x12 DUP2 MSTORE PUSH1 0x20 ADD PUSH18 0xD092D0BAD183D181D0BDD18FD188D0BAD0B PUSH1 0x74 SHL DUP2 MSTORE POP PUSH1 0x40 MLOAD DUP1 PUSH1 0x80 ADD PUSH1 0x40 MSTORE DUP1 PUSH1 0x4C DUP2 MSTORE PUSH1 0x20 ADD PUSH3 0x64E9 PUSH1 0x4C SWAP2 CODECOPY PUSH1 0x40 DUP1 MLOAD DUP1 DUP3 ADD SWAP1 SWAP2 MSTORE PUSH1 0xC DUP2 MSTORE PUSH12 0x6361745F6E6674322E706E67 PUSH1 0xA0 SHL PUSH1 0x20 DUP3 ADD MSTORE PUSH0 PUSH1 0x1 TIMESTAMP PUSH3 0x266 JUMP JUMPDEST PUSH3 0x24D PUSH0 PUSH1 0x40 MLOAD DUP1 PUSH1 0x40 ADD PUSH1 0x40 MSTORE DUP1 PUSH1 0xE DUP2 MSTORE PUSH1 0x20 ADD PUSH14 0x684FE8C1E85BE8C5E8C0685C685D PUSH1 0x91 SHL DUP2 MSTORE POP PUSH1 0x40 MLOAD DUP1 PUSH1 0x60 ADD PUSH1 0x40 MSTORE DUP1 PUSH1 0x38 DUP2 MSTORE PUSH1 0x20 ADD PUSH3 0x6482 PUSH1 0x38 SWAP2 CODECOPY PUSH1 0x40 DUP1 MLOAD DUP1 DUP3 ADD SWAP1 SWAP2 MSTORE PUSH1 0xC DUP2 MSTORE PUSH12 0x6361745F6E6674332E706E67 PUSH1 0xA0 SHL PUSH1 0x20 DUP3 ADD MSTORE PUSH0 PUSH1 0x1 TIMESTAMP PUSH3 0x266 JUMP JUMPDEST POP PUSH3 0xEC8 JUMP JUMPDEST PUSH1 0x2 PUSH3 0x262 DUP3 DUP3 PUSH3 0xC66 JUMP JUMPDEST POP POP JUMP JUMPDEST PUSH1 0x4 SLOAD PUSH1 0x1 PUSH1 0x1 PUSH1 0xA0 SHL SUB AND CALLER EQ PUSH3 0x2FD JUMPI PUSH1 0x40 MLOAD PUSH3 0x461BCD PUSH1 0xE5 SHL DUP2 MSTORE PUSH1 0x20 PUSH1 0x4 DUP3 ADD MSTORE PUSH1 0x48 PUSH1 0x24 DUP3 ADD MSTORE PUSH32 0xD0A2D0BED0BBD18CD0BAD0BE20D0B2D0BBD0B0D0B4D0B5D0BBD0B5D18620D0BC PUSH1 0x44 DUP3 ADD MSTORE PUSH32 0xD0BED0B6D0B5D18220D18DD182D0BE20D0B8D181D0BFD0BED0BBD18CD0B7D0BE PUSH1 0x64 DUP3 ADD MSTORE PUSH8 0x342CB42C3460B463 PUSH1 0xC2 SHL PUSH1 0x84 DUP3 ADD MSTORE PUSH1 0xA4 ADD JUMPDEST PUSH1 0x40 MLOAD DUP1 SWAP2 SUB SWAP1 REVERT JUMPDEST PUSH0 DUP8 DUP2 MSTORE PUSH1 0x8 PUSH1 0x20 MSTORE PUSH1 0x40 SWAP1 KECCAK256 PUSH1 0x5 ADD SLOAD ISZERO PUSH3 0x383 JUMPI PUSH1 0x40 MLOAD PUSH3 0x461BCD PUSH1 0xE5 SHL DUP2 MSTORE PUSH1 0x20 PUSH1 0x4 DUP3 ADD MSTORE PUSH1 0x36 PUSH1 0x24 DUP3 ADD MSTORE PUSH32 0x4E465420D18120D182D0B0D0BAD0B8D0BC20696420D183D0B6D0B520D0B5D181 PUSH1 0x44 DUP3 ADD MSTORE PUSH32 0xD182D18C20D0B220D181D0B8D181D182D0B5D0BCD0B500000000000000000000 PUSH1 0x64 DUP3 ADD MSTORE PUSH1 0x84 ADD PUSH3 0x2F4 JUMP JUMPDEST PUSH3 0x3A5 CALLER DUP9 DUP5 PUSH1 0x40 MLOAD DUP1 PUSH1 0x20 ADD PUSH1 0x40 MSTORE DUP1 PUSH0 DUP2 MSTORE POP PUSH3 0x54A PUSH1 0x20 SHL PUSH1 0x20 SHR JUMP JUMPDEST PUSH1 0x40 DUP1 MLOAD PUSH2 0x100 DUP2 ADD DUP3 MSTORE DUP9 DUP2 MSTORE CALLER PUSH0 SWAP1 DUP2 MSTORE PUSH1 0x9 PUSH1 0x20 SWAP1 DUP2 MSTORE DUP4 DUP3 KECCAK256 SLOAD DUP2 DUP5 ADD SWAP1 DUP2 MSTORE DUP4 DUP6 ADD DUP12 DUP2 MSTORE PUSH1 0x60 DUP6 ADD DUP12 SWAP1 MSTORE PUSH1 0x80 DUP6 ADD DUP11 SWAP1 MSTORE PUSH1 0xA0 DUP6 ADD DUP10 SWAP1 MSTORE PUSH1 0xC0 DUP6 ADD DUP9 SWAP1 MSTORE PUSH1 0xE0 DUP6 ADD DUP8 SWAP1 MSTORE DUP13 DUP5 MSTORE PUSH1 0x8 SWAP1 SWAP3 MSTORE SWAP4 SWAP1 SWAP2 KECCAK256 DUP3 MLOAD DUP2 SSTORE SWAP3 MLOAD PUSH1 0x1 DUP5 ADD SSTORE MLOAD SWAP1 SWAP2 SWAP1 PUSH1 0x2 DUP3 ADD SWAP1 PUSH3 0x41E SWAP1 DUP3 PUSH3 0xC66 JUMP JUMPDEST POP PUSH1 0x60 DUP3 ADD MLOAD PUSH1 0x3 DUP3 ADD SWAP1 PUSH3 0x435 SWAP1 DUP3 PUSH3 0xC66 JUMP JUMPDEST POP PUSH1 0x80 DUP3 ADD MLOAD PUSH1 0x4 DUP3 ADD SWAP1 PUSH3 0x44C SWAP1 DUP3 PUSH3 0xC66 JUMP JUMPDEST POP PUSH1 0xA0 DUP3 DUP2 ADD MLOAD PUSH1 0x5 DUP4 ADD SSTORE PUSH1 0xC0 DUP1 DUP5 ADD MLOAD PUSH1 0x6 DUP5 ADD SSTORE PUSH1 0xE0 SWAP4 DUP5 ADD MLOAD PUSH1 0x7 SWAP1 SWAP4 ADD SWAP3 SWAP1 SWAP3 SSTORE CALLER PUSH0 SWAP1 DUP2 MSTORE PUSH1 0x9 PUSH1 0x20 DUP2 DUP2 MSTORE PUSH1 0x40 DUP1 DUP5 KECCAK256 DUP2 MLOAD PUSH2 0x100 DUP2 ADD DUP4 MSTORE DUP16 DUP2 MSTORE SWAP4 DUP4 MSTORE DUP1 SLOAD DUP5 DUP5 ADD DUP2 DUP2 MSTORE SWAP3 DUP6 ADD DUP16 DUP2 MSTORE PUSH1 0x60 DUP7 ADD DUP16 SWAP1 MSTORE PUSH1 0x80 DUP7 ADD DUP15 SWAP1 MSTORE SWAP7 DUP6 ADD DUP13 SWAP1 MSTORE SWAP7 DUP5 ADD DUP11 SWAP1 MSTORE SWAP7 DUP4 ADD DUP9 SWAP1 MSTORE PUSH1 0x1 DUP1 DUP8 ADD DUP9 SSTORE SWAP7 DUP5 MSTORE SWAP3 KECCAK256 DUP2 MLOAD PUSH1 0x8 SWAP1 SWAP6 MUL ADD SWAP4 DUP5 SSTORE SWAP1 MLOAD SWAP4 DUP4 ADD SWAP4 SWAP1 SWAP4 SSTORE MLOAD PUSH1 0x2 DUP3 ADD SWAP1 PUSH3 0x4F2 SWAP1 DUP3 PUSH3 0xC66 JUMP JUMPDEST POP PUSH1 0x60 DUP3 ADD MLOAD PUSH1 0x3 DUP3 ADD SWAP1 PUSH3 0x509 SWAP1 DUP3 PUSH3 0xC66 JUMP JUMPDEST POP PUSH1 0x80 DUP3 ADD MLOAD PUSH1 0x4 DUP3 ADD SWAP1 PUSH3 0x520 SWAP1 DUP3 PUSH3 0xC66 JUMP JUMPDEST POP PUSH1 0xA0 DUP3 ADD MLOAD DUP2 PUSH1 0x5 ADD SSTORE PUSH1 0xC0 DUP3 ADD MLOAD DUP2 PUSH1 0x6 ADD SSTORE PUSH1 0xE0 DUP3 ADD MLOAD DUP2 PUSH1 0x7 ADD SSTORE POP POP POP POP POP POP POP POP POP JUMP JUMPDEST PUSH1 0x1 PUSH1 0x1 PUSH1 0xA0 SHL SUB DUP5 AND PUSH3 0x575 JUMPI PUSH1 0x40 MLOAD PUSH4 0x2BFA23E7 PUSH1 0xE1 SHL DUP2 MSTORE PUSH0 PUSH1 0x4 DUP3 ADD MSTORE PUSH1 0x24 ADD PUSH3 0x2F4 JUMP JUMPDEST PUSH1 0x40 DUP1 MLOAD PUSH1 0x1 DUP1 DUP3 MSTORE PUSH1 0x20 DUP3 ADD DUP7 SWAP1 MSTORE DUP2 DUP4 ADD SWAP1 DUP2 MSTORE PUSH1 0x60 DUP3 ADD DUP6 SWAP1 MSTORE PUSH1 0x80 DUP3 ADD SWAP1 SWAP3 MSTORE SWAP1 PUSH3 0x5A9 PUSH0 DUP8 DUP5 DUP5 DUP8 PUSH3 0x5B1 JUMP JUMPDEST POP POP POP POP POP POP JUMP JUMPDEST PUSH3 0x5BF DUP6 DUP6 DUP6 DUP6 PUSH3 0x614 JUMP JUMPDEST PUSH1 0x1 PUSH1 0x1 PUSH1 0xA0 SHL SUB DUP5 AND ISZERO PUSH3 0x60D JUMPI DUP3 MLOAD CALLER SWAP1 PUSH1 0x1 SUB PUSH3 0x5FD JUMPI PUSH1 0x20 DUP5 DUP2 ADD MLOAD SWAP1 DUP5 ADD MLOAD PUSH3 0x5F5 DUP4 DUP10 DUP10 DUP6 DUP6 DUP10 PUSH3 0x832 JUMP JUMPDEST POP POP PUSH3 0x5A9 JUMP JUMPDEST PUSH3 0x5A9 DUP2 DUP8 DUP8 DUP8 DUP8 DUP8 PUSH3 0x969 JUMP JUMPDEST POP POP POP POP POP JUMP JUMPDEST DUP1 MLOAD DUP3 MLOAD EQ PUSH3 0x645 JUMPI DUP2 MLOAD DUP2 MLOAD PUSH1 0x40 MLOAD PUSH4 0x5B059991 PUSH1 0xE0 SHL DUP2 MSTORE PUSH1 0x4 DUP2 ADD SWAP3 SWAP1 SWAP3 MSTORE PUSH1 0x24 DUP3 ADD MSTORE PUSH1 0x44 ADD PUSH3 0x2F4 JUMP JUMPDEST CALLER PUSH0 JUMPDEST DUP4 MLOAD DUP2 LT ISZERO PUSH3 0x74F JUMPI PUSH1 0x20 DUP2 DUP2 MUL DUP6 DUP2 ADD DUP3 ADD MLOAD SWAP1 DUP6 ADD SWAP1 SWAP2 ADD MLOAD PUSH1 0x1 PUSH1 0x1 PUSH1 0xA0 SHL SUB DUP9 AND ISZERO PUSH3 0x6FD JUMPI PUSH0 DUP3 DUP2 MSTORE PUSH1 0x20 DUP2 DUP2 MSTORE PUSH1 0x40 DUP1 DUP4 KECCAK256 PUSH1 0x1 PUSH1 0x1 PUSH1 0xA0 SHL SUB DUP13 AND DUP5 MSTORE SWAP1 SWAP2 MSTORE SWAP1 KECCAK256 SLOAD DUP2 DUP2 LT ISZERO PUSH3 0x6D7 JUMPI PUSH1 0x40 MLOAD PUSH4 0x3DEE4C5 PUSH1 0xE0 SHL DUP2 MSTORE PUSH1 0x1 PUSH1 0x1 PUSH1 0xA0 SHL SUB DUP11 AND PUSH1 0x4 DUP3 ADD MSTORE PUSH1 0x24 DUP2 ADD DUP3 SWAP1 MSTORE PUSH1 0x44 DUP2 ADD DUP4 SWAP1 MSTORE PUSH1 0x64 DUP2 ADD DUP5 SWAP1 MSTORE PUSH1 0x84 ADD PUSH3 0x2F4 JUMP JUMPDEST PUSH0 DUP4 DUP2 MSTORE PUSH1 0x20 DUP2 DUP2 MSTORE PUSH1 0x40 DUP1 DUP4 KECCAK256 PUSH1 0x1 PUSH1 0x1 PUSH1 0xA0 SHL SUB DUP14 AND DUP5 MSTORE SWAP1 SWAP2 MSTORE SWAP1 KECCAK256 SWAP1 DUP3 SWAP1 SUB SWAP1 SSTORE JUMPDEST PUSH1 0x1 PUSH1 0x1 PUSH1 0xA0 SHL SUB DUP8 AND ISZERO PUSH3 0x744 JUMPI PUSH0 DUP3 DUP2 MSTORE PUSH1 0x20 DUP2 DUP2 MSTORE PUSH1 0x40 DUP1 DUP4 KECCAK256 PUSH1 0x1 PUSH1 0x1 PUSH1 0xA0 SHL SUB DUP12 AND DUP5 MSTORE SWAP1 SWAP2 MSTORE DUP2 KECCAK256 DUP1 SLOAD DUP4 SWAP3 SWAP1 PUSH3 0x73E SWAP1 DUP5 SWAP1 PUSH3 0xD2E JUMP JUMPDEST SWAP1 SWAP2 SSTORE POP POP JUMPDEST POP POP PUSH1 0x1 ADD PUSH3 0x648 JUMP JUMPDEST POP DUP3 MLOAD PUSH1 0x1 SUB PUSH3 0x7D2 JUMPI PUSH1 0x20 DUP4 ADD MLOAD PUSH0 SWAP1 PUSH1 0x20 DUP5 ADD MLOAD SWAP1 SWAP2 POP DUP6 PUSH1 0x1 PUSH1 0x1 PUSH1 0xA0 SHL SUB AND DUP8 PUSH1 0x1 PUSH1 0x1 PUSH1 0xA0 SHL SUB AND DUP5 PUSH1 0x1 PUSH1 0x1 PUSH1 0xA0 SHL SUB AND PUSH32 0xC3D58168C5AE7397731D063D5BBF3D657854427343F4C083240F7AACAA2D0F62 DUP6 DUP6 PUSH1 0x40 MLOAD PUSH3 0x7C2 SWAP3 SWAP2 SWAP1 SWAP2 DUP3 MSTORE PUSH1 0x20 DUP3 ADD MSTORE PUSH1 0x40 ADD SWAP1 JUMP JUMPDEST PUSH1 0x40 MLOAD DUP1 SWAP2 SUB SWAP1 LOG4 POP POP PUSH3 0x60D JUMP JUMPDEST DUP4 PUSH1 0x1 PUSH1 0x1 PUSH1 0xA0 SHL SUB AND DUP6 PUSH1 0x1 PUSH1 0x1 PUSH1 0xA0 SHL SUB AND DUP3 PUSH1 0x1 PUSH1 0x1 PUSH1 0xA0 SHL SUB AND PUSH32 0x4A39DC06D4C0DBC64B70AF90FD698A233A518AA5D07E595D983B8C0526C8F7FB DUP7 DUP7 PUSH1 0x40 MLOAD PUSH3 0x823 SWAP3 SWAP2 SWAP1 PUSH3 0xD80 JUMP JUMPDEST PUSH1 0x40 MLOAD DUP1 SWAP2 SUB SWAP1 LOG4 POP POP POP POP POP JUMP JUMPDEST PUSH1 0x1 PUSH1 0x1 PUSH1 0xA0 SHL SUB DUP5 AND EXTCODESIZE ISZERO PUSH3 0x5A9 JUMPI PUSH1 0x40 MLOAD PUSH4 0xF23A6E61 PUSH1 0xE0 SHL DUP2 MSTORE PUSH1 0x1 PUSH1 0x1 PUSH1 0xA0 SHL SUB DUP6 AND SWAP1 PUSH4 0xF23A6E61 SWAP1 PUSH3 0x879 SWAP1 DUP10 SWAP1 DUP10 SWAP1 DUP9 SWAP1 DUP9 SWAP1 DUP9 SWAP1 PUSH1 0x4 ADD PUSH3 0xDF6 JUMP JUMPDEST PUSH1 0x20 PUSH1 0x40 MLOAD DUP1 DUP4 SUB DUP2 PUSH0 DUP8 GAS CALL SWAP3 POP POP POP DUP1 ISZERO PUSH3 0x8B6 JUMPI POP PUSH1 0x40 DUP1 MLOAD PUSH1 0x1F RETURNDATASIZE SWAP1 DUP2 ADD PUSH1 0x1F NOT AND DUP3 ADD SWAP1 SWAP3 MSTORE PUSH3 0x8B3 SWAP2 DUP2 ADD SWAP1 PUSH3 0xE3C JUMP JUMPDEST PUSH1 0x1 JUMPDEST PUSH3 0x922 JUMPI RETURNDATASIZE DUP1 DUP1 ISZERO PUSH3 0x8E6 JUMPI PUSH1 0x40 MLOAD SWAP2 POP PUSH1 0x1F NOT PUSH1 0x3F RETURNDATASIZE ADD AND DUP3 ADD PUSH1 0x40 MSTORE RETURNDATASIZE DUP3 MSTORE RETURNDATASIZE PUSH0 PUSH1 0x20 DUP5 ADD RETURNDATACOPY PUSH3 0x8EB JUMP JUMPDEST PUSH1 0x60 SWAP2 POP JUMPDEST POP DUP1 MLOAD PUSH0 SUB PUSH3 0x91A JUMPI PUSH1 0x40 MLOAD PUSH4 0x2BFA23E7 PUSH1 0xE1 SHL DUP2 MSTORE PUSH1 0x1 PUSH1 0x1 PUSH1 0xA0 SHL SUB DUP7 AND PUSH1 0x4 DUP3 ADD MSTORE PUSH1 0x24 ADD PUSH3 0x2F4 JUMP JUMPDEST DUP1 MLOAD DUP2 PUSH1 0x20 ADD REVERT JUMPDEST PUSH1 0x1 PUSH1 0x1 PUSH1 0xE0 SHL SUB NOT DUP2 AND PUSH4 0xF23A6E61 PUSH1 0xE0 SHL EQ PUSH3 0x960 JUMPI PUSH1 0x40 MLOAD PUSH4 0x2BFA23E7 PUSH1 0xE1 SHL DUP2 MSTORE PUSH1 0x1 PUSH1 0x1 PUSH1 0xA0 SHL SUB DUP7 AND PUSH1 0x4 DUP3 ADD MSTORE PUSH1 0x24 ADD PUSH3 0x2F4 JUMP JUMPDEST POP POP POP POP POP POP POP JUMP JUMPDEST PUSH1 0x1 PUSH1 0x1 PUSH1 0xA0 SHL SUB DUP5 AND EXTCODESIZE ISZERO PUSH3 0x5A9 JUMPI PUSH1 0x40 MLOAD PUSH4 0xBC197C81 PUSH1 0xE0 SHL DUP2 MSTORE PUSH1 0x1 PUSH1 0x1 PUSH1 0xA0 SHL SUB DUP6 AND SWAP1 PUSH4 0xBC197C81 SWAP1 PUSH3 0x9B0 SWAP1 DUP10 SWAP1 DUP10 SWAP1 DUP9 SWAP1 DUP9 SWAP1 DUP9 SWAP1 PUSH1 0x4 ADD PUSH3 0xE65 JUMP JUMPDEST PUSH1 0x20 PUSH1 0x40 MLOAD DUP1 DUP4 SUB DUP2 PUSH0 DUP8 GAS CALL SWAP3 POP POP POP DUP1 ISZERO PUSH3 0x9ED JUMPI POP PUSH1 0x40 DUP1 MLOAD PUSH1 0x1F RETURNDATASIZE SWAP1 DUP2 ADD PUSH1 0x1F NOT AND DUP3 ADD SWAP1 SWAP3 MSTORE PUSH3 0x9EA SWAP2 DUP2 ADD SWAP1 PUSH3 0xE3C JUMP JUMPDEST PUSH1 0x1 JUMPDEST PUSH3 0xA1D JUMPI RETURNDATASIZE DUP1 DUP1 ISZERO PUSH3 0x8E6 JUMPI PUSH1 0x40 MLOAD SWAP2 POP PUSH1 0x1F NOT PUSH1 0x3F RETURNDATASIZE ADD AND DUP3 ADD PUSH1 0x40 MSTORE RETURNDATASIZE DUP3 MSTORE RETURNDATASIZE PUSH0 PUSH1 0x20 DUP5 ADD RETURNDATACOPY PUSH3 0x8EB JUMP JUMPDEST PUSH1 0x1 PUSH1 0x1 PUSH1 0xE0 SHL SUB NOT DUP2 AND PUSH4 0xBC197C81 PUSH1 0xE0 SHL EQ PUSH3 0x960 JUMPI PUSH1 0x40 MLOAD PUSH4 0x2BFA23E7 PUSH1 0xE1 SHL DUP2 MSTORE PUSH1 0x1 PUSH1 0x1 PUSH1 0xA0 SHL SUB DUP7 AND PUSH1 0x4 DUP3 ADD MSTORE PUSH1 0x24 ADD PUSH3 0x2F4 JUMP JUMPDEST PUSH0 PUSH1 0x20 DUP3 DUP5 SUB SLT ISZERO PUSH3 0xA6C JUMPI PUSH0 DUP1 REVERT JUMPDEST DUP2 MLOAD PUSH1 0x1 PUSH1 0x1 PUSH1 0xA0 SHL SUB DUP2 AND DUP2 EQ PUSH3 0xA83 JUMPI PUSH0 DUP1 REVERT JUMPDEST SWAP4 SWAP3 POP POP POP JUMP JUMPDEST PUSH0 PUSH1 0x20 DUP3 DUP5 SUB SLT ISZERO PUSH3 0xA9B JUMPI PUSH0 DUP1 REVERT JUMPDEST DUP2 MLOAD PUSH1 0xFF DUP2 AND DUP2 EQ PUSH3 0xA83 JUMPI PUSH0 DUP1 REVERT JUMPDEST PUSH4 0x4E487B71 PUSH1 0xE0 SHL PUSH0 MSTORE PUSH1 0x11 PUSH1 0x4 MSTORE PUSH1 0x24 PUSH0 REVERT JUMPDEST PUSH1 0x1 DUP2 DUP2 JUMPDEST DUP1 DUP6 GT ISZERO PUSH3 0xB00 JUMPI DUP2 PUSH0 NOT DIV DUP3 GT ISZERO PUSH3 0xAE4 JUMPI PUSH3 0xAE4 PUSH3 0xAAC JUMP JUMPDEST DUP1 DUP6 AND ISZERO PUSH3 0xAF2 JUMPI SWAP2 DUP2 MUL SWAP2 JUMPDEST SWAP4 DUP5 SHR SWAP4 SWAP1 DUP1 MUL SWAP1 PUSH3 0xAC5 JUMP JUMPDEST POP SWAP3 POP SWAP3 SWAP1 POP JUMP JUMPDEST PUSH0 DUP3 PUSH3 0xB18 JUMPI POP PUSH1 0x1 PUSH3 0xBB5 JUMP JUMPDEST DUP2 PUSH3 0xB26 JUMPI POP PUSH0 PUSH3 0xBB5 JUMP JUMPDEST DUP2 PUSH1 0x1 DUP2 EQ PUSH3 0xB3F JUMPI PUSH1 0x2 DUP2 EQ PUSH3 0xB4A JUMPI PUSH3 0xB6A JUMP JUMPDEST PUSH1 0x1 SWAP2 POP POP PUSH3 0xBB5 JUMP JUMPDEST PUSH1 0xFF DUP5 GT ISZERO PUSH3 0xB5E JUMPI PUSH3 0xB5E PUSH3 0xAAC JUMP JUMPDEST POP POP PUSH1 0x1 DUP3 SHL PUSH3 0xBB5 JUMP JUMPDEST POP PUSH1 0x20 DUP4 LT PUSH2 0x133 DUP4 LT AND PUSH1 0x4E DUP5 LT PUSH1 0xB DUP5 LT AND OR ISZERO PUSH3 0xB8F JUMPI POP DUP2 DUP2 EXP PUSH3 0xBB5 JUMP JUMPDEST PUSH3 0xB9B DUP4 DUP4 PUSH3 0xAC0 JUMP JUMPDEST DUP1 PUSH0 NOT DIV DUP3 GT ISZERO PUSH3 0xBB1 JUMPI PUSH3 0xBB1 PUSH3 0xAAC JUMP JUMPDEST MUL SWAP1 POP JUMPDEST SWAP3 SWAP2 POP POP JUMP JUMPDEST PUSH0 PUSH3 0xA83 PUSH1 0xFF DUP5 AND DUP4 PUSH3 0xB08 JUMP JUMPDEST PUSH4 0x4E487B71 PUSH1 0xE0 SHL PUSH0 MSTORE PUSH1 0x41 PUSH1 0x4 MSTORE PUSH1 0x24 PUSH0 REVERT JUMPDEST PUSH1 0x1 DUP2 DUP2 SHR SWAP1 DUP3 AND DUP1 PUSH3 0xBF4 JUMPI PUSH1 0x7F DUP3 AND SWAP2 POP JUMPDEST PUSH1 0x20 DUP3 LT DUP2 SUB PUSH3 0xC13 JUMPI PUSH4 0x4E487B71 PUSH1 0xE0 SHL PUSH0 MSTORE PUSH1 0x22 PUSH1 0x4 MSTORE PUSH1 0x24 PUSH0 REVERT JUMPDEST POP SWAP2 SWAP1 POP JUMP JUMPDEST PUSH1 0x1F DUP3 GT ISZERO PUSH3 0xC61 JUMPI DUP1 PUSH0 MSTORE PUSH1 0x20 PUSH0 KECCAK256 PUSH1 0x1F DUP5 ADD PUSH1 0x5 SHR DUP2 ADD PUSH1 0x20 DUP6 LT ISZERO PUSH3 0xC40 JUMPI POP DUP1 JUMPDEST PUSH1 0x1F DUP5 ADD PUSH1 0x5 SHR DUP3 ADD SWAP2 POP JUMPDEST DUP2 DUP2 LT ISZERO PUSH3 0x60D JUMPI PUSH0 DUP2 SSTORE PUSH1 0x1 ADD PUSH3 0xC4C JUMP JUMPDEST POP POP POP JUMP JUMPDEST DUP2 MLOAD PUSH1 0x1 PUSH1 0x1 PUSH1 0x40 SHL SUB DUP2 GT ISZERO PUSH3 0xC82 JUMPI PUSH3 0xC82 PUSH3 0xBCB JUMP JUMPDEST PUSH3 0xC9A DUP2 PUSH3 0xC93 DUP5 SLOAD PUSH3 0xBDF JUMP JUMPDEST DUP5 PUSH3 0xC19 JUMP JUMPDEST PUSH1 0x20 DUP1 PUSH1 0x1F DUP4 GT PUSH1 0x1 DUP2 EQ PUSH3 0xCD0 JUMPI PUSH0 DUP5 ISZERO PUSH3 0xCB8 JUMPI POP DUP6 DUP4 ADD MLOAD JUMPDEST PUSH0 NOT PUSH1 0x3 DUP7 SWAP1 SHL SHR NOT AND PUSH1 0x1 DUP6 SWAP1 SHL OR DUP6 SSTORE PUSH3 0x5A9 JUMP JUMPDEST PUSH0 DUP6 DUP2 MSTORE PUSH1 0x20 DUP2 KECCAK256 PUSH1 0x1F NOT DUP7 AND SWAP2 JUMPDEST DUP3 DUP2 LT ISZERO PUSH3 0xD00 JUMPI DUP9 DUP7 ADD MLOAD DUP3 SSTORE SWAP5 DUP5 ADD SWAP5 PUSH1 0x1 SWAP1 SWAP2 ADD SWAP1 DUP5 ADD PUSH3 0xCDF JUMP JUMPDEST POP DUP6 DUP3 LT ISZERO PUSH3 0xD1E JUMPI DUP8 DUP6 ADD MLOAD PUSH0 NOT PUSH1 0x3 DUP9 SWAP1 SHL PUSH1 0xF8 AND SHR NOT AND DUP2 SSTORE JUMPDEST POP POP POP POP POP PUSH1 0x1 SWAP1 DUP2 SHL ADD SWAP1 SSTORE POP JUMP JUMPDEST DUP1 DUP3 ADD DUP1 DUP3 GT ISZERO PUSH3 0xBB5 JUMPI PUSH3 0xBB5 PUSH3 0xAAC JUMP JUMPDEST PUSH0 DUP2 MLOAD DUP1 DUP5 MSTORE PUSH1 0x20 DUP1 DUP6 ADD SWAP5 POP PUSH1 0x20 DUP5 ADD PUSH0 JUMPDEST DUP4 DUP2 LT ISZERO PUSH3 0xD75 JUMPI DUP2 MLOAD DUP8 MSTORE SWAP6 DUP3 ADD SWAP6 SWAP1 DUP3 ADD SWAP1 PUSH1 0x1 ADD PUSH3 0xD57 JUMP JUMPDEST POP SWAP5 SWAP6 SWAP5 POP POP POP POP POP JUMP JUMPDEST PUSH1 0x40 DUP2 MSTORE PUSH0 PUSH3 0xD94 PUSH1 0x40 DUP4 ADD DUP6 PUSH3 0xD44 JUMP JUMPDEST DUP3 DUP2 SUB PUSH1 0x20 DUP5 ADD MSTORE PUSH3 0xDA8 DUP2 DUP6 PUSH3 0xD44 JUMP JUMPDEST SWAP6 SWAP5 POP POP POP POP POP JUMP JUMPDEST PUSH0 DUP2 MLOAD DUP1 DUP5 MSTORE PUSH0 JUMPDEST DUP2 DUP2 LT ISZERO PUSH3 0xDD7 JUMPI PUSH1 0x20 DUP2 DUP6 ADD DUP2 ADD MLOAD DUP7 DUP4 ADD DUP3 ADD MSTORE ADD PUSH3 0xDB9 JUMP JUMPDEST POP PUSH0 PUSH1 0x20 DUP3 DUP7 ADD ADD MSTORE PUSH1 0x20 PUSH1 0x1F NOT PUSH1 0x1F DUP4 ADD AND DUP6 ADD ADD SWAP2 POP POP SWAP3 SWAP2 POP POP JUMP JUMPDEST PUSH1 0x1 PUSH1 0x1 PUSH1 0xA0 SHL SUB DUP7 DUP2 AND DUP3 MSTORE DUP6 AND PUSH1 0x20 DUP3 ADD MSTORE PUSH1 0x40 DUP2 ADD DUP5 SWAP1 MSTORE PUSH1 0x60 DUP2 ADD DUP4 SWAP1 MSTORE PUSH1 0xA0 PUSH1 0x80 DUP3 ADD DUP2 SWAP1 MSTORE PUSH0 SWAP1 PUSH3 0xE31 SWAP1 DUP4 ADD DUP5 PUSH3 0xDB1 JUMP JUMPDEST SWAP8 SWAP7 POP POP POP POP POP POP POP JUMP JUMPDEST PUSH0 PUSH1 0x20 DUP3 DUP5 SUB SLT ISZERO PUSH3 0xE4D JUMPI PUSH0 DUP1 REVERT JUMPDEST DUP2 MLOAD PUSH1 0x1 PUSH1 0x1 PUSH1 0xE0 SHL SUB NOT DUP2 AND DUP2 EQ PUSH3 0xA83 JUMPI PUSH0 DUP1 REVERT JUMPDEST PUSH1 0x1 PUSH1 0x1 PUSH1 0xA0 SHL SUB DUP7 DUP2 AND DUP3 MSTORE DUP6 AND PUSH1 0x20 DUP3 ADD MSTORE PUSH1 0xA0 PUSH1 0x40 DUP3 ADD DUP2 SWAP1 MSTORE PUSH0 SWAP1 PUSH3 0xE92 SWAP1 DUP4 ADD DUP7 PUSH3 0xD44 JUMP JUMPDEST DUP3 DUP2 SUB PUSH1 0x60 DUP5 ADD MSTORE PUSH3 0xEA6 DUP2 DUP7 PUSH3 0xD44 JUMP JUMPDEST SWAP1 POP DUP3 DUP2 SUB PUSH1 0x80 DUP5 ADD MSTORE PUSH3 0xEBC DUP2 DUP6 PUSH3 0xDB1 JUMP JUMPDEST SWAP9 SWAP8 POP POP POP POP POP POP POP POP JUMP JUMPDEST PUSH2 0x55AC DUP1 PUSH3 0xED6 PUSH0 CODECOPY PUSH0 RETURN INVALID PUSH1 0x80 PUSH1 0x40 MSTORE CALLVALUE DUP1 ISZERO PUSH2 0xF JUMPI PUSH0 DUP1 REVERT JUMPDEST POP PUSH1 0x4 CALLDATASIZE LT PUSH2 0x186 JUMPI PUSH0 CALLDATALOAD PUSH1 0xE0 SHR DUP1 PUSH4 0x7327DF25 GT PUSH2 0xD9 JUMPI DUP1 PUSH4 0xA22CB465 GT PUSH2 0x93 JUMPI DUP1 PUSH4 0xE985E9C5 GT PUSH2 0x6E JUMPI DUP1 PUSH4 0xE985E9C5 EQ PUSH2 0x373 JUMPI DUP1 PUSH4 0xF242432A EQ PUSH2 0x386 JUMPI DUP1 PUSH4 0xF8976921 EQ PUSH2 0x399 JUMPI DUP1 PUSH4 0xFB2FACC3 EQ PUSH2 0x3AE JUMPI PUSH0 DUP1 REVERT JUMPDEST DUP1 PUSH4 0xA22CB465 EQ PUSH2 0x338 JUMPI DUP1 PUSH4 0xA2A376CD EQ PUSH2 0x34B JUMPI DUP1 PUSH4 0xB8ACB416 EQ PUSH2 0x360 JUMPI PUSH0 DUP1 REVERT JUMPDEST DUP1 PUSH4 0x7327DF25 EQ PUSH2 0x2C4 JUMPI DUP1 PUSH4 0x7BA9165C EQ PUSH2 0x2D9 JUMPI DUP1 PUSH4 0x845C54F6 EQ PUSH2 0x2EC JUMPI DUP1 PUSH4 0x90420AEE EQ PUSH2 0x2FF JUMPI DUP1 PUSH4 0x958828E3 EQ PUSH2 0x312 JUMPI DUP1 PUSH4 0x97F588C6 EQ PUSH2 0x325 JUMPI PUSH0 DUP1 REVERT JUMPDEST DUP1 PUSH4 0x4DAD2AAB GT PUSH2 0x144 JUMPI DUP1 PUSH4 0x5C222BAD GT PUSH2 0x11F JUMPI DUP1 PUSH4 0x5C222BAD EQ PUSH2 0x274 JUMPI DUP1 PUSH4 0x68DADEC2 EQ PUSH2 0x289 JUMPI DUP1 PUSH4 0x694F82B4 EQ PUSH2 0x29C JUMPI DUP1 PUSH4 0x6BF1955D EQ PUSH2 0x2AF JUMPI PUSH0 DUP1 REVERT JUMPDEST DUP1 PUSH4 0x4DAD2AAB EQ PUSH2 0x22E JUMPI DUP1 PUSH4 0x4E1273F4 EQ PUSH2 0x241 JUMPI DUP1 PUSH4 0x598647F8 EQ PUSH2 0x261 JUMPI PUSH0 DUP1 REVERT JUMPDEST DUP1 PUSH3 0xFDD58E EQ PUSH2 0x18A JUMPI DUP1 PUSH4 0x1FFC9A7 EQ PUSH2 0x1B0 JUMPI DUP1 PUSH4 0xE89341C EQ PUSH2 0x1D3 JUMPI DUP1 PUSH4 0x222D9C5C EQ PUSH2 0x1F3 JUMPI DUP1 PUSH4 0x2EB2C2D6 EQ PUSH2 0x208 JUMPI DUP1 PUSH4 0x3AACC912 EQ PUSH2 0x21B JUMPI JUMPDEST PUSH0 DUP1 REVERT JUMPDEST PUSH2 0x19D PUSH2 0x198 CALLDATASIZE PUSH1 0x4 PUSH2 0x46BA JUMP JUMPDEST PUSH2 0x3C1 JUMP JUMPDEST PUSH1 0x40 MLOAD SWAP1 DUP2 MSTORE PUSH1 0x20 ADD JUMPDEST PUSH1 0x40 MLOAD DUP1 SWAP2 SUB SWAP1 RETURN JUMPDEST PUSH2 0x1C3 PUSH2 0x1BE CALLDATASIZE PUSH1 0x4 PUSH2 0x46F7 JUMP JUMPDEST PUSH2 0x3E8 JUMP JUMPDEST PUSH1 0x40 MLOAD SWAP1 ISZERO ISZERO DUP2 MSTORE PUSH1 0x20 ADD PUSH2 0x1A7 JUMP JUMPDEST PUSH2 0x1E6 PUSH2 0x1E1 CALLDATASIZE PUSH1 0x4 PUSH2 0x4719 JUMP JUMPDEST PUSH2 0x437 JUMP JUMPDEST PUSH1 0x40 MLOAD PUSH2 0x1A7 SWAP2 SWAP1 PUSH2 0x477D JUMP JUMPDEST PUSH2 0x206 PUSH2 0x201 CALLDATASIZE PUSH1 0x4 PUSH2 0x4719 JUMP JUMPDEST PUSH2 0x4C9 JUMP JUMPDEST STOP JUMPDEST PUSH2 0x206 PUSH2 0x216 CALLDATASIZE PUSH1 0x4 PUSH2 0x48CF JUMP JUMPDEST PUSH2 0xD6D JUMP JUMPDEST PUSH2 0x206 PUSH2 0x229 CALLDATASIZE PUSH1 0x4 PUSH2 0x4972 JUMP JUMPDEST PUSH2 0xDD4 JUMP JUMPDEST PUSH2 0x1E6 PUSH2 0x23C CALLDATASIZE PUSH1 0x4 PUSH2 0x49AC JUMP JUMPDEST PUSH2 0x11DD JUMP JUMPDEST PUSH2 0x254 PUSH2 0x24F CALLDATASIZE PUSH1 0x4 PUSH2 0x4A18 JUMP JUMPDEST PUSH2 0x13D7 JUMP JUMPDEST PUSH1 0x40 MLOAD PUSH2 0x1A7 SWAP2 SWAP1 PUSH2 0x4B0C JUMP JUMPDEST PUSH2 0x206 PUSH2 0x26F CALLDATASIZE PUSH1 0x4 PUSH2 0x4B1E JUMP JUMPDEST PUSH2 0x14A2 JUMP JUMPDEST PUSH2 0x27C PUSH2 0x16FF JUMP JUMPDEST PUSH1 0x40 MLOAD PUSH2 0x1A7 SWAP2 SWAP1 PUSH2 0x4B3E JUMP JUMPDEST PUSH2 0x206 PUSH2 0x297 CALLDATASIZE PUSH1 0x4 PUSH2 0x4C14 JUMP JUMPDEST PUSH2 0x193D JUMP JUMPDEST PUSH2 0x206 PUSH2 0x2AA CALLDATASIZE PUSH1 0x4 PUSH2 0x4C3D JUMP JUMPDEST PUSH2 0x2105 JUMP JUMPDEST PUSH2 0x2B7 PUSH2 0x2356 JUMP JUMPDEST PUSH1 0x40 MLOAD PUSH2 0x1A7 SWAP2 SWAP1 PUSH2 0x4CDF JUMP JUMPDEST PUSH2 0x2CC PUSH2 0x23E9 JUMP JUMPDEST PUSH1 0x40 MLOAD PUSH2 0x1A7 SWAP2 SWAP1 PUSH2 0x4D5F JUMP JUMPDEST PUSH2 0x206 PUSH2 0x2E7 CALLDATASIZE PUSH1 0x4 PUSH2 0x4DE7 JUMP JUMPDEST PUSH2 0x2491 JUMP JUMPDEST PUSH2 0x206 PUSH2 0x2FA CALLDATASIZE PUSH1 0x4 PUSH2 0x4E16 JUMP JUMPDEST PUSH2 0x2668 JUMP JUMPDEST PUSH2 0x206 PUSH2 0x30D CALLDATASIZE PUSH1 0x4 PUSH2 0x4B1E JUMP JUMPDEST PUSH2 0x28C2 JUMP JUMPDEST PUSH2 0x206 PUSH2 0x320 CALLDATASIZE PUSH1 0x4 PUSH2 0x4EBB JUMP JUMPDEST PUSH2 0x297F JUMP JUMPDEST PUSH2 0x206 PUSH2 0x333 CALLDATASIZE PUSH1 0x4 PUSH2 0x4F12 JUMP JUMPDEST PUSH2 0x2C08 JUMP JUMPDEST PUSH2 0x206 PUSH2 0x346 CALLDATASIZE PUSH1 0x4 PUSH2 0x4F4C JUMP JUMPDEST PUSH2 0x2E3B JUMP JUMPDEST PUSH2 0x353 PUSH2 0x2E4A JUMP JUMPDEST PUSH1 0x40 MLOAD PUSH2 0x1A7 SWAP2 SWAP1 PUSH2 0x4F85 JUMP JUMPDEST PUSH2 0x206 PUSH2 0x36E CALLDATASIZE PUSH1 0x4 PUSH2 0x4B1E JUMP JUMPDEST PUSH2 0x2F4F JUMP JUMPDEST PUSH2 0x1C3 PUSH2 0x381 CALLDATASIZE PUSH1 0x4 PUSH2 0x5001 JUMP JUMPDEST PUSH2 0x3312 JUMP JUMPDEST PUSH2 0x206 PUSH2 0x394 CALLDATASIZE PUSH1 0x4 PUSH2 0x5032 JUMP JUMPDEST PUSH2 0x333F JUMP JUMPDEST PUSH2 0x3A1 PUSH2 0x339E JUMP JUMPDEST PUSH1 0x40 MLOAD PUSH2 0x1A7 SWAP2 SWAP1 PUSH2 0x5092 JUMP JUMPDEST PUSH2 0x206 PUSH2 0x3BC CALLDATASIZE PUSH1 0x4 PUSH2 0x4719 JUMP JUMPDEST PUSH2 0x35C6 JUMP JUMPDEST PUSH0 DUP2 DUP2 MSTORE PUSH1 0x20 DUP2 DUP2 MSTORE PUSH1 0x40 DUP1 DUP4 KECCAK256 PUSH1 0x1 PUSH1 0x1 PUSH1 0xA0 SHL SUB DUP7 AND DUP5 MSTORE SWAP1 SWAP2 MSTORE SWAP1 KECCAK256 SLOAD JUMPDEST SWAP3 SWAP2 POP POP JUMP JUMPDEST PUSH0 PUSH1 0x1 PUSH1 0x1 PUSH1 0xE0 SHL SUB NOT DUP3 AND PUSH4 0x6CDB3D13 PUSH1 0xE1 SHL EQ DUP1 PUSH2 0x418 JUMPI POP PUSH1 0x1 PUSH1 0x1 PUSH1 0xE0 SHL SUB NOT DUP3 AND PUSH4 0x3A24D07 PUSH1 0xE2 SHL EQ JUMPDEST DUP1 PUSH2 0x3E2 JUMPI POP PUSH4 0x1FFC9A7 PUSH1 0xE0 SHL PUSH1 0x1 PUSH1 0x1 PUSH1 0xE0 SHL SUB NOT DUP4 AND EQ PUSH2 0x3E2 JUMP JUMPDEST PUSH1 0x60 PUSH1 0x2 DUP1 SLOAD PUSH2 0x446 SWAP1 PUSH2 0x514B JUMP JUMPDEST DUP1 PUSH1 0x1F ADD PUSH1 0x20 DUP1 SWAP2 DIV MUL PUSH1 0x20 ADD PUSH1 0x40 MLOAD SWAP1 DUP2 ADD PUSH1 0x40 MSTORE DUP1 SWAP3 SWAP2 SWAP1 DUP2 DUP2 MSTORE PUSH1 0x20 ADD DUP3 DUP1 SLOAD PUSH2 0x472 SWAP1 PUSH2 0x514B JUMP JUMPDEST DUP1 ISZERO PUSH2 0x4BD JUMPI DUP1 PUSH1 0x1F LT PUSH2 0x494 JUMPI PUSH2 0x100 DUP1 DUP4 SLOAD DIV MUL DUP4 MSTORE SWAP2 PUSH1 0x20 ADD SWAP2 PUSH2 0x4BD JUMP JUMPDEST DUP3 ADD SWAP2 SWAP1 PUSH0 MSTORE PUSH1 0x20 PUSH0 KECCAK256 SWAP1 JUMPDEST DUP2 SLOAD DUP2 MSTORE SWAP1 PUSH1 0x1 ADD SWAP1 PUSH1 0x20 ADD DUP1 DUP4 GT PUSH2 0x4A0 JUMPI DUP3 SWAP1 SUB PUSH1 0x1F AND DUP3 ADD SWAP2 JUMPDEST POP POP POP POP POP SWAP1 POP SWAP2 SWAP1 POP JUMP JUMPDEST PUSH1 0x4 SLOAD PUSH1 0x1 PUSH1 0x1 PUSH1 0xA0 SHL SUB AND CALLER EQ PUSH2 0x4FC JUMPI PUSH1 0x40 MLOAD PUSH3 0x461BCD PUSH1 0xE5 SHL DUP2 MSTORE PUSH1 0x4 ADD PUSH2 0x4F3 SWAP1 PUSH2 0x5183 JUMP JUMPDEST PUSH1 0x40 MLOAD DUP1 SWAP2 SUB SWAP1 REVERT JUMPDEST PUSH1 0x4 SLOAD PUSH1 0x10 DUP1 SLOAD PUSH2 0x67A SWAP3 PUSH1 0x1 PUSH1 0x1 PUSH1 0xA0 SHL SUB AND SWAP2 SWAP1 DUP5 SWAP1 DUP2 LT PUSH2 0x522 JUMPI PUSH2 0x522 PUSH2 0x51F1 JUMP JUMPDEST SWAP1 PUSH0 MSTORE PUSH1 0x20 PUSH0 KECCAK256 SWAP1 PUSH1 0x8 MUL ADD PUSH1 0x6 ADD PUSH0 SWAP1 SLOAD SWAP1 PUSH2 0x100 EXP SWAP1 DIV PUSH1 0x1 PUSH1 0x1 PUSH1 0xA0 SHL SUB AND PUSH1 0xF PUSH1 0x10 DUP6 DUP2 SLOAD DUP2 LT PUSH2 0x559 JUMPI PUSH2 0x559 PUSH2 0x51F1 JUMP JUMPDEST SWAP1 PUSH0 MSTORE PUSH1 0x20 PUSH0 KECCAK256 SWAP1 PUSH1 0x8 MUL ADD PUSH1 0x1 ADD SLOAD DUP2 SLOAD DUP2 LT PUSH2 0x579 JUMPI PUSH2 0x579 PUSH2 0x51F1 JUMP JUMPDEST SWAP1 PUSH0 MSTORE PUSH1 0x20 PUSH0 KECCAK256 SWAP1 PUSH1 0x5 MUL ADD PUSH1 0x3 ADD DUP1 SLOAD DUP1 PUSH1 0x20 MUL PUSH1 0x20 ADD PUSH1 0x40 MLOAD SWAP1 DUP2 ADD PUSH1 0x40 MSTORE DUP1 SWAP3 SWAP2 SWAP1 DUP2 DUP2 MSTORE PUSH1 0x20 ADD DUP3 DUP1 SLOAD DUP1 ISZERO PUSH2 0x5D0 JUMPI PUSH1 0x20 MUL DUP3 ADD SWAP2 SWAP1 PUSH0 MSTORE PUSH1 0x20 PUSH0 KECCAK256 SWAP1 JUMPDEST DUP2 SLOAD DUP2 MSTORE PUSH1 0x20 ADD SWAP1 PUSH1 0x1 ADD SWAP1 DUP1 DUP4 GT PUSH2 0x5BC JUMPI JUMPDEST POP POP POP POP POP PUSH1 0xF PUSH1 0x10 DUP7 DUP2 SLOAD DUP2 LT PUSH2 0x5EA JUMPI PUSH2 0x5EA PUSH2 0x51F1 JUMP JUMPDEST SWAP1 PUSH0 MSTORE PUSH1 0x20 PUSH0 KECCAK256 SWAP1 PUSH1 0x8 MUL ADD PUSH1 0x1 ADD SLOAD DUP2 SLOAD DUP2 LT PUSH2 0x60A JUMPI PUSH2 0x60A PUSH2 0x51F1 JUMP JUMPDEST SWAP1 PUSH0 MSTORE PUSH1 0x20 PUSH0 KECCAK256 SWAP1 PUSH1 0x5 MUL ADD PUSH1 0x4 ADD DUP1 SLOAD DUP1 PUSH1 0x20 MUL PUSH1 0x20 ADD PUSH1 0x40 MLOAD SWAP1 DUP2 ADD PUSH1 0x40 MSTORE DUP1 SWAP3 SWAP2 SWAP1 DUP2 DUP2 MSTORE PUSH1 0x20 ADD DUP3 DUP1 SLOAD DUP1 ISZERO PUSH2 0x661 JUMPI PUSH1 0x20 MUL DUP3 ADD SWAP2 SWAP1 PUSH0 MSTORE PUSH1 0x20 PUSH0 KECCAK256 SWAP1 JUMPDEST DUP2 SLOAD DUP2 MSTORE PUSH1 0x20 ADD SWAP1 PUSH1 0x1 ADD SWAP1 DUP1 DUP4 GT PUSH2 0x64D JUMPI JUMPDEST POP POP POP POP POP PUSH1 0x40 MLOAD DUP1 PUSH1 0x20 ADD PUSH1 0x40 MSTORE DUP1 PUSH0 DUP2 MSTORE POP PUSH2 0x3F13 JUMP JUMPDEST PUSH0 JUMPDEST PUSH1 0xF PUSH1 0x10 DUP4 DUP2 SLOAD DUP2 LT PUSH2 0x691 JUMPI PUSH2 0x691 PUSH2 0x51F1 JUMP JUMPDEST SWAP1 PUSH0 MSTORE PUSH1 0x20 PUSH0 KECCAK256 SWAP1 PUSH1 0x8 MUL ADD PUSH1 0x1 ADD SLOAD DUP2 SLOAD DUP2 LT PUSH2 0x6B1 JUMPI PUSH2 0x6B1 PUSH2 0x51F1 JUMP JUMPDEST SWAP1 PUSH0 MSTORE PUSH1 0x20 PUSH0 KECCAK256 SWAP1 PUSH1 0x5 MUL ADD PUSH1 0x3 ADD DUP1 SLOAD SWAP1 POP DUP2 LT ISZERO PUSH2 0xD23 JUMPI PUSH1 0x9 PUSH0 PUSH1 0x10 DUP5 DUP2 SLOAD DUP2 LT PUSH2 0x6E1 JUMPI PUSH2 0x6E1 PUSH2 0x51F1 JUMP JUMPDEST SWAP1 PUSH0 MSTORE PUSH1 0x20 PUSH0 KECCAK256 SWAP1 PUSH1 0x8 MUL ADD PUSH1 0x6 ADD PUSH0 SWAP1 SLOAD SWAP1 PUSH2 0x100 EXP SWAP1 DIV PUSH1 0x1 PUSH1 0x1 PUSH1 0xA0 SHL SUB AND PUSH1 0x1 PUSH1 0x1 PUSH1 0xA0 SHL SUB AND PUSH1 0x1 PUSH1 0x1 PUSH1 0xA0 SHL SUB AND DUP2 MSTORE PUSH1 0x20 ADD SWAP1 DUP2 MSTORE PUSH1 0x20 ADD PUSH0 KECCAK256 PUSH1 0x40 MLOAD DUP1 PUSH2 0x100 ADD PUSH1 0x40 MSTORE DUP1 PUSH1 0xF PUSH1 0x10 DUP7 DUP2 SLOAD DUP2 LT PUSH2 0x743 JUMPI PUSH2 0x743 PUSH2 0x51F1 JUMP JUMPDEST SWAP1 PUSH0 MSTORE PUSH1 0x20 PUSH0 KECCAK256 SWAP1 PUSH1 0x8 MUL ADD PUSH1 0x1 ADD SLOAD DUP2 SLOAD DUP2 LT PUSH2 0x763 JUMPI PUSH2 0x763 PUSH2 0x51F1 JUMP JUMPDEST SWAP1 PUSH0 MSTORE PUSH1 0x20 PUSH0 KECCAK256 SWAP1 PUSH1 0x5 MUL ADD PUSH1 0x3 ADD DUP5 DUP2 SLOAD DUP2 LT PUSH2 0x783 JUMPI PUSH2 0x783 PUSH2 0x51F1 JUMP JUMPDEST SWAP1 PUSH0 MSTORE PUSH1 0x20 PUSH0 KECCAK256 ADD SLOAD DUP2 MSTORE PUSH1 0x20 ADD PUSH1 0x9 PUSH0 PUSH1 0x10 DUP8 DUP2 SLOAD DUP2 LT PUSH2 0x7A7 JUMPI PUSH2 0x7A7 PUSH2 0x51F1 JUMP JUMPDEST SWAP1 PUSH0 MSTORE PUSH1 0x20 PUSH0 KECCAK256 SWAP1 PUSH1 0x8 MUL ADD PUSH1 0x6 ADD PUSH0 SWAP1 SLOAD SWAP1 PUSH2 0x100 EXP SWAP1 DIV PUSH1 0x1 PUSH1 0x1 PUSH1 0xA0 SHL SUB AND PUSH1 0x1 PUSH1 0x1 PUSH1 0xA0 SHL SUB AND PUSH1 0x1 PUSH1 0x1 PUSH1 0xA0 SHL SUB AND DUP2 MSTORE PUSH1 0x20 ADD SWAP1 DUP2 MSTORE PUSH1 0x20 ADD PUSH0 KECCAK256 DUP1 SLOAD SWAP1 POP DUP2 MSTORE PUSH1 0x20 ADD PUSH1 0x8 PUSH0 PUSH1 0xA PUSH0 PUSH1 0x10 DUP10 DUP2 SLOAD DUP2 LT PUSH2 0x80A JUMPI PUSH2 0x80A PUSH2 0x51F1 JUMP JUMPDEST SWAP1 PUSH0 MSTORE PUSH1 0x20 PUSH0 KECCAK256 SWAP1 PUSH1 0x8 MUL ADD PUSH1 0x1 ADD SLOAD DUP2 MSTORE PUSH1 0x20 ADD SWAP1 DUP2 MSTORE PUSH1 0x20 ADD PUSH0 KECCAK256 PUSH1 0x3 ADD DUP7 DUP2 SLOAD DUP2 LT PUSH2 0x83B JUMPI PUSH2 0x83B PUSH2 0x51F1 JUMP JUMPDEST SWAP1 PUSH0 MSTORE PUSH1 0x20 PUSH0 KECCAK256 ADD SLOAD DUP2 MSTORE PUSH1 0x20 ADD SWAP1 DUP2 MSTORE PUSH1 0x20 ADD PUSH0 KECCAK256 PUSH1 0x2 ADD DUP1 SLOAD PUSH2 0x85F SWAP1 PUSH2 0x514B JUMP JUMPDEST DUP1 PUSH1 0x1F ADD PUSH1 0x20 DUP1 SWAP2 DIV MUL PUSH1 0x20 ADD PUSH1 0x40 MLOAD SWAP1 DUP2 ADD PUSH1 0x40 MSTORE DUP1 SWAP3 SWAP2 SWAP1 DUP2 DUP2 MSTORE PUSH1 0x20 ADD DUP3 DUP1 SLOAD PUSH2 0x88B SWAP1 PUSH2 0x514B JUMP JUMPDEST DUP1 ISZERO PUSH2 0x8D6 JUMPI DUP1 PUSH1 0x1F LT PUSH2 0x8AD JUMPI PUSH2 0x100 DUP1 DUP4 SLOAD DIV MUL DUP4 MSTORE SWAP2 PUSH1 0x20 ADD SWAP2 PUSH2 0x8D6 JUMP JUMPDEST DUP3 ADD SWAP2 SWAP1 PUSH0 MSTORE PUSH1 0x20 PUSH0 KECCAK256 SWAP1 JUMPDEST DUP2 SLOAD DUP2 MSTORE SWAP1 PUSH1 0x1 ADD SWAP1 PUSH1 0x20 ADD DUP1 DUP4 GT PUSH2 0x8B9 JUMPI DUP3 SWAP1 SUB PUSH1 0x1F AND DUP3 ADD SWAP2 JUMPDEST POP POP POP POP POP DUP2 MSTORE PUSH1 0x20 ADD PUSH1 0x8 PUSH0 PUSH1 0xA PUSH0 PUSH1 0x10 DUP10 DUP2 SLOAD DUP2 LT PUSH2 0x8F9 JUMPI PUSH2 0x8F9 PUSH2 0x51F1 JUMP JUMPDEST SWAP1 PUSH0 MSTORE PUSH1 0x20 PUSH0 KECCAK256 SWAP1 PUSH1 0x8 MUL ADD PUSH1 0x1 ADD SLOAD DUP2 MSTORE PUSH1 0x20 ADD SWAP1 DUP2 MSTORE PUSH1 0x20 ADD PUSH0 KECCAK256 PUSH1 0x3 ADD DUP7 DUP2 SLOAD DUP2 LT PUSH2 0x92A JUMPI PUSH2 0x92A PUSH2 0x51F1 JUMP JUMPDEST SWAP1 PUSH0 MSTORE PUSH1 0x20 PUSH0 KECCAK256 ADD SLOAD DUP2 MSTORE PUSH1 0x20 ADD SWAP1 DUP2 MSTORE PUSH1 0x20 ADD PUSH0 KECCAK256 PUSH1 0x3 ADD DUP1 SLOAD PUSH2 0x94E SWAP1 PUSH2 0x514B JUMP JUMPDEST DUP1 PUSH1 0x1F ADD PUSH1 0x20 DUP1 SWAP2 DIV MUL PUSH1 0x20 ADD PUSH1 0x40 MLOAD SWAP1 DUP2 ADD PUSH1 0x40 MSTORE DUP1 SWAP3 SWAP2 SWAP1 DUP2 DUP2 MSTORE PUSH1 0x20 ADD DUP3 DUP1 SLOAD PUSH2 0x97A SWAP1 PUSH2 0x514B JUMP JUMPDEST DUP1 ISZERO PUSH2 0x9C5 JUMPI DUP1 PUSH1 0x1F LT PUSH2 0x99C JUMPI PUSH2 0x100 DUP1 DUP4 SLOAD DIV MUL DUP4 MSTORE SWAP2 PUSH1 0x20 ADD SWAP2 PUSH2 0x9C5 JUMP JUMPDEST DUP3 ADD SWAP2 SWAP1 PUSH0 MSTORE PUSH1 0x20 PUSH0 KECCAK256 SWAP1 JUMPDEST DUP2 SLOAD DUP2 MSTORE SWAP1 PUSH1 0x1 ADD SWAP1 PUSH1 0x20 ADD DUP1 DUP4 GT PUSH2 0x9A8 JUMPI DUP3 SWAP1 SUB PUSH1 0x1F AND DUP3 ADD SWAP2 JUMPDEST POP POP POP POP POP DUP2 MSTORE PUSH1 0x20 ADD PUSH1 0x8 PUSH0 PUSH1 0xA PUSH0 PUSH1 0x10 DUP10 DUP2 SLOAD DUP2 LT PUSH2 0x9E8 JUMPI PUSH2 0x9E8 PUSH2 0x51F1 JUMP JUMPDEST SWAP1 PUSH0 MSTORE PUSH1 0x20 PUSH0 KECCAK256 SWAP1 PUSH1 0x8 MUL ADD PUSH1 0x1 ADD SLOAD DUP2 MSTORE PUSH1 0x20 ADD SWAP1 DUP2 MSTORE PUSH1 0x20 ADD PUSH0 KECCAK256 PUSH1 0x3 ADD DUP7 DUP2 SLOAD DUP2 LT PUSH2 0xA19 JUMPI PUSH2 0xA19 PUSH2 0x51F1 JUMP JUMPDEST SWAP1 PUSH0 MSTORE PUSH1 0x20 PUSH0 KECCAK256 ADD SLOAD DUP2 MSTORE PUSH1 0x20 ADD SWAP1 DUP2 MSTORE PUSH1 0x20 ADD PUSH0 KECCAK256 PUSH1 0x4 ADD DUP1 SLOAD PUSH2 0xA3D SWAP1 PUSH2 0x514B JUMP JUMPDEST DUP1 PUSH1 0x1F ADD PUSH1 0x20 DUP1 SWAP2 DIV MUL PUSH1 0x20 ADD PUSH1 0x40 MLOAD SWAP1 DUP2 ADD PUSH1 0x40 MSTORE DUP1 SWAP3 SWAP2 SWAP1 DUP2 DUP2 MSTORE PUSH1 0x20 ADD DUP3 DUP1 SLOAD PUSH2 0xA69 SWAP1 PUSH2 0x514B JUMP JUMPDEST DUP1 ISZERO PUSH2 0xAB4 JUMPI DUP1 PUSH1 0x1F LT PUSH2 0xA8B JUMPI PUSH2 0x100 DUP1 DUP4 SLOAD DIV MUL DUP4 MSTORE SWAP2 PUSH1 0x20 ADD SWAP2 PUSH2 0xAB4 JUMP JUMPDEST DUP3 ADD SWAP2 SWAP1 PUSH0 MSTORE PUSH1 0x20 PUSH0 KECCAK256 SWAP1 JUMPDEST DUP2 SLOAD DUP2 MSTORE SWAP1 PUSH1 0x1 ADD SWAP1 PUSH1 0x20 ADD DUP1 DUP4 GT PUSH2 0xA97 JUMPI DUP3 SWAP1 SUB PUSH1 0x1F AND DUP3 ADD SWAP2 JUMPDEST POP POP POP POP POP DUP2 MSTORE PUSH1 0x20 ADD PUSH1 0x8 PUSH0 PUSH1 0xA PUSH0 PUSH1 0x10 DUP10 DUP2 SLOAD DUP2 LT PUSH2 0xAD7 JUMPI PUSH2 0xAD7 PUSH2 0x51F1 JUMP JUMPDEST SWAP1 PUSH0 MSTORE PUSH1 0x20 PUSH0 KECCAK256 SWAP1 PUSH1 0x8 MUL ADD PUSH1 0x1 ADD SLOAD DUP2 MSTORE PUSH1 0x20 ADD SWAP1 DUP2 MSTORE PUSH1 0x20 ADD PUSH0 KECCAK256 PUSH1 0x3 ADD DUP7 DUP2 SLOAD DUP2 LT PUSH2 0xB08 JUMPI PUSH2 0xB08 PUSH2 0x51F1 JUMP JUMPDEST SWAP1 PUSH0 MSTORE PUSH1 0x20 PUSH0 KECCAK256 ADD SLOAD DUP2 MSTORE PUSH1 0x20 ADD SWAP1 DUP2 MSTORE PUSH1 0x20 ADD PUSH0 KECCAK256 PUSH1 0x6 ADD SLOAD DUP2 MSTORE PUSH1 0x20 ADD PUSH1 0x3 SLOAD PUSH1 0x1 PUSH2 0xB36 SWAP2 SWAP1 PUSH2 0x5219 JUMP JUMPDEST DUP2 MSTORE PUSH1 0x20 ADD PUSH1 0x8 PUSH0 PUSH1 0xA PUSH0 PUSH1 0x10 DUP10 DUP2 SLOAD DUP2 LT PUSH2 0xB54 JUMPI PUSH2 0xB54 PUSH2 0x51F1 JUMP JUMPDEST SWAP1 PUSH0 MSTORE PUSH1 0x20 PUSH0 KECCAK256 SWAP1 PUSH1 0x8 MUL ADD PUSH1 0x1 ADD SLOAD DUP2 MSTORE PUSH1 0x20 ADD SWAP1 DUP2 MSTORE PUSH1 0x20 ADD PUSH0 KECCAK256 PUSH1 0x3 ADD DUP7 DUP2 SLOAD DUP2 LT PUSH2 0xB85 JUMPI PUSH2 0xB85 PUSH2 0x51F1 JUMP JUMPDEST PUSH0 SWAP2 DUP3 MSTORE PUSH1 0x20 DUP1 DUP4 KECCAK256 SWAP1 SWAP2 ADD SLOAD DUP4 MSTORE DUP3 DUP2 ADD SWAP4 SWAP1 SWAP4 MSTORE PUSH1 0x40 SWAP2 DUP3 ADD DUP2 KECCAK256 PUSH1 0x7 ADD SLOAD SWAP1 SWAP4 MSTORE DUP5 SLOAD PUSH1 0x1 DUP2 DUP2 ADD DUP8 SSTORE SWAP6 DUP5 MSTORE SWAP3 DUP3 SWAP1 KECCAK256 DUP5 MLOAD PUSH1 0x8 SWAP1 SWAP5 MUL ADD SWAP3 DUP4 SSTORE SWAP1 DUP4 ADD MLOAD SWAP4 DUP3 ADD SWAP4 SWAP1 SWAP4 SSTORE SWAP2 DUP2 ADD MLOAD SWAP1 SWAP2 SWAP1 PUSH1 0x2 DUP3 ADD SWAP1 PUSH2 0xBE5 SWAP1 DUP3 PUSH2 0x5274 JUMP JUMPDEST POP PUSH1 0x60 DUP3 ADD MLOAD PUSH1 0x3 DUP3 ADD SWAP1 PUSH2 0xBFA SWAP1 DUP3 PUSH2 0x5274 JUMP JUMPDEST POP PUSH1 0x80 DUP3 ADD MLOAD PUSH1 0x4 DUP3 ADD SWAP1 PUSH2 0xC0F SWAP1 DUP3 PUSH2 0x5274 JUMP JUMPDEST POP PUSH1 0xA0 DUP3 ADD MLOAD PUSH1 0x5 DUP3 ADD SSTORE PUSH1 0xC0 DUP3 ADD MLOAD PUSH1 0x6 DUP3 ADD SSTORE PUSH1 0xE0 SWAP1 SWAP2 ADD MLOAD PUSH1 0x7 SWAP1 SWAP2 ADD SSTORE PUSH1 0x4 SLOAD PUSH1 0x1 PUSH1 0x1 PUSH1 0xA0 SHL SUB AND PUSH0 SWAP1 DUP2 MSTORE PUSH1 0x9 PUSH1 0x20 MSTORE PUSH1 0x40 DUP2 KECCAK256 PUSH1 0x10 DUP1 SLOAD SWAP2 SWAP3 PUSH1 0x8 SWAP3 SWAP1 SWAP2 PUSH1 0xA SWAP2 DUP4 SWAP2 SWAP1 DUP9 SWAP1 DUP2 LT PUSH2 0xC6A JUMPI PUSH2 0xC6A PUSH2 0x51F1 JUMP JUMPDEST SWAP1 PUSH0 MSTORE PUSH1 0x20 PUSH0 KECCAK256 SWAP1 PUSH1 0x8 MUL ADD PUSH1 0x1 ADD SLOAD DUP2 MSTORE PUSH1 0x20 ADD SWAP1 DUP2 MSTORE PUSH1 0x20 ADD PUSH0 KECCAK256 PUSH1 0x3 ADD DUP5 DUP2 SLOAD DUP2 LT PUSH2 0xC9B JUMPI PUSH2 0xC9B PUSH2 0x51F1 JUMP JUMPDEST SWAP1 PUSH0 MSTORE PUSH1 0x20 PUSH0 KECCAK256 ADD SLOAD DUP2 MSTORE PUSH1 0x20 ADD SWAP1 DUP2 MSTORE PUSH1 0x20 ADD PUSH0 KECCAK256 PUSH1 0x1 ADD SLOAD DUP2 SLOAD DUP2 LT PUSH2 0xCC5 JUMPI PUSH2 0xCC5 PUSH2 0x51F1 JUMP JUMPDEST PUSH0 SWAP2 DUP3 MSTORE PUSH1 0x20 DUP3 KECCAK256 PUSH1 0x8 SWAP1 SWAP2 MUL ADD DUP2 DUP2 SSTORE PUSH1 0x1 DUP2 ADD DUP3 SWAP1 SSTORE SWAP1 PUSH2 0xCEB PUSH1 0x2 DUP4 ADD DUP3 PUSH2 0x4593 JUMP JUMPDEST PUSH2 0xCF8 PUSH1 0x3 DUP4 ADD PUSH0 PUSH2 0x4593 JUMP JUMPDEST PUSH2 0xD05 PUSH1 0x4 DUP4 ADD PUSH0 PUSH2 0x4593 JUMP JUMPDEST POP PUSH0 PUSH1 0x5 DUP3 ADD DUP2 SWAP1 SSTORE PUSH1 0x6 DUP3 ADD DUP2 SWAP1 SSTORE PUSH1 0x7 SWAP1 SWAP2 ADD SSTORE PUSH1 0x1 ADD PUSH2 0x67C JUMP JUMPDEST POP PUSH0 PUSH1 0x10 DUP3 DUP2 SLOAD DUP2 LT PUSH2 0xD38 JUMPI PUSH2 0xD38 PUSH2 0x51F1 JUMP JUMPDEST SWAP1 PUSH0 MSTORE PUSH1 0x20 PUSH0 KECCAK256 SWAP1 PUSH1 0x8 MUL ADD PUSH1 0x6 ADD PUSH0 PUSH2 0x100 EXP DUP2 SLOAD DUP2 PUSH1 0x1 PUSH1 0x1 PUSH1 0xA0 SHL SUB MUL NOT AND SWAP1 DUP4 PUSH1 0x1 PUSH1 0x1 PUSH1 0xA0 SHL SUB AND MUL OR SWAP1 SSTORE POP POP JUMP JUMPDEST CALLER PUSH1 0x1 PUSH1 0x1 PUSH1 0xA0 SHL SUB DUP7 AND DUP2 EQ DUP1 ISZERO SWAP1 PUSH2 0xD8E JUMPI POP PUSH2 0xD8C DUP7 DUP3 PUSH2 0x3312 JUMP JUMPDEST ISZERO JUMPDEST ISZERO PUSH2 0xDBF JUMPI PUSH1 0x40 MLOAD PUSH4 0x711BEC91 PUSH1 0xE1 SHL DUP2 MSTORE PUSH1 0x1 PUSH1 0x1 PUSH1 0xA0 SHL SUB DUP1 DUP4 AND PUSH1 0x4 DUP4 ADD MSTORE DUP8 AND PUSH1 0x24 DUP3 ADD MSTORE PUSH1 0x44 ADD PUSH2 0x4F3 JUMP JUMPDEST PUSH2 0xDCC DUP7 DUP7 DUP7 DUP7 DUP7 PUSH2 0x3F13 JUMP JUMPDEST POP POP POP POP POP POP JUMP JUMPDEST PUSH2 0xDEF CALLER DUP4 DUP7 DUP5 PUSH1 0x40 MLOAD DUP1 PUSH1 0x20 ADD PUSH1 0x40 MSTORE DUP1 PUSH0 DUP2 MSTORE POP PUSH2 0x3F78 JUMP JUMPDEST CALLER PUSH0 SWAP1 DUP2 MSTORE PUSH1 0x9 PUSH1 0x20 MSTORE PUSH1 0x40 SWAP1 KECCAK256 DUP1 SLOAD DUP3 SWAP2 SWAP1 DUP6 SWAP1 DUP2 LT PUSH2 0xE12 JUMPI PUSH2 0xE12 PUSH2 0x51F1 JUMP JUMPDEST SWAP1 PUSH0 MSTORE PUSH1 0x20 PUSH0 KECCAK256 SWAP1 PUSH1 0x8 MUL ADD PUSH1 0x6 ADD PUSH0 DUP3 DUP3 SLOAD PUSH2 0xE2F SWAP2 SWAP1 PUSH2 0x5330 JUMP JUMPDEST SWAP1 SWAP2 SSTORE POP POP PUSH1 0x1 PUSH1 0x1 PUSH1 0xA0 SHL SUB DUP3 AND PUSH0 SWAP1 DUP2 MSTORE PUSH1 0x9 PUSH1 0x20 SWAP1 DUP2 MSTORE PUSH1 0x40 DUP1 DUP4 KECCAK256 DUP2 MLOAD PUSH2 0x100 DUP2 ADD DUP4 MSTORE DUP9 DUP2 MSTORE DUP2 SLOAD DUP2 DUP6 ADD MSTORE DUP9 DUP6 MSTORE PUSH1 0x8 SWAP1 SWAP4 MSTORE SWAP3 DUP2 SWAP1 KECCAK256 PUSH1 0x2 ADD DUP1 SLOAD SWAP2 DUP4 ADD SWAP2 PUSH2 0xE7E SWAP1 PUSH2 0x514B JUMP JUMPDEST DUP1 PUSH1 0x1F ADD PUSH1 0x20 DUP1 SWAP2 DIV MUL PUSH1 0x20 ADD PUSH1 0x40 MLOAD SWAP1 DUP2 ADD PUSH1 0x40 MSTORE DUP1 SWAP3 SWAP2 SWAP1 DUP2 DUP2 MSTORE PUSH1 0x20 ADD DUP3 DUP1 SLOAD PUSH2 0xEAA SWAP1 PUSH2 0x514B JUMP JUMPDEST DUP1 ISZERO PUSH2 0xEF5 JUMPI DUP1 PUSH1 0x1F LT PUSH2 0xECC JUMPI PUSH2 0x100 DUP1 DUP4 SLOAD DIV MUL DUP4 MSTORE SWAP2 PUSH1 0x20 ADD SWAP2 PUSH2 0xEF5 JUMP JUMPDEST DUP3 ADD SWAP2 SWAP1 PUSH0 MSTORE PUSH1 0x20 PUSH0 KECCAK256 SWAP1 JUMPDEST DUP2 SLOAD DUP2 MSTORE SWAP1 PUSH1 0x1 ADD SWAP1 PUSH1 0x20 ADD DUP1 DUP4 GT PUSH2 0xED8 JUMPI DUP3 SWAP1 SUB PUSH1 0x1F AND DUP3 ADD SWAP2 JUMPDEST POP POP POP POP POP DUP2 MSTORE PUSH1 0x20 ADD PUSH1 0x8 PUSH0 DUP9 DUP2 MSTORE PUSH1 0x20 ADD SWAP1 DUP2 MSTORE PUSH1 0x20 ADD PUSH0 KECCAK256 PUSH1 0x3 ADD DUP1 SLOAD PUSH2 0xF1E SWAP1 PUSH2 0x514B JUMP JUMPDEST DUP1 PUSH1 0x1F ADD PUSH1 0x20 DUP1 SWAP2 DIV MUL PUSH1 0x20 ADD PUSH1 0x40 MLOAD SWAP1 DUP2 ADD PUSH1 0x40 MSTORE DUP1 SWAP3 SWAP2 SWAP1 DUP2 DUP2 MSTORE PUSH1 0x20 ADD DUP3 DUP1 SLOAD PUSH2 0xF4A SWAP1 PUSH2 0x514B JUMP JUMPDEST DUP1 ISZERO PUSH2 0xF95 JUMPI DUP1 PUSH1 0x1F LT PUSH2 0xF6C JUMPI PUSH2 0x100 DUP1 DUP4 SLOAD DIV MUL DUP4 MSTORE SWAP2 PUSH1 0x20 ADD SWAP2 PUSH2 0xF95 JUMP JUMPDEST DUP3 ADD SWAP2 SWAP1 PUSH0 MSTORE PUSH1 0x20 PUSH0 KECCAK256 SWAP1 JUMPDEST DUP2 SLOAD DUP2 MSTORE SWAP1 PUSH1 0x1 ADD SWAP1 PUSH1 0x20 ADD DUP1 DUP4 GT PUSH2 0xF78 JUMPI DUP3 SWAP1 SUB PUSH1 0x1F AND DUP3 ADD SWAP2 JUMPDEST POP POP POP POP POP DUP2 MSTORE PUSH1 0x20 ADD PUSH1 0x8 PUSH0 DUP9 DUP2 MSTORE PUSH1 0x20 ADD SWAP1 DUP2 MSTORE PUSH1 0x20 ADD PUSH0 KECCAK256 PUSH1 0x4 ADD DUP1 SLOAD PUSH2 0xFBE SWAP1 PUSH2 0x514B JUMP JUMPDEST DUP1 PUSH1 0x1F ADD PUSH1 0x20 DUP1 SWAP2 DIV MUL PUSH1 0x20 ADD PUSH1 0x40 MLOAD SWAP1 DUP2 ADD PUSH1 0x40 MSTORE DUP1 SWAP3 SWAP2 SWAP1 DUP2 DUP2 MSTORE PUSH1 0x20 ADD DUP3 DUP1 SLOAD PUSH2 0xFEA SWAP1 PUSH2 0x514B JUMP JUMPDEST DUP1 ISZERO PUSH2 0x1035 JUMPI DUP1 PUSH1 0x1F LT PUSH2 0x100C JUMPI PUSH2 0x100 DUP1 DUP4 SLOAD DIV MUL DUP4 MSTORE SWAP2 PUSH1 0x20 ADD SWAP2 PUSH2 0x1035 JUMP JUMPDEST DUP3 ADD SWAP2 SWAP1 PUSH0 MSTORE PUSH1 0x20 PUSH0 KECCAK256 SWAP1 JUMPDEST DUP2 SLOAD DUP2 MSTORE SWAP1 PUSH1 0x1 ADD SWAP1 PUSH1 0x20 ADD DUP1 DUP4 GT PUSH2 0x1018 JUMPI DUP3 SWAP1 SUB PUSH1 0x1F AND DUP3 ADD SWAP2 JUMPDEST POP POP POP POP POP DUP2 MSTORE PUSH1 0x20 ADD DUP4 DUP2 MSTORE PUSH1 0x20 ADD PUSH1 0x9 PUSH0 CALLER PUSH1 0x1 PUSH1 0x1 PUSH1 0xA0 SHL SUB AND PUSH1 0x1 PUSH1 0x1 PUSH1 0xA0 SHL SUB AND DUP2 MSTORE PUSH1 0x20 ADD SWAP1 DUP2 MSTORE PUSH1 0x20 ADD PUSH0 KECCAK256 DUP7 DUP2 SLOAD DUP2 LT PUSH2 0x1079 JUMPI PUSH2 0x1079 PUSH2 0x51F1 JUMP JUMPDEST PUSH0 SWAP2 DUP3 MSTORE PUSH1 0x20 DUP1 DUP4 KECCAK256 PUSH1 0x8 SWAP3 DUP4 MUL ADD PUSH1 0x5 ADD SLOAD DUP5 MSTORE DUP10 DUP4 MSTORE DUP2 DUP2 MSTORE PUSH1 0x40 DUP1 DUP5 KECCAK256 PUSH1 0x7 ADD SLOAD SWAP5 DUP3 ADD SWAP5 SWAP1 SWAP5 MSTORE DUP6 SLOAD PUSH1 0x1 DUP1 DUP3 ADD DUP9 SSTORE SWAP7 DUP5 MSTORE SWAP3 DUP2 SWAP1 KECCAK256 DUP6 MLOAD SWAP4 SWAP1 SWAP3 MUL SWAP1 SWAP2 ADD SWAP2 DUP3 SSTORE DUP4 ADD MLOAD SWAP4 DUP2 ADD SWAP4 SWAP1 SWAP4 SSTORE DUP2 ADD MLOAD SWAP1 SWAP2 SWAP1 PUSH1 0x2 DUP3 ADD SWAP1 PUSH2 0x10DF SWAP1 DUP3 PUSH2 0x5274 JUMP JUMPDEST POP PUSH1 0x60 DUP3 ADD MLOAD PUSH1 0x3 DUP3 ADD SWAP1 PUSH2 0x10F4 SWAP1 DUP3 PUSH2 0x5274 JUMP JUMPDEST POP PUSH1 0x80 DUP3 ADD MLOAD PUSH1 0x4 DUP3 ADD SWAP1 PUSH2 0x1109 SWAP1 DUP3 PUSH2 0x5274 JUMP JUMPDEST POP PUSH1 0xA0 DUP3 ADD MLOAD PUSH1 0x5 DUP3 ADD SSTORE PUSH1 0xC0 DUP3 ADD MLOAD PUSH1 0x6 DUP3 ADD SSTORE PUSH1 0xE0 SWAP1 SWAP2 ADD MLOAD PUSH1 0x7 SWAP1 SWAP2 ADD SSTORE CALLER PUSH0 SWAP1 DUP2 MSTORE PUSH1 0x9 PUSH1 0x20 MSTORE PUSH1 0x40 SWAP1 KECCAK256 DUP1 SLOAD DUP5 SWAP1 DUP2 LT PUSH2 0x114A JUMPI PUSH2 0x114A PUSH2 0x51F1 JUMP JUMPDEST SWAP1 PUSH0 MSTORE PUSH1 0x20 PUSH0 KECCAK256 SWAP1 PUSH1 0x8 MUL ADD PUSH1 0x6 ADD SLOAD PUSH0 SUB PUSH2 0x11D7 JUMPI CALLER PUSH0 SWAP1 DUP2 MSTORE PUSH1 0x9 PUSH1 0x20 MSTORE PUSH1 0x40 SWAP1 KECCAK256 DUP1 SLOAD DUP5 SWAP1 DUP2 LT PUSH2 0x1180 JUMPI PUSH2 0x1180 PUSH2 0x51F1 JUMP JUMPDEST PUSH0 SWAP2 DUP3 MSTORE PUSH1 0x20 DUP3 KECCAK256 PUSH1 0x8 SWAP1 SWAP2 MUL ADD DUP2 DUP2 SSTORE PUSH1 0x1 DUP2 ADD DUP3 SWAP1 SSTORE SWAP1 PUSH2 0x11A6 PUSH1 0x2 DUP4 ADD DUP3 PUSH2 0x4593 JUMP JUMPDEST PUSH2 0x11B3 PUSH1 0x3 DUP4 ADD PUSH0 PUSH2 0x4593 JUMP JUMPDEST PUSH2 0x11C0 PUSH1 0x4 DUP4 ADD PUSH0 PUSH2 0x4593 JUMP JUMPDEST POP PUSH0 PUSH1 0x5 DUP3 ADD DUP2 SWAP1 SSTORE PUSH1 0x6 DUP3 ADD DUP2 SWAP1 SSTORE PUSH1 0x7 SWAP1 SWAP2 ADD SSTORE JUMPDEST POP POP POP POP JUMP JUMPDEST PUSH1 0x60 CALLER PUSH1 0x6 PUSH2 0x11EF DUP2 PUSH1 0x2 DUP7 DUP9 PUSH2 0x5343 JUMP JUMPDEST PUSH1 0x40 MLOAD PUSH1 0x20 ADD PUSH2 0x1200 SWAP3 SWAP2 SWAP1 PUSH2 0x536A JUMP JUMPDEST PUSH1 0x40 DUP1 MLOAD PUSH1 0x1F NOT DUP2 DUP5 SUB ADD DUP2 MSTORE SWAP1 DUP3 SWAP1 MSTORE PUSH2 0x121A SWAP2 PUSH2 0x5397 JUMP JUMPDEST SWAP1 DUP2 MSTORE PUSH1 0x40 MLOAD SWAP1 DUP2 SWAP1 SUB PUSH1 0x20 ADD SWAP1 KECCAK256 PUSH1 0x1 ADD SLOAD PUSH1 0x1 PUSH1 0x1 PUSH1 0xA0 SHL SUB AND SUB PUSH2 0x1295 JUMPI PUSH1 0x40 MLOAD PUSH3 0x461BCD PUSH1 0xE5 SHL DUP2 MSTORE PUSH1 0x20 PUSH1 0x4 DUP3 ADD MSTORE PUSH1 0x29 PUSH1 0x24 DUP3 ADD MSTORE PUSH32 0xD092D18B20D183D0B6D0B520D181D0BED0B7D0B4D0B0D0BBD0B820D180D0B5D1 PUSH1 0x44 DUP3 ADD MSTORE PUSH9 0x84D0B5D180D0B0D0BB PUSH1 0xB8 SHL PUSH1 0x64 DUP3 ADD MSTORE PUSH1 0x84 ADD PUSH2 0x4F3 JUMP JUMPDEST PUSH0 PUSH2 0x12A4 PUSH1 0x6 PUSH1 0x2 DUP6 DUP8 PUSH2 0x5343 JUMP JUMPDEST PUSH1 0x40 MLOAD PUSH1 0x20 ADD PUSH2 0x12B5 SWAP3 SWAP2 SWAP1 PUSH2 0x536A JUMP JUMPDEST PUSH1 0x40 DUP1 MLOAD PUSH1 0x1F NOT DUP2 DUP5 SUB ADD DUP2 MSTORE PUSH1 0x60 DUP4 ADD DUP3 MSTORE DUP1 DUP4 MSTORE CALLER PUSH1 0x20 DUP5 ADD MSTORE PUSH0 DUP4 DUP4 ADD MSTORE SWAP1 MLOAD SWAP1 SWAP3 POP PUSH1 0x6 SWAP1 PUSH2 0x12E9 SWAP1 DUP5 SWAP1 PUSH2 0x5397 JUMP JUMPDEST SWAP1 DUP2 MSTORE PUSH1 0x40 MLOAD SWAP1 DUP2 SWAP1 SUB PUSH1 0x20 ADD SWAP1 KECCAK256 DUP2 MLOAD DUP2 SWAP1 PUSH2 0x1306 SWAP1 DUP3 PUSH2 0x5274 JUMP JUMPDEST POP PUSH1 0x20 DUP3 DUP2 ADD MLOAD PUSH1 0x1 DUP1 DUP5 ADD DUP1 SLOAD PUSH1 0x1 PUSH1 0x1 PUSH1 0xA0 SHL SUB SWAP1 SWAP4 AND PUSH1 0x1 PUSH1 0x1 PUSH1 0xA0 SHL SUB NOT SWAP1 SWAP4 AND SWAP3 SWAP1 SWAP3 OR SWAP1 SWAP2 SSTORE PUSH1 0x40 SWAP4 DUP5 ADD MLOAD PUSH1 0x2 SWAP1 SWAP4 ADD SWAP3 SWAP1 SWAP3 SSTORE DUP3 MLOAD PUSH1 0x60 DUP2 ADD DUP5 MSTORE DUP5 DUP2 MSTORE CALLER SWAP2 DUP2 ADD SWAP2 SWAP1 SWAP2 MSTORE PUSH0 SWAP3 DUP2 ADD DUP4 SWAP1 MSTORE PUSH1 0xD DUP1 SLOAD SWAP3 DUP4 ADD DUP2 SSTORE SWAP1 SWAP3 MSTORE DUP2 MLOAD PUSH1 0x3 SWAP1 SWAP2 MUL PUSH32 0xD7B6990105719101DABEB77144F2A3385C8033ACD3AF97E9423A695E81AD1EB5 ADD SWAP1 DUP2 SWAP1 PUSH2 0x139D SWAP1 DUP3 PUSH2 0x5274 JUMP JUMPDEST POP PUSH1 0x20 DUP3 ADD MLOAD PUSH1 0x1 DUP3 ADD DUP1 SLOAD PUSH1 0x1 PUSH1 0x1 PUSH1 0xA0 SHL SUB NOT AND PUSH1 0x1 PUSH1 0x1 PUSH1 0xA0 SHL SUB SWAP1 SWAP3 AND SWAP2 SWAP1 SWAP2 OR SWAP1 SSTORE PUSH1 0x40 SWAP1 SWAP2 ADD MLOAD PUSH1 0x2 SWAP1 SWAP2 ADD SSTORE SWAP4 SWAP3 POP POP POP JUMP JUMPDEST PUSH1 0x60 DUP2 MLOAD DUP4 MLOAD EQ PUSH2 0x1408 JUMPI DUP2 MLOAD DUP4 MLOAD PUSH1 0x40 MLOAD PUSH4 0x5B059991 PUSH1 0xE0 SHL DUP2 MSTORE PUSH1 0x4 DUP2 ADD SWAP3 SWAP1 SWAP3 MSTORE PUSH1 0x24 DUP3 ADD MSTORE PUSH1 0x44 ADD PUSH2 0x4F3 JUMP JUMPDEST PUSH0 DUP4 MLOAD PUSH8 0xFFFFFFFFFFFFFFFF DUP2 GT ISZERO PUSH2 0x1423 JUMPI PUSH2 0x1423 PUSH2 0x478F JUMP JUMPDEST PUSH1 0x40 MLOAD SWAP1 DUP1 DUP3 MSTORE DUP1 PUSH1 0x20 MUL PUSH1 0x20 ADD DUP3 ADD PUSH1 0x40 MSTORE DUP1 ISZERO PUSH2 0x144C JUMPI DUP2 PUSH1 0x20 ADD PUSH1 0x20 DUP3 MUL DUP1 CALLDATASIZE DUP4 CALLDATACOPY ADD SWAP1 POP JUMPDEST POP SWAP1 POP PUSH0 JUMPDEST DUP5 MLOAD DUP2 LT ISZERO PUSH2 0x149A JUMPI PUSH1 0x20 DUP1 DUP3 MUL DUP7 ADD ADD MLOAD PUSH2 0x1475 SWAP1 PUSH1 0x20 DUP1 DUP5 MUL DUP8 ADD ADD MLOAD PUSH2 0x3C1 JUMP JUMPDEST DUP3 DUP3 DUP2 MLOAD DUP2 LT PUSH2 0x1487 JUMPI PUSH2 0x1487 PUSH2 0x51F1 JUMP JUMPDEST PUSH1 0x20 SWAP1 DUP2 MUL SWAP2 SWAP1 SWAP2 ADD ADD MSTORE PUSH1 0x1 ADD PUSH2 0x1451 JUMP JUMPDEST POP SWAP4 SWAP3 POP POP POP JUMP JUMPDEST PUSH1 0x10 DUP3 DUP2 SLOAD DUP2 LT PUSH2 0x14B5 JUMPI PUSH2 0x14B5 PUSH2 0x51F1 JUMP JUMPDEST SWAP1 PUSH0 MSTORE PUSH1 0x20 PUSH0 KECCAK256 SWAP1 PUSH1 0x8 MUL ADD PUSH1 0x4 ADD SLOAD DUP1 PUSH0 SUB PUSH2 0x14E4 JUMPI PUSH1 0x40 MLOAD PUSH3 0x461BCD PUSH1 0xE5 SHL DUP2 MSTORE PUSH1 0x4 ADD PUSH2 0x4F3 SWAP1 PUSH2 0x53B2 JUMP JUMPDEST DUP2 PUSH1 0x10 DUP5 DUP2 SLOAD DUP2 LT PUSH2 0x14F8 JUMPI PUSH2 0x14F8 PUSH2 0x51F1 JUMP JUMPDEST SWAP1 PUSH0 MSTORE PUSH1 0x20 PUSH0 KECCAK256 SWAP1 PUSH1 0x8 MUL ADD PUSH1 0x7 ADD SLOAD LT PUSH2 0x156D JUMPI PUSH1 0x40 MLOAD PUSH3 0x461BCD PUSH1 0xE5 SHL DUP2 MSTORE PUSH1 0x20 PUSH1 0x4 DUP3 ADD MSTORE PUSH1 0x2F PUSH1 0x24 DUP3 ADD MSTORE PUSH32 0xD0A2D0B5D0BAD183D189D0B0D18F20D181D182D0B0D0B2D0BAD0B020D0B2D18B PUSH1 0x44 DUP3 ADD MSTORE PUSH15 0xD188D0B520D0B2D0B0D188D0B5D0B9 PUSH1 0x88 SHL PUSH1 0x64 DUP3 ADD MSTORE PUSH1 0x84 ADD PUSH2 0x4F3 JUMP JUMPDEST PUSH1 0x5 SLOAD PUSH1 0x4 DUP1 SLOAD PUSH1 0x40 MLOAD PUSH4 0x7AA9BF6F PUSH1 0xE1 SHL DUP2 MSTORE CALLER SWAP3 DUP2 ADD SWAP3 SWAP1 SWAP3 MSTORE PUSH1 0x1 PUSH1 0x1 PUSH1 0xA0 SHL SUB SWAP1 DUP2 AND PUSH1 0x24 DUP4 ADD MSTORE PUSH1 0x44 DUP3 ADD DUP6 SWAP1 MSTORE SWAP1 SWAP2 AND SWAP1 PUSH4 0xF5537EDE SWAP1 PUSH1 0x64 ADD PUSH0 PUSH1 0x40 MLOAD DUP1 DUP4 SUB DUP2 PUSH0 DUP8 DUP1 EXTCODESIZE ISZERO DUP1 ISZERO PUSH2 0x15C4 JUMPI PUSH0 DUP1 REVERT JUMPDEST POP GAS CALL ISZERO DUP1 ISZERO PUSH2 0x15D6 JUMPI RETURNDATASIZE PUSH0 DUP1 RETURNDATACOPY RETURNDATASIZE PUSH0 REVERT JUMPDEST POP POP POP POP DUP2 PUSH1 0x10 DUP5 DUP2 SLOAD DUP2 LT PUSH2 0x15EE JUMPI PUSH2 0x15EE PUSH2 0x51F1 JUMP JUMPDEST SWAP1 PUSH0 MSTORE PUSH1 0x20 PUSH0 KECCAK256 SWAP1 PUSH1 0x8 MUL ADD PUSH1 0x7 ADD DUP2 SWAP1 SSTORE POP CALLER PUSH1 0x10 DUP5 DUP2 SLOAD DUP2 LT PUSH2 0x1615 JUMPI PUSH2 0x1615 PUSH2 0x51F1 JUMP JUMPDEST PUSH0 SWAP2 DUP3 MSTORE PUSH1 0x20 DUP1 DUP4 KECCAK256 PUSH1 0x6 PUSH1 0x8 SWAP1 SWAP4 MUL ADD SWAP2 SWAP1 SWAP2 ADD DUP1 SLOAD PUSH1 0x1 PUSH1 0x1 PUSH1 0xA0 SHL SUB SWAP5 DUP6 AND PUSH1 0x1 PUSH1 0x1 PUSH1 0xA0 SHL SUB NOT SWAP2 DUP3 AND OR SWAP1 SWAP2 SSTORE DUP7 DUP4 MSTORE PUSH1 0xB DUP3 MSTORE PUSH1 0x40 DUP1 DUP5 KECCAK256 DUP2 MLOAD DUP1 DUP4 ADD SWAP1 SWAP3 MSTORE DUP8 DUP3 MSTORE CALLER DUP3 DUP6 ADD SWAP1 DUP2 MSTORE DUP2 SLOAD PUSH1 0x1 DUP2 DUP2 ADD DUP5 SSTORE SWAP3 DUP8 MSTORE SWAP5 SWAP1 SWAP6 KECCAK256 SWAP2 MLOAD PUSH1 0x2 SWAP1 SWAP5 MUL SWAP1 SWAP2 ADD SWAP3 DUP4 SSTORE SWAP3 MLOAD SWAP2 SWAP1 SWAP3 ADD DUP1 SLOAD SWAP2 SWAP1 SWAP4 AND SWAP2 AND OR SWAP1 SSTORE PUSH1 0x10 DUP1 SLOAD DUP5 SWAP1 DUP2 LT PUSH2 0x16A7 JUMPI PUSH2 0x16A7 PUSH2 0x51F1 JUMP JUMPDEST SWAP1 PUSH0 MSTORE PUSH1 0x20 PUSH0 KECCAK256 SWAP1 PUSH1 0x8 MUL ADD PUSH1 0x4 ADD SLOAD PUSH1 0x3 SLOAD DUP4 PUSH2 0x16C5 SWAP2 SWAP1 PUSH2 0x5219 JUMP JUMPDEST LT PUSH2 0x16FA JUMPI PUSH0 PUSH1 0x10 DUP5 DUP2 SLOAD DUP2 LT PUSH2 0x16DE JUMPI PUSH2 0x16DE PUSH2 0x51F1 JUMP JUMPDEST SWAP1 PUSH0 MSTORE PUSH1 0x20 PUSH0 KECCAK256 SWAP1 PUSH1 0x8 MUL ADD PUSH1 0x4 ADD DUP2 SWAP1 SSTORE POP PUSH2 0x16FA DUP4 PUSH2 0x35C6 JUMP JUMPDEST POP POP POP JUMP JUMPDEST PUSH1 0x60 PUSH1 0xE DUP1 SLOAD DUP1 PUSH1 0x20 MUL PUSH1 0x20 ADD PUSH1 0x40 MLOAD SWAP1 DUP2 ADD PUSH1 0x40 MSTORE DUP1 SWAP3 SWAP2 SWAP1 DUP2 DUP2 MSTORE PUSH1 0x20 ADD PUSH0 SWAP1 JUMPDEST DUP3 DUP3 LT ISZERO PUSH2 0x1934 JUMPI DUP4 DUP3 SWAP1 PUSH0 MSTORE PUSH1 0x20 PUSH0 KECCAK256 SWAP1 PUSH1 0x8 MUL ADD PUSH1 0x40 MLOAD DUP1 PUSH2 0x100 ADD PUSH1 0x40 MSTORE SWAP1 DUP2 PUSH0 DUP3 ADD SLOAD DUP2 MSTORE PUSH1 0x20 ADD PUSH1 0x1 DUP3 ADD SLOAD DUP2 MSTORE PUSH1 0x20 ADD PUSH1 0x2 DUP3 ADD DUP1 SLOAD PUSH2 0x1767 SWAP1 PUSH2 0x514B JUMP JUMPDEST DUP1 PUSH1 0x1F ADD PUSH1 0x20 DUP1 SWAP2 DIV MUL PUSH1 0x20 ADD PUSH1 0x40 MLOAD SWAP1 DUP2 ADD PUSH1 0x40 MSTORE DUP1 SWAP3 SWAP2 SWAP1 DUP2 DUP2 MSTORE PUSH1 0x20 ADD DUP3 DUP1 SLOAD PUSH2 0x1793 SWAP1 PUSH2 0x514B JUMP JUMPDEST DUP1 ISZERO PUSH2 0x17DE JUMPI DUP1 PUSH1 0x1F LT PUSH2 0x17B5 JUMPI PUSH2 0x100 DUP1 DUP4 SLOAD DIV MUL DUP4 MSTORE SWAP2 PUSH1 0x20 ADD SWAP2 PUSH2 0x17DE JUMP JUMPDEST DUP3 ADD SWAP2 SWAP1 PUSH0 MSTORE PUSH1 0x20 PUSH0 KECCAK256 SWAP1 JUMPDEST DUP2 SLOAD DUP2 MSTORE SWAP1 PUSH1 0x1 ADD SWAP1 PUSH1 0x20 ADD DUP1 DUP4 GT PUSH2 0x17C1 JUMPI DUP3 SWAP1 SUB PUSH1 0x1F AND DUP3 ADD SWAP2 JUMPDEST POP POP POP POP POP DUP2 MSTORE PUSH1 0x20 ADD PUSH1 0x3 DUP3 ADD DUP1 SLOAD PUSH2 0x17F7 SWAP1 PUSH2 0x514B JUMP JUMPDEST DUP1 PUSH1 0x1F ADD PUSH1 0x20 DUP1 SWAP2 DIV MUL PUSH1 0x20 ADD PUSH1 0x40 MLOAD SWAP1 DUP2 ADD PUSH1 0x40 MSTORE DUP1 SWAP3 SWAP2 SWAP1 DUP2 DUP2 MSTORE PUSH1 0x20 ADD DUP3 DUP1 SLOAD PUSH2 0x1823 SWAP1 PUSH2 0x514B JUMP JUMPDEST DUP1 ISZERO PUSH2 0x186E JUMPI DUP1 PUSH1 0x1F LT PUSH2 0x1845 JUMPI PUSH2 0x100 DUP1 DUP4 SLOAD DIV MUL DUP4 MSTORE SWAP2 PUSH1 0x20 ADD SWAP2 PUSH2 0x186E JUMP JUMPDEST DUP3 ADD SWAP2 SWAP1 PUSH0 MSTORE PUSH1 0x20 PUSH0 KECCAK256 SWAP1 JUMPDEST DUP2 SLOAD DUP2 MSTORE SWAP1 PUSH1 0x1 ADD SWAP1 PUSH1 0x20 ADD DUP1 DUP4 GT PUSH2 0x1851 JUMPI DUP3 SWAP1 SUB PUSH1 0x1F AND DUP3 ADD SWAP2 JUMPDEST POP POP POP POP POP DUP2 MSTORE PUSH1 0x20 ADD PUSH1 0x4 DUP3 ADD DUP1 SLOAD PUSH2 0x1887 SWAP1 PUSH2 0x514B JUMP JUMPDEST DUP1 PUSH1 0x1F ADD PUSH1 0x20 DUP1 SWAP2 DIV MUL PUSH1 0x20 ADD PUSH1 0x40 MLOAD SWAP1 DUP2 ADD PUSH1 0x40 MSTORE DUP1 SWAP3 SWAP2 SWAP1 DUP2 DUP2 MSTORE PUSH1 0x20 ADD DUP3 DUP1 SLOAD PUSH2 0x18B3 SWAP1 PUSH2 0x514B JUMP JUMPDEST DUP1 ISZERO PUSH2 0x18FE JUMPI DUP1 PUSH1 0x1F LT PUSH2 0x18D5 JUMPI PUSH2 0x100 DUP1 DUP4 SLOAD DIV MUL DUP4 MSTORE SWAP2 PUSH1 0x20 ADD SWAP2 PUSH2 0x18FE JUMP JUMPDEST DUP3 ADD SWAP2 SWAP1 PUSH0 MSTORE PUSH1 0x20 PUSH0 KECCAK256 SWAP1 JUMPDEST DUP2 SLOAD DUP2 MSTORE SWAP1 PUSH1 0x1 ADD SWAP1 PUSH1 0x20 ADD DUP1 DUP4 GT PUSH2 0x18E1 JUMPI DUP3 SWAP1 SUB PUSH1 0x1F AND DUP3 ADD SWAP2 JUMPDEST POP POP POP POP POP DUP2 MSTORE PUSH1 0x20 ADD PUSH1 0x5 DUP3 ADD SLOAD DUP2 MSTORE PUSH1 0x20 ADD PUSH1 0x6 DUP3 ADD SLOAD DUP2 MSTORE PUSH1 0x20 ADD PUSH1 0x7 DUP3 ADD SLOAD DUP2 MSTORE POP POP DUP2 MSTORE PUSH1 0x20 ADD SWAP1 PUSH1 0x1 ADD SWAP1 PUSH2 0x1722 JUMP JUMPDEST POP POP POP POP SWAP1 POP SWAP1 JUMP JUMPDEST PUSH0 PUSH1 0x64 DUP3 DUP5 PUSH1 0xC DUP8 DUP2 SLOAD DUP2 LT PUSH2 0x1955 JUMPI PUSH2 0x1955 PUSH2 0x51F1 JUMP JUMPDEST SWAP1 PUSH0 MSTORE PUSH1 0x20 PUSH0 KECCAK256 SWAP1 PUSH1 0x6 MUL ADD PUSH1 0x5 ADD SLOAD PUSH2 0x196F SWAP2 SWAP1 PUSH2 0x5219 JUMP JUMPDEST PUSH2 0x1979 SWAP2 SWAP1 PUSH2 0x5219 JUMP JUMPDEST PUSH2 0x1983 SWAP2 SWAP1 PUSH2 0x53E9 JUMP JUMPDEST DUP4 PUSH1 0xC DUP7 DUP2 SLOAD DUP2 LT PUSH2 0x1997 JUMPI PUSH2 0x1997 PUSH2 0x51F1 JUMP JUMPDEST SWAP1 PUSH0 MSTORE PUSH1 0x20 PUSH0 KECCAK256 SWAP1 PUSH1 0x6 MUL ADD PUSH1 0x5 ADD SLOAD PUSH2 0x19B1 SWAP2 SWAP1 PUSH2 0x5219 JUMP JUMPDEST PUSH2 0x19BB SWAP2 SWAP1 PUSH2 0x5330 JUMP JUMPDEST SWAP1 POP DUP3 PUSH1 0xC DUP6 DUP2 SLOAD DUP2 LT PUSH2 0x19D1 JUMPI PUSH2 0x19D1 PUSH2 0x51F1 JUMP JUMPDEST SWAP1 PUSH0 MSTORE PUSH1 0x20 PUSH0 KECCAK256 SWAP1 PUSH1 0x6 MUL ADD PUSH1 0x4 ADD SLOAD LT ISZERO PUSH2 0x1A60 JUMPI PUSH1 0x40 MLOAD PUSH3 0x461BCD PUSH1 0xE5 SHL DUP2 MSTORE PUSH1 0x20 PUSH1 0x4 DUP3 ADD MSTORE PUSH1 0x42 PUSH1 0x24 DUP3 ADD MSTORE PUSH32 0xD092D18B20D0BFD18BD182D0B0D0B5D182D0B5D181D18C20D0BAD183D0BFD0B8 PUSH1 0x44 DUP3 ADD MSTORE PUSH32 0xD182D18C20D0B1D0BED0BBD18CD188D0B52C20D187D0B5D0BC20D0B5D181D182 PUSH1 0x64 DUP3 ADD MSTORE PUSH2 0x3463 PUSH1 0xF2 SHL PUSH1 0x84 DUP3 ADD MSTORE PUSH1 0xA4 ADD PUSH2 0x4F3 JUMP JUMPDEST PUSH2 0x1AD1 PUSH1 0xC DUP6 DUP2 SLOAD DUP2 LT PUSH2 0x1A76 JUMPI PUSH2 0x1A76 PUSH2 0x51F1 JUMP JUMPDEST SWAP1 PUSH0 MSTORE PUSH1 0x20 PUSH0 KECCAK256 SWAP1 PUSH1 0x6 MUL ADD PUSH1 0x3 ADD PUSH0 SWAP1 SLOAD SWAP1 PUSH2 0x100 EXP SWAP1 DIV PUSH1 0x1 PUSH1 0x1 PUSH1 0xA0 SHL SUB AND CALLER PUSH1 0xC DUP8 DUP2 SLOAD DUP2 LT PUSH2 0x1AAC JUMPI PUSH2 0x1AAC PUSH2 0x51F1 JUMP JUMPDEST SWAP1 PUSH0 MSTORE PUSH1 0x20 PUSH0 KECCAK256 SWAP1 PUSH1 0x6 MUL ADD PUSH1 0x1 ADD SLOAD DUP7 PUSH1 0x40 MLOAD DUP1 PUSH1 0x20 ADD PUSH1 0x40 MSTORE DUP1 PUSH0 DUP2 MSTORE POP PUSH2 0x3F78 JUMP JUMPDEST PUSH1 0x5 SLOAD PUSH1 0xC DUP1 SLOAD PUSH1 0x1 PUSH1 0x1 PUSH1 0xA0 SHL SUB SWAP1 SWAP3 AND SWAP2 PUSH4 0xF5537EDE SWAP2 CALLER SWAP2 DUP9 SWAP1 DUP2 LT PUSH2 0x1AFC JUMPI PUSH2 0x1AFC PUSH2 0x51F1 JUMP JUMPDEST PUSH0 SWAP2 DUP3 MSTORE PUSH1 0x20 SWAP1 SWAP2 KECCAK256 PUSH1 0x6 SWAP1 SWAP2 MUL ADD PUSH1 0x3 ADD SLOAD PUSH1 0x40 MLOAD PUSH1 0xE0 DUP5 SWAP1 SHL PUSH1 0x1 PUSH1 0x1 PUSH1 0xE0 SHL SUB NOT AND DUP2 MSTORE PUSH1 0x1 PUSH1 0x1 PUSH1 0xA0 SHL SUB SWAP3 DUP4 AND PUSH1 0x4 DUP3 ADD MSTORE SWAP2 AND PUSH1 0x24 DUP3 ADD MSTORE PUSH1 0x44 DUP2 ADD DUP5 SWAP1 MSTORE PUSH1 0x64 ADD PUSH0 PUSH1 0x40 MLOAD DUP1 DUP4 SUB DUP2 PUSH0 DUP8 DUP1 EXTCODESIZE ISZERO DUP1 ISZERO PUSH2 0x1B5B JUMPI PUSH0 DUP1 REVERT JUMPDEST POP GAS CALL ISZERO DUP1 ISZERO PUSH2 0x1B6D JUMPI RETURNDATASIZE PUSH0 DUP1 RETURNDATACOPY RETURNDATASIZE PUSH0 REVERT JUMPDEST POP POP POP POP DUP3 PUSH1 0xC DUP6 DUP2 SLOAD DUP2 LT PUSH2 0x1B85 JUMPI PUSH2 0x1B85 PUSH2 0x51F1 JUMP JUMPDEST SWAP1 PUSH0 MSTORE PUSH1 0x20 PUSH0 KECCAK256 SWAP1 PUSH1 0x6 MUL ADD PUSH1 0x4 ADD PUSH0 DUP3 DUP3 SLOAD PUSH2 0x1BA2 SWAP2 SWAP1 PUSH2 0x5330 JUMP JUMPDEST SWAP3 POP POP DUP2 SWAP1 SSTORE POP DUP3 PUSH1 0x9 PUSH0 PUSH1 0xC DUP8 DUP2 SLOAD DUP2 LT PUSH2 0x1BC0 JUMPI PUSH2 0x1BC0 PUSH2 0x51F1 JUMP JUMPDEST PUSH0 SWAP2 DUP3 MSTORE PUSH1 0x20 DUP1 DUP4 KECCAK256 PUSH1 0x3 PUSH1 0x6 SWAP1 SWAP4 MUL ADD SWAP2 SWAP1 SWAP2 ADD SLOAD PUSH1 0x1 PUSH1 0x1 PUSH1 0xA0 SHL SUB AND DUP4 MSTORE DUP3 ADD SWAP3 SWAP1 SWAP3 MSTORE PUSH1 0x40 ADD SWAP1 KECCAK256 PUSH1 0xC DUP1 SLOAD DUP8 SWAP1 DUP2 LT PUSH2 0x1C00 JUMPI PUSH2 0x1C00 PUSH2 0x51F1 JUMP JUMPDEST SWAP1 PUSH0 MSTORE PUSH1 0x20 PUSH0 KECCAK256 SWAP1 PUSH1 0x6 MUL ADD PUSH1 0x1 ADD SLOAD DUP2 SLOAD DUP2 LT PUSH2 0x1C20 JUMPI PUSH2 0x1C20 PUSH2 0x51F1 JUMP JUMPDEST SWAP1 PUSH0 MSTORE PUSH1 0x20 PUSH0 KECCAK256 SWAP1 PUSH1 0x8 MUL ADD PUSH1 0x6 ADD PUSH0 DUP3 DUP3 SLOAD PUSH2 0x1C3D SWAP2 SWAP1 PUSH2 0x5330 JUMP JUMPDEST SWAP1 SWAP2 SSTORE POP POP CALLER PUSH0 DUP2 DUP2 MSTORE PUSH1 0x9 PUSH1 0x20 DUP2 DUP2 MSTORE PUSH1 0x40 DUP1 DUP5 KECCAK256 DUP2 MLOAD PUSH2 0x100 DUP2 ADD DUP4 MSTORE DUP11 DUP2 MSTORE SWAP6 DUP6 MSTORE SWAP3 DUP3 MSTORE DUP3 SLOAD SWAP2 DUP6 ADD SWAP2 SWAP1 SWAP2 MSTORE PUSH1 0xC DUP1 SLOAD SWAP3 SWAP5 SWAP4 SWAP2 DUP5 ADD SWAP3 PUSH1 0x8 SWAP3 SWAP2 SWAP1 DUP11 SWAP1 DUP2 LT PUSH2 0x1C8E JUMPI PUSH2 0x1C8E PUSH2 0x51F1 JUMP JUMPDEST SWAP1 PUSH0 MSTORE PUSH1 0x20 PUSH0 KECCAK256 SWAP1 PUSH1 0x6 MUL ADD PUSH1 0x1 ADD SLOAD DUP2 MSTORE PUSH1 0x20 ADD SWAP1 DUP2 MSTORE PUSH1 0x20 ADD PUSH0 KECCAK256 PUSH1 0x2 ADD DUP1 SLOAD PUSH2 0x1CB9 SWAP1 PUSH2 0x514B JUMP JUMPDEST DUP1 PUSH1 0x1F ADD PUSH1 0x20 DUP1 SWAP2 DIV MUL PUSH1 0x20 ADD PUSH1 0x40 MLOAD SWAP1 DUP2 ADD PUSH1 0x40 MSTORE DUP1 SWAP3 SWAP2 SWAP1 DUP2 DUP2 MSTORE PUSH1 0x20 ADD DUP3 DUP1 SLOAD PUSH2 0x1CE5 SWAP1 PUSH2 0x514B JUMP JUMPDEST DUP1 ISZERO PUSH2 0x1D30 JUMPI DUP1 PUSH1 0x1F LT PUSH2 0x1D07 JUMPI PUSH2 0x100 DUP1 DUP4 SLOAD DIV MUL DUP4 MSTORE SWAP2 PUSH1 0x20 ADD SWAP2 PUSH2 0x1D30 JUMP JUMPDEST DUP3 ADD SWAP2 SWAP1 PUSH0 MSTORE PUSH1 0x20 PUSH0 KECCAK256 SWAP1 JUMPDEST DUP2 SLOAD DUP2 MSTORE SWAP1 PUSH1 0x1 ADD SWAP1 PUSH1 0x20 ADD DUP1 DUP4 GT PUSH2 0x1D13 JUMPI DUP3 SWAP1 SUB PUSH1 0x1F AND DUP3 ADD SWAP2 JUMPDEST POP POP POP POP POP DUP2 MSTORE PUSH1 0x20 ADD PUSH1 0x8 PUSH0 PUSH1 0xC DUP10 DUP2 SLOAD DUP2 LT PUSH2 0x1D50 JUMPI PUSH2 0x1D50 PUSH2 0x51F1 JUMP JUMPDEST SWAP1 PUSH0 MSTORE PUSH1 0x20 PUSH0 KECCAK256 SWAP1 PUSH1 0x6 MUL ADD PUSH1 0x1 ADD SLOAD DUP2 MSTORE PUSH1 0x20 ADD SWAP1 DUP2 MSTORE PUSH1 0x20 ADD PUSH0 KECCAK256 PUSH1 0x3 ADD DUP1 SLOAD PUSH2 0x1D7B SWAP1 PUSH2 0x514B JUMP JUMPDEST DUP1 PUSH1 0x1F ADD PUSH1 0x20 DUP1 SWAP2 DIV MUL PUSH1 0x20 ADD PUSH1 0x40 MLOAD SWAP1 DUP2 ADD PUSH1 0x40 MSTORE DUP1 SWAP3 SWAP2 SWAP1 DUP2 DUP2 MSTORE PUSH1 0x20 ADD DUP3 DUP1 SLOAD PUSH2 0x1DA7 SWAP1 PUSH2 0x514B JUMP JUMPDEST DUP1 ISZERO PUSH2 0x1DF2 JUMPI DUP1 PUSH1 0x1F LT PUSH2 0x1DC9 JUMPI PUSH2 0x100 DUP1 DUP4 SLOAD DIV MUL DUP4 MSTORE SWAP2 PUSH1 0x20 ADD SWAP2 PUSH2 0x1DF2 JUMP JUMPDEST DUP3 ADD SWAP2 SWAP1 PUSH0 MSTORE PUSH1 0x20 PUSH0 KECCAK256 SWAP1 JUMPDEST DUP2 SLOAD DUP2 MSTORE SWAP1 PUSH1 0x1 ADD SWAP1 PUSH1 0x20 ADD DUP1 DUP4 GT PUSH2 0x1DD5 JUMPI DUP3 SWAP1 SUB PUSH1 0x1F AND DUP3 ADD SWAP2 JUMPDEST POP POP POP POP POP DUP2 MSTORE PUSH1 0x20 ADD PUSH1 0x8 PUSH0 PUSH1 0xC DUP10 DUP2 SLOAD DUP2 LT PUSH2 0x1E12 JUMPI PUSH2 0x1E12 PUSH2 0x51F1 JUMP JUMPDEST SWAP1 PUSH0 MSTORE PUSH1 0x20 PUSH0 KECCAK256 SWAP1 PUSH1 0x6 MUL ADD PUSH1 0x1 ADD SLOAD DUP2 MSTORE PUSH1 0x20 ADD SWAP1 DUP2 MSTORE PUSH1 0x20 ADD PUSH0 KECCAK256 PUSH1 0x4 ADD DUP1 SLOAD PUSH2 0x1E3D SWAP1 PUSH2 0x514B JUMP JUMPDEST DUP1 PUSH1 0x1F ADD PUSH1 0x20 DUP1 SWAP2 DIV MUL PUSH1 0x20 ADD PUSH1 0x40 MLOAD SWAP1 DUP2 ADD PUSH1 0x40 MSTORE DUP1 SWAP3 SWAP2 SWAP1 DUP2 DUP2 MSTORE PUSH1 0x20 ADD DUP3 DUP1 SLOAD PUSH2 0x1E69 SWAP1 PUSH2 0x514B JUMP JUMPDEST DUP1 ISZERO PUSH2 0x1EB4 JUMPI DUP1 PUSH1 0x1F LT PUSH2 0x1E8B JUMPI PUSH2 0x100 DUP1 DUP4 SLOAD DIV MUL DUP4 MSTORE SWAP2 PUSH1 0x20 ADD SWAP2 PUSH2 0x1EB4 JUMP JUMPDEST DUP3 ADD SWAP2 SWAP1 PUSH0 MSTORE PUSH1 0x20 PUSH0 KECCAK256 SWAP1 JUMPDEST DUP2 SLOAD DUP2 MSTORE SWAP1 PUSH1 0x1 ADD SWAP1 PUSH1 0x20 ADD DUP1 DUP4 GT PUSH2 0x1E97 JUMPI DUP3 SWAP1 SUB PUSH1 0x1F AND DUP3 ADD SWAP2 JUMPDEST POP POP POP POP POP DUP2 MSTORE PUSH1 0x20 ADD DUP6 DUP2 MSTORE PUSH1 0x20 ADD PUSH1 0xC DUP8 DUP2 SLOAD DUP2 LT PUSH2 0x1ED7 JUMPI PUSH2 0x1ED7 PUSH2 0x51F1 JUMP JUMPDEST SWAP1 PUSH0 MSTORE PUSH1 0x20 PUSH0 KECCAK256 SWAP1 PUSH1 0x6 MUL ADD PUSH1 0x5 ADD SLOAD DUP2 MSTORE PUSH1 0x20 ADD PUSH1 0x8 PUSH0 PUSH1 0xC DUP10 DUP2 SLOAD DUP2 LT PUSH2 0x1F02 JUMPI PUSH2 0x1F02 PUSH2 0x51F1 JUMP JUMPDEST PUSH0 SWAP2 DUP3 MSTORE PUSH1 0x20 DUP1 DUP4 KECCAK256 PUSH1 0x1 PUSH1 0x6 SWAP1 SWAP4 MUL ADD DUP3 ADD SLOAD DUP5 MSTORE DUP4 DUP2 ADD SWAP5 SWAP1 SWAP5 MSTORE PUSH1 0x40 SWAP3 DUP4 ADD DUP3 KECCAK256 PUSH1 0x7 ADD SLOAD SWAP1 SWAP5 MSTORE DUP6 SLOAD DUP1 DUP6 ADD DUP8 SSTORE SWAP6 DUP2 MSTORE DUP3 SWAP1 KECCAK256 DUP5 MLOAD PUSH1 0x8 SWAP1 SWAP7 MUL ADD SWAP5 DUP6 SSTORE SWAP1 DUP4 ADD MLOAD SWAP2 DUP5 ADD SWAP2 SWAP1 SWAP2 SSTORE DUP2 ADD MLOAD SWAP1 SWAP2 SWAP1 PUSH1 0x2 DUP3 ADD SWAP1 PUSH2 0x1F65 SWAP1 DUP3 PUSH2 0x5274 JUMP JUMPDEST POP PUSH1 0x60 DUP3 ADD MLOAD PUSH1 0x3 DUP3 ADD SWAP1 PUSH2 0x1F7A SWAP1 DUP3 PUSH2 0x5274 JUMP JUMPDEST POP PUSH1 0x80 DUP3 ADD MLOAD PUSH1 0x4 DUP3 ADD SWAP1 PUSH2 0x1F8F SWAP1 DUP3 PUSH2 0x5274 JUMP JUMPDEST POP PUSH1 0xA0 DUP3 ADD MLOAD DUP2 PUSH1 0x5 ADD SSTORE PUSH1 0xC0 DUP3 ADD MLOAD DUP2 PUSH1 0x6 ADD SSTORE PUSH1 0xE0 DUP3 ADD MLOAD DUP2 PUSH1 0x7 ADD SSTORE POP POP PUSH1 0x9 PUSH0 PUSH1 0xC DUP7 DUP2 SLOAD DUP2 LT PUSH2 0x1FC6 JUMPI PUSH2 0x1FC6 PUSH2 0x51F1 JUMP JUMPDEST PUSH0 SWAP2 DUP3 MSTORE PUSH1 0x20 DUP1 DUP4 KECCAK256 PUSH1 0x3 PUSH1 0x6 SWAP1 SWAP4 MUL ADD SWAP2 SWAP1 SWAP2 ADD SLOAD PUSH1 0x1 PUSH1 0x1 PUSH1 0xA0 SHL SUB AND DUP4 MSTORE DUP3 ADD SWAP3 SWAP1 SWAP3 MSTORE PUSH1 0x40 ADD SWAP1 KECCAK256 PUSH1 0xC DUP1 SLOAD DUP7 SWAP1 DUP2 LT PUSH2 0x2006 JUMPI PUSH2 0x2006 PUSH2 0x51F1 JUMP JUMPDEST SWAP1 PUSH0 MSTORE PUSH1 0x20 PUSH0 KECCAK256 SWAP1 PUSH1 0x6 MUL ADD PUSH1 0x1 ADD SLOAD DUP2 SLOAD DUP2 LT PUSH2 0x2026 JUMPI PUSH2 0x2026 PUSH2 0x51F1 JUMP JUMPDEST SWAP1 PUSH0 MSTORE PUSH1 0x20 PUSH0 KECCAK256 SWAP1 PUSH1 0x8 MUL ADD PUSH1 0x6 ADD SLOAD PUSH0 SUB PUSH2 0x2087 JUMPI PUSH1 0x9 PUSH0 PUSH1 0xC DUP7 DUP2 SLOAD DUP2 LT PUSH2 0x2052 JUMPI PUSH2 0x2052 PUSH2 0x51F1 JUMP JUMPDEST PUSH0 SWAP2 DUP3 MSTORE PUSH1 0x20 DUP1 DUP4 KECCAK256 PUSH1 0x3 PUSH1 0x6 SWAP1 SWAP4 MUL ADD SWAP2 SWAP1 SWAP2 ADD SLOAD PUSH1 0x1 PUSH1 0x1 PUSH1 0xA0 SHL SUB AND DUP4 MSTORE DUP3 ADD SWAP3 SWAP1 SWAP3 MSTORE PUSH1 0x40 ADD DUP2 KECCAK256 PUSH2 0x2087 SWAP2 PUSH2 0x45CD JUMP JUMPDEST PUSH1 0xC DUP5 DUP2 SLOAD DUP2 LT PUSH2 0x209A JUMPI PUSH2 0x209A PUSH2 0x51F1 JUMP JUMPDEST SWAP1 PUSH0 MSTORE PUSH1 0x20 PUSH0 KECCAK256 SWAP1 PUSH1 0x6 MUL ADD PUSH1 0x4 ADD SLOAD PUSH0 SUB PUSH2 0x11D7 JUMPI PUSH1 0xC DUP5 DUP2 SLOAD DUP2 LT PUSH2 0x20C3 JUMPI PUSH2 0x20C3 PUSH2 0x51F1 JUMP JUMPDEST PUSH0 SWAP2 DUP3 MSTORE PUSH1 0x20 DUP3 KECCAK256 PUSH1 0x6 SWAP1 SWAP2 MUL ADD DUP2 DUP2 SSTORE PUSH1 0x1 DUP2 ADD DUP3 SWAP1 SSTORE PUSH1 0x2 DUP2 ADD DUP3 SWAP1 SSTORE PUSH1 0x3 DUP2 ADD DUP1 SLOAD PUSH1 0x1 PUSH1 0x1 PUSH1 0xA0 SHL SUB NOT AND SWAP1 SSTORE PUSH1 0x4 DUP2 ADD DUP3 SWAP1 SSTORE PUSH1 0x5 ADD SSTORE POP POP POP POP JUMP JUMPDEST PUSH1 0x4 SLOAD PUSH1 0x1 PUSH1 0x1 PUSH1 0xA0 SHL SUB AND CALLER EQ PUSH2 0x212F JUMPI PUSH1 0x40 MLOAD PUSH3 0x461BCD PUSH1 0xE5 SHL DUP2 MSTORE PUSH1 0x4 ADD PUSH2 0x4F3 SWAP1 PUSH2 0x5183 JUMP JUMPDEST PUSH0 DUP6 DUP2 MSTORE PUSH1 0xA PUSH1 0x20 MSTORE PUSH1 0x40 SWAP1 KECCAK256 SLOAD DUP6 SWAP1 SUB PUSH2 0x21B2 JUMPI PUSH1 0x40 MLOAD PUSH3 0x461BCD PUSH1 0xE5 SHL DUP2 MSTORE PUSH1 0x20 PUSH1 0x4 DUP3 ADD MSTORE PUSH1 0x3F PUSH1 0x24 DUP3 ADD MSTORE PUSH32 0xD09AD0BED0BBD0BBD0B5D0BAD186D0B8D18F20D18120D182D0B0D0BAD0B8D0BC PUSH1 0x44 DUP3 ADD MSTORE PUSH32 0x20696420D183D0B6D0B520D181D183D189D0B5D181D182D0B2D183D0B5D18200 PUSH1 0x64 DUP3 ADD MSTORE PUSH1 0x84 ADD PUSH2 0x4F3 JUMP JUMPDEST PUSH2 0x21CC CALLER DUP4 DUP4 PUSH1 0x40 MLOAD DUP1 PUSH1 0x20 ADD PUSH1 0x40 MSTORE DUP1 PUSH0 DUP2 MSTORE POP PUSH2 0x4004 JUMP JUMPDEST PUSH1 0x40 DUP1 MLOAD PUSH1 0xA0 DUP2 ADD DUP3 MSTORE DUP7 DUP2 MSTORE PUSH1 0x20 DUP1 DUP3 ADD DUP8 DUP2 MSTORE DUP3 DUP5 ADD DUP8 SWAP1 MSTORE PUSH1 0x60 DUP4 ADD DUP7 SWAP1 MSTORE PUSH1 0x80 DUP4 ADD DUP6 SWAP1 MSTORE PUSH0 DUP10 DUP2 MSTORE PUSH1 0xA SWAP1 SWAP3 MSTORE SWAP3 SWAP1 KECCAK256 DUP2 MLOAD DUP2 SSTORE SWAP2 MLOAD SWAP1 SWAP2 SWAP1 PUSH1 0x1 DUP3 ADD SWAP1 PUSH2 0x2219 SWAP1 DUP3 PUSH2 0x5274 JUMP JUMPDEST POP PUSH1 0x40 DUP3 ADD MLOAD PUSH1 0x2 DUP3 ADD SWAP1 PUSH2 0x222E SWAP1 DUP3 PUSH2 0x5274 JUMP JUMPDEST POP PUSH1 0x60 DUP3 ADD MLOAD DUP1 MLOAD PUSH2 0x224A SWAP2 PUSH1 0x3 DUP5 ADD SWAP2 PUSH1 0x20 SWAP1 SWAP2 ADD SWAP1 PUSH2 0x45EB JUMP JUMPDEST POP PUSH1 0x80 DUP3 ADD MLOAD DUP1 MLOAD PUSH2 0x2266 SWAP2 PUSH1 0x4 DUP5 ADD SWAP2 PUSH1 0x20 SWAP1 SWAP2 ADD SWAP1 PUSH2 0x45EB JUMP JUMPDEST POP POP PUSH1 0x40 DUP1 MLOAD PUSH1 0xA0 DUP2 ADD DUP3 MSTORE DUP8 DUP2 MSTORE PUSH1 0x20 DUP2 ADD DUP8 DUP2 MSTORE SWAP2 DUP2 ADD DUP7 SWAP1 MSTORE PUSH1 0x60 DUP2 ADD DUP6 SWAP1 MSTORE PUSH1 0x80 DUP2 ADD DUP5 SWAP1 MSTORE PUSH1 0xF DUP1 SLOAD PUSH1 0x1 DUP2 ADD DUP3 SSTORE PUSH0 SWAP2 SWAP1 SWAP2 MSTORE DUP2 MLOAD PUSH1 0x5 SWAP1 SWAP2 MUL PUSH32 0x8D1108E10BCB7C27DDDFC02ED9D693A074039D026CF4EA4240B40F7D581AC802 DUP2 ADD SWAP2 DUP3 SSTORE SWAP3 MLOAD SWAP2 SWAP4 POP SWAP2 PUSH32 0x8D1108E10BCB7C27DDDFC02ED9D693A074039D026CF4EA4240B40F7D581AC803 ADD SWAP1 PUSH2 0x22FF SWAP1 DUP3 PUSH2 0x5274 JUMP JUMPDEST POP PUSH1 0x40 DUP3 ADD MLOAD PUSH1 0x2 DUP3 ADD SWAP1 PUSH2 0x2314 SWAP1 DUP3 PUSH2 0x5274 JUMP JUMPDEST POP PUSH1 0x60 DUP3 ADD MLOAD DUP1 MLOAD PUSH2 0x2330 SWAP2 PUSH1 0x3 DUP5 ADD SWAP2 PUSH1 0x20 SWAP1 SWAP2 ADD SWAP1 PUSH2 0x45EB JUMP JUMPDEST POP PUSH1 0x80 DUP3 ADD MLOAD DUP1 MLOAD PUSH2 0x234C SWAP2 PUSH1 0x4 DUP5 ADD SWAP2 PUSH1 0x20 SWAP1 SWAP2 ADD SWAP1 PUSH2 0x45EB JUMP JUMPDEST POP POP POP POP POP POP POP POP JUMP JUMPDEST PUSH1 0x60 PUSH1 0xC DUP1 SLOAD DUP1 PUSH1 0x20 MUL PUSH1 0x20 ADD PUSH1 0x40 MLOAD SWAP1 DUP2 ADD PUSH1 0x40 MSTORE DUP1 SWAP3 SWAP2 SWAP1 DUP2 DUP2 MSTORE PUSH1 0x20 ADD PUSH0 SWAP1 JUMPDEST DUP3 DUP3 LT ISZERO PUSH2 0x1934 JUMPI PUSH0 DUP5 DUP2 MSTORE PUSH1 0x20 SWAP1 DUP2 SWAP1 KECCAK256 PUSH1 0x40 DUP1 MLOAD PUSH1 0xC0 DUP2 ADD DUP3 MSTORE PUSH1 0x6 DUP7 MUL SWAP1 SWAP3 ADD DUP1 SLOAD DUP4 MSTORE PUSH1 0x1 DUP1 DUP3 ADD SLOAD DUP5 DUP7 ADD MSTORE PUSH1 0x2 DUP3 ADD SLOAD SWAP3 DUP5 ADD SWAP3 SWAP1 SWAP3 MSTORE PUSH1 0x3 DUP2 ADD SLOAD PUSH1 0x1 PUSH1 0x1 PUSH1 0xA0 SHL SUB AND PUSH1 0x60 DUP5 ADD MSTORE PUSH1 0x4 DUP2 ADD SLOAD PUSH1 0x80 DUP5 ADD MSTORE PUSH1 0x5 ADD SLOAD PUSH1 0xA0 DUP4 ADD MSTORE SWAP1 DUP4 MSTORE SWAP1 SWAP3 ADD SWAP2 ADD PUSH2 0x2379 JUMP JUMPDEST PUSH1 0x60 PUSH1 0x10 DUP1 SLOAD DUP1 PUSH1 0x20 MUL PUSH1 0x20 ADD PUSH1 0x40 MLOAD SWAP1 DUP2 ADD PUSH1 0x40 MSTORE DUP1 SWAP3 SWAP2 SWAP1 DUP2 DUP2 MSTORE PUSH1 0x20 ADD PUSH0 SWAP1 JUMPDEST DUP3 DUP3 LT ISZERO PUSH2 0x1934 JUMPI PUSH0 DUP5 DUP2 MSTORE PUSH1 0x20 SWAP1 DUP2 SWAP1 KECCAK256 PUSH1 0x40 DUP1 MLOAD PUSH2 0x100 DUP2 ADD DUP3 MSTORE PUSH1 0x8 DUP7 MUL SWAP1 SWAP3 ADD DUP1 SLOAD DUP4 MSTORE PUSH1 0x1 DUP1 DUP3 ADD SLOAD DUP5 DUP7 ADD MSTORE PUSH1 0x2 DUP3 ADD SLOAD SWAP3 DUP5 ADD SWAP3 SWAP1 SWAP3 MSTORE PUSH1 0x3 DUP2 ADD SLOAD PUSH1 0x60 DUP5 ADD MSTORE PUSH1 0x4 DUP2 ADD SLOAD PUSH1 0x80 DUP5 ADD MSTORE PUSH1 0x5 DUP2 ADD SLOAD PUSH1 0xA0 DUP5 ADD MSTORE PUSH1 0x6 DUP2 ADD SLOAD PUSH1 0x1 PUSH1 0x1 PUSH1 0xA0 SHL SUB AND PUSH1 0xC0 DUP5 ADD MSTORE PUSH1 0x7 ADD SLOAD PUSH1 0xE0 DUP4 ADD MSTORE SWAP1 DUP4 MSTORE SWAP1 SWAP3 ADD SWAP2 ADD PUSH2 0x240C JUMP JUMPDEST CALLER PUSH0 SWAP1 DUP2 MSTORE PUSH1 0x9 PUSH1 0x20 MSTORE PUSH1 0x40 SWAP1 KECCAK256 DUP1 SLOAD DUP4 SWAP2 SWAP1 DUP6 SWAP1 DUP2 LT PUSH2 0x24B4 JUMPI PUSH2 0x24B4 PUSH2 0x51F1 JUMP JUMPDEST SWAP1 PUSH0 MSTORE PUSH1 0x20 PUSH0 KECCAK256 SWAP1 PUSH1 0x8 MUL ADD PUSH1 0x6 ADD SLOAD LT ISZERO PUSH2 0x2521 JUMPI PUSH1 0x40 MLOAD PUSH3 0x461BCD PUSH1 0xE5 SHL DUP2 MSTORE PUSH1 0x20 PUSH1 0x4 DUP3 ADD MSTORE PUSH1 0x26 PUSH1 0x24 DUP3 ADD MSTORE PUSH32 0xD0A320D0B2D0B0D18120D0BDD0B5D0B4D0BED181D182D0B0D182D0BED187D0BD PUSH1 0x44 DUP3 ADD MSTORE PUSH6 0x342F88139195 PUSH1 0xD2 SHL PUSH1 0x64 DUP3 ADD MSTORE PUSH1 0x84 ADD PUSH2 0x4F3 JUMP JUMPDEST PUSH1 0x40 DUP1 MLOAD PUSH1 0xC0 DUP2 ADD DUP3 MSTORE PUSH1 0xC DUP1 SLOAD DUP1 DUP4 MSTORE PUSH1 0x20 DUP4 ADD SWAP8 DUP9 MSTORE SWAP3 DUP3 ADD SWAP6 DUP7 MSTORE CALLER PUSH1 0x60 DUP4 ADD SWAP1 DUP2 MSTORE PUSH1 0x80 DUP4 ADD SWAP6 DUP7 MSTORE PUSH1 0xA0 DUP4 ADD SWAP5 DUP6 MSTORE PUSH1 0x1 DUP5 ADD DUP3 SSTORE PUSH0 SWAP2 SWAP1 SWAP2 MSTORE SWAP1 MLOAD PUSH32 0xDF6966C971051C3D54EC59162606531493A51404A002842F56009D7E5CF4A8C7 PUSH1 0x6 SWAP1 SWAP4 MUL SWAP3 DUP4 ADD SSTORE SWAP5 MLOAD PUSH32 0xDF6966C971051C3D54EC59162606531493A51404A002842F56009D7E5CF4A8C8 DUP3 ADD SSTORE SWAP3 MLOAD PUSH32 0xDF6966C971051C3D54EC59162606531493A51404A002842F56009D7E5CF4A8C9 DUP5 ADD SSTORE SWAP3 MLOAD PUSH32 0xDF6966C971051C3D54EC59162606531493A51404A002842F56009D7E5CF4A8CA DUP4 ADD DUP1 SLOAD PUSH1 0x1 PUSH1 0x1 PUSH1 0xA0 SHL SUB NOT AND PUSH1 0x1 PUSH1 0x1 PUSH1 0xA0 SHL SUB SWAP1 SWAP3 AND SWAP2 SWAP1 SWAP2 OR SWAP1 SSTORE MLOAD PUSH32 0xDF6966C971051C3D54EC59162606531493A51404A002842F56009D7E5CF4A8CB DUP3 ADD SSTORE SWAP1 MLOAD PUSH32 0xDF6966C971051C3D54EC59162606531493A51404A002842F56009D7E5CF4A8CC SWAP1 SWAP2 ADD SSTORE JUMP JUMPDEST PUSH1 0x4 SLOAD PUSH1 0x1 PUSH1 0x1 PUSH1 0xA0 SHL SUB AND CALLER EQ PUSH2 0x2692 JUMPI PUSH1 0x40 MLOAD PUSH3 0x461BCD PUSH1 0xE5 SHL DUP2 MSTORE PUSH1 0x4 ADD PUSH2 0x4F3 SWAP1 PUSH2 0x5183 JUMP JUMPDEST PUSH0 DUP8 DUP2 MSTORE PUSH1 0x8 PUSH1 0x20 MSTORE PUSH1 0x40 SWAP1 KECCAK256 PUSH1 0x5 ADD SLOAD ISZERO PUSH2 0x270F JUMPI PUSH1 0x40 MLOAD PUSH3 0x461BCD PUSH1 0xE5 SHL DUP2 MSTORE PUSH1 0x20 PUSH1 0x4 DUP3 ADD MSTORE PUSH1 0x36 PUSH1 0x24 DUP3 ADD MSTORE PUSH32 0x4E465420D18120D182D0B0D0BAD0B8D0BC20696420D183D0B6D0B520D0B5D181 PUSH1 0x44 DUP3 ADD MSTORE PUSH22 0xD182D18C20D0B220D181D0B8D181D182D0B5D0BCD0B5 PUSH1 0x50 SHL PUSH1 0x64 DUP3 ADD MSTORE PUSH1 0x84 ADD PUSH2 0x4F3 JUMP JUMPDEST PUSH2 0x2729 CALLER DUP9 DUP5 PUSH1 0x40 MLOAD DUP1 PUSH1 0x20 ADD PUSH1 0x40 MSTORE DUP1 PUSH0 DUP2 MSTORE POP PUSH2 0x403A JUMP JUMPDEST PUSH1 0x40 DUP1 MLOAD PUSH2 0x100 DUP2 ADD DUP3 MSTORE DUP9 DUP2 MSTORE CALLER PUSH0 SWAP1 DUP2 MSTORE PUSH1 0x9 PUSH1 0x20 SWAP1 DUP2 MSTORE DUP4 DUP3 KECCAK256 SLOAD DUP2 DUP5 ADD SWAP1 DUP2 MSTORE DUP4 DUP6 ADD DUP12 DUP2 MSTORE PUSH1 0x60 DUP6 ADD DUP12 SWAP1 MSTORE PUSH1 0x80 DUP6 ADD DUP11 SWAP1 MSTORE PUSH1 0xA0 DUP6 ADD DUP10 SWAP1 MSTORE PUSH1 0xC0 DUP6 ADD DUP9 SWAP1 MSTORE PUSH1 0xE0 DUP6 ADD DUP8 SWAP1 MSTORE DUP13 DUP5 MSTORE PUSH1 0x8 SWAP1 SWAP3 MSTORE SWAP4 SWAP1 SWAP2 KECCAK256 DUP3 MLOAD DUP2 SSTORE SWAP3 MLOAD PUSH1 0x1 DUP5 ADD SSTORE MLOAD SWAP1 SWAP2 SWAP1 PUSH1 0x2 DUP3 ADD SWAP1 PUSH2 0x27A0 SWAP1 DUP3 PUSH2 0x5274 JUMP JUMPDEST POP PUSH1 0x60 DUP3 ADD MLOAD PUSH1 0x3 DUP3 ADD SWAP1 PUSH2 0x27B5 SWAP1 DUP3 PUSH2 0x5274 JUMP JUMPDEST POP PUSH1 0x80 DUP3 ADD MLOAD PUSH1 0x4 DUP3 ADD SWAP1 PUSH2 0x27CA SWAP1 DUP3 PUSH2 0x5274 JUMP JUMPDEST POP PUSH1 0xA0 DUP3 DUP2 ADD MLOAD PUSH1 0x5 DUP4 ADD SSTORE PUSH1 0xC0 DUP1 DUP5 ADD MLOAD PUSH1 0x6 DUP5 ADD SSTORE PUSH1 0xE0 SWAP4 DUP5 ADD MLOAD PUSH1 0x7 SWAP1 SWAP4 ADD SWAP3 SWAP1 SWAP3 SSTORE CALLER PUSH0 SWAP1 DUP2 MSTORE PUSH1 0x9 PUSH1 0x20 DUP2 DUP2 MSTORE PUSH1 0x40 DUP1 DUP5 KECCAK256 DUP2 MLOAD PUSH2 0x100 DUP2 ADD DUP4 MSTORE DUP16 DUP2 MSTORE SWAP4 DUP4 MSTORE DUP1 SLOAD DUP5 DUP5 ADD DUP2 DUP2 MSTORE SWAP3 DUP6 ADD DUP16 DUP2 MSTORE PUSH1 0x60 DUP7 ADD DUP16 SWAP1 MSTORE PUSH1 0x80 DUP7 ADD DUP15 SWAP1 MSTORE SWAP7 DUP6 ADD DUP13 SWAP1 MSTORE SWAP7 DUP5 ADD DUP11 SWAP1 MSTORE SWAP7 DUP4 ADD DUP9 SWAP1 MSTORE PUSH1 0x1 DUP1 DUP8 ADD DUP9 SSTORE SWAP7 DUP5 MSTORE SWAP3 KECCAK256 DUP2 MLOAD PUSH1 0x8 SWAP1 SWAP6 MUL ADD SWAP4 DUP5 SSTORE SWAP1 MLOAD SWAP4 DUP4 ADD SWAP4 SWAP1 SWAP4 SSTORE MLOAD PUSH1 0x2 DUP3 ADD SWAP1 PUSH2 0x286E SWAP1 DUP3 PUSH2 0x5274 JUMP JUMPDEST POP PUSH1 0x60 DUP3 ADD MLOAD PUSH1 0x3 DUP3 ADD SWAP1 PUSH2 0x2883 SWAP1 DUP3 PUSH2 0x5274 JUMP JUMPDEST POP PUSH1 0x80 DUP3 ADD MLOAD PUSH1 0x4 DUP3 ADD SWAP1 PUSH2 0x2898 SWAP1 DUP3 PUSH2 0x5274 JUMP JUMPDEST POP PUSH1 0xA0 DUP3 ADD MLOAD DUP2 PUSH1 0x5 ADD SSTORE PUSH1 0xC0 DUP3 ADD MLOAD DUP2 PUSH1 0x6 ADD SSTORE PUSH1 0xE0 DUP3 ADD MLOAD DUP2 PUSH1 0x7 ADD SSTORE POP POP POP POP POP POP POP POP POP JUMP JUMPDEST CALLER PUSH1 0x1 PUSH1 0x1 PUSH1 0xA0 SHL SUB AND PUSH1 0xC DUP4 DUP2 SLOAD DUP2 LT PUSH2 0x28DF JUMPI PUSH2 0x28DF PUSH2 0x51F1 JUMP JUMPDEST PUSH0 SWAP2 DUP3 MSTORE PUSH1 0x20 SWAP1 SWAP2 KECCAK256 PUSH1 0x3 PUSH1 0x6 SWAP1 SWAP3 MUL ADD ADD SLOAD PUSH1 0x1 PUSH1 0x1 PUSH1 0xA0 SHL SUB AND EQ PUSH2 0x2948 JUMPI PUSH1 0x40 MLOAD PUSH3 0x461BCD PUSH1 0xE5 SHL DUP2 MSTORE PUSH1 0x20 PUSH1 0x4 DUP3 ADD MSTORE PUSH1 0x19 PUSH1 0x24 DUP3 ADD MSTORE PUSH32 0xD0ADD182D0BE20D0BDD0B520D0B2D0B0D18820D0BBD0BED18200000000000000 PUSH1 0x44 DUP3 ADD MSTORE PUSH1 0x64 ADD PUSH2 0x4F3 JUMP JUMPDEST PUSH1 0x3 SLOAD PUSH2 0x2955 SWAP1 DUP3 PUSH2 0x5219 JUMP JUMPDEST PUSH1 0xC DUP4 DUP2 SLOAD DUP2 LT PUSH2 0x2968 JUMPI PUSH2 0x2968 PUSH2 0x51F1 JUMP JUMPDEST SWAP1 PUSH0 MSTORE PUSH1 0x20 PUSH0 KECCAK256 SWAP1 PUSH1 0x6 MUL ADD PUSH1 0x5 ADD DUP2 SWAP1 SSTORE POP POP POP JUMP JUMPDEST PUSH1 0x4 SLOAD PUSH1 0x1 PUSH1 0x1 PUSH1 0xA0 SHL SUB AND CALLER EQ PUSH2 0x29A9 JUMPI PUSH1 0x40 MLOAD PUSH3 0x461BCD PUSH1 0xE5 SHL DUP2 MSTORE PUSH1 0x4 ADD PUSH2 0x4F3 SWAP1 PUSH2 0x5183 JUMP JUMPDEST PUSH0 JUMPDEST PUSH1 0x10 SLOAD DUP2 LT ISZERO PUSH2 0x2A64 JUMPI DUP8 PUSH1 0x10 DUP3 DUP2 SLOAD DUP2 LT PUSH2 0x29C9 JUMPI PUSH2 0x29C9 PUSH2 0x51F1 JUMP JUMPDEST SWAP1 PUSH0 MSTORE PUSH1 0x20 PUSH0 KECCAK256 SWAP1 PUSH1 0x8 MUL ADD PUSH1 0x1 ADD SLOAD SUB PUSH2 0x2A5C JUMPI PUSH1 0x40 MLOAD PUSH3 0x461BCD PUSH1 0xE5 SHL DUP2 MSTORE PUSH1 0x20 PUSH1 0x4 DUP3 ADD MSTORE PUSH1 0x47 PUSH1 0x24 DUP3 ADD MSTORE PUSH32 0xD090D183D0BAD186D0B8D0BED0BD20D18120D182D0B0D0BAD0BED0B920D0BAD0 PUSH1 0x44 DUP3 ADD MSTORE PUSH32 0xBED0BBD0BBD0B5D0BAD186D0B8D0B5D0B920D183D0B6D0B520D0B7D0B0D0BFD1 PUSH1 0x64 DUP3 ADD MSTORE PUSH7 0x83D189D0B5D0BD PUSH1 0xC8 SHL PUSH1 0x84 DUP3 ADD MSTORE PUSH1 0xA4 ADD PUSH2 0x4F3 JUMP JUMPDEST PUSH1 0x1 ADD PUSH2 0x29AB JUMP JUMPDEST POP PUSH1 0x40 DUP1 MLOAD PUSH2 0x100 DUP2 ADD DUP3 MSTORE PUSH1 0x10 DUP1 SLOAD DUP1 DUP4 MSTORE PUSH1 0x20 DUP4 ADD SWAP11 DUP12 MSTORE SWAP3 DUP3 ADD SWAP9 DUP10 MSTORE PUSH1 0x60 DUP3 ADD SWAP8 DUP9 MSTORE PUSH1 0x80 DUP3 ADD SWAP7 DUP8 MSTORE PUSH1 0xA0 DUP3 ADD SWAP6 DUP7 MSTORE PUSH1 0x1 PUSH1 0x1 PUSH1 0xA0 SHL SUB SWAP5 DUP6 AND PUSH1 0xC0 DUP4 ADD SWAP1 DUP2 MSTORE PUSH1 0xE0 DUP4 ADD SWAP5 DUP6 MSTORE PUSH1 0x1 DUP5 ADD DUP3 SSTORE PUSH0 SWAP2 SWAP1 SWAP2 MSTORE SWAP1 MLOAD PUSH32 0x1B6847DC741A1B0CD08D278845F9D819D87B734759AFB55FE2DE5CB82A9AE672 PUSH1 0x8 SWAP1 SWAP4 MUL SWAP3 DUP4 ADD SSTORE SWAP8 MLOAD PUSH32 0x1B6847DC741A1B0CD08D278845F9D819D87B734759AFB55FE2DE5CB82A9AE673 DUP3 ADD SSTORE SWAP6 MLOAD PUSH32 0x1B6847DC741A1B0CD08D278845F9D819D87B734759AFB55FE2DE5CB82A9AE674 DUP8 ADD SSTORE SWAP4 MLOAD PUSH32 0x1B6847DC741A1B0CD08D278845F9D819D87B734759AFB55FE2DE5CB82A9AE675 DUP7 ADD SSTORE SWAP2 MLOAD PUSH32 0x1B6847DC741A1B0CD08D278845F9D819D87B734759AFB55FE2DE5CB82A9AE676 DUP6 ADD SSTORE MLOAD PUSH32 0x1B6847DC741A1B0CD08D278845F9D819D87B734759AFB55FE2DE5CB82A9AE677 DUP5 ADD SSTORE SWAP3 MLOAD PUSH32 0x1B6847DC741A1B0CD08D278845F9D819D87B734759AFB55FE2DE5CB82A9AE678 DUP4 ADD DUP1 SLOAD PUSH1 0x1 PUSH1 0x1 PUSH1 0xA0 SHL SUB NOT AND SWAP2 SWAP1 SWAP5 AND OR SWAP1 SWAP3 SSTORE SWAP1 MLOAD PUSH32 0x1B6847DC741A1B0CD08D278845F9D819D87B734759AFB55FE2DE5CB82A9AE679 SWAP1 SWAP2 ADD SSTORE JUMP JUMPDEST DUP1 PUSH1 0x40 MLOAD PUSH1 0x20 ADD PUSH2 0x2C19 SWAP2 SWAP1 PUSH2 0x5397 JUMP JUMPDEST PUSH1 0x40 MLOAD PUSH1 0x20 DUP2 DUP4 SUB SUB DUP2 MSTORE SWAP1 PUSH1 0x40 MSTORE DUP1 MLOAD SWAP1 PUSH1 0x20 ADD KECCAK256 PUSH1 0x6 DUP3 PUSH1 0x40 MLOAD PUSH2 0x2C3F SWAP2 SWAP1 PUSH2 0x5397 JUMP JUMPDEST SWAP1 DUP2 MSTORE PUSH1 0x40 MLOAD PUSH1 0x20 SWAP2 DUP2 SWAP1 SUB DUP3 ADD DUP2 KECCAK256 PUSH2 0x2C5B SWAP3 SWAP1 SWAP2 ADD PUSH2 0x5408 JUMP JUMPDEST PUSH1 0x40 MLOAD PUSH1 0x20 DUP2 DUP4 SUB SUB DUP2 MSTORE SWAP1 PUSH1 0x40 MSTORE DUP1 MLOAD SWAP1 PUSH1 0x20 ADD KECCAK256 EQ PUSH2 0x2CF4 JUMPI PUSH1 0x40 MLOAD PUSH3 0x461BCD PUSH1 0xE5 SHL DUP2 MSTORE PUSH1 0x20 PUSH1 0x4 DUP3 ADD MSTORE PUSH1 0x47 PUSH1 0x24 DUP3 ADD MSTORE PUSH32 0xD0A2D0B0D0BAD0BED0B3D0BE20D180D0B5D184D0B5D180D0B0D0BBD18CD0BDD0 PUSH1 0x44 DUP3 ADD MSTORE PUSH32 0xBED0B3D0BE20D0BAD0BED0B4D0B020D0BDD0B5D18220D0B220D181D0B8D181D1 PUSH1 0x64 DUP3 ADD MSTORE PUSH7 0x82D0B5D0BCD0B5 PUSH1 0xC8 SHL PUSH1 0x84 DUP3 ADD MSTORE PUSH1 0xA4 ADD PUSH2 0x4F3 JUMP JUMPDEST CALLER PUSH0 SWAP1 DUP2 MSTORE PUSH1 0x7 PUSH1 0x20 MSTORE PUSH1 0x40 SWAP1 KECCAK256 SLOAD PUSH1 0xFF AND ISZERO ISZERO PUSH1 0x1 SUB PUSH2 0x2D6B JUMPI PUSH1 0x40 MLOAD PUSH3 0x461BCD PUSH1 0xE5 SHL DUP2 MSTORE PUSH1 0x20 PUSH1 0x4 DUP3 ADD MSTORE PUSH1 0x2B PUSH1 0x24 DUP3 ADD MSTORE PUSH32 0xD092D18B20D183D0B6D0B520D0B8D181D0BFD0BED0BBD18CD0B7D0BED0B2D0B0 PUSH1 0x44 DUP3 ADD MSTORE PUSH11 0x342EF42E08342EB42FB42D PUSH1 0xAA SHL PUSH1 0x64 DUP3 ADD MSTORE PUSH1 0x84 ADD PUSH2 0x4F3 JUMP JUMPDEST PUSH1 0x5 PUSH0 SWAP1 SLOAD SWAP1 PUSH2 0x100 EXP SWAP1 DIV PUSH1 0x1 PUSH1 0x1 PUSH1 0xA0 SHL SUB AND PUSH1 0x1 PUSH1 0x1 PUSH1 0xA0 SHL SUB AND PUSH4 0x5CD07EE6 PUSH1 0x40 MLOAD DUP2 PUSH4 0xFFFFFFFF AND PUSH1 0xE0 SHL DUP2 MSTORE PUSH1 0x4 ADD PUSH0 PUSH1 0x40 MLOAD DUP1 DUP4 SUB DUP2 PUSH0 DUP8 DUP1 EXTCODESIZE ISZERO DUP1 ISZERO PUSH2 0x2DB7 JUMPI PUSH0 DUP1 REVERT JUMPDEST POP GAS CALL ISZERO DUP1 ISZERO PUSH2 0x2DC9 JUMPI RETURNDATASIZE PUSH0 DUP1 RETURNDATACOPY RETURNDATASIZE PUSH0 REVERT JUMPDEST POP POP CALLER PUSH0 SWAP1 DUP2 MSTORE PUSH1 0x7 PUSH1 0x20 MSTORE PUSH1 0x40 SWAP1 DUP2 SWAP1 KECCAK256 DUP1 SLOAD PUSH1 0xFF NOT AND PUSH1 0x1 OR SWAP1 SSTORE MLOAD PUSH1 0x6 SWAP3 POP PUSH2 0x2DF7 SWAP2 POP DUP4 SWAP1 PUSH2 0x5397 JUMP JUMPDEST SWAP1 DUP2 MSTORE PUSH1 0x20 ADD PUSH1 0x40 MLOAD DUP1 SWAP2 SUB SWAP1 KECCAK256 PUSH1 0x2 ADD SLOAD PUSH1 0x1 PUSH2 0x2E15 SWAP2 SWAP1 PUSH2 0x547A JUMP JUMPDEST PUSH1 0x6 DUP3 PUSH1 0x40 MLOAD PUSH2 0x2E25 SWAP2 SWAP1 PUSH2 0x5397 JUMP JUMPDEST SWAP1 DUP2 MSTORE PUSH1 0x40 MLOAD SWAP1 DUP2 SWAP1 SUB PUSH1 0x20 ADD SWAP1 KECCAK256 PUSH1 0x2 ADD SSTORE POP JUMP JUMPDEST PUSH2 0x2E46 CALLER DUP4 DUP4 PUSH2 0x4095 JUMP JUMPDEST POP POP JUMP JUMPDEST PUSH1 0x60 PUSH1 0xD DUP1 SLOAD DUP1 PUSH1 0x20 MUL PUSH1 0x20 ADD PUSH1 0x40 MLOAD SWAP1 DUP2 ADD PUSH1 0x40 MSTORE DUP1 SWAP3 SWAP2 SWAP1 DUP2 DUP2 MSTORE PUSH1 0x20 ADD PUSH0 SWAP1 JUMPDEST DUP3 DUP3 LT ISZERO PUSH2 0x1934 JUMPI DUP4 DUP3 SWAP1 PUSH0 MSTORE PUSH1 0x20 PUSH0 KECCAK256 SWAP1 PUSH1 0x3 MUL ADD PUSH1 0x40 MLOAD DUP1 PUSH1 0x60 ADD PUSH1 0x40 MSTORE SWAP1 DUP2 PUSH0 DUP3 ADD DUP1 SLOAD PUSH2 0x2E9D SWAP1 PUSH2 0x514B JUMP JUMPDEST DUP1 PUSH1 0x1F ADD PUSH1 0x20 DUP1 SWAP2 DIV MUL PUSH1 0x20 ADD PUSH1 0x40 MLOAD SWAP1 DUP2 ADD PUSH1 0x40 MSTORE DUP1 SWAP3 SWAP2 SWAP1 DUP2 DUP2 MSTORE PUSH1 0x20 ADD DUP3 DUP1 SLOAD PUSH2 0x2EC9 SWAP1 PUSH2 0x514B JUMP JUMPDEST DUP1 ISZERO PUSH2 0x2F14 JUMPI DUP1 PUSH1 0x1F LT PUSH2 0x2EEB JUMPI PUSH2 0x100 DUP1 DUP4 SLOAD DIV MUL DUP4 MSTORE SWAP2 PUSH1 0x20 ADD SWAP2 PUSH2 0x2F14 JUMP JUMPDEST DUP3 ADD SWAP2 SWAP1 PUSH0 MSTORE PUSH1 0x20 PUSH0 KECCAK256 SWAP1 JUMPDEST DUP2 SLOAD DUP2 MSTORE SWAP1 PUSH1 0x1 ADD SWAP1 PUSH1 0x20 ADD DUP1 DUP4 GT PUSH2 0x2EF7 JUMPI DUP3 SWAP1 SUB PUSH1 0x1F AND DUP3 ADD SWAP2 JUMPDEST POP POP POP SWAP2 DUP4 MSTORE POP POP PUSH1 0x1 DUP3 DUP2 ADD SLOAD PUSH1 0x1 PUSH1 0x1 PUSH1 0xA0 SHL SUB AND PUSH1 0x20 DUP1 DUP5 ADD SWAP2 SWAP1 SWAP2 MSTORE PUSH1 0x2 SWAP1 SWAP4 ADD SLOAD PUSH1 0x40 SWAP1 SWAP3 ADD SWAP2 SWAP1 SWAP2 MSTORE SWAP2 DUP4 MSTORE SWAP3 ADD SWAP2 ADD PUSH2 0x2E6D JUMP JUMPDEST PUSH1 0x10 DUP3 DUP2 SLOAD DUP2 LT PUSH2 0x2F62 JUMPI PUSH2 0x2F62 PUSH2 0x51F1 JUMP JUMPDEST SWAP1 PUSH0 MSTORE PUSH1 0x20 PUSH0 KECCAK256 SWAP1 PUSH1 0x8 MUL ADD PUSH1 0x4 ADD SLOAD DUP1 PUSH0 SUB PUSH2 0x2F91 JUMPI PUSH1 0x40 MLOAD PUSH3 0x461BCD PUSH1 0xE5 SHL DUP2 MSTORE PUSH1 0x4 ADD PUSH2 0x4F3 SWAP1 PUSH2 0x53B2 JUMP JUMPDEST PUSH1 0xA DUP3 LT ISZERO PUSH2 0x2FF9 JUMPI PUSH1 0x40 MLOAD PUSH3 0x461BCD PUSH1 0xE5 SHL DUP2 MSTORE PUSH1 0x20 PUSH1 0x4 DUP3 ADD MSTORE PUSH1 0x2E PUSH1 0x24 DUP3 ADD MSTORE PUSH32 0xD09CD0B8D0BDD0B8D0BCD0B0D0BBD18CD0BDD0B0D18F20D181D182D0B0D0B2D0 PUSH1 0x44 DUP3 ADD MSTORE PUSH14 0xBAD0B0202D2031302050524F4649 PUSH1 0x90 SHL PUSH1 0x64 DUP3 ADD MSTORE PUSH1 0x84 ADD PUSH2 0x4F3 JUMP JUMPDEST CALLER PUSH1 0x1 PUSH1 0x1 PUSH1 0xA0 SHL SUB AND PUSH1 0x10 DUP5 DUP2 SLOAD DUP2 LT PUSH2 0x3016 JUMPI PUSH2 0x3016 PUSH2 0x51F1 JUMP JUMPDEST PUSH0 SWAP2 DUP3 MSTORE PUSH1 0x20 SWAP1 SWAP2 KECCAK256 PUSH1 0x6 PUSH1 0x8 SWAP1 SWAP3 MUL ADD ADD SLOAD PUSH1 0x1 PUSH1 0x1 PUSH1 0xA0 SHL SUB AND SUB PUSH2 0x3078 JUMPI PUSH1 0x40 MLOAD PUSH3 0x461BCD PUSH1 0xE5 SHL DUP2 MSTORE PUSH1 0x20 PUSH1 0x4 DUP3 ADD MSTORE PUSH1 0x16 PUSH1 0x24 DUP3 ADD MSTORE PUSH22 0x1A125A31641A307A16DA16A41A177A171A169A16BA3 PUSH1 0x57 SHL PUSH1 0x44 DUP3 ADD MSTORE PUSH1 0x64 ADD PUSH2 0x4F3 JUMP JUMPDEST PUSH0 JUMPDEST PUSH0 DUP5 DUP2 MSTORE PUSH1 0xB PUSH1 0x20 MSTORE PUSH1 0x40 SWAP1 KECCAK256 SLOAD DUP2 LT ISZERO PUSH2 0x11D7 JUMPI PUSH0 DUP5 DUP2 MSTORE PUSH1 0xB PUSH1 0x20 MSTORE PUSH1 0x40 SWAP1 KECCAK256 DUP1 SLOAD CALLER SWAP2 SWAP1 DUP4 SWAP1 DUP2 LT PUSH2 0x30B1 JUMPI PUSH2 0x30B1 PUSH2 0x51F1 JUMP JUMPDEST PUSH0 SWAP2 DUP3 MSTORE PUSH1 0x20 SWAP1 SWAP2 KECCAK256 PUSH1 0x1 PUSH1 0x2 SWAP1 SWAP3 MUL ADD ADD SLOAD PUSH1 0x1 PUSH1 0x1 PUSH1 0xA0 SHL SUB AND SUB PUSH2 0x330A JUMPI PUSH1 0x3 SLOAD PUSH2 0x30DF SWAP1 DUP5 PUSH2 0x5219 JUMP JUMPDEST PUSH0 DUP6 DUP2 MSTORE PUSH1 0xB PUSH1 0x20 MSTORE PUSH1 0x40 SWAP1 KECCAK256 DUP1 SLOAD DUP4 SWAP1 DUP2 LT PUSH2 0x30FE JUMPI PUSH2 0x30FE PUSH2 0x51F1 JUMP JUMPDEST SWAP1 PUSH0 MSTORE PUSH1 0x20 PUSH0 KECCAK256 SWAP1 PUSH1 0x2 MUL ADD PUSH0 ADD PUSH0 DUP3 DUP3 SLOAD PUSH2 0x311A SWAP2 SWAP1 PUSH2 0x547A JUMP JUMPDEST SWAP1 SWAP2 SSTORE POP POP PUSH1 0x5 SLOAD PUSH1 0x4 DUP1 SLOAD PUSH1 0x40 MLOAD PUSH4 0x7AA9BF6F PUSH1 0xE1 SHL DUP2 MSTORE CALLER SWAP3 DUP2 ADD SWAP3 SWAP1 SWAP3 MSTORE PUSH1 0x1 PUSH1 0x1 PUSH1 0xA0 SHL SUB SWAP1 DUP2 AND PUSH1 0x24 DUP4 ADD MSTORE PUSH1 0x44 DUP3 ADD DUP7 SWAP1 MSTORE SWAP1 SWAP2 AND SWAP1 PUSH4 0xF5537EDE SWAP1 PUSH1 0x64 ADD PUSH0 PUSH1 0x40 MLOAD DUP1 DUP4 SUB DUP2 PUSH0 DUP8 DUP1 EXTCODESIZE ISZERO DUP1 ISZERO PUSH2 0x3176 JUMPI PUSH0 DUP1 REVERT JUMPDEST POP GAS CALL ISZERO DUP1 ISZERO PUSH2 0x3188 JUMPI RETURNDATASIZE PUSH0 DUP1 RETURNDATACOPY RETURNDATASIZE PUSH0 REVERT JUMPDEST POP POP POP POP PUSH1 0x10 DUP5 DUP2 SLOAD DUP2 LT PUSH2 0x319F JUMPI PUSH2 0x319F PUSH2 0x51F1 JUMP JUMPDEST SWAP1 PUSH0 MSTORE PUSH1 0x20 PUSH0 KECCAK256 SWAP1 PUSH1 0x8 MUL ADD PUSH1 0x7 ADD SLOAD PUSH1 0xB PUSH0 DUP7 DUP2 MSTORE PUSH1 0x20 ADD SWAP1 DUP2 MSTORE PUSH1 0x20 ADD PUSH0 KECCAK256 DUP3 DUP2 SLOAD DUP2 LT PUSH2 0x31D1 JUMPI PUSH2 0x31D1 PUSH2 0x51F1 JUMP JUMPDEST SWAP1 PUSH0 MSTORE PUSH1 0x20 PUSH0 KECCAK256 SWAP1 PUSH1 0x2 MUL ADD PUSH0 ADD SLOAD GT ISZERO PUSH2 0x3281 JUMPI PUSH0 DUP5 DUP2 MSTORE PUSH1 0xB PUSH1 0x20 MSTORE PUSH1 0x40 SWAP1 KECCAK256 DUP1 SLOAD DUP3 SWAP1 DUP2 LT PUSH2 0x3205 JUMPI PUSH2 0x3205 PUSH2 0x51F1 JUMP JUMPDEST SWAP1 PUSH0 MSTORE PUSH1 0x20 PUSH0 KECCAK256 SWAP1 PUSH1 0x2 MUL ADD PUSH0 ADD SLOAD PUSH1 0x10 DUP6 DUP2 SLOAD DUP2 LT PUSH2 0x3227 JUMPI PUSH2 0x3227 PUSH2 0x51F1 JUMP JUMPDEST SWAP1 PUSH0 MSTORE PUSH1 0x20 PUSH0 KECCAK256 SWAP1 PUSH1 0x8 MUL ADD PUSH1 0x7 ADD DUP2 SWAP1 SSTORE POP CALLER PUSH1 0x10 DUP6 DUP2 SLOAD DUP2 LT PUSH2 0x324E JUMPI PUSH2 0x324E PUSH2 0x51F1 JUMP JUMPDEST SWAP1 PUSH0 MSTORE PUSH1 0x20 PUSH0 KECCAK256 SWAP1 PUSH1 0x8 MUL ADD PUSH1 0x6 ADD PUSH0 PUSH2 0x100 EXP DUP2 SLOAD DUP2 PUSH1 0x1 PUSH1 0x1 PUSH1 0xA0 SHL SUB MUL NOT AND SWAP1 DUP4 PUSH1 0x1 PUSH1 0x1 PUSH1 0xA0 SHL SUB AND MUL OR SWAP1 SSTORE POP JUMPDEST PUSH1 0x10 DUP5 DUP2 SLOAD DUP2 LT PUSH2 0x3294 JUMPI PUSH2 0x3294 PUSH2 0x51F1 JUMP JUMPDEST SWAP1 PUSH0 MSTORE PUSH1 0x20 PUSH0 KECCAK256 SWAP1 PUSH1 0x8 MUL ADD PUSH1 0x4 ADD SLOAD PUSH1 0xB PUSH0 DUP7 DUP2 MSTORE PUSH1 0x20 ADD SWAP1 DUP2 MSTORE PUSH1 0x20 ADD PUSH0 KECCAK256 DUP3 DUP2 SLOAD DUP2 LT PUSH2 0x32C6 JUMPI PUSH2 0x32C6 PUSH2 0x51F1 JUMP JUMPDEST SWAP1 PUSH0 MSTORE PUSH1 0x20 PUSH0 KECCAK256 SWAP1 PUSH1 0x2 MUL ADD PUSH0 ADD SLOAD LT PUSH2 0x330A JUMPI PUSH0 PUSH1 0x10 DUP6 DUP2 SLOAD DUP2 LT PUSH2 0x32EE JUMPI PUSH2 0x32EE PUSH2 0x51F1 JUMP JUMPDEST SWAP1 PUSH0 MSTORE PUSH1 0x20 PUSH0 KECCAK256 SWAP1 PUSH1 0x8 MUL ADD PUSH1 0x4 ADD DUP2 SWAP1 SSTORE POP PUSH2 0x330A DUP5 PUSH2 0x35C6 JUMP JUMPDEST PUSH1 0x1 ADD PUSH2 0x307A JUMP JUMPDEST PUSH1 0x1 PUSH1 0x1 PUSH1 0xA0 SHL SUB SWAP2 DUP3 AND PUSH0 SWAP1 DUP2 MSTORE PUSH1 0x1 PUSH1 0x20 SWAP1 DUP2 MSTORE PUSH1 0x40 DUP1 DUP4 KECCAK256 SWAP4 SWAP1 SWAP5 AND DUP3 MSTORE SWAP2 SWAP1 SWAP2 MSTORE KECCAK256 SLOAD PUSH1 0xFF AND SWAP1 JUMP JUMPDEST CALLER PUSH1 0x1 PUSH1 0x1 PUSH1 0xA0 SHL SUB DUP7 AND DUP2 EQ DUP1 ISZERO SWAP1 PUSH2 0x3360 JUMPI POP PUSH2 0x335E DUP7 DUP3 PUSH2 0x3312 JUMP JUMPDEST ISZERO JUMPDEST ISZERO PUSH2 0x3391 JUMPI PUSH1 0x40 MLOAD PUSH4 0x711BEC91 PUSH1 0xE1 SHL DUP2 MSTORE PUSH1 0x1 PUSH1 0x1 PUSH1 0xA0 SHL SUB DUP1 DUP4 AND PUSH1 0x4 DUP4 ADD MSTORE DUP8 AND PUSH1 0x24 DUP3 ADD MSTORE PUSH1 0x44 ADD PUSH2 0x4F3 JUMP JUMPDEST PUSH2 0xDCC DUP7 DUP7 DUP7 DUP7 DUP7 PUSH2 0x3F78 JUMP JUMPDEST PUSH1 0x60 PUSH1 0xF DUP1 SLOAD DUP1 PUSH1 0x20 MUL PUSH1 0x20 ADD PUSH1 0x40 MLOAD SWAP1 DUP2 ADD PUSH1 0x40 MSTORE DUP1 SWAP3 SWAP2 SWAP1 DUP2 DUP2 MSTORE PUSH1 0x20 ADD PUSH0 SWAP1 JUMPDEST DUP3 DUP3 LT ISZERO PUSH2 0x1934 JUMPI DUP4 DUP3 SWAP1 PUSH0 MSTORE PUSH1 0x20 PUSH0 KECCAK256 SWAP1 PUSH1 0x5 MUL ADD PUSH1 0x40 MLOAD DUP1 PUSH1 0xA0 ADD PUSH1 0x40 MSTORE SWAP1 DUP2 PUSH0 DUP3 ADD SLOAD DUP2 MSTORE PUSH1 0x20 ADD PUSH1 0x1 DUP3 ADD DUP1 SLOAD PUSH2 0x33FB SWAP1 PUSH2 0x514B JUMP JUMPDEST DUP1 PUSH1 0x1F ADD PUSH1 0x20 DUP1 SWAP2 DIV MUL PUSH1 0x20 ADD PUSH1 0x40 MLOAD SWAP1 DUP2 ADD PUSH1 0x40 MSTORE DUP1 SWAP3 SWAP2 SWAP1 DUP2 DUP2 MSTORE PUSH1 0x20 ADD DUP3 DUP1 SLOAD PUSH2 0x3427 SWAP1 PUSH2 0x514B JUMP JUMPDEST DUP1 ISZERO PUSH2 0x3472 JUMPI DUP1 PUSH1 0x1F LT PUSH2 0x3449 JUMPI PUSH2 0x100 DUP1 DUP4 SLOAD DIV MUL DUP4 MSTORE SWAP2 PUSH1 0x20 ADD SWAP2 PUSH2 0x3472 JUMP JUMPDEST DUP3 ADD SWAP2 SWAP1 PUSH0 MSTORE PUSH1 0x20 PUSH0 KECCAK256 SWAP1 JUMPDEST DUP2 SLOAD DUP2 MSTORE SWAP1 PUSH1 0x1 ADD SWAP1 PUSH1 0x20 ADD DUP1 DUP4 GT PUSH2 0x3455 JUMPI DUP3 SWAP1 SUB PUSH1 0x1F AND DUP3 ADD SWAP2 JUMPDEST POP POP POP POP POP DUP2 MSTORE PUSH1 0x20 ADD PUSH1 0x2 DUP3 ADD DUP1 SLOAD PUSH2 0x348B SWAP1 PUSH2 0x514B JUMP JUMPDEST DUP1 PUSH1 0x1F ADD PUSH1 0x20 DUP1 SWAP2 DIV MUL PUSH1 0x20 ADD PUSH1 0x40 MLOAD SWAP1 DUP2 ADD PUSH1 0x40 MSTORE DUP1 SWAP3 SWAP2 SWAP1 DUP2 DUP2 MSTORE PUSH1 0x20 ADD DUP3 DUP1 SLOAD PUSH2 0x34B7 SWAP1 PUSH2 0x514B JUMP JUMPDEST DUP1 ISZERO PUSH2 0x3502 JUMPI DUP1 PUSH1 0x1F LT PUSH2 0x34D9 JUMPI PUSH2 0x100 DUP1 DUP4 SLOAD DIV MUL DUP4 MSTORE SWAP2 PUSH1 0x20 ADD SWAP2 PUSH2 0x3502 JUMP JUMPDEST DUP3 ADD SWAP2 SWAP1 PUSH0 MSTORE PUSH1 0x20 PUSH0 KECCAK256 SWAP1 JUMPDEST DUP2 SLOAD DUP2 MSTORE SWAP1 PUSH1 0x1 ADD SWAP1 PUSH1 0x20 ADD DUP1 DUP4 GT PUSH2 0x34E5 JUMPI DUP3 SWAP1 SUB PUSH1 0x1F AND DUP3 ADD SWAP2 JUMPDEST POP POP POP POP POP DUP2 MSTORE PUSH1 0x20 ADD PUSH1 0x3 DUP3 ADD DUP1 SLOAD DUP1 PUSH1 0x20 MUL PUSH1 0x20 ADD PUSH1 0x40 MLOAD SWAP1 DUP2 ADD PUSH1 0x40 MSTORE DUP1 SWAP3 SWAP2 SWAP1 DUP2 DUP2 MSTORE PUSH1 0x20 ADD DUP3 DUP1 SLOAD DUP1 ISZERO PUSH2 0x3558 JUMPI PUSH1 0x20 MUL DUP3 ADD SWAP2 SWAP1 PUSH0 MSTORE PUSH1 0x20 PUSH0 KECCAK256 SWAP1 JUMPDEST DUP2 SLOAD DUP2 MSTORE PUSH1 0x20 ADD SWAP1 PUSH1 0x1 ADD SWAP1 DUP1 DUP4 GT PUSH2 0x3544 JUMPI JUMPDEST POP POP POP POP POP DUP2 MSTORE PUSH1 0x20 ADD PUSH1 0x4 DUP3 ADD DUP1 SLOAD DUP1 PUSH1 0x20 MUL PUSH1 0x20 ADD PUSH1 0x40 MLOAD SWAP1 DUP2 ADD PUSH1 0x40 MSTORE DUP1 SWAP3 SWAP2 SWAP1 DUP2 DUP2 MSTORE PUSH1 0x20 ADD DUP3 DUP1 SLOAD DUP1 ISZERO PUSH2 0x35AE JUMPI PUSH1 0x20 MUL DUP3 ADD SWAP2 SWAP1 PUSH0 MSTORE PUSH1 0x20 PUSH0 KECCAK256 SWAP1 JUMPDEST DUP2 SLOAD DUP2 MSTORE PUSH1 0x20 ADD SWAP1 PUSH1 0x1 ADD SWAP1 DUP1 DUP4 GT PUSH2 0x359A JUMPI JUMPDEST POP POP POP POP POP DUP2 MSTORE POP POP DUP2 MSTORE PUSH1 0x20 ADD SWAP1 PUSH1 0x1 ADD SWAP1 PUSH2 0x33C1 JUMP JUMPDEST PUSH1 0x4 SLOAD PUSH1 0x1 PUSH1 0x1 PUSH1 0xA0 SHL SUB AND CALLER EQ PUSH2 0x35F0 JUMPI PUSH1 0x40 MLOAD PUSH3 0x461BCD PUSH1 0xE5 SHL DUP2 MSTORE PUSH1 0x4 ADD PUSH2 0x4F3 SWAP1 PUSH2 0x5183 JUMP JUMPDEST PUSH1 0x10 DUP2 DUP2 SLOAD DUP2 LT PUSH2 0x3603 JUMPI PUSH2 0x3603 PUSH2 0x51F1 JUMP JUMPDEST SWAP1 PUSH0 MSTORE PUSH1 0x20 PUSH0 KECCAK256 SWAP1 PUSH1 0x8 MUL ADD PUSH1 0x4 ADD SLOAD DUP1 PUSH0 SUB PUSH2 0x3632 JUMPI PUSH1 0x40 MLOAD PUSH3 0x461BCD PUSH1 0xE5 SHL DUP2 MSTORE PUSH1 0x4 ADD PUSH2 0x4F3 SWAP1 PUSH2 0x53B2 JUMP JUMPDEST PUSH1 0x10 DUP3 DUP2 SLOAD DUP2 LT PUSH2 0x3645 JUMPI PUSH2 0x3645 PUSH2 0x51F1 JUMP JUMPDEST SWAP1 PUSH0 MSTORE PUSH1 0x20 PUSH0 KECCAK256 SWAP1 PUSH1 0x8 MUL ADD PUSH1 0x4 ADD SLOAD PUSH0 EQ DUP1 PUSH2 0x3698 JUMPI POP PUSH0 PUSH1 0x1 PUSH1 0x1 PUSH1 0xA0 SHL SUB AND PUSH1 0x10 DUP4 DUP2 SLOAD DUP2 LT PUSH2 0x367A JUMPI PUSH2 0x367A PUSH2 0x51F1 JUMP JUMPDEST PUSH0 SWAP2 DUP3 MSTORE PUSH1 0x20 SWAP1 SWAP2 KECCAK256 PUSH1 0x6 PUSH1 0x8 SWAP1 SWAP3 MUL ADD ADD SLOAD PUSH1 0x1 PUSH1 0x1 PUSH1 0xA0 SHL SUB AND EQ JUMPDEST PUSH2 0x36F8 JUMPI PUSH1 0x40 MLOAD PUSH3 0x461BCD PUSH1 0xE5 SHL DUP2 MSTORE PUSH1 0x20 PUSH1 0x4 DUP3 ADD MSTORE PUSH1 0x2B PUSH1 0x24 DUP3 ADD MSTORE PUSH32 0xD090D183D0BAD186D0B8D0BED0BD20D0B5D189D19120D0BDD0B520D0B7D0B0D0 PUSH1 0x44 DUP3 ADD MSTORE PUSH11 0xB2D0B5D180D188D0B5D0BD PUSH1 0xA8 SHL PUSH1 0x64 DUP3 ADD MSTORE PUSH1 0x84 ADD PUSH2 0x4F3 JUMP JUMPDEST CALLER PUSH1 0x1 PUSH1 0x1 PUSH1 0xA0 SHL SUB AND PUSH1 0x10 DUP4 DUP2 SLOAD DUP2 LT PUSH2 0x3715 JUMPI PUSH2 0x3715 PUSH2 0x51F1 JUMP JUMPDEST PUSH0 SWAP2 DUP3 MSTORE PUSH1 0x20 SWAP1 SWAP2 KECCAK256 PUSH1 0x6 PUSH1 0x8 SWAP1 SWAP3 MUL ADD ADD SLOAD PUSH1 0x1 PUSH1 0x1 PUSH1 0xA0 SHL SUB AND EQ PUSH2 0x3797 JUMPI PUSH1 0x40 MLOAD PUSH3 0x461BCD PUSH1 0xE5 SHL DUP2 MSTORE PUSH1 0x20 PUSH1 0x4 DUP3 ADD MSTORE PUSH1 0x30 PUSH1 0x24 DUP3 ADD MSTORE PUSH32 0xD092D18B20D0BDD0B520D0BFD0BED0B1D0B5D0B4D0B8D182D0B5D0BBD18C20D0 PUSH1 0x44 DUP3 ADD MSTORE PUSH16 0x5868C1E85D68C3685C685F685EE8581 PUSH1 0x85 SHL PUSH1 0x64 DUP3 ADD MSTORE PUSH1 0x84 ADD PUSH2 0x4F3 JUMP JUMPDEST PUSH1 0x4 SLOAD PUSH1 0x10 DUP1 SLOAD PUSH2 0x3853 SWAP3 PUSH1 0x1 PUSH1 0x1 PUSH1 0xA0 SHL SUB AND SWAP2 CALLER SWAP2 PUSH1 0xF SWAP2 SWAP1 DUP8 SWAP1 DUP2 LT PUSH2 0x37C2 JUMPI PUSH2 0x37C2 PUSH2 0x51F1 JUMP JUMPDEST SWAP1 PUSH0 MSTORE PUSH1 0x20 PUSH0 KECCAK256 SWAP1 PUSH1 0x8 MUL ADD PUSH1 0x1 ADD SLOAD DUP2 SLOAD DUP2 LT PUSH2 0x37E2 JUMPI PUSH2 0x37E2 PUSH2 0x51F1 JUMP JUMPDEST SWAP1 PUSH0 MSTORE PUSH1 0x20 PUSH0 KECCAK256 SWAP1 PUSH1 0x5 MUL ADD PUSH1 0x3 ADD DUP1 SLOAD DUP1 PUSH1 0x20 MUL PUSH1 0x20 ADD PUSH1 0x40 MLOAD SWAP1 DUP2 ADD PUSH1 0x40 MSTORE DUP1 SWAP3 SWAP2 SWAP1 DUP2 DUP2 MSTORE PUSH1 0x20 ADD DUP3 DUP1 SLOAD DUP1 ISZERO PUSH2 0x3839 JUMPI PUSH1 0x20 MUL DUP3 ADD SWAP2 SWAP1 PUSH0 MSTORE PUSH1 0x20 PUSH0 KECCAK256 SWAP1 JUMPDEST DUP2 SLOAD DUP2 MSTORE PUSH1 0x20 ADD SWAP1 PUSH1 0x1 ADD SWAP1 DUP1 DUP4 GT PUSH2 0x3825 JUMPI JUMPDEST POP POP POP POP POP PUSH1 0xF PUSH1 0x10 DUP8 DUP2 SLOAD DUP2 LT PUSH2 0x5EA JUMPI PUSH2 0x5EA PUSH2 0x51F1 JUMP JUMPDEST PUSH0 JUMPDEST PUSH1 0xF PUSH1 0x10 DUP5 DUP2 SLOAD DUP2 LT PUSH2 0x386A JUMPI PUSH2 0x386A PUSH2 0x51F1 JUMP JUMPDEST SWAP1 PUSH0 MSTORE PUSH1 0x20 PUSH0 KECCAK256 SWAP1 PUSH1 0x8 MUL ADD PUSH1 0x1 ADD SLOAD DUP2 SLOAD DUP2 LT PUSH2 0x388A JUMPI PUSH2 0x388A PUSH2 0x51F1 JUMP JUMPDEST SWAP1 PUSH0 MSTORE PUSH1 0x20 PUSH0 KECCAK256 SWAP1 PUSH1 0x5 MUL ADD PUSH1 0x3 ADD DUP1 SLOAD SWAP1 POP DUP2 LT ISZERO PUSH2 0x3EC8 JUMPI PUSH1 0x9 PUSH0 CALLER PUSH1 0x1 PUSH1 0x1 PUSH1 0xA0 SHL SUB AND PUSH1 0x1 PUSH1 0x1 PUSH1 0xA0 SHL SUB AND DUP2 MSTORE PUSH1 0x20 ADD SWAP1 DUP2 MSTORE PUSH1 0x20 ADD PUSH0 KECCAK256 PUSH1 0x40 MLOAD DUP1 PUSH2 0x100 ADD PUSH1 0x40 MSTORE DUP1 PUSH1 0xF PUSH1 0x10 DUP8 DUP2 SLOAD DUP2 LT PUSH2 0x38E8 JUMPI PUSH2 0x38E8 PUSH2 0x51F1 JUMP JUMPDEST SWAP1 PUSH0 MSTORE PUSH1 0x20 PUSH0 KECCAK256 SWAP1 PUSH1 0x8 MUL ADD PUSH1 0x1 ADD SLOAD DUP2 SLOAD DUP2 LT PUSH2 0x3908 JUMPI PUSH2 0x3908 PUSH2 0x51F1 JUMP JUMPDEST SWAP1 PUSH0 MSTORE PUSH1 0x20 PUSH0 KECCAK256 SWAP1 PUSH1 0x5 MUL ADD PUSH1 0x3 ADD DUP5 DUP2 SLOAD DUP2 LT PUSH2 0x3928 JUMPI PUSH2 0x3928 PUSH2 0x51F1 JUMP JUMPDEST SWAP1 PUSH0 MSTORE PUSH1 0x20 PUSH0 KECCAK256 ADD SLOAD DUP2 MSTORE PUSH1 0x20 ADD PUSH1 0x9 PUSH0 PUSH1 0x10 DUP9 DUP2 SLOAD DUP2 LT PUSH2 0x394C JUMPI PUSH2 0x394C PUSH2 0x51F1 JUMP JUMPDEST SWAP1 PUSH0 MSTORE PUSH1 0x20 PUSH0 KECCAK256 SWAP1 PUSH1 0x8 MUL ADD PUSH1 0x6 ADD PUSH0 SWAP1 SLOAD SWAP1 PUSH2 0x100 EXP SWAP1 DIV PUSH1 0x1 PUSH1 0x1 PUSH1 0xA0 SHL SUB AND PUSH1 0x1 PUSH1 0x1 PUSH1 0xA0 SHL SUB AND PUSH1 0x1 PUSH1 0x1 PUSH1 0xA0 SHL SUB AND DUP2 MSTORE PUSH1 0x20 ADD SWAP1 DUP2 MSTORE PUSH1 0x20 ADD PUSH0 KECCAK256 DUP1 SLOAD SWAP1 POP DUP2 MSTORE PUSH1 0x20 ADD PUSH1 0x8 PUSH0 PUSH1 0xA PUSH0 PUSH1 0x10 DUP11 DUP2 SLOAD DUP2 LT PUSH2 0x39AF JUMPI PUSH2 0x39AF PUSH2 0x51F1 JUMP JUMPDEST SWAP1 PUSH0 MSTORE PUSH1 0x20 PUSH0 KECCAK256 SWAP1 PUSH1 0x8 MUL ADD PUSH1 0x1 ADD SLOAD DUP2 MSTORE PUSH1 0x20 ADD SWAP1 DUP2 MSTORE PUSH1 0x20 ADD PUSH0 KECCAK256 PUSH1 0x3 ADD DUP7 DUP2 SLOAD DUP2 LT PUSH2 0x39E0 JUMPI PUSH2 0x39E0 PUSH2 0x51F1 JUMP JUMPDEST SWAP1 PUSH0 MSTORE PUSH1 0x20 PUSH0 KECCAK256 ADD SLOAD DUP2 MSTORE PUSH1 0x20 ADD SWAP1 DUP2 MSTORE PUSH1 0x20 ADD PUSH0 KECCAK256 PUSH1 0x2 ADD DUP1 SLOAD PUSH2 0x3A04 SWAP1 PUSH2 0x514B JUMP JUMPDEST DUP1 PUSH1 0x1F ADD PUSH1 0x20 DUP1 SWAP2 DIV MUL PUSH1 0x20 ADD PUSH1 0x40 MLOAD SWAP1 DUP2 ADD PUSH1 0x40 MSTORE DUP1 SWAP3 SWAP2 SWAP1 DUP2 DUP2 MSTORE PUSH1 0x20 ADD DUP3 DUP1 SLOAD PUSH2 0x3A30 SWAP1 PUSH2 0x514B JUMP JUMPDEST DUP1 ISZERO PUSH2 0x3A7B JUMPI DUP1 PUSH1 0x1F LT PUSH2 0x3A52 JUMPI PUSH2 0x100 DUP1 DUP4 SLOAD DIV MUL DUP4 MSTORE SWAP2 PUSH1 0x20 ADD SWAP2 PUSH2 0x3A7B JUMP JUMPDEST DUP3 ADD SWAP2 SWAP1 PUSH0 MSTORE PUSH1 0x20 PUSH0 KECCAK256 SWAP1 JUMPDEST DUP2 SLOAD DUP2 MSTORE SWAP1 PUSH1 0x1 ADD SWAP1 PUSH1 0x20 ADD DUP1 DUP4 GT PUSH2 0x3A5E JUMPI DUP3 SWAP1 SUB PUSH1 0x1F AND DUP3 ADD SWAP2 JUMPDEST POP POP POP POP POP DUP2 MSTORE PUSH1 0x20 ADD PUSH1 0x8 PUSH0 PUSH1 0xA PUSH0 PUSH1 0x10 DUP11 DUP2 SLOAD DUP2 LT PUSH2 0x3A9E JUMPI PUSH2 0x3A9E PUSH2 0x51F1 JUMP JUMPDEST SWAP1 PUSH0 MSTORE PUSH1 0x20 PUSH0 KECCAK256 SWAP1 PUSH1 0x8 MUL ADD PUSH1 0x1 ADD SLOAD DUP2 MSTORE PUSH1 0x20 ADD SWAP1 DUP2 MSTORE PUSH1 0x20 ADD PUSH0 KECCAK256 PUSH1 0x3 ADD DUP7 DUP2 SLOAD DUP2 LT PUSH2 0x3ACF JUMPI PUSH2 0x3ACF PUSH2 0x51F1 JUMP JUMPDEST SWAP1 PUSH0 MSTORE PUSH1 0x20 PUSH0 KECCAK256 ADD SLOAD DUP2 MSTORE PUSH1 0x20 ADD SWAP1 DUP2 MSTORE PUSH1 0x20 ADD PUSH0 KECCAK256 PUSH1 0x3 ADD DUP1 SLOAD PUSH2 0x3AF3 SWAP1 PUSH2 0x514B JUMP JUMPDEST DUP1 PUSH1 0x1F ADD PUSH1 0x20 DUP1 SWAP2 DIV MUL PUSH1 0x20 ADD PUSH1 0x40 MLOAD SWAP1 DUP2 ADD PUSH1 0x40 MSTORE DUP1 SWAP3 SWAP2 SWAP1 DUP2 DUP2 MSTORE PUSH1 0x20 ADD DUP3 DUP1 SLOAD PUSH2 0x3B1F SWAP1 PUSH2 0x514B JUMP JUMPDEST DUP1 ISZERO PUSH2 0x3B6A JUMPI DUP1 PUSH1 0x1F LT PUSH2 0x3B41 JUMPI PUSH2 0x100 DUP1 DUP4 SLOAD DIV MUL DUP4 MSTORE SWAP2 PUSH1 0x20 ADD SWAP2 PUSH2 0x3B6A JUMP JUMPDEST DUP3 ADD SWAP2 SWAP1 PUSH0 MSTORE PUSH1 0x20 PUSH0 KECCAK256 SWAP1 JUMPDEST DUP2 SLOAD DUP2 MSTORE SWAP1 PUSH1 0x1 ADD SWAP1 PUSH1 0x20 ADD DUP1 DUP4 GT PUSH2 0x3B4D JUMPI DUP3 SWAP1 SUB PUSH1 0x1F AND DUP3 ADD SWAP2 JUMPDEST POP POP POP POP POP DUP2 MSTORE PUSH1 0x20 ADD PUSH1 0x8 PUSH0 PUSH1 0xA PUSH0 PUSH1 0x10 DUP11 DUP2 SLOAD DUP2 LT PUSH2 0x3B8D JUMPI PUSH2 0x3B8D PUSH2 0x51F1 JUMP JUMPDEST SWAP1 PUSH0 MSTORE PUSH1 0x20 PUSH0 KECCAK256 SWAP1 PUSH1 0x8 MUL ADD PUSH1 0x1 ADD SLOAD DUP2 MSTORE PUSH1 0x20 ADD SWAP1 DUP2 MSTORE PUSH1 0x20 ADD PUSH0 KECCAK256 PUSH1 0x3 ADD DUP7 DUP2 SLOAD DUP2 LT PUSH2 0x3BBE JUMPI PUSH2 0x3BBE PUSH2 0x51F1 JUMP JUMPDEST SWAP1 PUSH0 MSTORE PUSH1 0x20 PUSH0 KECCAK256 ADD SLOAD DUP2 MSTORE PUSH1 0x20 ADD SWAP1 DUP2 MSTORE PUSH1 0x20 ADD PUSH0 KECCAK256 PUSH1 0x4 ADD DUP1 SLOAD PUSH2 0x3BE2 SWAP1 PUSH2 0x514B JUMP JUMPDEST DUP1 PUSH1 0x1F ADD PUSH1 0x20 DUP1 SWAP2 DIV MUL PUSH1 0x20 ADD PUSH1 0x40 MLOAD SWAP1 DUP2 ADD PUSH1 0x40 MSTORE DUP1 SWAP3 SWAP2 SWAP1 DUP2 DUP2 MSTORE PUSH1 0x20 ADD DUP3 DUP1 SLOAD PUSH2 0x3C0E SWAP1 PUSH2 0x514B JUMP JUMPDEST DUP1 ISZERO PUSH2 0x3C59 JUMPI DUP1 PUSH1 0x1F LT PUSH2 0x3C30 JUMPI PUSH2 0x100 DUP1 DUP4 SLOAD DIV MUL DUP4 MSTORE SWAP2 PUSH1 0x20 ADD SWAP2 PUSH2 0x3C59 JUMP JUMPDEST DUP3 ADD SWAP2 SWAP1 PUSH0 MSTORE PUSH1 0x20 PUSH0 KECCAK256 SWAP1 JUMPDEST DUP2 SLOAD DUP2 MSTORE SWAP1 PUSH1 0x1 ADD SWAP1 PUSH1 0x20 ADD DUP1 DUP4 GT PUSH2 0x3C3C JUMPI DUP3 SWAP1 SUB PUSH1 0x1F AND DUP3 ADD SWAP2 JUMPDEST POP POP POP POP POP DUP2 MSTORE PUSH1 0x20 ADD PUSH1 0x8 PUSH0 PUSH1 0xA PUSH0 PUSH1 0x10 DUP11 DUP2 SLOAD DUP2 LT PUSH2 0x3C7C JUMPI PUSH2 0x3C7C PUSH2 0x51F1 JUMP JUMPDEST SWAP1 PUSH0 MSTORE PUSH1 0x20 PUSH0 KECCAK256 SWAP1 PUSH1 0x8 MUL ADD PUSH1 0x1 ADD SLOAD DUP2 MSTORE PUSH1 0x20 ADD SWAP1 DUP2 MSTORE PUSH1 0x20 ADD PUSH0 KECCAK256 PUSH1 0x3 ADD DUP7 DUP2 SLOAD DUP2 LT PUSH2 0x3CAD JUMPI PUSH2 0x3CAD PUSH2 0x51F1 JUMP JUMPDEST SWAP1 PUSH0 MSTORE PUSH1 0x20 PUSH0 KECCAK256 ADD SLOAD DUP2 MSTORE PUSH1 0x20 ADD SWAP1 DUP2 MSTORE PUSH1 0x20 ADD PUSH0 KECCAK256 PUSH1 0x6 ADD SLOAD DUP2 MSTORE PUSH1 0x20 ADD PUSH1 0x3 SLOAD PUSH1 0x1 PUSH2 0x3CDB SWAP2 SWAP1 PUSH2 0x5219 JUMP JUMPDEST DUP2 MSTORE PUSH1 0x20 ADD PUSH1 0x8 PUSH0 PUSH1 0xA PUSH0 PUSH1 0x10 DUP11 DUP2 SLOAD DUP2 LT PUSH2 0x3CF9 JUMPI PUSH2 0x3CF9 PUSH2 0x51F1 JUMP JUMPDEST SWAP1 PUSH0 MSTORE PUSH1 0x20 PUSH0 KECCAK256 SWAP1 PUSH1 0x8 MUL ADD PUSH1 0x1 ADD SLOAD DUP2 MSTORE PUSH1 0x20 ADD SWAP1 DUP2 MSTORE PUSH1 0x20 ADD PUSH0 KECCAK256 PUSH1 0x3 ADD DUP7 DUP2 SLOAD DUP2 LT PUSH2 0x3D2A JUMPI PUSH2 0x3D2A PUSH2 0x51F1 JUMP JUMPDEST PUSH0 SWAP2 DUP3 MSTORE PUSH1 0x20 DUP1 DUP4 KECCAK256 SWAP1 SWAP2 ADD SLOAD DUP4 MSTORE DUP3 DUP2 ADD SWAP4 SWAP1 SWAP4 MSTORE PUSH1 0x40 SWAP2 DUP3 ADD DUP2 KECCAK256 PUSH1 0x7 ADD SLOAD SWAP1 SWAP4 MSTORE DUP5 SLOAD PUSH1 0x1 DUP2 DUP2 ADD DUP8 SSTORE SWAP6 DUP5 MSTORE SWAP3 DUP3 SWAP1 KECCAK256 DUP5 MLOAD PUSH1 0x8 SWAP1 SWAP5 MUL ADD SWAP3 DUP4 SSTORE SWAP1 DUP4 ADD MLOAD SWAP4 DUP3 ADD SWAP4 SWAP1 SWAP4 SSTORE SWAP2 DUP2 ADD MLOAD SWAP1 SWAP2 SWAP1 PUSH1 0x2 DUP3 ADD SWAP1 PUSH2 0x3D8A SWAP1 DUP3 PUSH2 0x5274 JUMP JUMPDEST POP PUSH1 0x60 DUP3 ADD MLOAD PUSH1 0x3 DUP3 ADD SWAP1 PUSH2 0x3D9F SWAP1 DUP3 PUSH2 0x5274 JUMP JUMPDEST POP PUSH1 0x80 DUP3 ADD MLOAD PUSH1 0x4 DUP3 ADD SWAP1 PUSH2 0x3DB4 SWAP1 DUP3 PUSH2 0x5274 JUMP JUMPDEST POP PUSH1 0xA0 DUP3 ADD MLOAD PUSH1 0x5 DUP3 ADD SSTORE PUSH1 0xC0 DUP3 ADD MLOAD PUSH1 0x6 DUP3 ADD SSTORE PUSH1 0xE0 SWAP1 SWAP2 ADD MLOAD PUSH1 0x7 SWAP1 SWAP2 ADD SSTORE PUSH1 0x4 SLOAD PUSH1 0x1 PUSH1 0x1 PUSH1 0xA0 SHL SUB AND PUSH0 SWAP1 DUP2 MSTORE PUSH1 0x9 PUSH1 0x20 MSTORE PUSH1 0x40 DUP2 KECCAK256 PUSH1 0x10 DUP1 SLOAD SWAP2 SWAP3 PUSH1 0x8 SWAP3 SWAP1 SWAP2 PUSH1 0xA SWAP2 DUP4 SWAP2 SWAP1 DUP10 SWAP1 DUP2 LT PUSH2 0x3E0F JUMPI PUSH2 0x3E0F PUSH2 0x51F1 JUMP JUMPDEST SWAP1 PUSH0 MSTORE PUSH1 0x20 PUSH0 KECCAK256 SWAP1 PUSH1 0x8 MUL ADD PUSH1 0x1 ADD SLOAD DUP2 MSTORE PUSH1 0x20 ADD SWAP1 DUP2 MSTORE PUSH1 0x20 ADD PUSH0 KECCAK256 PUSH1 0x3 ADD DUP5 DUP2 SLOAD DUP2 LT PUSH2 0x3E40 JUMPI PUSH2 0x3E40 PUSH2 0x51F1 JUMP JUMPDEST SWAP1 PUSH0 MSTORE PUSH1 0x20 PUSH0 KECCAK256 ADD SLOAD DUP2 MSTORE PUSH1 0x20 ADD SWAP1 DUP2 MSTORE PUSH1 0x20 ADD PUSH0 KECCAK256 PUSH1 0x1 ADD SLOAD DUP2 SLOAD DUP2 LT PUSH2 0x3E6A JUMPI PUSH2 0x3E6A PUSH2 0x51F1 JUMP JUMPDEST PUSH0 SWAP2 DUP3 MSTORE PUSH1 0x20 DUP3 KECCAK256 PUSH1 0x8 SWAP1 SWAP2 MUL ADD DUP2 DUP2 SSTORE PUSH1 0x1 DUP2 ADD DUP3 SWAP1 SSTORE SWAP1 PUSH2 0x3E90 PUSH1 0x2 DUP4 ADD DUP3 PUSH2 0x4593 JUMP JUMPDEST PUSH2 0x3E9D PUSH1 0x3 DUP4 ADD PUSH0 PUSH2 0x4593 JUMP JUMPDEST PUSH2 0x3EAA PUSH1 0x4 DUP4 ADD PUSH0 PUSH2 0x4593 JUMP JUMPDEST POP PUSH0 PUSH1 0x5 DUP3 ADD DUP2 SWAP1 SSTORE PUSH1 0x6 DUP3 ADD DUP2 SWAP1 SSTORE PUSH1 0x7 SWAP1 SWAP2 ADD SSTORE PUSH1 0x1 ADD PUSH2 0x3855 JUMP JUMPDEST POP PUSH0 PUSH1 0x10 DUP4 DUP2 SLOAD DUP2 LT PUSH2 0x3EDD JUMPI PUSH2 0x3EDD PUSH2 0x51F1 JUMP JUMPDEST SWAP1 PUSH0 MSTORE PUSH1 0x20 PUSH0 KECCAK256 SWAP1 PUSH1 0x8 MUL ADD PUSH1 0x6 ADD PUSH0 PUSH2 0x100 EXP DUP2 SLOAD DUP2 PUSH1 0x1 PUSH1 0x1 PUSH1 0xA0 SHL SUB MUL NOT AND SWAP1 DUP4 PUSH1 0x1 PUSH1 0x1 PUSH1 0xA0 SHL SUB AND MUL OR SWAP1 SSTORE POP POP POP JUMP JUMPDEST PUSH1 0x1 PUSH1 0x1 PUSH1 0xA0 SHL SUB DUP5 AND PUSH2 0x3F3C JUMPI PUSH1 0x40 MLOAD PUSH4 0x2BFA23E7 PUSH1 0xE1 SHL DUP2 MSTORE PUSH0 PUSH1 0x4 DUP3 ADD MSTORE PUSH1 0x24 ADD PUSH2 0x4F3 JUMP JUMPDEST PUSH1 0x1 PUSH1 0x1 PUSH1 0xA0 SHL SUB DUP6 AND PUSH2 0x3F64 JUMPI PUSH1 0x40 MLOAD PUSH3 0x6A0D45 PUSH1 0xE2 SHL DUP2 MSTORE PUSH0 PUSH1 0x4 DUP3 ADD MSTORE PUSH1 0x24 ADD PUSH2 0x4F3 JUMP JUMPDEST PUSH2 0x3F71 DUP6 DUP6 DUP6 DUP6 DUP6 PUSH2 0x4129 JUMP JUMPDEST POP POP POP POP POP JUMP JUMPDEST PUSH1 0x1 PUSH1 0x1 PUSH1 0xA0 SHL SUB DUP5 AND PUSH2 0x3FA1 JUMPI PUSH1 0x40 MLOAD PUSH4 0x2BFA23E7 PUSH1 0xE1 SHL DUP2 MSTORE PUSH0 PUSH1 0x4 DUP3 ADD MSTORE PUSH1 0x24 ADD PUSH2 0x4F3 JUMP JUMPDEST PUSH1 0x1 PUSH1 0x1 PUSH1 0xA0 SHL SUB DUP6 AND PUSH2 0x3FC9 JUMPI PUSH1 0x40 MLOAD PUSH3 0x6A0D45 PUSH1 0xE2 SHL DUP2 MSTORE PUSH0 PUSH1 0x4 DUP3 ADD MSTORE PUSH1 0x24 ADD PUSH2 0x4F3 JUMP JUMPDEST PUSH1 0x40 DUP1 MLOAD PUSH1 0x1 DUP1 DUP3 MSTORE PUSH1 0x20 DUP3 ADD DUP7 SWAP1 MSTORE DUP2 DUP4 ADD SWAP1 DUP2 MSTORE PUSH1 0x60 DUP3 ADD DUP6 SWAP1 MSTORE PUSH1 0x80 DUP3 ADD SWAP1 SWAP3 MSTORE SWAP1 PUSH2 0x3FFB DUP8 DUP8 DUP5 DUP5 DUP8 PUSH2 0x4129 JUMP JUMPDEST POP POP POP POP POP POP POP JUMP JUMPDEST PUSH1 0x1 PUSH1 0x1 PUSH1 0xA0 SHL SUB DUP5 AND PUSH2 0x402D JUMPI PUSH1 0x40 MLOAD PUSH4 0x2BFA23E7 PUSH1 0xE1 SHL DUP2 MSTORE PUSH0 PUSH1 0x4 DUP3 ADD MSTORE PUSH1 0x24 ADD PUSH2 0x4F3 JUMP JUMPDEST PUSH2 0x11D7 PUSH0 DUP6 DUP6 DUP6 DUP6 PUSH2 0x4129 JUMP JUMPDEST PUSH1 0x1 PUSH1 0x1 PUSH1 0xA0 SHL SUB DUP5 AND PUSH2 0x4063 JUMPI PUSH1 0x40 MLOAD PUSH4 0x2BFA23E7 PUSH1 0xE1 SHL DUP2 MSTORE PUSH0 PUSH1 0x4 DUP3 ADD MSTORE PUSH1 0x24 ADD PUSH2 0x4F3 JUMP JUMPDEST PUSH1 0x40 DUP1 MLOAD PUSH1 0x1 DUP1 DUP3 MSTORE PUSH1 0x20 DUP3 ADD DUP7 SWAP1 MSTORE DUP2 DUP4 ADD SWAP1 DUP2 MSTORE PUSH1 0x60 DUP3 ADD DUP6 SWAP1 MSTORE PUSH1 0x80 DUP3 ADD SWAP1 SWAP3 MSTORE SWAP1 PUSH2 0xDCC PUSH0 DUP8 DUP5 DUP5 DUP8 PUSH2 0x4129 JUMP JUMPDEST PUSH1 0x1 PUSH1 0x1 PUSH1 0xA0 SHL SUB DUP3 AND PUSH2 0x40BD JUMPI PUSH1 0x40 MLOAD PUSH3 0xCED3E1 PUSH1 0xE8 SHL DUP2 MSTORE PUSH0 PUSH1 0x4 DUP3 ADD MSTORE PUSH1 0x24 ADD PUSH2 0x4F3 JUMP JUMPDEST PUSH1 0x1 PUSH1 0x1 PUSH1 0xA0 SHL SUB DUP4 DUP2 AND PUSH0 DUP2 DUP2 MSTORE PUSH1 0x1 PUSH1 0x20 SWAP1 DUP2 MSTORE PUSH1 0x40 DUP1 DUP4 KECCAK256 SWAP5 DUP8 AND DUP1 DUP5 MSTORE SWAP5 DUP3 MSTORE SWAP2 DUP3 SWAP1 KECCAK256 DUP1 SLOAD PUSH1 0xFF NOT AND DUP7 ISZERO ISZERO SWAP1 DUP2 OR SWAP1 SWAP2 SSTORE SWAP2 MLOAD SWAP2 DUP3 MSTORE PUSH32 0x17307EAB39AB6107E8899845AD3D59BD9653F200F220920489CA2B5937696C31 SWAP2 ADD PUSH1 0x40 MLOAD DUP1 SWAP2 SUB SWAP1 LOG3 POP POP POP JUMP JUMPDEST PUSH2 0x4135 DUP6 DUP6 DUP6 DUP6 PUSH2 0x417C JUMP JUMPDEST PUSH1 0x1 PUSH1 0x1 PUSH1 0xA0 SHL SUB DUP5 AND ISZERO PUSH2 0x3F71 JUMPI DUP3 MLOAD CALLER SWAP1 PUSH1 0x1 SUB PUSH2 0x416E JUMPI PUSH1 0x20 DUP5 DUP2 ADD MLOAD SWAP1 DUP5 ADD MLOAD PUSH2 0x4167 DUP4 DUP10 DUP10 DUP6 DUP6 DUP10 PUSH2 0x438B JUMP JUMPDEST POP POP PUSH2 0xDCC JUMP JUMPDEST PUSH2 0xDCC DUP2 DUP8 DUP8 DUP8 DUP8 DUP8 PUSH2 0x44AC JUMP JUMPDEST DUP1 MLOAD DUP3 MLOAD EQ PUSH2 0x41AB JUMPI DUP2 MLOAD DUP2 MLOAD PUSH1 0x40 MLOAD PUSH4 0x5B059991 PUSH1 0xE0 SHL DUP2 MSTORE PUSH1 0x4 DUP2 ADD SWAP3 SWAP1 SWAP3 MSTORE PUSH1 0x24 DUP3 ADD MSTORE PUSH1 0x44 ADD PUSH2 0x4F3 JUMP JUMPDEST CALLER PUSH0 JUMPDEST DUP4 MLOAD DUP2 LT ISZERO PUSH2 0x42AD JUMPI PUSH1 0x20 DUP2 DUP2 MUL DUP6 DUP2 ADD DUP3 ADD MLOAD SWAP1 DUP6 ADD SWAP1 SWAP2 ADD MLOAD PUSH1 0x1 PUSH1 0x1 PUSH1 0xA0 SHL SUB DUP9 AND ISZERO PUSH2 0x425F JUMPI PUSH0 DUP3 DUP2 MSTORE PUSH1 0x20 DUP2 DUP2 MSTORE PUSH1 0x40 DUP1 DUP4 KECCAK256 PUSH1 0x1 PUSH1 0x1 PUSH1 0xA0 SHL SUB DUP13 AND DUP5 MSTORE SWAP1 SWAP2 MSTORE SWAP1 KECCAK256 SLOAD DUP2 DUP2 LT ISZERO PUSH2 0x4239 JUMPI PUSH1 0x40 MLOAD PUSH4 0x3DEE4C5 PUSH1 0xE0 SHL DUP2 MSTORE PUSH1 0x1 PUSH1 0x1 PUSH1 0xA0 SHL SUB DUP11 AND PUSH1 0x4 DUP3 ADD MSTORE PUSH1 0x24 DUP2 ADD DUP3 SWAP1 MSTORE PUSH1 0x44 DUP2 ADD DUP4 SWAP1 MSTORE PUSH1 0x64 DUP2 ADD DUP5 SWAP1 MSTORE PUSH1 0x84 ADD PUSH2 0x4F3 JUMP JUMPDEST PUSH0 DUP4 DUP2 MSTORE PUSH1 0x20 DUP2 DUP2 MSTORE PUSH1 0x40 DUP1 DUP4 KECCAK256 PUSH1 0x1 PUSH1 0x1 PUSH1 0xA0 SHL SUB DUP14 AND DUP5 MSTORE SWAP1 SWAP2 MSTORE SWAP1 KECCAK256 SWAP1 DUP3 SWAP1 SUB SWAP1 SSTORE JUMPDEST PUSH1 0x1 PUSH1 0x1 PUSH1 0xA0 SHL SUB DUP8 AND ISZERO PUSH2 0x42A3 JUMPI PUSH0 DUP3 DUP2 MSTORE PUSH1 0x20 DUP2 DUP2 MSTORE PUSH1 0x40 DUP1 DUP4 KECCAK256 PUSH1 0x1 PUSH1 0x1 PUSH1 0xA0 SHL SUB DUP12 AND DUP5 MSTORE SWAP1 SWAP2 MSTORE DUP2 KECCAK256 DUP1 SLOAD DUP4 SWAP3 SWAP1 PUSH2 0x429D SWAP1 DUP5 SWAP1 PUSH2 0x547A JUMP JUMPDEST SWAP1 SWAP2 SSTORE POP POP JUMPDEST POP POP PUSH1 0x1 ADD PUSH2 0x41AE JUMP JUMPDEST POP DUP3 MLOAD PUSH1 0x1 SUB PUSH2 0x432D JUMPI PUSH1 0x20 DUP4 ADD MLOAD PUSH0 SWAP1 PUSH1 0x20 DUP5 ADD MLOAD SWAP1 SWAP2 POP DUP6 PUSH1 0x1 PUSH1 0x1 PUSH1 0xA0 SHL SUB AND DUP8 PUSH1 0x1 PUSH1 0x1 PUSH1 0xA0 SHL SUB AND DUP5 PUSH1 0x1 PUSH1 0x1 PUSH1 0xA0 SHL SUB AND PUSH32 0xC3D58168C5AE7397731D063D5BBF3D657854427343F4C083240F7AACAA2D0F62 DUP6 DUP6 PUSH1 0x40 MLOAD PUSH2 0x431E SWAP3 SWAP2 SWAP1 SWAP2 DUP3 MSTORE PUSH1 0x20 DUP3 ADD MSTORE PUSH1 0x40 ADD SWAP1 JUMP JUMPDEST PUSH1 0x40 MLOAD DUP1 SWAP2 SUB SWAP1 LOG4 POP POP PUSH2 0x3F71 JUMP JUMPDEST DUP4 PUSH1 0x1 PUSH1 0x1 PUSH1 0xA0 SHL SUB AND DUP6 PUSH1 0x1 PUSH1 0x1 PUSH1 0xA0 SHL SUB AND DUP3 PUSH1 0x1 PUSH1 0x1 PUSH1 0xA0 SHL SUB AND PUSH32 0x4A39DC06D4C0DBC64B70AF90FD698A233A518AA5D07E595D983B8C0526C8F7FB DUP7 DUP7 PUSH1 0x40 MLOAD PUSH2 0x437C SWAP3 SWAP2 SWAP1 PUSH2 0x548D JUMP JUMPDEST PUSH1 0x40 MLOAD DUP1 SWAP2 SUB SWAP1 LOG4 POP POP POP POP POP JUMP JUMPDEST PUSH1 0x1 PUSH1 0x1 PUSH1 0xA0 SHL SUB DUP5 AND EXTCODESIZE ISZERO PUSH2 0xDCC JUMPI PUSH1 0x40 MLOAD PUSH4 0xF23A6E61 PUSH1 0xE0 SHL DUP2 MSTORE PUSH1 0x1 PUSH1 0x1 PUSH1 0xA0 SHL SUB DUP6 AND SWAP1 PUSH4 0xF23A6E61 SWAP1 PUSH2 0x43CF SWAP1 DUP10 SWAP1 DUP10 SWAP1 DUP9 SWAP1 DUP9 SWAP1 DUP9 SWAP1 PUSH1 0x4 ADD PUSH2 0x54BA JUMP JUMPDEST PUSH1 0x20 PUSH1 0x40 MLOAD DUP1 DUP4 SUB DUP2 PUSH0 DUP8 GAS CALL SWAP3 POP POP POP DUP1 ISZERO PUSH2 0x4409 JUMPI POP PUSH1 0x40 DUP1 MLOAD PUSH1 0x1F RETURNDATASIZE SWAP1 DUP2 ADD PUSH1 0x1F NOT AND DUP3 ADD SWAP1 SWAP3 MSTORE PUSH2 0x4406 SWAP2 DUP2 ADD SWAP1 PUSH2 0x54FE JUMP JUMPDEST PUSH1 0x1 JUMPDEST PUSH2 0x4470 JUMPI RETURNDATASIZE DUP1 DUP1 ISZERO PUSH2 0x4436 JUMPI PUSH1 0x40 MLOAD SWAP2 POP PUSH1 0x1F NOT PUSH1 0x3F RETURNDATASIZE ADD AND DUP3 ADD PUSH1 0x40 MSTORE RETURNDATASIZE DUP3 MSTORE RETURNDATASIZE PUSH0 PUSH1 0x20 DUP5 ADD RETURNDATACOPY PUSH2 0x443B JUMP JUMPDEST PUSH1 0x60 SWAP2 POP JUMPDEST POP DUP1 MLOAD PUSH0 SUB PUSH2 0x4468 JUMPI PUSH1 0x40 MLOAD PUSH4 0x2BFA23E7 PUSH1 0xE1 SHL DUP2 MSTORE PUSH1 0x1 PUSH1 0x1 PUSH1 0xA0 SHL SUB DUP7 AND PUSH1 0x4 DUP3 ADD MSTORE PUSH1 0x24 ADD PUSH2 0x4F3 JUMP JUMPDEST DUP1 MLOAD DUP2 PUSH1 0x20 ADD REVERT JUMPDEST PUSH1 0x1 PUSH1 0x1 PUSH1 0xE0 SHL SUB NOT DUP2 AND PUSH4 0xF23A6E61 PUSH1 0xE0 SHL EQ PUSH2 0x3FFB JUMPI PUSH1 0x40 MLOAD PUSH4 0x2BFA23E7 PUSH1 0xE1 SHL DUP2 MSTORE PUSH1 0x1 PUSH1 0x1 PUSH1 0xA0 SHL SUB DUP7 AND PUSH1 0x4 DUP3 ADD MSTORE PUSH1 0x24 ADD PUSH2 0x4F3 JUMP JUMPDEST PUSH1 0x1 PUSH1 0x1 PUSH1 0xA0 SHL SUB DUP5 AND EXTCODESIZE ISZERO PUSH2 0xDCC JUMPI PUSH1 0x40 MLOAD PUSH4 0xBC197C81 PUSH1 0xE0 SHL DUP2 MSTORE PUSH1 0x1 PUSH1 0x1 PUSH1 0xA0 SHL SUB DUP6 AND SWAP1 PUSH4 0xBC197C81 SWAP1 PUSH2 0x44F0 SWAP1 DUP10 SWAP1 DUP10 SWAP1 DUP9 SWAP1 DUP9 SWAP1 DUP9 SWAP1 PUSH1 0x4 ADD PUSH2 0x5519 JUMP JUMPDEST PUSH1 0x20 PUSH1 0x40 MLOAD DUP1 DUP4 SUB DUP2 PUSH0 DUP8 GAS CALL SWAP3 POP POP POP DUP1 ISZERO PUSH2 0x452A JUMPI POP PUSH1 0x40 DUP1 MLOAD PUSH1 0x1F RETURNDATASIZE SWAP1 DUP2 ADD PUSH1 0x1F NOT AND DUP3 ADD SWAP1 SWAP3 MSTORE PUSH2 0x4527 SWAP2 DUP2 ADD SWAP1 PUSH2 0x54FE JUMP JUMPDEST PUSH1 0x1 JUMPDEST PUSH2 0x4557 JUMPI RETURNDATASIZE DUP1 DUP1 ISZERO PUSH2 0x4436 JUMPI PUSH1 0x40 MLOAD SWAP2 POP PUSH1 0x1F NOT PUSH1 0x3F RETURNDATASIZE ADD AND DUP3 ADD PUSH1 0x40 MSTORE RETURNDATASIZE DUP3 MSTORE RETURNDATASIZE PUSH0 PUSH1 0x20 DUP5 ADD RETURNDATACOPY PUSH2 0x443B JUMP JUMPDEST PUSH1 0x1 PUSH1 0x1 PUSH1 0xE0 SHL SUB NOT DUP2 AND PUSH4 0xBC197C81 PUSH1 0xE0 SHL EQ PUSH2 0x3FFB JUMPI PUSH1 0x40 MLOAD PUSH4 0x2BFA23E7 PUSH1 0xE1 SHL DUP2 MSTORE PUSH1 0x1 PUSH1 0x1 PUSH1 0xA0 SHL SUB DUP7 AND PUSH1 0x4 DUP3 ADD MSTORE PUSH1 0x24 ADD PUSH2 0x4F3 JUMP JUMPDEST POP DUP1 SLOAD PUSH2 0x459F SWAP1 PUSH2 0x514B JUMP JUMPDEST PUSH0 DUP3 SSTORE DUP1 PUSH1 0x1F LT PUSH2 0x45AE JUMPI POP POP JUMP JUMPDEST PUSH1 0x1F ADD PUSH1 0x20 SWAP1 DIV SWAP1 PUSH0 MSTORE PUSH1 0x20 PUSH0 KECCAK256 SWAP1 DUP2 ADD SWAP1 PUSH2 0x45CA SWAP2 SWAP1 PUSH2 0x4634 JUMP JUMPDEST POP JUMP JUMPDEST POP DUP1 SLOAD PUSH0 DUP3 SSTORE PUSH1 0x8 MUL SWAP1 PUSH0 MSTORE PUSH1 0x20 PUSH0 KECCAK256 SWAP1 DUP2 ADD SWAP1 PUSH2 0x45CA SWAP2 SWAP1 PUSH2 0x4648 JUMP JUMPDEST DUP3 DUP1 SLOAD DUP3 DUP3 SSTORE SWAP1 PUSH0 MSTORE PUSH1 0x20 PUSH0 KECCAK256 SWAP1 DUP2 ADD SWAP3 DUP3 ISZERO PUSH2 0x4624 JUMPI SWAP2 PUSH1 0x20 MUL DUP3 ADD JUMPDEST DUP3 DUP2 GT ISZERO PUSH2 0x4624 JUMPI DUP3 MLOAD DUP3 SSTORE SWAP2 PUSH1 0x20 ADD SWAP2 SWAP1 PUSH1 0x1 ADD SWAP1 PUSH2 0x4609 JUMP JUMPDEST POP PUSH2 0x4630 SWAP3 SWAP2 POP PUSH2 0x4634 JUMP JUMPDEST POP SWAP1 JUMP JUMPDEST JUMPDEST DUP1 DUP3 GT ISZERO PUSH2 0x4630 JUMPI PUSH0 DUP2 SSTORE PUSH1 0x1 ADD PUSH2 0x4635 JUMP JUMPDEST DUP1 DUP3 GT ISZERO PUSH2 0x4630 JUMPI PUSH0 DUP1 DUP3 SSTORE PUSH1 0x1 DUP3 ADD DUP2 SWAP1 SSTORE PUSH2 0x4668 PUSH1 0x2 DUP4 ADD DUP3 PUSH2 0x4593 JUMP JUMPDEST PUSH2 0x4675 PUSH1 0x3 DUP4 ADD PUSH0 PUSH2 0x4593 JUMP JUMPDEST PUSH2 0x4682 PUSH1 0x4 DUP4 ADD PUSH0 PUSH2 0x4593 JUMP JUMPDEST POP PUSH0 PUSH1 0x5 DUP3 ADD DUP2 SWAP1 SSTORE PUSH1 0x6 DUP3 ADD DUP2 SWAP1 SSTORE PUSH1 0x7 DUP3 ADD SSTORE PUSH1 0x8 ADD PUSH2 0x4648 JUMP JUMPDEST DUP1 CALLDATALOAD PUSH1 0x1 PUSH1 0x1 PUSH1 0xA0 SHL SUB DUP2 AND DUP2 EQ PUSH2 0x46B5 JUMPI PUSH0 DUP1 REVERT JUMPDEST SWAP2 SWAP1 POP JUMP JUMPDEST PUSH0 DUP1 PUSH1 0x40 DUP4 DUP6 SUB SLT ISZERO PUSH2 0x46CB JUMPI PUSH0 DUP1 REVERT JUMPDEST PUSH2 0x46D4 DUP4 PUSH2 0x469F JUMP JUMPDEST SWAP5 PUSH1 0x20 SWAP4 SWAP1 SWAP4 ADD CALLDATALOAD SWAP4 POP POP POP JUMP JUMPDEST PUSH1 0x1 PUSH1 0x1 PUSH1 0xE0 SHL SUB NOT DUP2 AND DUP2 EQ PUSH2 0x45CA JUMPI PUSH0 DUP1 REVERT JUMPDEST PUSH0 PUSH1 0x20 DUP3 DUP5 SUB SLT ISZERO PUSH2 0x4707 JUMPI PUSH0 DUP1 REVERT JUMPDEST DUP2 CALLDATALOAD PUSH2 0x4712 DUP2 PUSH2 0x46E2 JUMP JUMPDEST SWAP4 SWAP3 POP POP POP JUMP JUMPDEST PUSH0 PUSH1 0x20 DUP3 DUP5 SUB SLT ISZERO PUSH2 0x4729 JUMPI PUSH0 DUP1 REVERT JUMPDEST POP CALLDATALOAD SWAP2 SWAP1 POP JUMP JUMPDEST PUSH0 JUMPDEST DUP4 DUP2 LT ISZERO PUSH2 0x474A JUMPI DUP2 DUP2 ADD MLOAD DUP4 DUP3 ADD MSTORE PUSH1 0x20 ADD PUSH2 0x4732 JUMP JUMPDEST POP POP PUSH0 SWAP2 ADD MSTORE JUMP JUMPDEST PUSH0 DUP2 MLOAD DUP1 DUP5 MSTORE PUSH2 0x4769 DUP2 PUSH1 0x20 DUP7 ADD PUSH1 0x20 DUP7 ADD PUSH2 0x4730 JUMP JUMPDEST PUSH1 0x1F ADD PUSH1 0x1F NOT AND SWAP3 SWAP1 SWAP3 ADD PUSH1 0x20 ADD SWAP3 SWAP2 POP POP JUMP JUMPDEST PUSH1 0x20 DUP2 MSTORE PUSH0 PUSH2 0x4712 PUSH1 0x20 DUP4 ADD DUP5 PUSH2 0x4752 JUMP JUMPDEST PUSH4 0x4E487B71 PUSH1 0xE0 SHL PUSH0 MSTORE PUSH1 0x41 PUSH1 0x4 MSTORE PUSH1 0x24 PUSH0 REVERT JUMPDEST PUSH1 0x40 MLOAD PUSH1 0x1F DUP3 ADD PUSH1 0x1F NOT AND DUP2 ADD PUSH8 0xFFFFFFFFFFFFFFFF DUP2 GT DUP3 DUP3 LT OR ISZERO PUSH2 0x47CC JUMPI PUSH2 0x47CC PUSH2 0x478F JUMP JUMPDEST PUSH1 0x40 MSTORE SWAP2 SWAP1 POP JUMP JUMPDEST PUSH0 PUSH8 0xFFFFFFFFFFFFFFFF DUP3 GT ISZERO PUSH2 0x47ED JUMPI PUSH2 0x47ED PUSH2 0x478F JUMP JUMPDEST POP PUSH1 0x5 SHL PUSH1 0x20 ADD SWAP1 JUMP JUMPDEST PUSH0 DUP3 PUSH1 0x1F DUP4 ADD SLT PUSH2 0x4806 JUMPI PUSH0 DUP1 REVERT JUMPDEST DUP2 CALLDATALOAD PUSH1 0x20 PUSH2 0x481B PUSH2 0x4816 DUP4 PUSH2 0x47D4 JUMP JUMPDEST PUSH2 0x47A3 JUMP JUMPDEST DUP1 DUP4 DUP3 MSTORE PUSH1 0x20 DUP3 ADD SWAP2 POP PUSH1 0x20 DUP5 PUSH1 0x5 SHL DUP8 ADD ADD SWAP4 POP DUP7 DUP5 GT ISZERO PUSH2 0x483C JUMPI PUSH0 DUP1 REVERT JUMPDEST PUSH1 0x20 DUP7 ADD JUMPDEST DUP5 DUP2 LT ISZERO PUSH2 0x4858 JUMPI DUP1 CALLDATALOAD DUP4 MSTORE SWAP2 DUP4 ADD SWAP2 DUP4 ADD PUSH2 0x4841 JUMP JUMPDEST POP SWAP7 SWAP6 POP POP POP POP POP POP JUMP JUMPDEST PUSH0 DUP3 PUSH1 0x1F DUP4 ADD SLT PUSH2 0x4872 JUMPI PUSH0 DUP1 REVERT JUMPDEST DUP2 CALLDATALOAD PUSH8 0xFFFFFFFFFFFFFFFF DUP2 GT ISZERO PUSH2 0x488C JUMPI PUSH2 0x488C PUSH2 0x478F JUMP JUMPDEST PUSH2 0x489F PUSH1 0x1F DUP3 ADD PUSH1 0x1F NOT AND PUSH1 0x20 ADD PUSH2 0x47A3 JUMP JUMPDEST DUP2 DUP2 MSTORE DUP5 PUSH1 0x20 DUP4 DUP7 ADD ADD GT ISZERO PUSH2 0x48B3 JUMPI PUSH0 DUP1 REVERT JUMPDEST DUP2 PUSH1 0x20 DUP6 ADD PUSH1 0x20 DUP4 ADD CALLDATACOPY PUSH0 SWAP2 DUP2 ADD PUSH1 0x20 ADD SWAP2 SWAP1 SWAP2 MSTORE SWAP4 SWAP3 POP POP POP JUMP JUMPDEST PUSH0 DUP1 PUSH0 DUP1 PUSH0 PUSH1 0xA0 DUP7 DUP9 SUB SLT ISZERO PUSH2 0x48E3 JUMPI PUSH0 DUP1 REVERT JUMPDEST PUSH2 0x48EC DUP7 PUSH2 0x469F JUMP JUMPDEST SWAP5 POP PUSH2 0x48FA PUSH1 0x20 DUP8 ADD PUSH2 0x469F JUMP JUMPDEST SWAP4 POP PUSH1 0x40 DUP7 ADD CALLDATALOAD PUSH8 0xFFFFFFFFFFFFFFFF DUP1 DUP3 GT ISZERO PUSH2 0x4916 JUMPI PUSH0 DUP1 REVERT JUMPDEST PUSH2 0x4922 DUP10 DUP4 DUP11 ADD PUSH2 0x47F7 JUMP JUMPDEST SWAP5 POP PUSH1 0x60 DUP9 ADD CALLDATALOAD SWAP2 POP DUP1 DUP3 GT ISZERO PUSH2 0x4937 JUMPI PUSH0 DUP1 REVERT JUMPDEST PUSH2 0x4943 DUP10 DUP4 DUP11 ADD PUSH2 0x47F7 JUMP JUMPDEST SWAP4 POP PUSH1 0x80 DUP9 ADD CALLDATALOAD SWAP2 POP DUP1 DUP3 GT ISZERO PUSH2 0x4958 JUMPI PUSH0 DUP1 REVERT JUMPDEST POP PUSH2 0x4965 DUP9 DUP3 DUP10 ADD PUSH2 0x4863 JUMP JUMPDEST SWAP2 POP POP SWAP3 SWAP6 POP SWAP3 SWAP6 SWAP1 SWAP4 POP JUMP JUMPDEST PUSH0 DUP1 PUSH0 DUP1 PUSH1 0x80 DUP6 DUP8 SUB SLT ISZERO PUSH2 0x4985 JUMPI PUSH0 DUP1 REVERT JUMPDEST DUP5 CALLDATALOAD SWAP4 POP PUSH1 0x20 DUP6 ADD CALLDATALOAD SWAP3 POP PUSH2 0x499C PUSH1 0x40 DUP7 ADD PUSH2 0x469F JUMP JUMPDEST SWAP4 SWAP7 SWAP3 SWAP6 POP SWAP3 SWAP4 PUSH1 0x60 ADD CALLDATALOAD SWAP3 POP POP JUMP JUMPDEST PUSH0 DUP1 PUSH1 0x20 DUP4 DUP6 SUB SLT ISZERO PUSH2 0x49BD JUMPI PUSH0 DUP1 REVERT JUMPDEST DUP3 CALLDATALOAD PUSH8 0xFFFFFFFFFFFFFFFF DUP1 DUP3 GT ISZERO PUSH2 0x49D4 JUMPI PUSH0 DUP1 REVERT JUMPDEST DUP2 DUP6 ADD SWAP2 POP DUP6 PUSH1 0x1F DUP4 ADD SLT PUSH2 0x49E7 JUMPI PUSH0 DUP1 REVERT JUMPDEST DUP2 CALLDATALOAD DUP2 DUP2 GT ISZERO PUSH2 0x49F5 JUMPI PUSH0 DUP1 REVERT JUMPDEST DUP7 PUSH1 0x20 DUP3 DUP6 ADD ADD GT ISZERO PUSH2 0x4A06 JUMPI PUSH0 DUP1 REVERT JUMPDEST PUSH1 0x20 SWAP3 SWAP1 SWAP3 ADD SWAP7 SWAP2 SWAP6 POP SWAP1 SWAP4 POP POP POP POP JUMP JUMPDEST PUSH0 DUP1 PUSH1 0x40 DUP4 DUP6 SUB SLT ISZERO PUSH2 0x4A29 JUMPI PUSH0 DUP1 REVERT JUMPDEST DUP3 CALLDATALOAD PUSH8 0xFFFFFFFFFFFFFFFF DUP1 DUP3 GT ISZERO PUSH2 0x4A40 JUMPI PUSH0 DUP1 REVERT JUMPDEST DUP2 DUP6 ADD SWAP2 POP DUP6 PUSH1 0x1F DUP4 ADD SLT PUSH2 0x4A53 JUMPI PUSH0 DUP1 REVERT JUMPDEST DUP2 CALLDATALOAD PUSH1 0x20 PUSH2 0x4A63 PUSH2 0x4816 DUP4 PUSH2 0x47D4 JUMP JUMPDEST DUP3 DUP2 MSTORE PUSH1 0x5 SWAP3 SWAP1 SWAP3 SHL DUP5 ADD DUP2 ADD SWAP2 DUP2 DUP2 ADD SWAP1 DUP10 DUP5 GT ISZERO PUSH2 0x4A81 JUMPI PUSH0 DUP1 REVERT JUMPDEST SWAP5 DUP3 ADD SWAP5 JUMPDEST DUP4 DUP7 LT ISZERO PUSH2 0x4AA6 JUMPI PUSH2 0x4A97 DUP7 PUSH2 0x469F JUMP JUMPDEST DUP3 MSTORE SWAP5 DUP3 ADD SWAP5 SWAP1 DUP3 ADD SWAP1 PUSH2 0x4A86 JUMP JUMPDEST SWAP7 POP POP DUP7 ADD CALLDATALOAD SWAP3 POP POP DUP1 DUP3 GT ISZERO PUSH2 0x4ABB JUMPI PUSH0 DUP1 REVERT JUMPDEST POP PUSH2 0x4AC8 DUP6 DUP3 DUP7 ADD PUSH2 0x47F7 JUMP JUMPDEST SWAP2 POP POP SWAP3 POP SWAP3 SWAP1 POP JUMP JUMPDEST PUSH0 DUP2 MLOAD DUP1 DUP5 MSTORE PUSH1 0x20 DUP1 DUP6 ADD SWAP5 POP PUSH1 0x20 DUP5 ADD PUSH0 JUMPDEST DUP4 DUP2 LT ISZERO PUSH2 0x4B01 JUMPI DUP2 MLOAD DUP8 MSTORE SWAP6 DUP3 ADD SWAP6 SWAP1 DUP3 ADD SWAP1 PUSH1 0x1 ADD PUSH2 0x4AE5 JUMP JUMPDEST POP SWAP5 SWAP6 SWAP5 POP POP POP POP POP JUMP JUMPDEST PUSH1 0x20 DUP2 MSTORE PUSH0 PUSH2 0x4712 PUSH1 0x20 DUP4 ADD DUP5 PUSH2 0x4AD2 JUMP JUMPDEST PUSH0 DUP1 PUSH1 0x40 DUP4 DUP6 SUB SLT ISZERO PUSH2 0x4B2F JUMPI PUSH0 DUP1 REVERT JUMPDEST POP POP DUP1 CALLDATALOAD SWAP3 PUSH1 0x20 SWAP1 SWAP2 ADD CALLDATALOAD SWAP2 POP JUMP JUMPDEST PUSH0 PUSH1 0x20 DUP1 DUP4 ADD DUP2 DUP5 MSTORE DUP1 DUP6 MLOAD DUP1 DUP4 MSTORE PUSH1 0x40 SWAP3 POP PUSH1 0x40 DUP7 ADD SWAP2 POP PUSH1 0x40 DUP2 PUSH1 0x5 SHL DUP8 ADD ADD DUP5 DUP9 ADD PUSH0 JUMPDEST DUP4 DUP2 LT ISZERO PUSH2 0x4C06 JUMPI PUSH1 0x3F NOT DUP10 DUP5 SUB ADD DUP6 MSTORE DUP2 MLOAD PUSH2 0x100 DUP2 MLOAD DUP6 MSTORE DUP9 DUP3 ADD MLOAD DUP10 DUP7 ADD MSTORE DUP8 DUP3 ADD MLOAD DUP2 DUP10 DUP8 ADD MSTORE PUSH2 0x4B9C DUP3 DUP8 ADD DUP3 PUSH2 0x4752 JUMP JUMPDEST SWAP2 POP POP PUSH1 0x60 DUP1 DUP4 ADD MLOAD DUP7 DUP4 SUB DUP3 DUP9 ADD MSTORE PUSH2 0x4BB6 DUP4 DUP3 PUSH2 0x4752 JUMP JUMPDEST SWAP3 POP POP POP PUSH1 0x80 DUP1 DUP4 ADD MLOAD DUP7 DUP4 SUB DUP3 DUP9 ADD MSTORE PUSH2 0x4BD1 DUP4 DUP3 PUSH2 0x4752 JUMP JUMPDEST PUSH1 0xA0 DUP6 DUP2 ADD MLOAD SWAP1 DUP10 ADD MSTORE PUSH1 0xC0 DUP1 DUP7 ADD MLOAD SWAP1 DUP10 ADD MSTORE PUSH1 0xE0 SWAP5 DUP6 ADD MLOAD SWAP5 SWAP1 SWAP8 ADD SWAP4 SWAP1 SWAP4 MSTORE POP POP POP SWAP4 DUP7 ADD SWAP4 SWAP1 DUP7 ADD SWAP1 PUSH1 0x1 ADD PUSH2 0x4B65 JUMP JUMPDEST POP SWAP1 SWAP9 SWAP8 POP POP POP POP POP POP POP POP JUMP JUMPDEST PUSH0 DUP1 PUSH0 PUSH1 0x60 DUP5 DUP7 SUB SLT ISZERO PUSH2 0x4C26 JUMPI PUSH0 DUP1 REVERT JUMPDEST POP POP DUP2 CALLDATALOAD SWAP4 PUSH1 0x20 DUP4 ADD CALLDATALOAD SWAP4 POP PUSH1 0x40 SWAP1 SWAP3 ADD CALLDATALOAD SWAP2 SWAP1 POP JUMP JUMPDEST PUSH0 DUP1 PUSH0 DUP1 PUSH0 PUSH1 0xA0 DUP7 DUP9 SUB SLT ISZERO PUSH2 0x4C51 JUMPI PUSH0 DUP1 REVERT JUMPDEST DUP6 CALLDATALOAD SWAP5 POP PUSH1 0x20 DUP7 ADD CALLDATALOAD PUSH8 0xFFFFFFFFFFFFFFFF DUP1 DUP3 GT ISZERO PUSH2 0x4C6F JUMPI PUSH0 DUP1 REVERT JUMPDEST PUSH2 0x4C7B DUP10 DUP4 DUP11 ADD PUSH2 0x4863 JUMP JUMPDEST SWAP6 POP PUSH1 0x40 DUP9 ADD CALLDATALOAD SWAP2 POP DUP1 DUP3 GT ISZERO PUSH2 0x4C90 JUMPI PUSH0 DUP1 REVERT JUMPDEST PUSH2 0x4C9C DUP10 DUP4 DUP11 ADD PUSH2 0x4863 JUMP JUMPDEST SWAP5 POP PUSH1 0x60 DUP9 ADD CALLDATALOAD SWAP2 POP DUP1 DUP3 GT ISZERO PUSH2 0x4CB1 JUMPI PUSH0 DUP1 REVERT JUMPDEST PUSH2 0x4CBD DUP10 DUP4 DUP11 ADD PUSH2 0x47F7 JUMP JUMPDEST SWAP4 POP PUSH1 0x80 DUP9 ADD CALLDATALOAD SWAP2 POP DUP1 DUP3 GT ISZERO PUSH2 0x4CD2 JUMPI PUSH0 DUP1 REVERT JUMPDEST POP PUSH2 0x4965 DUP9 DUP3 DUP10 ADD PUSH2 0x47F7 JUMP JUMPDEST PUSH1 0x20 DUP1 DUP3 MSTORE DUP3 MLOAD DUP3 DUP3 ADD DUP2 SWAP1 MSTORE PUSH0 SWAP2 SWAP1 PUSH1 0x40 SWAP1 DUP2 DUP6 ADD SWAP1 DUP7 DUP5 ADD DUP6 JUMPDEST DUP3 DUP2 LT ISZERO PUSH2 0x4D52 JUMPI DUP2 MLOAD DUP1 MLOAD DUP6 MSTORE DUP7 DUP2 ADD MLOAD DUP8 DUP7 ADD MSTORE DUP6 DUP2 ADD MLOAD DUP7 DUP7 ADD MSTORE PUSH1 0x60 DUP1 DUP3 ADD MLOAD PUSH1 0x1 PUSH1 0x1 PUSH1 0xA0 SHL SUB AND SWAP1 DUP7 ADD MSTORE PUSH1 0x80 DUP1 DUP3 ADD MLOAD SWAP1 DUP7 ADD MSTORE PUSH1 0xA0 SWAP1 DUP2 ADD MLOAD SWAP1 DUP6 ADD MSTORE PUSH1 0xC0 SWAP1 SWAP4 ADD SWAP3 SWAP1 DUP6 ADD SWAP1 PUSH1 0x1 ADD PUSH2 0x4CFB JUMP JUMPDEST POP SWAP2 SWAP8 SWAP7 POP POP POP POP POP POP POP JUMP JUMPDEST PUSH1 0x20 DUP1 DUP3 MSTORE DUP3 MLOAD DUP3 DUP3 ADD DUP2 SWAP1 MSTORE PUSH0 SWAP2 SWAP1 PUSH1 0x40 SWAP1 DUP2 DUP6 ADD SWAP1 DUP7 DUP5 ADD DUP6 JUMPDEST DUP3 DUP2 LT ISZERO PUSH2 0x4D52 JUMPI DUP2 MLOAD DUP1 MLOAD DUP6 MSTORE DUP7 DUP2 ADD MLOAD DUP8 DUP7 ADD MSTORE DUP6 DUP2 ADD MLOAD DUP7 DUP7 ADD MSTORE PUSH1 0x60 DUP1 DUP3 ADD MLOAD SWAP1 DUP7 ADD MSTORE PUSH1 0x80 DUP1 DUP3 ADD MLOAD SWAP1 DUP7 ADD MSTORE PUSH1 0xA0 DUP1 DUP3 ADD MLOAD SWAP1 DUP7 ADD MSTORE PUSH1 0xC0 DUP1 DUP3 ADD MLOAD PUSH1 0x1 PUSH1 0x1 PUSH1 0xA0 SHL SUB AND SWAP1 DUP7 ADD MSTORE PUSH1 0xE0 SWAP1 DUP2 ADD MLOAD SWAP1 DUP6 ADD MSTORE PUSH2 0x100 SWAP1 SWAP4 ADD SWAP3 SWAP1 DUP6 ADD SWAP1 PUSH1 0x1 ADD PUSH2 0x4D7B JUMP JUMPDEST PUSH0 DUP1 PUSH0 DUP1 PUSH1 0x80 DUP6 DUP8 SUB SLT ISZERO PUSH2 0x4DFA JUMPI PUSH0 DUP1 REVERT JUMPDEST POP POP DUP3 CALLDATALOAD SWAP5 PUSH1 0x20 DUP5 ADD CALLDATALOAD SWAP5 POP PUSH1 0x40 DUP5 ADD CALLDATALOAD SWAP4 PUSH1 0x60 ADD CALLDATALOAD SWAP3 POP SWAP1 POP JUMP JUMPDEST PUSH0 DUP1 PUSH0 DUP1 PUSH0 DUP1 PUSH0 PUSH1 0xE0 DUP9 DUP11 SUB SLT ISZERO PUSH2 0x4E2C JUMPI PUSH0 DUP1 REVERT JUMPDEST DUP8 CALLDATALOAD SWAP7 POP PUSH1 0x20 DUP9 ADD CALLDATALOAD PUSH8 0xFFFFFFFFFFFFFFFF DUP1 DUP3 GT ISZERO PUSH2 0x4E4A JUMPI PUSH0 DUP1 REVERT JUMPDEST PUSH2 0x4E56 DUP12 DUP4 DUP13 ADD PUSH2 0x4863 JUMP JUMPDEST SWAP8 POP PUSH1 0x40 DUP11 ADD CALLDATALOAD SWAP2 POP DUP1 DUP3 GT ISZERO PUSH2 0x4E6B JUMPI PUSH0 DUP1 REVERT JUMPDEST PUSH2 0x4E77 DUP12 DUP4 DUP13 ADD PUSH2 0x4863 JUMP JUMPDEST SWAP7 POP PUSH1 0x60 DUP11 ADD CALLDATALOAD SWAP2 POP DUP1 DUP3 GT ISZERO PUSH2 0x4E8C JUMPI PUSH0 DUP1 REVERT JUMPDEST POP PUSH2 0x4E99 DUP11 DUP3 DUP12 ADD PUSH2 0x4863 JUMP JUMPDEST SWAP8 SWAP11 SWAP7 SWAP10 POP SWAP5 SWAP8 PUSH1 0x80 DUP2 ADD CALLDATALOAD SWAP7 PUSH1 0xA0 DUP3 ADD CALLDATALOAD SWAP7 POP PUSH1 0xC0 SWAP1 SWAP2 ADD CALLDATALOAD SWAP5 POP SWAP3 POP POP POP JUMP JUMPDEST PUSH0 DUP1 PUSH0 DUP1 PUSH0 DUP1 PUSH0 PUSH1 0xE0 DUP9 DUP11 SUB SLT ISZERO PUSH2 0x4ED1 JUMPI PUSH0 DUP1 REVERT JUMPDEST DUP8 CALLDATALOAD SWAP7 POP PUSH1 0x20 DUP9 ADD CALLDATALOAD SWAP6 POP PUSH1 0x40 DUP9 ADD CALLDATALOAD SWAP5 POP PUSH1 0x60 DUP9 ADD CALLDATALOAD SWAP4 POP PUSH1 0x80 DUP9 ADD CALLDATALOAD SWAP3 POP PUSH2 0x4EFD PUSH1 0xA0 DUP10 ADD PUSH2 0x469F JUMP JUMPDEST SWAP2 POP PUSH1 0xC0 DUP9 ADD CALLDATALOAD SWAP1 POP SWAP3 SWAP6 SWAP9 SWAP2 SWAP5 SWAP8 POP SWAP3 SWAP6 POP JUMP JUMPDEST PUSH0 PUSH1 0x20 DUP3 DUP5 SUB SLT ISZERO PUSH2 0x4F22 JUMPI PUSH0 DUP1 REVERT JUMPDEST DUP2 CALLDATALOAD PUSH8 0xFFFFFFFFFFFFFFFF DUP2 GT ISZERO PUSH2 0x4F38 JUMPI PUSH0 DUP1 REVERT JUMPDEST PUSH2 0x4F44 DUP5 DUP3 DUP6 ADD PUSH2 0x4863 JUMP JUMPDEST SWAP5 SWAP4 POP POP POP POP JUMP JUMPDEST PUSH0 DUP1 PUSH1 0x40 DUP4 DUP6 SUB SLT ISZERO PUSH2 0x4F5D JUMPI PUSH0 DUP1 REVERT JUMPDEST PUSH2 0x4F66 DUP4 PUSH2 0x469F JUMP JUMPDEST SWAP2 POP PUSH1 0x20 DUP4 ADD CALLDATALOAD DUP1 ISZERO ISZERO DUP2 EQ PUSH2 0x4F7A JUMPI PUSH0 DUP1 REVERT JUMPDEST DUP1 SWAP2 POP POP SWAP3 POP SWAP3 SWAP1 POP JUMP JUMPDEST PUSH0 PUSH1 0x20 DUP1 DUP4 ADD DUP2 DUP5 MSTORE DUP1 DUP6 MLOAD DUP1 DUP4 MSTORE PUSH1 0x40 SWAP3 POP PUSH1 0x40 DUP7 ADD SWAP2 POP PUSH1 0x40 DUP2 PUSH1 0x5 SHL DUP8 ADD ADD DUP5 DUP9 ADD PUSH0 JUMPDEST DUP4 DUP2 LT ISZERO PUSH2 0x4C06 JUMPI PUSH1 0x3F NOT DUP10 DUP5 SUB ADD DUP6 MSTORE DUP2 MLOAD PUSH1 0x60 DUP2 MLOAD DUP2 DUP7 MSTORE PUSH2 0x4FD2 DUP3 DUP8 ADD DUP3 PUSH2 0x4752 JUMP JUMPDEST DUP4 DUP12 ADD MLOAD PUSH1 0x1 PUSH1 0x1 PUSH1 0xA0 SHL SUB AND DUP8 DUP13 ADD MSTORE SWAP3 DUP10 ADD MLOAD SWAP6 DUP10 ADD SWAP6 SWAP1 SWAP6 MSTORE POP SWAP5 DUP8 ADD SWAP5 SWAP3 POP SWAP1 DUP7 ADD SWAP1 PUSH1 0x1 ADD PUSH2 0x4FAC JUMP JUMPDEST PUSH0 DUP1 PUSH1 0x40 DUP4 DUP6 SUB SLT ISZERO PUSH2 0x5012 JUMPI PUSH0 DUP1 REVERT JUMPDEST PUSH2 0x501B DUP4 PUSH2 0x469F JUMP JUMPDEST SWAP2 POP PUSH2 0x5029 PUSH1 0x20 DUP5 ADD PUSH2 0x469F JUMP JUMPDEST SWAP1 POP SWAP3 POP SWAP3 SWAP1 POP JUMP JUMPDEST PUSH0 DUP1 PUSH0 DUP1 PUSH0 PUSH1 0xA0 DUP7 DUP9 SUB SLT ISZERO PUSH2 0x5046 JUMPI PUSH0 DUP1 REVERT JUMPDEST PUSH2 0x504F DUP7 PUSH2 0x469F JUMP JUMPDEST SWAP5 POP PUSH2 0x505D PUSH1 0x20 DUP8 ADD PUSH2 0x469F JUMP JUMPDEST SWAP4 POP PUSH1 0x40 DUP7 ADD CALLDATALOAD SWAP3 POP PUSH1 0x60 DUP7 ADD CALLDATALOAD SWAP2 POP PUSH1 0x80 DUP7 ADD CALLDATALOAD PUSH8 0xFFFFFFFFFFFFFFFF DUP2 GT ISZERO PUSH2 0x5086 JUMPI PUSH0 DUP1 REVERT JUMPDEST PUSH2 0x4965 DUP9 DUP3 DUP10 ADD PUSH2 0x4863 JUMP JUMPDEST PUSH0 PUSH1 0x20 DUP1 DUP4 ADD DUP2 DUP5 MSTORE DUP1 DUP6 MLOAD DUP1 DUP4 MSTORE PUSH1 0x40 SWAP3 POP PUSH1 0x40 DUP7 ADD SWAP2 POP PUSH1 0x40 DUP2 PUSH1 0x5 SHL DUP8 ADD ADD DUP5 DUP9 ADD PUSH0 JUMPDEST DUP4 DUP2 LT ISZERO PUSH2 0x4C06 JUMPI PUSH1 0x3F NOT DUP10 DUP5 SUB ADD DUP6 MSTORE DUP2 MLOAD PUSH1 0xA0 DUP2 MLOAD DUP6 MSTORE DUP9 DUP3 ADD MLOAD DUP2 DUP11 DUP8 ADD MSTORE PUSH2 0x50E7 DUP3 DUP8 ADD DUP3 PUSH2 0x4752 JUMP JUMPDEST SWAP2 POP POP DUP8 DUP3 ADD MLOAD DUP6 DUP3 SUB DUP10 DUP8 ADD MSTORE PUSH2 0x50FF DUP3 DUP3 PUSH2 0x4752 JUMP JUMPDEST SWAP2 POP POP PUSH1 0x60 DUP1 DUP4 ADD MLOAD DUP7 DUP4 SUB DUP3 DUP9 ADD MSTORE PUSH2 0x5119 DUP4 DUP3 PUSH2 0x4AD2 JUMP JUMPDEST SWAP3 POP POP POP PUSH1 0x80 DUP1 DUP4 ADD MLOAD SWAP3 POP DUP6 DUP3 SUB DUP2 DUP8 ADD MSTORE POP PUSH2 0x5137 DUP2 DUP4 PUSH2 0x4AD2 JUMP JUMPDEST SWAP7 DUP10 ADD SWAP7 SWAP5 POP POP POP SWAP1 DUP7 ADD SWAP1 PUSH1 0x1 ADD PUSH2 0x50B9 JUMP JUMPDEST PUSH1 0x1 DUP2 DUP2 SHR SWAP1 DUP3 AND DUP1 PUSH2 0x515F JUMPI PUSH1 0x7F DUP3 AND SWAP2 POP JUMPDEST PUSH1 0x20 DUP3 LT DUP2 SUB PUSH2 0x517D JUMPI PUSH4 0x4E487B71 PUSH1 0xE0 SHL PUSH0 MSTORE PUSH1 0x22 PUSH1 0x4 MSTORE PUSH1 0x24 PUSH0 REVERT JUMPDEST POP SWAP2 SWAP1 POP JUMP JUMPDEST PUSH1 0x20 DUP1 DUP3 MSTORE PUSH1 0x48 SWAP1 DUP3 ADD MSTORE PUSH32 0xD0A2D0BED0BBD18CD0BAD0BE20D0B2D0BBD0B0D0B4D0B5D0BBD0B5D18620D0BC PUSH1 0x40 DUP3 ADD MSTORE PUSH32 0xD0BED0B6D0B5D18220D18DD182D0BE20D0B8D181D0BFD0BED0BBD18CD0B7D0BE PUSH1 0x60 DUP3 ADD MSTORE PUSH8 0x342CB42C3460B463 PUSH1 0xC2 SHL PUSH1 0x80 DUP3 ADD MSTORE PUSH1 0xA0 ADD SWAP1 JUMP JUMPDEST PUSH4 0x4E487B71 PUSH1 0xE0 SHL PUSH0 MSTORE PUSH1 0x32 PUSH1 0x4 MSTORE PUSH1 0x24 PUSH0 REVERT JUMPDEST PUSH4 0x4E487B71 PUSH1 0xE0 SHL PUSH0 MSTORE PUSH1 0x11 PUSH1 0x4 MSTORE PUSH1 0x24 PUSH0 REVERT JUMPDEST DUP1 DUP3 MUL DUP2 ISZERO DUP3 DUP3 DIV DUP5 EQ OR PUSH2 0x3E2 JUMPI PUSH2 0x3E2 PUSH2 0x5205 JUMP JUMPDEST PUSH1 0x1F DUP3 GT ISZERO PUSH2 0x16FA JUMPI DUP1 PUSH0 MSTORE PUSH1 0x20 PUSH0 KECCAK256 PUSH1 0x1F DUP5 ADD PUSH1 0x5 SHR DUP2 ADD PUSH1 0x20 DUP6 LT ISZERO PUSH2 0x5255 JUMPI POP DUP1 JUMPDEST PUSH1 0x1F DUP5 ADD PUSH1 0x5 SHR DUP3 ADD SWAP2 POP JUMPDEST DUP2 DUP2 LT ISZERO PUSH2 0x3F71 JUMPI PUSH0 DUP2 SSTORE PUSH1 0x1 ADD PUSH2 0x5261 JUMP JUMPDEST DUP2 MLOAD PUSH8 0xFFFFFFFFFFFFFFFF DUP2 GT ISZERO PUSH2 0x528E JUMPI PUSH2 0x528E PUSH2 0x478F JUMP JUMPDEST PUSH2 0x52A2 DUP2 PUSH2 0x529C DUP5 SLOAD PUSH2 0x514B JUMP JUMPDEST DUP5 PUSH2 0x5230 JUMP JUMPDEST PUSH1 0x20 DUP1 PUSH1 0x1F DUP4 GT PUSH1 0x1 DUP2 EQ PUSH2 0x52D5 JUMPI PUSH0 DUP5 ISZERO PUSH2 0x52BE JUMPI POP DUP6 DUP4 ADD MLOAD JUMPDEST PUSH0 NOT PUSH1 0x3 DUP7 SWAP1 SHL SHR NOT AND PUSH1 0x1 DUP6 SWAP1 SHL OR DUP6 SSTORE PUSH2 0xDCC JUMP JUMPDEST PUSH0 DUP6 DUP2 MSTORE PUSH1 0x20 DUP2 KECCAK256 PUSH1 0x1F NOT DUP7 AND SWAP2 JUMPDEST DUP3 DUP2 LT ISZERO PUSH2 0x5303 JUMPI DUP9 DUP7 ADD MLOAD DUP3 SSTORE SWAP5 DUP5 ADD SWAP5 PUSH1 0x1 SWAP1 SWAP2 ADD SWAP1 DUP5 ADD PUSH2 0x52E4 JUMP JUMPDEST POP DUP6 DUP3 LT ISZERO PUSH2 0x5320 JUMPI DUP8 DUP6 ADD MLOAD PUSH0 NOT PUSH1 0x3 DUP9 SWAP1 SHL PUSH1 0xF8 AND SHR NOT AND DUP2 SSTORE JUMPDEST POP POP POP POP POP PUSH1 0x1 SWAP1 DUP2 SHL ADD SWAP1 SSTORE POP JUMP JUMPDEST DUP2 DUP2 SUB DUP2 DUP2 GT ISZERO PUSH2 0x3E2 JUMPI PUSH2 0x3E2 PUSH2 0x5205 JUMP JUMPDEST PUSH0 DUP1 DUP6 DUP6 GT ISZERO PUSH2 0x5351 JUMPI PUSH0 DUP1 REVERT JUMPDEST DUP4 DUP7 GT ISZERO PUSH2 0x535D JUMPI PUSH0 DUP1 REVERT JUMPDEST POP POP DUP3 ADD SWAP4 SWAP2 SWAP1 SWAP3 SUB SWAP2 POP JUMP JUMPDEST PUSH6 0x50524F46492D PUSH1 0xD0 SHL DUP2 MSTORE DUP2 DUP4 PUSH1 0x6 DUP4 ADD CALLDATACOPY PUSH4 0xC8C0C8D PUSH1 0xE2 SHL SWAP2 ADD PUSH1 0x6 DUP2 ADD SWAP2 SWAP1 SWAP2 MSTORE PUSH1 0xA ADD SWAP2 SWAP1 POP JUMP JUMPDEST PUSH0 DUP3 MLOAD PUSH2 0x53A8 DUP2 DUP5 PUSH1 0x20 DUP8 ADD PUSH2 0x4730 JUMP JUMPDEST SWAP2 SWAP1 SWAP2 ADD SWAP3 SWAP2 POP POP JUMP JUMPDEST PUSH1 0x20 DUP1 DUP3 MSTORE PUSH1 0x1F SWAP1 DUP3 ADD MSTORE PUSH32 0xD090D183D0BAD186D0B8D0BED0BD20D0B7D0B0D0B2D0B5D180D188D191D0BD00 PUSH1 0x40 DUP3 ADD MSTORE PUSH1 0x60 ADD SWAP1 JUMP JUMPDEST PUSH0 DUP3 PUSH2 0x5403 JUMPI PUSH4 0x4E487B71 PUSH1 0xE0 SHL PUSH0 MSTORE PUSH1 0x12 PUSH1 0x4 MSTORE PUSH1 0x24 PUSH0 REVERT JUMPDEST POP DIV SWAP1 JUMP JUMPDEST PUSH0 DUP1 DUP4 SLOAD PUSH2 0x5415 DUP2 PUSH2 0x514B JUMP JUMPDEST PUSH1 0x1 DUP3 DUP2 AND DUP1 ISZERO PUSH2 0x542D JUMPI PUSH1 0x1 DUP2 EQ PUSH2 0x5442 JUMPI PUSH2 0x546E JUMP JUMPDEST PUSH1 0xFF NOT DUP5 AND DUP8 MSTORE DUP3 ISZERO ISZERO DUP4 MUL DUP8 ADD SWAP5 POP PUSH2 0x546E JUMP JUMPDEST DUP8 PUSH0 MSTORE PUSH1 0x20 DUP1 PUSH0 KECCAK256 PUSH0 JUMPDEST DUP6 DUP2 LT ISZERO PUSH2 0x5465 JUMPI DUP2 SLOAD DUP11 DUP3 ADD MSTORE SWAP1 DUP5 ADD SWAP1 DUP3 ADD PUSH2 0x544C JUMP JUMPDEST POP POP POP DUP3 DUP8 ADD SWAP5 POP JUMPDEST POP SWAP3 SWAP7 SWAP6 POP POP POP POP POP POP JUMP JUMPDEST DUP1 DUP3 ADD DUP1 DUP3 GT ISZERO PUSH2 0x3E2 JUMPI PUSH2 0x3E2 PUSH2 0x5205 JUMP JUMPDEST PUSH1 0x40 DUP2 MSTORE PUSH0 PUSH2 0x549F PUSH1 0x40 DUP4 ADD DUP6 PUSH2 0x4AD2 JUMP JUMPDEST DUP3 DUP2 SUB PUSH1 0x20 DUP5 ADD MSTORE PUSH2 0x54B1 DUP2 DUP6 PUSH2 0x4AD2 JUMP JUMPDEST SWAP6 SWAP5 POP POP POP POP POP JUMP JUMPDEST PUSH1 0x1 PUSH1 0x1 PUSH1 0xA0 SHL SUB DUP7 DUP2 AND DUP3 MSTORE DUP6 AND PUSH1 0x20 DUP3 ADD MSTORE PUSH1 0x40 DUP2 ADD DUP5 SWAP1 MSTORE PUSH1 0x60 DUP2 ADD DUP4 SWAP1 MSTORE PUSH1 0xA0 PUSH1 0x80 DUP3 ADD DUP2 SWAP1 MSTORE PUSH0 SWAP1 PUSH2 0x54F3 SWAP1 DUP4 ADD DUP5 PUSH2 0x4752 JUMP JUMPDEST SWAP8 SWAP7 POP POP POP POP POP POP POP JUMP JUMPDEST PUSH0 PUSH1 0x20 DUP3 DUP5 SUB SLT ISZERO PUSH2 0x550E JUMPI PUSH0 DUP1 REVERT JUMPDEST DUP2 MLOAD PUSH2 0x4712 DUP2 PUSH2 0x46E2 JUMP JUMPDEST PUSH1 0x1 PUSH1 0x1 PUSH1 0xA0 SHL SUB DUP7 DUP2 AND DUP3 MSTORE DUP6 AND PUSH1 0x20 DUP3 ADD MSTORE PUSH1 0xA0 PUSH1 0x40 DUP3 ADD DUP2 SWAP1 MSTORE PUSH0 SWAP1 PUSH2 0x5544 SWAP1 DUP4 ADD DUP7 PUSH2 0x4AD2 JUMP JUMPDEST DUP3 DUP2 SUB PUSH1 0x60 DUP5 ADD MSTORE PUSH2 0x5556 DUP2 DUP7 PUSH2 0x4AD2 JUMP JUMPDEST SWAP1 POP DUP3 DUP2 SUB PUSH1 0x80 DUP5 ADD MSTORE PUSH2 0x556A DUP2 DUP6 PUSH2 0x4752 JUMP JUMPDEST SWAP9 SWAP8 POP POP POP POP POP POP POP POP JUMP INVALID LOG2 PUSH5 0x6970667358 0x22 SLT KECCAK256 0xB8 DUP13 EXP 0xDA SELFDESTRUCT MULMOD 0xCC PUSH13 0xDBFE6CD1C8559A0823B0107F5 0x4F DUP16 LOG0 0xE8 STATICCALL 0x26 0x2C 0xD0 SWAP15 SMOD 0xBE PUSH5 0x736F6C6343 STOP ADDMOD OR STOP CALLER 0xD0 SWAP16 0xD1 DUP4 0xD0 0xB7 0xD1 DUP12 0xD1 DUP1 0xD0 0xB8 0xD0 0xBA KECCAK256 0xD0 0xBF 0xD0 0xBE 0xD1 DUP6 0xD0 0xB8 0xD1 DUP3 0xD0 0xB8 0xD0 0xBB KECCAK256 0xD0 0xBA 0xD0 0xBE 0xD1 DUP3 0xD0 0xB8 0xD0 0xBA 0xD0 0xB0 KECCAK256 0xD1 DUP2 KECCAK256 0xD0 SWAP8 0xD0 0xB5 0xD0 0xBC 0xD0 0xBB 0xD0 0xB8 0xD0 SWAP11 0xD0 0xBE 0xD0 0xBC 0xD0 0xBE 0xD1 DUP8 0xD0 0xB5 0xD0 0xBA KECCAK256 0xD1 DUP2 0xD0 0xBB 0xD0 0xB8 0xD0 0xBB 0xD1 DUP2 0xD1 DUP16 KECCAK256 0xD1 DUP2 KECCAK256 0xD0 0xBA 0xD0 0xBE 0xD1 DUP2 0xD0 0xBC 0xD0 0xBE 0xD1 DUP2 0xD0 0xBE 0xD0 0xBC 0xD0 SWAP3 0xD0 0xBA 0xD1 DUP4 0xD1 DUP2 0xD0 0xBD 0xD1 DUP16 0xD1 DUP9 0xD0 0xBA 0xD0 0xB0 KECCAK256 0xD0 0xB2 0xD0 0xBF 0xD0 0xB5 0xD1 DUP1 0xD0 0xB2 0xD1 DUP12 0xD0 0xB5 KECCAK256 0xD0 0xBF 0xD1 DUP1 0xD0 0xBE 0xD0 0xB1 0xD1 DUP4 0xD0 0xB5 0xD1 DUP3 KECCAK256 0xD1 DUP16 0xD0 0xBF 0xD0 0xBE 0xD0 0xBD 0xD1 DUP2 0xD0 0xBA 0xD1 DUP4 0xD1 DUP15 KECCAK256 0xD0 0xBA 0xD1 DUP4 0xD1 DUP6 0xD0 0xBD 0xD1 DUP15 "
		},
		"gasEstimates": {
			"creation": {
				"codeDepositCost": "4386400",
				"executionCost": "infinite",
				"totalCost": "infinite"
			},
			"external": {
				"balanceOf(address,uint256)": "2657",
				"balanceOfBatch(address[],uint256[])": "infinite",
				"bid(uint256,uint256)": "infinite",
				"buyAsset(uint256,uint256,uint256)": "infinite",
				"changeSellPrice(uint256,uint256)": "31198",
				"createAsset(uint256,string,string,string,uint256,uint256,uint256)": "infinite",
				"createCollection(uint256,string,string,uint256[],uint256[])": "infinite",
				"createRef(string)": "infinite",
				"finishAuc(uint256)": "infinite",
				"getAsset()": "infinite",
				"getAuction()": "infinite",
				"getCollectionAsset()": "infinite",
				"getReferrals()": "infinite",
				"getSells()": "infinite",
				"isApprovedForAll(address,address)": "infinite",
				"safeBatchTransferFrom(address,address,uint256[],uint256[],bytes)": "infinite",
				"safeTransferFrom(address,address,uint256,uint256,bytes)": "infinite",
				"sellAsset(uint256,uint256,uint256,uint256)": "163968",
				"setApprovalForAll(address,bool)": "26701",
				"startAuc(uint256,uint256,uint256,uint256,uint256,address,uint256)": "infinite",
				"supportsInterface(bytes4)": "575",
				"takeNFT(uint256)": "infinite",
				"transferAsset(uint256,uint256,address,uint256)": "infinite",
				"upBid(uint256,uint256)": "infinite",
				"uri(uint256)": "infinite",
				"useReferral(string)": "infinite"
			}
		},
		"methodIdentifiers": {
			"balanceOf(address,uint256)": "00fdd58e",
			"balanceOfBatch(address[],uint256[])": "4e1273f4",
			"bid(uint256,uint256)": "598647f8",
			"buyAsset(uint256,uint256,uint256)": "68dadec2",
			"changeSellPrice(uint256,uint256)": "90420aee",
			"createAsset(uint256,string,string,string,uint256,uint256,uint256)": "845c54f6",
			"createCollection(uint256,string,string,uint256[],uint256[])": "694f82b4",
			"createRef(string)": "4dad2aab",
			"finishAuc(uint256)": "222d9c5c",
			"getAsset()": "5c222bad",
			"getAuction()": "7327df25",
			"getCollectionAsset()": "f8976921",
			"getReferrals()": "a2a376cd",
			"getSells()": "6bf1955d",
			"isApprovedForAll(address,address)": "e985e9c5",
			"safeBatchTransferFrom(address,address,uint256[],uint256[],bytes)": "2eb2c2d6",
			"safeTransferFrom(address,address,uint256,uint256,bytes)": "f242432a",
			"sellAsset(uint256,uint256,uint256,uint256)": "7ba9165c",
			"setApprovalForAll(address,bool)": "a22cb465",
			"startAuc(uint256,uint256,uint256,uint256,uint256,address,uint256)": "958828e3",
			"supportsInterface(bytes4)": "01ffc9a7",
			"takeNFT(uint256)": "fb2facc3",
			"transferAsset(uint256,uint256,address,uint256)": "3aacc912",
			"upBid(uint256,uint256)": "b8acb416",
			"uri(uint256)": "0e89341c",
			"useReferral(string)": "97f588c6"
		}
	},
	"abi": [
		{
			"inputs": [
				{
					"internalType": "address",
					"name": "_contractAddress",
					"type": "address"
				}
			],
			"stateMutability": "nonpayable",
			"type": "constructor"
		},
		{
			"inputs": [
				{
					"internalType": "address",
					"name": "sender",
					"type": "address"
				},
				{
					"internalType": "uint256",
					"name": "balance",
					"type": "uint256"
				},
				{
					"internalType": "uint256",
					"name": "needed",
					"type": "uint256"
				},
				{
					"internalType": "uint256",
					"name": "tokenId",
					"type": "uint256"
				}
			],
			"name": "ERC1155InsufficientBalance",
			"type": "error"
		},
		{
			"inputs": [
				{
					"internalType": "address",
					"name": "approver",
					"type": "address"
				}
			],
			"name": "ERC1155InvalidApprover",
			"type": "error"
		},
		{
			"inputs": [
				{
					"internalType": "uint256",
					"name": "idsLength",
					"type": "uint256"
				},
				{
					"internalType": "uint256",
					"name": "valuesLength",
					"type": "uint256"
				}
			],
			"name": "ERC1155InvalidArrayLength",
			"type": "error"
		},
		{
			"inputs": [
				{
					"internalType": "address",
					"name": "operator",
					"type": "address"
				}
			],
			"name": "ERC1155InvalidOperator",
			"type": "error"
		},
		{
			"inputs": [
				{
					"internalType": "address",
					"name": "receiver",
					"type": "address"
				}
			],
			"name": "ERC1155InvalidReceiver",
			"type": "error"
		},
		{
			"inputs": [
				{
					"internalType": "address",
					"name": "sender",
					"type": "address"
				}
			],
			"name": "ERC1155InvalidSender",
			"type": "error"
		},
		{
			"inputs": [
				{
					"internalType": "address",
					"name": "operator",
					"type": "address"
				},
				{
					"internalType": "address",
					"name": "owner",
					"type": "address"
				}
			],
			"name": "ERC1155MissingApprovalForAll",
			"type": "error"
		},
		{
			"anonymous": false,
			"inputs": [
				{
					"indexed": true,
					"internalType": "address",
					"name": "account",
					"type": "address"
				},
				{
					"indexed": true,
					"internalType": "address",
					"name": "operator",
					"type": "address"
				},
				{
					"indexed": false,
					"internalType": "bool",
					"name": "approved",
					"type": "bool"
				}
			],
			"name": "ApprovalForAll",
			"type": "event"
		},
		{
			"anonymous": false,
			"inputs": [
				{
					"indexed": true,
					"internalType": "address",
					"name": "operator",
					"type": "address"
				},
				{
					"indexed": true,
					"internalType": "address",
					"name": "from",
					"type": "address"
				},
				{
					"indexed": true,
					"internalType": "address",
					"name": "to",
					"type": "address"
				},
				{
					"indexed": false,
					"internalType": "uint256[]",
					"name": "ids",
					"type": "uint256[]"
				},
				{
					"indexed": false,
					"internalType": "uint256[]",
					"name": "values",
					"type": "uint256[]"
				}
			],
			"name": "TransferBatch",
			"type": "event"
		},
		{
			"anonymous": false,
			"inputs": [
				{
					"indexed": true,
					"internalType": "address",
					"name": "operator",
					"type": "address"
				},
				{
					"indexed": true,
					"internalType": "address",
					"name": "from",
					"type": "address"
				},
				{
					"indexed": true,
					"internalType": "address",
					"name": "to",
					"type": "address"
				},
				{
					"indexed": false,
					"internalType": "uint256",
					"name": "id",
					"type": "uint256"
				},
				{
					"indexed": false,
					"internalType": "uint256",
					"name": "value",
					"type": "uint256"
				}
			],
			"name": "TransferSingle",
			"type": "event"
		},
		{
			"anonymous": false,
			"inputs": [
				{
					"indexed": false,
					"internalType": "string",
					"name": "value",
					"type": "string"
				},
				{
					"indexed": true,
					"internalType": "uint256",
					"name": "id",
					"type": "uint256"
				}
			],
			"name": "URI",
			"type": "event"
		},
		{
			"inputs": [
				{
					"internalType": "address",
					"name": "account",
					"type": "address"
				},
				{
					"internalType": "uint256",
					"name": "id",
					"type": "uint256"
				}
			],
			"name": "balanceOf",
			"outputs": [
				{
					"internalType": "uint256",
					"name": "",
					"type": "uint256"
				}
			],
			"stateMutability": "view",
			"type": "function"
		},
		{
			"inputs": [
				{
					"internalType": "address[]",
					"name": "accounts",
					"type": "address[]"
				},
				{
					"internalType": "uint256[]",
					"name": "ids",
					"type": "uint256[]"
				}
			],
			"name": "balanceOfBatch",
			"outputs": [
				{
					"internalType": "uint256[]",
					"name": "",
					"type": "uint256[]"
				}
			],
			"stateMutability": "view",
			"type": "function"
		},
		{
			"inputs": [
				{
					"internalType": "uint256",
					"name": "_idx",
					"type": "uint256"
				},
				{
					"internalType": "uint256",
					"name": "_bet",
					"type": "uint256"
				}
			],
			"name": "bid",
			"outputs": [],
			"stateMutability": "nonpayable",
			"type": "function"
		},
		{
			"inputs": [
				{
					"internalType": "uint256",
					"name": "_id",
					"type": "uint256"
				},
				{
					"internalType": "uint256",
					"name": "_amount",
					"type": "uint256"
				},
				{
					"internalType": "uint256",
					"name": "_discount",
					"type": "uint256"
				}
			],
			"name": "buyAsset",
			"outputs": [],
			"stateMutability": "nonpayable",
			"type": "function"
		},
		{
			"inputs": [
				{
					"internalType": "uint256",
					"name": "_idx",
					"type": "uint256"
				},
				{
					"internalType": "uint256",
					"name": "_price",
					"type": "uint256"
				}
			],
			"name": "changeSellPrice",
			"outputs": [],
			"stateMutability": "nonpayable",
			"type": "function"
		},
		{
			"inputs": [
				{
					"internalType": "uint256",
					"name": "_id",
					"type": "uint256"
				},
				{
					"internalType": "string",
					"name": "_name",
					"type": "string"
				},
				{
					"internalType": "string",
					"name": "_desc",
					"type": "string"
				},
				{
					"internalType": "string",
					"name": "_img",
					"type": "string"
				},
				{
					"internalType": "uint256",
					"name": "_price",
					"type": "uint256"
				},
				{
					"internalType": "uint256",
					"name": "_releasedAmount",
					"type": "uint256"
				},
				{
					"internalType": "uint256",
					"name": "_dateCreate",
					"type": "uint256"
				}
			],
			"name": "createAsset",
			"outputs": [],
			"stateMutability": "nonpayable",
			"type": "function"
		},
		{
			"inputs": [
				{
					"internalType": "uint256",
					"name": "_id",
					"type": "uint256"
				},
				{
					"internalType": "string",
					"name": "_name",
					"type": "string"
				},
				{
					"internalType": "string",
					"name": "_desc",
					"type": "string"
				},
				{
					"internalType": "uint256[]",
					"name": "_ids",
					"type": "uint256[]"
				},
				{
					"internalType": "uint256[]",
					"name": "_amounts",
					"type": "uint256[]"
				}
			],
			"name": "createCollection",
			"outputs": [],
			"stateMutability": "nonpayable",
			"type": "function"
		},
		{
			"inputs": [
				{
					"internalType": "string",
					"name": "_wallet",
					"type": "string"
				}
			],
			"name": "createRef",
			"outputs": [
				{
					"internalType": "string",
					"name": "",
					"type": "string"
				}
			],
			"stateMutability": "nonpayable",
			"type": "function"
		},
		{
			"inputs": [
				{
					"internalType": "uint256",
					"name": "_idx",
					"type": "uint256"
				}
			],
			"name": "finishAuc",
			"outputs": [],
			"stateMutability": "nonpayable",
			"type": "function"
		},
		{
			"inputs": [],
			"name": "getAsset",
			"outputs": [
				{
					"components": [
						{
							"internalType": "uint256",
							"name": "id",
							"type": "uint256"
						},
						{
							"internalType": "uint256",
							"name": "idx",
							"type": "uint256"
						},
						{
							"internalType": "string",
							"name": "name",
							"type": "string"
						},
						{
							"internalType": "string",
							"name": "desc",
							"type": "string"
						},
						{
							"internalType": "string",
							"name": "img",
							"type": "string"
						},
						{
							"internalType": "uint256",
							"name": "price",
							"type": "uint256"
						},
						{
							"internalType": "uint256",
							"name": "releasedAmount",
							"type": "uint256"
						},
						{
							"internalType": "uint256",
							"name": "dateCreate",
							"type": "uint256"
						}
					],
					"internalType": "struct NFT.Asset[]",
					"name": "",
					"type": "tuple[]"
				}
			],
			"stateMutability": "view",
			"type": "function"
		},
		{
			"inputs": [],
			"name": "getAuction",
			"outputs": [
				{
					"components": [
						{
							"internalType": "uint256",
							"name": "id",
							"type": "uint256"
						},
						{
							"internalType": "uint256",
							"name": "collectionId",
							"type": "uint256"
						},
						{
							"internalType": "uint256",
							"name": "timeStart",
							"type": "uint256"
						},
						{
							"internalType": "uint256",
							"name": "timeEnd",
							"type": "uint256"
						},
						{
							"internalType": "uint256",
							"name": "maxPrice",
							"type": "uint256"
						},
						{
							"internalType": "uint256",
							"name": "minPrice",
							"type": "uint256"
						},
						{
							"internalType": "address",
							"name": "leader",
							"type": "address"
						},
						{
							"internalType": "uint256",
							"name": "currentBet",
							"type": "uint256"
						}
					],
					"internalType": "struct NFT.Auction[]",
					"name": "",
					"type": "tuple[]"
				}
			],
			"stateMutability": "view",
			"type": "function"
		},
		{
			"inputs": [],
			"name": "getCollectionAsset",
			"outputs": [
				{
					"components": [
						{
							"internalType": "uint256",
							"name": "id",
							"type": "uint256"
						},
						{
							"internalType": "string",
							"name": "name",
							"type": "string"
						},
						{
							"internalType": "string",
							"name": "desc",
							"type": "string"
						},
						{
							"internalType": "uint256[]",
							"name": "ids",
							"type": "uint256[]"
						},
						{
							"internalType": "uint256[]",
							"name": "amounts",
							"type": "uint256[]"
						}
					],
					"internalType": "struct NFT.CollectionAsset[]",
					"name": "",
					"type": "tuple[]"
				}
			],
			"stateMutability": "view",
			"type": "function"
		},
		{
			"inputs": [],
			"name": "getReferrals",
			"outputs": [
				{
					"components": [
						{
							"internalType": "string",
							"name": "name",
							"type": "string"
						},
						{
							"internalType": "address",
							"name": "owner",
							"type": "address"
						},
						{
							"internalType": "uint256",
							"name": "discount",
							"type": "uint256"
						}
					],
					"internalType": "struct NFT.ReferralCode[]",
					"name": "",
					"type": "tuple[]"
				}
			],
			"stateMutability": "view",
			"type": "function"
		},
		{
			"inputs": [],
			"name": "getSells",
			"outputs": [
				{
					"components": [
						{
							"internalType": "uint256",
							"name": "id",
							"type": "uint256"
						},
						{
							"internalType": "uint256",
							"name": "assetId",
							"type": "uint256"
						},
						{
							"internalType": "uint256",
							"name": "assetIdx",
							"type": "uint256"
						},
						{
							"internalType": "address",
							"name": "seller",
							"type": "address"
						},
						{
							"internalType": "uint256",
							"name": "amount",
							"type": "uint256"
						},
						{
							"internalType": "uint256",
							"name": "price",
							"type": "uint256"
						}
					],
					"internalType": "struct NFT.AssetSell[]",
					"name": "",
					"type": "tuple[]"
				}
			],
			"stateMutability": "view",
			"type": "function"
		},
		{
			"inputs": [
				{
					"internalType": "address",
					"name": "account",
					"type": "address"
				},
				{
					"internalType": "address",
					"name": "operator",
					"type": "address"
				}
			],
			"name": "isApprovedForAll",
			"outputs": [
				{
					"internalType": "bool",
					"name": "",
					"type": "bool"
				}
			],
			"stateMutability": "view",
			"type": "function"
		},
		{
			"inputs": [
				{
					"internalType": "address",
					"name": "from",
					"type": "address"
				},
				{
					"internalType": "address",
					"name": "to",
					"type": "address"
				},
				{
					"internalType": "uint256[]",
					"name": "ids",
					"type": "uint256[]"
				},
				{
					"internalType": "uint256[]",
					"name": "values",
					"type": "uint256[]"
				},
				{
					"internalType": "bytes",
					"name": "data",
					"type": "bytes"
				}
			],
			"name": "safeBatchTransferFrom",
			"outputs": [],
			"stateMutability": "nonpayable",
			"type": "function"
		},
		{
			"inputs": [
				{
					"internalType": "address",
					"name": "from",
					"type": "address"
				},
				{
					"internalType": "address",
					"name": "to",
					"type": "address"
				},
				{
					"internalType": "uint256",
					"name": "id",
					"type": "uint256"
				},
				{
					"internalType": "uint256",
					"name": "value",
					"type": "uint256"
				},
				{
					"internalType": "bytes",
					"name": "data",
					"type": "bytes"
				}
			],
			"name": "safeTransferFrom",
			"outputs": [],
			"stateMutability": "nonpayable",
			"type": "function"
		},
		{
			"inputs": [
				{
					"internalType": "uint256",
					"name": "_id",
					"type": "uint256"
				},
				{
					"internalType": "uint256",
					"name": "_AssetIdx",
					"type": "uint256"
				},
				{
					"internalType": "uint256",
					"name": "_amount",
					"type": "uint256"
				},
				{
					"internalType": "uint256",
					"name": "_price",
					"type": "uint256"
				}
			],
			"name": "sellAsset",
			"outputs": [],
			"stateMutability": "nonpayable",
			"type": "function"
		},
		{
			"inputs": [
				{
					"internalType": "address",
					"name": "operator",
					"type": "address"
				},
				{
					"internalType": "bool",
					"name": "approved",
					"type": "bool"
				}
			],
			"name": "setApprovalForAll",
			"outputs": [],
			"stateMutability": "nonpayable",
			"type": "function"
		},
		{
			"inputs": [
				{
					"internalType": "uint256",
					"name": "_collectionId",
					"type": "uint256"
				},
				{
					"internalType": "uint256",
					"name": "_timeStart",
					"type": "uint256"
				},
				{
					"internalType": "uint256",
					"name": "_timeEnd",
					"type": "uint256"
				},
				{
					"internalType": "uint256",
					"name": "maxPrice",
					"type": "uint256"
				},
				{
					"internalType": "uint256",
					"name": "minPrice",
					"type": "uint256"
				},
				{
					"internalType": "address",
					"name": "leader",
					"type": "address"
				},
				{
					"internalType": "uint256",
					"name": "currentBet",
					"type": "uint256"
				}
			],
			"name": "startAuc",
			"outputs": [],
			"stateMutability": "nonpayable",
			"type": "function"
		},
		{
			"inputs": [
				{
					"internalType": "bytes4",
					"name": "interfaceId",
					"type": "bytes4"
				}
			],
			"name": "supportsInterface",
			"outputs": [
				{
					"internalType": "bool",
					"name": "",
					"type": "bool"
				}
			],
			"stateMutability": "view",
			"type": "function"
		},
		{
			"inputs": [
				{
					"internalType": "uint256",
					"name": "_idx",
					"type": "uint256"
				}
			],
			"name": "takeNFT",
			"outputs": [],
			"stateMutability": "nonpayable",
			"type": "function"
		},
		{
			"inputs": [
				{
					"internalType": "uint256",
					"name": "_id",
					"type": "uint256"
				},
				{
					"internalType": "uint256",
					"name": "_idx",
					"type": "uint256"
				},
				{
					"internalType": "address",
					"name": "_receiver",
					"type": "address"
				},
				{
					"internalType": "uint256",
					"name": "_amount",
					"type": "uint256"
				}
			],
			"name": "transferAsset",
			"outputs": [],
			"stateMutability": "nonpayable",
			"type": "function"
		},
		{
			"inputs": [
				{
					"internalType": "uint256",
					"name": "_idx",
					"type": "uint256"
				},
				{
					"internalType": "uint256",
					"name": "_amount",
					"type": "uint256"
				}
			],
			"name": "upBid",
			"outputs": [],
			"stateMutability": "nonpayable",
			"type": "function"
		},
		{
			"inputs": [
				{
					"internalType": "uint256",
					"name": "",
					"type": "uint256"
				}
			],
			"name": "uri",
			"outputs": [
				{
					"internalType": "string",
					"name": "",
					"type": "string"
				}
			],
			"stateMutability": "view",
			"type": "function"
		},
		{
			"inputs": [
				{
					"internalType": "string",
					"name": "_referral",
					"type": "string"
				}
			],
			"name": "useReferral",
			"outputs": [],
			"stateMutability": "nonpayable",
			"type": "function"
		}
	]
}