{
	"data": {
		"bytecode": {
			"linkReferences": {},
			"object": "60806040523480156200001157600080fd5b5060405162006d7e38038062006d7e833981016040819052620000349162000b97565b6040805160208101909152600081526200004e8162000380565b50600580546001600160a01b0319166001600160a01b0383169081179091556040805163313ce56760e01b8152905163313ce567916004808201926020929091908290030181865afa158015620000a9573d6000803e3d6000fd5b505050506040513d601f19601f82011682018060405250810190620000cf919062000bc9565b620000dc90600a62000d03565b600355600480546001600160a01b03191633179055604080518082018252600e81526d684d685f685e685f68c3e85ae85d60911b602080830191909152825160608101909352602f80845262000168936001939290919062006cd39083013960408051808201909152600c81526b6361745f6e6674312e706e6760a01b60208201526000600162000392565b620001e06002604051806040016040528060128152602001710d092d0bad183d181d0bdd18fd188d0bad0b60741b8152506040518060800160405280604c815260200162006d02604c913960408051808201909152600c81526b6361745f6e6674322e706e6760a01b60208201526000600162000392565b6200025460036040518060400160405280600e81526020016d684fe8c1e85be8c5e8c0685c685d60911b81525060405180606001604052806038815260200162006c9b6038913960408051808201909152600c81526b6361745f6e6674332e706e6760a01b60208201526000600162000392565b620002da60046040518060400160405280601881526020017fd091d0b0d181d0bad0b5d182d0b1d0bed0bbd0b8d181d182000000000000000081525060405180606001604052806030815260200162006d4e6030913960408051808201909152600f81526e77616c6b65725f6e6674312e706e6760881b60208201526000600162000392565b620003796005604051806040016040528060128152602001716849685f685de8c4685ae858e85ee85c685d60711b8152506040518060400160405280602081526020017fd09ed0bd20d0b8d0b4d0b5d18220d0bad0bed0bbd0b4d0bed0b2d0b0d182d18c8152506040518060400160405280600f81526020016e77616c6b65725f6e6674322e706e6760881b815250600060016200039260201b60201c565b5062001028565b60026200038e828262000db7565b5050565b6004546001600160a01b03163314620004295760405162461bcd60e51b815260206004820152604860248201527fd0a2d0bed0bbd18cd0bad0be20d0b2d0bbd0b0d0b4d0b5d0bbd0b5d18620d0bc60448201527fd0bed0b6d0b5d18220d18dd182d0be20d0b8d181d0bfd0bed0bbd18cd0b7d0be606482015267342cb42c3460b46360c21b608482015260a4015b60405180910390fd5b60008681526008602052604090206005015415620004b05760405162461bcd60e51b815260206004820152603660248201527f4e465420d18120d182d0b0d0bad0b8d0bc20696420d183d0b6d0b520d0b5d18160448201527fd182d18c20d0b220d181d0b8d181d182d0b5d0bcd0b500000000000000000000606482015260840162000420565b620004d3338783604051806020016040528060008152506200067a60201b60201c565b604080516101008101825287815233600090815260096020908152838220548184019081528385018a8152606085018a90526080850189905260a0850188905260c085018790524260e08601528b845260089092529390912082518155925160018401555190919060028201906200054c908262000db7565b506060820151600382019062000563908262000db7565b50608082015160048201906200057a908262000db7565b5060a082810151600583015560c080840151600684015560e0938401516007909301929092553360009081526009602081815260408084208151610100810183528e815293835280548484018181529285018e8152606086018e9052608086018d90529685018b90529684018990524297840197909752600180870188559684529220815160089095020193845590519383019390935551600282019062000623908262000db7565b50606082015160038201906200063a908262000db7565b506080820151600482019062000651908262000db7565b5060a0820151816005015560c0820151816006015560e082015181600701555050505050505050565b6001600160a01b038416620006a657604051632bfa23e760e11b81526000600482015260240162000420565b60408051600180825260208201869052818301908152606082018590526080820190925290620006db600087848487620006e3565b505050505050565b620006f18585858562000746565b6001600160a01b038416156200073f57825133906001036200072f57602084810151908401516200072783898985858962000969565b5050620006db565b620006db81878787878762000aa3565b5050505050565b8051825114620007775781518151604051635b05999160e01b81526004810192909252602482015260440162000420565b3360005b835181101562000885576020818102858101820151908501909101516001600160a01b0388161562000832576000828152602081815260408083206001600160a01b038c168452909152902054818110156200080b576040516303dee4c560e01b81526001600160a01b038a16600482015260248101829052604481018390526064810184905260840162000420565b6000838152602081815260408083206001600160a01b038d16845290915290209082900390555b6001600160a01b038716156200087a576000828152602081815260408083206001600160a01b038b168452909152812080548392906200087490849062000e83565b90915550505b50506001016200077b565b508251600103620009095760208301516000906020840151909150856001600160a01b0316876001600160a01b0316846001600160a01b03167fc3d58168c5ae7397731d063d5bbf3d657854427343f4c083240f7aacaa2d0f628585604051620008f9929190918252602082015260400190565b60405180910390a450506200073f565b836001600160a01b0316856001600160a01b0316826001600160a01b03167f4a39dc06d4c0dbc64b70af90fd698a233a518aa5d07e595d983b8c0526c8f7fb86866040516200095a92919062000ed7565b60405180910390a45050505050565b6001600160a01b0384163b15620006db5760405163f23a6e6160e01b81526001600160a01b0385169063f23a6e6190620009b0908990899088908890889060040162000f51565b6020604051808303816000875af1925050508015620009ee575060408051601f3d908101601f19168201909252620009eb9181019062000f98565b60015b62000a5c573d80801562000a1f576040519150601f19603f3d011682016040523d82523d6000602084013e62000a24565b606091505b50805160000362000a5457604051632bfa23e760e11b81526001600160a01b038616600482015260240162000420565b805181602001fd5b6001600160e01b0319811663f23a6e6160e01b1462000a9a57604051632bfa23e760e11b81526001600160a01b038616600482015260240162000420565b50505050505050565b6001600160a01b0384163b15620006db5760405163bc197c8160e01b81526001600160a01b0385169063bc197c819062000aea908990899088908890889060040162000fc4565b6020604051808303816000875af192505050801562000b28575060408051601f3d908101601f1916820190925262000b259181019062000f98565b60015b62000b59573d80801562000a1f576040519150601f19603f3d011682016040523d82523d6000602084013e62000a24565b6001600160e01b0319811663bc197c8160e01b1462000a9a57604051632bfa23e760e11b81526001600160a01b038616600482015260240162000420565b60006020828403121562000baa57600080fd5b81516001600160a01b038116811462000bc257600080fd5b9392505050565b60006020828403121562000bdc57600080fd5b815160ff8116811462000bc257600080fd5b634e487b7160e01b600052601160045260246000fd5b600181815b8085111562000c4557816000190482111562000c295762000c2962000bee565b8085161562000c3757918102915b93841c939080029062000c09565b509250929050565b60008262000c5e5750600162000cfd565b8162000c6d5750600062000cfd565b816001811462000c86576002811462000c915762000cb1565b600191505062000cfd565b60ff84111562000ca55762000ca562000bee565b50506001821b62000cfd565b5060208310610133831016604e8410600b841016171562000cd6575081810a62000cfd565b62000ce2838362000c04565b806000190482111562000cf95762000cf962000bee565b0290505b92915050565b600062000bc260ff84168362000c4d565b634e487b7160e01b600052604160045260246000fd5b600181811c9082168062000d3f57607f821691505b60208210810362000d6057634e487b7160e01b600052602260045260246000fd5b50919050565b601f82111562000db2576000816000526020600020601f850160051c8101602086101562000d915750805b601f850160051c820191505b81811015620006db5782815560010162000d9d565b505050565b81516001600160401b0381111562000dd35762000dd362000d14565b62000deb8162000de4845462000d2a565b8462000d66565b602080601f83116001811462000e23576000841562000e0a5750858301515b600019600386901b1c1916600185901b178555620006db565b600085815260208120601f198616915b8281101562000e545788860151825594840194600190910190840162000e33565b508582101562000e735787850151600019600388901b60f8161c191681555b5050505050600190811b01905550565b8082018082111562000cfd5762000cfd62000bee565b60008151808452602080850194506020840160005b8381101562000ecc5781518752958201959082019060010162000eae565b509495945050505050565b60408152600062000eec604083018562000e99565b828103602084015262000f00818562000e99565b95945050505050565b6000815180845260005b8181101562000f315760208185018101518683018201520162000f13565b506000602082860101526020601f19601f83011685010191505092915050565b6001600160a01b03868116825285166020820152604081018490526060810183905260a06080820181905260009062000f8d9083018462000f09565b979650505050505050565b60006020828403121562000fab57600080fd5b81516001600160e01b03198116811462000bc257600080fd5b6001600160a01b0386811682528516602082015260a06040820181905260009062000ff29083018662000e99565b828103606084015262001006818662000e99565b905082810360808401526200101c818562000f09565b98975050505050505050565b615c6380620010386000396000f3fe608060405234801561001057600080fd5b50600436106101ce5760003560e01c806385494e4511610104578063e4b70b42116100a2578063f598b70711610071578063f598b707146103f5578063f897692114610408578063f989965d1461041d578063fb2facc31461043057600080fd5b8063e4b70b421461039c578063e985e9c5146103af578063eac8f5b8146103c2578063f242432a146103e257600080fd5b8063a22cb465116100de578063a22cb4651461034e578063a2a376cd14610361578063bfcc439414610376578063cf14bf3f1461038957600080fd5b806385494e451461031557806390420aee1461032857806397f588c61461033b57600080fd5b80632eb2c2d6116101715780634e1273f41161014b5780634e1273f4146102ba578063694f82b4146102da5780636ffcc719146102ed5780637327df251461030057600080fd5b80632eb2c2d61461028c57806341fdf0311461029f5780634dad2aab146102a757600080fd5b80631b1bf2b9116101ad5780631b1bf2b91461023c578063222d9c5c1461025157806324897ed6146102645780632d6322051461027957600080fd5b8062fdd58e146101d357806301ffc9a7146101f95780630e89341c1461021c575b600080fd5b6101e66101e1366004614ce6565b610443565b6040519081526020015b60405180910390f35b61020c610207366004614d26565b61046b565b60405190151581526020016101f0565b61022f61022a366004614d4a565b6104bb565b6040516101f09190614db3565b61024f61024a366004614dc6565b61054f565b005b61024f61025f366004614d4a565b6105b2565b61026c610eb6565b6040516101f09190614de1565b61024f610287366004614e62565b610f54565b61024f61029a366004614fce565b611349565b61022f6113b0565b61024f6102b5366004615078565b611451565b6102cd6102c83660046150ea565b6116a2565b6040516101f091906151e6565b61024f6102e83660046151f9565b61176f565b61024f6102fb366004614e62565b6119a9565b610308611c18565b6040516101f091906152a3565b61024f610323366004615321565b611cb7565b61024f610336366004614e62565b6120db565b61024f61034936600461535e565b61219b565b61024f61035c36600461539b565b6125aa565b6103696125b9565b6040516101f091906153d7565b61024f610384366004614d4a565b61273c565b61024f6103973660046154ac565b6127aa565b61024f6103aa366004615550565b612a08565b61020c6103bd36600461557c565b613210565b6103d56103d0366004614d4a565b61323e565b6040516101f091906155af565b61024f6103f0366004615649565b613494565b61024f6104033660046156ae565b6134f3565b6104106136ce565b6040516101f091906156e0565b61024f61042b3660046157a9565b613902565b61024f61043e366004614d4a565b613b65565b6000818152602081815260408083206001600160a01b03861684529091529020545b92915050565b60006001600160e01b03198216636cdb3d1360e11b148061049c57506001600160e01b031982166303a24d0760e21b145b8061046557506301ffc9a760e01b6001600160e01b0319831614610465565b6060600280546104ca906157e4565b80601f01602080910402602001604051908101604052809291908181526020018280546104f6906157e4565b80156105435780601f1061051857610100808354040283529160200191610543565b820191906000526020600020905b81548152906001019060200180831161052657829003601f168201915b50505050509050919050565b336000908152600c602052604090819020905160069161056e9161581e565b90815260405160209181900382019020600301805460018101825560009182529190200180546001600160a01b0319166001600160a01b0392909216919091179055565b6004546001600160a01b031633146105e55760405162461bcd60e51b81526004016105dc90615894565b60405180910390fd5b60045460118054610773926001600160a01b031691908490811061060b5761060b615902565b906000526020600020906007020160050160009054906101000a90046001600160a01b031660106011858154811061064557610645615902565b9060005260206000209060070201600101548154811061066757610667615902565b90600052602060002090600502016003018054806020026020016040519081016040528092919081815260200182805480156106c257602002820191906000526020600020905b8154815260200190600101908083116106ae575b50505050506010601186815481106106dc576106dc615902565b906000526020600020906007020160010154815481106106fe576106fe615902565b906000526020600020906005020160040180548060200260200160405190810160405280929190818152602001828054801561075957602002820191906000526020600020905b815481526020019060010190808311610745575b50505050506040518060200160405280600081525061450e565b60005b60106011838154811061078b5761078b615902565b906000526020600020906007020160010154815481106107ad576107ad615902565b906000526020600020906005020160030180549050811015610e685760096000601184815481106107e0576107e0615902565b906000526020600020906007020160050160009054906101000a90046001600160a01b03166001600160a01b03166001600160a01b0316815260200190815260200160002060405180610100016040528060106011868154811061084657610846615902565b9060005260206000209060070201600101548154811061086857610868615902565b9060005260206000209060050201600301848154811061088a5761088a615902565b9060005260206000200154815260200160096000601187815481106108b1576108b1615902565b906000526020600020906007020160050160009054906101000a90046001600160a01b03166001600160a01b03166001600160a01b0316815260200190815260200160002080549050815260200160086000600a60006011898154811061091a5761091a615902565b9060005260206000209060070201600101548152602001908152602001600020600301868154811061094e5761094e615902565b906000526020600020015481526020019081526020016000206002018054610975906157e4565b80601f01602080910402602001604051908101604052809291908181526020018280546109a1906157e4565b80156109ee5780601f106109c3576101008083540402835291602001916109ee565b820191906000526020600020905b8154815290600101906020018083116109d157829003601f168201915b5050505050815260200160086000600a600060118981548110610a1357610a13615902565b90600052602060002090600702016001015481526020019081526020016000206003018681548110610a4757610a47615902565b906000526020600020015481526020019081526020016000206003018054610a6e906157e4565b80601f0160208091040260200160405190810160405280929190818152602001828054610a9a906157e4565b8015610ae75780601f10610abc57610100808354040283529160200191610ae7565b820191906000526020600020905b815481529060010190602001808311610aca57829003601f168201915b5050505050815260200160086000600a600060118981548110610b0c57610b0c615902565b90600052602060002090600702016001015481526020019081526020016000206003018681548110610b4057610b40615902565b906000526020600020015481526020019081526020016000206004018054610b67906157e4565b80601f0160208091040260200160405190810160405280929190818152602001828054610b93906157e4565b8015610be05780601f10610bb557610100808354040283529160200191610be0565b820191906000526020600020905b815481529060010190602001808311610bc357829003601f168201915b5050505050815260200160086000600a600060118981548110610c0557610c05615902565b90600052602060002090600702016001015481526020019081526020016000206003018681548110610c3957610c39615902565b906000526020600020015481526020019081526020016000206006015481526020016003546001610c6a919061592e565b815260200160086000600a600060118981548110610c8a57610c8a615902565b90600052602060002090600702016001015481526020019081526020016000206003018681548110610cbe57610cbe615902565b600091825260208083209091015483528281019390935260409182018120600701549093528454600181810187559584529282902084516008909402019283559083015193820193909355918101519091906002820190610d1f908261598d565b5060608201516003820190610d34908261598d565b5060808201516004820190610d49908261598d565b5060a0820151600582015560c0820151600682015560e0909101516007909101556004546001600160a01b031660009081526009602052604081206011805491926008929091600a9183919088908110610da557610da5615902565b90600052602060002090600702016001015481526020019081526020016000206003018481548110610dd957610dd9615902565b906000526020600020015481526020019081526020016000206001015481548110610e0657610e06615902565b6000918252602082206008909102018181556001810182905590610e2d6002830182614b5f565b610e3b600383016000614b5f565b610e49600483016000614b5f565b5060006005820181905560068201819055600790910155600101610776565b50600060118281548110610e7e57610e7e615902565b906000526020600020906007020160050160006101000a8154816001600160a01b0302191690836001600160a01b0316021790555050565b6060600d805480602002602001604051908101604052809291908181526020016000905b82821015610f4b5760008481526020908190206040805160c08101825260068602909201805483526001808201548486015260028201549284019290925260038101546001600160a01b03166060840152600481015460808401526005015460a08301529083529092019101610eda565b50505050905090565b60118281548110610f6757610f67615902565b90600052602060002090600702016004015480600003610f995760405162461bcd60e51b81526004016105dc90615a4d565b600a8210156110015760405162461bcd60e51b815260206004820152602e60248201527fd09cd0b8d0bdd0b8d0bcd0b0d0bbd18cd0bdd0b0d18f20d181d182d0b0d0b2d060448201526dbad0b0202d2031302050524f464960901b60648201526084016105dc565b336001600160a01b03166011848154811061101e5761101e615902565b60009182526020909120600560079092020101546001600160a01b0316036110815760405162461bcd60e51b815260206004820152601660248201527501a125a31641a307a16da16a41a177a171a169a16ba360571b60448201526064016105dc565b60005b6000848152600b6020526040902054811015611343576000848152600b602052604090208054339190839081106110bd576110bd615902565b60009182526020909120600160029092020101546001600160a01b03160361133b576003546110ec908461592e565b6000858152600b6020526040902080548390811061110c5761110c615902565b9060005260206000209060020201600001600082825461112c9190615a84565b909155505060055460048054604051637aa9bf6f60e11b815233928101929092526001600160a01b039081166024830152604482018690529091169063f5537ede90606401600060405180830381600087803b15801561118b57600080fd5b505af115801561119f573d6000803e3d6000fd5b50505050601184815481106111b6576111b6615902565b906000526020600020906007020160060154600b600086815260200190815260200160002082815481106111ec576111ec615902565b90600052602060002090600202016000015411156112a8576000848152600b6020526040902080548290811061122457611224615902565b9060005260206000209060020201600001546011858154811061124957611249615902565b906000526020600020906007020160060181905550336011858154811061127257611272615902565b906000526020600020906007020160050160006101000a8154816001600160a01b0302191690836001600160a01b031602179055505b601184815481106112bb576112bb615902565b906000526020600020906007020160040154600b600086815260200190815260200160002082815481106112f1576112f1615902565b9060005260206000209060020201600001541061133b5760006011858154811061131d5761131d615902565b90600052602060002090600702016004018190555061133b84613b65565b600101611084565b50505050565b336001600160a01b038616811480159061136a57506113688682613210565b155b1561139b5760405163711bec9160e11b81526001600160a01b038083166004830152871660248201526044016105dc565b6113a8868686868661450e565b505050505050565b336000908152600c602052604090208054606091906113ce906157e4565b80601f01602080910402602001604051908101604052809291908181526020018280546113fa906157e4565b80156114475780601f1061141c57610100808354040283529160200191611447565b820191906000526020600020905b81548152906001019060200180831161142a57829003601f168201915b5050505050905090565b3360066114618160028587615a97565b604051602001611472929190615ac1565b60408051601f198184030181529082905261148c91615aee565b908152604051908190036020019020600101546001600160a01b0316036115075760405162461bcd60e51b815260206004820152602960248201527fd092d18b20d183d0b6d0b520d181d0bed0b7d0b4d0b0d0bbd0b820d180d0b5d160448201526884d0b5d180d0b0d0bb60b81b60648201526084016105dc565b60606000611519600660028587615a97565b60405160200161152a929190615ac1565b60408051601f19818403018152608083018252808352336020840152600083830152606083018590529051909250600690611566908490615aee565b90815260405190819003602001902081518190611583908261598d565b506020828101516001830180546001600160a01b0319166001600160a01b0390921691909117905560408301516002830155606083015180516115cc9260038501920190614b99565b505060408051608081018252838152336020820152600091810182905260608101859052600e80546001810182559252805190925060049091027fbb7b4a454dc3493923482f07822329ed19e8244eff582cc204f8554c3620c3fd01908190611635908261598d565b506020828101516001830180546001600160a01b0319166001600160a01b03909216919091179055604083015160028301556060830151805161167e9260038501920190614b99565b5050336000908152600c60205260409020905061169b828261598d565b5050505050565b606081518351146116d35781518351604051635b05999160e01b8152600481019290925260248201526044016105dc565b6000835167ffffffffffffffff8111156116ef576116ef614e84565b604051908082528060200260200182016040528015611718578160200160208202803683370190505b50905060005b84518110156117675760208082028601015161174290602080840287010151610443565b82828151811061175457611754615902565b602090810291909101015260010161171e565b509392505050565b6004546001600160a01b031633146117995760405162461bcd60e51b81526004016105dc90615894565b6000858152600a602052604090205485900361181d5760405162461bcd60e51b815260206004820152603f60248201527fd09ad0bed0bbd0bbd0b5d0bad186d0b8d18f20d18120d182d0b0d0bad0b8d0bc60448201527f20696420d183d0b6d0b520d181d183d189d0b5d181d182d0b2d183d0b5d1820060648201526084016105dc565b6040805160a081018252868152602080820187815282840187905260608301869052608083018590526000898152600a909252929020815181559151909190600182019061186b908261598d565b5060408201516002820190611880908261598d565b506060820151805161189c916003840191602090910190614bfe565b50608082015180516118b8916004840191602090910190614bfe565b50506040805160a08101825287815260208101878152918101869052606081018590526080810184905260108054600181018255600091909152815160059091027f1b6847dc741a1b0cd08d278845f9d819d87b734759afb55fe2de5cb82a9ae67281019182559251919350917f1b6847dc741a1b0cd08d278845f9d819d87b734759afb55fe2de5cb82a9ae6730190611952908261598d565b5060408201516002820190611967908261598d565b5060608201518051611983916003840191602090910190614bfe565b506080820151805161199f916004840191602090910190614bfe565b5050505050505050565b601182815481106119bc576119bc615902565b906000526020600020906007020160040154806000036119ee5760405162461bcd60e51b81526004016105dc90615a4d565b8160118481548110611a0257611a02615902565b90600052602060002090600702016006015410611a795760405162461bcd60e51b815260206004820152602f60248201527fd0a2d0b5d0bad183d189d0b0d18f20d181d182d0b0d0b2d0bad0b020d0b2d18b60448201526ed188d0b520d0b2d0b0d188d0b5d0b960881b60648201526084016105dc565b60055460048054604051637aa9bf6f60e11b815233928101929092526001600160a01b039081166024830152604482018590529091169063f5537ede90606401600060405180830381600087803b158015611ad357600080fd5b505af1158015611ae7573d6000803e3d6000fd5b505050508160118481548110611aff57611aff615902565b9060005260206000209060070201600601819055503360118481548110611b2857611b28615902565b6000918252602080832060056007909302019190910180546001600160a01b039485166001600160a01b031991821617909155868352600b82526040808420815180830190925287825233828501908152815460018181018455928752949095209151600290940290910192835592519190920180549190931691161790556011805484908110611bbb57611bbb615902565b90600052602060002090600702016004015460035483611bdb919061592e565b10611c1357600060118481548110611bf557611bf5615902565b906000526020600020906007020160040181905550611c1383613b65565b505050565b60606011805480602002602001604051908101604052809291908181526020016000905b82821015610f4b5760008481526020908190206040805160e081018252600786029092018054835260018082015484860152600282015492840192909252600381015460608401526004810154608084015260058101546001600160a01b031660a08401526006015460c08301529083529092019101611c3c565b611cd3338386846040518060200160405280600081525061456e565b336000908152600960205260409020805482919085908110611cf757611cf7615902565b90600052602060002090600802016006016000828254611d179190615b0a565b90915550506001600160a01b0382166000908152600960209081526040808320815161010081018352888152815481850152888552600890935292819020600201805491830191611d67906157e4565b80601f0160208091040260200160405190810160405280929190818152602001828054611d93906157e4565b8015611de05780601f10611db557610100808354040283529160200191611de0565b820191906000526020600020905b815481529060010190602001808311611dc357829003601f168201915b50505050508152602001600860008881526020019081526020016000206003018054611e0b906157e4565b80601f0160208091040260200160405190810160405280929190818152602001828054611e37906157e4565b8015611e845780601f10611e5957610100808354040283529160200191611e84565b820191906000526020600020905b815481529060010190602001808311611e6757829003601f168201915b50505050508152602001600860008881526020019081526020016000206004018054611eaf906157e4565b80601f0160208091040260200160405190810160405280929190818152602001828054611edb906157e4565b8015611f285780601f10611efd57610100808354040283529160200191611f28565b820191906000526020600020905b815481529060010190602001808311611f0b57829003601f168201915b5050505050815260200183815260200160096000336001600160a01b03166001600160a01b031681526020019081526020016000208681548110611f6e57611f6e615902565b600091825260208083206008928302016005015484528983528181526040808420600701549482019490945285546001808201885596845292819020855193909202909101918255830151938101939093558101519091906002820190611fd5908261598d565b5060608201516003820190611fea908261598d565b5060808201516004820190611fff908261598d565b5060a0820151600582015560c0820151600682015560e09091015160079091015533600090815260096020526040902080548490811061204157612041615902565b9060005260206000209060080201600601546000036113435733600090815260096020526040902080548490811061207b5761207b615902565b60009182526020822060089091020181815560018101829055906120a26002830182614b5f565b6120b0600383016000614b5f565b6120be600483016000614b5f565b506000600582018190556006820181905560079091015550505050565b336001600160a01b0316600d83815481106120f8576120f8615902565b60009182526020909120600360069092020101546001600160a01b0316146121625760405162461bcd60e51b815260206004820152601960248201527fd0add182d0be20d0bdd0b520d0b2d0b0d18820d0bbd0bed1820000000000000060448201526064016105dc565b60035461216f908261592e565b600d838154811061218257612182615902565b9060005260206000209060060201600501819055505050565b60005b6006826040516121ae9190615aee565b9081526040519081900360200190206003015481101561228b576006826040516121d89190615aee565b908152602001604051809103902060030181815481106121fa576121fa615902565b6000918252602090912001546001600160a01b031633146122835760405162461bcd60e51b815260206004820152603f60248201527fd092d18b20d0bdd0b520d0bcd0bed0b6d0b5d182d0b520d0b8d181d0bfd0bed060448201527fbbd18cd0b7d0bed0b2d0b0d182d18c20d18dd182d0bed18220d0bad0bed0b40060648201526084016105dc565b60010161219e565b50336001600160a01b03166006826040516122a69190615aee565b908152604051908190036020019020600101546001600160a01b0316036123435760405162461bcd60e51b8152602060048201526044602482018190527fd092d18b20d0bdd0b520d0bcd0bed0b6d0b5d182d0b520d0b8d181d0bfd0bed0908201527fbbd18cd0b7d0bed0b2d0b0d182d18c20d181d0b2d0bed0b920d0b6d0b520d0ba606482015263342fb42d60e21b608482015260a4016105dc565b806040516020016123549190615aee565b6040516020818303038152906040528051906020012060068260405161237a9190615aee565b908152604051602091819003820181206123969290910161581e565b604051602081830303815290604052805190602001201461242f5760405162461bcd60e51b815260206004820152604760248201527fd0a2d0b0d0bad0bed0b3d0be20d180d0b5d184d0b5d180d0b0d0bbd18cd0bdd060448201527fbed0b3d0be20d0bad0bed0b4d0b020d0bdd0b5d18220d0b220d181d0b8d181d160648201526682d0b5d0bcd0b560c81b608482015260a4016105dc565b3360009081526007602052604090205460ff1615156001036124a75760405162461bcd60e51b815260206004820152602b60248201527fd092d18b20d183d0b6d0b520d0b8d181d0bfd0bed0bbd18cd0b7d0bed0b2d0b060448201526a342ef42e08342eb42fb42d60aa1b60648201526084016105dc565b600560009054906101000a90046001600160a01b03166001600160a01b0316635cd07ee66040518163ffffffff1660e01b8152600401600060405180830381600087803b1580156124f757600080fd5b505af115801561250b573d6000803e3d6000fd5b50503360009081526007602052604090819020805460ff1916600117905551600392506006915061253d908490615aee565b90815260200160405180910390206002015410156125a7576006816040516125659190615aee565b90815260200160405180910390206002015460016125839190615a84565b6006826040516125939190615aee565b908152604051908190036020019020600201555b50565b6125b53383836145fc565b5050565b6060600e805480602002602001604051908101604052809291908181526020016000905b82821015610f4b5783829060005260206000209060040201604051806080016040529081600082018054612610906157e4565b80601f016020809104026020016040519081016040528092919081815260200182805461263c906157e4565b80156126895780601f1061265e57610100808354040283529160200191612689565b820191906000526020600020905b81548152906001019060200180831161266c57829003601f168201915b505050505081526020016001820160009054906101000a90046001600160a01b03166001600160a01b03166001600160a01b03168152602001600282015481526020016003820180548060200260200160405190810160405280929190818152602001828054801561272457602002820191906000526020600020905b81546001600160a01b03168152600190910190602001808311612706575b505050505081525050815260200190600101906125dd565b6011818154811061274f5761274f615902565b9060005260206000209060070201600301544261276c9190615b0a565b6011828154811061277f5761277f615902565b9060005260206000209060070201600201544261279c9190615b0a565b116125a7576125a781613b65565b6004546001600160a01b031633146127d45760405162461bcd60e51b81526004016105dc90615894565b600086815260086020526040902060050154156128525760405162461bcd60e51b815260206004820152603660248201527f4e465420d18120d182d0b0d0bad0b8d0bc20696420d183d0b6d0b520d0b5d181604482015275d182d18c20d0b220d181d0b8d181d182d0b5d0bcd0b560501b60648201526084016105dc565b61286d33878360405180602001604052806000815250614692565b604080516101008101825287815233600090815260096020908152838220548184019081528385018a8152606085018a90526080850189905260a0850188905260c085018790524260e08601528b845260089092529390912082518155925160018401555190919060028201906128e4908261598d565b50606082015160038201906128f9908261598d565b506080820151600482019061290e908261598d565b5060a082810151600583015560c080840151600684015560e0938401516007909301929092553360009081526009602081815260408084208151610100810183528e815293835280548484018181529285018e8152606086018e9052608086018d90529685018b9052968401899052429784019790975260018087018855968452922081516008909502019384559051938301939093555160028201906129b5908261598d565b50606082015160038201906129ca908261598d565b50608082015160048201906129df908261598d565b5060a0820151816005015560c0820151816006015560e082015181600701555050505050505050565b600060648284600d8781548110612a2157612a21615902565b906000526020600020906006020160050154612a3d919061592e565b612a47919061592e565b612a519190615b1d565b83600d8681548110612a6557612a65615902565b906000526020600020906006020160050154612a81919061592e565b612a8b9190615b0a565b905082600d8581548110612aa157612aa1615902565b9060005260206000209060060201600401541015612b325760405162461bcd60e51b815260206004820152604260248201527fd092d18b20d0bfd18bd182d0b0d0b5d182d0b5d181d18c20d0bad183d0bfd0b860448201527fd182d18c20d0b1d0bed0bbd18cd188d0b52c20d187d0b5d0bc20d0b5d181d182606482015261346360f21b608482015260a4016105dc565b612ba9600d8581548110612b4857612b48615902565b906000526020600020906006020160030160009054906101000a90046001600160a01b031633600d8781548110612b8157612b81615902565b906000526020600020906006020160010154866040518060200160405280600081525061456e565b600554600d80546001600160a01b039092169163f5537ede91339188908110612bd457612bd4615902565b600091825260209091206006909102016003015460405160e084901b6001600160e01b03191681526001600160a01b0392831660048201529116602482015260448101849052606401600060405180830381600087803b158015612c3757600080fd5b505af1158015612c4b573d6000803e3d6000fd5b5050505082600d8581548110612c6357612c63615902565b90600052602060002090600602016004016000828254612c839190615b0a565b925050819055508260096000600d8781548110612ca257612ca2615902565b60009182526020808320600360069093020191909101546001600160a01b031683528201929092526040019020600d805487908110612ce357612ce3615902565b90600052602060002090600602016001015481548110612d0557612d05615902565b90600052602060002090600802016006016000828254612d259190615b0a565b90915550503360008181526009602081815260408084208151610100810183528a8152958552928252825491850191909152600d80549294939184019260089291908a908110612d7757612d77615902565b90600052602060002090600602016001015481526020019081526020016000206002018054612da5906157e4565b80601f0160208091040260200160405190810160405280929190818152602001828054612dd1906157e4565b8015612e1e5780601f10612df357610100808354040283529160200191612e1e565b820191906000526020600020905b815481529060010190602001808311612e0157829003601f168201915b5050505050815260200160086000600d8981548110612e3f57612e3f615902565b90600052602060002090600602016001015481526020019081526020016000206003018054612e6d906157e4565b80601f0160208091040260200160405190810160405280929190818152602001828054612e99906157e4565b8015612ee65780601f10612ebb57610100808354040283529160200191612ee6565b820191906000526020600020905b815481529060010190602001808311612ec957829003601f168201915b5050505050815260200160086000600d8981548110612f0757612f07615902565b90600052602060002090600602016001015481526020019081526020016000206004018054612f35906157e4565b80601f0160208091040260200160405190810160405280929190818152602001828054612f61906157e4565b8015612fae5780601f10612f8357610100808354040283529160200191612fae565b820191906000526020600020905b815481529060010190602001808311612f9157829003601f168201915b50505050508152602001858152602001600d8781548110612fd157612fd1615902565b906000526020600020906006020160050154815260200160086000600d8981548110612fff57612fff615902565b600091825260208083206001600690930201820154845283810194909452604092830182206007015490945285548085018755958152829020845160089096020194855590830151918401919091558101519091906002820190613063908261598d565b5060608201516003820190613078908261598d565b506080820151600482019061308d908261598d565b5060a0820151816005015560c0820151816006015560e08201518160070155505060096000600d86815481106130c5576130c5615902565b60009182526020808320600360069093020191909101546001600160a01b031683528201929092526040019020600d80548690811061310657613106615902565b9060005260206000209060060201600101548154811061312857613128615902565b90600052602060002090600802016006015460000361318e5760096000600d868154811061315857613158615902565b60009182526020808320600360069093020191909101546001600160a01b03168352820192909252604001812061318e91614c39565b600d84815481106131a1576131a1615902565b90600052602060002090600602016004015460000361134357600d84815481106131cd576131cd615902565b60009182526020822060069091020181815560018101829055600281018290556003810180546001600160a01b0319169055600481018290556005015550505050565b6001600160a01b03918216600090815260016020908152604080832093909416825291909152205460ff1690565b61328660405180610100016040528060008152602001600081526020016060815260200160608152602001606081526020016000815260200160008152602001600081525090565b600860008381526020019081526020016000206040518061010001604052908160008201548152602001600182015481526020016002820180546132c9906157e4565b80601f01602080910402602001604051908101604052809291908181526020018280546132f5906157e4565b80156133425780601f1061331757610100808354040283529160200191613342565b820191906000526020600020905b81548152906001019060200180831161332557829003601f168201915b5050505050815260200160038201805461335b906157e4565b80601f0160208091040260200160405190810160405280929190818152602001828054613387906157e4565b80156133d45780601f106133a9576101008083540402835291602001916133d4565b820191906000526020600020905b8154815290600101906020018083116133b757829003601f168201915b505050505081526020016004820180546133ed906157e4565b80601f0160208091040260200160405190810160405280929190818152602001828054613419906157e4565b80156134665780601f1061343b57610100808354040283529160200191613466565b820191906000526020600020905b81548152906001019060200180831161344957829003601f168201915b5050505050815260200160058201548152602001600682015481526020016007820154815250509050919050565b336001600160a01b03861681148015906134b557506134b38682613210565b155b156134e65760405163711bec9160e11b81526001600160a01b038083166004830152871660248201526044016105dc565b6113a8868686868661456e565b33600090815260096020526040902080548391908590811061351757613517615902565b90600052602060002090600802016006015410156135865760405162461bcd60e51b815260206004820152602660248201527fd0a320d0b2d0b0d18120d0bdd0b5d0b4d0bed181d182d0b0d182d0bed187d0bd604482015265342f8813919560d21b60648201526084016105dc565b6040805160c081018252600d80548083526020830197885292820195865233606083019081526080830195865260a0830194855260018401825560009190915290517fd7b6990105719101dabeb77144f2a3385c8033acd3af97e9423a695e81ad1eb560069093029283015594517fd7b6990105719101dabeb77144f2a3385c8033acd3af97e9423a695e81ad1eb682015592517fd7b6990105719101dabeb77144f2a3385c8033acd3af97e9423a695e81ad1eb784015592517fd7b6990105719101dabeb77144f2a3385c8033acd3af97e9423a695e81ad1eb8830180546001600160a01b0319166001600160a01b03909216919091179055517fd7b6990105719101dabeb77144f2a3385c8033acd3af97e9423a695e81ad1eb982015590517fd7b6990105719101dabeb77144f2a3385c8033acd3af97e9423a695e81ad1eba90910155565b60606010805480602002602001604051908101604052809291908181526020016000905b82821015610f4b57838290600052602060002090600502016040518060a00160405290816000820154815260200160018201805461372f906157e4565b80601f016020809104026020016040519081016040528092919081815260200182805461375b906157e4565b80156137a85780601f1061377d576101008083540402835291602001916137a8565b820191906000526020600020905b81548152906001019060200180831161378b57829003601f168201915b505050505081526020016002820180546137c1906157e4565b80601f01602080910402602001604051908101604052809291908181526020018280546137ed906157e4565b801561383a5780601f1061380f5761010080835404028352916020019161383a565b820191906000526020600020905b81548152906001019060200180831161381d57829003601f168201915b505050505081526020016003820180548060200260200160405190810160405280929190818152602001828054801561389257602002820191906000526020600020905b81548152602001906001019080831161387e575b50505050508152602001600482018054806020026020016040519081016040528092919081815260200182805480156138ea57602002820191906000526020600020905b8154815260200190600101908083116138d6575b505050505081525050815260200190600101906136f2565b6004546001600160a01b0316331461392c5760405162461bcd60e51b81526004016105dc90615894565b60005b6011548110156139ea57856011828154811061394d5761394d615902565b906000526020600020906007020160010154036139e25760405162461bcd60e51b815260206004820152604760248201527fd090d183d0bad186d0b8d0bed0bd20d18120d182d0b0d0bad0bed0b920d0bad060448201527fbed0bbd0bbd0b5d0bad186d0b8d0b5d0b920d183d0b6d0b520d0b7d0b0d0bfd160648201526683d189d0b5d0bd60c81b608482015260a4016105dc565b60010161392f565b506040805160e081018252601180548083526020830198895292820196875260608201958652608082019485526004546001600160a01b0390811660a0840190815260c0840195865260018501835560009290925291517f31ecc21a745e3968a04e9570e4425bc18fa8019c68028196b546d1669c200c6860079094029384015596517f31ecc21a745e3968a04e9570e4425bc18fa8019c68028196b546d1669c200c6983015594517f31ecc21a745e3968a04e9570e4425bc18fa8019c68028196b546d1669c200c6a82015592517f31ecc21a745e3968a04e9570e4425bc18fa8019c68028196b546d1669c200c6b84015590517f31ecc21a745e3968a04e9570e4425bc18fa8019c68028196b546d1669c200c6c83015592517f31ecc21a745e3968a04e9570e4425bc18fa8019c68028196b546d1669c200c6d820180546001600160a01b031916919093161790915590517f31ecc21a745e3968a04e9570e4425bc18fa8019c68028196b546d1669c200c6e90910155565b6004546001600160a01b03163314613b8f5760405162461bcd60e51b81526004016105dc90615894565b60118181548110613ba257613ba2615902565b90600052602060002090600702016004015480600003613bd45760405162461bcd60e51b81526004016105dc90615a4d565b60118281548110613be757613be7615902565b90600052602060002090600702016004015460001480613c3f575060006001600160a01b031660118381548110613c2057613c20615902565b60009182526020909120600560079092020101546001600160a01b0316145b613c9f5760405162461bcd60e51b815260206004820152602b60248201527fd090d183d0bad186d0b8d0bed0bd20d0b5d189d19120d0bdd0b520d0b7d0b0d060448201526ab2d0b5d180d188d0b5d0bd60a81b60648201526084016105dc565b336001600160a01b031660118381548110613cbc57613cbc615902565b60009182526020909120600560079092020101546001600160a01b031614613d3f5760405162461bcd60e51b815260206004820152603060248201527fd092d18b20d0bdd0b520d0bfd0bed0b1d0b5d0b4d0b8d182d0b5d0bbd18c20d060448201526f05868c1e85d68c3685c685f685ee858160851b60648201526084016105dc565b60045460118054613e01926001600160a01b03169133916010919087908110613d6a57613d6a615902565b90600052602060002090600702016001015481548110613d8c57613d8c615902565b9060005260206000209060050201600301805480602002602001604051908101604052809291908181526020018280548015613de757602002820191906000526020600020905b815481526020019060010190808311613dd3575b50505050506010601187815481106106dc576106dc615902565b60005b601060118481548110613e1957613e19615902565b90600052602060002090600702016001015481548110613e3b57613e3b615902565b9060005260206000209060050201600301805490508110156144bf5760096000336001600160a01b03166001600160a01b03168152602001908152602001600020604051806101000160405280601060118781548110613e9d57613e9d615902565b90600052602060002090600702016001015481548110613ebf57613ebf615902565b90600052602060002090600502016003018481548110613ee157613ee1615902565b906000526020600020015481526020016009600060118881548110613f0857613f08615902565b906000526020600020906007020160050160009054906101000a90046001600160a01b03166001600160a01b03166001600160a01b0316815260200190815260200160002080549050815260200160086000600a600060118a81548110613f7157613f71615902565b90600052602060002090600702016001015481526020019081526020016000206003018681548110613fa557613fa5615902565b906000526020600020015481526020019081526020016000206002018054613fcc906157e4565b80601f0160208091040260200160405190810160405280929190818152602001828054613ff8906157e4565b80156140455780601f1061401a57610100808354040283529160200191614045565b820191906000526020600020905b81548152906001019060200180831161402857829003601f168201915b5050505050815260200160086000600a600060118a8154811061406a5761406a615902565b9060005260206000209060070201600101548152602001908152602001600020600301868154811061409e5761409e615902565b9060005260206000200154815260200190815260200160002060030180546140c5906157e4565b80601f01602080910402602001604051908101604052809291908181526020018280546140f1906157e4565b801561413e5780601f106141135761010080835404028352916020019161413e565b820191906000526020600020905b81548152906001019060200180831161412157829003601f168201915b5050505050815260200160086000600a600060118a8154811061416357614163615902565b9060005260206000209060070201600101548152602001908152602001600020600301868154811061419757614197615902565b9060005260206000200154815260200190815260200160002060040180546141be906157e4565b80601f01602080910402602001604051908101604052809291908181526020018280546141ea906157e4565b80156142375780601f1061420c57610100808354040283529160200191614237565b820191906000526020600020905b81548152906001019060200180831161421a57829003601f168201915b5050505050815260200160086000600a600060118a8154811061425c5761425c615902565b9060005260206000209060070201600101548152602001908152602001600020600301868154811061429057614290615902565b9060005260206000200154815260200190815260200160002060060154815260200160035460016142c1919061592e565b815260200160086000600a600060118a815481106142e1576142e1615902565b9060005260206000209060070201600101548152602001908152602001600020600301868154811061431557614315615902565b600091825260208083209091015483528281019390935260409182018120600701549093528454600181810187559584529282902084516008909402019283559083015193820193909355918101519091906002820190614376908261598d565b506060820151600382019061438b908261598d565b50608082015160048201906143a0908261598d565b5060a0820151600582015560c0820151600682015560e0909101516007909101556004546001600160a01b031660009081526009602052604081206011805491926008929091600a91839190899081106143fc576143fc615902565b9060005260206000209060070201600101548152602001908152602001600020600301848154811061443057614430615902565b90600052602060002001548152602001908152602001600020600101548154811061445d5761445d615902565b60009182526020822060089091020181815560018101829055906144846002830182614b5f565b614492600383016000614b5f565b6144a0600483016000614b5f565b5060006005820181905560068201819055600790910155600101613e04565b506000601183815481106144d5576144d5615902565b906000526020600020906007020160050160006101000a8154816001600160a01b0302191690836001600160a01b031602179055505050565b6001600160a01b03841661453857604051632bfa23e760e11b8152600060048201526024016105dc565b6001600160a01b03851661456157604051626a0d4560e21b8152600060048201526024016105dc565b61169b85858585856146eb565b6001600160a01b03841661459857604051632bfa23e760e11b8152600060048201526024016105dc565b6001600160a01b0385166145c157604051626a0d4560e21b8152600060048201526024016105dc565b604080516001808252602082018690528183019081526060820185905260808201909252906145f387878484876146eb565b50505050505050565b6001600160a01b0382166146255760405162ced3e160e81b8152600060048201526024016105dc565b6001600160a01b03838116600081815260016020908152604080832094871680845294825291829020805460ff191686151590811790915591519182527f17307eab39ab6107e8899845ad3d59bd9653f200f220920489ca2b5937696c31910160405180910390a3505050565b6001600160a01b0384166146bc57604051632bfa23e760e11b8152600060048201526024016105dc565b604080516001808252602082018690528183019081526060820185905260808201909252906113a86000878484875b6146f78585858561473e565b6001600160a01b0384161561169b57825133906001036147305760208481015190840151614729838989858589614952565b50506113a8565b6113a8818787878787614a76565b805182511461476d5781518151604051635b05999160e01b8152600481019290925260248201526044016105dc565b3360005b8351811015614873576020818102858101820151908501909101516001600160a01b03881615614824576000828152602081815260408083206001600160a01b038c168452909152902054818110156147fd576040516303dee4c560e01b81526001600160a01b038a1660048201526024810182905260448101839052606481018490526084016105dc565b6000838152602081815260408083206001600160a01b038d16845290915290209082900390555b6001600160a01b03871615614869576000828152602081815260408083206001600160a01b038b16845290915281208054839290614863908490615a84565b90915550505b5050600101614771565b5082516001036148f45760208301516000906020840151909150856001600160a01b0316876001600160a01b0316846001600160a01b03167fc3d58168c5ae7397731d063d5bbf3d657854427343f4c083240f7aacaa2d0f6285856040516148e5929190918252602082015260400190565b60405180910390a4505061169b565b836001600160a01b0316856001600160a01b0316826001600160a01b03167f4a39dc06d4c0dbc64b70af90fd698a233a518aa5d07e595d983b8c0526c8f7fb8686604051614943929190615b3f565b60405180910390a45050505050565b6001600160a01b0384163b156113a85760405163f23a6e6160e01b81526001600160a01b0385169063f23a6e61906149969089908990889088908890600401615b6d565b6020604051808303816000875af19250505080156149d1575060408051601f3d908101601f191682019092526149ce91810190615bb2565b60015b614a3a573d8080156149ff576040519150601f19603f3d011682016040523d82523d6000602084013e614a04565b606091505b508051600003614a3257604051632bfa23e760e11b81526001600160a01b03861660048201526024016105dc565b805181602001fd5b6001600160e01b0319811663f23a6e6160e01b146145f357604051632bfa23e760e11b81526001600160a01b03861660048201526024016105dc565b6001600160a01b0384163b156113a85760405163bc197c8160e01b81526001600160a01b0385169063bc197c8190614aba9089908990889088908890600401615bcf565b6020604051808303816000875af1925050508015614af5575060408051601f3d908101601f19168201909252614af291810190615bb2565b60015b614b23573d8080156149ff576040519150601f19603f3d011682016040523d82523d6000602084013e614a04565b6001600160e01b0319811663bc197c8160e01b146145f357604051632bfa23e760e11b81526001600160a01b03861660048201526024016105dc565b508054614b6b906157e4565b6000825580601f10614b7b575050565b601f0160209004906000526020600020908101906125a79190614c5a565b828054828255906000526020600020908101928215614bee579160200282015b82811115614bee57825182546001600160a01b0319166001600160a01b03909116178255602090920191600190910190614bb9565b50614bfa929150614c5a565b5090565b828054828255906000526020600020908101928215614bee579160200282015b82811115614bee578251825591602001919060010190614c1e565b50805460008255600802906000526020600020908101906125a79190614c6f565b5b80821115614bfa5760008155600101614c5b565b80821115614bfa57600080825560018201819055614c906002830182614b5f565b614c9e600383016000614b5f565b614cac600483016000614b5f565b50600060058201819055600682018190556007820155600801614c6f565b80356001600160a01b0381168114614ce157600080fd5b919050565b60008060408385031215614cf957600080fd5b614d0283614cca565b946020939093013593505050565b6001600160e01b0319811681146125a757600080fd5b600060208284031215614d3857600080fd5b8135614d4381614d10565b9392505050565b600060208284031215614d5c57600080fd5b5035919050565b60005b83811015614d7e578181015183820152602001614d66565b50506000910152565b60008151808452614d9f816020860160208601614d63565b601f01601f19169290920160200192915050565b602081526000614d436020830184614d87565b600060208284031215614dd857600080fd5b614d4382614cca565b602080825282518282018190526000919060409081850190868401855b82811015614e5557815180518552868101518786015285810151868601526060808201516001600160a01b0316908601526080808201519086015260a0908101519085015260c09093019290850190600101614dfe565b5091979650505050505050565b60008060408385031215614e7557600080fd5b50508035926020909101359150565b634e487b7160e01b600052604160045260246000fd5b604051601f8201601f1916810167ffffffffffffffff81118282101715614ec357614ec3614e84565b604052919050565b600067ffffffffffffffff821115614ee557614ee5614e84565b5060051b60200190565b600082601f830112614f0057600080fd5b81356020614f15614f1083614ecb565b614e9a565b8083825260208201915060208460051b870101935086841115614f3757600080fd5b602086015b84811015614f535780358352918301918301614f3c565b509695505050505050565b600082601f830112614f6f57600080fd5b813567ffffffffffffffff811115614f8957614f89614e84565b614f9c601f8201601f1916602001614e9a565b818152846020838601011115614fb157600080fd5b816020850160208301376000918101602001919091529392505050565b600080600080600060a08688031215614fe657600080fd5b614fef86614cca565b9450614ffd60208701614cca565b9350604086013567ffffffffffffffff8082111561501a57600080fd5b61502689838a01614eef565b9450606088013591508082111561503c57600080fd5b61504889838a01614eef565b9350608088013591508082111561505e57600080fd5b5061506b88828901614f5e565b9150509295509295909350565b6000806020838503121561508b57600080fd5b823567ffffffffffffffff808211156150a357600080fd5b818501915085601f8301126150b757600080fd5b8135818111156150c657600080fd5b8660208285010111156150d857600080fd5b60209290920196919550909350505050565b600080604083850312156150fd57600080fd5b823567ffffffffffffffff8082111561511557600080fd5b818501915085601f83011261512957600080fd5b81356020615139614f1083614ecb565b82815260059290921b8401810191818101908984111561515857600080fd5b948201945b8386101561517d5761516e86614cca565b8252948201949082019061515d565b9650508601359250508082111561519357600080fd5b506151a085828601614eef565b9150509250929050565b60008151808452602080850194506020840160005b838110156151db578151875295820195908201906001016151bf565b509495945050505050565b602081526000614d4360208301846151aa565b600080600080600060a0868803121561521157600080fd5b85359450602086013567ffffffffffffffff8082111561523057600080fd5b61523c89838a01614f5e565b9550604088013591508082111561525257600080fd5b61525e89838a01614f5e565b9450606088013591508082111561527457600080fd5b61528089838a01614eef565b9350608088013591508082111561529657600080fd5b5061506b88828901614eef565b602080825282518282018190526000919060409081850190868401855b82811015614e555781518051855286810151878601528581015186860152606080820151908601526080808201519086015260a0808201516001600160a01b03169086015260c0908101519085015260e090930192908501906001016152c0565b6000806000806080858703121561533757600080fd5b843593506020850135925061534e60408601614cca565b9396929550929360600135925050565b60006020828403121561537057600080fd5b813567ffffffffffffffff81111561538757600080fd5b61539384828501614f5e565b949350505050565b600080604083850312156153ae57600080fd5b6153b783614cca565b9150602083013580151581146153cc57600080fd5b809150509250929050565b600060208083018184528085518083526040925060408601915060408160051b8701018488016000805b8481101561549d57603f198a850301865282516080815181875261542782880182614d87565b838c01516001600160a01b03908116898e01528b8501518c8a0152606094850151898303958a01959095528451808352948d0194879450918d019250905b8084101561548757845182168352938c019360019390930192918c0191615465565b5050978a01979550505091870191600101615401565b50919998505050505050505050565b60008060008060008060c087890312156154c557600080fd5b86359550602087013567ffffffffffffffff808211156154e457600080fd5b6154f08a838b01614f5e565b9650604089013591508082111561550657600080fd5b6155128a838b01614f5e565b9550606089013591508082111561552857600080fd5b5061553589828a01614f5e565b9350506080870135915060a087013590509295509295509295565b60008060006060848603121561556557600080fd5b505081359360208301359350604090920135919050565b6000806040838503121561558f57600080fd5b61559883614cca565b91506155a660208401614cca565b90509250929050565b602081528151602082015260208201516040820152600060408301516101008060608501526155e2610120850183614d87565b91506060850151601f19808685030160808701526156008483614d87565b935060808701519150808685030160a08701525061561e8382614d87565b92505060a085015160c085015260c085015160e085015260e085015181850152508091505092915050565b600080600080600060a0868803121561566157600080fd5b61566a86614cca565b945061567860208701614cca565b93506040860135925060608601359150608086013567ffffffffffffffff8111156156a257600080fd5b61506b88828901614f5e565b600080600080608085870312156156c457600080fd5b5050823594602084013594506040840135936060013592509050565b600060208083018184528085518083526040925060408601915060408160051b87010184880160005b8381101561579b57603f19898403018552815160a08151855288820151818a87015261573782870182614d87565b915050878201518582038987015261574f8282614d87565b9150506060808301518683038288015261576983826151aa565b925050506080808301519250858203818701525061578781836151aa565b968901969450505090860190600101615709565b509098975050505050505050565b600080600080600060a086880312156157c157600080fd5b505083359560208501359550604085013594606081013594506080013592509050565b600181811c908216806157f857607f821691505b60208210810361581857634e487b7160e01b600052602260045260246000fd5b50919050565b600080835461582c816157e4565b60018281168015615844576001811461585957615888565b60ff1984168752821515830287019450615888565b8760005260208060002060005b8581101561587f5781548a820152908401908201615866565b50505082870194505b50929695505050505050565b60208082526048908201527fd0a2d0bed0bbd18cd0bad0be20d0b2d0bbd0b0d0b4d0b5d0bbd0b5d18620d0bc60408201527fd0bed0b6d0b5d18220d18dd182d0be20d0b8d181d0bfd0bed0bbd18cd0b7d0be606082015267342cb42c3460b46360c21b608082015260a00190565b634e487b7160e01b600052603260045260246000fd5b634e487b7160e01b600052601160045260246000fd5b808202811582820484141761046557610465615918565b601f821115611c13576000816000526020600020601f850160051c8101602086101561596e5750805b601f850160051c820191505b818110156113a85782815560010161597a565b815167ffffffffffffffff8111156159a7576159a7614e84565b6159bb816159b584546157e4565b84615945565b602080601f8311600181146159f057600084156159d85750858301515b600019600386901b1c1916600185901b1785556113a8565b600085815260208120601f198616915b82811015615a1f57888601518255948401946001909101908401615a00565b5085821015615a3d5787850151600019600388901b60f8161c191681555b5050505050600190811b01905550565b6020808252601f908201527fd090d183d0bad186d0b8d0bed0bd20d0b7d0b0d0b2d0b5d180d188d191d0bd00604082015260600190565b8082018082111561046557610465615918565b60008085851115615aa757600080fd5b83861115615ab457600080fd5b5050820193919092039150565b6550524f46492d60d01b815281836006830137630c8c0c8d60e21b91016006810191909152600a01919050565b60008251615b00818460208701614d63565b9190910192915050565b8181038181111561046557610465615918565b600082615b3a57634e487b7160e01b600052601260045260246000fd5b500490565b604081526000615b5260408301856151aa565b8281036020840152615b6481856151aa565b95945050505050565b6001600160a01b03868116825285166020820152604081018490526060810183905260a060808201819052600090615ba790830184614d87565b979650505050505050565b600060208284031215615bc457600080fd5b8151614d4381614d10565b6001600160a01b0386811682528516602082015260a060408201819052600090615bfb908301866151aa565b8281036060840152615c0d81866151aa565b90508281036080840152615c218185614d87565b9897505050505050505056fea264697066735822122072bb6d236463ed576bfd8b7acb1bb9d96d16bde67de65253c62422f209bbd9a664736f6c63430008160033d09fd183d0b7d18bd180d0b8d0ba20d0bfd0bed185d0b8d182d0b8d0bb20d0bad0bed182d0b8d0bad0b020d18120d097d0b5d0bcd0bbd0b8d09ad0bed0bcd0bed187d0b5d0ba20d181d0bbd0b8d0bbd181d18f20d18120d0bad0bed181d0bcd0bed181d0bed0bcd092d0bad183d181d0bdd18fd188d0bad0b020d0b2d0bfd0b5d180d0b2d18bd0b520d0bfd180d0bed0b1d183d0b5d18220d18fd0bfd0bed0bdd181d0bad183d18e20d0bad183d185d0bdd18ed09ed0bd20d0b8d0b4d0b5d18220d0b8d0b3d180d0b0d182d18c20d0b220d0b1d0b0d181d0bad0b5d182d0b1d0bed0bb",
			"opcodes": "PUSH1 0x80 PUSH1 0x40 MSTORE CALLVALUE DUP1 ISZERO PUSH3 0x11 JUMPI PUSH1 0x0 DUP1 REVERT JUMPDEST POP PUSH1 0x40 MLOAD PUSH3 0x6D7E CODESIZE SUB DUP1 PUSH3 0x6D7E DUP4 CODECOPY DUP2 ADD PUSH1 0x40 DUP2 SWAP1 MSTORE PUSH3 0x34 SWAP2 PUSH3 0xB97 JUMP JUMPDEST PUSH1 0x40 DUP1 MLOAD PUSH1 0x20 DUP2 ADD SWAP1 SWAP2 MSTORE PUSH1 0x0 DUP2 MSTORE PUSH3 0x4E DUP2 PUSH3 0x380 JUMP JUMPDEST POP PUSH1 0x5 DUP1 SLOAD PUSH1 0x1 PUSH1 0x1 PUSH1 0xA0 SHL SUB NOT AND PUSH1 0x1 PUSH1 0x1 PUSH1 0xA0 SHL SUB DUP4 AND SWAP1 DUP2 OR SWAP1 SWAP2 SSTORE PUSH1 0x40 DUP1 MLOAD PUSH4 0x313CE567 PUSH1 0xE0 SHL DUP2 MSTORE SWAP1 MLOAD PUSH4 0x313CE567 SWAP2 PUSH1 0x4 DUP1 DUP3 ADD SWAP3 PUSH1 0x20 SWAP3 SWAP1 SWAP2 SWAP1 DUP3 SWAP1 SUB ADD DUP2 DUP7 GAS STATICCALL ISZERO DUP1 ISZERO PUSH3 0xA9 JUMPI RETURNDATASIZE PUSH1 0x0 DUP1 RETURNDATACOPY RETURNDATASIZE PUSH1 0x0 REVERT JUMPDEST POP POP POP POP PUSH1 0x40 MLOAD RETURNDATASIZE PUSH1 0x1F NOT PUSH1 0x1F DUP3 ADD AND DUP3 ADD DUP1 PUSH1 0x40 MSTORE POP DUP2 ADD SWAP1 PUSH3 0xCF SWAP2 SWAP1 PUSH3 0xBC9 JUMP JUMPDEST PUSH3 0xDC SWAP1 PUSH1 0xA PUSH3 0xD03 JUMP JUMPDEST PUSH1 0x3 SSTORE PUSH1 0x4 DUP1 SLOAD PUSH1 0x1 PUSH1 0x1 PUSH1 0xA0 SHL SUB NOT AND CALLER OR SWAP1 SSTORE PUSH1 0x40 DUP1 MLOAD DUP1 DUP3 ADD DUP3 MSTORE PUSH1 0xE DUP2 MSTORE PUSH14 0x684D685F685E685F68C3E85AE85D PUSH1 0x91 SHL PUSH1 0x20 DUP1 DUP4 ADD SWAP2 SWAP1 SWAP2 MSTORE DUP3 MLOAD PUSH1 0x60 DUP2 ADD SWAP1 SWAP4 MSTORE PUSH1 0x2F DUP1 DUP5 MSTORE PUSH3 0x168 SWAP4 PUSH1 0x1 SWAP4 SWAP3 SWAP1 SWAP2 SWAP1 PUSH3 0x6CD3 SWAP1 DUP4 ADD CODECOPY PUSH1 0x40 DUP1 MLOAD DUP1 DUP3 ADD SWAP1 SWAP2 MSTORE PUSH1 0xC DUP2 MSTORE PUSH12 0x6361745F6E6674312E706E67 PUSH1 0xA0 SHL PUSH1 0x20 DUP3 ADD MSTORE PUSH1 0x0 PUSH1 0x1 PUSH3 0x392 JUMP JUMPDEST PUSH3 0x1E0 PUSH1 0x2 PUSH1 0x40 MLOAD DUP1 PUSH1 0x40 ADD PUSH1 0x40 MSTORE DUP1 PUSH1 0x12 DUP2 MSTORE PUSH1 0x20 ADD PUSH18 0xD092D0BAD183D181D0BDD18FD188D0BAD0B PUSH1 0x74 SHL DUP2 MSTORE POP PUSH1 0x40 MLOAD DUP1 PUSH1 0x80 ADD PUSH1 0x40 MSTORE DUP1 PUSH1 0x4C DUP2 MSTORE PUSH1 0x20 ADD PUSH3 0x6D02 PUSH1 0x4C SWAP2 CODECOPY PUSH1 0x40 DUP1 MLOAD DUP1 DUP3 ADD SWAP1 SWAP2 MSTORE PUSH1 0xC DUP2 MSTORE PUSH12 0x6361745F6E6674322E706E67 PUSH1 0xA0 SHL PUSH1 0x20 DUP3 ADD MSTORE PUSH1 0x0 PUSH1 0x1 PUSH3 0x392 JUMP JUMPDEST PUSH3 0x254 PUSH1 0x3 PUSH1 0x40 MLOAD DUP1 PUSH1 0x40 ADD PUSH1 0x40 MSTORE DUP1 PUSH1 0xE DUP2 MSTORE PUSH1 0x20 ADD PUSH14 0x684FE8C1E85BE8C5E8C0685C685D PUSH1 0x91 SHL DUP2 MSTORE POP PUSH1 0x40 MLOAD DUP1 PUSH1 0x60 ADD PUSH1 0x40 MSTORE DUP1 PUSH1 0x38 DUP2 MSTORE PUSH1 0x20 ADD PUSH3 0x6C9B PUSH1 0x38 SWAP2 CODECOPY PUSH1 0x40 DUP1 MLOAD DUP1 DUP3 ADD SWAP1 SWAP2 MSTORE PUSH1 0xC DUP2 MSTORE PUSH12 0x6361745F6E6674332E706E67 PUSH1 0xA0 SHL PUSH1 0x20 DUP3 ADD MSTORE PUSH1 0x0 PUSH1 0x1 PUSH3 0x392 JUMP JUMPDEST PUSH3 0x2DA PUSH1 0x4 PUSH1 0x40 MLOAD DUP1 PUSH1 0x40 ADD PUSH1 0x40 MSTORE DUP1 PUSH1 0x18 DUP2 MSTORE PUSH1 0x20 ADD PUSH32 0xD091D0B0D181D0BAD0B5D182D0B1D0BED0BBD0B8D181D1820000000000000000 DUP2 MSTORE POP PUSH1 0x40 MLOAD DUP1 PUSH1 0x60 ADD PUSH1 0x40 MSTORE DUP1 PUSH1 0x30 DUP2 MSTORE PUSH1 0x20 ADD PUSH3 0x6D4E PUSH1 0x30 SWAP2 CODECOPY PUSH1 0x40 DUP1 MLOAD DUP1 DUP3 ADD SWAP1 SWAP2 MSTORE PUSH1 0xF DUP2 MSTORE PUSH15 0x77616C6B65725F6E6674312E706E67 PUSH1 0x88 SHL PUSH1 0x20 DUP3 ADD MSTORE PUSH1 0x0 PUSH1 0x1 PUSH3 0x392 JUMP JUMPDEST PUSH3 0x379 PUSH1 0x5 PUSH1 0x40 MLOAD DUP1 PUSH1 0x40 ADD PUSH1 0x40 MSTORE DUP1 PUSH1 0x12 DUP2 MSTORE PUSH1 0x20 ADD PUSH18 0x6849685F685DE8C4685AE858E85EE85C685D PUSH1 0x71 SHL DUP2 MSTORE POP PUSH1 0x40 MLOAD DUP1 PUSH1 0x40 ADD PUSH1 0x40 MSTORE DUP1 PUSH1 0x20 DUP2 MSTORE PUSH1 0x20 ADD PUSH32 0xD09ED0BD20D0B8D0B4D0B5D18220D0BAD0BED0BBD0B4D0BED0B2D0B0D182D18C DUP2 MSTORE POP PUSH1 0x40 MLOAD DUP1 PUSH1 0x40 ADD PUSH1 0x40 MSTORE DUP1 PUSH1 0xF DUP2 MSTORE PUSH1 0x20 ADD PUSH15 0x77616C6B65725F6E6674322E706E67 PUSH1 0x88 SHL DUP2 MSTORE POP PUSH1 0x0 PUSH1 0x1 PUSH3 0x392 PUSH1 0x20 SHL PUSH1 0x20 SHR JUMP JUMPDEST POP PUSH3 0x1028 JUMP JUMPDEST PUSH1 0x2 PUSH3 0x38E DUP3 DUP3 PUSH3 0xDB7 JUMP JUMPDEST POP POP JUMP JUMPDEST PUSH1 0x4 SLOAD PUSH1 0x1 PUSH1 0x1 PUSH1 0xA0 SHL SUB AND CALLER EQ PUSH3 0x429 JUMPI PUSH1 0x40 MLOAD PUSH3 0x461BCD PUSH1 0xE5 SHL DUP2 MSTORE PUSH1 0x20 PUSH1 0x4 DUP3 ADD MSTORE PUSH1 0x48 PUSH1 0x24 DUP3 ADD MSTORE PUSH32 0xD0A2D0BED0BBD18CD0BAD0BE20D0B2D0BBD0B0D0B4D0B5D0BBD0B5D18620D0BC PUSH1 0x44 DUP3 ADD MSTORE PUSH32 0xD0BED0B6D0B5D18220D18DD182D0BE20D0B8D181D0BFD0BED0BBD18CD0B7D0BE PUSH1 0x64 DUP3 ADD MSTORE PUSH8 0x342CB42C3460B463 PUSH1 0xC2 SHL PUSH1 0x84 DUP3 ADD MSTORE PUSH1 0xA4 ADD JUMPDEST PUSH1 0x40 MLOAD DUP1 SWAP2 SUB SWAP1 REVERT JUMPDEST PUSH1 0x0 DUP7 DUP2 MSTORE PUSH1 0x8 PUSH1 0x20 MSTORE PUSH1 0x40 SWAP1 KECCAK256 PUSH1 0x5 ADD SLOAD ISZERO PUSH3 0x4B0 JUMPI PUSH1 0x40 MLOAD PUSH3 0x461BCD PUSH1 0xE5 SHL DUP2 MSTORE PUSH1 0x20 PUSH1 0x4 DUP3 ADD MSTORE PUSH1 0x36 PUSH1 0x24 DUP3 ADD MSTORE PUSH32 0x4E465420D18120D182D0B0D0BAD0B8D0BC20696420D183D0B6D0B520D0B5D181 PUSH1 0x44 DUP3 ADD MSTORE PUSH32 0xD182D18C20D0B220D181D0B8D181D182D0B5D0BCD0B500000000000000000000 PUSH1 0x64 DUP3 ADD MSTORE PUSH1 0x84 ADD PUSH3 0x420 JUMP JUMPDEST PUSH3 0x4D3 CALLER DUP8 DUP4 PUSH1 0x40 MLOAD DUP1 PUSH1 0x20 ADD PUSH1 0x40 MSTORE DUP1 PUSH1 0x0 DUP2 MSTORE POP PUSH3 0x67A PUSH1 0x20 SHL PUSH1 0x20 SHR JUMP JUMPDEST PUSH1 0x40 DUP1 MLOAD PUSH2 0x100 DUP2 ADD DUP3 MSTORE DUP8 DUP2 MSTORE CALLER PUSH1 0x0 SWAP1 DUP2 MSTORE PUSH1 0x9 PUSH1 0x20 SWAP1 DUP2 MSTORE DUP4 DUP3 KECCAK256 SLOAD DUP2 DUP5 ADD SWAP1 DUP2 MSTORE DUP4 DUP6 ADD DUP11 DUP2 MSTORE PUSH1 0x60 DUP6 ADD DUP11 SWAP1 MSTORE PUSH1 0x80 DUP6 ADD DUP10 SWAP1 MSTORE PUSH1 0xA0 DUP6 ADD DUP9 SWAP1 MSTORE PUSH1 0xC0 DUP6 ADD DUP8 SWAP1 MSTORE TIMESTAMP PUSH1 0xE0 DUP7 ADD MSTORE DUP12 DUP5 MSTORE PUSH1 0x8 SWAP1 SWAP3 MSTORE SWAP4 SWAP1 SWAP2 KECCAK256 DUP3 MLOAD DUP2 SSTORE SWAP3 MLOAD PUSH1 0x1 DUP5 ADD SSTORE MLOAD SWAP1 SWAP2 SWAP1 PUSH1 0x2 DUP3 ADD SWAP1 PUSH3 0x54C SWAP1 DUP3 PUSH3 0xDB7 JUMP JUMPDEST POP PUSH1 0x60 DUP3 ADD MLOAD PUSH1 0x3 DUP3 ADD SWAP1 PUSH3 0x563 SWAP1 DUP3 PUSH3 0xDB7 JUMP JUMPDEST POP PUSH1 0x80 DUP3 ADD MLOAD PUSH1 0x4 DUP3 ADD SWAP1 PUSH3 0x57A SWAP1 DUP3 PUSH3 0xDB7 JUMP JUMPDEST POP PUSH1 0xA0 DUP3 DUP2 ADD MLOAD PUSH1 0x5 DUP4 ADD SSTORE PUSH1 0xC0 DUP1 DUP5 ADD MLOAD PUSH1 0x6 DUP5 ADD SSTORE PUSH1 0xE0 SWAP4 DUP5 ADD MLOAD PUSH1 0x7 SWAP1 SWAP4 ADD SWAP3 SWAP1 SWAP3 SSTORE CALLER PUSH1 0x0 SWAP1 DUP2 MSTORE PUSH1 0x9 PUSH1 0x20 DUP2 DUP2 MSTORE PUSH1 0x40 DUP1 DUP5 KECCAK256 DUP2 MLOAD PUSH2 0x100 DUP2 ADD DUP4 MSTORE DUP15 DUP2 MSTORE SWAP4 DUP4 MSTORE DUP1 SLOAD DUP5 DUP5 ADD DUP2 DUP2 MSTORE SWAP3 DUP6 ADD DUP15 DUP2 MSTORE PUSH1 0x60 DUP7 ADD DUP15 SWAP1 MSTORE PUSH1 0x80 DUP7 ADD DUP14 SWAP1 MSTORE SWAP7 DUP6 ADD DUP12 SWAP1 MSTORE SWAP7 DUP5 ADD DUP10 SWAP1 MSTORE TIMESTAMP SWAP8 DUP5 ADD SWAP8 SWAP1 SWAP8 MSTORE PUSH1 0x1 DUP1 DUP8 ADD DUP9 SSTORE SWAP7 DUP5 MSTORE SWAP3 KECCAK256 DUP2 MLOAD PUSH1 0x8 SWAP1 SWAP6 MUL ADD SWAP4 DUP5 SSTORE SWAP1 MLOAD SWAP4 DUP4 ADD SWAP4 SWAP1 SWAP4 SSTORE MLOAD PUSH1 0x2 DUP3 ADD SWAP1 PUSH3 0x623 SWAP1 DUP3 PUSH3 0xDB7 JUMP JUMPDEST POP PUSH1 0x60 DUP3 ADD MLOAD PUSH1 0x3 DUP3 ADD SWAP1 PUSH3 0x63A SWAP1 DUP3 PUSH3 0xDB7 JUMP JUMPDEST POP PUSH1 0x80 DUP3 ADD MLOAD PUSH1 0x4 DUP3 ADD SWAP1 PUSH3 0x651 SWAP1 DUP3 PUSH3 0xDB7 JUMP JUMPDEST POP PUSH1 0xA0 DUP3 ADD MLOAD DUP2 PUSH1 0x5 ADD SSTORE PUSH1 0xC0 DUP3 ADD MLOAD DUP2 PUSH1 0x6 ADD SSTORE PUSH1 0xE0 DUP3 ADD MLOAD DUP2 PUSH1 0x7 ADD SSTORE POP POP POP POP POP POP POP POP JUMP JUMPDEST PUSH1 0x1 PUSH1 0x1 PUSH1 0xA0 SHL SUB DUP5 AND PUSH3 0x6A6 JUMPI PUSH1 0x40 MLOAD PUSH4 0x2BFA23E7 PUSH1 0xE1 SHL DUP2 MSTORE PUSH1 0x0 PUSH1 0x4 DUP3 ADD MSTORE PUSH1 0x24 ADD PUSH3 0x420 JUMP JUMPDEST PUSH1 0x40 DUP1 MLOAD PUSH1 0x1 DUP1 DUP3 MSTORE PUSH1 0x20 DUP3 ADD DUP7 SWAP1 MSTORE DUP2 DUP4 ADD SWAP1 DUP2 MSTORE PUSH1 0x60 DUP3 ADD DUP6 SWAP1 MSTORE PUSH1 0x80 DUP3 ADD SWAP1 SWAP3 MSTORE SWAP1 PUSH3 0x6DB PUSH1 0x0 DUP8 DUP5 DUP5 DUP8 PUSH3 0x6E3 JUMP JUMPDEST POP POP POP POP POP POP JUMP JUMPDEST PUSH3 0x6F1 DUP6 DUP6 DUP6 DUP6 PUSH3 0x746 JUMP JUMPDEST PUSH1 0x1 PUSH1 0x1 PUSH1 0xA0 SHL SUB DUP5 AND ISZERO PUSH3 0x73F JUMPI DUP3 MLOAD CALLER SWAP1 PUSH1 0x1 SUB PUSH3 0x72F JUMPI PUSH1 0x20 DUP5 DUP2 ADD MLOAD SWAP1 DUP5 ADD MLOAD PUSH3 0x727 DUP4 DUP10 DUP10 DUP6 DUP6 DUP10 PUSH3 0x969 JUMP JUMPDEST POP POP PUSH3 0x6DB JUMP JUMPDEST PUSH3 0x6DB DUP2 DUP8 DUP8 DUP8 DUP8 DUP8 PUSH3 0xAA3 JUMP JUMPDEST POP POP POP POP POP JUMP JUMPDEST DUP1 MLOAD DUP3 MLOAD EQ PUSH3 0x777 JUMPI DUP2 MLOAD DUP2 MLOAD PUSH1 0x40 MLOAD PUSH4 0x5B059991 PUSH1 0xE0 SHL DUP2 MSTORE PUSH1 0x4 DUP2 ADD SWAP3 SWAP1 SWAP3 MSTORE PUSH1 0x24 DUP3 ADD MSTORE PUSH1 0x44 ADD PUSH3 0x420 JUMP JUMPDEST CALLER PUSH1 0x0 JUMPDEST DUP4 MLOAD DUP2 LT ISZERO PUSH3 0x885 JUMPI PUSH1 0x20 DUP2 DUP2 MUL DUP6 DUP2 ADD DUP3 ADD MLOAD SWAP1 DUP6 ADD SWAP1 SWAP2 ADD MLOAD PUSH1 0x1 PUSH1 0x1 PUSH1 0xA0 SHL SUB DUP9 AND ISZERO PUSH3 0x832 JUMPI PUSH1 0x0 DUP3 DUP2 MSTORE PUSH1 0x20 DUP2 DUP2 MSTORE PUSH1 0x40 DUP1 DUP4 KECCAK256 PUSH1 0x1 PUSH1 0x1 PUSH1 0xA0 SHL SUB DUP13 AND DUP5 MSTORE SWAP1 SWAP2 MSTORE SWAP1 KECCAK256 SLOAD DUP2 DUP2 LT ISZERO PUSH3 0x80B JUMPI PUSH1 0x40 MLOAD PUSH4 0x3DEE4C5 PUSH1 0xE0 SHL DUP2 MSTORE PUSH1 0x1 PUSH1 0x1 PUSH1 0xA0 SHL SUB DUP11 AND PUSH1 0x4 DUP3 ADD MSTORE PUSH1 0x24 DUP2 ADD DUP3 SWAP1 MSTORE PUSH1 0x44 DUP2 ADD DUP4 SWAP1 MSTORE PUSH1 0x64 DUP2 ADD DUP5 SWAP1 MSTORE PUSH1 0x84 ADD PUSH3 0x420 JUMP JUMPDEST PUSH1 0x0 DUP4 DUP2 MSTORE PUSH1 0x20 DUP2 DUP2 MSTORE PUSH1 0x40 DUP1 DUP4 KECCAK256 PUSH1 0x1 PUSH1 0x1 PUSH1 0xA0 SHL SUB DUP14 AND DUP5 MSTORE SWAP1 SWAP2 MSTORE SWAP1 KECCAK256 SWAP1 DUP3 SWAP1 SUB SWAP1 SSTORE JUMPDEST PUSH1 0x1 PUSH1 0x1 PUSH1 0xA0 SHL SUB DUP8 AND ISZERO PUSH3 0x87A JUMPI PUSH1 0x0 DUP3 DUP2 MSTORE PUSH1 0x20 DUP2 DUP2 MSTORE PUSH1 0x40 DUP1 DUP4 KECCAK256 PUSH1 0x1 PUSH1 0x1 PUSH1 0xA0 SHL SUB DUP12 AND DUP5 MSTORE SWAP1 SWAP2 MSTORE DUP2 KECCAK256 DUP1 SLOAD DUP4 SWAP3 SWAP1 PUSH3 0x874 SWAP1 DUP5 SWAP1 PUSH3 0xE83 JUMP JUMPDEST SWAP1 SWAP2 SSTORE POP POP JUMPDEST POP POP PUSH1 0x1 ADD PUSH3 0x77B JUMP JUMPDEST POP DUP3 MLOAD PUSH1 0x1 SUB PUSH3 0x909 JUMPI PUSH1 0x20 DUP4 ADD MLOAD PUSH1 0x0 SWAP1 PUSH1 0x20 DUP5 ADD MLOAD SWAP1 SWAP2 POP DUP6 PUSH1 0x1 PUSH1 0x1 PUSH1 0xA0 SHL SUB AND DUP8 PUSH1 0x1 PUSH1 0x1 PUSH1 0xA0 SHL SUB AND DUP5 PUSH1 0x1 PUSH1 0x1 PUSH1 0xA0 SHL SUB AND PUSH32 0xC3D58168C5AE7397731D063D5BBF3D657854427343F4C083240F7AACAA2D0F62 DUP6 DUP6 PUSH1 0x40 MLOAD PUSH3 0x8F9 SWAP3 SWAP2 SWAP1 SWAP2 DUP3 MSTORE PUSH1 0x20 DUP3 ADD MSTORE PUSH1 0x40 ADD SWAP1 JUMP JUMPDEST PUSH1 0x40 MLOAD DUP1 SWAP2 SUB SWAP1 LOG4 POP POP PUSH3 0x73F JUMP JUMPDEST DUP4 PUSH1 0x1 PUSH1 0x1 PUSH1 0xA0 SHL SUB AND DUP6 PUSH1 0x1 PUSH1 0x1 PUSH1 0xA0 SHL SUB AND DUP3 PUSH1 0x1 PUSH1 0x1 PUSH1 0xA0 SHL SUB AND PUSH32 0x4A39DC06D4C0DBC64B70AF90FD698A233A518AA5D07E595D983B8C0526C8F7FB DUP7 DUP7 PUSH1 0x40 MLOAD PUSH3 0x95A SWAP3 SWAP2 SWAP1 PUSH3 0xED7 JUMP JUMPDEST PUSH1 0x40 MLOAD DUP1 SWAP2 SUB SWAP1 LOG4 POP POP POP POP POP JUMP JUMPDEST PUSH1 0x1 PUSH1 0x1 PUSH1 0xA0 SHL SUB DUP5 AND EXTCODESIZE ISZERO PUSH3 0x6DB JUMPI PUSH1 0x40 MLOAD PUSH4 0xF23A6E61 PUSH1 0xE0 SHL DUP2 MSTORE PUSH1 0x1 PUSH1 0x1 PUSH1 0xA0 SHL SUB DUP6 AND SWAP1 PUSH4 0xF23A6E61 SWAP1 PUSH3 0x9B0 SWAP1 DUP10 SWAP1 DUP10 SWAP1 DUP9 SWAP1 DUP9 SWAP1 DUP9 SWAP1 PUSH1 0x4 ADD PUSH3 0xF51 JUMP JUMPDEST PUSH1 0x20 PUSH1 0x40 MLOAD DUP1 DUP4 SUB DUP2 PUSH1 0x0 DUP8 GAS CALL SWAP3 POP POP POP DUP1 ISZERO PUSH3 0x9EE JUMPI POP PUSH1 0x40 DUP1 MLOAD PUSH1 0x1F RETURNDATASIZE SWAP1 DUP2 ADD PUSH1 0x1F NOT AND DUP3 ADD SWAP1 SWAP3 MSTORE PUSH3 0x9EB SWAP2 DUP2 ADD SWAP1 PUSH3 0xF98 JUMP JUMPDEST PUSH1 0x1 JUMPDEST PUSH3 0xA5C JUMPI RETURNDATASIZE DUP1 DUP1 ISZERO PUSH3 0xA1F JUMPI PUSH1 0x40 MLOAD SWAP2 POP PUSH1 0x1F NOT PUSH1 0x3F RETURNDATASIZE ADD AND DUP3 ADD PUSH1 0x40 MSTORE RETURNDATASIZE DUP3 MSTORE RETURNDATASIZE PUSH1 0x0 PUSH1 0x20 DUP5 ADD RETURNDATACOPY PUSH3 0xA24 JUMP JUMPDEST PUSH1 0x60 SWAP2 POP JUMPDEST POP DUP1 MLOAD PUSH1 0x0 SUB PUSH3 0xA54 JUMPI PUSH1 0x40 MLOAD PUSH4 0x2BFA23E7 PUSH1 0xE1 SHL DUP2 MSTORE PUSH1 0x1 PUSH1 0x1 PUSH1 0xA0 SHL SUB DUP7 AND PUSH1 0x4 DUP3 ADD MSTORE PUSH1 0x24 ADD PUSH3 0x420 JUMP JUMPDEST DUP1 MLOAD DUP2 PUSH1 0x20 ADD REVERT JUMPDEST PUSH1 0x1 PUSH1 0x1 PUSH1 0xE0 SHL SUB NOT DUP2 AND PUSH4 0xF23A6E61 PUSH1 0xE0 SHL EQ PUSH3 0xA9A JUMPI PUSH1 0x40 MLOAD PUSH4 0x2BFA23E7 PUSH1 0xE1 SHL DUP2 MSTORE PUSH1 0x1 PUSH1 0x1 PUSH1 0xA0 SHL SUB DUP7 AND PUSH1 0x4 DUP3 ADD MSTORE PUSH1 0x24 ADD PUSH3 0x420 JUMP JUMPDEST POP POP POP POP POP POP POP JUMP JUMPDEST PUSH1 0x1 PUSH1 0x1 PUSH1 0xA0 SHL SUB DUP5 AND EXTCODESIZE ISZERO PUSH3 0x6DB JUMPI PUSH1 0x40 MLOAD PUSH4 0xBC197C81 PUSH1 0xE0 SHL DUP2 MSTORE PUSH1 0x1 PUSH1 0x1 PUSH1 0xA0 SHL SUB DUP6 AND SWAP1 PUSH4 0xBC197C81 SWAP1 PUSH3 0xAEA SWAP1 DUP10 SWAP1 DUP10 SWAP1 DUP9 SWAP1 DUP9 SWAP1 DUP9 SWAP1 PUSH1 0x4 ADD PUSH3 0xFC4 JUMP JUMPDEST PUSH1 0x20 PUSH1 0x40 MLOAD DUP1 DUP4 SUB DUP2 PUSH1 0x0 DUP8 GAS CALL SWAP3 POP POP POP DUP1 ISZERO PUSH3 0xB28 JUMPI POP PUSH1 0x40 DUP1 MLOAD PUSH1 0x1F RETURNDATASIZE SWAP1 DUP2 ADD PUSH1 0x1F NOT AND DUP3 ADD SWAP1 SWAP3 MSTORE PUSH3 0xB25 SWAP2 DUP2 ADD SWAP1 PUSH3 0xF98 JUMP JUMPDEST PUSH1 0x1 JUMPDEST PUSH3 0xB59 JUMPI RETURNDATASIZE DUP1 DUP1 ISZERO PUSH3 0xA1F JUMPI PUSH1 0x40 MLOAD SWAP2 POP PUSH1 0x1F NOT PUSH1 0x3F RETURNDATASIZE ADD AND DUP3 ADD PUSH1 0x40 MSTORE RETURNDATASIZE DUP3 MSTORE RETURNDATASIZE PUSH1 0x0 PUSH1 0x20 DUP5 ADD RETURNDATACOPY PUSH3 0xA24 JUMP JUMPDEST PUSH1 0x1 PUSH1 0x1 PUSH1 0xE0 SHL SUB NOT DUP2 AND PUSH4 0xBC197C81 PUSH1 0xE0 SHL EQ PUSH3 0xA9A JUMPI PUSH1 0x40 MLOAD PUSH4 0x2BFA23E7 PUSH1 0xE1 SHL DUP2 MSTORE PUSH1 0x1 PUSH1 0x1 PUSH1 0xA0 SHL SUB DUP7 AND PUSH1 0x4 DUP3 ADD MSTORE PUSH1 0x24 ADD PUSH3 0x420 JUMP JUMPDEST PUSH1 0x0 PUSH1 0x20 DUP3 DUP5 SUB SLT ISZERO PUSH3 0xBAA JUMPI PUSH1 0x0 DUP1 REVERT JUMPDEST DUP2 MLOAD PUSH1 0x1 PUSH1 0x1 PUSH1 0xA0 SHL SUB DUP2 AND DUP2 EQ PUSH3 0xBC2 JUMPI PUSH1 0x0 DUP1 REVERT JUMPDEST SWAP4 SWAP3 POP POP POP JUMP JUMPDEST PUSH1 0x0 PUSH1 0x20 DUP3 DUP5 SUB SLT ISZERO PUSH3 0xBDC JUMPI PUSH1 0x0 DUP1 REVERT JUMPDEST DUP2 MLOAD PUSH1 0xFF DUP2 AND DUP2 EQ PUSH3 0xBC2 JUMPI PUSH1 0x0 DUP1 REVERT JUMPDEST PUSH4 0x4E487B71 PUSH1 0xE0 SHL PUSH1 0x0 MSTORE PUSH1 0x11 PUSH1 0x4 MSTORE PUSH1 0x24 PUSH1 0x0 REVERT JUMPDEST PUSH1 0x1 DUP2 DUP2 JUMPDEST DUP1 DUP6 GT ISZERO PUSH3 0xC45 JUMPI DUP2 PUSH1 0x0 NOT DIV DUP3 GT ISZERO PUSH3 0xC29 JUMPI PUSH3 0xC29 PUSH3 0xBEE JUMP JUMPDEST DUP1 DUP6 AND ISZERO PUSH3 0xC37 JUMPI SWAP2 DUP2 MUL SWAP2 JUMPDEST SWAP4 DUP5 SHR SWAP4 SWAP1 DUP1 MUL SWAP1 PUSH3 0xC09 JUMP JUMPDEST POP SWAP3 POP SWAP3 SWAP1 POP JUMP JUMPDEST PUSH1 0x0 DUP3 PUSH3 0xC5E JUMPI POP PUSH1 0x1 PUSH3 0xCFD JUMP JUMPDEST DUP2 PUSH3 0xC6D JUMPI POP PUSH1 0x0 PUSH3 0xCFD JUMP JUMPDEST DUP2 PUSH1 0x1 DUP2 EQ PUSH3 0xC86 JUMPI PUSH1 0x2 DUP2 EQ PUSH3 0xC91 JUMPI PUSH3 0xCB1 JUMP JUMPDEST PUSH1 0x1 SWAP2 POP POP PUSH3 0xCFD JUMP JUMPDEST PUSH1 0xFF DUP5 GT ISZERO PUSH3 0xCA5 JUMPI PUSH3 0xCA5 PUSH3 0xBEE JUMP JUMPDEST POP POP PUSH1 0x1 DUP3 SHL PUSH3 0xCFD JUMP JUMPDEST POP PUSH1 0x20 DUP4 LT PUSH2 0x133 DUP4 LT AND PUSH1 0x4E DUP5 LT PUSH1 0xB DUP5 LT AND OR ISZERO PUSH3 0xCD6 JUMPI POP DUP2 DUP2 EXP PUSH3 0xCFD JUMP JUMPDEST PUSH3 0xCE2 DUP4 DUP4 PUSH3 0xC04 JUMP JUMPDEST DUP1 PUSH1 0x0 NOT DIV DUP3 GT ISZERO PUSH3 0xCF9 JUMPI PUSH3 0xCF9 PUSH3 0xBEE JUMP JUMPDEST MUL SWAP1 POP JUMPDEST SWAP3 SWAP2 POP POP JUMP JUMPDEST PUSH1 0x0 PUSH3 0xBC2 PUSH1 0xFF DUP5 AND DUP4 PUSH3 0xC4D JUMP JUMPDEST PUSH4 0x4E487B71 PUSH1 0xE0 SHL PUSH1 0x0 MSTORE PUSH1 0x41 PUSH1 0x4 MSTORE PUSH1 0x24 PUSH1 0x0 REVERT JUMPDEST PUSH1 0x1 DUP2 DUP2 SHR SWAP1 DUP3 AND DUP1 PUSH3 0xD3F JUMPI PUSH1 0x7F DUP3 AND SWAP2 POP JUMPDEST PUSH1 0x20 DUP3 LT DUP2 SUB PUSH3 0xD60 JUMPI PUSH4 0x4E487B71 PUSH1 0xE0 SHL PUSH1 0x0 MSTORE PUSH1 0x22 PUSH1 0x4 MSTORE PUSH1 0x24 PUSH1 0x0 REVERT JUMPDEST POP SWAP2 SWAP1 POP JUMP JUMPDEST PUSH1 0x1F DUP3 GT ISZERO PUSH3 0xDB2 JUMPI PUSH1 0x0 DUP2 PUSH1 0x0 MSTORE PUSH1 0x20 PUSH1 0x0 KECCAK256 PUSH1 0x1F DUP6 ADD PUSH1 0x5 SHR DUP2 ADD PUSH1 0x20 DUP7 LT ISZERO PUSH3 0xD91 JUMPI POP DUP1 JUMPDEST PUSH1 0x1F DUP6 ADD PUSH1 0x5 SHR DUP3 ADD SWAP2 POP JUMPDEST DUP2 DUP2 LT ISZERO PUSH3 0x6DB JUMPI DUP3 DUP2 SSTORE PUSH1 0x1 ADD PUSH3 0xD9D JUMP JUMPDEST POP POP POP JUMP JUMPDEST DUP2 MLOAD PUSH1 0x1 PUSH1 0x1 PUSH1 0x40 SHL SUB DUP2 GT ISZERO PUSH3 0xDD3 JUMPI PUSH3 0xDD3 PUSH3 0xD14 JUMP JUMPDEST PUSH3 0xDEB DUP2 PUSH3 0xDE4 DUP5 SLOAD PUSH3 0xD2A JUMP JUMPDEST DUP5 PUSH3 0xD66 JUMP JUMPDEST PUSH1 0x20 DUP1 PUSH1 0x1F DUP4 GT PUSH1 0x1 DUP2 EQ PUSH3 0xE23 JUMPI PUSH1 0x0 DUP5 ISZERO PUSH3 0xE0A JUMPI POP DUP6 DUP4 ADD MLOAD JUMPDEST PUSH1 0x0 NOT PUSH1 0x3 DUP7 SWAP1 SHL SHR NOT AND PUSH1 0x1 DUP6 SWAP1 SHL OR DUP6 SSTORE PUSH3 0x6DB JUMP JUMPDEST PUSH1 0x0 DUP6 DUP2 MSTORE PUSH1 0x20 DUP2 KECCAK256 PUSH1 0x1F NOT DUP7 AND SWAP2 JUMPDEST DUP3 DUP2 LT ISZERO PUSH3 0xE54 JUMPI DUP9 DUP7 ADD MLOAD DUP3 SSTORE SWAP5 DUP5 ADD SWAP5 PUSH1 0x1 SWAP1 SWAP2 ADD SWAP1 DUP5 ADD PUSH3 0xE33 JUMP JUMPDEST POP DUP6 DUP3 LT ISZERO PUSH3 0xE73 JUMPI DUP8 DUP6 ADD MLOAD PUSH1 0x0 NOT PUSH1 0x3 DUP9 SWAP1 SHL PUSH1 0xF8 AND SHR NOT AND DUP2 SSTORE JUMPDEST POP POP POP POP POP PUSH1 0x1 SWAP1 DUP2 SHL ADD SWAP1 SSTORE POP JUMP JUMPDEST DUP1 DUP3 ADD DUP1 DUP3 GT ISZERO PUSH3 0xCFD JUMPI PUSH3 0xCFD PUSH3 0xBEE JUMP JUMPDEST PUSH1 0x0 DUP2 MLOAD DUP1 DUP5 MSTORE PUSH1 0x20 DUP1 DUP6 ADD SWAP5 POP PUSH1 0x20 DUP5 ADD PUSH1 0x0 JUMPDEST DUP4 DUP2 LT ISZERO PUSH3 0xECC JUMPI DUP2 MLOAD DUP8 MSTORE SWAP6 DUP3 ADD SWAP6 SWAP1 DUP3 ADD SWAP1 PUSH1 0x1 ADD PUSH3 0xEAE JUMP JUMPDEST POP SWAP5 SWAP6 SWAP5 POP POP POP POP POP JUMP JUMPDEST PUSH1 0x40 DUP2 MSTORE PUSH1 0x0 PUSH3 0xEEC PUSH1 0x40 DUP4 ADD DUP6 PUSH3 0xE99 JUMP JUMPDEST DUP3 DUP2 SUB PUSH1 0x20 DUP5 ADD MSTORE PUSH3 0xF00 DUP2 DUP6 PUSH3 0xE99 JUMP JUMPDEST SWAP6 SWAP5 POP POP POP POP POP JUMP JUMPDEST PUSH1 0x0 DUP2 MLOAD DUP1 DUP5 MSTORE PUSH1 0x0 JUMPDEST DUP2 DUP2 LT ISZERO PUSH3 0xF31 JUMPI PUSH1 0x20 DUP2 DUP6 ADD DUP2 ADD MLOAD DUP7 DUP4 ADD DUP3 ADD MSTORE ADD PUSH3 0xF13 JUMP JUMPDEST POP PUSH1 0x0 PUSH1 0x20 DUP3 DUP7 ADD ADD MSTORE PUSH1 0x20 PUSH1 0x1F NOT PUSH1 0x1F DUP4 ADD AND DUP6 ADD ADD SWAP2 POP POP SWAP3 SWAP2 POP POP JUMP JUMPDEST PUSH1 0x1 PUSH1 0x1 PUSH1 0xA0 SHL SUB DUP7 DUP2 AND DUP3 MSTORE DUP6 AND PUSH1 0x20 DUP3 ADD MSTORE PUSH1 0x40 DUP2 ADD DUP5 SWAP1 MSTORE PUSH1 0x60 DUP2 ADD DUP4 SWAP1 MSTORE PUSH1 0xA0 PUSH1 0x80 DUP3 ADD DUP2 SWAP1 MSTORE PUSH1 0x0 SWAP1 PUSH3 0xF8D SWAP1 DUP4 ADD DUP5 PUSH3 0xF09 JUMP JUMPDEST SWAP8 SWAP7 POP POP POP POP POP POP POP JUMP JUMPDEST PUSH1 0x0 PUSH1 0x20 DUP3 DUP5 SUB SLT ISZERO PUSH3 0xFAB JUMPI PUSH1 0x0 DUP1 REVERT JUMPDEST DUP2 MLOAD PUSH1 0x1 PUSH1 0x1 PUSH1 0xE0 SHL SUB NOT DUP2 AND DUP2 EQ PUSH3 0xBC2 JUMPI PUSH1 0x0 DUP1 REVERT JUMPDEST PUSH1 0x1 PUSH1 0x1 PUSH1 0xA0 SHL SUB DUP7 DUP2 AND DUP3 MSTORE DUP6 AND PUSH1 0x20 DUP3 ADD MSTORE PUSH1 0xA0 PUSH1 0x40 DUP3 ADD DUP2 SWAP1 MSTORE PUSH1 0x0 SWAP1 PUSH3 0xFF2 SWAP1 DUP4 ADD DUP7 PUSH3 0xE99 JUMP JUMPDEST DUP3 DUP2 SUB PUSH1 0x60 DUP5 ADD MSTORE PUSH3 0x1006 DUP2 DUP7 PUSH3 0xE99 JUMP JUMPDEST SWAP1 POP DUP3 DUP2 SUB PUSH1 0x80 DUP5 ADD MSTORE PUSH3 0x101C DUP2 DUP6 PUSH3 0xF09 JUMP JUMPDEST SWAP9 SWAP8 POP POP POP POP POP POP POP POP JUMP JUMPDEST PUSH2 0x5C63 DUP1 PUSH3 0x1038 PUSH1 0x0 CODECOPY PUSH1 0x0 RETURN INVALID PUSH1 0x80 PUSH1 0x40 MSTORE CALLVALUE DUP1 ISZERO PUSH2 0x10 JUMPI PUSH1 0x0 DUP1 REVERT JUMPDEST POP PUSH1 0x4 CALLDATASIZE LT PUSH2 0x1CE JUMPI PUSH1 0x0 CALLDATALOAD PUSH1 0xE0 SHR DUP1 PUSH4 0x85494E45 GT PUSH2 0x104 JUMPI DUP1 PUSH4 0xE4B70B42 GT PUSH2 0xA2 JUMPI DUP1 PUSH4 0xF598B707 GT PUSH2 0x71 JUMPI DUP1 PUSH4 0xF598B707 EQ PUSH2 0x3F5 JUMPI DUP1 PUSH4 0xF8976921 EQ PUSH2 0x408 JUMPI DUP1 PUSH4 0xF989965D EQ PUSH2 0x41D JUMPI DUP1 PUSH4 0xFB2FACC3 EQ PUSH2 0x430 JUMPI PUSH1 0x0 DUP1 REVERT JUMPDEST DUP1 PUSH4 0xE4B70B42 EQ PUSH2 0x39C JUMPI DUP1 PUSH4 0xE985E9C5 EQ PUSH2 0x3AF JUMPI DUP1 PUSH4 0xEAC8F5B8 EQ PUSH2 0x3C2 JUMPI DUP1 PUSH4 0xF242432A EQ PUSH2 0x3E2 JUMPI PUSH1 0x0 DUP1 REVERT JUMPDEST DUP1 PUSH4 0xA22CB465 GT PUSH2 0xDE JUMPI DUP1 PUSH4 0xA22CB465 EQ PUSH2 0x34E JUMPI DUP1 PUSH4 0xA2A376CD EQ PUSH2 0x361 JUMPI DUP1 PUSH4 0xBFCC4394 EQ PUSH2 0x376 JUMPI DUP1 PUSH4 0xCF14BF3F EQ PUSH2 0x389 JUMPI PUSH1 0x0 DUP1 REVERT JUMPDEST DUP1 PUSH4 0x85494E45 EQ PUSH2 0x315 JUMPI DUP1 PUSH4 0x90420AEE EQ PUSH2 0x328 JUMPI DUP1 PUSH4 0x97F588C6 EQ PUSH2 0x33B JUMPI PUSH1 0x0 DUP1 REVERT JUMPDEST DUP1 PUSH4 0x2EB2C2D6 GT PUSH2 0x171 JUMPI DUP1 PUSH4 0x4E1273F4 GT PUSH2 0x14B JUMPI DUP1 PUSH4 0x4E1273F4 EQ PUSH2 0x2BA JUMPI DUP1 PUSH4 0x694F82B4 EQ PUSH2 0x2DA JUMPI DUP1 PUSH4 0x6FFCC719 EQ PUSH2 0x2ED JUMPI DUP1 PUSH4 0x7327DF25 EQ PUSH2 0x300 JUMPI PUSH1 0x0 DUP1 REVERT JUMPDEST DUP1 PUSH4 0x2EB2C2D6 EQ PUSH2 0x28C JUMPI DUP1 PUSH4 0x41FDF031 EQ PUSH2 0x29F JUMPI DUP1 PUSH4 0x4DAD2AAB EQ PUSH2 0x2A7 JUMPI PUSH1 0x0 DUP1 REVERT JUMPDEST DUP1 PUSH4 0x1B1BF2B9 GT PUSH2 0x1AD JUMPI DUP1 PUSH4 0x1B1BF2B9 EQ PUSH2 0x23C JUMPI DUP1 PUSH4 0x222D9C5C EQ PUSH2 0x251 JUMPI DUP1 PUSH4 0x24897ED6 EQ PUSH2 0x264 JUMPI DUP1 PUSH4 0x2D632205 EQ PUSH2 0x279 JUMPI PUSH1 0x0 DUP1 REVERT JUMPDEST DUP1 PUSH3 0xFDD58E EQ PUSH2 0x1D3 JUMPI DUP1 PUSH4 0x1FFC9A7 EQ PUSH2 0x1F9 JUMPI DUP1 PUSH4 0xE89341C EQ PUSH2 0x21C JUMPI JUMPDEST PUSH1 0x0 DUP1 REVERT JUMPDEST PUSH2 0x1E6 PUSH2 0x1E1 CALLDATASIZE PUSH1 0x4 PUSH2 0x4CE6 JUMP JUMPDEST PUSH2 0x443 JUMP JUMPDEST PUSH1 0x40 MLOAD SWAP1 DUP2 MSTORE PUSH1 0x20 ADD JUMPDEST PUSH1 0x40 MLOAD DUP1 SWAP2 SUB SWAP1 RETURN JUMPDEST PUSH2 0x20C PUSH2 0x207 CALLDATASIZE PUSH1 0x4 PUSH2 0x4D26 JUMP JUMPDEST PUSH2 0x46B JUMP JUMPDEST PUSH1 0x40 MLOAD SWAP1 ISZERO ISZERO DUP2 MSTORE PUSH1 0x20 ADD PUSH2 0x1F0 JUMP JUMPDEST PUSH2 0x22F PUSH2 0x22A CALLDATASIZE PUSH1 0x4 PUSH2 0x4D4A JUMP JUMPDEST PUSH2 0x4BB JUMP JUMPDEST PUSH1 0x40 MLOAD PUSH2 0x1F0 SWAP2 SWAP1 PUSH2 0x4DB3 JUMP JUMPDEST PUSH2 0x24F PUSH2 0x24A CALLDATASIZE PUSH1 0x4 PUSH2 0x4DC6 JUMP JUMPDEST PUSH2 0x54F JUMP JUMPDEST STOP JUMPDEST PUSH2 0x24F PUSH2 0x25F CALLDATASIZE PUSH1 0x4 PUSH2 0x4D4A JUMP JUMPDEST PUSH2 0x5B2 JUMP JUMPDEST PUSH2 0x26C PUSH2 0xEB6 JUMP JUMPDEST PUSH1 0x40 MLOAD PUSH2 0x1F0 SWAP2 SWAP1 PUSH2 0x4DE1 JUMP JUMPDEST PUSH2 0x24F PUSH2 0x287 CALLDATASIZE PUSH1 0x4 PUSH2 0x4E62 JUMP JUMPDEST PUSH2 0xF54 JUMP JUMPDEST PUSH2 0x24F PUSH2 0x29A CALLDATASIZE PUSH1 0x4 PUSH2 0x4FCE JUMP JUMPDEST PUSH2 0x1349 JUMP JUMPDEST PUSH2 0x22F PUSH2 0x13B0 JUMP JUMPDEST PUSH2 0x24F PUSH2 0x2B5 CALLDATASIZE PUSH1 0x4 PUSH2 0x5078 JUMP JUMPDEST PUSH2 0x1451 JUMP JUMPDEST PUSH2 0x2CD PUSH2 0x2C8 CALLDATASIZE PUSH1 0x4 PUSH2 0x50EA JUMP JUMPDEST PUSH2 0x16A2 JUMP JUMPDEST PUSH1 0x40 MLOAD PUSH2 0x1F0 SWAP2 SWAP1 PUSH2 0x51E6 JUMP JUMPDEST PUSH2 0x24F PUSH2 0x2E8 CALLDATASIZE PUSH1 0x4 PUSH2 0x51F9 JUMP JUMPDEST PUSH2 0x176F JUMP JUMPDEST PUSH2 0x24F PUSH2 0x2FB CALLDATASIZE PUSH1 0x4 PUSH2 0x4E62 JUMP JUMPDEST PUSH2 0x19A9 JUMP JUMPDEST PUSH2 0x308 PUSH2 0x1C18 JUMP JUMPDEST PUSH1 0x40 MLOAD PUSH2 0x1F0 SWAP2 SWAP1 PUSH2 0x52A3 JUMP JUMPDEST PUSH2 0x24F PUSH2 0x323 CALLDATASIZE PUSH1 0x4 PUSH2 0x5321 JUMP JUMPDEST PUSH2 0x1CB7 JUMP JUMPDEST PUSH2 0x24F PUSH2 0x336 CALLDATASIZE PUSH1 0x4 PUSH2 0x4E62 JUMP JUMPDEST PUSH2 0x20DB JUMP JUMPDEST PUSH2 0x24F PUSH2 0x349 CALLDATASIZE PUSH1 0x4 PUSH2 0x535E JUMP JUMPDEST PUSH2 0x219B JUMP JUMPDEST PUSH2 0x24F PUSH2 0x35C CALLDATASIZE PUSH1 0x4 PUSH2 0x539B JUMP JUMPDEST PUSH2 0x25AA JUMP JUMPDEST PUSH2 0x369 PUSH2 0x25B9 JUMP JUMPDEST PUSH1 0x40 MLOAD PUSH2 0x1F0 SWAP2 SWAP1 PUSH2 0x53D7 JUMP JUMPDEST PUSH2 0x24F PUSH2 0x384 CALLDATASIZE PUSH1 0x4 PUSH2 0x4D4A JUMP JUMPDEST PUSH2 0x273C JUMP JUMPDEST PUSH2 0x24F PUSH2 0x397 CALLDATASIZE PUSH1 0x4 PUSH2 0x54AC JUMP JUMPDEST PUSH2 0x27AA JUMP JUMPDEST PUSH2 0x24F PUSH2 0x3AA CALLDATASIZE PUSH1 0x4 PUSH2 0x5550 JUMP JUMPDEST PUSH2 0x2A08 JUMP JUMPDEST PUSH2 0x20C PUSH2 0x3BD CALLDATASIZE PUSH1 0x4 PUSH2 0x557C JUMP JUMPDEST PUSH2 0x3210 JUMP JUMPDEST PUSH2 0x3D5 PUSH2 0x3D0 CALLDATASIZE PUSH1 0x4 PUSH2 0x4D4A JUMP JUMPDEST PUSH2 0x323E JUMP JUMPDEST PUSH1 0x40 MLOAD PUSH2 0x1F0 SWAP2 SWAP1 PUSH2 0x55AF JUMP JUMPDEST PUSH2 0x24F PUSH2 0x3F0 CALLDATASIZE PUSH1 0x4 PUSH2 0x5649 JUMP JUMPDEST PUSH2 0x3494 JUMP JUMPDEST PUSH2 0x24F PUSH2 0x403 CALLDATASIZE PUSH1 0x4 PUSH2 0x56AE JUMP JUMPDEST PUSH2 0x34F3 JUMP JUMPDEST PUSH2 0x410 PUSH2 0x36CE JUMP JUMPDEST PUSH1 0x40 MLOAD PUSH2 0x1F0 SWAP2 SWAP1 PUSH2 0x56E0 JUMP JUMPDEST PUSH2 0x24F PUSH2 0x42B CALLDATASIZE PUSH1 0x4 PUSH2 0x57A9 JUMP JUMPDEST PUSH2 0x3902 JUMP JUMPDEST PUSH2 0x24F PUSH2 0x43E CALLDATASIZE PUSH1 0x4 PUSH2 0x4D4A JUMP JUMPDEST PUSH2 0x3B65 JUMP JUMPDEST PUSH1 0x0 DUP2 DUP2 MSTORE PUSH1 0x20 DUP2 DUP2 MSTORE PUSH1 0x40 DUP1 DUP4 KECCAK256 PUSH1 0x1 PUSH1 0x1 PUSH1 0xA0 SHL SUB DUP7 AND DUP5 MSTORE SWAP1 SWAP2 MSTORE SWAP1 KECCAK256 SLOAD JUMPDEST SWAP3 SWAP2 POP POP JUMP JUMPDEST PUSH1 0x0 PUSH1 0x1 PUSH1 0x1 PUSH1 0xE0 SHL SUB NOT DUP3 AND PUSH4 0x6CDB3D13 PUSH1 0xE1 SHL EQ DUP1 PUSH2 0x49C JUMPI POP PUSH1 0x1 PUSH1 0x1 PUSH1 0xE0 SHL SUB NOT DUP3 AND PUSH4 0x3A24D07 PUSH1 0xE2 SHL EQ JUMPDEST DUP1 PUSH2 0x465 JUMPI POP PUSH4 0x1FFC9A7 PUSH1 0xE0 SHL PUSH1 0x1 PUSH1 0x1 PUSH1 0xE0 SHL SUB NOT DUP4 AND EQ PUSH2 0x465 JUMP JUMPDEST PUSH1 0x60 PUSH1 0x2 DUP1 SLOAD PUSH2 0x4CA SWAP1 PUSH2 0x57E4 JUMP JUMPDEST DUP1 PUSH1 0x1F ADD PUSH1 0x20 DUP1 SWAP2 DIV MUL PUSH1 0x20 ADD PUSH1 0x40 MLOAD SWAP1 DUP2 ADD PUSH1 0x40 MSTORE DUP1 SWAP3 SWAP2 SWAP1 DUP2 DUP2 MSTORE PUSH1 0x20 ADD DUP3 DUP1 SLOAD PUSH2 0x4F6 SWAP1 PUSH2 0x57E4 JUMP JUMPDEST DUP1 ISZERO PUSH2 0x543 JUMPI DUP1 PUSH1 0x1F LT PUSH2 0x518 JUMPI PUSH2 0x100 DUP1 DUP4 SLOAD DIV MUL DUP4 MSTORE SWAP2 PUSH1 0x20 ADD SWAP2 PUSH2 0x543 JUMP JUMPDEST DUP3 ADD SWAP2 SWAP1 PUSH1 0x0 MSTORE PUSH1 0x20 PUSH1 0x0 KECCAK256 SWAP1 JUMPDEST DUP2 SLOAD DUP2 MSTORE SWAP1 PUSH1 0x1 ADD SWAP1 PUSH1 0x20 ADD DUP1 DUP4 GT PUSH2 0x526 JUMPI DUP3 SWAP1 SUB PUSH1 0x1F AND DUP3 ADD SWAP2 JUMPDEST POP POP POP POP POP SWAP1 POP SWAP2 SWAP1 POP JUMP JUMPDEST CALLER PUSH1 0x0 SWAP1 DUP2 MSTORE PUSH1 0xC PUSH1 0x20 MSTORE PUSH1 0x40 SWAP1 DUP2 SWAP1 KECCAK256 SWAP1 MLOAD PUSH1 0x6 SWAP2 PUSH2 0x56E SWAP2 PUSH2 0x581E JUMP JUMPDEST SWAP1 DUP2 MSTORE PUSH1 0x40 MLOAD PUSH1 0x20 SWAP2 DUP2 SWAP1 SUB DUP3 ADD SWAP1 KECCAK256 PUSH1 0x3 ADD DUP1 SLOAD PUSH1 0x1 DUP2 ADD DUP3 SSTORE PUSH1 0x0 SWAP2 DUP3 MSTORE SWAP2 SWAP1 KECCAK256 ADD DUP1 SLOAD PUSH1 0x1 PUSH1 0x1 PUSH1 0xA0 SHL SUB NOT AND PUSH1 0x1 PUSH1 0x1 PUSH1 0xA0 SHL SUB SWAP3 SWAP1 SWAP3 AND SWAP2 SWAP1 SWAP2 OR SWAP1 SSTORE JUMP JUMPDEST PUSH1 0x4 SLOAD PUSH1 0x1 PUSH1 0x1 PUSH1 0xA0 SHL SUB AND CALLER EQ PUSH2 0x5E5 JUMPI PUSH1 0x40 MLOAD PUSH3 0x461BCD PUSH1 0xE5 SHL DUP2 MSTORE PUSH1 0x4 ADD PUSH2 0x5DC SWAP1 PUSH2 0x5894 JUMP JUMPDEST PUSH1 0x40 MLOAD DUP1 SWAP2 SUB SWAP1 REVERT JUMPDEST PUSH1 0x4 SLOAD PUSH1 0x11 DUP1 SLOAD PUSH2 0x773 SWAP3 PUSH1 0x1 PUSH1 0x1 PUSH1 0xA0 SHL SUB AND SWAP2 SWAP1 DUP5 SWAP1 DUP2 LT PUSH2 0x60B JUMPI PUSH2 0x60B PUSH2 0x5902 JUMP JUMPDEST SWAP1 PUSH1 0x0 MSTORE PUSH1 0x20 PUSH1 0x0 KECCAK256 SWAP1 PUSH1 0x7 MUL ADD PUSH1 0x5 ADD PUSH1 0x0 SWAP1 SLOAD SWAP1 PUSH2 0x100 EXP SWAP1 DIV PUSH1 0x1 PUSH1 0x1 PUSH1 0xA0 SHL SUB AND PUSH1 0x10 PUSH1 0x11 DUP6 DUP2 SLOAD DUP2 LT PUSH2 0x645 JUMPI PUSH2 0x645 PUSH2 0x5902 JUMP JUMPDEST SWAP1 PUSH1 0x0 MSTORE PUSH1 0x20 PUSH1 0x0 KECCAK256 SWAP1 PUSH1 0x7 MUL ADD PUSH1 0x1 ADD SLOAD DUP2 SLOAD DUP2 LT PUSH2 0x667 JUMPI PUSH2 0x667 PUSH2 0x5902 JUMP JUMPDEST SWAP1 PUSH1 0x0 MSTORE PUSH1 0x20 PUSH1 0x0 KECCAK256 SWAP1 PUSH1 0x5 MUL ADD PUSH1 0x3 ADD DUP1 SLOAD DUP1 PUSH1 0x20 MUL PUSH1 0x20 ADD PUSH1 0x40 MLOAD SWAP1 DUP2 ADD PUSH1 0x40 MSTORE DUP1 SWAP3 SWAP2 SWAP1 DUP2 DUP2 MSTORE PUSH1 0x20 ADD DUP3 DUP1 SLOAD DUP1 ISZERO PUSH2 0x6C2 JUMPI PUSH1 0x20 MUL DUP3 ADD SWAP2 SWAP1 PUSH1 0x0 MSTORE PUSH1 0x20 PUSH1 0x0 KECCAK256 SWAP1 JUMPDEST DUP2 SLOAD DUP2 MSTORE PUSH1 0x20 ADD SWAP1 PUSH1 0x1 ADD SWAP1 DUP1 DUP4 GT PUSH2 0x6AE JUMPI JUMPDEST POP POP POP POP POP PUSH1 0x10 PUSH1 0x11 DUP7 DUP2 SLOAD DUP2 LT PUSH2 0x6DC JUMPI PUSH2 0x6DC PUSH2 0x5902 JUMP JUMPDEST SWAP1 PUSH1 0x0 MSTORE PUSH1 0x20 PUSH1 0x0 KECCAK256 SWAP1 PUSH1 0x7 MUL ADD PUSH1 0x1 ADD SLOAD DUP2 SLOAD DUP2 LT PUSH2 0x6FE JUMPI PUSH2 0x6FE PUSH2 0x5902 JUMP JUMPDEST SWAP1 PUSH1 0x0 MSTORE PUSH1 0x20 PUSH1 0x0 KECCAK256 SWAP1 PUSH1 0x5 MUL ADD PUSH1 0x4 ADD DUP1 SLOAD DUP1 PUSH1 0x20 MUL PUSH1 0x20 ADD PUSH1 0x40 MLOAD SWAP1 DUP2 ADD PUSH1 0x40 MSTORE DUP1 SWAP3 SWAP2 SWAP1 DUP2 DUP2 MSTORE PUSH1 0x20 ADD DUP3 DUP1 SLOAD DUP1 ISZERO PUSH2 0x759 JUMPI PUSH1 0x20 MUL DUP3 ADD SWAP2 SWAP1 PUSH1 0x0 MSTORE PUSH1 0x20 PUSH1 0x0 KECCAK256 SWAP1 JUMPDEST DUP2 SLOAD DUP2 MSTORE PUSH1 0x20 ADD SWAP1 PUSH1 0x1 ADD SWAP1 DUP1 DUP4 GT PUSH2 0x745 JUMPI JUMPDEST POP POP POP POP POP PUSH1 0x40 MLOAD DUP1 PUSH1 0x20 ADD PUSH1 0x40 MSTORE DUP1 PUSH1 0x0 DUP2 MSTORE POP PUSH2 0x450E JUMP JUMPDEST PUSH1 0x0 JUMPDEST PUSH1 0x10 PUSH1 0x11 DUP4 DUP2 SLOAD DUP2 LT PUSH2 0x78B JUMPI PUSH2 0x78B PUSH2 0x5902 JUMP JUMPDEST SWAP1 PUSH1 0x0 MSTORE PUSH1 0x20 PUSH1 0x0 KECCAK256 SWAP1 PUSH1 0x7 MUL ADD PUSH1 0x1 ADD SLOAD DUP2 SLOAD DUP2 LT PUSH2 0x7AD JUMPI PUSH2 0x7AD PUSH2 0x5902 JUMP JUMPDEST SWAP1 PUSH1 0x0 MSTORE PUSH1 0x20 PUSH1 0x0 KECCAK256 SWAP1 PUSH1 0x5 MUL ADD PUSH1 0x3 ADD DUP1 SLOAD SWAP1 POP DUP2 LT ISZERO PUSH2 0xE68 JUMPI PUSH1 0x9 PUSH1 0x0 PUSH1 0x11 DUP5 DUP2 SLOAD DUP2 LT PUSH2 0x7E0 JUMPI PUSH2 0x7E0 PUSH2 0x5902 JUMP JUMPDEST SWAP1 PUSH1 0x0 MSTORE PUSH1 0x20 PUSH1 0x0 KECCAK256 SWAP1 PUSH1 0x7 MUL ADD PUSH1 0x5 ADD PUSH1 0x0 SWAP1 SLOAD SWAP1 PUSH2 0x100 EXP SWAP1 DIV PUSH1 0x1 PUSH1 0x1 PUSH1 0xA0 SHL SUB AND PUSH1 0x1 PUSH1 0x1 PUSH1 0xA0 SHL SUB AND PUSH1 0x1 PUSH1 0x1 PUSH1 0xA0 SHL SUB AND DUP2 MSTORE PUSH1 0x20 ADD SWAP1 DUP2 MSTORE PUSH1 0x20 ADD PUSH1 0x0 KECCAK256 PUSH1 0x40 MLOAD DUP1 PUSH2 0x100 ADD PUSH1 0x40 MSTORE DUP1 PUSH1 0x10 PUSH1 0x11 DUP7 DUP2 SLOAD DUP2 LT PUSH2 0x846 JUMPI PUSH2 0x846 PUSH2 0x5902 JUMP JUMPDEST SWAP1 PUSH1 0x0 MSTORE PUSH1 0x20 PUSH1 0x0 KECCAK256 SWAP1 PUSH1 0x7 MUL ADD PUSH1 0x1 ADD SLOAD DUP2 SLOAD DUP2 LT PUSH2 0x868 JUMPI PUSH2 0x868 PUSH2 0x5902 JUMP JUMPDEST SWAP1 PUSH1 0x0 MSTORE PUSH1 0x20 PUSH1 0x0 KECCAK256 SWAP1 PUSH1 0x5 MUL ADD PUSH1 0x3 ADD DUP5 DUP2 SLOAD DUP2 LT PUSH2 0x88A JUMPI PUSH2 0x88A PUSH2 0x5902 JUMP JUMPDEST SWAP1 PUSH1 0x0 MSTORE PUSH1 0x20 PUSH1 0x0 KECCAK256 ADD SLOAD DUP2 MSTORE PUSH1 0x20 ADD PUSH1 0x9 PUSH1 0x0 PUSH1 0x11 DUP8 DUP2 SLOAD DUP2 LT PUSH2 0x8B1 JUMPI PUSH2 0x8B1 PUSH2 0x5902 JUMP JUMPDEST SWAP1 PUSH1 0x0 MSTORE PUSH1 0x20 PUSH1 0x0 KECCAK256 SWAP1 PUSH1 0x7 MUL ADD PUSH1 0x5 ADD PUSH1 0x0 SWAP1 SLOAD SWAP1 PUSH2 0x100 EXP SWAP1 DIV PUSH1 0x1 PUSH1 0x1 PUSH1 0xA0 SHL SUB AND PUSH1 0x1 PUSH1 0x1 PUSH1 0xA0 SHL SUB AND PUSH1 0x1 PUSH1 0x1 PUSH1 0xA0 SHL SUB AND DUP2 MSTORE PUSH1 0x20 ADD SWAP1 DUP2 MSTORE PUSH1 0x20 ADD PUSH1 0x0 KECCAK256 DUP1 SLOAD SWAP1 POP DUP2 MSTORE PUSH1 0x20 ADD PUSH1 0x8 PUSH1 0x0 PUSH1 0xA PUSH1 0x0 PUSH1 0x11 DUP10 DUP2 SLOAD DUP2 LT PUSH2 0x91A JUMPI PUSH2 0x91A PUSH2 0x5902 JUMP JUMPDEST SWAP1 PUSH1 0x0 MSTORE PUSH1 0x20 PUSH1 0x0 KECCAK256 SWAP1 PUSH1 0x7 MUL ADD PUSH1 0x1 ADD SLOAD DUP2 MSTORE PUSH1 0x20 ADD SWAP1 DUP2 MSTORE PUSH1 0x20 ADD PUSH1 0x0 KECCAK256 PUSH1 0x3 ADD DUP7 DUP2 SLOAD DUP2 LT PUSH2 0x94E JUMPI PUSH2 0x94E PUSH2 0x5902 JUMP JUMPDEST SWAP1 PUSH1 0x0 MSTORE PUSH1 0x20 PUSH1 0x0 KECCAK256 ADD SLOAD DUP2 MSTORE PUSH1 0x20 ADD SWAP1 DUP2 MSTORE PUSH1 0x20 ADD PUSH1 0x0 KECCAK256 PUSH1 0x2 ADD DUP1 SLOAD PUSH2 0x975 SWAP1 PUSH2 0x57E4 JUMP JUMPDEST DUP1 PUSH1 0x1F ADD PUSH1 0x20 DUP1 SWAP2 DIV MUL PUSH1 0x20 ADD PUSH1 0x40 MLOAD SWAP1 DUP2 ADD PUSH1 0x40 MSTORE DUP1 SWAP3 SWAP2 SWAP1 DUP2 DUP2 MSTORE PUSH1 0x20 ADD DUP3 DUP1 SLOAD PUSH2 0x9A1 SWAP1 PUSH2 0x57E4 JUMP JUMPDEST DUP1 ISZERO PUSH2 0x9EE JUMPI DUP1 PUSH1 0x1F LT PUSH2 0x9C3 JUMPI PUSH2 0x100 DUP1 DUP4 SLOAD DIV MUL DUP4 MSTORE SWAP2 PUSH1 0x20 ADD SWAP2 PUSH2 0x9EE JUMP JUMPDEST DUP3 ADD SWAP2 SWAP1 PUSH1 0x0 MSTORE PUSH1 0x20 PUSH1 0x0 KECCAK256 SWAP1 JUMPDEST DUP2 SLOAD DUP2 MSTORE SWAP1 PUSH1 0x1 ADD SWAP1 PUSH1 0x20 ADD DUP1 DUP4 GT PUSH2 0x9D1 JUMPI DUP3 SWAP1 SUB PUSH1 0x1F AND DUP3 ADD SWAP2 JUMPDEST POP POP POP POP POP DUP2 MSTORE PUSH1 0x20 ADD PUSH1 0x8 PUSH1 0x0 PUSH1 0xA PUSH1 0x0 PUSH1 0x11 DUP10 DUP2 SLOAD DUP2 LT PUSH2 0xA13 JUMPI PUSH2 0xA13 PUSH2 0x5902 JUMP JUMPDEST SWAP1 PUSH1 0x0 MSTORE PUSH1 0x20 PUSH1 0x0 KECCAK256 SWAP1 PUSH1 0x7 MUL ADD PUSH1 0x1 ADD SLOAD DUP2 MSTORE PUSH1 0x20 ADD SWAP1 DUP2 MSTORE PUSH1 0x20 ADD PUSH1 0x0 KECCAK256 PUSH1 0x3 ADD DUP7 DUP2 SLOAD DUP2 LT PUSH2 0xA47 JUMPI PUSH2 0xA47 PUSH2 0x5902 JUMP JUMPDEST SWAP1 PUSH1 0x0 MSTORE PUSH1 0x20 PUSH1 0x0 KECCAK256 ADD SLOAD DUP2 MSTORE PUSH1 0x20 ADD SWAP1 DUP2 MSTORE PUSH1 0x20 ADD PUSH1 0x0 KECCAK256 PUSH1 0x3 ADD DUP1 SLOAD PUSH2 0xA6E SWAP1 PUSH2 0x57E4 JUMP JUMPDEST DUP1 PUSH1 0x1F ADD PUSH1 0x20 DUP1 SWAP2 DIV MUL PUSH1 0x20 ADD PUSH1 0x40 MLOAD SWAP1 DUP2 ADD PUSH1 0x40 MSTORE DUP1 SWAP3 SWAP2 SWAP1 DUP2 DUP2 MSTORE PUSH1 0x20 ADD DUP3 DUP1 SLOAD PUSH2 0xA9A SWAP1 PUSH2 0x57E4 JUMP JUMPDEST DUP1 ISZERO PUSH2 0xAE7 JUMPI DUP1 PUSH1 0x1F LT PUSH2 0xABC JUMPI PUSH2 0x100 DUP1 DUP4 SLOAD DIV MUL DUP4 MSTORE SWAP2 PUSH1 0x20 ADD SWAP2 PUSH2 0xAE7 JUMP JUMPDEST DUP3 ADD SWAP2 SWAP1 PUSH1 0x0 MSTORE PUSH1 0x20 PUSH1 0x0 KECCAK256 SWAP1 JUMPDEST DUP2 SLOAD DUP2 MSTORE SWAP1 PUSH1 0x1 ADD SWAP1 PUSH1 0x20 ADD DUP1 DUP4 GT PUSH2 0xACA JUMPI DUP3 SWAP1 SUB PUSH1 0x1F AND DUP3 ADD SWAP2 JUMPDEST POP POP POP POP POP DUP2 MSTORE PUSH1 0x20 ADD PUSH1 0x8 PUSH1 0x0 PUSH1 0xA PUSH1 0x0 PUSH1 0x11 DUP10 DUP2 SLOAD DUP2 LT PUSH2 0xB0C JUMPI PUSH2 0xB0C PUSH2 0x5902 JUMP JUMPDEST SWAP1 PUSH1 0x0 MSTORE PUSH1 0x20 PUSH1 0x0 KECCAK256 SWAP1 PUSH1 0x7 MUL ADD PUSH1 0x1 ADD SLOAD DUP2 MSTORE PUSH1 0x20 ADD SWAP1 DUP2 MSTORE PUSH1 0x20 ADD PUSH1 0x0 KECCAK256 PUSH1 0x3 ADD DUP7 DUP2 SLOAD DUP2 LT PUSH2 0xB40 JUMPI PUSH2 0xB40 PUSH2 0x5902 JUMP JUMPDEST SWAP1 PUSH1 0x0 MSTORE PUSH1 0x20 PUSH1 0x0 KECCAK256 ADD SLOAD DUP2 MSTORE PUSH1 0x20 ADD SWAP1 DUP2 MSTORE PUSH1 0x20 ADD PUSH1 0x0 KECCAK256 PUSH1 0x4 ADD DUP1 SLOAD PUSH2 0xB67 SWAP1 PUSH2 0x57E4 JUMP JUMPDEST DUP1 PUSH1 0x1F ADD PUSH1 0x20 DUP1 SWAP2 DIV MUL PUSH1 0x20 ADD PUSH1 0x40 MLOAD SWAP1 DUP2 ADD PUSH1 0x40 MSTORE DUP1 SWAP3 SWAP2 SWAP1 DUP2 DUP2 MSTORE PUSH1 0x20 ADD DUP3 DUP1 SLOAD PUSH2 0xB93 SWAP1 PUSH2 0x57E4 JUMP JUMPDEST DUP1 ISZERO PUSH2 0xBE0 JUMPI DUP1 PUSH1 0x1F LT PUSH2 0xBB5 JUMPI PUSH2 0x100 DUP1 DUP4 SLOAD DIV MUL DUP4 MSTORE SWAP2 PUSH1 0x20 ADD SWAP2 PUSH2 0xBE0 JUMP JUMPDEST DUP3 ADD SWAP2 SWAP1 PUSH1 0x0 MSTORE PUSH1 0x20 PUSH1 0x0 KECCAK256 SWAP1 JUMPDEST DUP2 SLOAD DUP2 MSTORE SWAP1 PUSH1 0x1 ADD SWAP1 PUSH1 0x20 ADD DUP1 DUP4 GT PUSH2 0xBC3 JUMPI DUP3 SWAP1 SUB PUSH1 0x1F AND DUP3 ADD SWAP2 JUMPDEST POP POP POP POP POP DUP2 MSTORE PUSH1 0x20 ADD PUSH1 0x8 PUSH1 0x0 PUSH1 0xA PUSH1 0x0 PUSH1 0x11 DUP10 DUP2 SLOAD DUP2 LT PUSH2 0xC05 JUMPI PUSH2 0xC05 PUSH2 0x5902 JUMP JUMPDEST SWAP1 PUSH1 0x0 MSTORE PUSH1 0x20 PUSH1 0x0 KECCAK256 SWAP1 PUSH1 0x7 MUL ADD PUSH1 0x1 ADD SLOAD DUP2 MSTORE PUSH1 0x20 ADD SWAP1 DUP2 MSTORE PUSH1 0x20 ADD PUSH1 0x0 KECCAK256 PUSH1 0x3 ADD DUP7 DUP2 SLOAD DUP2 LT PUSH2 0xC39 JUMPI PUSH2 0xC39 PUSH2 0x5902 JUMP JUMPDEST SWAP1 PUSH1 0x0 MSTORE PUSH1 0x20 PUSH1 0x0 KECCAK256 ADD SLOAD DUP2 MSTORE PUSH1 0x20 ADD SWAP1 DUP2 MSTORE PUSH1 0x20 ADD PUSH1 0x0 KECCAK256 PUSH1 0x6 ADD SLOAD DUP2 MSTORE PUSH1 0x20 ADD PUSH1 0x3 SLOAD PUSH1 0x1 PUSH2 0xC6A SWAP2 SWAP1 PUSH2 0x592E JUMP JUMPDEST DUP2 MSTORE PUSH1 0x20 ADD PUSH1 0x8 PUSH1 0x0 PUSH1 0xA PUSH1 0x0 PUSH1 0x11 DUP10 DUP2 SLOAD DUP2 LT PUSH2 0xC8A JUMPI PUSH2 0xC8A PUSH2 0x5902 JUMP JUMPDEST SWAP1 PUSH1 0x0 MSTORE PUSH1 0x20 PUSH1 0x0 KECCAK256 SWAP1 PUSH1 0x7 MUL ADD PUSH1 0x1 ADD SLOAD DUP2 MSTORE PUSH1 0x20 ADD SWAP1 DUP2 MSTORE PUSH1 0x20 ADD PUSH1 0x0 KECCAK256 PUSH1 0x3 ADD DUP7 DUP2 SLOAD DUP2 LT PUSH2 0xCBE JUMPI PUSH2 0xCBE PUSH2 0x5902 JUMP JUMPDEST PUSH1 0x0 SWAP2 DUP3 MSTORE PUSH1 0x20 DUP1 DUP4 KECCAK256 SWAP1 SWAP2 ADD SLOAD DUP4 MSTORE DUP3 DUP2 ADD SWAP4 SWAP1 SWAP4 MSTORE PUSH1 0x40 SWAP2 DUP3 ADD DUP2 KECCAK256 PUSH1 0x7 ADD SLOAD SWAP1 SWAP4 MSTORE DUP5 SLOAD PUSH1 0x1 DUP2 DUP2 ADD DUP8 SSTORE SWAP6 DUP5 MSTORE SWAP3 DUP3 SWAP1 KECCAK256 DUP5 MLOAD PUSH1 0x8 SWAP1 SWAP5 MUL ADD SWAP3 DUP4 SSTORE SWAP1 DUP4 ADD MLOAD SWAP4 DUP3 ADD SWAP4 SWAP1 SWAP4 SSTORE SWAP2 DUP2 ADD MLOAD SWAP1 SWAP2 SWAP1 PUSH1 0x2 DUP3 ADD SWAP1 PUSH2 0xD1F SWAP1 DUP3 PUSH2 0x598D JUMP JUMPDEST POP PUSH1 0x60 DUP3 ADD MLOAD PUSH1 0x3 DUP3 ADD SWAP1 PUSH2 0xD34 SWAP1 DUP3 PUSH2 0x598D JUMP JUMPDEST POP PUSH1 0x80 DUP3 ADD MLOAD PUSH1 0x4 DUP3 ADD SWAP1 PUSH2 0xD49 SWAP1 DUP3 PUSH2 0x598D JUMP JUMPDEST POP PUSH1 0xA0 DUP3 ADD MLOAD PUSH1 0x5 DUP3 ADD SSTORE PUSH1 0xC0 DUP3 ADD MLOAD PUSH1 0x6 DUP3 ADD SSTORE PUSH1 0xE0 SWAP1 SWAP2 ADD MLOAD PUSH1 0x7 SWAP1 SWAP2 ADD SSTORE PUSH1 0x4 SLOAD PUSH1 0x1 PUSH1 0x1 PUSH1 0xA0 SHL SUB AND PUSH1 0x0 SWAP1 DUP2 MSTORE PUSH1 0x9 PUSH1 0x20 MSTORE PUSH1 0x40 DUP2 KECCAK256 PUSH1 0x11 DUP1 SLOAD SWAP2 SWAP3 PUSH1 0x8 SWAP3 SWAP1 SWAP2 PUSH1 0xA SWAP2 DUP4 SWAP2 SWAP1 DUP9 SWAP1 DUP2 LT PUSH2 0xDA5 JUMPI PUSH2 0xDA5 PUSH2 0x5902 JUMP JUMPDEST SWAP1 PUSH1 0x0 MSTORE PUSH1 0x20 PUSH1 0x0 KECCAK256 SWAP1 PUSH1 0x7 MUL ADD PUSH1 0x1 ADD SLOAD DUP2 MSTORE PUSH1 0x20 ADD SWAP1 DUP2 MSTORE PUSH1 0x20 ADD PUSH1 0x0 KECCAK256 PUSH1 0x3 ADD DUP5 DUP2 SLOAD DUP2 LT PUSH2 0xDD9 JUMPI PUSH2 0xDD9 PUSH2 0x5902 JUMP JUMPDEST SWAP1 PUSH1 0x0 MSTORE PUSH1 0x20 PUSH1 0x0 KECCAK256 ADD SLOAD DUP2 MSTORE PUSH1 0x20 ADD SWAP1 DUP2 MSTORE PUSH1 0x20 ADD PUSH1 0x0 KECCAK256 PUSH1 0x1 ADD SLOAD DUP2 SLOAD DUP2 LT PUSH2 0xE06 JUMPI PUSH2 0xE06 PUSH2 0x5902 JUMP JUMPDEST PUSH1 0x0 SWAP2 DUP3 MSTORE PUSH1 0x20 DUP3 KECCAK256 PUSH1 0x8 SWAP1 SWAP2 MUL ADD DUP2 DUP2 SSTORE PUSH1 0x1 DUP2 ADD DUP3 SWAP1 SSTORE SWAP1 PUSH2 0xE2D PUSH1 0x2 DUP4 ADD DUP3 PUSH2 0x4B5F JUMP JUMPDEST PUSH2 0xE3B PUSH1 0x3 DUP4 ADD PUSH1 0x0 PUSH2 0x4B5F JUMP JUMPDEST PUSH2 0xE49 PUSH1 0x4 DUP4 ADD PUSH1 0x0 PUSH2 0x4B5F JUMP JUMPDEST POP PUSH1 0x0 PUSH1 0x5 DUP3 ADD DUP2 SWAP1 SSTORE PUSH1 0x6 DUP3 ADD DUP2 SWAP1 SSTORE PUSH1 0x7 SWAP1 SWAP2 ADD SSTORE PUSH1 0x1 ADD PUSH2 0x776 JUMP JUMPDEST POP PUSH1 0x0 PUSH1 0x11 DUP3 DUP2 SLOAD DUP2 LT PUSH2 0xE7E JUMPI PUSH2 0xE7E PUSH2 0x5902 JUMP JUMPDEST SWAP1 PUSH1 0x0 MSTORE PUSH1 0x20 PUSH1 0x0 KECCAK256 SWAP1 PUSH1 0x7 MUL ADD PUSH1 0x5 ADD PUSH1 0x0 PUSH2 0x100 EXP DUP2 SLOAD DUP2 PUSH1 0x1 PUSH1 0x1 PUSH1 0xA0 SHL SUB MUL NOT AND SWAP1 DUP4 PUSH1 0x1 PUSH1 0x1 PUSH1 0xA0 SHL SUB AND MUL OR SWAP1 SSTORE POP POP JUMP JUMPDEST PUSH1 0x60 PUSH1 0xD DUP1 SLOAD DUP1 PUSH1 0x20 MUL PUSH1 0x20 ADD PUSH1 0x40 MLOAD SWAP1 DUP2 ADD PUSH1 0x40 MSTORE DUP1 SWAP3 SWAP2 SWAP1 DUP2 DUP2 MSTORE PUSH1 0x20 ADD PUSH1 0x0 SWAP1 JUMPDEST DUP3 DUP3 LT ISZERO PUSH2 0xF4B JUMPI PUSH1 0x0 DUP5 DUP2 MSTORE PUSH1 0x20 SWAP1 DUP2 SWAP1 KECCAK256 PUSH1 0x40 DUP1 MLOAD PUSH1 0xC0 DUP2 ADD DUP3 MSTORE PUSH1 0x6 DUP7 MUL SWAP1 SWAP3 ADD DUP1 SLOAD DUP4 MSTORE PUSH1 0x1 DUP1 DUP3 ADD SLOAD DUP5 DUP7 ADD MSTORE PUSH1 0x2 DUP3 ADD SLOAD SWAP3 DUP5 ADD SWAP3 SWAP1 SWAP3 MSTORE PUSH1 0x3 DUP2 ADD SLOAD PUSH1 0x1 PUSH1 0x1 PUSH1 0xA0 SHL SUB AND PUSH1 0x60 DUP5 ADD MSTORE PUSH1 0x4 DUP2 ADD SLOAD PUSH1 0x80 DUP5 ADD MSTORE PUSH1 0x5 ADD SLOAD PUSH1 0xA0 DUP4 ADD MSTORE SWAP1 DUP4 MSTORE SWAP1 SWAP3 ADD SWAP2 ADD PUSH2 0xEDA JUMP JUMPDEST POP POP POP POP SWAP1 POP SWAP1 JUMP JUMPDEST PUSH1 0x11 DUP3 DUP2 SLOAD DUP2 LT PUSH2 0xF67 JUMPI PUSH2 0xF67 PUSH2 0x5902 JUMP JUMPDEST SWAP1 PUSH1 0x0 MSTORE PUSH1 0x20 PUSH1 0x0 KECCAK256 SWAP1 PUSH1 0x7 MUL ADD PUSH1 0x4 ADD SLOAD DUP1 PUSH1 0x0 SUB PUSH2 0xF99 JUMPI PUSH1 0x40 MLOAD PUSH3 0x461BCD PUSH1 0xE5 SHL DUP2 MSTORE PUSH1 0x4 ADD PUSH2 0x5DC SWAP1 PUSH2 0x5A4D JUMP JUMPDEST PUSH1 0xA DUP3 LT ISZERO PUSH2 0x1001 JUMPI PUSH1 0x40 MLOAD PUSH3 0x461BCD PUSH1 0xE5 SHL DUP2 MSTORE PUSH1 0x20 PUSH1 0x4 DUP3 ADD MSTORE PUSH1 0x2E PUSH1 0x24 DUP3 ADD MSTORE PUSH32 0xD09CD0B8D0BDD0B8D0BCD0B0D0BBD18CD0BDD0B0D18F20D181D182D0B0D0B2D0 PUSH1 0x44 DUP3 ADD MSTORE PUSH14 0xBAD0B0202D2031302050524F4649 PUSH1 0x90 SHL PUSH1 0x64 DUP3 ADD MSTORE PUSH1 0x84 ADD PUSH2 0x5DC JUMP JUMPDEST CALLER PUSH1 0x1 PUSH1 0x1 PUSH1 0xA0 SHL SUB AND PUSH1 0x11 DUP5 DUP2 SLOAD DUP2 LT PUSH2 0x101E JUMPI PUSH2 0x101E PUSH2 0x5902 JUMP JUMPDEST PUSH1 0x0 SWAP2 DUP3 MSTORE PUSH1 0x20 SWAP1 SWAP2 KECCAK256 PUSH1 0x5 PUSH1 0x7 SWAP1 SWAP3 MUL ADD ADD SLOAD PUSH1 0x1 PUSH1 0x1 PUSH1 0xA0 SHL SUB AND SUB PUSH2 0x1081 JUMPI PUSH1 0x40 MLOAD PUSH3 0x461BCD PUSH1 0xE5 SHL DUP2 MSTORE PUSH1 0x20 PUSH1 0x4 DUP3 ADD MSTORE PUSH1 0x16 PUSH1 0x24 DUP3 ADD MSTORE PUSH22 0x1A125A31641A307A16DA16A41A177A171A169A16BA3 PUSH1 0x57 SHL PUSH1 0x44 DUP3 ADD MSTORE PUSH1 0x64 ADD PUSH2 0x5DC JUMP JUMPDEST PUSH1 0x0 JUMPDEST PUSH1 0x0 DUP5 DUP2 MSTORE PUSH1 0xB PUSH1 0x20 MSTORE PUSH1 0x40 SWAP1 KECCAK256 SLOAD DUP2 LT ISZERO PUSH2 0x1343 JUMPI PUSH1 0x0 DUP5 DUP2 MSTORE PUSH1 0xB PUSH1 0x20 MSTORE PUSH1 0x40 SWAP1 KECCAK256 DUP1 SLOAD CALLER SWAP2 SWAP1 DUP4 SWAP1 DUP2 LT PUSH2 0x10BD JUMPI PUSH2 0x10BD PUSH2 0x5902 JUMP JUMPDEST PUSH1 0x0 SWAP2 DUP3 MSTORE PUSH1 0x20 SWAP1 SWAP2 KECCAK256 PUSH1 0x1 PUSH1 0x2 SWAP1 SWAP3 MUL ADD ADD SLOAD PUSH1 0x1 PUSH1 0x1 PUSH1 0xA0 SHL SUB AND SUB PUSH2 0x133B JUMPI PUSH1 0x3 SLOAD PUSH2 0x10EC SWAP1 DUP5 PUSH2 0x592E JUMP JUMPDEST PUSH1 0x0 DUP6 DUP2 MSTORE PUSH1 0xB PUSH1 0x20 MSTORE PUSH1 0x40 SWAP1 KECCAK256 DUP1 SLOAD DUP4 SWAP1 DUP2 LT PUSH2 0x110C JUMPI PUSH2 0x110C PUSH2 0x5902 JUMP JUMPDEST SWAP1 PUSH1 0x0 MSTORE PUSH1 0x20 PUSH1 0x0 KECCAK256 SWAP1 PUSH1 0x2 MUL ADD PUSH1 0x0 ADD PUSH1 0x0 DUP3 DUP3 SLOAD PUSH2 0x112C SWAP2 SWAP1 PUSH2 0x5A84 JUMP JUMPDEST SWAP1 SWAP2 SSTORE POP POP PUSH1 0x5 SLOAD PUSH1 0x4 DUP1 SLOAD PUSH1 0x40 MLOAD PUSH4 0x7AA9BF6F PUSH1 0xE1 SHL DUP2 MSTORE CALLER SWAP3 DUP2 ADD SWAP3 SWAP1 SWAP3 MSTORE PUSH1 0x1 PUSH1 0x1 PUSH1 0xA0 SHL SUB SWAP1 DUP2 AND PUSH1 0x24 DUP4 ADD MSTORE PUSH1 0x44 DUP3 ADD DUP7 SWAP1 MSTORE SWAP1 SWAP2 AND SWAP1 PUSH4 0xF5537EDE SWAP1 PUSH1 0x64 ADD PUSH1 0x0 PUSH1 0x40 MLOAD DUP1 DUP4 SUB DUP2 PUSH1 0x0 DUP8 DUP1 EXTCODESIZE ISZERO DUP1 ISZERO PUSH2 0x118B JUMPI PUSH1 0x0 DUP1 REVERT JUMPDEST POP GAS CALL ISZERO DUP1 ISZERO PUSH2 0x119F JUMPI RETURNDATASIZE PUSH1 0x0 DUP1 RETURNDATACOPY RETURNDATASIZE PUSH1 0x0 REVERT JUMPDEST POP POP POP POP PUSH1 0x11 DUP5 DUP2 SLOAD DUP2 LT PUSH2 0x11B6 JUMPI PUSH2 0x11B6 PUSH2 0x5902 JUMP JUMPDEST SWAP1 PUSH1 0x0 MSTORE PUSH1 0x20 PUSH1 0x0 KECCAK256 SWAP1 PUSH1 0x7 MUL ADD PUSH1 0x6 ADD SLOAD PUSH1 0xB PUSH1 0x0 DUP7 DUP2 MSTORE PUSH1 0x20 ADD SWAP1 DUP2 MSTORE PUSH1 0x20 ADD PUSH1 0x0 KECCAK256 DUP3 DUP2 SLOAD DUP2 LT PUSH2 0x11EC JUMPI PUSH2 0x11EC PUSH2 0x5902 JUMP JUMPDEST SWAP1 PUSH1 0x0 MSTORE PUSH1 0x20 PUSH1 0x0 KECCAK256 SWAP1 PUSH1 0x2 MUL ADD PUSH1 0x0 ADD SLOAD GT ISZERO PUSH2 0x12A8 JUMPI PUSH1 0x0 DUP5 DUP2 MSTORE PUSH1 0xB PUSH1 0x20 MSTORE PUSH1 0x40 SWAP1 KECCAK256 DUP1 SLOAD DUP3 SWAP1 DUP2 LT PUSH2 0x1224 JUMPI PUSH2 0x1224 PUSH2 0x5902 JUMP JUMPDEST SWAP1 PUSH1 0x0 MSTORE PUSH1 0x20 PUSH1 0x0 KECCAK256 SWAP1 PUSH1 0x2 MUL ADD PUSH1 0x0 ADD SLOAD PUSH1 0x11 DUP6 DUP2 SLOAD DUP2 LT PUSH2 0x1249 JUMPI PUSH2 0x1249 PUSH2 0x5902 JUMP JUMPDEST SWAP1 PUSH1 0x0 MSTORE PUSH1 0x20 PUSH1 0x0 KECCAK256 SWAP1 PUSH1 0x7 MUL ADD PUSH1 0x6 ADD DUP2 SWAP1 SSTORE POP CALLER PUSH1 0x11 DUP6 DUP2 SLOAD DUP2 LT PUSH2 0x1272 JUMPI PUSH2 0x1272 PUSH2 0x5902 JUMP JUMPDEST SWAP1 PUSH1 0x0 MSTORE PUSH1 0x20 PUSH1 0x0 KECCAK256 SWAP1 PUSH1 0x7 MUL ADD PUSH1 0x5 ADD PUSH1 0x0 PUSH2 0x100 EXP DUP2 SLOAD DUP2 PUSH1 0x1 PUSH1 0x1 PUSH1 0xA0 SHL SUB MUL NOT AND SWAP1 DUP4 PUSH1 0x1 PUSH1 0x1 PUSH1 0xA0 SHL SUB AND MUL OR SWAP1 SSTORE POP JUMPDEST PUSH1 0x11 DUP5 DUP2 SLOAD DUP2 LT PUSH2 0x12BB JUMPI PUSH2 0x12BB PUSH2 0x5902 JUMP JUMPDEST SWAP1 PUSH1 0x0 MSTORE PUSH1 0x20 PUSH1 0x0 KECCAK256 SWAP1 PUSH1 0x7 MUL ADD PUSH1 0x4 ADD SLOAD PUSH1 0xB PUSH1 0x0 DUP7 DUP2 MSTORE PUSH1 0x20 ADD SWAP1 DUP2 MSTORE PUSH1 0x20 ADD PUSH1 0x0 KECCAK256 DUP3 DUP2 SLOAD DUP2 LT PUSH2 0x12F1 JUMPI PUSH2 0x12F1 PUSH2 0x5902 JUMP JUMPDEST SWAP1 PUSH1 0x0 MSTORE PUSH1 0x20 PUSH1 0x0 KECCAK256 SWAP1 PUSH1 0x2 MUL ADD PUSH1 0x0 ADD SLOAD LT PUSH2 0x133B JUMPI PUSH1 0x0 PUSH1 0x11 DUP6 DUP2 SLOAD DUP2 LT PUSH2 0x131D JUMPI PUSH2 0x131D PUSH2 0x5902 JUMP JUMPDEST SWAP1 PUSH1 0x0 MSTORE PUSH1 0x20 PUSH1 0x0 KECCAK256 SWAP1 PUSH1 0x7 MUL ADD PUSH1 0x4 ADD DUP2 SWAP1 SSTORE POP PUSH2 0x133B DUP5 PUSH2 0x3B65 JUMP JUMPDEST PUSH1 0x1 ADD PUSH2 0x1084 JUMP JUMPDEST POP POP POP POP JUMP JUMPDEST CALLER PUSH1 0x1 PUSH1 0x1 PUSH1 0xA0 SHL SUB DUP7 AND DUP2 EQ DUP1 ISZERO SWAP1 PUSH2 0x136A JUMPI POP PUSH2 0x1368 DUP7 DUP3 PUSH2 0x3210 JUMP JUMPDEST ISZERO JUMPDEST ISZERO PUSH2 0x139B JUMPI PUSH1 0x40 MLOAD PUSH4 0x711BEC91 PUSH1 0xE1 SHL DUP2 MSTORE PUSH1 0x1 PUSH1 0x1 PUSH1 0xA0 SHL SUB DUP1 DUP4 AND PUSH1 0x4 DUP4 ADD MSTORE DUP8 AND PUSH1 0x24 DUP3 ADD MSTORE PUSH1 0x44 ADD PUSH2 0x5DC JUMP JUMPDEST PUSH2 0x13A8 DUP7 DUP7 DUP7 DUP7 DUP7 PUSH2 0x450E JUMP JUMPDEST POP POP POP POP POP POP JUMP JUMPDEST CALLER PUSH1 0x0 SWAP1 DUP2 MSTORE PUSH1 0xC PUSH1 0x20 MSTORE PUSH1 0x40 SWAP1 KECCAK256 DUP1 SLOAD PUSH1 0x60 SWAP2 SWAP1 PUSH2 0x13CE SWAP1 PUSH2 0x57E4 JUMP JUMPDEST DUP1 PUSH1 0x1F ADD PUSH1 0x20 DUP1 SWAP2 DIV MUL PUSH1 0x20 ADD PUSH1 0x40 MLOAD SWAP1 DUP2 ADD PUSH1 0x40 MSTORE DUP1 SWAP3 SWAP2 SWAP1 DUP2 DUP2 MSTORE PUSH1 0x20 ADD DUP3 DUP1 SLOAD PUSH2 0x13FA SWAP1 PUSH2 0x57E4 JUMP JUMPDEST DUP1 ISZERO PUSH2 0x1447 JUMPI DUP1 PUSH1 0x1F LT PUSH2 0x141C JUMPI PUSH2 0x100 DUP1 DUP4 SLOAD DIV MUL DUP4 MSTORE SWAP2 PUSH1 0x20 ADD SWAP2 PUSH2 0x1447 JUMP JUMPDEST DUP3 ADD SWAP2 SWAP1 PUSH1 0x0 MSTORE PUSH1 0x20 PUSH1 0x0 KECCAK256 SWAP1 JUMPDEST DUP2 SLOAD DUP2 MSTORE SWAP1 PUSH1 0x1 ADD SWAP1 PUSH1 0x20 ADD DUP1 DUP4 GT PUSH2 0x142A JUMPI DUP3 SWAP1 SUB PUSH1 0x1F AND DUP3 ADD SWAP2 JUMPDEST POP POP POP POP POP SWAP1 POP SWAP1 JUMP JUMPDEST CALLER PUSH1 0x6 PUSH2 0x1461 DUP2 PUSH1 0x2 DUP6 DUP8 PUSH2 0x5A97 JUMP JUMPDEST PUSH1 0x40 MLOAD PUSH1 0x20 ADD PUSH2 0x1472 SWAP3 SWAP2 SWAP1 PUSH2 0x5AC1 JUMP JUMPDEST PUSH1 0x40 DUP1 MLOAD PUSH1 0x1F NOT DUP2 DUP5 SUB ADD DUP2 MSTORE SWAP1 DUP3 SWAP1 MSTORE PUSH2 0x148C SWAP2 PUSH2 0x5AEE JUMP JUMPDEST SWAP1 DUP2 MSTORE PUSH1 0x40 MLOAD SWAP1 DUP2 SWAP1 SUB PUSH1 0x20 ADD SWAP1 KECCAK256 PUSH1 0x1 ADD SLOAD PUSH1 0x1 PUSH1 0x1 PUSH1 0xA0 SHL SUB AND SUB PUSH2 0x1507 JUMPI PUSH1 0x40 MLOAD PUSH3 0x461BCD PUSH1 0xE5 SHL DUP2 MSTORE PUSH1 0x20 PUSH1 0x4 DUP3 ADD MSTORE PUSH1 0x29 PUSH1 0x24 DUP3 ADD MSTORE PUSH32 0xD092D18B20D183D0B6D0B520D181D0BED0B7D0B4D0B0D0BBD0B820D180D0B5D1 PUSH1 0x44 DUP3 ADD MSTORE PUSH9 0x84D0B5D180D0B0D0BB PUSH1 0xB8 SHL PUSH1 0x64 DUP3 ADD MSTORE PUSH1 0x84 ADD PUSH2 0x5DC JUMP JUMPDEST PUSH1 0x60 PUSH1 0x0 PUSH2 0x1519 PUSH1 0x6 PUSH1 0x2 DUP6 DUP8 PUSH2 0x5A97 JUMP JUMPDEST PUSH1 0x40 MLOAD PUSH1 0x20 ADD PUSH2 0x152A SWAP3 SWAP2 SWAP1 PUSH2 0x5AC1 JUMP JUMPDEST PUSH1 0x40 DUP1 MLOAD PUSH1 0x1F NOT DUP2 DUP5 SUB ADD DUP2 MSTORE PUSH1 0x80 DUP4 ADD DUP3 MSTORE DUP1 DUP4 MSTORE CALLER PUSH1 0x20 DUP5 ADD MSTORE PUSH1 0x0 DUP4 DUP4 ADD MSTORE PUSH1 0x60 DUP4 ADD DUP6 SWAP1 MSTORE SWAP1 MLOAD SWAP1 SWAP3 POP PUSH1 0x6 SWAP1 PUSH2 0x1566 SWAP1 DUP5 SWAP1 PUSH2 0x5AEE JUMP JUMPDEST SWAP1 DUP2 MSTORE PUSH1 0x40 MLOAD SWAP1 DUP2 SWAP1 SUB PUSH1 0x20 ADD SWAP1 KECCAK256 DUP2 MLOAD DUP2 SWAP1 PUSH2 0x1583 SWAP1 DUP3 PUSH2 0x598D JUMP JUMPDEST POP PUSH1 0x20 DUP3 DUP2 ADD MLOAD PUSH1 0x1 DUP4 ADD DUP1 SLOAD PUSH1 0x1 PUSH1 0x1 PUSH1 0xA0 SHL SUB NOT AND PUSH1 0x1 PUSH1 0x1 PUSH1 0xA0 SHL SUB SWAP1 SWAP3 AND SWAP2 SWAP1 SWAP2 OR SWAP1 SSTORE PUSH1 0x40 DUP4 ADD MLOAD PUSH1 0x2 DUP4 ADD SSTORE PUSH1 0x60 DUP4 ADD MLOAD DUP1 MLOAD PUSH2 0x15CC SWAP3 PUSH1 0x3 DUP6 ADD SWAP3 ADD SWAP1 PUSH2 0x4B99 JUMP JUMPDEST POP POP PUSH1 0x40 DUP1 MLOAD PUSH1 0x80 DUP2 ADD DUP3 MSTORE DUP4 DUP2 MSTORE CALLER PUSH1 0x20 DUP3 ADD MSTORE PUSH1 0x0 SWAP2 DUP2 ADD DUP3 SWAP1 MSTORE PUSH1 0x60 DUP2 ADD DUP6 SWAP1 MSTORE PUSH1 0xE DUP1 SLOAD PUSH1 0x1 DUP2 ADD DUP3 SSTORE SWAP3 MSTORE DUP1 MLOAD SWAP1 SWAP3 POP PUSH1 0x4 SWAP1 SWAP2 MUL PUSH32 0xBB7B4A454DC3493923482F07822329ED19E8244EFF582CC204F8554C3620C3FD ADD SWAP1 DUP2 SWAP1 PUSH2 0x1635 SWAP1 DUP3 PUSH2 0x598D JUMP JUMPDEST POP PUSH1 0x20 DUP3 DUP2 ADD MLOAD PUSH1 0x1 DUP4 ADD DUP1 SLOAD PUSH1 0x1 PUSH1 0x1 PUSH1 0xA0 SHL SUB NOT AND PUSH1 0x1 PUSH1 0x1 PUSH1 0xA0 SHL SUB SWAP1 SWAP3 AND SWAP2 SWAP1 SWAP2 OR SWAP1 SSTORE PUSH1 0x40 DUP4 ADD MLOAD PUSH1 0x2 DUP4 ADD SSTORE PUSH1 0x60 DUP4 ADD MLOAD DUP1 MLOAD PUSH2 0x167E SWAP3 PUSH1 0x3 DUP6 ADD SWAP3 ADD SWAP1 PUSH2 0x4B99 JUMP JUMPDEST POP POP CALLER PUSH1 0x0 SWAP1 DUP2 MSTORE PUSH1 0xC PUSH1 0x20 MSTORE PUSH1 0x40 SWAP1 KECCAK256 SWAP1 POP PUSH2 0x169B DUP3 DUP3 PUSH2 0x598D JUMP JUMPDEST POP POP POP POP POP JUMP JUMPDEST PUSH1 0x60 DUP2 MLOAD DUP4 MLOAD EQ PUSH2 0x16D3 JUMPI DUP2 MLOAD DUP4 MLOAD PUSH1 0x40 MLOAD PUSH4 0x5B059991 PUSH1 0xE0 SHL DUP2 MSTORE PUSH1 0x4 DUP2 ADD SWAP3 SWAP1 SWAP3 MSTORE PUSH1 0x24 DUP3 ADD MSTORE PUSH1 0x44 ADD PUSH2 0x5DC JUMP JUMPDEST PUSH1 0x0 DUP4 MLOAD PUSH8 0xFFFFFFFFFFFFFFFF DUP2 GT ISZERO PUSH2 0x16EF JUMPI PUSH2 0x16EF PUSH2 0x4E84 JUMP JUMPDEST PUSH1 0x40 MLOAD SWAP1 DUP1 DUP3 MSTORE DUP1 PUSH1 0x20 MUL PUSH1 0x20 ADD DUP3 ADD PUSH1 0x40 MSTORE DUP1 ISZERO PUSH2 0x1718 JUMPI DUP2 PUSH1 0x20 ADD PUSH1 0x20 DUP3 MUL DUP1 CALLDATASIZE DUP4 CALLDATACOPY ADD SWAP1 POP JUMPDEST POP SWAP1 POP PUSH1 0x0 JUMPDEST DUP5 MLOAD DUP2 LT ISZERO PUSH2 0x1767 JUMPI PUSH1 0x20 DUP1 DUP3 MUL DUP7 ADD ADD MLOAD PUSH2 0x1742 SWAP1 PUSH1 0x20 DUP1 DUP5 MUL DUP8 ADD ADD MLOAD PUSH2 0x443 JUMP JUMPDEST DUP3 DUP3 DUP2 MLOAD DUP2 LT PUSH2 0x1754 JUMPI PUSH2 0x1754 PUSH2 0x5902 JUMP JUMPDEST PUSH1 0x20 SWAP1 DUP2 MUL SWAP2 SWAP1 SWAP2 ADD ADD MSTORE PUSH1 0x1 ADD PUSH2 0x171E JUMP JUMPDEST POP SWAP4 SWAP3 POP POP POP JUMP JUMPDEST PUSH1 0x4 SLOAD PUSH1 0x1 PUSH1 0x1 PUSH1 0xA0 SHL SUB AND CALLER EQ PUSH2 0x1799 JUMPI PUSH1 0x40 MLOAD PUSH3 0x461BCD PUSH1 0xE5 SHL DUP2 MSTORE PUSH1 0x4 ADD PUSH2 0x5DC SWAP1 PUSH2 0x5894 JUMP JUMPDEST PUSH1 0x0 DUP6 DUP2 MSTORE PUSH1 0xA PUSH1 0x20 MSTORE PUSH1 0x40 SWAP1 KECCAK256 SLOAD DUP6 SWAP1 SUB PUSH2 0x181D JUMPI PUSH1 0x40 MLOAD PUSH3 0x461BCD PUSH1 0xE5 SHL DUP2 MSTORE PUSH1 0x20 PUSH1 0x4 DUP3 ADD MSTORE PUSH1 0x3F PUSH1 0x24 DUP3 ADD MSTORE PUSH32 0xD09AD0BED0BBD0BBD0B5D0BAD186D0B8D18F20D18120D182D0B0D0BAD0B8D0BC PUSH1 0x44 DUP3 ADD MSTORE PUSH32 0x20696420D183D0B6D0B520D181D183D189D0B5D181D182D0B2D183D0B5D18200 PUSH1 0x64 DUP3 ADD MSTORE PUSH1 0x84 ADD PUSH2 0x5DC JUMP JUMPDEST PUSH1 0x40 DUP1 MLOAD PUSH1 0xA0 DUP2 ADD DUP3 MSTORE DUP7 DUP2 MSTORE PUSH1 0x20 DUP1 DUP3 ADD DUP8 DUP2 MSTORE DUP3 DUP5 ADD DUP8 SWAP1 MSTORE PUSH1 0x60 DUP4 ADD DUP7 SWAP1 MSTORE PUSH1 0x80 DUP4 ADD DUP6 SWAP1 MSTORE PUSH1 0x0 DUP10 DUP2 MSTORE PUSH1 0xA SWAP1 SWAP3 MSTORE SWAP3 SWAP1 KECCAK256 DUP2 MLOAD DUP2 SSTORE SWAP2 MLOAD SWAP1 SWAP2 SWAP1 PUSH1 0x1 DUP3 ADD SWAP1 PUSH2 0x186B SWAP1 DUP3 PUSH2 0x598D JUMP JUMPDEST POP PUSH1 0x40 DUP3 ADD MLOAD PUSH1 0x2 DUP3 ADD SWAP1 PUSH2 0x1880 SWAP1 DUP3 PUSH2 0x598D JUMP JUMPDEST POP PUSH1 0x60 DUP3 ADD MLOAD DUP1 MLOAD PUSH2 0x189C SWAP2 PUSH1 0x3 DUP5 ADD SWAP2 PUSH1 0x20 SWAP1 SWAP2 ADD SWAP1 PUSH2 0x4BFE JUMP JUMPDEST POP PUSH1 0x80 DUP3 ADD MLOAD DUP1 MLOAD PUSH2 0x18B8 SWAP2 PUSH1 0x4 DUP5 ADD SWAP2 PUSH1 0x20 SWAP1 SWAP2 ADD SWAP1 PUSH2 0x4BFE JUMP JUMPDEST POP POP PUSH1 0x40 DUP1 MLOAD PUSH1 0xA0 DUP2 ADD DUP3 MSTORE DUP8 DUP2 MSTORE PUSH1 0x20 DUP2 ADD DUP8 DUP2 MSTORE SWAP2 DUP2 ADD DUP7 SWAP1 MSTORE PUSH1 0x60 DUP2 ADD DUP6 SWAP1 MSTORE PUSH1 0x80 DUP2 ADD DUP5 SWAP1 MSTORE PUSH1 0x10 DUP1 SLOAD PUSH1 0x1 DUP2 ADD DUP3 SSTORE PUSH1 0x0 SWAP2 SWAP1 SWAP2 MSTORE DUP2 MLOAD PUSH1 0x5 SWAP1 SWAP2 MUL PUSH32 0x1B6847DC741A1B0CD08D278845F9D819D87B734759AFB55FE2DE5CB82A9AE672 DUP2 ADD SWAP2 DUP3 SSTORE SWAP3 MLOAD SWAP2 SWAP4 POP SWAP2 PUSH32 0x1B6847DC741A1B0CD08D278845F9D819D87B734759AFB55FE2DE5CB82A9AE673 ADD SWAP1 PUSH2 0x1952 SWAP1 DUP3 PUSH2 0x598D JUMP JUMPDEST POP PUSH1 0x40 DUP3 ADD MLOAD PUSH1 0x2 DUP3 ADD SWAP1 PUSH2 0x1967 SWAP1 DUP3 PUSH2 0x598D JUMP JUMPDEST POP PUSH1 0x60 DUP3 ADD MLOAD DUP1 MLOAD PUSH2 0x1983 SWAP2 PUSH1 0x3 DUP5 ADD SWAP2 PUSH1 0x20 SWAP1 SWAP2 ADD SWAP1 PUSH2 0x4BFE JUMP JUMPDEST POP PUSH1 0x80 DUP3 ADD MLOAD DUP1 MLOAD PUSH2 0x199F SWAP2 PUSH1 0x4 DUP5 ADD SWAP2 PUSH1 0x20 SWAP1 SWAP2 ADD SWAP1 PUSH2 0x4BFE JUMP JUMPDEST POP POP POP POP POP POP POP POP JUMP JUMPDEST PUSH1 0x11 DUP3 DUP2 SLOAD DUP2 LT PUSH2 0x19BC JUMPI PUSH2 0x19BC PUSH2 0x5902 JUMP JUMPDEST SWAP1 PUSH1 0x0 MSTORE PUSH1 0x20 PUSH1 0x0 KECCAK256 SWAP1 PUSH1 0x7 MUL ADD PUSH1 0x4 ADD SLOAD DUP1 PUSH1 0x0 SUB PUSH2 0x19EE JUMPI PUSH1 0x40 MLOAD PUSH3 0x461BCD PUSH1 0xE5 SHL DUP2 MSTORE PUSH1 0x4 ADD PUSH2 0x5DC SWAP1 PUSH2 0x5A4D JUMP JUMPDEST DUP2 PUSH1 0x11 DUP5 DUP2 SLOAD DUP2 LT PUSH2 0x1A02 JUMPI PUSH2 0x1A02 PUSH2 0x5902 JUMP JUMPDEST SWAP1 PUSH1 0x0 MSTORE PUSH1 0x20 PUSH1 0x0 KECCAK256 SWAP1 PUSH1 0x7 MUL ADD PUSH1 0x6 ADD SLOAD LT PUSH2 0x1A79 JUMPI PUSH1 0x40 MLOAD PUSH3 0x461BCD PUSH1 0xE5 SHL DUP2 MSTORE PUSH1 0x20 PUSH1 0x4 DUP3 ADD MSTORE PUSH1 0x2F PUSH1 0x24 DUP3 ADD MSTORE PUSH32 0xD0A2D0B5D0BAD183D189D0B0D18F20D181D182D0B0D0B2D0BAD0B020D0B2D18B PUSH1 0x44 DUP3 ADD MSTORE PUSH15 0xD188D0B520D0B2D0B0D188D0B5D0B9 PUSH1 0x88 SHL PUSH1 0x64 DUP3 ADD MSTORE PUSH1 0x84 ADD PUSH2 0x5DC JUMP JUMPDEST PUSH1 0x5 SLOAD PUSH1 0x4 DUP1 SLOAD PUSH1 0x40 MLOAD PUSH4 0x7AA9BF6F PUSH1 0xE1 SHL DUP2 MSTORE CALLER SWAP3 DUP2 ADD SWAP3 SWAP1 SWAP3 MSTORE PUSH1 0x1 PUSH1 0x1 PUSH1 0xA0 SHL SUB SWAP1 DUP2 AND PUSH1 0x24 DUP4 ADD MSTORE PUSH1 0x44 DUP3 ADD DUP6 SWAP1 MSTORE SWAP1 SWAP2 AND SWAP1 PUSH4 0xF5537EDE SWAP1 PUSH1 0x64 ADD PUSH1 0x0 PUSH1 0x40 MLOAD DUP1 DUP4 SUB DUP2 PUSH1 0x0 DUP8 DUP1 EXTCODESIZE ISZERO DUP1 ISZERO PUSH2 0x1AD3 JUMPI PUSH1 0x0 DUP1 REVERT JUMPDEST POP GAS CALL ISZERO DUP1 ISZERO PUSH2 0x1AE7 JUMPI RETURNDATASIZE PUSH1 0x0 DUP1 RETURNDATACOPY RETURNDATASIZE PUSH1 0x0 REVERT JUMPDEST POP POP POP POP DUP2 PUSH1 0x11 DUP5 DUP2 SLOAD DUP2 LT PUSH2 0x1AFF JUMPI PUSH2 0x1AFF PUSH2 0x5902 JUMP JUMPDEST SWAP1 PUSH1 0x0 MSTORE PUSH1 0x20 PUSH1 0x0 KECCAK256 SWAP1 PUSH1 0x7 MUL ADD PUSH1 0x6 ADD DUP2 SWAP1 SSTORE POP CALLER PUSH1 0x11 DUP5 DUP2 SLOAD DUP2 LT PUSH2 0x1B28 JUMPI PUSH2 0x1B28 PUSH2 0x5902 JUMP JUMPDEST PUSH1 0x0 SWAP2 DUP3 MSTORE PUSH1 0x20 DUP1 DUP4 KECCAK256 PUSH1 0x5 PUSH1 0x7 SWAP1 SWAP4 MUL ADD SWAP2 SWAP1 SWAP2 ADD DUP1 SLOAD PUSH1 0x1 PUSH1 0x1 PUSH1 0xA0 SHL SUB SWAP5 DUP6 AND PUSH1 0x1 PUSH1 0x1 PUSH1 0xA0 SHL SUB NOT SWAP2 DUP3 AND OR SWAP1 SWAP2 SSTORE DUP7 DUP4 MSTORE PUSH1 0xB DUP3 MSTORE PUSH1 0x40 DUP1 DUP5 KECCAK256 DUP2 MLOAD DUP1 DUP4 ADD SWAP1 SWAP3 MSTORE DUP8 DUP3 MSTORE CALLER DUP3 DUP6 ADD SWAP1 DUP2 MSTORE DUP2 SLOAD PUSH1 0x1 DUP2 DUP2 ADD DUP5 SSTORE SWAP3 DUP8 MSTORE SWAP5 SWAP1 SWAP6 KECCAK256 SWAP2 MLOAD PUSH1 0x2 SWAP1 SWAP5 MUL SWAP1 SWAP2 ADD SWAP3 DUP4 SSTORE SWAP3 MLOAD SWAP2 SWAP1 SWAP3 ADD DUP1 SLOAD SWAP2 SWAP1 SWAP4 AND SWAP2 AND OR SWAP1 SSTORE PUSH1 0x11 DUP1 SLOAD DUP5 SWAP1 DUP2 LT PUSH2 0x1BBB JUMPI PUSH2 0x1BBB PUSH2 0x5902 JUMP JUMPDEST SWAP1 PUSH1 0x0 MSTORE PUSH1 0x20 PUSH1 0x0 KECCAK256 SWAP1 PUSH1 0x7 MUL ADD PUSH1 0x4 ADD SLOAD PUSH1 0x3 SLOAD DUP4 PUSH2 0x1BDB SWAP2 SWAP1 PUSH2 0x592E JUMP JUMPDEST LT PUSH2 0x1C13 JUMPI PUSH1 0x0 PUSH1 0x11 DUP5 DUP2 SLOAD DUP2 LT PUSH2 0x1BF5 JUMPI PUSH2 0x1BF5 PUSH2 0x5902 JUMP JUMPDEST SWAP1 PUSH1 0x0 MSTORE PUSH1 0x20 PUSH1 0x0 KECCAK256 SWAP1 PUSH1 0x7 MUL ADD PUSH1 0x4 ADD DUP2 SWAP1 SSTORE POP PUSH2 0x1C13 DUP4 PUSH2 0x3B65 JUMP JUMPDEST POP POP POP JUMP JUMPDEST PUSH1 0x60 PUSH1 0x11 DUP1 SLOAD DUP1 PUSH1 0x20 MUL PUSH1 0x20 ADD PUSH1 0x40 MLOAD SWAP1 DUP2 ADD PUSH1 0x40 MSTORE DUP1 SWAP3 SWAP2 SWAP1 DUP2 DUP2 MSTORE PUSH1 0x20 ADD PUSH1 0x0 SWAP1 JUMPDEST DUP3 DUP3 LT ISZERO PUSH2 0xF4B JUMPI PUSH1 0x0 DUP5 DUP2 MSTORE PUSH1 0x20 SWAP1 DUP2 SWAP1 KECCAK256 PUSH1 0x40 DUP1 MLOAD PUSH1 0xE0 DUP2 ADD DUP3 MSTORE PUSH1 0x7 DUP7 MUL SWAP1 SWAP3 ADD DUP1 SLOAD DUP4 MSTORE PUSH1 0x1 DUP1 DUP3 ADD SLOAD DUP5 DUP7 ADD MSTORE PUSH1 0x2 DUP3 ADD SLOAD SWAP3 DUP5 ADD SWAP3 SWAP1 SWAP3 MSTORE PUSH1 0x3 DUP2 ADD SLOAD PUSH1 0x60 DUP5 ADD MSTORE PUSH1 0x4 DUP2 ADD SLOAD PUSH1 0x80 DUP5 ADD MSTORE PUSH1 0x5 DUP2 ADD SLOAD PUSH1 0x1 PUSH1 0x1 PUSH1 0xA0 SHL SUB AND PUSH1 0xA0 DUP5 ADD MSTORE PUSH1 0x6 ADD SLOAD PUSH1 0xC0 DUP4 ADD MSTORE SWAP1 DUP4 MSTORE SWAP1 SWAP3 ADD SWAP2 ADD PUSH2 0x1C3C JUMP JUMPDEST PUSH2 0x1CD3 CALLER DUP4 DUP7 DUP5 PUSH1 0x40 MLOAD DUP1 PUSH1 0x20 ADD PUSH1 0x40 MSTORE DUP1 PUSH1 0x0 DUP2 MSTORE POP PUSH2 0x456E JUMP JUMPDEST CALLER PUSH1 0x0 SWAP1 DUP2 MSTORE PUSH1 0x9 PUSH1 0x20 MSTORE PUSH1 0x40 SWAP1 KECCAK256 DUP1 SLOAD DUP3 SWAP2 SWAP1 DUP6 SWAP1 DUP2 LT PUSH2 0x1CF7 JUMPI PUSH2 0x1CF7 PUSH2 0x5902 JUMP JUMPDEST SWAP1 PUSH1 0x0 MSTORE PUSH1 0x20 PUSH1 0x0 KECCAK256 SWAP1 PUSH1 0x8 MUL ADD PUSH1 0x6 ADD PUSH1 0x0 DUP3 DUP3 SLOAD PUSH2 0x1D17 SWAP2 SWAP1 PUSH2 0x5B0A JUMP JUMPDEST SWAP1 SWAP2 SSTORE POP POP PUSH1 0x1 PUSH1 0x1 PUSH1 0xA0 SHL SUB DUP3 AND PUSH1 0x0 SWAP1 DUP2 MSTORE PUSH1 0x9 PUSH1 0x20 SWAP1 DUP2 MSTORE PUSH1 0x40 DUP1 DUP4 KECCAK256 DUP2 MLOAD PUSH2 0x100 DUP2 ADD DUP4 MSTORE DUP9 DUP2 MSTORE DUP2 SLOAD DUP2 DUP6 ADD MSTORE DUP9 DUP6 MSTORE PUSH1 0x8 SWAP1 SWAP4 MSTORE SWAP3 DUP2 SWAP1 KECCAK256 PUSH1 0x2 ADD DUP1 SLOAD SWAP2 DUP4 ADD SWAP2 PUSH2 0x1D67 SWAP1 PUSH2 0x57E4 JUMP JUMPDEST DUP1 PUSH1 0x1F ADD PUSH1 0x20 DUP1 SWAP2 DIV MUL PUSH1 0x20 ADD PUSH1 0x40 MLOAD SWAP1 DUP2 ADD PUSH1 0x40 MSTORE DUP1 SWAP3 SWAP2 SWAP1 DUP2 DUP2 MSTORE PUSH1 0x20 ADD DUP3 DUP1 SLOAD PUSH2 0x1D93 SWAP1 PUSH2 0x57E4 JUMP JUMPDEST DUP1 ISZERO PUSH2 0x1DE0 JUMPI DUP1 PUSH1 0x1F LT PUSH2 0x1DB5 JUMPI PUSH2 0x100 DUP1 DUP4 SLOAD DIV MUL DUP4 MSTORE SWAP2 PUSH1 0x20 ADD SWAP2 PUSH2 0x1DE0 JUMP JUMPDEST DUP3 ADD SWAP2 SWAP1 PUSH1 0x0 MSTORE PUSH1 0x20 PUSH1 0x0 KECCAK256 SWAP1 JUMPDEST DUP2 SLOAD DUP2 MSTORE SWAP1 PUSH1 0x1 ADD SWAP1 PUSH1 0x20 ADD DUP1 DUP4 GT PUSH2 0x1DC3 JUMPI DUP3 SWAP1 SUB PUSH1 0x1F AND DUP3 ADD SWAP2 JUMPDEST POP POP POP POP POP DUP2 MSTORE PUSH1 0x20 ADD PUSH1 0x8 PUSH1 0x0 DUP9 DUP2 MSTORE PUSH1 0x20 ADD SWAP1 DUP2 MSTORE PUSH1 0x20 ADD PUSH1 0x0 KECCAK256 PUSH1 0x3 ADD DUP1 SLOAD PUSH2 0x1E0B SWAP1 PUSH2 0x57E4 JUMP JUMPDEST DUP1 PUSH1 0x1F ADD PUSH1 0x20 DUP1 SWAP2 DIV MUL PUSH1 0x20 ADD PUSH1 0x40 MLOAD SWAP1 DUP2 ADD PUSH1 0x40 MSTORE DUP1 SWAP3 SWAP2 SWAP1 DUP2 DUP2 MSTORE PUSH1 0x20 ADD DUP3 DUP1 SLOAD PUSH2 0x1E37 SWAP1 PUSH2 0x57E4 JUMP JUMPDEST DUP1 ISZERO PUSH2 0x1E84 JUMPI DUP1 PUSH1 0x1F LT PUSH2 0x1E59 JUMPI PUSH2 0x100 DUP1 DUP4 SLOAD DIV MUL DUP4 MSTORE SWAP2 PUSH1 0x20 ADD SWAP2 PUSH2 0x1E84 JUMP JUMPDEST DUP3 ADD SWAP2 SWAP1 PUSH1 0x0 MSTORE PUSH1 0x20 PUSH1 0x0 KECCAK256 SWAP1 JUMPDEST DUP2 SLOAD DUP2 MSTORE SWAP1 PUSH1 0x1 ADD SWAP1 PUSH1 0x20 ADD DUP1 DUP4 GT PUSH2 0x1E67 JUMPI DUP3 SWAP1 SUB PUSH1 0x1F AND DUP3 ADD SWAP2 JUMPDEST POP POP POP POP POP DUP2 MSTORE PUSH1 0x20 ADD PUSH1 0x8 PUSH1 0x0 DUP9 DUP2 MSTORE PUSH1 0x20 ADD SWAP1 DUP2 MSTORE PUSH1 0x20 ADD PUSH1 0x0 KECCAK256 PUSH1 0x4 ADD DUP1 SLOAD PUSH2 0x1EAF SWAP1 PUSH2 0x57E4 JUMP JUMPDEST DUP1 PUSH1 0x1F ADD PUSH1 0x20 DUP1 SWAP2 DIV MUL PUSH1 0x20 ADD PUSH1 0x40 MLOAD SWAP1 DUP2 ADD PUSH1 0x40 MSTORE DUP1 SWAP3 SWAP2 SWAP1 DUP2 DUP2 MSTORE PUSH1 0x20 ADD DUP3 DUP1 SLOAD PUSH2 0x1EDB SWAP1 PUSH2 0x57E4 JUMP JUMPDEST DUP1 ISZERO PUSH2 0x1F28 JUMPI DUP1 PUSH1 0x1F LT PUSH2 0x1EFD JUMPI PUSH2 0x100 DUP1 DUP4 SLOAD DIV MUL DUP4 MSTORE SWAP2 PUSH1 0x20 ADD SWAP2 PUSH2 0x1F28 JUMP JUMPDEST DUP3 ADD SWAP2 SWAP1 PUSH1 0x0 MSTORE PUSH1 0x20 PUSH1 0x0 KECCAK256 SWAP1 JUMPDEST DUP2 SLOAD DUP2 MSTORE SWAP1 PUSH1 0x1 ADD SWAP1 PUSH1 0x20 ADD DUP1 DUP4 GT PUSH2 0x1F0B JUMPI DUP3 SWAP1 SUB PUSH1 0x1F AND DUP3 ADD SWAP2 JUMPDEST POP POP POP POP POP DUP2 MSTORE PUSH1 0x20 ADD DUP4 DUP2 MSTORE PUSH1 0x20 ADD PUSH1 0x9 PUSH1 0x0 CALLER PUSH1 0x1 PUSH1 0x1 PUSH1 0xA0 SHL SUB AND PUSH1 0x1 PUSH1 0x1 PUSH1 0xA0 SHL SUB AND DUP2 MSTORE PUSH1 0x20 ADD SWAP1 DUP2 MSTORE PUSH1 0x20 ADD PUSH1 0x0 KECCAK256 DUP7 DUP2 SLOAD DUP2 LT PUSH2 0x1F6E JUMPI PUSH2 0x1F6E PUSH2 0x5902 JUMP JUMPDEST PUSH1 0x0 SWAP2 DUP3 MSTORE PUSH1 0x20 DUP1 DUP4 KECCAK256 PUSH1 0x8 SWAP3 DUP4 MUL ADD PUSH1 0x5 ADD SLOAD DUP5 MSTORE DUP10 DUP4 MSTORE DUP2 DUP2 MSTORE PUSH1 0x40 DUP1 DUP5 KECCAK256 PUSH1 0x7 ADD SLOAD SWAP5 DUP3 ADD SWAP5 SWAP1 SWAP5 MSTORE DUP6 SLOAD PUSH1 0x1 DUP1 DUP3 ADD DUP9 SSTORE SWAP7 DUP5 MSTORE SWAP3 DUP2 SWAP1 KECCAK256 DUP6 MLOAD SWAP4 SWAP1 SWAP3 MUL SWAP1 SWAP2 ADD SWAP2 DUP3 SSTORE DUP4 ADD MLOAD SWAP4 DUP2 ADD SWAP4 SWAP1 SWAP4 SSTORE DUP2 ADD MLOAD SWAP1 SWAP2 SWAP1 PUSH1 0x2 DUP3 ADD SWAP1 PUSH2 0x1FD5 SWAP1 DUP3 PUSH2 0x598D JUMP JUMPDEST POP PUSH1 0x60 DUP3 ADD MLOAD PUSH1 0x3 DUP3 ADD SWAP1 PUSH2 0x1FEA SWAP1 DUP3 PUSH2 0x598D JUMP JUMPDEST POP PUSH1 0x80 DUP3 ADD MLOAD PUSH1 0x4 DUP3 ADD SWAP1 PUSH2 0x1FFF SWAP1 DUP3 PUSH2 0x598D JUMP JUMPDEST POP PUSH1 0xA0 DUP3 ADD MLOAD PUSH1 0x5 DUP3 ADD SSTORE PUSH1 0xC0 DUP3 ADD MLOAD PUSH1 0x6 DUP3 ADD SSTORE PUSH1 0xE0 SWAP1 SWAP2 ADD MLOAD PUSH1 0x7 SWAP1 SWAP2 ADD SSTORE CALLER PUSH1 0x0 SWAP1 DUP2 MSTORE PUSH1 0x9 PUSH1 0x20 MSTORE PUSH1 0x40 SWAP1 KECCAK256 DUP1 SLOAD DUP5 SWAP1 DUP2 LT PUSH2 0x2041 JUMPI PUSH2 0x2041 PUSH2 0x5902 JUMP JUMPDEST SWAP1 PUSH1 0x0 MSTORE PUSH1 0x20 PUSH1 0x0 KECCAK256 SWAP1 PUSH1 0x8 MUL ADD PUSH1 0x6 ADD SLOAD PUSH1 0x0 SUB PUSH2 0x1343 JUMPI CALLER PUSH1 0x0 SWAP1 DUP2 MSTORE PUSH1 0x9 PUSH1 0x20 MSTORE PUSH1 0x40 SWAP1 KECCAK256 DUP1 SLOAD DUP5 SWAP1 DUP2 LT PUSH2 0x207B JUMPI PUSH2 0x207B PUSH2 0x5902 JUMP JUMPDEST PUSH1 0x0 SWAP2 DUP3 MSTORE PUSH1 0x20 DUP3 KECCAK256 PUSH1 0x8 SWAP1 SWAP2 MUL ADD DUP2 DUP2 SSTORE PUSH1 0x1 DUP2 ADD DUP3 SWAP1 SSTORE SWAP1 PUSH2 0x20A2 PUSH1 0x2 DUP4 ADD DUP3 PUSH2 0x4B5F JUMP JUMPDEST PUSH2 0x20B0 PUSH1 0x3 DUP4 ADD PUSH1 0x0 PUSH2 0x4B5F JUMP JUMPDEST PUSH2 0x20BE PUSH1 0x4 DUP4 ADD PUSH1 0x0 PUSH2 0x4B5F JUMP JUMPDEST POP PUSH1 0x0 PUSH1 0x5 DUP3 ADD DUP2 SWAP1 SSTORE PUSH1 0x6 DUP3 ADD DUP2 SWAP1 SSTORE PUSH1 0x7 SWAP1 SWAP2 ADD SSTORE POP POP POP POP JUMP JUMPDEST CALLER PUSH1 0x1 PUSH1 0x1 PUSH1 0xA0 SHL SUB AND PUSH1 0xD DUP4 DUP2 SLOAD DUP2 LT PUSH2 0x20F8 JUMPI PUSH2 0x20F8 PUSH2 0x5902 JUMP JUMPDEST PUSH1 0x0 SWAP2 DUP3 MSTORE PUSH1 0x20 SWAP1 SWAP2 KECCAK256 PUSH1 0x3 PUSH1 0x6 SWAP1 SWAP3 MUL ADD ADD SLOAD PUSH1 0x1 PUSH1 0x1 PUSH1 0xA0 SHL SUB AND EQ PUSH2 0x2162 JUMPI PUSH1 0x40 MLOAD PUSH3 0x461BCD PUSH1 0xE5 SHL DUP2 MSTORE PUSH1 0x20 PUSH1 0x4 DUP3 ADD MSTORE PUSH1 0x19 PUSH1 0x24 DUP3 ADD MSTORE PUSH32 0xD0ADD182D0BE20D0BDD0B520D0B2D0B0D18820D0BBD0BED18200000000000000 PUSH1 0x44 DUP3 ADD MSTORE PUSH1 0x64 ADD PUSH2 0x5DC JUMP JUMPDEST PUSH1 0x3 SLOAD PUSH2 0x216F SWAP1 DUP3 PUSH2 0x592E JUMP JUMPDEST PUSH1 0xD DUP4 DUP2 SLOAD DUP2 LT PUSH2 0x2182 JUMPI PUSH2 0x2182 PUSH2 0x5902 JUMP JUMPDEST SWAP1 PUSH1 0x0 MSTORE PUSH1 0x20 PUSH1 0x0 KECCAK256 SWAP1 PUSH1 0x6 MUL ADD PUSH1 0x5 ADD DUP2 SWAP1 SSTORE POP POP POP JUMP JUMPDEST PUSH1 0x0 JUMPDEST PUSH1 0x6 DUP3 PUSH1 0x40 MLOAD PUSH2 0x21AE SWAP2 SWAP1 PUSH2 0x5AEE JUMP JUMPDEST SWAP1 DUP2 MSTORE PUSH1 0x40 MLOAD SWAP1 DUP2 SWAP1 SUB PUSH1 0x20 ADD SWAP1 KECCAK256 PUSH1 0x3 ADD SLOAD DUP2 LT ISZERO PUSH2 0x228B JUMPI PUSH1 0x6 DUP3 PUSH1 0x40 MLOAD PUSH2 0x21D8 SWAP2 SWAP1 PUSH2 0x5AEE JUMP JUMPDEST SWAP1 DUP2 MSTORE PUSH1 0x20 ADD PUSH1 0x40 MLOAD DUP1 SWAP2 SUB SWAP1 KECCAK256 PUSH1 0x3 ADD DUP2 DUP2 SLOAD DUP2 LT PUSH2 0x21FA JUMPI PUSH2 0x21FA PUSH2 0x5902 JUMP JUMPDEST PUSH1 0x0 SWAP2 DUP3 MSTORE PUSH1 0x20 SWAP1 SWAP2 KECCAK256 ADD SLOAD PUSH1 0x1 PUSH1 0x1 PUSH1 0xA0 SHL SUB AND CALLER EQ PUSH2 0x2283 JUMPI PUSH1 0x40 MLOAD PUSH3 0x461BCD PUSH1 0xE5 SHL DUP2 MSTORE PUSH1 0x20 PUSH1 0x4 DUP3 ADD MSTORE PUSH1 0x3F PUSH1 0x24 DUP3 ADD MSTORE PUSH32 0xD092D18B20D0BDD0B520D0BCD0BED0B6D0B5D182D0B520D0B8D181D0BFD0BED0 PUSH1 0x44 DUP3 ADD MSTORE PUSH32 0xBBD18CD0B7D0BED0B2D0B0D182D18C20D18DD182D0BED18220D0BAD0BED0B400 PUSH1 0x64 DUP3 ADD MSTORE PUSH1 0x84 ADD PUSH2 0x5DC JUMP JUMPDEST PUSH1 0x1 ADD PUSH2 0x219E JUMP JUMPDEST POP CALLER PUSH1 0x1 PUSH1 0x1 PUSH1 0xA0 SHL SUB AND PUSH1 0x6 DUP3 PUSH1 0x40 MLOAD PUSH2 0x22A6 SWAP2 SWAP1 PUSH2 0x5AEE JUMP JUMPDEST SWAP1 DUP2 MSTORE PUSH1 0x40 MLOAD SWAP1 DUP2 SWAP1 SUB PUSH1 0x20 ADD SWAP1 KECCAK256 PUSH1 0x1 ADD SLOAD PUSH1 0x1 PUSH1 0x1 PUSH1 0xA0 SHL SUB AND SUB PUSH2 0x2343 JUMPI PUSH1 0x40 MLOAD PUSH3 0x461BCD PUSH1 0xE5 SHL DUP2 MSTORE PUSH1 0x20 PUSH1 0x4 DUP3 ADD MSTORE PUSH1 0x44 PUSH1 0x24 DUP3 ADD DUP2 SWAP1 MSTORE PUSH32 0xD092D18B20D0BDD0B520D0BCD0BED0B6D0B5D182D0B520D0B8D181D0BFD0BED0 SWAP1 DUP3 ADD MSTORE PUSH32 0xBBD18CD0B7D0BED0B2D0B0D182D18C20D181D0B2D0BED0B920D0B6D0B520D0BA PUSH1 0x64 DUP3 ADD MSTORE PUSH4 0x342FB42D PUSH1 0xE2 SHL PUSH1 0x84 DUP3 ADD MSTORE PUSH1 0xA4 ADD PUSH2 0x5DC JUMP JUMPDEST DUP1 PUSH1 0x40 MLOAD PUSH1 0x20 ADD PUSH2 0x2354 SWAP2 SWAP1 PUSH2 0x5AEE JUMP JUMPDEST PUSH1 0x40 MLOAD PUSH1 0x20 DUP2 DUP4 SUB SUB DUP2 MSTORE SWAP1 PUSH1 0x40 MSTORE DUP1 MLOAD SWAP1 PUSH1 0x20 ADD KECCAK256 PUSH1 0x6 DUP3 PUSH1 0x40 MLOAD PUSH2 0x237A SWAP2 SWAP1 PUSH2 0x5AEE JUMP JUMPDEST SWAP1 DUP2 MSTORE PUSH1 0x40 MLOAD PUSH1 0x20 SWAP2 DUP2 SWAP1 SUB DUP3 ADD DUP2 KECCAK256 PUSH2 0x2396 SWAP3 SWAP1 SWAP2 ADD PUSH2 0x581E JUMP JUMPDEST PUSH1 0x40 MLOAD PUSH1 0x20 DUP2 DUP4 SUB SUB DUP2 MSTORE SWAP1 PUSH1 0x40 MSTORE DUP1 MLOAD SWAP1 PUSH1 0x20 ADD KECCAK256 EQ PUSH2 0x242F JUMPI PUSH1 0x40 MLOAD PUSH3 0x461BCD PUSH1 0xE5 SHL DUP2 MSTORE PUSH1 0x20 PUSH1 0x4 DUP3 ADD MSTORE PUSH1 0x47 PUSH1 0x24 DUP3 ADD MSTORE PUSH32 0xD0A2D0B0D0BAD0BED0B3D0BE20D180D0B5D184D0B5D180D0B0D0BBD18CD0BDD0 PUSH1 0x44 DUP3 ADD MSTORE PUSH32 0xBED0B3D0BE20D0BAD0BED0B4D0B020D0BDD0B5D18220D0B220D181D0B8D181D1 PUSH1 0x64 DUP3 ADD MSTORE PUSH7 0x82D0B5D0BCD0B5 PUSH1 0xC8 SHL PUSH1 0x84 DUP3 ADD MSTORE PUSH1 0xA4 ADD PUSH2 0x5DC JUMP JUMPDEST CALLER PUSH1 0x0 SWAP1 DUP2 MSTORE PUSH1 0x7 PUSH1 0x20 MSTORE PUSH1 0x40 SWAP1 KECCAK256 SLOAD PUSH1 0xFF AND ISZERO ISZERO PUSH1 0x1 SUB PUSH2 0x24A7 JUMPI PUSH1 0x40 MLOAD PUSH3 0x461BCD PUSH1 0xE5 SHL DUP2 MSTORE PUSH1 0x20 PUSH1 0x4 DUP3 ADD MSTORE PUSH1 0x2B PUSH1 0x24 DUP3 ADD MSTORE PUSH32 0xD092D18B20D183D0B6D0B520D0B8D181D0BFD0BED0BBD18CD0B7D0BED0B2D0B0 PUSH1 0x44 DUP3 ADD MSTORE PUSH11 0x342EF42E08342EB42FB42D PUSH1 0xAA SHL PUSH1 0x64 DUP3 ADD MSTORE PUSH1 0x84 ADD PUSH2 0x5DC JUMP JUMPDEST PUSH1 0x5 PUSH1 0x0 SWAP1 SLOAD SWAP1 PUSH2 0x100 EXP SWAP1 DIV PUSH1 0x1 PUSH1 0x1 PUSH1 0xA0 SHL SUB AND PUSH1 0x1 PUSH1 0x1 PUSH1 0xA0 SHL SUB AND PUSH4 0x5CD07EE6 PUSH1 0x40 MLOAD DUP2 PUSH4 0xFFFFFFFF AND PUSH1 0xE0 SHL DUP2 MSTORE PUSH1 0x4 ADD PUSH1 0x0 PUSH1 0x40 MLOAD DUP1 DUP4 SUB DUP2 PUSH1 0x0 DUP8 DUP1 EXTCODESIZE ISZERO DUP1 ISZERO PUSH2 0x24F7 JUMPI PUSH1 0x0 DUP1 REVERT JUMPDEST POP GAS CALL ISZERO DUP1 ISZERO PUSH2 0x250B JUMPI RETURNDATASIZE PUSH1 0x0 DUP1 RETURNDATACOPY RETURNDATASIZE PUSH1 0x0 REVERT JUMPDEST POP POP CALLER PUSH1 0x0 SWAP1 DUP2 MSTORE PUSH1 0x7 PUSH1 0x20 MSTORE PUSH1 0x40 SWAP1 DUP2 SWAP1 KECCAK256 DUP1 SLOAD PUSH1 0xFF NOT AND PUSH1 0x1 OR SWAP1 SSTORE MLOAD PUSH1 0x3 SWAP3 POP PUSH1 0x6 SWAP2 POP PUSH2 0x253D SWAP1 DUP5 SWAP1 PUSH2 0x5AEE JUMP JUMPDEST SWAP1 DUP2 MSTORE PUSH1 0x20 ADD PUSH1 0x40 MLOAD DUP1 SWAP2 SUB SWAP1 KECCAK256 PUSH1 0x2 ADD SLOAD LT ISZERO PUSH2 0x25A7 JUMPI PUSH1 0x6 DUP2 PUSH1 0x40 MLOAD PUSH2 0x2565 SWAP2 SWAP1 PUSH2 0x5AEE JUMP JUMPDEST SWAP1 DUP2 MSTORE PUSH1 0x20 ADD PUSH1 0x40 MLOAD DUP1 SWAP2 SUB SWAP1 KECCAK256 PUSH1 0x2 ADD SLOAD PUSH1 0x1 PUSH2 0x2583 SWAP2 SWAP1 PUSH2 0x5A84 JUMP JUMPDEST PUSH1 0x6 DUP3 PUSH1 0x40 MLOAD PUSH2 0x2593 SWAP2 SWAP1 PUSH2 0x5AEE JUMP JUMPDEST SWAP1 DUP2 MSTORE PUSH1 0x40 MLOAD SWAP1 DUP2 SWAP1 SUB PUSH1 0x20 ADD SWAP1 KECCAK256 PUSH1 0x2 ADD SSTORE JUMPDEST POP JUMP JUMPDEST PUSH2 0x25B5 CALLER DUP4 DUP4 PUSH2 0x45FC JUMP JUMPDEST POP POP JUMP JUMPDEST PUSH1 0x60 PUSH1 0xE DUP1 SLOAD DUP1 PUSH1 0x20 MUL PUSH1 0x20 ADD PUSH1 0x40 MLOAD SWAP1 DUP2 ADD PUSH1 0x40 MSTORE DUP1 SWAP3 SWAP2 SWAP1 DUP2 DUP2 MSTORE PUSH1 0x20 ADD PUSH1 0x0 SWAP1 JUMPDEST DUP3 DUP3 LT ISZERO PUSH2 0xF4B JUMPI DUP4 DUP3 SWAP1 PUSH1 0x0 MSTORE PUSH1 0x20 PUSH1 0x0 KECCAK256 SWAP1 PUSH1 0x4 MUL ADD PUSH1 0x40 MLOAD DUP1 PUSH1 0x80 ADD PUSH1 0x40 MSTORE SWAP1 DUP2 PUSH1 0x0 DUP3 ADD DUP1 SLOAD PUSH2 0x2610 SWAP1 PUSH2 0x57E4 JUMP JUMPDEST DUP1 PUSH1 0x1F ADD PUSH1 0x20 DUP1 SWAP2 DIV MUL PUSH1 0x20 ADD PUSH1 0x40 MLOAD SWAP1 DUP2 ADD PUSH1 0x40 MSTORE DUP1 SWAP3 SWAP2 SWAP1 DUP2 DUP2 MSTORE PUSH1 0x20 ADD DUP3 DUP1 SLOAD PUSH2 0x263C SWAP1 PUSH2 0x57E4 JUMP JUMPDEST DUP1 ISZERO PUSH2 0x2689 JUMPI DUP1 PUSH1 0x1F LT PUSH2 0x265E JUMPI PUSH2 0x100 DUP1 DUP4 SLOAD DIV MUL DUP4 MSTORE SWAP2 PUSH1 0x20 ADD SWAP2 PUSH2 0x2689 JUMP JUMPDEST DUP3 ADD SWAP2 SWAP1 PUSH1 0x0 MSTORE PUSH1 0x20 PUSH1 0x0 KECCAK256 SWAP1 JUMPDEST DUP2 SLOAD DUP2 MSTORE SWAP1 PUSH1 0x1 ADD SWAP1 PUSH1 0x20 ADD DUP1 DUP4 GT PUSH2 0x266C JUMPI DUP3 SWAP1 SUB PUSH1 0x1F AND DUP3 ADD SWAP2 JUMPDEST POP POP POP POP POP DUP2 MSTORE PUSH1 0x20 ADD PUSH1 0x1 DUP3 ADD PUSH1 0x0 SWAP1 SLOAD SWAP1 PUSH2 0x100 EXP SWAP1 DIV PUSH1 0x1 PUSH1 0x1 PUSH1 0xA0 SHL SUB AND PUSH1 0x1 PUSH1 0x1 PUSH1 0xA0 SHL SUB AND PUSH1 0x1 PUSH1 0x1 PUSH1 0xA0 SHL SUB AND DUP2 MSTORE PUSH1 0x20 ADD PUSH1 0x2 DUP3 ADD SLOAD DUP2 MSTORE PUSH1 0x20 ADD PUSH1 0x3 DUP3 ADD DUP1 SLOAD DUP1 PUSH1 0x20 MUL PUSH1 0x20 ADD PUSH1 0x40 MLOAD SWAP1 DUP2 ADD PUSH1 0x40 MSTORE DUP1 SWAP3 SWAP2 SWAP1 DUP2 DUP2 MSTORE PUSH1 0x20 ADD DUP3 DUP1 SLOAD DUP1 ISZERO PUSH2 0x2724 JUMPI PUSH1 0x20 MUL DUP3 ADD SWAP2 SWAP1 PUSH1 0x0 MSTORE PUSH1 0x20 PUSH1 0x0 KECCAK256 SWAP1 JUMPDEST DUP2 SLOAD PUSH1 0x1 PUSH1 0x1 PUSH1 0xA0 SHL SUB AND DUP2 MSTORE PUSH1 0x1 SWAP1 SWAP2 ADD SWAP1 PUSH1 0x20 ADD DUP1 DUP4 GT PUSH2 0x2706 JUMPI JUMPDEST POP POP POP POP POP DUP2 MSTORE POP POP DUP2 MSTORE PUSH1 0x20 ADD SWAP1 PUSH1 0x1 ADD SWAP1 PUSH2 0x25DD JUMP JUMPDEST PUSH1 0x11 DUP2 DUP2 SLOAD DUP2 LT PUSH2 0x274F JUMPI PUSH2 0x274F PUSH2 0x5902 JUMP JUMPDEST SWAP1 PUSH1 0x0 MSTORE PUSH1 0x20 PUSH1 0x0 KECCAK256 SWAP1 PUSH1 0x7 MUL ADD PUSH1 0x3 ADD SLOAD TIMESTAMP PUSH2 0x276C SWAP2 SWAP1 PUSH2 0x5B0A JUMP JUMPDEST PUSH1 0x11 DUP3 DUP2 SLOAD DUP2 LT PUSH2 0x277F JUMPI PUSH2 0x277F PUSH2 0x5902 JUMP JUMPDEST SWAP1 PUSH1 0x0 MSTORE PUSH1 0x20 PUSH1 0x0 KECCAK256 SWAP1 PUSH1 0x7 MUL ADD PUSH1 0x2 ADD SLOAD TIMESTAMP PUSH2 0x279C SWAP2 SWAP1 PUSH2 0x5B0A JUMP JUMPDEST GT PUSH2 0x25A7 JUMPI PUSH2 0x25A7 DUP2 PUSH2 0x3B65 JUMP JUMPDEST PUSH1 0x4 SLOAD PUSH1 0x1 PUSH1 0x1 PUSH1 0xA0 SHL SUB AND CALLER EQ PUSH2 0x27D4 JUMPI PUSH1 0x40 MLOAD PUSH3 0x461BCD PUSH1 0xE5 SHL DUP2 MSTORE PUSH1 0x4 ADD PUSH2 0x5DC SWAP1 PUSH2 0x5894 JUMP JUMPDEST PUSH1 0x0 DUP7 DUP2 MSTORE PUSH1 0x8 PUSH1 0x20 MSTORE PUSH1 0x40 SWAP1 KECCAK256 PUSH1 0x5 ADD SLOAD ISZERO PUSH2 0x2852 JUMPI PUSH1 0x40 MLOAD PUSH3 0x461BCD PUSH1 0xE5 SHL DUP2 MSTORE PUSH1 0x20 PUSH1 0x4 DUP3 ADD MSTORE PUSH1 0x36 PUSH1 0x24 DUP3 ADD MSTORE PUSH32 0x4E465420D18120D182D0B0D0BAD0B8D0BC20696420D183D0B6D0B520D0B5D181 PUSH1 0x44 DUP3 ADD MSTORE PUSH22 0xD182D18C20D0B220D181D0B8D181D182D0B5D0BCD0B5 PUSH1 0x50 SHL PUSH1 0x64 DUP3 ADD MSTORE PUSH1 0x84 ADD PUSH2 0x5DC JUMP JUMPDEST PUSH2 0x286D CALLER DUP8 DUP4 PUSH1 0x40 MLOAD DUP1 PUSH1 0x20 ADD PUSH1 0x40 MSTORE DUP1 PUSH1 0x0 DUP2 MSTORE POP PUSH2 0x4692 JUMP JUMPDEST PUSH1 0x40 DUP1 MLOAD PUSH2 0x100 DUP2 ADD DUP3 MSTORE DUP8 DUP2 MSTORE CALLER PUSH1 0x0 SWAP1 DUP2 MSTORE PUSH1 0x9 PUSH1 0x20 SWAP1 DUP2 MSTORE DUP4 DUP3 KECCAK256 SLOAD DUP2 DUP5 ADD SWAP1 DUP2 MSTORE DUP4 DUP6 ADD DUP11 DUP2 MSTORE PUSH1 0x60 DUP6 ADD DUP11 SWAP1 MSTORE PUSH1 0x80 DUP6 ADD DUP10 SWAP1 MSTORE PUSH1 0xA0 DUP6 ADD DUP9 SWAP1 MSTORE PUSH1 0xC0 DUP6 ADD DUP8 SWAP1 MSTORE TIMESTAMP PUSH1 0xE0 DUP7 ADD MSTORE DUP12 DUP5 MSTORE PUSH1 0x8 SWAP1 SWAP3 MSTORE SWAP4 SWAP1 SWAP2 KECCAK256 DUP3 MLOAD DUP2 SSTORE SWAP3 MLOAD PUSH1 0x1 DUP5 ADD SSTORE MLOAD SWAP1 SWAP2 SWAP1 PUSH1 0x2 DUP3 ADD SWAP1 PUSH2 0x28E4 SWAP1 DUP3 PUSH2 0x598D JUMP JUMPDEST POP PUSH1 0x60 DUP3 ADD MLOAD PUSH1 0x3 DUP3 ADD SWAP1 PUSH2 0x28F9 SWAP1 DUP3 PUSH2 0x598D JUMP JUMPDEST POP PUSH1 0x80 DUP3 ADD MLOAD PUSH1 0x4 DUP3 ADD SWAP1 PUSH2 0x290E SWAP1 DUP3 PUSH2 0x598D JUMP JUMPDEST POP PUSH1 0xA0 DUP3 DUP2 ADD MLOAD PUSH1 0x5 DUP4 ADD SSTORE PUSH1 0xC0 DUP1 DUP5 ADD MLOAD PUSH1 0x6 DUP5 ADD SSTORE PUSH1 0xE0 SWAP4 DUP5 ADD MLOAD PUSH1 0x7 SWAP1 SWAP4 ADD SWAP3 SWAP1 SWAP3 SSTORE CALLER PUSH1 0x0 SWAP1 DUP2 MSTORE PUSH1 0x9 PUSH1 0x20 DUP2 DUP2 MSTORE PUSH1 0x40 DUP1 DUP5 KECCAK256 DUP2 MLOAD PUSH2 0x100 DUP2 ADD DUP4 MSTORE DUP15 DUP2 MSTORE SWAP4 DUP4 MSTORE DUP1 SLOAD DUP5 DUP5 ADD DUP2 DUP2 MSTORE SWAP3 DUP6 ADD DUP15 DUP2 MSTORE PUSH1 0x60 DUP7 ADD DUP15 SWAP1 MSTORE PUSH1 0x80 DUP7 ADD DUP14 SWAP1 MSTORE SWAP7 DUP6 ADD DUP12 SWAP1 MSTORE SWAP7 DUP5 ADD DUP10 SWAP1 MSTORE TIMESTAMP SWAP8 DUP5 ADD SWAP8 SWAP1 SWAP8 MSTORE PUSH1 0x1 DUP1 DUP8 ADD DUP9 SSTORE SWAP7 DUP5 MSTORE SWAP3 KECCAK256 DUP2 MLOAD PUSH1 0x8 SWAP1 SWAP6 MUL ADD SWAP4 DUP5 SSTORE SWAP1 MLOAD SWAP4 DUP4 ADD SWAP4 SWAP1 SWAP4 SSTORE MLOAD PUSH1 0x2 DUP3 ADD SWAP1 PUSH2 0x29B5 SWAP1 DUP3 PUSH2 0x598D JUMP JUMPDEST POP PUSH1 0x60 DUP3 ADD MLOAD PUSH1 0x3 DUP3 ADD SWAP1 PUSH2 0x29CA SWAP1 DUP3 PUSH2 0x598D JUMP JUMPDEST POP PUSH1 0x80 DUP3 ADD MLOAD PUSH1 0x4 DUP3 ADD SWAP1 PUSH2 0x29DF SWAP1 DUP3 PUSH2 0x598D JUMP JUMPDEST POP PUSH1 0xA0 DUP3 ADD MLOAD DUP2 PUSH1 0x5 ADD SSTORE PUSH1 0xC0 DUP3 ADD MLOAD DUP2 PUSH1 0x6 ADD SSTORE PUSH1 0xE0 DUP3 ADD MLOAD DUP2 PUSH1 0x7 ADD SSTORE POP POP POP POP POP POP POP POP JUMP JUMPDEST PUSH1 0x0 PUSH1 0x64 DUP3 DUP5 PUSH1 0xD DUP8 DUP2 SLOAD DUP2 LT PUSH2 0x2A21 JUMPI PUSH2 0x2A21 PUSH2 0x5902 JUMP JUMPDEST SWAP1 PUSH1 0x0 MSTORE PUSH1 0x20 PUSH1 0x0 KECCAK256 SWAP1 PUSH1 0x6 MUL ADD PUSH1 0x5 ADD SLOAD PUSH2 0x2A3D SWAP2 SWAP1 PUSH2 0x592E JUMP JUMPDEST PUSH2 0x2A47 SWAP2 SWAP1 PUSH2 0x592E JUMP JUMPDEST PUSH2 0x2A51 SWAP2 SWAP1 PUSH2 0x5B1D JUMP JUMPDEST DUP4 PUSH1 0xD DUP7 DUP2 SLOAD DUP2 LT PUSH2 0x2A65 JUMPI PUSH2 0x2A65 PUSH2 0x5902 JUMP JUMPDEST SWAP1 PUSH1 0x0 MSTORE PUSH1 0x20 PUSH1 0x0 KECCAK256 SWAP1 PUSH1 0x6 MUL ADD PUSH1 0x5 ADD SLOAD PUSH2 0x2A81 SWAP2 SWAP1 PUSH2 0x592E JUMP JUMPDEST PUSH2 0x2A8B SWAP2 SWAP1 PUSH2 0x5B0A JUMP JUMPDEST SWAP1 POP DUP3 PUSH1 0xD DUP6 DUP2 SLOAD DUP2 LT PUSH2 0x2AA1 JUMPI PUSH2 0x2AA1 PUSH2 0x5902 JUMP JUMPDEST SWAP1 PUSH1 0x0 MSTORE PUSH1 0x20 PUSH1 0x0 KECCAK256 SWAP1 PUSH1 0x6 MUL ADD PUSH1 0x4 ADD SLOAD LT ISZERO PUSH2 0x2B32 JUMPI PUSH1 0x40 MLOAD PUSH3 0x461BCD PUSH1 0xE5 SHL DUP2 MSTORE PUSH1 0x20 PUSH1 0x4 DUP3 ADD MSTORE PUSH1 0x42 PUSH1 0x24 DUP3 ADD MSTORE PUSH32 0xD092D18B20D0BFD18BD182D0B0D0B5D182D0B5D181D18C20D0BAD183D0BFD0B8 PUSH1 0x44 DUP3 ADD MSTORE PUSH32 0xD182D18C20D0B1D0BED0BBD18CD188D0B52C20D187D0B5D0BC20D0B5D181D182 PUSH1 0x64 DUP3 ADD MSTORE PUSH2 0x3463 PUSH1 0xF2 SHL PUSH1 0x84 DUP3 ADD MSTORE PUSH1 0xA4 ADD PUSH2 0x5DC JUMP JUMPDEST PUSH2 0x2BA9 PUSH1 0xD DUP6 DUP2 SLOAD DUP2 LT PUSH2 0x2B48 JUMPI PUSH2 0x2B48 PUSH2 0x5902 JUMP JUMPDEST SWAP1 PUSH1 0x0 MSTORE PUSH1 0x20 PUSH1 0x0 KECCAK256 SWAP1 PUSH1 0x6 MUL ADD PUSH1 0x3 ADD PUSH1 0x0 SWAP1 SLOAD SWAP1 PUSH2 0x100 EXP SWAP1 DIV PUSH1 0x1 PUSH1 0x1 PUSH1 0xA0 SHL SUB AND CALLER PUSH1 0xD DUP8 DUP2 SLOAD DUP2 LT PUSH2 0x2B81 JUMPI PUSH2 0x2B81 PUSH2 0x5902 JUMP JUMPDEST SWAP1 PUSH1 0x0 MSTORE PUSH1 0x20 PUSH1 0x0 KECCAK256 SWAP1 PUSH1 0x6 MUL ADD PUSH1 0x1 ADD SLOAD DUP7 PUSH1 0x40 MLOAD DUP1 PUSH1 0x20 ADD PUSH1 0x40 MSTORE DUP1 PUSH1 0x0 DUP2 MSTORE POP PUSH2 0x456E JUMP JUMPDEST PUSH1 0x5 SLOAD PUSH1 0xD DUP1 SLOAD PUSH1 0x1 PUSH1 0x1 PUSH1 0xA0 SHL SUB SWAP1 SWAP3 AND SWAP2 PUSH4 0xF5537EDE SWAP2 CALLER SWAP2 DUP9 SWAP1 DUP2 LT PUSH2 0x2BD4 JUMPI PUSH2 0x2BD4 PUSH2 0x5902 JUMP JUMPDEST PUSH1 0x0 SWAP2 DUP3 MSTORE PUSH1 0x20 SWAP1 SWAP2 KECCAK256 PUSH1 0x6 SWAP1 SWAP2 MUL ADD PUSH1 0x3 ADD SLOAD PUSH1 0x40 MLOAD PUSH1 0xE0 DUP5 SWAP1 SHL PUSH1 0x1 PUSH1 0x1 PUSH1 0xE0 SHL SUB NOT AND DUP2 MSTORE PUSH1 0x1 PUSH1 0x1 PUSH1 0xA0 SHL SUB SWAP3 DUP4 AND PUSH1 0x4 DUP3 ADD MSTORE SWAP2 AND PUSH1 0x24 DUP3 ADD MSTORE PUSH1 0x44 DUP2 ADD DUP5 SWAP1 MSTORE PUSH1 0x64 ADD PUSH1 0x0 PUSH1 0x40 MLOAD DUP1 DUP4 SUB DUP2 PUSH1 0x0 DUP8 DUP1 EXTCODESIZE ISZERO DUP1 ISZERO PUSH2 0x2C37 JUMPI PUSH1 0x0 DUP1 REVERT JUMPDEST POP GAS CALL ISZERO DUP1 ISZERO PUSH2 0x2C4B JUMPI RETURNDATASIZE PUSH1 0x0 DUP1 RETURNDATACOPY RETURNDATASIZE PUSH1 0x0 REVERT JUMPDEST POP POP POP POP DUP3 PUSH1 0xD DUP6 DUP2 SLOAD DUP2 LT PUSH2 0x2C63 JUMPI PUSH2 0x2C63 PUSH2 0x5902 JUMP JUMPDEST SWAP1 PUSH1 0x0 MSTORE PUSH1 0x20 PUSH1 0x0 KECCAK256 SWAP1 PUSH1 0x6 MUL ADD PUSH1 0x4 ADD PUSH1 0x0 DUP3 DUP3 SLOAD PUSH2 0x2C83 SWAP2 SWAP1 PUSH2 0x5B0A JUMP JUMPDEST SWAP3 POP POP DUP2 SWAP1 SSTORE POP DUP3 PUSH1 0x9 PUSH1 0x0 PUSH1 0xD DUP8 DUP2 SLOAD DUP2 LT PUSH2 0x2CA2 JUMPI PUSH2 0x2CA2 PUSH2 0x5902 JUMP JUMPDEST PUSH1 0x0 SWAP2 DUP3 MSTORE PUSH1 0x20 DUP1 DUP4 KECCAK256 PUSH1 0x3 PUSH1 0x6 SWAP1 SWAP4 MUL ADD SWAP2 SWAP1 SWAP2 ADD SLOAD PUSH1 0x1 PUSH1 0x1 PUSH1 0xA0 SHL SUB AND DUP4 MSTORE DUP3 ADD SWAP3 SWAP1 SWAP3 MSTORE PUSH1 0x40 ADD SWAP1 KECCAK256 PUSH1 0xD DUP1 SLOAD DUP8 SWAP1 DUP2 LT PUSH2 0x2CE3 JUMPI PUSH2 0x2CE3 PUSH2 0x5902 JUMP JUMPDEST SWAP1 PUSH1 0x0 MSTORE PUSH1 0x20 PUSH1 0x0 KECCAK256 SWAP1 PUSH1 0x6 MUL ADD PUSH1 0x1 ADD SLOAD DUP2 SLOAD DUP2 LT PUSH2 0x2D05 JUMPI PUSH2 0x2D05 PUSH2 0x5902 JUMP JUMPDEST SWAP1 PUSH1 0x0 MSTORE PUSH1 0x20 PUSH1 0x0 KECCAK256 SWAP1 PUSH1 0x8 MUL ADD PUSH1 0x6 ADD PUSH1 0x0 DUP3 DUP3 SLOAD PUSH2 0x2D25 SWAP2 SWAP1 PUSH2 0x5B0A JUMP JUMPDEST SWAP1 SWAP2 SSTORE POP POP CALLER PUSH1 0x0 DUP2 DUP2 MSTORE PUSH1 0x9 PUSH1 0x20 DUP2 DUP2 MSTORE PUSH1 0x40 DUP1 DUP5 KECCAK256 DUP2 MLOAD PUSH2 0x100 DUP2 ADD DUP4 MSTORE DUP11 DUP2 MSTORE SWAP6 DUP6 MSTORE SWAP3 DUP3 MSTORE DUP3 SLOAD SWAP2 DUP6 ADD SWAP2 SWAP1 SWAP2 MSTORE PUSH1 0xD DUP1 SLOAD SWAP3 SWAP5 SWAP4 SWAP2 DUP5 ADD SWAP3 PUSH1 0x8 SWAP3 SWAP2 SWAP1 DUP11 SWAP1 DUP2 LT PUSH2 0x2D77 JUMPI PUSH2 0x2D77 PUSH2 0x5902 JUMP JUMPDEST SWAP1 PUSH1 0x0 MSTORE PUSH1 0x20 PUSH1 0x0 KECCAK256 SWAP1 PUSH1 0x6 MUL ADD PUSH1 0x1 ADD SLOAD DUP2 MSTORE PUSH1 0x20 ADD SWAP1 DUP2 MSTORE PUSH1 0x20 ADD PUSH1 0x0 KECCAK256 PUSH1 0x2 ADD DUP1 SLOAD PUSH2 0x2DA5 SWAP1 PUSH2 0x57E4 JUMP JUMPDEST DUP1 PUSH1 0x1F ADD PUSH1 0x20 DUP1 SWAP2 DIV MUL PUSH1 0x20 ADD PUSH1 0x40 MLOAD SWAP1 DUP2 ADD PUSH1 0x40 MSTORE DUP1 SWAP3 SWAP2 SWAP1 DUP2 DUP2 MSTORE PUSH1 0x20 ADD DUP3 DUP1 SLOAD PUSH2 0x2DD1 SWAP1 PUSH2 0x57E4 JUMP JUMPDEST DUP1 ISZERO PUSH2 0x2E1E JUMPI DUP1 PUSH1 0x1F LT PUSH2 0x2DF3 JUMPI PUSH2 0x100 DUP1 DUP4 SLOAD DIV MUL DUP4 MSTORE SWAP2 PUSH1 0x20 ADD SWAP2 PUSH2 0x2E1E JUMP JUMPDEST DUP3 ADD SWAP2 SWAP1 PUSH1 0x0 MSTORE PUSH1 0x20 PUSH1 0x0 KECCAK256 SWAP1 JUMPDEST DUP2 SLOAD DUP2 MSTORE SWAP1 PUSH1 0x1 ADD SWAP1 PUSH1 0x20 ADD DUP1 DUP4 GT PUSH2 0x2E01 JUMPI DUP3 SWAP1 SUB PUSH1 0x1F AND DUP3 ADD SWAP2 JUMPDEST POP POP POP POP POP DUP2 MSTORE PUSH1 0x20 ADD PUSH1 0x8 PUSH1 0x0 PUSH1 0xD DUP10 DUP2 SLOAD DUP2 LT PUSH2 0x2E3F JUMPI PUSH2 0x2E3F PUSH2 0x5902 JUMP JUMPDEST SWAP1 PUSH1 0x0 MSTORE PUSH1 0x20 PUSH1 0x0 KECCAK256 SWAP1 PUSH1 0x6 MUL ADD PUSH1 0x1 ADD SLOAD DUP2 MSTORE PUSH1 0x20 ADD SWAP1 DUP2 MSTORE PUSH1 0x20 ADD PUSH1 0x0 KECCAK256 PUSH1 0x3 ADD DUP1 SLOAD PUSH2 0x2E6D SWAP1 PUSH2 0x57E4 JUMP JUMPDEST DUP1 PUSH1 0x1F ADD PUSH1 0x20 DUP1 SWAP2 DIV MUL PUSH1 0x20 ADD PUSH1 0x40 MLOAD SWAP1 DUP2 ADD PUSH1 0x40 MSTORE DUP1 SWAP3 SWAP2 SWAP1 DUP2 DUP2 MSTORE PUSH1 0x20 ADD DUP3 DUP1 SLOAD PUSH2 0x2E99 SWAP1 PUSH2 0x57E4 JUMP JUMPDEST DUP1 ISZERO PUSH2 0x2EE6 JUMPI DUP1 PUSH1 0x1F LT PUSH2 0x2EBB JUMPI PUSH2 0x100 DUP1 DUP4 SLOAD DIV MUL DUP4 MSTORE SWAP2 PUSH1 0x20 ADD SWAP2 PUSH2 0x2EE6 JUMP JUMPDEST DUP3 ADD SWAP2 SWAP1 PUSH1 0x0 MSTORE PUSH1 0x20 PUSH1 0x0 KECCAK256 SWAP1 JUMPDEST DUP2 SLOAD DUP2 MSTORE SWAP1 PUSH1 0x1 ADD SWAP1 PUSH1 0x20 ADD DUP1 DUP4 GT PUSH2 0x2EC9 JUMPI DUP3 SWAP1 SUB PUSH1 0x1F AND DUP3 ADD SWAP2 JUMPDEST POP POP POP POP POP DUP2 MSTORE PUSH1 0x20 ADD PUSH1 0x8 PUSH1 0x0 PUSH1 0xD DUP10 DUP2 SLOAD DUP2 LT PUSH2 0x2F07 JUMPI PUSH2 0x2F07 PUSH2 0x5902 JUMP JUMPDEST SWAP1 PUSH1 0x0 MSTORE PUSH1 0x20 PUSH1 0x0 KECCAK256 SWAP1 PUSH1 0x6 MUL ADD PUSH1 0x1 ADD SLOAD DUP2 MSTORE PUSH1 0x20 ADD SWAP1 DUP2 MSTORE PUSH1 0x20 ADD PUSH1 0x0 KECCAK256 PUSH1 0x4 ADD DUP1 SLOAD PUSH2 0x2F35 SWAP1 PUSH2 0x57E4 JUMP JUMPDEST DUP1 PUSH1 0x1F ADD PUSH1 0x20 DUP1 SWAP2 DIV MUL PUSH1 0x20 ADD PUSH1 0x40 MLOAD SWAP1 DUP2 ADD PUSH1 0x40 MSTORE DUP1 SWAP3 SWAP2 SWAP1 DUP2 DUP2 MSTORE PUSH1 0x20 ADD DUP3 DUP1 SLOAD PUSH2 0x2F61 SWAP1 PUSH2 0x57E4 JUMP JUMPDEST DUP1 ISZERO PUSH2 0x2FAE JUMPI DUP1 PUSH1 0x1F LT PUSH2 0x2F83 JUMPI PUSH2 0x100 DUP1 DUP4 SLOAD DIV MUL DUP4 MSTORE SWAP2 PUSH1 0x20 ADD SWAP2 PUSH2 0x2FAE JUMP JUMPDEST DUP3 ADD SWAP2 SWAP1 PUSH1 0x0 MSTORE PUSH1 0x20 PUSH1 0x0 KECCAK256 SWAP1 JUMPDEST DUP2 SLOAD DUP2 MSTORE SWAP1 PUSH1 0x1 ADD SWAP1 PUSH1 0x20 ADD DUP1 DUP4 GT PUSH2 0x2F91 JUMPI DUP3 SWAP1 SUB PUSH1 0x1F AND DUP3 ADD SWAP2 JUMPDEST POP POP POP POP POP DUP2 MSTORE PUSH1 0x20 ADD DUP6 DUP2 MSTORE PUSH1 0x20 ADD PUSH1 0xD DUP8 DUP2 SLOAD DUP2 LT PUSH2 0x2FD1 JUMPI PUSH2 0x2FD1 PUSH2 0x5902 JUMP JUMPDEST SWAP1 PUSH1 0x0 MSTORE PUSH1 0x20 PUSH1 0x0 KECCAK256 SWAP1 PUSH1 0x6 MUL ADD PUSH1 0x5 ADD SLOAD DUP2 MSTORE PUSH1 0x20 ADD PUSH1 0x8 PUSH1 0x0 PUSH1 0xD DUP10 DUP2 SLOAD DUP2 LT PUSH2 0x2FFF JUMPI PUSH2 0x2FFF PUSH2 0x5902 JUMP JUMPDEST PUSH1 0x0 SWAP2 DUP3 MSTORE PUSH1 0x20 DUP1 DUP4 KECCAK256 PUSH1 0x1 PUSH1 0x6 SWAP1 SWAP4 MUL ADD DUP3 ADD SLOAD DUP5 MSTORE DUP4 DUP2 ADD SWAP5 SWAP1 SWAP5 MSTORE PUSH1 0x40 SWAP3 DUP4 ADD DUP3 KECCAK256 PUSH1 0x7 ADD SLOAD SWAP1 SWAP5 MSTORE DUP6 SLOAD DUP1 DUP6 ADD DUP8 SSTORE SWAP6 DUP2 MSTORE DUP3 SWAP1 KECCAK256 DUP5 MLOAD PUSH1 0x8 SWAP1 SWAP7 MUL ADD SWAP5 DUP6 SSTORE SWAP1 DUP4 ADD MLOAD SWAP2 DUP5 ADD SWAP2 SWAP1 SWAP2 SSTORE DUP2 ADD MLOAD SWAP1 SWAP2 SWAP1 PUSH1 0x2 DUP3 ADD SWAP1 PUSH2 0x3063 SWAP1 DUP3 PUSH2 0x598D JUMP JUMPDEST POP PUSH1 0x60 DUP3 ADD MLOAD PUSH1 0x3 DUP3 ADD SWAP1 PUSH2 0x3078 SWAP1 DUP3 PUSH2 0x598D JUMP JUMPDEST POP PUSH1 0x80 DUP3 ADD MLOAD PUSH1 0x4 DUP3 ADD SWAP1 PUSH2 0x308D SWAP1 DUP3 PUSH2 0x598D JUMP JUMPDEST POP PUSH1 0xA0 DUP3 ADD MLOAD DUP2 PUSH1 0x5 ADD SSTORE PUSH1 0xC0 DUP3 ADD MLOAD DUP2 PUSH1 0x6 ADD SSTORE PUSH1 0xE0 DUP3 ADD MLOAD DUP2 PUSH1 0x7 ADD SSTORE POP POP PUSH1 0x9 PUSH1 0x0 PUSH1 0xD DUP7 DUP2 SLOAD DUP2 LT PUSH2 0x30C5 JUMPI PUSH2 0x30C5 PUSH2 0x5902 JUMP JUMPDEST PUSH1 0x0 SWAP2 DUP3 MSTORE PUSH1 0x20 DUP1 DUP4 KECCAK256 PUSH1 0x3 PUSH1 0x6 SWAP1 SWAP4 MUL ADD SWAP2 SWAP1 SWAP2 ADD SLOAD PUSH1 0x1 PUSH1 0x1 PUSH1 0xA0 SHL SUB AND DUP4 MSTORE DUP3 ADD SWAP3 SWAP1 SWAP3 MSTORE PUSH1 0x40 ADD SWAP1 KECCAK256 PUSH1 0xD DUP1 SLOAD DUP7 SWAP1 DUP2 LT PUSH2 0x3106 JUMPI PUSH2 0x3106 PUSH2 0x5902 JUMP JUMPDEST SWAP1 PUSH1 0x0 MSTORE PUSH1 0x20 PUSH1 0x0 KECCAK256 SWAP1 PUSH1 0x6 MUL ADD PUSH1 0x1 ADD SLOAD DUP2 SLOAD DUP2 LT PUSH2 0x3128 JUMPI PUSH2 0x3128 PUSH2 0x5902 JUMP JUMPDEST SWAP1 PUSH1 0x0 MSTORE PUSH1 0x20 PUSH1 0x0 KECCAK256 SWAP1 PUSH1 0x8 MUL ADD PUSH1 0x6 ADD SLOAD PUSH1 0x0 SUB PUSH2 0x318E JUMPI PUSH1 0x9 PUSH1 0x0 PUSH1 0xD DUP7 DUP2 SLOAD DUP2 LT PUSH2 0x3158 JUMPI PUSH2 0x3158 PUSH2 0x5902 JUMP JUMPDEST PUSH1 0x0 SWAP2 DUP3 MSTORE PUSH1 0x20 DUP1 DUP4 KECCAK256 PUSH1 0x3 PUSH1 0x6 SWAP1 SWAP4 MUL ADD SWAP2 SWAP1 SWAP2 ADD SLOAD PUSH1 0x1 PUSH1 0x1 PUSH1 0xA0 SHL SUB AND DUP4 MSTORE DUP3 ADD SWAP3 SWAP1 SWAP3 MSTORE PUSH1 0x40 ADD DUP2 KECCAK256 PUSH2 0x318E SWAP2 PUSH2 0x4C39 JUMP JUMPDEST PUSH1 0xD DUP5 DUP2 SLOAD DUP2 LT PUSH2 0x31A1 JUMPI PUSH2 0x31A1 PUSH2 0x5902 JUMP JUMPDEST SWAP1 PUSH1 0x0 MSTORE PUSH1 0x20 PUSH1 0x0 KECCAK256 SWAP1 PUSH1 0x6 MUL ADD PUSH1 0x4 ADD SLOAD PUSH1 0x0 SUB PUSH2 0x1343 JUMPI PUSH1 0xD DUP5 DUP2 SLOAD DUP2 LT PUSH2 0x31CD JUMPI PUSH2 0x31CD PUSH2 0x5902 JUMP JUMPDEST PUSH1 0x0 SWAP2 DUP3 MSTORE PUSH1 0x20 DUP3 KECCAK256 PUSH1 0x6 SWAP1 SWAP2 MUL ADD DUP2 DUP2 SSTORE PUSH1 0x1 DUP2 ADD DUP3 SWAP1 SSTORE PUSH1 0x2 DUP2 ADD DUP3 SWAP1 SSTORE PUSH1 0x3 DUP2 ADD DUP1 SLOAD PUSH1 0x1 PUSH1 0x1 PUSH1 0xA0 SHL SUB NOT AND SWAP1 SSTORE PUSH1 0x4 DUP2 ADD DUP3 SWAP1 SSTORE PUSH1 0x5 ADD SSTORE POP POP POP POP JUMP JUMPDEST PUSH1 0x1 PUSH1 0x1 PUSH1 0xA0 SHL SUB SWAP2 DUP3 AND PUSH1 0x0 SWAP1 DUP2 MSTORE PUSH1 0x1 PUSH1 0x20 SWAP1 DUP2 MSTORE PUSH1 0x40 DUP1 DUP4 KECCAK256 SWAP4 SWAP1 SWAP5 AND DUP3 MSTORE SWAP2 SWAP1 SWAP2 MSTORE KECCAK256 SLOAD PUSH1 0xFF AND SWAP1 JUMP JUMPDEST PUSH2 0x3286 PUSH1 0x40 MLOAD DUP1 PUSH2 0x100 ADD PUSH1 0x40 MSTORE DUP1 PUSH1 0x0 DUP2 MSTORE PUSH1 0x20 ADD PUSH1 0x0 DUP2 MSTORE PUSH1 0x20 ADD PUSH1 0x60 DUP2 MSTORE PUSH1 0x20 ADD PUSH1 0x60 DUP2 MSTORE PUSH1 0x20 ADD PUSH1 0x60 DUP2 MSTORE PUSH1 0x20 ADD PUSH1 0x0 DUP2 MSTORE PUSH1 0x20 ADD PUSH1 0x0 DUP2 MSTORE PUSH1 0x20 ADD PUSH1 0x0 DUP2 MSTORE POP SWAP1 JUMP JUMPDEST PUSH1 0x8 PUSH1 0x0 DUP4 DUP2 MSTORE PUSH1 0x20 ADD SWAP1 DUP2 MSTORE PUSH1 0x20 ADD PUSH1 0x0 KECCAK256 PUSH1 0x40 MLOAD DUP1 PUSH2 0x100 ADD PUSH1 0x40 MSTORE SWAP1 DUP2 PUSH1 0x0 DUP3 ADD SLOAD DUP2 MSTORE PUSH1 0x20 ADD PUSH1 0x1 DUP3 ADD SLOAD DUP2 MSTORE PUSH1 0x20 ADD PUSH1 0x2 DUP3 ADD DUP1 SLOAD PUSH2 0x32C9 SWAP1 PUSH2 0x57E4 JUMP JUMPDEST DUP1 PUSH1 0x1F ADD PUSH1 0x20 DUP1 SWAP2 DIV MUL PUSH1 0x20 ADD PUSH1 0x40 MLOAD SWAP1 DUP2 ADD PUSH1 0x40 MSTORE DUP1 SWAP3 SWAP2 SWAP1 DUP2 DUP2 MSTORE PUSH1 0x20 ADD DUP3 DUP1 SLOAD PUSH2 0x32F5 SWAP1 PUSH2 0x57E4 JUMP JUMPDEST DUP1 ISZERO PUSH2 0x3342 JUMPI DUP1 PUSH1 0x1F LT PUSH2 0x3317 JUMPI PUSH2 0x100 DUP1 DUP4 SLOAD DIV MUL DUP4 MSTORE SWAP2 PUSH1 0x20 ADD SWAP2 PUSH2 0x3342 JUMP JUMPDEST DUP3 ADD SWAP2 SWAP1 PUSH1 0x0 MSTORE PUSH1 0x20 PUSH1 0x0 KECCAK256 SWAP1 JUMPDEST DUP2 SLOAD DUP2 MSTORE SWAP1 PUSH1 0x1 ADD SWAP1 PUSH1 0x20 ADD DUP1 DUP4 GT PUSH2 0x3325 JUMPI DUP3 SWAP1 SUB PUSH1 0x1F AND DUP3 ADD SWAP2 JUMPDEST POP POP POP POP POP DUP2 MSTORE PUSH1 0x20 ADD PUSH1 0x3 DUP3 ADD DUP1 SLOAD PUSH2 0x335B SWAP1 PUSH2 0x57E4 JUMP JUMPDEST DUP1 PUSH1 0x1F ADD PUSH1 0x20 DUP1 SWAP2 DIV MUL PUSH1 0x20 ADD PUSH1 0x40 MLOAD SWAP1 DUP2 ADD PUSH1 0x40 MSTORE DUP1 SWAP3 SWAP2 SWAP1 DUP2 DUP2 MSTORE PUSH1 0x20 ADD DUP3 DUP1 SLOAD PUSH2 0x3387 SWAP1 PUSH2 0x57E4 JUMP JUMPDEST DUP1 ISZERO PUSH2 0x33D4 JUMPI DUP1 PUSH1 0x1F LT PUSH2 0x33A9 JUMPI PUSH2 0x100 DUP1 DUP4 SLOAD DIV MUL DUP4 MSTORE SWAP2 PUSH1 0x20 ADD SWAP2 PUSH2 0x33D4 JUMP JUMPDEST DUP3 ADD SWAP2 SWAP1 PUSH1 0x0 MSTORE PUSH1 0x20 PUSH1 0x0 KECCAK256 SWAP1 JUMPDEST DUP2 SLOAD DUP2 MSTORE SWAP1 PUSH1 0x1 ADD SWAP1 PUSH1 0x20 ADD DUP1 DUP4 GT PUSH2 0x33B7 JUMPI DUP3 SWAP1 SUB PUSH1 0x1F AND DUP3 ADD SWAP2 JUMPDEST POP POP POP POP POP DUP2 MSTORE PUSH1 0x20 ADD PUSH1 0x4 DUP3 ADD DUP1 SLOAD PUSH2 0x33ED SWAP1 PUSH2 0x57E4 JUMP JUMPDEST DUP1 PUSH1 0x1F ADD PUSH1 0x20 DUP1 SWAP2 DIV MUL PUSH1 0x20 ADD PUSH1 0x40 MLOAD SWAP1 DUP2 ADD PUSH1 0x40 MSTORE DUP1 SWAP3 SWAP2 SWAP1 DUP2 DUP2 MSTORE PUSH1 0x20 ADD DUP3 DUP1 SLOAD PUSH2 0x3419 SWAP1 PUSH2 0x57E4 JUMP JUMPDEST DUP1 ISZERO PUSH2 0x3466 JUMPI DUP1 PUSH1 0x1F LT PUSH2 0x343B JUMPI PUSH2 0x100 DUP1 DUP4 SLOAD DIV MUL DUP4 MSTORE SWAP2 PUSH1 0x20 ADD SWAP2 PUSH2 0x3466 JUMP JUMPDEST DUP3 ADD SWAP2 SWAP1 PUSH1 0x0 MSTORE PUSH1 0x20 PUSH1 0x0 KECCAK256 SWAP1 JUMPDEST DUP2 SLOAD DUP2 MSTORE SWAP1 PUSH1 0x1 ADD SWAP1 PUSH1 0x20 ADD DUP1 DUP4 GT PUSH2 0x3449 JUMPI DUP3 SWAP1 SUB PUSH1 0x1F AND DUP3 ADD SWAP2 JUMPDEST POP POP POP POP POP DUP2 MSTORE PUSH1 0x20 ADD PUSH1 0x5 DUP3 ADD SLOAD DUP2 MSTORE PUSH1 0x20 ADD PUSH1 0x6 DUP3 ADD SLOAD DUP2 MSTORE PUSH1 0x20 ADD PUSH1 0x7 DUP3 ADD SLOAD DUP2 MSTORE POP POP SWAP1 POP SWAP2 SWAP1 POP JUMP JUMPDEST CALLER PUSH1 0x1 PUSH1 0x1 PUSH1 0xA0 SHL SUB DUP7 AND DUP2 EQ DUP1 ISZERO SWAP1 PUSH2 0x34B5 JUMPI POP PUSH2 0x34B3 DUP7 DUP3 PUSH2 0x3210 JUMP JUMPDEST ISZERO JUMPDEST ISZERO PUSH2 0x34E6 JUMPI PUSH1 0x40 MLOAD PUSH4 0x711BEC91 PUSH1 0xE1 SHL DUP2 MSTORE PUSH1 0x1 PUSH1 0x1 PUSH1 0xA0 SHL SUB DUP1 DUP4 AND PUSH1 0x4 DUP4 ADD MSTORE DUP8 AND PUSH1 0x24 DUP3 ADD MSTORE PUSH1 0x44 ADD PUSH2 0x5DC JUMP JUMPDEST PUSH2 0x13A8 DUP7 DUP7 DUP7 DUP7 DUP7 PUSH2 0x456E JUMP JUMPDEST CALLER PUSH1 0x0 SWAP1 DUP2 MSTORE PUSH1 0x9 PUSH1 0x20 MSTORE PUSH1 0x40 SWAP1 KECCAK256 DUP1 SLOAD DUP4 SWAP2 SWAP1 DUP6 SWAP1 DUP2 LT PUSH2 0x3517 JUMPI PUSH2 0x3517 PUSH2 0x5902 JUMP JUMPDEST SWAP1 PUSH1 0x0 MSTORE PUSH1 0x20 PUSH1 0x0 KECCAK256 SWAP1 PUSH1 0x8 MUL ADD PUSH1 0x6 ADD SLOAD LT ISZERO PUSH2 0x3586 JUMPI PUSH1 0x40 MLOAD PUSH3 0x461BCD PUSH1 0xE5 SHL DUP2 MSTORE PUSH1 0x20 PUSH1 0x4 DUP3 ADD MSTORE PUSH1 0x26 PUSH1 0x24 DUP3 ADD MSTORE PUSH32 0xD0A320D0B2D0B0D18120D0BDD0B5D0B4D0BED181D182D0B0D182D0BED187D0BD PUSH1 0x44 DUP3 ADD MSTORE PUSH6 0x342F88139195 PUSH1 0xD2 SHL PUSH1 0x64 DUP3 ADD MSTORE PUSH1 0x84 ADD PUSH2 0x5DC JUMP JUMPDEST PUSH1 0x40 DUP1 MLOAD PUSH1 0xC0 DUP2 ADD DUP3 MSTORE PUSH1 0xD DUP1 SLOAD DUP1 DUP4 MSTORE PUSH1 0x20 DUP4 ADD SWAP8 DUP9 MSTORE SWAP3 DUP3 ADD SWAP6 DUP7 MSTORE CALLER PUSH1 0x60 DUP4 ADD SWAP1 DUP2 MSTORE PUSH1 0x80 DUP4 ADD SWAP6 DUP7 MSTORE PUSH1 0xA0 DUP4 ADD SWAP5 DUP6 MSTORE PUSH1 0x1 DUP5 ADD DUP3 SSTORE PUSH1 0x0 SWAP2 SWAP1 SWAP2 MSTORE SWAP1 MLOAD PUSH32 0xD7B6990105719101DABEB77144F2A3385C8033ACD3AF97E9423A695E81AD1EB5 PUSH1 0x6 SWAP1 SWAP4 MUL SWAP3 DUP4 ADD SSTORE SWAP5 MLOAD PUSH32 0xD7B6990105719101DABEB77144F2A3385C8033ACD3AF97E9423A695E81AD1EB6 DUP3 ADD SSTORE SWAP3 MLOAD PUSH32 0xD7B6990105719101DABEB77144F2A3385C8033ACD3AF97E9423A695E81AD1EB7 DUP5 ADD SSTORE SWAP3 MLOAD PUSH32 0xD7B6990105719101DABEB77144F2A3385C8033ACD3AF97E9423A695E81AD1EB8 DUP4 ADD DUP1 SLOAD PUSH1 0x1 PUSH1 0x1 PUSH1 0xA0 SHL SUB NOT AND PUSH1 0x1 PUSH1 0x1 PUSH1 0xA0 SHL SUB SWAP1 SWAP3 AND SWAP2 SWAP1 SWAP2 OR SWAP1 SSTORE MLOAD PUSH32 0xD7B6990105719101DABEB77144F2A3385C8033ACD3AF97E9423A695E81AD1EB9 DUP3 ADD SSTORE SWAP1 MLOAD PUSH32 0xD7B6990105719101DABEB77144F2A3385C8033ACD3AF97E9423A695E81AD1EBA SWAP1 SWAP2 ADD SSTORE JUMP JUMPDEST PUSH1 0x60 PUSH1 0x10 DUP1 SLOAD DUP1 PUSH1 0x20 MUL PUSH1 0x20 ADD PUSH1 0x40 MLOAD SWAP1 DUP2 ADD PUSH1 0x40 MSTORE DUP1 SWAP3 SWAP2 SWAP1 DUP2 DUP2 MSTORE PUSH1 0x20 ADD PUSH1 0x0 SWAP1 JUMPDEST DUP3 DUP3 LT ISZERO PUSH2 0xF4B JUMPI DUP4 DUP3 SWAP1 PUSH1 0x0 MSTORE PUSH1 0x20 PUSH1 0x0 KECCAK256 SWAP1 PUSH1 0x5 MUL ADD PUSH1 0x40 MLOAD DUP1 PUSH1 0xA0 ADD PUSH1 0x40 MSTORE SWAP1 DUP2 PUSH1 0x0 DUP3 ADD SLOAD DUP2 MSTORE PUSH1 0x20 ADD PUSH1 0x1 DUP3 ADD DUP1 SLOAD PUSH2 0x372F SWAP1 PUSH2 0x57E4 JUMP JUMPDEST DUP1 PUSH1 0x1F ADD PUSH1 0x20 DUP1 SWAP2 DIV MUL PUSH1 0x20 ADD PUSH1 0x40 MLOAD SWAP1 DUP2 ADD PUSH1 0x40 MSTORE DUP1 SWAP3 SWAP2 SWAP1 DUP2 DUP2 MSTORE PUSH1 0x20 ADD DUP3 DUP1 SLOAD PUSH2 0x375B SWAP1 PUSH2 0x57E4 JUMP JUMPDEST DUP1 ISZERO PUSH2 0x37A8 JUMPI DUP1 PUSH1 0x1F LT PUSH2 0x377D JUMPI PUSH2 0x100 DUP1 DUP4 SLOAD DIV MUL DUP4 MSTORE SWAP2 PUSH1 0x20 ADD SWAP2 PUSH2 0x37A8 JUMP JUMPDEST DUP3 ADD SWAP2 SWAP1 PUSH1 0x0 MSTORE PUSH1 0x20 PUSH1 0x0 KECCAK256 SWAP1 JUMPDEST DUP2 SLOAD DUP2 MSTORE SWAP1 PUSH1 0x1 ADD SWAP1 PUSH1 0x20 ADD DUP1 DUP4 GT PUSH2 0x378B JUMPI DUP3 SWAP1 SUB PUSH1 0x1F AND DUP3 ADD SWAP2 JUMPDEST POP POP POP POP POP DUP2 MSTORE PUSH1 0x20 ADD PUSH1 0x2 DUP3 ADD DUP1 SLOAD PUSH2 0x37C1 SWAP1 PUSH2 0x57E4 JUMP JUMPDEST DUP1 PUSH1 0x1F ADD PUSH1 0x20 DUP1 SWAP2 DIV MUL PUSH1 0x20 ADD PUSH1 0x40 MLOAD SWAP1 DUP2 ADD PUSH1 0x40 MSTORE DUP1 SWAP3 SWAP2 SWAP1 DUP2 DUP2 MSTORE PUSH1 0x20 ADD DUP3 DUP1 SLOAD PUSH2 0x37ED SWAP1 PUSH2 0x57E4 JUMP JUMPDEST DUP1 ISZERO PUSH2 0x383A JUMPI DUP1 PUSH1 0x1F LT PUSH2 0x380F JUMPI PUSH2 0x100 DUP1 DUP4 SLOAD DIV MUL DUP4 MSTORE SWAP2 PUSH1 0x20 ADD SWAP2 PUSH2 0x383A JUMP JUMPDEST DUP3 ADD SWAP2 SWAP1 PUSH1 0x0 MSTORE PUSH1 0x20 PUSH1 0x0 KECCAK256 SWAP1 JUMPDEST DUP2 SLOAD DUP2 MSTORE SWAP1 PUSH1 0x1 ADD SWAP1 PUSH1 0x20 ADD DUP1 DUP4 GT PUSH2 0x381D JUMPI DUP3 SWAP1 SUB PUSH1 0x1F AND DUP3 ADD SWAP2 JUMPDEST POP POP POP POP POP DUP2 MSTORE PUSH1 0x20 ADD PUSH1 0x3 DUP3 ADD DUP1 SLOAD DUP1 PUSH1 0x20 MUL PUSH1 0x20 ADD PUSH1 0x40 MLOAD SWAP1 DUP2 ADD PUSH1 0x40 MSTORE DUP1 SWAP3 SWAP2 SWAP1 DUP2 DUP2 MSTORE PUSH1 0x20 ADD DUP3 DUP1 SLOAD DUP1 ISZERO PUSH2 0x3892 JUMPI PUSH1 0x20 MUL DUP3 ADD SWAP2 SWAP1 PUSH1 0x0 MSTORE PUSH1 0x20 PUSH1 0x0 KECCAK256 SWAP1 JUMPDEST DUP2 SLOAD DUP2 MSTORE PUSH1 0x20 ADD SWAP1 PUSH1 0x1 ADD SWAP1 DUP1 DUP4 GT PUSH2 0x387E JUMPI JUMPDEST POP POP POP POP POP DUP2 MSTORE PUSH1 0x20 ADD PUSH1 0x4 DUP3 ADD DUP1 SLOAD DUP1 PUSH1 0x20 MUL PUSH1 0x20 ADD PUSH1 0x40 MLOAD SWAP1 DUP2 ADD PUSH1 0x40 MSTORE DUP1 SWAP3 SWAP2 SWAP1 DUP2 DUP2 MSTORE PUSH1 0x20 ADD DUP3 DUP1 SLOAD DUP1 ISZERO PUSH2 0x38EA JUMPI PUSH1 0x20 MUL DUP3 ADD SWAP2 SWAP1 PUSH1 0x0 MSTORE PUSH1 0x20 PUSH1 0x0 KECCAK256 SWAP1 JUMPDEST DUP2 SLOAD DUP2 MSTORE PUSH1 0x20 ADD SWAP1 PUSH1 0x1 ADD SWAP1 DUP1 DUP4 GT PUSH2 0x38D6 JUMPI JUMPDEST POP POP POP POP POP DUP2 MSTORE POP POP DUP2 MSTORE PUSH1 0x20 ADD SWAP1 PUSH1 0x1 ADD SWAP1 PUSH2 0x36F2 JUMP JUMPDEST PUSH1 0x4 SLOAD PUSH1 0x1 PUSH1 0x1 PUSH1 0xA0 SHL SUB AND CALLER EQ PUSH2 0x392C JUMPI PUSH1 0x40 MLOAD PUSH3 0x461BCD PUSH1 0xE5 SHL DUP2 MSTORE PUSH1 0x4 ADD PUSH2 0x5DC SWAP1 PUSH2 0x5894 JUMP JUMPDEST PUSH1 0x0 JUMPDEST PUSH1 0x11 SLOAD DUP2 LT ISZERO PUSH2 0x39EA JUMPI DUP6 PUSH1 0x11 DUP3 DUP2 SLOAD DUP2 LT PUSH2 0x394D JUMPI PUSH2 0x394D PUSH2 0x5902 JUMP JUMPDEST SWAP1 PUSH1 0x0 MSTORE PUSH1 0x20 PUSH1 0x0 KECCAK256 SWAP1 PUSH1 0x7 MUL ADD PUSH1 0x1 ADD SLOAD SUB PUSH2 0x39E2 JUMPI PUSH1 0x40 MLOAD PUSH3 0x461BCD PUSH1 0xE5 SHL DUP2 MSTORE PUSH1 0x20 PUSH1 0x4 DUP3 ADD MSTORE PUSH1 0x47 PUSH1 0x24 DUP3 ADD MSTORE PUSH32 0xD090D183D0BAD186D0B8D0BED0BD20D18120D182D0B0D0BAD0BED0B920D0BAD0 PUSH1 0x44 DUP3 ADD MSTORE PUSH32 0xBED0BBD0BBD0B5D0BAD186D0B8D0B5D0B920D183D0B6D0B520D0B7D0B0D0BFD1 PUSH1 0x64 DUP3 ADD MSTORE PUSH7 0x83D189D0B5D0BD PUSH1 0xC8 SHL PUSH1 0x84 DUP3 ADD MSTORE PUSH1 0xA4 ADD PUSH2 0x5DC JUMP JUMPDEST PUSH1 0x1 ADD PUSH2 0x392F JUMP JUMPDEST POP PUSH1 0x40 DUP1 MLOAD PUSH1 0xE0 DUP2 ADD DUP3 MSTORE PUSH1 0x11 DUP1 SLOAD DUP1 DUP4 MSTORE PUSH1 0x20 DUP4 ADD SWAP9 DUP10 MSTORE SWAP3 DUP3 ADD SWAP7 DUP8 MSTORE PUSH1 0x60 DUP3 ADD SWAP6 DUP7 MSTORE PUSH1 0x80 DUP3 ADD SWAP5 DUP6 MSTORE PUSH1 0x4 SLOAD PUSH1 0x1 PUSH1 0x1 PUSH1 0xA0 SHL SUB SWAP1 DUP2 AND PUSH1 0xA0 DUP5 ADD SWAP1 DUP2 MSTORE PUSH1 0xC0 DUP5 ADD SWAP6 DUP7 MSTORE PUSH1 0x1 DUP6 ADD DUP4 SSTORE PUSH1 0x0 SWAP3 SWAP1 SWAP3 MSTORE SWAP2 MLOAD PUSH32 0x31ECC21A745E3968A04E9570E4425BC18FA8019C68028196B546D1669C200C68 PUSH1 0x7 SWAP1 SWAP5 MUL SWAP4 DUP5 ADD SSTORE SWAP7 MLOAD PUSH32 0x31ECC21A745E3968A04E9570E4425BC18FA8019C68028196B546D1669C200C69 DUP4 ADD SSTORE SWAP5 MLOAD PUSH32 0x31ECC21A745E3968A04E9570E4425BC18FA8019C68028196B546D1669C200C6A DUP3 ADD SSTORE SWAP3 MLOAD PUSH32 0x31ECC21A745E3968A04E9570E4425BC18FA8019C68028196B546D1669C200C6B DUP5 ADD SSTORE SWAP1 MLOAD PUSH32 0x31ECC21A745E3968A04E9570E4425BC18FA8019C68028196B546D1669C200C6C DUP4 ADD SSTORE SWAP3 MLOAD PUSH32 0x31ECC21A745E3968A04E9570E4425BC18FA8019C68028196B546D1669C200C6D DUP3 ADD DUP1 SLOAD PUSH1 0x1 PUSH1 0x1 PUSH1 0xA0 SHL SUB NOT AND SWAP2 SWAP1 SWAP4 AND OR SWAP1 SWAP2 SSTORE SWAP1 MLOAD PUSH32 0x31ECC21A745E3968A04E9570E4425BC18FA8019C68028196B546D1669C200C6E SWAP1 SWAP2 ADD SSTORE JUMP JUMPDEST PUSH1 0x4 SLOAD PUSH1 0x1 PUSH1 0x1 PUSH1 0xA0 SHL SUB AND CALLER EQ PUSH2 0x3B8F JUMPI PUSH1 0x40 MLOAD PUSH3 0x461BCD PUSH1 0xE5 SHL DUP2 MSTORE PUSH1 0x4 ADD PUSH2 0x5DC SWAP1 PUSH2 0x5894 JUMP JUMPDEST PUSH1 0x11 DUP2 DUP2 SLOAD DUP2 LT PUSH2 0x3BA2 JUMPI PUSH2 0x3BA2 PUSH2 0x5902 JUMP JUMPDEST SWAP1 PUSH1 0x0 MSTORE PUSH1 0x20 PUSH1 0x0 KECCAK256 SWAP1 PUSH1 0x7 MUL ADD PUSH1 0x4 ADD SLOAD DUP1 PUSH1 0x0 SUB PUSH2 0x3BD4 JUMPI PUSH1 0x40 MLOAD PUSH3 0x461BCD PUSH1 0xE5 SHL DUP2 MSTORE PUSH1 0x4 ADD PUSH2 0x5DC SWAP1 PUSH2 0x5A4D JUMP JUMPDEST PUSH1 0x11 DUP3 DUP2 SLOAD DUP2 LT PUSH2 0x3BE7 JUMPI PUSH2 0x3BE7 PUSH2 0x5902 JUMP JUMPDEST SWAP1 PUSH1 0x0 MSTORE PUSH1 0x20 PUSH1 0x0 KECCAK256 SWAP1 PUSH1 0x7 MUL ADD PUSH1 0x4 ADD SLOAD PUSH1 0x0 EQ DUP1 PUSH2 0x3C3F JUMPI POP PUSH1 0x0 PUSH1 0x1 PUSH1 0x1 PUSH1 0xA0 SHL SUB AND PUSH1 0x11 DUP4 DUP2 SLOAD DUP2 LT PUSH2 0x3C20 JUMPI PUSH2 0x3C20 PUSH2 0x5902 JUMP JUMPDEST PUSH1 0x0 SWAP2 DUP3 MSTORE PUSH1 0x20 SWAP1 SWAP2 KECCAK256 PUSH1 0x5 PUSH1 0x7 SWAP1 SWAP3 MUL ADD ADD SLOAD PUSH1 0x1 PUSH1 0x1 PUSH1 0xA0 SHL SUB AND EQ JUMPDEST PUSH2 0x3C9F JUMPI PUSH1 0x40 MLOAD PUSH3 0x461BCD PUSH1 0xE5 SHL DUP2 MSTORE PUSH1 0x20 PUSH1 0x4 DUP3 ADD MSTORE PUSH1 0x2B PUSH1 0x24 DUP3 ADD MSTORE PUSH32 0xD090D183D0BAD186D0B8D0BED0BD20D0B5D189D19120D0BDD0B520D0B7D0B0D0 PUSH1 0x44 DUP3 ADD MSTORE PUSH11 0xB2D0B5D180D188D0B5D0BD PUSH1 0xA8 SHL PUSH1 0x64 DUP3 ADD MSTORE PUSH1 0x84 ADD PUSH2 0x5DC JUMP JUMPDEST CALLER PUSH1 0x1 PUSH1 0x1 PUSH1 0xA0 SHL SUB AND PUSH1 0x11 DUP4 DUP2 SLOAD DUP2 LT PUSH2 0x3CBC JUMPI PUSH2 0x3CBC PUSH2 0x5902 JUMP JUMPDEST PUSH1 0x0 SWAP2 DUP3 MSTORE PUSH1 0x20 SWAP1 SWAP2 KECCAK256 PUSH1 0x5 PUSH1 0x7 SWAP1 SWAP3 MUL ADD ADD SLOAD PUSH1 0x1 PUSH1 0x1 PUSH1 0xA0 SHL SUB AND EQ PUSH2 0x3D3F JUMPI PUSH1 0x40 MLOAD PUSH3 0x461BCD PUSH1 0xE5 SHL DUP2 MSTORE PUSH1 0x20 PUSH1 0x4 DUP3 ADD MSTORE PUSH1 0x30 PUSH1 0x24 DUP3 ADD MSTORE PUSH32 0xD092D18B20D0BDD0B520D0BFD0BED0B1D0B5D0B4D0B8D182D0B5D0BBD18C20D0 PUSH1 0x44 DUP3 ADD MSTORE PUSH16 0x5868C1E85D68C3685C685F685EE8581 PUSH1 0x85 SHL PUSH1 0x64 DUP3 ADD MSTORE PUSH1 0x84 ADD PUSH2 0x5DC JUMP JUMPDEST PUSH1 0x4 SLOAD PUSH1 0x11 DUP1 SLOAD PUSH2 0x3E01 SWAP3 PUSH1 0x1 PUSH1 0x1 PUSH1 0xA0 SHL SUB AND SWAP2 CALLER SWAP2 PUSH1 0x10 SWAP2 SWAP1 DUP8 SWAP1 DUP2 LT PUSH2 0x3D6A JUMPI PUSH2 0x3D6A PUSH2 0x5902 JUMP JUMPDEST SWAP1 PUSH1 0x0 MSTORE PUSH1 0x20 PUSH1 0x0 KECCAK256 SWAP1 PUSH1 0x7 MUL ADD PUSH1 0x1 ADD SLOAD DUP2 SLOAD DUP2 LT PUSH2 0x3D8C JUMPI PUSH2 0x3D8C PUSH2 0x5902 JUMP JUMPDEST SWAP1 PUSH1 0x0 MSTORE PUSH1 0x20 PUSH1 0x0 KECCAK256 SWAP1 PUSH1 0x5 MUL ADD PUSH1 0x3 ADD DUP1 SLOAD DUP1 PUSH1 0x20 MUL PUSH1 0x20 ADD PUSH1 0x40 MLOAD SWAP1 DUP2 ADD PUSH1 0x40 MSTORE DUP1 SWAP3 SWAP2 SWAP1 DUP2 DUP2 MSTORE PUSH1 0x20 ADD DUP3 DUP1 SLOAD DUP1 ISZERO PUSH2 0x3DE7 JUMPI PUSH1 0x20 MUL DUP3 ADD SWAP2 SWAP1 PUSH1 0x0 MSTORE PUSH1 0x20 PUSH1 0x0 KECCAK256 SWAP1 JUMPDEST DUP2 SLOAD DUP2 MSTORE PUSH1 0x20 ADD SWAP1 PUSH1 0x1 ADD SWAP1 DUP1 DUP4 GT PUSH2 0x3DD3 JUMPI JUMPDEST POP POP POP POP POP PUSH1 0x10 PUSH1 0x11 DUP8 DUP2 SLOAD DUP2 LT PUSH2 0x6DC JUMPI PUSH2 0x6DC PUSH2 0x5902 JUMP JUMPDEST PUSH1 0x0 JUMPDEST PUSH1 0x10 PUSH1 0x11 DUP5 DUP2 SLOAD DUP2 LT PUSH2 0x3E19 JUMPI PUSH2 0x3E19 PUSH2 0x5902 JUMP JUMPDEST SWAP1 PUSH1 0x0 MSTORE PUSH1 0x20 PUSH1 0x0 KECCAK256 SWAP1 PUSH1 0x7 MUL ADD PUSH1 0x1 ADD SLOAD DUP2 SLOAD DUP2 LT PUSH2 0x3E3B JUMPI PUSH2 0x3E3B PUSH2 0x5902 JUMP JUMPDEST SWAP1 PUSH1 0x0 MSTORE PUSH1 0x20 PUSH1 0x0 KECCAK256 SWAP1 PUSH1 0x5 MUL ADD PUSH1 0x3 ADD DUP1 SLOAD SWAP1 POP DUP2 LT ISZERO PUSH2 0x44BF JUMPI PUSH1 0x9 PUSH1 0x0 CALLER PUSH1 0x1 PUSH1 0x1 PUSH1 0xA0 SHL SUB AND PUSH1 0x1 PUSH1 0x1 PUSH1 0xA0 SHL SUB AND DUP2 MSTORE PUSH1 0x20 ADD SWAP1 DUP2 MSTORE PUSH1 0x20 ADD PUSH1 0x0 KECCAK256 PUSH1 0x40 MLOAD DUP1 PUSH2 0x100 ADD PUSH1 0x40 MSTORE DUP1 PUSH1 0x10 PUSH1 0x11 DUP8 DUP2 SLOAD DUP2 LT PUSH2 0x3E9D JUMPI PUSH2 0x3E9D PUSH2 0x5902 JUMP JUMPDEST SWAP1 PUSH1 0x0 MSTORE PUSH1 0x20 PUSH1 0x0 KECCAK256 SWAP1 PUSH1 0x7 MUL ADD PUSH1 0x1 ADD SLOAD DUP2 SLOAD DUP2 LT PUSH2 0x3EBF JUMPI PUSH2 0x3EBF PUSH2 0x5902 JUMP JUMPDEST SWAP1 PUSH1 0x0 MSTORE PUSH1 0x20 PUSH1 0x0 KECCAK256 SWAP1 PUSH1 0x5 MUL ADD PUSH1 0x3 ADD DUP5 DUP2 SLOAD DUP2 LT PUSH2 0x3EE1 JUMPI PUSH2 0x3EE1 PUSH2 0x5902 JUMP JUMPDEST SWAP1 PUSH1 0x0 MSTORE PUSH1 0x20 PUSH1 0x0 KECCAK256 ADD SLOAD DUP2 MSTORE PUSH1 0x20 ADD PUSH1 0x9 PUSH1 0x0 PUSH1 0x11 DUP9 DUP2 SLOAD DUP2 LT PUSH2 0x3F08 JUMPI PUSH2 0x3F08 PUSH2 0x5902 JUMP JUMPDEST SWAP1 PUSH1 0x0 MSTORE PUSH1 0x20 PUSH1 0x0 KECCAK256 SWAP1 PUSH1 0x7 MUL ADD PUSH1 0x5 ADD PUSH1 0x0 SWAP1 SLOAD SWAP1 PUSH2 0x100 EXP SWAP1 DIV PUSH1 0x1 PUSH1 0x1 PUSH1 0xA0 SHL SUB AND PUSH1 0x1 PUSH1 0x1 PUSH1 0xA0 SHL SUB AND PUSH1 0x1 PUSH1 0x1 PUSH1 0xA0 SHL SUB AND DUP2 MSTORE PUSH1 0x20 ADD SWAP1 DUP2 MSTORE PUSH1 0x20 ADD PUSH1 0x0 KECCAK256 DUP1 SLOAD SWAP1 POP DUP2 MSTORE PUSH1 0x20 ADD PUSH1 0x8 PUSH1 0x0 PUSH1 0xA PUSH1 0x0 PUSH1 0x11 DUP11 DUP2 SLOAD DUP2 LT PUSH2 0x3F71 JUMPI PUSH2 0x3F71 PUSH2 0x5902 JUMP JUMPDEST SWAP1 PUSH1 0x0 MSTORE PUSH1 0x20 PUSH1 0x0 KECCAK256 SWAP1 PUSH1 0x7 MUL ADD PUSH1 0x1 ADD SLOAD DUP2 MSTORE PUSH1 0x20 ADD SWAP1 DUP2 MSTORE PUSH1 0x20 ADD PUSH1 0x0 KECCAK256 PUSH1 0x3 ADD DUP7 DUP2 SLOAD DUP2 LT PUSH2 0x3FA5 JUMPI PUSH2 0x3FA5 PUSH2 0x5902 JUMP JUMPDEST SWAP1 PUSH1 0x0 MSTORE PUSH1 0x20 PUSH1 0x0 KECCAK256 ADD SLOAD DUP2 MSTORE PUSH1 0x20 ADD SWAP1 DUP2 MSTORE PUSH1 0x20 ADD PUSH1 0x0 KECCAK256 PUSH1 0x2 ADD DUP1 SLOAD PUSH2 0x3FCC SWAP1 PUSH2 0x57E4 JUMP JUMPDEST DUP1 PUSH1 0x1F ADD PUSH1 0x20 DUP1 SWAP2 DIV MUL PUSH1 0x20 ADD PUSH1 0x40 MLOAD SWAP1 DUP2 ADD PUSH1 0x40 MSTORE DUP1 SWAP3 SWAP2 SWAP1 DUP2 DUP2 MSTORE PUSH1 0x20 ADD DUP3 DUP1 SLOAD PUSH2 0x3FF8 SWAP1 PUSH2 0x57E4 JUMP JUMPDEST DUP1 ISZERO PUSH2 0x4045 JUMPI DUP1 PUSH1 0x1F LT PUSH2 0x401A JUMPI PUSH2 0x100 DUP1 DUP4 SLOAD DIV MUL DUP4 MSTORE SWAP2 PUSH1 0x20 ADD SWAP2 PUSH2 0x4045 JUMP JUMPDEST DUP3 ADD SWAP2 SWAP1 PUSH1 0x0 MSTORE PUSH1 0x20 PUSH1 0x0 KECCAK256 SWAP1 JUMPDEST DUP2 SLOAD DUP2 MSTORE SWAP1 PUSH1 0x1 ADD SWAP1 PUSH1 0x20 ADD DUP1 DUP4 GT PUSH2 0x4028 JUMPI DUP3 SWAP1 SUB PUSH1 0x1F AND DUP3 ADD SWAP2 JUMPDEST POP POP POP POP POP DUP2 MSTORE PUSH1 0x20 ADD PUSH1 0x8 PUSH1 0x0 PUSH1 0xA PUSH1 0x0 PUSH1 0x11 DUP11 DUP2 SLOAD DUP2 LT PUSH2 0x406A JUMPI PUSH2 0x406A PUSH2 0x5902 JUMP JUMPDEST SWAP1 PUSH1 0x0 MSTORE PUSH1 0x20 PUSH1 0x0 KECCAK256 SWAP1 PUSH1 0x7 MUL ADD PUSH1 0x1 ADD SLOAD DUP2 MSTORE PUSH1 0x20 ADD SWAP1 DUP2 MSTORE PUSH1 0x20 ADD PUSH1 0x0 KECCAK256 PUSH1 0x3 ADD DUP7 DUP2 SLOAD DUP2 LT PUSH2 0x409E JUMPI PUSH2 0x409E PUSH2 0x5902 JUMP JUMPDEST SWAP1 PUSH1 0x0 MSTORE PUSH1 0x20 PUSH1 0x0 KECCAK256 ADD SLOAD DUP2 MSTORE PUSH1 0x20 ADD SWAP1 DUP2 MSTORE PUSH1 0x20 ADD PUSH1 0x0 KECCAK256 PUSH1 0x3 ADD DUP1 SLOAD PUSH2 0x40C5 SWAP1 PUSH2 0x57E4 JUMP JUMPDEST DUP1 PUSH1 0x1F ADD PUSH1 0x20 DUP1 SWAP2 DIV MUL PUSH1 0x20 ADD PUSH1 0x40 MLOAD SWAP1 DUP2 ADD PUSH1 0x40 MSTORE DUP1 SWAP3 SWAP2 SWAP1 DUP2 DUP2 MSTORE PUSH1 0x20 ADD DUP3 DUP1 SLOAD PUSH2 0x40F1 SWAP1 PUSH2 0x57E4 JUMP JUMPDEST DUP1 ISZERO PUSH2 0x413E JUMPI DUP1 PUSH1 0x1F LT PUSH2 0x4113 JUMPI PUSH2 0x100 DUP1 DUP4 SLOAD DIV MUL DUP4 MSTORE SWAP2 PUSH1 0x20 ADD SWAP2 PUSH2 0x413E JUMP JUMPDEST DUP3 ADD SWAP2 SWAP1 PUSH1 0x0 MSTORE PUSH1 0x20 PUSH1 0x0 KECCAK256 SWAP1 JUMPDEST DUP2 SLOAD DUP2 MSTORE SWAP1 PUSH1 0x1 ADD SWAP1 PUSH1 0x20 ADD DUP1 DUP4 GT PUSH2 0x4121 JUMPI DUP3 SWAP1 SUB PUSH1 0x1F AND DUP3 ADD SWAP2 JUMPDEST POP POP POP POP POP DUP2 MSTORE PUSH1 0x20 ADD PUSH1 0x8 PUSH1 0x0 PUSH1 0xA PUSH1 0x0 PUSH1 0x11 DUP11 DUP2 SLOAD DUP2 LT PUSH2 0x4163 JUMPI PUSH2 0x4163 PUSH2 0x5902 JUMP JUMPDEST SWAP1 PUSH1 0x0 MSTORE PUSH1 0x20 PUSH1 0x0 KECCAK256 SWAP1 PUSH1 0x7 MUL ADD PUSH1 0x1 ADD SLOAD DUP2 MSTORE PUSH1 0x20 ADD SWAP1 DUP2 MSTORE PUSH1 0x20 ADD PUSH1 0x0 KECCAK256 PUSH1 0x3 ADD DUP7 DUP2 SLOAD DUP2 LT PUSH2 0x4197 JUMPI PUSH2 0x4197 PUSH2 0x5902 JUMP JUMPDEST SWAP1 PUSH1 0x0 MSTORE PUSH1 0x20 PUSH1 0x0 KECCAK256 ADD SLOAD DUP2 MSTORE PUSH1 0x20 ADD SWAP1 DUP2 MSTORE PUSH1 0x20 ADD PUSH1 0x0 KECCAK256 PUSH1 0x4 ADD DUP1 SLOAD PUSH2 0x41BE SWAP1 PUSH2 0x57E4 JUMP JUMPDEST DUP1 PUSH1 0x1F ADD PUSH1 0x20 DUP1 SWAP2 DIV MUL PUSH1 0x20 ADD PUSH1 0x40 MLOAD SWAP1 DUP2 ADD PUSH1 0x40 MSTORE DUP1 SWAP3 SWAP2 SWAP1 DUP2 DUP2 MSTORE PUSH1 0x20 ADD DUP3 DUP1 SLOAD PUSH2 0x41EA SWAP1 PUSH2 0x57E4 JUMP JUMPDEST DUP1 ISZERO PUSH2 0x4237 JUMPI DUP1 PUSH1 0x1F LT PUSH2 0x420C JUMPI PUSH2 0x100 DUP1 DUP4 SLOAD DIV MUL DUP4 MSTORE SWAP2 PUSH1 0x20 ADD SWAP2 PUSH2 0x4237 JUMP JUMPDEST DUP3 ADD SWAP2 SWAP1 PUSH1 0x0 MSTORE PUSH1 0x20 PUSH1 0x0 KECCAK256 SWAP1 JUMPDEST DUP2 SLOAD DUP2 MSTORE SWAP1 PUSH1 0x1 ADD SWAP1 PUSH1 0x20 ADD DUP1 DUP4 GT PUSH2 0x421A JUMPI DUP3 SWAP1 SUB PUSH1 0x1F AND DUP3 ADD SWAP2 JUMPDEST POP POP POP POP POP DUP2 MSTORE PUSH1 0x20 ADD PUSH1 0x8 PUSH1 0x0 PUSH1 0xA PUSH1 0x0 PUSH1 0x11 DUP11 DUP2 SLOAD DUP2 LT PUSH2 0x425C JUMPI PUSH2 0x425C PUSH2 0x5902 JUMP JUMPDEST SWAP1 PUSH1 0x0 MSTORE PUSH1 0x20 PUSH1 0x0 KECCAK256 SWAP1 PUSH1 0x7 MUL ADD PUSH1 0x1 ADD SLOAD DUP2 MSTORE PUSH1 0x20 ADD SWAP1 DUP2 MSTORE PUSH1 0x20 ADD PUSH1 0x0 KECCAK256 PUSH1 0x3 ADD DUP7 DUP2 SLOAD DUP2 LT PUSH2 0x4290 JUMPI PUSH2 0x4290 PUSH2 0x5902 JUMP JUMPDEST SWAP1 PUSH1 0x0 MSTORE PUSH1 0x20 PUSH1 0x0 KECCAK256 ADD SLOAD DUP2 MSTORE PUSH1 0x20 ADD SWAP1 DUP2 MSTORE PUSH1 0x20 ADD PUSH1 0x0 KECCAK256 PUSH1 0x6 ADD SLOAD DUP2 MSTORE PUSH1 0x20 ADD PUSH1 0x3 SLOAD PUSH1 0x1 PUSH2 0x42C1 SWAP2 SWAP1 PUSH2 0x592E JUMP JUMPDEST DUP2 MSTORE PUSH1 0x20 ADD PUSH1 0x8 PUSH1 0x0 PUSH1 0xA PUSH1 0x0 PUSH1 0x11 DUP11 DUP2 SLOAD DUP2 LT PUSH2 0x42E1 JUMPI PUSH2 0x42E1 PUSH2 0x5902 JUMP JUMPDEST SWAP1 PUSH1 0x0 MSTORE PUSH1 0x20 PUSH1 0x0 KECCAK256 SWAP1 PUSH1 0x7 MUL ADD PUSH1 0x1 ADD SLOAD DUP2 MSTORE PUSH1 0x20 ADD SWAP1 DUP2 MSTORE PUSH1 0x20 ADD PUSH1 0x0 KECCAK256 PUSH1 0x3 ADD DUP7 DUP2 SLOAD DUP2 LT PUSH2 0x4315 JUMPI PUSH2 0x4315 PUSH2 0x5902 JUMP JUMPDEST PUSH1 0x0 SWAP2 DUP3 MSTORE PUSH1 0x20 DUP1 DUP4 KECCAK256 SWAP1 SWAP2 ADD SLOAD DUP4 MSTORE DUP3 DUP2 ADD SWAP4 SWAP1 SWAP4 MSTORE PUSH1 0x40 SWAP2 DUP3 ADD DUP2 KECCAK256 PUSH1 0x7 ADD SLOAD SWAP1 SWAP4 MSTORE DUP5 SLOAD PUSH1 0x1 DUP2 DUP2 ADD DUP8 SSTORE SWAP6 DUP5 MSTORE SWAP3 DUP3 SWAP1 KECCAK256 DUP5 MLOAD PUSH1 0x8 SWAP1 SWAP5 MUL ADD SWAP3 DUP4 SSTORE SWAP1 DUP4 ADD MLOAD SWAP4 DUP3 ADD SWAP4 SWAP1 SWAP4 SSTORE SWAP2 DUP2 ADD MLOAD SWAP1 SWAP2 SWAP1 PUSH1 0x2 DUP3 ADD SWAP1 PUSH2 0x4376 SWAP1 DUP3 PUSH2 0x598D JUMP JUMPDEST POP PUSH1 0x60 DUP3 ADD MLOAD PUSH1 0x3 DUP3 ADD SWAP1 PUSH2 0x438B SWAP1 DUP3 PUSH2 0x598D JUMP JUMPDEST POP PUSH1 0x80 DUP3 ADD MLOAD PUSH1 0x4 DUP3 ADD SWAP1 PUSH2 0x43A0 SWAP1 DUP3 PUSH2 0x598D JUMP JUMPDEST POP PUSH1 0xA0 DUP3 ADD MLOAD PUSH1 0x5 DUP3 ADD SSTORE PUSH1 0xC0 DUP3 ADD MLOAD PUSH1 0x6 DUP3 ADD SSTORE PUSH1 0xE0 SWAP1 SWAP2 ADD MLOAD PUSH1 0x7 SWAP1 SWAP2 ADD SSTORE PUSH1 0x4 SLOAD PUSH1 0x1 PUSH1 0x1 PUSH1 0xA0 SHL SUB AND PUSH1 0x0 SWAP1 DUP2 MSTORE PUSH1 0x9 PUSH1 0x20 MSTORE PUSH1 0x40 DUP2 KECCAK256 PUSH1 0x11 DUP1 SLOAD SWAP2 SWAP3 PUSH1 0x8 SWAP3 SWAP1 SWAP2 PUSH1 0xA SWAP2 DUP4 SWAP2 SWAP1 DUP10 SWAP1 DUP2 LT PUSH2 0x43FC JUMPI PUSH2 0x43FC PUSH2 0x5902 JUMP JUMPDEST SWAP1 PUSH1 0x0 MSTORE PUSH1 0x20 PUSH1 0x0 KECCAK256 SWAP1 PUSH1 0x7 MUL ADD PUSH1 0x1 ADD SLOAD DUP2 MSTORE PUSH1 0x20 ADD SWAP1 DUP2 MSTORE PUSH1 0x20 ADD PUSH1 0x0 KECCAK256 PUSH1 0x3 ADD DUP5 DUP2 SLOAD DUP2 LT PUSH2 0x4430 JUMPI PUSH2 0x4430 PUSH2 0x5902 JUMP JUMPDEST SWAP1 PUSH1 0x0 MSTORE PUSH1 0x20 PUSH1 0x0 KECCAK256 ADD SLOAD DUP2 MSTORE PUSH1 0x20 ADD SWAP1 DUP2 MSTORE PUSH1 0x20 ADD PUSH1 0x0 KECCAK256 PUSH1 0x1 ADD SLOAD DUP2 SLOAD DUP2 LT PUSH2 0x445D JUMPI PUSH2 0x445D PUSH2 0x5902 JUMP JUMPDEST PUSH1 0x0 SWAP2 DUP3 MSTORE PUSH1 0x20 DUP3 KECCAK256 PUSH1 0x8 SWAP1 SWAP2 MUL ADD DUP2 DUP2 SSTORE PUSH1 0x1 DUP2 ADD DUP3 SWAP1 SSTORE SWAP1 PUSH2 0x4484 PUSH1 0x2 DUP4 ADD DUP3 PUSH2 0x4B5F JUMP JUMPDEST PUSH2 0x4492 PUSH1 0x3 DUP4 ADD PUSH1 0x0 PUSH2 0x4B5F JUMP JUMPDEST PUSH2 0x44A0 PUSH1 0x4 DUP4 ADD PUSH1 0x0 PUSH2 0x4B5F JUMP JUMPDEST POP PUSH1 0x0 PUSH1 0x5 DUP3 ADD DUP2 SWAP1 SSTORE PUSH1 0x6 DUP3 ADD DUP2 SWAP1 SSTORE PUSH1 0x7 SWAP1 SWAP2 ADD SSTORE PUSH1 0x1 ADD PUSH2 0x3E04 JUMP JUMPDEST POP PUSH1 0x0 PUSH1 0x11 DUP4 DUP2 SLOAD DUP2 LT PUSH2 0x44D5 JUMPI PUSH2 0x44D5 PUSH2 0x5902 JUMP JUMPDEST SWAP1 PUSH1 0x0 MSTORE PUSH1 0x20 PUSH1 0x0 KECCAK256 SWAP1 PUSH1 0x7 MUL ADD PUSH1 0x5 ADD PUSH1 0x0 PUSH2 0x100 EXP DUP2 SLOAD DUP2 PUSH1 0x1 PUSH1 0x1 PUSH1 0xA0 SHL SUB MUL NOT AND SWAP1 DUP4 PUSH1 0x1 PUSH1 0x1 PUSH1 0xA0 SHL SUB AND MUL OR SWAP1 SSTORE POP POP POP JUMP JUMPDEST PUSH1 0x1 PUSH1 0x1 PUSH1 0xA0 SHL SUB DUP5 AND PUSH2 0x4538 JUMPI PUSH1 0x40 MLOAD PUSH4 0x2BFA23E7 PUSH1 0xE1 SHL DUP2 MSTORE PUSH1 0x0 PUSH1 0x4 DUP3 ADD MSTORE PUSH1 0x24 ADD PUSH2 0x5DC JUMP JUMPDEST PUSH1 0x1 PUSH1 0x1 PUSH1 0xA0 SHL SUB DUP6 AND PUSH2 0x4561 JUMPI PUSH1 0x40 MLOAD PUSH3 0x6A0D45 PUSH1 0xE2 SHL DUP2 MSTORE PUSH1 0x0 PUSH1 0x4 DUP3 ADD MSTORE PUSH1 0x24 ADD PUSH2 0x5DC JUMP JUMPDEST PUSH2 0x169B DUP6 DUP6 DUP6 DUP6 DUP6 PUSH2 0x46EB JUMP JUMPDEST PUSH1 0x1 PUSH1 0x1 PUSH1 0xA0 SHL SUB DUP5 AND PUSH2 0x4598 JUMPI PUSH1 0x40 MLOAD PUSH4 0x2BFA23E7 PUSH1 0xE1 SHL DUP2 MSTORE PUSH1 0x0 PUSH1 0x4 DUP3 ADD MSTORE PUSH1 0x24 ADD PUSH2 0x5DC JUMP JUMPDEST PUSH1 0x1 PUSH1 0x1 PUSH1 0xA0 SHL SUB DUP6 AND PUSH2 0x45C1 JUMPI PUSH1 0x40 MLOAD PUSH3 0x6A0D45 PUSH1 0xE2 SHL DUP2 MSTORE PUSH1 0x0 PUSH1 0x4 DUP3 ADD MSTORE PUSH1 0x24 ADD PUSH2 0x5DC JUMP JUMPDEST PUSH1 0x40 DUP1 MLOAD PUSH1 0x1 DUP1 DUP3 MSTORE PUSH1 0x20 DUP3 ADD DUP7 SWAP1 MSTORE DUP2 DUP4 ADD SWAP1 DUP2 MSTORE PUSH1 0x60 DUP3 ADD DUP6 SWAP1 MSTORE PUSH1 0x80 DUP3 ADD SWAP1 SWAP3 MSTORE SWAP1 PUSH2 0x45F3 DUP8 DUP8 DUP5 DUP5 DUP8 PUSH2 0x46EB JUMP JUMPDEST POP POP POP POP POP POP POP JUMP JUMPDEST PUSH1 0x1 PUSH1 0x1 PUSH1 0xA0 SHL SUB DUP3 AND PUSH2 0x4625 JUMPI PUSH1 0x40 MLOAD PUSH3 0xCED3E1 PUSH1 0xE8 SHL DUP2 MSTORE PUSH1 0x0 PUSH1 0x4 DUP3 ADD MSTORE PUSH1 0x24 ADD PUSH2 0x5DC JUMP JUMPDEST PUSH1 0x1 PUSH1 0x1 PUSH1 0xA0 SHL SUB DUP4 DUP2 AND PUSH1 0x0 DUP2 DUP2 MSTORE PUSH1 0x1 PUSH1 0x20 SWAP1 DUP2 MSTORE PUSH1 0x40 DUP1 DUP4 KECCAK256 SWAP5 DUP8 AND DUP1 DUP5 MSTORE SWAP5 DUP3 MSTORE SWAP2 DUP3 SWAP1 KECCAK256 DUP1 SLOAD PUSH1 0xFF NOT AND DUP7 ISZERO ISZERO SWAP1 DUP2 OR SWAP1 SWAP2 SSTORE SWAP2 MLOAD SWAP2 DUP3 MSTORE PUSH32 0x17307EAB39AB6107E8899845AD3D59BD9653F200F220920489CA2B5937696C31 SWAP2 ADD PUSH1 0x40 MLOAD DUP1 SWAP2 SUB SWAP1 LOG3 POP POP POP JUMP JUMPDEST PUSH1 0x1 PUSH1 0x1 PUSH1 0xA0 SHL SUB DUP5 AND PUSH2 0x46BC JUMPI PUSH1 0x40 MLOAD PUSH4 0x2BFA23E7 PUSH1 0xE1 SHL DUP2 MSTORE PUSH1 0x0 PUSH1 0x4 DUP3 ADD MSTORE PUSH1 0x24 ADD PUSH2 0x5DC JUMP JUMPDEST PUSH1 0x40 DUP1 MLOAD PUSH1 0x1 DUP1 DUP3 MSTORE PUSH1 0x20 DUP3 ADD DUP7 SWAP1 MSTORE DUP2 DUP4 ADD SWAP1 DUP2 MSTORE PUSH1 0x60 DUP3 ADD DUP6 SWAP1 MSTORE PUSH1 0x80 DUP3 ADD SWAP1 SWAP3 MSTORE SWAP1 PUSH2 0x13A8 PUSH1 0x0 DUP8 DUP5 DUP5 DUP8 JUMPDEST PUSH2 0x46F7 DUP6 DUP6 DUP6 DUP6 PUSH2 0x473E JUMP JUMPDEST PUSH1 0x1 PUSH1 0x1 PUSH1 0xA0 SHL SUB DUP5 AND ISZERO PUSH2 0x169B JUMPI DUP3 MLOAD CALLER SWAP1 PUSH1 0x1 SUB PUSH2 0x4730 JUMPI PUSH1 0x20 DUP5 DUP2 ADD MLOAD SWAP1 DUP5 ADD MLOAD PUSH2 0x4729 DUP4 DUP10 DUP10 DUP6 DUP6 DUP10 PUSH2 0x4952 JUMP JUMPDEST POP POP PUSH2 0x13A8 JUMP JUMPDEST PUSH2 0x13A8 DUP2 DUP8 DUP8 DUP8 DUP8 DUP8 PUSH2 0x4A76 JUMP JUMPDEST DUP1 MLOAD DUP3 MLOAD EQ PUSH2 0x476D JUMPI DUP2 MLOAD DUP2 MLOAD PUSH1 0x40 MLOAD PUSH4 0x5B059991 PUSH1 0xE0 SHL DUP2 MSTORE PUSH1 0x4 DUP2 ADD SWAP3 SWAP1 SWAP3 MSTORE PUSH1 0x24 DUP3 ADD MSTORE PUSH1 0x44 ADD PUSH2 0x5DC JUMP JUMPDEST CALLER PUSH1 0x0 JUMPDEST DUP4 MLOAD DUP2 LT ISZERO PUSH2 0x4873 JUMPI PUSH1 0x20 DUP2 DUP2 MUL DUP6 DUP2 ADD DUP3 ADD MLOAD SWAP1 DUP6 ADD SWAP1 SWAP2 ADD MLOAD PUSH1 0x1 PUSH1 0x1 PUSH1 0xA0 SHL SUB DUP9 AND ISZERO PUSH2 0x4824 JUMPI PUSH1 0x0 DUP3 DUP2 MSTORE PUSH1 0x20 DUP2 DUP2 MSTORE PUSH1 0x40 DUP1 DUP4 KECCAK256 PUSH1 0x1 PUSH1 0x1 PUSH1 0xA0 SHL SUB DUP13 AND DUP5 MSTORE SWAP1 SWAP2 MSTORE SWAP1 KECCAK256 SLOAD DUP2 DUP2 LT ISZERO PUSH2 0x47FD JUMPI PUSH1 0x40 MLOAD PUSH4 0x3DEE4C5 PUSH1 0xE0 SHL DUP2 MSTORE PUSH1 0x1 PUSH1 0x1 PUSH1 0xA0 SHL SUB DUP11 AND PUSH1 0x4 DUP3 ADD MSTORE PUSH1 0x24 DUP2 ADD DUP3 SWAP1 MSTORE PUSH1 0x44 DUP2 ADD DUP4 SWAP1 MSTORE PUSH1 0x64 DUP2 ADD DUP5 SWAP1 MSTORE PUSH1 0x84 ADD PUSH2 0x5DC JUMP JUMPDEST PUSH1 0x0 DUP4 DUP2 MSTORE PUSH1 0x20 DUP2 DUP2 MSTORE PUSH1 0x40 DUP1 DUP4 KECCAK256 PUSH1 0x1 PUSH1 0x1 PUSH1 0xA0 SHL SUB DUP14 AND DUP5 MSTORE SWAP1 SWAP2 MSTORE SWAP1 KECCAK256 SWAP1 DUP3 SWAP1 SUB SWAP1 SSTORE JUMPDEST PUSH1 0x1 PUSH1 0x1 PUSH1 0xA0 SHL SUB DUP8 AND ISZERO PUSH2 0x4869 JUMPI PUSH1 0x0 DUP3 DUP2 MSTORE PUSH1 0x20 DUP2 DUP2 MSTORE PUSH1 0x40 DUP1 DUP4 KECCAK256 PUSH1 0x1 PUSH1 0x1 PUSH1 0xA0 SHL SUB DUP12 AND DUP5 MSTORE SWAP1 SWAP2 MSTORE DUP2 KECCAK256 DUP1 SLOAD DUP4 SWAP3 SWAP1 PUSH2 0x4863 SWAP1 DUP5 SWAP1 PUSH2 0x5A84 JUMP JUMPDEST SWAP1 SWAP2 SSTORE POP POP JUMPDEST POP POP PUSH1 0x1 ADD PUSH2 0x4771 JUMP JUMPDEST POP DUP3 MLOAD PUSH1 0x1 SUB PUSH2 0x48F4 JUMPI PUSH1 0x20 DUP4 ADD MLOAD PUSH1 0x0 SWAP1 PUSH1 0x20 DUP5 ADD MLOAD SWAP1 SWAP2 POP DUP6 PUSH1 0x1 PUSH1 0x1 PUSH1 0xA0 SHL SUB AND DUP8 PUSH1 0x1 PUSH1 0x1 PUSH1 0xA0 SHL SUB AND DUP5 PUSH1 0x1 PUSH1 0x1 PUSH1 0xA0 SHL SUB AND PUSH32 0xC3D58168C5AE7397731D063D5BBF3D657854427343F4C083240F7AACAA2D0F62 DUP6 DUP6 PUSH1 0x40 MLOAD PUSH2 0x48E5 SWAP3 SWAP2 SWAP1 SWAP2 DUP3 MSTORE PUSH1 0x20 DUP3 ADD MSTORE PUSH1 0x40 ADD SWAP1 JUMP JUMPDEST PUSH1 0x40 MLOAD DUP1 SWAP2 SUB SWAP1 LOG4 POP POP PUSH2 0x169B JUMP JUMPDEST DUP4 PUSH1 0x1 PUSH1 0x1 PUSH1 0xA0 SHL SUB AND DUP6 PUSH1 0x1 PUSH1 0x1 PUSH1 0xA0 SHL SUB AND DUP3 PUSH1 0x1 PUSH1 0x1 PUSH1 0xA0 SHL SUB AND PUSH32 0x4A39DC06D4C0DBC64B70AF90FD698A233A518AA5D07E595D983B8C0526C8F7FB DUP7 DUP7 PUSH1 0x40 MLOAD PUSH2 0x4943 SWAP3 SWAP2 SWAP1 PUSH2 0x5B3F JUMP JUMPDEST PUSH1 0x40 MLOAD DUP1 SWAP2 SUB SWAP1 LOG4 POP POP POP POP POP JUMP JUMPDEST PUSH1 0x1 PUSH1 0x1 PUSH1 0xA0 SHL SUB DUP5 AND EXTCODESIZE ISZERO PUSH2 0x13A8 JUMPI PUSH1 0x40 MLOAD PUSH4 0xF23A6E61 PUSH1 0xE0 SHL DUP2 MSTORE PUSH1 0x1 PUSH1 0x1 PUSH1 0xA0 SHL SUB DUP6 AND SWAP1 PUSH4 0xF23A6E61 SWAP1 PUSH2 0x4996 SWAP1 DUP10 SWAP1 DUP10 SWAP1 DUP9 SWAP1 DUP9 SWAP1 DUP9 SWAP1 PUSH1 0x4 ADD PUSH2 0x5B6D JUMP JUMPDEST PUSH1 0x20 PUSH1 0x40 MLOAD DUP1 DUP4 SUB DUP2 PUSH1 0x0 DUP8 GAS CALL SWAP3 POP POP POP DUP1 ISZERO PUSH2 0x49D1 JUMPI POP PUSH1 0x40 DUP1 MLOAD PUSH1 0x1F RETURNDATASIZE SWAP1 DUP2 ADD PUSH1 0x1F NOT AND DUP3 ADD SWAP1 SWAP3 MSTORE PUSH2 0x49CE SWAP2 DUP2 ADD SWAP1 PUSH2 0x5BB2 JUMP JUMPDEST PUSH1 0x1 JUMPDEST PUSH2 0x4A3A JUMPI RETURNDATASIZE DUP1 DUP1 ISZERO PUSH2 0x49FF JUMPI PUSH1 0x40 MLOAD SWAP2 POP PUSH1 0x1F NOT PUSH1 0x3F RETURNDATASIZE ADD AND DUP3 ADD PUSH1 0x40 MSTORE RETURNDATASIZE DUP3 MSTORE RETURNDATASIZE PUSH1 0x0 PUSH1 0x20 DUP5 ADD RETURNDATACOPY PUSH2 0x4A04 JUMP JUMPDEST PUSH1 0x60 SWAP2 POP JUMPDEST POP DUP1 MLOAD PUSH1 0x0 SUB PUSH2 0x4A32 JUMPI PUSH1 0x40 MLOAD PUSH4 0x2BFA23E7 PUSH1 0xE1 SHL DUP2 MSTORE PUSH1 0x1 PUSH1 0x1 PUSH1 0xA0 SHL SUB DUP7 AND PUSH1 0x4 DUP3 ADD MSTORE PUSH1 0x24 ADD PUSH2 0x5DC JUMP JUMPDEST DUP1 MLOAD DUP2 PUSH1 0x20 ADD REVERT JUMPDEST PUSH1 0x1 PUSH1 0x1 PUSH1 0xE0 SHL SUB NOT DUP2 AND PUSH4 0xF23A6E61 PUSH1 0xE0 SHL EQ PUSH2 0x45F3 JUMPI PUSH1 0x40 MLOAD PUSH4 0x2BFA23E7 PUSH1 0xE1 SHL DUP2 MSTORE PUSH1 0x1 PUSH1 0x1 PUSH1 0xA0 SHL SUB DUP7 AND PUSH1 0x4 DUP3 ADD MSTORE PUSH1 0x24 ADD PUSH2 0x5DC JUMP JUMPDEST PUSH1 0x1 PUSH1 0x1 PUSH1 0xA0 SHL SUB DUP5 AND EXTCODESIZE ISZERO PUSH2 0x13A8 JUMPI PUSH1 0x40 MLOAD PUSH4 0xBC197C81 PUSH1 0xE0 SHL DUP2 MSTORE PUSH1 0x1 PUSH1 0x1 PUSH1 0xA0 SHL SUB DUP6 AND SWAP1 PUSH4 0xBC197C81 SWAP1 PUSH2 0x4ABA SWAP1 DUP10 SWAP1 DUP10 SWAP1 DUP9 SWAP1 DUP9 SWAP1 DUP9 SWAP1 PUSH1 0x4 ADD PUSH2 0x5BCF JUMP JUMPDEST PUSH1 0x20 PUSH1 0x40 MLOAD DUP1 DUP4 SUB DUP2 PUSH1 0x0 DUP8 GAS CALL SWAP3 POP POP POP DUP1 ISZERO PUSH2 0x4AF5 JUMPI POP PUSH1 0x40 DUP1 MLOAD PUSH1 0x1F RETURNDATASIZE SWAP1 DUP2 ADD PUSH1 0x1F NOT AND DUP3 ADD SWAP1 SWAP3 MSTORE PUSH2 0x4AF2 SWAP2 DUP2 ADD SWAP1 PUSH2 0x5BB2 JUMP JUMPDEST PUSH1 0x1 JUMPDEST PUSH2 0x4B23 JUMPI RETURNDATASIZE DUP1 DUP1 ISZERO PUSH2 0x49FF JUMPI PUSH1 0x40 MLOAD SWAP2 POP PUSH1 0x1F NOT PUSH1 0x3F RETURNDATASIZE ADD AND DUP3 ADD PUSH1 0x40 MSTORE RETURNDATASIZE DUP3 MSTORE RETURNDATASIZE PUSH1 0x0 PUSH1 0x20 DUP5 ADD RETURNDATACOPY PUSH2 0x4A04 JUMP JUMPDEST PUSH1 0x1 PUSH1 0x1 PUSH1 0xE0 SHL SUB NOT DUP2 AND PUSH4 0xBC197C81 PUSH1 0xE0 SHL EQ PUSH2 0x45F3 JUMPI PUSH1 0x40 MLOAD PUSH4 0x2BFA23E7 PUSH1 0xE1 SHL DUP2 MSTORE PUSH1 0x1 PUSH1 0x1 PUSH1 0xA0 SHL SUB DUP7 AND PUSH1 0x4 DUP3 ADD MSTORE PUSH1 0x24 ADD PUSH2 0x5DC JUMP JUMPDEST POP DUP1 SLOAD PUSH2 0x4B6B SWAP1 PUSH2 0x57E4 JUMP JUMPDEST PUSH1 0x0 DUP3 SSTORE DUP1 PUSH1 0x1F LT PUSH2 0x4B7B JUMPI POP POP JUMP JUMPDEST PUSH1 0x1F ADD PUSH1 0x20 SWAP1 DIV SWAP1 PUSH1 0x0 MSTORE PUSH1 0x20 PUSH1 0x0 KECCAK256 SWAP1 DUP2 ADD SWAP1 PUSH2 0x25A7 SWAP2 SWAP1 PUSH2 0x4C5A JUMP JUMPDEST DUP3 DUP1 SLOAD DUP3 DUP3 SSTORE SWAP1 PUSH1 0x0 MSTORE PUSH1 0x20 PUSH1 0x0 KECCAK256 SWAP1 DUP2 ADD SWAP3 DUP3 ISZERO PUSH2 0x4BEE JUMPI SWAP2 PUSH1 0x20 MUL DUP3 ADD JUMPDEST DUP3 DUP2 GT ISZERO PUSH2 0x4BEE JUMPI DUP3 MLOAD DUP3 SLOAD PUSH1 0x1 PUSH1 0x1 PUSH1 0xA0 SHL SUB NOT AND PUSH1 0x1 PUSH1 0x1 PUSH1 0xA0 SHL SUB SWAP1 SWAP2 AND OR DUP3 SSTORE PUSH1 0x20 SWAP1 SWAP3 ADD SWAP2 PUSH1 0x1 SWAP1 SWAP2 ADD SWAP1 PUSH2 0x4BB9 JUMP JUMPDEST POP PUSH2 0x4BFA SWAP3 SWAP2 POP PUSH2 0x4C5A JUMP JUMPDEST POP SWAP1 JUMP JUMPDEST DUP3 DUP1 SLOAD DUP3 DUP3 SSTORE SWAP1 PUSH1 0x0 MSTORE PUSH1 0x20 PUSH1 0x0 KECCAK256 SWAP1 DUP2 ADD SWAP3 DUP3 ISZERO PUSH2 0x4BEE JUMPI SWAP2 PUSH1 0x20 MUL DUP3 ADD JUMPDEST DUP3 DUP2 GT ISZERO PUSH2 0x4BEE JUMPI DUP3 MLOAD DUP3 SSTORE SWAP2 PUSH1 0x20 ADD SWAP2 SWAP1 PUSH1 0x1 ADD SWAP1 PUSH2 0x4C1E JUMP JUMPDEST POP DUP1 SLOAD PUSH1 0x0 DUP3 SSTORE PUSH1 0x8 MUL SWAP1 PUSH1 0x0 MSTORE PUSH1 0x20 PUSH1 0x0 KECCAK256 SWAP1 DUP2 ADD SWAP1 PUSH2 0x25A7 SWAP2 SWAP1 PUSH2 0x4C6F JUMP JUMPDEST JUMPDEST DUP1 DUP3 GT ISZERO PUSH2 0x4BFA JUMPI PUSH1 0x0 DUP2 SSTORE PUSH1 0x1 ADD PUSH2 0x4C5B JUMP JUMPDEST DUP1 DUP3 GT ISZERO PUSH2 0x4BFA JUMPI PUSH1 0x0 DUP1 DUP3 SSTORE PUSH1 0x1 DUP3 ADD DUP2 SWAP1 SSTORE PUSH2 0x4C90 PUSH1 0x2 DUP4 ADD DUP3 PUSH2 0x4B5F JUMP JUMPDEST PUSH2 0x4C9E PUSH1 0x3 DUP4 ADD PUSH1 0x0 PUSH2 0x4B5F JUMP JUMPDEST PUSH2 0x4CAC PUSH1 0x4 DUP4 ADD PUSH1 0x0 PUSH2 0x4B5F JUMP JUMPDEST POP PUSH1 0x0 PUSH1 0x5 DUP3 ADD DUP2 SWAP1 SSTORE PUSH1 0x6 DUP3 ADD DUP2 SWAP1 SSTORE PUSH1 0x7 DUP3 ADD SSTORE PUSH1 0x8 ADD PUSH2 0x4C6F JUMP JUMPDEST DUP1 CALLDATALOAD PUSH1 0x1 PUSH1 0x1 PUSH1 0xA0 SHL SUB DUP2 AND DUP2 EQ PUSH2 0x4CE1 JUMPI PUSH1 0x0 DUP1 REVERT JUMPDEST SWAP2 SWAP1 POP JUMP JUMPDEST PUSH1 0x0 DUP1 PUSH1 0x40 DUP4 DUP6 SUB SLT ISZERO PUSH2 0x4CF9 JUMPI PUSH1 0x0 DUP1 REVERT JUMPDEST PUSH2 0x4D02 DUP4 PUSH2 0x4CCA JUMP JUMPDEST SWAP5 PUSH1 0x20 SWAP4 SWAP1 SWAP4 ADD CALLDATALOAD SWAP4 POP POP POP JUMP JUMPDEST PUSH1 0x1 PUSH1 0x1 PUSH1 0xE0 SHL SUB NOT DUP2 AND DUP2 EQ PUSH2 0x25A7 JUMPI PUSH1 0x0 DUP1 REVERT JUMPDEST PUSH1 0x0 PUSH1 0x20 DUP3 DUP5 SUB SLT ISZERO PUSH2 0x4D38 JUMPI PUSH1 0x0 DUP1 REVERT JUMPDEST DUP2 CALLDATALOAD PUSH2 0x4D43 DUP2 PUSH2 0x4D10 JUMP JUMPDEST SWAP4 SWAP3 POP POP POP JUMP JUMPDEST PUSH1 0x0 PUSH1 0x20 DUP3 DUP5 SUB SLT ISZERO PUSH2 0x4D5C JUMPI PUSH1 0x0 DUP1 REVERT JUMPDEST POP CALLDATALOAD SWAP2 SWAP1 POP JUMP JUMPDEST PUSH1 0x0 JUMPDEST DUP4 DUP2 LT ISZERO PUSH2 0x4D7E JUMPI DUP2 DUP2 ADD MLOAD DUP4 DUP3 ADD MSTORE PUSH1 0x20 ADD PUSH2 0x4D66 JUMP JUMPDEST POP POP PUSH1 0x0 SWAP2 ADD MSTORE JUMP JUMPDEST PUSH1 0x0 DUP2 MLOAD DUP1 DUP5 MSTORE PUSH2 0x4D9F DUP2 PUSH1 0x20 DUP7 ADD PUSH1 0x20 DUP7 ADD PUSH2 0x4D63 JUMP JUMPDEST PUSH1 0x1F ADD PUSH1 0x1F NOT AND SWAP3 SWAP1 SWAP3 ADD PUSH1 0x20 ADD SWAP3 SWAP2 POP POP JUMP JUMPDEST PUSH1 0x20 DUP2 MSTORE PUSH1 0x0 PUSH2 0x4D43 PUSH1 0x20 DUP4 ADD DUP5 PUSH2 0x4D87 JUMP JUMPDEST PUSH1 0x0 PUSH1 0x20 DUP3 DUP5 SUB SLT ISZERO PUSH2 0x4DD8 JUMPI PUSH1 0x0 DUP1 REVERT JUMPDEST PUSH2 0x4D43 DUP3 PUSH2 0x4CCA JUMP JUMPDEST PUSH1 0x20 DUP1 DUP3 MSTORE DUP3 MLOAD DUP3 DUP3 ADD DUP2 SWAP1 MSTORE PUSH1 0x0 SWAP2 SWAP1 PUSH1 0x40 SWAP1 DUP2 DUP6 ADD SWAP1 DUP7 DUP5 ADD DUP6 JUMPDEST DUP3 DUP2 LT ISZERO PUSH2 0x4E55 JUMPI DUP2 MLOAD DUP1 MLOAD DUP6 MSTORE DUP7 DUP2 ADD MLOAD DUP8 DUP7 ADD MSTORE DUP6 DUP2 ADD MLOAD DUP7 DUP7 ADD MSTORE PUSH1 0x60 DUP1 DUP3 ADD MLOAD PUSH1 0x1 PUSH1 0x1 PUSH1 0xA0 SHL SUB AND SWAP1 DUP7 ADD MSTORE PUSH1 0x80 DUP1 DUP3 ADD MLOAD SWAP1 DUP7 ADD MSTORE PUSH1 0xA0 SWAP1 DUP2 ADD MLOAD SWAP1 DUP6 ADD MSTORE PUSH1 0xC0 SWAP1 SWAP4 ADD SWAP3 SWAP1 DUP6 ADD SWAP1 PUSH1 0x1 ADD PUSH2 0x4DFE JUMP JUMPDEST POP SWAP2 SWAP8 SWAP7 POP POP POP POP POP POP POP JUMP JUMPDEST PUSH1 0x0 DUP1 PUSH1 0x40 DUP4 DUP6 SUB SLT ISZERO PUSH2 0x4E75 JUMPI PUSH1 0x0 DUP1 REVERT JUMPDEST POP POP DUP1 CALLDATALOAD SWAP3 PUSH1 0x20 SWAP1 SWAP2 ADD CALLDATALOAD SWAP2 POP JUMP JUMPDEST PUSH4 0x4E487B71 PUSH1 0xE0 SHL PUSH1 0x0 MSTORE PUSH1 0x41 PUSH1 0x4 MSTORE PUSH1 0x24 PUSH1 0x0 REVERT JUMPDEST PUSH1 0x40 MLOAD PUSH1 0x1F DUP3 ADD PUSH1 0x1F NOT AND DUP2 ADD PUSH8 0xFFFFFFFFFFFFFFFF DUP2 GT DUP3 DUP3 LT OR ISZERO PUSH2 0x4EC3 JUMPI PUSH2 0x4EC3 PUSH2 0x4E84 JUMP JUMPDEST PUSH1 0x40 MSTORE SWAP2 SWAP1 POP JUMP JUMPDEST PUSH1 0x0 PUSH8 0xFFFFFFFFFFFFFFFF DUP3 GT ISZERO PUSH2 0x4EE5 JUMPI PUSH2 0x4EE5 PUSH2 0x4E84 JUMP JUMPDEST POP PUSH1 0x5 SHL PUSH1 0x20 ADD SWAP1 JUMP JUMPDEST PUSH1 0x0 DUP3 PUSH1 0x1F DUP4 ADD SLT PUSH2 0x4F00 JUMPI PUSH1 0x0 DUP1 REVERT JUMPDEST DUP2 CALLDATALOAD PUSH1 0x20 PUSH2 0x4F15 PUSH2 0x4F10 DUP4 PUSH2 0x4ECB JUMP JUMPDEST PUSH2 0x4E9A JUMP JUMPDEST DUP1 DUP4 DUP3 MSTORE PUSH1 0x20 DUP3 ADD SWAP2 POP PUSH1 0x20 DUP5 PUSH1 0x5 SHL DUP8 ADD ADD SWAP4 POP DUP7 DUP5 GT ISZERO PUSH2 0x4F37 JUMPI PUSH1 0x0 DUP1 REVERT JUMPDEST PUSH1 0x20 DUP7 ADD JUMPDEST DUP5 DUP2 LT ISZERO PUSH2 0x4F53 JUMPI DUP1 CALLDATALOAD DUP4 MSTORE SWAP2 DUP4 ADD SWAP2 DUP4 ADD PUSH2 0x4F3C JUMP JUMPDEST POP SWAP7 SWAP6 POP POP POP POP POP POP JUMP JUMPDEST PUSH1 0x0 DUP3 PUSH1 0x1F DUP4 ADD SLT PUSH2 0x4F6F JUMPI PUSH1 0x0 DUP1 REVERT JUMPDEST DUP2 CALLDATALOAD PUSH8 0xFFFFFFFFFFFFFFFF DUP2 GT ISZERO PUSH2 0x4F89 JUMPI PUSH2 0x4F89 PUSH2 0x4E84 JUMP JUMPDEST PUSH2 0x4F9C PUSH1 0x1F DUP3 ADD PUSH1 0x1F NOT AND PUSH1 0x20 ADD PUSH2 0x4E9A JUMP JUMPDEST DUP2 DUP2 MSTORE DUP5 PUSH1 0x20 DUP4 DUP7 ADD ADD GT ISZERO PUSH2 0x4FB1 JUMPI PUSH1 0x0 DUP1 REVERT JUMPDEST DUP2 PUSH1 0x20 DUP6 ADD PUSH1 0x20 DUP4 ADD CALLDATACOPY PUSH1 0x0 SWAP2 DUP2 ADD PUSH1 0x20 ADD SWAP2 SWAP1 SWAP2 MSTORE SWAP4 SWAP3 POP POP POP JUMP JUMPDEST PUSH1 0x0 DUP1 PUSH1 0x0 DUP1 PUSH1 0x0 PUSH1 0xA0 DUP7 DUP9 SUB SLT ISZERO PUSH2 0x4FE6 JUMPI PUSH1 0x0 DUP1 REVERT JUMPDEST PUSH2 0x4FEF DUP7 PUSH2 0x4CCA JUMP JUMPDEST SWAP5 POP PUSH2 0x4FFD PUSH1 0x20 DUP8 ADD PUSH2 0x4CCA JUMP JUMPDEST SWAP4 POP PUSH1 0x40 DUP7 ADD CALLDATALOAD PUSH8 0xFFFFFFFFFFFFFFFF DUP1 DUP3 GT ISZERO PUSH2 0x501A JUMPI PUSH1 0x0 DUP1 REVERT JUMPDEST PUSH2 0x5026 DUP10 DUP4 DUP11 ADD PUSH2 0x4EEF JUMP JUMPDEST SWAP5 POP PUSH1 0x60 DUP9 ADD CALLDATALOAD SWAP2 POP DUP1 DUP3 GT ISZERO PUSH2 0x503C JUMPI PUSH1 0x0 DUP1 REVERT JUMPDEST PUSH2 0x5048 DUP10 DUP4 DUP11 ADD PUSH2 0x4EEF JUMP JUMPDEST SWAP4 POP PUSH1 0x80 DUP9 ADD CALLDATALOAD SWAP2 POP DUP1 DUP3 GT ISZERO PUSH2 0x505E JUMPI PUSH1 0x0 DUP1 REVERT JUMPDEST POP PUSH2 0x506B DUP9 DUP3 DUP10 ADD PUSH2 0x4F5E JUMP JUMPDEST SWAP2 POP POP SWAP3 SWAP6 POP SWAP3 SWAP6 SWAP1 SWAP4 POP JUMP JUMPDEST PUSH1 0x0 DUP1 PUSH1 0x20 DUP4 DUP6 SUB SLT ISZERO PUSH2 0x508B JUMPI PUSH1 0x0 DUP1 REVERT JUMPDEST DUP3 CALLDATALOAD PUSH8 0xFFFFFFFFFFFFFFFF DUP1 DUP3 GT ISZERO PUSH2 0x50A3 JUMPI PUSH1 0x0 DUP1 REVERT JUMPDEST DUP2 DUP6 ADD SWAP2 POP DUP6 PUSH1 0x1F DUP4 ADD SLT PUSH2 0x50B7 JUMPI PUSH1 0x0 DUP1 REVERT JUMPDEST DUP2 CALLDATALOAD DUP2 DUP2 GT ISZERO PUSH2 0x50C6 JUMPI PUSH1 0x0 DUP1 REVERT JUMPDEST DUP7 PUSH1 0x20 DUP3 DUP6 ADD ADD GT ISZERO PUSH2 0x50D8 JUMPI PUSH1 0x0 DUP1 REVERT JUMPDEST PUSH1 0x20 SWAP3 SWAP1 SWAP3 ADD SWAP7 SWAP2 SWAP6 POP SWAP1 SWAP4 POP POP POP POP JUMP JUMPDEST PUSH1 0x0 DUP1 PUSH1 0x40 DUP4 DUP6 SUB SLT ISZERO PUSH2 0x50FD JUMPI PUSH1 0x0 DUP1 REVERT JUMPDEST DUP3 CALLDATALOAD PUSH8 0xFFFFFFFFFFFFFFFF DUP1 DUP3 GT ISZERO PUSH2 0x5115 JUMPI PUSH1 0x0 DUP1 REVERT JUMPDEST DUP2 DUP6 ADD SWAP2 POP DUP6 PUSH1 0x1F DUP4 ADD SLT PUSH2 0x5129 JUMPI PUSH1 0x0 DUP1 REVERT JUMPDEST DUP2 CALLDATALOAD PUSH1 0x20 PUSH2 0x5139 PUSH2 0x4F10 DUP4 PUSH2 0x4ECB JUMP JUMPDEST DUP3 DUP2 MSTORE PUSH1 0x5 SWAP3 SWAP1 SWAP3 SHL DUP5 ADD DUP2 ADD SWAP2 DUP2 DUP2 ADD SWAP1 DUP10 DUP5 GT ISZERO PUSH2 0x5158 JUMPI PUSH1 0x0 DUP1 REVERT JUMPDEST SWAP5 DUP3 ADD SWAP5 JUMPDEST DUP4 DUP7 LT ISZERO PUSH2 0x517D JUMPI PUSH2 0x516E DUP7 PUSH2 0x4CCA JUMP JUMPDEST DUP3 MSTORE SWAP5 DUP3 ADD SWAP5 SWAP1 DUP3 ADD SWAP1 PUSH2 0x515D JUMP JUMPDEST SWAP7 POP POP DUP7 ADD CALLDATALOAD SWAP3 POP POP DUP1 DUP3 GT ISZERO PUSH2 0x5193 JUMPI PUSH1 0x0 DUP1 REVERT JUMPDEST POP PUSH2 0x51A0 DUP6 DUP3 DUP7 ADD PUSH2 0x4EEF JUMP JUMPDEST SWAP2 POP POP SWAP3 POP SWAP3 SWAP1 POP JUMP JUMPDEST PUSH1 0x0 DUP2 MLOAD DUP1 DUP5 MSTORE PUSH1 0x20 DUP1 DUP6 ADD SWAP5 POP PUSH1 0x20 DUP5 ADD PUSH1 0x0 JUMPDEST DUP4 DUP2 LT ISZERO PUSH2 0x51DB JUMPI DUP2 MLOAD DUP8 MSTORE SWAP6 DUP3 ADD SWAP6 SWAP1 DUP3 ADD SWAP1 PUSH1 0x1 ADD PUSH2 0x51BF JUMP JUMPDEST POP SWAP5 SWAP6 SWAP5 POP POP POP POP POP JUMP JUMPDEST PUSH1 0x20 DUP2 MSTORE PUSH1 0x0 PUSH2 0x4D43 PUSH1 0x20 DUP4 ADD DUP5 PUSH2 0x51AA JUMP JUMPDEST PUSH1 0x0 DUP1 PUSH1 0x0 DUP1 PUSH1 0x0 PUSH1 0xA0 DUP7 DUP9 SUB SLT ISZERO PUSH2 0x5211 JUMPI PUSH1 0x0 DUP1 REVERT JUMPDEST DUP6 CALLDATALOAD SWAP5 POP PUSH1 0x20 DUP7 ADD CALLDATALOAD PUSH8 0xFFFFFFFFFFFFFFFF DUP1 DUP3 GT ISZERO PUSH2 0x5230 JUMPI PUSH1 0x0 DUP1 REVERT JUMPDEST PUSH2 0x523C DUP10 DUP4 DUP11 ADD PUSH2 0x4F5E JUMP JUMPDEST SWAP6 POP PUSH1 0x40 DUP9 ADD CALLDATALOAD SWAP2 POP DUP1 DUP3 GT ISZERO PUSH2 0x5252 JUMPI PUSH1 0x0 DUP1 REVERT JUMPDEST PUSH2 0x525E DUP10 DUP4 DUP11 ADD PUSH2 0x4F5E JUMP JUMPDEST SWAP5 POP PUSH1 0x60 DUP9 ADD CALLDATALOAD SWAP2 POP DUP1 DUP3 GT ISZERO PUSH2 0x5274 JUMPI PUSH1 0x0 DUP1 REVERT JUMPDEST PUSH2 0x5280 DUP10 DUP4 DUP11 ADD PUSH2 0x4EEF JUMP JUMPDEST SWAP4 POP PUSH1 0x80 DUP9 ADD CALLDATALOAD SWAP2 POP DUP1 DUP3 GT ISZERO PUSH2 0x5296 JUMPI PUSH1 0x0 DUP1 REVERT JUMPDEST POP PUSH2 0x506B DUP9 DUP3 DUP10 ADD PUSH2 0x4EEF JUMP JUMPDEST PUSH1 0x20 DUP1 DUP3 MSTORE DUP3 MLOAD DUP3 DUP3 ADD DUP2 SWAP1 MSTORE PUSH1 0x0 SWAP2 SWAP1 PUSH1 0x40 SWAP1 DUP2 DUP6 ADD SWAP1 DUP7 DUP5 ADD DUP6 JUMPDEST DUP3 DUP2 LT ISZERO PUSH2 0x4E55 JUMPI DUP2 MLOAD DUP1 MLOAD DUP6 MSTORE DUP7 DUP2 ADD MLOAD DUP8 DUP7 ADD MSTORE DUP6 DUP2 ADD MLOAD DUP7 DUP7 ADD MSTORE PUSH1 0x60 DUP1 DUP3 ADD MLOAD SWAP1 DUP7 ADD MSTORE PUSH1 0x80 DUP1 DUP3 ADD MLOAD SWAP1 DUP7 ADD MSTORE PUSH1 0xA0 DUP1 DUP3 ADD MLOAD PUSH1 0x1 PUSH1 0x1 PUSH1 0xA0 SHL SUB AND SWAP1 DUP7 ADD MSTORE PUSH1 0xC0 SWAP1 DUP2 ADD MLOAD SWAP1 DUP6 ADD MSTORE PUSH1 0xE0 SWAP1 SWAP4 ADD SWAP3 SWAP1 DUP6 ADD SWAP1 PUSH1 0x1 ADD PUSH2 0x52C0 JUMP JUMPDEST PUSH1 0x0 DUP1 PUSH1 0x0 DUP1 PUSH1 0x80 DUP6 DUP8 SUB SLT ISZERO PUSH2 0x5337 JUMPI PUSH1 0x0 DUP1 REVERT JUMPDEST DUP5 CALLDATALOAD SWAP4 POP PUSH1 0x20 DUP6 ADD CALLDATALOAD SWAP3 POP PUSH2 0x534E PUSH1 0x40 DUP7 ADD PUSH2 0x4CCA JUMP JUMPDEST SWAP4 SWAP7 SWAP3 SWAP6 POP SWAP3 SWAP4 PUSH1 0x60 ADD CALLDATALOAD SWAP3 POP POP JUMP JUMPDEST PUSH1 0x0 PUSH1 0x20 DUP3 DUP5 SUB SLT ISZERO PUSH2 0x5370 JUMPI PUSH1 0x0 DUP1 REVERT JUMPDEST DUP2 CALLDATALOAD PUSH8 0xFFFFFFFFFFFFFFFF DUP2 GT ISZERO PUSH2 0x5387 JUMPI PUSH1 0x0 DUP1 REVERT JUMPDEST PUSH2 0x5393 DUP5 DUP3 DUP6 ADD PUSH2 0x4F5E JUMP JUMPDEST SWAP5 SWAP4 POP POP POP POP JUMP JUMPDEST PUSH1 0x0 DUP1 PUSH1 0x40 DUP4 DUP6 SUB SLT ISZERO PUSH2 0x53AE JUMPI PUSH1 0x0 DUP1 REVERT JUMPDEST PUSH2 0x53B7 DUP4 PUSH2 0x4CCA JUMP JUMPDEST SWAP2 POP PUSH1 0x20 DUP4 ADD CALLDATALOAD DUP1 ISZERO ISZERO DUP2 EQ PUSH2 0x53CC JUMPI PUSH1 0x0 DUP1 REVERT JUMPDEST DUP1 SWAP2 POP POP SWAP3 POP SWAP3 SWAP1 POP JUMP JUMPDEST PUSH1 0x0 PUSH1 0x20 DUP1 DUP4 ADD DUP2 DUP5 MSTORE DUP1 DUP6 MLOAD DUP1 DUP4 MSTORE PUSH1 0x40 SWAP3 POP PUSH1 0x40 DUP7 ADD SWAP2 POP PUSH1 0x40 DUP2 PUSH1 0x5 SHL DUP8 ADD ADD DUP5 DUP9 ADD PUSH1 0x0 DUP1 JUMPDEST DUP5 DUP2 LT ISZERO PUSH2 0x549D JUMPI PUSH1 0x3F NOT DUP11 DUP6 SUB ADD DUP7 MSTORE DUP3 MLOAD PUSH1 0x80 DUP2 MLOAD DUP2 DUP8 MSTORE PUSH2 0x5427 DUP3 DUP9 ADD DUP3 PUSH2 0x4D87 JUMP JUMPDEST DUP4 DUP13 ADD MLOAD PUSH1 0x1 PUSH1 0x1 PUSH1 0xA0 SHL SUB SWAP1 DUP2 AND DUP10 DUP15 ADD MSTORE DUP12 DUP6 ADD MLOAD DUP13 DUP11 ADD MSTORE PUSH1 0x60 SWAP5 DUP6 ADD MLOAD DUP10 DUP4 SUB SWAP6 DUP11 ADD SWAP6 SWAP1 SWAP6 MSTORE DUP5 MLOAD DUP1 DUP4 MSTORE SWAP5 DUP14 ADD SWAP5 DUP8 SWAP5 POP SWAP2 DUP14 ADD SWAP3 POP SWAP1 JUMPDEST DUP1 DUP5 LT ISZERO PUSH2 0x5487 JUMPI DUP5 MLOAD DUP3 AND DUP4 MSTORE SWAP4 DUP13 ADD SWAP4 PUSH1 0x1 SWAP4 SWAP1 SWAP4 ADD SWAP3 SWAP2 DUP13 ADD SWAP2 PUSH2 0x5465 JUMP JUMPDEST POP POP SWAP8 DUP11 ADD SWAP8 SWAP6 POP POP POP SWAP2 DUP8 ADD SWAP2 PUSH1 0x1 ADD PUSH2 0x5401 JUMP JUMPDEST POP SWAP2 SWAP10 SWAP9 POP POP POP POP POP POP POP POP POP JUMP JUMPDEST PUSH1 0x0 DUP1 PUSH1 0x0 DUP1 PUSH1 0x0 DUP1 PUSH1 0xC0 DUP8 DUP10 SUB SLT ISZERO PUSH2 0x54C5 JUMPI PUSH1 0x0 DUP1 REVERT JUMPDEST DUP7 CALLDATALOAD SWAP6 POP PUSH1 0x20 DUP8 ADD CALLDATALOAD PUSH8 0xFFFFFFFFFFFFFFFF DUP1 DUP3 GT ISZERO PUSH2 0x54E4 JUMPI PUSH1 0x0 DUP1 REVERT JUMPDEST PUSH2 0x54F0 DUP11 DUP4 DUP12 ADD PUSH2 0x4F5E JUMP JUMPDEST SWAP7 POP PUSH1 0x40 DUP10 ADD CALLDATALOAD SWAP2 POP DUP1 DUP3 GT ISZERO PUSH2 0x5506 JUMPI PUSH1 0x0 DUP1 REVERT JUMPDEST PUSH2 0x5512 DUP11 DUP4 DUP12 ADD PUSH2 0x4F5E JUMP JUMPDEST SWAP6 POP PUSH1 0x60 DUP10 ADD CALLDATALOAD SWAP2 POP DUP1 DUP3 GT ISZERO PUSH2 0x5528 JUMPI PUSH1 0x0 DUP1 REVERT JUMPDEST POP PUSH2 0x5535 DUP10 DUP3 DUP11 ADD PUSH2 0x4F5E JUMP JUMPDEST SWAP4 POP POP PUSH1 0x80 DUP8 ADD CALLDATALOAD SWAP2 POP PUSH1 0xA0 DUP8 ADD CALLDATALOAD SWAP1 POP SWAP3 SWAP6 POP SWAP3 SWAP6 POP SWAP3 SWAP6 JUMP JUMPDEST PUSH1 0x0 DUP1 PUSH1 0x0 PUSH1 0x60 DUP5 DUP7 SUB SLT ISZERO PUSH2 0x5565 JUMPI PUSH1 0x0 DUP1 REVERT JUMPDEST POP POP DUP2 CALLDATALOAD SWAP4 PUSH1 0x20 DUP4 ADD CALLDATALOAD SWAP4 POP PUSH1 0x40 SWAP1 SWAP3 ADD CALLDATALOAD SWAP2 SWAP1 POP JUMP JUMPDEST PUSH1 0x0 DUP1 PUSH1 0x40 DUP4 DUP6 SUB SLT ISZERO PUSH2 0x558F JUMPI PUSH1 0x0 DUP1 REVERT JUMPDEST PUSH2 0x5598 DUP4 PUSH2 0x4CCA JUMP JUMPDEST SWAP2 POP PUSH2 0x55A6 PUSH1 0x20 DUP5 ADD PUSH2 0x4CCA JUMP JUMPDEST SWAP1 POP SWAP3 POP SWAP3 SWAP1 POP JUMP JUMPDEST PUSH1 0x20 DUP2 MSTORE DUP2 MLOAD PUSH1 0x20 DUP3 ADD MSTORE PUSH1 0x20 DUP3 ADD MLOAD PUSH1 0x40 DUP3 ADD MSTORE PUSH1 0x0 PUSH1 0x40 DUP4 ADD MLOAD PUSH2 0x100 DUP1 PUSH1 0x60 DUP6 ADD MSTORE PUSH2 0x55E2 PUSH2 0x120 DUP6 ADD DUP4 PUSH2 0x4D87 JUMP JUMPDEST SWAP2 POP PUSH1 0x60 DUP6 ADD MLOAD PUSH1 0x1F NOT DUP1 DUP7 DUP6 SUB ADD PUSH1 0x80 DUP8 ADD MSTORE PUSH2 0x5600 DUP5 DUP4 PUSH2 0x4D87 JUMP JUMPDEST SWAP4 POP PUSH1 0x80 DUP8 ADD MLOAD SWAP2 POP DUP1 DUP7 DUP6 SUB ADD PUSH1 0xA0 DUP8 ADD MSTORE POP PUSH2 0x561E DUP4 DUP3 PUSH2 0x4D87 JUMP JUMPDEST SWAP3 POP POP PUSH1 0xA0 DUP6 ADD MLOAD PUSH1 0xC0 DUP6 ADD MSTORE PUSH1 0xC0 DUP6 ADD MLOAD PUSH1 0xE0 DUP6 ADD MSTORE PUSH1 0xE0 DUP6 ADD MLOAD DUP2 DUP6 ADD MSTORE POP DUP1 SWAP2 POP POP SWAP3 SWAP2 POP POP JUMP JUMPDEST PUSH1 0x0 DUP1 PUSH1 0x0 DUP1 PUSH1 0x0 PUSH1 0xA0 DUP7 DUP9 SUB SLT ISZERO PUSH2 0x5661 JUMPI PUSH1 0x0 DUP1 REVERT JUMPDEST PUSH2 0x566A DUP7 PUSH2 0x4CCA JUMP JUMPDEST SWAP5 POP PUSH2 0x5678 PUSH1 0x20 DUP8 ADD PUSH2 0x4CCA JUMP JUMPDEST SWAP4 POP PUSH1 0x40 DUP7 ADD CALLDATALOAD SWAP3 POP PUSH1 0x60 DUP7 ADD CALLDATALOAD SWAP2 POP PUSH1 0x80 DUP7 ADD CALLDATALOAD PUSH8 0xFFFFFFFFFFFFFFFF DUP2 GT ISZERO PUSH2 0x56A2 JUMPI PUSH1 0x0 DUP1 REVERT JUMPDEST PUSH2 0x506B DUP9 DUP3 DUP10 ADD PUSH2 0x4F5E JUMP JUMPDEST PUSH1 0x0 DUP1 PUSH1 0x0 DUP1 PUSH1 0x80 DUP6 DUP8 SUB SLT ISZERO PUSH2 0x56C4 JUMPI PUSH1 0x0 DUP1 REVERT JUMPDEST POP POP DUP3 CALLDATALOAD SWAP5 PUSH1 0x20 DUP5 ADD CALLDATALOAD SWAP5 POP PUSH1 0x40 DUP5 ADD CALLDATALOAD SWAP4 PUSH1 0x60 ADD CALLDATALOAD SWAP3 POP SWAP1 POP JUMP JUMPDEST PUSH1 0x0 PUSH1 0x20 DUP1 DUP4 ADD DUP2 DUP5 MSTORE DUP1 DUP6 MLOAD DUP1 DUP4 MSTORE PUSH1 0x40 SWAP3 POP PUSH1 0x40 DUP7 ADD SWAP2 POP PUSH1 0x40 DUP2 PUSH1 0x5 SHL DUP8 ADD ADD DUP5 DUP9 ADD PUSH1 0x0 JUMPDEST DUP4 DUP2 LT ISZERO PUSH2 0x579B JUMPI PUSH1 0x3F NOT DUP10 DUP5 SUB ADD DUP6 MSTORE DUP2 MLOAD PUSH1 0xA0 DUP2 MLOAD DUP6 MSTORE DUP9 DUP3 ADD MLOAD DUP2 DUP11 DUP8 ADD MSTORE PUSH2 0x5737 DUP3 DUP8 ADD DUP3 PUSH2 0x4D87 JUMP JUMPDEST SWAP2 POP POP DUP8 DUP3 ADD MLOAD DUP6 DUP3 SUB DUP10 DUP8 ADD MSTORE PUSH2 0x574F DUP3 DUP3 PUSH2 0x4D87 JUMP JUMPDEST SWAP2 POP POP PUSH1 0x60 DUP1 DUP4 ADD MLOAD DUP7 DUP4 SUB DUP3 DUP9 ADD MSTORE PUSH2 0x5769 DUP4 DUP3 PUSH2 0x51AA JUMP JUMPDEST SWAP3 POP POP POP PUSH1 0x80 DUP1 DUP4 ADD MLOAD SWAP3 POP DUP6 DUP3 SUB DUP2 DUP8 ADD MSTORE POP PUSH2 0x5787 DUP2 DUP4 PUSH2 0x51AA JUMP JUMPDEST SWAP7 DUP10 ADD SWAP7 SWAP5 POP POP POP SWAP1 DUP7 ADD SWAP1 PUSH1 0x1 ADD PUSH2 0x5709 JUMP JUMPDEST POP SWAP1 SWAP9 SWAP8 POP POP POP POP POP POP POP POP JUMP JUMPDEST PUSH1 0x0 DUP1 PUSH1 0x0 DUP1 PUSH1 0x0 PUSH1 0xA0 DUP7 DUP9 SUB SLT ISZERO PUSH2 0x57C1 JUMPI PUSH1 0x0 DUP1 REVERT JUMPDEST POP POP DUP4 CALLDATALOAD SWAP6 PUSH1 0x20 DUP6 ADD CALLDATALOAD SWAP6 POP PUSH1 0x40 DUP6 ADD CALLDATALOAD SWAP5 PUSH1 0x60 DUP2 ADD CALLDATALOAD SWAP5 POP PUSH1 0x80 ADD CALLDATALOAD SWAP3 POP SWAP1 POP JUMP JUMPDEST PUSH1 0x1 DUP2 DUP2 SHR SWAP1 DUP3 AND DUP1 PUSH2 0x57F8 JUMPI PUSH1 0x7F DUP3 AND SWAP2 POP JUMPDEST PUSH1 0x20 DUP3 LT DUP2 SUB PUSH2 0x5818 JUMPI PUSH4 0x4E487B71 PUSH1 0xE0 SHL PUSH1 0x0 MSTORE PUSH1 0x22 PUSH1 0x4 MSTORE PUSH1 0x24 PUSH1 0x0 REVERT JUMPDEST POP SWAP2 SWAP1 POP JUMP JUMPDEST PUSH1 0x0 DUP1 DUP4 SLOAD PUSH2 0x582C DUP2 PUSH2 0x57E4 JUMP JUMPDEST PUSH1 0x1 DUP3 DUP2 AND DUP1 ISZERO PUSH2 0x5844 JUMPI PUSH1 0x1 DUP2 EQ PUSH2 0x5859 JUMPI PUSH2 0x5888 JUMP JUMPDEST PUSH1 0xFF NOT DUP5 AND DUP8 MSTORE DUP3 ISZERO ISZERO DUP4 MUL DUP8 ADD SWAP5 POP PUSH2 0x5888 JUMP JUMPDEST DUP8 PUSH1 0x0 MSTORE PUSH1 0x20 DUP1 PUSH1 0x0 KECCAK256 PUSH1 0x0 JUMPDEST DUP6 DUP2 LT ISZERO PUSH2 0x587F JUMPI DUP2 SLOAD DUP11 DUP3 ADD MSTORE SWAP1 DUP5 ADD SWAP1 DUP3 ADD PUSH2 0x5866 JUMP JUMPDEST POP POP POP DUP3 DUP8 ADD SWAP5 POP JUMPDEST POP SWAP3 SWAP7 SWAP6 POP POP POP POP POP POP JUMP JUMPDEST PUSH1 0x20 DUP1 DUP3 MSTORE PUSH1 0x48 SWAP1 DUP3 ADD MSTORE PUSH32 0xD0A2D0BED0BBD18CD0BAD0BE20D0B2D0BBD0B0D0B4D0B5D0BBD0B5D18620D0BC PUSH1 0x40 DUP3 ADD MSTORE PUSH32 0xD0BED0B6D0B5D18220D18DD182D0BE20D0B8D181D0BFD0BED0BBD18CD0B7D0BE PUSH1 0x60 DUP3 ADD MSTORE PUSH8 0x342CB42C3460B463 PUSH1 0xC2 SHL PUSH1 0x80 DUP3 ADD MSTORE PUSH1 0xA0 ADD SWAP1 JUMP JUMPDEST PUSH4 0x4E487B71 PUSH1 0xE0 SHL PUSH1 0x0 MSTORE PUSH1 0x32 PUSH1 0x4 MSTORE PUSH1 0x24 PUSH1 0x0 REVERT JUMPDEST PUSH4 0x4E487B71 PUSH1 0xE0 SHL PUSH1 0x0 MSTORE PUSH1 0x11 PUSH1 0x4 MSTORE PUSH1 0x24 PUSH1 0x0 REVERT JUMPDEST DUP1 DUP3 MUL DUP2 ISZERO DUP3 DUP3 DIV DUP5 EQ OR PUSH2 0x465 JUMPI PUSH2 0x465 PUSH2 0x5918 JUMP JUMPDEST PUSH1 0x1F DUP3 GT ISZERO PUSH2 0x1C13 JUMPI PUSH1 0x0 DUP2 PUSH1 0x0 MSTORE PUSH1 0x20 PUSH1 0x0 KECCAK256 PUSH1 0x1F DUP6 ADD PUSH1 0x5 SHR DUP2 ADD PUSH1 0x20 DUP7 LT ISZERO PUSH2 0x596E JUMPI POP DUP1 JUMPDEST PUSH1 0x1F DUP6 ADD PUSH1 0x5 SHR DUP3 ADD SWAP2 POP JUMPDEST DUP2 DUP2 LT ISZERO PUSH2 0x13A8 JUMPI DUP3 DUP2 SSTORE PUSH1 0x1 ADD PUSH2 0x597A JUMP JUMPDEST DUP2 MLOAD PUSH8 0xFFFFFFFFFFFFFFFF DUP2 GT ISZERO PUSH2 0x59A7 JUMPI PUSH2 0x59A7 PUSH2 0x4E84 JUMP JUMPDEST PUSH2 0x59BB DUP2 PUSH2 0x59B5 DUP5 SLOAD PUSH2 0x57E4 JUMP JUMPDEST DUP5 PUSH2 0x5945 JUMP JUMPDEST PUSH1 0x20 DUP1 PUSH1 0x1F DUP4 GT PUSH1 0x1 DUP2 EQ PUSH2 0x59F0 JUMPI PUSH1 0x0 DUP5 ISZERO PUSH2 0x59D8 JUMPI POP DUP6 DUP4 ADD MLOAD JUMPDEST PUSH1 0x0 NOT PUSH1 0x3 DUP7 SWAP1 SHL SHR NOT AND PUSH1 0x1 DUP6 SWAP1 SHL OR DUP6 SSTORE PUSH2 0x13A8 JUMP JUMPDEST PUSH1 0x0 DUP6 DUP2 MSTORE PUSH1 0x20 DUP2 KECCAK256 PUSH1 0x1F NOT DUP7 AND SWAP2 JUMPDEST DUP3 DUP2 LT ISZERO PUSH2 0x5A1F JUMPI DUP9 DUP7 ADD MLOAD DUP3 SSTORE SWAP5 DUP5 ADD SWAP5 PUSH1 0x1 SWAP1 SWAP2 ADD SWAP1 DUP5 ADD PUSH2 0x5A00 JUMP JUMPDEST POP DUP6 DUP3 LT ISZERO PUSH2 0x5A3D JUMPI DUP8 DUP6 ADD MLOAD PUSH1 0x0 NOT PUSH1 0x3 DUP9 SWAP1 SHL PUSH1 0xF8 AND SHR NOT AND DUP2 SSTORE JUMPDEST POP POP POP POP POP PUSH1 0x1 SWAP1 DUP2 SHL ADD SWAP1 SSTORE POP JUMP JUMPDEST PUSH1 0x20 DUP1 DUP3 MSTORE PUSH1 0x1F SWAP1 DUP3 ADD MSTORE PUSH32 0xD090D183D0BAD186D0B8D0BED0BD20D0B7D0B0D0B2D0B5D180D188D191D0BD00 PUSH1 0x40 DUP3 ADD MSTORE PUSH1 0x60 ADD SWAP1 JUMP JUMPDEST DUP1 DUP3 ADD DUP1 DUP3 GT ISZERO PUSH2 0x465 JUMPI PUSH2 0x465 PUSH2 0x5918 JUMP JUMPDEST PUSH1 0x0 DUP1 DUP6 DUP6 GT ISZERO PUSH2 0x5AA7 JUMPI PUSH1 0x0 DUP1 REVERT JUMPDEST DUP4 DUP7 GT ISZERO PUSH2 0x5AB4 JUMPI PUSH1 0x0 DUP1 REVERT JUMPDEST POP POP DUP3 ADD SWAP4 SWAP2 SWAP1 SWAP3 SUB SWAP2 POP JUMP JUMPDEST PUSH6 0x50524F46492D PUSH1 0xD0 SHL DUP2 MSTORE DUP2 DUP4 PUSH1 0x6 DUP4 ADD CALLDATACOPY PUSH4 0xC8C0C8D PUSH1 0xE2 SHL SWAP2 ADD PUSH1 0x6 DUP2 ADD SWAP2 SWAP1 SWAP2 MSTORE PUSH1 0xA ADD SWAP2 SWAP1 POP JUMP JUMPDEST PUSH1 0x0 DUP3 MLOAD PUSH2 0x5B00 DUP2 DUP5 PUSH1 0x20 DUP8 ADD PUSH2 0x4D63 JUMP JUMPDEST SWAP2 SWAP1 SWAP2 ADD SWAP3 SWAP2 POP POP JUMP JUMPDEST DUP2 DUP2 SUB DUP2 DUP2 GT ISZERO PUSH2 0x465 JUMPI PUSH2 0x465 PUSH2 0x5918 JUMP JUMPDEST PUSH1 0x0 DUP3 PUSH2 0x5B3A JUMPI PUSH4 0x4E487B71 PUSH1 0xE0 SHL PUSH1 0x0 MSTORE PUSH1 0x12 PUSH1 0x4 MSTORE PUSH1 0x24 PUSH1 0x0 REVERT JUMPDEST POP DIV SWAP1 JUMP JUMPDEST PUSH1 0x40 DUP2 MSTORE PUSH1 0x0 PUSH2 0x5B52 PUSH1 0x40 DUP4 ADD DUP6 PUSH2 0x51AA JUMP JUMPDEST DUP3 DUP2 SUB PUSH1 0x20 DUP5 ADD MSTORE PUSH2 0x5B64 DUP2 DUP6 PUSH2 0x51AA JUMP JUMPDEST SWAP6 SWAP5 POP POP POP POP POP JUMP JUMPDEST PUSH1 0x1 PUSH1 0x1 PUSH1 0xA0 SHL SUB DUP7 DUP2 AND DUP3 MSTORE DUP6 AND PUSH1 0x20 DUP3 ADD MSTORE PUSH1 0x40 DUP2 ADD DUP5 SWAP1 MSTORE PUSH1 0x60 DUP2 ADD DUP4 SWAP1 MSTORE PUSH1 0xA0 PUSH1 0x80 DUP3 ADD DUP2 SWAP1 MSTORE PUSH1 0x0 SWAP1 PUSH2 0x5BA7 SWAP1 DUP4 ADD DUP5 PUSH2 0x4D87 JUMP JUMPDEST SWAP8 SWAP7 POP POP POP POP POP POP POP JUMP JUMPDEST PUSH1 0x0 PUSH1 0x20 DUP3 DUP5 SUB SLT ISZERO PUSH2 0x5BC4 JUMPI PUSH1 0x0 DUP1 REVERT JUMPDEST DUP2 MLOAD PUSH2 0x4D43 DUP2 PUSH2 0x4D10 JUMP JUMPDEST PUSH1 0x1 PUSH1 0x1 PUSH1 0xA0 SHL SUB DUP7 DUP2 AND DUP3 MSTORE DUP6 AND PUSH1 0x20 DUP3 ADD MSTORE PUSH1 0xA0 PUSH1 0x40 DUP3 ADD DUP2 SWAP1 MSTORE PUSH1 0x0 SWAP1 PUSH2 0x5BFB SWAP1 DUP4 ADD DUP7 PUSH2 0x51AA JUMP JUMPDEST DUP3 DUP2 SUB PUSH1 0x60 DUP5 ADD MSTORE PUSH2 0x5C0D DUP2 DUP7 PUSH2 0x51AA JUMP JUMPDEST SWAP1 POP DUP3 DUP2 SUB PUSH1 0x80 DUP5 ADD MSTORE PUSH2 0x5C21 DUP2 DUP6 PUSH2 0x4D87 JUMP JUMPDEST SWAP9 SWAP8 POP POP POP POP POP POP POP POP JUMP INVALID LOG2 PUSH5 0x6970667358 0x22 SLT KECCAK256 PUSH19 0xBB6D236463ED576BFD8B7ACB1BB9D96D16BDE6 PUSH30 0xE65253C62422F209BBD9A664736F6C63430008160033D09FD183D0B7D18B 0xD1 DUP1 0xD0 0xB8 0xD0 0xBA KECCAK256 0xD0 0xBF 0xD0 0xBE 0xD1 DUP6 0xD0 0xB8 0xD1 DUP3 0xD0 0xB8 0xD0 0xBB KECCAK256 0xD0 0xBA 0xD0 0xBE 0xD1 DUP3 0xD0 0xB8 0xD0 0xBA 0xD0 0xB0 KECCAK256 0xD1 DUP2 KECCAK256 0xD0 SWAP8 0xD0 0xB5 0xD0 0xBC 0xD0 0xBB 0xD0 0xB8 0xD0 SWAP11 0xD0 0xBE 0xD0 0xBC 0xD0 0xBE 0xD1 DUP8 0xD0 0xB5 0xD0 0xBA KECCAK256 0xD1 DUP2 0xD0 0xBB 0xD0 0xB8 0xD0 0xBB 0xD1 DUP2 0xD1 DUP16 KECCAK256 0xD1 DUP2 KECCAK256 0xD0 0xBA 0xD0 0xBE 0xD1 DUP2 0xD0 0xBC 0xD0 0xBE 0xD1 DUP2 0xD0 0xBE 0xD0 0xBC 0xD0 SWAP3 0xD0 0xBA 0xD1 DUP4 0xD1 DUP2 0xD0 0xBD 0xD1 DUP16 0xD1 DUP9 0xD0 0xBA 0xD0 0xB0 KECCAK256 0xD0 0xB2 0xD0 0xBF 0xD0 0xB5 0xD1 DUP1 0xD0 0xB2 0xD1 DUP12 0xD0 0xB5 KECCAK256 0xD0 0xBF 0xD1 DUP1 0xD0 0xBE 0xD0 0xB1 0xD1 DUP4 0xD0 0xB5 0xD1 DUP3 KECCAK256 0xD1 DUP16 0xD0 0xBF 0xD0 0xBE 0xD0 0xBD 0xD1 DUP2 0xD0 0xBA 0xD1 DUP4 0xD1 DUP15 KECCAK256 0xD0 0xBA 0xD1 DUP4 0xD1 DUP6 0xD0 0xBD 0xD1 DUP15 0xD0 SWAP15 0xD0 0xBD KECCAK256 0xD0 0xB8 0xD0 0xB4 0xD0 0xB5 0xD1 DUP3 KECCAK256 0xD0 0xB8 0xD0 0xB3 0xD1 DUP1 0xD0 0xB0 0xD1 DUP3 0xD1 DUP13 KECCAK256 0xD0 0xB2 KECCAK256 0xD0 0xB1 0xD0 0xB0 0xD1 DUP2 0xD0 0xBA 0xD0 0xB5 0xD1 DUP3 0xD0 0xB1 0xD0 0xBE 0xD0 0xBB "
		},
		"gasEstimates": {
			"creation": {
				"codeDepositCost": "4730200",
				"executionCost": "infinite",
				"totalCost": "infinite"
			},
			"external": {
				"addUsersRef(address)": "infinite",
				"balanceOf(address,uint256)": "2683",
				"balanceOfBatch(address[],uint256[])": "infinite",
				"bet(uint256,uint256)": "infinite",
				"buyNFT(uint256,uint256,uint256)": "infinite",
				"changeSellPrice(uint256,uint256)": "31182",
				"checkAucTime(uint256)": "infinite",
				"createCollection(uint256,string,string,uint256[],uint256[])": "infinite",
				"createNFT(uint256,string,string,string,uint256,uint256)": "infinite",
				"createRef(string)": "infinite",
				"finishAuc(uint256)": "infinite",
				"getAsset(uint256)": "infinite",
				"getAuction()": "infinite",
				"getCollectionAsset()": "infinite",
				"getReferrals()": "infinite",
				"getUserReferral()": "infinite",
				"getsellsArray()": "infinite",
				"isApprovedForAll(address,address)": "infinite",
				"safeBatchTransferFrom(address,address,uint256[],uint256[],bytes)": "infinite",
				"safeTransferFrom(address,address,uint256,uint256,bytes)": "infinite",
				"sellNFT(uint256,uint256,uint256,uint256)": "163974",
				"setApprovalForAll(address,bool)": "26704",
				"startAuc(uint256,uint256,uint256,uint256,uint256)": "infinite",
				"supportsInterface(bytes4)": "601",
				"takeNFT(uint256)": "infinite",
				"transferNFT(uint256,uint256,address,uint256)": "infinite",
				"upBet(uint256,uint256)": "infinite",
				"uri(uint256)": "infinite",
				"useReferral(string)": "infinite"
			}
		},
		"methodIdentifiers": {
			"addUsersRef(address)": "1b1bf2b9",
			"balanceOf(address,uint256)": "00fdd58e",
			"balanceOfBatch(address[],uint256[])": "4e1273f4",
			"bet(uint256,uint256)": "6ffcc719",
			"buyNFT(uint256,uint256,uint256)": "e4b70b42",
			"changeSellPrice(uint256,uint256)": "90420aee",
			"checkAucTime(uint256)": "bfcc4394",
			"createCollection(uint256,string,string,uint256[],uint256[])": "694f82b4",
			"createNFT(uint256,string,string,string,uint256,uint256)": "cf14bf3f",
			"createRef(string)": "4dad2aab",
			"finishAuc(uint256)": "222d9c5c",
			"getAsset(uint256)": "eac8f5b8",
			"getAuction()": "7327df25",
			"getCollectionAsset()": "f8976921",
			"getReferrals()": "a2a376cd",
			"getUserReferral()": "41fdf031",
			"getsellsArray()": "24897ed6",
			"isApprovedForAll(address,address)": "e985e9c5",
			"safeBatchTransferFrom(address,address,uint256[],uint256[],bytes)": "2eb2c2d6",
			"safeTransferFrom(address,address,uint256,uint256,bytes)": "f242432a",
			"sellNFT(uint256,uint256,uint256,uint256)": "f598b707",
			"setApprovalForAll(address,bool)": "a22cb465",
			"startAuc(uint256,uint256,uint256,uint256,uint256)": "f989965d",
			"supportsInterface(bytes4)": "01ffc9a7",
			"takeNFT(uint256)": "fb2facc3",
			"transferNFT(uint256,uint256,address,uint256)": "85494e45",
			"upBet(uint256,uint256)": "2d632205",
			"uri(uint256)": "0e89341c",
			"useReferral(string)": "97f588c6"
		}
	},
	"abi": [
		{
			"inputs": [
				{
					"internalType": "address",
					"name": "_contractAddress",
					"type": "address"
				}
			],
			"stateMutability": "nonpayable",
			"type": "constructor"
		},
		{
			"inputs": [
				{
					"internalType": "address",
					"name": "sender",
					"type": "address"
				},
				{
					"internalType": "uint256",
					"name": "balance",
					"type": "uint256"
				},
				{
					"internalType": "uint256",
					"name": "needed",
					"type": "uint256"
				},
				{
					"internalType": "uint256",
					"name": "tokenId",
					"type": "uint256"
				}
			],
			"name": "ERC1155InsufficientBalance",
			"type": "error"
		},
		{
			"inputs": [
				{
					"internalType": "address",
					"name": "approver",
					"type": "address"
				}
			],
			"name": "ERC1155InvalidApprover",
			"type": "error"
		},
		{
			"inputs": [
				{
					"internalType": "uint256",
					"name": "idsLength",
					"type": "uint256"
				},
				{
					"internalType": "uint256",
					"name": "valuesLength",
					"type": "uint256"
				}
			],
			"name": "ERC1155InvalidArrayLength",
			"type": "error"
		},
		{
			"inputs": [
				{
					"internalType": "address",
					"name": "operator",
					"type": "address"
				}
			],
			"name": "ERC1155InvalidOperator",
			"type": "error"
		},
		{
			"inputs": [
				{
					"internalType": "address",
					"name": "receiver",
					"type": "address"
				}
			],
			"name": "ERC1155InvalidReceiver",
			"type": "error"
		},
		{
			"inputs": [
				{
					"internalType": "address",
					"name": "sender",
					"type": "address"
				}
			],
			"name": "ERC1155InvalidSender",
			"type": "error"
		},
		{
			"inputs": [
				{
					"internalType": "address",
					"name": "operator",
					"type": "address"
				},
				{
					"internalType": "address",
					"name": "owner",
					"type": "address"
				}
			],
			"name": "ERC1155MissingApprovalForAll",
			"type": "error"
		},
		{
			"anonymous": false,
			"inputs": [
				{
					"indexed": true,
					"internalType": "address",
					"name": "account",
					"type": "address"
				},
				{
					"indexed": true,
					"internalType": "address",
					"name": "operator",
					"type": "address"
				},
				{
					"indexed": false,
					"internalType": "bool",
					"name": "approved",
					"type": "bool"
				}
			],
			"name": "ApprovalForAll",
			"type": "event"
		},
		{
			"anonymous": false,
			"inputs": [
				{
					"indexed": true,
					"internalType": "address",
					"name": "operator",
					"type": "address"
				},
				{
					"indexed": true,
					"internalType": "address",
					"name": "from",
					"type": "address"
				},
				{
					"indexed": true,
					"internalType": "address",
					"name": "to",
					"type": "address"
				},
				{
					"indexed": false,
					"internalType": "uint256[]",
					"name": "ids",
					"type": "uint256[]"
				},
				{
					"indexed": false,
					"internalType": "uint256[]",
					"name": "values",
					"type": "uint256[]"
				}
			],
			"name": "TransferBatch",
			"type": "event"
		},
		{
			"anonymous": false,
			"inputs": [
				{
					"indexed": true,
					"internalType": "address",
					"name": "operator",
					"type": "address"
				},
				{
					"indexed": true,
					"internalType": "address",
					"name": "from",
					"type": "address"
				},
				{
					"indexed": true,
					"internalType": "address",
					"name": "to",
					"type": "address"
				},
				{
					"indexed": false,
					"internalType": "uint256",
					"name": "id",
					"type": "uint256"
				},
				{
					"indexed": false,
					"internalType": "uint256",
					"name": "value",
					"type": "uint256"
				}
			],
			"name": "TransferSingle",
			"type": "event"
		},
		{
			"anonymous": false,
			"inputs": [
				{
					"indexed": false,
					"internalType": "string",
					"name": "value",
					"type": "string"
				},
				{
					"indexed": true,
					"internalType": "uint256",
					"name": "id",
					"type": "uint256"
				}
			],
			"name": "URI",
			"type": "event"
		},
		{
			"inputs": [
				{
					"internalType": "address",
					"name": "_users",
					"type": "address"
				}
			],
			"name": "addUsersRef",
			"outputs": [],
			"stateMutability": "nonpayable",
			"type": "function"
		},
		{
			"inputs": [
				{
					"internalType": "address",
					"name": "account",
					"type": "address"
				},
				{
					"internalType": "uint256",
					"name": "id",
					"type": "uint256"
				}
			],
			"name": "balanceOf",
			"outputs": [
				{
					"internalType": "uint256",
					"name": "",
					"type": "uint256"
				}
			],
			"stateMutability": "view",
			"type": "function"
		},
		{
			"inputs": [
				{
					"internalType": "address[]",
					"name": "accounts",
					"type": "address[]"
				},
				{
					"internalType": "uint256[]",
					"name": "ids",
					"type": "uint256[]"
				}
			],
			"name": "balanceOfBatch",
			"outputs": [
				{
					"internalType": "uint256[]",
					"name": "",
					"type": "uint256[]"
				}
			],
			"stateMutability": "view",
			"type": "function"
		},
		{
			"inputs": [
				{
					"internalType": "uint256",
					"name": "_idx",
					"type": "uint256"
				},
				{
					"internalType": "uint256",
					"name": "_bet",
					"type": "uint256"
				}
			],
			"name": "bet",
			"outputs": [],
			"stateMutability": "nonpayable",
			"type": "function"
		},
		{
			"inputs": [
				{
					"internalType": "uint256",
					"name": "_id",
					"type": "uint256"
				},
				{
					"internalType": "uint256",
					"name": "_amount",
					"type": "uint256"
				},
				{
					"internalType": "uint256",
					"name": "_discount",
					"type": "uint256"
				}
			],
			"name": "buyNFT",
			"outputs": [],
			"stateMutability": "nonpayable",
			"type": "function"
		},
		{
			"inputs": [
				{
					"internalType": "uint256",
					"name": "_idx",
					"type": "uint256"
				},
				{
					"internalType": "uint256",
					"name": "_price",
					"type": "uint256"
				}
			],
			"name": "changeSellPrice",
			"outputs": [],
			"stateMutability": "nonpayable",
			"type": "function"
		},
		{
			"inputs": [
				{
					"internalType": "uint256",
					"name": "_idx",
					"type": "uint256"
				}
			],
			"name": "checkAucTime",
			"outputs": [],
			"stateMutability": "nonpayable",
			"type": "function"
		},
		{
			"inputs": [
				{
					"internalType": "uint256",
					"name": "_id",
					"type": "uint256"
				},
				{
					"internalType": "string",
					"name": "_name",
					"type": "string"
				},
				{
					"internalType": "string",
					"name": "_desc",
					"type": "string"
				},
				{
					"internalType": "uint256[]",
					"name": "_ids",
					"type": "uint256[]"
				},
				{
					"internalType": "uint256[]",
					"name": "_amounts",
					"type": "uint256[]"
				}
			],
			"name": "createCollection",
			"outputs": [],
			"stateMutability": "nonpayable",
			"type": "function"
		},
		{
			"inputs": [
				{
					"internalType": "uint256",
					"name": "_id",
					"type": "uint256"
				},
				{
					"internalType": "string",
					"name": "_name",
					"type": "string"
				},
				{
					"internalType": "string",
					"name": "_desc",
					"type": "string"
				},
				{
					"internalType": "string",
					"name": "_img",
					"type": "string"
				},
				{
					"internalType": "uint256",
					"name": "_price",
					"type": "uint256"
				},
				{
					"internalType": "uint256",
					"name": "_releasedAmount",
					"type": "uint256"
				}
			],
			"name": "createNFT",
			"outputs": [],
			"stateMutability": "nonpayable",
			"type": "function"
		},
		{
			"inputs": [
				{
					"internalType": "string",
					"name": "_wallet",
					"type": "string"
				}
			],
			"name": "createRef",
			"outputs": [],
			"stateMutability": "nonpayable",
			"type": "function"
		},
		{
			"inputs": [
				{
					"internalType": "uint256",
					"name": "_idx",
					"type": "uint256"
				}
			],
			"name": "finishAuc",
			"outputs": [],
			"stateMutability": "nonpayable",
			"type": "function"
		},
		{
			"inputs": [
				{
					"internalType": "uint256",
					"name": "_idx",
					"type": "uint256"
				}
			],
			"name": "getAsset",
			"outputs": [
				{
					"components": [
						{
							"internalType": "uint256",
							"name": "id",
							"type": "uint256"
						},
						{
							"internalType": "uint256",
							"name": "idx",
							"type": "uint256"
						},
						{
							"internalType": "string",
							"name": "name",
							"type": "string"
						},
						{
							"internalType": "string",
							"name": "desc",
							"type": "string"
						},
						{
							"internalType": "string",
							"name": "img",
							"type": "string"
						},
						{
							"internalType": "uint256",
							"name": "price",
							"type": "uint256"
						},
						{
							"internalType": "uint256",
							"name": "releasedAmount",
							"type": "uint256"
						},
						{
							"internalType": "uint256",
							"name": "dateCreate",
							"type": "uint256"
						}
					],
					"internalType": "struct NFT.AssetNFT",
					"name": "",
					"type": "tuple"
				}
			],
			"stateMutability": "view",
			"type": "function"
		},
		{
			"inputs": [],
			"name": "getAuction",
			"outputs": [
				{
					"components": [
						{
							"internalType": "uint256",
							"name": "id",
							"type": "uint256"
						},
						{
							"internalType": "uint256",
							"name": "collectionId",
							"type": "uint256"
						},
						{
							"internalType": "uint256",
							"name": "timeStart",
							"type": "uint256"
						},
						{
							"internalType": "uint256",
							"name": "timeEnd",
							"type": "uint256"
						},
						{
							"internalType": "uint256",
							"name": "maxPrice",
							"type": "uint256"
						},
						{
							"internalType": "address",
							"name": "leader",
							"type": "address"
						},
						{
							"internalType": "uint256",
							"name": "currentBet",
							"type": "uint256"
						}
					],
					"internalType": "struct NFT.Auction[]",
					"name": "",
					"type": "tuple[]"
				}
			],
			"stateMutability": "view",
			"type": "function"
		},
		{
			"inputs": [],
			"name": "getCollectionAsset",
			"outputs": [
				{
					"components": [
						{
							"internalType": "uint256",
							"name": "id",
							"type": "uint256"
						},
						{
							"internalType": "string",
							"name": "name",
							"type": "string"
						},
						{
							"internalType": "string",
							"name": "desc",
							"type": "string"
						},
						{
							"internalType": "uint256[]",
							"name": "ids",
							"type": "uint256[]"
						},
						{
							"internalType": "uint256[]",
							"name": "amounts",
							"type": "uint256[]"
						}
					],
					"internalType": "struct NFT.CollectionAsset[]",
					"name": "",
					"type": "tuple[]"
				}
			],
			"stateMutability": "view",
			"type": "function"
		},
		{
			"inputs": [],
			"name": "getReferrals",
			"outputs": [
				{
					"components": [
						{
							"internalType": "string",
							"name": "name",
							"type": "string"
						},
						{
							"internalType": "address",
							"name": "owner",
							"type": "address"
						},
						{
							"internalType": "uint256",
							"name": "discount",
							"type": "uint256"
						},
						{
							"internalType": "address[]",
							"name": "users",
							"type": "address[]"
						}
					],
					"internalType": "struct NFT.ReferralCode[]",
					"name": "",
					"type": "tuple[]"
				}
			],
			"stateMutability": "view",
			"type": "function"
		},
		{
			"inputs": [],
			"name": "getUserReferral",
			"outputs": [
				{
					"internalType": "string",
					"name": "",
					"type": "string"
				}
			],
			"stateMutability": "view",
			"type": "function"
		},
		{
			"inputs": [],
			"name": "getsellsArray",
			"outputs": [
				{
					"components": [
						{
							"internalType": "uint256",
							"name": "id",
							"type": "uint256"
						},
						{
							"internalType": "uint256",
							"name": "assetId",
							"type": "uint256"
						},
						{
							"internalType": "uint256",
							"name": "assetIdx",
							"type": "uint256"
						},
						{
							"internalType": "address",
							"name": "seller",
							"type": "address"
						},
						{
							"internalType": "uint256",
							"name": "amount",
							"type": "uint256"
						},
						{
							"internalType": "uint256",
							"name": "price",
							"type": "uint256"
						}
					],
					"internalType": "struct NFT.AssetSell[]",
					"name": "",
					"type": "tuple[]"
				}
			],
			"stateMutability": "view",
			"type": "function"
		},
		{
			"inputs": [
				{
					"internalType": "address",
					"name": "account",
					"type": "address"
				},
				{
					"internalType": "address",
					"name": "operator",
					"type": "address"
				}
			],
			"name": "isApprovedForAll",
			"outputs": [
				{
					"internalType": "bool",
					"name": "",
					"type": "bool"
				}
			],
			"stateMutability": "view",
			"type": "function"
		},
		{
			"inputs": [
				{
					"internalType": "address",
					"name": "from",
					"type": "address"
				},
				{
					"internalType": "address",
					"name": "to",
					"type": "address"
				},
				{
					"internalType": "uint256[]",
					"name": "ids",
					"type": "uint256[]"
				},
				{
					"internalType": "uint256[]",
					"name": "values",
					"type": "uint256[]"
				},
				{
					"internalType": "bytes",
					"name": "data",
					"type": "bytes"
				}
			],
			"name": "safeBatchTransferFrom",
			"outputs": [],
			"stateMutability": "nonpayable",
			"type": "function"
		},
		{
			"inputs": [
				{
					"internalType": "address",
					"name": "from",
					"type": "address"
				},
				{
					"internalType": "address",
					"name": "to",
					"type": "address"
				},
				{
					"internalType": "uint256",
					"name": "id",
					"type": "uint256"
				},
				{
					"internalType": "uint256",
					"name": "value",
					"type": "uint256"
				},
				{
					"internalType": "bytes",
					"name": "data",
					"type": "bytes"
				}
			],
			"name": "safeTransferFrom",
			"outputs": [],
			"stateMutability": "nonpayable",
			"type": "function"
		},
		{
			"inputs": [
				{
					"internalType": "uint256",
					"name": "_id",
					"type": "uint256"
				},
				{
					"internalType": "uint256",
					"name": "_AssetIdx",
					"type": "uint256"
				},
				{
					"internalType": "uint256",
					"name": "_amount",
					"type": "uint256"
				},
				{
					"internalType": "uint256",
					"name": "_price",
					"type": "uint256"
				}
			],
			"name": "sellNFT",
			"outputs": [],
			"stateMutability": "nonpayable",
			"type": "function"
		},
		{
			"inputs": [
				{
					"internalType": "address",
					"name": "operator",
					"type": "address"
				},
				{
					"internalType": "bool",
					"name": "approved",
					"type": "bool"
				}
			],
			"name": "setApprovalForAll",
			"outputs": [],
			"stateMutability": "nonpayable",
			"type": "function"
		},
		{
			"inputs": [
				{
					"internalType": "uint256",
					"name": "_collectionId",
					"type": "uint256"
				},
				{
					"internalType": "uint256",
					"name": "_timeStart",
					"type": "uint256"
				},
				{
					"internalType": "uint256",
					"name": "_timeEnd",
					"type": "uint256"
				},
				{
					"internalType": "uint256",
					"name": "_maxPrice",
					"type": "uint256"
				},
				{
					"internalType": "uint256",
					"name": "_minPrice",
					"type": "uint256"
				}
			],
			"name": "startAuc",
			"outputs": [],
			"stateMutability": "nonpayable",
			"type": "function"
		},
		{
			"inputs": [
				{
					"internalType": "bytes4",
					"name": "interfaceId",
					"type": "bytes4"
				}
			],
			"name": "supportsInterface",
			"outputs": [
				{
					"internalType": "bool",
					"name": "",
					"type": "bool"
				}
			],
			"stateMutability": "view",
			"type": "function"
		},
		{
			"inputs": [
				{
					"internalType": "uint256",
					"name": "_idx",
					"type": "uint256"
				}
			],
			"name": "takeNFT",
			"outputs": [],
			"stateMutability": "nonpayable",
			"type": "function"
		},
		{
			"inputs": [
				{
					"internalType": "uint256",
					"name": "_id",
					"type": "uint256"
				},
				{
					"internalType": "uint256",
					"name": "_idx",
					"type": "uint256"
				},
				{
					"internalType": "address",
					"name": "_receiver",
					"type": "address"
				},
				{
					"internalType": "uint256",
					"name": "_amount",
					"type": "uint256"
				}
			],
			"name": "transferNFT",
			"outputs": [],
			"stateMutability": "nonpayable",
			"type": "function"
		},
		{
			"inputs": [
				{
					"internalType": "uint256",
					"name": "_idx",
					"type": "uint256"
				},
				{
					"internalType": "uint256",
					"name": "_amount",
					"type": "uint256"
				}
			],
			"name": "upBet",
			"outputs": [],
			"stateMutability": "nonpayable",
			"type": "function"
		},
		{
			"inputs": [
				{
					"internalType": "uint256",
					"name": "",
					"type": "uint256"
				}
			],
			"name": "uri",
			"outputs": [
				{
					"internalType": "string",
					"name": "",
					"type": "string"
				}
			],
			"stateMutability": "view",
			"type": "function"
		},
		{
			"inputs": [
				{
					"internalType": "string",
					"name": "_referral",
					"type": "string"
				}
			],
			"name": "useReferral",
			"outputs": [],
			"stateMutability": "nonpayable",
			"type": "function"
		}
	]
}