{
	"data": {
		"bytecode": {
			"linkReferences": {},
			"object": "60806040523480156200001157600080fd5b506040516200705338038062007053833981016040819052620000349162000ca0565b6040805160208101909152600081526200004e8162000372565b50600580546001600160a01b0319166001600160a01b0383169081179091556040805163313ce56760e01b8152905163313ce567916004808201926020929091908290030181865afa158015620000a9573d6000803e3d6000fd5b505050506040513d601f19601f82011682018060405250810190620000cf919062000cd2565b620000dc90600a62000e0c565b600355600480546001600160a01b03191633179055604080518082018252600e81526d684d685f685e685f68c3e85ae85d60911b602080830191909152825160608101909352602f80845262000162939162006fa89083013960408051808201909152600c81526b6361745f6e6674312e706e6760a01b60208201526000600162000384565b620001d8604051806040016040528060128152602001710d092d0bad183d181d0bdd18fd188d0bad0b60741b8152506040518060800160405280604c815260200162006fd7604c913960408051808201909152600c81526b6361745f6e6674322e706e6760a01b60208201526000600162000384565b6200024a6040518060400160405280600e81526020016d684fe8c1e85be8c5e8c0685c685d60911b81525060405180606001604052806038815260200162006f706038913960408051808201909152600c81526b6361745f6e6674332e706e6760a01b60208201526000600162000384565b620002ce6040518060400160405280601881526020017fd091d0b0d181d0bad0b5d182d0b1d0bed0bbd0b8d181d1820000000000000000815250604051806060016040528060308152602001620070236030913960408051808201909152600f81526e77616c6b65725f6e6674312e706e6760881b60208201526000600162000384565b6200036b604051806040016040528060128152602001716849685f685de8c4685ae858e85ee85c685d60711b8152506040518060400160405280602081526020017fd09ed0bd20d0b8d0b4d0b5d18220d0bad0bed0bbd0b4d0bed0b2d0b0d182d18c8152506040518060400160405280600f81526020016e77616c6b65725f6e6674322e706e6760881b815250600060016200038460201b60201c565b5062001131565b600262000380828262000ec0565b5050565b6004546001600160a01b031633146200041b5760405162461bcd60e51b815260206004820152604860248201527fd0a2d0bed0bbd18cd0bad0be20d0b2d0bbd0b0d0b4d0b5d0bbd0b5d18620d0bc60448201527fd0bed0b6d0b5d18220d18dd182d0be20d0b8d181d0bfd0bed0bbd18cd0b7d0be606482015267342cb42c3460b46360c21b608482015260a4015b60405180910390fd5b6010546040805160208101909152600081526200043c913391849062000783565b604080516101208101825233600090815260096020908152838220548352808301898152838501899052606084018890526080840187905260a0840186905260c084018690524260e08501526101008401839052601054835260089091529290208151815591519091906001820190620004b7908262000ec0565b5060408201516002820190620004ce908262000ec0565b5060608201516003820190620004e5908262000ec0565b506080820151816004015560a0820151816005015560c0820151816006015560e08201518160070155610100820151816008015590505060096000336001600160a01b03166001600160a01b0316815260200190815260200160002060405180610120016040528060096000336001600160a01b03166001600160a01b0316815260200190815260200160002080549050815260200187815260200186815260200185815260200184815260200183815260200183815260200142815260200160008152509080600181540180825580915050600190039060005260206000209060090201600090919091909150600082015181600001556020820151816001019081620005f4919062000ec0565b50604082015160028201906200060b908262000ec0565b506060820151600382019062000622908262000ec0565b50608082810151600483015560a080840151600584015560c080850151600685015560e08086015160078601556101009586015160089095019490945560408051610120810182523360009081526009602081815284832054845283018e81529383018d9052606083018c90529582018a90529381018890529182018790524294820194909452938401819052601080546001810182559152835191027f1b6847dc741a1b0cd08d278845f9d819d87b734759afb55fe2de5cb82a9ae6728101918255915190917f1b6847dc741a1b0cd08d278845f9d819d87b734759afb55fe2de5cb82a9ae673019062000718908262000ec0565b50604082015160028201906200072f908262000ec0565b506060820151600382019062000746908262000ec0565b506080820151816004015560a0820151816005015560c0820151816006015560e08201518160070155610100820151816008015550505050505050565b6001600160a01b038416620007af57604051632bfa23e760e11b81526000600482015260240162000412565b60408051600180825260208201869052818301908152606082018590526080820190925290620007e4600087848487620007ec565b505050505050565b620007fa858585856200084f565b6001600160a01b038416156200084857825133906001036200083857602084810151908401516200083083898985858962000a72565b5050620007e4565b620007e481878787878762000bac565b5050505050565b8051825114620008805781518151604051635b05999160e01b81526004810192909252602482015260440162000412565b3360005b83518110156200098e576020818102858101820151908501909101516001600160a01b038816156200093b576000828152602081815260408083206001600160a01b038c1684529091529020548181101562000914576040516303dee4c560e01b81526001600160a01b038a16600482015260248101829052604481018390526064810184905260840162000412565b6000838152602081815260408083206001600160a01b038d16845290915290209082900390555b6001600160a01b0387161562000983576000828152602081815260408083206001600160a01b038b168452909152812080548392906200097d90849062000f8c565b90915550505b505060010162000884565b50825160010362000a125760208301516000906020840151909150856001600160a01b0316876001600160a01b0316846001600160a01b03167fc3d58168c5ae7397731d063d5bbf3d657854427343f4c083240f7aacaa2d0f62858560405162000a02929190918252602082015260400190565b60405180910390a4505062000848565b836001600160a01b0316856001600160a01b0316826001600160a01b03167f4a39dc06d4c0dbc64b70af90fd698a233a518aa5d07e595d983b8c0526c8f7fb868660405162000a6392919062000fe0565b60405180910390a45050505050565b6001600160a01b0384163b15620007e45760405163f23a6e6160e01b81526001600160a01b0385169063f23a6e619062000ab990899089908890889088906004016200105a565b6020604051808303816000875af192505050801562000af7575060408051601f3d908101601f1916820190925262000af491810190620010a1565b60015b62000b65573d80801562000b28576040519150601f19603f3d011682016040523d82523d6000602084013e62000b2d565b606091505b50805160000362000b5d57604051632bfa23e760e11b81526001600160a01b038616600482015260240162000412565b805181602001fd5b6001600160e01b0319811663f23a6e6160e01b1462000ba357604051632bfa23e760e11b81526001600160a01b038616600482015260240162000412565b50505050505050565b6001600160a01b0384163b15620007e45760405163bc197c8160e01b81526001600160a01b0385169063bc197c819062000bf39089908990889088908890600401620010cd565b6020604051808303816000875af192505050801562000c31575060408051601f3d908101601f1916820190925262000c2e91810190620010a1565b60015b62000c62573d80801562000b28576040519150601f19603f3d011682016040523d82523d6000602084013e62000b2d565b6001600160e01b0319811663bc197c8160e01b1462000ba357604051632bfa23e760e11b81526001600160a01b038616600482015260240162000412565b60006020828403121562000cb357600080fd5b81516001600160a01b038116811462000ccb57600080fd5b9392505050565b60006020828403121562000ce557600080fd5b815160ff8116811462000ccb57600080fd5b634e487b7160e01b600052601160045260246000fd5b600181815b8085111562000d4e57816000190482111562000d325762000d3262000cf7565b8085161562000d4057918102915b93841c939080029062000d12565b509250929050565b60008262000d675750600162000e06565b8162000d765750600062000e06565b816001811462000d8f576002811462000d9a5762000dba565b600191505062000e06565b60ff84111562000dae5762000dae62000cf7565b50506001821b62000e06565b5060208310610133831016604e8410600b841016171562000ddf575081810a62000e06565b62000deb838362000d0d565b806000190482111562000e025762000e0262000cf7565b0290505b92915050565b600062000ccb60ff84168362000d56565b634e487b7160e01b600052604160045260246000fd5b600181811c9082168062000e4857607f821691505b60208210810362000e6957634e487b7160e01b600052602260045260246000fd5b50919050565b601f82111562000ebb576000816000526020600020601f850160051c8101602086101562000e9a5750805b601f850160051c820191505b81811015620007e45782815560010162000ea6565b505050565b81516001600160401b0381111562000edc5762000edc62000e1d565b62000ef48162000eed845462000e33565b8462000e6f565b602080601f83116001811462000f2c576000841562000f135750858301515b600019600386901b1c1916600185901b178555620007e4565b600085815260208120601f198616915b8281101562000f5d5788860151825594840194600190910190840162000f3c565b508582101562000f7c5787850151600019600388901b60f8161c191681555b5050505050600190811b01905550565b8082018082111562000e065762000e0662000cf7565b60008151808452602080850194506020840160005b8381101562000fd55781518752958201959082019060010162000fb7565b509495945050505050565b60408152600062000ff5604083018562000fa2565b828103602084015262001009818562000fa2565b95945050505050565b6000815180845260005b818110156200103a576020818501810151868301820152016200101c565b506000602082860101526020601f19601f83011685010191505092915050565b6001600160a01b03868116825285166020820152604081018490526060810183905260a060808201819052600090620010969083018462001012565b979650505050505050565b600060208284031215620010b457600080fd5b81516001600160e01b03198116811462000ccb57600080fd5b6001600160a01b0386811682528516602082015260a060408201819052600090620010fb9083018662000fa2565b82810360608401526200110f818662000fa2565b9050828103608084015262001125818562001012565b98975050505050505050565b615e2f80620011416000396000f3fe608060405234801561001057600080fd5b50600436106101d95760003560e01c8063557ed1ba11610104578063e4b70b42116100a2578063f242432a11610071578063f242432a1461045e578063f3d174ca14610471578063f897692114610484578063fb2facc31461049957600080fd5b8063e4b70b421461041d578063e713f42c14610430578063e985e9c514610438578063f036033a1461044b57600080fd5b806390420aee116100de57806390420aee146103d157806397f588c6146103e4578063a22cb465146103f7578063bfcc43941461040a57600080fd5b8063557ed1ba146103a55780635bbc1a04146103ab5780636ffcc719146103be57600080fd5b8063222d9c5c1161017c5780632d6322051161014b5780632d6322051461034c5780632eb2c2d61461035f5780634dad2aab146103725780634e1273f41461038557600080fd5b8063222d9c5c146102a457806324897ed6146102b75780632ac7cf6c146102cc5780632adc6603146102df57600080fd5b80630e89341c116101b85780630e89341c146102475780631b1bf2b9146102675780631b26708c1461027c578063214eac4f1461029157600080fd5b8062fdd58e146101de57806301ffc9a714610204578063061e494f14610227575b600080fd5b6101f16101ec366004614fd2565b6104ac565b6040519081526020015b60405180910390f35b610217610212366004615012565b6104d4565b60405190151581526020016101fb565b61023a610235366004615036565b610524565b6040516101fb919061504f565b61025a610255366004615036565b6105ac565b6040516101fb91906150f7565b61027a61027536600461510a565b610640565b005b6102846106a3565b6040516101fb9190615125565b61027a61029f366004615207565b610900565b61027a6102b2366004615036565b610abc565b6102bf611470565b6040516101fb9190615233565b61027a6102da36600461534a565b6114f1565b6102f26102ed366004615036565b611870565b6040516101fb9190815181526020808301519082015260408083015190820152606080830151908201526080808301519082015260a0808301516001600160a01b03169082015260c0918201519181019190915260e00190565b61027a61035a3660046153e4565b61193a565b61027a61036d366004615499565b611d2a565b61027a610380366004615543565b611d91565b6103986103933660046155b5565b611fe2565b6040516101fb91906156b1565b426101f1565b61027a6103b93660046156c4565b6120af565b61027a6103cc3660046153e4565b6124e3565b61027a6103df3660046153e4565b61288e565b61027a6103f23660046156f9565b61294e565b61027a610405366004615736565b612d5d565b61027a610418366004615036565b612d6c565b61027a61042b366004615207565b612dda565b61028461361d565b610217610446366004615772565b613866565b61027a6104593660046157a5565b613894565b61027a61046c3660046157d7565b613a47565b61027a61047f36600461583c565b613aa6565b61048c613c6d565b6040516101fb91906158e9565b61027a6104a7366004615036565b613e97565b6000818152602081815260408083206001600160a01b03861684529091529020545b92915050565b60006001600160e01b03198216636cdb3d1360e11b148061050557506001600160e01b031982166303a24d0760e21b145b806104ce57506301ffc9a760e01b6001600160e01b03198316146104ce565b6060600b6000838152602001908152602001600020805480602002602001604051908101604052809291908181526020016000905b828210156105a15760008481526020908190206040805180820190915260028502909101805482526001908101546001600160a01b0316828401529083529092019101610559565b505050509050919050565b6060600280546105bb90615999565b80601f01602080910402602001604051908101604052809291908181526020018280546105e790615999565b80156106345780601f1061060957610100808354040283529160200191610634565b820191906000526020600020905b81548152906001019060200180831161061757829003601f168201915b50505050509050919050565b336000908152600c602052604090819020905160069161065f916159d3565b90815260405160209181900382019020600301805460018101825560009182529190200180546001600160a01b0319166001600160a01b0392909216919091179055565b336000908152600960209081526040808320805482518185028101850190935280835260609492939192909184015b828210156108f75783829060005260206000209060090201604051806101200160405290816000820154815260200160018201805461071090615999565b80601f016020809104026020016040519081016040528092919081815260200182805461073c90615999565b80156107895780601f1061075e57610100808354040283529160200191610789565b820191906000526020600020905b81548152906001019060200180831161076c57829003601f168201915b505050505081526020016002820180546107a290615999565b80601f01602080910402602001604051908101604052809291908181526020018280546107ce90615999565b801561081b5780601f106107f05761010080835404028352916020019161081b565b820191906000526020600020905b8154815290600101906020018083116107fe57829003601f168201915b5050505050815260200160038201805461083490615999565b80601f016020809104026020016040519081016040528092919081815260200182805461086090615999565b80156108ad5780601f10610882576101008083540402835291602001916108ad565b820191906000526020600020905b81548152906001019060200180831161089057829003601f168201915b5050505050815260200160048201548152602001600582015481526020016006820154815260200160078201548152602001600882015481525050815260200190600101906106d2565b50505050905090565b33600090815260096020526040902080548391908590811061092457610924615a49565b90600052602060002090600902016006015410156109985760405162461bcd60e51b815260206004820152602660248201527fd0a320d0b2d0b0d18120d0bdd0b5d0b4d0bed181d182d0b0d182d0bed187d0bd604482015265342f8813919560d21b60648201526084015b60405180910390fd5b6000838152600d602052604090205460ff1615610a275760405162461bcd60e51b815260206004820152604160248201527fd092d18b20d0bdd0b520d0bcd0bed0b6d0b5d182d0b520d0bfd180d0bed0b4d060448201527fb0d182d18c204e465420d0b8d0b720d0bad0bed0bbd0bbd0b5d0bad186d0b8d06064820152601760fb1b608482015260a40161098f565b600e6040518060800160405280858152602001336001600160a01b0316815260200184815260200160035484610a5d9190615a75565b9052815460018082018455600093845260209384902083516004909302019182559282015192810180546001600160a01b0319166001600160a01b03909416939093179092556040810151600283015560600151600390910155505050565b6004546001600160a01b03163314610ae65760405162461bcd60e51b815260040161098f90615a8c565b60045460128054610c74926001600160a01b0316919084908110610b0c57610b0c615a49565b906000526020600020906007020160050160009054906101000a90046001600160a01b0316601160128581548110610b4657610b46615a49565b90600052602060002090600702016001015481548110610b6857610b68615a49565b9060005260206000209060040201600201805480602002602001604051908101604052809291908181526020018280548015610bc357602002820191906000526020600020905b815481526020019060010190808311610baf575b5050505050601160128681548110610bdd57610bdd615a49565b90600052602060002090600702016001015481548110610bff57610bff615a49565b9060005260206000209060040201600301805480602002602001604051908101604052809291908181526020018280548015610c5a57602002820191906000526020600020905b815481526020019060010190808311610c46575b5050505050604051806020016040528060008152506147ef565b60005b601160128381548110610c8c57610c8c615a49565b90600052602060002090600702016001015481548110610cae57610cae615a49565b906000526020600020906004020160020180549050811015611422576009600060128481548110610ce157610ce1615a49565b906000526020600020906007020160050160009054906101000a90046001600160a01b03166001600160a01b03166001600160a01b031681526020019081526020016000206040518061012001604052806009600060128781548110610d4957610d49615a49565b906000526020600020906007020160050160009054906101000a90046001600160a01b03166001600160a01b03166001600160a01b0316815260200190815260200160002080549050815260200160086000600a600060128981548110610db257610db2615a49565b90600052602060002090600702016001015481526020019081526020016000206002018681548110610de657610de6615a49565b906000526020600020015481526020019081526020016000206001018054610e0d90615999565b80601f0160208091040260200160405190810160405280929190818152602001828054610e3990615999565b8015610e865780601f10610e5b57610100808354040283529160200191610e86565b820191906000526020600020905b815481529060010190602001808311610e6957829003601f168201915b5050505050815260200160086000600a600060128981548110610eab57610eab615a49565b90600052602060002090600702016001015481526020019081526020016000206002018681548110610edf57610edf615a49565b906000526020600020015481526020019081526020016000206002018054610f0690615999565b80601f0160208091040260200160405190810160405280929190818152602001828054610f3290615999565b8015610f7f5780601f10610f5457610100808354040283529160200191610f7f565b820191906000526020600020905b815481529060010190602001808311610f6257829003601f168201915b5050505050815260200160086000600a600060128981548110610fa457610fa4615a49565b90600052602060002090600702016001015481526020019081526020016000206002018681548110610fd857610fd8615a49565b906000526020600020015481526020019081526020016000206003018054610fff90615999565b80601f016020809104026020016040519081016040528092919081815260200182805461102b90615999565b80156110785780601f1061104d57610100808354040283529160200191611078565b820191906000526020600020905b81548152906001019060200180831161105b57829003601f168201915b5050505050815260200160086000600a60006012898154811061109d5761109d615a49565b906000526020600020906007020160010154815260200190815260200160002060020186815481106110d1576110d1615a49565b9060005260206000200154815260200190815260200160002060060154815260200160086000600a60006012898154811061110e5761110e615a49565b9060005260206000209060070201600101548152602001908152602001600020600201868154811061114257611142615a49565b9060005260206000200154815260200190815260200160002060060154815260200160035460016111739190615a75565b815260200160086000600a60006012898154811061119357611193615a49565b906000526020600020906007020160010154815260200190815260200160002060020186815481106111c7576111c7615a49565b90600052602060002001548152602001908152602001600020600701548152602001601285815481106111fc576111fc615a49565b6000918252602080832060016007909302018201549093528454808201865594825290829020835160099095020193845590820151919291908201906112429082615b42565b50604082015160028201906112579082615b42565b506060820151600382019061126c9082615b42565b506080820151816004015560a0820151816005015560c0820151816006015560e08201518160070155610100820151816008015550506000600d6000600a6000601287815481106112bf576112bf615a49565b906000526020600020906007020160010154815260200190815260200160002060020184815481106112f3576112f3615a49565b60009182526020808320919091015483528281019390935260409182018120805460ff1916941515949094179093556004546001600160a01b03168352600990915281206012805491926008929091600a918391908890811061135857611358615a49565b9060005260206000209060070201600101548152602001908152602001600020600201848154811061138c5761138c615a49565b9060005260206000200154815260200190815260200160002060000154815481106113b9576113b9615a49565b600091825260208220600990910201818155906113d96001830182614e44565b6113e7600283016000614e44565b6113f5600383016000614e44565b50600060048201819055600582018190556006820181905560078201819055600890910155600101610c77565b5060006012828154811061143857611438615a49565b906000526020600020906007020160050160006101000a8154816001600160a01b0302191690836001600160a01b0316021790555050565b6060600e805480602002602001604051908101604052809291908181526020016000905b828210156108f75760008481526020908190206040805160808101825260048602909201805483526001808201546001600160a01b0316848601526002820154928401929092526003015460608301529083529092019101611494565b6004546001600160a01b0316331461151b5760405162461bcd60e51b815260040161098f90615a8c565b61153b33601080549050836040518060200160405280600081525061484f565b604080516101208101825233600090815260096020908152838220548352808301898152838501899052606084018890526080840187905260a0840186905260c084018690524260e085015261010084018390526010548352600890915292902081518155915190919060018201906115b49082615b42565b50604082015160028201906115c99082615b42565b50606082015160038201906115de9082615b42565b506080820151816004015560a0820151816005015560c0820151816006015560e08201518160070155610100820151816008015590505060096000336001600160a01b03166001600160a01b0316815260200190815260200160002060405180610120016040528060096000336001600160a01b03166001600160a01b03168152602001908152602001600020805490508152602001878152602001868152602001858152602001848152602001838152602001838152602001428152602001600081525090806001815401808255809150506001900390600052602060002090600902016000909190919091506000820151816000015560208201518160010190816116eb9190615b42565b50604082015160028201906117009082615b42565b50606082015160038201906117159082615b42565b50608082810151600483015560a080840151600584015560c080850151600685015560e08086015160078601556101009586015160089095019490945560408051610120810182523360009081526009602081815284832054845283018e81529383018d9052606083018c90529582018a90529381018890529182018790524294820194909452938401819052601080546001810182559152835191027f1b6847dc741a1b0cd08d278845f9d819d87b734759afb55fe2de5cb82a9ae6728101918255915190917f1b6847dc741a1b0cd08d278845f9d819d87b734759afb55fe2de5cb82a9ae67301906118099082615b42565b506040820151600282019061181e9082615b42565b50606082015160038201906118339082615b42565b506080820151816004015560a0820151816005015560c0820151816006015560e08201518160070155610100820151816008015550505050505050565b6118b96040518060e00160405280600081526020016000815260200160008152602001600081526020016000815260200160006001600160a01b03168152602001600081525090565b601282815481106118cc576118cc615a49565b60009182526020918290206040805160e081018252600790930290910180548352600181015493830193909352600283015490820152600382015460608201526004820154608082015260058201546001600160a01b031660a082015260069091015460c082015292915050565b6012828154811061194d5761194d615a49565b906000526020600020906007020160040154806000036119af5760405162461bcd60e51b815260206004820152601f60248201527fd090d183d0bad186d0b8d0bed0bd20d0b7d0b0d0b2d0b5d180d188d191d0bd00604482015260640161098f565b6003546119bc9083615a75565b9150600354600a6119cd9190615a75565b8210156119ec5760405162461bcd60e51b815260040161098f90615c02565b336001600160a01b031660128481548110611a0957611a09615a49565b60009182526020909120600560079092020101546001600160a01b031603611a6c5760405162461bcd60e51b815260206004820152601660248201527501a125a31641a307a16da16a41a177a171a169a16ba360571b604482015260640161098f565b60005b6000848152600b6020526040902054811015611d24576000848152600b60205260409020805433919083908110611aa857611aa8615a49565b60009182526020909120600160029092020101546001600160a01b031603611d1c576000848152600b60205260409020805484919083908110611aed57611aed615a49565b90600052602060002090600202016000016000828254611b0d9190615c50565b909155505060055460048054604051637aa9bf6f60e11b815233928101929092526001600160a01b039081166024830152604482018690529091169063f5537ede90606401600060405180830381600087803b158015611b6c57600080fd5b505af1158015611b80573d6000803e3d6000fd5b5050505060128481548110611b9757611b97615a49565b906000526020600020906007020160060154600b60008681526020019081526020016000208281548110611bcd57611bcd615a49565b9060005260206000209060020201600001541115611c89576000848152600b60205260409020805482908110611c0557611c05615a49565b90600052602060002090600202016000015460128581548110611c2a57611c2a615a49565b9060005260206000209060070201600601819055503360128581548110611c5357611c53615a49565b906000526020600020906007020160050160006101000a8154816001600160a01b0302191690836001600160a01b031602179055505b60128481548110611c9c57611c9c615a49565b906000526020600020906007020160040154600b60008681526020019081526020016000208281548110611cd257611cd2615a49565b90600052602060002090600202016000015410611d1c57600060128581548110611cfe57611cfe615a49565b906000526020600020906007020160040181905550611d1c84613e97565b600101611a6f565b50505050565b336001600160a01b0386168114801590611d4b5750611d498682613866565b155b15611d7c5760405163711bec9160e11b81526001600160a01b0380831660048301528716602482015260440161098f565b611d8986868686866147ef565b505050505050565b336006611da18160028587615c63565b604051602001611db2929190615c8d565b60408051601f1981840301815290829052611dcc91615cba565b908152604051908190036020019020600101546001600160a01b031603611e475760405162461bcd60e51b815260206004820152602960248201527fd092d18b20d183d0b6d0b520d181d0bed0b7d0b4d0b0d0bbd0b820d180d0b5d160448201526884d0b5d180d0b0d0bb60b81b606482015260840161098f565b60606000611e59600660028587615c63565b604051602001611e6a929190615c8d565b60408051601f19818403018152608083018252808352336020840152600083830152606083018590529051909250600690611ea6908490615cba565b90815260405190819003602001902081518190611ec39082615b42565b506020828101516001830180546001600160a01b0319166001600160a01b039092169190911790556040830151600283015560608301518051611f0c9260038501920190614e7e565b505060408051608081018252838152336020820152600091810182905260608101859052600f80546001810182559252805190925060049091027f8d1108e10bcb7c27dddfc02ed9d693a074039d026cf4ea4240b40f7d581ac80201908190611f759082615b42565b506020828101516001830180546001600160a01b0319166001600160a01b039092169190911790556040830151600283015560608301518051611fbe9260038501920190614e7e565b5050336000908152600c602052604090209050611fdb8282615b42565b5050505050565b606081518351146120135781518351604051635b05999160e01b81526004810192909252602482015260440161098f565b6000835167ffffffffffffffff81111561202f5761202f615293565b604051908082528060200260200182016040528015612058578160200160208202803683370190505b50905060005b84518110156120a757602080820286010151612082906020808402870101516104ac565b82828151811061209457612094615a49565b602090810291909101015260010161205e565b509392505050565b6120cb3383858460405180602001604052806000815250613a47565b3360009081526009602052604090208054829190859081106120ef576120ef615a49565b90600052602060002090600902016005015461210b9190615cd6565b33600090815260096020526040902080548590811061212c5761212c615a49565b60009182526020808320600992830201600501939093556001600160a01b03851682528252604080822081516101208101835287815287845260088552919092206001018054929391929183019161218390615999565b80601f01602080910402602001604051908101604052809291908181526020018280546121af90615999565b80156121fc5780601f106121d1576101008083540402835291602001916121fc565b820191906000526020600020905b8154815290600101906020018083116121df57829003601f168201915b5050505050815260200160086000878152602001908152602001600020600201805461222790615999565b80601f016020809104026020016040519081016040528092919081815260200182805461225390615999565b80156122a05780601f10612275576101008083540402835291602001916122a0565b820191906000526020600020905b81548152906001019060200180831161228357829003601f168201915b505050505081526020016008600087815260200190815260200160002060030180546122cb90615999565b80601f01602080910402602001604051908101604052809291908181526020018280546122f790615999565b80156123445780601f1061231957610100808354040283529160200191612344565b820191906000526020600020905b81548152906001019060200180831161232757829003601f168201915b505050918352505060208082018590526000878152600880835260408083206006810154918601919091526004810154606086015260078101546080860152818452015460a09093019290925283546001818101865594835291819020835160099093020191825582015191929091908201906123c19082615b42565b50604082015160028201906123d69082615b42565b50606082015160038201906123eb9082615b42565b506080820151600482015560a0820151600582015560c0820151600682015560e082015160078201556101009091015160089091015533600090815260096020526040902080548490811061244257612442615a49565b9060005260206000209060090201600501546000036124de5733600090815260096020526040902080548490811061247c5761247c615a49565b6000918252602082206009909102018181559061249c6001830182614e44565b6124aa600283016000614e44565b6124b8600383016000614e44565b506000600482018190556005820181905560068201819055600782018190556008909101555b505050565b601282815481106124f6576124f6615a49565b906000526020600020906007020160040154806000036125585760405162461bcd60e51b815260206004820152601f60248201527fd090d183d0bad186d0b8d0bed0bd20d0b7d0b0d0b2d0b5d180d188d191d0bd00604482015260640161098f565b6003546125659083615a75565b915060005b6000848152600b6020526040902054811015612654576000848152600b602052604090208054339190839081106125a3576125a3615a49565b60009182526020909120600160029092020101546001600160a01b03160361264c5760405162461bcd60e51b815260206004820152605060248201527fd092d18b20d183d0b6d0b520d181d0b4d0b5d0bbd0b0d0bbd0b820d181d182d060448201527fb0d0b2d0bad1832c20d0b2d18b20d0bcd0bed0b6d0b5d182d0b520d0b5d1912060648201526f342ff42fb42cb462f460742e3460b46360821b608482015260a40161098f565b60010161256a565b50816012848154811061266957612669615a49565b906000526020600020906007020160060154106126e05760405162461bcd60e51b815260206004820152602f60248201527fd0a2d0b5d0bad183d189d0b0d18f20d181d182d0b0d0b2d0bad0b020d0b2d18b60448201526ed188d0b520d0b2d0b0d188d0b5d0b960881b606482015260840161098f565b600a8210156127015760405162461bcd60e51b815260040161098f90615c02565b60055460048054604051637aa9bf6f60e11b815233928101929092526001600160a01b039081166024830152604482018590529091169063f5537ede90606401600060405180830381600087803b15801561275b57600080fd5b505af115801561276f573d6000803e3d6000fd5b50505050816012848154811061278757612787615a49565b90600052602060002090600702016006018190555033601284815481106127b0576127b0615a49565b6000918252602080832060056007909302019190910180546001600160a01b039485166001600160a01b031991821617909155868352600b8252604080842081518083019092528782523382850190815281546001818101845592875294909520915160029094029091019283559251919092018054919093169116179055601280548490811061284357612843615a49565b90600052602060002090600702016004015482106124de5760006012848154811061287057612870615a49565b9060005260206000209060070201600401819055506124de83613e97565b336001600160a01b0316600e83815481106128ab576128ab615a49565b60009182526020909120600160049092020101546001600160a01b0316146129155760405162461bcd60e51b815260206004820152601960248201527fd0add182d0be20d0bdd0b520d0b2d0b0d18820d0bbd0bed18200000000000000604482015260640161098f565b6003546129229082615a75565b600e838154811061293557612935615a49565b9060005260206000209060040201600301819055505050565b60005b6006826040516129619190615cba565b90815260405190819003602001902060030154811015612a3e5760068260405161298b9190615cba565b908152602001604051809103902060030181815481106129ad576129ad615a49565b6000918252602090912001546001600160a01b03163314612a365760405162461bcd60e51b815260206004820152603f60248201527fd092d18b20d0bdd0b520d0bcd0bed0b6d0b5d182d0b520d0b8d181d0bfd0bed060448201527fbbd18cd0b7d0bed0b2d0b0d182d18c20d18dd182d0bed18220d0bad0bed0b400606482015260840161098f565b600101612951565b50336001600160a01b0316600682604051612a599190615cba565b908152604051908190036020019020600101546001600160a01b031603612af65760405162461bcd60e51b8152602060048201526044602482018190527fd092d18b20d0bdd0b520d0bcd0bed0b6d0b5d182d0b520d0b8d181d0bfd0bed0908201527fbbd18cd0b7d0bed0b2d0b0d182d18c20d181d0b2d0bed0b920d0b6d0b520d0ba606482015263342fb42d60e21b608482015260a40161098f565b80604051602001612b079190615cba565b60405160208183030381529060405280519060200120600682604051612b2d9190615cba565b90815260405160209181900382018120612b49929091016159d3565b6040516020818303038152906040528051906020012014612be25760405162461bcd60e51b815260206004820152604760248201527fd0a2d0b0d0bad0bed0b3d0be20d180d0b5d184d0b5d180d0b0d0bbd18cd0bdd060448201527fbed0b3d0be20d0bad0bed0b4d0b020d0bdd0b5d18220d0b220d181d0b8d181d160648201526682d0b5d0bcd0b560c81b608482015260a40161098f565b3360009081526007602052604090205460ff161515600103612c5a5760405162461bcd60e51b815260206004820152602b60248201527fd092d18b20d183d0b6d0b520d0b8d181d0bfd0bed0bbd18cd0b7d0bed0b2d0b060448201526a342ef42e08342eb42fb42d60aa1b606482015260840161098f565b600560009054906101000a90046001600160a01b03166001600160a01b0316633424e5ad6040518163ffffffff1660e01b8152600401600060405180830381600087803b158015612caa57600080fd5b505af1158015612cbe573d6000803e3d6000fd5b50503360009081526007602052604090819020805460ff19166001179055516003925060069150612cf0908490615cba565b9081526020016040518091039020600201541015612d5a57600681604051612d189190615cba565b9081526020016040518091039020600201546001612d369190615c50565b600682604051612d469190615cba565b908152604051908190036020019020600201555b50565b612d683383836148ac565b5050565b60128181548110612d7f57612d7f615a49565b90600052602060002090600702016003015442612d9c9190615cd6565b60128281548110612daf57612daf615a49565b90600052602060002090600702016002015442612dcc9190615cd6565b11612d5a57612d5a81613e97565b600060648284600e8781548110612df357612df3615a49565b906000526020600020906004020160030154612e0f9190615a75565b612e199190615a75565b612e239190615ce9565b83600e8681548110612e3757612e37615a49565b906000526020600020906004020160030154612e539190615a75565b612e5d9190615cd6565b905082600e8581548110612e7357612e73615a49565b9060005260206000209060040201600201541015612f045760405162461bcd60e51b815260206004820152604260248201527fd092d18b20d0bfd18bd182d0b0d0b5d182d0b5d181d18c20d0bad183d0bfd0b860448201527fd182d18c20d0b1d0bed0bbd18cd188d0b52c20d187d0b5d0bc20d0b5d181d182606482015261346360f21b608482015260a40161098f565b612f7b600e8581548110612f1a57612f1a615a49565b906000526020600020906004020160010160009054906101000a90046001600160a01b031633600e8781548110612f5357612f53615a49565b9060005260206000209060040201600001548660405180602001604052806000815250614942565b600554600e80546001600160a01b039092169163f5537ede91339188908110612fa657612fa6615a49565b600091825260209091206004918202016001015460405160e085901b6001600160e01b03191681526001600160a01b039384169281019290925291909116602482015260448101849052606401600060405180830381600087803b15801561300d57600080fd5b505af1158015613021573d6000803e3d6000fd5b5050505082600e858154811061303957613039615a49565b906000526020600020906004020160020160008282546130599190615cd6565b925050819055508260096000600e878154811061307857613078615a49565b60009182526020808320600160049093020191909101546001600160a01b031683528201929092526040019020600e8054879081106130b9576130b9615a49565b906000526020600020906004020160000154815481106130db576130db615a49565b906000526020600020906009020160060160008282546130fb9190615cd6565b90915550503360009081526009602090815260408083208151610120810190925280548252600e8054919492938401926008929091908a90811061314157613141615a49565b9060005260206000209060040201600001548152602001908152602001600020600101805461316f90615999565b80601f016020809104026020016040519081016040528092919081815260200182805461319b90615999565b80156131e85780601f106131bd576101008083540402835291602001916131e8565b820191906000526020600020905b8154815290600101906020018083116131cb57829003601f168201915b5050505050815260200160086000600e898154811061320957613209615a49565b9060005260206000209060040201600001548152602001908152602001600020600201805461323790615999565b80601f016020809104026020016040519081016040528092919081815260200182805461326390615999565b80156132b05780601f10613285576101008083540402835291602001916132b0565b820191906000526020600020905b81548152906001019060200180831161329357829003601f168201915b5050505050815260200160086000600e89815481106132d1576132d1615a49565b906000526020600020906004020160000154815260200190815260200160002060030180546132ff90615999565b80601f016020809104026020016040519081016040528092919081815260200182805461332b90615999565b80156133785780601f1061334d57610100808354040283529160200191613378565b820191906000526020600020905b81548152906001019060200180831161335b57829003601f168201915b50505050508152602001858152602001858152602001600e87815481106133a1576133a1615a49565b906000526020600020906004020160030154815260200160086000600e89815481106133cf576133cf615a49565b906000526020600020906004020160000154815260200190815260200160002060070154815260200160086000600e898154811061340f5761340f615a49565b60009182526020808320600490920290910154835282810193909352604090910181206008015490925283546001818101865594835291819020835160099093020191825582015191929091908201906134699082615b42565b506040820151600282019061347e9082615b42565b50606082015160038201906134939082615b42565b506080820151816004015560a0820151816005015560c0820151816006015560e082015181600701556101008201518160080155505060096000600e86815481106134e0576134e0615a49565b60009182526020808320600160049093020191909101546001600160a01b031683528201929092526040019020600e80548690811061352157613521615a49565b9060005260206000209060040201600001548154811061354357613543615a49565b9060005260206000209060090201600601546000036135a95760096000600e868154811061357357613573615a49565b60009182526020808320600160049093020191909101546001600160a01b0316835282019290925260400181206135a991614ee3565b600e84815481106135bc576135bc615a49565b906000526020600020906004020160020154600003611d2457600e84815481106135e8576135e8615a49565b6000918252602082206004909102018181556001810180546001600160a01b0319169055600281018290556003015550505050565b60606010805480602002602001604051908101604052809291908181526020016000905b828210156108f75783829060005260206000209060090201604051806101200160405290816000820154815260200160018201805461367f90615999565b80601f01602080910402602001604051908101604052809291908181526020018280546136ab90615999565b80156136f85780601f106136cd576101008083540402835291602001916136f8565b820191906000526020600020905b8154815290600101906020018083116136db57829003601f168201915b5050505050815260200160028201805461371190615999565b80601f016020809104026020016040519081016040528092919081815260200182805461373d90615999565b801561378a5780601f1061375f5761010080835404028352916020019161378a565b820191906000526020600020905b81548152906001019060200180831161376d57829003601f168201915b505050505081526020016003820180546137a390615999565b80601f01602080910402602001604051908101604052809291908181526020018280546137cf90615999565b801561381c5780601f106137f15761010080835404028352916020019161381c565b820191906000526020600020905b8154815290600101906020018083116137ff57829003601f168201915b505050505081526020016004820154815260200160058201548152602001600682015481526020016007820154815260200160088201548152505081526020019060010190613641565b6001600160a01b03918216600090815260016020908152604080832093909416825291909152205460ff1690565b6004546001600160a01b031633146138be5760405162461bcd60e51b815260040161098f90615a8c565b60005b60125481101561397c5784601282815481106138df576138df615a49565b906000526020600020906007020160010154036139745760405162461bcd60e51b815260206004820152604760248201527fd090d183d0bad186d0b8d0bed0bd20d18120d182d0b0d0bad0bed0b920d0bad060448201527fbed0bbd0bbd0b5d0bad186d0b8d0b5d0b920d183d0b6d0b520d0b7d0b0d0bfd160648201526683d189d0b5d0bd60c81b608482015260a40161098f565b6001016138c1565b5060126040518060e001604052806012805490508152602001868152602001858152602001848152602001600354846139b59190615a75565b8152600480546001600160a01b03908116602080850191909152600a604094850152855460018082018855600097885296829020865160079092020190815590850151958101959095559183015160028501556060830151600385015560808301519084015560a08201516005840180546001600160a01b0319169190921617905560c0015160069091015550505050565b336001600160a01b0386168114801590613a685750613a668682613866565b155b15613a995760405163711bec9160e11b81526001600160a01b0380831660048301528716602482015260440161098f565b611d898686868686614942565b6004546001600160a01b03163314613ad05760405162461bcd60e51b815260040161098f90615a8c565b604080516080810182528581526020808201869052818301859052606082018490526011546000908152600a9091529190912081518190613b119082615b42565b5060208201516001820190613b269082615b42565b5060408201518051613b42916002840191602090910190614f04565b5060608201518051613b5e916003840191602090910190614f04565b50506040805160808101825286815260208101869052908101849052606081018390526011805460018101825560009190915281519192506004027f31ecc21a745e3968a04e9570e4425bc18fa8019c68028196b546d1669c200c6801908190613bc89082615b42565b5060208201516001820190613bdd9082615b42565b5060408201518051613bf9916002840191602090910190614f04565b5060608201518051613c15916003840191602090910190614f04565b50505060005b8251811015611fdb576001600d6000858481518110613c3c57613c3c615a49565b6020908102919091018101518252810191909152604001600020805460ff1916911515919091179055600101613c1b565b60606011805480602002602001604051908101604052809291908181526020016000905b828210156108f75783829060005260206000209060040201604051806080016040529081600082018054613cc490615999565b80601f0160208091040260200160405190810160405280929190818152602001828054613cf090615999565b8015613d3d5780601f10613d1257610100808354040283529160200191613d3d565b820191906000526020600020905b815481529060010190602001808311613d2057829003601f168201915b50505050508152602001600182018054613d5690615999565b80601f0160208091040260200160405190810160405280929190818152602001828054613d8290615999565b8015613dcf5780601f10613da457610100808354040283529160200191613dcf565b820191906000526020600020905b815481529060010190602001808311613db257829003601f168201915b5050505050815260200160028201805480602002602001604051908101604052809291908181526020018280548015613e2757602002820191906000526020600020905b815481526020019060010190808311613e13575b5050505050815260200160038201805480602002602001604051908101604052809291908181526020018280548015613e7f57602002820191906000526020600020905b815481526020019060010190808311613e6b575b50505050508152505081526020019060010190613c91565b60128181548110613eaa57613eaa615a49565b90600052602060002090600702016004015460001480613f02575060006001600160a01b031660128281548110613ee357613ee3615a49565b60009182526020909120600560079092020101546001600160a01b0316145b613f625760405162461bcd60e51b815260206004820152602b60248201527fd090d183d0bad186d0b8d0bed0bd20d0b5d189d19120d0bdd0b520d0b7d0b0d060448201526ab2d0b5d180d188d0b5d0bd60a81b606482015260840161098f565b336001600160a01b031660128281548110613f7f57613f7f615a49565b60009182526020909120600560079092020101546001600160a01b0316146140025760405162461bcd60e51b815260206004820152603060248201527fd092d18b20d0bdd0b520d0bfd0bed0b1d0b5d0b4d0b8d182d0b5d0bbd18c20d060448201526f05868c1e85d68c3685c685f685ee858160851b606482015260840161098f565b6004546012805461402d926001600160a01b03169133916011919086908110610b4657610b46615a49565b60005b60116012838154811061404557614045615a49565b9060005260206000209060070201600101548154811061406757614067615a49565b9060005260206000209060040201600201805490508110156114225760096000336001600160a01b03166001600160a01b0316815260200190815260200160002060405180610120016040528060096000601287815481106140cb576140cb615a49565b906000526020600020906007020160050160009054906101000a90046001600160a01b03166001600160a01b03166001600160a01b0316815260200190815260200160002080549050815260200160086000600a60006012898154811061413457614134615a49565b9060005260206000209060070201600101548152602001908152602001600020600201868154811061416857614168615a49565b90600052602060002001548152602001908152602001600020600101805461418f90615999565b80601f01602080910402602001604051908101604052809291908181526020018280546141bb90615999565b80156142085780601f106141dd57610100808354040283529160200191614208565b820191906000526020600020905b8154815290600101906020018083116141eb57829003601f168201915b5050505050815260200160086000600a60006012898154811061422d5761422d615a49565b9060005260206000209060070201600101548152602001908152602001600020600201868154811061426157614261615a49565b90600052602060002001548152602001908152602001600020600201805461428890615999565b80601f01602080910402602001604051908101604052809291908181526020018280546142b490615999565b80156143015780601f106142d657610100808354040283529160200191614301565b820191906000526020600020905b8154815290600101906020018083116142e457829003601f168201915b5050505050815260200160086000600a60006012898154811061432657614326615a49565b9060005260206000209060070201600101548152602001908152602001600020600201868154811061435a5761435a615a49565b90600052602060002001548152602001908152602001600020600301805461438190615999565b80601f01602080910402602001604051908101604052809291908181526020018280546143ad90615999565b80156143fa5780601f106143cf576101008083540402835291602001916143fa565b820191906000526020600020905b8154815290600101906020018083116143dd57829003601f168201915b5050505050815260200160086000600a60006012898154811061441f5761441f615a49565b9060005260206000209060070201600101548152602001908152602001600020600201868154811061445357614453615a49565b9060005260206000200154815260200190815260200160002060060154815260200160086000600a60006012898154811061449057614490615a49565b906000526020600020906007020160010154815260200190815260200160002060020186815481106144c4576144c4615a49565b9060005260206000200154815260200190815260200160002060060154815260200160035460016144f59190615a75565b815260200160086000600a60006012898154811061451557614515615a49565b9060005260206000209060070201600101548152602001908152602001600020600201868154811061454957614549615a49565b9060005260206000200154815260200190815260200160002060070154815260200160086000600a60006012898154811061458657614586615a49565b906000526020600020906007020160010154815260200190815260200160002060020186815481106145ba576145ba615a49565b60009182526020808320909101548352828101939093526040909101812060080154909252835460018181018655948352918190208351600990930201918255820151919290919082019061460f9082615b42565b50604082015160028201906146249082615b42565b50606082015160038201906146399082615b42565b506080820151816004015560a0820151816005015560c0820151816006015560e08201518160070155610100820151816008015550506000600d6000600a60006012878154811061468c5761468c615a49565b906000526020600020906007020160010154815260200190815260200160002060020184815481106146c0576146c0615a49565b60009182526020808320919091015483528281019390935260409182018120805460ff1916941515949094179093556004546001600160a01b03168352600990915281206012805491926008929091600a918391908890811061472557614725615a49565b9060005260206000209060070201600101548152602001908152602001600020600201848154811061475957614759615a49565b90600052602060002001548152602001908152602001600020600001548154811061478657614786615a49565b600091825260208220600990910201818155906147a66001830182614e44565b6147b4600283016000614e44565b6147c2600383016000614e44565b50600060048201819055600582018190556006820181905560078201819055600890910155600101614030565b6001600160a01b03841661481957604051632bfa23e760e11b81526000600482015260240161098f565b6001600160a01b03851661484257604051626a0d4560e21b81526000600482015260240161098f565b611fdb85858585856149d0565b6001600160a01b03841661487957604051632bfa23e760e11b81526000600482015260240161098f565b60408051600180825260208201869052818301908152606082018590526080820190925290611d896000878484876149d0565b6001600160a01b0382166148d55760405162ced3e160e81b81526000600482015260240161098f565b6001600160a01b03838116600081815260016020908152604080832094871680845294825291829020805460ff191686151590811790915591519182527f17307eab39ab6107e8899845ad3d59bd9653f200f220920489ca2b5937696c31910160405180910390a3505050565b6001600160a01b03841661496c57604051632bfa23e760e11b81526000600482015260240161098f565b6001600160a01b03851661499557604051626a0d4560e21b81526000600482015260240161098f565b604080516001808252602082018690528183019081526060820185905260808201909252906149c787878484876149d0565b50505050505050565b6149dc85858585614a23565b6001600160a01b03841615611fdb5782513390600103614a155760208481015190840151614a0e838989858589614c37565b5050611d89565b611d89818787878787614d5b565b8051825114614a525781518151604051635b05999160e01b81526004810192909252602482015260440161098f565b3360005b8351811015614b58576020818102858101820151908501909101516001600160a01b03881615614b09576000828152602081815260408083206001600160a01b038c16845290915290205481811015614ae2576040516303dee4c560e01b81526001600160a01b038a16600482015260248101829052604481018390526064810184905260840161098f565b6000838152602081815260408083206001600160a01b038d16845290915290209082900390555b6001600160a01b03871615614b4e576000828152602081815260408083206001600160a01b038b16845290915281208054839290614b48908490615c50565b90915550505b5050600101614a56565b508251600103614bd95760208301516000906020840151909150856001600160a01b0316876001600160a01b0316846001600160a01b03167fc3d58168c5ae7397731d063d5bbf3d657854427343f4c083240f7aacaa2d0f628585604051614bca929190918252602082015260400190565b60405180910390a45050611fdb565b836001600160a01b0316856001600160a01b0316826001600160a01b03167f4a39dc06d4c0dbc64b70af90fd698a233a518aa5d07e595d983b8c0526c8f7fb8686604051614c28929190615d0b565b60405180910390a45050505050565b6001600160a01b0384163b15611d895760405163f23a6e6160e01b81526001600160a01b0385169063f23a6e6190614c7b9089908990889088908890600401615d39565b6020604051808303816000875af1925050508015614cb6575060408051601f3d908101601f19168201909252614cb391810190615d7e565b60015b614d1f573d808015614ce4576040519150601f19603f3d011682016040523d82523d6000602084013e614ce9565b606091505b508051600003614d1757604051632bfa23e760e11b81526001600160a01b038616600482015260240161098f565b805181602001fd5b6001600160e01b0319811663f23a6e6160e01b146149c757604051632bfa23e760e11b81526001600160a01b038616600482015260240161098f565b6001600160a01b0384163b15611d895760405163bc197c8160e01b81526001600160a01b0385169063bc197c8190614d9f9089908990889088908890600401615d9b565b6020604051808303816000875af1925050508015614dda575060408051601f3d908101601f19168201909252614dd791810190615d7e565b60015b614e08573d808015614ce4576040519150601f19603f3d011682016040523d82523d6000602084013e614ce9565b6001600160e01b0319811663bc197c8160e01b146149c757604051632bfa23e760e11b81526001600160a01b038616600482015260240161098f565b508054614e5090615999565b6000825580601f10614e60575050565b601f016020900490600052602060002090810190612d5a9190614f3f565b828054828255906000526020600020908101928215614ed3579160200282015b82811115614ed357825182546001600160a01b0319166001600160a01b03909116178255602090920191600190910190614e9e565b50614edf929150614f3f565b5090565b5080546000825560090290600052602060002090810190612d5a9190614f54565b828054828255906000526020600020908101928215614ed3579160200282015b82811115614ed3578251825591602001919060010190614f24565b5b80821115614edf5760008155600101614f40565b80821115614edf576000808255614f6e6001830182614e44565b614f7c600283016000614e44565b614f8a600383016000614e44565b506000600482018190556005820181905560068201819055600782018190556008820155600901614f54565b80356001600160a01b0381168114614fcd57600080fd5b919050565b60008060408385031215614fe557600080fd5b614fee83614fb6565b946020939093013593505050565b6001600160e01b031981168114612d5a57600080fd5b60006020828403121561502457600080fd5b813561502f81614ffc565b9392505050565b60006020828403121561504857600080fd5b5035919050565b602080825282518282018190526000919060409081850190868401855b8281101561509a578151805185528601516001600160a01b031686850152928401929085019060010161506c565b5091979650505050505050565b60005b838110156150c25781810151838201526020016150aa565b50506000910152565b600081518084526150e38160208601602086016150a7565b601f01601f19169290920160200192915050565b60208152600061502f60208301846150cb565b60006020828403121561511c57600080fd5b61502f82614fb6565b600060208083018184528085518083526040925060408601915060408160051b87010184880160005b838110156151f957603f1989840301855281516101208151855288820151818a87015261517d828701826150cb565b915050878201518582038987015261519582826150cb565b915050606080830151868303828801526151af83826150cb565b6080858101519089015260a0808601519089015260c0808601519089015260e08086015190890152610100948501519490970193909352505050938601939086019060010161514e565b509098975050505050505050565b60008060006060848603121561521c57600080fd5b505081359360208301359350604090920135919050565b602080825282518282018190526000919060409081850190868401855b8281101561509a57815180518552868101516001600160a01b03168786015285810151868601526060908101519085015260809093019290850190600101615250565b634e487b7160e01b600052604160045260246000fd5b604051601f8201601f1916810167ffffffffffffffff811182821017156152d2576152d2615293565b604052919050565b600082601f8301126152eb57600080fd5b813567ffffffffffffffff81111561530557615305615293565b615318601f8201601f19166020016152a9565b81815284602083860101111561532d57600080fd5b816020850160208301376000918101602001919091529392505050565b600080600080600060a0868803121561536257600080fd5b853567ffffffffffffffff8082111561537a57600080fd5b61538689838a016152da565b9650602088013591508082111561539c57600080fd5b6153a889838a016152da565b955060408801359150808211156153be57600080fd5b506153cb888289016152da565b9598949750949560608101359550608001359392505050565b600080604083850312156153f757600080fd5b50508035926020909101359150565b600067ffffffffffffffff82111561542057615420615293565b5060051b60200190565b600082601f83011261543b57600080fd5b8135602061545061544b83615406565b6152a9565b8083825260208201915060208460051b87010193508684111561547257600080fd5b602086015b8481101561548e5780358352918301918301615477565b509695505050505050565b600080600080600060a086880312156154b157600080fd5b6154ba86614fb6565b94506154c860208701614fb6565b9350604086013567ffffffffffffffff808211156154e557600080fd5b6154f189838a0161542a565b9450606088013591508082111561550757600080fd5b61551389838a0161542a565b9350608088013591508082111561552957600080fd5b50615536888289016152da565b9150509295509295909350565b6000806020838503121561555657600080fd5b823567ffffffffffffffff8082111561556e57600080fd5b818501915085601f83011261558257600080fd5b81358181111561559157600080fd5b8660208285010111156155a357600080fd5b60209290920196919550909350505050565b600080604083850312156155c857600080fd5b823567ffffffffffffffff808211156155e057600080fd5b818501915085601f8301126155f457600080fd5b8135602061560461544b83615406565b82815260059290921b8401810191818101908984111561562357600080fd5b948201945b838610156156485761563986614fb6565b82529482019490820190615628565b9650508601359250508082111561565e57600080fd5b5061566b8582860161542a565b9150509250929050565b60008151808452602080850194506020840160005b838110156156a65781518752958201959082019060010161568a565b509495945050505050565b60208152600061502f6020830184615675565b6000806000606084860312156156d957600080fd5b833592506156e960208501614fb6565b9150604084013590509250925092565b60006020828403121561570b57600080fd5b813567ffffffffffffffff81111561572257600080fd5b61572e848285016152da565b949350505050565b6000806040838503121561574957600080fd5b61575283614fb6565b91506020830135801515811461576757600080fd5b809150509250929050565b6000806040838503121561578557600080fd5b61578e83614fb6565b915061579c60208401614fb6565b90509250929050565b600080600080608085870312156157bb57600080fd5b5050823594602084013594506040840135936060013592509050565b600080600080600060a086880312156157ef57600080fd5b6157f886614fb6565b945061580660208701614fb6565b93506040860135925060608601359150608086013567ffffffffffffffff81111561583057600080fd5b615536888289016152da565b6000806000806080858703121561585257600080fd5b843567ffffffffffffffff8082111561586a57600080fd5b615876888389016152da565b9550602087013591508082111561588c57600080fd5b615898888389016152da565b945060408701359150808211156158ae57600080fd5b6158ba8883890161542a565b935060608701359150808211156158d057600080fd5b506158dd8782880161542a565b91505092959194509250565b600060208083018184528085518083526040925060408601915060408160051b87010184880160005b838110156151f957603f19898403018552815160808151818652615938828701826150cb565b915050888201518582038a87015261595082826150cb565b91505087820151858203898701526159688282615675565b915050606080830151925085820381870152506159858183615675565b968901969450505090860190600101615912565b600181811c908216806159ad57607f821691505b6020821081036159cd57634e487b7160e01b600052602260045260246000fd5b50919050565b60008083546159e181615999565b600182811680156159f95760018114615a0e57615a3d565b60ff1984168752821515830287019450615a3d565b8760005260208060002060005b85811015615a345781548a820152908401908201615a1b565b50505082870194505b50929695505050505050565b634e487b7160e01b600052603260045260246000fd5b634e487b7160e01b600052601160045260246000fd5b80820281158282048414176104ce576104ce615a5f565b60208082526048908201527fd0a2d0bed0bbd18cd0bad0be20d0b2d0bbd0b0d0b4d0b5d0bbd0b5d18620d0bc60408201527fd0bed0b6d0b5d18220d18dd182d0be20d0b8d181d0bfd0bed0bbd18cd0b7d0be606082015267342cb42c3460b46360c21b608082015260a00190565b601f8211156124de576000816000526020600020601f850160051c81016020861015615b235750805b601f850160051c820191505b81811015611d8957828155600101615b2f565b815167ffffffffffffffff811115615b5c57615b5c615293565b615b7081615b6a8454615999565b84615afa565b602080601f831160018114615ba55760008415615b8d5750858301515b600019600386901b1c1916600185901b178555611d89565b600085815260208120601f198616915b82811015615bd457888601518255948401946001909101908401615bb5565b5085821015615bf25787850151600019600388901b60f8161c191681555b5050505050600190811b01905550565b6020808252602e908201527fd09cd0b8d0bdd0b8d0bcd0b0d0bbd18cd0bdd0b0d18f20d181d182d0b0d0b2d060408201526dbad0b0202d2031302050524f464960901b606082015260800190565b808201808211156104ce576104ce615a5f565b60008085851115615c7357600080fd5b83861115615c8057600080fd5b5050820193919092039150565b6550524f46492d60d01b815281836006830137630c8c0c8d60e21b91016006810191909152600a01919050565b60008251615ccc8184602087016150a7565b9190910192915050565b818103818111156104ce576104ce615a5f565b600082615d0657634e487b7160e01b600052601260045260246000fd5b500490565b604081526000615d1e6040830185615675565b8281036020840152615d308185615675565b95945050505050565b6001600160a01b03868116825285166020820152604081018490526060810183905260a060808201819052600090615d73908301846150cb565b979650505050505050565b600060208284031215615d9057600080fd5b815161502f81614ffc565b6001600160a01b0386811682528516602082015260a060408201819052600090615dc790830186615675565b8281036060840152615dd98186615675565b90508281036080840152615ded81856150cb565b9897505050505050505056fea2646970667358221220a4e0d64246c57cab6f77e82bee8fffea50b057bcedc69570ae24142d3f115f4064736f6c63430008160033d09fd183d0b7d18bd180d0b8d0ba20d0bfd0bed185d0b8d182d0b8d0bb20d0bad0bed182d0b8d0bad0b020d18120d097d0b5d0bcd0bbd0b8d09ad0bed0bcd0bed187d0b5d0ba20d181d0bbd0b8d0bbd181d18f20d18120d0bad0bed181d0bcd0bed181d0bed0bcd092d0bad183d181d0bdd18fd188d0bad0b020d0b2d0bfd0b5d180d0b2d18bd0b520d0bfd180d0bed0b1d183d0b5d18220d18fd0bfd0bed0bdd181d0bad183d18e20d0bad183d185d0bdd18ed09ed0bd20d0b8d0b4d0b5d18220d0b8d0b3d180d0b0d182d18c20d0b220d0b1d0b0d181d0bad0b5d182d0b1d0bed0bb",
			"opcodes": "PUSH1 0x80 PUSH1 0x40 MSTORE CALLVALUE DUP1 ISZERO PUSH3 0x11 JUMPI PUSH1 0x0 DUP1 REVERT JUMPDEST POP PUSH1 0x40 MLOAD PUSH3 0x7053 CODESIZE SUB DUP1 PUSH3 0x7053 DUP4 CODECOPY DUP2 ADD PUSH1 0x40 DUP2 SWAP1 MSTORE PUSH3 0x34 SWAP2 PUSH3 0xCA0 JUMP JUMPDEST PUSH1 0x40 DUP1 MLOAD PUSH1 0x20 DUP2 ADD SWAP1 SWAP2 MSTORE PUSH1 0x0 DUP2 MSTORE PUSH3 0x4E DUP2 PUSH3 0x372 JUMP JUMPDEST POP PUSH1 0x5 DUP1 SLOAD PUSH1 0x1 PUSH1 0x1 PUSH1 0xA0 SHL SUB NOT AND PUSH1 0x1 PUSH1 0x1 PUSH1 0xA0 SHL SUB DUP4 AND SWAP1 DUP2 OR SWAP1 SWAP2 SSTORE PUSH1 0x40 DUP1 MLOAD PUSH4 0x313CE567 PUSH1 0xE0 SHL DUP2 MSTORE SWAP1 MLOAD PUSH4 0x313CE567 SWAP2 PUSH1 0x4 DUP1 DUP3 ADD SWAP3 PUSH1 0x20 SWAP3 SWAP1 SWAP2 SWAP1 DUP3 SWAP1 SUB ADD DUP2 DUP7 GAS STATICCALL ISZERO DUP1 ISZERO PUSH3 0xA9 JUMPI RETURNDATASIZE PUSH1 0x0 DUP1 RETURNDATACOPY RETURNDATASIZE PUSH1 0x0 REVERT JUMPDEST POP POP POP POP PUSH1 0x40 MLOAD RETURNDATASIZE PUSH1 0x1F NOT PUSH1 0x1F DUP3 ADD AND DUP3 ADD DUP1 PUSH1 0x40 MSTORE POP DUP2 ADD SWAP1 PUSH3 0xCF SWAP2 SWAP1 PUSH3 0xCD2 JUMP JUMPDEST PUSH3 0xDC SWAP1 PUSH1 0xA PUSH3 0xE0C JUMP JUMPDEST PUSH1 0x3 SSTORE PUSH1 0x4 DUP1 SLOAD PUSH1 0x1 PUSH1 0x1 PUSH1 0xA0 SHL SUB NOT AND CALLER OR SWAP1 SSTORE PUSH1 0x40 DUP1 MLOAD DUP1 DUP3 ADD DUP3 MSTORE PUSH1 0xE DUP2 MSTORE PUSH14 0x684D685F685E685F68C3E85AE85D PUSH1 0x91 SHL PUSH1 0x20 DUP1 DUP4 ADD SWAP2 SWAP1 SWAP2 MSTORE DUP3 MLOAD PUSH1 0x60 DUP2 ADD SWAP1 SWAP4 MSTORE PUSH1 0x2F DUP1 DUP5 MSTORE PUSH3 0x162 SWAP4 SWAP2 PUSH3 0x6FA8 SWAP1 DUP4 ADD CODECOPY PUSH1 0x40 DUP1 MLOAD DUP1 DUP3 ADD SWAP1 SWAP2 MSTORE PUSH1 0xC DUP2 MSTORE PUSH12 0x6361745F6E6674312E706E67 PUSH1 0xA0 SHL PUSH1 0x20 DUP3 ADD MSTORE PUSH1 0x0 PUSH1 0x1 PUSH3 0x384 JUMP JUMPDEST PUSH3 0x1D8 PUSH1 0x40 MLOAD DUP1 PUSH1 0x40 ADD PUSH1 0x40 MSTORE DUP1 PUSH1 0x12 DUP2 MSTORE PUSH1 0x20 ADD PUSH18 0xD092D0BAD183D181D0BDD18FD188D0BAD0B PUSH1 0x74 SHL DUP2 MSTORE POP PUSH1 0x40 MLOAD DUP1 PUSH1 0x80 ADD PUSH1 0x40 MSTORE DUP1 PUSH1 0x4C DUP2 MSTORE PUSH1 0x20 ADD PUSH3 0x6FD7 PUSH1 0x4C SWAP2 CODECOPY PUSH1 0x40 DUP1 MLOAD DUP1 DUP3 ADD SWAP1 SWAP2 MSTORE PUSH1 0xC DUP2 MSTORE PUSH12 0x6361745F6E6674322E706E67 PUSH1 0xA0 SHL PUSH1 0x20 DUP3 ADD MSTORE PUSH1 0x0 PUSH1 0x1 PUSH3 0x384 JUMP JUMPDEST PUSH3 0x24A PUSH1 0x40 MLOAD DUP1 PUSH1 0x40 ADD PUSH1 0x40 MSTORE DUP1 PUSH1 0xE DUP2 MSTORE PUSH1 0x20 ADD PUSH14 0x684FE8C1E85BE8C5E8C0685C685D PUSH1 0x91 SHL DUP2 MSTORE POP PUSH1 0x40 MLOAD DUP1 PUSH1 0x60 ADD PUSH1 0x40 MSTORE DUP1 PUSH1 0x38 DUP2 MSTORE PUSH1 0x20 ADD PUSH3 0x6F70 PUSH1 0x38 SWAP2 CODECOPY PUSH1 0x40 DUP1 MLOAD DUP1 DUP3 ADD SWAP1 SWAP2 MSTORE PUSH1 0xC DUP2 MSTORE PUSH12 0x6361745F6E6674332E706E67 PUSH1 0xA0 SHL PUSH1 0x20 DUP3 ADD MSTORE PUSH1 0x0 PUSH1 0x1 PUSH3 0x384 JUMP JUMPDEST PUSH3 0x2CE PUSH1 0x40 MLOAD DUP1 PUSH1 0x40 ADD PUSH1 0x40 MSTORE DUP1 PUSH1 0x18 DUP2 MSTORE PUSH1 0x20 ADD PUSH32 0xD091D0B0D181D0BAD0B5D182D0B1D0BED0BBD0B8D181D1820000000000000000 DUP2 MSTORE POP PUSH1 0x40 MLOAD DUP1 PUSH1 0x60 ADD PUSH1 0x40 MSTORE DUP1 PUSH1 0x30 DUP2 MSTORE PUSH1 0x20 ADD PUSH3 0x7023 PUSH1 0x30 SWAP2 CODECOPY PUSH1 0x40 DUP1 MLOAD DUP1 DUP3 ADD SWAP1 SWAP2 MSTORE PUSH1 0xF DUP2 MSTORE PUSH15 0x77616C6B65725F6E6674312E706E67 PUSH1 0x88 SHL PUSH1 0x20 DUP3 ADD MSTORE PUSH1 0x0 PUSH1 0x1 PUSH3 0x384 JUMP JUMPDEST PUSH3 0x36B PUSH1 0x40 MLOAD DUP1 PUSH1 0x40 ADD PUSH1 0x40 MSTORE DUP1 PUSH1 0x12 DUP2 MSTORE PUSH1 0x20 ADD PUSH18 0x6849685F685DE8C4685AE858E85EE85C685D PUSH1 0x71 SHL DUP2 MSTORE POP PUSH1 0x40 MLOAD DUP1 PUSH1 0x40 ADD PUSH1 0x40 MSTORE DUP1 PUSH1 0x20 DUP2 MSTORE PUSH1 0x20 ADD PUSH32 0xD09ED0BD20D0B8D0B4D0B5D18220D0BAD0BED0BBD0B4D0BED0B2D0B0D182D18C DUP2 MSTORE POP PUSH1 0x40 MLOAD DUP1 PUSH1 0x40 ADD PUSH1 0x40 MSTORE DUP1 PUSH1 0xF DUP2 MSTORE PUSH1 0x20 ADD PUSH15 0x77616C6B65725F6E6674322E706E67 PUSH1 0x88 SHL DUP2 MSTORE POP PUSH1 0x0 PUSH1 0x1 PUSH3 0x384 PUSH1 0x20 SHL PUSH1 0x20 SHR JUMP JUMPDEST POP PUSH3 0x1131 JUMP JUMPDEST PUSH1 0x2 PUSH3 0x380 DUP3 DUP3 PUSH3 0xEC0 JUMP JUMPDEST POP POP JUMP JUMPDEST PUSH1 0x4 SLOAD PUSH1 0x1 PUSH1 0x1 PUSH1 0xA0 SHL SUB AND CALLER EQ PUSH3 0x41B JUMPI PUSH1 0x40 MLOAD PUSH3 0x461BCD PUSH1 0xE5 SHL DUP2 MSTORE PUSH1 0x20 PUSH1 0x4 DUP3 ADD MSTORE PUSH1 0x48 PUSH1 0x24 DUP3 ADD MSTORE PUSH32 0xD0A2D0BED0BBD18CD0BAD0BE20D0B2D0BBD0B0D0B4D0B5D0BBD0B5D18620D0BC PUSH1 0x44 DUP3 ADD MSTORE PUSH32 0xD0BED0B6D0B5D18220D18DD182D0BE20D0B8D181D0BFD0BED0BBD18CD0B7D0BE PUSH1 0x64 DUP3 ADD MSTORE PUSH8 0x342CB42C3460B463 PUSH1 0xC2 SHL PUSH1 0x84 DUP3 ADD MSTORE PUSH1 0xA4 ADD JUMPDEST PUSH1 0x40 MLOAD DUP1 SWAP2 SUB SWAP1 REVERT JUMPDEST PUSH1 0x10 SLOAD PUSH1 0x40 DUP1 MLOAD PUSH1 0x20 DUP2 ADD SWAP1 SWAP2 MSTORE PUSH1 0x0 DUP2 MSTORE PUSH3 0x43C SWAP2 CALLER SWAP2 DUP5 SWAP1 PUSH3 0x783 JUMP JUMPDEST PUSH1 0x40 DUP1 MLOAD PUSH2 0x120 DUP2 ADD DUP3 MSTORE CALLER PUSH1 0x0 SWAP1 DUP2 MSTORE PUSH1 0x9 PUSH1 0x20 SWAP1 DUP2 MSTORE DUP4 DUP3 KECCAK256 SLOAD DUP4 MSTORE DUP1 DUP4 ADD DUP10 DUP2 MSTORE DUP4 DUP6 ADD DUP10 SWAP1 MSTORE PUSH1 0x60 DUP5 ADD DUP9 SWAP1 MSTORE PUSH1 0x80 DUP5 ADD DUP8 SWAP1 MSTORE PUSH1 0xA0 DUP5 ADD DUP7 SWAP1 MSTORE PUSH1 0xC0 DUP5 ADD DUP7 SWAP1 MSTORE TIMESTAMP PUSH1 0xE0 DUP6 ADD MSTORE PUSH2 0x100 DUP5 ADD DUP4 SWAP1 MSTORE PUSH1 0x10 SLOAD DUP4 MSTORE PUSH1 0x8 SWAP1 SWAP2 MSTORE SWAP3 SWAP1 KECCAK256 DUP2 MLOAD DUP2 SSTORE SWAP2 MLOAD SWAP1 SWAP2 SWAP1 PUSH1 0x1 DUP3 ADD SWAP1 PUSH3 0x4B7 SWAP1 DUP3 PUSH3 0xEC0 JUMP JUMPDEST POP PUSH1 0x40 DUP3 ADD MLOAD PUSH1 0x2 DUP3 ADD SWAP1 PUSH3 0x4CE SWAP1 DUP3 PUSH3 0xEC0 JUMP JUMPDEST POP PUSH1 0x60 DUP3 ADD MLOAD PUSH1 0x3 DUP3 ADD SWAP1 PUSH3 0x4E5 SWAP1 DUP3 PUSH3 0xEC0 JUMP JUMPDEST POP PUSH1 0x80 DUP3 ADD MLOAD DUP2 PUSH1 0x4 ADD SSTORE PUSH1 0xA0 DUP3 ADD MLOAD DUP2 PUSH1 0x5 ADD SSTORE PUSH1 0xC0 DUP3 ADD MLOAD DUP2 PUSH1 0x6 ADD SSTORE PUSH1 0xE0 DUP3 ADD MLOAD DUP2 PUSH1 0x7 ADD SSTORE PUSH2 0x100 DUP3 ADD MLOAD DUP2 PUSH1 0x8 ADD SSTORE SWAP1 POP POP PUSH1 0x9 PUSH1 0x0 CALLER PUSH1 0x1 PUSH1 0x1 PUSH1 0xA0 SHL SUB AND PUSH1 0x1 PUSH1 0x1 PUSH1 0xA0 SHL SUB AND DUP2 MSTORE PUSH1 0x20 ADD SWAP1 DUP2 MSTORE PUSH1 0x20 ADD PUSH1 0x0 KECCAK256 PUSH1 0x40 MLOAD DUP1 PUSH2 0x120 ADD PUSH1 0x40 MSTORE DUP1 PUSH1 0x9 PUSH1 0x0 CALLER PUSH1 0x1 PUSH1 0x1 PUSH1 0xA0 SHL SUB AND PUSH1 0x1 PUSH1 0x1 PUSH1 0xA0 SHL SUB AND DUP2 MSTORE PUSH1 0x20 ADD SWAP1 DUP2 MSTORE PUSH1 0x20 ADD PUSH1 0x0 KECCAK256 DUP1 SLOAD SWAP1 POP DUP2 MSTORE PUSH1 0x20 ADD DUP8 DUP2 MSTORE PUSH1 0x20 ADD DUP7 DUP2 MSTORE PUSH1 0x20 ADD DUP6 DUP2 MSTORE PUSH1 0x20 ADD DUP5 DUP2 MSTORE PUSH1 0x20 ADD DUP4 DUP2 MSTORE PUSH1 0x20 ADD DUP4 DUP2 MSTORE PUSH1 0x20 ADD TIMESTAMP DUP2 MSTORE PUSH1 0x20 ADD PUSH1 0x0 DUP2 MSTORE POP SWAP1 DUP1 PUSH1 0x1 DUP2 SLOAD ADD DUP1 DUP3 SSTORE DUP1 SWAP2 POP POP PUSH1 0x1 SWAP1 SUB SWAP1 PUSH1 0x0 MSTORE PUSH1 0x20 PUSH1 0x0 KECCAK256 SWAP1 PUSH1 0x9 MUL ADD PUSH1 0x0 SWAP1 SWAP2 SWAP1 SWAP2 SWAP1 SWAP2 POP PUSH1 0x0 DUP3 ADD MLOAD DUP2 PUSH1 0x0 ADD SSTORE PUSH1 0x20 DUP3 ADD MLOAD DUP2 PUSH1 0x1 ADD SWAP1 DUP2 PUSH3 0x5F4 SWAP2 SWAP1 PUSH3 0xEC0 JUMP JUMPDEST POP PUSH1 0x40 DUP3 ADD MLOAD PUSH1 0x2 DUP3 ADD SWAP1 PUSH3 0x60B SWAP1 DUP3 PUSH3 0xEC0 JUMP JUMPDEST POP PUSH1 0x60 DUP3 ADD MLOAD PUSH1 0x3 DUP3 ADD SWAP1 PUSH3 0x622 SWAP1 DUP3 PUSH3 0xEC0 JUMP JUMPDEST POP PUSH1 0x80 DUP3 DUP2 ADD MLOAD PUSH1 0x4 DUP4 ADD SSTORE PUSH1 0xA0 DUP1 DUP5 ADD MLOAD PUSH1 0x5 DUP5 ADD SSTORE PUSH1 0xC0 DUP1 DUP6 ADD MLOAD PUSH1 0x6 DUP6 ADD SSTORE PUSH1 0xE0 DUP1 DUP7 ADD MLOAD PUSH1 0x7 DUP7 ADD SSTORE PUSH2 0x100 SWAP6 DUP7 ADD MLOAD PUSH1 0x8 SWAP1 SWAP6 ADD SWAP5 SWAP1 SWAP5 SSTORE PUSH1 0x40 DUP1 MLOAD PUSH2 0x120 DUP2 ADD DUP3 MSTORE CALLER PUSH1 0x0 SWAP1 DUP2 MSTORE PUSH1 0x9 PUSH1 0x20 DUP2 DUP2 MSTORE DUP5 DUP4 KECCAK256 SLOAD DUP5 MSTORE DUP4 ADD DUP15 DUP2 MSTORE SWAP4 DUP4 ADD DUP14 SWAP1 MSTORE PUSH1 0x60 DUP4 ADD DUP13 SWAP1 MSTORE SWAP6 DUP3 ADD DUP11 SWAP1 MSTORE SWAP4 DUP2 ADD DUP9 SWAP1 MSTORE SWAP2 DUP3 ADD DUP8 SWAP1 MSTORE TIMESTAMP SWAP5 DUP3 ADD SWAP5 SWAP1 SWAP5 MSTORE SWAP4 DUP5 ADD DUP2 SWAP1 MSTORE PUSH1 0x10 DUP1 SLOAD PUSH1 0x1 DUP2 ADD DUP3 SSTORE SWAP2 MSTORE DUP4 MLOAD SWAP2 MUL PUSH32 0x1B6847DC741A1B0CD08D278845F9D819D87B734759AFB55FE2DE5CB82A9AE672 DUP2 ADD SWAP2 DUP3 SSTORE SWAP2 MLOAD SWAP1 SWAP2 PUSH32 0x1B6847DC741A1B0CD08D278845F9D819D87B734759AFB55FE2DE5CB82A9AE673 ADD SWAP1 PUSH3 0x718 SWAP1 DUP3 PUSH3 0xEC0 JUMP JUMPDEST POP PUSH1 0x40 DUP3 ADD MLOAD PUSH1 0x2 DUP3 ADD SWAP1 PUSH3 0x72F SWAP1 DUP3 PUSH3 0xEC0 JUMP JUMPDEST POP PUSH1 0x60 DUP3 ADD MLOAD PUSH1 0x3 DUP3 ADD SWAP1 PUSH3 0x746 SWAP1 DUP3 PUSH3 0xEC0 JUMP JUMPDEST POP PUSH1 0x80 DUP3 ADD MLOAD DUP2 PUSH1 0x4 ADD SSTORE PUSH1 0xA0 DUP3 ADD MLOAD DUP2 PUSH1 0x5 ADD SSTORE PUSH1 0xC0 DUP3 ADD MLOAD DUP2 PUSH1 0x6 ADD SSTORE PUSH1 0xE0 DUP3 ADD MLOAD DUP2 PUSH1 0x7 ADD SSTORE PUSH2 0x100 DUP3 ADD MLOAD DUP2 PUSH1 0x8 ADD SSTORE POP POP POP POP POP POP POP JUMP JUMPDEST PUSH1 0x1 PUSH1 0x1 PUSH1 0xA0 SHL SUB DUP5 AND PUSH3 0x7AF JUMPI PUSH1 0x40 MLOAD PUSH4 0x2BFA23E7 PUSH1 0xE1 SHL DUP2 MSTORE PUSH1 0x0 PUSH1 0x4 DUP3 ADD MSTORE PUSH1 0x24 ADD PUSH3 0x412 JUMP JUMPDEST PUSH1 0x40 DUP1 MLOAD PUSH1 0x1 DUP1 DUP3 MSTORE PUSH1 0x20 DUP3 ADD DUP7 SWAP1 MSTORE DUP2 DUP4 ADD SWAP1 DUP2 MSTORE PUSH1 0x60 DUP3 ADD DUP6 SWAP1 MSTORE PUSH1 0x80 DUP3 ADD SWAP1 SWAP3 MSTORE SWAP1 PUSH3 0x7E4 PUSH1 0x0 DUP8 DUP5 DUP5 DUP8 PUSH3 0x7EC JUMP JUMPDEST POP POP POP POP POP POP JUMP JUMPDEST PUSH3 0x7FA DUP6 DUP6 DUP6 DUP6 PUSH3 0x84F JUMP JUMPDEST PUSH1 0x1 PUSH1 0x1 PUSH1 0xA0 SHL SUB DUP5 AND ISZERO PUSH3 0x848 JUMPI DUP3 MLOAD CALLER SWAP1 PUSH1 0x1 SUB PUSH3 0x838 JUMPI PUSH1 0x20 DUP5 DUP2 ADD MLOAD SWAP1 DUP5 ADD MLOAD PUSH3 0x830 DUP4 DUP10 DUP10 DUP6 DUP6 DUP10 PUSH3 0xA72 JUMP JUMPDEST POP POP PUSH3 0x7E4 JUMP JUMPDEST PUSH3 0x7E4 DUP2 DUP8 DUP8 DUP8 DUP8 DUP8 PUSH3 0xBAC JUMP JUMPDEST POP POP POP POP POP JUMP JUMPDEST DUP1 MLOAD DUP3 MLOAD EQ PUSH3 0x880 JUMPI DUP2 MLOAD DUP2 MLOAD PUSH1 0x40 MLOAD PUSH4 0x5B059991 PUSH1 0xE0 SHL DUP2 MSTORE PUSH1 0x4 DUP2 ADD SWAP3 SWAP1 SWAP3 MSTORE PUSH1 0x24 DUP3 ADD MSTORE PUSH1 0x44 ADD PUSH3 0x412 JUMP JUMPDEST CALLER PUSH1 0x0 JUMPDEST DUP4 MLOAD DUP2 LT ISZERO PUSH3 0x98E JUMPI PUSH1 0x20 DUP2 DUP2 MUL DUP6 DUP2 ADD DUP3 ADD MLOAD SWAP1 DUP6 ADD SWAP1 SWAP2 ADD MLOAD PUSH1 0x1 PUSH1 0x1 PUSH1 0xA0 SHL SUB DUP9 AND ISZERO PUSH3 0x93B JUMPI PUSH1 0x0 DUP3 DUP2 MSTORE PUSH1 0x20 DUP2 DUP2 MSTORE PUSH1 0x40 DUP1 DUP4 KECCAK256 PUSH1 0x1 PUSH1 0x1 PUSH1 0xA0 SHL SUB DUP13 AND DUP5 MSTORE SWAP1 SWAP2 MSTORE SWAP1 KECCAK256 SLOAD DUP2 DUP2 LT ISZERO PUSH3 0x914 JUMPI PUSH1 0x40 MLOAD PUSH4 0x3DEE4C5 PUSH1 0xE0 SHL DUP2 MSTORE PUSH1 0x1 PUSH1 0x1 PUSH1 0xA0 SHL SUB DUP11 AND PUSH1 0x4 DUP3 ADD MSTORE PUSH1 0x24 DUP2 ADD DUP3 SWAP1 MSTORE PUSH1 0x44 DUP2 ADD DUP4 SWAP1 MSTORE PUSH1 0x64 DUP2 ADD DUP5 SWAP1 MSTORE PUSH1 0x84 ADD PUSH3 0x412 JUMP JUMPDEST PUSH1 0x0 DUP4 DUP2 MSTORE PUSH1 0x20 DUP2 DUP2 MSTORE PUSH1 0x40 DUP1 DUP4 KECCAK256 PUSH1 0x1 PUSH1 0x1 PUSH1 0xA0 SHL SUB DUP14 AND DUP5 MSTORE SWAP1 SWAP2 MSTORE SWAP1 KECCAK256 SWAP1 DUP3 SWAP1 SUB SWAP1 SSTORE JUMPDEST PUSH1 0x1 PUSH1 0x1 PUSH1 0xA0 SHL SUB DUP8 AND ISZERO PUSH3 0x983 JUMPI PUSH1 0x0 DUP3 DUP2 MSTORE PUSH1 0x20 DUP2 DUP2 MSTORE PUSH1 0x40 DUP1 DUP4 KECCAK256 PUSH1 0x1 PUSH1 0x1 PUSH1 0xA0 SHL SUB DUP12 AND DUP5 MSTORE SWAP1 SWAP2 MSTORE DUP2 KECCAK256 DUP1 SLOAD DUP4 SWAP3 SWAP1 PUSH3 0x97D SWAP1 DUP5 SWAP1 PUSH3 0xF8C JUMP JUMPDEST SWAP1 SWAP2 SSTORE POP POP JUMPDEST POP POP PUSH1 0x1 ADD PUSH3 0x884 JUMP JUMPDEST POP DUP3 MLOAD PUSH1 0x1 SUB PUSH3 0xA12 JUMPI PUSH1 0x20 DUP4 ADD MLOAD PUSH1 0x0 SWAP1 PUSH1 0x20 DUP5 ADD MLOAD SWAP1 SWAP2 POP DUP6 PUSH1 0x1 PUSH1 0x1 PUSH1 0xA0 SHL SUB AND DUP8 PUSH1 0x1 PUSH1 0x1 PUSH1 0xA0 SHL SUB AND DUP5 PUSH1 0x1 PUSH1 0x1 PUSH1 0xA0 SHL SUB AND PUSH32 0xC3D58168C5AE7397731D063D5BBF3D657854427343F4C083240F7AACAA2D0F62 DUP6 DUP6 PUSH1 0x40 MLOAD PUSH3 0xA02 SWAP3 SWAP2 SWAP1 SWAP2 DUP3 MSTORE PUSH1 0x20 DUP3 ADD MSTORE PUSH1 0x40 ADD SWAP1 JUMP JUMPDEST PUSH1 0x40 MLOAD DUP1 SWAP2 SUB SWAP1 LOG4 POP POP PUSH3 0x848 JUMP JUMPDEST DUP4 PUSH1 0x1 PUSH1 0x1 PUSH1 0xA0 SHL SUB AND DUP6 PUSH1 0x1 PUSH1 0x1 PUSH1 0xA0 SHL SUB AND DUP3 PUSH1 0x1 PUSH1 0x1 PUSH1 0xA0 SHL SUB AND PUSH32 0x4A39DC06D4C0DBC64B70AF90FD698A233A518AA5D07E595D983B8C0526C8F7FB DUP7 DUP7 PUSH1 0x40 MLOAD PUSH3 0xA63 SWAP3 SWAP2 SWAP1 PUSH3 0xFE0 JUMP JUMPDEST PUSH1 0x40 MLOAD DUP1 SWAP2 SUB SWAP1 LOG4 POP POP POP POP POP JUMP JUMPDEST PUSH1 0x1 PUSH1 0x1 PUSH1 0xA0 SHL SUB DUP5 AND EXTCODESIZE ISZERO PUSH3 0x7E4 JUMPI PUSH1 0x40 MLOAD PUSH4 0xF23A6E61 PUSH1 0xE0 SHL DUP2 MSTORE PUSH1 0x1 PUSH1 0x1 PUSH1 0xA0 SHL SUB DUP6 AND SWAP1 PUSH4 0xF23A6E61 SWAP1 PUSH3 0xAB9 SWAP1 DUP10 SWAP1 DUP10 SWAP1 DUP9 SWAP1 DUP9 SWAP1 DUP9 SWAP1 PUSH1 0x4 ADD PUSH3 0x105A JUMP JUMPDEST PUSH1 0x20 PUSH1 0x40 MLOAD DUP1 DUP4 SUB DUP2 PUSH1 0x0 DUP8 GAS CALL SWAP3 POP POP POP DUP1 ISZERO PUSH3 0xAF7 JUMPI POP PUSH1 0x40 DUP1 MLOAD PUSH1 0x1F RETURNDATASIZE SWAP1 DUP2 ADD PUSH1 0x1F NOT AND DUP3 ADD SWAP1 SWAP3 MSTORE PUSH3 0xAF4 SWAP2 DUP2 ADD SWAP1 PUSH3 0x10A1 JUMP JUMPDEST PUSH1 0x1 JUMPDEST PUSH3 0xB65 JUMPI RETURNDATASIZE DUP1 DUP1 ISZERO PUSH3 0xB28 JUMPI PUSH1 0x40 MLOAD SWAP2 POP PUSH1 0x1F NOT PUSH1 0x3F RETURNDATASIZE ADD AND DUP3 ADD PUSH1 0x40 MSTORE RETURNDATASIZE DUP3 MSTORE RETURNDATASIZE PUSH1 0x0 PUSH1 0x20 DUP5 ADD RETURNDATACOPY PUSH3 0xB2D JUMP JUMPDEST PUSH1 0x60 SWAP2 POP JUMPDEST POP DUP1 MLOAD PUSH1 0x0 SUB PUSH3 0xB5D JUMPI PUSH1 0x40 MLOAD PUSH4 0x2BFA23E7 PUSH1 0xE1 SHL DUP2 MSTORE PUSH1 0x1 PUSH1 0x1 PUSH1 0xA0 SHL SUB DUP7 AND PUSH1 0x4 DUP3 ADD MSTORE PUSH1 0x24 ADD PUSH3 0x412 JUMP JUMPDEST DUP1 MLOAD DUP2 PUSH1 0x20 ADD REVERT JUMPDEST PUSH1 0x1 PUSH1 0x1 PUSH1 0xE0 SHL SUB NOT DUP2 AND PUSH4 0xF23A6E61 PUSH1 0xE0 SHL EQ PUSH3 0xBA3 JUMPI PUSH1 0x40 MLOAD PUSH4 0x2BFA23E7 PUSH1 0xE1 SHL DUP2 MSTORE PUSH1 0x1 PUSH1 0x1 PUSH1 0xA0 SHL SUB DUP7 AND PUSH1 0x4 DUP3 ADD MSTORE PUSH1 0x24 ADD PUSH3 0x412 JUMP JUMPDEST POP POP POP POP POP POP POP JUMP JUMPDEST PUSH1 0x1 PUSH1 0x1 PUSH1 0xA0 SHL SUB DUP5 AND EXTCODESIZE ISZERO PUSH3 0x7E4 JUMPI PUSH1 0x40 MLOAD PUSH4 0xBC197C81 PUSH1 0xE0 SHL DUP2 MSTORE PUSH1 0x1 PUSH1 0x1 PUSH1 0xA0 SHL SUB DUP6 AND SWAP1 PUSH4 0xBC197C81 SWAP1 PUSH3 0xBF3 SWAP1 DUP10 SWAP1 DUP10 SWAP1 DUP9 SWAP1 DUP9 SWAP1 DUP9 SWAP1 PUSH1 0x4 ADD PUSH3 0x10CD JUMP JUMPDEST PUSH1 0x20 PUSH1 0x40 MLOAD DUP1 DUP4 SUB DUP2 PUSH1 0x0 DUP8 GAS CALL SWAP3 POP POP POP DUP1 ISZERO PUSH3 0xC31 JUMPI POP PUSH1 0x40 DUP1 MLOAD PUSH1 0x1F RETURNDATASIZE SWAP1 DUP2 ADD PUSH1 0x1F NOT AND DUP3 ADD SWAP1 SWAP3 MSTORE PUSH3 0xC2E SWAP2 DUP2 ADD SWAP1 PUSH3 0x10A1 JUMP JUMPDEST PUSH1 0x1 JUMPDEST PUSH3 0xC62 JUMPI RETURNDATASIZE DUP1 DUP1 ISZERO PUSH3 0xB28 JUMPI PUSH1 0x40 MLOAD SWAP2 POP PUSH1 0x1F NOT PUSH1 0x3F RETURNDATASIZE ADD AND DUP3 ADD PUSH1 0x40 MSTORE RETURNDATASIZE DUP3 MSTORE RETURNDATASIZE PUSH1 0x0 PUSH1 0x20 DUP5 ADD RETURNDATACOPY PUSH3 0xB2D JUMP JUMPDEST PUSH1 0x1 PUSH1 0x1 PUSH1 0xE0 SHL SUB NOT DUP2 AND PUSH4 0xBC197C81 PUSH1 0xE0 SHL EQ PUSH3 0xBA3 JUMPI PUSH1 0x40 MLOAD PUSH4 0x2BFA23E7 PUSH1 0xE1 SHL DUP2 MSTORE PUSH1 0x1 PUSH1 0x1 PUSH1 0xA0 SHL SUB DUP7 AND PUSH1 0x4 DUP3 ADD MSTORE PUSH1 0x24 ADD PUSH3 0x412 JUMP JUMPDEST PUSH1 0x0 PUSH1 0x20 DUP3 DUP5 SUB SLT ISZERO PUSH3 0xCB3 JUMPI PUSH1 0x0 DUP1 REVERT JUMPDEST DUP2 MLOAD PUSH1 0x1 PUSH1 0x1 PUSH1 0xA0 SHL SUB DUP2 AND DUP2 EQ PUSH3 0xCCB JUMPI PUSH1 0x0 DUP1 REVERT JUMPDEST SWAP4 SWAP3 POP POP POP JUMP JUMPDEST PUSH1 0x0 PUSH1 0x20 DUP3 DUP5 SUB SLT ISZERO PUSH3 0xCE5 JUMPI PUSH1 0x0 DUP1 REVERT JUMPDEST DUP2 MLOAD PUSH1 0xFF DUP2 AND DUP2 EQ PUSH3 0xCCB JUMPI PUSH1 0x0 DUP1 REVERT JUMPDEST PUSH4 0x4E487B71 PUSH1 0xE0 SHL PUSH1 0x0 MSTORE PUSH1 0x11 PUSH1 0x4 MSTORE PUSH1 0x24 PUSH1 0x0 REVERT JUMPDEST PUSH1 0x1 DUP2 DUP2 JUMPDEST DUP1 DUP6 GT ISZERO PUSH3 0xD4E JUMPI DUP2 PUSH1 0x0 NOT DIV DUP3 GT ISZERO PUSH3 0xD32 JUMPI PUSH3 0xD32 PUSH3 0xCF7 JUMP JUMPDEST DUP1 DUP6 AND ISZERO PUSH3 0xD40 JUMPI SWAP2 DUP2 MUL SWAP2 JUMPDEST SWAP4 DUP5 SHR SWAP4 SWAP1 DUP1 MUL SWAP1 PUSH3 0xD12 JUMP JUMPDEST POP SWAP3 POP SWAP3 SWAP1 POP JUMP JUMPDEST PUSH1 0x0 DUP3 PUSH3 0xD67 JUMPI POP PUSH1 0x1 PUSH3 0xE06 JUMP JUMPDEST DUP2 PUSH3 0xD76 JUMPI POP PUSH1 0x0 PUSH3 0xE06 JUMP JUMPDEST DUP2 PUSH1 0x1 DUP2 EQ PUSH3 0xD8F JUMPI PUSH1 0x2 DUP2 EQ PUSH3 0xD9A JUMPI PUSH3 0xDBA JUMP JUMPDEST PUSH1 0x1 SWAP2 POP POP PUSH3 0xE06 JUMP JUMPDEST PUSH1 0xFF DUP5 GT ISZERO PUSH3 0xDAE JUMPI PUSH3 0xDAE PUSH3 0xCF7 JUMP JUMPDEST POP POP PUSH1 0x1 DUP3 SHL PUSH3 0xE06 JUMP JUMPDEST POP PUSH1 0x20 DUP4 LT PUSH2 0x133 DUP4 LT AND PUSH1 0x4E DUP5 LT PUSH1 0xB DUP5 LT AND OR ISZERO PUSH3 0xDDF JUMPI POP DUP2 DUP2 EXP PUSH3 0xE06 JUMP JUMPDEST PUSH3 0xDEB DUP4 DUP4 PUSH3 0xD0D JUMP JUMPDEST DUP1 PUSH1 0x0 NOT DIV DUP3 GT ISZERO PUSH3 0xE02 JUMPI PUSH3 0xE02 PUSH3 0xCF7 JUMP JUMPDEST MUL SWAP1 POP JUMPDEST SWAP3 SWAP2 POP POP JUMP JUMPDEST PUSH1 0x0 PUSH3 0xCCB PUSH1 0xFF DUP5 AND DUP4 PUSH3 0xD56 JUMP JUMPDEST PUSH4 0x4E487B71 PUSH1 0xE0 SHL PUSH1 0x0 MSTORE PUSH1 0x41 PUSH1 0x4 MSTORE PUSH1 0x24 PUSH1 0x0 REVERT JUMPDEST PUSH1 0x1 DUP2 DUP2 SHR SWAP1 DUP3 AND DUP1 PUSH3 0xE48 JUMPI PUSH1 0x7F DUP3 AND SWAP2 POP JUMPDEST PUSH1 0x20 DUP3 LT DUP2 SUB PUSH3 0xE69 JUMPI PUSH4 0x4E487B71 PUSH1 0xE0 SHL PUSH1 0x0 MSTORE PUSH1 0x22 PUSH1 0x4 MSTORE PUSH1 0x24 PUSH1 0x0 REVERT JUMPDEST POP SWAP2 SWAP1 POP JUMP JUMPDEST PUSH1 0x1F DUP3 GT ISZERO PUSH3 0xEBB JUMPI PUSH1 0x0 DUP2 PUSH1 0x0 MSTORE PUSH1 0x20 PUSH1 0x0 KECCAK256 PUSH1 0x1F DUP6 ADD PUSH1 0x5 SHR DUP2 ADD PUSH1 0x20 DUP7 LT ISZERO PUSH3 0xE9A JUMPI POP DUP1 JUMPDEST PUSH1 0x1F DUP6 ADD PUSH1 0x5 SHR DUP3 ADD SWAP2 POP JUMPDEST DUP2 DUP2 LT ISZERO PUSH3 0x7E4 JUMPI DUP3 DUP2 SSTORE PUSH1 0x1 ADD PUSH3 0xEA6 JUMP JUMPDEST POP POP POP JUMP JUMPDEST DUP2 MLOAD PUSH1 0x1 PUSH1 0x1 PUSH1 0x40 SHL SUB DUP2 GT ISZERO PUSH3 0xEDC JUMPI PUSH3 0xEDC PUSH3 0xE1D JUMP JUMPDEST PUSH3 0xEF4 DUP2 PUSH3 0xEED DUP5 SLOAD PUSH3 0xE33 JUMP JUMPDEST DUP5 PUSH3 0xE6F JUMP JUMPDEST PUSH1 0x20 DUP1 PUSH1 0x1F DUP4 GT PUSH1 0x1 DUP2 EQ PUSH3 0xF2C JUMPI PUSH1 0x0 DUP5 ISZERO PUSH3 0xF13 JUMPI POP DUP6 DUP4 ADD MLOAD JUMPDEST PUSH1 0x0 NOT PUSH1 0x3 DUP7 SWAP1 SHL SHR NOT AND PUSH1 0x1 DUP6 SWAP1 SHL OR DUP6 SSTORE PUSH3 0x7E4 JUMP JUMPDEST PUSH1 0x0 DUP6 DUP2 MSTORE PUSH1 0x20 DUP2 KECCAK256 PUSH1 0x1F NOT DUP7 AND SWAP2 JUMPDEST DUP3 DUP2 LT ISZERO PUSH3 0xF5D JUMPI DUP9 DUP7 ADD MLOAD DUP3 SSTORE SWAP5 DUP5 ADD SWAP5 PUSH1 0x1 SWAP1 SWAP2 ADD SWAP1 DUP5 ADD PUSH3 0xF3C JUMP JUMPDEST POP DUP6 DUP3 LT ISZERO PUSH3 0xF7C JUMPI DUP8 DUP6 ADD MLOAD PUSH1 0x0 NOT PUSH1 0x3 DUP9 SWAP1 SHL PUSH1 0xF8 AND SHR NOT AND DUP2 SSTORE JUMPDEST POP POP POP POP POP PUSH1 0x1 SWAP1 DUP2 SHL ADD SWAP1 SSTORE POP JUMP JUMPDEST DUP1 DUP3 ADD DUP1 DUP3 GT ISZERO PUSH3 0xE06 JUMPI PUSH3 0xE06 PUSH3 0xCF7 JUMP JUMPDEST PUSH1 0x0 DUP2 MLOAD DUP1 DUP5 MSTORE PUSH1 0x20 DUP1 DUP6 ADD SWAP5 POP PUSH1 0x20 DUP5 ADD PUSH1 0x0 JUMPDEST DUP4 DUP2 LT ISZERO PUSH3 0xFD5 JUMPI DUP2 MLOAD DUP8 MSTORE SWAP6 DUP3 ADD SWAP6 SWAP1 DUP3 ADD SWAP1 PUSH1 0x1 ADD PUSH3 0xFB7 JUMP JUMPDEST POP SWAP5 SWAP6 SWAP5 POP POP POP POP POP JUMP JUMPDEST PUSH1 0x40 DUP2 MSTORE PUSH1 0x0 PUSH3 0xFF5 PUSH1 0x40 DUP4 ADD DUP6 PUSH3 0xFA2 JUMP JUMPDEST DUP3 DUP2 SUB PUSH1 0x20 DUP5 ADD MSTORE PUSH3 0x1009 DUP2 DUP6 PUSH3 0xFA2 JUMP JUMPDEST SWAP6 SWAP5 POP POP POP POP POP JUMP JUMPDEST PUSH1 0x0 DUP2 MLOAD DUP1 DUP5 MSTORE PUSH1 0x0 JUMPDEST DUP2 DUP2 LT ISZERO PUSH3 0x103A JUMPI PUSH1 0x20 DUP2 DUP6 ADD DUP2 ADD MLOAD DUP7 DUP4 ADD DUP3 ADD MSTORE ADD PUSH3 0x101C JUMP JUMPDEST POP PUSH1 0x0 PUSH1 0x20 DUP3 DUP7 ADD ADD MSTORE PUSH1 0x20 PUSH1 0x1F NOT PUSH1 0x1F DUP4 ADD AND DUP6 ADD ADD SWAP2 POP POP SWAP3 SWAP2 POP POP JUMP JUMPDEST PUSH1 0x1 PUSH1 0x1 PUSH1 0xA0 SHL SUB DUP7 DUP2 AND DUP3 MSTORE DUP6 AND PUSH1 0x20 DUP3 ADD MSTORE PUSH1 0x40 DUP2 ADD DUP5 SWAP1 MSTORE PUSH1 0x60 DUP2 ADD DUP4 SWAP1 MSTORE PUSH1 0xA0 PUSH1 0x80 DUP3 ADD DUP2 SWAP1 MSTORE PUSH1 0x0 SWAP1 PUSH3 0x1096 SWAP1 DUP4 ADD DUP5 PUSH3 0x1012 JUMP JUMPDEST SWAP8 SWAP7 POP POP POP POP POP POP POP JUMP JUMPDEST PUSH1 0x0 PUSH1 0x20 DUP3 DUP5 SUB SLT ISZERO PUSH3 0x10B4 JUMPI PUSH1 0x0 DUP1 REVERT JUMPDEST DUP2 MLOAD PUSH1 0x1 PUSH1 0x1 PUSH1 0xE0 SHL SUB NOT DUP2 AND DUP2 EQ PUSH3 0xCCB JUMPI PUSH1 0x0 DUP1 REVERT JUMPDEST PUSH1 0x1 PUSH1 0x1 PUSH1 0xA0 SHL SUB DUP7 DUP2 AND DUP3 MSTORE DUP6 AND PUSH1 0x20 DUP3 ADD MSTORE PUSH1 0xA0 PUSH1 0x40 DUP3 ADD DUP2 SWAP1 MSTORE PUSH1 0x0 SWAP1 PUSH3 0x10FB SWAP1 DUP4 ADD DUP7 PUSH3 0xFA2 JUMP JUMPDEST DUP3 DUP2 SUB PUSH1 0x60 DUP5 ADD MSTORE PUSH3 0x110F DUP2 DUP7 PUSH3 0xFA2 JUMP JUMPDEST SWAP1 POP DUP3 DUP2 SUB PUSH1 0x80 DUP5 ADD MSTORE PUSH3 0x1125 DUP2 DUP6 PUSH3 0x1012 JUMP JUMPDEST SWAP9 SWAP8 POP POP POP POP POP POP POP POP JUMP JUMPDEST PUSH2 0x5E2F DUP1 PUSH3 0x1141 PUSH1 0x0 CODECOPY PUSH1 0x0 RETURN INVALID PUSH1 0x80 PUSH1 0x40 MSTORE CALLVALUE DUP1 ISZERO PUSH2 0x10 JUMPI PUSH1 0x0 DUP1 REVERT JUMPDEST POP PUSH1 0x4 CALLDATASIZE LT PUSH2 0x1D9 JUMPI PUSH1 0x0 CALLDATALOAD PUSH1 0xE0 SHR DUP1 PUSH4 0x557ED1BA GT PUSH2 0x104 JUMPI DUP1 PUSH4 0xE4B70B42 GT PUSH2 0xA2 JUMPI DUP1 PUSH4 0xF242432A GT PUSH2 0x71 JUMPI DUP1 PUSH4 0xF242432A EQ PUSH2 0x45E JUMPI DUP1 PUSH4 0xF3D174CA EQ PUSH2 0x471 JUMPI DUP1 PUSH4 0xF8976921 EQ PUSH2 0x484 JUMPI DUP1 PUSH4 0xFB2FACC3 EQ PUSH2 0x499 JUMPI PUSH1 0x0 DUP1 REVERT JUMPDEST DUP1 PUSH4 0xE4B70B42 EQ PUSH2 0x41D JUMPI DUP1 PUSH4 0xE713F42C EQ PUSH2 0x430 JUMPI DUP1 PUSH4 0xE985E9C5 EQ PUSH2 0x438 JUMPI DUP1 PUSH4 0xF036033A EQ PUSH2 0x44B JUMPI PUSH1 0x0 DUP1 REVERT JUMPDEST DUP1 PUSH4 0x90420AEE GT PUSH2 0xDE JUMPI DUP1 PUSH4 0x90420AEE EQ PUSH2 0x3D1 JUMPI DUP1 PUSH4 0x97F588C6 EQ PUSH2 0x3E4 JUMPI DUP1 PUSH4 0xA22CB465 EQ PUSH2 0x3F7 JUMPI DUP1 PUSH4 0xBFCC4394 EQ PUSH2 0x40A JUMPI PUSH1 0x0 DUP1 REVERT JUMPDEST DUP1 PUSH4 0x557ED1BA EQ PUSH2 0x3A5 JUMPI DUP1 PUSH4 0x5BBC1A04 EQ PUSH2 0x3AB JUMPI DUP1 PUSH4 0x6FFCC719 EQ PUSH2 0x3BE JUMPI PUSH1 0x0 DUP1 REVERT JUMPDEST DUP1 PUSH4 0x222D9C5C GT PUSH2 0x17C JUMPI DUP1 PUSH4 0x2D632205 GT PUSH2 0x14B JUMPI DUP1 PUSH4 0x2D632205 EQ PUSH2 0x34C JUMPI DUP1 PUSH4 0x2EB2C2D6 EQ PUSH2 0x35F JUMPI DUP1 PUSH4 0x4DAD2AAB EQ PUSH2 0x372 JUMPI DUP1 PUSH4 0x4E1273F4 EQ PUSH2 0x385 JUMPI PUSH1 0x0 DUP1 REVERT JUMPDEST DUP1 PUSH4 0x222D9C5C EQ PUSH2 0x2A4 JUMPI DUP1 PUSH4 0x24897ED6 EQ PUSH2 0x2B7 JUMPI DUP1 PUSH4 0x2AC7CF6C EQ PUSH2 0x2CC JUMPI DUP1 PUSH4 0x2ADC6603 EQ PUSH2 0x2DF JUMPI PUSH1 0x0 DUP1 REVERT JUMPDEST DUP1 PUSH4 0xE89341C GT PUSH2 0x1B8 JUMPI DUP1 PUSH4 0xE89341C EQ PUSH2 0x247 JUMPI DUP1 PUSH4 0x1B1BF2B9 EQ PUSH2 0x267 JUMPI DUP1 PUSH4 0x1B26708C EQ PUSH2 0x27C JUMPI DUP1 PUSH4 0x214EAC4F EQ PUSH2 0x291 JUMPI PUSH1 0x0 DUP1 REVERT JUMPDEST DUP1 PUSH3 0xFDD58E EQ PUSH2 0x1DE JUMPI DUP1 PUSH4 0x1FFC9A7 EQ PUSH2 0x204 JUMPI DUP1 PUSH4 0x61E494F EQ PUSH2 0x227 JUMPI JUMPDEST PUSH1 0x0 DUP1 REVERT JUMPDEST PUSH2 0x1F1 PUSH2 0x1EC CALLDATASIZE PUSH1 0x4 PUSH2 0x4FD2 JUMP JUMPDEST PUSH2 0x4AC JUMP JUMPDEST PUSH1 0x40 MLOAD SWAP1 DUP2 MSTORE PUSH1 0x20 ADD JUMPDEST PUSH1 0x40 MLOAD DUP1 SWAP2 SUB SWAP1 RETURN JUMPDEST PUSH2 0x217 PUSH2 0x212 CALLDATASIZE PUSH1 0x4 PUSH2 0x5012 JUMP JUMPDEST PUSH2 0x4D4 JUMP JUMPDEST PUSH1 0x40 MLOAD SWAP1 ISZERO ISZERO DUP2 MSTORE PUSH1 0x20 ADD PUSH2 0x1FB JUMP JUMPDEST PUSH2 0x23A PUSH2 0x235 CALLDATASIZE PUSH1 0x4 PUSH2 0x5036 JUMP JUMPDEST PUSH2 0x524 JUMP JUMPDEST PUSH1 0x40 MLOAD PUSH2 0x1FB SWAP2 SWAP1 PUSH2 0x504F JUMP JUMPDEST PUSH2 0x25A PUSH2 0x255 CALLDATASIZE PUSH1 0x4 PUSH2 0x5036 JUMP JUMPDEST PUSH2 0x5AC JUMP JUMPDEST PUSH1 0x40 MLOAD PUSH2 0x1FB SWAP2 SWAP1 PUSH2 0x50F7 JUMP JUMPDEST PUSH2 0x27A PUSH2 0x275 CALLDATASIZE PUSH1 0x4 PUSH2 0x510A JUMP JUMPDEST PUSH2 0x640 JUMP JUMPDEST STOP JUMPDEST PUSH2 0x284 PUSH2 0x6A3 JUMP JUMPDEST PUSH1 0x40 MLOAD PUSH2 0x1FB SWAP2 SWAP1 PUSH2 0x5125 JUMP JUMPDEST PUSH2 0x27A PUSH2 0x29F CALLDATASIZE PUSH1 0x4 PUSH2 0x5207 JUMP JUMPDEST PUSH2 0x900 JUMP JUMPDEST PUSH2 0x27A PUSH2 0x2B2 CALLDATASIZE PUSH1 0x4 PUSH2 0x5036 JUMP JUMPDEST PUSH2 0xABC JUMP JUMPDEST PUSH2 0x2BF PUSH2 0x1470 JUMP JUMPDEST PUSH1 0x40 MLOAD PUSH2 0x1FB SWAP2 SWAP1 PUSH2 0x5233 JUMP JUMPDEST PUSH2 0x27A PUSH2 0x2DA CALLDATASIZE PUSH1 0x4 PUSH2 0x534A JUMP JUMPDEST PUSH2 0x14F1 JUMP JUMPDEST PUSH2 0x2F2 PUSH2 0x2ED CALLDATASIZE PUSH1 0x4 PUSH2 0x5036 JUMP JUMPDEST PUSH2 0x1870 JUMP JUMPDEST PUSH1 0x40 MLOAD PUSH2 0x1FB SWAP2 SWAP1 DUP2 MLOAD DUP2 MSTORE PUSH1 0x20 DUP1 DUP4 ADD MLOAD SWAP1 DUP3 ADD MSTORE PUSH1 0x40 DUP1 DUP4 ADD MLOAD SWAP1 DUP3 ADD MSTORE PUSH1 0x60 DUP1 DUP4 ADD MLOAD SWAP1 DUP3 ADD MSTORE PUSH1 0x80 DUP1 DUP4 ADD MLOAD SWAP1 DUP3 ADD MSTORE PUSH1 0xA0 DUP1 DUP4 ADD MLOAD PUSH1 0x1 PUSH1 0x1 PUSH1 0xA0 SHL SUB AND SWAP1 DUP3 ADD MSTORE PUSH1 0xC0 SWAP2 DUP3 ADD MLOAD SWAP2 DUP2 ADD SWAP2 SWAP1 SWAP2 MSTORE PUSH1 0xE0 ADD SWAP1 JUMP JUMPDEST PUSH2 0x27A PUSH2 0x35A CALLDATASIZE PUSH1 0x4 PUSH2 0x53E4 JUMP JUMPDEST PUSH2 0x193A JUMP JUMPDEST PUSH2 0x27A PUSH2 0x36D CALLDATASIZE PUSH1 0x4 PUSH2 0x5499 JUMP JUMPDEST PUSH2 0x1D2A JUMP JUMPDEST PUSH2 0x27A PUSH2 0x380 CALLDATASIZE PUSH1 0x4 PUSH2 0x5543 JUMP JUMPDEST PUSH2 0x1D91 JUMP JUMPDEST PUSH2 0x398 PUSH2 0x393 CALLDATASIZE PUSH1 0x4 PUSH2 0x55B5 JUMP JUMPDEST PUSH2 0x1FE2 JUMP JUMPDEST PUSH1 0x40 MLOAD PUSH2 0x1FB SWAP2 SWAP1 PUSH2 0x56B1 JUMP JUMPDEST TIMESTAMP PUSH2 0x1F1 JUMP JUMPDEST PUSH2 0x27A PUSH2 0x3B9 CALLDATASIZE PUSH1 0x4 PUSH2 0x56C4 JUMP JUMPDEST PUSH2 0x20AF JUMP JUMPDEST PUSH2 0x27A PUSH2 0x3CC CALLDATASIZE PUSH1 0x4 PUSH2 0x53E4 JUMP JUMPDEST PUSH2 0x24E3 JUMP JUMPDEST PUSH2 0x27A PUSH2 0x3DF CALLDATASIZE PUSH1 0x4 PUSH2 0x53E4 JUMP JUMPDEST PUSH2 0x288E JUMP JUMPDEST PUSH2 0x27A PUSH2 0x3F2 CALLDATASIZE PUSH1 0x4 PUSH2 0x56F9 JUMP JUMPDEST PUSH2 0x294E JUMP JUMPDEST PUSH2 0x27A PUSH2 0x405 CALLDATASIZE PUSH1 0x4 PUSH2 0x5736 JUMP JUMPDEST PUSH2 0x2D5D JUMP JUMPDEST PUSH2 0x27A PUSH2 0x418 CALLDATASIZE PUSH1 0x4 PUSH2 0x5036 JUMP JUMPDEST PUSH2 0x2D6C JUMP JUMPDEST PUSH2 0x27A PUSH2 0x42B CALLDATASIZE PUSH1 0x4 PUSH2 0x5207 JUMP JUMPDEST PUSH2 0x2DDA JUMP JUMPDEST PUSH2 0x284 PUSH2 0x361D JUMP JUMPDEST PUSH2 0x217 PUSH2 0x446 CALLDATASIZE PUSH1 0x4 PUSH2 0x5772 JUMP JUMPDEST PUSH2 0x3866 JUMP JUMPDEST PUSH2 0x27A PUSH2 0x459 CALLDATASIZE PUSH1 0x4 PUSH2 0x57A5 JUMP JUMPDEST PUSH2 0x3894 JUMP JUMPDEST PUSH2 0x27A PUSH2 0x46C CALLDATASIZE PUSH1 0x4 PUSH2 0x57D7 JUMP JUMPDEST PUSH2 0x3A47 JUMP JUMPDEST PUSH2 0x27A PUSH2 0x47F CALLDATASIZE PUSH1 0x4 PUSH2 0x583C JUMP JUMPDEST PUSH2 0x3AA6 JUMP JUMPDEST PUSH2 0x48C PUSH2 0x3C6D JUMP JUMPDEST PUSH1 0x40 MLOAD PUSH2 0x1FB SWAP2 SWAP1 PUSH2 0x58E9 JUMP JUMPDEST PUSH2 0x27A PUSH2 0x4A7 CALLDATASIZE PUSH1 0x4 PUSH2 0x5036 JUMP JUMPDEST PUSH2 0x3E97 JUMP JUMPDEST PUSH1 0x0 DUP2 DUP2 MSTORE PUSH1 0x20 DUP2 DUP2 MSTORE PUSH1 0x40 DUP1 DUP4 KECCAK256 PUSH1 0x1 PUSH1 0x1 PUSH1 0xA0 SHL SUB DUP7 AND DUP5 MSTORE SWAP1 SWAP2 MSTORE SWAP1 KECCAK256 SLOAD JUMPDEST SWAP3 SWAP2 POP POP JUMP JUMPDEST PUSH1 0x0 PUSH1 0x1 PUSH1 0x1 PUSH1 0xE0 SHL SUB NOT DUP3 AND PUSH4 0x6CDB3D13 PUSH1 0xE1 SHL EQ DUP1 PUSH2 0x505 JUMPI POP PUSH1 0x1 PUSH1 0x1 PUSH1 0xE0 SHL SUB NOT DUP3 AND PUSH4 0x3A24D07 PUSH1 0xE2 SHL EQ JUMPDEST DUP1 PUSH2 0x4CE JUMPI POP PUSH4 0x1FFC9A7 PUSH1 0xE0 SHL PUSH1 0x1 PUSH1 0x1 PUSH1 0xE0 SHL SUB NOT DUP4 AND EQ PUSH2 0x4CE JUMP JUMPDEST PUSH1 0x60 PUSH1 0xB PUSH1 0x0 DUP4 DUP2 MSTORE PUSH1 0x20 ADD SWAP1 DUP2 MSTORE PUSH1 0x20 ADD PUSH1 0x0 KECCAK256 DUP1 SLOAD DUP1 PUSH1 0x20 MUL PUSH1 0x20 ADD PUSH1 0x40 MLOAD SWAP1 DUP2 ADD PUSH1 0x40 MSTORE DUP1 SWAP3 SWAP2 SWAP1 DUP2 DUP2 MSTORE PUSH1 0x20 ADD PUSH1 0x0 SWAP1 JUMPDEST DUP3 DUP3 LT ISZERO PUSH2 0x5A1 JUMPI PUSH1 0x0 DUP5 DUP2 MSTORE PUSH1 0x20 SWAP1 DUP2 SWAP1 KECCAK256 PUSH1 0x40 DUP1 MLOAD DUP1 DUP3 ADD SWAP1 SWAP2 MSTORE PUSH1 0x2 DUP6 MUL SWAP1 SWAP2 ADD DUP1 SLOAD DUP3 MSTORE PUSH1 0x1 SWAP1 DUP2 ADD SLOAD PUSH1 0x1 PUSH1 0x1 PUSH1 0xA0 SHL SUB AND DUP3 DUP5 ADD MSTORE SWAP1 DUP4 MSTORE SWAP1 SWAP3 ADD SWAP2 ADD PUSH2 0x559 JUMP JUMPDEST POP POP POP POP SWAP1 POP SWAP2 SWAP1 POP JUMP JUMPDEST PUSH1 0x60 PUSH1 0x2 DUP1 SLOAD PUSH2 0x5BB SWAP1 PUSH2 0x5999 JUMP JUMPDEST DUP1 PUSH1 0x1F ADD PUSH1 0x20 DUP1 SWAP2 DIV MUL PUSH1 0x20 ADD PUSH1 0x40 MLOAD SWAP1 DUP2 ADD PUSH1 0x40 MSTORE DUP1 SWAP3 SWAP2 SWAP1 DUP2 DUP2 MSTORE PUSH1 0x20 ADD DUP3 DUP1 SLOAD PUSH2 0x5E7 SWAP1 PUSH2 0x5999 JUMP JUMPDEST DUP1 ISZERO PUSH2 0x634 JUMPI DUP1 PUSH1 0x1F LT PUSH2 0x609 JUMPI PUSH2 0x100 DUP1 DUP4 SLOAD DIV MUL DUP4 MSTORE SWAP2 PUSH1 0x20 ADD SWAP2 PUSH2 0x634 JUMP JUMPDEST DUP3 ADD SWAP2 SWAP1 PUSH1 0x0 MSTORE PUSH1 0x20 PUSH1 0x0 KECCAK256 SWAP1 JUMPDEST DUP2 SLOAD DUP2 MSTORE SWAP1 PUSH1 0x1 ADD SWAP1 PUSH1 0x20 ADD DUP1 DUP4 GT PUSH2 0x617 JUMPI DUP3 SWAP1 SUB PUSH1 0x1F AND DUP3 ADD SWAP2 JUMPDEST POP POP POP POP POP SWAP1 POP SWAP2 SWAP1 POP JUMP JUMPDEST CALLER PUSH1 0x0 SWAP1 DUP2 MSTORE PUSH1 0xC PUSH1 0x20 MSTORE PUSH1 0x40 SWAP1 DUP2 SWAP1 KECCAK256 SWAP1 MLOAD PUSH1 0x6 SWAP2 PUSH2 0x65F SWAP2 PUSH2 0x59D3 JUMP JUMPDEST SWAP1 DUP2 MSTORE PUSH1 0x40 MLOAD PUSH1 0x20 SWAP2 DUP2 SWAP1 SUB DUP3 ADD SWAP1 KECCAK256 PUSH1 0x3 ADD DUP1 SLOAD PUSH1 0x1 DUP2 ADD DUP3 SSTORE PUSH1 0x0 SWAP2 DUP3 MSTORE SWAP2 SWAP1 KECCAK256 ADD DUP1 SLOAD PUSH1 0x1 PUSH1 0x1 PUSH1 0xA0 SHL SUB NOT AND PUSH1 0x1 PUSH1 0x1 PUSH1 0xA0 SHL SUB SWAP3 SWAP1 SWAP3 AND SWAP2 SWAP1 SWAP2 OR SWAP1 SSTORE JUMP JUMPDEST CALLER PUSH1 0x0 SWAP1 DUP2 MSTORE PUSH1 0x9 PUSH1 0x20 SWAP1 DUP2 MSTORE PUSH1 0x40 DUP1 DUP4 KECCAK256 DUP1 SLOAD DUP3 MLOAD DUP2 DUP6 MUL DUP2 ADD DUP6 ADD SWAP1 SWAP4 MSTORE DUP1 DUP4 MSTORE PUSH1 0x60 SWAP5 SWAP3 SWAP4 SWAP2 SWAP3 SWAP1 SWAP2 DUP5 ADD JUMPDEST DUP3 DUP3 LT ISZERO PUSH2 0x8F7 JUMPI DUP4 DUP3 SWAP1 PUSH1 0x0 MSTORE PUSH1 0x20 PUSH1 0x0 KECCAK256 SWAP1 PUSH1 0x9 MUL ADD PUSH1 0x40 MLOAD DUP1 PUSH2 0x120 ADD PUSH1 0x40 MSTORE SWAP1 DUP2 PUSH1 0x0 DUP3 ADD SLOAD DUP2 MSTORE PUSH1 0x20 ADD PUSH1 0x1 DUP3 ADD DUP1 SLOAD PUSH2 0x710 SWAP1 PUSH2 0x5999 JUMP JUMPDEST DUP1 PUSH1 0x1F ADD PUSH1 0x20 DUP1 SWAP2 DIV MUL PUSH1 0x20 ADD PUSH1 0x40 MLOAD SWAP1 DUP2 ADD PUSH1 0x40 MSTORE DUP1 SWAP3 SWAP2 SWAP1 DUP2 DUP2 MSTORE PUSH1 0x20 ADD DUP3 DUP1 SLOAD PUSH2 0x73C SWAP1 PUSH2 0x5999 JUMP JUMPDEST DUP1 ISZERO PUSH2 0x789 JUMPI DUP1 PUSH1 0x1F LT PUSH2 0x75E JUMPI PUSH2 0x100 DUP1 DUP4 SLOAD DIV MUL DUP4 MSTORE SWAP2 PUSH1 0x20 ADD SWAP2 PUSH2 0x789 JUMP JUMPDEST DUP3 ADD SWAP2 SWAP1 PUSH1 0x0 MSTORE PUSH1 0x20 PUSH1 0x0 KECCAK256 SWAP1 JUMPDEST DUP2 SLOAD DUP2 MSTORE SWAP1 PUSH1 0x1 ADD SWAP1 PUSH1 0x20 ADD DUP1 DUP4 GT PUSH2 0x76C JUMPI DUP3 SWAP1 SUB PUSH1 0x1F AND DUP3 ADD SWAP2 JUMPDEST POP POP POP POP POP DUP2 MSTORE PUSH1 0x20 ADD PUSH1 0x2 DUP3 ADD DUP1 SLOAD PUSH2 0x7A2 SWAP1 PUSH2 0x5999 JUMP JUMPDEST DUP1 PUSH1 0x1F ADD PUSH1 0x20 DUP1 SWAP2 DIV MUL PUSH1 0x20 ADD PUSH1 0x40 MLOAD SWAP1 DUP2 ADD PUSH1 0x40 MSTORE DUP1 SWAP3 SWAP2 SWAP1 DUP2 DUP2 MSTORE PUSH1 0x20 ADD DUP3 DUP1 SLOAD PUSH2 0x7CE SWAP1 PUSH2 0x5999 JUMP JUMPDEST DUP1 ISZERO PUSH2 0x81B JUMPI DUP1 PUSH1 0x1F LT PUSH2 0x7F0 JUMPI PUSH2 0x100 DUP1 DUP4 SLOAD DIV MUL DUP4 MSTORE SWAP2 PUSH1 0x20 ADD SWAP2 PUSH2 0x81B JUMP JUMPDEST DUP3 ADD SWAP2 SWAP1 PUSH1 0x0 MSTORE PUSH1 0x20 PUSH1 0x0 KECCAK256 SWAP1 JUMPDEST DUP2 SLOAD DUP2 MSTORE SWAP1 PUSH1 0x1 ADD SWAP1 PUSH1 0x20 ADD DUP1 DUP4 GT PUSH2 0x7FE JUMPI DUP3 SWAP1 SUB PUSH1 0x1F AND DUP3 ADD SWAP2 JUMPDEST POP POP POP POP POP DUP2 MSTORE PUSH1 0x20 ADD PUSH1 0x3 DUP3 ADD DUP1 SLOAD PUSH2 0x834 SWAP1 PUSH2 0x5999 JUMP JUMPDEST DUP1 PUSH1 0x1F ADD PUSH1 0x20 DUP1 SWAP2 DIV MUL PUSH1 0x20 ADD PUSH1 0x40 MLOAD SWAP1 DUP2 ADD PUSH1 0x40 MSTORE DUP1 SWAP3 SWAP2 SWAP1 DUP2 DUP2 MSTORE PUSH1 0x20 ADD DUP3 DUP1 SLOAD PUSH2 0x860 SWAP1 PUSH2 0x5999 JUMP JUMPDEST DUP1 ISZERO PUSH2 0x8AD JUMPI DUP1 PUSH1 0x1F LT PUSH2 0x882 JUMPI PUSH2 0x100 DUP1 DUP4 SLOAD DIV MUL DUP4 MSTORE SWAP2 PUSH1 0x20 ADD SWAP2 PUSH2 0x8AD JUMP JUMPDEST DUP3 ADD SWAP2 SWAP1 PUSH1 0x0 MSTORE PUSH1 0x20 PUSH1 0x0 KECCAK256 SWAP1 JUMPDEST DUP2 SLOAD DUP2 MSTORE SWAP1 PUSH1 0x1 ADD SWAP1 PUSH1 0x20 ADD DUP1 DUP4 GT PUSH2 0x890 JUMPI DUP3 SWAP1 SUB PUSH1 0x1F AND DUP3 ADD SWAP2 JUMPDEST POP POP POP POP POP DUP2 MSTORE PUSH1 0x20 ADD PUSH1 0x4 DUP3 ADD SLOAD DUP2 MSTORE PUSH1 0x20 ADD PUSH1 0x5 DUP3 ADD SLOAD DUP2 MSTORE PUSH1 0x20 ADD PUSH1 0x6 DUP3 ADD SLOAD DUP2 MSTORE PUSH1 0x20 ADD PUSH1 0x7 DUP3 ADD SLOAD DUP2 MSTORE PUSH1 0x20 ADD PUSH1 0x8 DUP3 ADD SLOAD DUP2 MSTORE POP POP DUP2 MSTORE PUSH1 0x20 ADD SWAP1 PUSH1 0x1 ADD SWAP1 PUSH2 0x6D2 JUMP JUMPDEST POP POP POP POP SWAP1 POP SWAP1 JUMP JUMPDEST CALLER PUSH1 0x0 SWAP1 DUP2 MSTORE PUSH1 0x9 PUSH1 0x20 MSTORE PUSH1 0x40 SWAP1 KECCAK256 DUP1 SLOAD DUP4 SWAP2 SWAP1 DUP6 SWAP1 DUP2 LT PUSH2 0x924 JUMPI PUSH2 0x924 PUSH2 0x5A49 JUMP JUMPDEST SWAP1 PUSH1 0x0 MSTORE PUSH1 0x20 PUSH1 0x0 KECCAK256 SWAP1 PUSH1 0x9 MUL ADD PUSH1 0x6 ADD SLOAD LT ISZERO PUSH2 0x998 JUMPI PUSH1 0x40 MLOAD PUSH3 0x461BCD PUSH1 0xE5 SHL DUP2 MSTORE PUSH1 0x20 PUSH1 0x4 DUP3 ADD MSTORE PUSH1 0x26 PUSH1 0x24 DUP3 ADD MSTORE PUSH32 0xD0A320D0B2D0B0D18120D0BDD0B5D0B4D0BED181D182D0B0D182D0BED187D0BD PUSH1 0x44 DUP3 ADD MSTORE PUSH6 0x342F88139195 PUSH1 0xD2 SHL PUSH1 0x64 DUP3 ADD MSTORE PUSH1 0x84 ADD JUMPDEST PUSH1 0x40 MLOAD DUP1 SWAP2 SUB SWAP1 REVERT JUMPDEST PUSH1 0x0 DUP4 DUP2 MSTORE PUSH1 0xD PUSH1 0x20 MSTORE PUSH1 0x40 SWAP1 KECCAK256 SLOAD PUSH1 0xFF AND ISZERO PUSH2 0xA27 JUMPI PUSH1 0x40 MLOAD PUSH3 0x461BCD PUSH1 0xE5 SHL DUP2 MSTORE PUSH1 0x20 PUSH1 0x4 DUP3 ADD MSTORE PUSH1 0x41 PUSH1 0x24 DUP3 ADD MSTORE PUSH32 0xD092D18B20D0BDD0B520D0BCD0BED0B6D0B5D182D0B520D0BFD180D0BED0B4D0 PUSH1 0x44 DUP3 ADD MSTORE PUSH32 0xB0D182D18C204E465420D0B8D0B720D0BAD0BED0BBD0BBD0B5D0BAD186D0B8D0 PUSH1 0x64 DUP3 ADD MSTORE PUSH1 0x17 PUSH1 0xFB SHL PUSH1 0x84 DUP3 ADD MSTORE PUSH1 0xA4 ADD PUSH2 0x98F JUMP JUMPDEST PUSH1 0xE PUSH1 0x40 MLOAD DUP1 PUSH1 0x80 ADD PUSH1 0x40 MSTORE DUP1 DUP6 DUP2 MSTORE PUSH1 0x20 ADD CALLER PUSH1 0x1 PUSH1 0x1 PUSH1 0xA0 SHL SUB AND DUP2 MSTORE PUSH1 0x20 ADD DUP5 DUP2 MSTORE PUSH1 0x20 ADD PUSH1 0x3 SLOAD DUP5 PUSH2 0xA5D SWAP2 SWAP1 PUSH2 0x5A75 JUMP JUMPDEST SWAP1 MSTORE DUP2 SLOAD PUSH1 0x1 DUP1 DUP3 ADD DUP5 SSTORE PUSH1 0x0 SWAP4 DUP5 MSTORE PUSH1 0x20 SWAP4 DUP5 SWAP1 KECCAK256 DUP4 MLOAD PUSH1 0x4 SWAP1 SWAP4 MUL ADD SWAP2 DUP3 SSTORE SWAP3 DUP3 ADD MLOAD SWAP3 DUP2 ADD DUP1 SLOAD PUSH1 0x1 PUSH1 0x1 PUSH1 0xA0 SHL SUB NOT AND PUSH1 0x1 PUSH1 0x1 PUSH1 0xA0 SHL SUB SWAP1 SWAP5 AND SWAP4 SWAP1 SWAP4 OR SWAP1 SWAP3 SSTORE PUSH1 0x40 DUP2 ADD MLOAD PUSH1 0x2 DUP4 ADD SSTORE PUSH1 0x60 ADD MLOAD PUSH1 0x3 SWAP1 SWAP2 ADD SSTORE POP POP POP JUMP JUMPDEST PUSH1 0x4 SLOAD PUSH1 0x1 PUSH1 0x1 PUSH1 0xA0 SHL SUB AND CALLER EQ PUSH2 0xAE6 JUMPI PUSH1 0x40 MLOAD PUSH3 0x461BCD PUSH1 0xE5 SHL DUP2 MSTORE PUSH1 0x4 ADD PUSH2 0x98F SWAP1 PUSH2 0x5A8C JUMP JUMPDEST PUSH1 0x4 SLOAD PUSH1 0x12 DUP1 SLOAD PUSH2 0xC74 SWAP3 PUSH1 0x1 PUSH1 0x1 PUSH1 0xA0 SHL SUB AND SWAP2 SWAP1 DUP5 SWAP1 DUP2 LT PUSH2 0xB0C JUMPI PUSH2 0xB0C PUSH2 0x5A49 JUMP JUMPDEST SWAP1 PUSH1 0x0 MSTORE PUSH1 0x20 PUSH1 0x0 KECCAK256 SWAP1 PUSH1 0x7 MUL ADD PUSH1 0x5 ADD PUSH1 0x0 SWAP1 SLOAD SWAP1 PUSH2 0x100 EXP SWAP1 DIV PUSH1 0x1 PUSH1 0x1 PUSH1 0xA0 SHL SUB AND PUSH1 0x11 PUSH1 0x12 DUP6 DUP2 SLOAD DUP2 LT PUSH2 0xB46 JUMPI PUSH2 0xB46 PUSH2 0x5A49 JUMP JUMPDEST SWAP1 PUSH1 0x0 MSTORE PUSH1 0x20 PUSH1 0x0 KECCAK256 SWAP1 PUSH1 0x7 MUL ADD PUSH1 0x1 ADD SLOAD DUP2 SLOAD DUP2 LT PUSH2 0xB68 JUMPI PUSH2 0xB68 PUSH2 0x5A49 JUMP JUMPDEST SWAP1 PUSH1 0x0 MSTORE PUSH1 0x20 PUSH1 0x0 KECCAK256 SWAP1 PUSH1 0x4 MUL ADD PUSH1 0x2 ADD DUP1 SLOAD DUP1 PUSH1 0x20 MUL PUSH1 0x20 ADD PUSH1 0x40 MLOAD SWAP1 DUP2 ADD PUSH1 0x40 MSTORE DUP1 SWAP3 SWAP2 SWAP1 DUP2 DUP2 MSTORE PUSH1 0x20 ADD DUP3 DUP1 SLOAD DUP1 ISZERO PUSH2 0xBC3 JUMPI PUSH1 0x20 MUL DUP3 ADD SWAP2 SWAP1 PUSH1 0x0 MSTORE PUSH1 0x20 PUSH1 0x0 KECCAK256 SWAP1 JUMPDEST DUP2 SLOAD DUP2 MSTORE PUSH1 0x20 ADD SWAP1 PUSH1 0x1 ADD SWAP1 DUP1 DUP4 GT PUSH2 0xBAF JUMPI JUMPDEST POP POP POP POP POP PUSH1 0x11 PUSH1 0x12 DUP7 DUP2 SLOAD DUP2 LT PUSH2 0xBDD JUMPI PUSH2 0xBDD PUSH2 0x5A49 JUMP JUMPDEST SWAP1 PUSH1 0x0 MSTORE PUSH1 0x20 PUSH1 0x0 KECCAK256 SWAP1 PUSH1 0x7 MUL ADD PUSH1 0x1 ADD SLOAD DUP2 SLOAD DUP2 LT PUSH2 0xBFF JUMPI PUSH2 0xBFF PUSH2 0x5A49 JUMP JUMPDEST SWAP1 PUSH1 0x0 MSTORE PUSH1 0x20 PUSH1 0x0 KECCAK256 SWAP1 PUSH1 0x4 MUL ADD PUSH1 0x3 ADD DUP1 SLOAD DUP1 PUSH1 0x20 MUL PUSH1 0x20 ADD PUSH1 0x40 MLOAD SWAP1 DUP2 ADD PUSH1 0x40 MSTORE DUP1 SWAP3 SWAP2 SWAP1 DUP2 DUP2 MSTORE PUSH1 0x20 ADD DUP3 DUP1 SLOAD DUP1 ISZERO PUSH2 0xC5A JUMPI PUSH1 0x20 MUL DUP3 ADD SWAP2 SWAP1 PUSH1 0x0 MSTORE PUSH1 0x20 PUSH1 0x0 KECCAK256 SWAP1 JUMPDEST DUP2 SLOAD DUP2 MSTORE PUSH1 0x20 ADD SWAP1 PUSH1 0x1 ADD SWAP1 DUP1 DUP4 GT PUSH2 0xC46 JUMPI JUMPDEST POP POP POP POP POP PUSH1 0x40 MLOAD DUP1 PUSH1 0x20 ADD PUSH1 0x40 MSTORE DUP1 PUSH1 0x0 DUP2 MSTORE POP PUSH2 0x47EF JUMP JUMPDEST PUSH1 0x0 JUMPDEST PUSH1 0x11 PUSH1 0x12 DUP4 DUP2 SLOAD DUP2 LT PUSH2 0xC8C JUMPI PUSH2 0xC8C PUSH2 0x5A49 JUMP JUMPDEST SWAP1 PUSH1 0x0 MSTORE PUSH1 0x20 PUSH1 0x0 KECCAK256 SWAP1 PUSH1 0x7 MUL ADD PUSH1 0x1 ADD SLOAD DUP2 SLOAD DUP2 LT PUSH2 0xCAE JUMPI PUSH2 0xCAE PUSH2 0x5A49 JUMP JUMPDEST SWAP1 PUSH1 0x0 MSTORE PUSH1 0x20 PUSH1 0x0 KECCAK256 SWAP1 PUSH1 0x4 MUL ADD PUSH1 0x2 ADD DUP1 SLOAD SWAP1 POP DUP2 LT ISZERO PUSH2 0x1422 JUMPI PUSH1 0x9 PUSH1 0x0 PUSH1 0x12 DUP5 DUP2 SLOAD DUP2 LT PUSH2 0xCE1 JUMPI PUSH2 0xCE1 PUSH2 0x5A49 JUMP JUMPDEST SWAP1 PUSH1 0x0 MSTORE PUSH1 0x20 PUSH1 0x0 KECCAK256 SWAP1 PUSH1 0x7 MUL ADD PUSH1 0x5 ADD PUSH1 0x0 SWAP1 SLOAD SWAP1 PUSH2 0x100 EXP SWAP1 DIV PUSH1 0x1 PUSH1 0x1 PUSH1 0xA0 SHL SUB AND PUSH1 0x1 PUSH1 0x1 PUSH1 0xA0 SHL SUB AND PUSH1 0x1 PUSH1 0x1 PUSH1 0xA0 SHL SUB AND DUP2 MSTORE PUSH1 0x20 ADD SWAP1 DUP2 MSTORE PUSH1 0x20 ADD PUSH1 0x0 KECCAK256 PUSH1 0x40 MLOAD DUP1 PUSH2 0x120 ADD PUSH1 0x40 MSTORE DUP1 PUSH1 0x9 PUSH1 0x0 PUSH1 0x12 DUP8 DUP2 SLOAD DUP2 LT PUSH2 0xD49 JUMPI PUSH2 0xD49 PUSH2 0x5A49 JUMP JUMPDEST SWAP1 PUSH1 0x0 MSTORE PUSH1 0x20 PUSH1 0x0 KECCAK256 SWAP1 PUSH1 0x7 MUL ADD PUSH1 0x5 ADD PUSH1 0x0 SWAP1 SLOAD SWAP1 PUSH2 0x100 EXP SWAP1 DIV PUSH1 0x1 PUSH1 0x1 PUSH1 0xA0 SHL SUB AND PUSH1 0x1 PUSH1 0x1 PUSH1 0xA0 SHL SUB AND PUSH1 0x1 PUSH1 0x1 PUSH1 0xA0 SHL SUB AND DUP2 MSTORE PUSH1 0x20 ADD SWAP1 DUP2 MSTORE PUSH1 0x20 ADD PUSH1 0x0 KECCAK256 DUP1 SLOAD SWAP1 POP DUP2 MSTORE PUSH1 0x20 ADD PUSH1 0x8 PUSH1 0x0 PUSH1 0xA PUSH1 0x0 PUSH1 0x12 DUP10 DUP2 SLOAD DUP2 LT PUSH2 0xDB2 JUMPI PUSH2 0xDB2 PUSH2 0x5A49 JUMP JUMPDEST SWAP1 PUSH1 0x0 MSTORE PUSH1 0x20 PUSH1 0x0 KECCAK256 SWAP1 PUSH1 0x7 MUL ADD PUSH1 0x1 ADD SLOAD DUP2 MSTORE PUSH1 0x20 ADD SWAP1 DUP2 MSTORE PUSH1 0x20 ADD PUSH1 0x0 KECCAK256 PUSH1 0x2 ADD DUP7 DUP2 SLOAD DUP2 LT PUSH2 0xDE6 JUMPI PUSH2 0xDE6 PUSH2 0x5A49 JUMP JUMPDEST SWAP1 PUSH1 0x0 MSTORE PUSH1 0x20 PUSH1 0x0 KECCAK256 ADD SLOAD DUP2 MSTORE PUSH1 0x20 ADD SWAP1 DUP2 MSTORE PUSH1 0x20 ADD PUSH1 0x0 KECCAK256 PUSH1 0x1 ADD DUP1 SLOAD PUSH2 0xE0D SWAP1 PUSH2 0x5999 JUMP JUMPDEST DUP1 PUSH1 0x1F ADD PUSH1 0x20 DUP1 SWAP2 DIV MUL PUSH1 0x20 ADD PUSH1 0x40 MLOAD SWAP1 DUP2 ADD PUSH1 0x40 MSTORE DUP1 SWAP3 SWAP2 SWAP1 DUP2 DUP2 MSTORE PUSH1 0x20 ADD DUP3 DUP1 SLOAD PUSH2 0xE39 SWAP1 PUSH2 0x5999 JUMP JUMPDEST DUP1 ISZERO PUSH2 0xE86 JUMPI DUP1 PUSH1 0x1F LT PUSH2 0xE5B JUMPI PUSH2 0x100 DUP1 DUP4 SLOAD DIV MUL DUP4 MSTORE SWAP2 PUSH1 0x20 ADD SWAP2 PUSH2 0xE86 JUMP JUMPDEST DUP3 ADD SWAP2 SWAP1 PUSH1 0x0 MSTORE PUSH1 0x20 PUSH1 0x0 KECCAK256 SWAP1 JUMPDEST DUP2 SLOAD DUP2 MSTORE SWAP1 PUSH1 0x1 ADD SWAP1 PUSH1 0x20 ADD DUP1 DUP4 GT PUSH2 0xE69 JUMPI DUP3 SWAP1 SUB PUSH1 0x1F AND DUP3 ADD SWAP2 JUMPDEST POP POP POP POP POP DUP2 MSTORE PUSH1 0x20 ADD PUSH1 0x8 PUSH1 0x0 PUSH1 0xA PUSH1 0x0 PUSH1 0x12 DUP10 DUP2 SLOAD DUP2 LT PUSH2 0xEAB JUMPI PUSH2 0xEAB PUSH2 0x5A49 JUMP JUMPDEST SWAP1 PUSH1 0x0 MSTORE PUSH1 0x20 PUSH1 0x0 KECCAK256 SWAP1 PUSH1 0x7 MUL ADD PUSH1 0x1 ADD SLOAD DUP2 MSTORE PUSH1 0x20 ADD SWAP1 DUP2 MSTORE PUSH1 0x20 ADD PUSH1 0x0 KECCAK256 PUSH1 0x2 ADD DUP7 DUP2 SLOAD DUP2 LT PUSH2 0xEDF JUMPI PUSH2 0xEDF PUSH2 0x5A49 JUMP JUMPDEST SWAP1 PUSH1 0x0 MSTORE PUSH1 0x20 PUSH1 0x0 KECCAK256 ADD SLOAD DUP2 MSTORE PUSH1 0x20 ADD SWAP1 DUP2 MSTORE PUSH1 0x20 ADD PUSH1 0x0 KECCAK256 PUSH1 0x2 ADD DUP1 SLOAD PUSH2 0xF06 SWAP1 PUSH2 0x5999 JUMP JUMPDEST DUP1 PUSH1 0x1F ADD PUSH1 0x20 DUP1 SWAP2 DIV MUL PUSH1 0x20 ADD PUSH1 0x40 MLOAD SWAP1 DUP2 ADD PUSH1 0x40 MSTORE DUP1 SWAP3 SWAP2 SWAP1 DUP2 DUP2 MSTORE PUSH1 0x20 ADD DUP3 DUP1 SLOAD PUSH2 0xF32 SWAP1 PUSH2 0x5999 JUMP JUMPDEST DUP1 ISZERO PUSH2 0xF7F JUMPI DUP1 PUSH1 0x1F LT PUSH2 0xF54 JUMPI PUSH2 0x100 DUP1 DUP4 SLOAD DIV MUL DUP4 MSTORE SWAP2 PUSH1 0x20 ADD SWAP2 PUSH2 0xF7F JUMP JUMPDEST DUP3 ADD SWAP2 SWAP1 PUSH1 0x0 MSTORE PUSH1 0x20 PUSH1 0x0 KECCAK256 SWAP1 JUMPDEST DUP2 SLOAD DUP2 MSTORE SWAP1 PUSH1 0x1 ADD SWAP1 PUSH1 0x20 ADD DUP1 DUP4 GT PUSH2 0xF62 JUMPI DUP3 SWAP1 SUB PUSH1 0x1F AND DUP3 ADD SWAP2 JUMPDEST POP POP POP POP POP DUP2 MSTORE PUSH1 0x20 ADD PUSH1 0x8 PUSH1 0x0 PUSH1 0xA PUSH1 0x0 PUSH1 0x12 DUP10 DUP2 SLOAD DUP2 LT PUSH2 0xFA4 JUMPI PUSH2 0xFA4 PUSH2 0x5A49 JUMP JUMPDEST SWAP1 PUSH1 0x0 MSTORE PUSH1 0x20 PUSH1 0x0 KECCAK256 SWAP1 PUSH1 0x7 MUL ADD PUSH1 0x1 ADD SLOAD DUP2 MSTORE PUSH1 0x20 ADD SWAP1 DUP2 MSTORE PUSH1 0x20 ADD PUSH1 0x0 KECCAK256 PUSH1 0x2 ADD DUP7 DUP2 SLOAD DUP2 LT PUSH2 0xFD8 JUMPI PUSH2 0xFD8 PUSH2 0x5A49 JUMP JUMPDEST SWAP1 PUSH1 0x0 MSTORE PUSH1 0x20 PUSH1 0x0 KECCAK256 ADD SLOAD DUP2 MSTORE PUSH1 0x20 ADD SWAP1 DUP2 MSTORE PUSH1 0x20 ADD PUSH1 0x0 KECCAK256 PUSH1 0x3 ADD DUP1 SLOAD PUSH2 0xFFF SWAP1 PUSH2 0x5999 JUMP JUMPDEST DUP1 PUSH1 0x1F ADD PUSH1 0x20 DUP1 SWAP2 DIV MUL PUSH1 0x20 ADD PUSH1 0x40 MLOAD SWAP1 DUP2 ADD PUSH1 0x40 MSTORE DUP1 SWAP3 SWAP2 SWAP1 DUP2 DUP2 MSTORE PUSH1 0x20 ADD DUP3 DUP1 SLOAD PUSH2 0x102B SWAP1 PUSH2 0x5999 JUMP JUMPDEST DUP1 ISZERO PUSH2 0x1078 JUMPI DUP1 PUSH1 0x1F LT PUSH2 0x104D JUMPI PUSH2 0x100 DUP1 DUP4 SLOAD DIV MUL DUP4 MSTORE SWAP2 PUSH1 0x20 ADD SWAP2 PUSH2 0x1078 JUMP JUMPDEST DUP3 ADD SWAP2 SWAP1 PUSH1 0x0 MSTORE PUSH1 0x20 PUSH1 0x0 KECCAK256 SWAP1 JUMPDEST DUP2 SLOAD DUP2 MSTORE SWAP1 PUSH1 0x1 ADD SWAP1 PUSH1 0x20 ADD DUP1 DUP4 GT PUSH2 0x105B JUMPI DUP3 SWAP1 SUB PUSH1 0x1F AND DUP3 ADD SWAP2 JUMPDEST POP POP POP POP POP DUP2 MSTORE PUSH1 0x20 ADD PUSH1 0x8 PUSH1 0x0 PUSH1 0xA PUSH1 0x0 PUSH1 0x12 DUP10 DUP2 SLOAD DUP2 LT PUSH2 0x109D JUMPI PUSH2 0x109D PUSH2 0x5A49 JUMP JUMPDEST SWAP1 PUSH1 0x0 MSTORE PUSH1 0x20 PUSH1 0x0 KECCAK256 SWAP1 PUSH1 0x7 MUL ADD PUSH1 0x1 ADD SLOAD DUP2 MSTORE PUSH1 0x20 ADD SWAP1 DUP2 MSTORE PUSH1 0x20 ADD PUSH1 0x0 KECCAK256 PUSH1 0x2 ADD DUP7 DUP2 SLOAD DUP2 LT PUSH2 0x10D1 JUMPI PUSH2 0x10D1 PUSH2 0x5A49 JUMP JUMPDEST SWAP1 PUSH1 0x0 MSTORE PUSH1 0x20 PUSH1 0x0 KECCAK256 ADD SLOAD DUP2 MSTORE PUSH1 0x20 ADD SWAP1 DUP2 MSTORE PUSH1 0x20 ADD PUSH1 0x0 KECCAK256 PUSH1 0x6 ADD SLOAD DUP2 MSTORE PUSH1 0x20 ADD PUSH1 0x8 PUSH1 0x0 PUSH1 0xA PUSH1 0x0 PUSH1 0x12 DUP10 DUP2 SLOAD DUP2 LT PUSH2 0x110E JUMPI PUSH2 0x110E PUSH2 0x5A49 JUMP JUMPDEST SWAP1 PUSH1 0x0 MSTORE PUSH1 0x20 PUSH1 0x0 KECCAK256 SWAP1 PUSH1 0x7 MUL ADD PUSH1 0x1 ADD SLOAD DUP2 MSTORE PUSH1 0x20 ADD SWAP1 DUP2 MSTORE PUSH1 0x20 ADD PUSH1 0x0 KECCAK256 PUSH1 0x2 ADD DUP7 DUP2 SLOAD DUP2 LT PUSH2 0x1142 JUMPI PUSH2 0x1142 PUSH2 0x5A49 JUMP JUMPDEST SWAP1 PUSH1 0x0 MSTORE PUSH1 0x20 PUSH1 0x0 KECCAK256 ADD SLOAD DUP2 MSTORE PUSH1 0x20 ADD SWAP1 DUP2 MSTORE PUSH1 0x20 ADD PUSH1 0x0 KECCAK256 PUSH1 0x6 ADD SLOAD DUP2 MSTORE PUSH1 0x20 ADD PUSH1 0x3 SLOAD PUSH1 0x1 PUSH2 0x1173 SWAP2 SWAP1 PUSH2 0x5A75 JUMP JUMPDEST DUP2 MSTORE PUSH1 0x20 ADD PUSH1 0x8 PUSH1 0x0 PUSH1 0xA PUSH1 0x0 PUSH1 0x12 DUP10 DUP2 SLOAD DUP2 LT PUSH2 0x1193 JUMPI PUSH2 0x1193 PUSH2 0x5A49 JUMP JUMPDEST SWAP1 PUSH1 0x0 MSTORE PUSH1 0x20 PUSH1 0x0 KECCAK256 SWAP1 PUSH1 0x7 MUL ADD PUSH1 0x1 ADD SLOAD DUP2 MSTORE PUSH1 0x20 ADD SWAP1 DUP2 MSTORE PUSH1 0x20 ADD PUSH1 0x0 KECCAK256 PUSH1 0x2 ADD DUP7 DUP2 SLOAD DUP2 LT PUSH2 0x11C7 JUMPI PUSH2 0x11C7 PUSH2 0x5A49 JUMP JUMPDEST SWAP1 PUSH1 0x0 MSTORE PUSH1 0x20 PUSH1 0x0 KECCAK256 ADD SLOAD DUP2 MSTORE PUSH1 0x20 ADD SWAP1 DUP2 MSTORE PUSH1 0x20 ADD PUSH1 0x0 KECCAK256 PUSH1 0x7 ADD SLOAD DUP2 MSTORE PUSH1 0x20 ADD PUSH1 0x12 DUP6 DUP2 SLOAD DUP2 LT PUSH2 0x11FC JUMPI PUSH2 0x11FC PUSH2 0x5A49 JUMP JUMPDEST PUSH1 0x0 SWAP2 DUP3 MSTORE PUSH1 0x20 DUP1 DUP4 KECCAK256 PUSH1 0x1 PUSH1 0x7 SWAP1 SWAP4 MUL ADD DUP3 ADD SLOAD SWAP1 SWAP4 MSTORE DUP5 SLOAD DUP1 DUP3 ADD DUP7 SSTORE SWAP5 DUP3 MSTORE SWAP1 DUP3 SWAP1 KECCAK256 DUP4 MLOAD PUSH1 0x9 SWAP1 SWAP6 MUL ADD SWAP4 DUP5 SSTORE SWAP1 DUP3 ADD MLOAD SWAP2 SWAP3 SWAP2 SWAP1 DUP3 ADD SWAP1 PUSH2 0x1242 SWAP1 DUP3 PUSH2 0x5B42 JUMP JUMPDEST POP PUSH1 0x40 DUP3 ADD MLOAD PUSH1 0x2 DUP3 ADD SWAP1 PUSH2 0x1257 SWAP1 DUP3 PUSH2 0x5B42 JUMP JUMPDEST POP PUSH1 0x60 DUP3 ADD MLOAD PUSH1 0x3 DUP3 ADD SWAP1 PUSH2 0x126C SWAP1 DUP3 PUSH2 0x5B42 JUMP JUMPDEST POP PUSH1 0x80 DUP3 ADD MLOAD DUP2 PUSH1 0x4 ADD SSTORE PUSH1 0xA0 DUP3 ADD MLOAD DUP2 PUSH1 0x5 ADD SSTORE PUSH1 0xC0 DUP3 ADD MLOAD DUP2 PUSH1 0x6 ADD SSTORE PUSH1 0xE0 DUP3 ADD MLOAD DUP2 PUSH1 0x7 ADD SSTORE PUSH2 0x100 DUP3 ADD MLOAD DUP2 PUSH1 0x8 ADD SSTORE POP POP PUSH1 0x0 PUSH1 0xD PUSH1 0x0 PUSH1 0xA PUSH1 0x0 PUSH1 0x12 DUP8 DUP2 SLOAD DUP2 LT PUSH2 0x12BF JUMPI PUSH2 0x12BF PUSH2 0x5A49 JUMP JUMPDEST SWAP1 PUSH1 0x0 MSTORE PUSH1 0x20 PUSH1 0x0 KECCAK256 SWAP1 PUSH1 0x7 MUL ADD PUSH1 0x1 ADD SLOAD DUP2 MSTORE PUSH1 0x20 ADD SWAP1 DUP2 MSTORE PUSH1 0x20 ADD PUSH1 0x0 KECCAK256 PUSH1 0x2 ADD DUP5 DUP2 SLOAD DUP2 LT PUSH2 0x12F3 JUMPI PUSH2 0x12F3 PUSH2 0x5A49 JUMP JUMPDEST PUSH1 0x0 SWAP2 DUP3 MSTORE PUSH1 0x20 DUP1 DUP4 KECCAK256 SWAP2 SWAP1 SWAP2 ADD SLOAD DUP4 MSTORE DUP3 DUP2 ADD SWAP4 SWAP1 SWAP4 MSTORE PUSH1 0x40 SWAP2 DUP3 ADD DUP2 KECCAK256 DUP1 SLOAD PUSH1 0xFF NOT AND SWAP5 ISZERO ISZERO SWAP5 SWAP1 SWAP5 OR SWAP1 SWAP4 SSTORE PUSH1 0x4 SLOAD PUSH1 0x1 PUSH1 0x1 PUSH1 0xA0 SHL SUB AND DUP4 MSTORE PUSH1 0x9 SWAP1 SWAP2 MSTORE DUP2 KECCAK256 PUSH1 0x12 DUP1 SLOAD SWAP2 SWAP3 PUSH1 0x8 SWAP3 SWAP1 SWAP2 PUSH1 0xA SWAP2 DUP4 SWAP2 SWAP1 DUP9 SWAP1 DUP2 LT PUSH2 0x1358 JUMPI PUSH2 0x1358 PUSH2 0x5A49 JUMP JUMPDEST SWAP1 PUSH1 0x0 MSTORE PUSH1 0x20 PUSH1 0x0 KECCAK256 SWAP1 PUSH1 0x7 MUL ADD PUSH1 0x1 ADD SLOAD DUP2 MSTORE PUSH1 0x20 ADD SWAP1 DUP2 MSTORE PUSH1 0x20 ADD PUSH1 0x0 KECCAK256 PUSH1 0x2 ADD DUP5 DUP2 SLOAD DUP2 LT PUSH2 0x138C JUMPI PUSH2 0x138C PUSH2 0x5A49 JUMP JUMPDEST SWAP1 PUSH1 0x0 MSTORE PUSH1 0x20 PUSH1 0x0 KECCAK256 ADD SLOAD DUP2 MSTORE PUSH1 0x20 ADD SWAP1 DUP2 MSTORE PUSH1 0x20 ADD PUSH1 0x0 KECCAK256 PUSH1 0x0 ADD SLOAD DUP2 SLOAD DUP2 LT PUSH2 0x13B9 JUMPI PUSH2 0x13B9 PUSH2 0x5A49 JUMP JUMPDEST PUSH1 0x0 SWAP2 DUP3 MSTORE PUSH1 0x20 DUP3 KECCAK256 PUSH1 0x9 SWAP1 SWAP2 MUL ADD DUP2 DUP2 SSTORE SWAP1 PUSH2 0x13D9 PUSH1 0x1 DUP4 ADD DUP3 PUSH2 0x4E44 JUMP JUMPDEST PUSH2 0x13E7 PUSH1 0x2 DUP4 ADD PUSH1 0x0 PUSH2 0x4E44 JUMP JUMPDEST PUSH2 0x13F5 PUSH1 0x3 DUP4 ADD PUSH1 0x0 PUSH2 0x4E44 JUMP JUMPDEST POP PUSH1 0x0 PUSH1 0x4 DUP3 ADD DUP2 SWAP1 SSTORE PUSH1 0x5 DUP3 ADD DUP2 SWAP1 SSTORE PUSH1 0x6 DUP3 ADD DUP2 SWAP1 SSTORE PUSH1 0x7 DUP3 ADD DUP2 SWAP1 SSTORE PUSH1 0x8 SWAP1 SWAP2 ADD SSTORE PUSH1 0x1 ADD PUSH2 0xC77 JUMP JUMPDEST POP PUSH1 0x0 PUSH1 0x12 DUP3 DUP2 SLOAD DUP2 LT PUSH2 0x1438 JUMPI PUSH2 0x1438 PUSH2 0x5A49 JUMP JUMPDEST SWAP1 PUSH1 0x0 MSTORE PUSH1 0x20 PUSH1 0x0 KECCAK256 SWAP1 PUSH1 0x7 MUL ADD PUSH1 0x5 ADD PUSH1 0x0 PUSH2 0x100 EXP DUP2 SLOAD DUP2 PUSH1 0x1 PUSH1 0x1 PUSH1 0xA0 SHL SUB MUL NOT AND SWAP1 DUP4 PUSH1 0x1 PUSH1 0x1 PUSH1 0xA0 SHL SUB AND MUL OR SWAP1 SSTORE POP POP JUMP JUMPDEST PUSH1 0x60 PUSH1 0xE DUP1 SLOAD DUP1 PUSH1 0x20 MUL PUSH1 0x20 ADD PUSH1 0x40 MLOAD SWAP1 DUP2 ADD PUSH1 0x40 MSTORE DUP1 SWAP3 SWAP2 SWAP1 DUP2 DUP2 MSTORE PUSH1 0x20 ADD PUSH1 0x0 SWAP1 JUMPDEST DUP3 DUP3 LT ISZERO PUSH2 0x8F7 JUMPI PUSH1 0x0 DUP5 DUP2 MSTORE PUSH1 0x20 SWAP1 DUP2 SWAP1 KECCAK256 PUSH1 0x40 DUP1 MLOAD PUSH1 0x80 DUP2 ADD DUP3 MSTORE PUSH1 0x4 DUP7 MUL SWAP1 SWAP3 ADD DUP1 SLOAD DUP4 MSTORE PUSH1 0x1 DUP1 DUP3 ADD SLOAD PUSH1 0x1 PUSH1 0x1 PUSH1 0xA0 SHL SUB AND DUP5 DUP7 ADD MSTORE PUSH1 0x2 DUP3 ADD SLOAD SWAP3 DUP5 ADD SWAP3 SWAP1 SWAP3 MSTORE PUSH1 0x3 ADD SLOAD PUSH1 0x60 DUP4 ADD MSTORE SWAP1 DUP4 MSTORE SWAP1 SWAP3 ADD SWAP2 ADD PUSH2 0x1494 JUMP JUMPDEST PUSH1 0x4 SLOAD PUSH1 0x1 PUSH1 0x1 PUSH1 0xA0 SHL SUB AND CALLER EQ PUSH2 0x151B JUMPI PUSH1 0x40 MLOAD PUSH3 0x461BCD PUSH1 0xE5 SHL DUP2 MSTORE PUSH1 0x4 ADD PUSH2 0x98F SWAP1 PUSH2 0x5A8C JUMP JUMPDEST PUSH2 0x153B CALLER PUSH1 0x10 DUP1 SLOAD SWAP1 POP DUP4 PUSH1 0x40 MLOAD DUP1 PUSH1 0x20 ADD PUSH1 0x40 MSTORE DUP1 PUSH1 0x0 DUP2 MSTORE POP PUSH2 0x484F JUMP JUMPDEST PUSH1 0x40 DUP1 MLOAD PUSH2 0x120 DUP2 ADD DUP3 MSTORE CALLER PUSH1 0x0 SWAP1 DUP2 MSTORE PUSH1 0x9 PUSH1 0x20 SWAP1 DUP2 MSTORE DUP4 DUP3 KECCAK256 SLOAD DUP4 MSTORE DUP1 DUP4 ADD DUP10 DUP2 MSTORE DUP4 DUP6 ADD DUP10 SWAP1 MSTORE PUSH1 0x60 DUP5 ADD DUP9 SWAP1 MSTORE PUSH1 0x80 DUP5 ADD DUP8 SWAP1 MSTORE PUSH1 0xA0 DUP5 ADD DUP7 SWAP1 MSTORE PUSH1 0xC0 DUP5 ADD DUP7 SWAP1 MSTORE TIMESTAMP PUSH1 0xE0 DUP6 ADD MSTORE PUSH2 0x100 DUP5 ADD DUP4 SWAP1 MSTORE PUSH1 0x10 SLOAD DUP4 MSTORE PUSH1 0x8 SWAP1 SWAP2 MSTORE SWAP3 SWAP1 KECCAK256 DUP2 MLOAD DUP2 SSTORE SWAP2 MLOAD SWAP1 SWAP2 SWAP1 PUSH1 0x1 DUP3 ADD SWAP1 PUSH2 0x15B4 SWAP1 DUP3 PUSH2 0x5B42 JUMP JUMPDEST POP PUSH1 0x40 DUP3 ADD MLOAD PUSH1 0x2 DUP3 ADD SWAP1 PUSH2 0x15C9 SWAP1 DUP3 PUSH2 0x5B42 JUMP JUMPDEST POP PUSH1 0x60 DUP3 ADD MLOAD PUSH1 0x3 DUP3 ADD SWAP1 PUSH2 0x15DE SWAP1 DUP3 PUSH2 0x5B42 JUMP JUMPDEST POP PUSH1 0x80 DUP3 ADD MLOAD DUP2 PUSH1 0x4 ADD SSTORE PUSH1 0xA0 DUP3 ADD MLOAD DUP2 PUSH1 0x5 ADD SSTORE PUSH1 0xC0 DUP3 ADD MLOAD DUP2 PUSH1 0x6 ADD SSTORE PUSH1 0xE0 DUP3 ADD MLOAD DUP2 PUSH1 0x7 ADD SSTORE PUSH2 0x100 DUP3 ADD MLOAD DUP2 PUSH1 0x8 ADD SSTORE SWAP1 POP POP PUSH1 0x9 PUSH1 0x0 CALLER PUSH1 0x1 PUSH1 0x1 PUSH1 0xA0 SHL SUB AND PUSH1 0x1 PUSH1 0x1 PUSH1 0xA0 SHL SUB AND DUP2 MSTORE PUSH1 0x20 ADD SWAP1 DUP2 MSTORE PUSH1 0x20 ADD PUSH1 0x0 KECCAK256 PUSH1 0x40 MLOAD DUP1 PUSH2 0x120 ADD PUSH1 0x40 MSTORE DUP1 PUSH1 0x9 PUSH1 0x0 CALLER PUSH1 0x1 PUSH1 0x1 PUSH1 0xA0 SHL SUB AND PUSH1 0x1 PUSH1 0x1 PUSH1 0xA0 SHL SUB AND DUP2 MSTORE PUSH1 0x20 ADD SWAP1 DUP2 MSTORE PUSH1 0x20 ADD PUSH1 0x0 KECCAK256 DUP1 SLOAD SWAP1 POP DUP2 MSTORE PUSH1 0x20 ADD DUP8 DUP2 MSTORE PUSH1 0x20 ADD DUP7 DUP2 MSTORE PUSH1 0x20 ADD DUP6 DUP2 MSTORE PUSH1 0x20 ADD DUP5 DUP2 MSTORE PUSH1 0x20 ADD DUP4 DUP2 MSTORE PUSH1 0x20 ADD DUP4 DUP2 MSTORE PUSH1 0x20 ADD TIMESTAMP DUP2 MSTORE PUSH1 0x20 ADD PUSH1 0x0 DUP2 MSTORE POP SWAP1 DUP1 PUSH1 0x1 DUP2 SLOAD ADD DUP1 DUP3 SSTORE DUP1 SWAP2 POP POP PUSH1 0x1 SWAP1 SUB SWAP1 PUSH1 0x0 MSTORE PUSH1 0x20 PUSH1 0x0 KECCAK256 SWAP1 PUSH1 0x9 MUL ADD PUSH1 0x0 SWAP1 SWAP2 SWAP1 SWAP2 SWAP1 SWAP2 POP PUSH1 0x0 DUP3 ADD MLOAD DUP2 PUSH1 0x0 ADD SSTORE PUSH1 0x20 DUP3 ADD MLOAD DUP2 PUSH1 0x1 ADD SWAP1 DUP2 PUSH2 0x16EB SWAP2 SWAP1 PUSH2 0x5B42 JUMP JUMPDEST POP PUSH1 0x40 DUP3 ADD MLOAD PUSH1 0x2 DUP3 ADD SWAP1 PUSH2 0x1700 SWAP1 DUP3 PUSH2 0x5B42 JUMP JUMPDEST POP PUSH1 0x60 DUP3 ADD MLOAD PUSH1 0x3 DUP3 ADD SWAP1 PUSH2 0x1715 SWAP1 DUP3 PUSH2 0x5B42 JUMP JUMPDEST POP PUSH1 0x80 DUP3 DUP2 ADD MLOAD PUSH1 0x4 DUP4 ADD SSTORE PUSH1 0xA0 DUP1 DUP5 ADD MLOAD PUSH1 0x5 DUP5 ADD SSTORE PUSH1 0xC0 DUP1 DUP6 ADD MLOAD PUSH1 0x6 DUP6 ADD SSTORE PUSH1 0xE0 DUP1 DUP7 ADD MLOAD PUSH1 0x7 DUP7 ADD SSTORE PUSH2 0x100 SWAP6 DUP7 ADD MLOAD PUSH1 0x8 SWAP1 SWAP6 ADD SWAP5 SWAP1 SWAP5 SSTORE PUSH1 0x40 DUP1 MLOAD PUSH2 0x120 DUP2 ADD DUP3 MSTORE CALLER PUSH1 0x0 SWAP1 DUP2 MSTORE PUSH1 0x9 PUSH1 0x20 DUP2 DUP2 MSTORE DUP5 DUP4 KECCAK256 SLOAD DUP5 MSTORE DUP4 ADD DUP15 DUP2 MSTORE SWAP4 DUP4 ADD DUP14 SWAP1 MSTORE PUSH1 0x60 DUP4 ADD DUP13 SWAP1 MSTORE SWAP6 DUP3 ADD DUP11 SWAP1 MSTORE SWAP4 DUP2 ADD DUP9 SWAP1 MSTORE SWAP2 DUP3 ADD DUP8 SWAP1 MSTORE TIMESTAMP SWAP5 DUP3 ADD SWAP5 SWAP1 SWAP5 MSTORE SWAP4 DUP5 ADD DUP2 SWAP1 MSTORE PUSH1 0x10 DUP1 SLOAD PUSH1 0x1 DUP2 ADD DUP3 SSTORE SWAP2 MSTORE DUP4 MLOAD SWAP2 MUL PUSH32 0x1B6847DC741A1B0CD08D278845F9D819D87B734759AFB55FE2DE5CB82A9AE672 DUP2 ADD SWAP2 DUP3 SSTORE SWAP2 MLOAD SWAP1 SWAP2 PUSH32 0x1B6847DC741A1B0CD08D278845F9D819D87B734759AFB55FE2DE5CB82A9AE673 ADD SWAP1 PUSH2 0x1809 SWAP1 DUP3 PUSH2 0x5B42 JUMP JUMPDEST POP PUSH1 0x40 DUP3 ADD MLOAD PUSH1 0x2 DUP3 ADD SWAP1 PUSH2 0x181E SWAP1 DUP3 PUSH2 0x5B42 JUMP JUMPDEST POP PUSH1 0x60 DUP3 ADD MLOAD PUSH1 0x3 DUP3 ADD SWAP1 PUSH2 0x1833 SWAP1 DUP3 PUSH2 0x5B42 JUMP JUMPDEST POP PUSH1 0x80 DUP3 ADD MLOAD DUP2 PUSH1 0x4 ADD SSTORE PUSH1 0xA0 DUP3 ADD MLOAD DUP2 PUSH1 0x5 ADD SSTORE PUSH1 0xC0 DUP3 ADD MLOAD DUP2 PUSH1 0x6 ADD SSTORE PUSH1 0xE0 DUP3 ADD MLOAD DUP2 PUSH1 0x7 ADD SSTORE PUSH2 0x100 DUP3 ADD MLOAD DUP2 PUSH1 0x8 ADD SSTORE POP POP POP POP POP POP POP JUMP JUMPDEST PUSH2 0x18B9 PUSH1 0x40 MLOAD DUP1 PUSH1 0xE0 ADD PUSH1 0x40 MSTORE DUP1 PUSH1 0x0 DUP2 MSTORE PUSH1 0x20 ADD PUSH1 0x0 DUP2 MSTORE PUSH1 0x20 ADD PUSH1 0x0 DUP2 MSTORE PUSH1 0x20 ADD PUSH1 0x0 DUP2 MSTORE PUSH1 0x20 ADD PUSH1 0x0 DUP2 MSTORE PUSH1 0x20 ADD PUSH1 0x0 PUSH1 0x1 PUSH1 0x1 PUSH1 0xA0 SHL SUB AND DUP2 MSTORE PUSH1 0x20 ADD PUSH1 0x0 DUP2 MSTORE POP SWAP1 JUMP JUMPDEST PUSH1 0x12 DUP3 DUP2 SLOAD DUP2 LT PUSH2 0x18CC JUMPI PUSH2 0x18CC PUSH2 0x5A49 JUMP JUMPDEST PUSH1 0x0 SWAP2 DUP3 MSTORE PUSH1 0x20 SWAP2 DUP3 SWAP1 KECCAK256 PUSH1 0x40 DUP1 MLOAD PUSH1 0xE0 DUP2 ADD DUP3 MSTORE PUSH1 0x7 SWAP1 SWAP4 MUL SWAP1 SWAP2 ADD DUP1 SLOAD DUP4 MSTORE PUSH1 0x1 DUP2 ADD SLOAD SWAP4 DUP4 ADD SWAP4 SWAP1 SWAP4 MSTORE PUSH1 0x2 DUP4 ADD SLOAD SWAP1 DUP3 ADD MSTORE PUSH1 0x3 DUP3 ADD SLOAD PUSH1 0x60 DUP3 ADD MSTORE PUSH1 0x4 DUP3 ADD SLOAD PUSH1 0x80 DUP3 ADD MSTORE PUSH1 0x5 DUP3 ADD SLOAD PUSH1 0x1 PUSH1 0x1 PUSH1 0xA0 SHL SUB AND PUSH1 0xA0 DUP3 ADD MSTORE PUSH1 0x6 SWAP1 SWAP2 ADD SLOAD PUSH1 0xC0 DUP3 ADD MSTORE SWAP3 SWAP2 POP POP JUMP JUMPDEST PUSH1 0x12 DUP3 DUP2 SLOAD DUP2 LT PUSH2 0x194D JUMPI PUSH2 0x194D PUSH2 0x5A49 JUMP JUMPDEST SWAP1 PUSH1 0x0 MSTORE PUSH1 0x20 PUSH1 0x0 KECCAK256 SWAP1 PUSH1 0x7 MUL ADD PUSH1 0x4 ADD SLOAD DUP1 PUSH1 0x0 SUB PUSH2 0x19AF JUMPI PUSH1 0x40 MLOAD PUSH3 0x461BCD PUSH1 0xE5 SHL DUP2 MSTORE PUSH1 0x20 PUSH1 0x4 DUP3 ADD MSTORE PUSH1 0x1F PUSH1 0x24 DUP3 ADD MSTORE PUSH32 0xD090D183D0BAD186D0B8D0BED0BD20D0B7D0B0D0B2D0B5D180D188D191D0BD00 PUSH1 0x44 DUP3 ADD MSTORE PUSH1 0x64 ADD PUSH2 0x98F JUMP JUMPDEST PUSH1 0x3 SLOAD PUSH2 0x19BC SWAP1 DUP4 PUSH2 0x5A75 JUMP JUMPDEST SWAP2 POP PUSH1 0x3 SLOAD PUSH1 0xA PUSH2 0x19CD SWAP2 SWAP1 PUSH2 0x5A75 JUMP JUMPDEST DUP3 LT ISZERO PUSH2 0x19EC JUMPI PUSH1 0x40 MLOAD PUSH3 0x461BCD PUSH1 0xE5 SHL DUP2 MSTORE PUSH1 0x4 ADD PUSH2 0x98F SWAP1 PUSH2 0x5C02 JUMP JUMPDEST CALLER PUSH1 0x1 PUSH1 0x1 PUSH1 0xA0 SHL SUB AND PUSH1 0x12 DUP5 DUP2 SLOAD DUP2 LT PUSH2 0x1A09 JUMPI PUSH2 0x1A09 PUSH2 0x5A49 JUMP JUMPDEST PUSH1 0x0 SWAP2 DUP3 MSTORE PUSH1 0x20 SWAP1 SWAP2 KECCAK256 PUSH1 0x5 PUSH1 0x7 SWAP1 SWAP3 MUL ADD ADD SLOAD PUSH1 0x1 PUSH1 0x1 PUSH1 0xA0 SHL SUB AND SUB PUSH2 0x1A6C JUMPI PUSH1 0x40 MLOAD PUSH3 0x461BCD PUSH1 0xE5 SHL DUP2 MSTORE PUSH1 0x20 PUSH1 0x4 DUP3 ADD MSTORE PUSH1 0x16 PUSH1 0x24 DUP3 ADD MSTORE PUSH22 0x1A125A31641A307A16DA16A41A177A171A169A16BA3 PUSH1 0x57 SHL PUSH1 0x44 DUP3 ADD MSTORE PUSH1 0x64 ADD PUSH2 0x98F JUMP JUMPDEST PUSH1 0x0 JUMPDEST PUSH1 0x0 DUP5 DUP2 MSTORE PUSH1 0xB PUSH1 0x20 MSTORE PUSH1 0x40 SWAP1 KECCAK256 SLOAD DUP2 LT ISZERO PUSH2 0x1D24 JUMPI PUSH1 0x0 DUP5 DUP2 MSTORE PUSH1 0xB PUSH1 0x20 MSTORE PUSH1 0x40 SWAP1 KECCAK256 DUP1 SLOAD CALLER SWAP2 SWAP1 DUP4 SWAP1 DUP2 LT PUSH2 0x1AA8 JUMPI PUSH2 0x1AA8 PUSH2 0x5A49 JUMP JUMPDEST PUSH1 0x0 SWAP2 DUP3 MSTORE PUSH1 0x20 SWAP1 SWAP2 KECCAK256 PUSH1 0x1 PUSH1 0x2 SWAP1 SWAP3 MUL ADD ADD SLOAD PUSH1 0x1 PUSH1 0x1 PUSH1 0xA0 SHL SUB AND SUB PUSH2 0x1D1C JUMPI PUSH1 0x0 DUP5 DUP2 MSTORE PUSH1 0xB PUSH1 0x20 MSTORE PUSH1 0x40 SWAP1 KECCAK256 DUP1 SLOAD DUP5 SWAP2 SWAP1 DUP4 SWAP1 DUP2 LT PUSH2 0x1AED JUMPI PUSH2 0x1AED PUSH2 0x5A49 JUMP JUMPDEST SWAP1 PUSH1 0x0 MSTORE PUSH1 0x20 PUSH1 0x0 KECCAK256 SWAP1 PUSH1 0x2 MUL ADD PUSH1 0x0 ADD PUSH1 0x0 DUP3 DUP3 SLOAD PUSH2 0x1B0D SWAP2 SWAP1 PUSH2 0x5C50 JUMP JUMPDEST SWAP1 SWAP2 SSTORE POP POP PUSH1 0x5 SLOAD PUSH1 0x4 DUP1 SLOAD PUSH1 0x40 MLOAD PUSH4 0x7AA9BF6F PUSH1 0xE1 SHL DUP2 MSTORE CALLER SWAP3 DUP2 ADD SWAP3 SWAP1 SWAP3 MSTORE PUSH1 0x1 PUSH1 0x1 PUSH1 0xA0 SHL SUB SWAP1 DUP2 AND PUSH1 0x24 DUP4 ADD MSTORE PUSH1 0x44 DUP3 ADD DUP7 SWAP1 MSTORE SWAP1 SWAP2 AND SWAP1 PUSH4 0xF5537EDE SWAP1 PUSH1 0x64 ADD PUSH1 0x0 PUSH1 0x40 MLOAD DUP1 DUP4 SUB DUP2 PUSH1 0x0 DUP8 DUP1 EXTCODESIZE ISZERO DUP1 ISZERO PUSH2 0x1B6C JUMPI PUSH1 0x0 DUP1 REVERT JUMPDEST POP GAS CALL ISZERO DUP1 ISZERO PUSH2 0x1B80 JUMPI RETURNDATASIZE PUSH1 0x0 DUP1 RETURNDATACOPY RETURNDATASIZE PUSH1 0x0 REVERT JUMPDEST POP POP POP POP PUSH1 0x12 DUP5 DUP2 SLOAD DUP2 LT PUSH2 0x1B97 JUMPI PUSH2 0x1B97 PUSH2 0x5A49 JUMP JUMPDEST SWAP1 PUSH1 0x0 MSTORE PUSH1 0x20 PUSH1 0x0 KECCAK256 SWAP1 PUSH1 0x7 MUL ADD PUSH1 0x6 ADD SLOAD PUSH1 0xB PUSH1 0x0 DUP7 DUP2 MSTORE PUSH1 0x20 ADD SWAP1 DUP2 MSTORE PUSH1 0x20 ADD PUSH1 0x0 KECCAK256 DUP3 DUP2 SLOAD DUP2 LT PUSH2 0x1BCD JUMPI PUSH2 0x1BCD PUSH2 0x5A49 JUMP JUMPDEST SWAP1 PUSH1 0x0 MSTORE PUSH1 0x20 PUSH1 0x0 KECCAK256 SWAP1 PUSH1 0x2 MUL ADD PUSH1 0x0 ADD SLOAD GT ISZERO PUSH2 0x1C89 JUMPI PUSH1 0x0 DUP5 DUP2 MSTORE PUSH1 0xB PUSH1 0x20 MSTORE PUSH1 0x40 SWAP1 KECCAK256 DUP1 SLOAD DUP3 SWAP1 DUP2 LT PUSH2 0x1C05 JUMPI PUSH2 0x1C05 PUSH2 0x5A49 JUMP JUMPDEST SWAP1 PUSH1 0x0 MSTORE PUSH1 0x20 PUSH1 0x0 KECCAK256 SWAP1 PUSH1 0x2 MUL ADD PUSH1 0x0 ADD SLOAD PUSH1 0x12 DUP6 DUP2 SLOAD DUP2 LT PUSH2 0x1C2A JUMPI PUSH2 0x1C2A PUSH2 0x5A49 JUMP JUMPDEST SWAP1 PUSH1 0x0 MSTORE PUSH1 0x20 PUSH1 0x0 KECCAK256 SWAP1 PUSH1 0x7 MUL ADD PUSH1 0x6 ADD DUP2 SWAP1 SSTORE POP CALLER PUSH1 0x12 DUP6 DUP2 SLOAD DUP2 LT PUSH2 0x1C53 JUMPI PUSH2 0x1C53 PUSH2 0x5A49 JUMP JUMPDEST SWAP1 PUSH1 0x0 MSTORE PUSH1 0x20 PUSH1 0x0 KECCAK256 SWAP1 PUSH1 0x7 MUL ADD PUSH1 0x5 ADD PUSH1 0x0 PUSH2 0x100 EXP DUP2 SLOAD DUP2 PUSH1 0x1 PUSH1 0x1 PUSH1 0xA0 SHL SUB MUL NOT AND SWAP1 DUP4 PUSH1 0x1 PUSH1 0x1 PUSH1 0xA0 SHL SUB AND MUL OR SWAP1 SSTORE POP JUMPDEST PUSH1 0x12 DUP5 DUP2 SLOAD DUP2 LT PUSH2 0x1C9C JUMPI PUSH2 0x1C9C PUSH2 0x5A49 JUMP JUMPDEST SWAP1 PUSH1 0x0 MSTORE PUSH1 0x20 PUSH1 0x0 KECCAK256 SWAP1 PUSH1 0x7 MUL ADD PUSH1 0x4 ADD SLOAD PUSH1 0xB PUSH1 0x0 DUP7 DUP2 MSTORE PUSH1 0x20 ADD SWAP1 DUP2 MSTORE PUSH1 0x20 ADD PUSH1 0x0 KECCAK256 DUP3 DUP2 SLOAD DUP2 LT PUSH2 0x1CD2 JUMPI PUSH2 0x1CD2 PUSH2 0x5A49 JUMP JUMPDEST SWAP1 PUSH1 0x0 MSTORE PUSH1 0x20 PUSH1 0x0 KECCAK256 SWAP1 PUSH1 0x2 MUL ADD PUSH1 0x0 ADD SLOAD LT PUSH2 0x1D1C JUMPI PUSH1 0x0 PUSH1 0x12 DUP6 DUP2 SLOAD DUP2 LT PUSH2 0x1CFE JUMPI PUSH2 0x1CFE PUSH2 0x5A49 JUMP JUMPDEST SWAP1 PUSH1 0x0 MSTORE PUSH1 0x20 PUSH1 0x0 KECCAK256 SWAP1 PUSH1 0x7 MUL ADD PUSH1 0x4 ADD DUP2 SWAP1 SSTORE POP PUSH2 0x1D1C DUP5 PUSH2 0x3E97 JUMP JUMPDEST PUSH1 0x1 ADD PUSH2 0x1A6F JUMP JUMPDEST POP POP POP POP JUMP JUMPDEST CALLER PUSH1 0x1 PUSH1 0x1 PUSH1 0xA0 SHL SUB DUP7 AND DUP2 EQ DUP1 ISZERO SWAP1 PUSH2 0x1D4B JUMPI POP PUSH2 0x1D49 DUP7 DUP3 PUSH2 0x3866 JUMP JUMPDEST ISZERO JUMPDEST ISZERO PUSH2 0x1D7C JUMPI PUSH1 0x40 MLOAD PUSH4 0x711BEC91 PUSH1 0xE1 SHL DUP2 MSTORE PUSH1 0x1 PUSH1 0x1 PUSH1 0xA0 SHL SUB DUP1 DUP4 AND PUSH1 0x4 DUP4 ADD MSTORE DUP8 AND PUSH1 0x24 DUP3 ADD MSTORE PUSH1 0x44 ADD PUSH2 0x98F JUMP JUMPDEST PUSH2 0x1D89 DUP7 DUP7 DUP7 DUP7 DUP7 PUSH2 0x47EF JUMP JUMPDEST POP POP POP POP POP POP JUMP JUMPDEST CALLER PUSH1 0x6 PUSH2 0x1DA1 DUP2 PUSH1 0x2 DUP6 DUP8 PUSH2 0x5C63 JUMP JUMPDEST PUSH1 0x40 MLOAD PUSH1 0x20 ADD PUSH2 0x1DB2 SWAP3 SWAP2 SWAP1 PUSH2 0x5C8D JUMP JUMPDEST PUSH1 0x40 DUP1 MLOAD PUSH1 0x1F NOT DUP2 DUP5 SUB ADD DUP2 MSTORE SWAP1 DUP3 SWAP1 MSTORE PUSH2 0x1DCC SWAP2 PUSH2 0x5CBA JUMP JUMPDEST SWAP1 DUP2 MSTORE PUSH1 0x40 MLOAD SWAP1 DUP2 SWAP1 SUB PUSH1 0x20 ADD SWAP1 KECCAK256 PUSH1 0x1 ADD SLOAD PUSH1 0x1 PUSH1 0x1 PUSH1 0xA0 SHL SUB AND SUB PUSH2 0x1E47 JUMPI PUSH1 0x40 MLOAD PUSH3 0x461BCD PUSH1 0xE5 SHL DUP2 MSTORE PUSH1 0x20 PUSH1 0x4 DUP3 ADD MSTORE PUSH1 0x29 PUSH1 0x24 DUP3 ADD MSTORE PUSH32 0xD092D18B20D183D0B6D0B520D181D0BED0B7D0B4D0B0D0BBD0B820D180D0B5D1 PUSH1 0x44 DUP3 ADD MSTORE PUSH9 0x84D0B5D180D0B0D0BB PUSH1 0xB8 SHL PUSH1 0x64 DUP3 ADD MSTORE PUSH1 0x84 ADD PUSH2 0x98F JUMP JUMPDEST PUSH1 0x60 PUSH1 0x0 PUSH2 0x1E59 PUSH1 0x6 PUSH1 0x2 DUP6 DUP8 PUSH2 0x5C63 JUMP JUMPDEST PUSH1 0x40 MLOAD PUSH1 0x20 ADD PUSH2 0x1E6A SWAP3 SWAP2 SWAP1 PUSH2 0x5C8D JUMP JUMPDEST PUSH1 0x40 DUP1 MLOAD PUSH1 0x1F NOT DUP2 DUP5 SUB ADD DUP2 MSTORE PUSH1 0x80 DUP4 ADD DUP3 MSTORE DUP1 DUP4 MSTORE CALLER PUSH1 0x20 DUP5 ADD MSTORE PUSH1 0x0 DUP4 DUP4 ADD MSTORE PUSH1 0x60 DUP4 ADD DUP6 SWAP1 MSTORE SWAP1 MLOAD SWAP1 SWAP3 POP PUSH1 0x6 SWAP1 PUSH2 0x1EA6 SWAP1 DUP5 SWAP1 PUSH2 0x5CBA JUMP JUMPDEST SWAP1 DUP2 MSTORE PUSH1 0x40 MLOAD SWAP1 DUP2 SWAP1 SUB PUSH1 0x20 ADD SWAP1 KECCAK256 DUP2 MLOAD DUP2 SWAP1 PUSH2 0x1EC3 SWAP1 DUP3 PUSH2 0x5B42 JUMP JUMPDEST POP PUSH1 0x20 DUP3 DUP2 ADD MLOAD PUSH1 0x1 DUP4 ADD DUP1 SLOAD PUSH1 0x1 PUSH1 0x1 PUSH1 0xA0 SHL SUB NOT AND PUSH1 0x1 PUSH1 0x1 PUSH1 0xA0 SHL SUB SWAP1 SWAP3 AND SWAP2 SWAP1 SWAP2 OR SWAP1 SSTORE PUSH1 0x40 DUP4 ADD MLOAD PUSH1 0x2 DUP4 ADD SSTORE PUSH1 0x60 DUP4 ADD MLOAD DUP1 MLOAD PUSH2 0x1F0C SWAP3 PUSH1 0x3 DUP6 ADD SWAP3 ADD SWAP1 PUSH2 0x4E7E JUMP JUMPDEST POP POP PUSH1 0x40 DUP1 MLOAD PUSH1 0x80 DUP2 ADD DUP3 MSTORE DUP4 DUP2 MSTORE CALLER PUSH1 0x20 DUP3 ADD MSTORE PUSH1 0x0 SWAP2 DUP2 ADD DUP3 SWAP1 MSTORE PUSH1 0x60 DUP2 ADD DUP6 SWAP1 MSTORE PUSH1 0xF DUP1 SLOAD PUSH1 0x1 DUP2 ADD DUP3 SSTORE SWAP3 MSTORE DUP1 MLOAD SWAP1 SWAP3 POP PUSH1 0x4 SWAP1 SWAP2 MUL PUSH32 0x8D1108E10BCB7C27DDDFC02ED9D693A074039D026CF4EA4240B40F7D581AC802 ADD SWAP1 DUP2 SWAP1 PUSH2 0x1F75 SWAP1 DUP3 PUSH2 0x5B42 JUMP JUMPDEST POP PUSH1 0x20 DUP3 DUP2 ADD MLOAD PUSH1 0x1 DUP4 ADD DUP1 SLOAD PUSH1 0x1 PUSH1 0x1 PUSH1 0xA0 SHL SUB NOT AND PUSH1 0x1 PUSH1 0x1 PUSH1 0xA0 SHL SUB SWAP1 SWAP3 AND SWAP2 SWAP1 SWAP2 OR SWAP1 SSTORE PUSH1 0x40 DUP4 ADD MLOAD PUSH1 0x2 DUP4 ADD SSTORE PUSH1 0x60 DUP4 ADD MLOAD DUP1 MLOAD PUSH2 0x1FBE SWAP3 PUSH1 0x3 DUP6 ADD SWAP3 ADD SWAP1 PUSH2 0x4E7E JUMP JUMPDEST POP POP CALLER PUSH1 0x0 SWAP1 DUP2 MSTORE PUSH1 0xC PUSH1 0x20 MSTORE PUSH1 0x40 SWAP1 KECCAK256 SWAP1 POP PUSH2 0x1FDB DUP3 DUP3 PUSH2 0x5B42 JUMP JUMPDEST POP POP POP POP POP JUMP JUMPDEST PUSH1 0x60 DUP2 MLOAD DUP4 MLOAD EQ PUSH2 0x2013 JUMPI DUP2 MLOAD DUP4 MLOAD PUSH1 0x40 MLOAD PUSH4 0x5B059991 PUSH1 0xE0 SHL DUP2 MSTORE PUSH1 0x4 DUP2 ADD SWAP3 SWAP1 SWAP3 MSTORE PUSH1 0x24 DUP3 ADD MSTORE PUSH1 0x44 ADD PUSH2 0x98F JUMP JUMPDEST PUSH1 0x0 DUP4 MLOAD PUSH8 0xFFFFFFFFFFFFFFFF DUP2 GT ISZERO PUSH2 0x202F JUMPI PUSH2 0x202F PUSH2 0x5293 JUMP JUMPDEST PUSH1 0x40 MLOAD SWAP1 DUP1 DUP3 MSTORE DUP1 PUSH1 0x20 MUL PUSH1 0x20 ADD DUP3 ADD PUSH1 0x40 MSTORE DUP1 ISZERO PUSH2 0x2058 JUMPI DUP2 PUSH1 0x20 ADD PUSH1 0x20 DUP3 MUL DUP1 CALLDATASIZE DUP4 CALLDATACOPY ADD SWAP1 POP JUMPDEST POP SWAP1 POP PUSH1 0x0 JUMPDEST DUP5 MLOAD DUP2 LT ISZERO PUSH2 0x20A7 JUMPI PUSH1 0x20 DUP1 DUP3 MUL DUP7 ADD ADD MLOAD PUSH2 0x2082 SWAP1 PUSH1 0x20 DUP1 DUP5 MUL DUP8 ADD ADD MLOAD PUSH2 0x4AC JUMP JUMPDEST DUP3 DUP3 DUP2 MLOAD DUP2 LT PUSH2 0x2094 JUMPI PUSH2 0x2094 PUSH2 0x5A49 JUMP JUMPDEST PUSH1 0x20 SWAP1 DUP2 MUL SWAP2 SWAP1 SWAP2 ADD ADD MSTORE PUSH1 0x1 ADD PUSH2 0x205E JUMP JUMPDEST POP SWAP4 SWAP3 POP POP POP JUMP JUMPDEST PUSH2 0x20CB CALLER DUP4 DUP6 DUP5 PUSH1 0x40 MLOAD DUP1 PUSH1 0x20 ADD PUSH1 0x40 MSTORE DUP1 PUSH1 0x0 DUP2 MSTORE POP PUSH2 0x3A47 JUMP JUMPDEST CALLER PUSH1 0x0 SWAP1 DUP2 MSTORE PUSH1 0x9 PUSH1 0x20 MSTORE PUSH1 0x40 SWAP1 KECCAK256 DUP1 SLOAD DUP3 SWAP2 SWAP1 DUP6 SWAP1 DUP2 LT PUSH2 0x20EF JUMPI PUSH2 0x20EF PUSH2 0x5A49 JUMP JUMPDEST SWAP1 PUSH1 0x0 MSTORE PUSH1 0x20 PUSH1 0x0 KECCAK256 SWAP1 PUSH1 0x9 MUL ADD PUSH1 0x5 ADD SLOAD PUSH2 0x210B SWAP2 SWAP1 PUSH2 0x5CD6 JUMP JUMPDEST CALLER PUSH1 0x0 SWAP1 DUP2 MSTORE PUSH1 0x9 PUSH1 0x20 MSTORE PUSH1 0x40 SWAP1 KECCAK256 DUP1 SLOAD DUP6 SWAP1 DUP2 LT PUSH2 0x212C JUMPI PUSH2 0x212C PUSH2 0x5A49 JUMP JUMPDEST PUSH1 0x0 SWAP2 DUP3 MSTORE PUSH1 0x20 DUP1 DUP4 KECCAK256 PUSH1 0x9 SWAP3 DUP4 MUL ADD PUSH1 0x5 ADD SWAP4 SWAP1 SWAP4 SSTORE PUSH1 0x1 PUSH1 0x1 PUSH1 0xA0 SHL SUB DUP6 AND DUP3 MSTORE DUP3 MSTORE PUSH1 0x40 DUP1 DUP3 KECCAK256 DUP2 MLOAD PUSH2 0x120 DUP2 ADD DUP4 MSTORE DUP8 DUP2 MSTORE DUP8 DUP5 MSTORE PUSH1 0x8 DUP6 MSTORE SWAP2 SWAP1 SWAP3 KECCAK256 PUSH1 0x1 ADD DUP1 SLOAD SWAP3 SWAP4 SWAP2 SWAP3 SWAP2 DUP4 ADD SWAP2 PUSH2 0x2183 SWAP1 PUSH2 0x5999 JUMP JUMPDEST DUP1 PUSH1 0x1F ADD PUSH1 0x20 DUP1 SWAP2 DIV MUL PUSH1 0x20 ADD PUSH1 0x40 MLOAD SWAP1 DUP2 ADD PUSH1 0x40 MSTORE DUP1 SWAP3 SWAP2 SWAP1 DUP2 DUP2 MSTORE PUSH1 0x20 ADD DUP3 DUP1 SLOAD PUSH2 0x21AF SWAP1 PUSH2 0x5999 JUMP JUMPDEST DUP1 ISZERO PUSH2 0x21FC JUMPI DUP1 PUSH1 0x1F LT PUSH2 0x21D1 JUMPI PUSH2 0x100 DUP1 DUP4 SLOAD DIV MUL DUP4 MSTORE SWAP2 PUSH1 0x20 ADD SWAP2 PUSH2 0x21FC JUMP JUMPDEST DUP3 ADD SWAP2 SWAP1 PUSH1 0x0 MSTORE PUSH1 0x20 PUSH1 0x0 KECCAK256 SWAP1 JUMPDEST DUP2 SLOAD DUP2 MSTORE SWAP1 PUSH1 0x1 ADD SWAP1 PUSH1 0x20 ADD DUP1 DUP4 GT PUSH2 0x21DF JUMPI DUP3 SWAP1 SUB PUSH1 0x1F AND DUP3 ADD SWAP2 JUMPDEST POP POP POP POP POP DUP2 MSTORE PUSH1 0x20 ADD PUSH1 0x8 PUSH1 0x0 DUP8 DUP2 MSTORE PUSH1 0x20 ADD SWAP1 DUP2 MSTORE PUSH1 0x20 ADD PUSH1 0x0 KECCAK256 PUSH1 0x2 ADD DUP1 SLOAD PUSH2 0x2227 SWAP1 PUSH2 0x5999 JUMP JUMPDEST DUP1 PUSH1 0x1F ADD PUSH1 0x20 DUP1 SWAP2 DIV MUL PUSH1 0x20 ADD PUSH1 0x40 MLOAD SWAP1 DUP2 ADD PUSH1 0x40 MSTORE DUP1 SWAP3 SWAP2 SWAP1 DUP2 DUP2 MSTORE PUSH1 0x20 ADD DUP3 DUP1 SLOAD PUSH2 0x2253 SWAP1 PUSH2 0x5999 JUMP JUMPDEST DUP1 ISZERO PUSH2 0x22A0 JUMPI DUP1 PUSH1 0x1F LT PUSH2 0x2275 JUMPI PUSH2 0x100 DUP1 DUP4 SLOAD DIV MUL DUP4 MSTORE SWAP2 PUSH1 0x20 ADD SWAP2 PUSH2 0x22A0 JUMP JUMPDEST DUP3 ADD SWAP2 SWAP1 PUSH1 0x0 MSTORE PUSH1 0x20 PUSH1 0x0 KECCAK256 SWAP1 JUMPDEST DUP2 SLOAD DUP2 MSTORE SWAP1 PUSH1 0x1 ADD SWAP1 PUSH1 0x20 ADD DUP1 DUP4 GT PUSH2 0x2283 JUMPI DUP3 SWAP1 SUB PUSH1 0x1F AND DUP3 ADD SWAP2 JUMPDEST POP POP POP POP POP DUP2 MSTORE PUSH1 0x20 ADD PUSH1 0x8 PUSH1 0x0 DUP8 DUP2 MSTORE PUSH1 0x20 ADD SWAP1 DUP2 MSTORE PUSH1 0x20 ADD PUSH1 0x0 KECCAK256 PUSH1 0x3 ADD DUP1 SLOAD PUSH2 0x22CB SWAP1 PUSH2 0x5999 JUMP JUMPDEST DUP1 PUSH1 0x1F ADD PUSH1 0x20 DUP1 SWAP2 DIV MUL PUSH1 0x20 ADD PUSH1 0x40 MLOAD SWAP1 DUP2 ADD PUSH1 0x40 MSTORE DUP1 SWAP3 SWAP2 SWAP1 DUP2 DUP2 MSTORE PUSH1 0x20 ADD DUP3 DUP1 SLOAD PUSH2 0x22F7 SWAP1 PUSH2 0x5999 JUMP JUMPDEST DUP1 ISZERO PUSH2 0x2344 JUMPI DUP1 PUSH1 0x1F LT PUSH2 0x2319 JUMPI PUSH2 0x100 DUP1 DUP4 SLOAD DIV MUL DUP4 MSTORE SWAP2 PUSH1 0x20 ADD SWAP2 PUSH2 0x2344 JUMP JUMPDEST DUP3 ADD SWAP2 SWAP1 PUSH1 0x0 MSTORE PUSH1 0x20 PUSH1 0x0 KECCAK256 SWAP1 JUMPDEST DUP2 SLOAD DUP2 MSTORE SWAP1 PUSH1 0x1 ADD SWAP1 PUSH1 0x20 ADD DUP1 DUP4 GT PUSH2 0x2327 JUMPI DUP3 SWAP1 SUB PUSH1 0x1F AND DUP3 ADD SWAP2 JUMPDEST POP POP POP SWAP2 DUP4 MSTORE POP POP PUSH1 0x20 DUP1 DUP3 ADD DUP6 SWAP1 MSTORE PUSH1 0x0 DUP8 DUP2 MSTORE PUSH1 0x8 DUP1 DUP4 MSTORE PUSH1 0x40 DUP1 DUP4 KECCAK256 PUSH1 0x6 DUP2 ADD SLOAD SWAP2 DUP7 ADD SWAP2 SWAP1 SWAP2 MSTORE PUSH1 0x4 DUP2 ADD SLOAD PUSH1 0x60 DUP7 ADD MSTORE PUSH1 0x7 DUP2 ADD SLOAD PUSH1 0x80 DUP7 ADD MSTORE DUP2 DUP5 MSTORE ADD SLOAD PUSH1 0xA0 SWAP1 SWAP4 ADD SWAP3 SWAP1 SWAP3 MSTORE DUP4 SLOAD PUSH1 0x1 DUP2 DUP2 ADD DUP7 SSTORE SWAP5 DUP4 MSTORE SWAP2 DUP2 SWAP1 KECCAK256 DUP4 MLOAD PUSH1 0x9 SWAP1 SWAP4 MUL ADD SWAP2 DUP3 SSTORE DUP3 ADD MLOAD SWAP2 SWAP3 SWAP1 SWAP2 SWAP1 DUP3 ADD SWAP1 PUSH2 0x23C1 SWAP1 DUP3 PUSH2 0x5B42 JUMP JUMPDEST POP PUSH1 0x40 DUP3 ADD MLOAD PUSH1 0x2 DUP3 ADD SWAP1 PUSH2 0x23D6 SWAP1 DUP3 PUSH2 0x5B42 JUMP JUMPDEST POP PUSH1 0x60 DUP3 ADD MLOAD PUSH1 0x3 DUP3 ADD SWAP1 PUSH2 0x23EB SWAP1 DUP3 PUSH2 0x5B42 JUMP JUMPDEST POP PUSH1 0x80 DUP3 ADD MLOAD PUSH1 0x4 DUP3 ADD SSTORE PUSH1 0xA0 DUP3 ADD MLOAD PUSH1 0x5 DUP3 ADD SSTORE PUSH1 0xC0 DUP3 ADD MLOAD PUSH1 0x6 DUP3 ADD SSTORE PUSH1 0xE0 DUP3 ADD MLOAD PUSH1 0x7 DUP3 ADD SSTORE PUSH2 0x100 SWAP1 SWAP2 ADD MLOAD PUSH1 0x8 SWAP1 SWAP2 ADD SSTORE CALLER PUSH1 0x0 SWAP1 DUP2 MSTORE PUSH1 0x9 PUSH1 0x20 MSTORE PUSH1 0x40 SWAP1 KECCAK256 DUP1 SLOAD DUP5 SWAP1 DUP2 LT PUSH2 0x2442 JUMPI PUSH2 0x2442 PUSH2 0x5A49 JUMP JUMPDEST SWAP1 PUSH1 0x0 MSTORE PUSH1 0x20 PUSH1 0x0 KECCAK256 SWAP1 PUSH1 0x9 MUL ADD PUSH1 0x5 ADD SLOAD PUSH1 0x0 SUB PUSH2 0x24DE JUMPI CALLER PUSH1 0x0 SWAP1 DUP2 MSTORE PUSH1 0x9 PUSH1 0x20 MSTORE PUSH1 0x40 SWAP1 KECCAK256 DUP1 SLOAD DUP5 SWAP1 DUP2 LT PUSH2 0x247C JUMPI PUSH2 0x247C PUSH2 0x5A49 JUMP JUMPDEST PUSH1 0x0 SWAP2 DUP3 MSTORE PUSH1 0x20 DUP3 KECCAK256 PUSH1 0x9 SWAP1 SWAP2 MUL ADD DUP2 DUP2 SSTORE SWAP1 PUSH2 0x249C PUSH1 0x1 DUP4 ADD DUP3 PUSH2 0x4E44 JUMP JUMPDEST PUSH2 0x24AA PUSH1 0x2 DUP4 ADD PUSH1 0x0 PUSH2 0x4E44 JUMP JUMPDEST PUSH2 0x24B8 PUSH1 0x3 DUP4 ADD PUSH1 0x0 PUSH2 0x4E44 JUMP JUMPDEST POP PUSH1 0x0 PUSH1 0x4 DUP3 ADD DUP2 SWAP1 SSTORE PUSH1 0x5 DUP3 ADD DUP2 SWAP1 SSTORE PUSH1 0x6 DUP3 ADD DUP2 SWAP1 SSTORE PUSH1 0x7 DUP3 ADD DUP2 SWAP1 SSTORE PUSH1 0x8 SWAP1 SWAP2 ADD SSTORE JUMPDEST POP POP POP JUMP JUMPDEST PUSH1 0x12 DUP3 DUP2 SLOAD DUP2 LT PUSH2 0x24F6 JUMPI PUSH2 0x24F6 PUSH2 0x5A49 JUMP JUMPDEST SWAP1 PUSH1 0x0 MSTORE PUSH1 0x20 PUSH1 0x0 KECCAK256 SWAP1 PUSH1 0x7 MUL ADD PUSH1 0x4 ADD SLOAD DUP1 PUSH1 0x0 SUB PUSH2 0x2558 JUMPI PUSH1 0x40 MLOAD PUSH3 0x461BCD PUSH1 0xE5 SHL DUP2 MSTORE PUSH1 0x20 PUSH1 0x4 DUP3 ADD MSTORE PUSH1 0x1F PUSH1 0x24 DUP3 ADD MSTORE PUSH32 0xD090D183D0BAD186D0B8D0BED0BD20D0B7D0B0D0B2D0B5D180D188D191D0BD00 PUSH1 0x44 DUP3 ADD MSTORE PUSH1 0x64 ADD PUSH2 0x98F JUMP JUMPDEST PUSH1 0x3 SLOAD PUSH2 0x2565 SWAP1 DUP4 PUSH2 0x5A75 JUMP JUMPDEST SWAP2 POP PUSH1 0x0 JUMPDEST PUSH1 0x0 DUP5 DUP2 MSTORE PUSH1 0xB PUSH1 0x20 MSTORE PUSH1 0x40 SWAP1 KECCAK256 SLOAD DUP2 LT ISZERO PUSH2 0x2654 JUMPI PUSH1 0x0 DUP5 DUP2 MSTORE PUSH1 0xB PUSH1 0x20 MSTORE PUSH1 0x40 SWAP1 KECCAK256 DUP1 SLOAD CALLER SWAP2 SWAP1 DUP4 SWAP1 DUP2 LT PUSH2 0x25A3 JUMPI PUSH2 0x25A3 PUSH2 0x5A49 JUMP JUMPDEST PUSH1 0x0 SWAP2 DUP3 MSTORE PUSH1 0x20 SWAP1 SWAP2 KECCAK256 PUSH1 0x1 PUSH1 0x2 SWAP1 SWAP3 MUL ADD ADD SLOAD PUSH1 0x1 PUSH1 0x1 PUSH1 0xA0 SHL SUB AND SUB PUSH2 0x264C JUMPI PUSH1 0x40 MLOAD PUSH3 0x461BCD PUSH1 0xE5 SHL DUP2 MSTORE PUSH1 0x20 PUSH1 0x4 DUP3 ADD MSTORE PUSH1 0x50 PUSH1 0x24 DUP3 ADD MSTORE PUSH32 0xD092D18B20D183D0B6D0B520D181D0B4D0B5D0BBD0B0D0BBD0B820D181D182D0 PUSH1 0x44 DUP3 ADD MSTORE PUSH32 0xB0D0B2D0BAD1832C20D0B2D18B20D0BCD0BED0B6D0B5D182D0B520D0B5D19120 PUSH1 0x64 DUP3 ADD MSTORE PUSH16 0x342FF42FB42CB462F460742E3460B463 PUSH1 0x82 SHL PUSH1 0x84 DUP3 ADD MSTORE PUSH1 0xA4 ADD PUSH2 0x98F JUMP JUMPDEST PUSH1 0x1 ADD PUSH2 0x256A JUMP JUMPDEST POP DUP2 PUSH1 0x12 DUP5 DUP2 SLOAD DUP2 LT PUSH2 0x2669 JUMPI PUSH2 0x2669 PUSH2 0x5A49 JUMP JUMPDEST SWAP1 PUSH1 0x0 MSTORE PUSH1 0x20 PUSH1 0x0 KECCAK256 SWAP1 PUSH1 0x7 MUL ADD PUSH1 0x6 ADD SLOAD LT PUSH2 0x26E0 JUMPI PUSH1 0x40 MLOAD PUSH3 0x461BCD PUSH1 0xE5 SHL DUP2 MSTORE PUSH1 0x20 PUSH1 0x4 DUP3 ADD MSTORE PUSH1 0x2F PUSH1 0x24 DUP3 ADD MSTORE PUSH32 0xD0A2D0B5D0BAD183D189D0B0D18F20D181D182D0B0D0B2D0BAD0B020D0B2D18B PUSH1 0x44 DUP3 ADD MSTORE PUSH15 0xD188D0B520D0B2D0B0D188D0B5D0B9 PUSH1 0x88 SHL PUSH1 0x64 DUP3 ADD MSTORE PUSH1 0x84 ADD PUSH2 0x98F JUMP JUMPDEST PUSH1 0xA DUP3 LT ISZERO PUSH2 0x2701 JUMPI PUSH1 0x40 MLOAD PUSH3 0x461BCD PUSH1 0xE5 SHL DUP2 MSTORE PUSH1 0x4 ADD PUSH2 0x98F SWAP1 PUSH2 0x5C02 JUMP JUMPDEST PUSH1 0x5 SLOAD PUSH1 0x4 DUP1 SLOAD PUSH1 0x40 MLOAD PUSH4 0x7AA9BF6F PUSH1 0xE1 SHL DUP2 MSTORE CALLER SWAP3 DUP2 ADD SWAP3 SWAP1 SWAP3 MSTORE PUSH1 0x1 PUSH1 0x1 PUSH1 0xA0 SHL SUB SWAP1 DUP2 AND PUSH1 0x24 DUP4 ADD MSTORE PUSH1 0x44 DUP3 ADD DUP6 SWAP1 MSTORE SWAP1 SWAP2 AND SWAP1 PUSH4 0xF5537EDE SWAP1 PUSH1 0x64 ADD PUSH1 0x0 PUSH1 0x40 MLOAD DUP1 DUP4 SUB DUP2 PUSH1 0x0 DUP8 DUP1 EXTCODESIZE ISZERO DUP1 ISZERO PUSH2 0x275B JUMPI PUSH1 0x0 DUP1 REVERT JUMPDEST POP GAS CALL ISZERO DUP1 ISZERO PUSH2 0x276F JUMPI RETURNDATASIZE PUSH1 0x0 DUP1 RETURNDATACOPY RETURNDATASIZE PUSH1 0x0 REVERT JUMPDEST POP POP POP POP DUP2 PUSH1 0x12 DUP5 DUP2 SLOAD DUP2 LT PUSH2 0x2787 JUMPI PUSH2 0x2787 PUSH2 0x5A49 JUMP JUMPDEST SWAP1 PUSH1 0x0 MSTORE PUSH1 0x20 PUSH1 0x0 KECCAK256 SWAP1 PUSH1 0x7 MUL ADD PUSH1 0x6 ADD DUP2 SWAP1 SSTORE POP CALLER PUSH1 0x12 DUP5 DUP2 SLOAD DUP2 LT PUSH2 0x27B0 JUMPI PUSH2 0x27B0 PUSH2 0x5A49 JUMP JUMPDEST PUSH1 0x0 SWAP2 DUP3 MSTORE PUSH1 0x20 DUP1 DUP4 KECCAK256 PUSH1 0x5 PUSH1 0x7 SWAP1 SWAP4 MUL ADD SWAP2 SWAP1 SWAP2 ADD DUP1 SLOAD PUSH1 0x1 PUSH1 0x1 PUSH1 0xA0 SHL SUB SWAP5 DUP6 AND PUSH1 0x1 PUSH1 0x1 PUSH1 0xA0 SHL SUB NOT SWAP2 DUP3 AND OR SWAP1 SWAP2 SSTORE DUP7 DUP4 MSTORE PUSH1 0xB DUP3 MSTORE PUSH1 0x40 DUP1 DUP5 KECCAK256 DUP2 MLOAD DUP1 DUP4 ADD SWAP1 SWAP3 MSTORE DUP8 DUP3 MSTORE CALLER DUP3 DUP6 ADD SWAP1 DUP2 MSTORE DUP2 SLOAD PUSH1 0x1 DUP2 DUP2 ADD DUP5 SSTORE SWAP3 DUP8 MSTORE SWAP5 SWAP1 SWAP6 KECCAK256 SWAP2 MLOAD PUSH1 0x2 SWAP1 SWAP5 MUL SWAP1 SWAP2 ADD SWAP3 DUP4 SSTORE SWAP3 MLOAD SWAP2 SWAP1 SWAP3 ADD DUP1 SLOAD SWAP2 SWAP1 SWAP4 AND SWAP2 AND OR SWAP1 SSTORE PUSH1 0x12 DUP1 SLOAD DUP5 SWAP1 DUP2 LT PUSH2 0x2843 JUMPI PUSH2 0x2843 PUSH2 0x5A49 JUMP JUMPDEST SWAP1 PUSH1 0x0 MSTORE PUSH1 0x20 PUSH1 0x0 KECCAK256 SWAP1 PUSH1 0x7 MUL ADD PUSH1 0x4 ADD SLOAD DUP3 LT PUSH2 0x24DE JUMPI PUSH1 0x0 PUSH1 0x12 DUP5 DUP2 SLOAD DUP2 LT PUSH2 0x2870 JUMPI PUSH2 0x2870 PUSH2 0x5A49 JUMP JUMPDEST SWAP1 PUSH1 0x0 MSTORE PUSH1 0x20 PUSH1 0x0 KECCAK256 SWAP1 PUSH1 0x7 MUL ADD PUSH1 0x4 ADD DUP2 SWAP1 SSTORE POP PUSH2 0x24DE DUP4 PUSH2 0x3E97 JUMP JUMPDEST CALLER PUSH1 0x1 PUSH1 0x1 PUSH1 0xA0 SHL SUB AND PUSH1 0xE DUP4 DUP2 SLOAD DUP2 LT PUSH2 0x28AB JUMPI PUSH2 0x28AB PUSH2 0x5A49 JUMP JUMPDEST PUSH1 0x0 SWAP2 DUP3 MSTORE PUSH1 0x20 SWAP1 SWAP2 KECCAK256 PUSH1 0x1 PUSH1 0x4 SWAP1 SWAP3 MUL ADD ADD SLOAD PUSH1 0x1 PUSH1 0x1 PUSH1 0xA0 SHL SUB AND EQ PUSH2 0x2915 JUMPI PUSH1 0x40 MLOAD PUSH3 0x461BCD PUSH1 0xE5 SHL DUP2 MSTORE PUSH1 0x20 PUSH1 0x4 DUP3 ADD MSTORE PUSH1 0x19 PUSH1 0x24 DUP3 ADD MSTORE PUSH32 0xD0ADD182D0BE20D0BDD0B520D0B2D0B0D18820D0BBD0BED18200000000000000 PUSH1 0x44 DUP3 ADD MSTORE PUSH1 0x64 ADD PUSH2 0x98F JUMP JUMPDEST PUSH1 0x3 SLOAD PUSH2 0x2922 SWAP1 DUP3 PUSH2 0x5A75 JUMP JUMPDEST PUSH1 0xE DUP4 DUP2 SLOAD DUP2 LT PUSH2 0x2935 JUMPI PUSH2 0x2935 PUSH2 0x5A49 JUMP JUMPDEST SWAP1 PUSH1 0x0 MSTORE PUSH1 0x20 PUSH1 0x0 KECCAK256 SWAP1 PUSH1 0x4 MUL ADD PUSH1 0x3 ADD DUP2 SWAP1 SSTORE POP POP POP JUMP JUMPDEST PUSH1 0x0 JUMPDEST PUSH1 0x6 DUP3 PUSH1 0x40 MLOAD PUSH2 0x2961 SWAP2 SWAP1 PUSH2 0x5CBA JUMP JUMPDEST SWAP1 DUP2 MSTORE PUSH1 0x40 MLOAD SWAP1 DUP2 SWAP1 SUB PUSH1 0x20 ADD SWAP1 KECCAK256 PUSH1 0x3 ADD SLOAD DUP2 LT ISZERO PUSH2 0x2A3E JUMPI PUSH1 0x6 DUP3 PUSH1 0x40 MLOAD PUSH2 0x298B SWAP2 SWAP1 PUSH2 0x5CBA JUMP JUMPDEST SWAP1 DUP2 MSTORE PUSH1 0x20 ADD PUSH1 0x40 MLOAD DUP1 SWAP2 SUB SWAP1 KECCAK256 PUSH1 0x3 ADD DUP2 DUP2 SLOAD DUP2 LT PUSH2 0x29AD JUMPI PUSH2 0x29AD PUSH2 0x5A49 JUMP JUMPDEST PUSH1 0x0 SWAP2 DUP3 MSTORE PUSH1 0x20 SWAP1 SWAP2 KECCAK256 ADD SLOAD PUSH1 0x1 PUSH1 0x1 PUSH1 0xA0 SHL SUB AND CALLER EQ PUSH2 0x2A36 JUMPI PUSH1 0x40 MLOAD PUSH3 0x461BCD PUSH1 0xE5 SHL DUP2 MSTORE PUSH1 0x20 PUSH1 0x4 DUP3 ADD MSTORE PUSH1 0x3F PUSH1 0x24 DUP3 ADD MSTORE PUSH32 0xD092D18B20D0BDD0B520D0BCD0BED0B6D0B5D182D0B520D0B8D181D0BFD0BED0 PUSH1 0x44 DUP3 ADD MSTORE PUSH32 0xBBD18CD0B7D0BED0B2D0B0D182D18C20D18DD182D0BED18220D0BAD0BED0B400 PUSH1 0x64 DUP3 ADD MSTORE PUSH1 0x84 ADD PUSH2 0x98F JUMP JUMPDEST PUSH1 0x1 ADD PUSH2 0x2951 JUMP JUMPDEST POP CALLER PUSH1 0x1 PUSH1 0x1 PUSH1 0xA0 SHL SUB AND PUSH1 0x6 DUP3 PUSH1 0x40 MLOAD PUSH2 0x2A59 SWAP2 SWAP1 PUSH2 0x5CBA JUMP JUMPDEST SWAP1 DUP2 MSTORE PUSH1 0x40 MLOAD SWAP1 DUP2 SWAP1 SUB PUSH1 0x20 ADD SWAP1 KECCAK256 PUSH1 0x1 ADD SLOAD PUSH1 0x1 PUSH1 0x1 PUSH1 0xA0 SHL SUB AND SUB PUSH2 0x2AF6 JUMPI PUSH1 0x40 MLOAD PUSH3 0x461BCD PUSH1 0xE5 SHL DUP2 MSTORE PUSH1 0x20 PUSH1 0x4 DUP3 ADD MSTORE PUSH1 0x44 PUSH1 0x24 DUP3 ADD DUP2 SWAP1 MSTORE PUSH32 0xD092D18B20D0BDD0B520D0BCD0BED0B6D0B5D182D0B520D0B8D181D0BFD0BED0 SWAP1 DUP3 ADD MSTORE PUSH32 0xBBD18CD0B7D0BED0B2D0B0D182D18C20D181D0B2D0BED0B920D0B6D0B520D0BA PUSH1 0x64 DUP3 ADD MSTORE PUSH4 0x342FB42D PUSH1 0xE2 SHL PUSH1 0x84 DUP3 ADD MSTORE PUSH1 0xA4 ADD PUSH2 0x98F JUMP JUMPDEST DUP1 PUSH1 0x40 MLOAD PUSH1 0x20 ADD PUSH2 0x2B07 SWAP2 SWAP1 PUSH2 0x5CBA JUMP JUMPDEST PUSH1 0x40 MLOAD PUSH1 0x20 DUP2 DUP4 SUB SUB DUP2 MSTORE SWAP1 PUSH1 0x40 MSTORE DUP1 MLOAD SWAP1 PUSH1 0x20 ADD KECCAK256 PUSH1 0x6 DUP3 PUSH1 0x40 MLOAD PUSH2 0x2B2D SWAP2 SWAP1 PUSH2 0x5CBA JUMP JUMPDEST SWAP1 DUP2 MSTORE PUSH1 0x40 MLOAD PUSH1 0x20 SWAP2 DUP2 SWAP1 SUB DUP3 ADD DUP2 KECCAK256 PUSH2 0x2B49 SWAP3 SWAP1 SWAP2 ADD PUSH2 0x59D3 JUMP JUMPDEST PUSH1 0x40 MLOAD PUSH1 0x20 DUP2 DUP4 SUB SUB DUP2 MSTORE SWAP1 PUSH1 0x40 MSTORE DUP1 MLOAD SWAP1 PUSH1 0x20 ADD KECCAK256 EQ PUSH2 0x2BE2 JUMPI PUSH1 0x40 MLOAD PUSH3 0x461BCD PUSH1 0xE5 SHL DUP2 MSTORE PUSH1 0x20 PUSH1 0x4 DUP3 ADD MSTORE PUSH1 0x47 PUSH1 0x24 DUP3 ADD MSTORE PUSH32 0xD0A2D0B0D0BAD0BED0B3D0BE20D180D0B5D184D0B5D180D0B0D0BBD18CD0BDD0 PUSH1 0x44 DUP3 ADD MSTORE PUSH32 0xBED0B3D0BE20D0BAD0BED0B4D0B020D0BDD0B5D18220D0B220D181D0B8D181D1 PUSH1 0x64 DUP3 ADD MSTORE PUSH7 0x82D0B5D0BCD0B5 PUSH1 0xC8 SHL PUSH1 0x84 DUP3 ADD MSTORE PUSH1 0xA4 ADD PUSH2 0x98F JUMP JUMPDEST CALLER PUSH1 0x0 SWAP1 DUP2 MSTORE PUSH1 0x7 PUSH1 0x20 MSTORE PUSH1 0x40 SWAP1 KECCAK256 SLOAD PUSH1 0xFF AND ISZERO ISZERO PUSH1 0x1 SUB PUSH2 0x2C5A JUMPI PUSH1 0x40 MLOAD PUSH3 0x461BCD PUSH1 0xE5 SHL DUP2 MSTORE PUSH1 0x20 PUSH1 0x4 DUP3 ADD MSTORE PUSH1 0x2B PUSH1 0x24 DUP3 ADD MSTORE PUSH32 0xD092D18B20D183D0B6D0B520D0B8D181D0BFD0BED0BBD18CD0B7D0BED0B2D0B0 PUSH1 0x44 DUP3 ADD MSTORE PUSH11 0x342EF42E08342EB42FB42D PUSH1 0xAA SHL PUSH1 0x64 DUP3 ADD MSTORE PUSH1 0x84 ADD PUSH2 0x98F JUMP JUMPDEST PUSH1 0x5 PUSH1 0x0 SWAP1 SLOAD SWAP1 PUSH2 0x100 EXP SWAP1 DIV PUSH1 0x1 PUSH1 0x1 PUSH1 0xA0 SHL SUB AND PUSH1 0x1 PUSH1 0x1 PUSH1 0xA0 SHL SUB AND PUSH4 0x3424E5AD PUSH1 0x40 MLOAD DUP2 PUSH4 0xFFFFFFFF AND PUSH1 0xE0 SHL DUP2 MSTORE PUSH1 0x4 ADD PUSH1 0x0 PUSH1 0x40 MLOAD DUP1 DUP4 SUB DUP2 PUSH1 0x0 DUP8 DUP1 EXTCODESIZE ISZERO DUP1 ISZERO PUSH2 0x2CAA JUMPI PUSH1 0x0 DUP1 REVERT JUMPDEST POP GAS CALL ISZERO DUP1 ISZERO PUSH2 0x2CBE JUMPI RETURNDATASIZE PUSH1 0x0 DUP1 RETURNDATACOPY RETURNDATASIZE PUSH1 0x0 REVERT JUMPDEST POP POP CALLER PUSH1 0x0 SWAP1 DUP2 MSTORE PUSH1 0x7 PUSH1 0x20 MSTORE PUSH1 0x40 SWAP1 DUP2 SWAP1 KECCAK256 DUP1 SLOAD PUSH1 0xFF NOT AND PUSH1 0x1 OR SWAP1 SSTORE MLOAD PUSH1 0x3 SWAP3 POP PUSH1 0x6 SWAP2 POP PUSH2 0x2CF0 SWAP1 DUP5 SWAP1 PUSH2 0x5CBA JUMP JUMPDEST SWAP1 DUP2 MSTORE PUSH1 0x20 ADD PUSH1 0x40 MLOAD DUP1 SWAP2 SUB SWAP1 KECCAK256 PUSH1 0x2 ADD SLOAD LT ISZERO PUSH2 0x2D5A JUMPI PUSH1 0x6 DUP2 PUSH1 0x40 MLOAD PUSH2 0x2D18 SWAP2 SWAP1 PUSH2 0x5CBA JUMP JUMPDEST SWAP1 DUP2 MSTORE PUSH1 0x20 ADD PUSH1 0x40 MLOAD DUP1 SWAP2 SUB SWAP1 KECCAK256 PUSH1 0x2 ADD SLOAD PUSH1 0x1 PUSH2 0x2D36 SWAP2 SWAP1 PUSH2 0x5C50 JUMP JUMPDEST PUSH1 0x6 DUP3 PUSH1 0x40 MLOAD PUSH2 0x2D46 SWAP2 SWAP1 PUSH2 0x5CBA JUMP JUMPDEST SWAP1 DUP2 MSTORE PUSH1 0x40 MLOAD SWAP1 DUP2 SWAP1 SUB PUSH1 0x20 ADD SWAP1 KECCAK256 PUSH1 0x2 ADD SSTORE JUMPDEST POP JUMP JUMPDEST PUSH2 0x2D68 CALLER DUP4 DUP4 PUSH2 0x48AC JUMP JUMPDEST POP POP JUMP JUMPDEST PUSH1 0x12 DUP2 DUP2 SLOAD DUP2 LT PUSH2 0x2D7F JUMPI PUSH2 0x2D7F PUSH2 0x5A49 JUMP JUMPDEST SWAP1 PUSH1 0x0 MSTORE PUSH1 0x20 PUSH1 0x0 KECCAK256 SWAP1 PUSH1 0x7 MUL ADD PUSH1 0x3 ADD SLOAD TIMESTAMP PUSH2 0x2D9C SWAP2 SWAP1 PUSH2 0x5CD6 JUMP JUMPDEST PUSH1 0x12 DUP3 DUP2 SLOAD DUP2 LT PUSH2 0x2DAF JUMPI PUSH2 0x2DAF PUSH2 0x5A49 JUMP JUMPDEST SWAP1 PUSH1 0x0 MSTORE PUSH1 0x20 PUSH1 0x0 KECCAK256 SWAP1 PUSH1 0x7 MUL ADD PUSH1 0x2 ADD SLOAD TIMESTAMP PUSH2 0x2DCC SWAP2 SWAP1 PUSH2 0x5CD6 JUMP JUMPDEST GT PUSH2 0x2D5A JUMPI PUSH2 0x2D5A DUP2 PUSH2 0x3E97 JUMP JUMPDEST PUSH1 0x0 PUSH1 0x64 DUP3 DUP5 PUSH1 0xE DUP8 DUP2 SLOAD DUP2 LT PUSH2 0x2DF3 JUMPI PUSH2 0x2DF3 PUSH2 0x5A49 JUMP JUMPDEST SWAP1 PUSH1 0x0 MSTORE PUSH1 0x20 PUSH1 0x0 KECCAK256 SWAP1 PUSH1 0x4 MUL ADD PUSH1 0x3 ADD SLOAD PUSH2 0x2E0F SWAP2 SWAP1 PUSH2 0x5A75 JUMP JUMPDEST PUSH2 0x2E19 SWAP2 SWAP1 PUSH2 0x5A75 JUMP JUMPDEST PUSH2 0x2E23 SWAP2 SWAP1 PUSH2 0x5CE9 JUMP JUMPDEST DUP4 PUSH1 0xE DUP7 DUP2 SLOAD DUP2 LT PUSH2 0x2E37 JUMPI PUSH2 0x2E37 PUSH2 0x5A49 JUMP JUMPDEST SWAP1 PUSH1 0x0 MSTORE PUSH1 0x20 PUSH1 0x0 KECCAK256 SWAP1 PUSH1 0x4 MUL ADD PUSH1 0x3 ADD SLOAD PUSH2 0x2E53 SWAP2 SWAP1 PUSH2 0x5A75 JUMP JUMPDEST PUSH2 0x2E5D SWAP2 SWAP1 PUSH2 0x5CD6 JUMP JUMPDEST SWAP1 POP DUP3 PUSH1 0xE DUP6 DUP2 SLOAD DUP2 LT PUSH2 0x2E73 JUMPI PUSH2 0x2E73 PUSH2 0x5A49 JUMP JUMPDEST SWAP1 PUSH1 0x0 MSTORE PUSH1 0x20 PUSH1 0x0 KECCAK256 SWAP1 PUSH1 0x4 MUL ADD PUSH1 0x2 ADD SLOAD LT ISZERO PUSH2 0x2F04 JUMPI PUSH1 0x40 MLOAD PUSH3 0x461BCD PUSH1 0xE5 SHL DUP2 MSTORE PUSH1 0x20 PUSH1 0x4 DUP3 ADD MSTORE PUSH1 0x42 PUSH1 0x24 DUP3 ADD MSTORE PUSH32 0xD092D18B20D0BFD18BD182D0B0D0B5D182D0B5D181D18C20D0BAD183D0BFD0B8 PUSH1 0x44 DUP3 ADD MSTORE PUSH32 0xD182D18C20D0B1D0BED0BBD18CD188D0B52C20D187D0B5D0BC20D0B5D181D182 PUSH1 0x64 DUP3 ADD MSTORE PUSH2 0x3463 PUSH1 0xF2 SHL PUSH1 0x84 DUP3 ADD MSTORE PUSH1 0xA4 ADD PUSH2 0x98F JUMP JUMPDEST PUSH2 0x2F7B PUSH1 0xE DUP6 DUP2 SLOAD DUP2 LT PUSH2 0x2F1A JUMPI PUSH2 0x2F1A PUSH2 0x5A49 JUMP JUMPDEST SWAP1 PUSH1 0x0 MSTORE PUSH1 0x20 PUSH1 0x0 KECCAK256 SWAP1 PUSH1 0x4 MUL ADD PUSH1 0x1 ADD PUSH1 0x0 SWAP1 SLOAD SWAP1 PUSH2 0x100 EXP SWAP1 DIV PUSH1 0x1 PUSH1 0x1 PUSH1 0xA0 SHL SUB AND CALLER PUSH1 0xE DUP8 DUP2 SLOAD DUP2 LT PUSH2 0x2F53 JUMPI PUSH2 0x2F53 PUSH2 0x5A49 JUMP JUMPDEST SWAP1 PUSH1 0x0 MSTORE PUSH1 0x20 PUSH1 0x0 KECCAK256 SWAP1 PUSH1 0x4 MUL ADD PUSH1 0x0 ADD SLOAD DUP7 PUSH1 0x40 MLOAD DUP1 PUSH1 0x20 ADD PUSH1 0x40 MSTORE DUP1 PUSH1 0x0 DUP2 MSTORE POP PUSH2 0x4942 JUMP JUMPDEST PUSH1 0x5 SLOAD PUSH1 0xE DUP1 SLOAD PUSH1 0x1 PUSH1 0x1 PUSH1 0xA0 SHL SUB SWAP1 SWAP3 AND SWAP2 PUSH4 0xF5537EDE SWAP2 CALLER SWAP2 DUP9 SWAP1 DUP2 LT PUSH2 0x2FA6 JUMPI PUSH2 0x2FA6 PUSH2 0x5A49 JUMP JUMPDEST PUSH1 0x0 SWAP2 DUP3 MSTORE PUSH1 0x20 SWAP1 SWAP2 KECCAK256 PUSH1 0x4 SWAP2 DUP3 MUL ADD PUSH1 0x1 ADD SLOAD PUSH1 0x40 MLOAD PUSH1 0xE0 DUP6 SWAP1 SHL PUSH1 0x1 PUSH1 0x1 PUSH1 0xE0 SHL SUB NOT AND DUP2 MSTORE PUSH1 0x1 PUSH1 0x1 PUSH1 0xA0 SHL SUB SWAP4 DUP5 AND SWAP3 DUP2 ADD SWAP3 SWAP1 SWAP3 MSTORE SWAP2 SWAP1 SWAP2 AND PUSH1 0x24 DUP3 ADD MSTORE PUSH1 0x44 DUP2 ADD DUP5 SWAP1 MSTORE PUSH1 0x64 ADD PUSH1 0x0 PUSH1 0x40 MLOAD DUP1 DUP4 SUB DUP2 PUSH1 0x0 DUP8 DUP1 EXTCODESIZE ISZERO DUP1 ISZERO PUSH2 0x300D JUMPI PUSH1 0x0 DUP1 REVERT JUMPDEST POP GAS CALL ISZERO DUP1 ISZERO PUSH2 0x3021 JUMPI RETURNDATASIZE PUSH1 0x0 DUP1 RETURNDATACOPY RETURNDATASIZE PUSH1 0x0 REVERT JUMPDEST POP POP POP POP DUP3 PUSH1 0xE DUP6 DUP2 SLOAD DUP2 LT PUSH2 0x3039 JUMPI PUSH2 0x3039 PUSH2 0x5A49 JUMP JUMPDEST SWAP1 PUSH1 0x0 MSTORE PUSH1 0x20 PUSH1 0x0 KECCAK256 SWAP1 PUSH1 0x4 MUL ADD PUSH1 0x2 ADD PUSH1 0x0 DUP3 DUP3 SLOAD PUSH2 0x3059 SWAP2 SWAP1 PUSH2 0x5CD6 JUMP JUMPDEST SWAP3 POP POP DUP2 SWAP1 SSTORE POP DUP3 PUSH1 0x9 PUSH1 0x0 PUSH1 0xE DUP8 DUP2 SLOAD DUP2 LT PUSH2 0x3078 JUMPI PUSH2 0x3078 PUSH2 0x5A49 JUMP JUMPDEST PUSH1 0x0 SWAP2 DUP3 MSTORE PUSH1 0x20 DUP1 DUP4 KECCAK256 PUSH1 0x1 PUSH1 0x4 SWAP1 SWAP4 MUL ADD SWAP2 SWAP1 SWAP2 ADD SLOAD PUSH1 0x1 PUSH1 0x1 PUSH1 0xA0 SHL SUB AND DUP4 MSTORE DUP3 ADD SWAP3 SWAP1 SWAP3 MSTORE PUSH1 0x40 ADD SWAP1 KECCAK256 PUSH1 0xE DUP1 SLOAD DUP8 SWAP1 DUP2 LT PUSH2 0x30B9 JUMPI PUSH2 0x30B9 PUSH2 0x5A49 JUMP JUMPDEST SWAP1 PUSH1 0x0 MSTORE PUSH1 0x20 PUSH1 0x0 KECCAK256 SWAP1 PUSH1 0x4 MUL ADD PUSH1 0x0 ADD SLOAD DUP2 SLOAD DUP2 LT PUSH2 0x30DB JUMPI PUSH2 0x30DB PUSH2 0x5A49 JUMP JUMPDEST SWAP1 PUSH1 0x0 MSTORE PUSH1 0x20 PUSH1 0x0 KECCAK256 SWAP1 PUSH1 0x9 MUL ADD PUSH1 0x6 ADD PUSH1 0x0 DUP3 DUP3 SLOAD PUSH2 0x30FB SWAP2 SWAP1 PUSH2 0x5CD6 JUMP JUMPDEST SWAP1 SWAP2 SSTORE POP POP CALLER PUSH1 0x0 SWAP1 DUP2 MSTORE PUSH1 0x9 PUSH1 0x20 SWAP1 DUP2 MSTORE PUSH1 0x40 DUP1 DUP4 KECCAK256 DUP2 MLOAD PUSH2 0x120 DUP2 ADD SWAP1 SWAP3 MSTORE DUP1 SLOAD DUP3 MSTORE PUSH1 0xE DUP1 SLOAD SWAP2 SWAP5 SWAP3 SWAP4 DUP5 ADD SWAP3 PUSH1 0x8 SWAP3 SWAP1 SWAP2 SWAP1 DUP11 SWAP1 DUP2 LT PUSH2 0x3141 JUMPI PUSH2 0x3141 PUSH2 0x5A49 JUMP JUMPDEST SWAP1 PUSH1 0x0 MSTORE PUSH1 0x20 PUSH1 0x0 KECCAK256 SWAP1 PUSH1 0x4 MUL ADD PUSH1 0x0 ADD SLOAD DUP2 MSTORE PUSH1 0x20 ADD SWAP1 DUP2 MSTORE PUSH1 0x20 ADD PUSH1 0x0 KECCAK256 PUSH1 0x1 ADD DUP1 SLOAD PUSH2 0x316F SWAP1 PUSH2 0x5999 JUMP JUMPDEST DUP1 PUSH1 0x1F ADD PUSH1 0x20 DUP1 SWAP2 DIV MUL PUSH1 0x20 ADD PUSH1 0x40 MLOAD SWAP1 DUP2 ADD PUSH1 0x40 MSTORE DUP1 SWAP3 SWAP2 SWAP1 DUP2 DUP2 MSTORE PUSH1 0x20 ADD DUP3 DUP1 SLOAD PUSH2 0x319B SWAP1 PUSH2 0x5999 JUMP JUMPDEST DUP1 ISZERO PUSH2 0x31E8 JUMPI DUP1 PUSH1 0x1F LT PUSH2 0x31BD JUMPI PUSH2 0x100 DUP1 DUP4 SLOAD DIV MUL DUP4 MSTORE SWAP2 PUSH1 0x20 ADD SWAP2 PUSH2 0x31E8 JUMP JUMPDEST DUP3 ADD SWAP2 SWAP1 PUSH1 0x0 MSTORE PUSH1 0x20 PUSH1 0x0 KECCAK256 SWAP1 JUMPDEST DUP2 SLOAD DUP2 MSTORE SWAP1 PUSH1 0x1 ADD SWAP1 PUSH1 0x20 ADD DUP1 DUP4 GT PUSH2 0x31CB JUMPI DUP3 SWAP1 SUB PUSH1 0x1F AND DUP3 ADD SWAP2 JUMPDEST POP POP POP POP POP DUP2 MSTORE PUSH1 0x20 ADD PUSH1 0x8 PUSH1 0x0 PUSH1 0xE DUP10 DUP2 SLOAD DUP2 LT PUSH2 0x3209 JUMPI PUSH2 0x3209 PUSH2 0x5A49 JUMP JUMPDEST SWAP1 PUSH1 0x0 MSTORE PUSH1 0x20 PUSH1 0x0 KECCAK256 SWAP1 PUSH1 0x4 MUL ADD PUSH1 0x0 ADD SLOAD DUP2 MSTORE PUSH1 0x20 ADD SWAP1 DUP2 MSTORE PUSH1 0x20 ADD PUSH1 0x0 KECCAK256 PUSH1 0x2 ADD DUP1 SLOAD PUSH2 0x3237 SWAP1 PUSH2 0x5999 JUMP JUMPDEST DUP1 PUSH1 0x1F ADD PUSH1 0x20 DUP1 SWAP2 DIV MUL PUSH1 0x20 ADD PUSH1 0x40 MLOAD SWAP1 DUP2 ADD PUSH1 0x40 MSTORE DUP1 SWAP3 SWAP2 SWAP1 DUP2 DUP2 MSTORE PUSH1 0x20 ADD DUP3 DUP1 SLOAD PUSH2 0x3263 SWAP1 PUSH2 0x5999 JUMP JUMPDEST DUP1 ISZERO PUSH2 0x32B0 JUMPI DUP1 PUSH1 0x1F LT PUSH2 0x3285 JUMPI PUSH2 0x100 DUP1 DUP4 SLOAD DIV MUL DUP4 MSTORE SWAP2 PUSH1 0x20 ADD SWAP2 PUSH2 0x32B0 JUMP JUMPDEST DUP3 ADD SWAP2 SWAP1 PUSH1 0x0 MSTORE PUSH1 0x20 PUSH1 0x0 KECCAK256 SWAP1 JUMPDEST DUP2 SLOAD DUP2 MSTORE SWAP1 PUSH1 0x1 ADD SWAP1 PUSH1 0x20 ADD DUP1 DUP4 GT PUSH2 0x3293 JUMPI DUP3 SWAP1 SUB PUSH1 0x1F AND DUP3 ADD SWAP2 JUMPDEST POP POP POP POP POP DUP2 MSTORE PUSH1 0x20 ADD PUSH1 0x8 PUSH1 0x0 PUSH1 0xE DUP10 DUP2 SLOAD DUP2 LT PUSH2 0x32D1 JUMPI PUSH2 0x32D1 PUSH2 0x5A49 JUMP JUMPDEST SWAP1 PUSH1 0x0 MSTORE PUSH1 0x20 PUSH1 0x0 KECCAK256 SWAP1 PUSH1 0x4 MUL ADD PUSH1 0x0 ADD SLOAD DUP2 MSTORE PUSH1 0x20 ADD SWAP1 DUP2 MSTORE PUSH1 0x20 ADD PUSH1 0x0 KECCAK256 PUSH1 0x3 ADD DUP1 SLOAD PUSH2 0x32FF SWAP1 PUSH2 0x5999 JUMP JUMPDEST DUP1 PUSH1 0x1F ADD PUSH1 0x20 DUP1 SWAP2 DIV MUL PUSH1 0x20 ADD PUSH1 0x40 MLOAD SWAP1 DUP2 ADD PUSH1 0x40 MSTORE DUP1 SWAP3 SWAP2 SWAP1 DUP2 DUP2 MSTORE PUSH1 0x20 ADD DUP3 DUP1 SLOAD PUSH2 0x332B SWAP1 PUSH2 0x5999 JUMP JUMPDEST DUP1 ISZERO PUSH2 0x3378 JUMPI DUP1 PUSH1 0x1F LT PUSH2 0x334D JUMPI PUSH2 0x100 DUP1 DUP4 SLOAD DIV MUL DUP4 MSTORE SWAP2 PUSH1 0x20 ADD SWAP2 PUSH2 0x3378 JUMP JUMPDEST DUP3 ADD SWAP2 SWAP1 PUSH1 0x0 MSTORE PUSH1 0x20 PUSH1 0x0 KECCAK256 SWAP1 JUMPDEST DUP2 SLOAD DUP2 MSTORE SWAP1 PUSH1 0x1 ADD SWAP1 PUSH1 0x20 ADD DUP1 DUP4 GT PUSH2 0x335B JUMPI DUP3 SWAP1 SUB PUSH1 0x1F AND DUP3 ADD SWAP2 JUMPDEST POP POP POP POP POP DUP2 MSTORE PUSH1 0x20 ADD DUP6 DUP2 MSTORE PUSH1 0x20 ADD DUP6 DUP2 MSTORE PUSH1 0x20 ADD PUSH1 0xE DUP8 DUP2 SLOAD DUP2 LT PUSH2 0x33A1 JUMPI PUSH2 0x33A1 PUSH2 0x5A49 JUMP JUMPDEST SWAP1 PUSH1 0x0 MSTORE PUSH1 0x20 PUSH1 0x0 KECCAK256 SWAP1 PUSH1 0x4 MUL ADD PUSH1 0x3 ADD SLOAD DUP2 MSTORE PUSH1 0x20 ADD PUSH1 0x8 PUSH1 0x0 PUSH1 0xE DUP10 DUP2 SLOAD DUP2 LT PUSH2 0x33CF JUMPI PUSH2 0x33CF PUSH2 0x5A49 JUMP JUMPDEST SWAP1 PUSH1 0x0 MSTORE PUSH1 0x20 PUSH1 0x0 KECCAK256 SWAP1 PUSH1 0x4 MUL ADD PUSH1 0x0 ADD SLOAD DUP2 MSTORE PUSH1 0x20 ADD SWAP1 DUP2 MSTORE PUSH1 0x20 ADD PUSH1 0x0 KECCAK256 PUSH1 0x7 ADD SLOAD DUP2 MSTORE PUSH1 0x20 ADD PUSH1 0x8 PUSH1 0x0 PUSH1 0xE DUP10 DUP2 SLOAD DUP2 LT PUSH2 0x340F JUMPI PUSH2 0x340F PUSH2 0x5A49 JUMP JUMPDEST PUSH1 0x0 SWAP2 DUP3 MSTORE PUSH1 0x20 DUP1 DUP4 KECCAK256 PUSH1 0x4 SWAP1 SWAP3 MUL SWAP1 SWAP2 ADD SLOAD DUP4 MSTORE DUP3 DUP2 ADD SWAP4 SWAP1 SWAP4 MSTORE PUSH1 0x40 SWAP1 SWAP2 ADD DUP2 KECCAK256 PUSH1 0x8 ADD SLOAD SWAP1 SWAP3 MSTORE DUP4 SLOAD PUSH1 0x1 DUP2 DUP2 ADD DUP7 SSTORE SWAP5 DUP4 MSTORE SWAP2 DUP2 SWAP1 KECCAK256 DUP4 MLOAD PUSH1 0x9 SWAP1 SWAP4 MUL ADD SWAP2 DUP3 SSTORE DUP3 ADD MLOAD SWAP2 SWAP3 SWAP1 SWAP2 SWAP1 DUP3 ADD SWAP1 PUSH2 0x3469 SWAP1 DUP3 PUSH2 0x5B42 JUMP JUMPDEST POP PUSH1 0x40 DUP3 ADD MLOAD PUSH1 0x2 DUP3 ADD SWAP1 PUSH2 0x347E SWAP1 DUP3 PUSH2 0x5B42 JUMP JUMPDEST POP PUSH1 0x60 DUP3 ADD MLOAD PUSH1 0x3 DUP3 ADD SWAP1 PUSH2 0x3493 SWAP1 DUP3 PUSH2 0x5B42 JUMP JUMPDEST POP PUSH1 0x80 DUP3 ADD MLOAD DUP2 PUSH1 0x4 ADD SSTORE PUSH1 0xA0 DUP3 ADD MLOAD DUP2 PUSH1 0x5 ADD SSTORE PUSH1 0xC0 DUP3 ADD MLOAD DUP2 PUSH1 0x6 ADD SSTORE PUSH1 0xE0 DUP3 ADD MLOAD DUP2 PUSH1 0x7 ADD SSTORE PUSH2 0x100 DUP3 ADD MLOAD DUP2 PUSH1 0x8 ADD SSTORE POP POP PUSH1 0x9 PUSH1 0x0 PUSH1 0xE DUP7 DUP2 SLOAD DUP2 LT PUSH2 0x34E0 JUMPI PUSH2 0x34E0 PUSH2 0x5A49 JUMP JUMPDEST PUSH1 0x0 SWAP2 DUP3 MSTORE PUSH1 0x20 DUP1 DUP4 KECCAK256 PUSH1 0x1 PUSH1 0x4 SWAP1 SWAP4 MUL ADD SWAP2 SWAP1 SWAP2 ADD SLOAD PUSH1 0x1 PUSH1 0x1 PUSH1 0xA0 SHL SUB AND DUP4 MSTORE DUP3 ADD SWAP3 SWAP1 SWAP3 MSTORE PUSH1 0x40 ADD SWAP1 KECCAK256 PUSH1 0xE DUP1 SLOAD DUP7 SWAP1 DUP2 LT PUSH2 0x3521 JUMPI PUSH2 0x3521 PUSH2 0x5A49 JUMP JUMPDEST SWAP1 PUSH1 0x0 MSTORE PUSH1 0x20 PUSH1 0x0 KECCAK256 SWAP1 PUSH1 0x4 MUL ADD PUSH1 0x0 ADD SLOAD DUP2 SLOAD DUP2 LT PUSH2 0x3543 JUMPI PUSH2 0x3543 PUSH2 0x5A49 JUMP JUMPDEST SWAP1 PUSH1 0x0 MSTORE PUSH1 0x20 PUSH1 0x0 KECCAK256 SWAP1 PUSH1 0x9 MUL ADD PUSH1 0x6 ADD SLOAD PUSH1 0x0 SUB PUSH2 0x35A9 JUMPI PUSH1 0x9 PUSH1 0x0 PUSH1 0xE DUP7 DUP2 SLOAD DUP2 LT PUSH2 0x3573 JUMPI PUSH2 0x3573 PUSH2 0x5A49 JUMP JUMPDEST PUSH1 0x0 SWAP2 DUP3 MSTORE PUSH1 0x20 DUP1 DUP4 KECCAK256 PUSH1 0x1 PUSH1 0x4 SWAP1 SWAP4 MUL ADD SWAP2 SWAP1 SWAP2 ADD SLOAD PUSH1 0x1 PUSH1 0x1 PUSH1 0xA0 SHL SUB AND DUP4 MSTORE DUP3 ADD SWAP3 SWAP1 SWAP3 MSTORE PUSH1 0x40 ADD DUP2 KECCAK256 PUSH2 0x35A9 SWAP2 PUSH2 0x4EE3 JUMP JUMPDEST PUSH1 0xE DUP5 DUP2 SLOAD DUP2 LT PUSH2 0x35BC JUMPI PUSH2 0x35BC PUSH2 0x5A49 JUMP JUMPDEST SWAP1 PUSH1 0x0 MSTORE PUSH1 0x20 PUSH1 0x0 KECCAK256 SWAP1 PUSH1 0x4 MUL ADD PUSH1 0x2 ADD SLOAD PUSH1 0x0 SUB PUSH2 0x1D24 JUMPI PUSH1 0xE DUP5 DUP2 SLOAD DUP2 LT PUSH2 0x35E8 JUMPI PUSH2 0x35E8 PUSH2 0x5A49 JUMP JUMPDEST PUSH1 0x0 SWAP2 DUP3 MSTORE PUSH1 0x20 DUP3 KECCAK256 PUSH1 0x4 SWAP1 SWAP2 MUL ADD DUP2 DUP2 SSTORE PUSH1 0x1 DUP2 ADD DUP1 SLOAD PUSH1 0x1 PUSH1 0x1 PUSH1 0xA0 SHL SUB NOT AND SWAP1 SSTORE PUSH1 0x2 DUP2 ADD DUP3 SWAP1 SSTORE PUSH1 0x3 ADD SSTORE POP POP POP POP JUMP JUMPDEST PUSH1 0x60 PUSH1 0x10 DUP1 SLOAD DUP1 PUSH1 0x20 MUL PUSH1 0x20 ADD PUSH1 0x40 MLOAD SWAP1 DUP2 ADD PUSH1 0x40 MSTORE DUP1 SWAP3 SWAP2 SWAP1 DUP2 DUP2 MSTORE PUSH1 0x20 ADD PUSH1 0x0 SWAP1 JUMPDEST DUP3 DUP3 LT ISZERO PUSH2 0x8F7 JUMPI DUP4 DUP3 SWAP1 PUSH1 0x0 MSTORE PUSH1 0x20 PUSH1 0x0 KECCAK256 SWAP1 PUSH1 0x9 MUL ADD PUSH1 0x40 MLOAD DUP1 PUSH2 0x120 ADD PUSH1 0x40 MSTORE SWAP1 DUP2 PUSH1 0x0 DUP3 ADD SLOAD DUP2 MSTORE PUSH1 0x20 ADD PUSH1 0x1 DUP3 ADD DUP1 SLOAD PUSH2 0x367F SWAP1 PUSH2 0x5999 JUMP JUMPDEST DUP1 PUSH1 0x1F ADD PUSH1 0x20 DUP1 SWAP2 DIV MUL PUSH1 0x20 ADD PUSH1 0x40 MLOAD SWAP1 DUP2 ADD PUSH1 0x40 MSTORE DUP1 SWAP3 SWAP2 SWAP1 DUP2 DUP2 MSTORE PUSH1 0x20 ADD DUP3 DUP1 SLOAD PUSH2 0x36AB SWAP1 PUSH2 0x5999 JUMP JUMPDEST DUP1 ISZERO PUSH2 0x36F8 JUMPI DUP1 PUSH1 0x1F LT PUSH2 0x36CD JUMPI PUSH2 0x100 DUP1 DUP4 SLOAD DIV MUL DUP4 MSTORE SWAP2 PUSH1 0x20 ADD SWAP2 PUSH2 0x36F8 JUMP JUMPDEST DUP3 ADD SWAP2 SWAP1 PUSH1 0x0 MSTORE PUSH1 0x20 PUSH1 0x0 KECCAK256 SWAP1 JUMPDEST DUP2 SLOAD DUP2 MSTORE SWAP1 PUSH1 0x1 ADD SWAP1 PUSH1 0x20 ADD DUP1 DUP4 GT PUSH2 0x36DB JUMPI DUP3 SWAP1 SUB PUSH1 0x1F AND DUP3 ADD SWAP2 JUMPDEST POP POP POP POP POP DUP2 MSTORE PUSH1 0x20 ADD PUSH1 0x2 DUP3 ADD DUP1 SLOAD PUSH2 0x3711 SWAP1 PUSH2 0x5999 JUMP JUMPDEST DUP1 PUSH1 0x1F ADD PUSH1 0x20 DUP1 SWAP2 DIV MUL PUSH1 0x20 ADD PUSH1 0x40 MLOAD SWAP1 DUP2 ADD PUSH1 0x40 MSTORE DUP1 SWAP3 SWAP2 SWAP1 DUP2 DUP2 MSTORE PUSH1 0x20 ADD DUP3 DUP1 SLOAD PUSH2 0x373D SWAP1 PUSH2 0x5999 JUMP JUMPDEST DUP1 ISZERO PUSH2 0x378A JUMPI DUP1 PUSH1 0x1F LT PUSH2 0x375F JUMPI PUSH2 0x100 DUP1 DUP4 SLOAD DIV MUL DUP4 MSTORE SWAP2 PUSH1 0x20 ADD SWAP2 PUSH2 0x378A JUMP JUMPDEST DUP3 ADD SWAP2 SWAP1 PUSH1 0x0 MSTORE PUSH1 0x20 PUSH1 0x0 KECCAK256 SWAP1 JUMPDEST DUP2 SLOAD DUP2 MSTORE SWAP1 PUSH1 0x1 ADD SWAP1 PUSH1 0x20 ADD DUP1 DUP4 GT PUSH2 0x376D JUMPI DUP3 SWAP1 SUB PUSH1 0x1F AND DUP3 ADD SWAP2 JUMPDEST POP POP POP POP POP DUP2 MSTORE PUSH1 0x20 ADD PUSH1 0x3 DUP3 ADD DUP1 SLOAD PUSH2 0x37A3 SWAP1 PUSH2 0x5999 JUMP JUMPDEST DUP1 PUSH1 0x1F ADD PUSH1 0x20 DUP1 SWAP2 DIV MUL PUSH1 0x20 ADD PUSH1 0x40 MLOAD SWAP1 DUP2 ADD PUSH1 0x40 MSTORE DUP1 SWAP3 SWAP2 SWAP1 DUP2 DUP2 MSTORE PUSH1 0x20 ADD DUP3 DUP1 SLOAD PUSH2 0x37CF SWAP1 PUSH2 0x5999 JUMP JUMPDEST DUP1 ISZERO PUSH2 0x381C JUMPI DUP1 PUSH1 0x1F LT PUSH2 0x37F1 JUMPI PUSH2 0x100 DUP1 DUP4 SLOAD DIV MUL DUP4 MSTORE SWAP2 PUSH1 0x20 ADD SWAP2 PUSH2 0x381C JUMP JUMPDEST DUP3 ADD SWAP2 SWAP1 PUSH1 0x0 MSTORE PUSH1 0x20 PUSH1 0x0 KECCAK256 SWAP1 JUMPDEST DUP2 SLOAD DUP2 MSTORE SWAP1 PUSH1 0x1 ADD SWAP1 PUSH1 0x20 ADD DUP1 DUP4 GT PUSH2 0x37FF JUMPI DUP3 SWAP1 SUB PUSH1 0x1F AND DUP3 ADD SWAP2 JUMPDEST POP POP POP POP POP DUP2 MSTORE PUSH1 0x20 ADD PUSH1 0x4 DUP3 ADD SLOAD DUP2 MSTORE PUSH1 0x20 ADD PUSH1 0x5 DUP3 ADD SLOAD DUP2 MSTORE PUSH1 0x20 ADD PUSH1 0x6 DUP3 ADD SLOAD DUP2 MSTORE PUSH1 0x20 ADD PUSH1 0x7 DUP3 ADD SLOAD DUP2 MSTORE PUSH1 0x20 ADD PUSH1 0x8 DUP3 ADD SLOAD DUP2 MSTORE POP POP DUP2 MSTORE PUSH1 0x20 ADD SWAP1 PUSH1 0x1 ADD SWAP1 PUSH2 0x3641 JUMP JUMPDEST PUSH1 0x1 PUSH1 0x1 PUSH1 0xA0 SHL SUB SWAP2 DUP3 AND PUSH1 0x0 SWAP1 DUP2 MSTORE PUSH1 0x1 PUSH1 0x20 SWAP1 DUP2 MSTORE PUSH1 0x40 DUP1 DUP4 KECCAK256 SWAP4 SWAP1 SWAP5 AND DUP3 MSTORE SWAP2 SWAP1 SWAP2 MSTORE KECCAK256 SLOAD PUSH1 0xFF AND SWAP1 JUMP JUMPDEST PUSH1 0x4 SLOAD PUSH1 0x1 PUSH1 0x1 PUSH1 0xA0 SHL SUB AND CALLER EQ PUSH2 0x38BE JUMPI PUSH1 0x40 MLOAD PUSH3 0x461BCD PUSH1 0xE5 SHL DUP2 MSTORE PUSH1 0x4 ADD PUSH2 0x98F SWAP1 PUSH2 0x5A8C JUMP JUMPDEST PUSH1 0x0 JUMPDEST PUSH1 0x12 SLOAD DUP2 LT ISZERO PUSH2 0x397C JUMPI DUP5 PUSH1 0x12 DUP3 DUP2 SLOAD DUP2 LT PUSH2 0x38DF JUMPI PUSH2 0x38DF PUSH2 0x5A49 JUMP JUMPDEST SWAP1 PUSH1 0x0 MSTORE PUSH1 0x20 PUSH1 0x0 KECCAK256 SWAP1 PUSH1 0x7 MUL ADD PUSH1 0x1 ADD SLOAD SUB PUSH2 0x3974 JUMPI PUSH1 0x40 MLOAD PUSH3 0x461BCD PUSH1 0xE5 SHL DUP2 MSTORE PUSH1 0x20 PUSH1 0x4 DUP3 ADD MSTORE PUSH1 0x47 PUSH1 0x24 DUP3 ADD MSTORE PUSH32 0xD090D183D0BAD186D0B8D0BED0BD20D18120D182D0B0D0BAD0BED0B920D0BAD0 PUSH1 0x44 DUP3 ADD MSTORE PUSH32 0xBED0BBD0BBD0B5D0BAD186D0B8D0B5D0B920D183D0B6D0B520D0B7D0B0D0BFD1 PUSH1 0x64 DUP3 ADD MSTORE PUSH7 0x83D189D0B5D0BD PUSH1 0xC8 SHL PUSH1 0x84 DUP3 ADD MSTORE PUSH1 0xA4 ADD PUSH2 0x98F JUMP JUMPDEST PUSH1 0x1 ADD PUSH2 0x38C1 JUMP JUMPDEST POP PUSH1 0x12 PUSH1 0x40 MLOAD DUP1 PUSH1 0xE0 ADD PUSH1 0x40 MSTORE DUP1 PUSH1 0x12 DUP1 SLOAD SWAP1 POP DUP2 MSTORE PUSH1 0x20 ADD DUP7 DUP2 MSTORE PUSH1 0x20 ADD DUP6 DUP2 MSTORE PUSH1 0x20 ADD DUP5 DUP2 MSTORE PUSH1 0x20 ADD PUSH1 0x3 SLOAD DUP5 PUSH2 0x39B5 SWAP2 SWAP1 PUSH2 0x5A75 JUMP JUMPDEST DUP2 MSTORE PUSH1 0x4 DUP1 SLOAD PUSH1 0x1 PUSH1 0x1 PUSH1 0xA0 SHL SUB SWAP1 DUP2 AND PUSH1 0x20 DUP1 DUP6 ADD SWAP2 SWAP1 SWAP2 MSTORE PUSH1 0xA PUSH1 0x40 SWAP5 DUP6 ADD MSTORE DUP6 SLOAD PUSH1 0x1 DUP1 DUP3 ADD DUP9 SSTORE PUSH1 0x0 SWAP8 DUP9 MSTORE SWAP7 DUP3 SWAP1 KECCAK256 DUP7 MLOAD PUSH1 0x7 SWAP1 SWAP3 MUL ADD SWAP1 DUP2 SSTORE SWAP1 DUP6 ADD MLOAD SWAP6 DUP2 ADD SWAP6 SWAP1 SWAP6 SSTORE SWAP2 DUP4 ADD MLOAD PUSH1 0x2 DUP6 ADD SSTORE PUSH1 0x60 DUP4 ADD MLOAD PUSH1 0x3 DUP6 ADD SSTORE PUSH1 0x80 DUP4 ADD MLOAD SWAP1 DUP5 ADD SSTORE PUSH1 0xA0 DUP3 ADD MLOAD PUSH1 0x5 DUP5 ADD DUP1 SLOAD PUSH1 0x1 PUSH1 0x1 PUSH1 0xA0 SHL SUB NOT AND SWAP2 SWAP1 SWAP3 AND OR SWAP1 SSTORE PUSH1 0xC0 ADD MLOAD PUSH1 0x6 SWAP1 SWAP2 ADD SSTORE POP POP POP POP JUMP JUMPDEST CALLER PUSH1 0x1 PUSH1 0x1 PUSH1 0xA0 SHL SUB DUP7 AND DUP2 EQ DUP1 ISZERO SWAP1 PUSH2 0x3A68 JUMPI POP PUSH2 0x3A66 DUP7 DUP3 PUSH2 0x3866 JUMP JUMPDEST ISZERO JUMPDEST ISZERO PUSH2 0x3A99 JUMPI PUSH1 0x40 MLOAD PUSH4 0x711BEC91 PUSH1 0xE1 SHL DUP2 MSTORE PUSH1 0x1 PUSH1 0x1 PUSH1 0xA0 SHL SUB DUP1 DUP4 AND PUSH1 0x4 DUP4 ADD MSTORE DUP8 AND PUSH1 0x24 DUP3 ADD MSTORE PUSH1 0x44 ADD PUSH2 0x98F JUMP JUMPDEST PUSH2 0x1D89 DUP7 DUP7 DUP7 DUP7 DUP7 PUSH2 0x4942 JUMP JUMPDEST PUSH1 0x4 SLOAD PUSH1 0x1 PUSH1 0x1 PUSH1 0xA0 SHL SUB AND CALLER EQ PUSH2 0x3AD0 JUMPI PUSH1 0x40 MLOAD PUSH3 0x461BCD PUSH1 0xE5 SHL DUP2 MSTORE PUSH1 0x4 ADD PUSH2 0x98F SWAP1 PUSH2 0x5A8C JUMP JUMPDEST PUSH1 0x40 DUP1 MLOAD PUSH1 0x80 DUP2 ADD DUP3 MSTORE DUP6 DUP2 MSTORE PUSH1 0x20 DUP1 DUP3 ADD DUP7 SWAP1 MSTORE DUP2 DUP4 ADD DUP6 SWAP1 MSTORE PUSH1 0x60 DUP3 ADD DUP5 SWAP1 MSTORE PUSH1 0x11 SLOAD PUSH1 0x0 SWAP1 DUP2 MSTORE PUSH1 0xA SWAP1 SWAP2 MSTORE SWAP2 SWAP1 SWAP2 KECCAK256 DUP2 MLOAD DUP2 SWAP1 PUSH2 0x3B11 SWAP1 DUP3 PUSH2 0x5B42 JUMP JUMPDEST POP PUSH1 0x20 DUP3 ADD MLOAD PUSH1 0x1 DUP3 ADD SWAP1 PUSH2 0x3B26 SWAP1 DUP3 PUSH2 0x5B42 JUMP JUMPDEST POP PUSH1 0x40 DUP3 ADD MLOAD DUP1 MLOAD PUSH2 0x3B42 SWAP2 PUSH1 0x2 DUP5 ADD SWAP2 PUSH1 0x20 SWAP1 SWAP2 ADD SWAP1 PUSH2 0x4F04 JUMP JUMPDEST POP PUSH1 0x60 DUP3 ADD MLOAD DUP1 MLOAD PUSH2 0x3B5E SWAP2 PUSH1 0x3 DUP5 ADD SWAP2 PUSH1 0x20 SWAP1 SWAP2 ADD SWAP1 PUSH2 0x4F04 JUMP JUMPDEST POP POP PUSH1 0x40 DUP1 MLOAD PUSH1 0x80 DUP2 ADD DUP3 MSTORE DUP7 DUP2 MSTORE PUSH1 0x20 DUP2 ADD DUP7 SWAP1 MSTORE SWAP1 DUP2 ADD DUP5 SWAP1 MSTORE PUSH1 0x60 DUP2 ADD DUP4 SWAP1 MSTORE PUSH1 0x11 DUP1 SLOAD PUSH1 0x1 DUP2 ADD DUP3 SSTORE PUSH1 0x0 SWAP2 SWAP1 SWAP2 MSTORE DUP2 MLOAD SWAP2 SWAP3 POP PUSH1 0x4 MUL PUSH32 0x31ECC21A745E3968A04E9570E4425BC18FA8019C68028196B546D1669C200C68 ADD SWAP1 DUP2 SWAP1 PUSH2 0x3BC8 SWAP1 DUP3 PUSH2 0x5B42 JUMP JUMPDEST POP PUSH1 0x20 DUP3 ADD MLOAD PUSH1 0x1 DUP3 ADD SWAP1 PUSH2 0x3BDD SWAP1 DUP3 PUSH2 0x5B42 JUMP JUMPDEST POP PUSH1 0x40 DUP3 ADD MLOAD DUP1 MLOAD PUSH2 0x3BF9 SWAP2 PUSH1 0x2 DUP5 ADD SWAP2 PUSH1 0x20 SWAP1 SWAP2 ADD SWAP1 PUSH2 0x4F04 JUMP JUMPDEST POP PUSH1 0x60 DUP3 ADD MLOAD DUP1 MLOAD PUSH2 0x3C15 SWAP2 PUSH1 0x3 DUP5 ADD SWAP2 PUSH1 0x20 SWAP1 SWAP2 ADD SWAP1 PUSH2 0x4F04 JUMP JUMPDEST POP POP POP PUSH1 0x0 JUMPDEST DUP3 MLOAD DUP2 LT ISZERO PUSH2 0x1FDB JUMPI PUSH1 0x1 PUSH1 0xD PUSH1 0x0 DUP6 DUP5 DUP2 MLOAD DUP2 LT PUSH2 0x3C3C JUMPI PUSH2 0x3C3C PUSH2 0x5A49 JUMP JUMPDEST PUSH1 0x20 SWAP1 DUP2 MUL SWAP2 SWAP1 SWAP2 ADD DUP2 ADD MLOAD DUP3 MSTORE DUP2 ADD SWAP2 SWAP1 SWAP2 MSTORE PUSH1 0x40 ADD PUSH1 0x0 KECCAK256 DUP1 SLOAD PUSH1 0xFF NOT AND SWAP2 ISZERO ISZERO SWAP2 SWAP1 SWAP2 OR SWAP1 SSTORE PUSH1 0x1 ADD PUSH2 0x3C1B JUMP JUMPDEST PUSH1 0x60 PUSH1 0x11 DUP1 SLOAD DUP1 PUSH1 0x20 MUL PUSH1 0x20 ADD PUSH1 0x40 MLOAD SWAP1 DUP2 ADD PUSH1 0x40 MSTORE DUP1 SWAP3 SWAP2 SWAP1 DUP2 DUP2 MSTORE PUSH1 0x20 ADD PUSH1 0x0 SWAP1 JUMPDEST DUP3 DUP3 LT ISZERO PUSH2 0x8F7 JUMPI DUP4 DUP3 SWAP1 PUSH1 0x0 MSTORE PUSH1 0x20 PUSH1 0x0 KECCAK256 SWAP1 PUSH1 0x4 MUL ADD PUSH1 0x40 MLOAD DUP1 PUSH1 0x80 ADD PUSH1 0x40 MSTORE SWAP1 DUP2 PUSH1 0x0 DUP3 ADD DUP1 SLOAD PUSH2 0x3CC4 SWAP1 PUSH2 0x5999 JUMP JUMPDEST DUP1 PUSH1 0x1F ADD PUSH1 0x20 DUP1 SWAP2 DIV MUL PUSH1 0x20 ADD PUSH1 0x40 MLOAD SWAP1 DUP2 ADD PUSH1 0x40 MSTORE DUP1 SWAP3 SWAP2 SWAP1 DUP2 DUP2 MSTORE PUSH1 0x20 ADD DUP3 DUP1 SLOAD PUSH2 0x3CF0 SWAP1 PUSH2 0x5999 JUMP JUMPDEST DUP1 ISZERO PUSH2 0x3D3D JUMPI DUP1 PUSH1 0x1F LT PUSH2 0x3D12 JUMPI PUSH2 0x100 DUP1 DUP4 SLOAD DIV MUL DUP4 MSTORE SWAP2 PUSH1 0x20 ADD SWAP2 PUSH2 0x3D3D JUMP JUMPDEST DUP3 ADD SWAP2 SWAP1 PUSH1 0x0 MSTORE PUSH1 0x20 PUSH1 0x0 KECCAK256 SWAP1 JUMPDEST DUP2 SLOAD DUP2 MSTORE SWAP1 PUSH1 0x1 ADD SWAP1 PUSH1 0x20 ADD DUP1 DUP4 GT PUSH2 0x3D20 JUMPI DUP3 SWAP1 SUB PUSH1 0x1F AND DUP3 ADD SWAP2 JUMPDEST POP POP POP POP POP DUP2 MSTORE PUSH1 0x20 ADD PUSH1 0x1 DUP3 ADD DUP1 SLOAD PUSH2 0x3D56 SWAP1 PUSH2 0x5999 JUMP JUMPDEST DUP1 PUSH1 0x1F ADD PUSH1 0x20 DUP1 SWAP2 DIV MUL PUSH1 0x20 ADD PUSH1 0x40 MLOAD SWAP1 DUP2 ADD PUSH1 0x40 MSTORE DUP1 SWAP3 SWAP2 SWAP1 DUP2 DUP2 MSTORE PUSH1 0x20 ADD DUP3 DUP1 SLOAD PUSH2 0x3D82 SWAP1 PUSH2 0x5999 JUMP JUMPDEST DUP1 ISZERO PUSH2 0x3DCF JUMPI DUP1 PUSH1 0x1F LT PUSH2 0x3DA4 JUMPI PUSH2 0x100 DUP1 DUP4 SLOAD DIV MUL DUP4 MSTORE SWAP2 PUSH1 0x20 ADD SWAP2 PUSH2 0x3DCF JUMP JUMPDEST DUP3 ADD SWAP2 SWAP1 PUSH1 0x0 MSTORE PUSH1 0x20 PUSH1 0x0 KECCAK256 SWAP1 JUMPDEST DUP2 SLOAD DUP2 MSTORE SWAP1 PUSH1 0x1 ADD SWAP1 PUSH1 0x20 ADD DUP1 DUP4 GT PUSH2 0x3DB2 JUMPI DUP3 SWAP1 SUB PUSH1 0x1F AND DUP3 ADD SWAP2 JUMPDEST POP POP POP POP POP DUP2 MSTORE PUSH1 0x20 ADD PUSH1 0x2 DUP3 ADD DUP1 SLOAD DUP1 PUSH1 0x20 MUL PUSH1 0x20 ADD PUSH1 0x40 MLOAD SWAP1 DUP2 ADD PUSH1 0x40 MSTORE DUP1 SWAP3 SWAP2 SWAP1 DUP2 DUP2 MSTORE PUSH1 0x20 ADD DUP3 DUP1 SLOAD DUP1 ISZERO PUSH2 0x3E27 JUMPI PUSH1 0x20 MUL DUP3 ADD SWAP2 SWAP1 PUSH1 0x0 MSTORE PUSH1 0x20 PUSH1 0x0 KECCAK256 SWAP1 JUMPDEST DUP2 SLOAD DUP2 MSTORE PUSH1 0x20 ADD SWAP1 PUSH1 0x1 ADD SWAP1 DUP1 DUP4 GT PUSH2 0x3E13 JUMPI JUMPDEST POP POP POP POP POP DUP2 MSTORE PUSH1 0x20 ADD PUSH1 0x3 DUP3 ADD DUP1 SLOAD DUP1 PUSH1 0x20 MUL PUSH1 0x20 ADD PUSH1 0x40 MLOAD SWAP1 DUP2 ADD PUSH1 0x40 MSTORE DUP1 SWAP3 SWAP2 SWAP1 DUP2 DUP2 MSTORE PUSH1 0x20 ADD DUP3 DUP1 SLOAD DUP1 ISZERO PUSH2 0x3E7F JUMPI PUSH1 0x20 MUL DUP3 ADD SWAP2 SWAP1 PUSH1 0x0 MSTORE PUSH1 0x20 PUSH1 0x0 KECCAK256 SWAP1 JUMPDEST DUP2 SLOAD DUP2 MSTORE PUSH1 0x20 ADD SWAP1 PUSH1 0x1 ADD SWAP1 DUP1 DUP4 GT PUSH2 0x3E6B JUMPI JUMPDEST POP POP POP POP POP DUP2 MSTORE POP POP DUP2 MSTORE PUSH1 0x20 ADD SWAP1 PUSH1 0x1 ADD SWAP1 PUSH2 0x3C91 JUMP JUMPDEST PUSH1 0x12 DUP2 DUP2 SLOAD DUP2 LT PUSH2 0x3EAA JUMPI PUSH2 0x3EAA PUSH2 0x5A49 JUMP JUMPDEST SWAP1 PUSH1 0x0 MSTORE PUSH1 0x20 PUSH1 0x0 KECCAK256 SWAP1 PUSH1 0x7 MUL ADD PUSH1 0x4 ADD SLOAD PUSH1 0x0 EQ DUP1 PUSH2 0x3F02 JUMPI POP PUSH1 0x0 PUSH1 0x1 PUSH1 0x1 PUSH1 0xA0 SHL SUB AND PUSH1 0x12 DUP3 DUP2 SLOAD DUP2 LT PUSH2 0x3EE3 JUMPI PUSH2 0x3EE3 PUSH2 0x5A49 JUMP JUMPDEST PUSH1 0x0 SWAP2 DUP3 MSTORE PUSH1 0x20 SWAP1 SWAP2 KECCAK256 PUSH1 0x5 PUSH1 0x7 SWAP1 SWAP3 MUL ADD ADD SLOAD PUSH1 0x1 PUSH1 0x1 PUSH1 0xA0 SHL SUB AND EQ JUMPDEST PUSH2 0x3F62 JUMPI PUSH1 0x40 MLOAD PUSH3 0x461BCD PUSH1 0xE5 SHL DUP2 MSTORE PUSH1 0x20 PUSH1 0x4 DUP3 ADD MSTORE PUSH1 0x2B PUSH1 0x24 DUP3 ADD MSTORE PUSH32 0xD090D183D0BAD186D0B8D0BED0BD20D0B5D189D19120D0BDD0B520D0B7D0B0D0 PUSH1 0x44 DUP3 ADD MSTORE PUSH11 0xB2D0B5D180D188D0B5D0BD PUSH1 0xA8 SHL PUSH1 0x64 DUP3 ADD MSTORE PUSH1 0x84 ADD PUSH2 0x98F JUMP JUMPDEST CALLER PUSH1 0x1 PUSH1 0x1 PUSH1 0xA0 SHL SUB AND PUSH1 0x12 DUP3 DUP2 SLOAD DUP2 LT PUSH2 0x3F7F JUMPI PUSH2 0x3F7F PUSH2 0x5A49 JUMP JUMPDEST PUSH1 0x0 SWAP2 DUP3 MSTORE PUSH1 0x20 SWAP1 SWAP2 KECCAK256 PUSH1 0x5 PUSH1 0x7 SWAP1 SWAP3 MUL ADD ADD SLOAD PUSH1 0x1 PUSH1 0x1 PUSH1 0xA0 SHL SUB AND EQ PUSH2 0x4002 JUMPI PUSH1 0x40 MLOAD PUSH3 0x461BCD PUSH1 0xE5 SHL DUP2 MSTORE PUSH1 0x20 PUSH1 0x4 DUP3 ADD MSTORE PUSH1 0x30 PUSH1 0x24 DUP3 ADD MSTORE PUSH32 0xD092D18B20D0BDD0B520D0BFD0BED0B1D0B5D0B4D0B8D182D0B5D0BBD18C20D0 PUSH1 0x44 DUP3 ADD MSTORE PUSH16 0x5868C1E85D68C3685C685F685EE8581 PUSH1 0x85 SHL PUSH1 0x64 DUP3 ADD MSTORE PUSH1 0x84 ADD PUSH2 0x98F JUMP JUMPDEST PUSH1 0x4 SLOAD PUSH1 0x12 DUP1 SLOAD PUSH2 0x402D SWAP3 PUSH1 0x1 PUSH1 0x1 PUSH1 0xA0 SHL SUB AND SWAP2 CALLER SWAP2 PUSH1 0x11 SWAP2 SWAP1 DUP7 SWAP1 DUP2 LT PUSH2 0xB46 JUMPI PUSH2 0xB46 PUSH2 0x5A49 JUMP JUMPDEST PUSH1 0x0 JUMPDEST PUSH1 0x11 PUSH1 0x12 DUP4 DUP2 SLOAD DUP2 LT PUSH2 0x4045 JUMPI PUSH2 0x4045 PUSH2 0x5A49 JUMP JUMPDEST SWAP1 PUSH1 0x0 MSTORE PUSH1 0x20 PUSH1 0x0 KECCAK256 SWAP1 PUSH1 0x7 MUL ADD PUSH1 0x1 ADD SLOAD DUP2 SLOAD DUP2 LT PUSH2 0x4067 JUMPI PUSH2 0x4067 PUSH2 0x5A49 JUMP JUMPDEST SWAP1 PUSH1 0x0 MSTORE PUSH1 0x20 PUSH1 0x0 KECCAK256 SWAP1 PUSH1 0x4 MUL ADD PUSH1 0x2 ADD DUP1 SLOAD SWAP1 POP DUP2 LT ISZERO PUSH2 0x1422 JUMPI PUSH1 0x9 PUSH1 0x0 CALLER PUSH1 0x1 PUSH1 0x1 PUSH1 0xA0 SHL SUB AND PUSH1 0x1 PUSH1 0x1 PUSH1 0xA0 SHL SUB AND DUP2 MSTORE PUSH1 0x20 ADD SWAP1 DUP2 MSTORE PUSH1 0x20 ADD PUSH1 0x0 KECCAK256 PUSH1 0x40 MLOAD DUP1 PUSH2 0x120 ADD PUSH1 0x40 MSTORE DUP1 PUSH1 0x9 PUSH1 0x0 PUSH1 0x12 DUP8 DUP2 SLOAD DUP2 LT PUSH2 0x40CB JUMPI PUSH2 0x40CB PUSH2 0x5A49 JUMP JUMPDEST SWAP1 PUSH1 0x0 MSTORE PUSH1 0x20 PUSH1 0x0 KECCAK256 SWAP1 PUSH1 0x7 MUL ADD PUSH1 0x5 ADD PUSH1 0x0 SWAP1 SLOAD SWAP1 PUSH2 0x100 EXP SWAP1 DIV PUSH1 0x1 PUSH1 0x1 PUSH1 0xA0 SHL SUB AND PUSH1 0x1 PUSH1 0x1 PUSH1 0xA0 SHL SUB AND PUSH1 0x1 PUSH1 0x1 PUSH1 0xA0 SHL SUB AND DUP2 MSTORE PUSH1 0x20 ADD SWAP1 DUP2 MSTORE PUSH1 0x20 ADD PUSH1 0x0 KECCAK256 DUP1 SLOAD SWAP1 POP DUP2 MSTORE PUSH1 0x20 ADD PUSH1 0x8 PUSH1 0x0 PUSH1 0xA PUSH1 0x0 PUSH1 0x12 DUP10 DUP2 SLOAD DUP2 LT PUSH2 0x4134 JUMPI PUSH2 0x4134 PUSH2 0x5A49 JUMP JUMPDEST SWAP1 PUSH1 0x0 MSTORE PUSH1 0x20 PUSH1 0x0 KECCAK256 SWAP1 PUSH1 0x7 MUL ADD PUSH1 0x1 ADD SLOAD DUP2 MSTORE PUSH1 0x20 ADD SWAP1 DUP2 MSTORE PUSH1 0x20 ADD PUSH1 0x0 KECCAK256 PUSH1 0x2 ADD DUP7 DUP2 SLOAD DUP2 LT PUSH2 0x4168 JUMPI PUSH2 0x4168 PUSH2 0x5A49 JUMP JUMPDEST SWAP1 PUSH1 0x0 MSTORE PUSH1 0x20 PUSH1 0x0 KECCAK256 ADD SLOAD DUP2 MSTORE PUSH1 0x20 ADD SWAP1 DUP2 MSTORE PUSH1 0x20 ADD PUSH1 0x0 KECCAK256 PUSH1 0x1 ADD DUP1 SLOAD PUSH2 0x418F SWAP1 PUSH2 0x5999 JUMP JUMPDEST DUP1 PUSH1 0x1F ADD PUSH1 0x20 DUP1 SWAP2 DIV MUL PUSH1 0x20 ADD PUSH1 0x40 MLOAD SWAP1 DUP2 ADD PUSH1 0x40 MSTORE DUP1 SWAP3 SWAP2 SWAP1 DUP2 DUP2 MSTORE PUSH1 0x20 ADD DUP3 DUP1 SLOAD PUSH2 0x41BB SWAP1 PUSH2 0x5999 JUMP JUMPDEST DUP1 ISZERO PUSH2 0x4208 JUMPI DUP1 PUSH1 0x1F LT PUSH2 0x41DD JUMPI PUSH2 0x100 DUP1 DUP4 SLOAD DIV MUL DUP4 MSTORE SWAP2 PUSH1 0x20 ADD SWAP2 PUSH2 0x4208 JUMP JUMPDEST DUP3 ADD SWAP2 SWAP1 PUSH1 0x0 MSTORE PUSH1 0x20 PUSH1 0x0 KECCAK256 SWAP1 JUMPDEST DUP2 SLOAD DUP2 MSTORE SWAP1 PUSH1 0x1 ADD SWAP1 PUSH1 0x20 ADD DUP1 DUP4 GT PUSH2 0x41EB JUMPI DUP3 SWAP1 SUB PUSH1 0x1F AND DUP3 ADD SWAP2 JUMPDEST POP POP POP POP POP DUP2 MSTORE PUSH1 0x20 ADD PUSH1 0x8 PUSH1 0x0 PUSH1 0xA PUSH1 0x0 PUSH1 0x12 DUP10 DUP2 SLOAD DUP2 LT PUSH2 0x422D JUMPI PUSH2 0x422D PUSH2 0x5A49 JUMP JUMPDEST SWAP1 PUSH1 0x0 MSTORE PUSH1 0x20 PUSH1 0x0 KECCAK256 SWAP1 PUSH1 0x7 MUL ADD PUSH1 0x1 ADD SLOAD DUP2 MSTORE PUSH1 0x20 ADD SWAP1 DUP2 MSTORE PUSH1 0x20 ADD PUSH1 0x0 KECCAK256 PUSH1 0x2 ADD DUP7 DUP2 SLOAD DUP2 LT PUSH2 0x4261 JUMPI PUSH2 0x4261 PUSH2 0x5A49 JUMP JUMPDEST SWAP1 PUSH1 0x0 MSTORE PUSH1 0x20 PUSH1 0x0 KECCAK256 ADD SLOAD DUP2 MSTORE PUSH1 0x20 ADD SWAP1 DUP2 MSTORE PUSH1 0x20 ADD PUSH1 0x0 KECCAK256 PUSH1 0x2 ADD DUP1 SLOAD PUSH2 0x4288 SWAP1 PUSH2 0x5999 JUMP JUMPDEST DUP1 PUSH1 0x1F ADD PUSH1 0x20 DUP1 SWAP2 DIV MUL PUSH1 0x20 ADD PUSH1 0x40 MLOAD SWAP1 DUP2 ADD PUSH1 0x40 MSTORE DUP1 SWAP3 SWAP2 SWAP1 DUP2 DUP2 MSTORE PUSH1 0x20 ADD DUP3 DUP1 SLOAD PUSH2 0x42B4 SWAP1 PUSH2 0x5999 JUMP JUMPDEST DUP1 ISZERO PUSH2 0x4301 JUMPI DUP1 PUSH1 0x1F LT PUSH2 0x42D6 JUMPI PUSH2 0x100 DUP1 DUP4 SLOAD DIV MUL DUP4 MSTORE SWAP2 PUSH1 0x20 ADD SWAP2 PUSH2 0x4301 JUMP JUMPDEST DUP3 ADD SWAP2 SWAP1 PUSH1 0x0 MSTORE PUSH1 0x20 PUSH1 0x0 KECCAK256 SWAP1 JUMPDEST DUP2 SLOAD DUP2 MSTORE SWAP1 PUSH1 0x1 ADD SWAP1 PUSH1 0x20 ADD DUP1 DUP4 GT PUSH2 0x42E4 JUMPI DUP3 SWAP1 SUB PUSH1 0x1F AND DUP3 ADD SWAP2 JUMPDEST POP POP POP POP POP DUP2 MSTORE PUSH1 0x20 ADD PUSH1 0x8 PUSH1 0x0 PUSH1 0xA PUSH1 0x0 PUSH1 0x12 DUP10 DUP2 SLOAD DUP2 LT PUSH2 0x4326 JUMPI PUSH2 0x4326 PUSH2 0x5A49 JUMP JUMPDEST SWAP1 PUSH1 0x0 MSTORE PUSH1 0x20 PUSH1 0x0 KECCAK256 SWAP1 PUSH1 0x7 MUL ADD PUSH1 0x1 ADD SLOAD DUP2 MSTORE PUSH1 0x20 ADD SWAP1 DUP2 MSTORE PUSH1 0x20 ADD PUSH1 0x0 KECCAK256 PUSH1 0x2 ADD DUP7 DUP2 SLOAD DUP2 LT PUSH2 0x435A JUMPI PUSH2 0x435A PUSH2 0x5A49 JUMP JUMPDEST SWAP1 PUSH1 0x0 MSTORE PUSH1 0x20 PUSH1 0x0 KECCAK256 ADD SLOAD DUP2 MSTORE PUSH1 0x20 ADD SWAP1 DUP2 MSTORE PUSH1 0x20 ADD PUSH1 0x0 KECCAK256 PUSH1 0x3 ADD DUP1 SLOAD PUSH2 0x4381 SWAP1 PUSH2 0x5999 JUMP JUMPDEST DUP1 PUSH1 0x1F ADD PUSH1 0x20 DUP1 SWAP2 DIV MUL PUSH1 0x20 ADD PUSH1 0x40 MLOAD SWAP1 DUP2 ADD PUSH1 0x40 MSTORE DUP1 SWAP3 SWAP2 SWAP1 DUP2 DUP2 MSTORE PUSH1 0x20 ADD DUP3 DUP1 SLOAD PUSH2 0x43AD SWAP1 PUSH2 0x5999 JUMP JUMPDEST DUP1 ISZERO PUSH2 0x43FA JUMPI DUP1 PUSH1 0x1F LT PUSH2 0x43CF JUMPI PUSH2 0x100 DUP1 DUP4 SLOAD DIV MUL DUP4 MSTORE SWAP2 PUSH1 0x20 ADD SWAP2 PUSH2 0x43FA JUMP JUMPDEST DUP3 ADD SWAP2 SWAP1 PUSH1 0x0 MSTORE PUSH1 0x20 PUSH1 0x0 KECCAK256 SWAP1 JUMPDEST DUP2 SLOAD DUP2 MSTORE SWAP1 PUSH1 0x1 ADD SWAP1 PUSH1 0x20 ADD DUP1 DUP4 GT PUSH2 0x43DD JUMPI DUP3 SWAP1 SUB PUSH1 0x1F AND DUP3 ADD SWAP2 JUMPDEST POP POP POP POP POP DUP2 MSTORE PUSH1 0x20 ADD PUSH1 0x8 PUSH1 0x0 PUSH1 0xA PUSH1 0x0 PUSH1 0x12 DUP10 DUP2 SLOAD DUP2 LT PUSH2 0x441F JUMPI PUSH2 0x441F PUSH2 0x5A49 JUMP JUMPDEST SWAP1 PUSH1 0x0 MSTORE PUSH1 0x20 PUSH1 0x0 KECCAK256 SWAP1 PUSH1 0x7 MUL ADD PUSH1 0x1 ADD SLOAD DUP2 MSTORE PUSH1 0x20 ADD SWAP1 DUP2 MSTORE PUSH1 0x20 ADD PUSH1 0x0 KECCAK256 PUSH1 0x2 ADD DUP7 DUP2 SLOAD DUP2 LT PUSH2 0x4453 JUMPI PUSH2 0x4453 PUSH2 0x5A49 JUMP JUMPDEST SWAP1 PUSH1 0x0 MSTORE PUSH1 0x20 PUSH1 0x0 KECCAK256 ADD SLOAD DUP2 MSTORE PUSH1 0x20 ADD SWAP1 DUP2 MSTORE PUSH1 0x20 ADD PUSH1 0x0 KECCAK256 PUSH1 0x6 ADD SLOAD DUP2 MSTORE PUSH1 0x20 ADD PUSH1 0x8 PUSH1 0x0 PUSH1 0xA PUSH1 0x0 PUSH1 0x12 DUP10 DUP2 SLOAD DUP2 LT PUSH2 0x4490 JUMPI PUSH2 0x4490 PUSH2 0x5A49 JUMP JUMPDEST SWAP1 PUSH1 0x0 MSTORE PUSH1 0x20 PUSH1 0x0 KECCAK256 SWAP1 PUSH1 0x7 MUL ADD PUSH1 0x1 ADD SLOAD DUP2 MSTORE PUSH1 0x20 ADD SWAP1 DUP2 MSTORE PUSH1 0x20 ADD PUSH1 0x0 KECCAK256 PUSH1 0x2 ADD DUP7 DUP2 SLOAD DUP2 LT PUSH2 0x44C4 JUMPI PUSH2 0x44C4 PUSH2 0x5A49 JUMP JUMPDEST SWAP1 PUSH1 0x0 MSTORE PUSH1 0x20 PUSH1 0x0 KECCAK256 ADD SLOAD DUP2 MSTORE PUSH1 0x20 ADD SWAP1 DUP2 MSTORE PUSH1 0x20 ADD PUSH1 0x0 KECCAK256 PUSH1 0x6 ADD SLOAD DUP2 MSTORE PUSH1 0x20 ADD PUSH1 0x3 SLOAD PUSH1 0x1 PUSH2 0x44F5 SWAP2 SWAP1 PUSH2 0x5A75 JUMP JUMPDEST DUP2 MSTORE PUSH1 0x20 ADD PUSH1 0x8 PUSH1 0x0 PUSH1 0xA PUSH1 0x0 PUSH1 0x12 DUP10 DUP2 SLOAD DUP2 LT PUSH2 0x4515 JUMPI PUSH2 0x4515 PUSH2 0x5A49 JUMP JUMPDEST SWAP1 PUSH1 0x0 MSTORE PUSH1 0x20 PUSH1 0x0 KECCAK256 SWAP1 PUSH1 0x7 MUL ADD PUSH1 0x1 ADD SLOAD DUP2 MSTORE PUSH1 0x20 ADD SWAP1 DUP2 MSTORE PUSH1 0x20 ADD PUSH1 0x0 KECCAK256 PUSH1 0x2 ADD DUP7 DUP2 SLOAD DUP2 LT PUSH2 0x4549 JUMPI PUSH2 0x4549 PUSH2 0x5A49 JUMP JUMPDEST SWAP1 PUSH1 0x0 MSTORE PUSH1 0x20 PUSH1 0x0 KECCAK256 ADD SLOAD DUP2 MSTORE PUSH1 0x20 ADD SWAP1 DUP2 MSTORE PUSH1 0x20 ADD PUSH1 0x0 KECCAK256 PUSH1 0x7 ADD SLOAD DUP2 MSTORE PUSH1 0x20 ADD PUSH1 0x8 PUSH1 0x0 PUSH1 0xA PUSH1 0x0 PUSH1 0x12 DUP10 DUP2 SLOAD DUP2 LT PUSH2 0x4586 JUMPI PUSH2 0x4586 PUSH2 0x5A49 JUMP JUMPDEST SWAP1 PUSH1 0x0 MSTORE PUSH1 0x20 PUSH1 0x0 KECCAK256 SWAP1 PUSH1 0x7 MUL ADD PUSH1 0x1 ADD SLOAD DUP2 MSTORE PUSH1 0x20 ADD SWAP1 DUP2 MSTORE PUSH1 0x20 ADD PUSH1 0x0 KECCAK256 PUSH1 0x2 ADD DUP7 DUP2 SLOAD DUP2 LT PUSH2 0x45BA JUMPI PUSH2 0x45BA PUSH2 0x5A49 JUMP JUMPDEST PUSH1 0x0 SWAP2 DUP3 MSTORE PUSH1 0x20 DUP1 DUP4 KECCAK256 SWAP1 SWAP2 ADD SLOAD DUP4 MSTORE DUP3 DUP2 ADD SWAP4 SWAP1 SWAP4 MSTORE PUSH1 0x40 SWAP1 SWAP2 ADD DUP2 KECCAK256 PUSH1 0x8 ADD SLOAD SWAP1 SWAP3 MSTORE DUP4 SLOAD PUSH1 0x1 DUP2 DUP2 ADD DUP7 SSTORE SWAP5 DUP4 MSTORE SWAP2 DUP2 SWAP1 KECCAK256 DUP4 MLOAD PUSH1 0x9 SWAP1 SWAP4 MUL ADD SWAP2 DUP3 SSTORE DUP3 ADD MLOAD SWAP2 SWAP3 SWAP1 SWAP2 SWAP1 DUP3 ADD SWAP1 PUSH2 0x460F SWAP1 DUP3 PUSH2 0x5B42 JUMP JUMPDEST POP PUSH1 0x40 DUP3 ADD MLOAD PUSH1 0x2 DUP3 ADD SWAP1 PUSH2 0x4624 SWAP1 DUP3 PUSH2 0x5B42 JUMP JUMPDEST POP PUSH1 0x60 DUP3 ADD MLOAD PUSH1 0x3 DUP3 ADD SWAP1 PUSH2 0x4639 SWAP1 DUP3 PUSH2 0x5B42 JUMP JUMPDEST POP PUSH1 0x80 DUP3 ADD MLOAD DUP2 PUSH1 0x4 ADD SSTORE PUSH1 0xA0 DUP3 ADD MLOAD DUP2 PUSH1 0x5 ADD SSTORE PUSH1 0xC0 DUP3 ADD MLOAD DUP2 PUSH1 0x6 ADD SSTORE PUSH1 0xE0 DUP3 ADD MLOAD DUP2 PUSH1 0x7 ADD SSTORE PUSH2 0x100 DUP3 ADD MLOAD DUP2 PUSH1 0x8 ADD SSTORE POP POP PUSH1 0x0 PUSH1 0xD PUSH1 0x0 PUSH1 0xA PUSH1 0x0 PUSH1 0x12 DUP8 DUP2 SLOAD DUP2 LT PUSH2 0x468C JUMPI PUSH2 0x468C PUSH2 0x5A49 JUMP JUMPDEST SWAP1 PUSH1 0x0 MSTORE PUSH1 0x20 PUSH1 0x0 KECCAK256 SWAP1 PUSH1 0x7 MUL ADD PUSH1 0x1 ADD SLOAD DUP2 MSTORE PUSH1 0x20 ADD SWAP1 DUP2 MSTORE PUSH1 0x20 ADD PUSH1 0x0 KECCAK256 PUSH1 0x2 ADD DUP5 DUP2 SLOAD DUP2 LT PUSH2 0x46C0 JUMPI PUSH2 0x46C0 PUSH2 0x5A49 JUMP JUMPDEST PUSH1 0x0 SWAP2 DUP3 MSTORE PUSH1 0x20 DUP1 DUP4 KECCAK256 SWAP2 SWAP1 SWAP2 ADD SLOAD DUP4 MSTORE DUP3 DUP2 ADD SWAP4 SWAP1 SWAP4 MSTORE PUSH1 0x40 SWAP2 DUP3 ADD DUP2 KECCAK256 DUP1 SLOAD PUSH1 0xFF NOT AND SWAP5 ISZERO ISZERO SWAP5 SWAP1 SWAP5 OR SWAP1 SWAP4 SSTORE PUSH1 0x4 SLOAD PUSH1 0x1 PUSH1 0x1 PUSH1 0xA0 SHL SUB AND DUP4 MSTORE PUSH1 0x9 SWAP1 SWAP2 MSTORE DUP2 KECCAK256 PUSH1 0x12 DUP1 SLOAD SWAP2 SWAP3 PUSH1 0x8 SWAP3 SWAP1 SWAP2 PUSH1 0xA SWAP2 DUP4 SWAP2 SWAP1 DUP9 SWAP1 DUP2 LT PUSH2 0x4725 JUMPI PUSH2 0x4725 PUSH2 0x5A49 JUMP JUMPDEST SWAP1 PUSH1 0x0 MSTORE PUSH1 0x20 PUSH1 0x0 KECCAK256 SWAP1 PUSH1 0x7 MUL ADD PUSH1 0x1 ADD SLOAD DUP2 MSTORE PUSH1 0x20 ADD SWAP1 DUP2 MSTORE PUSH1 0x20 ADD PUSH1 0x0 KECCAK256 PUSH1 0x2 ADD DUP5 DUP2 SLOAD DUP2 LT PUSH2 0x4759 JUMPI PUSH2 0x4759 PUSH2 0x5A49 JUMP JUMPDEST SWAP1 PUSH1 0x0 MSTORE PUSH1 0x20 PUSH1 0x0 KECCAK256 ADD SLOAD DUP2 MSTORE PUSH1 0x20 ADD SWAP1 DUP2 MSTORE PUSH1 0x20 ADD PUSH1 0x0 KECCAK256 PUSH1 0x0 ADD SLOAD DUP2 SLOAD DUP2 LT PUSH2 0x4786 JUMPI PUSH2 0x4786 PUSH2 0x5A49 JUMP JUMPDEST PUSH1 0x0 SWAP2 DUP3 MSTORE PUSH1 0x20 DUP3 KECCAK256 PUSH1 0x9 SWAP1 SWAP2 MUL ADD DUP2 DUP2 SSTORE SWAP1 PUSH2 0x47A6 PUSH1 0x1 DUP4 ADD DUP3 PUSH2 0x4E44 JUMP JUMPDEST PUSH2 0x47B4 PUSH1 0x2 DUP4 ADD PUSH1 0x0 PUSH2 0x4E44 JUMP JUMPDEST PUSH2 0x47C2 PUSH1 0x3 DUP4 ADD PUSH1 0x0 PUSH2 0x4E44 JUMP JUMPDEST POP PUSH1 0x0 PUSH1 0x4 DUP3 ADD DUP2 SWAP1 SSTORE PUSH1 0x5 DUP3 ADD DUP2 SWAP1 SSTORE PUSH1 0x6 DUP3 ADD DUP2 SWAP1 SSTORE PUSH1 0x7 DUP3 ADD DUP2 SWAP1 SSTORE PUSH1 0x8 SWAP1 SWAP2 ADD SSTORE PUSH1 0x1 ADD PUSH2 0x4030 JUMP JUMPDEST PUSH1 0x1 PUSH1 0x1 PUSH1 0xA0 SHL SUB DUP5 AND PUSH2 0x4819 JUMPI PUSH1 0x40 MLOAD PUSH4 0x2BFA23E7 PUSH1 0xE1 SHL DUP2 MSTORE PUSH1 0x0 PUSH1 0x4 DUP3 ADD MSTORE PUSH1 0x24 ADD PUSH2 0x98F JUMP JUMPDEST PUSH1 0x1 PUSH1 0x1 PUSH1 0xA0 SHL SUB DUP6 AND PUSH2 0x4842 JUMPI PUSH1 0x40 MLOAD PUSH3 0x6A0D45 PUSH1 0xE2 SHL DUP2 MSTORE PUSH1 0x0 PUSH1 0x4 DUP3 ADD MSTORE PUSH1 0x24 ADD PUSH2 0x98F JUMP JUMPDEST PUSH2 0x1FDB DUP6 DUP6 DUP6 DUP6 DUP6 PUSH2 0x49D0 JUMP JUMPDEST PUSH1 0x1 PUSH1 0x1 PUSH1 0xA0 SHL SUB DUP5 AND PUSH2 0x4879 JUMPI PUSH1 0x40 MLOAD PUSH4 0x2BFA23E7 PUSH1 0xE1 SHL DUP2 MSTORE PUSH1 0x0 PUSH1 0x4 DUP3 ADD MSTORE PUSH1 0x24 ADD PUSH2 0x98F JUMP JUMPDEST PUSH1 0x40 DUP1 MLOAD PUSH1 0x1 DUP1 DUP3 MSTORE PUSH1 0x20 DUP3 ADD DUP7 SWAP1 MSTORE DUP2 DUP4 ADD SWAP1 DUP2 MSTORE PUSH1 0x60 DUP3 ADD DUP6 SWAP1 MSTORE PUSH1 0x80 DUP3 ADD SWAP1 SWAP3 MSTORE SWAP1 PUSH2 0x1D89 PUSH1 0x0 DUP8 DUP5 DUP5 DUP8 PUSH2 0x49D0 JUMP JUMPDEST PUSH1 0x1 PUSH1 0x1 PUSH1 0xA0 SHL SUB DUP3 AND PUSH2 0x48D5 JUMPI PUSH1 0x40 MLOAD PUSH3 0xCED3E1 PUSH1 0xE8 SHL DUP2 MSTORE PUSH1 0x0 PUSH1 0x4 DUP3 ADD MSTORE PUSH1 0x24 ADD PUSH2 0x98F JUMP JUMPDEST PUSH1 0x1 PUSH1 0x1 PUSH1 0xA0 SHL SUB DUP4 DUP2 AND PUSH1 0x0 DUP2 DUP2 MSTORE PUSH1 0x1 PUSH1 0x20 SWAP1 DUP2 MSTORE PUSH1 0x40 DUP1 DUP4 KECCAK256 SWAP5 DUP8 AND DUP1 DUP5 MSTORE SWAP5 DUP3 MSTORE SWAP2 DUP3 SWAP1 KECCAK256 DUP1 SLOAD PUSH1 0xFF NOT AND DUP7 ISZERO ISZERO SWAP1 DUP2 OR SWAP1 SWAP2 SSTORE SWAP2 MLOAD SWAP2 DUP3 MSTORE PUSH32 0x17307EAB39AB6107E8899845AD3D59BD9653F200F220920489CA2B5937696C31 SWAP2 ADD PUSH1 0x40 MLOAD DUP1 SWAP2 SUB SWAP1 LOG3 POP POP POP JUMP JUMPDEST PUSH1 0x1 PUSH1 0x1 PUSH1 0xA0 SHL SUB DUP5 AND PUSH2 0x496C JUMPI PUSH1 0x40 MLOAD PUSH4 0x2BFA23E7 PUSH1 0xE1 SHL DUP2 MSTORE PUSH1 0x0 PUSH1 0x4 DUP3 ADD MSTORE PUSH1 0x24 ADD PUSH2 0x98F JUMP JUMPDEST PUSH1 0x1 PUSH1 0x1 PUSH1 0xA0 SHL SUB DUP6 AND PUSH2 0x4995 JUMPI PUSH1 0x40 MLOAD PUSH3 0x6A0D45 PUSH1 0xE2 SHL DUP2 MSTORE PUSH1 0x0 PUSH1 0x4 DUP3 ADD MSTORE PUSH1 0x24 ADD PUSH2 0x98F JUMP JUMPDEST PUSH1 0x40 DUP1 MLOAD PUSH1 0x1 DUP1 DUP3 MSTORE PUSH1 0x20 DUP3 ADD DUP7 SWAP1 MSTORE DUP2 DUP4 ADD SWAP1 DUP2 MSTORE PUSH1 0x60 DUP3 ADD DUP6 SWAP1 MSTORE PUSH1 0x80 DUP3 ADD SWAP1 SWAP3 MSTORE SWAP1 PUSH2 0x49C7 DUP8 DUP8 DUP5 DUP5 DUP8 PUSH2 0x49D0 JUMP JUMPDEST POP POP POP POP POP POP POP JUMP JUMPDEST PUSH2 0x49DC DUP6 DUP6 DUP6 DUP6 PUSH2 0x4A23 JUMP JUMPDEST PUSH1 0x1 PUSH1 0x1 PUSH1 0xA0 SHL SUB DUP5 AND ISZERO PUSH2 0x1FDB JUMPI DUP3 MLOAD CALLER SWAP1 PUSH1 0x1 SUB PUSH2 0x4A15 JUMPI PUSH1 0x20 DUP5 DUP2 ADD MLOAD SWAP1 DUP5 ADD MLOAD PUSH2 0x4A0E DUP4 DUP10 DUP10 DUP6 DUP6 DUP10 PUSH2 0x4C37 JUMP JUMPDEST POP POP PUSH2 0x1D89 JUMP JUMPDEST PUSH2 0x1D89 DUP2 DUP8 DUP8 DUP8 DUP8 DUP8 PUSH2 0x4D5B JUMP JUMPDEST DUP1 MLOAD DUP3 MLOAD EQ PUSH2 0x4A52 JUMPI DUP2 MLOAD DUP2 MLOAD PUSH1 0x40 MLOAD PUSH4 0x5B059991 PUSH1 0xE0 SHL DUP2 MSTORE PUSH1 0x4 DUP2 ADD SWAP3 SWAP1 SWAP3 MSTORE PUSH1 0x24 DUP3 ADD MSTORE PUSH1 0x44 ADD PUSH2 0x98F JUMP JUMPDEST CALLER PUSH1 0x0 JUMPDEST DUP4 MLOAD DUP2 LT ISZERO PUSH2 0x4B58 JUMPI PUSH1 0x20 DUP2 DUP2 MUL DUP6 DUP2 ADD DUP3 ADD MLOAD SWAP1 DUP6 ADD SWAP1 SWAP2 ADD MLOAD PUSH1 0x1 PUSH1 0x1 PUSH1 0xA0 SHL SUB DUP9 AND ISZERO PUSH2 0x4B09 JUMPI PUSH1 0x0 DUP3 DUP2 MSTORE PUSH1 0x20 DUP2 DUP2 MSTORE PUSH1 0x40 DUP1 DUP4 KECCAK256 PUSH1 0x1 PUSH1 0x1 PUSH1 0xA0 SHL SUB DUP13 AND DUP5 MSTORE SWAP1 SWAP2 MSTORE SWAP1 KECCAK256 SLOAD DUP2 DUP2 LT ISZERO PUSH2 0x4AE2 JUMPI PUSH1 0x40 MLOAD PUSH4 0x3DEE4C5 PUSH1 0xE0 SHL DUP2 MSTORE PUSH1 0x1 PUSH1 0x1 PUSH1 0xA0 SHL SUB DUP11 AND PUSH1 0x4 DUP3 ADD MSTORE PUSH1 0x24 DUP2 ADD DUP3 SWAP1 MSTORE PUSH1 0x44 DUP2 ADD DUP4 SWAP1 MSTORE PUSH1 0x64 DUP2 ADD DUP5 SWAP1 MSTORE PUSH1 0x84 ADD PUSH2 0x98F JUMP JUMPDEST PUSH1 0x0 DUP4 DUP2 MSTORE PUSH1 0x20 DUP2 DUP2 MSTORE PUSH1 0x40 DUP1 DUP4 KECCAK256 PUSH1 0x1 PUSH1 0x1 PUSH1 0xA0 SHL SUB DUP14 AND DUP5 MSTORE SWAP1 SWAP2 MSTORE SWAP1 KECCAK256 SWAP1 DUP3 SWAP1 SUB SWAP1 SSTORE JUMPDEST PUSH1 0x1 PUSH1 0x1 PUSH1 0xA0 SHL SUB DUP8 AND ISZERO PUSH2 0x4B4E JUMPI PUSH1 0x0 DUP3 DUP2 MSTORE PUSH1 0x20 DUP2 DUP2 MSTORE PUSH1 0x40 DUP1 DUP4 KECCAK256 PUSH1 0x1 PUSH1 0x1 PUSH1 0xA0 SHL SUB DUP12 AND DUP5 MSTORE SWAP1 SWAP2 MSTORE DUP2 KECCAK256 DUP1 SLOAD DUP4 SWAP3 SWAP1 PUSH2 0x4B48 SWAP1 DUP5 SWAP1 PUSH2 0x5C50 JUMP JUMPDEST SWAP1 SWAP2 SSTORE POP POP JUMPDEST POP POP PUSH1 0x1 ADD PUSH2 0x4A56 JUMP JUMPDEST POP DUP3 MLOAD PUSH1 0x1 SUB PUSH2 0x4BD9 JUMPI PUSH1 0x20 DUP4 ADD MLOAD PUSH1 0x0 SWAP1 PUSH1 0x20 DUP5 ADD MLOAD SWAP1 SWAP2 POP DUP6 PUSH1 0x1 PUSH1 0x1 PUSH1 0xA0 SHL SUB AND DUP8 PUSH1 0x1 PUSH1 0x1 PUSH1 0xA0 SHL SUB AND DUP5 PUSH1 0x1 PUSH1 0x1 PUSH1 0xA0 SHL SUB AND PUSH32 0xC3D58168C5AE7397731D063D5BBF3D657854427343F4C083240F7AACAA2D0F62 DUP6 DUP6 PUSH1 0x40 MLOAD PUSH2 0x4BCA SWAP3 SWAP2 SWAP1 SWAP2 DUP3 MSTORE PUSH1 0x20 DUP3 ADD MSTORE PUSH1 0x40 ADD SWAP1 JUMP JUMPDEST PUSH1 0x40 MLOAD DUP1 SWAP2 SUB SWAP1 LOG4 POP POP PUSH2 0x1FDB JUMP JUMPDEST DUP4 PUSH1 0x1 PUSH1 0x1 PUSH1 0xA0 SHL SUB AND DUP6 PUSH1 0x1 PUSH1 0x1 PUSH1 0xA0 SHL SUB AND DUP3 PUSH1 0x1 PUSH1 0x1 PUSH1 0xA0 SHL SUB AND PUSH32 0x4A39DC06D4C0DBC64B70AF90FD698A233A518AA5D07E595D983B8C0526C8F7FB DUP7 DUP7 PUSH1 0x40 MLOAD PUSH2 0x4C28 SWAP3 SWAP2 SWAP1 PUSH2 0x5D0B JUMP JUMPDEST PUSH1 0x40 MLOAD DUP1 SWAP2 SUB SWAP1 LOG4 POP POP POP POP POP JUMP JUMPDEST PUSH1 0x1 PUSH1 0x1 PUSH1 0xA0 SHL SUB DUP5 AND EXTCODESIZE ISZERO PUSH2 0x1D89 JUMPI PUSH1 0x40 MLOAD PUSH4 0xF23A6E61 PUSH1 0xE0 SHL DUP2 MSTORE PUSH1 0x1 PUSH1 0x1 PUSH1 0xA0 SHL SUB DUP6 AND SWAP1 PUSH4 0xF23A6E61 SWAP1 PUSH2 0x4C7B SWAP1 DUP10 SWAP1 DUP10 SWAP1 DUP9 SWAP1 DUP9 SWAP1 DUP9 SWAP1 PUSH1 0x4 ADD PUSH2 0x5D39 JUMP JUMPDEST PUSH1 0x20 PUSH1 0x40 MLOAD DUP1 DUP4 SUB DUP2 PUSH1 0x0 DUP8 GAS CALL SWAP3 POP POP POP DUP1 ISZERO PUSH2 0x4CB6 JUMPI POP PUSH1 0x40 DUP1 MLOAD PUSH1 0x1F RETURNDATASIZE SWAP1 DUP2 ADD PUSH1 0x1F NOT AND DUP3 ADD SWAP1 SWAP3 MSTORE PUSH2 0x4CB3 SWAP2 DUP2 ADD SWAP1 PUSH2 0x5D7E JUMP JUMPDEST PUSH1 0x1 JUMPDEST PUSH2 0x4D1F JUMPI RETURNDATASIZE DUP1 DUP1 ISZERO PUSH2 0x4CE4 JUMPI PUSH1 0x40 MLOAD SWAP2 POP PUSH1 0x1F NOT PUSH1 0x3F RETURNDATASIZE ADD AND DUP3 ADD PUSH1 0x40 MSTORE RETURNDATASIZE DUP3 MSTORE RETURNDATASIZE PUSH1 0x0 PUSH1 0x20 DUP5 ADD RETURNDATACOPY PUSH2 0x4CE9 JUMP JUMPDEST PUSH1 0x60 SWAP2 POP JUMPDEST POP DUP1 MLOAD PUSH1 0x0 SUB PUSH2 0x4D17 JUMPI PUSH1 0x40 MLOAD PUSH4 0x2BFA23E7 PUSH1 0xE1 SHL DUP2 MSTORE PUSH1 0x1 PUSH1 0x1 PUSH1 0xA0 SHL SUB DUP7 AND PUSH1 0x4 DUP3 ADD MSTORE PUSH1 0x24 ADD PUSH2 0x98F JUMP JUMPDEST DUP1 MLOAD DUP2 PUSH1 0x20 ADD REVERT JUMPDEST PUSH1 0x1 PUSH1 0x1 PUSH1 0xE0 SHL SUB NOT DUP2 AND PUSH4 0xF23A6E61 PUSH1 0xE0 SHL EQ PUSH2 0x49C7 JUMPI PUSH1 0x40 MLOAD PUSH4 0x2BFA23E7 PUSH1 0xE1 SHL DUP2 MSTORE PUSH1 0x1 PUSH1 0x1 PUSH1 0xA0 SHL SUB DUP7 AND PUSH1 0x4 DUP3 ADD MSTORE PUSH1 0x24 ADD PUSH2 0x98F JUMP JUMPDEST PUSH1 0x1 PUSH1 0x1 PUSH1 0xA0 SHL SUB DUP5 AND EXTCODESIZE ISZERO PUSH2 0x1D89 JUMPI PUSH1 0x40 MLOAD PUSH4 0xBC197C81 PUSH1 0xE0 SHL DUP2 MSTORE PUSH1 0x1 PUSH1 0x1 PUSH1 0xA0 SHL SUB DUP6 AND SWAP1 PUSH4 0xBC197C81 SWAP1 PUSH2 0x4D9F SWAP1 DUP10 SWAP1 DUP10 SWAP1 DUP9 SWAP1 DUP9 SWAP1 DUP9 SWAP1 PUSH1 0x4 ADD PUSH2 0x5D9B JUMP JUMPDEST PUSH1 0x20 PUSH1 0x40 MLOAD DUP1 DUP4 SUB DUP2 PUSH1 0x0 DUP8 GAS CALL SWAP3 POP POP POP DUP1 ISZERO PUSH2 0x4DDA JUMPI POP PUSH1 0x40 DUP1 MLOAD PUSH1 0x1F RETURNDATASIZE SWAP1 DUP2 ADD PUSH1 0x1F NOT AND DUP3 ADD SWAP1 SWAP3 MSTORE PUSH2 0x4DD7 SWAP2 DUP2 ADD SWAP1 PUSH2 0x5D7E JUMP JUMPDEST PUSH1 0x1 JUMPDEST PUSH2 0x4E08 JUMPI RETURNDATASIZE DUP1 DUP1 ISZERO PUSH2 0x4CE4 JUMPI PUSH1 0x40 MLOAD SWAP2 POP PUSH1 0x1F NOT PUSH1 0x3F RETURNDATASIZE ADD AND DUP3 ADD PUSH1 0x40 MSTORE RETURNDATASIZE DUP3 MSTORE RETURNDATASIZE PUSH1 0x0 PUSH1 0x20 DUP5 ADD RETURNDATACOPY PUSH2 0x4CE9 JUMP JUMPDEST PUSH1 0x1 PUSH1 0x1 PUSH1 0xE0 SHL SUB NOT DUP2 AND PUSH4 0xBC197C81 PUSH1 0xE0 SHL EQ PUSH2 0x49C7 JUMPI PUSH1 0x40 MLOAD PUSH4 0x2BFA23E7 PUSH1 0xE1 SHL DUP2 MSTORE PUSH1 0x1 PUSH1 0x1 PUSH1 0xA0 SHL SUB DUP7 AND PUSH1 0x4 DUP3 ADD MSTORE PUSH1 0x24 ADD PUSH2 0x98F JUMP JUMPDEST POP DUP1 SLOAD PUSH2 0x4E50 SWAP1 PUSH2 0x5999 JUMP JUMPDEST PUSH1 0x0 DUP3 SSTORE DUP1 PUSH1 0x1F LT PUSH2 0x4E60 JUMPI POP POP JUMP JUMPDEST PUSH1 0x1F ADD PUSH1 0x20 SWAP1 DIV SWAP1 PUSH1 0x0 MSTORE PUSH1 0x20 PUSH1 0x0 KECCAK256 SWAP1 DUP2 ADD SWAP1 PUSH2 0x2D5A SWAP2 SWAP1 PUSH2 0x4F3F JUMP JUMPDEST DUP3 DUP1 SLOAD DUP3 DUP3 SSTORE SWAP1 PUSH1 0x0 MSTORE PUSH1 0x20 PUSH1 0x0 KECCAK256 SWAP1 DUP2 ADD SWAP3 DUP3 ISZERO PUSH2 0x4ED3 JUMPI SWAP2 PUSH1 0x20 MUL DUP3 ADD JUMPDEST DUP3 DUP2 GT ISZERO PUSH2 0x4ED3 JUMPI DUP3 MLOAD DUP3 SLOAD PUSH1 0x1 PUSH1 0x1 PUSH1 0xA0 SHL SUB NOT AND PUSH1 0x1 PUSH1 0x1 PUSH1 0xA0 SHL SUB SWAP1 SWAP2 AND OR DUP3 SSTORE PUSH1 0x20 SWAP1 SWAP3 ADD SWAP2 PUSH1 0x1 SWAP1 SWAP2 ADD SWAP1 PUSH2 0x4E9E JUMP JUMPDEST POP PUSH2 0x4EDF SWAP3 SWAP2 POP PUSH2 0x4F3F JUMP JUMPDEST POP SWAP1 JUMP JUMPDEST POP DUP1 SLOAD PUSH1 0x0 DUP3 SSTORE PUSH1 0x9 MUL SWAP1 PUSH1 0x0 MSTORE PUSH1 0x20 PUSH1 0x0 KECCAK256 SWAP1 DUP2 ADD SWAP1 PUSH2 0x2D5A SWAP2 SWAP1 PUSH2 0x4F54 JUMP JUMPDEST DUP3 DUP1 SLOAD DUP3 DUP3 SSTORE SWAP1 PUSH1 0x0 MSTORE PUSH1 0x20 PUSH1 0x0 KECCAK256 SWAP1 DUP2 ADD SWAP3 DUP3 ISZERO PUSH2 0x4ED3 JUMPI SWAP2 PUSH1 0x20 MUL DUP3 ADD JUMPDEST DUP3 DUP2 GT ISZERO PUSH2 0x4ED3 JUMPI DUP3 MLOAD DUP3 SSTORE SWAP2 PUSH1 0x20 ADD SWAP2 SWAP1 PUSH1 0x1 ADD SWAP1 PUSH2 0x4F24 JUMP JUMPDEST JUMPDEST DUP1 DUP3 GT ISZERO PUSH2 0x4EDF JUMPI PUSH1 0x0 DUP2 SSTORE PUSH1 0x1 ADD PUSH2 0x4F40 JUMP JUMPDEST DUP1 DUP3 GT ISZERO PUSH2 0x4EDF JUMPI PUSH1 0x0 DUP1 DUP3 SSTORE PUSH2 0x4F6E PUSH1 0x1 DUP4 ADD DUP3 PUSH2 0x4E44 JUMP JUMPDEST PUSH2 0x4F7C PUSH1 0x2 DUP4 ADD PUSH1 0x0 PUSH2 0x4E44 JUMP JUMPDEST PUSH2 0x4F8A PUSH1 0x3 DUP4 ADD PUSH1 0x0 PUSH2 0x4E44 JUMP JUMPDEST POP PUSH1 0x0 PUSH1 0x4 DUP3 ADD DUP2 SWAP1 SSTORE PUSH1 0x5 DUP3 ADD DUP2 SWAP1 SSTORE PUSH1 0x6 DUP3 ADD DUP2 SWAP1 SSTORE PUSH1 0x7 DUP3 ADD DUP2 SWAP1 SSTORE PUSH1 0x8 DUP3 ADD SSTORE PUSH1 0x9 ADD PUSH2 0x4F54 JUMP JUMPDEST DUP1 CALLDATALOAD PUSH1 0x1 PUSH1 0x1 PUSH1 0xA0 SHL SUB DUP2 AND DUP2 EQ PUSH2 0x4FCD JUMPI PUSH1 0x0 DUP1 REVERT JUMPDEST SWAP2 SWAP1 POP JUMP JUMPDEST PUSH1 0x0 DUP1 PUSH1 0x40 DUP4 DUP6 SUB SLT ISZERO PUSH2 0x4FE5 JUMPI PUSH1 0x0 DUP1 REVERT JUMPDEST PUSH2 0x4FEE DUP4 PUSH2 0x4FB6 JUMP JUMPDEST SWAP5 PUSH1 0x20 SWAP4 SWAP1 SWAP4 ADD CALLDATALOAD SWAP4 POP POP POP JUMP JUMPDEST PUSH1 0x1 PUSH1 0x1 PUSH1 0xE0 SHL SUB NOT DUP2 AND DUP2 EQ PUSH2 0x2D5A JUMPI PUSH1 0x0 DUP1 REVERT JUMPDEST PUSH1 0x0 PUSH1 0x20 DUP3 DUP5 SUB SLT ISZERO PUSH2 0x5024 JUMPI PUSH1 0x0 DUP1 REVERT JUMPDEST DUP2 CALLDATALOAD PUSH2 0x502F DUP2 PUSH2 0x4FFC JUMP JUMPDEST SWAP4 SWAP3 POP POP POP JUMP JUMPDEST PUSH1 0x0 PUSH1 0x20 DUP3 DUP5 SUB SLT ISZERO PUSH2 0x5048 JUMPI PUSH1 0x0 DUP1 REVERT JUMPDEST POP CALLDATALOAD SWAP2 SWAP1 POP JUMP JUMPDEST PUSH1 0x20 DUP1 DUP3 MSTORE DUP3 MLOAD DUP3 DUP3 ADD DUP2 SWAP1 MSTORE PUSH1 0x0 SWAP2 SWAP1 PUSH1 0x40 SWAP1 DUP2 DUP6 ADD SWAP1 DUP7 DUP5 ADD DUP6 JUMPDEST DUP3 DUP2 LT ISZERO PUSH2 0x509A JUMPI DUP2 MLOAD DUP1 MLOAD DUP6 MSTORE DUP7 ADD MLOAD PUSH1 0x1 PUSH1 0x1 PUSH1 0xA0 SHL SUB AND DUP7 DUP6 ADD MSTORE SWAP3 DUP5 ADD SWAP3 SWAP1 DUP6 ADD SWAP1 PUSH1 0x1 ADD PUSH2 0x506C JUMP JUMPDEST POP SWAP2 SWAP8 SWAP7 POP POP POP POP POP POP POP JUMP JUMPDEST PUSH1 0x0 JUMPDEST DUP4 DUP2 LT ISZERO PUSH2 0x50C2 JUMPI DUP2 DUP2 ADD MLOAD DUP4 DUP3 ADD MSTORE PUSH1 0x20 ADD PUSH2 0x50AA JUMP JUMPDEST POP POP PUSH1 0x0 SWAP2 ADD MSTORE JUMP JUMPDEST PUSH1 0x0 DUP2 MLOAD DUP1 DUP5 MSTORE PUSH2 0x50E3 DUP2 PUSH1 0x20 DUP7 ADD PUSH1 0x20 DUP7 ADD PUSH2 0x50A7 JUMP JUMPDEST PUSH1 0x1F ADD PUSH1 0x1F NOT AND SWAP3 SWAP1 SWAP3 ADD PUSH1 0x20 ADD SWAP3 SWAP2 POP POP JUMP JUMPDEST PUSH1 0x20 DUP2 MSTORE PUSH1 0x0 PUSH2 0x502F PUSH1 0x20 DUP4 ADD DUP5 PUSH2 0x50CB JUMP JUMPDEST PUSH1 0x0 PUSH1 0x20 DUP3 DUP5 SUB SLT ISZERO PUSH2 0x511C JUMPI PUSH1 0x0 DUP1 REVERT JUMPDEST PUSH2 0x502F DUP3 PUSH2 0x4FB6 JUMP JUMPDEST PUSH1 0x0 PUSH1 0x20 DUP1 DUP4 ADD DUP2 DUP5 MSTORE DUP1 DUP6 MLOAD DUP1 DUP4 MSTORE PUSH1 0x40 SWAP3 POP PUSH1 0x40 DUP7 ADD SWAP2 POP PUSH1 0x40 DUP2 PUSH1 0x5 SHL DUP8 ADD ADD DUP5 DUP9 ADD PUSH1 0x0 JUMPDEST DUP4 DUP2 LT ISZERO PUSH2 0x51F9 JUMPI PUSH1 0x3F NOT DUP10 DUP5 SUB ADD DUP6 MSTORE DUP2 MLOAD PUSH2 0x120 DUP2 MLOAD DUP6 MSTORE DUP9 DUP3 ADD MLOAD DUP2 DUP11 DUP8 ADD MSTORE PUSH2 0x517D DUP3 DUP8 ADD DUP3 PUSH2 0x50CB JUMP JUMPDEST SWAP2 POP POP DUP8 DUP3 ADD MLOAD DUP6 DUP3 SUB DUP10 DUP8 ADD MSTORE PUSH2 0x5195 DUP3 DUP3 PUSH2 0x50CB JUMP JUMPDEST SWAP2 POP POP PUSH1 0x60 DUP1 DUP4 ADD MLOAD DUP7 DUP4 SUB DUP3 DUP9 ADD MSTORE PUSH2 0x51AF DUP4 DUP3 PUSH2 0x50CB JUMP JUMPDEST PUSH1 0x80 DUP6 DUP2 ADD MLOAD SWAP1 DUP10 ADD MSTORE PUSH1 0xA0 DUP1 DUP7 ADD MLOAD SWAP1 DUP10 ADD MSTORE PUSH1 0xC0 DUP1 DUP7 ADD MLOAD SWAP1 DUP10 ADD MSTORE PUSH1 0xE0 DUP1 DUP7 ADD MLOAD SWAP1 DUP10 ADD MSTORE PUSH2 0x100 SWAP5 DUP6 ADD MLOAD SWAP5 SWAP1 SWAP8 ADD SWAP4 SWAP1 SWAP4 MSTORE POP POP POP SWAP4 DUP7 ADD SWAP4 SWAP1 DUP7 ADD SWAP1 PUSH1 0x1 ADD PUSH2 0x514E JUMP JUMPDEST POP SWAP1 SWAP9 SWAP8 POP POP POP POP POP POP POP POP JUMP JUMPDEST PUSH1 0x0 DUP1 PUSH1 0x0 PUSH1 0x60 DUP5 DUP7 SUB SLT ISZERO PUSH2 0x521C JUMPI PUSH1 0x0 DUP1 REVERT JUMPDEST POP POP DUP2 CALLDATALOAD SWAP4 PUSH1 0x20 DUP4 ADD CALLDATALOAD SWAP4 POP PUSH1 0x40 SWAP1 SWAP3 ADD CALLDATALOAD SWAP2 SWAP1 POP JUMP JUMPDEST PUSH1 0x20 DUP1 DUP3 MSTORE DUP3 MLOAD DUP3 DUP3 ADD DUP2 SWAP1 MSTORE PUSH1 0x0 SWAP2 SWAP1 PUSH1 0x40 SWAP1 DUP2 DUP6 ADD SWAP1 DUP7 DUP5 ADD DUP6 JUMPDEST DUP3 DUP2 LT ISZERO PUSH2 0x509A JUMPI DUP2 MLOAD DUP1 MLOAD DUP6 MSTORE DUP7 DUP2 ADD MLOAD PUSH1 0x1 PUSH1 0x1 PUSH1 0xA0 SHL SUB AND DUP8 DUP7 ADD MSTORE DUP6 DUP2 ADD MLOAD DUP7 DUP7 ADD MSTORE PUSH1 0x60 SWAP1 DUP2 ADD MLOAD SWAP1 DUP6 ADD MSTORE PUSH1 0x80 SWAP1 SWAP4 ADD SWAP3 SWAP1 DUP6 ADD SWAP1 PUSH1 0x1 ADD PUSH2 0x5250 JUMP JUMPDEST PUSH4 0x4E487B71 PUSH1 0xE0 SHL PUSH1 0x0 MSTORE PUSH1 0x41 PUSH1 0x4 MSTORE PUSH1 0x24 PUSH1 0x0 REVERT JUMPDEST PUSH1 0x40 MLOAD PUSH1 0x1F DUP3 ADD PUSH1 0x1F NOT AND DUP2 ADD PUSH8 0xFFFFFFFFFFFFFFFF DUP2 GT DUP3 DUP3 LT OR ISZERO PUSH2 0x52D2 JUMPI PUSH2 0x52D2 PUSH2 0x5293 JUMP JUMPDEST PUSH1 0x40 MSTORE SWAP2 SWAP1 POP JUMP JUMPDEST PUSH1 0x0 DUP3 PUSH1 0x1F DUP4 ADD SLT PUSH2 0x52EB JUMPI PUSH1 0x0 DUP1 REVERT JUMPDEST DUP2 CALLDATALOAD PUSH8 0xFFFFFFFFFFFFFFFF DUP2 GT ISZERO PUSH2 0x5305 JUMPI PUSH2 0x5305 PUSH2 0x5293 JUMP JUMPDEST PUSH2 0x5318 PUSH1 0x1F DUP3 ADD PUSH1 0x1F NOT AND PUSH1 0x20 ADD PUSH2 0x52A9 JUMP JUMPDEST DUP2 DUP2 MSTORE DUP5 PUSH1 0x20 DUP4 DUP7 ADD ADD GT ISZERO PUSH2 0x532D JUMPI PUSH1 0x0 DUP1 REVERT JUMPDEST DUP2 PUSH1 0x20 DUP6 ADD PUSH1 0x20 DUP4 ADD CALLDATACOPY PUSH1 0x0 SWAP2 DUP2 ADD PUSH1 0x20 ADD SWAP2 SWAP1 SWAP2 MSTORE SWAP4 SWAP3 POP POP POP JUMP JUMPDEST PUSH1 0x0 DUP1 PUSH1 0x0 DUP1 PUSH1 0x0 PUSH1 0xA0 DUP7 DUP9 SUB SLT ISZERO PUSH2 0x5362 JUMPI PUSH1 0x0 DUP1 REVERT JUMPDEST DUP6 CALLDATALOAD PUSH8 0xFFFFFFFFFFFFFFFF DUP1 DUP3 GT ISZERO PUSH2 0x537A JUMPI PUSH1 0x0 DUP1 REVERT JUMPDEST PUSH2 0x5386 DUP10 DUP4 DUP11 ADD PUSH2 0x52DA JUMP JUMPDEST SWAP7 POP PUSH1 0x20 DUP9 ADD CALLDATALOAD SWAP2 POP DUP1 DUP3 GT ISZERO PUSH2 0x539C JUMPI PUSH1 0x0 DUP1 REVERT JUMPDEST PUSH2 0x53A8 DUP10 DUP4 DUP11 ADD PUSH2 0x52DA JUMP JUMPDEST SWAP6 POP PUSH1 0x40 DUP9 ADD CALLDATALOAD SWAP2 POP DUP1 DUP3 GT ISZERO PUSH2 0x53BE JUMPI PUSH1 0x0 DUP1 REVERT JUMPDEST POP PUSH2 0x53CB DUP9 DUP3 DUP10 ADD PUSH2 0x52DA JUMP JUMPDEST SWAP6 SWAP9 SWAP5 SWAP8 POP SWAP5 SWAP6 PUSH1 0x60 DUP2 ADD CALLDATALOAD SWAP6 POP PUSH1 0x80 ADD CALLDATALOAD SWAP4 SWAP3 POP POP POP JUMP JUMPDEST PUSH1 0x0 DUP1 PUSH1 0x40 DUP4 DUP6 SUB SLT ISZERO PUSH2 0x53F7 JUMPI PUSH1 0x0 DUP1 REVERT JUMPDEST POP POP DUP1 CALLDATALOAD SWAP3 PUSH1 0x20 SWAP1 SWAP2 ADD CALLDATALOAD SWAP2 POP JUMP JUMPDEST PUSH1 0x0 PUSH8 0xFFFFFFFFFFFFFFFF DUP3 GT ISZERO PUSH2 0x5420 JUMPI PUSH2 0x5420 PUSH2 0x5293 JUMP JUMPDEST POP PUSH1 0x5 SHL PUSH1 0x20 ADD SWAP1 JUMP JUMPDEST PUSH1 0x0 DUP3 PUSH1 0x1F DUP4 ADD SLT PUSH2 0x543B JUMPI PUSH1 0x0 DUP1 REVERT JUMPDEST DUP2 CALLDATALOAD PUSH1 0x20 PUSH2 0x5450 PUSH2 0x544B DUP4 PUSH2 0x5406 JUMP JUMPDEST PUSH2 0x52A9 JUMP JUMPDEST DUP1 DUP4 DUP3 MSTORE PUSH1 0x20 DUP3 ADD SWAP2 POP PUSH1 0x20 DUP5 PUSH1 0x5 SHL DUP8 ADD ADD SWAP4 POP DUP7 DUP5 GT ISZERO PUSH2 0x5472 JUMPI PUSH1 0x0 DUP1 REVERT JUMPDEST PUSH1 0x20 DUP7 ADD JUMPDEST DUP5 DUP2 LT ISZERO PUSH2 0x548E JUMPI DUP1 CALLDATALOAD DUP4 MSTORE SWAP2 DUP4 ADD SWAP2 DUP4 ADD PUSH2 0x5477 JUMP JUMPDEST POP SWAP7 SWAP6 POP POP POP POP POP POP JUMP JUMPDEST PUSH1 0x0 DUP1 PUSH1 0x0 DUP1 PUSH1 0x0 PUSH1 0xA0 DUP7 DUP9 SUB SLT ISZERO PUSH2 0x54B1 JUMPI PUSH1 0x0 DUP1 REVERT JUMPDEST PUSH2 0x54BA DUP7 PUSH2 0x4FB6 JUMP JUMPDEST SWAP5 POP PUSH2 0x54C8 PUSH1 0x20 DUP8 ADD PUSH2 0x4FB6 JUMP JUMPDEST SWAP4 POP PUSH1 0x40 DUP7 ADD CALLDATALOAD PUSH8 0xFFFFFFFFFFFFFFFF DUP1 DUP3 GT ISZERO PUSH2 0x54E5 JUMPI PUSH1 0x0 DUP1 REVERT JUMPDEST PUSH2 0x54F1 DUP10 DUP4 DUP11 ADD PUSH2 0x542A JUMP JUMPDEST SWAP5 POP PUSH1 0x60 DUP9 ADD CALLDATALOAD SWAP2 POP DUP1 DUP3 GT ISZERO PUSH2 0x5507 JUMPI PUSH1 0x0 DUP1 REVERT JUMPDEST PUSH2 0x5513 DUP10 DUP4 DUP11 ADD PUSH2 0x542A JUMP JUMPDEST SWAP4 POP PUSH1 0x80 DUP9 ADD CALLDATALOAD SWAP2 POP DUP1 DUP3 GT ISZERO PUSH2 0x5529 JUMPI PUSH1 0x0 DUP1 REVERT JUMPDEST POP PUSH2 0x5536 DUP9 DUP3 DUP10 ADD PUSH2 0x52DA JUMP JUMPDEST SWAP2 POP POP SWAP3 SWAP6 POP SWAP3 SWAP6 SWAP1 SWAP4 POP JUMP JUMPDEST PUSH1 0x0 DUP1 PUSH1 0x20 DUP4 DUP6 SUB SLT ISZERO PUSH2 0x5556 JUMPI PUSH1 0x0 DUP1 REVERT JUMPDEST DUP3 CALLDATALOAD PUSH8 0xFFFFFFFFFFFFFFFF DUP1 DUP3 GT ISZERO PUSH2 0x556E JUMPI PUSH1 0x0 DUP1 REVERT JUMPDEST DUP2 DUP6 ADD SWAP2 POP DUP6 PUSH1 0x1F DUP4 ADD SLT PUSH2 0x5582 JUMPI PUSH1 0x0 DUP1 REVERT JUMPDEST DUP2 CALLDATALOAD DUP2 DUP2 GT ISZERO PUSH2 0x5591 JUMPI PUSH1 0x0 DUP1 REVERT JUMPDEST DUP7 PUSH1 0x20 DUP3 DUP6 ADD ADD GT ISZERO PUSH2 0x55A3 JUMPI PUSH1 0x0 DUP1 REVERT JUMPDEST PUSH1 0x20 SWAP3 SWAP1 SWAP3 ADD SWAP7 SWAP2 SWAP6 POP SWAP1 SWAP4 POP POP POP POP JUMP JUMPDEST PUSH1 0x0 DUP1 PUSH1 0x40 DUP4 DUP6 SUB SLT ISZERO PUSH2 0x55C8 JUMPI PUSH1 0x0 DUP1 REVERT JUMPDEST DUP3 CALLDATALOAD PUSH8 0xFFFFFFFFFFFFFFFF DUP1 DUP3 GT ISZERO PUSH2 0x55E0 JUMPI PUSH1 0x0 DUP1 REVERT JUMPDEST DUP2 DUP6 ADD SWAP2 POP DUP6 PUSH1 0x1F DUP4 ADD SLT PUSH2 0x55F4 JUMPI PUSH1 0x0 DUP1 REVERT JUMPDEST DUP2 CALLDATALOAD PUSH1 0x20 PUSH2 0x5604 PUSH2 0x544B DUP4 PUSH2 0x5406 JUMP JUMPDEST DUP3 DUP2 MSTORE PUSH1 0x5 SWAP3 SWAP1 SWAP3 SHL DUP5 ADD DUP2 ADD SWAP2 DUP2 DUP2 ADD SWAP1 DUP10 DUP5 GT ISZERO PUSH2 0x5623 JUMPI PUSH1 0x0 DUP1 REVERT JUMPDEST SWAP5 DUP3 ADD SWAP5 JUMPDEST DUP4 DUP7 LT ISZERO PUSH2 0x5648 JUMPI PUSH2 0x5639 DUP7 PUSH2 0x4FB6 JUMP JUMPDEST DUP3 MSTORE SWAP5 DUP3 ADD SWAP5 SWAP1 DUP3 ADD SWAP1 PUSH2 0x5628 JUMP JUMPDEST SWAP7 POP POP DUP7 ADD CALLDATALOAD SWAP3 POP POP DUP1 DUP3 GT ISZERO PUSH2 0x565E JUMPI PUSH1 0x0 DUP1 REVERT JUMPDEST POP PUSH2 0x566B DUP6 DUP3 DUP7 ADD PUSH2 0x542A JUMP JUMPDEST SWAP2 POP POP SWAP3 POP SWAP3 SWAP1 POP JUMP JUMPDEST PUSH1 0x0 DUP2 MLOAD DUP1 DUP5 MSTORE PUSH1 0x20 DUP1 DUP6 ADD SWAP5 POP PUSH1 0x20 DUP5 ADD PUSH1 0x0 JUMPDEST DUP4 DUP2 LT ISZERO PUSH2 0x56A6 JUMPI DUP2 MLOAD DUP8 MSTORE SWAP6 DUP3 ADD SWAP6 SWAP1 DUP3 ADD SWAP1 PUSH1 0x1 ADD PUSH2 0x568A JUMP JUMPDEST POP SWAP5 SWAP6 SWAP5 POP POP POP POP POP JUMP JUMPDEST PUSH1 0x20 DUP2 MSTORE PUSH1 0x0 PUSH2 0x502F PUSH1 0x20 DUP4 ADD DUP5 PUSH2 0x5675 JUMP JUMPDEST PUSH1 0x0 DUP1 PUSH1 0x0 PUSH1 0x60 DUP5 DUP7 SUB SLT ISZERO PUSH2 0x56D9 JUMPI PUSH1 0x0 DUP1 REVERT JUMPDEST DUP4 CALLDATALOAD SWAP3 POP PUSH2 0x56E9 PUSH1 0x20 DUP6 ADD PUSH2 0x4FB6 JUMP JUMPDEST SWAP2 POP PUSH1 0x40 DUP5 ADD CALLDATALOAD SWAP1 POP SWAP3 POP SWAP3 POP SWAP3 JUMP JUMPDEST PUSH1 0x0 PUSH1 0x20 DUP3 DUP5 SUB SLT ISZERO PUSH2 0x570B JUMPI PUSH1 0x0 DUP1 REVERT JUMPDEST DUP2 CALLDATALOAD PUSH8 0xFFFFFFFFFFFFFFFF DUP2 GT ISZERO PUSH2 0x5722 JUMPI PUSH1 0x0 DUP1 REVERT JUMPDEST PUSH2 0x572E DUP5 DUP3 DUP6 ADD PUSH2 0x52DA JUMP JUMPDEST SWAP5 SWAP4 POP POP POP POP JUMP JUMPDEST PUSH1 0x0 DUP1 PUSH1 0x40 DUP4 DUP6 SUB SLT ISZERO PUSH2 0x5749 JUMPI PUSH1 0x0 DUP1 REVERT JUMPDEST PUSH2 0x5752 DUP4 PUSH2 0x4FB6 JUMP JUMPDEST SWAP2 POP PUSH1 0x20 DUP4 ADD CALLDATALOAD DUP1 ISZERO ISZERO DUP2 EQ PUSH2 0x5767 JUMPI PUSH1 0x0 DUP1 REVERT JUMPDEST DUP1 SWAP2 POP POP SWAP3 POP SWAP3 SWAP1 POP JUMP JUMPDEST PUSH1 0x0 DUP1 PUSH1 0x40 DUP4 DUP6 SUB SLT ISZERO PUSH2 0x5785 JUMPI PUSH1 0x0 DUP1 REVERT JUMPDEST PUSH2 0x578E DUP4 PUSH2 0x4FB6 JUMP JUMPDEST SWAP2 POP PUSH2 0x579C PUSH1 0x20 DUP5 ADD PUSH2 0x4FB6 JUMP JUMPDEST SWAP1 POP SWAP3 POP SWAP3 SWAP1 POP JUMP JUMPDEST PUSH1 0x0 DUP1 PUSH1 0x0 DUP1 PUSH1 0x80 DUP6 DUP8 SUB SLT ISZERO PUSH2 0x57BB JUMPI PUSH1 0x0 DUP1 REVERT JUMPDEST POP POP DUP3 CALLDATALOAD SWAP5 PUSH1 0x20 DUP5 ADD CALLDATALOAD SWAP5 POP PUSH1 0x40 DUP5 ADD CALLDATALOAD SWAP4 PUSH1 0x60 ADD CALLDATALOAD SWAP3 POP SWAP1 POP JUMP JUMPDEST PUSH1 0x0 DUP1 PUSH1 0x0 DUP1 PUSH1 0x0 PUSH1 0xA0 DUP7 DUP9 SUB SLT ISZERO PUSH2 0x57EF JUMPI PUSH1 0x0 DUP1 REVERT JUMPDEST PUSH2 0x57F8 DUP7 PUSH2 0x4FB6 JUMP JUMPDEST SWAP5 POP PUSH2 0x5806 PUSH1 0x20 DUP8 ADD PUSH2 0x4FB6 JUMP JUMPDEST SWAP4 POP PUSH1 0x40 DUP7 ADD CALLDATALOAD SWAP3 POP PUSH1 0x60 DUP7 ADD CALLDATALOAD SWAP2 POP PUSH1 0x80 DUP7 ADD CALLDATALOAD PUSH8 0xFFFFFFFFFFFFFFFF DUP2 GT ISZERO PUSH2 0x5830 JUMPI PUSH1 0x0 DUP1 REVERT JUMPDEST PUSH2 0x5536 DUP9 DUP3 DUP10 ADD PUSH2 0x52DA JUMP JUMPDEST PUSH1 0x0 DUP1 PUSH1 0x0 DUP1 PUSH1 0x80 DUP6 DUP8 SUB SLT ISZERO PUSH2 0x5852 JUMPI PUSH1 0x0 DUP1 REVERT JUMPDEST DUP5 CALLDATALOAD PUSH8 0xFFFFFFFFFFFFFFFF DUP1 DUP3 GT ISZERO PUSH2 0x586A JUMPI PUSH1 0x0 DUP1 REVERT JUMPDEST PUSH2 0x5876 DUP9 DUP4 DUP10 ADD PUSH2 0x52DA JUMP JUMPDEST SWAP6 POP PUSH1 0x20 DUP8 ADD CALLDATALOAD SWAP2 POP DUP1 DUP3 GT ISZERO PUSH2 0x588C JUMPI PUSH1 0x0 DUP1 REVERT JUMPDEST PUSH2 0x5898 DUP9 DUP4 DUP10 ADD PUSH2 0x52DA JUMP JUMPDEST SWAP5 POP PUSH1 0x40 DUP8 ADD CALLDATALOAD SWAP2 POP DUP1 DUP3 GT ISZERO PUSH2 0x58AE JUMPI PUSH1 0x0 DUP1 REVERT JUMPDEST PUSH2 0x58BA DUP9 DUP4 DUP10 ADD PUSH2 0x542A JUMP JUMPDEST SWAP4 POP PUSH1 0x60 DUP8 ADD CALLDATALOAD SWAP2 POP DUP1 DUP3 GT ISZERO PUSH2 0x58D0 JUMPI PUSH1 0x0 DUP1 REVERT JUMPDEST POP PUSH2 0x58DD DUP8 DUP3 DUP9 ADD PUSH2 0x542A JUMP JUMPDEST SWAP2 POP POP SWAP3 SWAP6 SWAP2 SWAP5 POP SWAP3 POP JUMP JUMPDEST PUSH1 0x0 PUSH1 0x20 DUP1 DUP4 ADD DUP2 DUP5 MSTORE DUP1 DUP6 MLOAD DUP1 DUP4 MSTORE PUSH1 0x40 SWAP3 POP PUSH1 0x40 DUP7 ADD SWAP2 POP PUSH1 0x40 DUP2 PUSH1 0x5 SHL DUP8 ADD ADD DUP5 DUP9 ADD PUSH1 0x0 JUMPDEST DUP4 DUP2 LT ISZERO PUSH2 0x51F9 JUMPI PUSH1 0x3F NOT DUP10 DUP5 SUB ADD DUP6 MSTORE DUP2 MLOAD PUSH1 0x80 DUP2 MLOAD DUP2 DUP7 MSTORE PUSH2 0x5938 DUP3 DUP8 ADD DUP3 PUSH2 0x50CB JUMP JUMPDEST SWAP2 POP POP DUP9 DUP3 ADD MLOAD DUP6 DUP3 SUB DUP11 DUP8 ADD MSTORE PUSH2 0x5950 DUP3 DUP3 PUSH2 0x50CB JUMP JUMPDEST SWAP2 POP POP DUP8 DUP3 ADD MLOAD DUP6 DUP3 SUB DUP10 DUP8 ADD MSTORE PUSH2 0x5968 DUP3 DUP3 PUSH2 0x5675 JUMP JUMPDEST SWAP2 POP POP PUSH1 0x60 DUP1 DUP4 ADD MLOAD SWAP3 POP DUP6 DUP3 SUB DUP2 DUP8 ADD MSTORE POP PUSH2 0x5985 DUP2 DUP4 PUSH2 0x5675 JUMP JUMPDEST SWAP7 DUP10 ADD SWAP7 SWAP5 POP POP POP SWAP1 DUP7 ADD SWAP1 PUSH1 0x1 ADD PUSH2 0x5912 JUMP JUMPDEST PUSH1 0x1 DUP2 DUP2 SHR SWAP1 DUP3 AND DUP1 PUSH2 0x59AD JUMPI PUSH1 0x7F DUP3 AND SWAP2 POP JUMPDEST PUSH1 0x20 DUP3 LT DUP2 SUB PUSH2 0x59CD JUMPI PUSH4 0x4E487B71 PUSH1 0xE0 SHL PUSH1 0x0 MSTORE PUSH1 0x22 PUSH1 0x4 MSTORE PUSH1 0x24 PUSH1 0x0 REVERT JUMPDEST POP SWAP2 SWAP1 POP JUMP JUMPDEST PUSH1 0x0 DUP1 DUP4 SLOAD PUSH2 0x59E1 DUP2 PUSH2 0x5999 JUMP JUMPDEST PUSH1 0x1 DUP3 DUP2 AND DUP1 ISZERO PUSH2 0x59F9 JUMPI PUSH1 0x1 DUP2 EQ PUSH2 0x5A0E JUMPI PUSH2 0x5A3D JUMP JUMPDEST PUSH1 0xFF NOT DUP5 AND DUP8 MSTORE DUP3 ISZERO ISZERO DUP4 MUL DUP8 ADD SWAP5 POP PUSH2 0x5A3D JUMP JUMPDEST DUP8 PUSH1 0x0 MSTORE PUSH1 0x20 DUP1 PUSH1 0x0 KECCAK256 PUSH1 0x0 JUMPDEST DUP6 DUP2 LT ISZERO PUSH2 0x5A34 JUMPI DUP2 SLOAD DUP11 DUP3 ADD MSTORE SWAP1 DUP5 ADD SWAP1 DUP3 ADD PUSH2 0x5A1B JUMP JUMPDEST POP POP POP DUP3 DUP8 ADD SWAP5 POP JUMPDEST POP SWAP3 SWAP7 SWAP6 POP POP POP POP POP POP JUMP JUMPDEST PUSH4 0x4E487B71 PUSH1 0xE0 SHL PUSH1 0x0 MSTORE PUSH1 0x32 PUSH1 0x4 MSTORE PUSH1 0x24 PUSH1 0x0 REVERT JUMPDEST PUSH4 0x4E487B71 PUSH1 0xE0 SHL PUSH1 0x0 MSTORE PUSH1 0x11 PUSH1 0x4 MSTORE PUSH1 0x24 PUSH1 0x0 REVERT JUMPDEST DUP1 DUP3 MUL DUP2 ISZERO DUP3 DUP3 DIV DUP5 EQ OR PUSH2 0x4CE JUMPI PUSH2 0x4CE PUSH2 0x5A5F JUMP JUMPDEST PUSH1 0x20 DUP1 DUP3 MSTORE PUSH1 0x48 SWAP1 DUP3 ADD MSTORE PUSH32 0xD0A2D0BED0BBD18CD0BAD0BE20D0B2D0BBD0B0D0B4D0B5D0BBD0B5D18620D0BC PUSH1 0x40 DUP3 ADD MSTORE PUSH32 0xD0BED0B6D0B5D18220D18DD182D0BE20D0B8D181D0BFD0BED0BBD18CD0B7D0BE PUSH1 0x60 DUP3 ADD MSTORE PUSH8 0x342CB42C3460B463 PUSH1 0xC2 SHL PUSH1 0x80 DUP3 ADD MSTORE PUSH1 0xA0 ADD SWAP1 JUMP JUMPDEST PUSH1 0x1F DUP3 GT ISZERO PUSH2 0x24DE JUMPI PUSH1 0x0 DUP2 PUSH1 0x0 MSTORE PUSH1 0x20 PUSH1 0x0 KECCAK256 PUSH1 0x1F DUP6 ADD PUSH1 0x5 SHR DUP2 ADD PUSH1 0x20 DUP7 LT ISZERO PUSH2 0x5B23 JUMPI POP DUP1 JUMPDEST PUSH1 0x1F DUP6 ADD PUSH1 0x5 SHR DUP3 ADD SWAP2 POP JUMPDEST DUP2 DUP2 LT ISZERO PUSH2 0x1D89 JUMPI DUP3 DUP2 SSTORE PUSH1 0x1 ADD PUSH2 0x5B2F JUMP JUMPDEST DUP2 MLOAD PUSH8 0xFFFFFFFFFFFFFFFF DUP2 GT ISZERO PUSH2 0x5B5C JUMPI PUSH2 0x5B5C PUSH2 0x5293 JUMP JUMPDEST PUSH2 0x5B70 DUP2 PUSH2 0x5B6A DUP5 SLOAD PUSH2 0x5999 JUMP JUMPDEST DUP5 PUSH2 0x5AFA JUMP JUMPDEST PUSH1 0x20 DUP1 PUSH1 0x1F DUP4 GT PUSH1 0x1 DUP2 EQ PUSH2 0x5BA5 JUMPI PUSH1 0x0 DUP5 ISZERO PUSH2 0x5B8D JUMPI POP DUP6 DUP4 ADD MLOAD JUMPDEST PUSH1 0x0 NOT PUSH1 0x3 DUP7 SWAP1 SHL SHR NOT AND PUSH1 0x1 DUP6 SWAP1 SHL OR DUP6 SSTORE PUSH2 0x1D89 JUMP JUMPDEST PUSH1 0x0 DUP6 DUP2 MSTORE PUSH1 0x20 DUP2 KECCAK256 PUSH1 0x1F NOT DUP7 AND SWAP2 JUMPDEST DUP3 DUP2 LT ISZERO PUSH2 0x5BD4 JUMPI DUP9 DUP7 ADD MLOAD DUP3 SSTORE SWAP5 DUP5 ADD SWAP5 PUSH1 0x1 SWAP1 SWAP2 ADD SWAP1 DUP5 ADD PUSH2 0x5BB5 JUMP JUMPDEST POP DUP6 DUP3 LT ISZERO PUSH2 0x5BF2 JUMPI DUP8 DUP6 ADD MLOAD PUSH1 0x0 NOT PUSH1 0x3 DUP9 SWAP1 SHL PUSH1 0xF8 AND SHR NOT AND DUP2 SSTORE JUMPDEST POP POP POP POP POP PUSH1 0x1 SWAP1 DUP2 SHL ADD SWAP1 SSTORE POP JUMP JUMPDEST PUSH1 0x20 DUP1 DUP3 MSTORE PUSH1 0x2E SWAP1 DUP3 ADD MSTORE PUSH32 0xD09CD0B8D0BDD0B8D0BCD0B0D0BBD18CD0BDD0B0D18F20D181D182D0B0D0B2D0 PUSH1 0x40 DUP3 ADD MSTORE PUSH14 0xBAD0B0202D2031302050524F4649 PUSH1 0x90 SHL PUSH1 0x60 DUP3 ADD MSTORE PUSH1 0x80 ADD SWAP1 JUMP JUMPDEST DUP1 DUP3 ADD DUP1 DUP3 GT ISZERO PUSH2 0x4CE JUMPI PUSH2 0x4CE PUSH2 0x5A5F JUMP JUMPDEST PUSH1 0x0 DUP1 DUP6 DUP6 GT ISZERO PUSH2 0x5C73 JUMPI PUSH1 0x0 DUP1 REVERT JUMPDEST DUP4 DUP7 GT ISZERO PUSH2 0x5C80 JUMPI PUSH1 0x0 DUP1 REVERT JUMPDEST POP POP DUP3 ADD SWAP4 SWAP2 SWAP1 SWAP3 SUB SWAP2 POP JUMP JUMPDEST PUSH6 0x50524F46492D PUSH1 0xD0 SHL DUP2 MSTORE DUP2 DUP4 PUSH1 0x6 DUP4 ADD CALLDATACOPY PUSH4 0xC8C0C8D PUSH1 0xE2 SHL SWAP2 ADD PUSH1 0x6 DUP2 ADD SWAP2 SWAP1 SWAP2 MSTORE PUSH1 0xA ADD SWAP2 SWAP1 POP JUMP JUMPDEST PUSH1 0x0 DUP3 MLOAD PUSH2 0x5CCC DUP2 DUP5 PUSH1 0x20 DUP8 ADD PUSH2 0x50A7 JUMP JUMPDEST SWAP2 SWAP1 SWAP2 ADD SWAP3 SWAP2 POP POP JUMP JUMPDEST DUP2 DUP2 SUB DUP2 DUP2 GT ISZERO PUSH2 0x4CE JUMPI PUSH2 0x4CE PUSH2 0x5A5F JUMP JUMPDEST PUSH1 0x0 DUP3 PUSH2 0x5D06 JUMPI PUSH4 0x4E487B71 PUSH1 0xE0 SHL PUSH1 0x0 MSTORE PUSH1 0x12 PUSH1 0x4 MSTORE PUSH1 0x24 PUSH1 0x0 REVERT JUMPDEST POP DIV SWAP1 JUMP JUMPDEST PUSH1 0x40 DUP2 MSTORE PUSH1 0x0 PUSH2 0x5D1E PUSH1 0x40 DUP4 ADD DUP6 PUSH2 0x5675 JUMP JUMPDEST DUP3 DUP2 SUB PUSH1 0x20 DUP5 ADD MSTORE PUSH2 0x5D30 DUP2 DUP6 PUSH2 0x5675 JUMP JUMPDEST SWAP6 SWAP5 POP POP POP POP POP JUMP JUMPDEST PUSH1 0x1 PUSH1 0x1 PUSH1 0xA0 SHL SUB DUP7 DUP2 AND DUP3 MSTORE DUP6 AND PUSH1 0x20 DUP3 ADD MSTORE PUSH1 0x40 DUP2 ADD DUP5 SWAP1 MSTORE PUSH1 0x60 DUP2 ADD DUP4 SWAP1 MSTORE PUSH1 0xA0 PUSH1 0x80 DUP3 ADD DUP2 SWAP1 MSTORE PUSH1 0x0 SWAP1 PUSH2 0x5D73 SWAP1 DUP4 ADD DUP5 PUSH2 0x50CB JUMP JUMPDEST SWAP8 SWAP7 POP POP POP POP POP POP POP JUMP JUMPDEST PUSH1 0x0 PUSH1 0x20 DUP3 DUP5 SUB SLT ISZERO PUSH2 0x5D90 JUMPI PUSH1 0x0 DUP1 REVERT JUMPDEST DUP2 MLOAD PUSH2 0x502F DUP2 PUSH2 0x4FFC JUMP JUMPDEST PUSH1 0x1 PUSH1 0x1 PUSH1 0xA0 SHL SUB DUP7 DUP2 AND DUP3 MSTORE DUP6 AND PUSH1 0x20 DUP3 ADD MSTORE PUSH1 0xA0 PUSH1 0x40 DUP3 ADD DUP2 SWAP1 MSTORE PUSH1 0x0 SWAP1 PUSH2 0x5DC7 SWAP1 DUP4 ADD DUP7 PUSH2 0x5675 JUMP JUMPDEST DUP3 DUP2 SUB PUSH1 0x60 DUP5 ADD MSTORE PUSH2 0x5DD9 DUP2 DUP7 PUSH2 0x5675 JUMP JUMPDEST SWAP1 POP DUP3 DUP2 SUB PUSH1 0x80 DUP5 ADD MSTORE PUSH2 0x5DED DUP2 DUP6 PUSH2 0x50CB JUMP JUMPDEST SWAP9 SWAP8 POP POP POP POP POP POP POP POP JUMP INVALID LOG2 PUSH5 0x6970667358 0x22 SLT KECCAK256 LOG4 0xE0 0xD6 TIMESTAMP CHAINID 0xC5 PUSH29 0xAB6F77E82BEE8FFFEA50B057BCEDC69570AE24142D3F115F4064736F6C PUSH4 0x43000816 STOP CALLER 0xD0 SWAP16 0xD1 DUP4 0xD0 0xB7 0xD1 DUP12 0xD1 DUP1 0xD0 0xB8 0xD0 0xBA KECCAK256 0xD0 0xBF 0xD0 0xBE 0xD1 DUP6 0xD0 0xB8 0xD1 DUP3 0xD0 0xB8 0xD0 0xBB KECCAK256 0xD0 0xBA 0xD0 0xBE 0xD1 DUP3 0xD0 0xB8 0xD0 0xBA 0xD0 0xB0 KECCAK256 0xD1 DUP2 KECCAK256 0xD0 SWAP8 0xD0 0xB5 0xD0 0xBC 0xD0 0xBB 0xD0 0xB8 0xD0 SWAP11 0xD0 0xBE 0xD0 0xBC 0xD0 0xBE 0xD1 DUP8 0xD0 0xB5 0xD0 0xBA KECCAK256 0xD1 DUP2 0xD0 0xBB 0xD0 0xB8 0xD0 0xBB 0xD1 DUP2 0xD1 DUP16 KECCAK256 0xD1 DUP2 KECCAK256 0xD0 0xBA 0xD0 0xBE 0xD1 DUP2 0xD0 0xBC 0xD0 0xBE 0xD1 DUP2 0xD0 0xBE 0xD0 0xBC 0xD0 SWAP3 0xD0 0xBA 0xD1 DUP4 0xD1 DUP2 0xD0 0xBD 0xD1 DUP16 0xD1 DUP9 0xD0 0xBA 0xD0 0xB0 KECCAK256 0xD0 0xB2 0xD0 0xBF 0xD0 0xB5 0xD1 DUP1 0xD0 0xB2 0xD1 DUP12 0xD0 0xB5 KECCAK256 0xD0 0xBF 0xD1 DUP1 0xD0 0xBE 0xD0 0xB1 0xD1 DUP4 0xD0 0xB5 0xD1 DUP3 KECCAK256 0xD1 DUP16 0xD0 0xBF 0xD0 0xBE 0xD0 0xBD 0xD1 DUP2 0xD0 0xBA 0xD1 DUP4 0xD1 DUP15 KECCAK256 0xD0 0xBA 0xD1 DUP4 0xD1 DUP6 0xD0 0xBD 0xD1 DUP15 0xD0 SWAP15 0xD0 0xBD KECCAK256 0xD0 0xB8 0xD0 0xB4 0xD0 0xB5 0xD1 DUP3 KECCAK256 0xD0 0xB8 0xD0 0xB3 0xD1 DUP1 0xD0 0xB0 0xD1 DUP3 0xD1 DUP13 KECCAK256 0xD0 0xB2 KECCAK256 0xD0 0xB1 0xD0 0xB0 0xD1 DUP2 0xD0 0xBA 0xD0 0xB5 0xD1 DUP3 0xD0 0xB1 0xD0 0xBE 0xD0 0xBB "
		},
		"gasEstimates": {
			"creation": {
				"codeDepositCost": "4822200",
				"executionCost": "infinite",
				"totalCost": "infinite"
			},
			"external": {
				"addUsersRef(address)": "infinite",
				"balanceOf(address,uint256)": "2683",
				"balanceOfBatch(address[],uint256[])": "infinite",
				"bet(uint256,uint256)": "infinite",
				"buyNFT(uint256,uint256,uint256)": "infinite",
				"changeSellPrice(uint256,uint256)": "31159",
				"checkAucTime(uint256)": "infinite",
				"createCollection(string,string,uint256[],uint256[])": "infinite",
				"createNFT(string,string,string,uint256,uint256)": "infinite",
				"createRef(string)": "infinite",
				"finishAuc(uint256)": "infinite",
				"getArrayAsset()": "infinite",
				"getAuctionArray(uint256)": "17921",
				"getBet(uint256)": "infinite",
				"getCollectionAsset()": "infinite",
				"getTime()": "226",
				"getUserAssets()": "infinite",
				"getsellsArray()": "infinite",
				"isApprovedForAll(address,address)": "infinite",
				"safeBatchTransferFrom(address,address,uint256[],uint256[],bytes)": "infinite",
				"safeTransferFrom(address,address,uint256,uint256,bytes)": "infinite",
				"sellNFT(uint256,uint256,uint256)": "124220",
				"setApprovalForAll(address,bool)": "26748",
				"startAuc(uint256,uint256,uint256,uint256)": "infinite",
				"supportsInterface(bytes4)": "601",
				"takeNFT(uint256)": "infinite",
				"transferNFT(uint256,address,uint256)": "infinite",
				"upBet(uint256,uint256)": "infinite",
				"uri(uint256)": "infinite",
				"useReferral(string)": "infinite"
			}
		},
		"methodIdentifiers": {
			"addUsersRef(address)": "1b1bf2b9",
			"balanceOf(address,uint256)": "00fdd58e",
			"balanceOfBatch(address[],uint256[])": "4e1273f4",
			"bet(uint256,uint256)": "6ffcc719",
			"buyNFT(uint256,uint256,uint256)": "e4b70b42",
			"changeSellPrice(uint256,uint256)": "90420aee",
			"checkAucTime(uint256)": "bfcc4394",
			"createCollection(string,string,uint256[],uint256[])": "f3d174ca",
			"createNFT(string,string,string,uint256,uint256)": "2ac7cf6c",
			"createRef(string)": "4dad2aab",
			"finishAuc(uint256)": "222d9c5c",
			"getArrayAsset()": "e713f42c",
			"getAuctionArray(uint256)": "2adc6603",
			"getBet(uint256)": "061e494f",
			"getCollectionAsset()": "f8976921",
			"getTime()": "557ed1ba",
			"getUserAssets()": "1b26708c",
			"getsellsArray()": "24897ed6",
			"isApprovedForAll(address,address)": "e985e9c5",
			"safeBatchTransferFrom(address,address,uint256[],uint256[],bytes)": "2eb2c2d6",
			"safeTransferFrom(address,address,uint256,uint256,bytes)": "f242432a",
			"sellNFT(uint256,uint256,uint256)": "214eac4f",
			"setApprovalForAll(address,bool)": "a22cb465",
			"startAuc(uint256,uint256,uint256,uint256)": "f036033a",
			"supportsInterface(bytes4)": "01ffc9a7",
			"takeNFT(uint256)": "fb2facc3",
			"transferNFT(uint256,address,uint256)": "5bbc1a04",
			"upBet(uint256,uint256)": "2d632205",
			"uri(uint256)": "0e89341c",
			"useReferral(string)": "97f588c6"
		}
	},
	"abi": [
		{
			"inputs": [
				{
					"internalType": "address",
					"name": "_contractAddress",
					"type": "address"
				}
			],
			"stateMutability": "nonpayable",
			"type": "constructor"
		},
		{
			"inputs": [
				{
					"internalType": "address",
					"name": "sender",
					"type": "address"
				},
				{
					"internalType": "uint256",
					"name": "balance",
					"type": "uint256"
				},
				{
					"internalType": "uint256",
					"name": "needed",
					"type": "uint256"
				},
				{
					"internalType": "uint256",
					"name": "tokenId",
					"type": "uint256"
				}
			],
			"name": "ERC1155InsufficientBalance",
			"type": "error"
		},
		{
			"inputs": [
				{
					"internalType": "address",
					"name": "approver",
					"type": "address"
				}
			],
			"name": "ERC1155InvalidApprover",
			"type": "error"
		},
		{
			"inputs": [
				{
					"internalType": "uint256",
					"name": "idsLength",
					"type": "uint256"
				},
				{
					"internalType": "uint256",
					"name": "valuesLength",
					"type": "uint256"
				}
			],
			"name": "ERC1155InvalidArrayLength",
			"type": "error"
		},
		{
			"inputs": [
				{
					"internalType": "address",
					"name": "operator",
					"type": "address"
				}
			],
			"name": "ERC1155InvalidOperator",
			"type": "error"
		},
		{
			"inputs": [
				{
					"internalType": "address",
					"name": "receiver",
					"type": "address"
				}
			],
			"name": "ERC1155InvalidReceiver",
			"type": "error"
		},
		{
			"inputs": [
				{
					"internalType": "address",
					"name": "sender",
					"type": "address"
				}
			],
			"name": "ERC1155InvalidSender",
			"type": "error"
		},
		{
			"inputs": [
				{
					"internalType": "address",
					"name": "operator",
					"type": "address"
				},
				{
					"internalType": "address",
					"name": "owner",
					"type": "address"
				}
			],
			"name": "ERC1155MissingApprovalForAll",
			"type": "error"
		},
		{
			"anonymous": false,
			"inputs": [
				{
					"indexed": true,
					"internalType": "address",
					"name": "account",
					"type": "address"
				},
				{
					"indexed": true,
					"internalType": "address",
					"name": "operator",
					"type": "address"
				},
				{
					"indexed": false,
					"internalType": "bool",
					"name": "approved",
					"type": "bool"
				}
			],
			"name": "ApprovalForAll",
			"type": "event"
		},
		{
			"anonymous": false,
			"inputs": [
				{
					"indexed": true,
					"internalType": "address",
					"name": "operator",
					"type": "address"
				},
				{
					"indexed": true,
					"internalType": "address",
					"name": "from",
					"type": "address"
				},
				{
					"indexed": true,
					"internalType": "address",
					"name": "to",
					"type": "address"
				},
				{
					"indexed": false,
					"internalType": "uint256[]",
					"name": "ids",
					"type": "uint256[]"
				},
				{
					"indexed": false,
					"internalType": "uint256[]",
					"name": "values",
					"type": "uint256[]"
				}
			],
			"name": "TransferBatch",
			"type": "event"
		},
		{
			"anonymous": false,
			"inputs": [
				{
					"indexed": true,
					"internalType": "address",
					"name": "operator",
					"type": "address"
				},
				{
					"indexed": true,
					"internalType": "address",
					"name": "from",
					"type": "address"
				},
				{
					"indexed": true,
					"internalType": "address",
					"name": "to",
					"type": "address"
				},
				{
					"indexed": false,
					"internalType": "uint256",
					"name": "id",
					"type": "uint256"
				},
				{
					"indexed": false,
					"internalType": "uint256",
					"name": "value",
					"type": "uint256"
				}
			],
			"name": "TransferSingle",
			"type": "event"
		},
		{
			"anonymous": false,
			"inputs": [
				{
					"indexed": false,
					"internalType": "string",
					"name": "value",
					"type": "string"
				},
				{
					"indexed": true,
					"internalType": "uint256",
					"name": "id",
					"type": "uint256"
				}
			],
			"name": "URI",
			"type": "event"
		},
		{
			"inputs": [
				{
					"internalType": "address",
					"name": "_users",
					"type": "address"
				}
			],
			"name": "addUsersRef",
			"outputs": [],
			"stateMutability": "nonpayable",
			"type": "function"
		},
		{
			"inputs": [
				{
					"internalType": "address",
					"name": "account",
					"type": "address"
				},
				{
					"internalType": "uint256",
					"name": "id",
					"type": "uint256"
				}
			],
			"name": "balanceOf",
			"outputs": [
				{
					"internalType": "uint256",
					"name": "",
					"type": "uint256"
				}
			],
			"stateMutability": "view",
			"type": "function"
		},
		{
			"inputs": [
				{
					"internalType": "address[]",
					"name": "accounts",
					"type": "address[]"
				},
				{
					"internalType": "uint256[]",
					"name": "ids",
					"type": "uint256[]"
				}
			],
			"name": "balanceOfBatch",
			"outputs": [
				{
					"internalType": "uint256[]",
					"name": "",
					"type": "uint256[]"
				}
			],
			"stateMutability": "view",
			"type": "function"
		},
		{
			"inputs": [
				{
					"internalType": "uint256",
					"name": "_idx",
					"type": "uint256"
				},
				{
					"internalType": "uint256",
					"name": "_bet",
					"type": "uint256"
				}
			],
			"name": "bet",
			"outputs": [],
			"stateMutability": "nonpayable",
			"type": "function"
		},
		{
			"inputs": [
				{
					"internalType": "uint256",
					"name": "_id",
					"type": "uint256"
				},
				{
					"internalType": "uint256",
					"name": "_amount",
					"type": "uint256"
				},
				{
					"internalType": "uint256",
					"name": "_discount",
					"type": "uint256"
				}
			],
			"name": "buyNFT",
			"outputs": [],
			"stateMutability": "nonpayable",
			"type": "function"
		},
		{
			"inputs": [
				{
					"internalType": "uint256",
					"name": "_idx",
					"type": "uint256"
				},
				{
					"internalType": "uint256",
					"name": "_price",
					"type": "uint256"
				}
			],
			"name": "changeSellPrice",
			"outputs": [],
			"stateMutability": "nonpayable",
			"type": "function"
		},
		{
			"inputs": [
				{
					"internalType": "uint256",
					"name": "_idx",
					"type": "uint256"
				}
			],
			"name": "checkAucTime",
			"outputs": [],
			"stateMutability": "nonpayable",
			"type": "function"
		},
		{
			"inputs": [
				{
					"internalType": "string",
					"name": "_name",
					"type": "string"
				},
				{
					"internalType": "string",
					"name": "_desc",
					"type": "string"
				},
				{
					"internalType": "uint256[]",
					"name": "_ids",
					"type": "uint256[]"
				},
				{
					"internalType": "uint256[]",
					"name": "_amounts",
					"type": "uint256[]"
				}
			],
			"name": "createCollection",
			"outputs": [],
			"stateMutability": "nonpayable",
			"type": "function"
		},
		{
			"inputs": [
				{
					"internalType": "string",
					"name": "_name",
					"type": "string"
				},
				{
					"internalType": "string",
					"name": "_desc",
					"type": "string"
				},
				{
					"internalType": "string",
					"name": "_img",
					"type": "string"
				},
				{
					"internalType": "uint256",
					"name": "_price",
					"type": "uint256"
				},
				{
					"internalType": "uint256",
					"name": "_releasedAmount",
					"type": "uint256"
				}
			],
			"name": "createNFT",
			"outputs": [],
			"stateMutability": "nonpayable",
			"type": "function"
		},
		{
			"inputs": [
				{
					"internalType": "string",
					"name": "_wallet",
					"type": "string"
				}
			],
			"name": "createRef",
			"outputs": [],
			"stateMutability": "nonpayable",
			"type": "function"
		},
		{
			"inputs": [
				{
					"internalType": "uint256",
					"name": "_idx",
					"type": "uint256"
				}
			],
			"name": "finishAuc",
			"outputs": [],
			"stateMutability": "nonpayable",
			"type": "function"
		},
		{
			"inputs": [],
			"name": "getArrayAsset",
			"outputs": [
				{
					"components": [
						{
							"internalType": "uint256",
							"name": "idx",
							"type": "uint256"
						},
						{
							"internalType": "string",
							"name": "name",
							"type": "string"
						},
						{
							"internalType": "string",
							"name": "desc",
							"type": "string"
						},
						{
							"internalType": "string",
							"name": "img",
							"type": "string"
						},
						{
							"internalType": "uint256",
							"name": "price",
							"type": "uint256"
						},
						{
							"internalType": "uint256",
							"name": "amount",
							"type": "uint256"
						},
						{
							"internalType": "uint256",
							"name": "releasedAmount",
							"type": "uint256"
						},
						{
							"internalType": "uint256",
							"name": "dateCreate",
							"type": "uint256"
						},
						{
							"internalType": "uint256",
							"name": "collectionId",
							"type": "uint256"
						}
					],
					"internalType": "struct NFT.AssetNFT[]",
					"name": "",
					"type": "tuple[]"
				}
			],
			"stateMutability": "view",
			"type": "function"
		},
		{
			"inputs": [
				{
					"internalType": "uint256",
					"name": "_idx",
					"type": "uint256"
				}
			],
			"name": "getAuctionArray",
			"outputs": [
				{
					"components": [
						{
							"internalType": "uint256",
							"name": "id",
							"type": "uint256"
						},
						{
							"internalType": "uint256",
							"name": "collectionId",
							"type": "uint256"
						},
						{
							"internalType": "uint256",
							"name": "timeStart",
							"type": "uint256"
						},
						{
							"internalType": "uint256",
							"name": "timeEnd",
							"type": "uint256"
						},
						{
							"internalType": "uint256",
							"name": "maxPrice",
							"type": "uint256"
						},
						{
							"internalType": "address",
							"name": "leader",
							"type": "address"
						},
						{
							"internalType": "uint256",
							"name": "currentBet",
							"type": "uint256"
						}
					],
					"internalType": "struct NFT.Auction",
					"name": "",
					"type": "tuple"
				}
			],
			"stateMutability": "view",
			"type": "function"
		},
		{
			"inputs": [
				{
					"internalType": "uint256",
					"name": "_id",
					"type": "uint256"
				}
			],
			"name": "getBet",
			"outputs": [
				{
					"components": [
						{
							"internalType": "uint256",
							"name": "amount",
							"type": "uint256"
						},
						{
							"internalType": "address",
							"name": "owner",
							"type": "address"
						}
					],
					"internalType": "struct NFT.Bet[]",
					"name": "",
					"type": "tuple[]"
				}
			],
			"stateMutability": "view",
			"type": "function"
		},
		{
			"inputs": [],
			"name": "getCollectionAsset",
			"outputs": [
				{
					"components": [
						{
							"internalType": "string",
							"name": "name",
							"type": "string"
						},
						{
							"internalType": "string",
							"name": "desc",
							"type": "string"
						},
						{
							"internalType": "uint256[]",
							"name": "ids",
							"type": "uint256[]"
						},
						{
							"internalType": "uint256[]",
							"name": "amounts",
							"type": "uint256[]"
						}
					],
					"internalType": "struct NFT.CollectionAsset[]",
					"name": "",
					"type": "tuple[]"
				}
			],
			"stateMutability": "view",
			"type": "function"
		},
		{
			"inputs": [],
			"name": "getTime",
			"outputs": [
				{
					"internalType": "uint256",
					"name": "",
					"type": "uint256"
				}
			],
			"stateMutability": "view",
			"type": "function"
		},
		{
			"inputs": [],
			"name": "getUserAssets",
			"outputs": [
				{
					"components": [
						{
							"internalType": "uint256",
							"name": "idx",
							"type": "uint256"
						},
						{
							"internalType": "string",
							"name": "name",
							"type": "string"
						},
						{
							"internalType": "string",
							"name": "desc",
							"type": "string"
						},
						{
							"internalType": "string",
							"name": "img",
							"type": "string"
						},
						{
							"internalType": "uint256",
							"name": "price",
							"type": "uint256"
						},
						{
							"internalType": "uint256",
							"name": "amount",
							"type": "uint256"
						},
						{
							"internalType": "uint256",
							"name": "releasedAmount",
							"type": "uint256"
						},
						{
							"internalType": "uint256",
							"name": "dateCreate",
							"type": "uint256"
						},
						{
							"internalType": "uint256",
							"name": "collectionId",
							"type": "uint256"
						}
					],
					"internalType": "struct NFT.AssetNFT[]",
					"name": "",
					"type": "tuple[]"
				}
			],
			"stateMutability": "view",
			"type": "function"
		},
		{
			"inputs": [],
			"name": "getsellsArray",
			"outputs": [
				{
					"components": [
						{
							"internalType": "uint256",
							"name": "assetIdx",
							"type": "uint256"
						},
						{
							"internalType": "address",
							"name": "seller",
							"type": "address"
						},
						{
							"internalType": "uint256",
							"name": "amount",
							"type": "uint256"
						},
						{
							"internalType": "uint256",
							"name": "price",
							"type": "uint256"
						}
					],
					"internalType": "struct NFT.AssetSell[]",
					"name": "",
					"type": "tuple[]"
				}
			],
			"stateMutability": "view",
			"type": "function"
		},
		{
			"inputs": [
				{
					"internalType": "address",
					"name": "account",
					"type": "address"
				},
				{
					"internalType": "address",
					"name": "operator",
					"type": "address"
				}
			],
			"name": "isApprovedForAll",
			"outputs": [
				{
					"internalType": "bool",
					"name": "",
					"type": "bool"
				}
			],
			"stateMutability": "view",
			"type": "function"
		},
		{
			"inputs": [
				{
					"internalType": "address",
					"name": "from",
					"type": "address"
				},
				{
					"internalType": "address",
					"name": "to",
					"type": "address"
				},
				{
					"internalType": "uint256[]",
					"name": "ids",
					"type": "uint256[]"
				},
				{
					"internalType": "uint256[]",
					"name": "values",
					"type": "uint256[]"
				},
				{
					"internalType": "bytes",
					"name": "data",
					"type": "bytes"
				}
			],
			"name": "safeBatchTransferFrom",
			"outputs": [],
			"stateMutability": "nonpayable",
			"type": "function"
		},
		{
			"inputs": [
				{
					"internalType": "address",
					"name": "from",
					"type": "address"
				},
				{
					"internalType": "address",
					"name": "to",
					"type": "address"
				},
				{
					"internalType": "uint256",
					"name": "id",
					"type": "uint256"
				},
				{
					"internalType": "uint256",
					"name": "value",
					"type": "uint256"
				},
				{
					"internalType": "bytes",
					"name": "data",
					"type": "bytes"
				}
			],
			"name": "safeTransferFrom",
			"outputs": [],
			"stateMutability": "nonpayable",
			"type": "function"
		},
		{
			"inputs": [
				{
					"internalType": "uint256",
					"name": "_AssetIdx",
					"type": "uint256"
				},
				{
					"internalType": "uint256",
					"name": "_amount",
					"type": "uint256"
				},
				{
					"internalType": "uint256",
					"name": "_price",
					"type": "uint256"
				}
			],
			"name": "sellNFT",
			"outputs": [],
			"stateMutability": "nonpayable",
			"type": "function"
		},
		{
			"inputs": [
				{
					"internalType": "address",
					"name": "operator",
					"type": "address"
				},
				{
					"internalType": "bool",
					"name": "approved",
					"type": "bool"
				}
			],
			"name": "setApprovalForAll",
			"outputs": [],
			"stateMutability": "nonpayable",
			"type": "function"
		},
		{
			"inputs": [
				{
					"internalType": "uint256",
					"name": "_collectionId",
					"type": "uint256"
				},
				{
					"internalType": "uint256",
					"name": "_timeStart",
					"type": "uint256"
				},
				{
					"internalType": "uint256",
					"name": "_timeEnd",
					"type": "uint256"
				},
				{
					"internalType": "uint256",
					"name": "_maxPrice",
					"type": "uint256"
				}
			],
			"name": "startAuc",
			"outputs": [],
			"stateMutability": "nonpayable",
			"type": "function"
		},
		{
			"inputs": [
				{
					"internalType": "bytes4",
					"name": "interfaceId",
					"type": "bytes4"
				}
			],
			"name": "supportsInterface",
			"outputs": [
				{
					"internalType": "bool",
					"name": "",
					"type": "bool"
				}
			],
			"stateMutability": "view",
			"type": "function"
		},
		{
			"inputs": [
				{
					"internalType": "uint256",
					"name": "_idx",
					"type": "uint256"
				}
			],
			"name": "takeNFT",
			"outputs": [],
			"stateMutability": "nonpayable",
			"type": "function"
		},
		{
			"inputs": [
				{
					"internalType": "uint256",
					"name": "_id",
					"type": "uint256"
				},
				{
					"internalType": "address",
					"name": "_receiver",
					"type": "address"
				},
				{
					"internalType": "uint256",
					"name": "_amount",
					"type": "uint256"
				}
			],
			"name": "transferNFT",
			"outputs": [],
			"stateMutability": "nonpayable",
			"type": "function"
		},
		{
			"inputs": [
				{
					"internalType": "uint256",
					"name": "_idx",
					"type": "uint256"
				},
				{
					"internalType": "uint256",
					"name": "_amount",
					"type": "uint256"
				}
			],
			"name": "upBet",
			"outputs": [],
			"stateMutability": "nonpayable",
			"type": "function"
		},
		{
			"inputs": [
				{
					"internalType": "uint256",
					"name": "",
					"type": "uint256"
				}
			],
			"name": "uri",
			"outputs": [
				{
					"internalType": "string",
					"name": "",
					"type": "string"
				}
			],
			"stateMutability": "view",
			"type": "function"
		},
		{
			"inputs": [
				{
					"internalType": "string",
					"name": "_referral",
					"type": "string"
				}
			],
			"name": "useReferral",
			"outputs": [],
			"stateMutability": "nonpayable",
			"type": "function"
		}
	]
}