{
	"data": {
		"bytecode": {
			"linkReferences": {},
			"object": "60806040523480156200001157600080fd5b50604051620070a9380380620070a9833981016040819052620000349162000c17565b6040805160208101909152600081526200004e8162000372565b50600580546001600160a01b0319166001600160a01b0383169081179091556040805163313ce56760e01b8152905163313ce567916004808201926020929091908290030181865afa158015620000a9573d6000803e3d6000fd5b505050506040513d601f19601f82011682018060405250810190620000cf919062000c49565b620000dc90600a62000d83565b600355600480546001600160a01b03191633179055604080518082018252600e81526d684d685f685e685f68c3e85ae85d60911b602080830191909152825160608101909352602f80845262000162939162006ffe9083013960408051808201909152600c81526b6361745f6e6674312e706e6760a01b60208201526000600162000384565b620001d8604051806040016040528060128152602001710d092d0bad183d181d0bdd18fd188d0bad0b60741b8152506040518060800160405280604c81526020016200702d604c913960408051808201909152600c81526b6361745f6e6674322e706e6760a01b60208201526000600162000384565b6200024a6040518060400160405280600e81526020016d684fe8c1e85be8c5e8c0685c685d60911b81525060405180606001604052806038815260200162006fc66038913960408051808201909152600c81526b6361745f6e6674332e706e6760a01b60208201526000600162000384565b620002ce6040518060400160405280601881526020017fd091d0b0d181d0bad0b5d182d0b1d0bed0bbd0b8d181d1820000000000000000815250604051806060016040528060308152602001620070796030913960408051808201909152600f81526e77616c6b65725f6e6674312e706e6760881b60208201526000600162000384565b6200036b604051806040016040528060128152602001716849685f685de8c4685ae858e85ee85c685d60711b8152506040518060400160405280602081526020017fd09ed0bd20d0b8d0b4d0b5d18220d0bad0bed0bbd0b4d0bed0b2d0b0d182d18c8152506040518060400160405280600f81526020016e77616c6b65725f6e6674322e706e6760881b815250600060016200038460201b60201c565b50620010a8565b600262000380828262000e37565b5050565b6004546001600160a01b031633146200041b5760405162461bcd60e51b815260206004820152604860248201527fd0a2d0bed0bbd18cd0bad0be20d0b2d0bbd0b0d0b4d0b5d0bbd0b5d18620d0bc60448201527fd0bed0b6d0b5d18220d18dd182d0be20d0b8d181d0bfd0bed0bbd18cd0b7d0be606482015267342cb42c3460b46360c21b608482015260a4015b60405180910390fd5b6010546040805160208101909152600081526200043c9133918490620006fa565b604080516101008101825233600090815260096020908152838220548352808301898152838501899052606084018890526080840187905260a084018690524260c085015260e08401839052601054835260089091529290208151815591519091906001820190620004af908262000e37565b5060408201516002820190620004c6908262000e37565b5060608201516003820190620004dd908262000e37565b50608082810151600483015560a080840151600584015560c080850151600685015560e09485015160079094019390935533600090815260096020908152604080832081516101008101835281548082528185018f81529382018e9052606082018d90529681018b9052948501899052429685019690965295830182905260018085018655948252902081516008909302019182559251909182019062000585908262000e37565b50604082015160028201906200059c908262000e37565b5060608201516003820190620005b3908262000e37565b50608082810151600483015560a080840151600584015560c080850151600685015560e09485015160079094019390935560408051610100810182523360009081526009602090815283822054835282018c81529282018b9052606082018a90529381018890529182018690524293820193909352928301819052601080546001810182559152825160089091027f1b6847dc741a1b0cd08d278845f9d819d87b734759afb55fe2de5cb82a9ae6728101918255915190917f1b6847dc741a1b0cd08d278845f9d819d87b734759afb55fe2de5cb82a9ae67301906200069a908262000e37565b5060408201516002820190620006b1908262000e37565b5060608201516003820190620006c8908262000e37565b506080820151816004015560a0820151816005015560c0820151816006015560e0820151816007015550505050505050565b6001600160a01b0384166200072657604051632bfa23e760e11b81526000600482015260240162000412565b604080516001808252602082018690528183019081526060820185905260808201909252906200075b60008784848762000763565b505050505050565b6200077185858585620007c6565b6001600160a01b03841615620007bf5782513390600103620007af5760208481015190840151620007a7838989858589620009e9565b50506200075b565b6200075b81878787878762000b23565b5050505050565b8051825114620007f75781518151604051635b05999160e01b81526004810192909252602482015260440162000412565b3360005b835181101562000905576020818102858101820151908501909101516001600160a01b03881615620008b2576000828152602081815260408083206001600160a01b038c168452909152902054818110156200088b576040516303dee4c560e01b81526001600160a01b038a16600482015260248101829052604481018390526064810184905260840162000412565b6000838152602081815260408083206001600160a01b038d16845290915290209082900390555b6001600160a01b03871615620008fa576000828152602081815260408083206001600160a01b038b16845290915281208054839290620008f490849062000f03565b90915550505b5050600101620007fb565b508251600103620009895760208301516000906020840151909150856001600160a01b0316876001600160a01b0316846001600160a01b03167fc3d58168c5ae7397731d063d5bbf3d657854427343f4c083240f7aacaa2d0f62858560405162000979929190918252602082015260400190565b60405180910390a45050620007bf565b836001600160a01b0316856001600160a01b0316826001600160a01b03167f4a39dc06d4c0dbc64b70af90fd698a233a518aa5d07e595d983b8c0526c8f7fb8686604051620009da92919062000f57565b60405180910390a45050505050565b6001600160a01b0384163b156200075b5760405163f23a6e6160e01b81526001600160a01b0385169063f23a6e619062000a30908990899088908890889060040162000fd1565b6020604051808303816000875af192505050801562000a6e575060408051601f3d908101601f1916820190925262000a6b9181019062001018565b60015b62000adc573d80801562000a9f576040519150601f19603f3d011682016040523d82523d6000602084013e62000aa4565b606091505b50805160000362000ad457604051632bfa23e760e11b81526001600160a01b038616600482015260240162000412565b805181602001fd5b6001600160e01b0319811663f23a6e6160e01b1462000b1a57604051632bfa23e760e11b81526001600160a01b038616600482015260240162000412565b50505050505050565b6001600160a01b0384163b156200075b5760405163bc197c8160e01b81526001600160a01b0385169063bc197c819062000b6a908990899088908890889060040162001044565b6020604051808303816000875af192505050801562000ba8575060408051601f3d908101601f1916820190925262000ba59181019062001018565b60015b62000bd9573d80801562000a9f576040519150601f19603f3d011682016040523d82523d6000602084013e62000aa4565b6001600160e01b0319811663bc197c8160e01b1462000b1a57604051632bfa23e760e11b81526001600160a01b038616600482015260240162000412565b60006020828403121562000c2a57600080fd5b81516001600160a01b038116811462000c4257600080fd5b9392505050565b60006020828403121562000c5c57600080fd5b815160ff8116811462000c4257600080fd5b634e487b7160e01b600052601160045260246000fd5b600181815b8085111562000cc557816000190482111562000ca95762000ca962000c6e565b8085161562000cb757918102915b93841c939080029062000c89565b509250929050565b60008262000cde5750600162000d7d565b8162000ced5750600062000d7d565b816001811462000d06576002811462000d115762000d31565b600191505062000d7d565b60ff84111562000d255762000d2562000c6e565b50506001821b62000d7d565b5060208310610133831016604e8410600b841016171562000d56575081810a62000d7d565b62000d62838362000c84565b806000190482111562000d795762000d7962000c6e565b0290505b92915050565b600062000c4260ff84168362000ccd565b634e487b7160e01b600052604160045260246000fd5b600181811c9082168062000dbf57607f821691505b60208210810362000de057634e487b7160e01b600052602260045260246000fd5b50919050565b601f82111562000e32576000816000526020600020601f850160051c8101602086101562000e115750805b601f850160051c820191505b818110156200075b5782815560010162000e1d565b505050565b81516001600160401b0381111562000e535762000e5362000d94565b62000e6b8162000e64845462000daa565b8462000de6565b602080601f83116001811462000ea3576000841562000e8a5750858301515b600019600386901b1c1916600185901b1785556200075b565b600085815260208120601f198616915b8281101562000ed45788860151825594840194600190910190840162000eb3565b508582101562000ef35787850151600019600388901b60f8161c191681555b5050505050600190811b01905550565b8082018082111562000d7d5762000d7d62000c6e565b60008151808452602080850194506020840160005b8381101562000f4c5781518752958201959082019060010162000f2e565b509495945050505050565b60408152600062000f6c604083018562000f19565b828103602084015262000f80818562000f19565b95945050505050565b6000815180845260005b8181101562000fb15760208185018101518683018201520162000f93565b506000602082860101526020601f19601f83011685010191505092915050565b6001600160a01b03868116825285166020820152604081018490526060810183905260a0608082018190526000906200100d9083018462000f89565b979650505050505050565b6000602082840312156200102b57600080fd5b81516001600160e01b03198116811462000c4257600080fd5b6001600160a01b0386811682528516602082015260a060408201819052600090620010729083018662000f19565b828103606084015262001086818662000f19565b905082810360808401526200109c818562000f89565b98975050505050505050565b615f0e80620010b86000396000f3fe608060405234801561001057600080fd5b50600436106101d95760003560e01c806390420aee11610104578063e985e9c5116100a2578063f598b70711610071578063f598b70714610406578063f897692114610419578063f989965d1461042e578063fb2facc31461044157600080fd5b8063e985e9c5146103ad578063eac8f5b8146103c0578063f242432a146103e0578063f3d174ca146103f357600080fd5b8063a2a376cd116100de578063a2a376cd1461035d578063bfcc439414610372578063e4b70b4214610385578063e713f42c1461039857600080fd5b806390420aee1461032457806397f588c614610337578063a22cb4651461034a57600080fd5b80632d6322051161017c5780634e1273f41161014b5780634e1273f4146102d8578063557ed1ba146102f85780636ffcc719146102fe57806385494e451461031157600080fd5b80632d632205146102975780632eb2c2d6146102aa57806341fdf031146102bd5780634dad2aab146102c557600080fd5b80631b1bf2b9116101b85780631b1bf2b914610247578063222d9c5c1461025c57806324897ed61461026f5780632ac7cf6c1461028457600080fd5b8062fdd58e146101de57806301ffc9a7146102045780630e89341c14610227575b600080fd5b6101f16101ec366004614fbb565b610454565b6040519081526020015b60405180910390f35b610217610212366004614ffb565b61047c565b60405190151581526020016101fb565b61023a61023536600461501f565b6104cc565b6040516101fb9190615088565b61025a61025536600461509b565b610560565b005b61025a61026a36600461501f565b6105c3565b610277610efd565b6040516101fb91906150b6565b61025a6102923660046151ee565b610f9b565b61025a6102a5366004615288565b611291565b61025a6102b836600461533d565b611686565b61023a6116ed565b61025a6102d33660046153e7565b61178e565b6102eb6102e6366004615459565b6119df565b6040516101fb9190615555565b426101f1565b61025a61030c366004615288565b611aac565b61025a61031f366004615568565b611d1b565b61025a610332366004615288565b612144565b61025a6103453660046155a5565b612204565b61025a6103583660046155e2565b612613565b610365612622565b6040516101fb919061561e565b61025a61038036600461501f565b6127a5565b61025a6103933660046156f3565b612813565b6103a061304e565b6040516101fb91906157a8565b6102176103bb36600461580c565b61328d565b6103d36103ce36600461501f565b6132bb565b6040516101fb919061583f565b61025a6103ee366004615852565b613511565b61025a6104013660046158b7565b613570565b61025a610414366004615964565b613737565b6104216139a1565b6040516101fb9190615996565b61025a61043c366004615a54565b613bcb565b61025a61044f36600461501f565b613e2e565b6000818152602081815260408083206001600160a01b03861684529091529020545b92915050565b60006001600160e01b03198216636cdb3d1360e11b14806104ad57506001600160e01b031982166303a24d0760e21b145b8061047657506301ffc9a760e01b6001600160e01b0319831614610476565b6060600280546104db90615a8f565b80601f016020809104026020016040519081016040528092919081815260200182805461050790615a8f565b80156105545780601f1061052957610100808354040283529160200191610554565b820191906000526020600020905b81548152906001019060200180831161053757829003601f168201915b50505050509050919050565b336000908152600c602052604090819020905160069161057f91615ac9565b90815260405160209181900382019020600301805460018101825560009182529190200180546001600160a01b0319166001600160a01b0392909216919091179055565b6004546001600160a01b031633146105f65760405162461bcd60e51b81526004016105ed90615b3f565b60405180910390fd5b60045460128054610784926001600160a01b031691908490811061061c5761061c615bad565b906000526020600020906007020160050160009054906101000a90046001600160a01b031660116012858154811061065657610656615bad565b9060005260206000209060070201600101548154811061067857610678615bad565b90600052602060002090600402016002018054806020026020016040519081016040528092919081815260200182805480156106d357602002820191906000526020600020905b8154815260200190600101908083116106bf575b50505050506011601286815481106106ed576106ed615bad565b9060005260206000209060070201600101548154811061070f5761070f615bad565b906000526020600020906004020160030180548060200260200160405190810160405280929190818152602001828054801561076a57602002820191906000526020600020905b815481526020019060010190808311610756575b5050505050604051806020016040528060008152506147df565b60005b60116012838154811061079c5761079c615bad565b906000526020600020906007020160010154815481106107be576107be615bad565b906000526020600020906004020160020180549050811015610eaf5760096000601284815481106107f1576107f1615bad565b906000526020600020906007020160050160009054906101000a90046001600160a01b03166001600160a01b03166001600160a01b03168152602001908152602001600020604051806101000160405280600960006012878154811061085957610859615bad565b906000526020600020906007020160050160009054906101000a90046001600160a01b03166001600160a01b03166001600160a01b0316815260200190815260200160002080549050815260200160086000600a6000601289815481106108c2576108c2615bad565b906000526020600020906007020160010154815260200190815260200160002060020186815481106108f6576108f6615bad565b90600052602060002001548152602001908152602001600020600101805461091d90615a8f565b80601f016020809104026020016040519081016040528092919081815260200182805461094990615a8f565b80156109965780601f1061096b57610100808354040283529160200191610996565b820191906000526020600020905b81548152906001019060200180831161097957829003601f168201915b5050505050815260200160086000600a6000601289815481106109bb576109bb615bad565b906000526020600020906007020160010154815260200190815260200160002060020186815481106109ef576109ef615bad565b906000526020600020015481526020019081526020016000206002018054610a1690615a8f565b80601f0160208091040260200160405190810160405280929190818152602001828054610a4290615a8f565b8015610a8f5780601f10610a6457610100808354040283529160200191610a8f565b820191906000526020600020905b815481529060010190602001808311610a7257829003601f168201915b5050505050815260200160086000600a600060128981548110610ab457610ab4615bad565b90600052602060002090600702016001015481526020019081526020016000206002018681548110610ae857610ae8615bad565b906000526020600020015481526020019081526020016000206003018054610b0f90615a8f565b80601f0160208091040260200160405190810160405280929190818152602001828054610b3b90615a8f565b8015610b885780601f10610b5d57610100808354040283529160200191610b88565b820191906000526020600020905b815481529060010190602001808311610b6b57829003601f168201915b5050505050815260200160086000600a600060128981548110610bad57610bad615bad565b90600052602060002090600702016001015481526020019081526020016000206002018681548110610be157610be1615bad565b906000526020600020015481526020019081526020016000206005015481526020016003546001610c129190615bd9565b815260200160086000600a600060128981548110610c3257610c32615bad565b90600052602060002090600702016001015481526020019081526020016000206002018681548110610c6657610c66615bad565b9060005260206000200154815260200190815260200160002060060154815260200160128581548110610c9b57610c9b615bad565b600091825260208083206001600790930201820154909352845480820186559482529082902083516008909502019384559082015191929190820190610ce19082615c38565b5060408201516002820190610cf69082615c38565b5060608201516003820190610d0b9082615c38565b506080820151816004015560a0820151816005015560c0820151816006015560e0820151816007015550506000600d6000600a600060128781548110610d5357610d53615bad565b90600052602060002090600702016001015481526020019081526020016000206002018481548110610d8757610d87615bad565b60009182526020808320919091015483528281019390935260409182018120805460ff1916941515949094179093556004546001600160a01b03168352600990915281206012805491926008929091600a9183919088908110610dec57610dec615bad565b90600052602060002090600702016001015481526020019081526020016000206002018481548110610e2057610e20615bad565b906000526020600020015481526020019081526020016000206000015481548110610e4d57610e4d615bad565b60009182526020822060089091020181815590610e6d6001830182614e34565b610e7b600283016000614e34565b610e89600383016000614e34565b506000600482018190556005820181905560068201819055600790910155600101610787565b50600060128281548110610ec557610ec5615bad565b906000526020600020906007020160050160006101000a8154816001600160a01b0302191690836001600160a01b0316021790555050565b6060600e805480602002602001604051908101604052809291908181526020016000905b82821015610f925760008481526020908190206040805160c08101825260068602909201805483526001808201548486015260028201549284019290925260038101546001600160a01b03166060840152600481015460808401526005015460a08301529083529092019101610f21565b50505050905090565b6004546001600160a01b03163314610fc55760405162461bcd60e51b81526004016105ed90615b3f565b610fe533601080549050836040518060200160405280600081525061483f565b604080516101008101825233600090815260096020908152838220548352808301898152838501899052606084018890526080840187905260a084018690524260c085015260e084018390526010548352600890915292902081518155915190919060018201906110569082615c38565b506040820151600282019061106b9082615c38565b50606082015160038201906110809082615c38565b50608082810151600483015560a080840151600584015560c080850151600685015560e09485015160079094019390935533600090815260096020908152604080832081516101008101835281548082528185018f81529382018e9052606082018d90529681018b905294850189905242968501969096529583018290526001808501865594825290208151600890930201918255925190918201906111269082615c38565b506040820151600282019061113b9082615c38565b50606082015160038201906111509082615c38565b50608082810151600483015560a080840151600584015560c080850151600685015560e09485015160079094019390935560408051610100810182523360009081526009602090815283822054835282018c81529282018b9052606082018a90529381018890529182018690524293820193909352928301819052601080546001810182559152825160089091027f1b6847dc741a1b0cd08d278845f9d819d87b734759afb55fe2de5cb82a9ae6728101918255915190917f1b6847dc741a1b0cd08d278845f9d819d87b734759afb55fe2de5cb82a9ae67301906112359082615c38565b506040820151600282019061124a9082615c38565b506060820151600382019061125f9082615c38565b506080820151816004015560a0820151816005015560c0820151816006015560e0820151816007015550505050505050565b601282815481106112a4576112a4615bad565b906000526020600020906007020160040154806000036112d65760405162461bcd60e51b81526004016105ed90615cf8565b600a82101561133e5760405162461bcd60e51b815260206004820152602e60248201527fd09cd0b8d0bdd0b8d0bcd0b0d0bbd18cd0bdd0b0d18f20d181d182d0b0d0b2d060448201526dbad0b0202d2031302050524f464960901b60648201526084016105ed565b336001600160a01b03166012848154811061135b5761135b615bad565b60009182526020909120600560079092020101546001600160a01b0316036113be5760405162461bcd60e51b815260206004820152601660248201527501a125a31641a307a16da16a41a177a171a169a16ba360571b60448201526064016105ed565b60005b6000848152600b6020526040902054811015611680576000848152600b602052604090208054339190839081106113fa576113fa615bad565b60009182526020909120600160029092020101546001600160a01b031603611678576003546114299084615bd9565b6000858152600b6020526040902080548390811061144957611449615bad565b906000526020600020906002020160000160008282546114699190615d2f565b909155505060055460048054604051637aa9bf6f60e11b815233928101929092526001600160a01b039081166024830152604482018690529091169063f5537ede90606401600060405180830381600087803b1580156114c857600080fd5b505af11580156114dc573d6000803e3d6000fd5b50505050601284815481106114f3576114f3615bad565b906000526020600020906007020160060154600b6000868152602001908152602001600020828154811061152957611529615bad565b90600052602060002090600202016000015411156115e5576000848152600b6020526040902080548290811061156157611561615bad565b9060005260206000209060020201600001546012858154811061158657611586615bad565b90600052602060002090600702016006018190555033601285815481106115af576115af615bad565b906000526020600020906007020160050160006101000a8154816001600160a01b0302191690836001600160a01b031602179055505b601284815481106115f8576115f8615bad565b906000526020600020906007020160040154600b6000868152602001908152602001600020828154811061162e5761162e615bad565b906000526020600020906002020160000154106116785760006012858154811061165a5761165a615bad565b90600052602060002090600702016004018190555061167884613e2e565b6001016113c1565b50505050565b336001600160a01b03861681148015906116a757506116a5868261328d565b155b156116d85760405163711bec9160e11b81526001600160a01b038083166004830152871660248201526044016105ed565b6116e586868686866147df565b505050505050565b336000908152600c6020526040902080546060919061170b90615a8f565b80601f016020809104026020016040519081016040528092919081815260200182805461173790615a8f565b80156117845780601f1061175957610100808354040283529160200191611784565b820191906000526020600020905b81548152906001019060200180831161176757829003601f168201915b5050505050905090565b33600661179e8160028587615d42565b6040516020016117af929190615d6c565b60408051601f19818403018152908290526117c991615d99565b908152604051908190036020019020600101546001600160a01b0316036118445760405162461bcd60e51b815260206004820152602960248201527fd092d18b20d183d0b6d0b520d181d0bed0b7d0b4d0b0d0bbd0b820d180d0b5d160448201526884d0b5d180d0b0d0bb60b81b60648201526084016105ed565b60606000611856600660028587615d42565b604051602001611867929190615d6c565b60408051601f198184030181526080830182528083523360208401526000838301526060830185905290519092506006906118a3908490615d99565b908152604051908190036020019020815181906118c09082615c38565b506020828101516001830180546001600160a01b0319166001600160a01b0390921691909117905560408301516002830155606083015180516119099260038501920190614e6e565b505060408051608081018252838152336020820152600091810182905260608101859052600f80546001810182559252805190925060049091027f8d1108e10bcb7c27dddfc02ed9d693a074039d026cf4ea4240b40f7d581ac802019081906119729082615c38565b506020828101516001830180546001600160a01b0319166001600160a01b0390921691909117905560408301516002830155606083015180516119bb9260038501920190614e6e565b5050336000908152600c6020526040902090506119d88282615c38565b5050505050565b60608151835114611a105781518351604051635b05999160e01b8152600481019290925260248201526044016105ed565b6000835167ffffffffffffffff811115611a2c57611a2c615137565b604051908082528060200260200182016040528015611a55578160200160208202803683370190505b50905060005b8451811015611aa457602080820286010151611a7f90602080840287010151610454565b828281518110611a9157611a91615bad565b6020908102919091010152600101611a5b565b509392505050565b60128281548110611abf57611abf615bad565b90600052602060002090600702016004015480600003611af15760405162461bcd60e51b81526004016105ed90615cf8565b8160128481548110611b0557611b05615bad565b90600052602060002090600702016006015410611b7c5760405162461bcd60e51b815260206004820152602f60248201527fd0a2d0b5d0bad183d189d0b0d18f20d181d182d0b0d0b2d0bad0b020d0b2d18b60448201526ed188d0b520d0b2d0b0d188d0b5d0b960881b60648201526084016105ed565b60055460048054604051637aa9bf6f60e11b815233928101929092526001600160a01b039081166024830152604482018590529091169063f5537ede90606401600060405180830381600087803b158015611bd657600080fd5b505af1158015611bea573d6000803e3d6000fd5b505050508160128481548110611c0257611c02615bad565b9060005260206000209060070201600601819055503360128481548110611c2b57611c2b615bad565b6000918252602080832060056007909302019190910180546001600160a01b039485166001600160a01b031991821617909155868352600b82526040808420815180830190925287825233828501908152815460018181018455928752949095209151600290940290910192835592519190920180549190931691161790556012805484908110611cbe57611cbe615bad565b90600052602060002090600702016004015460035483611cde9190615bd9565b10611d1657600060128481548110611cf857611cf8615bad565b906000526020600020906007020160040181905550611d1683613e2e565b505050565b611d37338386846040518060200160405280600081525061489c565b336000908152600960205260409020805482919085908110611d5b57611d5b615bad565b90600052602060002090600802016005016000828254611d7b9190615db5565b90915550506001600160a01b038216600090815260096020908152604080832081516101008101835281548152888552600884529190932060010180549192830191611dc690615a8f565b80601f0160208091040260200160405190810160405280929190818152602001828054611df290615a8f565b8015611e3f5780601f10611e1457610100808354040283529160200191611e3f565b820191906000526020600020905b815481529060010190602001808311611e2257829003601f168201915b50505050508152602001600860008881526020019081526020016000206002018054611e6a90615a8f565b80601f0160208091040260200160405190810160405280929190818152602001828054611e9690615a8f565b8015611ee35780601f10611eb857610100808354040283529160200191611ee3565b820191906000526020600020905b815481529060010190602001808311611ec657829003601f168201915b50505050508152602001600860008881526020019081526020016000206003018054611f0e90615a8f565b80601f0160208091040260200160405190810160405280929190818152602001828054611f3a90615a8f565b8015611f875780601f10611f5c57610100808354040283529160200191611f87565b820191906000526020600020905b815481529060010190602001808311611f6a57829003601f168201915b5050505050815260200183815260200160096000336001600160a01b03166001600160a01b031681526020019081526020016000208681548110611fcd57611fcd615bad565b6000918252602080832060089283020160040154845289835281815260408084206006810154868401528383526007015494019390935284546001808201875595835291839020845192909102019081559082015191929091908201906120349082615c38565b50604082015160028201906120499082615c38565b506060820151600382019061205e9082615c38565b506080820151600482015560a0820151600582015560c0820151600682015560e0909101516007909101553360009081526009602052604090208054849081106120aa576120aa615bad565b906000526020600020906008020160050154600003611680573360009081526009602052604090208054849081106120e4576120e4615bad565b600091825260208220600890910201818155906121046001830182614e34565b612112600283016000614e34565b612120600383016000614e34565b50600060048201819055600582018190556006820181905560079091015550505050565b336001600160a01b0316600e838154811061216157612161615bad565b60009182526020909120600360069092020101546001600160a01b0316146121cb5760405162461bcd60e51b815260206004820152601960248201527fd0add182d0be20d0bdd0b520d0b2d0b0d18820d0bbd0bed1820000000000000060448201526064016105ed565b6003546121d89082615bd9565b600e83815481106121eb576121eb615bad565b9060005260206000209060060201600501819055505050565b60005b6006826040516122179190615d99565b908152604051908190036020019020600301548110156122f4576006826040516122419190615d99565b9081526020016040518091039020600301818154811061226357612263615bad565b6000918252602090912001546001600160a01b031633146122ec5760405162461bcd60e51b815260206004820152603f60248201527fd092d18b20d0bdd0b520d0bcd0bed0b6d0b5d182d0b520d0b8d181d0bfd0bed060448201527fbbd18cd0b7d0bed0b2d0b0d182d18c20d18dd182d0bed18220d0bad0bed0b40060648201526084016105ed565b600101612207565b50336001600160a01b031660068260405161230f9190615d99565b908152604051908190036020019020600101546001600160a01b0316036123ac5760405162461bcd60e51b8152602060048201526044602482018190527fd092d18b20d0bdd0b520d0bcd0bed0b6d0b5d182d0b520d0b8d181d0bfd0bed0908201527fbbd18cd0b7d0bed0b2d0b0d182d18c20d181d0b2d0bed0b920d0b6d0b520d0ba606482015263342fb42d60e21b608482015260a4016105ed565b806040516020016123bd9190615d99565b604051602081830303815290604052805190602001206006826040516123e39190615d99565b908152604051602091819003820181206123ff92909101615ac9565b60405160208183030381529060405280519060200120146124985760405162461bcd60e51b815260206004820152604760248201527fd0a2d0b0d0bad0bed0b3d0be20d180d0b5d184d0b5d180d0b0d0bbd18cd0bdd060448201527fbed0b3d0be20d0bad0bed0b4d0b020d0bdd0b5d18220d0b220d181d0b8d181d160648201526682d0b5d0bcd0b560c81b608482015260a4016105ed565b3360009081526007602052604090205460ff1615156001036125105760405162461bcd60e51b815260206004820152602b60248201527fd092d18b20d183d0b6d0b520d0b8d181d0bfd0bed0bbd18cd0b7d0bed0b2d0b060448201526a342ef42e08342eb42fb42d60aa1b60648201526084016105ed565b600560009054906101000a90046001600160a01b03166001600160a01b0316633424e5ad6040518163ffffffff1660e01b8152600401600060405180830381600087803b15801561256057600080fd5b505af1158015612574573d6000803e3d6000fd5b50503360009081526007602052604090819020805460ff191660011790555160039250600691506125a6908490615d99565b9081526020016040518091039020600201541015612610576006816040516125ce9190615d99565b90815260200160405180910390206002015460016125ec9190615d2f565b6006826040516125fc9190615d99565b908152604051908190036020019020600201555b50565b61261e33838361492a565b5050565b6060600f805480602002602001604051908101604052809291908181526020016000905b82821015610f92578382906000526020600020906004020160405180608001604052908160008201805461267990615a8f565b80601f01602080910402602001604051908101604052809291908181526020018280546126a590615a8f565b80156126f25780601f106126c7576101008083540402835291602001916126f2565b820191906000526020600020905b8154815290600101906020018083116126d557829003601f168201915b505050505081526020016001820160009054906101000a90046001600160a01b03166001600160a01b03166001600160a01b03168152602001600282015481526020016003820180548060200260200160405190810160405280929190818152602001828054801561278d57602002820191906000526020600020905b81546001600160a01b0316815260019091019060200180831161276f575b50505050508152505081526020019060010190612646565b601281815481106127b8576127b8615bad565b906000526020600020906007020160030154426127d59190615db5565b601282815481106127e8576127e8615bad565b906000526020600020906007020160020154426128059190615db5565b116126105761261081613e2e565b600060648284600e878154811061282c5761282c615bad565b9060005260206000209060060201600501546128489190615bd9565b6128529190615bd9565b61285c9190615dc8565b83600e868154811061287057612870615bad565b90600052602060002090600602016005015461288c9190615bd9565b6128969190615db5565b905082600e85815481106128ac576128ac615bad565b906000526020600020906006020160040154101561293d5760405162461bcd60e51b815260206004820152604260248201527fd092d18b20d0bfd18bd182d0b0d0b5d182d0b5d181d18c20d0bad183d0bfd0b860448201527fd182d18c20d0b1d0bed0bbd18cd188d0b52c20d187d0b5d0bc20d0b5d181d182606482015261346360f21b608482015260a4016105ed565b6129b4600e858154811061295357612953615bad565b906000526020600020906006020160030160009054906101000a90046001600160a01b031633600e878154811061298c5761298c615bad565b906000526020600020906006020160010154866040518060200160405280600081525061489c565b600554600e80546001600160a01b039092169163f5537ede913391889081106129df576129df615bad565b600091825260209091206006909102016003015460405160e084901b6001600160e01b03191681526001600160a01b0392831660048201529116602482015260448101849052606401600060405180830381600087803b158015612a4257600080fd5b505af1158015612a56573d6000803e3d6000fd5b5050505082600e8581548110612a6e57612a6e615bad565b90600052602060002090600602016004016000828254612a8e9190615db5565b925050819055508260096000600e8781548110612aad57612aad615bad565b60009182526020808320600360069093020191909101546001600160a01b031683528201929092526040019020600e805487908110612aee57612aee615bad565b90600052602060002090600602016001015481548110612b1057612b10615bad565b90600052602060002090600802016005016000828254612b309190615db5565b90915550503360009081526009602090815260408083208151610100810190925280548252600e8054919492938401926008929091908a908110612b7657612b76615bad565b90600052602060002090600602016001015481526020019081526020016000206001018054612ba490615a8f565b80601f0160208091040260200160405190810160405280929190818152602001828054612bd090615a8f565b8015612c1d5780601f10612bf257610100808354040283529160200191612c1d565b820191906000526020600020905b815481529060010190602001808311612c0057829003601f168201915b5050505050815260200160086000600e8981548110612c3e57612c3e615bad565b90600052602060002090600602016001015481526020019081526020016000206002018054612c6c90615a8f565b80601f0160208091040260200160405190810160405280929190818152602001828054612c9890615a8f565b8015612ce55780601f10612cba57610100808354040283529160200191612ce5565b820191906000526020600020905b815481529060010190602001808311612cc857829003601f168201915b5050505050815260200160086000600e8981548110612d0657612d06615bad565b90600052602060002090600602016001015481526020019081526020016000206003018054612d3490615a8f565b80601f0160208091040260200160405190810160405280929190818152602001828054612d6090615a8f565b8015612dad5780601f10612d8257610100808354040283529160200191612dad565b820191906000526020600020905b815481529060010190602001808311612d9057829003601f168201915b50505050508152602001858152602001600e8781548110612dd057612dd0615bad565b906000526020600020906006020160050154815260200160086000600e8981548110612dfe57612dfe615bad565b906000526020600020906006020160010154815260200190815260200160002060060154815260200160086000600e8981548110612e3e57612e3e615bad565b60009182526020808320600160069093020182015484528381019490945260409092018120600701549093528454808201865594835291819020835160089095020193845582015191929190820190612e979082615c38565b5060408201516002820190612eac9082615c38565b5060608201516003820190612ec19082615c38565b506080820151816004015560a0820151816005015560c0820151816006015560e08201518160070155505060096000600e8681548110612f0357612f03615bad565b60009182526020808320600360069093020191909101546001600160a01b031683528201929092526040019020600e805486908110612f4457612f44615bad565b90600052602060002090600602016001015481548110612f6657612f66615bad565b906000526020600020906008020160050154600003612fcc5760096000600e8681548110612f9657612f96615bad565b60009182526020808320600360069093020191909101546001600160a01b031683528201929092526040018120612fcc91614ed3565b600e8481548110612fdf57612fdf615bad565b90600052602060002090600602016004015460000361168057600e848154811061300b5761300b615bad565b60009182526020822060069091020181815560018101829055600281018290556003810180546001600160a01b0319169055600481018290556005015550505050565b60606010805480602002602001604051908101604052809291908181526020016000905b82821015610f92578382906000526020600020906008020160405180610100016040529081600082015481526020016001820180546130b090615a8f565b80601f01602080910402602001604051908101604052809291908181526020018280546130dc90615a8f565b80156131295780601f106130fe57610100808354040283529160200191613129565b820191906000526020600020905b81548152906001019060200180831161310c57829003601f168201915b5050505050815260200160028201805461314290615a8f565b80601f016020809104026020016040519081016040528092919081815260200182805461316e90615a8f565b80156131bb5780601f10613190576101008083540402835291602001916131bb565b820191906000526020600020905b81548152906001019060200180831161319e57829003601f168201915b505050505081526020016003820180546131d490615a8f565b80601f016020809104026020016040519081016040528092919081815260200182805461320090615a8f565b801561324d5780601f106132225761010080835404028352916020019161324d565b820191906000526020600020905b81548152906001019060200180831161323057829003601f168201915b5050505050815260200160048201548152602001600582015481526020016006820154815260200160078201548152505081526020019060010190613072565b6001600160a01b03918216600090815260016020908152604080832093909416825291909152205460ff1690565b61330360405180610100016040528060008152602001606081526020016060815260200160608152602001600081526020016000815260200160008152602001600081525090565b60086000838152602001908152602001600020604051806101000160405290816000820154815260200160018201805461333c90615a8f565b80601f016020809104026020016040519081016040528092919081815260200182805461336890615a8f565b80156133b55780601f1061338a576101008083540402835291602001916133b5565b820191906000526020600020905b81548152906001019060200180831161339857829003601f168201915b505050505081526020016002820180546133ce90615a8f565b80601f01602080910402602001604051908101604052809291908181526020018280546133fa90615a8f565b80156134475780601f1061341c57610100808354040283529160200191613447565b820191906000526020600020905b81548152906001019060200180831161342a57829003601f168201915b5050505050815260200160038201805461346090615a8f565b80601f016020809104026020016040519081016040528092919081815260200182805461348c90615a8f565b80156134d95780601f106134ae576101008083540402835291602001916134d9565b820191906000526020600020905b8154815290600101906020018083116134bc57829003601f168201915b505050505081526020016004820154815260200160058201548152602001600682015481526020016007820154815250509050919050565b336001600160a01b03861681148015906135325750613530868261328d565b155b156135635760405163711bec9160e11b81526001600160a01b038083166004830152871660248201526044016105ed565b6116e5868686868661489c565b6004546001600160a01b0316331461359a5760405162461bcd60e51b81526004016105ed90615b3f565b604080516080810182528581526020808201869052818301859052606082018490526011546000908152600a90915291909120815181906135db9082615c38565b50602082015160018201906135f09082615c38565b506040820151805161360c916002840191602090910190614ef4565b5060608201518051613628916003840191602090910190614ef4565b50506040805160808101825286815260208101869052908101849052606081018390526011805460018101825560009190915281519192506004027f31ecc21a745e3968a04e9570e4425bc18fa8019c68028196b546d1669c200c68019081906136929082615c38565b50602082015160018201906136a79082615c38565b50604082015180516136c3916002840191602090910190614ef4565b50606082015180516136df916003840191602090910190614ef4565b50505060005b82518110156119d8576001600d600085848151811061370657613706615bad565b6020908102919091018101518252810191909152604001600020805460ff19169115159190911790556001016136e5565b33600090815260096020526040902080548391908590811061375b5761375b615bad565b90600052602060002090600802016005015410156137ca5760405162461bcd60e51b815260206004820152602660248201527fd0a320d0b2d0b0d18120d0bdd0b5d0b4d0bed181d182d0b0d182d0bed187d0bd604482015265342f8813919560d21b60648201526084016105ed565b6000838152600d602052604090205460ff16156138595760405162461bcd60e51b815260206004820152604160248201527fd092d18b20d0bdd0b520d0bcd0bed0b6d0b5d182d0b520d0bfd180d0bed0b4d060448201527fb0d182d18c204e465420d0b8d0b720d0bad0bed0bbd0bbd0b5d0bad186d0b8d06064820152601760fb1b608482015260a4016105ed565b6040805160c081018252600e80548083526020830197885292820195865233606083019081526080830195865260a0830194855260018401825560009190915290517fbb7b4a454dc3493923482f07822329ed19e8244eff582cc204f8554c3620c3fd60069093029283015594517fbb7b4a454dc3493923482f07822329ed19e8244eff582cc204f8554c3620c3fe82015592517fbb7b4a454dc3493923482f07822329ed19e8244eff582cc204f8554c3620c3ff84015592517fbb7b4a454dc3493923482f07822329ed19e8244eff582cc204f8554c3620c400830180546001600160a01b0319166001600160a01b03909216919091179055517fbb7b4a454dc3493923482f07822329ed19e8244eff582cc204f8554c3620c40182015590517fbb7b4a454dc3493923482f07822329ed19e8244eff582cc204f8554c3620c40290910155565b60606011805480602002602001604051908101604052809291908181526020016000905b82821015610f9257838290600052602060002090600402016040518060800160405290816000820180546139f890615a8f565b80601f0160208091040260200160405190810160405280929190818152602001828054613a2490615a8f565b8015613a715780601f10613a4657610100808354040283529160200191613a71565b820191906000526020600020905b815481529060010190602001808311613a5457829003601f168201915b50505050508152602001600182018054613a8a90615a8f565b80601f0160208091040260200160405190810160405280929190818152602001828054613ab690615a8f565b8015613b035780601f10613ad857610100808354040283529160200191613b03565b820191906000526020600020905b815481529060010190602001808311613ae657829003601f168201915b5050505050815260200160028201805480602002602001604051908101604052809291908181526020018280548015613b5b57602002820191906000526020600020905b815481526020019060010190808311613b47575b5050505050815260200160038201805480602002602001604051908101604052809291908181526020018280548015613bb357602002820191906000526020600020905b815481526020019060010190808311613b9f575b505050505081525050815260200190600101906139c5565b6004546001600160a01b03163314613bf55760405162461bcd60e51b81526004016105ed90615b3f565b60005b601254811015613cb3578560128281548110613c1657613c16615bad565b90600052602060002090600702016001015403613cab5760405162461bcd60e51b815260206004820152604760248201527fd090d183d0bad186d0b8d0bed0bd20d18120d182d0b0d0bad0bed0b920d0bad060448201527fbed0bbd0bbd0b5d0bad186d0b8d0b5d0b920d183d0b6d0b520d0b7d0b0d0bfd160648201526683d189d0b5d0bd60c81b608482015260a4016105ed565b600101613bf8565b506040805160e081018252601280548083526020830198895292820196875260608201958652608082019485526004546001600160a01b0390811660a0840190815260c0840195865260018501835560009290925291517fbb8a6a4669ba250d26cd7a459eca9d215f8307e33aebe50379bc5a3617ec344460079094029384015596517fbb8a6a4669ba250d26cd7a459eca9d215f8307e33aebe50379bc5a3617ec344583015594517fbb8a6a4669ba250d26cd7a459eca9d215f8307e33aebe50379bc5a3617ec344682015592517fbb8a6a4669ba250d26cd7a459eca9d215f8307e33aebe50379bc5a3617ec344784015590517fbb8a6a4669ba250d26cd7a459eca9d215f8307e33aebe50379bc5a3617ec344883015592517fbb8a6a4669ba250d26cd7a459eca9d215f8307e33aebe50379bc5a3617ec3449820180546001600160a01b031916919093161790915590517fbb8a6a4669ba250d26cd7a459eca9d215f8307e33aebe50379bc5a3617ec344a90910155565b6004546001600160a01b03163314613e585760405162461bcd60e51b81526004016105ed90615b3f565b60128181548110613e6b57613e6b615bad565b90600052602060002090600702016004015480600003613e9d5760405162461bcd60e51b81526004016105ed90615cf8565b60128281548110613eb057613eb0615bad565b90600052602060002090600702016004015460001480613f08575060006001600160a01b031660128381548110613ee957613ee9615bad565b60009182526020909120600560079092020101546001600160a01b0316145b613f685760405162461bcd60e51b815260206004820152602b60248201527fd090d183d0bad186d0b8d0bed0bd20d0b5d189d19120d0bdd0b520d0b7d0b0d060448201526ab2d0b5d180d188d0b5d0bd60a81b60648201526084016105ed565b336001600160a01b031660128381548110613f8557613f85615bad565b60009182526020909120600560079092020101546001600160a01b0316146140085760405162461bcd60e51b815260206004820152603060248201527fd092d18b20d0bdd0b520d0bfd0bed0b1d0b5d0b4d0b8d182d0b5d0bbd18c20d060448201526f05868c1e85d68c3685c685f685ee858160851b60648201526084016105ed565b600454601280546140ca926001600160a01b0316913391601191908790811061403357614033615bad565b9060005260206000209060070201600101548154811061405557614055615bad565b90600052602060002090600402016002018054806020026020016040519081016040528092919081815260200182805480156140b057602002820191906000526020600020905b81548152602001906001019080831161409c575b50505050506011601287815481106106ed576106ed615bad565b60005b6011601284815481106140e2576140e2615bad565b9060005260206000209060070201600101548154811061410457614104615bad565b9060005260206000209060040201600201805490508110156147905760096000336001600160a01b03166001600160a01b03168152602001908152602001600020604051806101000160405280600960006012888154811061416857614168615bad565b906000526020600020906007020160050160009054906101000a90046001600160a01b03166001600160a01b03166001600160a01b0316815260200190815260200160002080549050815260200160086000600a600060128a815481106141d1576141d1615bad565b9060005260206000209060070201600101548152602001908152602001600020600201868154811061420557614205615bad565b90600052602060002001548152602001908152602001600020600101805461422c90615a8f565b80601f016020809104026020016040519081016040528092919081815260200182805461425890615a8f565b80156142a55780601f1061427a576101008083540402835291602001916142a5565b820191906000526020600020905b81548152906001019060200180831161428857829003601f168201915b5050505050815260200160086000600a600060128a815481106142ca576142ca615bad565b906000526020600020906007020160010154815260200190815260200160002060020186815481106142fe576142fe615bad565b90600052602060002001548152602001908152602001600020600201805461432590615a8f565b80601f016020809104026020016040519081016040528092919081815260200182805461435190615a8f565b801561439e5780601f106143735761010080835404028352916020019161439e565b820191906000526020600020905b81548152906001019060200180831161438157829003601f168201915b5050505050815260200160086000600a600060128a815481106143c3576143c3615bad565b906000526020600020906007020160010154815260200190815260200160002060020186815481106143f7576143f7615bad565b90600052602060002001548152602001908152602001600020600301805461441e90615a8f565b80601f016020809104026020016040519081016040528092919081815260200182805461444a90615a8f565b80156144975780601f1061446c57610100808354040283529160200191614497565b820191906000526020600020905b81548152906001019060200180831161447a57829003601f168201915b5050505050815260200160086000600a600060128a815481106144bc576144bc615bad565b906000526020600020906007020160010154815260200190815260200160002060020186815481106144f0576144f0615bad565b9060005260206000200154815260200190815260200160002060050154815260200160035460016145219190615bd9565b815260200160086000600a600060128a8154811061454157614541615bad565b9060005260206000209060070201600101548152602001908152602001600020600201868154811061457557614575615bad565b9060005260206000200154815260200190815260200160002060060154815260200160086000600a600060128a815481106145b2576145b2615bad565b906000526020600020906007020160010154815260200190815260200160002060020186815481106145e6576145e6615bad565b60009182526020808320909101548352828101939093526040909101812060070154909252835460018181018655948352918190208351600890930201918255820151919290919082019061463b9082615c38565b50604082015160028201906146509082615c38565b50606082015160038201906146659082615c38565b50608082015160048083019190915560a0830151600583015560c0830151600683015560e090920151600790910155546001600160a01b031660009081526009602052604081206012805491926008929091600a91839190899081106146cd576146cd615bad565b9060005260206000209060070201600101548152602001908152602001600020600201848154811061470157614701615bad565b90600052602060002001548152602001908152602001600020600001548154811061472e5761472e615bad565b6000918252602082206008909102018181559061474e6001830182614e34565b61475c600283016000614e34565b61476a600383016000614e34565b5060006004820181905560058201819055600682018190556007909101556001016140cd565b506000601283815481106147a6576147a6615bad565b906000526020600020906007020160050160006101000a8154816001600160a01b0302191690836001600160a01b031602179055505050565b6001600160a01b03841661480957604051632bfa23e760e11b8152600060048201526024016105ed565b6001600160a01b03851661483257604051626a0d4560e21b8152600060048201526024016105ed565b6119d885858585856149c0565b6001600160a01b03841661486957604051632bfa23e760e11b8152600060048201526024016105ed565b604080516001808252602082018690528183019081526060820185905260808201909252906116e56000878484876149c0565b6001600160a01b0384166148c657604051632bfa23e760e11b8152600060048201526024016105ed565b6001600160a01b0385166148ef57604051626a0d4560e21b8152600060048201526024016105ed565b6040805160018082526020820186905281830190815260608201859052608082019092529061492187878484876149c0565b50505050505050565b6001600160a01b0382166149535760405162ced3e160e81b8152600060048201526024016105ed565b6001600160a01b03838116600081815260016020908152604080832094871680845294825291829020805460ff191686151590811790915591519182527f17307eab39ab6107e8899845ad3d59bd9653f200f220920489ca2b5937696c31910160405180910390a3505050565b6149cc85858585614a13565b6001600160a01b038416156119d85782513390600103614a0557602084810151908401516149fe838989858589614c27565b50506116e5565b6116e5818787878787614d4b565b8051825114614a425781518151604051635b05999160e01b8152600481019290925260248201526044016105ed565b3360005b8351811015614b48576020818102858101820151908501909101516001600160a01b03881615614af9576000828152602081815260408083206001600160a01b038c16845290915290205481811015614ad2576040516303dee4c560e01b81526001600160a01b038a1660048201526024810182905260448101839052606481018490526084016105ed565b6000838152602081815260408083206001600160a01b038d16845290915290209082900390555b6001600160a01b03871615614b3e576000828152602081815260408083206001600160a01b038b16845290915281208054839290614b38908490615d2f565b90915550505b5050600101614a46565b508251600103614bc95760208301516000906020840151909150856001600160a01b0316876001600160a01b0316846001600160a01b03167fc3d58168c5ae7397731d063d5bbf3d657854427343f4c083240f7aacaa2d0f628585604051614bba929190918252602082015260400190565b60405180910390a450506119d8565b836001600160a01b0316856001600160a01b0316826001600160a01b03167f4a39dc06d4c0dbc64b70af90fd698a233a518aa5d07e595d983b8c0526c8f7fb8686604051614c18929190615dea565b60405180910390a45050505050565b6001600160a01b0384163b156116e55760405163f23a6e6160e01b81526001600160a01b0385169063f23a6e6190614c6b9089908990889088908890600401615e18565b6020604051808303816000875af1925050508015614ca6575060408051601f3d908101601f19168201909252614ca391810190615e5d565b60015b614d0f573d808015614cd4576040519150601f19603f3d011682016040523d82523d6000602084013e614cd9565b606091505b508051600003614d0757604051632bfa23e760e11b81526001600160a01b03861660048201526024016105ed565b805181602001fd5b6001600160e01b0319811663f23a6e6160e01b1461492157604051632bfa23e760e11b81526001600160a01b03861660048201526024016105ed565b6001600160a01b0384163b156116e55760405163bc197c8160e01b81526001600160a01b0385169063bc197c8190614d8f9089908990889088908890600401615e7a565b6020604051808303816000875af1925050508015614dca575060408051601f3d908101601f19168201909252614dc791810190615e5d565b60015b614df8573d808015614cd4576040519150601f19603f3d011682016040523d82523d6000602084013e614cd9565b6001600160e01b0319811663bc197c8160e01b1461492157604051632bfa23e760e11b81526001600160a01b03861660048201526024016105ed565b508054614e4090615a8f565b6000825580601f10614e50575050565b601f0160209004906000526020600020908101906126109190614f2f565b828054828255906000526020600020908101928215614ec3579160200282015b82811115614ec357825182546001600160a01b0319166001600160a01b03909116178255602090920191600190910190614e8e565b50614ecf929150614f2f565b5090565b50805460008255600802906000526020600020908101906126109190614f44565b828054828255906000526020600020908101928215614ec3579160200282015b82811115614ec3578251825591602001919060010190614f14565b5b80821115614ecf5760008155600101614f30565b80821115614ecf576000808255614f5e6001830182614e34565b614f6c600283016000614e34565b614f7a600383016000614e34565b5060006004820181905560058201819055600682018190556007820155600801614f44565b80356001600160a01b0381168114614fb657600080fd5b919050565b60008060408385031215614fce57600080fd5b614fd783614f9f565b946020939093013593505050565b6001600160e01b03198116811461261057600080fd5b60006020828403121561500d57600080fd5b813561501881614fe5565b9392505050565b60006020828403121561503157600080fd5b5035919050565b60005b8381101561505357818101518382015260200161503b565b50506000910152565b60008151808452615074816020860160208601615038565b601f01601f19169290920160200192915050565b602081526000615018602083018461505c565b6000602082840312156150ad57600080fd5b61501882614f9f565b602080825282518282018190526000919060409081850190868401855b8281101561512a57815180518552868101518786015285810151868601526060808201516001600160a01b0316908601526080808201519086015260a0908101519085015260c090930192908501906001016150d3565b5091979650505050505050565b634e487b7160e01b600052604160045260246000fd5b604051601f8201601f1916810167ffffffffffffffff8111828210171561517657615176615137565b604052919050565b600082601f83011261518f57600080fd5b813567ffffffffffffffff8111156151a9576151a9615137565b6151bc601f8201601f191660200161514d565b8181528460208386010111156151d157600080fd5b816020850160208301376000918101602001919091529392505050565b600080600080600060a0868803121561520657600080fd5b853567ffffffffffffffff8082111561521e57600080fd5b61522a89838a0161517e565b9650602088013591508082111561524057600080fd5b61524c89838a0161517e565b9550604088013591508082111561526257600080fd5b5061526f8882890161517e565b9598949750949560608101359550608001359392505050565b6000806040838503121561529b57600080fd5b50508035926020909101359150565b600067ffffffffffffffff8211156152c4576152c4615137565b5060051b60200190565b600082601f8301126152df57600080fd5b813560206152f46152ef836152aa565b61514d565b8083825260208201915060208460051b87010193508684111561531657600080fd5b602086015b84811015615332578035835291830191830161531b565b509695505050505050565b600080600080600060a0868803121561535557600080fd5b61535e86614f9f565b945061536c60208701614f9f565b9350604086013567ffffffffffffffff8082111561538957600080fd5b61539589838a016152ce565b945060608801359150808211156153ab57600080fd5b6153b789838a016152ce565b935060808801359150808211156153cd57600080fd5b506153da8882890161517e565b9150509295509295909350565b600080602083850312156153fa57600080fd5b823567ffffffffffffffff8082111561541257600080fd5b818501915085601f83011261542657600080fd5b81358181111561543557600080fd5b86602082850101111561544757600080fd5b60209290920196919550909350505050565b6000806040838503121561546c57600080fd5b823567ffffffffffffffff8082111561548457600080fd5b818501915085601f83011261549857600080fd5b813560206154a86152ef836152aa565b82815260059290921b840181019181810190898411156154c757600080fd5b948201945b838610156154ec576154dd86614f9f565b825294820194908201906154cc565b9650508601359250508082111561550257600080fd5b5061550f858286016152ce565b9150509250929050565b60008151808452602080850194506020840160005b8381101561554a5781518752958201959082019060010161552e565b509495945050505050565b6020815260006150186020830184615519565b6000806000806080858703121561557e57600080fd5b843593506020850135925061559560408601614f9f565b9396929550929360600135925050565b6000602082840312156155b757600080fd5b813567ffffffffffffffff8111156155ce57600080fd5b6155da8482850161517e565b949350505050565b600080604083850312156155f557600080fd5b6155fe83614f9f565b91506020830135801515811461561357600080fd5b809150509250929050565b600060208083018184528085518083526040925060408601915060408160051b8701018488016000805b848110156156e457603f198a850301865282516080815181875261566e8288018261505c565b838c01516001600160a01b03908116898e01528b8501518c8a0152606094850151898303958a01959095528451808352948d0194879450918d019250905b808410156156ce57845182168352938c019360019390930192918c01916156ac565b5050978a01979550505091870191600101615648565b50919998505050505050505050565b60008060006060848603121561570857600080fd5b505081359360208301359350604090920135919050565b600061010082518452602083015181602086015261573f8286018261505c565b91505060408301518482036040860152615759828261505c565b91505060608301518482036060860152615773828261505c565b9150506080830151608085015260a083015160a085015260c083015160c085015260e083015160e08501528091505092915050565b600060208083016020845280855180835260408601915060408160051b87010192506020870160005b828110156157ff57603f198886030184526157ed85835161571f565b945092850192908501906001016157d1565b5092979650505050505050565b6000806040838503121561581f57600080fd5b61582883614f9f565b915061583660208401614f9f565b90509250929050565b602081526000615018602083018461571f565b600080600080600060a0868803121561586a57600080fd5b61587386614f9f565b945061588160208701614f9f565b93506040860135925060608601359150608086013567ffffffffffffffff8111156158ab57600080fd5b6153da8882890161517e565b600080600080608085870312156158cd57600080fd5b843567ffffffffffffffff808211156158e557600080fd5b6158f18883890161517e565b9550602087013591508082111561590757600080fd5b6159138883890161517e565b9450604087013591508082111561592957600080fd5b615935888389016152ce565b9350606087013591508082111561594b57600080fd5b50615958878288016152ce565b91505092959194509250565b6000806000806080858703121561597a57600080fd5b5050823594602084013594506040840135936060013592509050565b600060208083018184528085518083526040925060408601915060408160051b87010184880160005b83811015615a4657603f198984030185528151608081518186526159e58287018261505c565b915050888201518582038a8701526159fd828261505c565b9150508782015185820389870152615a158282615519565b91505060608083015192508582038187015250615a328183615519565b9689019694505050908601906001016159bf565b509098975050505050505050565b600080600080600060a08688031215615a6c57600080fd5b505083359560208501359550604085013594606081013594506080013592509050565b600181811c90821680615aa357607f821691505b602082108103615ac357634e487b7160e01b600052602260045260246000fd5b50919050565b6000808354615ad781615a8f565b60018281168015615aef5760018114615b0457615b33565b60ff1984168752821515830287019450615b33565b8760005260208060002060005b85811015615b2a5781548a820152908401908201615b11565b50505082870194505b50929695505050505050565b60208082526048908201527fd0a2d0bed0bbd18cd0bad0be20d0b2d0bbd0b0d0b4d0b5d0bbd0b5d18620d0bc60408201527fd0bed0b6d0b5d18220d18dd182d0be20d0b8d181d0bfd0bed0bbd18cd0b7d0be606082015267342cb42c3460b46360c21b608082015260a00190565b634e487b7160e01b600052603260045260246000fd5b634e487b7160e01b600052601160045260246000fd5b808202811582820484141761047657610476615bc3565b601f821115611d16576000816000526020600020601f850160051c81016020861015615c195750805b601f850160051c820191505b818110156116e557828155600101615c25565b815167ffffffffffffffff811115615c5257615c52615137565b615c6681615c608454615a8f565b84615bf0565b602080601f831160018114615c9b5760008415615c835750858301515b600019600386901b1c1916600185901b1785556116e5565b600085815260208120601f198616915b82811015615cca57888601518255948401946001909101908401615cab565b5085821015615ce85787850151600019600388901b60f8161c191681555b5050505050600190811b01905550565b6020808252601f908201527fd090d183d0bad186d0b8d0bed0bd20d0b7d0b0d0b2d0b5d180d188d191d0bd00604082015260600190565b8082018082111561047657610476615bc3565b60008085851115615d5257600080fd5b83861115615d5f57600080fd5b5050820193919092039150565b6550524f46492d60d01b815281836006830137630c8c0c8d60e21b91016006810191909152600a01919050565b60008251615dab818460208701615038565b9190910192915050565b8181038181111561047657610476615bc3565b600082615de557634e487b7160e01b600052601260045260246000fd5b500490565b604081526000615dfd6040830185615519565b8281036020840152615e0f8185615519565b95945050505050565b6001600160a01b03868116825285166020820152604081018490526060810183905260a060808201819052600090615e529083018461505c565b979650505050505050565b600060208284031215615e6f57600080fd5b815161501881614fe5565b6001600160a01b0386811682528516602082015260a060408201819052600090615ea690830186615519565b8281036060840152615eb88186615519565b90508281036080840152615ecc818561505c565b9897505050505050505056fea2646970667358221220d756360234d9655e69137f301547a14548358038f5b619b190d02f30bc9f95db64736f6c63430008160033d09fd183d0b7d18bd180d0b8d0ba20d0bfd0bed185d0b8d182d0b8d0bb20d0bad0bed182d0b8d0bad0b020d18120d097d0b5d0bcd0bbd0b8d09ad0bed0bcd0bed187d0b5d0ba20d181d0bbd0b8d0bbd181d18f20d18120d0bad0bed181d0bcd0bed181d0bed0bcd092d0bad183d181d0bdd18fd188d0bad0b020d0b2d0bfd0b5d180d0b2d18bd0b520d0bfd180d0bed0b1d183d0b5d18220d18fd0bfd0bed0bdd181d0bad183d18e20d0bad183d185d0bdd18ed09ed0bd20d0b8d0b4d0b5d18220d0b8d0b3d180d0b0d182d18c20d0b220d0b1d0b0d181d0bad0b5d182d0b1d0bed0bb",
			"opcodes": "PUSH1 0x80 PUSH1 0x40 MSTORE CALLVALUE DUP1 ISZERO PUSH3 0x11 JUMPI PUSH1 0x0 DUP1 REVERT JUMPDEST POP PUSH1 0x40 MLOAD PUSH3 0x70A9 CODESIZE SUB DUP1 PUSH3 0x70A9 DUP4 CODECOPY DUP2 ADD PUSH1 0x40 DUP2 SWAP1 MSTORE PUSH3 0x34 SWAP2 PUSH3 0xC17 JUMP JUMPDEST PUSH1 0x40 DUP1 MLOAD PUSH1 0x20 DUP2 ADD SWAP1 SWAP2 MSTORE PUSH1 0x0 DUP2 MSTORE PUSH3 0x4E DUP2 PUSH3 0x372 JUMP JUMPDEST POP PUSH1 0x5 DUP1 SLOAD PUSH1 0x1 PUSH1 0x1 PUSH1 0xA0 SHL SUB NOT AND PUSH1 0x1 PUSH1 0x1 PUSH1 0xA0 SHL SUB DUP4 AND SWAP1 DUP2 OR SWAP1 SWAP2 SSTORE PUSH1 0x40 DUP1 MLOAD PUSH4 0x313CE567 PUSH1 0xE0 SHL DUP2 MSTORE SWAP1 MLOAD PUSH4 0x313CE567 SWAP2 PUSH1 0x4 DUP1 DUP3 ADD SWAP3 PUSH1 0x20 SWAP3 SWAP1 SWAP2 SWAP1 DUP3 SWAP1 SUB ADD DUP2 DUP7 GAS STATICCALL ISZERO DUP1 ISZERO PUSH3 0xA9 JUMPI RETURNDATASIZE PUSH1 0x0 DUP1 RETURNDATACOPY RETURNDATASIZE PUSH1 0x0 REVERT JUMPDEST POP POP POP POP PUSH1 0x40 MLOAD RETURNDATASIZE PUSH1 0x1F NOT PUSH1 0x1F DUP3 ADD AND DUP3 ADD DUP1 PUSH1 0x40 MSTORE POP DUP2 ADD SWAP1 PUSH3 0xCF SWAP2 SWAP1 PUSH3 0xC49 JUMP JUMPDEST PUSH3 0xDC SWAP1 PUSH1 0xA PUSH3 0xD83 JUMP JUMPDEST PUSH1 0x3 SSTORE PUSH1 0x4 DUP1 SLOAD PUSH1 0x1 PUSH1 0x1 PUSH1 0xA0 SHL SUB NOT AND CALLER OR SWAP1 SSTORE PUSH1 0x40 DUP1 MLOAD DUP1 DUP3 ADD DUP3 MSTORE PUSH1 0xE DUP2 MSTORE PUSH14 0x684D685F685E685F68C3E85AE85D PUSH1 0x91 SHL PUSH1 0x20 DUP1 DUP4 ADD SWAP2 SWAP1 SWAP2 MSTORE DUP3 MLOAD PUSH1 0x60 DUP2 ADD SWAP1 SWAP4 MSTORE PUSH1 0x2F DUP1 DUP5 MSTORE PUSH3 0x162 SWAP4 SWAP2 PUSH3 0x6FFE SWAP1 DUP4 ADD CODECOPY PUSH1 0x40 DUP1 MLOAD DUP1 DUP3 ADD SWAP1 SWAP2 MSTORE PUSH1 0xC DUP2 MSTORE PUSH12 0x6361745F6E6674312E706E67 PUSH1 0xA0 SHL PUSH1 0x20 DUP3 ADD MSTORE PUSH1 0x0 PUSH1 0x1 PUSH3 0x384 JUMP JUMPDEST PUSH3 0x1D8 PUSH1 0x40 MLOAD DUP1 PUSH1 0x40 ADD PUSH1 0x40 MSTORE DUP1 PUSH1 0x12 DUP2 MSTORE PUSH1 0x20 ADD PUSH18 0xD092D0BAD183D181D0BDD18FD188D0BAD0B PUSH1 0x74 SHL DUP2 MSTORE POP PUSH1 0x40 MLOAD DUP1 PUSH1 0x80 ADD PUSH1 0x40 MSTORE DUP1 PUSH1 0x4C DUP2 MSTORE PUSH1 0x20 ADD PUSH3 0x702D PUSH1 0x4C SWAP2 CODECOPY PUSH1 0x40 DUP1 MLOAD DUP1 DUP3 ADD SWAP1 SWAP2 MSTORE PUSH1 0xC DUP2 MSTORE PUSH12 0x6361745F6E6674322E706E67 PUSH1 0xA0 SHL PUSH1 0x20 DUP3 ADD MSTORE PUSH1 0x0 PUSH1 0x1 PUSH3 0x384 JUMP JUMPDEST PUSH3 0x24A PUSH1 0x40 MLOAD DUP1 PUSH1 0x40 ADD PUSH1 0x40 MSTORE DUP1 PUSH1 0xE DUP2 MSTORE PUSH1 0x20 ADD PUSH14 0x684FE8C1E85BE8C5E8C0685C685D PUSH1 0x91 SHL DUP2 MSTORE POP PUSH1 0x40 MLOAD DUP1 PUSH1 0x60 ADD PUSH1 0x40 MSTORE DUP1 PUSH1 0x38 DUP2 MSTORE PUSH1 0x20 ADD PUSH3 0x6FC6 PUSH1 0x38 SWAP2 CODECOPY PUSH1 0x40 DUP1 MLOAD DUP1 DUP3 ADD SWAP1 SWAP2 MSTORE PUSH1 0xC DUP2 MSTORE PUSH12 0x6361745F6E6674332E706E67 PUSH1 0xA0 SHL PUSH1 0x20 DUP3 ADD MSTORE PUSH1 0x0 PUSH1 0x1 PUSH3 0x384 JUMP JUMPDEST PUSH3 0x2CE PUSH1 0x40 MLOAD DUP1 PUSH1 0x40 ADD PUSH1 0x40 MSTORE DUP1 PUSH1 0x18 DUP2 MSTORE PUSH1 0x20 ADD PUSH32 0xD091D0B0D181D0BAD0B5D182D0B1D0BED0BBD0B8D181D1820000000000000000 DUP2 MSTORE POP PUSH1 0x40 MLOAD DUP1 PUSH1 0x60 ADD PUSH1 0x40 MSTORE DUP1 PUSH1 0x30 DUP2 MSTORE PUSH1 0x20 ADD PUSH3 0x7079 PUSH1 0x30 SWAP2 CODECOPY PUSH1 0x40 DUP1 MLOAD DUP1 DUP3 ADD SWAP1 SWAP2 MSTORE PUSH1 0xF DUP2 MSTORE PUSH15 0x77616C6B65725F6E6674312E706E67 PUSH1 0x88 SHL PUSH1 0x20 DUP3 ADD MSTORE PUSH1 0x0 PUSH1 0x1 PUSH3 0x384 JUMP JUMPDEST PUSH3 0x36B PUSH1 0x40 MLOAD DUP1 PUSH1 0x40 ADD PUSH1 0x40 MSTORE DUP1 PUSH1 0x12 DUP2 MSTORE PUSH1 0x20 ADD PUSH18 0x6849685F685DE8C4685AE858E85EE85C685D PUSH1 0x71 SHL DUP2 MSTORE POP PUSH1 0x40 MLOAD DUP1 PUSH1 0x40 ADD PUSH1 0x40 MSTORE DUP1 PUSH1 0x20 DUP2 MSTORE PUSH1 0x20 ADD PUSH32 0xD09ED0BD20D0B8D0B4D0B5D18220D0BAD0BED0BBD0B4D0BED0B2D0B0D182D18C DUP2 MSTORE POP PUSH1 0x40 MLOAD DUP1 PUSH1 0x40 ADD PUSH1 0x40 MSTORE DUP1 PUSH1 0xF DUP2 MSTORE PUSH1 0x20 ADD PUSH15 0x77616C6B65725F6E6674322E706E67 PUSH1 0x88 SHL DUP2 MSTORE POP PUSH1 0x0 PUSH1 0x1 PUSH3 0x384 PUSH1 0x20 SHL PUSH1 0x20 SHR JUMP JUMPDEST POP PUSH3 0x10A8 JUMP JUMPDEST PUSH1 0x2 PUSH3 0x380 DUP3 DUP3 PUSH3 0xE37 JUMP JUMPDEST POP POP JUMP JUMPDEST PUSH1 0x4 SLOAD PUSH1 0x1 PUSH1 0x1 PUSH1 0xA0 SHL SUB AND CALLER EQ PUSH3 0x41B JUMPI PUSH1 0x40 MLOAD PUSH3 0x461BCD PUSH1 0xE5 SHL DUP2 MSTORE PUSH1 0x20 PUSH1 0x4 DUP3 ADD MSTORE PUSH1 0x48 PUSH1 0x24 DUP3 ADD MSTORE PUSH32 0xD0A2D0BED0BBD18CD0BAD0BE20D0B2D0BBD0B0D0B4D0B5D0BBD0B5D18620D0BC PUSH1 0x44 DUP3 ADD MSTORE PUSH32 0xD0BED0B6D0B5D18220D18DD182D0BE20D0B8D181D0BFD0BED0BBD18CD0B7D0BE PUSH1 0x64 DUP3 ADD MSTORE PUSH8 0x342CB42C3460B463 PUSH1 0xC2 SHL PUSH1 0x84 DUP3 ADD MSTORE PUSH1 0xA4 ADD JUMPDEST PUSH1 0x40 MLOAD DUP1 SWAP2 SUB SWAP1 REVERT JUMPDEST PUSH1 0x10 SLOAD PUSH1 0x40 DUP1 MLOAD PUSH1 0x20 DUP2 ADD SWAP1 SWAP2 MSTORE PUSH1 0x0 DUP2 MSTORE PUSH3 0x43C SWAP2 CALLER SWAP2 DUP5 SWAP1 PUSH3 0x6FA JUMP JUMPDEST PUSH1 0x40 DUP1 MLOAD PUSH2 0x100 DUP2 ADD DUP3 MSTORE CALLER PUSH1 0x0 SWAP1 DUP2 MSTORE PUSH1 0x9 PUSH1 0x20 SWAP1 DUP2 MSTORE DUP4 DUP3 KECCAK256 SLOAD DUP4 MSTORE DUP1 DUP4 ADD DUP10 DUP2 MSTORE DUP4 DUP6 ADD DUP10 SWAP1 MSTORE PUSH1 0x60 DUP5 ADD DUP9 SWAP1 MSTORE PUSH1 0x80 DUP5 ADD DUP8 SWAP1 MSTORE PUSH1 0xA0 DUP5 ADD DUP7 SWAP1 MSTORE TIMESTAMP PUSH1 0xC0 DUP6 ADD MSTORE PUSH1 0xE0 DUP5 ADD DUP4 SWAP1 MSTORE PUSH1 0x10 SLOAD DUP4 MSTORE PUSH1 0x8 SWAP1 SWAP2 MSTORE SWAP3 SWAP1 KECCAK256 DUP2 MLOAD DUP2 SSTORE SWAP2 MLOAD SWAP1 SWAP2 SWAP1 PUSH1 0x1 DUP3 ADD SWAP1 PUSH3 0x4AF SWAP1 DUP3 PUSH3 0xE37 JUMP JUMPDEST POP PUSH1 0x40 DUP3 ADD MLOAD PUSH1 0x2 DUP3 ADD SWAP1 PUSH3 0x4C6 SWAP1 DUP3 PUSH3 0xE37 JUMP JUMPDEST POP PUSH1 0x60 DUP3 ADD MLOAD PUSH1 0x3 DUP3 ADD SWAP1 PUSH3 0x4DD SWAP1 DUP3 PUSH3 0xE37 JUMP JUMPDEST POP PUSH1 0x80 DUP3 DUP2 ADD MLOAD PUSH1 0x4 DUP4 ADD SSTORE PUSH1 0xA0 DUP1 DUP5 ADD MLOAD PUSH1 0x5 DUP5 ADD SSTORE PUSH1 0xC0 DUP1 DUP6 ADD MLOAD PUSH1 0x6 DUP6 ADD SSTORE PUSH1 0xE0 SWAP5 DUP6 ADD MLOAD PUSH1 0x7 SWAP1 SWAP5 ADD SWAP4 SWAP1 SWAP4 SSTORE CALLER PUSH1 0x0 SWAP1 DUP2 MSTORE PUSH1 0x9 PUSH1 0x20 SWAP1 DUP2 MSTORE PUSH1 0x40 DUP1 DUP4 KECCAK256 DUP2 MLOAD PUSH2 0x100 DUP2 ADD DUP4 MSTORE DUP2 SLOAD DUP1 DUP3 MSTORE DUP2 DUP6 ADD DUP16 DUP2 MSTORE SWAP4 DUP3 ADD DUP15 SWAP1 MSTORE PUSH1 0x60 DUP3 ADD DUP14 SWAP1 MSTORE SWAP7 DUP2 ADD DUP12 SWAP1 MSTORE SWAP5 DUP6 ADD DUP10 SWAP1 MSTORE TIMESTAMP SWAP7 DUP6 ADD SWAP7 SWAP1 SWAP7 MSTORE SWAP6 DUP4 ADD DUP3 SWAP1 MSTORE PUSH1 0x1 DUP1 DUP6 ADD DUP7 SSTORE SWAP5 DUP3 MSTORE SWAP1 KECCAK256 DUP2 MLOAD PUSH1 0x8 SWAP1 SWAP4 MUL ADD SWAP2 DUP3 SSTORE SWAP3 MLOAD SWAP1 SWAP2 DUP3 ADD SWAP1 PUSH3 0x585 SWAP1 DUP3 PUSH3 0xE37 JUMP JUMPDEST POP PUSH1 0x40 DUP3 ADD MLOAD PUSH1 0x2 DUP3 ADD SWAP1 PUSH3 0x59C SWAP1 DUP3 PUSH3 0xE37 JUMP JUMPDEST POP PUSH1 0x60 DUP3 ADD MLOAD PUSH1 0x3 DUP3 ADD SWAP1 PUSH3 0x5B3 SWAP1 DUP3 PUSH3 0xE37 JUMP JUMPDEST POP PUSH1 0x80 DUP3 DUP2 ADD MLOAD PUSH1 0x4 DUP4 ADD SSTORE PUSH1 0xA0 DUP1 DUP5 ADD MLOAD PUSH1 0x5 DUP5 ADD SSTORE PUSH1 0xC0 DUP1 DUP6 ADD MLOAD PUSH1 0x6 DUP6 ADD SSTORE PUSH1 0xE0 SWAP5 DUP6 ADD MLOAD PUSH1 0x7 SWAP1 SWAP5 ADD SWAP4 SWAP1 SWAP4 SSTORE PUSH1 0x40 DUP1 MLOAD PUSH2 0x100 DUP2 ADD DUP3 MSTORE CALLER PUSH1 0x0 SWAP1 DUP2 MSTORE PUSH1 0x9 PUSH1 0x20 SWAP1 DUP2 MSTORE DUP4 DUP3 KECCAK256 SLOAD DUP4 MSTORE DUP3 ADD DUP13 DUP2 MSTORE SWAP3 DUP3 ADD DUP12 SWAP1 MSTORE PUSH1 0x60 DUP3 ADD DUP11 SWAP1 MSTORE SWAP4 DUP2 ADD DUP9 SWAP1 MSTORE SWAP2 DUP3 ADD DUP7 SWAP1 MSTORE TIMESTAMP SWAP4 DUP3 ADD SWAP4 SWAP1 SWAP4 MSTORE SWAP3 DUP4 ADD DUP2 SWAP1 MSTORE PUSH1 0x10 DUP1 SLOAD PUSH1 0x1 DUP2 ADD DUP3 SSTORE SWAP2 MSTORE DUP3 MLOAD PUSH1 0x8 SWAP1 SWAP2 MUL PUSH32 0x1B6847DC741A1B0CD08D278845F9D819D87B734759AFB55FE2DE5CB82A9AE672 DUP2 ADD SWAP2 DUP3 SSTORE SWAP2 MLOAD SWAP1 SWAP2 PUSH32 0x1B6847DC741A1B0CD08D278845F9D819D87B734759AFB55FE2DE5CB82A9AE673 ADD SWAP1 PUSH3 0x69A SWAP1 DUP3 PUSH3 0xE37 JUMP JUMPDEST POP PUSH1 0x40 DUP3 ADD MLOAD PUSH1 0x2 DUP3 ADD SWAP1 PUSH3 0x6B1 SWAP1 DUP3 PUSH3 0xE37 JUMP JUMPDEST POP PUSH1 0x60 DUP3 ADD MLOAD PUSH1 0x3 DUP3 ADD SWAP1 PUSH3 0x6C8 SWAP1 DUP3 PUSH3 0xE37 JUMP JUMPDEST POP PUSH1 0x80 DUP3 ADD MLOAD DUP2 PUSH1 0x4 ADD SSTORE PUSH1 0xA0 DUP3 ADD MLOAD DUP2 PUSH1 0x5 ADD SSTORE PUSH1 0xC0 DUP3 ADD MLOAD DUP2 PUSH1 0x6 ADD SSTORE PUSH1 0xE0 DUP3 ADD MLOAD DUP2 PUSH1 0x7 ADD SSTORE POP POP POP POP POP POP POP JUMP JUMPDEST PUSH1 0x1 PUSH1 0x1 PUSH1 0xA0 SHL SUB DUP5 AND PUSH3 0x726 JUMPI PUSH1 0x40 MLOAD PUSH4 0x2BFA23E7 PUSH1 0xE1 SHL DUP2 MSTORE PUSH1 0x0 PUSH1 0x4 DUP3 ADD MSTORE PUSH1 0x24 ADD PUSH3 0x412 JUMP JUMPDEST PUSH1 0x40 DUP1 MLOAD PUSH1 0x1 DUP1 DUP3 MSTORE PUSH1 0x20 DUP3 ADD DUP7 SWAP1 MSTORE DUP2 DUP4 ADD SWAP1 DUP2 MSTORE PUSH1 0x60 DUP3 ADD DUP6 SWAP1 MSTORE PUSH1 0x80 DUP3 ADD SWAP1 SWAP3 MSTORE SWAP1 PUSH3 0x75B PUSH1 0x0 DUP8 DUP5 DUP5 DUP8 PUSH3 0x763 JUMP JUMPDEST POP POP POP POP POP POP JUMP JUMPDEST PUSH3 0x771 DUP6 DUP6 DUP6 DUP6 PUSH3 0x7C6 JUMP JUMPDEST PUSH1 0x1 PUSH1 0x1 PUSH1 0xA0 SHL SUB DUP5 AND ISZERO PUSH3 0x7BF JUMPI DUP3 MLOAD CALLER SWAP1 PUSH1 0x1 SUB PUSH3 0x7AF JUMPI PUSH1 0x20 DUP5 DUP2 ADD MLOAD SWAP1 DUP5 ADD MLOAD PUSH3 0x7A7 DUP4 DUP10 DUP10 DUP6 DUP6 DUP10 PUSH3 0x9E9 JUMP JUMPDEST POP POP PUSH3 0x75B JUMP JUMPDEST PUSH3 0x75B DUP2 DUP8 DUP8 DUP8 DUP8 DUP8 PUSH3 0xB23 JUMP JUMPDEST POP POP POP POP POP JUMP JUMPDEST DUP1 MLOAD DUP3 MLOAD EQ PUSH3 0x7F7 JUMPI DUP2 MLOAD DUP2 MLOAD PUSH1 0x40 MLOAD PUSH4 0x5B059991 PUSH1 0xE0 SHL DUP2 MSTORE PUSH1 0x4 DUP2 ADD SWAP3 SWAP1 SWAP3 MSTORE PUSH1 0x24 DUP3 ADD MSTORE PUSH1 0x44 ADD PUSH3 0x412 JUMP JUMPDEST CALLER PUSH1 0x0 JUMPDEST DUP4 MLOAD DUP2 LT ISZERO PUSH3 0x905 JUMPI PUSH1 0x20 DUP2 DUP2 MUL DUP6 DUP2 ADD DUP3 ADD MLOAD SWAP1 DUP6 ADD SWAP1 SWAP2 ADD MLOAD PUSH1 0x1 PUSH1 0x1 PUSH1 0xA0 SHL SUB DUP9 AND ISZERO PUSH3 0x8B2 JUMPI PUSH1 0x0 DUP3 DUP2 MSTORE PUSH1 0x20 DUP2 DUP2 MSTORE PUSH1 0x40 DUP1 DUP4 KECCAK256 PUSH1 0x1 PUSH1 0x1 PUSH1 0xA0 SHL SUB DUP13 AND DUP5 MSTORE SWAP1 SWAP2 MSTORE SWAP1 KECCAK256 SLOAD DUP2 DUP2 LT ISZERO PUSH3 0x88B JUMPI PUSH1 0x40 MLOAD PUSH4 0x3DEE4C5 PUSH1 0xE0 SHL DUP2 MSTORE PUSH1 0x1 PUSH1 0x1 PUSH1 0xA0 SHL SUB DUP11 AND PUSH1 0x4 DUP3 ADD MSTORE PUSH1 0x24 DUP2 ADD DUP3 SWAP1 MSTORE PUSH1 0x44 DUP2 ADD DUP4 SWAP1 MSTORE PUSH1 0x64 DUP2 ADD DUP5 SWAP1 MSTORE PUSH1 0x84 ADD PUSH3 0x412 JUMP JUMPDEST PUSH1 0x0 DUP4 DUP2 MSTORE PUSH1 0x20 DUP2 DUP2 MSTORE PUSH1 0x40 DUP1 DUP4 KECCAK256 PUSH1 0x1 PUSH1 0x1 PUSH1 0xA0 SHL SUB DUP14 AND DUP5 MSTORE SWAP1 SWAP2 MSTORE SWAP1 KECCAK256 SWAP1 DUP3 SWAP1 SUB SWAP1 SSTORE JUMPDEST PUSH1 0x1 PUSH1 0x1 PUSH1 0xA0 SHL SUB DUP8 AND ISZERO PUSH3 0x8FA JUMPI PUSH1 0x0 DUP3 DUP2 MSTORE PUSH1 0x20 DUP2 DUP2 MSTORE PUSH1 0x40 DUP1 DUP4 KECCAK256 PUSH1 0x1 PUSH1 0x1 PUSH1 0xA0 SHL SUB DUP12 AND DUP5 MSTORE SWAP1 SWAP2 MSTORE DUP2 KECCAK256 DUP1 SLOAD DUP4 SWAP3 SWAP1 PUSH3 0x8F4 SWAP1 DUP5 SWAP1 PUSH3 0xF03 JUMP JUMPDEST SWAP1 SWAP2 SSTORE POP POP JUMPDEST POP POP PUSH1 0x1 ADD PUSH3 0x7FB JUMP JUMPDEST POP DUP3 MLOAD PUSH1 0x1 SUB PUSH3 0x989 JUMPI PUSH1 0x20 DUP4 ADD MLOAD PUSH1 0x0 SWAP1 PUSH1 0x20 DUP5 ADD MLOAD SWAP1 SWAP2 POP DUP6 PUSH1 0x1 PUSH1 0x1 PUSH1 0xA0 SHL SUB AND DUP8 PUSH1 0x1 PUSH1 0x1 PUSH1 0xA0 SHL SUB AND DUP5 PUSH1 0x1 PUSH1 0x1 PUSH1 0xA0 SHL SUB AND PUSH32 0xC3D58168C5AE7397731D063D5BBF3D657854427343F4C083240F7AACAA2D0F62 DUP6 DUP6 PUSH1 0x40 MLOAD PUSH3 0x979 SWAP3 SWAP2 SWAP1 SWAP2 DUP3 MSTORE PUSH1 0x20 DUP3 ADD MSTORE PUSH1 0x40 ADD SWAP1 JUMP JUMPDEST PUSH1 0x40 MLOAD DUP1 SWAP2 SUB SWAP1 LOG4 POP POP PUSH3 0x7BF JUMP JUMPDEST DUP4 PUSH1 0x1 PUSH1 0x1 PUSH1 0xA0 SHL SUB AND DUP6 PUSH1 0x1 PUSH1 0x1 PUSH1 0xA0 SHL SUB AND DUP3 PUSH1 0x1 PUSH1 0x1 PUSH1 0xA0 SHL SUB AND PUSH32 0x4A39DC06D4C0DBC64B70AF90FD698A233A518AA5D07E595D983B8C0526C8F7FB DUP7 DUP7 PUSH1 0x40 MLOAD PUSH3 0x9DA SWAP3 SWAP2 SWAP1 PUSH3 0xF57 JUMP JUMPDEST PUSH1 0x40 MLOAD DUP1 SWAP2 SUB SWAP1 LOG4 POP POP POP POP POP JUMP JUMPDEST PUSH1 0x1 PUSH1 0x1 PUSH1 0xA0 SHL SUB DUP5 AND EXTCODESIZE ISZERO PUSH3 0x75B JUMPI PUSH1 0x40 MLOAD PUSH4 0xF23A6E61 PUSH1 0xE0 SHL DUP2 MSTORE PUSH1 0x1 PUSH1 0x1 PUSH1 0xA0 SHL SUB DUP6 AND SWAP1 PUSH4 0xF23A6E61 SWAP1 PUSH3 0xA30 SWAP1 DUP10 SWAP1 DUP10 SWAP1 DUP9 SWAP1 DUP9 SWAP1 DUP9 SWAP1 PUSH1 0x4 ADD PUSH3 0xFD1 JUMP JUMPDEST PUSH1 0x20 PUSH1 0x40 MLOAD DUP1 DUP4 SUB DUP2 PUSH1 0x0 DUP8 GAS CALL SWAP3 POP POP POP DUP1 ISZERO PUSH3 0xA6E JUMPI POP PUSH1 0x40 DUP1 MLOAD PUSH1 0x1F RETURNDATASIZE SWAP1 DUP2 ADD PUSH1 0x1F NOT AND DUP3 ADD SWAP1 SWAP3 MSTORE PUSH3 0xA6B SWAP2 DUP2 ADD SWAP1 PUSH3 0x1018 JUMP JUMPDEST PUSH1 0x1 JUMPDEST PUSH3 0xADC JUMPI RETURNDATASIZE DUP1 DUP1 ISZERO PUSH3 0xA9F JUMPI PUSH1 0x40 MLOAD SWAP2 POP PUSH1 0x1F NOT PUSH1 0x3F RETURNDATASIZE ADD AND DUP3 ADD PUSH1 0x40 MSTORE RETURNDATASIZE DUP3 MSTORE RETURNDATASIZE PUSH1 0x0 PUSH1 0x20 DUP5 ADD RETURNDATACOPY PUSH3 0xAA4 JUMP JUMPDEST PUSH1 0x60 SWAP2 POP JUMPDEST POP DUP1 MLOAD PUSH1 0x0 SUB PUSH3 0xAD4 JUMPI PUSH1 0x40 MLOAD PUSH4 0x2BFA23E7 PUSH1 0xE1 SHL DUP2 MSTORE PUSH1 0x1 PUSH1 0x1 PUSH1 0xA0 SHL SUB DUP7 AND PUSH1 0x4 DUP3 ADD MSTORE PUSH1 0x24 ADD PUSH3 0x412 JUMP JUMPDEST DUP1 MLOAD DUP2 PUSH1 0x20 ADD REVERT JUMPDEST PUSH1 0x1 PUSH1 0x1 PUSH1 0xE0 SHL SUB NOT DUP2 AND PUSH4 0xF23A6E61 PUSH1 0xE0 SHL EQ PUSH3 0xB1A JUMPI PUSH1 0x40 MLOAD PUSH4 0x2BFA23E7 PUSH1 0xE1 SHL DUP2 MSTORE PUSH1 0x1 PUSH1 0x1 PUSH1 0xA0 SHL SUB DUP7 AND PUSH1 0x4 DUP3 ADD MSTORE PUSH1 0x24 ADD PUSH3 0x412 JUMP JUMPDEST POP POP POP POP POP POP POP JUMP JUMPDEST PUSH1 0x1 PUSH1 0x1 PUSH1 0xA0 SHL SUB DUP5 AND EXTCODESIZE ISZERO PUSH3 0x75B JUMPI PUSH1 0x40 MLOAD PUSH4 0xBC197C81 PUSH1 0xE0 SHL DUP2 MSTORE PUSH1 0x1 PUSH1 0x1 PUSH1 0xA0 SHL SUB DUP6 AND SWAP1 PUSH4 0xBC197C81 SWAP1 PUSH3 0xB6A SWAP1 DUP10 SWAP1 DUP10 SWAP1 DUP9 SWAP1 DUP9 SWAP1 DUP9 SWAP1 PUSH1 0x4 ADD PUSH3 0x1044 JUMP JUMPDEST PUSH1 0x20 PUSH1 0x40 MLOAD DUP1 DUP4 SUB DUP2 PUSH1 0x0 DUP8 GAS CALL SWAP3 POP POP POP DUP1 ISZERO PUSH3 0xBA8 JUMPI POP PUSH1 0x40 DUP1 MLOAD PUSH1 0x1F RETURNDATASIZE SWAP1 DUP2 ADD PUSH1 0x1F NOT AND DUP3 ADD SWAP1 SWAP3 MSTORE PUSH3 0xBA5 SWAP2 DUP2 ADD SWAP1 PUSH3 0x1018 JUMP JUMPDEST PUSH1 0x1 JUMPDEST PUSH3 0xBD9 JUMPI RETURNDATASIZE DUP1 DUP1 ISZERO PUSH3 0xA9F JUMPI PUSH1 0x40 MLOAD SWAP2 POP PUSH1 0x1F NOT PUSH1 0x3F RETURNDATASIZE ADD AND DUP3 ADD PUSH1 0x40 MSTORE RETURNDATASIZE DUP3 MSTORE RETURNDATASIZE PUSH1 0x0 PUSH1 0x20 DUP5 ADD RETURNDATACOPY PUSH3 0xAA4 JUMP JUMPDEST PUSH1 0x1 PUSH1 0x1 PUSH1 0xE0 SHL SUB NOT DUP2 AND PUSH4 0xBC197C81 PUSH1 0xE0 SHL EQ PUSH3 0xB1A JUMPI PUSH1 0x40 MLOAD PUSH4 0x2BFA23E7 PUSH1 0xE1 SHL DUP2 MSTORE PUSH1 0x1 PUSH1 0x1 PUSH1 0xA0 SHL SUB DUP7 AND PUSH1 0x4 DUP3 ADD MSTORE PUSH1 0x24 ADD PUSH3 0x412 JUMP JUMPDEST PUSH1 0x0 PUSH1 0x20 DUP3 DUP5 SUB SLT ISZERO PUSH3 0xC2A JUMPI PUSH1 0x0 DUP1 REVERT JUMPDEST DUP2 MLOAD PUSH1 0x1 PUSH1 0x1 PUSH1 0xA0 SHL SUB DUP2 AND DUP2 EQ PUSH3 0xC42 JUMPI PUSH1 0x0 DUP1 REVERT JUMPDEST SWAP4 SWAP3 POP POP POP JUMP JUMPDEST PUSH1 0x0 PUSH1 0x20 DUP3 DUP5 SUB SLT ISZERO PUSH3 0xC5C JUMPI PUSH1 0x0 DUP1 REVERT JUMPDEST DUP2 MLOAD PUSH1 0xFF DUP2 AND DUP2 EQ PUSH3 0xC42 JUMPI PUSH1 0x0 DUP1 REVERT JUMPDEST PUSH4 0x4E487B71 PUSH1 0xE0 SHL PUSH1 0x0 MSTORE PUSH1 0x11 PUSH1 0x4 MSTORE PUSH1 0x24 PUSH1 0x0 REVERT JUMPDEST PUSH1 0x1 DUP2 DUP2 JUMPDEST DUP1 DUP6 GT ISZERO PUSH3 0xCC5 JUMPI DUP2 PUSH1 0x0 NOT DIV DUP3 GT ISZERO PUSH3 0xCA9 JUMPI PUSH3 0xCA9 PUSH3 0xC6E JUMP JUMPDEST DUP1 DUP6 AND ISZERO PUSH3 0xCB7 JUMPI SWAP2 DUP2 MUL SWAP2 JUMPDEST SWAP4 DUP5 SHR SWAP4 SWAP1 DUP1 MUL SWAP1 PUSH3 0xC89 JUMP JUMPDEST POP SWAP3 POP SWAP3 SWAP1 POP JUMP JUMPDEST PUSH1 0x0 DUP3 PUSH3 0xCDE JUMPI POP PUSH1 0x1 PUSH3 0xD7D JUMP JUMPDEST DUP2 PUSH3 0xCED JUMPI POP PUSH1 0x0 PUSH3 0xD7D JUMP JUMPDEST DUP2 PUSH1 0x1 DUP2 EQ PUSH3 0xD06 JUMPI PUSH1 0x2 DUP2 EQ PUSH3 0xD11 JUMPI PUSH3 0xD31 JUMP JUMPDEST PUSH1 0x1 SWAP2 POP POP PUSH3 0xD7D JUMP JUMPDEST PUSH1 0xFF DUP5 GT ISZERO PUSH3 0xD25 JUMPI PUSH3 0xD25 PUSH3 0xC6E JUMP JUMPDEST POP POP PUSH1 0x1 DUP3 SHL PUSH3 0xD7D JUMP JUMPDEST POP PUSH1 0x20 DUP4 LT PUSH2 0x133 DUP4 LT AND PUSH1 0x4E DUP5 LT PUSH1 0xB DUP5 LT AND OR ISZERO PUSH3 0xD56 JUMPI POP DUP2 DUP2 EXP PUSH3 0xD7D JUMP JUMPDEST PUSH3 0xD62 DUP4 DUP4 PUSH3 0xC84 JUMP JUMPDEST DUP1 PUSH1 0x0 NOT DIV DUP3 GT ISZERO PUSH3 0xD79 JUMPI PUSH3 0xD79 PUSH3 0xC6E JUMP JUMPDEST MUL SWAP1 POP JUMPDEST SWAP3 SWAP2 POP POP JUMP JUMPDEST PUSH1 0x0 PUSH3 0xC42 PUSH1 0xFF DUP5 AND DUP4 PUSH3 0xCCD JUMP JUMPDEST PUSH4 0x4E487B71 PUSH1 0xE0 SHL PUSH1 0x0 MSTORE PUSH1 0x41 PUSH1 0x4 MSTORE PUSH1 0x24 PUSH1 0x0 REVERT JUMPDEST PUSH1 0x1 DUP2 DUP2 SHR SWAP1 DUP3 AND DUP1 PUSH3 0xDBF JUMPI PUSH1 0x7F DUP3 AND SWAP2 POP JUMPDEST PUSH1 0x20 DUP3 LT DUP2 SUB PUSH3 0xDE0 JUMPI PUSH4 0x4E487B71 PUSH1 0xE0 SHL PUSH1 0x0 MSTORE PUSH1 0x22 PUSH1 0x4 MSTORE PUSH1 0x24 PUSH1 0x0 REVERT JUMPDEST POP SWAP2 SWAP1 POP JUMP JUMPDEST PUSH1 0x1F DUP3 GT ISZERO PUSH3 0xE32 JUMPI PUSH1 0x0 DUP2 PUSH1 0x0 MSTORE PUSH1 0x20 PUSH1 0x0 KECCAK256 PUSH1 0x1F DUP6 ADD PUSH1 0x5 SHR DUP2 ADD PUSH1 0x20 DUP7 LT ISZERO PUSH3 0xE11 JUMPI POP DUP1 JUMPDEST PUSH1 0x1F DUP6 ADD PUSH1 0x5 SHR DUP3 ADD SWAP2 POP JUMPDEST DUP2 DUP2 LT ISZERO PUSH3 0x75B JUMPI DUP3 DUP2 SSTORE PUSH1 0x1 ADD PUSH3 0xE1D JUMP JUMPDEST POP POP POP JUMP JUMPDEST DUP2 MLOAD PUSH1 0x1 PUSH1 0x1 PUSH1 0x40 SHL SUB DUP2 GT ISZERO PUSH3 0xE53 JUMPI PUSH3 0xE53 PUSH3 0xD94 JUMP JUMPDEST PUSH3 0xE6B DUP2 PUSH3 0xE64 DUP5 SLOAD PUSH3 0xDAA JUMP JUMPDEST DUP5 PUSH3 0xDE6 JUMP JUMPDEST PUSH1 0x20 DUP1 PUSH1 0x1F DUP4 GT PUSH1 0x1 DUP2 EQ PUSH3 0xEA3 JUMPI PUSH1 0x0 DUP5 ISZERO PUSH3 0xE8A JUMPI POP DUP6 DUP4 ADD MLOAD JUMPDEST PUSH1 0x0 NOT PUSH1 0x3 DUP7 SWAP1 SHL SHR NOT AND PUSH1 0x1 DUP6 SWAP1 SHL OR DUP6 SSTORE PUSH3 0x75B JUMP JUMPDEST PUSH1 0x0 DUP6 DUP2 MSTORE PUSH1 0x20 DUP2 KECCAK256 PUSH1 0x1F NOT DUP7 AND SWAP2 JUMPDEST DUP3 DUP2 LT ISZERO PUSH3 0xED4 JUMPI DUP9 DUP7 ADD MLOAD DUP3 SSTORE SWAP5 DUP5 ADD SWAP5 PUSH1 0x1 SWAP1 SWAP2 ADD SWAP1 DUP5 ADD PUSH3 0xEB3 JUMP JUMPDEST POP DUP6 DUP3 LT ISZERO PUSH3 0xEF3 JUMPI DUP8 DUP6 ADD MLOAD PUSH1 0x0 NOT PUSH1 0x3 DUP9 SWAP1 SHL PUSH1 0xF8 AND SHR NOT AND DUP2 SSTORE JUMPDEST POP POP POP POP POP PUSH1 0x1 SWAP1 DUP2 SHL ADD SWAP1 SSTORE POP JUMP JUMPDEST DUP1 DUP3 ADD DUP1 DUP3 GT ISZERO PUSH3 0xD7D JUMPI PUSH3 0xD7D PUSH3 0xC6E JUMP JUMPDEST PUSH1 0x0 DUP2 MLOAD DUP1 DUP5 MSTORE PUSH1 0x20 DUP1 DUP6 ADD SWAP5 POP PUSH1 0x20 DUP5 ADD PUSH1 0x0 JUMPDEST DUP4 DUP2 LT ISZERO PUSH3 0xF4C JUMPI DUP2 MLOAD DUP8 MSTORE SWAP6 DUP3 ADD SWAP6 SWAP1 DUP3 ADD SWAP1 PUSH1 0x1 ADD PUSH3 0xF2E JUMP JUMPDEST POP SWAP5 SWAP6 SWAP5 POP POP POP POP POP JUMP JUMPDEST PUSH1 0x40 DUP2 MSTORE PUSH1 0x0 PUSH3 0xF6C PUSH1 0x40 DUP4 ADD DUP6 PUSH3 0xF19 JUMP JUMPDEST DUP3 DUP2 SUB PUSH1 0x20 DUP5 ADD MSTORE PUSH3 0xF80 DUP2 DUP6 PUSH3 0xF19 JUMP JUMPDEST SWAP6 SWAP5 POP POP POP POP POP JUMP JUMPDEST PUSH1 0x0 DUP2 MLOAD DUP1 DUP5 MSTORE PUSH1 0x0 JUMPDEST DUP2 DUP2 LT ISZERO PUSH3 0xFB1 JUMPI PUSH1 0x20 DUP2 DUP6 ADD DUP2 ADD MLOAD DUP7 DUP4 ADD DUP3 ADD MSTORE ADD PUSH3 0xF93 JUMP JUMPDEST POP PUSH1 0x0 PUSH1 0x20 DUP3 DUP7 ADD ADD MSTORE PUSH1 0x20 PUSH1 0x1F NOT PUSH1 0x1F DUP4 ADD AND DUP6 ADD ADD SWAP2 POP POP SWAP3 SWAP2 POP POP JUMP JUMPDEST PUSH1 0x1 PUSH1 0x1 PUSH1 0xA0 SHL SUB DUP7 DUP2 AND DUP3 MSTORE DUP6 AND PUSH1 0x20 DUP3 ADD MSTORE PUSH1 0x40 DUP2 ADD DUP5 SWAP1 MSTORE PUSH1 0x60 DUP2 ADD DUP4 SWAP1 MSTORE PUSH1 0xA0 PUSH1 0x80 DUP3 ADD DUP2 SWAP1 MSTORE PUSH1 0x0 SWAP1 PUSH3 0x100D SWAP1 DUP4 ADD DUP5 PUSH3 0xF89 JUMP JUMPDEST SWAP8 SWAP7 POP POP POP POP POP POP POP JUMP JUMPDEST PUSH1 0x0 PUSH1 0x20 DUP3 DUP5 SUB SLT ISZERO PUSH3 0x102B JUMPI PUSH1 0x0 DUP1 REVERT JUMPDEST DUP2 MLOAD PUSH1 0x1 PUSH1 0x1 PUSH1 0xE0 SHL SUB NOT DUP2 AND DUP2 EQ PUSH3 0xC42 JUMPI PUSH1 0x0 DUP1 REVERT JUMPDEST PUSH1 0x1 PUSH1 0x1 PUSH1 0xA0 SHL SUB DUP7 DUP2 AND DUP3 MSTORE DUP6 AND PUSH1 0x20 DUP3 ADD MSTORE PUSH1 0xA0 PUSH1 0x40 DUP3 ADD DUP2 SWAP1 MSTORE PUSH1 0x0 SWAP1 PUSH3 0x1072 SWAP1 DUP4 ADD DUP7 PUSH3 0xF19 JUMP JUMPDEST DUP3 DUP2 SUB PUSH1 0x60 DUP5 ADD MSTORE PUSH3 0x1086 DUP2 DUP7 PUSH3 0xF19 JUMP JUMPDEST SWAP1 POP DUP3 DUP2 SUB PUSH1 0x80 DUP5 ADD MSTORE PUSH3 0x109C DUP2 DUP6 PUSH3 0xF89 JUMP JUMPDEST SWAP9 SWAP8 POP POP POP POP POP POP POP POP JUMP JUMPDEST PUSH2 0x5F0E DUP1 PUSH3 0x10B8 PUSH1 0x0 CODECOPY PUSH1 0x0 RETURN INVALID PUSH1 0x80 PUSH1 0x40 MSTORE CALLVALUE DUP1 ISZERO PUSH2 0x10 JUMPI PUSH1 0x0 DUP1 REVERT JUMPDEST POP PUSH1 0x4 CALLDATASIZE LT PUSH2 0x1D9 JUMPI PUSH1 0x0 CALLDATALOAD PUSH1 0xE0 SHR DUP1 PUSH4 0x90420AEE GT PUSH2 0x104 JUMPI DUP1 PUSH4 0xE985E9C5 GT PUSH2 0xA2 JUMPI DUP1 PUSH4 0xF598B707 GT PUSH2 0x71 JUMPI DUP1 PUSH4 0xF598B707 EQ PUSH2 0x406 JUMPI DUP1 PUSH4 0xF8976921 EQ PUSH2 0x419 JUMPI DUP1 PUSH4 0xF989965D EQ PUSH2 0x42E JUMPI DUP1 PUSH4 0xFB2FACC3 EQ PUSH2 0x441 JUMPI PUSH1 0x0 DUP1 REVERT JUMPDEST DUP1 PUSH4 0xE985E9C5 EQ PUSH2 0x3AD JUMPI DUP1 PUSH4 0xEAC8F5B8 EQ PUSH2 0x3C0 JUMPI DUP1 PUSH4 0xF242432A EQ PUSH2 0x3E0 JUMPI DUP1 PUSH4 0xF3D174CA EQ PUSH2 0x3F3 JUMPI PUSH1 0x0 DUP1 REVERT JUMPDEST DUP1 PUSH4 0xA2A376CD GT PUSH2 0xDE JUMPI DUP1 PUSH4 0xA2A376CD EQ PUSH2 0x35D JUMPI DUP1 PUSH4 0xBFCC4394 EQ PUSH2 0x372 JUMPI DUP1 PUSH4 0xE4B70B42 EQ PUSH2 0x385 JUMPI DUP1 PUSH4 0xE713F42C EQ PUSH2 0x398 JUMPI PUSH1 0x0 DUP1 REVERT JUMPDEST DUP1 PUSH4 0x90420AEE EQ PUSH2 0x324 JUMPI DUP1 PUSH4 0x97F588C6 EQ PUSH2 0x337 JUMPI DUP1 PUSH4 0xA22CB465 EQ PUSH2 0x34A JUMPI PUSH1 0x0 DUP1 REVERT JUMPDEST DUP1 PUSH4 0x2D632205 GT PUSH2 0x17C JUMPI DUP1 PUSH4 0x4E1273F4 GT PUSH2 0x14B JUMPI DUP1 PUSH4 0x4E1273F4 EQ PUSH2 0x2D8 JUMPI DUP1 PUSH4 0x557ED1BA EQ PUSH2 0x2F8 JUMPI DUP1 PUSH4 0x6FFCC719 EQ PUSH2 0x2FE JUMPI DUP1 PUSH4 0x85494E45 EQ PUSH2 0x311 JUMPI PUSH1 0x0 DUP1 REVERT JUMPDEST DUP1 PUSH4 0x2D632205 EQ PUSH2 0x297 JUMPI DUP1 PUSH4 0x2EB2C2D6 EQ PUSH2 0x2AA JUMPI DUP1 PUSH4 0x41FDF031 EQ PUSH2 0x2BD JUMPI DUP1 PUSH4 0x4DAD2AAB EQ PUSH2 0x2C5 JUMPI PUSH1 0x0 DUP1 REVERT JUMPDEST DUP1 PUSH4 0x1B1BF2B9 GT PUSH2 0x1B8 JUMPI DUP1 PUSH4 0x1B1BF2B9 EQ PUSH2 0x247 JUMPI DUP1 PUSH4 0x222D9C5C EQ PUSH2 0x25C JUMPI DUP1 PUSH4 0x24897ED6 EQ PUSH2 0x26F JUMPI DUP1 PUSH4 0x2AC7CF6C EQ PUSH2 0x284 JUMPI PUSH1 0x0 DUP1 REVERT JUMPDEST DUP1 PUSH3 0xFDD58E EQ PUSH2 0x1DE JUMPI DUP1 PUSH4 0x1FFC9A7 EQ PUSH2 0x204 JUMPI DUP1 PUSH4 0xE89341C EQ PUSH2 0x227 JUMPI JUMPDEST PUSH1 0x0 DUP1 REVERT JUMPDEST PUSH2 0x1F1 PUSH2 0x1EC CALLDATASIZE PUSH1 0x4 PUSH2 0x4FBB JUMP JUMPDEST PUSH2 0x454 JUMP JUMPDEST PUSH1 0x40 MLOAD SWAP1 DUP2 MSTORE PUSH1 0x20 ADD JUMPDEST PUSH1 0x40 MLOAD DUP1 SWAP2 SUB SWAP1 RETURN JUMPDEST PUSH2 0x217 PUSH2 0x212 CALLDATASIZE PUSH1 0x4 PUSH2 0x4FFB JUMP JUMPDEST PUSH2 0x47C JUMP JUMPDEST PUSH1 0x40 MLOAD SWAP1 ISZERO ISZERO DUP2 MSTORE PUSH1 0x20 ADD PUSH2 0x1FB JUMP JUMPDEST PUSH2 0x23A PUSH2 0x235 CALLDATASIZE PUSH1 0x4 PUSH2 0x501F JUMP JUMPDEST PUSH2 0x4CC JUMP JUMPDEST PUSH1 0x40 MLOAD PUSH2 0x1FB SWAP2 SWAP1 PUSH2 0x5088 JUMP JUMPDEST PUSH2 0x25A PUSH2 0x255 CALLDATASIZE PUSH1 0x4 PUSH2 0x509B JUMP JUMPDEST PUSH2 0x560 JUMP JUMPDEST STOP JUMPDEST PUSH2 0x25A PUSH2 0x26A CALLDATASIZE PUSH1 0x4 PUSH2 0x501F JUMP JUMPDEST PUSH2 0x5C3 JUMP JUMPDEST PUSH2 0x277 PUSH2 0xEFD JUMP JUMPDEST PUSH1 0x40 MLOAD PUSH2 0x1FB SWAP2 SWAP1 PUSH2 0x50B6 JUMP JUMPDEST PUSH2 0x25A PUSH2 0x292 CALLDATASIZE PUSH1 0x4 PUSH2 0x51EE JUMP JUMPDEST PUSH2 0xF9B JUMP JUMPDEST PUSH2 0x25A PUSH2 0x2A5 CALLDATASIZE PUSH1 0x4 PUSH2 0x5288 JUMP JUMPDEST PUSH2 0x1291 JUMP JUMPDEST PUSH2 0x25A PUSH2 0x2B8 CALLDATASIZE PUSH1 0x4 PUSH2 0x533D JUMP JUMPDEST PUSH2 0x1686 JUMP JUMPDEST PUSH2 0x23A PUSH2 0x16ED JUMP JUMPDEST PUSH2 0x25A PUSH2 0x2D3 CALLDATASIZE PUSH1 0x4 PUSH2 0x53E7 JUMP JUMPDEST PUSH2 0x178E JUMP JUMPDEST PUSH2 0x2EB PUSH2 0x2E6 CALLDATASIZE PUSH1 0x4 PUSH2 0x5459 JUMP JUMPDEST PUSH2 0x19DF JUMP JUMPDEST PUSH1 0x40 MLOAD PUSH2 0x1FB SWAP2 SWAP1 PUSH2 0x5555 JUMP JUMPDEST TIMESTAMP PUSH2 0x1F1 JUMP JUMPDEST PUSH2 0x25A PUSH2 0x30C CALLDATASIZE PUSH1 0x4 PUSH2 0x5288 JUMP JUMPDEST PUSH2 0x1AAC JUMP JUMPDEST PUSH2 0x25A PUSH2 0x31F CALLDATASIZE PUSH1 0x4 PUSH2 0x5568 JUMP JUMPDEST PUSH2 0x1D1B JUMP JUMPDEST PUSH2 0x25A PUSH2 0x332 CALLDATASIZE PUSH1 0x4 PUSH2 0x5288 JUMP JUMPDEST PUSH2 0x2144 JUMP JUMPDEST PUSH2 0x25A PUSH2 0x345 CALLDATASIZE PUSH1 0x4 PUSH2 0x55A5 JUMP JUMPDEST PUSH2 0x2204 JUMP JUMPDEST PUSH2 0x25A PUSH2 0x358 CALLDATASIZE PUSH1 0x4 PUSH2 0x55E2 JUMP JUMPDEST PUSH2 0x2613 JUMP JUMPDEST PUSH2 0x365 PUSH2 0x2622 JUMP JUMPDEST PUSH1 0x40 MLOAD PUSH2 0x1FB SWAP2 SWAP1 PUSH2 0x561E JUMP JUMPDEST PUSH2 0x25A PUSH2 0x380 CALLDATASIZE PUSH1 0x4 PUSH2 0x501F JUMP JUMPDEST PUSH2 0x27A5 JUMP JUMPDEST PUSH2 0x25A PUSH2 0x393 CALLDATASIZE PUSH1 0x4 PUSH2 0x56F3 JUMP JUMPDEST PUSH2 0x2813 JUMP JUMPDEST PUSH2 0x3A0 PUSH2 0x304E JUMP JUMPDEST PUSH1 0x40 MLOAD PUSH2 0x1FB SWAP2 SWAP1 PUSH2 0x57A8 JUMP JUMPDEST PUSH2 0x217 PUSH2 0x3BB CALLDATASIZE PUSH1 0x4 PUSH2 0x580C JUMP JUMPDEST PUSH2 0x328D JUMP JUMPDEST PUSH2 0x3D3 PUSH2 0x3CE CALLDATASIZE PUSH1 0x4 PUSH2 0x501F JUMP JUMPDEST PUSH2 0x32BB JUMP JUMPDEST PUSH1 0x40 MLOAD PUSH2 0x1FB SWAP2 SWAP1 PUSH2 0x583F JUMP JUMPDEST PUSH2 0x25A PUSH2 0x3EE CALLDATASIZE PUSH1 0x4 PUSH2 0x5852 JUMP JUMPDEST PUSH2 0x3511 JUMP JUMPDEST PUSH2 0x25A PUSH2 0x401 CALLDATASIZE PUSH1 0x4 PUSH2 0x58B7 JUMP JUMPDEST PUSH2 0x3570 JUMP JUMPDEST PUSH2 0x25A PUSH2 0x414 CALLDATASIZE PUSH1 0x4 PUSH2 0x5964 JUMP JUMPDEST PUSH2 0x3737 JUMP JUMPDEST PUSH2 0x421 PUSH2 0x39A1 JUMP JUMPDEST PUSH1 0x40 MLOAD PUSH2 0x1FB SWAP2 SWAP1 PUSH2 0x5996 JUMP JUMPDEST PUSH2 0x25A PUSH2 0x43C CALLDATASIZE PUSH1 0x4 PUSH2 0x5A54 JUMP JUMPDEST PUSH2 0x3BCB JUMP JUMPDEST PUSH2 0x25A PUSH2 0x44F CALLDATASIZE PUSH1 0x4 PUSH2 0x501F JUMP JUMPDEST PUSH2 0x3E2E JUMP JUMPDEST PUSH1 0x0 DUP2 DUP2 MSTORE PUSH1 0x20 DUP2 DUP2 MSTORE PUSH1 0x40 DUP1 DUP4 KECCAK256 PUSH1 0x1 PUSH1 0x1 PUSH1 0xA0 SHL SUB DUP7 AND DUP5 MSTORE SWAP1 SWAP2 MSTORE SWAP1 KECCAK256 SLOAD JUMPDEST SWAP3 SWAP2 POP POP JUMP JUMPDEST PUSH1 0x0 PUSH1 0x1 PUSH1 0x1 PUSH1 0xE0 SHL SUB NOT DUP3 AND PUSH4 0x6CDB3D13 PUSH1 0xE1 SHL EQ DUP1 PUSH2 0x4AD JUMPI POP PUSH1 0x1 PUSH1 0x1 PUSH1 0xE0 SHL SUB NOT DUP3 AND PUSH4 0x3A24D07 PUSH1 0xE2 SHL EQ JUMPDEST DUP1 PUSH2 0x476 JUMPI POP PUSH4 0x1FFC9A7 PUSH1 0xE0 SHL PUSH1 0x1 PUSH1 0x1 PUSH1 0xE0 SHL SUB NOT DUP4 AND EQ PUSH2 0x476 JUMP JUMPDEST PUSH1 0x60 PUSH1 0x2 DUP1 SLOAD PUSH2 0x4DB SWAP1 PUSH2 0x5A8F JUMP JUMPDEST DUP1 PUSH1 0x1F ADD PUSH1 0x20 DUP1 SWAP2 DIV MUL PUSH1 0x20 ADD PUSH1 0x40 MLOAD SWAP1 DUP2 ADD PUSH1 0x40 MSTORE DUP1 SWAP3 SWAP2 SWAP1 DUP2 DUP2 MSTORE PUSH1 0x20 ADD DUP3 DUP1 SLOAD PUSH2 0x507 SWAP1 PUSH2 0x5A8F JUMP JUMPDEST DUP1 ISZERO PUSH2 0x554 JUMPI DUP1 PUSH1 0x1F LT PUSH2 0x529 JUMPI PUSH2 0x100 DUP1 DUP4 SLOAD DIV MUL DUP4 MSTORE SWAP2 PUSH1 0x20 ADD SWAP2 PUSH2 0x554 JUMP JUMPDEST DUP3 ADD SWAP2 SWAP1 PUSH1 0x0 MSTORE PUSH1 0x20 PUSH1 0x0 KECCAK256 SWAP1 JUMPDEST DUP2 SLOAD DUP2 MSTORE SWAP1 PUSH1 0x1 ADD SWAP1 PUSH1 0x20 ADD DUP1 DUP4 GT PUSH2 0x537 JUMPI DUP3 SWAP1 SUB PUSH1 0x1F AND DUP3 ADD SWAP2 JUMPDEST POP POP POP POP POP SWAP1 POP SWAP2 SWAP1 POP JUMP JUMPDEST CALLER PUSH1 0x0 SWAP1 DUP2 MSTORE PUSH1 0xC PUSH1 0x20 MSTORE PUSH1 0x40 SWAP1 DUP2 SWAP1 KECCAK256 SWAP1 MLOAD PUSH1 0x6 SWAP2 PUSH2 0x57F SWAP2 PUSH2 0x5AC9 JUMP JUMPDEST SWAP1 DUP2 MSTORE PUSH1 0x40 MLOAD PUSH1 0x20 SWAP2 DUP2 SWAP1 SUB DUP3 ADD SWAP1 KECCAK256 PUSH1 0x3 ADD DUP1 SLOAD PUSH1 0x1 DUP2 ADD DUP3 SSTORE PUSH1 0x0 SWAP2 DUP3 MSTORE SWAP2 SWAP1 KECCAK256 ADD DUP1 SLOAD PUSH1 0x1 PUSH1 0x1 PUSH1 0xA0 SHL SUB NOT AND PUSH1 0x1 PUSH1 0x1 PUSH1 0xA0 SHL SUB SWAP3 SWAP1 SWAP3 AND SWAP2 SWAP1 SWAP2 OR SWAP1 SSTORE JUMP JUMPDEST PUSH1 0x4 SLOAD PUSH1 0x1 PUSH1 0x1 PUSH1 0xA0 SHL SUB AND CALLER EQ PUSH2 0x5F6 JUMPI PUSH1 0x40 MLOAD PUSH3 0x461BCD PUSH1 0xE5 SHL DUP2 MSTORE PUSH1 0x4 ADD PUSH2 0x5ED SWAP1 PUSH2 0x5B3F JUMP JUMPDEST PUSH1 0x40 MLOAD DUP1 SWAP2 SUB SWAP1 REVERT JUMPDEST PUSH1 0x4 SLOAD PUSH1 0x12 DUP1 SLOAD PUSH2 0x784 SWAP3 PUSH1 0x1 PUSH1 0x1 PUSH1 0xA0 SHL SUB AND SWAP2 SWAP1 DUP5 SWAP1 DUP2 LT PUSH2 0x61C JUMPI PUSH2 0x61C PUSH2 0x5BAD JUMP JUMPDEST SWAP1 PUSH1 0x0 MSTORE PUSH1 0x20 PUSH1 0x0 KECCAK256 SWAP1 PUSH1 0x7 MUL ADD PUSH1 0x5 ADD PUSH1 0x0 SWAP1 SLOAD SWAP1 PUSH2 0x100 EXP SWAP1 DIV PUSH1 0x1 PUSH1 0x1 PUSH1 0xA0 SHL SUB AND PUSH1 0x11 PUSH1 0x12 DUP6 DUP2 SLOAD DUP2 LT PUSH2 0x656 JUMPI PUSH2 0x656 PUSH2 0x5BAD JUMP JUMPDEST SWAP1 PUSH1 0x0 MSTORE PUSH1 0x20 PUSH1 0x0 KECCAK256 SWAP1 PUSH1 0x7 MUL ADD PUSH1 0x1 ADD SLOAD DUP2 SLOAD DUP2 LT PUSH2 0x678 JUMPI PUSH2 0x678 PUSH2 0x5BAD JUMP JUMPDEST SWAP1 PUSH1 0x0 MSTORE PUSH1 0x20 PUSH1 0x0 KECCAK256 SWAP1 PUSH1 0x4 MUL ADD PUSH1 0x2 ADD DUP1 SLOAD DUP1 PUSH1 0x20 MUL PUSH1 0x20 ADD PUSH1 0x40 MLOAD SWAP1 DUP2 ADD PUSH1 0x40 MSTORE DUP1 SWAP3 SWAP2 SWAP1 DUP2 DUP2 MSTORE PUSH1 0x20 ADD DUP3 DUP1 SLOAD DUP1 ISZERO PUSH2 0x6D3 JUMPI PUSH1 0x20 MUL DUP3 ADD SWAP2 SWAP1 PUSH1 0x0 MSTORE PUSH1 0x20 PUSH1 0x0 KECCAK256 SWAP1 JUMPDEST DUP2 SLOAD DUP2 MSTORE PUSH1 0x20 ADD SWAP1 PUSH1 0x1 ADD SWAP1 DUP1 DUP4 GT PUSH2 0x6BF JUMPI JUMPDEST POP POP POP POP POP PUSH1 0x11 PUSH1 0x12 DUP7 DUP2 SLOAD DUP2 LT PUSH2 0x6ED JUMPI PUSH2 0x6ED PUSH2 0x5BAD JUMP JUMPDEST SWAP1 PUSH1 0x0 MSTORE PUSH1 0x20 PUSH1 0x0 KECCAK256 SWAP1 PUSH1 0x7 MUL ADD PUSH1 0x1 ADD SLOAD DUP2 SLOAD DUP2 LT PUSH2 0x70F JUMPI PUSH2 0x70F PUSH2 0x5BAD JUMP JUMPDEST SWAP1 PUSH1 0x0 MSTORE PUSH1 0x20 PUSH1 0x0 KECCAK256 SWAP1 PUSH1 0x4 MUL ADD PUSH1 0x3 ADD DUP1 SLOAD DUP1 PUSH1 0x20 MUL PUSH1 0x20 ADD PUSH1 0x40 MLOAD SWAP1 DUP2 ADD PUSH1 0x40 MSTORE DUP1 SWAP3 SWAP2 SWAP1 DUP2 DUP2 MSTORE PUSH1 0x20 ADD DUP3 DUP1 SLOAD DUP1 ISZERO PUSH2 0x76A JUMPI PUSH1 0x20 MUL DUP3 ADD SWAP2 SWAP1 PUSH1 0x0 MSTORE PUSH1 0x20 PUSH1 0x0 KECCAK256 SWAP1 JUMPDEST DUP2 SLOAD DUP2 MSTORE PUSH1 0x20 ADD SWAP1 PUSH1 0x1 ADD SWAP1 DUP1 DUP4 GT PUSH2 0x756 JUMPI JUMPDEST POP POP POP POP POP PUSH1 0x40 MLOAD DUP1 PUSH1 0x20 ADD PUSH1 0x40 MSTORE DUP1 PUSH1 0x0 DUP2 MSTORE POP PUSH2 0x47DF JUMP JUMPDEST PUSH1 0x0 JUMPDEST PUSH1 0x11 PUSH1 0x12 DUP4 DUP2 SLOAD DUP2 LT PUSH2 0x79C JUMPI PUSH2 0x79C PUSH2 0x5BAD JUMP JUMPDEST SWAP1 PUSH1 0x0 MSTORE PUSH1 0x20 PUSH1 0x0 KECCAK256 SWAP1 PUSH1 0x7 MUL ADD PUSH1 0x1 ADD SLOAD DUP2 SLOAD DUP2 LT PUSH2 0x7BE JUMPI PUSH2 0x7BE PUSH2 0x5BAD JUMP JUMPDEST SWAP1 PUSH1 0x0 MSTORE PUSH1 0x20 PUSH1 0x0 KECCAK256 SWAP1 PUSH1 0x4 MUL ADD PUSH1 0x2 ADD DUP1 SLOAD SWAP1 POP DUP2 LT ISZERO PUSH2 0xEAF JUMPI PUSH1 0x9 PUSH1 0x0 PUSH1 0x12 DUP5 DUP2 SLOAD DUP2 LT PUSH2 0x7F1 JUMPI PUSH2 0x7F1 PUSH2 0x5BAD JUMP JUMPDEST SWAP1 PUSH1 0x0 MSTORE PUSH1 0x20 PUSH1 0x0 KECCAK256 SWAP1 PUSH1 0x7 MUL ADD PUSH1 0x5 ADD PUSH1 0x0 SWAP1 SLOAD SWAP1 PUSH2 0x100 EXP SWAP1 DIV PUSH1 0x1 PUSH1 0x1 PUSH1 0xA0 SHL SUB AND PUSH1 0x1 PUSH1 0x1 PUSH1 0xA0 SHL SUB AND PUSH1 0x1 PUSH1 0x1 PUSH1 0xA0 SHL SUB AND DUP2 MSTORE PUSH1 0x20 ADD SWAP1 DUP2 MSTORE PUSH1 0x20 ADD PUSH1 0x0 KECCAK256 PUSH1 0x40 MLOAD DUP1 PUSH2 0x100 ADD PUSH1 0x40 MSTORE DUP1 PUSH1 0x9 PUSH1 0x0 PUSH1 0x12 DUP8 DUP2 SLOAD DUP2 LT PUSH2 0x859 JUMPI PUSH2 0x859 PUSH2 0x5BAD JUMP JUMPDEST SWAP1 PUSH1 0x0 MSTORE PUSH1 0x20 PUSH1 0x0 KECCAK256 SWAP1 PUSH1 0x7 MUL ADD PUSH1 0x5 ADD PUSH1 0x0 SWAP1 SLOAD SWAP1 PUSH2 0x100 EXP SWAP1 DIV PUSH1 0x1 PUSH1 0x1 PUSH1 0xA0 SHL SUB AND PUSH1 0x1 PUSH1 0x1 PUSH1 0xA0 SHL SUB AND PUSH1 0x1 PUSH1 0x1 PUSH1 0xA0 SHL SUB AND DUP2 MSTORE PUSH1 0x20 ADD SWAP1 DUP2 MSTORE PUSH1 0x20 ADD PUSH1 0x0 KECCAK256 DUP1 SLOAD SWAP1 POP DUP2 MSTORE PUSH1 0x20 ADD PUSH1 0x8 PUSH1 0x0 PUSH1 0xA PUSH1 0x0 PUSH1 0x12 DUP10 DUP2 SLOAD DUP2 LT PUSH2 0x8C2 JUMPI PUSH2 0x8C2 PUSH2 0x5BAD JUMP JUMPDEST SWAP1 PUSH1 0x0 MSTORE PUSH1 0x20 PUSH1 0x0 KECCAK256 SWAP1 PUSH1 0x7 MUL ADD PUSH1 0x1 ADD SLOAD DUP2 MSTORE PUSH1 0x20 ADD SWAP1 DUP2 MSTORE PUSH1 0x20 ADD PUSH1 0x0 KECCAK256 PUSH1 0x2 ADD DUP7 DUP2 SLOAD DUP2 LT PUSH2 0x8F6 JUMPI PUSH2 0x8F6 PUSH2 0x5BAD JUMP JUMPDEST SWAP1 PUSH1 0x0 MSTORE PUSH1 0x20 PUSH1 0x0 KECCAK256 ADD SLOAD DUP2 MSTORE PUSH1 0x20 ADD SWAP1 DUP2 MSTORE PUSH1 0x20 ADD PUSH1 0x0 KECCAK256 PUSH1 0x1 ADD DUP1 SLOAD PUSH2 0x91D SWAP1 PUSH2 0x5A8F JUMP JUMPDEST DUP1 PUSH1 0x1F ADD PUSH1 0x20 DUP1 SWAP2 DIV MUL PUSH1 0x20 ADD PUSH1 0x40 MLOAD SWAP1 DUP2 ADD PUSH1 0x40 MSTORE DUP1 SWAP3 SWAP2 SWAP1 DUP2 DUP2 MSTORE PUSH1 0x20 ADD DUP3 DUP1 SLOAD PUSH2 0x949 SWAP1 PUSH2 0x5A8F JUMP JUMPDEST DUP1 ISZERO PUSH2 0x996 JUMPI DUP1 PUSH1 0x1F LT PUSH2 0x96B JUMPI PUSH2 0x100 DUP1 DUP4 SLOAD DIV MUL DUP4 MSTORE SWAP2 PUSH1 0x20 ADD SWAP2 PUSH2 0x996 JUMP JUMPDEST DUP3 ADD SWAP2 SWAP1 PUSH1 0x0 MSTORE PUSH1 0x20 PUSH1 0x0 KECCAK256 SWAP1 JUMPDEST DUP2 SLOAD DUP2 MSTORE SWAP1 PUSH1 0x1 ADD SWAP1 PUSH1 0x20 ADD DUP1 DUP4 GT PUSH2 0x979 JUMPI DUP3 SWAP1 SUB PUSH1 0x1F AND DUP3 ADD SWAP2 JUMPDEST POP POP POP POP POP DUP2 MSTORE PUSH1 0x20 ADD PUSH1 0x8 PUSH1 0x0 PUSH1 0xA PUSH1 0x0 PUSH1 0x12 DUP10 DUP2 SLOAD DUP2 LT PUSH2 0x9BB JUMPI PUSH2 0x9BB PUSH2 0x5BAD JUMP JUMPDEST SWAP1 PUSH1 0x0 MSTORE PUSH1 0x20 PUSH1 0x0 KECCAK256 SWAP1 PUSH1 0x7 MUL ADD PUSH1 0x1 ADD SLOAD DUP2 MSTORE PUSH1 0x20 ADD SWAP1 DUP2 MSTORE PUSH1 0x20 ADD PUSH1 0x0 KECCAK256 PUSH1 0x2 ADD DUP7 DUP2 SLOAD DUP2 LT PUSH2 0x9EF JUMPI PUSH2 0x9EF PUSH2 0x5BAD JUMP JUMPDEST SWAP1 PUSH1 0x0 MSTORE PUSH1 0x20 PUSH1 0x0 KECCAK256 ADD SLOAD DUP2 MSTORE PUSH1 0x20 ADD SWAP1 DUP2 MSTORE PUSH1 0x20 ADD PUSH1 0x0 KECCAK256 PUSH1 0x2 ADD DUP1 SLOAD PUSH2 0xA16 SWAP1 PUSH2 0x5A8F JUMP JUMPDEST DUP1 PUSH1 0x1F ADD PUSH1 0x20 DUP1 SWAP2 DIV MUL PUSH1 0x20 ADD PUSH1 0x40 MLOAD SWAP1 DUP2 ADD PUSH1 0x40 MSTORE DUP1 SWAP3 SWAP2 SWAP1 DUP2 DUP2 MSTORE PUSH1 0x20 ADD DUP3 DUP1 SLOAD PUSH2 0xA42 SWAP1 PUSH2 0x5A8F JUMP JUMPDEST DUP1 ISZERO PUSH2 0xA8F JUMPI DUP1 PUSH1 0x1F LT PUSH2 0xA64 JUMPI PUSH2 0x100 DUP1 DUP4 SLOAD DIV MUL DUP4 MSTORE SWAP2 PUSH1 0x20 ADD SWAP2 PUSH2 0xA8F JUMP JUMPDEST DUP3 ADD SWAP2 SWAP1 PUSH1 0x0 MSTORE PUSH1 0x20 PUSH1 0x0 KECCAK256 SWAP1 JUMPDEST DUP2 SLOAD DUP2 MSTORE SWAP1 PUSH1 0x1 ADD SWAP1 PUSH1 0x20 ADD DUP1 DUP4 GT PUSH2 0xA72 JUMPI DUP3 SWAP1 SUB PUSH1 0x1F AND DUP3 ADD SWAP2 JUMPDEST POP POP POP POP POP DUP2 MSTORE PUSH1 0x20 ADD PUSH1 0x8 PUSH1 0x0 PUSH1 0xA PUSH1 0x0 PUSH1 0x12 DUP10 DUP2 SLOAD DUP2 LT PUSH2 0xAB4 JUMPI PUSH2 0xAB4 PUSH2 0x5BAD JUMP JUMPDEST SWAP1 PUSH1 0x0 MSTORE PUSH1 0x20 PUSH1 0x0 KECCAK256 SWAP1 PUSH1 0x7 MUL ADD PUSH1 0x1 ADD SLOAD DUP2 MSTORE PUSH1 0x20 ADD SWAP1 DUP2 MSTORE PUSH1 0x20 ADD PUSH1 0x0 KECCAK256 PUSH1 0x2 ADD DUP7 DUP2 SLOAD DUP2 LT PUSH2 0xAE8 JUMPI PUSH2 0xAE8 PUSH2 0x5BAD JUMP JUMPDEST SWAP1 PUSH1 0x0 MSTORE PUSH1 0x20 PUSH1 0x0 KECCAK256 ADD SLOAD DUP2 MSTORE PUSH1 0x20 ADD SWAP1 DUP2 MSTORE PUSH1 0x20 ADD PUSH1 0x0 KECCAK256 PUSH1 0x3 ADD DUP1 SLOAD PUSH2 0xB0F SWAP1 PUSH2 0x5A8F JUMP JUMPDEST DUP1 PUSH1 0x1F ADD PUSH1 0x20 DUP1 SWAP2 DIV MUL PUSH1 0x20 ADD PUSH1 0x40 MLOAD SWAP1 DUP2 ADD PUSH1 0x40 MSTORE DUP1 SWAP3 SWAP2 SWAP1 DUP2 DUP2 MSTORE PUSH1 0x20 ADD DUP3 DUP1 SLOAD PUSH2 0xB3B SWAP1 PUSH2 0x5A8F JUMP JUMPDEST DUP1 ISZERO PUSH2 0xB88 JUMPI DUP1 PUSH1 0x1F LT PUSH2 0xB5D JUMPI PUSH2 0x100 DUP1 DUP4 SLOAD DIV MUL DUP4 MSTORE SWAP2 PUSH1 0x20 ADD SWAP2 PUSH2 0xB88 JUMP JUMPDEST DUP3 ADD SWAP2 SWAP1 PUSH1 0x0 MSTORE PUSH1 0x20 PUSH1 0x0 KECCAK256 SWAP1 JUMPDEST DUP2 SLOAD DUP2 MSTORE SWAP1 PUSH1 0x1 ADD SWAP1 PUSH1 0x20 ADD DUP1 DUP4 GT PUSH2 0xB6B JUMPI DUP3 SWAP1 SUB PUSH1 0x1F AND DUP3 ADD SWAP2 JUMPDEST POP POP POP POP POP DUP2 MSTORE PUSH1 0x20 ADD PUSH1 0x8 PUSH1 0x0 PUSH1 0xA PUSH1 0x0 PUSH1 0x12 DUP10 DUP2 SLOAD DUP2 LT PUSH2 0xBAD JUMPI PUSH2 0xBAD PUSH2 0x5BAD JUMP JUMPDEST SWAP1 PUSH1 0x0 MSTORE PUSH1 0x20 PUSH1 0x0 KECCAK256 SWAP1 PUSH1 0x7 MUL ADD PUSH1 0x1 ADD SLOAD DUP2 MSTORE PUSH1 0x20 ADD SWAP1 DUP2 MSTORE PUSH1 0x20 ADD PUSH1 0x0 KECCAK256 PUSH1 0x2 ADD DUP7 DUP2 SLOAD DUP2 LT PUSH2 0xBE1 JUMPI PUSH2 0xBE1 PUSH2 0x5BAD JUMP JUMPDEST SWAP1 PUSH1 0x0 MSTORE PUSH1 0x20 PUSH1 0x0 KECCAK256 ADD SLOAD DUP2 MSTORE PUSH1 0x20 ADD SWAP1 DUP2 MSTORE PUSH1 0x20 ADD PUSH1 0x0 KECCAK256 PUSH1 0x5 ADD SLOAD DUP2 MSTORE PUSH1 0x20 ADD PUSH1 0x3 SLOAD PUSH1 0x1 PUSH2 0xC12 SWAP2 SWAP1 PUSH2 0x5BD9 JUMP JUMPDEST DUP2 MSTORE PUSH1 0x20 ADD PUSH1 0x8 PUSH1 0x0 PUSH1 0xA PUSH1 0x0 PUSH1 0x12 DUP10 DUP2 SLOAD DUP2 LT PUSH2 0xC32 JUMPI PUSH2 0xC32 PUSH2 0x5BAD JUMP JUMPDEST SWAP1 PUSH1 0x0 MSTORE PUSH1 0x20 PUSH1 0x0 KECCAK256 SWAP1 PUSH1 0x7 MUL ADD PUSH1 0x1 ADD SLOAD DUP2 MSTORE PUSH1 0x20 ADD SWAP1 DUP2 MSTORE PUSH1 0x20 ADD PUSH1 0x0 KECCAK256 PUSH1 0x2 ADD DUP7 DUP2 SLOAD DUP2 LT PUSH2 0xC66 JUMPI PUSH2 0xC66 PUSH2 0x5BAD JUMP JUMPDEST SWAP1 PUSH1 0x0 MSTORE PUSH1 0x20 PUSH1 0x0 KECCAK256 ADD SLOAD DUP2 MSTORE PUSH1 0x20 ADD SWAP1 DUP2 MSTORE PUSH1 0x20 ADD PUSH1 0x0 KECCAK256 PUSH1 0x6 ADD SLOAD DUP2 MSTORE PUSH1 0x20 ADD PUSH1 0x12 DUP6 DUP2 SLOAD DUP2 LT PUSH2 0xC9B JUMPI PUSH2 0xC9B PUSH2 0x5BAD JUMP JUMPDEST PUSH1 0x0 SWAP2 DUP3 MSTORE PUSH1 0x20 DUP1 DUP4 KECCAK256 PUSH1 0x1 PUSH1 0x7 SWAP1 SWAP4 MUL ADD DUP3 ADD SLOAD SWAP1 SWAP4 MSTORE DUP5 SLOAD DUP1 DUP3 ADD DUP7 SSTORE SWAP5 DUP3 MSTORE SWAP1 DUP3 SWAP1 KECCAK256 DUP4 MLOAD PUSH1 0x8 SWAP1 SWAP6 MUL ADD SWAP4 DUP5 SSTORE SWAP1 DUP3 ADD MLOAD SWAP2 SWAP3 SWAP2 SWAP1 DUP3 ADD SWAP1 PUSH2 0xCE1 SWAP1 DUP3 PUSH2 0x5C38 JUMP JUMPDEST POP PUSH1 0x40 DUP3 ADD MLOAD PUSH1 0x2 DUP3 ADD SWAP1 PUSH2 0xCF6 SWAP1 DUP3 PUSH2 0x5C38 JUMP JUMPDEST POP PUSH1 0x60 DUP3 ADD MLOAD PUSH1 0x3 DUP3 ADD SWAP1 PUSH2 0xD0B SWAP1 DUP3 PUSH2 0x5C38 JUMP JUMPDEST POP PUSH1 0x80 DUP3 ADD MLOAD DUP2 PUSH1 0x4 ADD SSTORE PUSH1 0xA0 DUP3 ADD MLOAD DUP2 PUSH1 0x5 ADD SSTORE PUSH1 0xC0 DUP3 ADD MLOAD DUP2 PUSH1 0x6 ADD SSTORE PUSH1 0xE0 DUP3 ADD MLOAD DUP2 PUSH1 0x7 ADD SSTORE POP POP PUSH1 0x0 PUSH1 0xD PUSH1 0x0 PUSH1 0xA PUSH1 0x0 PUSH1 0x12 DUP8 DUP2 SLOAD DUP2 LT PUSH2 0xD53 JUMPI PUSH2 0xD53 PUSH2 0x5BAD JUMP JUMPDEST SWAP1 PUSH1 0x0 MSTORE PUSH1 0x20 PUSH1 0x0 KECCAK256 SWAP1 PUSH1 0x7 MUL ADD PUSH1 0x1 ADD SLOAD DUP2 MSTORE PUSH1 0x20 ADD SWAP1 DUP2 MSTORE PUSH1 0x20 ADD PUSH1 0x0 KECCAK256 PUSH1 0x2 ADD DUP5 DUP2 SLOAD DUP2 LT PUSH2 0xD87 JUMPI PUSH2 0xD87 PUSH2 0x5BAD JUMP JUMPDEST PUSH1 0x0 SWAP2 DUP3 MSTORE PUSH1 0x20 DUP1 DUP4 KECCAK256 SWAP2 SWAP1 SWAP2 ADD SLOAD DUP4 MSTORE DUP3 DUP2 ADD SWAP4 SWAP1 SWAP4 MSTORE PUSH1 0x40 SWAP2 DUP3 ADD DUP2 KECCAK256 DUP1 SLOAD PUSH1 0xFF NOT AND SWAP5 ISZERO ISZERO SWAP5 SWAP1 SWAP5 OR SWAP1 SWAP4 SSTORE PUSH1 0x4 SLOAD PUSH1 0x1 PUSH1 0x1 PUSH1 0xA0 SHL SUB AND DUP4 MSTORE PUSH1 0x9 SWAP1 SWAP2 MSTORE DUP2 KECCAK256 PUSH1 0x12 DUP1 SLOAD SWAP2 SWAP3 PUSH1 0x8 SWAP3 SWAP1 SWAP2 PUSH1 0xA SWAP2 DUP4 SWAP2 SWAP1 DUP9 SWAP1 DUP2 LT PUSH2 0xDEC JUMPI PUSH2 0xDEC PUSH2 0x5BAD JUMP JUMPDEST SWAP1 PUSH1 0x0 MSTORE PUSH1 0x20 PUSH1 0x0 KECCAK256 SWAP1 PUSH1 0x7 MUL ADD PUSH1 0x1 ADD SLOAD DUP2 MSTORE PUSH1 0x20 ADD SWAP1 DUP2 MSTORE PUSH1 0x20 ADD PUSH1 0x0 KECCAK256 PUSH1 0x2 ADD DUP5 DUP2 SLOAD DUP2 LT PUSH2 0xE20 JUMPI PUSH2 0xE20 PUSH2 0x5BAD JUMP JUMPDEST SWAP1 PUSH1 0x0 MSTORE PUSH1 0x20 PUSH1 0x0 KECCAK256 ADD SLOAD DUP2 MSTORE PUSH1 0x20 ADD SWAP1 DUP2 MSTORE PUSH1 0x20 ADD PUSH1 0x0 KECCAK256 PUSH1 0x0 ADD SLOAD DUP2 SLOAD DUP2 LT PUSH2 0xE4D JUMPI PUSH2 0xE4D PUSH2 0x5BAD JUMP JUMPDEST PUSH1 0x0 SWAP2 DUP3 MSTORE PUSH1 0x20 DUP3 KECCAK256 PUSH1 0x8 SWAP1 SWAP2 MUL ADD DUP2 DUP2 SSTORE SWAP1 PUSH2 0xE6D PUSH1 0x1 DUP4 ADD DUP3 PUSH2 0x4E34 JUMP JUMPDEST PUSH2 0xE7B PUSH1 0x2 DUP4 ADD PUSH1 0x0 PUSH2 0x4E34 JUMP JUMPDEST PUSH2 0xE89 PUSH1 0x3 DUP4 ADD PUSH1 0x0 PUSH2 0x4E34 JUMP JUMPDEST POP PUSH1 0x0 PUSH1 0x4 DUP3 ADD DUP2 SWAP1 SSTORE PUSH1 0x5 DUP3 ADD DUP2 SWAP1 SSTORE PUSH1 0x6 DUP3 ADD DUP2 SWAP1 SSTORE PUSH1 0x7 SWAP1 SWAP2 ADD SSTORE PUSH1 0x1 ADD PUSH2 0x787 JUMP JUMPDEST POP PUSH1 0x0 PUSH1 0x12 DUP3 DUP2 SLOAD DUP2 LT PUSH2 0xEC5 JUMPI PUSH2 0xEC5 PUSH2 0x5BAD JUMP JUMPDEST SWAP1 PUSH1 0x0 MSTORE PUSH1 0x20 PUSH1 0x0 KECCAK256 SWAP1 PUSH1 0x7 MUL ADD PUSH1 0x5 ADD PUSH1 0x0 PUSH2 0x100 EXP DUP2 SLOAD DUP2 PUSH1 0x1 PUSH1 0x1 PUSH1 0xA0 SHL SUB MUL NOT AND SWAP1 DUP4 PUSH1 0x1 PUSH1 0x1 PUSH1 0xA0 SHL SUB AND MUL OR SWAP1 SSTORE POP POP JUMP JUMPDEST PUSH1 0x60 PUSH1 0xE DUP1 SLOAD DUP1 PUSH1 0x20 MUL PUSH1 0x20 ADD PUSH1 0x40 MLOAD SWAP1 DUP2 ADD PUSH1 0x40 MSTORE DUP1 SWAP3 SWAP2 SWAP1 DUP2 DUP2 MSTORE PUSH1 0x20 ADD PUSH1 0x0 SWAP1 JUMPDEST DUP3 DUP3 LT ISZERO PUSH2 0xF92 JUMPI PUSH1 0x0 DUP5 DUP2 MSTORE PUSH1 0x20 SWAP1 DUP2 SWAP1 KECCAK256 PUSH1 0x40 DUP1 MLOAD PUSH1 0xC0 DUP2 ADD DUP3 MSTORE PUSH1 0x6 DUP7 MUL SWAP1 SWAP3 ADD DUP1 SLOAD DUP4 MSTORE PUSH1 0x1 DUP1 DUP3 ADD SLOAD DUP5 DUP7 ADD MSTORE PUSH1 0x2 DUP3 ADD SLOAD SWAP3 DUP5 ADD SWAP3 SWAP1 SWAP3 MSTORE PUSH1 0x3 DUP2 ADD SLOAD PUSH1 0x1 PUSH1 0x1 PUSH1 0xA0 SHL SUB AND PUSH1 0x60 DUP5 ADD MSTORE PUSH1 0x4 DUP2 ADD SLOAD PUSH1 0x80 DUP5 ADD MSTORE PUSH1 0x5 ADD SLOAD PUSH1 0xA0 DUP4 ADD MSTORE SWAP1 DUP4 MSTORE SWAP1 SWAP3 ADD SWAP2 ADD PUSH2 0xF21 JUMP JUMPDEST POP POP POP POP SWAP1 POP SWAP1 JUMP JUMPDEST PUSH1 0x4 SLOAD PUSH1 0x1 PUSH1 0x1 PUSH1 0xA0 SHL SUB AND CALLER EQ PUSH2 0xFC5 JUMPI PUSH1 0x40 MLOAD PUSH3 0x461BCD PUSH1 0xE5 SHL DUP2 MSTORE PUSH1 0x4 ADD PUSH2 0x5ED SWAP1 PUSH2 0x5B3F JUMP JUMPDEST PUSH2 0xFE5 CALLER PUSH1 0x10 DUP1 SLOAD SWAP1 POP DUP4 PUSH1 0x40 MLOAD DUP1 PUSH1 0x20 ADD PUSH1 0x40 MSTORE DUP1 PUSH1 0x0 DUP2 MSTORE POP PUSH2 0x483F JUMP JUMPDEST PUSH1 0x40 DUP1 MLOAD PUSH2 0x100 DUP2 ADD DUP3 MSTORE CALLER PUSH1 0x0 SWAP1 DUP2 MSTORE PUSH1 0x9 PUSH1 0x20 SWAP1 DUP2 MSTORE DUP4 DUP3 KECCAK256 SLOAD DUP4 MSTORE DUP1 DUP4 ADD DUP10 DUP2 MSTORE DUP4 DUP6 ADD DUP10 SWAP1 MSTORE PUSH1 0x60 DUP5 ADD DUP9 SWAP1 MSTORE PUSH1 0x80 DUP5 ADD DUP8 SWAP1 MSTORE PUSH1 0xA0 DUP5 ADD DUP7 SWAP1 MSTORE TIMESTAMP PUSH1 0xC0 DUP6 ADD MSTORE PUSH1 0xE0 DUP5 ADD DUP4 SWAP1 MSTORE PUSH1 0x10 SLOAD DUP4 MSTORE PUSH1 0x8 SWAP1 SWAP2 MSTORE SWAP3 SWAP1 KECCAK256 DUP2 MLOAD DUP2 SSTORE SWAP2 MLOAD SWAP1 SWAP2 SWAP1 PUSH1 0x1 DUP3 ADD SWAP1 PUSH2 0x1056 SWAP1 DUP3 PUSH2 0x5C38 JUMP JUMPDEST POP PUSH1 0x40 DUP3 ADD MLOAD PUSH1 0x2 DUP3 ADD SWAP1 PUSH2 0x106B SWAP1 DUP3 PUSH2 0x5C38 JUMP JUMPDEST POP PUSH1 0x60 DUP3 ADD MLOAD PUSH1 0x3 DUP3 ADD SWAP1 PUSH2 0x1080 SWAP1 DUP3 PUSH2 0x5C38 JUMP JUMPDEST POP PUSH1 0x80 DUP3 DUP2 ADD MLOAD PUSH1 0x4 DUP4 ADD SSTORE PUSH1 0xA0 DUP1 DUP5 ADD MLOAD PUSH1 0x5 DUP5 ADD SSTORE PUSH1 0xC0 DUP1 DUP6 ADD MLOAD PUSH1 0x6 DUP6 ADD SSTORE PUSH1 0xE0 SWAP5 DUP6 ADD MLOAD PUSH1 0x7 SWAP1 SWAP5 ADD SWAP4 SWAP1 SWAP4 SSTORE CALLER PUSH1 0x0 SWAP1 DUP2 MSTORE PUSH1 0x9 PUSH1 0x20 SWAP1 DUP2 MSTORE PUSH1 0x40 DUP1 DUP4 KECCAK256 DUP2 MLOAD PUSH2 0x100 DUP2 ADD DUP4 MSTORE DUP2 SLOAD DUP1 DUP3 MSTORE DUP2 DUP6 ADD DUP16 DUP2 MSTORE SWAP4 DUP3 ADD DUP15 SWAP1 MSTORE PUSH1 0x60 DUP3 ADD DUP14 SWAP1 MSTORE SWAP7 DUP2 ADD DUP12 SWAP1 MSTORE SWAP5 DUP6 ADD DUP10 SWAP1 MSTORE TIMESTAMP SWAP7 DUP6 ADD SWAP7 SWAP1 SWAP7 MSTORE SWAP6 DUP4 ADD DUP3 SWAP1 MSTORE PUSH1 0x1 DUP1 DUP6 ADD DUP7 SSTORE SWAP5 DUP3 MSTORE SWAP1 KECCAK256 DUP2 MLOAD PUSH1 0x8 SWAP1 SWAP4 MUL ADD SWAP2 DUP3 SSTORE SWAP3 MLOAD SWAP1 SWAP2 DUP3 ADD SWAP1 PUSH2 0x1126 SWAP1 DUP3 PUSH2 0x5C38 JUMP JUMPDEST POP PUSH1 0x40 DUP3 ADD MLOAD PUSH1 0x2 DUP3 ADD SWAP1 PUSH2 0x113B SWAP1 DUP3 PUSH2 0x5C38 JUMP JUMPDEST POP PUSH1 0x60 DUP3 ADD MLOAD PUSH1 0x3 DUP3 ADD SWAP1 PUSH2 0x1150 SWAP1 DUP3 PUSH2 0x5C38 JUMP JUMPDEST POP PUSH1 0x80 DUP3 DUP2 ADD MLOAD PUSH1 0x4 DUP4 ADD SSTORE PUSH1 0xA0 DUP1 DUP5 ADD MLOAD PUSH1 0x5 DUP5 ADD SSTORE PUSH1 0xC0 DUP1 DUP6 ADD MLOAD PUSH1 0x6 DUP6 ADD SSTORE PUSH1 0xE0 SWAP5 DUP6 ADD MLOAD PUSH1 0x7 SWAP1 SWAP5 ADD SWAP4 SWAP1 SWAP4 SSTORE PUSH1 0x40 DUP1 MLOAD PUSH2 0x100 DUP2 ADD DUP3 MSTORE CALLER PUSH1 0x0 SWAP1 DUP2 MSTORE PUSH1 0x9 PUSH1 0x20 SWAP1 DUP2 MSTORE DUP4 DUP3 KECCAK256 SLOAD DUP4 MSTORE DUP3 ADD DUP13 DUP2 MSTORE SWAP3 DUP3 ADD DUP12 SWAP1 MSTORE PUSH1 0x60 DUP3 ADD DUP11 SWAP1 MSTORE SWAP4 DUP2 ADD DUP9 SWAP1 MSTORE SWAP2 DUP3 ADD DUP7 SWAP1 MSTORE TIMESTAMP SWAP4 DUP3 ADD SWAP4 SWAP1 SWAP4 MSTORE SWAP3 DUP4 ADD DUP2 SWAP1 MSTORE PUSH1 0x10 DUP1 SLOAD PUSH1 0x1 DUP2 ADD DUP3 SSTORE SWAP2 MSTORE DUP3 MLOAD PUSH1 0x8 SWAP1 SWAP2 MUL PUSH32 0x1B6847DC741A1B0CD08D278845F9D819D87B734759AFB55FE2DE5CB82A9AE672 DUP2 ADD SWAP2 DUP3 SSTORE SWAP2 MLOAD SWAP1 SWAP2 PUSH32 0x1B6847DC741A1B0CD08D278845F9D819D87B734759AFB55FE2DE5CB82A9AE673 ADD SWAP1 PUSH2 0x1235 SWAP1 DUP3 PUSH2 0x5C38 JUMP JUMPDEST POP PUSH1 0x40 DUP3 ADD MLOAD PUSH1 0x2 DUP3 ADD SWAP1 PUSH2 0x124A SWAP1 DUP3 PUSH2 0x5C38 JUMP JUMPDEST POP PUSH1 0x60 DUP3 ADD MLOAD PUSH1 0x3 DUP3 ADD SWAP1 PUSH2 0x125F SWAP1 DUP3 PUSH2 0x5C38 JUMP JUMPDEST POP PUSH1 0x80 DUP3 ADD MLOAD DUP2 PUSH1 0x4 ADD SSTORE PUSH1 0xA0 DUP3 ADD MLOAD DUP2 PUSH1 0x5 ADD SSTORE PUSH1 0xC0 DUP3 ADD MLOAD DUP2 PUSH1 0x6 ADD SSTORE PUSH1 0xE0 DUP3 ADD MLOAD DUP2 PUSH1 0x7 ADD SSTORE POP POP POP POP POP POP POP JUMP JUMPDEST PUSH1 0x12 DUP3 DUP2 SLOAD DUP2 LT PUSH2 0x12A4 JUMPI PUSH2 0x12A4 PUSH2 0x5BAD JUMP JUMPDEST SWAP1 PUSH1 0x0 MSTORE PUSH1 0x20 PUSH1 0x0 KECCAK256 SWAP1 PUSH1 0x7 MUL ADD PUSH1 0x4 ADD SLOAD DUP1 PUSH1 0x0 SUB PUSH2 0x12D6 JUMPI PUSH1 0x40 MLOAD PUSH3 0x461BCD PUSH1 0xE5 SHL DUP2 MSTORE PUSH1 0x4 ADD PUSH2 0x5ED SWAP1 PUSH2 0x5CF8 JUMP JUMPDEST PUSH1 0xA DUP3 LT ISZERO PUSH2 0x133E JUMPI PUSH1 0x40 MLOAD PUSH3 0x461BCD PUSH1 0xE5 SHL DUP2 MSTORE PUSH1 0x20 PUSH1 0x4 DUP3 ADD MSTORE PUSH1 0x2E PUSH1 0x24 DUP3 ADD MSTORE PUSH32 0xD09CD0B8D0BDD0B8D0BCD0B0D0BBD18CD0BDD0B0D18F20D181D182D0B0D0B2D0 PUSH1 0x44 DUP3 ADD MSTORE PUSH14 0xBAD0B0202D2031302050524F4649 PUSH1 0x90 SHL PUSH1 0x64 DUP3 ADD MSTORE PUSH1 0x84 ADD PUSH2 0x5ED JUMP JUMPDEST CALLER PUSH1 0x1 PUSH1 0x1 PUSH1 0xA0 SHL SUB AND PUSH1 0x12 DUP5 DUP2 SLOAD DUP2 LT PUSH2 0x135B JUMPI PUSH2 0x135B PUSH2 0x5BAD JUMP JUMPDEST PUSH1 0x0 SWAP2 DUP3 MSTORE PUSH1 0x20 SWAP1 SWAP2 KECCAK256 PUSH1 0x5 PUSH1 0x7 SWAP1 SWAP3 MUL ADD ADD SLOAD PUSH1 0x1 PUSH1 0x1 PUSH1 0xA0 SHL SUB AND SUB PUSH2 0x13BE JUMPI PUSH1 0x40 MLOAD PUSH3 0x461BCD PUSH1 0xE5 SHL DUP2 MSTORE PUSH1 0x20 PUSH1 0x4 DUP3 ADD MSTORE PUSH1 0x16 PUSH1 0x24 DUP3 ADD MSTORE PUSH22 0x1A125A31641A307A16DA16A41A177A171A169A16BA3 PUSH1 0x57 SHL PUSH1 0x44 DUP3 ADD MSTORE PUSH1 0x64 ADD PUSH2 0x5ED JUMP JUMPDEST PUSH1 0x0 JUMPDEST PUSH1 0x0 DUP5 DUP2 MSTORE PUSH1 0xB PUSH1 0x20 MSTORE PUSH1 0x40 SWAP1 KECCAK256 SLOAD DUP2 LT ISZERO PUSH2 0x1680 JUMPI PUSH1 0x0 DUP5 DUP2 MSTORE PUSH1 0xB PUSH1 0x20 MSTORE PUSH1 0x40 SWAP1 KECCAK256 DUP1 SLOAD CALLER SWAP2 SWAP1 DUP4 SWAP1 DUP2 LT PUSH2 0x13FA JUMPI PUSH2 0x13FA PUSH2 0x5BAD JUMP JUMPDEST PUSH1 0x0 SWAP2 DUP3 MSTORE PUSH1 0x20 SWAP1 SWAP2 KECCAK256 PUSH1 0x1 PUSH1 0x2 SWAP1 SWAP3 MUL ADD ADD SLOAD PUSH1 0x1 PUSH1 0x1 PUSH1 0xA0 SHL SUB AND SUB PUSH2 0x1678 JUMPI PUSH1 0x3 SLOAD PUSH2 0x1429 SWAP1 DUP5 PUSH2 0x5BD9 JUMP JUMPDEST PUSH1 0x0 DUP6 DUP2 MSTORE PUSH1 0xB PUSH1 0x20 MSTORE PUSH1 0x40 SWAP1 KECCAK256 DUP1 SLOAD DUP4 SWAP1 DUP2 LT PUSH2 0x1449 JUMPI PUSH2 0x1449 PUSH2 0x5BAD JUMP JUMPDEST SWAP1 PUSH1 0x0 MSTORE PUSH1 0x20 PUSH1 0x0 KECCAK256 SWAP1 PUSH1 0x2 MUL ADD PUSH1 0x0 ADD PUSH1 0x0 DUP3 DUP3 SLOAD PUSH2 0x1469 SWAP2 SWAP1 PUSH2 0x5D2F JUMP JUMPDEST SWAP1 SWAP2 SSTORE POP POP PUSH1 0x5 SLOAD PUSH1 0x4 DUP1 SLOAD PUSH1 0x40 MLOAD PUSH4 0x7AA9BF6F PUSH1 0xE1 SHL DUP2 MSTORE CALLER SWAP3 DUP2 ADD SWAP3 SWAP1 SWAP3 MSTORE PUSH1 0x1 PUSH1 0x1 PUSH1 0xA0 SHL SUB SWAP1 DUP2 AND PUSH1 0x24 DUP4 ADD MSTORE PUSH1 0x44 DUP3 ADD DUP7 SWAP1 MSTORE SWAP1 SWAP2 AND SWAP1 PUSH4 0xF5537EDE SWAP1 PUSH1 0x64 ADD PUSH1 0x0 PUSH1 0x40 MLOAD DUP1 DUP4 SUB DUP2 PUSH1 0x0 DUP8 DUP1 EXTCODESIZE ISZERO DUP1 ISZERO PUSH2 0x14C8 JUMPI PUSH1 0x0 DUP1 REVERT JUMPDEST POP GAS CALL ISZERO DUP1 ISZERO PUSH2 0x14DC JUMPI RETURNDATASIZE PUSH1 0x0 DUP1 RETURNDATACOPY RETURNDATASIZE PUSH1 0x0 REVERT JUMPDEST POP POP POP POP PUSH1 0x12 DUP5 DUP2 SLOAD DUP2 LT PUSH2 0x14F3 JUMPI PUSH2 0x14F3 PUSH2 0x5BAD JUMP JUMPDEST SWAP1 PUSH1 0x0 MSTORE PUSH1 0x20 PUSH1 0x0 KECCAK256 SWAP1 PUSH1 0x7 MUL ADD PUSH1 0x6 ADD SLOAD PUSH1 0xB PUSH1 0x0 DUP7 DUP2 MSTORE PUSH1 0x20 ADD SWAP1 DUP2 MSTORE PUSH1 0x20 ADD PUSH1 0x0 KECCAK256 DUP3 DUP2 SLOAD DUP2 LT PUSH2 0x1529 JUMPI PUSH2 0x1529 PUSH2 0x5BAD JUMP JUMPDEST SWAP1 PUSH1 0x0 MSTORE PUSH1 0x20 PUSH1 0x0 KECCAK256 SWAP1 PUSH1 0x2 MUL ADD PUSH1 0x0 ADD SLOAD GT ISZERO PUSH2 0x15E5 JUMPI PUSH1 0x0 DUP5 DUP2 MSTORE PUSH1 0xB PUSH1 0x20 MSTORE PUSH1 0x40 SWAP1 KECCAK256 DUP1 SLOAD DUP3 SWAP1 DUP2 LT PUSH2 0x1561 JUMPI PUSH2 0x1561 PUSH2 0x5BAD JUMP JUMPDEST SWAP1 PUSH1 0x0 MSTORE PUSH1 0x20 PUSH1 0x0 KECCAK256 SWAP1 PUSH1 0x2 MUL ADD PUSH1 0x0 ADD SLOAD PUSH1 0x12 DUP6 DUP2 SLOAD DUP2 LT PUSH2 0x1586 JUMPI PUSH2 0x1586 PUSH2 0x5BAD JUMP JUMPDEST SWAP1 PUSH1 0x0 MSTORE PUSH1 0x20 PUSH1 0x0 KECCAK256 SWAP1 PUSH1 0x7 MUL ADD PUSH1 0x6 ADD DUP2 SWAP1 SSTORE POP CALLER PUSH1 0x12 DUP6 DUP2 SLOAD DUP2 LT PUSH2 0x15AF JUMPI PUSH2 0x15AF PUSH2 0x5BAD JUMP JUMPDEST SWAP1 PUSH1 0x0 MSTORE PUSH1 0x20 PUSH1 0x0 KECCAK256 SWAP1 PUSH1 0x7 MUL ADD PUSH1 0x5 ADD PUSH1 0x0 PUSH2 0x100 EXP DUP2 SLOAD DUP2 PUSH1 0x1 PUSH1 0x1 PUSH1 0xA0 SHL SUB MUL NOT AND SWAP1 DUP4 PUSH1 0x1 PUSH1 0x1 PUSH1 0xA0 SHL SUB AND MUL OR SWAP1 SSTORE POP JUMPDEST PUSH1 0x12 DUP5 DUP2 SLOAD DUP2 LT PUSH2 0x15F8 JUMPI PUSH2 0x15F8 PUSH2 0x5BAD JUMP JUMPDEST SWAP1 PUSH1 0x0 MSTORE PUSH1 0x20 PUSH1 0x0 KECCAK256 SWAP1 PUSH1 0x7 MUL ADD PUSH1 0x4 ADD SLOAD PUSH1 0xB PUSH1 0x0 DUP7 DUP2 MSTORE PUSH1 0x20 ADD SWAP1 DUP2 MSTORE PUSH1 0x20 ADD PUSH1 0x0 KECCAK256 DUP3 DUP2 SLOAD DUP2 LT PUSH2 0x162E JUMPI PUSH2 0x162E PUSH2 0x5BAD JUMP JUMPDEST SWAP1 PUSH1 0x0 MSTORE PUSH1 0x20 PUSH1 0x0 KECCAK256 SWAP1 PUSH1 0x2 MUL ADD PUSH1 0x0 ADD SLOAD LT PUSH2 0x1678 JUMPI PUSH1 0x0 PUSH1 0x12 DUP6 DUP2 SLOAD DUP2 LT PUSH2 0x165A JUMPI PUSH2 0x165A PUSH2 0x5BAD JUMP JUMPDEST SWAP1 PUSH1 0x0 MSTORE PUSH1 0x20 PUSH1 0x0 KECCAK256 SWAP1 PUSH1 0x7 MUL ADD PUSH1 0x4 ADD DUP2 SWAP1 SSTORE POP PUSH2 0x1678 DUP5 PUSH2 0x3E2E JUMP JUMPDEST PUSH1 0x1 ADD PUSH2 0x13C1 JUMP JUMPDEST POP POP POP POP JUMP JUMPDEST CALLER PUSH1 0x1 PUSH1 0x1 PUSH1 0xA0 SHL SUB DUP7 AND DUP2 EQ DUP1 ISZERO SWAP1 PUSH2 0x16A7 JUMPI POP PUSH2 0x16A5 DUP7 DUP3 PUSH2 0x328D JUMP JUMPDEST ISZERO JUMPDEST ISZERO PUSH2 0x16D8 JUMPI PUSH1 0x40 MLOAD PUSH4 0x711BEC91 PUSH1 0xE1 SHL DUP2 MSTORE PUSH1 0x1 PUSH1 0x1 PUSH1 0xA0 SHL SUB DUP1 DUP4 AND PUSH1 0x4 DUP4 ADD MSTORE DUP8 AND PUSH1 0x24 DUP3 ADD MSTORE PUSH1 0x44 ADD PUSH2 0x5ED JUMP JUMPDEST PUSH2 0x16E5 DUP7 DUP7 DUP7 DUP7 DUP7 PUSH2 0x47DF JUMP JUMPDEST POP POP POP POP POP POP JUMP JUMPDEST CALLER PUSH1 0x0 SWAP1 DUP2 MSTORE PUSH1 0xC PUSH1 0x20 MSTORE PUSH1 0x40 SWAP1 KECCAK256 DUP1 SLOAD PUSH1 0x60 SWAP2 SWAP1 PUSH2 0x170B SWAP1 PUSH2 0x5A8F JUMP JUMPDEST DUP1 PUSH1 0x1F ADD PUSH1 0x20 DUP1 SWAP2 DIV MUL PUSH1 0x20 ADD PUSH1 0x40 MLOAD SWAP1 DUP2 ADD PUSH1 0x40 MSTORE DUP1 SWAP3 SWAP2 SWAP1 DUP2 DUP2 MSTORE PUSH1 0x20 ADD DUP3 DUP1 SLOAD PUSH2 0x1737 SWAP1 PUSH2 0x5A8F JUMP JUMPDEST DUP1 ISZERO PUSH2 0x1784 JUMPI DUP1 PUSH1 0x1F LT PUSH2 0x1759 JUMPI PUSH2 0x100 DUP1 DUP4 SLOAD DIV MUL DUP4 MSTORE SWAP2 PUSH1 0x20 ADD SWAP2 PUSH2 0x1784 JUMP JUMPDEST DUP3 ADD SWAP2 SWAP1 PUSH1 0x0 MSTORE PUSH1 0x20 PUSH1 0x0 KECCAK256 SWAP1 JUMPDEST DUP2 SLOAD DUP2 MSTORE SWAP1 PUSH1 0x1 ADD SWAP1 PUSH1 0x20 ADD DUP1 DUP4 GT PUSH2 0x1767 JUMPI DUP3 SWAP1 SUB PUSH1 0x1F AND DUP3 ADD SWAP2 JUMPDEST POP POP POP POP POP SWAP1 POP SWAP1 JUMP JUMPDEST CALLER PUSH1 0x6 PUSH2 0x179E DUP2 PUSH1 0x2 DUP6 DUP8 PUSH2 0x5D42 JUMP JUMPDEST PUSH1 0x40 MLOAD PUSH1 0x20 ADD PUSH2 0x17AF SWAP3 SWAP2 SWAP1 PUSH2 0x5D6C JUMP JUMPDEST PUSH1 0x40 DUP1 MLOAD PUSH1 0x1F NOT DUP2 DUP5 SUB ADD DUP2 MSTORE SWAP1 DUP3 SWAP1 MSTORE PUSH2 0x17C9 SWAP2 PUSH2 0x5D99 JUMP JUMPDEST SWAP1 DUP2 MSTORE PUSH1 0x40 MLOAD SWAP1 DUP2 SWAP1 SUB PUSH1 0x20 ADD SWAP1 KECCAK256 PUSH1 0x1 ADD SLOAD PUSH1 0x1 PUSH1 0x1 PUSH1 0xA0 SHL SUB AND SUB PUSH2 0x1844 JUMPI PUSH1 0x40 MLOAD PUSH3 0x461BCD PUSH1 0xE5 SHL DUP2 MSTORE PUSH1 0x20 PUSH1 0x4 DUP3 ADD MSTORE PUSH1 0x29 PUSH1 0x24 DUP3 ADD MSTORE PUSH32 0xD092D18B20D183D0B6D0B520D181D0BED0B7D0B4D0B0D0BBD0B820D180D0B5D1 PUSH1 0x44 DUP3 ADD MSTORE PUSH9 0x84D0B5D180D0B0D0BB PUSH1 0xB8 SHL PUSH1 0x64 DUP3 ADD MSTORE PUSH1 0x84 ADD PUSH2 0x5ED JUMP JUMPDEST PUSH1 0x60 PUSH1 0x0 PUSH2 0x1856 PUSH1 0x6 PUSH1 0x2 DUP6 DUP8 PUSH2 0x5D42 JUMP JUMPDEST PUSH1 0x40 MLOAD PUSH1 0x20 ADD PUSH2 0x1867 SWAP3 SWAP2 SWAP1 PUSH2 0x5D6C JUMP JUMPDEST PUSH1 0x40 DUP1 MLOAD PUSH1 0x1F NOT DUP2 DUP5 SUB ADD DUP2 MSTORE PUSH1 0x80 DUP4 ADD DUP3 MSTORE DUP1 DUP4 MSTORE CALLER PUSH1 0x20 DUP5 ADD MSTORE PUSH1 0x0 DUP4 DUP4 ADD MSTORE PUSH1 0x60 DUP4 ADD DUP6 SWAP1 MSTORE SWAP1 MLOAD SWAP1 SWAP3 POP PUSH1 0x6 SWAP1 PUSH2 0x18A3 SWAP1 DUP5 SWAP1 PUSH2 0x5D99 JUMP JUMPDEST SWAP1 DUP2 MSTORE PUSH1 0x40 MLOAD SWAP1 DUP2 SWAP1 SUB PUSH1 0x20 ADD SWAP1 KECCAK256 DUP2 MLOAD DUP2 SWAP1 PUSH2 0x18C0 SWAP1 DUP3 PUSH2 0x5C38 JUMP JUMPDEST POP PUSH1 0x20 DUP3 DUP2 ADD MLOAD PUSH1 0x1 DUP4 ADD DUP1 SLOAD PUSH1 0x1 PUSH1 0x1 PUSH1 0xA0 SHL SUB NOT AND PUSH1 0x1 PUSH1 0x1 PUSH1 0xA0 SHL SUB SWAP1 SWAP3 AND SWAP2 SWAP1 SWAP2 OR SWAP1 SSTORE PUSH1 0x40 DUP4 ADD MLOAD PUSH1 0x2 DUP4 ADD SSTORE PUSH1 0x60 DUP4 ADD MLOAD DUP1 MLOAD PUSH2 0x1909 SWAP3 PUSH1 0x3 DUP6 ADD SWAP3 ADD SWAP1 PUSH2 0x4E6E JUMP JUMPDEST POP POP PUSH1 0x40 DUP1 MLOAD PUSH1 0x80 DUP2 ADD DUP3 MSTORE DUP4 DUP2 MSTORE CALLER PUSH1 0x20 DUP3 ADD MSTORE PUSH1 0x0 SWAP2 DUP2 ADD DUP3 SWAP1 MSTORE PUSH1 0x60 DUP2 ADD DUP6 SWAP1 MSTORE PUSH1 0xF DUP1 SLOAD PUSH1 0x1 DUP2 ADD DUP3 SSTORE SWAP3 MSTORE DUP1 MLOAD SWAP1 SWAP3 POP PUSH1 0x4 SWAP1 SWAP2 MUL PUSH32 0x8D1108E10BCB7C27DDDFC02ED9D693A074039D026CF4EA4240B40F7D581AC802 ADD SWAP1 DUP2 SWAP1 PUSH2 0x1972 SWAP1 DUP3 PUSH2 0x5C38 JUMP JUMPDEST POP PUSH1 0x20 DUP3 DUP2 ADD MLOAD PUSH1 0x1 DUP4 ADD DUP1 SLOAD PUSH1 0x1 PUSH1 0x1 PUSH1 0xA0 SHL SUB NOT AND PUSH1 0x1 PUSH1 0x1 PUSH1 0xA0 SHL SUB SWAP1 SWAP3 AND SWAP2 SWAP1 SWAP2 OR SWAP1 SSTORE PUSH1 0x40 DUP4 ADD MLOAD PUSH1 0x2 DUP4 ADD SSTORE PUSH1 0x60 DUP4 ADD MLOAD DUP1 MLOAD PUSH2 0x19BB SWAP3 PUSH1 0x3 DUP6 ADD SWAP3 ADD SWAP1 PUSH2 0x4E6E JUMP JUMPDEST POP POP CALLER PUSH1 0x0 SWAP1 DUP2 MSTORE PUSH1 0xC PUSH1 0x20 MSTORE PUSH1 0x40 SWAP1 KECCAK256 SWAP1 POP PUSH2 0x19D8 DUP3 DUP3 PUSH2 0x5C38 JUMP JUMPDEST POP POP POP POP POP JUMP JUMPDEST PUSH1 0x60 DUP2 MLOAD DUP4 MLOAD EQ PUSH2 0x1A10 JUMPI DUP2 MLOAD DUP4 MLOAD PUSH1 0x40 MLOAD PUSH4 0x5B059991 PUSH1 0xE0 SHL DUP2 MSTORE PUSH1 0x4 DUP2 ADD SWAP3 SWAP1 SWAP3 MSTORE PUSH1 0x24 DUP3 ADD MSTORE PUSH1 0x44 ADD PUSH2 0x5ED JUMP JUMPDEST PUSH1 0x0 DUP4 MLOAD PUSH8 0xFFFFFFFFFFFFFFFF DUP2 GT ISZERO PUSH2 0x1A2C JUMPI PUSH2 0x1A2C PUSH2 0x5137 JUMP JUMPDEST PUSH1 0x40 MLOAD SWAP1 DUP1 DUP3 MSTORE DUP1 PUSH1 0x20 MUL PUSH1 0x20 ADD DUP3 ADD PUSH1 0x40 MSTORE DUP1 ISZERO PUSH2 0x1A55 JUMPI DUP2 PUSH1 0x20 ADD PUSH1 0x20 DUP3 MUL DUP1 CALLDATASIZE DUP4 CALLDATACOPY ADD SWAP1 POP JUMPDEST POP SWAP1 POP PUSH1 0x0 JUMPDEST DUP5 MLOAD DUP2 LT ISZERO PUSH2 0x1AA4 JUMPI PUSH1 0x20 DUP1 DUP3 MUL DUP7 ADD ADD MLOAD PUSH2 0x1A7F SWAP1 PUSH1 0x20 DUP1 DUP5 MUL DUP8 ADD ADD MLOAD PUSH2 0x454 JUMP JUMPDEST DUP3 DUP3 DUP2 MLOAD DUP2 LT PUSH2 0x1A91 JUMPI PUSH2 0x1A91 PUSH2 0x5BAD JUMP JUMPDEST PUSH1 0x20 SWAP1 DUP2 MUL SWAP2 SWAP1 SWAP2 ADD ADD MSTORE PUSH1 0x1 ADD PUSH2 0x1A5B JUMP JUMPDEST POP SWAP4 SWAP3 POP POP POP JUMP JUMPDEST PUSH1 0x12 DUP3 DUP2 SLOAD DUP2 LT PUSH2 0x1ABF JUMPI PUSH2 0x1ABF PUSH2 0x5BAD JUMP JUMPDEST SWAP1 PUSH1 0x0 MSTORE PUSH1 0x20 PUSH1 0x0 KECCAK256 SWAP1 PUSH1 0x7 MUL ADD PUSH1 0x4 ADD SLOAD DUP1 PUSH1 0x0 SUB PUSH2 0x1AF1 JUMPI PUSH1 0x40 MLOAD PUSH3 0x461BCD PUSH1 0xE5 SHL DUP2 MSTORE PUSH1 0x4 ADD PUSH2 0x5ED SWAP1 PUSH2 0x5CF8 JUMP JUMPDEST DUP2 PUSH1 0x12 DUP5 DUP2 SLOAD DUP2 LT PUSH2 0x1B05 JUMPI PUSH2 0x1B05 PUSH2 0x5BAD JUMP JUMPDEST SWAP1 PUSH1 0x0 MSTORE PUSH1 0x20 PUSH1 0x0 KECCAK256 SWAP1 PUSH1 0x7 MUL ADD PUSH1 0x6 ADD SLOAD LT PUSH2 0x1B7C JUMPI PUSH1 0x40 MLOAD PUSH3 0x461BCD PUSH1 0xE5 SHL DUP2 MSTORE PUSH1 0x20 PUSH1 0x4 DUP3 ADD MSTORE PUSH1 0x2F PUSH1 0x24 DUP3 ADD MSTORE PUSH32 0xD0A2D0B5D0BAD183D189D0B0D18F20D181D182D0B0D0B2D0BAD0B020D0B2D18B PUSH1 0x44 DUP3 ADD MSTORE PUSH15 0xD188D0B520D0B2D0B0D188D0B5D0B9 PUSH1 0x88 SHL PUSH1 0x64 DUP3 ADD MSTORE PUSH1 0x84 ADD PUSH2 0x5ED JUMP JUMPDEST PUSH1 0x5 SLOAD PUSH1 0x4 DUP1 SLOAD PUSH1 0x40 MLOAD PUSH4 0x7AA9BF6F PUSH1 0xE1 SHL DUP2 MSTORE CALLER SWAP3 DUP2 ADD SWAP3 SWAP1 SWAP3 MSTORE PUSH1 0x1 PUSH1 0x1 PUSH1 0xA0 SHL SUB SWAP1 DUP2 AND PUSH1 0x24 DUP4 ADD MSTORE PUSH1 0x44 DUP3 ADD DUP6 SWAP1 MSTORE SWAP1 SWAP2 AND SWAP1 PUSH4 0xF5537EDE SWAP1 PUSH1 0x64 ADD PUSH1 0x0 PUSH1 0x40 MLOAD DUP1 DUP4 SUB DUP2 PUSH1 0x0 DUP8 DUP1 EXTCODESIZE ISZERO DUP1 ISZERO PUSH2 0x1BD6 JUMPI PUSH1 0x0 DUP1 REVERT JUMPDEST POP GAS CALL ISZERO DUP1 ISZERO PUSH2 0x1BEA JUMPI RETURNDATASIZE PUSH1 0x0 DUP1 RETURNDATACOPY RETURNDATASIZE PUSH1 0x0 REVERT JUMPDEST POP POP POP POP DUP2 PUSH1 0x12 DUP5 DUP2 SLOAD DUP2 LT PUSH2 0x1C02 JUMPI PUSH2 0x1C02 PUSH2 0x5BAD JUMP JUMPDEST SWAP1 PUSH1 0x0 MSTORE PUSH1 0x20 PUSH1 0x0 KECCAK256 SWAP1 PUSH1 0x7 MUL ADD PUSH1 0x6 ADD DUP2 SWAP1 SSTORE POP CALLER PUSH1 0x12 DUP5 DUP2 SLOAD DUP2 LT PUSH2 0x1C2B JUMPI PUSH2 0x1C2B PUSH2 0x5BAD JUMP JUMPDEST PUSH1 0x0 SWAP2 DUP3 MSTORE PUSH1 0x20 DUP1 DUP4 KECCAK256 PUSH1 0x5 PUSH1 0x7 SWAP1 SWAP4 MUL ADD SWAP2 SWAP1 SWAP2 ADD DUP1 SLOAD PUSH1 0x1 PUSH1 0x1 PUSH1 0xA0 SHL SUB SWAP5 DUP6 AND PUSH1 0x1 PUSH1 0x1 PUSH1 0xA0 SHL SUB NOT SWAP2 DUP3 AND OR SWAP1 SWAP2 SSTORE DUP7 DUP4 MSTORE PUSH1 0xB DUP3 MSTORE PUSH1 0x40 DUP1 DUP5 KECCAK256 DUP2 MLOAD DUP1 DUP4 ADD SWAP1 SWAP3 MSTORE DUP8 DUP3 MSTORE CALLER DUP3 DUP6 ADD SWAP1 DUP2 MSTORE DUP2 SLOAD PUSH1 0x1 DUP2 DUP2 ADD DUP5 SSTORE SWAP3 DUP8 MSTORE SWAP5 SWAP1 SWAP6 KECCAK256 SWAP2 MLOAD PUSH1 0x2 SWAP1 SWAP5 MUL SWAP1 SWAP2 ADD SWAP3 DUP4 SSTORE SWAP3 MLOAD SWAP2 SWAP1 SWAP3 ADD DUP1 SLOAD SWAP2 SWAP1 SWAP4 AND SWAP2 AND OR SWAP1 SSTORE PUSH1 0x12 DUP1 SLOAD DUP5 SWAP1 DUP2 LT PUSH2 0x1CBE JUMPI PUSH2 0x1CBE PUSH2 0x5BAD JUMP JUMPDEST SWAP1 PUSH1 0x0 MSTORE PUSH1 0x20 PUSH1 0x0 KECCAK256 SWAP1 PUSH1 0x7 MUL ADD PUSH1 0x4 ADD SLOAD PUSH1 0x3 SLOAD DUP4 PUSH2 0x1CDE SWAP2 SWAP1 PUSH2 0x5BD9 JUMP JUMPDEST LT PUSH2 0x1D16 JUMPI PUSH1 0x0 PUSH1 0x12 DUP5 DUP2 SLOAD DUP2 LT PUSH2 0x1CF8 JUMPI PUSH2 0x1CF8 PUSH2 0x5BAD JUMP JUMPDEST SWAP1 PUSH1 0x0 MSTORE PUSH1 0x20 PUSH1 0x0 KECCAK256 SWAP1 PUSH1 0x7 MUL ADD PUSH1 0x4 ADD DUP2 SWAP1 SSTORE POP PUSH2 0x1D16 DUP4 PUSH2 0x3E2E JUMP JUMPDEST POP POP POP JUMP JUMPDEST PUSH2 0x1D37 CALLER DUP4 DUP7 DUP5 PUSH1 0x40 MLOAD DUP1 PUSH1 0x20 ADD PUSH1 0x40 MSTORE DUP1 PUSH1 0x0 DUP2 MSTORE POP PUSH2 0x489C JUMP JUMPDEST CALLER PUSH1 0x0 SWAP1 DUP2 MSTORE PUSH1 0x9 PUSH1 0x20 MSTORE PUSH1 0x40 SWAP1 KECCAK256 DUP1 SLOAD DUP3 SWAP2 SWAP1 DUP6 SWAP1 DUP2 LT PUSH2 0x1D5B JUMPI PUSH2 0x1D5B PUSH2 0x5BAD JUMP JUMPDEST SWAP1 PUSH1 0x0 MSTORE PUSH1 0x20 PUSH1 0x0 KECCAK256 SWAP1 PUSH1 0x8 MUL ADD PUSH1 0x5 ADD PUSH1 0x0 DUP3 DUP3 SLOAD PUSH2 0x1D7B SWAP2 SWAP1 PUSH2 0x5DB5 JUMP JUMPDEST SWAP1 SWAP2 SSTORE POP POP PUSH1 0x1 PUSH1 0x1 PUSH1 0xA0 SHL SUB DUP3 AND PUSH1 0x0 SWAP1 DUP2 MSTORE PUSH1 0x9 PUSH1 0x20 SWAP1 DUP2 MSTORE PUSH1 0x40 DUP1 DUP4 KECCAK256 DUP2 MLOAD PUSH2 0x100 DUP2 ADD DUP4 MSTORE DUP2 SLOAD DUP2 MSTORE DUP9 DUP6 MSTORE PUSH1 0x8 DUP5 MSTORE SWAP2 SWAP1 SWAP4 KECCAK256 PUSH1 0x1 ADD DUP1 SLOAD SWAP2 SWAP3 DUP4 ADD SWAP2 PUSH2 0x1DC6 SWAP1 PUSH2 0x5A8F JUMP JUMPDEST DUP1 PUSH1 0x1F ADD PUSH1 0x20 DUP1 SWAP2 DIV MUL PUSH1 0x20 ADD PUSH1 0x40 MLOAD SWAP1 DUP2 ADD PUSH1 0x40 MSTORE DUP1 SWAP3 SWAP2 SWAP1 DUP2 DUP2 MSTORE PUSH1 0x20 ADD DUP3 DUP1 SLOAD PUSH2 0x1DF2 SWAP1 PUSH2 0x5A8F JUMP JUMPDEST DUP1 ISZERO PUSH2 0x1E3F JUMPI DUP1 PUSH1 0x1F LT PUSH2 0x1E14 JUMPI PUSH2 0x100 DUP1 DUP4 SLOAD DIV MUL DUP4 MSTORE SWAP2 PUSH1 0x20 ADD SWAP2 PUSH2 0x1E3F JUMP JUMPDEST DUP3 ADD SWAP2 SWAP1 PUSH1 0x0 MSTORE PUSH1 0x20 PUSH1 0x0 KECCAK256 SWAP1 JUMPDEST DUP2 SLOAD DUP2 MSTORE SWAP1 PUSH1 0x1 ADD SWAP1 PUSH1 0x20 ADD DUP1 DUP4 GT PUSH2 0x1E22 JUMPI DUP3 SWAP1 SUB PUSH1 0x1F AND DUP3 ADD SWAP2 JUMPDEST POP POP POP POP POP DUP2 MSTORE PUSH1 0x20 ADD PUSH1 0x8 PUSH1 0x0 DUP9 DUP2 MSTORE PUSH1 0x20 ADD SWAP1 DUP2 MSTORE PUSH1 0x20 ADD PUSH1 0x0 KECCAK256 PUSH1 0x2 ADD DUP1 SLOAD PUSH2 0x1E6A SWAP1 PUSH2 0x5A8F JUMP JUMPDEST DUP1 PUSH1 0x1F ADD PUSH1 0x20 DUP1 SWAP2 DIV MUL PUSH1 0x20 ADD PUSH1 0x40 MLOAD SWAP1 DUP2 ADD PUSH1 0x40 MSTORE DUP1 SWAP3 SWAP2 SWAP1 DUP2 DUP2 MSTORE PUSH1 0x20 ADD DUP3 DUP1 SLOAD PUSH2 0x1E96 SWAP1 PUSH2 0x5A8F JUMP JUMPDEST DUP1 ISZERO PUSH2 0x1EE3 JUMPI DUP1 PUSH1 0x1F LT PUSH2 0x1EB8 JUMPI PUSH2 0x100 DUP1 DUP4 SLOAD DIV MUL DUP4 MSTORE SWAP2 PUSH1 0x20 ADD SWAP2 PUSH2 0x1EE3 JUMP JUMPDEST DUP3 ADD SWAP2 SWAP1 PUSH1 0x0 MSTORE PUSH1 0x20 PUSH1 0x0 KECCAK256 SWAP1 JUMPDEST DUP2 SLOAD DUP2 MSTORE SWAP1 PUSH1 0x1 ADD SWAP1 PUSH1 0x20 ADD DUP1 DUP4 GT PUSH2 0x1EC6 JUMPI DUP3 SWAP1 SUB PUSH1 0x1F AND DUP3 ADD SWAP2 JUMPDEST POP POP POP POP POP DUP2 MSTORE PUSH1 0x20 ADD PUSH1 0x8 PUSH1 0x0 DUP9 DUP2 MSTORE PUSH1 0x20 ADD SWAP1 DUP2 MSTORE PUSH1 0x20 ADD PUSH1 0x0 KECCAK256 PUSH1 0x3 ADD DUP1 SLOAD PUSH2 0x1F0E SWAP1 PUSH2 0x5A8F JUMP JUMPDEST DUP1 PUSH1 0x1F ADD PUSH1 0x20 DUP1 SWAP2 DIV MUL PUSH1 0x20 ADD PUSH1 0x40 MLOAD SWAP1 DUP2 ADD PUSH1 0x40 MSTORE DUP1 SWAP3 SWAP2 SWAP1 DUP2 DUP2 MSTORE PUSH1 0x20 ADD DUP3 DUP1 SLOAD PUSH2 0x1F3A SWAP1 PUSH2 0x5A8F JUMP JUMPDEST DUP1 ISZERO PUSH2 0x1F87 JUMPI DUP1 PUSH1 0x1F LT PUSH2 0x1F5C JUMPI PUSH2 0x100 DUP1 DUP4 SLOAD DIV MUL DUP4 MSTORE SWAP2 PUSH1 0x20 ADD SWAP2 PUSH2 0x1F87 JUMP JUMPDEST DUP3 ADD SWAP2 SWAP1 PUSH1 0x0 MSTORE PUSH1 0x20 PUSH1 0x0 KECCAK256 SWAP1 JUMPDEST DUP2 SLOAD DUP2 MSTORE SWAP1 PUSH1 0x1 ADD SWAP1 PUSH1 0x20 ADD DUP1 DUP4 GT PUSH2 0x1F6A JUMPI DUP3 SWAP1 SUB PUSH1 0x1F AND DUP3 ADD SWAP2 JUMPDEST POP POP POP POP POP DUP2 MSTORE PUSH1 0x20 ADD DUP4 DUP2 MSTORE PUSH1 0x20 ADD PUSH1 0x9 PUSH1 0x0 CALLER PUSH1 0x1 PUSH1 0x1 PUSH1 0xA0 SHL SUB AND PUSH1 0x1 PUSH1 0x1 PUSH1 0xA0 SHL SUB AND DUP2 MSTORE PUSH1 0x20 ADD SWAP1 DUP2 MSTORE PUSH1 0x20 ADD PUSH1 0x0 KECCAK256 DUP7 DUP2 SLOAD DUP2 LT PUSH2 0x1FCD JUMPI PUSH2 0x1FCD PUSH2 0x5BAD JUMP JUMPDEST PUSH1 0x0 SWAP2 DUP3 MSTORE PUSH1 0x20 DUP1 DUP4 KECCAK256 PUSH1 0x8 SWAP3 DUP4 MUL ADD PUSH1 0x4 ADD SLOAD DUP5 MSTORE DUP10 DUP4 MSTORE DUP2 DUP2 MSTORE PUSH1 0x40 DUP1 DUP5 KECCAK256 PUSH1 0x6 DUP2 ADD SLOAD DUP7 DUP5 ADD MSTORE DUP4 DUP4 MSTORE PUSH1 0x7 ADD SLOAD SWAP5 ADD SWAP4 SWAP1 SWAP4 MSTORE DUP5 SLOAD PUSH1 0x1 DUP1 DUP3 ADD DUP8 SSTORE SWAP6 DUP4 MSTORE SWAP2 DUP4 SWAP1 KECCAK256 DUP5 MLOAD SWAP3 SWAP1 SWAP2 MUL ADD SWAP1 DUP2 SSTORE SWAP1 DUP3 ADD MLOAD SWAP2 SWAP3 SWAP1 SWAP2 SWAP1 DUP3 ADD SWAP1 PUSH2 0x2034 SWAP1 DUP3 PUSH2 0x5C38 JUMP JUMPDEST POP PUSH1 0x40 DUP3 ADD MLOAD PUSH1 0x2 DUP3 ADD SWAP1 PUSH2 0x2049 SWAP1 DUP3 PUSH2 0x5C38 JUMP JUMPDEST POP PUSH1 0x60 DUP3 ADD MLOAD PUSH1 0x3 DUP3 ADD SWAP1 PUSH2 0x205E SWAP1 DUP3 PUSH2 0x5C38 JUMP JUMPDEST POP PUSH1 0x80 DUP3 ADD MLOAD PUSH1 0x4 DUP3 ADD SSTORE PUSH1 0xA0 DUP3 ADD MLOAD PUSH1 0x5 DUP3 ADD SSTORE PUSH1 0xC0 DUP3 ADD MLOAD PUSH1 0x6 DUP3 ADD SSTORE PUSH1 0xE0 SWAP1 SWAP2 ADD MLOAD PUSH1 0x7 SWAP1 SWAP2 ADD SSTORE CALLER PUSH1 0x0 SWAP1 DUP2 MSTORE PUSH1 0x9 PUSH1 0x20 MSTORE PUSH1 0x40 SWAP1 KECCAK256 DUP1 SLOAD DUP5 SWAP1 DUP2 LT PUSH2 0x20AA JUMPI PUSH2 0x20AA PUSH2 0x5BAD JUMP JUMPDEST SWAP1 PUSH1 0x0 MSTORE PUSH1 0x20 PUSH1 0x0 KECCAK256 SWAP1 PUSH1 0x8 MUL ADD PUSH1 0x5 ADD SLOAD PUSH1 0x0 SUB PUSH2 0x1680 JUMPI CALLER PUSH1 0x0 SWAP1 DUP2 MSTORE PUSH1 0x9 PUSH1 0x20 MSTORE PUSH1 0x40 SWAP1 KECCAK256 DUP1 SLOAD DUP5 SWAP1 DUP2 LT PUSH2 0x20E4 JUMPI PUSH2 0x20E4 PUSH2 0x5BAD JUMP JUMPDEST PUSH1 0x0 SWAP2 DUP3 MSTORE PUSH1 0x20 DUP3 KECCAK256 PUSH1 0x8 SWAP1 SWAP2 MUL ADD DUP2 DUP2 SSTORE SWAP1 PUSH2 0x2104 PUSH1 0x1 DUP4 ADD DUP3 PUSH2 0x4E34 JUMP JUMPDEST PUSH2 0x2112 PUSH1 0x2 DUP4 ADD PUSH1 0x0 PUSH2 0x4E34 JUMP JUMPDEST PUSH2 0x2120 PUSH1 0x3 DUP4 ADD PUSH1 0x0 PUSH2 0x4E34 JUMP JUMPDEST POP PUSH1 0x0 PUSH1 0x4 DUP3 ADD DUP2 SWAP1 SSTORE PUSH1 0x5 DUP3 ADD DUP2 SWAP1 SSTORE PUSH1 0x6 DUP3 ADD DUP2 SWAP1 SSTORE PUSH1 0x7 SWAP1 SWAP2 ADD SSTORE POP POP POP POP JUMP JUMPDEST CALLER PUSH1 0x1 PUSH1 0x1 PUSH1 0xA0 SHL SUB AND PUSH1 0xE DUP4 DUP2 SLOAD DUP2 LT PUSH2 0x2161 JUMPI PUSH2 0x2161 PUSH2 0x5BAD JUMP JUMPDEST PUSH1 0x0 SWAP2 DUP3 MSTORE PUSH1 0x20 SWAP1 SWAP2 KECCAK256 PUSH1 0x3 PUSH1 0x6 SWAP1 SWAP3 MUL ADD ADD SLOAD PUSH1 0x1 PUSH1 0x1 PUSH1 0xA0 SHL SUB AND EQ PUSH2 0x21CB JUMPI PUSH1 0x40 MLOAD PUSH3 0x461BCD PUSH1 0xE5 SHL DUP2 MSTORE PUSH1 0x20 PUSH1 0x4 DUP3 ADD MSTORE PUSH1 0x19 PUSH1 0x24 DUP3 ADD MSTORE PUSH32 0xD0ADD182D0BE20D0BDD0B520D0B2D0B0D18820D0BBD0BED18200000000000000 PUSH1 0x44 DUP3 ADD MSTORE PUSH1 0x64 ADD PUSH2 0x5ED JUMP JUMPDEST PUSH1 0x3 SLOAD PUSH2 0x21D8 SWAP1 DUP3 PUSH2 0x5BD9 JUMP JUMPDEST PUSH1 0xE DUP4 DUP2 SLOAD DUP2 LT PUSH2 0x21EB JUMPI PUSH2 0x21EB PUSH2 0x5BAD JUMP JUMPDEST SWAP1 PUSH1 0x0 MSTORE PUSH1 0x20 PUSH1 0x0 KECCAK256 SWAP1 PUSH1 0x6 MUL ADD PUSH1 0x5 ADD DUP2 SWAP1 SSTORE POP POP POP JUMP JUMPDEST PUSH1 0x0 JUMPDEST PUSH1 0x6 DUP3 PUSH1 0x40 MLOAD PUSH2 0x2217 SWAP2 SWAP1 PUSH2 0x5D99 JUMP JUMPDEST SWAP1 DUP2 MSTORE PUSH1 0x40 MLOAD SWAP1 DUP2 SWAP1 SUB PUSH1 0x20 ADD SWAP1 KECCAK256 PUSH1 0x3 ADD SLOAD DUP2 LT ISZERO PUSH2 0x22F4 JUMPI PUSH1 0x6 DUP3 PUSH1 0x40 MLOAD PUSH2 0x2241 SWAP2 SWAP1 PUSH2 0x5D99 JUMP JUMPDEST SWAP1 DUP2 MSTORE PUSH1 0x20 ADD PUSH1 0x40 MLOAD DUP1 SWAP2 SUB SWAP1 KECCAK256 PUSH1 0x3 ADD DUP2 DUP2 SLOAD DUP2 LT PUSH2 0x2263 JUMPI PUSH2 0x2263 PUSH2 0x5BAD JUMP JUMPDEST PUSH1 0x0 SWAP2 DUP3 MSTORE PUSH1 0x20 SWAP1 SWAP2 KECCAK256 ADD SLOAD PUSH1 0x1 PUSH1 0x1 PUSH1 0xA0 SHL SUB AND CALLER EQ PUSH2 0x22EC JUMPI PUSH1 0x40 MLOAD PUSH3 0x461BCD PUSH1 0xE5 SHL DUP2 MSTORE PUSH1 0x20 PUSH1 0x4 DUP3 ADD MSTORE PUSH1 0x3F PUSH1 0x24 DUP3 ADD MSTORE PUSH32 0xD092D18B20D0BDD0B520D0BCD0BED0B6D0B5D182D0B520D0B8D181D0BFD0BED0 PUSH1 0x44 DUP3 ADD MSTORE PUSH32 0xBBD18CD0B7D0BED0B2D0B0D182D18C20D18DD182D0BED18220D0BAD0BED0B400 PUSH1 0x64 DUP3 ADD MSTORE PUSH1 0x84 ADD PUSH2 0x5ED JUMP JUMPDEST PUSH1 0x1 ADD PUSH2 0x2207 JUMP JUMPDEST POP CALLER PUSH1 0x1 PUSH1 0x1 PUSH1 0xA0 SHL SUB AND PUSH1 0x6 DUP3 PUSH1 0x40 MLOAD PUSH2 0x230F SWAP2 SWAP1 PUSH2 0x5D99 JUMP JUMPDEST SWAP1 DUP2 MSTORE PUSH1 0x40 MLOAD SWAP1 DUP2 SWAP1 SUB PUSH1 0x20 ADD SWAP1 KECCAK256 PUSH1 0x1 ADD SLOAD PUSH1 0x1 PUSH1 0x1 PUSH1 0xA0 SHL SUB AND SUB PUSH2 0x23AC JUMPI PUSH1 0x40 MLOAD PUSH3 0x461BCD PUSH1 0xE5 SHL DUP2 MSTORE PUSH1 0x20 PUSH1 0x4 DUP3 ADD MSTORE PUSH1 0x44 PUSH1 0x24 DUP3 ADD DUP2 SWAP1 MSTORE PUSH32 0xD092D18B20D0BDD0B520D0BCD0BED0B6D0B5D182D0B520D0B8D181D0BFD0BED0 SWAP1 DUP3 ADD MSTORE PUSH32 0xBBD18CD0B7D0BED0B2D0B0D182D18C20D181D0B2D0BED0B920D0B6D0B520D0BA PUSH1 0x64 DUP3 ADD MSTORE PUSH4 0x342FB42D PUSH1 0xE2 SHL PUSH1 0x84 DUP3 ADD MSTORE PUSH1 0xA4 ADD PUSH2 0x5ED JUMP JUMPDEST DUP1 PUSH1 0x40 MLOAD PUSH1 0x20 ADD PUSH2 0x23BD SWAP2 SWAP1 PUSH2 0x5D99 JUMP JUMPDEST PUSH1 0x40 MLOAD PUSH1 0x20 DUP2 DUP4 SUB SUB DUP2 MSTORE SWAP1 PUSH1 0x40 MSTORE DUP1 MLOAD SWAP1 PUSH1 0x20 ADD KECCAK256 PUSH1 0x6 DUP3 PUSH1 0x40 MLOAD PUSH2 0x23E3 SWAP2 SWAP1 PUSH2 0x5D99 JUMP JUMPDEST SWAP1 DUP2 MSTORE PUSH1 0x40 MLOAD PUSH1 0x20 SWAP2 DUP2 SWAP1 SUB DUP3 ADD DUP2 KECCAK256 PUSH2 0x23FF SWAP3 SWAP1 SWAP2 ADD PUSH2 0x5AC9 JUMP JUMPDEST PUSH1 0x40 MLOAD PUSH1 0x20 DUP2 DUP4 SUB SUB DUP2 MSTORE SWAP1 PUSH1 0x40 MSTORE DUP1 MLOAD SWAP1 PUSH1 0x20 ADD KECCAK256 EQ PUSH2 0x2498 JUMPI PUSH1 0x40 MLOAD PUSH3 0x461BCD PUSH1 0xE5 SHL DUP2 MSTORE PUSH1 0x20 PUSH1 0x4 DUP3 ADD MSTORE PUSH1 0x47 PUSH1 0x24 DUP3 ADD MSTORE PUSH32 0xD0A2D0B0D0BAD0BED0B3D0BE20D180D0B5D184D0B5D180D0B0D0BBD18CD0BDD0 PUSH1 0x44 DUP3 ADD MSTORE PUSH32 0xBED0B3D0BE20D0BAD0BED0B4D0B020D0BDD0B5D18220D0B220D181D0B8D181D1 PUSH1 0x64 DUP3 ADD MSTORE PUSH7 0x82D0B5D0BCD0B5 PUSH1 0xC8 SHL PUSH1 0x84 DUP3 ADD MSTORE PUSH1 0xA4 ADD PUSH2 0x5ED JUMP JUMPDEST CALLER PUSH1 0x0 SWAP1 DUP2 MSTORE PUSH1 0x7 PUSH1 0x20 MSTORE PUSH1 0x40 SWAP1 KECCAK256 SLOAD PUSH1 0xFF AND ISZERO ISZERO PUSH1 0x1 SUB PUSH2 0x2510 JUMPI PUSH1 0x40 MLOAD PUSH3 0x461BCD PUSH1 0xE5 SHL DUP2 MSTORE PUSH1 0x20 PUSH1 0x4 DUP3 ADD MSTORE PUSH1 0x2B PUSH1 0x24 DUP3 ADD MSTORE PUSH32 0xD092D18B20D183D0B6D0B520D0B8D181D0BFD0BED0BBD18CD0B7D0BED0B2D0B0 PUSH1 0x44 DUP3 ADD MSTORE PUSH11 0x342EF42E08342EB42FB42D PUSH1 0xAA SHL PUSH1 0x64 DUP3 ADD MSTORE PUSH1 0x84 ADD PUSH2 0x5ED JUMP JUMPDEST PUSH1 0x5 PUSH1 0x0 SWAP1 SLOAD SWAP1 PUSH2 0x100 EXP SWAP1 DIV PUSH1 0x1 PUSH1 0x1 PUSH1 0xA0 SHL SUB AND PUSH1 0x1 PUSH1 0x1 PUSH1 0xA0 SHL SUB AND PUSH4 0x3424E5AD PUSH1 0x40 MLOAD DUP2 PUSH4 0xFFFFFFFF AND PUSH1 0xE0 SHL DUP2 MSTORE PUSH1 0x4 ADD PUSH1 0x0 PUSH1 0x40 MLOAD DUP1 DUP4 SUB DUP2 PUSH1 0x0 DUP8 DUP1 EXTCODESIZE ISZERO DUP1 ISZERO PUSH2 0x2560 JUMPI PUSH1 0x0 DUP1 REVERT JUMPDEST POP GAS CALL ISZERO DUP1 ISZERO PUSH2 0x2574 JUMPI RETURNDATASIZE PUSH1 0x0 DUP1 RETURNDATACOPY RETURNDATASIZE PUSH1 0x0 REVERT JUMPDEST POP POP CALLER PUSH1 0x0 SWAP1 DUP2 MSTORE PUSH1 0x7 PUSH1 0x20 MSTORE PUSH1 0x40 SWAP1 DUP2 SWAP1 KECCAK256 DUP1 SLOAD PUSH1 0xFF NOT AND PUSH1 0x1 OR SWAP1 SSTORE MLOAD PUSH1 0x3 SWAP3 POP PUSH1 0x6 SWAP2 POP PUSH2 0x25A6 SWAP1 DUP5 SWAP1 PUSH2 0x5D99 JUMP JUMPDEST SWAP1 DUP2 MSTORE PUSH1 0x20 ADD PUSH1 0x40 MLOAD DUP1 SWAP2 SUB SWAP1 KECCAK256 PUSH1 0x2 ADD SLOAD LT ISZERO PUSH2 0x2610 JUMPI PUSH1 0x6 DUP2 PUSH1 0x40 MLOAD PUSH2 0x25CE SWAP2 SWAP1 PUSH2 0x5D99 JUMP JUMPDEST SWAP1 DUP2 MSTORE PUSH1 0x20 ADD PUSH1 0x40 MLOAD DUP1 SWAP2 SUB SWAP1 KECCAK256 PUSH1 0x2 ADD SLOAD PUSH1 0x1 PUSH2 0x25EC SWAP2 SWAP1 PUSH2 0x5D2F JUMP JUMPDEST PUSH1 0x6 DUP3 PUSH1 0x40 MLOAD PUSH2 0x25FC SWAP2 SWAP1 PUSH2 0x5D99 JUMP JUMPDEST SWAP1 DUP2 MSTORE PUSH1 0x40 MLOAD SWAP1 DUP2 SWAP1 SUB PUSH1 0x20 ADD SWAP1 KECCAK256 PUSH1 0x2 ADD SSTORE JUMPDEST POP JUMP JUMPDEST PUSH2 0x261E CALLER DUP4 DUP4 PUSH2 0x492A JUMP JUMPDEST POP POP JUMP JUMPDEST PUSH1 0x60 PUSH1 0xF DUP1 SLOAD DUP1 PUSH1 0x20 MUL PUSH1 0x20 ADD PUSH1 0x40 MLOAD SWAP1 DUP2 ADD PUSH1 0x40 MSTORE DUP1 SWAP3 SWAP2 SWAP1 DUP2 DUP2 MSTORE PUSH1 0x20 ADD PUSH1 0x0 SWAP1 JUMPDEST DUP3 DUP3 LT ISZERO PUSH2 0xF92 JUMPI DUP4 DUP3 SWAP1 PUSH1 0x0 MSTORE PUSH1 0x20 PUSH1 0x0 KECCAK256 SWAP1 PUSH1 0x4 MUL ADD PUSH1 0x40 MLOAD DUP1 PUSH1 0x80 ADD PUSH1 0x40 MSTORE SWAP1 DUP2 PUSH1 0x0 DUP3 ADD DUP1 SLOAD PUSH2 0x2679 SWAP1 PUSH2 0x5A8F JUMP JUMPDEST DUP1 PUSH1 0x1F ADD PUSH1 0x20 DUP1 SWAP2 DIV MUL PUSH1 0x20 ADD PUSH1 0x40 MLOAD SWAP1 DUP2 ADD PUSH1 0x40 MSTORE DUP1 SWAP3 SWAP2 SWAP1 DUP2 DUP2 MSTORE PUSH1 0x20 ADD DUP3 DUP1 SLOAD PUSH2 0x26A5 SWAP1 PUSH2 0x5A8F JUMP JUMPDEST DUP1 ISZERO PUSH2 0x26F2 JUMPI DUP1 PUSH1 0x1F LT PUSH2 0x26C7 JUMPI PUSH2 0x100 DUP1 DUP4 SLOAD DIV MUL DUP4 MSTORE SWAP2 PUSH1 0x20 ADD SWAP2 PUSH2 0x26F2 JUMP JUMPDEST DUP3 ADD SWAP2 SWAP1 PUSH1 0x0 MSTORE PUSH1 0x20 PUSH1 0x0 KECCAK256 SWAP1 JUMPDEST DUP2 SLOAD DUP2 MSTORE SWAP1 PUSH1 0x1 ADD SWAP1 PUSH1 0x20 ADD DUP1 DUP4 GT PUSH2 0x26D5 JUMPI DUP3 SWAP1 SUB PUSH1 0x1F AND DUP3 ADD SWAP2 JUMPDEST POP POP POP POP POP DUP2 MSTORE PUSH1 0x20 ADD PUSH1 0x1 DUP3 ADD PUSH1 0x0 SWAP1 SLOAD SWAP1 PUSH2 0x100 EXP SWAP1 DIV PUSH1 0x1 PUSH1 0x1 PUSH1 0xA0 SHL SUB AND PUSH1 0x1 PUSH1 0x1 PUSH1 0xA0 SHL SUB AND PUSH1 0x1 PUSH1 0x1 PUSH1 0xA0 SHL SUB AND DUP2 MSTORE PUSH1 0x20 ADD PUSH1 0x2 DUP3 ADD SLOAD DUP2 MSTORE PUSH1 0x20 ADD PUSH1 0x3 DUP3 ADD DUP1 SLOAD DUP1 PUSH1 0x20 MUL PUSH1 0x20 ADD PUSH1 0x40 MLOAD SWAP1 DUP2 ADD PUSH1 0x40 MSTORE DUP1 SWAP3 SWAP2 SWAP1 DUP2 DUP2 MSTORE PUSH1 0x20 ADD DUP3 DUP1 SLOAD DUP1 ISZERO PUSH2 0x278D JUMPI PUSH1 0x20 MUL DUP3 ADD SWAP2 SWAP1 PUSH1 0x0 MSTORE PUSH1 0x20 PUSH1 0x0 KECCAK256 SWAP1 JUMPDEST DUP2 SLOAD PUSH1 0x1 PUSH1 0x1 PUSH1 0xA0 SHL SUB AND DUP2 MSTORE PUSH1 0x1 SWAP1 SWAP2 ADD SWAP1 PUSH1 0x20 ADD DUP1 DUP4 GT PUSH2 0x276F JUMPI JUMPDEST POP POP POP POP POP DUP2 MSTORE POP POP DUP2 MSTORE PUSH1 0x20 ADD SWAP1 PUSH1 0x1 ADD SWAP1 PUSH2 0x2646 JUMP JUMPDEST PUSH1 0x12 DUP2 DUP2 SLOAD DUP2 LT PUSH2 0x27B8 JUMPI PUSH2 0x27B8 PUSH2 0x5BAD JUMP JUMPDEST SWAP1 PUSH1 0x0 MSTORE PUSH1 0x20 PUSH1 0x0 KECCAK256 SWAP1 PUSH1 0x7 MUL ADD PUSH1 0x3 ADD SLOAD TIMESTAMP PUSH2 0x27D5 SWAP2 SWAP1 PUSH2 0x5DB5 JUMP JUMPDEST PUSH1 0x12 DUP3 DUP2 SLOAD DUP2 LT PUSH2 0x27E8 JUMPI PUSH2 0x27E8 PUSH2 0x5BAD JUMP JUMPDEST SWAP1 PUSH1 0x0 MSTORE PUSH1 0x20 PUSH1 0x0 KECCAK256 SWAP1 PUSH1 0x7 MUL ADD PUSH1 0x2 ADD SLOAD TIMESTAMP PUSH2 0x2805 SWAP2 SWAP1 PUSH2 0x5DB5 JUMP JUMPDEST GT PUSH2 0x2610 JUMPI PUSH2 0x2610 DUP2 PUSH2 0x3E2E JUMP JUMPDEST PUSH1 0x0 PUSH1 0x64 DUP3 DUP5 PUSH1 0xE DUP8 DUP2 SLOAD DUP2 LT PUSH2 0x282C JUMPI PUSH2 0x282C PUSH2 0x5BAD JUMP JUMPDEST SWAP1 PUSH1 0x0 MSTORE PUSH1 0x20 PUSH1 0x0 KECCAK256 SWAP1 PUSH1 0x6 MUL ADD PUSH1 0x5 ADD SLOAD PUSH2 0x2848 SWAP2 SWAP1 PUSH2 0x5BD9 JUMP JUMPDEST PUSH2 0x2852 SWAP2 SWAP1 PUSH2 0x5BD9 JUMP JUMPDEST PUSH2 0x285C SWAP2 SWAP1 PUSH2 0x5DC8 JUMP JUMPDEST DUP4 PUSH1 0xE DUP7 DUP2 SLOAD DUP2 LT PUSH2 0x2870 JUMPI PUSH2 0x2870 PUSH2 0x5BAD JUMP JUMPDEST SWAP1 PUSH1 0x0 MSTORE PUSH1 0x20 PUSH1 0x0 KECCAK256 SWAP1 PUSH1 0x6 MUL ADD PUSH1 0x5 ADD SLOAD PUSH2 0x288C SWAP2 SWAP1 PUSH2 0x5BD9 JUMP JUMPDEST PUSH2 0x2896 SWAP2 SWAP1 PUSH2 0x5DB5 JUMP JUMPDEST SWAP1 POP DUP3 PUSH1 0xE DUP6 DUP2 SLOAD DUP2 LT PUSH2 0x28AC JUMPI PUSH2 0x28AC PUSH2 0x5BAD JUMP JUMPDEST SWAP1 PUSH1 0x0 MSTORE PUSH1 0x20 PUSH1 0x0 KECCAK256 SWAP1 PUSH1 0x6 MUL ADD PUSH1 0x4 ADD SLOAD LT ISZERO PUSH2 0x293D JUMPI PUSH1 0x40 MLOAD PUSH3 0x461BCD PUSH1 0xE5 SHL DUP2 MSTORE PUSH1 0x20 PUSH1 0x4 DUP3 ADD MSTORE PUSH1 0x42 PUSH1 0x24 DUP3 ADD MSTORE PUSH32 0xD092D18B20D0BFD18BD182D0B0D0B5D182D0B5D181D18C20D0BAD183D0BFD0B8 PUSH1 0x44 DUP3 ADD MSTORE PUSH32 0xD182D18C20D0B1D0BED0BBD18CD188D0B52C20D187D0B5D0BC20D0B5D181D182 PUSH1 0x64 DUP3 ADD MSTORE PUSH2 0x3463 PUSH1 0xF2 SHL PUSH1 0x84 DUP3 ADD MSTORE PUSH1 0xA4 ADD PUSH2 0x5ED JUMP JUMPDEST PUSH2 0x29B4 PUSH1 0xE DUP6 DUP2 SLOAD DUP2 LT PUSH2 0x2953 JUMPI PUSH2 0x2953 PUSH2 0x5BAD JUMP JUMPDEST SWAP1 PUSH1 0x0 MSTORE PUSH1 0x20 PUSH1 0x0 KECCAK256 SWAP1 PUSH1 0x6 MUL ADD PUSH1 0x3 ADD PUSH1 0x0 SWAP1 SLOAD SWAP1 PUSH2 0x100 EXP SWAP1 DIV PUSH1 0x1 PUSH1 0x1 PUSH1 0xA0 SHL SUB AND CALLER PUSH1 0xE DUP8 DUP2 SLOAD DUP2 LT PUSH2 0x298C JUMPI PUSH2 0x298C PUSH2 0x5BAD JUMP JUMPDEST SWAP1 PUSH1 0x0 MSTORE PUSH1 0x20 PUSH1 0x0 KECCAK256 SWAP1 PUSH1 0x6 MUL ADD PUSH1 0x1 ADD SLOAD DUP7 PUSH1 0x40 MLOAD DUP1 PUSH1 0x20 ADD PUSH1 0x40 MSTORE DUP1 PUSH1 0x0 DUP2 MSTORE POP PUSH2 0x489C JUMP JUMPDEST PUSH1 0x5 SLOAD PUSH1 0xE DUP1 SLOAD PUSH1 0x1 PUSH1 0x1 PUSH1 0xA0 SHL SUB SWAP1 SWAP3 AND SWAP2 PUSH4 0xF5537EDE SWAP2 CALLER SWAP2 DUP9 SWAP1 DUP2 LT PUSH2 0x29DF JUMPI PUSH2 0x29DF PUSH2 0x5BAD JUMP JUMPDEST PUSH1 0x0 SWAP2 DUP3 MSTORE PUSH1 0x20 SWAP1 SWAP2 KECCAK256 PUSH1 0x6 SWAP1 SWAP2 MUL ADD PUSH1 0x3 ADD SLOAD PUSH1 0x40 MLOAD PUSH1 0xE0 DUP5 SWAP1 SHL PUSH1 0x1 PUSH1 0x1 PUSH1 0xE0 SHL SUB NOT AND DUP2 MSTORE PUSH1 0x1 PUSH1 0x1 PUSH1 0xA0 SHL SUB SWAP3 DUP4 AND PUSH1 0x4 DUP3 ADD MSTORE SWAP2 AND PUSH1 0x24 DUP3 ADD MSTORE PUSH1 0x44 DUP2 ADD DUP5 SWAP1 MSTORE PUSH1 0x64 ADD PUSH1 0x0 PUSH1 0x40 MLOAD DUP1 DUP4 SUB DUP2 PUSH1 0x0 DUP8 DUP1 EXTCODESIZE ISZERO DUP1 ISZERO PUSH2 0x2A42 JUMPI PUSH1 0x0 DUP1 REVERT JUMPDEST POP GAS CALL ISZERO DUP1 ISZERO PUSH2 0x2A56 JUMPI RETURNDATASIZE PUSH1 0x0 DUP1 RETURNDATACOPY RETURNDATASIZE PUSH1 0x0 REVERT JUMPDEST POP POP POP POP DUP3 PUSH1 0xE DUP6 DUP2 SLOAD DUP2 LT PUSH2 0x2A6E JUMPI PUSH2 0x2A6E PUSH2 0x5BAD JUMP JUMPDEST SWAP1 PUSH1 0x0 MSTORE PUSH1 0x20 PUSH1 0x0 KECCAK256 SWAP1 PUSH1 0x6 MUL ADD PUSH1 0x4 ADD PUSH1 0x0 DUP3 DUP3 SLOAD PUSH2 0x2A8E SWAP2 SWAP1 PUSH2 0x5DB5 JUMP JUMPDEST SWAP3 POP POP DUP2 SWAP1 SSTORE POP DUP3 PUSH1 0x9 PUSH1 0x0 PUSH1 0xE DUP8 DUP2 SLOAD DUP2 LT PUSH2 0x2AAD JUMPI PUSH2 0x2AAD PUSH2 0x5BAD JUMP JUMPDEST PUSH1 0x0 SWAP2 DUP3 MSTORE PUSH1 0x20 DUP1 DUP4 KECCAK256 PUSH1 0x3 PUSH1 0x6 SWAP1 SWAP4 MUL ADD SWAP2 SWAP1 SWAP2 ADD SLOAD PUSH1 0x1 PUSH1 0x1 PUSH1 0xA0 SHL SUB AND DUP4 MSTORE DUP3 ADD SWAP3 SWAP1 SWAP3 MSTORE PUSH1 0x40 ADD SWAP1 KECCAK256 PUSH1 0xE DUP1 SLOAD DUP8 SWAP1 DUP2 LT PUSH2 0x2AEE JUMPI PUSH2 0x2AEE PUSH2 0x5BAD JUMP JUMPDEST SWAP1 PUSH1 0x0 MSTORE PUSH1 0x20 PUSH1 0x0 KECCAK256 SWAP1 PUSH1 0x6 MUL ADD PUSH1 0x1 ADD SLOAD DUP2 SLOAD DUP2 LT PUSH2 0x2B10 JUMPI PUSH2 0x2B10 PUSH2 0x5BAD JUMP JUMPDEST SWAP1 PUSH1 0x0 MSTORE PUSH1 0x20 PUSH1 0x0 KECCAK256 SWAP1 PUSH1 0x8 MUL ADD PUSH1 0x5 ADD PUSH1 0x0 DUP3 DUP3 SLOAD PUSH2 0x2B30 SWAP2 SWAP1 PUSH2 0x5DB5 JUMP JUMPDEST SWAP1 SWAP2 SSTORE POP POP CALLER PUSH1 0x0 SWAP1 DUP2 MSTORE PUSH1 0x9 PUSH1 0x20 SWAP1 DUP2 MSTORE PUSH1 0x40 DUP1 DUP4 KECCAK256 DUP2 MLOAD PUSH2 0x100 DUP2 ADD SWAP1 SWAP3 MSTORE DUP1 SLOAD DUP3 MSTORE PUSH1 0xE DUP1 SLOAD SWAP2 SWAP5 SWAP3 SWAP4 DUP5 ADD SWAP3 PUSH1 0x8 SWAP3 SWAP1 SWAP2 SWAP1 DUP11 SWAP1 DUP2 LT PUSH2 0x2B76 JUMPI PUSH2 0x2B76 PUSH2 0x5BAD JUMP JUMPDEST SWAP1 PUSH1 0x0 MSTORE PUSH1 0x20 PUSH1 0x0 KECCAK256 SWAP1 PUSH1 0x6 MUL ADD PUSH1 0x1 ADD SLOAD DUP2 MSTORE PUSH1 0x20 ADD SWAP1 DUP2 MSTORE PUSH1 0x20 ADD PUSH1 0x0 KECCAK256 PUSH1 0x1 ADD DUP1 SLOAD PUSH2 0x2BA4 SWAP1 PUSH2 0x5A8F JUMP JUMPDEST DUP1 PUSH1 0x1F ADD PUSH1 0x20 DUP1 SWAP2 DIV MUL PUSH1 0x20 ADD PUSH1 0x40 MLOAD SWAP1 DUP2 ADD PUSH1 0x40 MSTORE DUP1 SWAP3 SWAP2 SWAP1 DUP2 DUP2 MSTORE PUSH1 0x20 ADD DUP3 DUP1 SLOAD PUSH2 0x2BD0 SWAP1 PUSH2 0x5A8F JUMP JUMPDEST DUP1 ISZERO PUSH2 0x2C1D JUMPI DUP1 PUSH1 0x1F LT PUSH2 0x2BF2 JUMPI PUSH2 0x100 DUP1 DUP4 SLOAD DIV MUL DUP4 MSTORE SWAP2 PUSH1 0x20 ADD SWAP2 PUSH2 0x2C1D JUMP JUMPDEST DUP3 ADD SWAP2 SWAP1 PUSH1 0x0 MSTORE PUSH1 0x20 PUSH1 0x0 KECCAK256 SWAP1 JUMPDEST DUP2 SLOAD DUP2 MSTORE SWAP1 PUSH1 0x1 ADD SWAP1 PUSH1 0x20 ADD DUP1 DUP4 GT PUSH2 0x2C00 JUMPI DUP3 SWAP1 SUB PUSH1 0x1F AND DUP3 ADD SWAP2 JUMPDEST POP POP POP POP POP DUP2 MSTORE PUSH1 0x20 ADD PUSH1 0x8 PUSH1 0x0 PUSH1 0xE DUP10 DUP2 SLOAD DUP2 LT PUSH2 0x2C3E JUMPI PUSH2 0x2C3E PUSH2 0x5BAD JUMP JUMPDEST SWAP1 PUSH1 0x0 MSTORE PUSH1 0x20 PUSH1 0x0 KECCAK256 SWAP1 PUSH1 0x6 MUL ADD PUSH1 0x1 ADD SLOAD DUP2 MSTORE PUSH1 0x20 ADD SWAP1 DUP2 MSTORE PUSH1 0x20 ADD PUSH1 0x0 KECCAK256 PUSH1 0x2 ADD DUP1 SLOAD PUSH2 0x2C6C SWAP1 PUSH2 0x5A8F JUMP JUMPDEST DUP1 PUSH1 0x1F ADD PUSH1 0x20 DUP1 SWAP2 DIV MUL PUSH1 0x20 ADD PUSH1 0x40 MLOAD SWAP1 DUP2 ADD PUSH1 0x40 MSTORE DUP1 SWAP3 SWAP2 SWAP1 DUP2 DUP2 MSTORE PUSH1 0x20 ADD DUP3 DUP1 SLOAD PUSH2 0x2C98 SWAP1 PUSH2 0x5A8F JUMP JUMPDEST DUP1 ISZERO PUSH2 0x2CE5 JUMPI DUP1 PUSH1 0x1F LT PUSH2 0x2CBA JUMPI PUSH2 0x100 DUP1 DUP4 SLOAD DIV MUL DUP4 MSTORE SWAP2 PUSH1 0x20 ADD SWAP2 PUSH2 0x2CE5 JUMP JUMPDEST DUP3 ADD SWAP2 SWAP1 PUSH1 0x0 MSTORE PUSH1 0x20 PUSH1 0x0 KECCAK256 SWAP1 JUMPDEST DUP2 SLOAD DUP2 MSTORE SWAP1 PUSH1 0x1 ADD SWAP1 PUSH1 0x20 ADD DUP1 DUP4 GT PUSH2 0x2CC8 JUMPI DUP3 SWAP1 SUB PUSH1 0x1F AND DUP3 ADD SWAP2 JUMPDEST POP POP POP POP POP DUP2 MSTORE PUSH1 0x20 ADD PUSH1 0x8 PUSH1 0x0 PUSH1 0xE DUP10 DUP2 SLOAD DUP2 LT PUSH2 0x2D06 JUMPI PUSH2 0x2D06 PUSH2 0x5BAD JUMP JUMPDEST SWAP1 PUSH1 0x0 MSTORE PUSH1 0x20 PUSH1 0x0 KECCAK256 SWAP1 PUSH1 0x6 MUL ADD PUSH1 0x1 ADD SLOAD DUP2 MSTORE PUSH1 0x20 ADD SWAP1 DUP2 MSTORE PUSH1 0x20 ADD PUSH1 0x0 KECCAK256 PUSH1 0x3 ADD DUP1 SLOAD PUSH2 0x2D34 SWAP1 PUSH2 0x5A8F JUMP JUMPDEST DUP1 PUSH1 0x1F ADD PUSH1 0x20 DUP1 SWAP2 DIV MUL PUSH1 0x20 ADD PUSH1 0x40 MLOAD SWAP1 DUP2 ADD PUSH1 0x40 MSTORE DUP1 SWAP3 SWAP2 SWAP1 DUP2 DUP2 MSTORE PUSH1 0x20 ADD DUP3 DUP1 SLOAD PUSH2 0x2D60 SWAP1 PUSH2 0x5A8F JUMP JUMPDEST DUP1 ISZERO PUSH2 0x2DAD JUMPI DUP1 PUSH1 0x1F LT PUSH2 0x2D82 JUMPI PUSH2 0x100 DUP1 DUP4 SLOAD DIV MUL DUP4 MSTORE SWAP2 PUSH1 0x20 ADD SWAP2 PUSH2 0x2DAD JUMP JUMPDEST DUP3 ADD SWAP2 SWAP1 PUSH1 0x0 MSTORE PUSH1 0x20 PUSH1 0x0 KECCAK256 SWAP1 JUMPDEST DUP2 SLOAD DUP2 MSTORE SWAP1 PUSH1 0x1 ADD SWAP1 PUSH1 0x20 ADD DUP1 DUP4 GT PUSH2 0x2D90 JUMPI DUP3 SWAP1 SUB PUSH1 0x1F AND DUP3 ADD SWAP2 JUMPDEST POP POP POP POP POP DUP2 MSTORE PUSH1 0x20 ADD DUP6 DUP2 MSTORE PUSH1 0x20 ADD PUSH1 0xE DUP8 DUP2 SLOAD DUP2 LT PUSH2 0x2DD0 JUMPI PUSH2 0x2DD0 PUSH2 0x5BAD JUMP JUMPDEST SWAP1 PUSH1 0x0 MSTORE PUSH1 0x20 PUSH1 0x0 KECCAK256 SWAP1 PUSH1 0x6 MUL ADD PUSH1 0x5 ADD SLOAD DUP2 MSTORE PUSH1 0x20 ADD PUSH1 0x8 PUSH1 0x0 PUSH1 0xE DUP10 DUP2 SLOAD DUP2 LT PUSH2 0x2DFE JUMPI PUSH2 0x2DFE PUSH2 0x5BAD JUMP JUMPDEST SWAP1 PUSH1 0x0 MSTORE PUSH1 0x20 PUSH1 0x0 KECCAK256 SWAP1 PUSH1 0x6 MUL ADD PUSH1 0x1 ADD SLOAD DUP2 MSTORE PUSH1 0x20 ADD SWAP1 DUP2 MSTORE PUSH1 0x20 ADD PUSH1 0x0 KECCAK256 PUSH1 0x6 ADD SLOAD DUP2 MSTORE PUSH1 0x20 ADD PUSH1 0x8 PUSH1 0x0 PUSH1 0xE DUP10 DUP2 SLOAD DUP2 LT PUSH2 0x2E3E JUMPI PUSH2 0x2E3E PUSH2 0x5BAD JUMP JUMPDEST PUSH1 0x0 SWAP2 DUP3 MSTORE PUSH1 0x20 DUP1 DUP4 KECCAK256 PUSH1 0x1 PUSH1 0x6 SWAP1 SWAP4 MUL ADD DUP3 ADD SLOAD DUP5 MSTORE DUP4 DUP2 ADD SWAP5 SWAP1 SWAP5 MSTORE PUSH1 0x40 SWAP1 SWAP3 ADD DUP2 KECCAK256 PUSH1 0x7 ADD SLOAD SWAP1 SWAP4 MSTORE DUP5 SLOAD DUP1 DUP3 ADD DUP7 SSTORE SWAP5 DUP4 MSTORE SWAP2 DUP2 SWAP1 KECCAK256 DUP4 MLOAD PUSH1 0x8 SWAP1 SWAP6 MUL ADD SWAP4 DUP5 SSTORE DUP3 ADD MLOAD SWAP2 SWAP3 SWAP2 SWAP1 DUP3 ADD SWAP1 PUSH2 0x2E97 SWAP1 DUP3 PUSH2 0x5C38 JUMP JUMPDEST POP PUSH1 0x40 DUP3 ADD MLOAD PUSH1 0x2 DUP3 ADD SWAP1 PUSH2 0x2EAC SWAP1 DUP3 PUSH2 0x5C38 JUMP JUMPDEST POP PUSH1 0x60 DUP3 ADD MLOAD PUSH1 0x3 DUP3 ADD SWAP1 PUSH2 0x2EC1 SWAP1 DUP3 PUSH2 0x5C38 JUMP JUMPDEST POP PUSH1 0x80 DUP3 ADD MLOAD DUP2 PUSH1 0x4 ADD SSTORE PUSH1 0xA0 DUP3 ADD MLOAD DUP2 PUSH1 0x5 ADD SSTORE PUSH1 0xC0 DUP3 ADD MLOAD DUP2 PUSH1 0x6 ADD SSTORE PUSH1 0xE0 DUP3 ADD MLOAD DUP2 PUSH1 0x7 ADD SSTORE POP POP PUSH1 0x9 PUSH1 0x0 PUSH1 0xE DUP7 DUP2 SLOAD DUP2 LT PUSH2 0x2F03 JUMPI PUSH2 0x2F03 PUSH2 0x5BAD JUMP JUMPDEST PUSH1 0x0 SWAP2 DUP3 MSTORE PUSH1 0x20 DUP1 DUP4 KECCAK256 PUSH1 0x3 PUSH1 0x6 SWAP1 SWAP4 MUL ADD SWAP2 SWAP1 SWAP2 ADD SLOAD PUSH1 0x1 PUSH1 0x1 PUSH1 0xA0 SHL SUB AND DUP4 MSTORE DUP3 ADD SWAP3 SWAP1 SWAP3 MSTORE PUSH1 0x40 ADD SWAP1 KECCAK256 PUSH1 0xE DUP1 SLOAD DUP7 SWAP1 DUP2 LT PUSH2 0x2F44 JUMPI PUSH2 0x2F44 PUSH2 0x5BAD JUMP JUMPDEST SWAP1 PUSH1 0x0 MSTORE PUSH1 0x20 PUSH1 0x0 KECCAK256 SWAP1 PUSH1 0x6 MUL ADD PUSH1 0x1 ADD SLOAD DUP2 SLOAD DUP2 LT PUSH2 0x2F66 JUMPI PUSH2 0x2F66 PUSH2 0x5BAD JUMP JUMPDEST SWAP1 PUSH1 0x0 MSTORE PUSH1 0x20 PUSH1 0x0 KECCAK256 SWAP1 PUSH1 0x8 MUL ADD PUSH1 0x5 ADD SLOAD PUSH1 0x0 SUB PUSH2 0x2FCC JUMPI PUSH1 0x9 PUSH1 0x0 PUSH1 0xE DUP7 DUP2 SLOAD DUP2 LT PUSH2 0x2F96 JUMPI PUSH2 0x2F96 PUSH2 0x5BAD JUMP JUMPDEST PUSH1 0x0 SWAP2 DUP3 MSTORE PUSH1 0x20 DUP1 DUP4 KECCAK256 PUSH1 0x3 PUSH1 0x6 SWAP1 SWAP4 MUL ADD SWAP2 SWAP1 SWAP2 ADD SLOAD PUSH1 0x1 PUSH1 0x1 PUSH1 0xA0 SHL SUB AND DUP4 MSTORE DUP3 ADD SWAP3 SWAP1 SWAP3 MSTORE PUSH1 0x40 ADD DUP2 KECCAK256 PUSH2 0x2FCC SWAP2 PUSH2 0x4ED3 JUMP JUMPDEST PUSH1 0xE DUP5 DUP2 SLOAD DUP2 LT PUSH2 0x2FDF JUMPI PUSH2 0x2FDF PUSH2 0x5BAD JUMP JUMPDEST SWAP1 PUSH1 0x0 MSTORE PUSH1 0x20 PUSH1 0x0 KECCAK256 SWAP1 PUSH1 0x6 MUL ADD PUSH1 0x4 ADD SLOAD PUSH1 0x0 SUB PUSH2 0x1680 JUMPI PUSH1 0xE DUP5 DUP2 SLOAD DUP2 LT PUSH2 0x300B JUMPI PUSH2 0x300B PUSH2 0x5BAD JUMP JUMPDEST PUSH1 0x0 SWAP2 DUP3 MSTORE PUSH1 0x20 DUP3 KECCAK256 PUSH1 0x6 SWAP1 SWAP2 MUL ADD DUP2 DUP2 SSTORE PUSH1 0x1 DUP2 ADD DUP3 SWAP1 SSTORE PUSH1 0x2 DUP2 ADD DUP3 SWAP1 SSTORE PUSH1 0x3 DUP2 ADD DUP1 SLOAD PUSH1 0x1 PUSH1 0x1 PUSH1 0xA0 SHL SUB NOT AND SWAP1 SSTORE PUSH1 0x4 DUP2 ADD DUP3 SWAP1 SSTORE PUSH1 0x5 ADD SSTORE POP POP POP POP JUMP JUMPDEST PUSH1 0x60 PUSH1 0x10 DUP1 SLOAD DUP1 PUSH1 0x20 MUL PUSH1 0x20 ADD PUSH1 0x40 MLOAD SWAP1 DUP2 ADD PUSH1 0x40 MSTORE DUP1 SWAP3 SWAP2 SWAP1 DUP2 DUP2 MSTORE PUSH1 0x20 ADD PUSH1 0x0 SWAP1 JUMPDEST DUP3 DUP3 LT ISZERO PUSH2 0xF92 JUMPI DUP4 DUP3 SWAP1 PUSH1 0x0 MSTORE PUSH1 0x20 PUSH1 0x0 KECCAK256 SWAP1 PUSH1 0x8 MUL ADD PUSH1 0x40 MLOAD DUP1 PUSH2 0x100 ADD PUSH1 0x40 MSTORE SWAP1 DUP2 PUSH1 0x0 DUP3 ADD SLOAD DUP2 MSTORE PUSH1 0x20 ADD PUSH1 0x1 DUP3 ADD DUP1 SLOAD PUSH2 0x30B0 SWAP1 PUSH2 0x5A8F JUMP JUMPDEST DUP1 PUSH1 0x1F ADD PUSH1 0x20 DUP1 SWAP2 DIV MUL PUSH1 0x20 ADD PUSH1 0x40 MLOAD SWAP1 DUP2 ADD PUSH1 0x40 MSTORE DUP1 SWAP3 SWAP2 SWAP1 DUP2 DUP2 MSTORE PUSH1 0x20 ADD DUP3 DUP1 SLOAD PUSH2 0x30DC SWAP1 PUSH2 0x5A8F JUMP JUMPDEST DUP1 ISZERO PUSH2 0x3129 JUMPI DUP1 PUSH1 0x1F LT PUSH2 0x30FE JUMPI PUSH2 0x100 DUP1 DUP4 SLOAD DIV MUL DUP4 MSTORE SWAP2 PUSH1 0x20 ADD SWAP2 PUSH2 0x3129 JUMP JUMPDEST DUP3 ADD SWAP2 SWAP1 PUSH1 0x0 MSTORE PUSH1 0x20 PUSH1 0x0 KECCAK256 SWAP1 JUMPDEST DUP2 SLOAD DUP2 MSTORE SWAP1 PUSH1 0x1 ADD SWAP1 PUSH1 0x20 ADD DUP1 DUP4 GT PUSH2 0x310C JUMPI DUP3 SWAP1 SUB PUSH1 0x1F AND DUP3 ADD SWAP2 JUMPDEST POP POP POP POP POP DUP2 MSTORE PUSH1 0x20 ADD PUSH1 0x2 DUP3 ADD DUP1 SLOAD PUSH2 0x3142 SWAP1 PUSH2 0x5A8F JUMP JUMPDEST DUP1 PUSH1 0x1F ADD PUSH1 0x20 DUP1 SWAP2 DIV MUL PUSH1 0x20 ADD PUSH1 0x40 MLOAD SWAP1 DUP2 ADD PUSH1 0x40 MSTORE DUP1 SWAP3 SWAP2 SWAP1 DUP2 DUP2 MSTORE PUSH1 0x20 ADD DUP3 DUP1 SLOAD PUSH2 0x316E SWAP1 PUSH2 0x5A8F JUMP JUMPDEST DUP1 ISZERO PUSH2 0x31BB JUMPI DUP1 PUSH1 0x1F LT PUSH2 0x3190 JUMPI PUSH2 0x100 DUP1 DUP4 SLOAD DIV MUL DUP4 MSTORE SWAP2 PUSH1 0x20 ADD SWAP2 PUSH2 0x31BB JUMP JUMPDEST DUP3 ADD SWAP2 SWAP1 PUSH1 0x0 MSTORE PUSH1 0x20 PUSH1 0x0 KECCAK256 SWAP1 JUMPDEST DUP2 SLOAD DUP2 MSTORE SWAP1 PUSH1 0x1 ADD SWAP1 PUSH1 0x20 ADD DUP1 DUP4 GT PUSH2 0x319E JUMPI DUP3 SWAP1 SUB PUSH1 0x1F AND DUP3 ADD SWAP2 JUMPDEST POP POP POP POP POP DUP2 MSTORE PUSH1 0x20 ADD PUSH1 0x3 DUP3 ADD DUP1 SLOAD PUSH2 0x31D4 SWAP1 PUSH2 0x5A8F JUMP JUMPDEST DUP1 PUSH1 0x1F ADD PUSH1 0x20 DUP1 SWAP2 DIV MUL PUSH1 0x20 ADD PUSH1 0x40 MLOAD SWAP1 DUP2 ADD PUSH1 0x40 MSTORE DUP1 SWAP3 SWAP2 SWAP1 DUP2 DUP2 MSTORE PUSH1 0x20 ADD DUP3 DUP1 SLOAD PUSH2 0x3200 SWAP1 PUSH2 0x5A8F JUMP JUMPDEST DUP1 ISZERO PUSH2 0x324D JUMPI DUP1 PUSH1 0x1F LT PUSH2 0x3222 JUMPI PUSH2 0x100 DUP1 DUP4 SLOAD DIV MUL DUP4 MSTORE SWAP2 PUSH1 0x20 ADD SWAP2 PUSH2 0x324D JUMP JUMPDEST DUP3 ADD SWAP2 SWAP1 PUSH1 0x0 MSTORE PUSH1 0x20 PUSH1 0x0 KECCAK256 SWAP1 JUMPDEST DUP2 SLOAD DUP2 MSTORE SWAP1 PUSH1 0x1 ADD SWAP1 PUSH1 0x20 ADD DUP1 DUP4 GT PUSH2 0x3230 JUMPI DUP3 SWAP1 SUB PUSH1 0x1F AND DUP3 ADD SWAP2 JUMPDEST POP POP POP POP POP DUP2 MSTORE PUSH1 0x20 ADD PUSH1 0x4 DUP3 ADD SLOAD DUP2 MSTORE PUSH1 0x20 ADD PUSH1 0x5 DUP3 ADD SLOAD DUP2 MSTORE PUSH1 0x20 ADD PUSH1 0x6 DUP3 ADD SLOAD DUP2 MSTORE PUSH1 0x20 ADD PUSH1 0x7 DUP3 ADD SLOAD DUP2 MSTORE POP POP DUP2 MSTORE PUSH1 0x20 ADD SWAP1 PUSH1 0x1 ADD SWAP1 PUSH2 0x3072 JUMP JUMPDEST PUSH1 0x1 PUSH1 0x1 PUSH1 0xA0 SHL SUB SWAP2 DUP3 AND PUSH1 0x0 SWAP1 DUP2 MSTORE PUSH1 0x1 PUSH1 0x20 SWAP1 DUP2 MSTORE PUSH1 0x40 DUP1 DUP4 KECCAK256 SWAP4 SWAP1 SWAP5 AND DUP3 MSTORE SWAP2 SWAP1 SWAP2 MSTORE KECCAK256 SLOAD PUSH1 0xFF AND SWAP1 JUMP JUMPDEST PUSH2 0x3303 PUSH1 0x40 MLOAD DUP1 PUSH2 0x100 ADD PUSH1 0x40 MSTORE DUP1 PUSH1 0x0 DUP2 MSTORE PUSH1 0x20 ADD PUSH1 0x60 DUP2 MSTORE PUSH1 0x20 ADD PUSH1 0x60 DUP2 MSTORE PUSH1 0x20 ADD PUSH1 0x60 DUP2 MSTORE PUSH1 0x20 ADD PUSH1 0x0 DUP2 MSTORE PUSH1 0x20 ADD PUSH1 0x0 DUP2 MSTORE PUSH1 0x20 ADD PUSH1 0x0 DUP2 MSTORE PUSH1 0x20 ADD PUSH1 0x0 DUP2 MSTORE POP SWAP1 JUMP JUMPDEST PUSH1 0x8 PUSH1 0x0 DUP4 DUP2 MSTORE PUSH1 0x20 ADD SWAP1 DUP2 MSTORE PUSH1 0x20 ADD PUSH1 0x0 KECCAK256 PUSH1 0x40 MLOAD DUP1 PUSH2 0x100 ADD PUSH1 0x40 MSTORE SWAP1 DUP2 PUSH1 0x0 DUP3 ADD SLOAD DUP2 MSTORE PUSH1 0x20 ADD PUSH1 0x1 DUP3 ADD DUP1 SLOAD PUSH2 0x333C SWAP1 PUSH2 0x5A8F JUMP JUMPDEST DUP1 PUSH1 0x1F ADD PUSH1 0x20 DUP1 SWAP2 DIV MUL PUSH1 0x20 ADD PUSH1 0x40 MLOAD SWAP1 DUP2 ADD PUSH1 0x40 MSTORE DUP1 SWAP3 SWAP2 SWAP1 DUP2 DUP2 MSTORE PUSH1 0x20 ADD DUP3 DUP1 SLOAD PUSH2 0x3368 SWAP1 PUSH2 0x5A8F JUMP JUMPDEST DUP1 ISZERO PUSH2 0x33B5 JUMPI DUP1 PUSH1 0x1F LT PUSH2 0x338A JUMPI PUSH2 0x100 DUP1 DUP4 SLOAD DIV MUL DUP4 MSTORE SWAP2 PUSH1 0x20 ADD SWAP2 PUSH2 0x33B5 JUMP JUMPDEST DUP3 ADD SWAP2 SWAP1 PUSH1 0x0 MSTORE PUSH1 0x20 PUSH1 0x0 KECCAK256 SWAP1 JUMPDEST DUP2 SLOAD DUP2 MSTORE SWAP1 PUSH1 0x1 ADD SWAP1 PUSH1 0x20 ADD DUP1 DUP4 GT PUSH2 0x3398 JUMPI DUP3 SWAP1 SUB PUSH1 0x1F AND DUP3 ADD SWAP2 JUMPDEST POP POP POP POP POP DUP2 MSTORE PUSH1 0x20 ADD PUSH1 0x2 DUP3 ADD DUP1 SLOAD PUSH2 0x33CE SWAP1 PUSH2 0x5A8F JUMP JUMPDEST DUP1 PUSH1 0x1F ADD PUSH1 0x20 DUP1 SWAP2 DIV MUL PUSH1 0x20 ADD PUSH1 0x40 MLOAD SWAP1 DUP2 ADD PUSH1 0x40 MSTORE DUP1 SWAP3 SWAP2 SWAP1 DUP2 DUP2 MSTORE PUSH1 0x20 ADD DUP3 DUP1 SLOAD PUSH2 0x33FA SWAP1 PUSH2 0x5A8F JUMP JUMPDEST DUP1 ISZERO PUSH2 0x3447 JUMPI DUP1 PUSH1 0x1F LT PUSH2 0x341C JUMPI PUSH2 0x100 DUP1 DUP4 SLOAD DIV MUL DUP4 MSTORE SWAP2 PUSH1 0x20 ADD SWAP2 PUSH2 0x3447 JUMP JUMPDEST DUP3 ADD SWAP2 SWAP1 PUSH1 0x0 MSTORE PUSH1 0x20 PUSH1 0x0 KECCAK256 SWAP1 JUMPDEST DUP2 SLOAD DUP2 MSTORE SWAP1 PUSH1 0x1 ADD SWAP1 PUSH1 0x20 ADD DUP1 DUP4 GT PUSH2 0x342A JUMPI DUP3 SWAP1 SUB PUSH1 0x1F AND DUP3 ADD SWAP2 JUMPDEST POP POP POP POP POP DUP2 MSTORE PUSH1 0x20 ADD PUSH1 0x3 DUP3 ADD DUP1 SLOAD PUSH2 0x3460 SWAP1 PUSH2 0x5A8F JUMP JUMPDEST DUP1 PUSH1 0x1F ADD PUSH1 0x20 DUP1 SWAP2 DIV MUL PUSH1 0x20 ADD PUSH1 0x40 MLOAD SWAP1 DUP2 ADD PUSH1 0x40 MSTORE DUP1 SWAP3 SWAP2 SWAP1 DUP2 DUP2 MSTORE PUSH1 0x20 ADD DUP3 DUP1 SLOAD PUSH2 0x348C SWAP1 PUSH2 0x5A8F JUMP JUMPDEST DUP1 ISZERO PUSH2 0x34D9 JUMPI DUP1 PUSH1 0x1F LT PUSH2 0x34AE JUMPI PUSH2 0x100 DUP1 DUP4 SLOAD DIV MUL DUP4 MSTORE SWAP2 PUSH1 0x20 ADD SWAP2 PUSH2 0x34D9 JUMP JUMPDEST DUP3 ADD SWAP2 SWAP1 PUSH1 0x0 MSTORE PUSH1 0x20 PUSH1 0x0 KECCAK256 SWAP1 JUMPDEST DUP2 SLOAD DUP2 MSTORE SWAP1 PUSH1 0x1 ADD SWAP1 PUSH1 0x20 ADD DUP1 DUP4 GT PUSH2 0x34BC JUMPI DUP3 SWAP1 SUB PUSH1 0x1F AND DUP3 ADD SWAP2 JUMPDEST POP POP POP POP POP DUP2 MSTORE PUSH1 0x20 ADD PUSH1 0x4 DUP3 ADD SLOAD DUP2 MSTORE PUSH1 0x20 ADD PUSH1 0x5 DUP3 ADD SLOAD DUP2 MSTORE PUSH1 0x20 ADD PUSH1 0x6 DUP3 ADD SLOAD DUP2 MSTORE PUSH1 0x20 ADD PUSH1 0x7 DUP3 ADD SLOAD DUP2 MSTORE POP POP SWAP1 POP SWAP2 SWAP1 POP JUMP JUMPDEST CALLER PUSH1 0x1 PUSH1 0x1 PUSH1 0xA0 SHL SUB DUP7 AND DUP2 EQ DUP1 ISZERO SWAP1 PUSH2 0x3532 JUMPI POP PUSH2 0x3530 DUP7 DUP3 PUSH2 0x328D JUMP JUMPDEST ISZERO JUMPDEST ISZERO PUSH2 0x3563 JUMPI PUSH1 0x40 MLOAD PUSH4 0x711BEC91 PUSH1 0xE1 SHL DUP2 MSTORE PUSH1 0x1 PUSH1 0x1 PUSH1 0xA0 SHL SUB DUP1 DUP4 AND PUSH1 0x4 DUP4 ADD MSTORE DUP8 AND PUSH1 0x24 DUP3 ADD MSTORE PUSH1 0x44 ADD PUSH2 0x5ED JUMP JUMPDEST PUSH2 0x16E5 DUP7 DUP7 DUP7 DUP7 DUP7 PUSH2 0x489C JUMP JUMPDEST PUSH1 0x4 SLOAD PUSH1 0x1 PUSH1 0x1 PUSH1 0xA0 SHL SUB AND CALLER EQ PUSH2 0x359A JUMPI PUSH1 0x40 MLOAD PUSH3 0x461BCD PUSH1 0xE5 SHL DUP2 MSTORE PUSH1 0x4 ADD PUSH2 0x5ED SWAP1 PUSH2 0x5B3F JUMP JUMPDEST PUSH1 0x40 DUP1 MLOAD PUSH1 0x80 DUP2 ADD DUP3 MSTORE DUP6 DUP2 MSTORE PUSH1 0x20 DUP1 DUP3 ADD DUP7 SWAP1 MSTORE DUP2 DUP4 ADD DUP6 SWAP1 MSTORE PUSH1 0x60 DUP3 ADD DUP5 SWAP1 MSTORE PUSH1 0x11 SLOAD PUSH1 0x0 SWAP1 DUP2 MSTORE PUSH1 0xA SWAP1 SWAP2 MSTORE SWAP2 SWAP1 SWAP2 KECCAK256 DUP2 MLOAD DUP2 SWAP1 PUSH2 0x35DB SWAP1 DUP3 PUSH2 0x5C38 JUMP JUMPDEST POP PUSH1 0x20 DUP3 ADD MLOAD PUSH1 0x1 DUP3 ADD SWAP1 PUSH2 0x35F0 SWAP1 DUP3 PUSH2 0x5C38 JUMP JUMPDEST POP PUSH1 0x40 DUP3 ADD MLOAD DUP1 MLOAD PUSH2 0x360C SWAP2 PUSH1 0x2 DUP5 ADD SWAP2 PUSH1 0x20 SWAP1 SWAP2 ADD SWAP1 PUSH2 0x4EF4 JUMP JUMPDEST POP PUSH1 0x60 DUP3 ADD MLOAD DUP1 MLOAD PUSH2 0x3628 SWAP2 PUSH1 0x3 DUP5 ADD SWAP2 PUSH1 0x20 SWAP1 SWAP2 ADD SWAP1 PUSH2 0x4EF4 JUMP JUMPDEST POP POP PUSH1 0x40 DUP1 MLOAD PUSH1 0x80 DUP2 ADD DUP3 MSTORE DUP7 DUP2 MSTORE PUSH1 0x20 DUP2 ADD DUP7 SWAP1 MSTORE SWAP1 DUP2 ADD DUP5 SWAP1 MSTORE PUSH1 0x60 DUP2 ADD DUP4 SWAP1 MSTORE PUSH1 0x11 DUP1 SLOAD PUSH1 0x1 DUP2 ADD DUP3 SSTORE PUSH1 0x0 SWAP2 SWAP1 SWAP2 MSTORE DUP2 MLOAD SWAP2 SWAP3 POP PUSH1 0x4 MUL PUSH32 0x31ECC21A745E3968A04E9570E4425BC18FA8019C68028196B546D1669C200C68 ADD SWAP1 DUP2 SWAP1 PUSH2 0x3692 SWAP1 DUP3 PUSH2 0x5C38 JUMP JUMPDEST POP PUSH1 0x20 DUP3 ADD MLOAD PUSH1 0x1 DUP3 ADD SWAP1 PUSH2 0x36A7 SWAP1 DUP3 PUSH2 0x5C38 JUMP JUMPDEST POP PUSH1 0x40 DUP3 ADD MLOAD DUP1 MLOAD PUSH2 0x36C3 SWAP2 PUSH1 0x2 DUP5 ADD SWAP2 PUSH1 0x20 SWAP1 SWAP2 ADD SWAP1 PUSH2 0x4EF4 JUMP JUMPDEST POP PUSH1 0x60 DUP3 ADD MLOAD DUP1 MLOAD PUSH2 0x36DF SWAP2 PUSH1 0x3 DUP5 ADD SWAP2 PUSH1 0x20 SWAP1 SWAP2 ADD SWAP1 PUSH2 0x4EF4 JUMP JUMPDEST POP POP POP PUSH1 0x0 JUMPDEST DUP3 MLOAD DUP2 LT ISZERO PUSH2 0x19D8 JUMPI PUSH1 0x1 PUSH1 0xD PUSH1 0x0 DUP6 DUP5 DUP2 MLOAD DUP2 LT PUSH2 0x3706 JUMPI PUSH2 0x3706 PUSH2 0x5BAD JUMP JUMPDEST PUSH1 0x20 SWAP1 DUP2 MUL SWAP2 SWAP1 SWAP2 ADD DUP2 ADD MLOAD DUP3 MSTORE DUP2 ADD SWAP2 SWAP1 SWAP2 MSTORE PUSH1 0x40 ADD PUSH1 0x0 KECCAK256 DUP1 SLOAD PUSH1 0xFF NOT AND SWAP2 ISZERO ISZERO SWAP2 SWAP1 SWAP2 OR SWAP1 SSTORE PUSH1 0x1 ADD PUSH2 0x36E5 JUMP JUMPDEST CALLER PUSH1 0x0 SWAP1 DUP2 MSTORE PUSH1 0x9 PUSH1 0x20 MSTORE PUSH1 0x40 SWAP1 KECCAK256 DUP1 SLOAD DUP4 SWAP2 SWAP1 DUP6 SWAP1 DUP2 LT PUSH2 0x375B JUMPI PUSH2 0x375B PUSH2 0x5BAD JUMP JUMPDEST SWAP1 PUSH1 0x0 MSTORE PUSH1 0x20 PUSH1 0x0 KECCAK256 SWAP1 PUSH1 0x8 MUL ADD PUSH1 0x5 ADD SLOAD LT ISZERO PUSH2 0x37CA JUMPI PUSH1 0x40 MLOAD PUSH3 0x461BCD PUSH1 0xE5 SHL DUP2 MSTORE PUSH1 0x20 PUSH1 0x4 DUP3 ADD MSTORE PUSH1 0x26 PUSH1 0x24 DUP3 ADD MSTORE PUSH32 0xD0A320D0B2D0B0D18120D0BDD0B5D0B4D0BED181D182D0B0D182D0BED187D0BD PUSH1 0x44 DUP3 ADD MSTORE PUSH6 0x342F88139195 PUSH1 0xD2 SHL PUSH1 0x64 DUP3 ADD MSTORE PUSH1 0x84 ADD PUSH2 0x5ED JUMP JUMPDEST PUSH1 0x0 DUP4 DUP2 MSTORE PUSH1 0xD PUSH1 0x20 MSTORE PUSH1 0x40 SWAP1 KECCAK256 SLOAD PUSH1 0xFF AND ISZERO PUSH2 0x3859 JUMPI PUSH1 0x40 MLOAD PUSH3 0x461BCD PUSH1 0xE5 SHL DUP2 MSTORE PUSH1 0x20 PUSH1 0x4 DUP3 ADD MSTORE PUSH1 0x41 PUSH1 0x24 DUP3 ADD MSTORE PUSH32 0xD092D18B20D0BDD0B520D0BCD0BED0B6D0B5D182D0B520D0BFD180D0BED0B4D0 PUSH1 0x44 DUP3 ADD MSTORE PUSH32 0xB0D182D18C204E465420D0B8D0B720D0BAD0BED0BBD0BBD0B5D0BAD186D0B8D0 PUSH1 0x64 DUP3 ADD MSTORE PUSH1 0x17 PUSH1 0xFB SHL PUSH1 0x84 DUP3 ADD MSTORE PUSH1 0xA4 ADD PUSH2 0x5ED JUMP JUMPDEST PUSH1 0x40 DUP1 MLOAD PUSH1 0xC0 DUP2 ADD DUP3 MSTORE PUSH1 0xE DUP1 SLOAD DUP1 DUP4 MSTORE PUSH1 0x20 DUP4 ADD SWAP8 DUP9 MSTORE SWAP3 DUP3 ADD SWAP6 DUP7 MSTORE CALLER PUSH1 0x60 DUP4 ADD SWAP1 DUP2 MSTORE PUSH1 0x80 DUP4 ADD SWAP6 DUP7 MSTORE PUSH1 0xA0 DUP4 ADD SWAP5 DUP6 MSTORE PUSH1 0x1 DUP5 ADD DUP3 SSTORE PUSH1 0x0 SWAP2 SWAP1 SWAP2 MSTORE SWAP1 MLOAD PUSH32 0xBB7B4A454DC3493923482F07822329ED19E8244EFF582CC204F8554C3620C3FD PUSH1 0x6 SWAP1 SWAP4 MUL SWAP3 DUP4 ADD SSTORE SWAP5 MLOAD PUSH32 0xBB7B4A454DC3493923482F07822329ED19E8244EFF582CC204F8554C3620C3FE DUP3 ADD SSTORE SWAP3 MLOAD PUSH32 0xBB7B4A454DC3493923482F07822329ED19E8244EFF582CC204F8554C3620C3FF DUP5 ADD SSTORE SWAP3 MLOAD PUSH32 0xBB7B4A454DC3493923482F07822329ED19E8244EFF582CC204F8554C3620C400 DUP4 ADD DUP1 SLOAD PUSH1 0x1 PUSH1 0x1 PUSH1 0xA0 SHL SUB NOT AND PUSH1 0x1 PUSH1 0x1 PUSH1 0xA0 SHL SUB SWAP1 SWAP3 AND SWAP2 SWAP1 SWAP2 OR SWAP1 SSTORE MLOAD PUSH32 0xBB7B4A454DC3493923482F07822329ED19E8244EFF582CC204F8554C3620C401 DUP3 ADD SSTORE SWAP1 MLOAD PUSH32 0xBB7B4A454DC3493923482F07822329ED19E8244EFF582CC204F8554C3620C402 SWAP1 SWAP2 ADD SSTORE JUMP JUMPDEST PUSH1 0x60 PUSH1 0x11 DUP1 SLOAD DUP1 PUSH1 0x20 MUL PUSH1 0x20 ADD PUSH1 0x40 MLOAD SWAP1 DUP2 ADD PUSH1 0x40 MSTORE DUP1 SWAP3 SWAP2 SWAP1 DUP2 DUP2 MSTORE PUSH1 0x20 ADD PUSH1 0x0 SWAP1 JUMPDEST DUP3 DUP3 LT ISZERO PUSH2 0xF92 JUMPI DUP4 DUP3 SWAP1 PUSH1 0x0 MSTORE PUSH1 0x20 PUSH1 0x0 KECCAK256 SWAP1 PUSH1 0x4 MUL ADD PUSH1 0x40 MLOAD DUP1 PUSH1 0x80 ADD PUSH1 0x40 MSTORE SWAP1 DUP2 PUSH1 0x0 DUP3 ADD DUP1 SLOAD PUSH2 0x39F8 SWAP1 PUSH2 0x5A8F JUMP JUMPDEST DUP1 PUSH1 0x1F ADD PUSH1 0x20 DUP1 SWAP2 DIV MUL PUSH1 0x20 ADD PUSH1 0x40 MLOAD SWAP1 DUP2 ADD PUSH1 0x40 MSTORE DUP1 SWAP3 SWAP2 SWAP1 DUP2 DUP2 MSTORE PUSH1 0x20 ADD DUP3 DUP1 SLOAD PUSH2 0x3A24 SWAP1 PUSH2 0x5A8F JUMP JUMPDEST DUP1 ISZERO PUSH2 0x3A71 JUMPI DUP1 PUSH1 0x1F LT PUSH2 0x3A46 JUMPI PUSH2 0x100 DUP1 DUP4 SLOAD DIV MUL DUP4 MSTORE SWAP2 PUSH1 0x20 ADD SWAP2 PUSH2 0x3A71 JUMP JUMPDEST DUP3 ADD SWAP2 SWAP1 PUSH1 0x0 MSTORE PUSH1 0x20 PUSH1 0x0 KECCAK256 SWAP1 JUMPDEST DUP2 SLOAD DUP2 MSTORE SWAP1 PUSH1 0x1 ADD SWAP1 PUSH1 0x20 ADD DUP1 DUP4 GT PUSH2 0x3A54 JUMPI DUP3 SWAP1 SUB PUSH1 0x1F AND DUP3 ADD SWAP2 JUMPDEST POP POP POP POP POP DUP2 MSTORE PUSH1 0x20 ADD PUSH1 0x1 DUP3 ADD DUP1 SLOAD PUSH2 0x3A8A SWAP1 PUSH2 0x5A8F JUMP JUMPDEST DUP1 PUSH1 0x1F ADD PUSH1 0x20 DUP1 SWAP2 DIV MUL PUSH1 0x20 ADD PUSH1 0x40 MLOAD SWAP1 DUP2 ADD PUSH1 0x40 MSTORE DUP1 SWAP3 SWAP2 SWAP1 DUP2 DUP2 MSTORE PUSH1 0x20 ADD DUP3 DUP1 SLOAD PUSH2 0x3AB6 SWAP1 PUSH2 0x5A8F JUMP JUMPDEST DUP1 ISZERO PUSH2 0x3B03 JUMPI DUP1 PUSH1 0x1F LT PUSH2 0x3AD8 JUMPI PUSH2 0x100 DUP1 DUP4 SLOAD DIV MUL DUP4 MSTORE SWAP2 PUSH1 0x20 ADD SWAP2 PUSH2 0x3B03 JUMP JUMPDEST DUP3 ADD SWAP2 SWAP1 PUSH1 0x0 MSTORE PUSH1 0x20 PUSH1 0x0 KECCAK256 SWAP1 JUMPDEST DUP2 SLOAD DUP2 MSTORE SWAP1 PUSH1 0x1 ADD SWAP1 PUSH1 0x20 ADD DUP1 DUP4 GT PUSH2 0x3AE6 JUMPI DUP3 SWAP1 SUB PUSH1 0x1F AND DUP3 ADD SWAP2 JUMPDEST POP POP POP POP POP DUP2 MSTORE PUSH1 0x20 ADD PUSH1 0x2 DUP3 ADD DUP1 SLOAD DUP1 PUSH1 0x20 MUL PUSH1 0x20 ADD PUSH1 0x40 MLOAD SWAP1 DUP2 ADD PUSH1 0x40 MSTORE DUP1 SWAP3 SWAP2 SWAP1 DUP2 DUP2 MSTORE PUSH1 0x20 ADD DUP3 DUP1 SLOAD DUP1 ISZERO PUSH2 0x3B5B JUMPI PUSH1 0x20 MUL DUP3 ADD SWAP2 SWAP1 PUSH1 0x0 MSTORE PUSH1 0x20 PUSH1 0x0 KECCAK256 SWAP1 JUMPDEST DUP2 SLOAD DUP2 MSTORE PUSH1 0x20 ADD SWAP1 PUSH1 0x1 ADD SWAP1 DUP1 DUP4 GT PUSH2 0x3B47 JUMPI JUMPDEST POP POP POP POP POP DUP2 MSTORE PUSH1 0x20 ADD PUSH1 0x3 DUP3 ADD DUP1 SLOAD DUP1 PUSH1 0x20 MUL PUSH1 0x20 ADD PUSH1 0x40 MLOAD SWAP1 DUP2 ADD PUSH1 0x40 MSTORE DUP1 SWAP3 SWAP2 SWAP1 DUP2 DUP2 MSTORE PUSH1 0x20 ADD DUP3 DUP1 SLOAD DUP1 ISZERO PUSH2 0x3BB3 JUMPI PUSH1 0x20 MUL DUP3 ADD SWAP2 SWAP1 PUSH1 0x0 MSTORE PUSH1 0x20 PUSH1 0x0 KECCAK256 SWAP1 JUMPDEST DUP2 SLOAD DUP2 MSTORE PUSH1 0x20 ADD SWAP1 PUSH1 0x1 ADD SWAP1 DUP1 DUP4 GT PUSH2 0x3B9F JUMPI JUMPDEST POP POP POP POP POP DUP2 MSTORE POP POP DUP2 MSTORE PUSH1 0x20 ADD SWAP1 PUSH1 0x1 ADD SWAP1 PUSH2 0x39C5 JUMP JUMPDEST PUSH1 0x4 SLOAD PUSH1 0x1 PUSH1 0x1 PUSH1 0xA0 SHL SUB AND CALLER EQ PUSH2 0x3BF5 JUMPI PUSH1 0x40 MLOAD PUSH3 0x461BCD PUSH1 0xE5 SHL DUP2 MSTORE PUSH1 0x4 ADD PUSH2 0x5ED SWAP1 PUSH2 0x5B3F JUMP JUMPDEST PUSH1 0x0 JUMPDEST PUSH1 0x12 SLOAD DUP2 LT ISZERO PUSH2 0x3CB3 JUMPI DUP6 PUSH1 0x12 DUP3 DUP2 SLOAD DUP2 LT PUSH2 0x3C16 JUMPI PUSH2 0x3C16 PUSH2 0x5BAD JUMP JUMPDEST SWAP1 PUSH1 0x0 MSTORE PUSH1 0x20 PUSH1 0x0 KECCAK256 SWAP1 PUSH1 0x7 MUL ADD PUSH1 0x1 ADD SLOAD SUB PUSH2 0x3CAB JUMPI PUSH1 0x40 MLOAD PUSH3 0x461BCD PUSH1 0xE5 SHL DUP2 MSTORE PUSH1 0x20 PUSH1 0x4 DUP3 ADD MSTORE PUSH1 0x47 PUSH1 0x24 DUP3 ADD MSTORE PUSH32 0xD090D183D0BAD186D0B8D0BED0BD20D18120D182D0B0D0BAD0BED0B920D0BAD0 PUSH1 0x44 DUP3 ADD MSTORE PUSH32 0xBED0BBD0BBD0B5D0BAD186D0B8D0B5D0B920D183D0B6D0B520D0B7D0B0D0BFD1 PUSH1 0x64 DUP3 ADD MSTORE PUSH7 0x83D189D0B5D0BD PUSH1 0xC8 SHL PUSH1 0x84 DUP3 ADD MSTORE PUSH1 0xA4 ADD PUSH2 0x5ED JUMP JUMPDEST PUSH1 0x1 ADD PUSH2 0x3BF8 JUMP JUMPDEST POP PUSH1 0x40 DUP1 MLOAD PUSH1 0xE0 DUP2 ADD DUP3 MSTORE PUSH1 0x12 DUP1 SLOAD DUP1 DUP4 MSTORE PUSH1 0x20 DUP4 ADD SWAP9 DUP10 MSTORE SWAP3 DUP3 ADD SWAP7 DUP8 MSTORE PUSH1 0x60 DUP3 ADD SWAP6 DUP7 MSTORE PUSH1 0x80 DUP3 ADD SWAP5 DUP6 MSTORE PUSH1 0x4 SLOAD PUSH1 0x1 PUSH1 0x1 PUSH1 0xA0 SHL SUB SWAP1 DUP2 AND PUSH1 0xA0 DUP5 ADD SWAP1 DUP2 MSTORE PUSH1 0xC0 DUP5 ADD SWAP6 DUP7 MSTORE PUSH1 0x1 DUP6 ADD DUP4 SSTORE PUSH1 0x0 SWAP3 SWAP1 SWAP3 MSTORE SWAP2 MLOAD PUSH32 0xBB8A6A4669BA250D26CD7A459ECA9D215F8307E33AEBE50379BC5A3617EC3444 PUSH1 0x7 SWAP1 SWAP5 MUL SWAP4 DUP5 ADD SSTORE SWAP7 MLOAD PUSH32 0xBB8A6A4669BA250D26CD7A459ECA9D215F8307E33AEBE50379BC5A3617EC3445 DUP4 ADD SSTORE SWAP5 MLOAD PUSH32 0xBB8A6A4669BA250D26CD7A459ECA9D215F8307E33AEBE50379BC5A3617EC3446 DUP3 ADD SSTORE SWAP3 MLOAD PUSH32 0xBB8A6A4669BA250D26CD7A459ECA9D215F8307E33AEBE50379BC5A3617EC3447 DUP5 ADD SSTORE SWAP1 MLOAD PUSH32 0xBB8A6A4669BA250D26CD7A459ECA9D215F8307E33AEBE50379BC5A3617EC3448 DUP4 ADD SSTORE SWAP3 MLOAD PUSH32 0xBB8A6A4669BA250D26CD7A459ECA9D215F8307E33AEBE50379BC5A3617EC3449 DUP3 ADD DUP1 SLOAD PUSH1 0x1 PUSH1 0x1 PUSH1 0xA0 SHL SUB NOT AND SWAP2 SWAP1 SWAP4 AND OR SWAP1 SWAP2 SSTORE SWAP1 MLOAD PUSH32 0xBB8A6A4669BA250D26CD7A459ECA9D215F8307E33AEBE50379BC5A3617EC344A SWAP1 SWAP2 ADD SSTORE JUMP JUMPDEST PUSH1 0x4 SLOAD PUSH1 0x1 PUSH1 0x1 PUSH1 0xA0 SHL SUB AND CALLER EQ PUSH2 0x3E58 JUMPI PUSH1 0x40 MLOAD PUSH3 0x461BCD PUSH1 0xE5 SHL DUP2 MSTORE PUSH1 0x4 ADD PUSH2 0x5ED SWAP1 PUSH2 0x5B3F JUMP JUMPDEST PUSH1 0x12 DUP2 DUP2 SLOAD DUP2 LT PUSH2 0x3E6B JUMPI PUSH2 0x3E6B PUSH2 0x5BAD JUMP JUMPDEST SWAP1 PUSH1 0x0 MSTORE PUSH1 0x20 PUSH1 0x0 KECCAK256 SWAP1 PUSH1 0x7 MUL ADD PUSH1 0x4 ADD SLOAD DUP1 PUSH1 0x0 SUB PUSH2 0x3E9D JUMPI PUSH1 0x40 MLOAD PUSH3 0x461BCD PUSH1 0xE5 SHL DUP2 MSTORE PUSH1 0x4 ADD PUSH2 0x5ED SWAP1 PUSH2 0x5CF8 JUMP JUMPDEST PUSH1 0x12 DUP3 DUP2 SLOAD DUP2 LT PUSH2 0x3EB0 JUMPI PUSH2 0x3EB0 PUSH2 0x5BAD JUMP JUMPDEST SWAP1 PUSH1 0x0 MSTORE PUSH1 0x20 PUSH1 0x0 KECCAK256 SWAP1 PUSH1 0x7 MUL ADD PUSH1 0x4 ADD SLOAD PUSH1 0x0 EQ DUP1 PUSH2 0x3F08 JUMPI POP PUSH1 0x0 PUSH1 0x1 PUSH1 0x1 PUSH1 0xA0 SHL SUB AND PUSH1 0x12 DUP4 DUP2 SLOAD DUP2 LT PUSH2 0x3EE9 JUMPI PUSH2 0x3EE9 PUSH2 0x5BAD JUMP JUMPDEST PUSH1 0x0 SWAP2 DUP3 MSTORE PUSH1 0x20 SWAP1 SWAP2 KECCAK256 PUSH1 0x5 PUSH1 0x7 SWAP1 SWAP3 MUL ADD ADD SLOAD PUSH1 0x1 PUSH1 0x1 PUSH1 0xA0 SHL SUB AND EQ JUMPDEST PUSH2 0x3F68 JUMPI PUSH1 0x40 MLOAD PUSH3 0x461BCD PUSH1 0xE5 SHL DUP2 MSTORE PUSH1 0x20 PUSH1 0x4 DUP3 ADD MSTORE PUSH1 0x2B PUSH1 0x24 DUP3 ADD MSTORE PUSH32 0xD090D183D0BAD186D0B8D0BED0BD20D0B5D189D19120D0BDD0B520D0B7D0B0D0 PUSH1 0x44 DUP3 ADD MSTORE PUSH11 0xB2D0B5D180D188D0B5D0BD PUSH1 0xA8 SHL PUSH1 0x64 DUP3 ADD MSTORE PUSH1 0x84 ADD PUSH2 0x5ED JUMP JUMPDEST CALLER PUSH1 0x1 PUSH1 0x1 PUSH1 0xA0 SHL SUB AND PUSH1 0x12 DUP4 DUP2 SLOAD DUP2 LT PUSH2 0x3F85 JUMPI PUSH2 0x3F85 PUSH2 0x5BAD JUMP JUMPDEST PUSH1 0x0 SWAP2 DUP3 MSTORE PUSH1 0x20 SWAP1 SWAP2 KECCAK256 PUSH1 0x5 PUSH1 0x7 SWAP1 SWAP3 MUL ADD ADD SLOAD PUSH1 0x1 PUSH1 0x1 PUSH1 0xA0 SHL SUB AND EQ PUSH2 0x4008 JUMPI PUSH1 0x40 MLOAD PUSH3 0x461BCD PUSH1 0xE5 SHL DUP2 MSTORE PUSH1 0x20 PUSH1 0x4 DUP3 ADD MSTORE PUSH1 0x30 PUSH1 0x24 DUP3 ADD MSTORE PUSH32 0xD092D18B20D0BDD0B520D0BFD0BED0B1D0B5D0B4D0B8D182D0B5D0BBD18C20D0 PUSH1 0x44 DUP3 ADD MSTORE PUSH16 0x5868C1E85D68C3685C685F685EE8581 PUSH1 0x85 SHL PUSH1 0x64 DUP3 ADD MSTORE PUSH1 0x84 ADD PUSH2 0x5ED JUMP JUMPDEST PUSH1 0x4 SLOAD PUSH1 0x12 DUP1 SLOAD PUSH2 0x40CA SWAP3 PUSH1 0x1 PUSH1 0x1 PUSH1 0xA0 SHL SUB AND SWAP2 CALLER SWAP2 PUSH1 0x11 SWAP2 SWAP1 DUP8 SWAP1 DUP2 LT PUSH2 0x4033 JUMPI PUSH2 0x4033 PUSH2 0x5BAD JUMP JUMPDEST SWAP1 PUSH1 0x0 MSTORE PUSH1 0x20 PUSH1 0x0 KECCAK256 SWAP1 PUSH1 0x7 MUL ADD PUSH1 0x1 ADD SLOAD DUP2 SLOAD DUP2 LT PUSH2 0x4055 JUMPI PUSH2 0x4055 PUSH2 0x5BAD JUMP JUMPDEST SWAP1 PUSH1 0x0 MSTORE PUSH1 0x20 PUSH1 0x0 KECCAK256 SWAP1 PUSH1 0x4 MUL ADD PUSH1 0x2 ADD DUP1 SLOAD DUP1 PUSH1 0x20 MUL PUSH1 0x20 ADD PUSH1 0x40 MLOAD SWAP1 DUP2 ADD PUSH1 0x40 MSTORE DUP1 SWAP3 SWAP2 SWAP1 DUP2 DUP2 MSTORE PUSH1 0x20 ADD DUP3 DUP1 SLOAD DUP1 ISZERO PUSH2 0x40B0 JUMPI PUSH1 0x20 MUL DUP3 ADD SWAP2 SWAP1 PUSH1 0x0 MSTORE PUSH1 0x20 PUSH1 0x0 KECCAK256 SWAP1 JUMPDEST DUP2 SLOAD DUP2 MSTORE PUSH1 0x20 ADD SWAP1 PUSH1 0x1 ADD SWAP1 DUP1 DUP4 GT PUSH2 0x409C JUMPI JUMPDEST POP POP POP POP POP PUSH1 0x11 PUSH1 0x12 DUP8 DUP2 SLOAD DUP2 LT PUSH2 0x6ED JUMPI PUSH2 0x6ED PUSH2 0x5BAD JUMP JUMPDEST PUSH1 0x0 JUMPDEST PUSH1 0x11 PUSH1 0x12 DUP5 DUP2 SLOAD DUP2 LT PUSH2 0x40E2 JUMPI PUSH2 0x40E2 PUSH2 0x5BAD JUMP JUMPDEST SWAP1 PUSH1 0x0 MSTORE PUSH1 0x20 PUSH1 0x0 KECCAK256 SWAP1 PUSH1 0x7 MUL ADD PUSH1 0x1 ADD SLOAD DUP2 SLOAD DUP2 LT PUSH2 0x4104 JUMPI PUSH2 0x4104 PUSH2 0x5BAD JUMP JUMPDEST SWAP1 PUSH1 0x0 MSTORE PUSH1 0x20 PUSH1 0x0 KECCAK256 SWAP1 PUSH1 0x4 MUL ADD PUSH1 0x2 ADD DUP1 SLOAD SWAP1 POP DUP2 LT ISZERO PUSH2 0x4790 JUMPI PUSH1 0x9 PUSH1 0x0 CALLER PUSH1 0x1 PUSH1 0x1 PUSH1 0xA0 SHL SUB AND PUSH1 0x1 PUSH1 0x1 PUSH1 0xA0 SHL SUB AND DUP2 MSTORE PUSH1 0x20 ADD SWAP1 DUP2 MSTORE PUSH1 0x20 ADD PUSH1 0x0 KECCAK256 PUSH1 0x40 MLOAD DUP1 PUSH2 0x100 ADD PUSH1 0x40 MSTORE DUP1 PUSH1 0x9 PUSH1 0x0 PUSH1 0x12 DUP9 DUP2 SLOAD DUP2 LT PUSH2 0x4168 JUMPI PUSH2 0x4168 PUSH2 0x5BAD JUMP JUMPDEST SWAP1 PUSH1 0x0 MSTORE PUSH1 0x20 PUSH1 0x0 KECCAK256 SWAP1 PUSH1 0x7 MUL ADD PUSH1 0x5 ADD PUSH1 0x0 SWAP1 SLOAD SWAP1 PUSH2 0x100 EXP SWAP1 DIV PUSH1 0x1 PUSH1 0x1 PUSH1 0xA0 SHL SUB AND PUSH1 0x1 PUSH1 0x1 PUSH1 0xA0 SHL SUB AND PUSH1 0x1 PUSH1 0x1 PUSH1 0xA0 SHL SUB AND DUP2 MSTORE PUSH1 0x20 ADD SWAP1 DUP2 MSTORE PUSH1 0x20 ADD PUSH1 0x0 KECCAK256 DUP1 SLOAD SWAP1 POP DUP2 MSTORE PUSH1 0x20 ADD PUSH1 0x8 PUSH1 0x0 PUSH1 0xA PUSH1 0x0 PUSH1 0x12 DUP11 DUP2 SLOAD DUP2 LT PUSH2 0x41D1 JUMPI PUSH2 0x41D1 PUSH2 0x5BAD JUMP JUMPDEST SWAP1 PUSH1 0x0 MSTORE PUSH1 0x20 PUSH1 0x0 KECCAK256 SWAP1 PUSH1 0x7 MUL ADD PUSH1 0x1 ADD SLOAD DUP2 MSTORE PUSH1 0x20 ADD SWAP1 DUP2 MSTORE PUSH1 0x20 ADD PUSH1 0x0 KECCAK256 PUSH1 0x2 ADD DUP7 DUP2 SLOAD DUP2 LT PUSH2 0x4205 JUMPI PUSH2 0x4205 PUSH2 0x5BAD JUMP JUMPDEST SWAP1 PUSH1 0x0 MSTORE PUSH1 0x20 PUSH1 0x0 KECCAK256 ADD SLOAD DUP2 MSTORE PUSH1 0x20 ADD SWAP1 DUP2 MSTORE PUSH1 0x20 ADD PUSH1 0x0 KECCAK256 PUSH1 0x1 ADD DUP1 SLOAD PUSH2 0x422C SWAP1 PUSH2 0x5A8F JUMP JUMPDEST DUP1 PUSH1 0x1F ADD PUSH1 0x20 DUP1 SWAP2 DIV MUL PUSH1 0x20 ADD PUSH1 0x40 MLOAD SWAP1 DUP2 ADD PUSH1 0x40 MSTORE DUP1 SWAP3 SWAP2 SWAP1 DUP2 DUP2 MSTORE PUSH1 0x20 ADD DUP3 DUP1 SLOAD PUSH2 0x4258 SWAP1 PUSH2 0x5A8F JUMP JUMPDEST DUP1 ISZERO PUSH2 0x42A5 JUMPI DUP1 PUSH1 0x1F LT PUSH2 0x427A JUMPI PUSH2 0x100 DUP1 DUP4 SLOAD DIV MUL DUP4 MSTORE SWAP2 PUSH1 0x20 ADD SWAP2 PUSH2 0x42A5 JUMP JUMPDEST DUP3 ADD SWAP2 SWAP1 PUSH1 0x0 MSTORE PUSH1 0x20 PUSH1 0x0 KECCAK256 SWAP1 JUMPDEST DUP2 SLOAD DUP2 MSTORE SWAP1 PUSH1 0x1 ADD SWAP1 PUSH1 0x20 ADD DUP1 DUP4 GT PUSH2 0x4288 JUMPI DUP3 SWAP1 SUB PUSH1 0x1F AND DUP3 ADD SWAP2 JUMPDEST POP POP POP POP POP DUP2 MSTORE PUSH1 0x20 ADD PUSH1 0x8 PUSH1 0x0 PUSH1 0xA PUSH1 0x0 PUSH1 0x12 DUP11 DUP2 SLOAD DUP2 LT PUSH2 0x42CA JUMPI PUSH2 0x42CA PUSH2 0x5BAD JUMP JUMPDEST SWAP1 PUSH1 0x0 MSTORE PUSH1 0x20 PUSH1 0x0 KECCAK256 SWAP1 PUSH1 0x7 MUL ADD PUSH1 0x1 ADD SLOAD DUP2 MSTORE PUSH1 0x20 ADD SWAP1 DUP2 MSTORE PUSH1 0x20 ADD PUSH1 0x0 KECCAK256 PUSH1 0x2 ADD DUP7 DUP2 SLOAD DUP2 LT PUSH2 0x42FE JUMPI PUSH2 0x42FE PUSH2 0x5BAD JUMP JUMPDEST SWAP1 PUSH1 0x0 MSTORE PUSH1 0x20 PUSH1 0x0 KECCAK256 ADD SLOAD DUP2 MSTORE PUSH1 0x20 ADD SWAP1 DUP2 MSTORE PUSH1 0x20 ADD PUSH1 0x0 KECCAK256 PUSH1 0x2 ADD DUP1 SLOAD PUSH2 0x4325 SWAP1 PUSH2 0x5A8F JUMP JUMPDEST DUP1 PUSH1 0x1F ADD PUSH1 0x20 DUP1 SWAP2 DIV MUL PUSH1 0x20 ADD PUSH1 0x40 MLOAD SWAP1 DUP2 ADD PUSH1 0x40 MSTORE DUP1 SWAP3 SWAP2 SWAP1 DUP2 DUP2 MSTORE PUSH1 0x20 ADD DUP3 DUP1 SLOAD PUSH2 0x4351 SWAP1 PUSH2 0x5A8F JUMP JUMPDEST DUP1 ISZERO PUSH2 0x439E JUMPI DUP1 PUSH1 0x1F LT PUSH2 0x4373 JUMPI PUSH2 0x100 DUP1 DUP4 SLOAD DIV MUL DUP4 MSTORE SWAP2 PUSH1 0x20 ADD SWAP2 PUSH2 0x439E JUMP JUMPDEST DUP3 ADD SWAP2 SWAP1 PUSH1 0x0 MSTORE PUSH1 0x20 PUSH1 0x0 KECCAK256 SWAP1 JUMPDEST DUP2 SLOAD DUP2 MSTORE SWAP1 PUSH1 0x1 ADD SWAP1 PUSH1 0x20 ADD DUP1 DUP4 GT PUSH2 0x4381 JUMPI DUP3 SWAP1 SUB PUSH1 0x1F AND DUP3 ADD SWAP2 JUMPDEST POP POP POP POP POP DUP2 MSTORE PUSH1 0x20 ADD PUSH1 0x8 PUSH1 0x0 PUSH1 0xA PUSH1 0x0 PUSH1 0x12 DUP11 DUP2 SLOAD DUP2 LT PUSH2 0x43C3 JUMPI PUSH2 0x43C3 PUSH2 0x5BAD JUMP JUMPDEST SWAP1 PUSH1 0x0 MSTORE PUSH1 0x20 PUSH1 0x0 KECCAK256 SWAP1 PUSH1 0x7 MUL ADD PUSH1 0x1 ADD SLOAD DUP2 MSTORE PUSH1 0x20 ADD SWAP1 DUP2 MSTORE PUSH1 0x20 ADD PUSH1 0x0 KECCAK256 PUSH1 0x2 ADD DUP7 DUP2 SLOAD DUP2 LT PUSH2 0x43F7 JUMPI PUSH2 0x43F7 PUSH2 0x5BAD JUMP JUMPDEST SWAP1 PUSH1 0x0 MSTORE PUSH1 0x20 PUSH1 0x0 KECCAK256 ADD SLOAD DUP2 MSTORE PUSH1 0x20 ADD SWAP1 DUP2 MSTORE PUSH1 0x20 ADD PUSH1 0x0 KECCAK256 PUSH1 0x3 ADD DUP1 SLOAD PUSH2 0x441E SWAP1 PUSH2 0x5A8F JUMP JUMPDEST DUP1 PUSH1 0x1F ADD PUSH1 0x20 DUP1 SWAP2 DIV MUL PUSH1 0x20 ADD PUSH1 0x40 MLOAD SWAP1 DUP2 ADD PUSH1 0x40 MSTORE DUP1 SWAP3 SWAP2 SWAP1 DUP2 DUP2 MSTORE PUSH1 0x20 ADD DUP3 DUP1 SLOAD PUSH2 0x444A SWAP1 PUSH2 0x5A8F JUMP JUMPDEST DUP1 ISZERO PUSH2 0x4497 JUMPI DUP1 PUSH1 0x1F LT PUSH2 0x446C JUMPI PUSH2 0x100 DUP1 DUP4 SLOAD DIV MUL DUP4 MSTORE SWAP2 PUSH1 0x20 ADD SWAP2 PUSH2 0x4497 JUMP JUMPDEST DUP3 ADD SWAP2 SWAP1 PUSH1 0x0 MSTORE PUSH1 0x20 PUSH1 0x0 KECCAK256 SWAP1 JUMPDEST DUP2 SLOAD DUP2 MSTORE SWAP1 PUSH1 0x1 ADD SWAP1 PUSH1 0x20 ADD DUP1 DUP4 GT PUSH2 0x447A JUMPI DUP3 SWAP1 SUB PUSH1 0x1F AND DUP3 ADD SWAP2 JUMPDEST POP POP POP POP POP DUP2 MSTORE PUSH1 0x20 ADD PUSH1 0x8 PUSH1 0x0 PUSH1 0xA PUSH1 0x0 PUSH1 0x12 DUP11 DUP2 SLOAD DUP2 LT PUSH2 0x44BC JUMPI PUSH2 0x44BC PUSH2 0x5BAD JUMP JUMPDEST SWAP1 PUSH1 0x0 MSTORE PUSH1 0x20 PUSH1 0x0 KECCAK256 SWAP1 PUSH1 0x7 MUL ADD PUSH1 0x1 ADD SLOAD DUP2 MSTORE PUSH1 0x20 ADD SWAP1 DUP2 MSTORE PUSH1 0x20 ADD PUSH1 0x0 KECCAK256 PUSH1 0x2 ADD DUP7 DUP2 SLOAD DUP2 LT PUSH2 0x44F0 JUMPI PUSH2 0x44F0 PUSH2 0x5BAD JUMP JUMPDEST SWAP1 PUSH1 0x0 MSTORE PUSH1 0x20 PUSH1 0x0 KECCAK256 ADD SLOAD DUP2 MSTORE PUSH1 0x20 ADD SWAP1 DUP2 MSTORE PUSH1 0x20 ADD PUSH1 0x0 KECCAK256 PUSH1 0x5 ADD SLOAD DUP2 MSTORE PUSH1 0x20 ADD PUSH1 0x3 SLOAD PUSH1 0x1 PUSH2 0x4521 SWAP2 SWAP1 PUSH2 0x5BD9 JUMP JUMPDEST DUP2 MSTORE PUSH1 0x20 ADD PUSH1 0x8 PUSH1 0x0 PUSH1 0xA PUSH1 0x0 PUSH1 0x12 DUP11 DUP2 SLOAD DUP2 LT PUSH2 0x4541 JUMPI PUSH2 0x4541 PUSH2 0x5BAD JUMP JUMPDEST SWAP1 PUSH1 0x0 MSTORE PUSH1 0x20 PUSH1 0x0 KECCAK256 SWAP1 PUSH1 0x7 MUL ADD PUSH1 0x1 ADD SLOAD DUP2 MSTORE PUSH1 0x20 ADD SWAP1 DUP2 MSTORE PUSH1 0x20 ADD PUSH1 0x0 KECCAK256 PUSH1 0x2 ADD DUP7 DUP2 SLOAD DUP2 LT PUSH2 0x4575 JUMPI PUSH2 0x4575 PUSH2 0x5BAD JUMP JUMPDEST SWAP1 PUSH1 0x0 MSTORE PUSH1 0x20 PUSH1 0x0 KECCAK256 ADD SLOAD DUP2 MSTORE PUSH1 0x20 ADD SWAP1 DUP2 MSTORE PUSH1 0x20 ADD PUSH1 0x0 KECCAK256 PUSH1 0x6 ADD SLOAD DUP2 MSTORE PUSH1 0x20 ADD PUSH1 0x8 PUSH1 0x0 PUSH1 0xA PUSH1 0x0 PUSH1 0x12 DUP11 DUP2 SLOAD DUP2 LT PUSH2 0x45B2 JUMPI PUSH2 0x45B2 PUSH2 0x5BAD JUMP JUMPDEST SWAP1 PUSH1 0x0 MSTORE PUSH1 0x20 PUSH1 0x0 KECCAK256 SWAP1 PUSH1 0x7 MUL ADD PUSH1 0x1 ADD SLOAD DUP2 MSTORE PUSH1 0x20 ADD SWAP1 DUP2 MSTORE PUSH1 0x20 ADD PUSH1 0x0 KECCAK256 PUSH1 0x2 ADD DUP7 DUP2 SLOAD DUP2 LT PUSH2 0x45E6 JUMPI PUSH2 0x45E6 PUSH2 0x5BAD JUMP JUMPDEST PUSH1 0x0 SWAP2 DUP3 MSTORE PUSH1 0x20 DUP1 DUP4 KECCAK256 SWAP1 SWAP2 ADD SLOAD DUP4 MSTORE DUP3 DUP2 ADD SWAP4 SWAP1 SWAP4 MSTORE PUSH1 0x40 SWAP1 SWAP2 ADD DUP2 KECCAK256 PUSH1 0x7 ADD SLOAD SWAP1 SWAP3 MSTORE DUP4 SLOAD PUSH1 0x1 DUP2 DUP2 ADD DUP7 SSTORE SWAP5 DUP4 MSTORE SWAP2 DUP2 SWAP1 KECCAK256 DUP4 MLOAD PUSH1 0x8 SWAP1 SWAP4 MUL ADD SWAP2 DUP3 SSTORE DUP3 ADD MLOAD SWAP2 SWAP3 SWAP1 SWAP2 SWAP1 DUP3 ADD SWAP1 PUSH2 0x463B SWAP1 DUP3 PUSH2 0x5C38 JUMP JUMPDEST POP PUSH1 0x40 DUP3 ADD MLOAD PUSH1 0x2 DUP3 ADD SWAP1 PUSH2 0x4650 SWAP1 DUP3 PUSH2 0x5C38 JUMP JUMPDEST POP PUSH1 0x60 DUP3 ADD MLOAD PUSH1 0x3 DUP3 ADD SWAP1 PUSH2 0x4665 SWAP1 DUP3 PUSH2 0x5C38 JUMP JUMPDEST POP PUSH1 0x80 DUP3 ADD MLOAD PUSH1 0x4 DUP1 DUP4 ADD SWAP2 SWAP1 SWAP2 SSTORE PUSH1 0xA0 DUP4 ADD MLOAD PUSH1 0x5 DUP4 ADD SSTORE PUSH1 0xC0 DUP4 ADD MLOAD PUSH1 0x6 DUP4 ADD SSTORE PUSH1 0xE0 SWAP1 SWAP3 ADD MLOAD PUSH1 0x7 SWAP1 SWAP2 ADD SSTORE SLOAD PUSH1 0x1 PUSH1 0x1 PUSH1 0xA0 SHL SUB AND PUSH1 0x0 SWAP1 DUP2 MSTORE PUSH1 0x9 PUSH1 0x20 MSTORE PUSH1 0x40 DUP2 KECCAK256 PUSH1 0x12 DUP1 SLOAD SWAP2 SWAP3 PUSH1 0x8 SWAP3 SWAP1 SWAP2 PUSH1 0xA SWAP2 DUP4 SWAP2 SWAP1 DUP10 SWAP1 DUP2 LT PUSH2 0x46CD JUMPI PUSH2 0x46CD PUSH2 0x5BAD JUMP JUMPDEST SWAP1 PUSH1 0x0 MSTORE PUSH1 0x20 PUSH1 0x0 KECCAK256 SWAP1 PUSH1 0x7 MUL ADD PUSH1 0x1 ADD SLOAD DUP2 MSTORE PUSH1 0x20 ADD SWAP1 DUP2 MSTORE PUSH1 0x20 ADD PUSH1 0x0 KECCAK256 PUSH1 0x2 ADD DUP5 DUP2 SLOAD DUP2 LT PUSH2 0x4701 JUMPI PUSH2 0x4701 PUSH2 0x5BAD JUMP JUMPDEST SWAP1 PUSH1 0x0 MSTORE PUSH1 0x20 PUSH1 0x0 KECCAK256 ADD SLOAD DUP2 MSTORE PUSH1 0x20 ADD SWAP1 DUP2 MSTORE PUSH1 0x20 ADD PUSH1 0x0 KECCAK256 PUSH1 0x0 ADD SLOAD DUP2 SLOAD DUP2 LT PUSH2 0x472E JUMPI PUSH2 0x472E PUSH2 0x5BAD JUMP JUMPDEST PUSH1 0x0 SWAP2 DUP3 MSTORE PUSH1 0x20 DUP3 KECCAK256 PUSH1 0x8 SWAP1 SWAP2 MUL ADD DUP2 DUP2 SSTORE SWAP1 PUSH2 0x474E PUSH1 0x1 DUP4 ADD DUP3 PUSH2 0x4E34 JUMP JUMPDEST PUSH2 0x475C PUSH1 0x2 DUP4 ADD PUSH1 0x0 PUSH2 0x4E34 JUMP JUMPDEST PUSH2 0x476A PUSH1 0x3 DUP4 ADD PUSH1 0x0 PUSH2 0x4E34 JUMP JUMPDEST POP PUSH1 0x0 PUSH1 0x4 DUP3 ADD DUP2 SWAP1 SSTORE PUSH1 0x5 DUP3 ADD DUP2 SWAP1 SSTORE PUSH1 0x6 DUP3 ADD DUP2 SWAP1 SSTORE PUSH1 0x7 SWAP1 SWAP2 ADD SSTORE PUSH1 0x1 ADD PUSH2 0x40CD JUMP JUMPDEST POP PUSH1 0x0 PUSH1 0x12 DUP4 DUP2 SLOAD DUP2 LT PUSH2 0x47A6 JUMPI PUSH2 0x47A6 PUSH2 0x5BAD JUMP JUMPDEST SWAP1 PUSH1 0x0 MSTORE PUSH1 0x20 PUSH1 0x0 KECCAK256 SWAP1 PUSH1 0x7 MUL ADD PUSH1 0x5 ADD PUSH1 0x0 PUSH2 0x100 EXP DUP2 SLOAD DUP2 PUSH1 0x1 PUSH1 0x1 PUSH1 0xA0 SHL SUB MUL NOT AND SWAP1 DUP4 PUSH1 0x1 PUSH1 0x1 PUSH1 0xA0 SHL SUB AND MUL OR SWAP1 SSTORE POP POP POP JUMP JUMPDEST PUSH1 0x1 PUSH1 0x1 PUSH1 0xA0 SHL SUB DUP5 AND PUSH2 0x4809 JUMPI PUSH1 0x40 MLOAD PUSH4 0x2BFA23E7 PUSH1 0xE1 SHL DUP2 MSTORE PUSH1 0x0 PUSH1 0x4 DUP3 ADD MSTORE PUSH1 0x24 ADD PUSH2 0x5ED JUMP JUMPDEST PUSH1 0x1 PUSH1 0x1 PUSH1 0xA0 SHL SUB DUP6 AND PUSH2 0x4832 JUMPI PUSH1 0x40 MLOAD PUSH3 0x6A0D45 PUSH1 0xE2 SHL DUP2 MSTORE PUSH1 0x0 PUSH1 0x4 DUP3 ADD MSTORE PUSH1 0x24 ADD PUSH2 0x5ED JUMP JUMPDEST PUSH2 0x19D8 DUP6 DUP6 DUP6 DUP6 DUP6 PUSH2 0x49C0 JUMP JUMPDEST PUSH1 0x1 PUSH1 0x1 PUSH1 0xA0 SHL SUB DUP5 AND PUSH2 0x4869 JUMPI PUSH1 0x40 MLOAD PUSH4 0x2BFA23E7 PUSH1 0xE1 SHL DUP2 MSTORE PUSH1 0x0 PUSH1 0x4 DUP3 ADD MSTORE PUSH1 0x24 ADD PUSH2 0x5ED JUMP JUMPDEST PUSH1 0x40 DUP1 MLOAD PUSH1 0x1 DUP1 DUP3 MSTORE PUSH1 0x20 DUP3 ADD DUP7 SWAP1 MSTORE DUP2 DUP4 ADD SWAP1 DUP2 MSTORE PUSH1 0x60 DUP3 ADD DUP6 SWAP1 MSTORE PUSH1 0x80 DUP3 ADD SWAP1 SWAP3 MSTORE SWAP1 PUSH2 0x16E5 PUSH1 0x0 DUP8 DUP5 DUP5 DUP8 PUSH2 0x49C0 JUMP JUMPDEST PUSH1 0x1 PUSH1 0x1 PUSH1 0xA0 SHL SUB DUP5 AND PUSH2 0x48C6 JUMPI PUSH1 0x40 MLOAD PUSH4 0x2BFA23E7 PUSH1 0xE1 SHL DUP2 MSTORE PUSH1 0x0 PUSH1 0x4 DUP3 ADD MSTORE PUSH1 0x24 ADD PUSH2 0x5ED JUMP JUMPDEST PUSH1 0x1 PUSH1 0x1 PUSH1 0xA0 SHL SUB DUP6 AND PUSH2 0x48EF JUMPI PUSH1 0x40 MLOAD PUSH3 0x6A0D45 PUSH1 0xE2 SHL DUP2 MSTORE PUSH1 0x0 PUSH1 0x4 DUP3 ADD MSTORE PUSH1 0x24 ADD PUSH2 0x5ED JUMP JUMPDEST PUSH1 0x40 DUP1 MLOAD PUSH1 0x1 DUP1 DUP3 MSTORE PUSH1 0x20 DUP3 ADD DUP7 SWAP1 MSTORE DUP2 DUP4 ADD SWAP1 DUP2 MSTORE PUSH1 0x60 DUP3 ADD DUP6 SWAP1 MSTORE PUSH1 0x80 DUP3 ADD SWAP1 SWAP3 MSTORE SWAP1 PUSH2 0x4921 DUP8 DUP8 DUP5 DUP5 DUP8 PUSH2 0x49C0 JUMP JUMPDEST POP POP POP POP POP POP POP JUMP JUMPDEST PUSH1 0x1 PUSH1 0x1 PUSH1 0xA0 SHL SUB DUP3 AND PUSH2 0x4953 JUMPI PUSH1 0x40 MLOAD PUSH3 0xCED3E1 PUSH1 0xE8 SHL DUP2 MSTORE PUSH1 0x0 PUSH1 0x4 DUP3 ADD MSTORE PUSH1 0x24 ADD PUSH2 0x5ED JUMP JUMPDEST PUSH1 0x1 PUSH1 0x1 PUSH1 0xA0 SHL SUB DUP4 DUP2 AND PUSH1 0x0 DUP2 DUP2 MSTORE PUSH1 0x1 PUSH1 0x20 SWAP1 DUP2 MSTORE PUSH1 0x40 DUP1 DUP4 KECCAK256 SWAP5 DUP8 AND DUP1 DUP5 MSTORE SWAP5 DUP3 MSTORE SWAP2 DUP3 SWAP1 KECCAK256 DUP1 SLOAD PUSH1 0xFF NOT AND DUP7 ISZERO ISZERO SWAP1 DUP2 OR SWAP1 SWAP2 SSTORE SWAP2 MLOAD SWAP2 DUP3 MSTORE PUSH32 0x17307EAB39AB6107E8899845AD3D59BD9653F200F220920489CA2B5937696C31 SWAP2 ADD PUSH1 0x40 MLOAD DUP1 SWAP2 SUB SWAP1 LOG3 POP POP POP JUMP JUMPDEST PUSH2 0x49CC DUP6 DUP6 DUP6 DUP6 PUSH2 0x4A13 JUMP JUMPDEST PUSH1 0x1 PUSH1 0x1 PUSH1 0xA0 SHL SUB DUP5 AND ISZERO PUSH2 0x19D8 JUMPI DUP3 MLOAD CALLER SWAP1 PUSH1 0x1 SUB PUSH2 0x4A05 JUMPI PUSH1 0x20 DUP5 DUP2 ADD MLOAD SWAP1 DUP5 ADD MLOAD PUSH2 0x49FE DUP4 DUP10 DUP10 DUP6 DUP6 DUP10 PUSH2 0x4C27 JUMP JUMPDEST POP POP PUSH2 0x16E5 JUMP JUMPDEST PUSH2 0x16E5 DUP2 DUP8 DUP8 DUP8 DUP8 DUP8 PUSH2 0x4D4B JUMP JUMPDEST DUP1 MLOAD DUP3 MLOAD EQ PUSH2 0x4A42 JUMPI DUP2 MLOAD DUP2 MLOAD PUSH1 0x40 MLOAD PUSH4 0x5B059991 PUSH1 0xE0 SHL DUP2 MSTORE PUSH1 0x4 DUP2 ADD SWAP3 SWAP1 SWAP3 MSTORE PUSH1 0x24 DUP3 ADD MSTORE PUSH1 0x44 ADD PUSH2 0x5ED JUMP JUMPDEST CALLER PUSH1 0x0 JUMPDEST DUP4 MLOAD DUP2 LT ISZERO PUSH2 0x4B48 JUMPI PUSH1 0x20 DUP2 DUP2 MUL DUP6 DUP2 ADD DUP3 ADD MLOAD SWAP1 DUP6 ADD SWAP1 SWAP2 ADD MLOAD PUSH1 0x1 PUSH1 0x1 PUSH1 0xA0 SHL SUB DUP9 AND ISZERO PUSH2 0x4AF9 JUMPI PUSH1 0x0 DUP3 DUP2 MSTORE PUSH1 0x20 DUP2 DUP2 MSTORE PUSH1 0x40 DUP1 DUP4 KECCAK256 PUSH1 0x1 PUSH1 0x1 PUSH1 0xA0 SHL SUB DUP13 AND DUP5 MSTORE SWAP1 SWAP2 MSTORE SWAP1 KECCAK256 SLOAD DUP2 DUP2 LT ISZERO PUSH2 0x4AD2 JUMPI PUSH1 0x40 MLOAD PUSH4 0x3DEE4C5 PUSH1 0xE0 SHL DUP2 MSTORE PUSH1 0x1 PUSH1 0x1 PUSH1 0xA0 SHL SUB DUP11 AND PUSH1 0x4 DUP3 ADD MSTORE PUSH1 0x24 DUP2 ADD DUP3 SWAP1 MSTORE PUSH1 0x44 DUP2 ADD DUP4 SWAP1 MSTORE PUSH1 0x64 DUP2 ADD DUP5 SWAP1 MSTORE PUSH1 0x84 ADD PUSH2 0x5ED JUMP JUMPDEST PUSH1 0x0 DUP4 DUP2 MSTORE PUSH1 0x20 DUP2 DUP2 MSTORE PUSH1 0x40 DUP1 DUP4 KECCAK256 PUSH1 0x1 PUSH1 0x1 PUSH1 0xA0 SHL SUB DUP14 AND DUP5 MSTORE SWAP1 SWAP2 MSTORE SWAP1 KECCAK256 SWAP1 DUP3 SWAP1 SUB SWAP1 SSTORE JUMPDEST PUSH1 0x1 PUSH1 0x1 PUSH1 0xA0 SHL SUB DUP8 AND ISZERO PUSH2 0x4B3E JUMPI PUSH1 0x0 DUP3 DUP2 MSTORE PUSH1 0x20 DUP2 DUP2 MSTORE PUSH1 0x40 DUP1 DUP4 KECCAK256 PUSH1 0x1 PUSH1 0x1 PUSH1 0xA0 SHL SUB DUP12 AND DUP5 MSTORE SWAP1 SWAP2 MSTORE DUP2 KECCAK256 DUP1 SLOAD DUP4 SWAP3 SWAP1 PUSH2 0x4B38 SWAP1 DUP5 SWAP1 PUSH2 0x5D2F JUMP JUMPDEST SWAP1 SWAP2 SSTORE POP POP JUMPDEST POP POP PUSH1 0x1 ADD PUSH2 0x4A46 JUMP JUMPDEST POP DUP3 MLOAD PUSH1 0x1 SUB PUSH2 0x4BC9 JUMPI PUSH1 0x20 DUP4 ADD MLOAD PUSH1 0x0 SWAP1 PUSH1 0x20 DUP5 ADD MLOAD SWAP1 SWAP2 POP DUP6 PUSH1 0x1 PUSH1 0x1 PUSH1 0xA0 SHL SUB AND DUP8 PUSH1 0x1 PUSH1 0x1 PUSH1 0xA0 SHL SUB AND DUP5 PUSH1 0x1 PUSH1 0x1 PUSH1 0xA0 SHL SUB AND PUSH32 0xC3D58168C5AE7397731D063D5BBF3D657854427343F4C083240F7AACAA2D0F62 DUP6 DUP6 PUSH1 0x40 MLOAD PUSH2 0x4BBA SWAP3 SWAP2 SWAP1 SWAP2 DUP3 MSTORE PUSH1 0x20 DUP3 ADD MSTORE PUSH1 0x40 ADD SWAP1 JUMP JUMPDEST PUSH1 0x40 MLOAD DUP1 SWAP2 SUB SWAP1 LOG4 POP POP PUSH2 0x19D8 JUMP JUMPDEST DUP4 PUSH1 0x1 PUSH1 0x1 PUSH1 0xA0 SHL SUB AND DUP6 PUSH1 0x1 PUSH1 0x1 PUSH1 0xA0 SHL SUB AND DUP3 PUSH1 0x1 PUSH1 0x1 PUSH1 0xA0 SHL SUB AND PUSH32 0x4A39DC06D4C0DBC64B70AF90FD698A233A518AA5D07E595D983B8C0526C8F7FB DUP7 DUP7 PUSH1 0x40 MLOAD PUSH2 0x4C18 SWAP3 SWAP2 SWAP1 PUSH2 0x5DEA JUMP JUMPDEST PUSH1 0x40 MLOAD DUP1 SWAP2 SUB SWAP1 LOG4 POP POP POP POP POP JUMP JUMPDEST PUSH1 0x1 PUSH1 0x1 PUSH1 0xA0 SHL SUB DUP5 AND EXTCODESIZE ISZERO PUSH2 0x16E5 JUMPI PUSH1 0x40 MLOAD PUSH4 0xF23A6E61 PUSH1 0xE0 SHL DUP2 MSTORE PUSH1 0x1 PUSH1 0x1 PUSH1 0xA0 SHL SUB DUP6 AND SWAP1 PUSH4 0xF23A6E61 SWAP1 PUSH2 0x4C6B SWAP1 DUP10 SWAP1 DUP10 SWAP1 DUP9 SWAP1 DUP9 SWAP1 DUP9 SWAP1 PUSH1 0x4 ADD PUSH2 0x5E18 JUMP JUMPDEST PUSH1 0x20 PUSH1 0x40 MLOAD DUP1 DUP4 SUB DUP2 PUSH1 0x0 DUP8 GAS CALL SWAP3 POP POP POP DUP1 ISZERO PUSH2 0x4CA6 JUMPI POP PUSH1 0x40 DUP1 MLOAD PUSH1 0x1F RETURNDATASIZE SWAP1 DUP2 ADD PUSH1 0x1F NOT AND DUP3 ADD SWAP1 SWAP3 MSTORE PUSH2 0x4CA3 SWAP2 DUP2 ADD SWAP1 PUSH2 0x5E5D JUMP JUMPDEST PUSH1 0x1 JUMPDEST PUSH2 0x4D0F JUMPI RETURNDATASIZE DUP1 DUP1 ISZERO PUSH2 0x4CD4 JUMPI PUSH1 0x40 MLOAD SWAP2 POP PUSH1 0x1F NOT PUSH1 0x3F RETURNDATASIZE ADD AND DUP3 ADD PUSH1 0x40 MSTORE RETURNDATASIZE DUP3 MSTORE RETURNDATASIZE PUSH1 0x0 PUSH1 0x20 DUP5 ADD RETURNDATACOPY PUSH2 0x4CD9 JUMP JUMPDEST PUSH1 0x60 SWAP2 POP JUMPDEST POP DUP1 MLOAD PUSH1 0x0 SUB PUSH2 0x4D07 JUMPI PUSH1 0x40 MLOAD PUSH4 0x2BFA23E7 PUSH1 0xE1 SHL DUP2 MSTORE PUSH1 0x1 PUSH1 0x1 PUSH1 0xA0 SHL SUB DUP7 AND PUSH1 0x4 DUP3 ADD MSTORE PUSH1 0x24 ADD PUSH2 0x5ED JUMP JUMPDEST DUP1 MLOAD DUP2 PUSH1 0x20 ADD REVERT JUMPDEST PUSH1 0x1 PUSH1 0x1 PUSH1 0xE0 SHL SUB NOT DUP2 AND PUSH4 0xF23A6E61 PUSH1 0xE0 SHL EQ PUSH2 0x4921 JUMPI PUSH1 0x40 MLOAD PUSH4 0x2BFA23E7 PUSH1 0xE1 SHL DUP2 MSTORE PUSH1 0x1 PUSH1 0x1 PUSH1 0xA0 SHL SUB DUP7 AND PUSH1 0x4 DUP3 ADD MSTORE PUSH1 0x24 ADD PUSH2 0x5ED JUMP JUMPDEST PUSH1 0x1 PUSH1 0x1 PUSH1 0xA0 SHL SUB DUP5 AND EXTCODESIZE ISZERO PUSH2 0x16E5 JUMPI PUSH1 0x40 MLOAD PUSH4 0xBC197C81 PUSH1 0xE0 SHL DUP2 MSTORE PUSH1 0x1 PUSH1 0x1 PUSH1 0xA0 SHL SUB DUP6 AND SWAP1 PUSH4 0xBC197C81 SWAP1 PUSH2 0x4D8F SWAP1 DUP10 SWAP1 DUP10 SWAP1 DUP9 SWAP1 DUP9 SWAP1 DUP9 SWAP1 PUSH1 0x4 ADD PUSH2 0x5E7A JUMP JUMPDEST PUSH1 0x20 PUSH1 0x40 MLOAD DUP1 DUP4 SUB DUP2 PUSH1 0x0 DUP8 GAS CALL SWAP3 POP POP POP DUP1 ISZERO PUSH2 0x4DCA JUMPI POP PUSH1 0x40 DUP1 MLOAD PUSH1 0x1F RETURNDATASIZE SWAP1 DUP2 ADD PUSH1 0x1F NOT AND DUP3 ADD SWAP1 SWAP3 MSTORE PUSH2 0x4DC7 SWAP2 DUP2 ADD SWAP1 PUSH2 0x5E5D JUMP JUMPDEST PUSH1 0x1 JUMPDEST PUSH2 0x4DF8 JUMPI RETURNDATASIZE DUP1 DUP1 ISZERO PUSH2 0x4CD4 JUMPI PUSH1 0x40 MLOAD SWAP2 POP PUSH1 0x1F NOT PUSH1 0x3F RETURNDATASIZE ADD AND DUP3 ADD PUSH1 0x40 MSTORE RETURNDATASIZE DUP3 MSTORE RETURNDATASIZE PUSH1 0x0 PUSH1 0x20 DUP5 ADD RETURNDATACOPY PUSH2 0x4CD9 JUMP JUMPDEST PUSH1 0x1 PUSH1 0x1 PUSH1 0xE0 SHL SUB NOT DUP2 AND PUSH4 0xBC197C81 PUSH1 0xE0 SHL EQ PUSH2 0x4921 JUMPI PUSH1 0x40 MLOAD PUSH4 0x2BFA23E7 PUSH1 0xE1 SHL DUP2 MSTORE PUSH1 0x1 PUSH1 0x1 PUSH1 0xA0 SHL SUB DUP7 AND PUSH1 0x4 DUP3 ADD MSTORE PUSH1 0x24 ADD PUSH2 0x5ED JUMP JUMPDEST POP DUP1 SLOAD PUSH2 0x4E40 SWAP1 PUSH2 0x5A8F JUMP JUMPDEST PUSH1 0x0 DUP3 SSTORE DUP1 PUSH1 0x1F LT PUSH2 0x4E50 JUMPI POP POP JUMP JUMPDEST PUSH1 0x1F ADD PUSH1 0x20 SWAP1 DIV SWAP1 PUSH1 0x0 MSTORE PUSH1 0x20 PUSH1 0x0 KECCAK256 SWAP1 DUP2 ADD SWAP1 PUSH2 0x2610 SWAP2 SWAP1 PUSH2 0x4F2F JUMP JUMPDEST DUP3 DUP1 SLOAD DUP3 DUP3 SSTORE SWAP1 PUSH1 0x0 MSTORE PUSH1 0x20 PUSH1 0x0 KECCAK256 SWAP1 DUP2 ADD SWAP3 DUP3 ISZERO PUSH2 0x4EC3 JUMPI SWAP2 PUSH1 0x20 MUL DUP3 ADD JUMPDEST DUP3 DUP2 GT ISZERO PUSH2 0x4EC3 JUMPI DUP3 MLOAD DUP3 SLOAD PUSH1 0x1 PUSH1 0x1 PUSH1 0xA0 SHL SUB NOT AND PUSH1 0x1 PUSH1 0x1 PUSH1 0xA0 SHL SUB SWAP1 SWAP2 AND OR DUP3 SSTORE PUSH1 0x20 SWAP1 SWAP3 ADD SWAP2 PUSH1 0x1 SWAP1 SWAP2 ADD SWAP1 PUSH2 0x4E8E JUMP JUMPDEST POP PUSH2 0x4ECF SWAP3 SWAP2 POP PUSH2 0x4F2F JUMP JUMPDEST POP SWAP1 JUMP JUMPDEST POP DUP1 SLOAD PUSH1 0x0 DUP3 SSTORE PUSH1 0x8 MUL SWAP1 PUSH1 0x0 MSTORE PUSH1 0x20 PUSH1 0x0 KECCAK256 SWAP1 DUP2 ADD SWAP1 PUSH2 0x2610 SWAP2 SWAP1 PUSH2 0x4F44 JUMP JUMPDEST DUP3 DUP1 SLOAD DUP3 DUP3 SSTORE SWAP1 PUSH1 0x0 MSTORE PUSH1 0x20 PUSH1 0x0 KECCAK256 SWAP1 DUP2 ADD SWAP3 DUP3 ISZERO PUSH2 0x4EC3 JUMPI SWAP2 PUSH1 0x20 MUL DUP3 ADD JUMPDEST DUP3 DUP2 GT ISZERO PUSH2 0x4EC3 JUMPI DUP3 MLOAD DUP3 SSTORE SWAP2 PUSH1 0x20 ADD SWAP2 SWAP1 PUSH1 0x1 ADD SWAP1 PUSH2 0x4F14 JUMP JUMPDEST JUMPDEST DUP1 DUP3 GT ISZERO PUSH2 0x4ECF JUMPI PUSH1 0x0 DUP2 SSTORE PUSH1 0x1 ADD PUSH2 0x4F30 JUMP JUMPDEST DUP1 DUP3 GT ISZERO PUSH2 0x4ECF JUMPI PUSH1 0x0 DUP1 DUP3 SSTORE PUSH2 0x4F5E PUSH1 0x1 DUP4 ADD DUP3 PUSH2 0x4E34 JUMP JUMPDEST PUSH2 0x4F6C PUSH1 0x2 DUP4 ADD PUSH1 0x0 PUSH2 0x4E34 JUMP JUMPDEST PUSH2 0x4F7A PUSH1 0x3 DUP4 ADD PUSH1 0x0 PUSH2 0x4E34 JUMP JUMPDEST POP PUSH1 0x0 PUSH1 0x4 DUP3 ADD DUP2 SWAP1 SSTORE PUSH1 0x5 DUP3 ADD DUP2 SWAP1 SSTORE PUSH1 0x6 DUP3 ADD DUP2 SWAP1 SSTORE PUSH1 0x7 DUP3 ADD SSTORE PUSH1 0x8 ADD PUSH2 0x4F44 JUMP JUMPDEST DUP1 CALLDATALOAD PUSH1 0x1 PUSH1 0x1 PUSH1 0xA0 SHL SUB DUP2 AND DUP2 EQ PUSH2 0x4FB6 JUMPI PUSH1 0x0 DUP1 REVERT JUMPDEST SWAP2 SWAP1 POP JUMP JUMPDEST PUSH1 0x0 DUP1 PUSH1 0x40 DUP4 DUP6 SUB SLT ISZERO PUSH2 0x4FCE JUMPI PUSH1 0x0 DUP1 REVERT JUMPDEST PUSH2 0x4FD7 DUP4 PUSH2 0x4F9F JUMP JUMPDEST SWAP5 PUSH1 0x20 SWAP4 SWAP1 SWAP4 ADD CALLDATALOAD SWAP4 POP POP POP JUMP JUMPDEST PUSH1 0x1 PUSH1 0x1 PUSH1 0xE0 SHL SUB NOT DUP2 AND DUP2 EQ PUSH2 0x2610 JUMPI PUSH1 0x0 DUP1 REVERT JUMPDEST PUSH1 0x0 PUSH1 0x20 DUP3 DUP5 SUB SLT ISZERO PUSH2 0x500D JUMPI PUSH1 0x0 DUP1 REVERT JUMPDEST DUP2 CALLDATALOAD PUSH2 0x5018 DUP2 PUSH2 0x4FE5 JUMP JUMPDEST SWAP4 SWAP3 POP POP POP JUMP JUMPDEST PUSH1 0x0 PUSH1 0x20 DUP3 DUP5 SUB SLT ISZERO PUSH2 0x5031 JUMPI PUSH1 0x0 DUP1 REVERT JUMPDEST POP CALLDATALOAD SWAP2 SWAP1 POP JUMP JUMPDEST PUSH1 0x0 JUMPDEST DUP4 DUP2 LT ISZERO PUSH2 0x5053 JUMPI DUP2 DUP2 ADD MLOAD DUP4 DUP3 ADD MSTORE PUSH1 0x20 ADD PUSH2 0x503B JUMP JUMPDEST POP POP PUSH1 0x0 SWAP2 ADD MSTORE JUMP JUMPDEST PUSH1 0x0 DUP2 MLOAD DUP1 DUP5 MSTORE PUSH2 0x5074 DUP2 PUSH1 0x20 DUP7 ADD PUSH1 0x20 DUP7 ADD PUSH2 0x5038 JUMP JUMPDEST PUSH1 0x1F ADD PUSH1 0x1F NOT AND SWAP3 SWAP1 SWAP3 ADD PUSH1 0x20 ADD SWAP3 SWAP2 POP POP JUMP JUMPDEST PUSH1 0x20 DUP2 MSTORE PUSH1 0x0 PUSH2 0x5018 PUSH1 0x20 DUP4 ADD DUP5 PUSH2 0x505C JUMP JUMPDEST PUSH1 0x0 PUSH1 0x20 DUP3 DUP5 SUB SLT ISZERO PUSH2 0x50AD JUMPI PUSH1 0x0 DUP1 REVERT JUMPDEST PUSH2 0x5018 DUP3 PUSH2 0x4F9F JUMP JUMPDEST PUSH1 0x20 DUP1 DUP3 MSTORE DUP3 MLOAD DUP3 DUP3 ADD DUP2 SWAP1 MSTORE PUSH1 0x0 SWAP2 SWAP1 PUSH1 0x40 SWAP1 DUP2 DUP6 ADD SWAP1 DUP7 DUP5 ADD DUP6 JUMPDEST DUP3 DUP2 LT ISZERO PUSH2 0x512A JUMPI DUP2 MLOAD DUP1 MLOAD DUP6 MSTORE DUP7 DUP2 ADD MLOAD DUP8 DUP7 ADD MSTORE DUP6 DUP2 ADD MLOAD DUP7 DUP7 ADD MSTORE PUSH1 0x60 DUP1 DUP3 ADD MLOAD PUSH1 0x1 PUSH1 0x1 PUSH1 0xA0 SHL SUB AND SWAP1 DUP7 ADD MSTORE PUSH1 0x80 DUP1 DUP3 ADD MLOAD SWAP1 DUP7 ADD MSTORE PUSH1 0xA0 SWAP1 DUP2 ADD MLOAD SWAP1 DUP6 ADD MSTORE PUSH1 0xC0 SWAP1 SWAP4 ADD SWAP3 SWAP1 DUP6 ADD SWAP1 PUSH1 0x1 ADD PUSH2 0x50D3 JUMP JUMPDEST POP SWAP2 SWAP8 SWAP7 POP POP POP POP POP POP POP JUMP JUMPDEST PUSH4 0x4E487B71 PUSH1 0xE0 SHL PUSH1 0x0 MSTORE PUSH1 0x41 PUSH1 0x4 MSTORE PUSH1 0x24 PUSH1 0x0 REVERT JUMPDEST PUSH1 0x40 MLOAD PUSH1 0x1F DUP3 ADD PUSH1 0x1F NOT AND DUP2 ADD PUSH8 0xFFFFFFFFFFFFFFFF DUP2 GT DUP3 DUP3 LT OR ISZERO PUSH2 0x5176 JUMPI PUSH2 0x5176 PUSH2 0x5137 JUMP JUMPDEST PUSH1 0x40 MSTORE SWAP2 SWAP1 POP JUMP JUMPDEST PUSH1 0x0 DUP3 PUSH1 0x1F DUP4 ADD SLT PUSH2 0x518F JUMPI PUSH1 0x0 DUP1 REVERT JUMPDEST DUP2 CALLDATALOAD PUSH8 0xFFFFFFFFFFFFFFFF DUP2 GT ISZERO PUSH2 0x51A9 JUMPI PUSH2 0x51A9 PUSH2 0x5137 JUMP JUMPDEST PUSH2 0x51BC PUSH1 0x1F DUP3 ADD PUSH1 0x1F NOT AND PUSH1 0x20 ADD PUSH2 0x514D JUMP JUMPDEST DUP2 DUP2 MSTORE DUP5 PUSH1 0x20 DUP4 DUP7 ADD ADD GT ISZERO PUSH2 0x51D1 JUMPI PUSH1 0x0 DUP1 REVERT JUMPDEST DUP2 PUSH1 0x20 DUP6 ADD PUSH1 0x20 DUP4 ADD CALLDATACOPY PUSH1 0x0 SWAP2 DUP2 ADD PUSH1 0x20 ADD SWAP2 SWAP1 SWAP2 MSTORE SWAP4 SWAP3 POP POP POP JUMP JUMPDEST PUSH1 0x0 DUP1 PUSH1 0x0 DUP1 PUSH1 0x0 PUSH1 0xA0 DUP7 DUP9 SUB SLT ISZERO PUSH2 0x5206 JUMPI PUSH1 0x0 DUP1 REVERT JUMPDEST DUP6 CALLDATALOAD PUSH8 0xFFFFFFFFFFFFFFFF DUP1 DUP3 GT ISZERO PUSH2 0x521E JUMPI PUSH1 0x0 DUP1 REVERT JUMPDEST PUSH2 0x522A DUP10 DUP4 DUP11 ADD PUSH2 0x517E JUMP JUMPDEST SWAP7 POP PUSH1 0x20 DUP9 ADD CALLDATALOAD SWAP2 POP DUP1 DUP3 GT ISZERO PUSH2 0x5240 JUMPI PUSH1 0x0 DUP1 REVERT JUMPDEST PUSH2 0x524C DUP10 DUP4 DUP11 ADD PUSH2 0x517E JUMP JUMPDEST SWAP6 POP PUSH1 0x40 DUP9 ADD CALLDATALOAD SWAP2 POP DUP1 DUP3 GT ISZERO PUSH2 0x5262 JUMPI PUSH1 0x0 DUP1 REVERT JUMPDEST POP PUSH2 0x526F DUP9 DUP3 DUP10 ADD PUSH2 0x517E JUMP JUMPDEST SWAP6 SWAP9 SWAP5 SWAP8 POP SWAP5 SWAP6 PUSH1 0x60 DUP2 ADD CALLDATALOAD SWAP6 POP PUSH1 0x80 ADD CALLDATALOAD SWAP4 SWAP3 POP POP POP JUMP JUMPDEST PUSH1 0x0 DUP1 PUSH1 0x40 DUP4 DUP6 SUB SLT ISZERO PUSH2 0x529B JUMPI PUSH1 0x0 DUP1 REVERT JUMPDEST POP POP DUP1 CALLDATALOAD SWAP3 PUSH1 0x20 SWAP1 SWAP2 ADD CALLDATALOAD SWAP2 POP JUMP JUMPDEST PUSH1 0x0 PUSH8 0xFFFFFFFFFFFFFFFF DUP3 GT ISZERO PUSH2 0x52C4 JUMPI PUSH2 0x52C4 PUSH2 0x5137 JUMP JUMPDEST POP PUSH1 0x5 SHL PUSH1 0x20 ADD SWAP1 JUMP JUMPDEST PUSH1 0x0 DUP3 PUSH1 0x1F DUP4 ADD SLT PUSH2 0x52DF JUMPI PUSH1 0x0 DUP1 REVERT JUMPDEST DUP2 CALLDATALOAD PUSH1 0x20 PUSH2 0x52F4 PUSH2 0x52EF DUP4 PUSH2 0x52AA JUMP JUMPDEST PUSH2 0x514D JUMP JUMPDEST DUP1 DUP4 DUP3 MSTORE PUSH1 0x20 DUP3 ADD SWAP2 POP PUSH1 0x20 DUP5 PUSH1 0x5 SHL DUP8 ADD ADD SWAP4 POP DUP7 DUP5 GT ISZERO PUSH2 0x5316 JUMPI PUSH1 0x0 DUP1 REVERT JUMPDEST PUSH1 0x20 DUP7 ADD JUMPDEST DUP5 DUP2 LT ISZERO PUSH2 0x5332 JUMPI DUP1 CALLDATALOAD DUP4 MSTORE SWAP2 DUP4 ADD SWAP2 DUP4 ADD PUSH2 0x531B JUMP JUMPDEST POP SWAP7 SWAP6 POP POP POP POP POP POP JUMP JUMPDEST PUSH1 0x0 DUP1 PUSH1 0x0 DUP1 PUSH1 0x0 PUSH1 0xA0 DUP7 DUP9 SUB SLT ISZERO PUSH2 0x5355 JUMPI PUSH1 0x0 DUP1 REVERT JUMPDEST PUSH2 0x535E DUP7 PUSH2 0x4F9F JUMP JUMPDEST SWAP5 POP PUSH2 0x536C PUSH1 0x20 DUP8 ADD PUSH2 0x4F9F JUMP JUMPDEST SWAP4 POP PUSH1 0x40 DUP7 ADD CALLDATALOAD PUSH8 0xFFFFFFFFFFFFFFFF DUP1 DUP3 GT ISZERO PUSH2 0x5389 JUMPI PUSH1 0x0 DUP1 REVERT JUMPDEST PUSH2 0x5395 DUP10 DUP4 DUP11 ADD PUSH2 0x52CE JUMP JUMPDEST SWAP5 POP PUSH1 0x60 DUP9 ADD CALLDATALOAD SWAP2 POP DUP1 DUP3 GT ISZERO PUSH2 0x53AB JUMPI PUSH1 0x0 DUP1 REVERT JUMPDEST PUSH2 0x53B7 DUP10 DUP4 DUP11 ADD PUSH2 0x52CE JUMP JUMPDEST SWAP4 POP PUSH1 0x80 DUP9 ADD CALLDATALOAD SWAP2 POP DUP1 DUP3 GT ISZERO PUSH2 0x53CD JUMPI PUSH1 0x0 DUP1 REVERT JUMPDEST POP PUSH2 0x53DA DUP9 DUP3 DUP10 ADD PUSH2 0x517E JUMP JUMPDEST SWAP2 POP POP SWAP3 SWAP6 POP SWAP3 SWAP6 SWAP1 SWAP4 POP JUMP JUMPDEST PUSH1 0x0 DUP1 PUSH1 0x20 DUP4 DUP6 SUB SLT ISZERO PUSH2 0x53FA JUMPI PUSH1 0x0 DUP1 REVERT JUMPDEST DUP3 CALLDATALOAD PUSH8 0xFFFFFFFFFFFFFFFF DUP1 DUP3 GT ISZERO PUSH2 0x5412 JUMPI PUSH1 0x0 DUP1 REVERT JUMPDEST DUP2 DUP6 ADD SWAP2 POP DUP6 PUSH1 0x1F DUP4 ADD SLT PUSH2 0x5426 JUMPI PUSH1 0x0 DUP1 REVERT JUMPDEST DUP2 CALLDATALOAD DUP2 DUP2 GT ISZERO PUSH2 0x5435 JUMPI PUSH1 0x0 DUP1 REVERT JUMPDEST DUP7 PUSH1 0x20 DUP3 DUP6 ADD ADD GT ISZERO PUSH2 0x5447 JUMPI PUSH1 0x0 DUP1 REVERT JUMPDEST PUSH1 0x20 SWAP3 SWAP1 SWAP3 ADD SWAP7 SWAP2 SWAP6 POP SWAP1 SWAP4 POP POP POP POP JUMP JUMPDEST PUSH1 0x0 DUP1 PUSH1 0x40 DUP4 DUP6 SUB SLT ISZERO PUSH2 0x546C JUMPI PUSH1 0x0 DUP1 REVERT JUMPDEST DUP3 CALLDATALOAD PUSH8 0xFFFFFFFFFFFFFFFF DUP1 DUP3 GT ISZERO PUSH2 0x5484 JUMPI PUSH1 0x0 DUP1 REVERT JUMPDEST DUP2 DUP6 ADD SWAP2 POP DUP6 PUSH1 0x1F DUP4 ADD SLT PUSH2 0x5498 JUMPI PUSH1 0x0 DUP1 REVERT JUMPDEST DUP2 CALLDATALOAD PUSH1 0x20 PUSH2 0x54A8 PUSH2 0x52EF DUP4 PUSH2 0x52AA JUMP JUMPDEST DUP3 DUP2 MSTORE PUSH1 0x5 SWAP3 SWAP1 SWAP3 SHL DUP5 ADD DUP2 ADD SWAP2 DUP2 DUP2 ADD SWAP1 DUP10 DUP5 GT ISZERO PUSH2 0x54C7 JUMPI PUSH1 0x0 DUP1 REVERT JUMPDEST SWAP5 DUP3 ADD SWAP5 JUMPDEST DUP4 DUP7 LT ISZERO PUSH2 0x54EC JUMPI PUSH2 0x54DD DUP7 PUSH2 0x4F9F JUMP JUMPDEST DUP3 MSTORE SWAP5 DUP3 ADD SWAP5 SWAP1 DUP3 ADD SWAP1 PUSH2 0x54CC JUMP JUMPDEST SWAP7 POP POP DUP7 ADD CALLDATALOAD SWAP3 POP POP DUP1 DUP3 GT ISZERO PUSH2 0x5502 JUMPI PUSH1 0x0 DUP1 REVERT JUMPDEST POP PUSH2 0x550F DUP6 DUP3 DUP7 ADD PUSH2 0x52CE JUMP JUMPDEST SWAP2 POP POP SWAP3 POP SWAP3 SWAP1 POP JUMP JUMPDEST PUSH1 0x0 DUP2 MLOAD DUP1 DUP5 MSTORE PUSH1 0x20 DUP1 DUP6 ADD SWAP5 POP PUSH1 0x20 DUP5 ADD PUSH1 0x0 JUMPDEST DUP4 DUP2 LT ISZERO PUSH2 0x554A JUMPI DUP2 MLOAD DUP8 MSTORE SWAP6 DUP3 ADD SWAP6 SWAP1 DUP3 ADD SWAP1 PUSH1 0x1 ADD PUSH2 0x552E JUMP JUMPDEST POP SWAP5 SWAP6 SWAP5 POP POP POP POP POP JUMP JUMPDEST PUSH1 0x20 DUP2 MSTORE PUSH1 0x0 PUSH2 0x5018 PUSH1 0x20 DUP4 ADD DUP5 PUSH2 0x5519 JUMP JUMPDEST PUSH1 0x0 DUP1 PUSH1 0x0 DUP1 PUSH1 0x80 DUP6 DUP8 SUB SLT ISZERO PUSH2 0x557E JUMPI PUSH1 0x0 DUP1 REVERT JUMPDEST DUP5 CALLDATALOAD SWAP4 POP PUSH1 0x20 DUP6 ADD CALLDATALOAD SWAP3 POP PUSH2 0x5595 PUSH1 0x40 DUP7 ADD PUSH2 0x4F9F JUMP JUMPDEST SWAP4 SWAP7 SWAP3 SWAP6 POP SWAP3 SWAP4 PUSH1 0x60 ADD CALLDATALOAD SWAP3 POP POP JUMP JUMPDEST PUSH1 0x0 PUSH1 0x20 DUP3 DUP5 SUB SLT ISZERO PUSH2 0x55B7 JUMPI PUSH1 0x0 DUP1 REVERT JUMPDEST DUP2 CALLDATALOAD PUSH8 0xFFFFFFFFFFFFFFFF DUP2 GT ISZERO PUSH2 0x55CE JUMPI PUSH1 0x0 DUP1 REVERT JUMPDEST PUSH2 0x55DA DUP5 DUP3 DUP6 ADD PUSH2 0x517E JUMP JUMPDEST SWAP5 SWAP4 POP POP POP POP JUMP JUMPDEST PUSH1 0x0 DUP1 PUSH1 0x40 DUP4 DUP6 SUB SLT ISZERO PUSH2 0x55F5 JUMPI PUSH1 0x0 DUP1 REVERT JUMPDEST PUSH2 0x55FE DUP4 PUSH2 0x4F9F JUMP JUMPDEST SWAP2 POP PUSH1 0x20 DUP4 ADD CALLDATALOAD DUP1 ISZERO ISZERO DUP2 EQ PUSH2 0x5613 JUMPI PUSH1 0x0 DUP1 REVERT JUMPDEST DUP1 SWAP2 POP POP SWAP3 POP SWAP3 SWAP1 POP JUMP JUMPDEST PUSH1 0x0 PUSH1 0x20 DUP1 DUP4 ADD DUP2 DUP5 MSTORE DUP1 DUP6 MLOAD DUP1 DUP4 MSTORE PUSH1 0x40 SWAP3 POP PUSH1 0x40 DUP7 ADD SWAP2 POP PUSH1 0x40 DUP2 PUSH1 0x5 SHL DUP8 ADD ADD DUP5 DUP9 ADD PUSH1 0x0 DUP1 JUMPDEST DUP5 DUP2 LT ISZERO PUSH2 0x56E4 JUMPI PUSH1 0x3F NOT DUP11 DUP6 SUB ADD DUP7 MSTORE DUP3 MLOAD PUSH1 0x80 DUP2 MLOAD DUP2 DUP8 MSTORE PUSH2 0x566E DUP3 DUP9 ADD DUP3 PUSH2 0x505C JUMP JUMPDEST DUP4 DUP13 ADD MLOAD PUSH1 0x1 PUSH1 0x1 PUSH1 0xA0 SHL SUB SWAP1 DUP2 AND DUP10 DUP15 ADD MSTORE DUP12 DUP6 ADD MLOAD DUP13 DUP11 ADD MSTORE PUSH1 0x60 SWAP5 DUP6 ADD MLOAD DUP10 DUP4 SUB SWAP6 DUP11 ADD SWAP6 SWAP1 SWAP6 MSTORE DUP5 MLOAD DUP1 DUP4 MSTORE SWAP5 DUP14 ADD SWAP5 DUP8 SWAP5 POP SWAP2 DUP14 ADD SWAP3 POP SWAP1 JUMPDEST DUP1 DUP5 LT ISZERO PUSH2 0x56CE JUMPI DUP5 MLOAD DUP3 AND DUP4 MSTORE SWAP4 DUP13 ADD SWAP4 PUSH1 0x1 SWAP4 SWAP1 SWAP4 ADD SWAP3 SWAP2 DUP13 ADD SWAP2 PUSH2 0x56AC JUMP JUMPDEST POP POP SWAP8 DUP11 ADD SWAP8 SWAP6 POP POP POP SWAP2 DUP8 ADD SWAP2 PUSH1 0x1 ADD PUSH2 0x5648 JUMP JUMPDEST POP SWAP2 SWAP10 SWAP9 POP POP POP POP POP POP POP POP POP JUMP JUMPDEST PUSH1 0x0 DUP1 PUSH1 0x0 PUSH1 0x60 DUP5 DUP7 SUB SLT ISZERO PUSH2 0x5708 JUMPI PUSH1 0x0 DUP1 REVERT JUMPDEST POP POP DUP2 CALLDATALOAD SWAP4 PUSH1 0x20 DUP4 ADD CALLDATALOAD SWAP4 POP PUSH1 0x40 SWAP1 SWAP3 ADD CALLDATALOAD SWAP2 SWAP1 POP JUMP JUMPDEST PUSH1 0x0 PUSH2 0x100 DUP3 MLOAD DUP5 MSTORE PUSH1 0x20 DUP4 ADD MLOAD DUP2 PUSH1 0x20 DUP7 ADD MSTORE PUSH2 0x573F DUP3 DUP7 ADD DUP3 PUSH2 0x505C JUMP JUMPDEST SWAP2 POP POP PUSH1 0x40 DUP4 ADD MLOAD DUP5 DUP3 SUB PUSH1 0x40 DUP7 ADD MSTORE PUSH2 0x5759 DUP3 DUP3 PUSH2 0x505C JUMP JUMPDEST SWAP2 POP POP PUSH1 0x60 DUP4 ADD MLOAD DUP5 DUP3 SUB PUSH1 0x60 DUP7 ADD MSTORE PUSH2 0x5773 DUP3 DUP3 PUSH2 0x505C JUMP JUMPDEST SWAP2 POP POP PUSH1 0x80 DUP4 ADD MLOAD PUSH1 0x80 DUP6 ADD MSTORE PUSH1 0xA0 DUP4 ADD MLOAD PUSH1 0xA0 DUP6 ADD MSTORE PUSH1 0xC0 DUP4 ADD MLOAD PUSH1 0xC0 DUP6 ADD MSTORE PUSH1 0xE0 DUP4 ADD MLOAD PUSH1 0xE0 DUP6 ADD MSTORE DUP1 SWAP2 POP POP SWAP3 SWAP2 POP POP JUMP JUMPDEST PUSH1 0x0 PUSH1 0x20 DUP1 DUP4 ADD PUSH1 0x20 DUP5 MSTORE DUP1 DUP6 MLOAD DUP1 DUP4 MSTORE PUSH1 0x40 DUP7 ADD SWAP2 POP PUSH1 0x40 DUP2 PUSH1 0x5 SHL DUP8 ADD ADD SWAP3 POP PUSH1 0x20 DUP8 ADD PUSH1 0x0 JUMPDEST DUP3 DUP2 LT ISZERO PUSH2 0x57FF JUMPI PUSH1 0x3F NOT DUP9 DUP7 SUB ADD DUP5 MSTORE PUSH2 0x57ED DUP6 DUP4 MLOAD PUSH2 0x571F JUMP JUMPDEST SWAP5 POP SWAP3 DUP6 ADD SWAP3 SWAP1 DUP6 ADD SWAP1 PUSH1 0x1 ADD PUSH2 0x57D1 JUMP JUMPDEST POP SWAP3 SWAP8 SWAP7 POP POP POP POP POP POP POP JUMP JUMPDEST PUSH1 0x0 DUP1 PUSH1 0x40 DUP4 DUP6 SUB SLT ISZERO PUSH2 0x581F JUMPI PUSH1 0x0 DUP1 REVERT JUMPDEST PUSH2 0x5828 DUP4 PUSH2 0x4F9F JUMP JUMPDEST SWAP2 POP PUSH2 0x5836 PUSH1 0x20 DUP5 ADD PUSH2 0x4F9F JUMP JUMPDEST SWAP1 POP SWAP3 POP SWAP3 SWAP1 POP JUMP JUMPDEST PUSH1 0x20 DUP2 MSTORE PUSH1 0x0 PUSH2 0x5018 PUSH1 0x20 DUP4 ADD DUP5 PUSH2 0x571F JUMP JUMPDEST PUSH1 0x0 DUP1 PUSH1 0x0 DUP1 PUSH1 0x0 PUSH1 0xA0 DUP7 DUP9 SUB SLT ISZERO PUSH2 0x586A JUMPI PUSH1 0x0 DUP1 REVERT JUMPDEST PUSH2 0x5873 DUP7 PUSH2 0x4F9F JUMP JUMPDEST SWAP5 POP PUSH2 0x5881 PUSH1 0x20 DUP8 ADD PUSH2 0x4F9F JUMP JUMPDEST SWAP4 POP PUSH1 0x40 DUP7 ADD CALLDATALOAD SWAP3 POP PUSH1 0x60 DUP7 ADD CALLDATALOAD SWAP2 POP PUSH1 0x80 DUP7 ADD CALLDATALOAD PUSH8 0xFFFFFFFFFFFFFFFF DUP2 GT ISZERO PUSH2 0x58AB JUMPI PUSH1 0x0 DUP1 REVERT JUMPDEST PUSH2 0x53DA DUP9 DUP3 DUP10 ADD PUSH2 0x517E JUMP JUMPDEST PUSH1 0x0 DUP1 PUSH1 0x0 DUP1 PUSH1 0x80 DUP6 DUP8 SUB SLT ISZERO PUSH2 0x58CD JUMPI PUSH1 0x0 DUP1 REVERT JUMPDEST DUP5 CALLDATALOAD PUSH8 0xFFFFFFFFFFFFFFFF DUP1 DUP3 GT ISZERO PUSH2 0x58E5 JUMPI PUSH1 0x0 DUP1 REVERT JUMPDEST PUSH2 0x58F1 DUP9 DUP4 DUP10 ADD PUSH2 0x517E JUMP JUMPDEST SWAP6 POP PUSH1 0x20 DUP8 ADD CALLDATALOAD SWAP2 POP DUP1 DUP3 GT ISZERO PUSH2 0x5907 JUMPI PUSH1 0x0 DUP1 REVERT JUMPDEST PUSH2 0x5913 DUP9 DUP4 DUP10 ADD PUSH2 0x517E JUMP JUMPDEST SWAP5 POP PUSH1 0x40 DUP8 ADD CALLDATALOAD SWAP2 POP DUP1 DUP3 GT ISZERO PUSH2 0x5929 JUMPI PUSH1 0x0 DUP1 REVERT JUMPDEST PUSH2 0x5935 DUP9 DUP4 DUP10 ADD PUSH2 0x52CE JUMP JUMPDEST SWAP4 POP PUSH1 0x60 DUP8 ADD CALLDATALOAD SWAP2 POP DUP1 DUP3 GT ISZERO PUSH2 0x594B JUMPI PUSH1 0x0 DUP1 REVERT JUMPDEST POP PUSH2 0x5958 DUP8 DUP3 DUP9 ADD PUSH2 0x52CE JUMP JUMPDEST SWAP2 POP POP SWAP3 SWAP6 SWAP2 SWAP5 POP SWAP3 POP JUMP JUMPDEST PUSH1 0x0 DUP1 PUSH1 0x0 DUP1 PUSH1 0x80 DUP6 DUP8 SUB SLT ISZERO PUSH2 0x597A JUMPI PUSH1 0x0 DUP1 REVERT JUMPDEST POP POP DUP3 CALLDATALOAD SWAP5 PUSH1 0x20 DUP5 ADD CALLDATALOAD SWAP5 POP PUSH1 0x40 DUP5 ADD CALLDATALOAD SWAP4 PUSH1 0x60 ADD CALLDATALOAD SWAP3 POP SWAP1 POP JUMP JUMPDEST PUSH1 0x0 PUSH1 0x20 DUP1 DUP4 ADD DUP2 DUP5 MSTORE DUP1 DUP6 MLOAD DUP1 DUP4 MSTORE PUSH1 0x40 SWAP3 POP PUSH1 0x40 DUP7 ADD SWAP2 POP PUSH1 0x40 DUP2 PUSH1 0x5 SHL DUP8 ADD ADD DUP5 DUP9 ADD PUSH1 0x0 JUMPDEST DUP4 DUP2 LT ISZERO PUSH2 0x5A46 JUMPI PUSH1 0x3F NOT DUP10 DUP5 SUB ADD DUP6 MSTORE DUP2 MLOAD PUSH1 0x80 DUP2 MLOAD DUP2 DUP7 MSTORE PUSH2 0x59E5 DUP3 DUP8 ADD DUP3 PUSH2 0x505C JUMP JUMPDEST SWAP2 POP POP DUP9 DUP3 ADD MLOAD DUP6 DUP3 SUB DUP11 DUP8 ADD MSTORE PUSH2 0x59FD DUP3 DUP3 PUSH2 0x505C JUMP JUMPDEST SWAP2 POP POP DUP8 DUP3 ADD MLOAD DUP6 DUP3 SUB DUP10 DUP8 ADD MSTORE PUSH2 0x5A15 DUP3 DUP3 PUSH2 0x5519 JUMP JUMPDEST SWAP2 POP POP PUSH1 0x60 DUP1 DUP4 ADD MLOAD SWAP3 POP DUP6 DUP3 SUB DUP2 DUP8 ADD MSTORE POP PUSH2 0x5A32 DUP2 DUP4 PUSH2 0x5519 JUMP JUMPDEST SWAP7 DUP10 ADD SWAP7 SWAP5 POP POP POP SWAP1 DUP7 ADD SWAP1 PUSH1 0x1 ADD PUSH2 0x59BF JUMP JUMPDEST POP SWAP1 SWAP9 SWAP8 POP POP POP POP POP POP POP POP JUMP JUMPDEST PUSH1 0x0 DUP1 PUSH1 0x0 DUP1 PUSH1 0x0 PUSH1 0xA0 DUP7 DUP9 SUB SLT ISZERO PUSH2 0x5A6C JUMPI PUSH1 0x0 DUP1 REVERT JUMPDEST POP POP DUP4 CALLDATALOAD SWAP6 PUSH1 0x20 DUP6 ADD CALLDATALOAD SWAP6 POP PUSH1 0x40 DUP6 ADD CALLDATALOAD SWAP5 PUSH1 0x60 DUP2 ADD CALLDATALOAD SWAP5 POP PUSH1 0x80 ADD CALLDATALOAD SWAP3 POP SWAP1 POP JUMP JUMPDEST PUSH1 0x1 DUP2 DUP2 SHR SWAP1 DUP3 AND DUP1 PUSH2 0x5AA3 JUMPI PUSH1 0x7F DUP3 AND SWAP2 POP JUMPDEST PUSH1 0x20 DUP3 LT DUP2 SUB PUSH2 0x5AC3 JUMPI PUSH4 0x4E487B71 PUSH1 0xE0 SHL PUSH1 0x0 MSTORE PUSH1 0x22 PUSH1 0x4 MSTORE PUSH1 0x24 PUSH1 0x0 REVERT JUMPDEST POP SWAP2 SWAP1 POP JUMP JUMPDEST PUSH1 0x0 DUP1 DUP4 SLOAD PUSH2 0x5AD7 DUP2 PUSH2 0x5A8F JUMP JUMPDEST PUSH1 0x1 DUP3 DUP2 AND DUP1 ISZERO PUSH2 0x5AEF JUMPI PUSH1 0x1 DUP2 EQ PUSH2 0x5B04 JUMPI PUSH2 0x5B33 JUMP JUMPDEST PUSH1 0xFF NOT DUP5 AND DUP8 MSTORE DUP3 ISZERO ISZERO DUP4 MUL DUP8 ADD SWAP5 POP PUSH2 0x5B33 JUMP JUMPDEST DUP8 PUSH1 0x0 MSTORE PUSH1 0x20 DUP1 PUSH1 0x0 KECCAK256 PUSH1 0x0 JUMPDEST DUP6 DUP2 LT ISZERO PUSH2 0x5B2A JUMPI DUP2 SLOAD DUP11 DUP3 ADD MSTORE SWAP1 DUP5 ADD SWAP1 DUP3 ADD PUSH2 0x5B11 JUMP JUMPDEST POP POP POP DUP3 DUP8 ADD SWAP5 POP JUMPDEST POP SWAP3 SWAP7 SWAP6 POP POP POP POP POP POP JUMP JUMPDEST PUSH1 0x20 DUP1 DUP3 MSTORE PUSH1 0x48 SWAP1 DUP3 ADD MSTORE PUSH32 0xD0A2D0BED0BBD18CD0BAD0BE20D0B2D0BBD0B0D0B4D0B5D0BBD0B5D18620D0BC PUSH1 0x40 DUP3 ADD MSTORE PUSH32 0xD0BED0B6D0B5D18220D18DD182D0BE20D0B8D181D0BFD0BED0BBD18CD0B7D0BE PUSH1 0x60 DUP3 ADD MSTORE PUSH8 0x342CB42C3460B463 PUSH1 0xC2 SHL PUSH1 0x80 DUP3 ADD MSTORE PUSH1 0xA0 ADD SWAP1 JUMP JUMPDEST PUSH4 0x4E487B71 PUSH1 0xE0 SHL PUSH1 0x0 MSTORE PUSH1 0x32 PUSH1 0x4 MSTORE PUSH1 0x24 PUSH1 0x0 REVERT JUMPDEST PUSH4 0x4E487B71 PUSH1 0xE0 SHL PUSH1 0x0 MSTORE PUSH1 0x11 PUSH1 0x4 MSTORE PUSH1 0x24 PUSH1 0x0 REVERT JUMPDEST DUP1 DUP3 MUL DUP2 ISZERO DUP3 DUP3 DIV DUP5 EQ OR PUSH2 0x476 JUMPI PUSH2 0x476 PUSH2 0x5BC3 JUMP JUMPDEST PUSH1 0x1F DUP3 GT ISZERO PUSH2 0x1D16 JUMPI PUSH1 0x0 DUP2 PUSH1 0x0 MSTORE PUSH1 0x20 PUSH1 0x0 KECCAK256 PUSH1 0x1F DUP6 ADD PUSH1 0x5 SHR DUP2 ADD PUSH1 0x20 DUP7 LT ISZERO PUSH2 0x5C19 JUMPI POP DUP1 JUMPDEST PUSH1 0x1F DUP6 ADD PUSH1 0x5 SHR DUP3 ADD SWAP2 POP JUMPDEST DUP2 DUP2 LT ISZERO PUSH2 0x16E5 JUMPI DUP3 DUP2 SSTORE PUSH1 0x1 ADD PUSH2 0x5C25 JUMP JUMPDEST DUP2 MLOAD PUSH8 0xFFFFFFFFFFFFFFFF DUP2 GT ISZERO PUSH2 0x5C52 JUMPI PUSH2 0x5C52 PUSH2 0x5137 JUMP JUMPDEST PUSH2 0x5C66 DUP2 PUSH2 0x5C60 DUP5 SLOAD PUSH2 0x5A8F JUMP JUMPDEST DUP5 PUSH2 0x5BF0 JUMP JUMPDEST PUSH1 0x20 DUP1 PUSH1 0x1F DUP4 GT PUSH1 0x1 DUP2 EQ PUSH2 0x5C9B JUMPI PUSH1 0x0 DUP5 ISZERO PUSH2 0x5C83 JUMPI POP DUP6 DUP4 ADD MLOAD JUMPDEST PUSH1 0x0 NOT PUSH1 0x3 DUP7 SWAP1 SHL SHR NOT AND PUSH1 0x1 DUP6 SWAP1 SHL OR DUP6 SSTORE PUSH2 0x16E5 JUMP JUMPDEST PUSH1 0x0 DUP6 DUP2 MSTORE PUSH1 0x20 DUP2 KECCAK256 PUSH1 0x1F NOT DUP7 AND SWAP2 JUMPDEST DUP3 DUP2 LT ISZERO PUSH2 0x5CCA JUMPI DUP9 DUP7 ADD MLOAD DUP3 SSTORE SWAP5 DUP5 ADD SWAP5 PUSH1 0x1 SWAP1 SWAP2 ADD SWAP1 DUP5 ADD PUSH2 0x5CAB JUMP JUMPDEST POP DUP6 DUP3 LT ISZERO PUSH2 0x5CE8 JUMPI DUP8 DUP6 ADD MLOAD PUSH1 0x0 NOT PUSH1 0x3 DUP9 SWAP1 SHL PUSH1 0xF8 AND SHR NOT AND DUP2 SSTORE JUMPDEST POP POP POP POP POP PUSH1 0x1 SWAP1 DUP2 SHL ADD SWAP1 SSTORE POP JUMP JUMPDEST PUSH1 0x20 DUP1 DUP3 MSTORE PUSH1 0x1F SWAP1 DUP3 ADD MSTORE PUSH32 0xD090D183D0BAD186D0B8D0BED0BD20D0B7D0B0D0B2D0B5D180D188D191D0BD00 PUSH1 0x40 DUP3 ADD MSTORE PUSH1 0x60 ADD SWAP1 JUMP JUMPDEST DUP1 DUP3 ADD DUP1 DUP3 GT ISZERO PUSH2 0x476 JUMPI PUSH2 0x476 PUSH2 0x5BC3 JUMP JUMPDEST PUSH1 0x0 DUP1 DUP6 DUP6 GT ISZERO PUSH2 0x5D52 JUMPI PUSH1 0x0 DUP1 REVERT JUMPDEST DUP4 DUP7 GT ISZERO PUSH2 0x5D5F JUMPI PUSH1 0x0 DUP1 REVERT JUMPDEST POP POP DUP3 ADD SWAP4 SWAP2 SWAP1 SWAP3 SUB SWAP2 POP JUMP JUMPDEST PUSH6 0x50524F46492D PUSH1 0xD0 SHL DUP2 MSTORE DUP2 DUP4 PUSH1 0x6 DUP4 ADD CALLDATACOPY PUSH4 0xC8C0C8D PUSH1 0xE2 SHL SWAP2 ADD PUSH1 0x6 DUP2 ADD SWAP2 SWAP1 SWAP2 MSTORE PUSH1 0xA ADD SWAP2 SWAP1 POP JUMP JUMPDEST PUSH1 0x0 DUP3 MLOAD PUSH2 0x5DAB DUP2 DUP5 PUSH1 0x20 DUP8 ADD PUSH2 0x5038 JUMP JUMPDEST SWAP2 SWAP1 SWAP2 ADD SWAP3 SWAP2 POP POP JUMP JUMPDEST DUP2 DUP2 SUB DUP2 DUP2 GT ISZERO PUSH2 0x476 JUMPI PUSH2 0x476 PUSH2 0x5BC3 JUMP JUMPDEST PUSH1 0x0 DUP3 PUSH2 0x5DE5 JUMPI PUSH4 0x4E487B71 PUSH1 0xE0 SHL PUSH1 0x0 MSTORE PUSH1 0x12 PUSH1 0x4 MSTORE PUSH1 0x24 PUSH1 0x0 REVERT JUMPDEST POP DIV SWAP1 JUMP JUMPDEST PUSH1 0x40 DUP2 MSTORE PUSH1 0x0 PUSH2 0x5DFD PUSH1 0x40 DUP4 ADD DUP6 PUSH2 0x5519 JUMP JUMPDEST DUP3 DUP2 SUB PUSH1 0x20 DUP5 ADD MSTORE PUSH2 0x5E0F DUP2 DUP6 PUSH2 0x5519 JUMP JUMPDEST SWAP6 SWAP5 POP POP POP POP POP JUMP JUMPDEST PUSH1 0x1 PUSH1 0x1 PUSH1 0xA0 SHL SUB DUP7 DUP2 AND DUP3 MSTORE DUP6 AND PUSH1 0x20 DUP3 ADD MSTORE PUSH1 0x40 DUP2 ADD DUP5 SWAP1 MSTORE PUSH1 0x60 DUP2 ADD DUP4 SWAP1 MSTORE PUSH1 0xA0 PUSH1 0x80 DUP3 ADD DUP2 SWAP1 MSTORE PUSH1 0x0 SWAP1 PUSH2 0x5E52 SWAP1 DUP4 ADD DUP5 PUSH2 0x505C JUMP JUMPDEST SWAP8 SWAP7 POP POP POP POP POP POP POP JUMP JUMPDEST PUSH1 0x0 PUSH1 0x20 DUP3 DUP5 SUB SLT ISZERO PUSH2 0x5E6F JUMPI PUSH1 0x0 DUP1 REVERT JUMPDEST DUP2 MLOAD PUSH2 0x5018 DUP2 PUSH2 0x4FE5 JUMP JUMPDEST PUSH1 0x1 PUSH1 0x1 PUSH1 0xA0 SHL SUB DUP7 DUP2 AND DUP3 MSTORE DUP6 AND PUSH1 0x20 DUP3 ADD MSTORE PUSH1 0xA0 PUSH1 0x40 DUP3 ADD DUP2 SWAP1 MSTORE PUSH1 0x0 SWAP1 PUSH2 0x5EA6 SWAP1 DUP4 ADD DUP7 PUSH2 0x5519 JUMP JUMPDEST DUP3 DUP2 SUB PUSH1 0x60 DUP5 ADD MSTORE PUSH2 0x5EB8 DUP2 DUP7 PUSH2 0x5519 JUMP JUMPDEST SWAP1 POP DUP3 DUP2 SUB PUSH1 0x80 DUP5 ADD MSTORE PUSH2 0x5ECC DUP2 DUP6 PUSH2 0x505C JUMP JUMPDEST SWAP9 SWAP8 POP POP POP POP POP POP POP POP JUMP INVALID LOG2 PUSH5 0x6970667358 0x22 SLT KECCAK256 0xD7 JUMP CALLDATASIZE MUL CALLVALUE 0xD9 PUSH6 0x5E69137F3015 SELFBALANCE LOG1 GASLIMIT BASEFEE CALLDATALOAD DUP1 CODESIZE CREATE2 0xB6 NOT 0xB1 SWAP1 0xD0 0x2F ADDRESS 0xBC SWAP16 SWAP6 0xDB PUSH5 0x736F6C6343 STOP ADDMOD AND STOP CALLER 0xD0 SWAP16 0xD1 DUP4 0xD0 0xB7 0xD1 DUP12 0xD1 DUP1 0xD0 0xB8 0xD0 0xBA KECCAK256 0xD0 0xBF 0xD0 0xBE 0xD1 DUP6 0xD0 0xB8 0xD1 DUP3 0xD0 0xB8 0xD0 0xBB KECCAK256 0xD0 0xBA 0xD0 0xBE 0xD1 DUP3 0xD0 0xB8 0xD0 0xBA 0xD0 0xB0 KECCAK256 0xD1 DUP2 KECCAK256 0xD0 SWAP8 0xD0 0xB5 0xD0 0xBC 0xD0 0xBB 0xD0 0xB8 0xD0 SWAP11 0xD0 0xBE 0xD0 0xBC 0xD0 0xBE 0xD1 DUP8 0xD0 0xB5 0xD0 0xBA KECCAK256 0xD1 DUP2 0xD0 0xBB 0xD0 0xB8 0xD0 0xBB 0xD1 DUP2 0xD1 DUP16 KECCAK256 0xD1 DUP2 KECCAK256 0xD0 0xBA 0xD0 0xBE 0xD1 DUP2 0xD0 0xBC 0xD0 0xBE 0xD1 DUP2 0xD0 0xBE 0xD0 0xBC 0xD0 SWAP3 0xD0 0xBA 0xD1 DUP4 0xD1 DUP2 0xD0 0xBD 0xD1 DUP16 0xD1 DUP9 0xD0 0xBA 0xD0 0xB0 KECCAK256 0xD0 0xB2 0xD0 0xBF 0xD0 0xB5 0xD1 DUP1 0xD0 0xB2 0xD1 DUP12 0xD0 0xB5 KECCAK256 0xD0 0xBF 0xD1 DUP1 0xD0 0xBE 0xD0 0xB1 0xD1 DUP4 0xD0 0xB5 0xD1 DUP3 KECCAK256 0xD1 DUP16 0xD0 0xBF 0xD0 0xBE 0xD0 0xBD 0xD1 DUP2 0xD0 0xBA 0xD1 DUP4 0xD1 DUP15 KECCAK256 0xD0 0xBA 0xD1 DUP4 0xD1 DUP6 0xD0 0xBD 0xD1 DUP15 0xD0 SWAP15 0xD0 0xBD KECCAK256 0xD0 0xB8 0xD0 0xB4 0xD0 0xB5 0xD1 DUP3 KECCAK256 0xD0 0xB8 0xD0 0xB3 0xD1 DUP1 0xD0 0xB0 0xD1 DUP3 0xD1 DUP13 KECCAK256 0xD0 0xB2 KECCAK256 0xD0 0xB1 0xD0 0xB0 0xD1 DUP2 0xD0 0xBA 0xD0 0xB5 0xD1 DUP3 0xD0 0xB1 0xD0 0xBE 0xD0 0xBB "
		},
		"gasEstimates": {
			"creation": {
				"codeDepositCost": "4866800",
				"executionCost": "infinite",
				"totalCost": "infinite"
			},
			"external": {
				"addUsersRef(address)": "infinite",
				"balanceOf(address,uint256)": "2683",
				"balanceOfBatch(address[],uint256[])": "infinite",
				"bet(uint256,uint256)": "infinite",
				"buyNFT(uint256,uint256,uint256)": "infinite",
				"changeSellPrice(uint256,uint256)": "31160",
				"checkAucTime(uint256)": "infinite",
				"createCollection(string,string,uint256[],uint256[])": "infinite",
				"createNFT(string,string,string,uint256,uint256)": "infinite",
				"createRef(string)": "infinite",
				"finishAuc(uint256)": "infinite",
				"getArrayAsset()": "infinite",
				"getAsset(uint256)": "infinite",
				"getCollectionAsset()": "infinite",
				"getReferrals()": "infinite",
				"getTime()": "247",
				"getUserReferral()": "infinite",
				"getsellsArray()": "infinite",
				"isApprovedForAll(address,address)": "infinite",
				"safeBatchTransferFrom(address,address,uint256[],uint256[],bytes)": "infinite",
				"safeTransferFrom(address,address,uint256,uint256,bytes)": "infinite",
				"sellNFT(uint256,uint256,uint256,uint256)": "166166",
				"setApprovalForAll(address,bool)": "26749",
				"startAuc(uint256,uint256,uint256,uint256,uint256)": "infinite",
				"supportsInterface(bytes4)": "601",
				"takeNFT(uint256)": "infinite",
				"transferNFT(uint256,uint256,address,uint256)": "infinite",
				"upBet(uint256,uint256)": "infinite",
				"uri(uint256)": "infinite",
				"useReferral(string)": "infinite"
			}
		},
		"methodIdentifiers": {
			"addUsersRef(address)": "1b1bf2b9",
			"balanceOf(address,uint256)": "00fdd58e",
			"balanceOfBatch(address[],uint256[])": "4e1273f4",
			"bet(uint256,uint256)": "6ffcc719",
			"buyNFT(uint256,uint256,uint256)": "e4b70b42",
			"changeSellPrice(uint256,uint256)": "90420aee",
			"checkAucTime(uint256)": "bfcc4394",
			"createCollection(string,string,uint256[],uint256[])": "f3d174ca",
			"createNFT(string,string,string,uint256,uint256)": "2ac7cf6c",
			"createRef(string)": "4dad2aab",
			"finishAuc(uint256)": "222d9c5c",
			"getArrayAsset()": "e713f42c",
			"getAsset(uint256)": "eac8f5b8",
			"getCollectionAsset()": "f8976921",
			"getReferrals()": "a2a376cd",
			"getTime()": "557ed1ba",
			"getUserReferral()": "41fdf031",
			"getsellsArray()": "24897ed6",
			"isApprovedForAll(address,address)": "e985e9c5",
			"safeBatchTransferFrom(address,address,uint256[],uint256[],bytes)": "2eb2c2d6",
			"safeTransferFrom(address,address,uint256,uint256,bytes)": "f242432a",
			"sellNFT(uint256,uint256,uint256,uint256)": "f598b707",
			"setApprovalForAll(address,bool)": "a22cb465",
			"startAuc(uint256,uint256,uint256,uint256,uint256)": "f989965d",
			"supportsInterface(bytes4)": "01ffc9a7",
			"takeNFT(uint256)": "fb2facc3",
			"transferNFT(uint256,uint256,address,uint256)": "85494e45",
			"upBet(uint256,uint256)": "2d632205",
			"uri(uint256)": "0e89341c",
			"useReferral(string)": "97f588c6"
		}
	},
	"abi": [
		{
			"inputs": [
				{
					"internalType": "address",
					"name": "_contractAddress",
					"type": "address"
				}
			],
			"stateMutability": "nonpayable",
			"type": "constructor"
		},
		{
			"inputs": [
				{
					"internalType": "address",
					"name": "sender",
					"type": "address"
				},
				{
					"internalType": "uint256",
					"name": "balance",
					"type": "uint256"
				},
				{
					"internalType": "uint256",
					"name": "needed",
					"type": "uint256"
				},
				{
					"internalType": "uint256",
					"name": "tokenId",
					"type": "uint256"
				}
			],
			"name": "ERC1155InsufficientBalance",
			"type": "error"
		},
		{
			"inputs": [
				{
					"internalType": "address",
					"name": "approver",
					"type": "address"
				}
			],
			"name": "ERC1155InvalidApprover",
			"type": "error"
		},
		{
			"inputs": [
				{
					"internalType": "uint256",
					"name": "idsLength",
					"type": "uint256"
				},
				{
					"internalType": "uint256",
					"name": "valuesLength",
					"type": "uint256"
				}
			],
			"name": "ERC1155InvalidArrayLength",
			"type": "error"
		},
		{
			"inputs": [
				{
					"internalType": "address",
					"name": "operator",
					"type": "address"
				}
			],
			"name": "ERC1155InvalidOperator",
			"type": "error"
		},
		{
			"inputs": [
				{
					"internalType": "address",
					"name": "receiver",
					"type": "address"
				}
			],
			"name": "ERC1155InvalidReceiver",
			"type": "error"
		},
		{
			"inputs": [
				{
					"internalType": "address",
					"name": "sender",
					"type": "address"
				}
			],
			"name": "ERC1155InvalidSender",
			"type": "error"
		},
		{
			"inputs": [
				{
					"internalType": "address",
					"name": "operator",
					"type": "address"
				},
				{
					"internalType": "address",
					"name": "owner",
					"type": "address"
				}
			],
			"name": "ERC1155MissingApprovalForAll",
			"type": "error"
		},
		{
			"anonymous": false,
			"inputs": [
				{
					"indexed": true,
					"internalType": "address",
					"name": "account",
					"type": "address"
				},
				{
					"indexed": true,
					"internalType": "address",
					"name": "operator",
					"type": "address"
				},
				{
					"indexed": false,
					"internalType": "bool",
					"name": "approved",
					"type": "bool"
				}
			],
			"name": "ApprovalForAll",
			"type": "event"
		},
		{
			"anonymous": false,
			"inputs": [
				{
					"indexed": true,
					"internalType": "address",
					"name": "operator",
					"type": "address"
				},
				{
					"indexed": true,
					"internalType": "address",
					"name": "from",
					"type": "address"
				},
				{
					"indexed": true,
					"internalType": "address",
					"name": "to",
					"type": "address"
				},
				{
					"indexed": false,
					"internalType": "uint256[]",
					"name": "ids",
					"type": "uint256[]"
				},
				{
					"indexed": false,
					"internalType": "uint256[]",
					"name": "values",
					"type": "uint256[]"
				}
			],
			"name": "TransferBatch",
			"type": "event"
		},
		{
			"anonymous": false,
			"inputs": [
				{
					"indexed": true,
					"internalType": "address",
					"name": "operator",
					"type": "address"
				},
				{
					"indexed": true,
					"internalType": "address",
					"name": "from",
					"type": "address"
				},
				{
					"indexed": true,
					"internalType": "address",
					"name": "to",
					"type": "address"
				},
				{
					"indexed": false,
					"internalType": "uint256",
					"name": "id",
					"type": "uint256"
				},
				{
					"indexed": false,
					"internalType": "uint256",
					"name": "value",
					"type": "uint256"
				}
			],
			"name": "TransferSingle",
			"type": "event"
		},
		{
			"anonymous": false,
			"inputs": [
				{
					"indexed": false,
					"internalType": "string",
					"name": "value",
					"type": "string"
				},
				{
					"indexed": true,
					"internalType": "uint256",
					"name": "id",
					"type": "uint256"
				}
			],
			"name": "URI",
			"type": "event"
		},
		{
			"inputs": [
				{
					"internalType": "address",
					"name": "_users",
					"type": "address"
				}
			],
			"name": "addUsersRef",
			"outputs": [],
			"stateMutability": "nonpayable",
			"type": "function"
		},
		{
			"inputs": [
				{
					"internalType": "address",
					"name": "account",
					"type": "address"
				},
				{
					"internalType": "uint256",
					"name": "id",
					"type": "uint256"
				}
			],
			"name": "balanceOf",
			"outputs": [
				{
					"internalType": "uint256",
					"name": "",
					"type": "uint256"
				}
			],
			"stateMutability": "view",
			"type": "function"
		},
		{
			"inputs": [
				{
					"internalType": "address[]",
					"name": "accounts",
					"type": "address[]"
				},
				{
					"internalType": "uint256[]",
					"name": "ids",
					"type": "uint256[]"
				}
			],
			"name": "balanceOfBatch",
			"outputs": [
				{
					"internalType": "uint256[]",
					"name": "",
					"type": "uint256[]"
				}
			],
			"stateMutability": "view",
			"type": "function"
		},
		{
			"inputs": [
				{
					"internalType": "uint256",
					"name": "_idx",
					"type": "uint256"
				},
				{
					"internalType": "uint256",
					"name": "_bet",
					"type": "uint256"
				}
			],
			"name": "bet",
			"outputs": [],
			"stateMutability": "nonpayable",
			"type": "function"
		},
		{
			"inputs": [
				{
					"internalType": "uint256",
					"name": "_id",
					"type": "uint256"
				},
				{
					"internalType": "uint256",
					"name": "_amount",
					"type": "uint256"
				},
				{
					"internalType": "uint256",
					"name": "_discount",
					"type": "uint256"
				}
			],
			"name": "buyNFT",
			"outputs": [],
			"stateMutability": "nonpayable",
			"type": "function"
		},
		{
			"inputs": [
				{
					"internalType": "uint256",
					"name": "_idx",
					"type": "uint256"
				},
				{
					"internalType": "uint256",
					"name": "_price",
					"type": "uint256"
				}
			],
			"name": "changeSellPrice",
			"outputs": [],
			"stateMutability": "nonpayable",
			"type": "function"
		},
		{
			"inputs": [
				{
					"internalType": "uint256",
					"name": "_idx",
					"type": "uint256"
				}
			],
			"name": "checkAucTime",
			"outputs": [],
			"stateMutability": "nonpayable",
			"type": "function"
		},
		{
			"inputs": [
				{
					"internalType": "string",
					"name": "_name",
					"type": "string"
				},
				{
					"internalType": "string",
					"name": "_desc",
					"type": "string"
				},
				{
					"internalType": "uint256[]",
					"name": "_ids",
					"type": "uint256[]"
				},
				{
					"internalType": "uint256[]",
					"name": "_amounts",
					"type": "uint256[]"
				}
			],
			"name": "createCollection",
			"outputs": [],
			"stateMutability": "nonpayable",
			"type": "function"
		},
		{
			"inputs": [
				{
					"internalType": "string",
					"name": "_name",
					"type": "string"
				},
				{
					"internalType": "string",
					"name": "_desc",
					"type": "string"
				},
				{
					"internalType": "string",
					"name": "_img",
					"type": "string"
				},
				{
					"internalType": "uint256",
					"name": "_price",
					"type": "uint256"
				},
				{
					"internalType": "uint256",
					"name": "_releasedAmount",
					"type": "uint256"
				}
			],
			"name": "createNFT",
			"outputs": [],
			"stateMutability": "nonpayable",
			"type": "function"
		},
		{
			"inputs": [
				{
					"internalType": "string",
					"name": "_wallet",
					"type": "string"
				}
			],
			"name": "createRef",
			"outputs": [],
			"stateMutability": "nonpayable",
			"type": "function"
		},
		{
			"inputs": [
				{
					"internalType": "uint256",
					"name": "_idx",
					"type": "uint256"
				}
			],
			"name": "finishAuc",
			"outputs": [],
			"stateMutability": "nonpayable",
			"type": "function"
		},
		{
			"inputs": [],
			"name": "getArrayAsset",
			"outputs": [
				{
					"components": [
						{
							"internalType": "uint256",
							"name": "idx",
							"type": "uint256"
						},
						{
							"internalType": "string",
							"name": "name",
							"type": "string"
						},
						{
							"internalType": "string",
							"name": "desc",
							"type": "string"
						},
						{
							"internalType": "string",
							"name": "img",
							"type": "string"
						},
						{
							"internalType": "uint256",
							"name": "price",
							"type": "uint256"
						},
						{
							"internalType": "uint256",
							"name": "releasedAmount",
							"type": "uint256"
						},
						{
							"internalType": "uint256",
							"name": "dateCreate",
							"type": "uint256"
						},
						{
							"internalType": "uint256",
							"name": "collectionId",
							"type": "uint256"
						}
					],
					"internalType": "struct NFT.AssetNFT[]",
					"name": "",
					"type": "tuple[]"
				}
			],
			"stateMutability": "view",
			"type": "function"
		},
		{
			"inputs": [
				{
					"internalType": "uint256",
					"name": "_idx",
					"type": "uint256"
				}
			],
			"name": "getAsset",
			"outputs": [
				{
					"components": [
						{
							"internalType": "uint256",
							"name": "idx",
							"type": "uint256"
						},
						{
							"internalType": "string",
							"name": "name",
							"type": "string"
						},
						{
							"internalType": "string",
							"name": "desc",
							"type": "string"
						},
						{
							"internalType": "string",
							"name": "img",
							"type": "string"
						},
						{
							"internalType": "uint256",
							"name": "price",
							"type": "uint256"
						},
						{
							"internalType": "uint256",
							"name": "releasedAmount",
							"type": "uint256"
						},
						{
							"internalType": "uint256",
							"name": "dateCreate",
							"type": "uint256"
						},
						{
							"internalType": "uint256",
							"name": "collectionId",
							"type": "uint256"
						}
					],
					"internalType": "struct NFT.AssetNFT",
					"name": "",
					"type": "tuple"
				}
			],
			"stateMutability": "view",
			"type": "function"
		},
		{
			"inputs": [],
			"name": "getCollectionAsset",
			"outputs": [
				{
					"components": [
						{
							"internalType": "string",
							"name": "name",
							"type": "string"
						},
						{
							"internalType": "string",
							"name": "desc",
							"type": "string"
						},
						{
							"internalType": "uint256[]",
							"name": "ids",
							"type": "uint256[]"
						},
						{
							"internalType": "uint256[]",
							"name": "amounts",
							"type": "uint256[]"
						}
					],
					"internalType": "struct NFT.CollectionAsset[]",
					"name": "",
					"type": "tuple[]"
				}
			],
			"stateMutability": "view",
			"type": "function"
		},
		{
			"inputs": [],
			"name": "getReferrals",
			"outputs": [
				{
					"components": [
						{
							"internalType": "string",
							"name": "name",
							"type": "string"
						},
						{
							"internalType": "address",
							"name": "owner",
							"type": "address"
						},
						{
							"internalType": "uint256",
							"name": "discount",
							"type": "uint256"
						},
						{
							"internalType": "address[]",
							"name": "users",
							"type": "address[]"
						}
					],
					"internalType": "struct NFT.ReferralCode[]",
					"name": "",
					"type": "tuple[]"
				}
			],
			"stateMutability": "view",
			"type": "function"
		},
		{
			"inputs": [],
			"name": "getTime",
			"outputs": [
				{
					"internalType": "uint256",
					"name": "",
					"type": "uint256"
				}
			],
			"stateMutability": "view",
			"type": "function"
		},
		{
			"inputs": [],
			"name": "getUserReferral",
			"outputs": [
				{
					"internalType": "string",
					"name": "",
					"type": "string"
				}
			],
			"stateMutability": "view",
			"type": "function"
		},
		{
			"inputs": [],
			"name": "getsellsArray",
			"outputs": [
				{
					"components": [
						{
							"internalType": "uint256",
							"name": "id",
							"type": "uint256"
						},
						{
							"internalType": "uint256",
							"name": "assetId",
							"type": "uint256"
						},
						{
							"internalType": "uint256",
							"name": "assetIdx",
							"type": "uint256"
						},
						{
							"internalType": "address",
							"name": "seller",
							"type": "address"
						},
						{
							"internalType": "uint256",
							"name": "amount",
							"type": "uint256"
						},
						{
							"internalType": "uint256",
							"name": "price",
							"type": "uint256"
						}
					],
					"internalType": "struct NFT.AssetSell[]",
					"name": "",
					"type": "tuple[]"
				}
			],
			"stateMutability": "view",
			"type": "function"
		},
		{
			"inputs": [
				{
					"internalType": "address",
					"name": "account",
					"type": "address"
				},
				{
					"internalType": "address",
					"name": "operator",
					"type": "address"
				}
			],
			"name": "isApprovedForAll",
			"outputs": [
				{
					"internalType": "bool",
					"name": "",
					"type": "bool"
				}
			],
			"stateMutability": "view",
			"type": "function"
		},
		{
			"inputs": [
				{
					"internalType": "address",
					"name": "from",
					"type": "address"
				},
				{
					"internalType": "address",
					"name": "to",
					"type": "address"
				},
				{
					"internalType": "uint256[]",
					"name": "ids",
					"type": "uint256[]"
				},
				{
					"internalType": "uint256[]",
					"name": "values",
					"type": "uint256[]"
				},
				{
					"internalType": "bytes",
					"name": "data",
					"type": "bytes"
				}
			],
			"name": "safeBatchTransferFrom",
			"outputs": [],
			"stateMutability": "nonpayable",
			"type": "function"
		},
		{
			"inputs": [
				{
					"internalType": "address",
					"name": "from",
					"type": "address"
				},
				{
					"internalType": "address",
					"name": "to",
					"type": "address"
				},
				{
					"internalType": "uint256",
					"name": "id",
					"type": "uint256"
				},
				{
					"internalType": "uint256",
					"name": "value",
					"type": "uint256"
				},
				{
					"internalType": "bytes",
					"name": "data",
					"type": "bytes"
				}
			],
			"name": "safeTransferFrom",
			"outputs": [],
			"stateMutability": "nonpayable",
			"type": "function"
		},
		{
			"inputs": [
				{
					"internalType": "uint256",
					"name": "_id",
					"type": "uint256"
				},
				{
					"internalType": "uint256",
					"name": "_AssetIdx",
					"type": "uint256"
				},
				{
					"internalType": "uint256",
					"name": "_amount",
					"type": "uint256"
				},
				{
					"internalType": "uint256",
					"name": "_price",
					"type": "uint256"
				}
			],
			"name": "sellNFT",
			"outputs": [],
			"stateMutability": "nonpayable",
			"type": "function"
		},
		{
			"inputs": [
				{
					"internalType": "address",
					"name": "operator",
					"type": "address"
				},
				{
					"internalType": "bool",
					"name": "approved",
					"type": "bool"
				}
			],
			"name": "setApprovalForAll",
			"outputs": [],
			"stateMutability": "nonpayable",
			"type": "function"
		},
		{
			"inputs": [
				{
					"internalType": "uint256",
					"name": "_collectionId",
					"type": "uint256"
				},
				{
					"internalType": "uint256",
					"name": "_timeStart",
					"type": "uint256"
				},
				{
					"internalType": "uint256",
					"name": "_timeEnd",
					"type": "uint256"
				},
				{
					"internalType": "uint256",
					"name": "_maxPrice",
					"type": "uint256"
				},
				{
					"internalType": "uint256",
					"name": "_minPrice",
					"type": "uint256"
				}
			],
			"name": "startAuc",
			"outputs": [],
			"stateMutability": "nonpayable",
			"type": "function"
		},
		{
			"inputs": [
				{
					"internalType": "bytes4",
					"name": "interfaceId",
					"type": "bytes4"
				}
			],
			"name": "supportsInterface",
			"outputs": [
				{
					"internalType": "bool",
					"name": "",
					"type": "bool"
				}
			],
			"stateMutability": "view",
			"type": "function"
		},
		{
			"inputs": [
				{
					"internalType": "uint256",
					"name": "_idx",
					"type": "uint256"
				}
			],
			"name": "takeNFT",
			"outputs": [],
			"stateMutability": "nonpayable",
			"type": "function"
		},
		{
			"inputs": [
				{
					"internalType": "uint256",
					"name": "_id",
					"type": "uint256"
				},
				{
					"internalType": "uint256",
					"name": "_idx",
					"type": "uint256"
				},
				{
					"internalType": "address",
					"name": "_receiver",
					"type": "address"
				},
				{
					"internalType": "uint256",
					"name": "_amount",
					"type": "uint256"
				}
			],
			"name": "transferNFT",
			"outputs": [],
			"stateMutability": "nonpayable",
			"type": "function"
		},
		{
			"inputs": [
				{
					"internalType": "uint256",
					"name": "_idx",
					"type": "uint256"
				},
				{
					"internalType": "uint256",
					"name": "_amount",
					"type": "uint256"
				}
			],
			"name": "upBet",
			"outputs": [],
			"stateMutability": "nonpayable",
			"type": "function"
		},
		{
			"inputs": [
				{
					"internalType": "uint256",
					"name": "",
					"type": "uint256"
				}
			],
			"name": "uri",
			"outputs": [
				{
					"internalType": "string",
					"name": "",
					"type": "string"
				}
			],
			"stateMutability": "view",
			"type": "function"
		},
		{
			"inputs": [
				{
					"internalType": "string",
					"name": "_referral",
					"type": "string"
				}
			],
			"name": "useReferral",
			"outputs": [],
			"stateMutability": "nonpayable",
			"type": "function"
		}
	]
}