{
	"data": {
		"bytecode": {
			"linkReferences": {},
			"object": "608060405234801562000010575f80fd5b5060405162006f2538038062006f25833981810160405281019062000036919062001034565b60405180602001604052805f81525062000056816200035460201b60201c565b508060055f6101000a81548173ffffffffffffffffffffffffffffffffffffffff021916908373ffffffffffffffffffffffffffffffffffffffff16021790555060055f9054906101000a900473ffffffffffffffffffffffffffffffffffffffff1673ffffffffffffffffffffffffffffffffffffffff1663313ce5676040518163ffffffff1660e01b8152600401602060405180830381865afa15801562000102573d5f803e3d5ffd5b505050506040513d601f19601f820116820180604052508101906200012891906200109f565b600a62000136919062001255565b6003819055503360045f6101000a81548173ffffffffffffffffffffffffffffffffffffffff021916908373ffffffffffffffffffffffffffffffffffffffff160217905550620002175f6040518060400160405280600e81526020017fd09ad0bed0bcd0bed187d0b5d0ba0000000000000000000000000000000000008152506040518060600160405280602f815260200162006eaa602f91396040518060400160405280600c81526020017f6361745f6e6674312e706e6700000000000000000000000000000000000000008152505f6001426200036960201b60201c565b620002b25f6040518060400160405280601281526020017fd092d0bad183d181d0bdd18fd188d0bad0b000000000000000000000000000008152506040518060800160405280604c815260200162006ed9604c91396040518060400160405280600c81526020017f6361745f6e6674322e706e6700000000000000000000000000000000000000008152505f6001426200036960201b60201c565b6200034d5f6040518060400160405280600e81526020017fd09fd183d0b7d18bd180d0b8d0ba00000000000000000000000000000000000081525060405180606001604052806038815260200162006e72603891396040518060400160405280600c81526020017f6361745f6e6674332e706e6700000000000000000000000000000000000000008152505f6001426200036960201b60201c565b5062001b1f565b806002908162000365919062001500565b5050565b60045f9054906101000a900473ffffffffffffffffffffffffffffffffffffffff1673ffffffffffffffffffffffffffffffffffffffff163373ffffffffffffffffffffffffffffffffffffffff1614620003fb576040517f08c379a0000000000000000000000000000000000000000000000000000000008152600401620003f2906200168e565b60405180910390fd5b5f60085f8981526020019081526020015f20600501541462000454576040517f08c379a00000000000000000000000000000000000000000000000000000000081526004016200044b9062001722565b60405180910390fd5b6200047633888460405180602001604052805f815250620006dc60201b60201c565b60405180610100016040528088815260200160095f3373ffffffffffffffffffffffffffffffffffffffff1673ffffffffffffffffffffffffffffffffffffffff1681526020019081526020015f208054905081526020018781526020018681526020018581526020018481526020018381526020018281525060085f8981526020019081526020015f205f820151815f01556020820151816001015560408201518160020190816200052a919062001500565b50606082015181600301908162000542919062001500565b5060808201518160040190816200055a919062001500565b5060a0820151816005015560c0820151816006015560e0820151816007015590505060095f3373ffffffffffffffffffffffffffffffffffffffff1673ffffffffffffffffffffffffffffffffffffffff1681526020019081526020015f2060405180610100016040528089815260200160095f3373ffffffffffffffffffffffffffffffffffffffff1673ffffffffffffffffffffffffffffffffffffffff1681526020019081526020015f2080549050815260200188815260200187815260200186815260200185815260200184815260200183815250908060018154018082558091505060019003905f5260205f2090600802015f909190919091505f820151815f015560208201518160010155604082015181600201908162000682919062001500565b5060608201518160030190816200069a919062001500565b506080820151816004019081620006b2919062001500565b5060a0820151816005015560c0820151816006015560e08201518160070155505050505050505050565b5f73ffffffffffffffffffffffffffffffffffffffff168473ffffffffffffffffffffffffffffffffffffffff16036200074f575f6040517f57f447ce00000000000000000000000000000000000000000000000000000000815260040162000746919062001753565b60405180910390fd5b5f806200076385856200078460201b60201c565b915091506200077c5f87848487620007b460201b60201c565b505050505050565b60608060405191506001825283602083015260408201905060018152826020820152604081016040529250929050565b620007c8858585856200088760201b60201c565b5f73ffffffffffffffffffffffffffffffffffffffff168473ffffffffffffffffffffffffffffffffffffffff161462000880575f6200080d62000c3960201b60201c565b9050600184510362000867575f6200082f5f8662000c4060201b90919060201c565b90505f620008475f8662000c4060201b90919060201c565b90506200085f83898985858962000c5360201b60201c565b50506200087e565b6200087d81878787878762000e1160201b60201c565b5b505b5050505050565b8051825114620008d457815181516040517f5b059991000000000000000000000000000000000000000000000000000000008152600401620008cb9291906200177f565b60405180910390fd5b5f620008e562000c3960201b60201c565b90505f5b835181101562000aee575f62000909828662000c4060201b90919060201c565b90505f62000921838662000c4060201b90919060201c565b90505f73ffffffffffffffffffffffffffffffffffffffff168873ffffffffffffffffffffffffffffffffffffffff161462000a48575f805f8481526020019081526020015f205f8a73ffffffffffffffffffffffffffffffffffffffff1673ffffffffffffffffffffffffffffffffffffffff1681526020019081526020015f2054905081811015620009f457888183856040517f03dee4c5000000000000000000000000000000000000000000000000000000008152600401620009eb9493929190620017aa565b60405180910390fd5b8181035f808581526020019081526020015f205f8b73ffffffffffffffffffffffffffffffffffffffff1673ffffffffffffffffffffffffffffffffffffffff1681526020019081526020015f2081905550505b5f73ffffffffffffffffffffffffffffffffffffffff168773ffffffffffffffffffffffffffffffffffffffff161462000ae057805f808481526020019081526020015f205f8973ffffffffffffffffffffffffffffffffffffffff1673ffffffffffffffffffffffffffffffffffffffff1681526020019081526020015f205f82825462000ad89190620017f5565b925050819055505b5050806001019050620008e9565b50600183510362000bb1575f62000b0f5f8562000c4060201b90919060201c565b90505f62000b275f8562000c4060201b90919060201c565b90508573ffffffffffffffffffffffffffffffffffffffff168773ffffffffffffffffffffffffffffffffffffffff168473ffffffffffffffffffffffffffffffffffffffff167fc3d58168c5ae7397731d063d5bbf3d657854427343f4c083240f7aacaa2d0f62858560405162000ba19291906200177f565b60405180910390a4505062000c32565b8373ffffffffffffffffffffffffffffffffffffffff168573ffffffffffffffffffffffffffffffffffffffff168273ffffffffffffffffffffffffffffffffffffffff167f4a39dc06d4c0dbc64b70af90fd698a233a518aa5d07e595d983b8c0526c8f7fb868660405162000c29929190620018f6565b60405180910390a45b5050505050565b5f33905090565b5f60208202602084010151905092915050565b5f8473ffffffffffffffffffffffffffffffffffffffff163b111562000e09578373ffffffffffffffffffffffffffffffffffffffff1663f23a6e6187878686866040518663ffffffff1660e01b815260040162000cb6959493929190620019c3565b6020604051808303815f875af192505050801562000cf457506040513d601f19601f8201168201806040525081019062000cf1919062001a7f565b60015b62000d7b573d805f811462000d25576040519150601f19603f3d011682016040523d82523d5f602084013e62000d2a565b606091505b505f81510362000d7357846040517f57f447ce00000000000000000000000000000000000000000000000000000000815260040162000d6a919062001753565b60405180910390fd5b805181602001fd5b63f23a6e6160e01b7bffffffffffffffffffffffffffffffffffffffffffffffffffffffff1916817bffffffffffffffffffffffffffffffffffffffffffffffffffffffff19161462000e0757846040517f57f447ce00000000000000000000000000000000000000000000000000000000815260040162000dfe919062001753565b60405180910390fd5b505b505050505050565b5f8473ffffffffffffffffffffffffffffffffffffffff163b111562000fc7578373ffffffffffffffffffffffffffffffffffffffff1663bc197c8187878686866040518663ffffffff1660e01b815260040162000e7495949392919062001aaf565b6020604051808303815f875af192505050801562000eb257506040513d601f19601f8201168201806040525081019062000eaf919062001a7f565b60015b62000f39573d805f811462000ee3576040519150601f19603f3d011682016040523d82523d5f602084013e62000ee8565b606091505b505f81510362000f3157846040517f57f447ce00000000000000000000000000000000000000000000000000000000815260040162000f28919062001753565b60405180910390fd5b805181602001fd5b63bc197c8160e01b7bffffffffffffffffffffffffffffffffffffffffffffffffffffffff1916817bffffffffffffffffffffffffffffffffffffffffffffffffffffffff19161462000fc557846040517f57f447ce00000000000000000000000000000000000000000000000000000000815260040162000fbc919062001753565b60405180910390fd5b505b505050505050565b5f80fd5b5f73ffffffffffffffffffffffffffffffffffffffff82169050919050565b5f62000ffe8262000fd3565b9050919050565b620010108162000ff2565b81146200101b575f80fd5b50565b5f815190506200102e8162001005565b92915050565b5f602082840312156200104c576200104b62000fcf565b5b5f6200105b848285016200101e565b91505092915050565b5f60ff82169050919050565b6200107b8162001064565b811462001086575f80fd5b50565b5f81519050620010998162001070565b92915050565b5f60208284031215620010b757620010b662000fcf565b5b5f620010c68482850162001089565b91505092915050565b7f4e487b71000000000000000000000000000000000000000000000000000000005f52601160045260245ffd5b5f8160011c9050919050565b5f808291508390505b60018511156200115957808604811115620011315762001130620010cf565b5b6001851615620011415780820291505b80810290506200115185620010fc565b945062001111565b94509492505050565b5f8262001173576001905062001245565b8162001182575f905062001245565b81600181146200119b5760028114620011a657620011dc565b600191505062001245565b60ff841115620011bb57620011ba620010cf565b5b8360020a915084821115620011d557620011d4620010cf565b5b5062001245565b5060208310610133831016604e8410600b8410161715620012165782820a90508381111562001210576200120f620010cf565b5b62001245565b62001225848484600162001108565b925090508184048111156200123f576200123e620010cf565b5b81810290505b9392505050565b5f819050919050565b5f62001261826200124c565b91506200126e8362001064565b92506200129d7fffffffffffffffffffffffffffffffffffffffffffffffffffffffffffffffff848462001162565b905092915050565b5f81519050919050565b7f4e487b71000000000000000000000000000000000000000000000000000000005f52604160045260245ffd5b7f4e487b71000000000000000000000000000000000000000000000000000000005f52602260045260245ffd5b5f60028204905060018216806200132157607f821691505b602082108103620013375762001336620012dc565b5b50919050565b5f819050815f5260205f209050919050565b5f6020601f8301049050919050565b5f82821b905092915050565b5f600883026200139b7fffffffffffffffffffffffffffffffffffffffffffffffffffffffffffffffff826200135e565b620013a786836200135e565b95508019841693508086168417925050509392505050565b5f819050919050565b5f620013e8620013e2620013dc846200124c565b620013bf565b6200124c565b9050919050565b5f819050919050565b6200140383620013c8565b6200141b6200141282620013ef565b8484546200136a565b825550505050565b5f90565b6200143162001423565b6200143e818484620013f8565b505050565b5b818110156200146557620014595f8262001427565b60018101905062001444565b5050565b601f821115620014b4576200147e816200133d565b62001489846200134f565b8101602085101562001499578190505b620014b1620014a8856200134f565b83018262001443565b50505b505050565b5f82821c905092915050565b5f620014d65f1984600802620014b9565b1980831691505092915050565b5f620014f08383620014c5565b9150826002028217905092915050565b6200150b82620012a5565b67ffffffffffffffff811115620015275762001526620012af565b5b62001533825462001309565b6200154082828562001469565b5f60209050601f83116001811462001576575f841562001561578287015190505b6200156d8582620014e3565b865550620015dc565b601f19841662001586866200133d565b5f5b82811015620015af5784890151825560018201915060208501945060208101905062001588565b86831015620015cf5784890151620015cb601f891682620014c5565b8355505b6001600288020188555050505b505050505050565b5f82825260208201905092915050565b7fd0a2d0bed0bbd18cd0bad0be20d0b2d0bbd0b0d0b4d0b5d0bbd0b5d18620d0bc5f8201527fd0bed0b6d0b5d18220d18dd182d0be20d0b8d181d0bfd0bed0bbd18cd0b7d0be60208201527fd0b2d0b0d182d18c000000000000000000000000000000000000000000000000604082015250565b5f62001676604883620015e4565b91506200168382620015f4565b606082019050919050565b5f6020820190508181035f830152620016a78162001668565b9050919050565b7f4e465420d18120d182d0b0d0bad0b8d0bc20696420d183d0b6d0b520d0b5d1815f8201527fd182d18c20d0b220d181d0b8d181d182d0b5d0bcd0b500000000000000000000602082015250565b5f6200170a603683620015e4565b91506200171782620016ae565b604082019050919050565b5f6020820190508181035f8301526200173b81620016fc565b9050919050565b6200174d8162000ff2565b82525050565b5f602082019050620017685f83018462001742565b92915050565b62001779816200124c565b82525050565b5f604082019050620017945f8301856200176e565b620017a360208301846200176e565b9392505050565b5f608082019050620017bf5f83018762001742565b620017ce60208301866200176e565b620017dd60408301856200176e565b620017ec60608301846200176e565b95945050505050565b5f62001801826200124c565b91506200180e836200124c565b9250828201905080821115620018295762001828620010cf565b5b92915050565b5f81519050919050565b5f82825260208201905092915050565b5f819050602082019050919050565b62001863816200124c565b82525050565b5f62001876838362001858565b60208301905092915050565b5f602082019050919050565b5f6200189a826200182f565b620018a6818562001839565b9350620018b38362001849565b805f5b83811015620018e9578151620018cd888262001869565b9750620018da8362001882565b925050600181019050620018b6565b5085935050505092915050565b5f6040820190508181035f8301526200191081856200188e565b905081810360208301526200192681846200188e565b90509392505050565b5f81519050919050565b5f82825260208201905092915050565b5f5b83811015620019685780820151818401526020810190506200194b565b5f8484015250505050565b5f601f19601f8301169050919050565b5f6200198f826200192f565b6200199b818562001939565b9350620019ad81856020860162001949565b620019b88162001973565b840191505092915050565b5f60a082019050620019d85f83018862001742565b620019e7602083018762001742565b620019f660408301866200176e565b62001a0560608301856200176e565b818103608083015262001a19818462001983565b90509695505050505050565b5f7fffffffff0000000000000000000000000000000000000000000000000000000082169050919050565b62001a5b8162001a25565b811462001a66575f80fd5b50565b5f8151905062001a798162001a50565b92915050565b5f6020828403121562001a975762001a9662000fcf565b5b5f62001aa68482850162001a69565b91505092915050565b5f60a08201905062001ac45f83018862001742565b62001ad3602083018762001742565b818103604083015262001ae781866200188e565b9050818103606083015262001afd81856200188e565b9050818103608083015262001b13818462001983565b90509695505050505050565b6153458062001b2d5f395ff3fe608060405234801561000f575f80fd5b5060043610610113575f3560e01c80637ba9165c116100a057806397f588c61161006f57806397f588c6146102e7578063a22cb46514610303578063a2a376cd1461031f578063e985e9c51461033d578063f242432a1461036d57610113565b80637ba9165c14610277578063845c54f61461029357806390420aee146102af578063958828e3146102cb57610113565b80633aacc912116100e75780633aacc912146101c35780634dad2aab146101df5780634e1273f41461020f57806368dadec21461023f578063694f82b41461025b57610113565b8062fdd58e1461011757806301ffc9a7146101475780630e89341c146101775780632eb2c2d6146101a7575b5f80fd5b610131600480360381019061012c91906135e8565b610389565b60405161013e9190613635565b60405180910390f35b610161600480360381019061015c91906136a3565b6103de565b60405161016e91906136e8565b60405180910390f35b610191600480360381019061018c9190613701565b6104bf565b60405161019e91906137b6565b60405180910390f35b6101c160048036038101906101bc91906139c6565b610551565b005b6101dd60048036038101906101d89190613a91565b6105f8565b005b6101f960048036038101906101f49190613b4e565b610b31565b60405161020691906137b6565b60405180910390f35b61022960048036038101906102249190613c59565b610dca565b6040516102369190613d86565b60405180910390f35b61025960048036038101906102549190613da6565b610ed1565b005b61027560048036038101906102709190613e94565b6117eb565b005b610291600480360381019061028c9190613f7b565b611a58565b005b6102ad60048036038101906102a89190613fdf565b611be7565b005b6102c960048036038101906102c491906140d0565b611f40565b005b6102e560048036038101906102e0919061410e565b612029565b005b61030160048036038101906102fc91906141ab565b61224c565b005b61031d6004803603810190610318919061421c565b6124b0565b005b6103276124c6565b60405161033491906143b9565b60405180910390f35b610357600480360381019061035291906143d9565b612610565b60405161036491906136e8565b60405180910390f35b61038760048036038101906103829190614417565b61269e565b005b5f805f8381526020019081526020015f205f8473ffffffffffffffffffffffffffffffffffffffff1673ffffffffffffffffffffffffffffffffffffffff1681526020019081526020015f2054905092915050565b5f7fd9b67a26000000000000000000000000000000000000000000000000000000007bffffffffffffffffffffffffffffffffffffffffffffffffffffffff1916827bffffffffffffffffffffffffffffffffffffffffffffffffffffffff191614806104a857507f0e89341c000000000000000000000000000000000000000000000000000000007bffffffffffffffffffffffffffffffffffffffffffffffffffffffff1916827bffffffffffffffffffffffffffffffffffffffffffffffffffffffff1916145b806104b857506104b782612745565b5b9050919050565b6060600280546104ce906144d7565b80601f01602080910402602001604051908101604052809291908181526020018280546104fa906144d7565b80156105455780601f1061051c57610100808354040283529160200191610545565b820191905f5260205f20905b81548152906001019060200180831161052857829003601f168201915b50505050509050919050565b5f61055a6127ae565b90508073ffffffffffffffffffffffffffffffffffffffff168673ffffffffffffffffffffffffffffffffffffffff161415801561059f575061059d8682612610565b155b156105e35780866040517fe237d9220000000000000000000000000000000000000000000000000000000081526004016105da929190614516565b60405180910390fd5b6105f086868686866127b5565b505050505050565b6106133383868460405180602001604052805f8152506128a9565b8060095f3373ffffffffffffffffffffffffffffffffffffffff1673ffffffffffffffffffffffffffffffffffffffff1681526020019081526020015f2084815481106106635761066261453d565b5b905f5260205f2090600802016006015f8282546106809190614597565b9250508190555060095f8373ffffffffffffffffffffffffffffffffffffffff1673ffffffffffffffffffffffffffffffffffffffff1681526020019081526020015f2060405180610100016040528086815260200160095f8673ffffffffffffffffffffffffffffffffffffffff1673ffffffffffffffffffffffffffffffffffffffff1681526020019081526020015f2080549050815260200160085f8881526020019081526020015f20600201805461073b906144d7565b80601f0160208091040260200160405190810160405280929190818152602001828054610767906144d7565b80156107b25780601f10610789576101008083540402835291602001916107b2565b820191905f5260205f20905b81548152906001019060200180831161079557829003601f168201915b5050505050815260200160085f8881526020019081526020015f2060030180546107db906144d7565b80601f0160208091040260200160405190810160405280929190818152602001828054610807906144d7565b80156108525780601f1061082957610100808354040283529160200191610852565b820191905f5260205f20905b81548152906001019060200180831161083557829003601f168201915b5050505050815260200160085f8881526020019081526020015f20600401805461087b906144d7565b80601f01602080910402602001604051908101604052809291908181526020018280546108a7906144d7565b80156108f25780601f106108c9576101008083540402835291602001916108f2565b820191905f5260205f20905b8154815290600101906020018083116108d557829003601f168201915b5050505050815260200183815260200160095f3373ffffffffffffffffffffffffffffffffffffffff1673ffffffffffffffffffffffffffffffffffffffff1681526020019081526020015f2086815481106109515761095061453d565b5b905f5260205f20906008020160050154815260200160085f8881526020019081526020015f2060070154815250908060018154018082558091505060019003905f5260205f2090600802015f909190919091505f820151815f01556020820151816001015560408201518160020190816109cb9190614767565b5060608201518160030190816109e19190614767565b5060808201518160040190816109f79190614767565b5060a0820151816005015560c0820151816006015560e0820151816007015550505f60095f3373ffffffffffffffffffffffffffffffffffffffff1673ffffffffffffffffffffffffffffffffffffffff1681526020019081526020015f208481548110610a6857610a6761453d565b5b905f5260205f2090600802016006015403610b2b5760095f3373ffffffffffffffffffffffffffffffffffffffff1673ffffffffffffffffffffffffffffffffffffffff1681526020019081526020015f208381548110610acc57610acb61453d565b5b905f5260205f2090600802015f8082015f9055600182015f9055600282015f610af59190613420565b600382015f610b049190613420565b600482015f610b139190613420565b600582015f9055600682015f9055600782015f905550505b50505050565b60603373ffffffffffffffffffffffffffffffffffffffff1660068484600290600692610b609392919061483e565b604051602001610b719291906148f2565b604051602081830303815290604052604051610b8d9190614958565b90815260200160405180910390206001015f9054906101000a900473ffffffffffffffffffffffffffffffffffffffff1673ffffffffffffffffffffffffffffffffffffffff1603610c14576040517f08c379a0000000000000000000000000000000000000000000000000000000008152600401610c0b906149de565b60405180910390fd5b5f8383600290600692610c299392919061483e565b604051602001610c3a9291906148f2565b604051602081830303815290604052905060405180606001604052808281526020013373ffffffffffffffffffffffffffffffffffffffff1681526020015f815250600682604051610c8c9190614958565b90815260200160405180910390205f820151815f019081610cad9190614767565b506020820151816001015f6101000a81548173ffffffffffffffffffffffffffffffffffffffff021916908373ffffffffffffffffffffffffffffffffffffffff16021790555060408201518160020155905050600c60405180606001604052808381526020013373ffffffffffffffffffffffffffffffffffffffff1681526020015f815250908060018154018082558091505060019003905f5260205f2090600302015f909190919091505f820151815f019081610d6d9190614767565b506020820151816001015f6101000a81548173ffffffffffffffffffffffffffffffffffffffff021916908373ffffffffffffffffffffffffffffffffffffffff1602179055506040820151816002015550508091505092915050565b60608151835114610e1657815183516040517f5b059991000000000000000000000000000000000000000000000000000000008152600401610e0d9291906149fc565b60405180910390fd5b5f835167ffffffffffffffff811115610e3257610e316137da565b5b604051908082528060200260200182016040528015610e605781602001602082028036833780820191505090505b5090505f5b8451811015610ec657610e9c610e8482876129af90919063ffffffff16565b610e9783876129c290919063ffffffff16565b610389565b828281518110610eaf57610eae61453d565b5b602002602001018181525050806001019050610e65565b508091505092915050565b5f60648284600b8781548110610eea57610ee961453d565b5b905f5260205f20906006020160050154610f049190614a23565b610f0e9190614a23565b610f189190614a91565b83600b8681548110610f2d57610f2c61453d565b5b905f5260205f20906006020160050154610f479190614a23565b610f519190614597565b905082600b8581548110610f6857610f6761453d565b5b905f5260205f209060060201600401541015610fb9576040517f08c379a0000000000000000000000000000000000000000000000000000000008152600401610fb090614b57565b60405180910390fd5b611039600b8581548110610fd057610fcf61453d565b5b905f5260205f2090600602016003015f9054906101000a900473ffffffffffffffffffffffffffffffffffffffff1633600b87815481106110145761101361453d565b5b905f5260205f209060060201600101548660405180602001604052805f8152506128a9565b60055f9054906101000a900473ffffffffffffffffffffffffffffffffffffffff1673ffffffffffffffffffffffffffffffffffffffff1663f5537ede33600b878154811061108b5761108a61453d565b5b905f5260205f2090600602016003015f9054906101000a900473ffffffffffffffffffffffffffffffffffffffff16846040518463ffffffff1660e01b81526004016110d993929190614b75565b5f604051808303815f87803b1580156110f0575f80fd5b505af1158015611102573d5f803e3d5ffd5b5050505082600b858154811061111b5761111a61453d565b5b905f5260205f2090600602016004015f8282546111389190614597565b925050819055508260095f600b87815481106111575761115661453d565b5b905f5260205f2090600602016003015f9054906101000a900473ffffffffffffffffffffffffffffffffffffffff1673ffffffffffffffffffffffffffffffffffffffff1673ffffffffffffffffffffffffffffffffffffffff1681526020019081526020015f20600b86815481106111d3576111d261453d565b5b905f5260205f20906006020160010154815481106111f4576111f361453d565b5b905f5260205f2090600802016006015f8282546112119190614597565b9250508190555060095f3373ffffffffffffffffffffffffffffffffffffffff1673ffffffffffffffffffffffffffffffffffffffff1681526020019081526020015f2060405180610100016040528086815260200160095f3373ffffffffffffffffffffffffffffffffffffffff1673ffffffffffffffffffffffffffffffffffffffff1681526020019081526020015f2080549050815260200160085f600b89815481106112c4576112c361453d565b5b905f5260205f2090600602016001015481526020019081526020015f2060020180546112ef906144d7565b80601f016020809104026020016040519081016040528092919081815260200182805461131b906144d7565b80156113665780601f1061133d57610100808354040283529160200191611366565b820191905f5260205f20905b81548152906001019060200180831161134957829003601f168201915b5050505050815260200160085f600b89815481106113875761138661453d565b5b905f5260205f2090600602016001015481526020019081526020015f2060030180546113b2906144d7565b80601f01602080910402602001604051908101604052809291908181526020018280546113de906144d7565b80156114295780601f1061140057610100808354040283529160200191611429565b820191905f5260205f20905b81548152906001019060200180831161140c57829003601f168201915b5050505050815260200160085f600b898154811061144a5761144961453d565b5b905f5260205f2090600602016001015481526020019081526020015f206004018054611475906144d7565b80601f01602080910402602001604051908101604052809291908181526020018280546114a1906144d7565b80156114ec5780601f106114c3576101008083540402835291602001916114ec565b820191905f5260205f20905b8154815290600101906020018083116114cf57829003601f168201915b50505050508152602001858152602001600b87815481106115105761150f61453d565b5b905f5260205f20906006020160050154815260200160085f600b898154811061153c5761153b61453d565b5b905f5260205f2090600602016001015481526020019081526020015f2060070154815250908060018154018082558091505060019003905f5260205f2090600802015f909190919091505f820151815f01556020820151816001015560408201518160020190816115ad9190614767565b5060608201518160030190816115c39190614767565b5060808201518160040190816115d99190614767565b5060a0820151816005015560c0820151816006015560e0820151816007015550505f60095f600b87815481106116125761161161453d565b5b905f5260205f2090600602016003015f9054906101000a900473ffffffffffffffffffffffffffffffffffffffff1673ffffffffffffffffffffffffffffffffffffffff1673ffffffffffffffffffffffffffffffffffffffff1681526020019081526020015f20600b868154811061168e5761168d61453d565b5b905f5260205f20906006020160010154815481106116af576116ae61453d565b5b905f5260205f209060080201600601540361174f5760095f600b86815481106116db576116da61453d565b5b905f5260205f2090600602016003015f9054906101000a900473ffffffffffffffffffffffffffffffffffffffff1673ffffffffffffffffffffffffffffffffffffffff1673ffffffffffffffffffffffffffffffffffffffff1681526020019081526020015f205f61174e919061345d565b5b5f600b85815481106117645761176361453d565b5b905f5260205f20906006020160040154036117e557600b848154811061178d5761178c61453d565b5b905f5260205f2090600602015f8082015f9055600182015f9055600282015f9055600382015f6101000a81549073ffffffffffffffffffffffffffffffffffffffff0219169055600482015f9055600582015f905550505b50505050565b60045f9054906101000a900473ffffffffffffffffffffffffffffffffffffffff1673ffffffffffffffffffffffffffffffffffffffff163373ffffffffffffffffffffffffffffffffffffffff161461187a576040517f08c379a000000000000000000000000000000000000000000000000000000000815260040161187190614c40565b60405180910390fd5b84600a5f8781526020019081526020015f205f0154036118cf576040517f08c379a00000000000000000000000000000000000000000000000000000000081526004016118c690614cce565b60405180910390fd5b6118e933838360405180602001604052805f8152506129d5565b6040518060a0016040528086815260200185815260200184815260200183815260200182815250600a5f8781526020019081526020015f205f820151815f0155602082015181600101908161193e9190614767565b5060408201518160020190816119549190614767565b50606082015181600301908051906020019061197192919061347e565b50608082015181600401908051906020019061198e92919061347e565b50905050600e6040518060a0016040528087815260200186815260200185815260200184815260200183815250908060018154018082558091505060019003905f5260205f2090600502015f909190919091505f820151815f015560208201518160010190816119fe9190614767565b506040820151816002019081611a149190614767565b506060820151816003019080519060200190611a3192919061347e565b506080820151816004019080519060200190611a4e92919061347e565b5050505050505050565b8160095f3373ffffffffffffffffffffffffffffffffffffffff1673ffffffffffffffffffffffffffffffffffffffff1681526020019081526020015f208481548110611aa857611aa761453d565b5b905f5260205f209060080201600601541015611af9576040517f08c379a0000000000000000000000000000000000000000000000000000000008152600401611af090614d5c565b60405180910390fd5b600b6040518060c00160405280600b8054905081526020018681526020018581526020013373ffffffffffffffffffffffffffffffffffffffff16815260200184815260200183815250908060018154018082558091505060019003905f5260205f2090600602015f909190919091505f820151815f015560208201518160010155604082015181600201556060820151816003015f6101000a81548173ffffffffffffffffffffffffffffffffffffffff021916908373ffffffffffffffffffffffffffffffffffffffff1602179055506080820151816004015560a08201518160050155505050505050565b60045f9054906101000a900473ffffffffffffffffffffffffffffffffffffffff1673ffffffffffffffffffffffffffffffffffffffff163373ffffffffffffffffffffffffffffffffffffffff1614611c76576040517f08c379a0000000000000000000000000000000000000000000000000000000008152600401611c6d90614c40565b60405180910390fd5b5f60085f8981526020019081526020015f206005015414611ccc576040517f08c379a0000000000000000000000000000000000000000000000000000000008152600401611cc390614dea565b60405180910390fd5b611ce633888460405180602001604052805f815250612a58565b60405180610100016040528088815260200160095f3373ffffffffffffffffffffffffffffffffffffffff1673ffffffffffffffffffffffffffffffffffffffff1681526020019081526020015f208054905081526020018781526020018681526020018581526020018481526020018381526020018281525060085f8981526020019081526020015f205f820151815f0155602082015181600101556040820151816002019081611d989190614767565b506060820151816003019081611dae9190614767565b506080820151816004019081611dc49190614767565b5060a0820151816005015560c0820151816006015560e0820151816007015590505060095f3373ffffffffffffffffffffffffffffffffffffffff1673ffffffffffffffffffffffffffffffffffffffff1681526020019081526020015f2060405180610100016040528089815260200160095f3373ffffffffffffffffffffffffffffffffffffffff1673ffffffffffffffffffffffffffffffffffffffff1681526020019081526020015f2080549050815260200188815260200187815260200186815260200185815260200184815260200183815250908060018154018082558091505060019003905f5260205f2090600802015f909190919091505f820151815f0155602082015181600101556040820151816002019081611eea9190614767565b506060820151816003019081611f009190614767565b506080820151816004019081611f169190614767565b5060a0820151816005015560c0820151816006015560e08201518160070155505050505050505050565b3373ffffffffffffffffffffffffffffffffffffffff16600b8381548110611f6b57611f6a61453d565b5b905f5260205f2090600602016003015f9054906101000a900473ffffffffffffffffffffffffffffffffffffffff1673ffffffffffffffffffffffffffffffffffffffff1614611ff0576040517f08c379a0000000000000000000000000000000000000000000000000000000008152600401611fe790614e52565b60405180910390fd5b60035481611ffe9190614a23565b600b83815481106120125761201161453d565b5b905f5260205f209060060201600501819055505050565b60045f9054906101000a900473ffffffffffffffffffffffffffffffffffffffff1673ffffffffffffffffffffffffffffffffffffffff163373ffffffffffffffffffffffffffffffffffffffff16146120b8576040517f08c379a00000000000000000000000000000000000000000000000000000000081526004016120af90614c40565b60405180910390fd5b5f5b600f805490508110156121395787600f82815481106120dc576120db61453d565b5b905f5260205f209060080201600101540361212c576040517f08c379a000000000000000000000000000000000000000000000000000000000815260040161212390614f06565b60405180910390fd5b80806001019150506120ba565b50600f604051806101000160405280600f8054905081526020018981526020018881526020018781526020018681526020018581526020018473ffffffffffffffffffffffffffffffffffffffff16815260200183815250908060018154018082558091505060019003905f5260205f2090600802015f909190919091505f820151815f01556020820151816001015560408201518160020155606082015181600301556080820151816004015560a0820151816005015560c0820151816006015f6101000a81548173ffffffffffffffffffffffffffffffffffffffff021916908373ffffffffffffffffffffffffffffffffffffffff16021790555060e08201518160070155505050505050505050565b8060405160200161225d9190614958565b604051602081830303815290604052805190602001206006826040516122839190614958565b90815260200160405180910390205f016040516020016122a39190614fa4565b60405160208183030381529060405280519060200120146122f9576040517f08c379a00000000000000000000000000000000000000000000000000000000081526004016122f090615050565b60405180910390fd5b6001151560075f3373ffffffffffffffffffffffffffffffffffffffff1673ffffffffffffffffffffffffffffffffffffffff1681526020019081526020015f205f9054906101000a900460ff16151503612389576040517f08c379a0000000000000000000000000000000000000000000000000000000008152600401612380906150de565b60405180910390fd5b60055f9054906101000a900473ffffffffffffffffffffffffffffffffffffffff1673ffffffffffffffffffffffffffffffffffffffff16635cd07ee66040518163ffffffff1660e01b81526004015f604051808303815f87803b1580156123ef575f80fd5b505af1158015612401573d5f803e3d5ffd5b50505050600160075f3373ffffffffffffffffffffffffffffffffffffffff1673ffffffffffffffffffffffffffffffffffffffff1681526020019081526020015f205f6101000a81548160ff021916908315150217905550600160068260405161246c9190614958565b90815260200160405180910390206002015461248891906150fc565b6006826040516124989190614958565b90815260200160405180910390206002018190555050565b6124c26124bb6127ae565b8383612aed565b5050565b6060600c805480602002602001604051908101604052809291908181526020015f905b82821015612607578382905f5260205f2090600302016040518060600160405290815f82018054612519906144d7565b80601f0160208091040260200160405190810160405280929190818152602001828054612545906144d7565b80156125905780601f1061256757610100808354040283529160200191612590565b820191905f5260205f20905b81548152906001019060200180831161257357829003601f168201915b50505050508152602001600182015f9054906101000a900473ffffffffffffffffffffffffffffffffffffffff1673ffffffffffffffffffffffffffffffffffffffff1673ffffffffffffffffffffffffffffffffffffffff168152602001600282015481525050815260200190600101906124e9565b50505050905090565b5f60015f8473ffffffffffffffffffffffffffffffffffffffff1673ffffffffffffffffffffffffffffffffffffffff1681526020019081526020015f205f8373ffffffffffffffffffffffffffffffffffffffff1673ffffffffffffffffffffffffffffffffffffffff1681526020019081526020015f205f9054906101000a900460ff16905092915050565b5f6126a76127ae565b90508073ffffffffffffffffffffffffffffffffffffffff168673ffffffffffffffffffffffffffffffffffffffff16141580156126ec57506126ea8682612610565b155b156127305780866040517fe237d922000000000000000000000000000000000000000000000000000000008152600401612727929190614516565b60405180910390fd5b61273d86868686866128a9565b505050505050565b5f7f01ffc9a7000000000000000000000000000000000000000000000000000000007bffffffffffffffffffffffffffffffffffffffffffffffffffffffff1916827bffffffffffffffffffffffffffffffffffffffffffffffffffffffff1916149050919050565b5f33905090565b5f73ffffffffffffffffffffffffffffffffffffffff168473ffffffffffffffffffffffffffffffffffffffff1603612825575f6040517f57f447ce00000000000000000000000000000000000000000000000000000000815260040161281c919061512f565b60405180910390fd5b5f73ffffffffffffffffffffffffffffffffffffffff168573ffffffffffffffffffffffffffffffffffffffff1603612895575f6040517f01a8351400000000000000000000000000000000000000000000000000000000815260040161288c919061512f565b60405180910390fd5b6128a28585858585612c56565b5050505050565b5f73ffffffffffffffffffffffffffffffffffffffff168473ffffffffffffffffffffffffffffffffffffffff1603612919575f6040517f57f447ce000000000000000000000000000000000000000000000000000000008152600401612910919061512f565b60405180910390fd5b5f73ffffffffffffffffffffffffffffffffffffffff168573ffffffffffffffffffffffffffffffffffffffff1603612989575f6040517f01a83514000000000000000000000000000000000000000000000000000000008152600401612980919061512f565b60405180910390fd5b5f806129958585612d02565b915091506129a68787848487612c56565b50505050505050565b5f60208202602084010151905092915050565b5f60208202602084010151905092915050565b5f73ffffffffffffffffffffffffffffffffffffffff168473ffffffffffffffffffffffffffffffffffffffff1603612a45575f6040517f57f447ce000000000000000000000000000000000000000000000000000000008152600401612a3c919061512f565b60405180910390fd5b612a525f85858585612c56565b50505050565b5f73ffffffffffffffffffffffffffffffffffffffff168473ffffffffffffffffffffffffffffffffffffffff1603612ac8575f6040517f57f447ce000000000000000000000000000000000000000000000000000000008152600401612abf919061512f565b60405180910390fd5b5f80612ad48585612d02565b91509150612ae55f87848487612c56565b505050505050565b5f73ffffffffffffffffffffffffffffffffffffffff168273ffffffffffffffffffffffffffffffffffffffff1603612b5d575f6040517fced3e100000000000000000000000000000000000000000000000000000000008152600401612b54919061512f565b60405180910390fd5b8060015f8573ffffffffffffffffffffffffffffffffffffffff1673ffffffffffffffffffffffffffffffffffffffff1681526020019081526020015f205f8473ffffffffffffffffffffffffffffffffffffffff1673ffffffffffffffffffffffffffffffffffffffff1681526020019081526020015f205f6101000a81548160ff0219169083151502179055508173ffffffffffffffffffffffffffffffffffffffff168373ffffffffffffffffffffffffffffffffffffffff167f17307eab39ab6107e8899845ad3d59bd9653f200f220920489ca2b5937696c3183604051612c4991906136e8565b60405180910390a3505050565b612c6285858585612d32565b5f73ffffffffffffffffffffffffffffffffffffffff168473ffffffffffffffffffffffffffffffffffffffff1614612cfb575f612c9e6127ae565b90506001845103612cea575f612cbd5f866129c290919063ffffffff16565b90505f612cd35f866129c290919063ffffffff16565b9050612ce38389898585896130c2565b5050612cf9565b612cf8818787878787613271565b5b505b5050505050565b60608060405191506001825283602083015260408201905060018152826020820152604081016040529250929050565b8051825114612d7c57815181516040517f5b059991000000000000000000000000000000000000000000000000000000008152600401612d739291906149fc565b60405180910390fd5b5f612d856127ae565b90505f5b8351811015612f81575f612da682866129c290919063ffffffff16565b90505f612dbc83866129c290919063ffffffff16565b90505f73ffffffffffffffffffffffffffffffffffffffff168873ffffffffffffffffffffffffffffffffffffffff1614612edf575f805f8481526020019081526020015f205f8a73ffffffffffffffffffffffffffffffffffffffff1673ffffffffffffffffffffffffffffffffffffffff1681526020019081526020015f2054905081811015612e8b57888183856040517f03dee4c5000000000000000000000000000000000000000000000000000000008152600401612e829493929190615148565b60405180910390fd5b8181035f808581526020019081526020015f205f8b73ffffffffffffffffffffffffffffffffffffffff1673ffffffffffffffffffffffffffffffffffffffff1681526020019081526020015f2081905550505b5f73ffffffffffffffffffffffffffffffffffffffff168773ffffffffffffffffffffffffffffffffffffffff1614612f7457805f808481526020019081526020015f205f8973ffffffffffffffffffffffffffffffffffffffff1673ffffffffffffffffffffffffffffffffffffffff1681526020019081526020015f205f828254612f6c91906150fc565b925050819055505b5050806001019050612d89565b50600183510361303c575f612f9f5f856129c290919063ffffffff16565b90505f612fb55f856129c290919063ffffffff16565b90508573ffffffffffffffffffffffffffffffffffffffff168773ffffffffffffffffffffffffffffffffffffffff168473ffffffffffffffffffffffffffffffffffffffff167fc3d58168c5ae7397731d063d5bbf3d657854427343f4c083240f7aacaa2d0f62858560405161302d9291906149fc565b60405180910390a450506130bb565b8373ffffffffffffffffffffffffffffffffffffffff168573ffffffffffffffffffffffffffffffffffffffff168273ffffffffffffffffffffffffffffffffffffffff167f4a39dc06d4c0dbc64b70af90fd698a233a518aa5d07e595d983b8c0526c8f7fb86866040516130b292919061518b565b60405180910390a45b5050505050565b5f8473ffffffffffffffffffffffffffffffffffffffff163b1115613269578373ffffffffffffffffffffffffffffffffffffffff1663f23a6e6187878686866040518663ffffffff1660e01b8152600401613122959493929190615212565b6020604051808303815f875af192505050801561315d57506040513d601f19601f8201168201806040525081019061315a919061527e565b60015b6131de573d805f811461318b576040519150601f19603f3d011682016040523d82523d5f602084013e613190565b606091505b505f8151036131d657846040517f57f447ce0000000000000000000000000000000000000000000000000000000081526004016131cd919061512f565b60405180910390fd5b805181602001fd5b63f23a6e6160e01b7bffffffffffffffffffffffffffffffffffffffffffffffffffffffff1916817bffffffffffffffffffffffffffffffffffffffffffffffffffffffff19161461326757846040517f57f447ce00000000000000000000000000000000000000000000000000000000815260040161325e919061512f565b60405180910390fd5b505b505050505050565b5f8473ffffffffffffffffffffffffffffffffffffffff163b1115613418578373ffffffffffffffffffffffffffffffffffffffff1663bc197c8187878686866040518663ffffffff1660e01b81526004016132d19594939291906152a9565b6020604051808303815f875af192505050801561330c57506040513d601f19601f82011682018060405250810190613309919061527e565b60015b61338d573d805f811461333a576040519150601f19603f3d011682016040523d82523d5f602084013e61333f565b606091505b505f81510361338557846040517f57f447ce00000000000000000000000000000000000000000000000000000000815260040161337c919061512f565b60405180910390fd5b805181602001fd5b63bc197c8160e01b7bffffffffffffffffffffffffffffffffffffffffffffffffffffffff1916817bffffffffffffffffffffffffffffffffffffffffffffffffffffffff19161461341657846040517f57f447ce00000000000000000000000000000000000000000000000000000000815260040161340d919061512f565b60405180910390fd5b505b505050505050565b50805461342c906144d7565b5f825580601f1061343d575061345a565b601f0160209004905f5260205f209081019061345991906134c9565b5b50565b5080545f8255600802905f5260205f209081019061347b91906134e4565b50565b828054828255905f5260205f209081019282156134b8579160200282015b828111156134b757825182559160200191906001019061349c565b5b5090506134c591906134c9565b5090565b5b808211156134e0575f815f9055506001016134ca565b5090565b5b80821115613546575f8082015f9055600182015f9055600282015f61350a9190613420565b600382015f6135199190613420565b600482015f6135289190613420565b600582015f9055600682015f9055600782015f9055506008016134e5565b5090565b5f604051905090565b5f80fd5b5f80fd5b5f73ffffffffffffffffffffffffffffffffffffffff82169050919050565b5f6135848261355b565b9050919050565b6135948161357a565b811461359e575f80fd5b50565b5f813590506135af8161358b565b92915050565b5f819050919050565b6135c7816135b5565b81146135d1575f80fd5b50565b5f813590506135e2816135be565b92915050565b5f80604083850312156135fe576135fd613553565b5b5f61360b858286016135a1565b925050602061361c858286016135d4565b9150509250929050565b61362f816135b5565b82525050565b5f6020820190506136485f830184613626565b92915050565b5f7fffffffff0000000000000000000000000000000000000000000000000000000082169050919050565b6136828161364e565b811461368c575f80fd5b50565b5f8135905061369d81613679565b92915050565b5f602082840312156136b8576136b7613553565b5b5f6136c58482850161368f565b91505092915050565b5f8115159050919050565b6136e2816136ce565b82525050565b5f6020820190506136fb5f8301846136d9565b92915050565b5f6020828403121561371657613715613553565b5b5f613723848285016135d4565b91505092915050565b5f81519050919050565b5f82825260208201905092915050565b5f5b83811015613763578082015181840152602081019050613748565b5f8484015250505050565b5f601f19601f8301169050919050565b5f6137888261372c565b6137928185613736565b93506137a2818560208601613746565b6137ab8161376e565b840191505092915050565b5f6020820190508181035f8301526137ce818461377e565b905092915050565b5f80fd5b7f4e487b71000000000000000000000000000000000000000000000000000000005f52604160045260245ffd5b6138108261376e565b810181811067ffffffffffffffff8211171561382f5761382e6137da565b5b80604052505050565b5f61384161354a565b905061384d8282613807565b919050565b5f67ffffffffffffffff82111561386c5761386b6137da565b5b602082029050602081019050919050565b5f80fd5b5f61389361388e84613852565b613838565b905080838252602082019050602084028301858111156138b6576138b561387d565b5b835b818110156138df57806138cb88826135d4565b8452602084019350506020810190506138b8565b5050509392505050565b5f82601f8301126138fd576138fc6137d6565b5b813561390d848260208601613881565b91505092915050565b5f80fd5b5f67ffffffffffffffff821115613934576139336137da565b5b61393d8261376e565b9050602081019050919050565b828183375f83830152505050565b5f61396a6139658461391a565b613838565b90508281526020810184848401111561398657613985613916565b5b61399184828561394a565b509392505050565b5f82601f8301126139ad576139ac6137d6565b5b81356139bd848260208601613958565b91505092915050565b5f805f805f60a086880312156139df576139de613553565b5b5f6139ec888289016135a1565b95505060206139fd888289016135a1565b945050604086013567ffffffffffffffff811115613a1e57613a1d613557565b5b613a2a888289016138e9565b935050606086013567ffffffffffffffff811115613a4b57613a4a613557565b5b613a57888289016138e9565b925050608086013567ffffffffffffffff811115613a7857613a77613557565b5b613a8488828901613999565b9150509295509295909350565b5f805f8060808587031215613aa957613aa8613553565b5b5f613ab6878288016135d4565b9450506020613ac7878288016135d4565b9350506040613ad8878288016135a1565b9250506060613ae9878288016135d4565b91505092959194509250565b5f80fd5b5f8083601f840112613b0e57613b0d6137d6565b5b8235905067ffffffffffffffff811115613b2b57613b2a613af5565b5b602083019150836001820283011115613b4757613b4661387d565b5b9250929050565b5f8060208385031215613b6457613b63613553565b5b5f83013567ffffffffffffffff811115613b8157613b80613557565b5b613b8d85828601613af9565b92509250509250929050565b5f67ffffffffffffffff821115613bb357613bb26137da565b5b602082029050602081019050919050565b5f613bd6613bd184613b99565b613838565b90508083825260208201905060208402830185811115613bf957613bf861387d565b5b835b81811015613c225780613c0e88826135a1565b845260208401935050602081019050613bfb565b5050509392505050565b5f82601f830112613c4057613c3f6137d6565b5b8135613c50848260208601613bc4565b91505092915050565b5f8060408385031215613c6f57613c6e613553565b5b5f83013567ffffffffffffffff811115613c8c57613c8b613557565b5b613c9885828601613c2c565b925050602083013567ffffffffffffffff811115613cb957613cb8613557565b5b613cc5858286016138e9565b9150509250929050565b5f81519050919050565b5f82825260208201905092915050565b5f819050602082019050919050565b613d01816135b5565b82525050565b5f613d128383613cf8565b60208301905092915050565b5f602082019050919050565b5f613d3482613ccf565b613d3e8185613cd9565b9350613d4983613ce9565b805f5b83811015613d79578151613d608882613d07565b9750613d6b83613d1e565b925050600181019050613d4c565b5085935050505092915050565b5f6020820190508181035f830152613d9e8184613d2a565b905092915050565b5f805f60608486031215613dbd57613dbc613553565b5b5f613dca868287016135d4565b9350506020613ddb868287016135d4565b9250506040613dec868287016135d4565b9150509250925092565b5f67ffffffffffffffff821115613e1057613e0f6137da565b5b613e198261376e565b9050602081019050919050565b5f613e38613e3384613df6565b613838565b905082815260208101848484011115613e5457613e53613916565b5b613e5f84828561394a565b509392505050565b5f82601f830112613e7b57613e7a6137d6565b5b8135613e8b848260208601613e26565b91505092915050565b5f805f805f60a08688031215613ead57613eac613553565b5b5f613eba888289016135d4565b955050602086013567ffffffffffffffff811115613edb57613eda613557565b5b613ee788828901613e67565b945050604086013567ffffffffffffffff811115613f0857613f07613557565b5b613f1488828901613e67565b935050606086013567ffffffffffffffff811115613f3557613f34613557565b5b613f41888289016138e9565b925050608086013567ffffffffffffffff811115613f6257613f61613557565b5b613f6e888289016138e9565b9150509295509295909350565b5f805f8060808587031215613f9357613f92613553565b5b5f613fa0878288016135d4565b9450506020613fb1878288016135d4565b9350506040613fc2878288016135d4565b9250506060613fd3878288016135d4565b91505092959194509250565b5f805f805f805f60e0888a031215613ffa57613ff9613553565b5b5f6140078a828b016135d4565b975050602088013567ffffffffffffffff81111561402857614027613557565b5b6140348a828b01613e67565b965050604088013567ffffffffffffffff81111561405557614054613557565b5b6140618a828b01613e67565b955050606088013567ffffffffffffffff81111561408257614081613557565b5b61408e8a828b01613e67565b945050608061409f8a828b016135d4565b93505060a06140b08a828b016135d4565b92505060c06140c18a828b016135d4565b91505092959891949750929550565b5f80604083850312156140e6576140e5613553565b5b5f6140f3858286016135d4565b9250506020614104858286016135d4565b9150509250929050565b5f805f805f805f60e0888a03121561412957614128613553565b5b5f6141368a828b016135d4565b97505060206141478a828b016135d4565b96505060406141588a828b016135d4565b95505060606141698a828b016135d4565b945050608061417a8a828b016135d4565b93505060a061418b8a828b016135a1565b92505060c061419c8a828b016135d4565b91505092959891949750929550565b5f602082840312156141c0576141bf613553565b5b5f82013567ffffffffffffffff8111156141dd576141dc613557565b5b6141e984828501613e67565b91505092915050565b6141fb816136ce565b8114614205575f80fd5b50565b5f81359050614216816141f2565b92915050565b5f806040838503121561423257614231613553565b5b5f61423f858286016135a1565b925050602061425085828601614208565b9150509250929050565b5f81519050919050565b5f82825260208201905092915050565b5f819050602082019050919050565b5f82825260208201905092915050565b5f61429d8261372c565b6142a78185614283565b93506142b7818560208601613746565b6142c08161376e565b840191505092915050565b6142d48161357a565b82525050565b5f606083015f8301518482035f8601526142f48282614293565b915050602083015161430960208601826142cb565b50604083015161431c6040860182613cf8565b508091505092915050565b5f61433283836142da565b905092915050565b5f602082019050919050565b5f6143508261425a565b61435a8185614264565b93508360208202850161436c85614274565b805f5b858110156143a757848403895281516143888582614327565b94506143938361433a565b925060208a0199505060018101905061436f565b50829750879550505050505092915050565b5f6020820190508181035f8301526143d18184614346565b905092915050565b5f80604083850312156143ef576143ee613553565b5b5f6143fc858286016135a1565b925050602061440d858286016135a1565b9150509250929050565b5f805f805f60a086880312156144305761442f613553565b5b5f61443d888289016135a1565b955050602061444e888289016135a1565b945050604061445f888289016135d4565b9350506060614470888289016135d4565b925050608086013567ffffffffffffffff81111561449157614490613557565b5b61449d88828901613999565b9150509295509295909350565b7f4e487b71000000000000000000000000000000000000000000000000000000005f52602260045260245ffd5b5f60028204905060018216806144ee57607f821691505b602082108103614501576145006144aa565b5b50919050565b6145108161357a565b82525050565b5f6040820190506145295f830185614507565b6145366020830184614507565b9392505050565b7f4e487b71000000000000000000000000000000000000000000000000000000005f52603260045260245ffd5b7f4e487b71000000000000000000000000000000000000000000000000000000005f52601160045260245ffd5b5f6145a1826135b5565b91506145ac836135b5565b92508282039050818111156145c4576145c361456a565b5b92915050565b5f819050815f5260205f209050919050565b5f6020601f8301049050919050565b5f82821b905092915050565b5f600883026146267fffffffffffffffffffffffffffffffffffffffffffffffffffffffffffffffff826145eb565b61463086836145eb565b95508019841693508086168417925050509392505050565b5f819050919050565b5f61466b614666614661846135b5565b614648565b6135b5565b9050919050565b5f819050919050565b61468483614651565b61469861469082614672565b8484546145f7565b825550505050565b5f90565b6146ac6146a0565b6146b781848461467b565b505050565b5b818110156146da576146cf5f826146a4565b6001810190506146bd565b5050565b601f82111561471f576146f0816145ca565b6146f9846145dc565b81016020851015614708578190505b61471c614714856145dc565b8301826146bc565b50505b505050565b5f82821c905092915050565b5f61473f5f1984600802614724565b1980831691505092915050565b5f6147578383614730565b9150826002028217905092915050565b6147708261372c565b67ffffffffffffffff811115614789576147886137da565b5b61479382546144d7565b61479e8282856146de565b5f60209050601f8311600181146147cf575f84156147bd578287015190505b6147c7858261474c565b86555061482e565b601f1984166147dd866145ca565b5f5b82811015614804578489015182556001820191506020850194506020810190506147df565b86831015614821578489015161481d601f891682614730565b8355505b6001600288020188555050505b505050505050565b5f80fd5b5f80fd5b5f808585111561485157614850614836565b5b838611156148625761486161483a565b5b6001850283019150848603905094509492505050565b7f50524f46492d0000000000000000000000000000000000000000000000000000815250565b5f81905092915050565b5f6148b3838561489e565b93506148c083858461394a565b82840190509392505050565b7f3230323400000000000000000000000000000000000000000000000000000000815250565b5f6148fc82614878565b60068201915061490d8284866148a8565b9150614918826148cc565b6004820191508190509392505050565b5f6149328261372c565b61493c818561489e565b935061494c818560208601613746565b80840191505092915050565b5f6149638284614928565b915081905092915050565b7fd092d18b20d183d0b6d0b520d181d0bed0b7d0b4d0b0d0bbd0b820d180d0b5d15f8201527f84d0b5d180d0b0d0bb0000000000000000000000000000000000000000000000602082015250565b5f6149c8602983613736565b91506149d38261496e565b604082019050919050565b5f6020820190508181035f8301526149f5816149bc565b9050919050565b5f604082019050614a0f5f830185613626565b614a1c6020830184613626565b9392505050565b5f614a2d826135b5565b9150614a38836135b5565b9250828202614a46816135b5565b91508282048414831517614a5d57614a5c61456a565b5b5092915050565b7f4e487b71000000000000000000000000000000000000000000000000000000005f52601260045260245ffd5b5f614a9b826135b5565b9150614aa6836135b5565b925082614ab657614ab5614a64565b5b828204905092915050565b7fd092d18b20d0bfd18bd182d0b0d0b5d182d0b5d181d18c20d0bad183d0bfd0b85f8201527fd182d18c20d0b1d0bed0bbd18cd188d0b52c20d187d0b5d0bc20d0b5d181d18260208201527fd18c000000000000000000000000000000000000000000000000000000000000604082015250565b5f614b41604283613736565b9150614b4c82614ac1565b606082019050919050565b5f6020820190508181035f830152614b6e81614b35565b9050919050565b5f606082019050614b885f830186614507565b614b956020830185614507565b614ba26040830184613626565b949350505050565b7fd0a2d0bed0bbd18cd0bad0be20d0b2d0bbd0b0d0b4d0b5d0bbd0b5d18620d0bc5f8201527fd0bed0b6d0b5d18220d18dd182d0be20d0b8d181d0bfd0bed0bbd18cd0b7d0be60208201527fd0b2d0b0d182d18c000000000000000000000000000000000000000000000000604082015250565b5f614c2a604883613736565b9150614c3582614baa565b606082019050919050565b5f6020820190508181035f830152614c5781614c1e565b9050919050565b7fd09ad0bed0bbd0bbd0b5d0bad186d0b8d18f20d18120d182d0b0d0bad0b8d0bc5f8201527f20696420d183d0b6d0b520d181d183d189d0b5d181d182d0b2d183d0b5d18200602082015250565b5f614cb8603f83613736565b9150614cc382614c5e565b604082019050919050565b5f6020820190508181035f830152614ce581614cac565b9050919050565b7fd0a320d0b2d0b0d18120d0bdd0b5d0b4d0bed181d182d0b0d182d0bed187d0bd5f8201527fd0be204e46540000000000000000000000000000000000000000000000000000602082015250565b5f614d46602683613736565b9150614d5182614cec565b604082019050919050565b5f6020820190508181035f830152614d7381614d3a565b9050919050565b7f4e465420d18120d182d0b0d0bad0b8d0bc20696420d183d0b6d0b520d0b5d1815f8201527fd182d18c20d0b220d181d0b8d181d182d0b5d0bcd0b500000000000000000000602082015250565b5f614dd4603683613736565b9150614ddf82614d7a565b604082019050919050565b5f6020820190508181035f830152614e0181614dc8565b9050919050565b7fd0add182d0be20d0bdd0b520d0b2d0b0d18820d0bbd0bed182000000000000005f82015250565b5f614e3c601983613736565b9150614e4782614e08565b602082019050919050565b5f6020820190508181035f830152614e6981614e30565b9050919050565b7fd090d183d0bad186d0b8d0bed0bd20d18120d182d0b0d0bad0bed0b920d0bad05f8201527fbed0bbd0bbd0b5d0bad186d0b8d0b5d0b920d183d0b6d0b520d0b7d0b0d0bfd160208201527f83d189d0b5d0bd00000000000000000000000000000000000000000000000000604082015250565b5f614ef0604783613736565b9150614efb82614e70565b606082019050919050565b5f6020820190508181035f830152614f1d81614ee4565b9050919050565b5f8154614f30816144d7565b614f3a818661489e565b9450600182165f8114614f545760018114614f6957614f9b565b60ff1983168652811515820286019350614f9b565b614f72856145ca565b5f5b83811015614f9357815481890152600182019150602081019050614f74565b838801955050505b50505092915050565b5f614faf8284614f24565b915081905092915050565b7fd0a2d0b0d0bad0bed0b3d0be20d180d0b5d184d0b5d180d0b0d0bbd18cd0bdd05f8201527fbed0b3d0be20d0bad0bed0b4d0b020d0bdd0b5d18220d0b220d181d0b8d181d160208201527f82d0b5d0bcd0b500000000000000000000000000000000000000000000000000604082015250565b5f61503a604783613736565b915061504582614fba565b606082019050919050565b5f6020820190508181035f8301526150678161502e565b9050919050565b7fd092d18b20d183d0b6d0b520d0b8d181d0bfd0bed0bbd18cd0b7d0bed0b2d0b05f8201527fd0bbd0b820d0bad0bed0b4000000000000000000000000000000000000000000602082015250565b5f6150c8602b83613736565b91506150d38261506e565b604082019050919050565b5f6020820190508181035f8301526150f5816150bc565b9050919050565b5f615106826135b5565b9150615111836135b5565b92508282019050808211156151295761512861456a565b5b92915050565b5f6020820190506151425f830184614507565b92915050565b5f60808201905061515b5f830187614507565b6151686020830186613626565b6151756040830185613626565b6151826060830184613626565b95945050505050565b5f6040820190508181035f8301526151a38185613d2a565b905081810360208301526151b78184613d2a565b90509392505050565b5f81519050919050565b5f82825260208201905092915050565b5f6151e4826151c0565b6151ee81856151ca565b93506151fe818560208601613746565b6152078161376e565b840191505092915050565b5f60a0820190506152255f830188614507565b6152326020830187614507565b61523f6040830186613626565b61524c6060830185613626565b818103608083015261525e81846151da565b90509695505050505050565b5f8151905061527881613679565b92915050565b5f6020828403121561529357615292613553565b5b5f6152a08482850161526a565b91505092915050565b5f60a0820190506152bc5f830188614507565b6152c96020830187614507565b81810360408301526152db8186613d2a565b905081810360608301526152ef8185613d2a565b9050818103608083015261530381846151da565b9050969550505050505056fea26469706673582212209a73f6ef234266ea6f1c20d68fca2b16bbbabe2a6d9d69f5f3dd8ecc555f780d64736f6c63430008160033d09fd183d0b7d18bd180d0b8d0ba20d0bfd0bed185d0b8d182d0b8d0bb20d0bad0bed182d0b8d0bad0b020d18120d097d0b5d0bcd0bbd0b8d09ad0bed0bcd0bed187d0b5d0ba20d181d0bbd0b8d0bbd181d18f20d18120d0bad0bed181d0bcd0bed181d0bed0bcd092d0bad183d181d0bdd18fd188d0bad0b020d0b2d0bfd0b5d180d0b2d18bd0b520d0bfd180d0bed0b1d183d0b5d18220d18fd0bfd0bed0bdd181d0bad183d18e20d0bad183d185d0bdd18e",
			"opcodes": "PUSH1 0x80 PUSH1 0x40 MSTORE CALLVALUE DUP1 ISZERO PUSH3 0x10 JUMPI PUSH0 DUP1 REVERT JUMPDEST POP PUSH1 0x40 MLOAD PUSH3 0x6F25 CODESIZE SUB DUP1 PUSH3 0x6F25 DUP4 CODECOPY DUP2 DUP2 ADD PUSH1 0x40 MSTORE DUP2 ADD SWAP1 PUSH3 0x36 SWAP2 SWAP1 PUSH3 0x1034 JUMP JUMPDEST PUSH1 0x40 MLOAD DUP1 PUSH1 0x20 ADD PUSH1 0x40 MSTORE DUP1 PUSH0 DUP2 MSTORE POP PUSH3 0x56 DUP2 PUSH3 0x354 PUSH1 0x20 SHL PUSH1 0x20 SHR JUMP JUMPDEST POP DUP1 PUSH1 0x5 PUSH0 PUSH2 0x100 EXP DUP2 SLOAD DUP2 PUSH20 0xFFFFFFFFFFFFFFFFFFFFFFFFFFFFFFFFFFFFFFFF MUL NOT AND SWAP1 DUP4 PUSH20 0xFFFFFFFFFFFFFFFFFFFFFFFFFFFFFFFFFFFFFFFF AND MUL OR SWAP1 SSTORE POP PUSH1 0x5 PUSH0 SWAP1 SLOAD SWAP1 PUSH2 0x100 EXP SWAP1 DIV PUSH20 0xFFFFFFFFFFFFFFFFFFFFFFFFFFFFFFFFFFFFFFFF AND PUSH20 0xFFFFFFFFFFFFFFFFFFFFFFFFFFFFFFFFFFFFFFFF AND PUSH4 0x313CE567 PUSH1 0x40 MLOAD DUP2 PUSH4 0xFFFFFFFF AND PUSH1 0xE0 SHL DUP2 MSTORE PUSH1 0x4 ADD PUSH1 0x20 PUSH1 0x40 MLOAD DUP1 DUP4 SUB DUP2 DUP7 GAS STATICCALL ISZERO DUP1 ISZERO PUSH3 0x102 JUMPI RETURNDATASIZE PUSH0 DUP1 RETURNDATACOPY RETURNDATASIZE PUSH0 REVERT JUMPDEST POP POP POP POP PUSH1 0x40 MLOAD RETURNDATASIZE PUSH1 0x1F NOT PUSH1 0x1F DUP3 ADD AND DUP3 ADD DUP1 PUSH1 0x40 MSTORE POP DUP2 ADD SWAP1 PUSH3 0x128 SWAP2 SWAP1 PUSH3 0x109F JUMP JUMPDEST PUSH1 0xA PUSH3 0x136 SWAP2 SWAP1 PUSH3 0x1255 JUMP JUMPDEST PUSH1 0x3 DUP2 SWAP1 SSTORE POP CALLER PUSH1 0x4 PUSH0 PUSH2 0x100 EXP DUP2 SLOAD DUP2 PUSH20 0xFFFFFFFFFFFFFFFFFFFFFFFFFFFFFFFFFFFFFFFF MUL NOT AND SWAP1 DUP4 PUSH20 0xFFFFFFFFFFFFFFFFFFFFFFFFFFFFFFFFFFFFFFFF AND MUL OR SWAP1 SSTORE POP PUSH3 0x217 PUSH0 PUSH1 0x40 MLOAD DUP1 PUSH1 0x40 ADD PUSH1 0x40 MSTORE DUP1 PUSH1 0xE DUP2 MSTORE PUSH1 0x20 ADD PUSH32 0xD09AD0BED0BCD0BED187D0B5D0BA000000000000000000000000000000000000 DUP2 MSTORE POP PUSH1 0x40 MLOAD DUP1 PUSH1 0x60 ADD PUSH1 0x40 MSTORE DUP1 PUSH1 0x2F DUP2 MSTORE PUSH1 0x20 ADD PUSH3 0x6EAA PUSH1 0x2F SWAP2 CODECOPY PUSH1 0x40 MLOAD DUP1 PUSH1 0x40 ADD PUSH1 0x40 MSTORE DUP1 PUSH1 0xC DUP2 MSTORE PUSH1 0x20 ADD PUSH32 0x6361745F6E6674312E706E670000000000000000000000000000000000000000 DUP2 MSTORE POP PUSH0 PUSH1 0x1 TIMESTAMP PUSH3 0x369 PUSH1 0x20 SHL PUSH1 0x20 SHR JUMP JUMPDEST PUSH3 0x2B2 PUSH0 PUSH1 0x40 MLOAD DUP1 PUSH1 0x40 ADD PUSH1 0x40 MSTORE DUP1 PUSH1 0x12 DUP2 MSTORE PUSH1 0x20 ADD PUSH32 0xD092D0BAD183D181D0BDD18FD188D0BAD0B00000000000000000000000000000 DUP2 MSTORE POP PUSH1 0x40 MLOAD DUP1 PUSH1 0x80 ADD PUSH1 0x40 MSTORE DUP1 PUSH1 0x4C DUP2 MSTORE PUSH1 0x20 ADD PUSH3 0x6ED9 PUSH1 0x4C SWAP2 CODECOPY PUSH1 0x40 MLOAD DUP1 PUSH1 0x40 ADD PUSH1 0x40 MSTORE DUP1 PUSH1 0xC DUP2 MSTORE PUSH1 0x20 ADD PUSH32 0x6361745F6E6674322E706E670000000000000000000000000000000000000000 DUP2 MSTORE POP PUSH0 PUSH1 0x1 TIMESTAMP PUSH3 0x369 PUSH1 0x20 SHL PUSH1 0x20 SHR JUMP JUMPDEST PUSH3 0x34D PUSH0 PUSH1 0x40 MLOAD DUP1 PUSH1 0x40 ADD PUSH1 0x40 MSTORE DUP1 PUSH1 0xE DUP2 MSTORE PUSH1 0x20 ADD PUSH32 0xD09FD183D0B7D18BD180D0B8D0BA000000000000000000000000000000000000 DUP2 MSTORE POP PUSH1 0x40 MLOAD DUP1 PUSH1 0x60 ADD PUSH1 0x40 MSTORE DUP1 PUSH1 0x38 DUP2 MSTORE PUSH1 0x20 ADD PUSH3 0x6E72 PUSH1 0x38 SWAP2 CODECOPY PUSH1 0x40 MLOAD DUP1 PUSH1 0x40 ADD PUSH1 0x40 MSTORE DUP1 PUSH1 0xC DUP2 MSTORE PUSH1 0x20 ADD PUSH32 0x6361745F6E6674332E706E670000000000000000000000000000000000000000 DUP2 MSTORE POP PUSH0 PUSH1 0x1 TIMESTAMP PUSH3 0x369 PUSH1 0x20 SHL PUSH1 0x20 SHR JUMP JUMPDEST POP PUSH3 0x1B1F JUMP JUMPDEST DUP1 PUSH1 0x2 SWAP1 DUP2 PUSH3 0x365 SWAP2 SWAP1 PUSH3 0x1500 JUMP JUMPDEST POP POP JUMP JUMPDEST PUSH1 0x4 PUSH0 SWAP1 SLOAD SWAP1 PUSH2 0x100 EXP SWAP1 DIV PUSH20 0xFFFFFFFFFFFFFFFFFFFFFFFFFFFFFFFFFFFFFFFF AND PUSH20 0xFFFFFFFFFFFFFFFFFFFFFFFFFFFFFFFFFFFFFFFF AND CALLER PUSH20 0xFFFFFFFFFFFFFFFFFFFFFFFFFFFFFFFFFFFFFFFF AND EQ PUSH3 0x3FB JUMPI PUSH1 0x40 MLOAD PUSH32 0x8C379A000000000000000000000000000000000000000000000000000000000 DUP2 MSTORE PUSH1 0x4 ADD PUSH3 0x3F2 SWAP1 PUSH3 0x168E JUMP JUMPDEST PUSH1 0x40 MLOAD DUP1 SWAP2 SUB SWAP1 REVERT JUMPDEST PUSH0 PUSH1 0x8 PUSH0 DUP10 DUP2 MSTORE PUSH1 0x20 ADD SWAP1 DUP2 MSTORE PUSH1 0x20 ADD PUSH0 KECCAK256 PUSH1 0x5 ADD SLOAD EQ PUSH3 0x454 JUMPI PUSH1 0x40 MLOAD PUSH32 0x8C379A000000000000000000000000000000000000000000000000000000000 DUP2 MSTORE PUSH1 0x4 ADD PUSH3 0x44B SWAP1 PUSH3 0x1722 JUMP JUMPDEST PUSH1 0x40 MLOAD DUP1 SWAP2 SUB SWAP1 REVERT JUMPDEST PUSH3 0x476 CALLER DUP9 DUP5 PUSH1 0x40 MLOAD DUP1 PUSH1 0x20 ADD PUSH1 0x40 MSTORE DUP1 PUSH0 DUP2 MSTORE POP PUSH3 0x6DC PUSH1 0x20 SHL PUSH1 0x20 SHR JUMP JUMPDEST PUSH1 0x40 MLOAD DUP1 PUSH2 0x100 ADD PUSH1 0x40 MSTORE DUP1 DUP9 DUP2 MSTORE PUSH1 0x20 ADD PUSH1 0x9 PUSH0 CALLER PUSH20 0xFFFFFFFFFFFFFFFFFFFFFFFFFFFFFFFFFFFFFFFF AND PUSH20 0xFFFFFFFFFFFFFFFFFFFFFFFFFFFFFFFFFFFFFFFF AND DUP2 MSTORE PUSH1 0x20 ADD SWAP1 DUP2 MSTORE PUSH1 0x20 ADD PUSH0 KECCAK256 DUP1 SLOAD SWAP1 POP DUP2 MSTORE PUSH1 0x20 ADD DUP8 DUP2 MSTORE PUSH1 0x20 ADD DUP7 DUP2 MSTORE PUSH1 0x20 ADD DUP6 DUP2 MSTORE PUSH1 0x20 ADD DUP5 DUP2 MSTORE PUSH1 0x20 ADD DUP4 DUP2 MSTORE PUSH1 0x20 ADD DUP3 DUP2 MSTORE POP PUSH1 0x8 PUSH0 DUP10 DUP2 MSTORE PUSH1 0x20 ADD SWAP1 DUP2 MSTORE PUSH1 0x20 ADD PUSH0 KECCAK256 PUSH0 DUP3 ADD MLOAD DUP2 PUSH0 ADD SSTORE PUSH1 0x20 DUP3 ADD MLOAD DUP2 PUSH1 0x1 ADD SSTORE PUSH1 0x40 DUP3 ADD MLOAD DUP2 PUSH1 0x2 ADD SWAP1 DUP2 PUSH3 0x52A SWAP2 SWAP1 PUSH3 0x1500 JUMP JUMPDEST POP PUSH1 0x60 DUP3 ADD MLOAD DUP2 PUSH1 0x3 ADD SWAP1 DUP2 PUSH3 0x542 SWAP2 SWAP1 PUSH3 0x1500 JUMP JUMPDEST POP PUSH1 0x80 DUP3 ADD MLOAD DUP2 PUSH1 0x4 ADD SWAP1 DUP2 PUSH3 0x55A SWAP2 SWAP1 PUSH3 0x1500 JUMP JUMPDEST POP PUSH1 0xA0 DUP3 ADD MLOAD DUP2 PUSH1 0x5 ADD SSTORE PUSH1 0xC0 DUP3 ADD MLOAD DUP2 PUSH1 0x6 ADD SSTORE PUSH1 0xE0 DUP3 ADD MLOAD DUP2 PUSH1 0x7 ADD SSTORE SWAP1 POP POP PUSH1 0x9 PUSH0 CALLER PUSH20 0xFFFFFFFFFFFFFFFFFFFFFFFFFFFFFFFFFFFFFFFF AND PUSH20 0xFFFFFFFFFFFFFFFFFFFFFFFFFFFFFFFFFFFFFFFF AND DUP2 MSTORE PUSH1 0x20 ADD SWAP1 DUP2 MSTORE PUSH1 0x20 ADD PUSH0 KECCAK256 PUSH1 0x40 MLOAD DUP1 PUSH2 0x100 ADD PUSH1 0x40 MSTORE DUP1 DUP10 DUP2 MSTORE PUSH1 0x20 ADD PUSH1 0x9 PUSH0 CALLER PUSH20 0xFFFFFFFFFFFFFFFFFFFFFFFFFFFFFFFFFFFFFFFF AND PUSH20 0xFFFFFFFFFFFFFFFFFFFFFFFFFFFFFFFFFFFFFFFF AND DUP2 MSTORE PUSH1 0x20 ADD SWAP1 DUP2 MSTORE PUSH1 0x20 ADD PUSH0 KECCAK256 DUP1 SLOAD SWAP1 POP DUP2 MSTORE PUSH1 0x20 ADD DUP9 DUP2 MSTORE PUSH1 0x20 ADD DUP8 DUP2 MSTORE PUSH1 0x20 ADD DUP7 DUP2 MSTORE PUSH1 0x20 ADD DUP6 DUP2 MSTORE PUSH1 0x20 ADD DUP5 DUP2 MSTORE PUSH1 0x20 ADD DUP4 DUP2 MSTORE POP SWAP1 DUP1 PUSH1 0x1 DUP2 SLOAD ADD DUP1 DUP3 SSTORE DUP1 SWAP2 POP POP PUSH1 0x1 SWAP1 SUB SWAP1 PUSH0 MSTORE PUSH1 0x20 PUSH0 KECCAK256 SWAP1 PUSH1 0x8 MUL ADD PUSH0 SWAP1 SWAP2 SWAP1 SWAP2 SWAP1 SWAP2 POP PUSH0 DUP3 ADD MLOAD DUP2 PUSH0 ADD SSTORE PUSH1 0x20 DUP3 ADD MLOAD DUP2 PUSH1 0x1 ADD SSTORE PUSH1 0x40 DUP3 ADD MLOAD DUP2 PUSH1 0x2 ADD SWAP1 DUP2 PUSH3 0x682 SWAP2 SWAP1 PUSH3 0x1500 JUMP JUMPDEST POP PUSH1 0x60 DUP3 ADD MLOAD DUP2 PUSH1 0x3 ADD SWAP1 DUP2 PUSH3 0x69A SWAP2 SWAP1 PUSH3 0x1500 JUMP JUMPDEST POP PUSH1 0x80 DUP3 ADD MLOAD DUP2 PUSH1 0x4 ADD SWAP1 DUP2 PUSH3 0x6B2 SWAP2 SWAP1 PUSH3 0x1500 JUMP JUMPDEST POP PUSH1 0xA0 DUP3 ADD MLOAD DUP2 PUSH1 0x5 ADD SSTORE PUSH1 0xC0 DUP3 ADD MLOAD DUP2 PUSH1 0x6 ADD SSTORE PUSH1 0xE0 DUP3 ADD MLOAD DUP2 PUSH1 0x7 ADD SSTORE POP POP POP POP POP POP POP POP POP JUMP JUMPDEST PUSH0 PUSH20 0xFFFFFFFFFFFFFFFFFFFFFFFFFFFFFFFFFFFFFFFF AND DUP5 PUSH20 0xFFFFFFFFFFFFFFFFFFFFFFFFFFFFFFFFFFFFFFFF AND SUB PUSH3 0x74F JUMPI PUSH0 PUSH1 0x40 MLOAD PUSH32 0x57F447CE00000000000000000000000000000000000000000000000000000000 DUP2 MSTORE PUSH1 0x4 ADD PUSH3 0x746 SWAP2 SWAP1 PUSH3 0x1753 JUMP JUMPDEST PUSH1 0x40 MLOAD DUP1 SWAP2 SUB SWAP1 REVERT JUMPDEST PUSH0 DUP1 PUSH3 0x763 DUP6 DUP6 PUSH3 0x784 PUSH1 0x20 SHL PUSH1 0x20 SHR JUMP JUMPDEST SWAP2 POP SWAP2 POP PUSH3 0x77C PUSH0 DUP8 DUP5 DUP5 DUP8 PUSH3 0x7B4 PUSH1 0x20 SHL PUSH1 0x20 SHR JUMP JUMPDEST POP POP POP POP POP POP JUMP JUMPDEST PUSH1 0x60 DUP1 PUSH1 0x40 MLOAD SWAP2 POP PUSH1 0x1 DUP3 MSTORE DUP4 PUSH1 0x20 DUP4 ADD MSTORE PUSH1 0x40 DUP3 ADD SWAP1 POP PUSH1 0x1 DUP2 MSTORE DUP3 PUSH1 0x20 DUP3 ADD MSTORE PUSH1 0x40 DUP2 ADD PUSH1 0x40 MSTORE SWAP3 POP SWAP3 SWAP1 POP JUMP JUMPDEST PUSH3 0x7C8 DUP6 DUP6 DUP6 DUP6 PUSH3 0x887 PUSH1 0x20 SHL PUSH1 0x20 SHR JUMP JUMPDEST PUSH0 PUSH20 0xFFFFFFFFFFFFFFFFFFFFFFFFFFFFFFFFFFFFFFFF AND DUP5 PUSH20 0xFFFFFFFFFFFFFFFFFFFFFFFFFFFFFFFFFFFFFFFF AND EQ PUSH3 0x880 JUMPI PUSH0 PUSH3 0x80D PUSH3 0xC39 PUSH1 0x20 SHL PUSH1 0x20 SHR JUMP JUMPDEST SWAP1 POP PUSH1 0x1 DUP5 MLOAD SUB PUSH3 0x867 JUMPI PUSH0 PUSH3 0x82F PUSH0 DUP7 PUSH3 0xC40 PUSH1 0x20 SHL SWAP1 SWAP2 SWAP1 PUSH1 0x20 SHR JUMP JUMPDEST SWAP1 POP PUSH0 PUSH3 0x847 PUSH0 DUP7 PUSH3 0xC40 PUSH1 0x20 SHL SWAP1 SWAP2 SWAP1 PUSH1 0x20 SHR JUMP JUMPDEST SWAP1 POP PUSH3 0x85F DUP4 DUP10 DUP10 DUP6 DUP6 DUP10 PUSH3 0xC53 PUSH1 0x20 SHL PUSH1 0x20 SHR JUMP JUMPDEST POP POP PUSH3 0x87E JUMP JUMPDEST PUSH3 0x87D DUP2 DUP8 DUP8 DUP8 DUP8 DUP8 PUSH3 0xE11 PUSH1 0x20 SHL PUSH1 0x20 SHR JUMP JUMPDEST JUMPDEST POP JUMPDEST POP POP POP POP POP JUMP JUMPDEST DUP1 MLOAD DUP3 MLOAD EQ PUSH3 0x8D4 JUMPI DUP2 MLOAD DUP2 MLOAD PUSH1 0x40 MLOAD PUSH32 0x5B05999100000000000000000000000000000000000000000000000000000000 DUP2 MSTORE PUSH1 0x4 ADD PUSH3 0x8CB SWAP3 SWAP2 SWAP1 PUSH3 0x177F JUMP JUMPDEST PUSH1 0x40 MLOAD DUP1 SWAP2 SUB SWAP1 REVERT JUMPDEST PUSH0 PUSH3 0x8E5 PUSH3 0xC39 PUSH1 0x20 SHL PUSH1 0x20 SHR JUMP JUMPDEST SWAP1 POP PUSH0 JUMPDEST DUP4 MLOAD DUP2 LT ISZERO PUSH3 0xAEE JUMPI PUSH0 PUSH3 0x909 DUP3 DUP7 PUSH3 0xC40 PUSH1 0x20 SHL SWAP1 SWAP2 SWAP1 PUSH1 0x20 SHR JUMP JUMPDEST SWAP1 POP PUSH0 PUSH3 0x921 DUP4 DUP7 PUSH3 0xC40 PUSH1 0x20 SHL SWAP1 SWAP2 SWAP1 PUSH1 0x20 SHR JUMP JUMPDEST SWAP1 POP PUSH0 PUSH20 0xFFFFFFFFFFFFFFFFFFFFFFFFFFFFFFFFFFFFFFFF AND DUP9 PUSH20 0xFFFFFFFFFFFFFFFFFFFFFFFFFFFFFFFFFFFFFFFF AND EQ PUSH3 0xA48 JUMPI PUSH0 DUP1 PUSH0 DUP5 DUP2 MSTORE PUSH1 0x20 ADD SWAP1 DUP2 MSTORE PUSH1 0x20 ADD PUSH0 KECCAK256 PUSH0 DUP11 PUSH20 0xFFFFFFFFFFFFFFFFFFFFFFFFFFFFFFFFFFFFFFFF AND PUSH20 0xFFFFFFFFFFFFFFFFFFFFFFFFFFFFFFFFFFFFFFFF AND DUP2 MSTORE PUSH1 0x20 ADD SWAP1 DUP2 MSTORE PUSH1 0x20 ADD PUSH0 KECCAK256 SLOAD SWAP1 POP DUP2 DUP2 LT ISZERO PUSH3 0x9F4 JUMPI DUP9 DUP2 DUP4 DUP6 PUSH1 0x40 MLOAD PUSH32 0x3DEE4C500000000000000000000000000000000000000000000000000000000 DUP2 MSTORE PUSH1 0x4 ADD PUSH3 0x9EB SWAP5 SWAP4 SWAP3 SWAP2 SWAP1 PUSH3 0x17AA JUMP JUMPDEST PUSH1 0x40 MLOAD DUP1 SWAP2 SUB SWAP1 REVERT JUMPDEST DUP2 DUP2 SUB PUSH0 DUP1 DUP6 DUP2 MSTORE PUSH1 0x20 ADD SWAP1 DUP2 MSTORE PUSH1 0x20 ADD PUSH0 KECCAK256 PUSH0 DUP12 PUSH20 0xFFFFFFFFFFFFFFFFFFFFFFFFFFFFFFFFFFFFFFFF AND PUSH20 0xFFFFFFFFFFFFFFFFFFFFFFFFFFFFFFFFFFFFFFFF AND DUP2 MSTORE PUSH1 0x20 ADD SWAP1 DUP2 MSTORE PUSH1 0x20 ADD PUSH0 KECCAK256 DUP2 SWAP1 SSTORE POP POP JUMPDEST PUSH0 PUSH20 0xFFFFFFFFFFFFFFFFFFFFFFFFFFFFFFFFFFFFFFFF AND DUP8 PUSH20 0xFFFFFFFFFFFFFFFFFFFFFFFFFFFFFFFFFFFFFFFF AND EQ PUSH3 0xAE0 JUMPI DUP1 PUSH0 DUP1 DUP5 DUP2 MSTORE PUSH1 0x20 ADD SWAP1 DUP2 MSTORE PUSH1 0x20 ADD PUSH0 KECCAK256 PUSH0 DUP10 PUSH20 0xFFFFFFFFFFFFFFFFFFFFFFFFFFFFFFFFFFFFFFFF AND PUSH20 0xFFFFFFFFFFFFFFFFFFFFFFFFFFFFFFFFFFFFFFFF AND DUP2 MSTORE PUSH1 0x20 ADD SWAP1 DUP2 MSTORE PUSH1 0x20 ADD PUSH0 KECCAK256 PUSH0 DUP3 DUP3 SLOAD PUSH3 0xAD8 SWAP2 SWAP1 PUSH3 0x17F5 JUMP JUMPDEST SWAP3 POP POP DUP2 SWAP1 SSTORE POP JUMPDEST POP POP DUP1 PUSH1 0x1 ADD SWAP1 POP PUSH3 0x8E9 JUMP JUMPDEST POP PUSH1 0x1 DUP4 MLOAD SUB PUSH3 0xBB1 JUMPI PUSH0 PUSH3 0xB0F PUSH0 DUP6 PUSH3 0xC40 PUSH1 0x20 SHL SWAP1 SWAP2 SWAP1 PUSH1 0x20 SHR JUMP JUMPDEST SWAP1 POP PUSH0 PUSH3 0xB27 PUSH0 DUP6 PUSH3 0xC40 PUSH1 0x20 SHL SWAP1 SWAP2 SWAP1 PUSH1 0x20 SHR JUMP JUMPDEST SWAP1 POP DUP6 PUSH20 0xFFFFFFFFFFFFFFFFFFFFFFFFFFFFFFFFFFFFFFFF AND DUP8 PUSH20 0xFFFFFFFFFFFFFFFFFFFFFFFFFFFFFFFFFFFFFFFF AND DUP5 PUSH20 0xFFFFFFFFFFFFFFFFFFFFFFFFFFFFFFFFFFFFFFFF AND PUSH32 0xC3D58168C5AE7397731D063D5BBF3D657854427343F4C083240F7AACAA2D0F62 DUP6 DUP6 PUSH1 0x40 MLOAD PUSH3 0xBA1 SWAP3 SWAP2 SWAP1 PUSH3 0x177F JUMP JUMPDEST PUSH1 0x40 MLOAD DUP1 SWAP2 SUB SWAP1 LOG4 POP POP PUSH3 0xC32 JUMP JUMPDEST DUP4 PUSH20 0xFFFFFFFFFFFFFFFFFFFFFFFFFFFFFFFFFFFFFFFF AND DUP6 PUSH20 0xFFFFFFFFFFFFFFFFFFFFFFFFFFFFFFFFFFFFFFFF AND DUP3 PUSH20 0xFFFFFFFFFFFFFFFFFFFFFFFFFFFFFFFFFFFFFFFF AND PUSH32 0x4A39DC06D4C0DBC64B70AF90FD698A233A518AA5D07E595D983B8C0526C8F7FB DUP7 DUP7 PUSH1 0x40 MLOAD PUSH3 0xC29 SWAP3 SWAP2 SWAP1 PUSH3 0x18F6 JUMP JUMPDEST PUSH1 0x40 MLOAD DUP1 SWAP2 SUB SWAP1 LOG4 JUMPDEST POP POP POP POP POP JUMP JUMPDEST PUSH0 CALLER SWAP1 POP SWAP1 JUMP JUMPDEST PUSH0 PUSH1 0x20 DUP3 MUL PUSH1 0x20 DUP5 ADD ADD MLOAD SWAP1 POP SWAP3 SWAP2 POP POP JUMP JUMPDEST PUSH0 DUP5 PUSH20 0xFFFFFFFFFFFFFFFFFFFFFFFFFFFFFFFFFFFFFFFF AND EXTCODESIZE GT ISZERO PUSH3 0xE09 JUMPI DUP4 PUSH20 0xFFFFFFFFFFFFFFFFFFFFFFFFFFFFFFFFFFFFFFFF AND PUSH4 0xF23A6E61 DUP8 DUP8 DUP7 DUP7 DUP7 PUSH1 0x40 MLOAD DUP7 PUSH4 0xFFFFFFFF AND PUSH1 0xE0 SHL DUP2 MSTORE PUSH1 0x4 ADD PUSH3 0xCB6 SWAP6 SWAP5 SWAP4 SWAP3 SWAP2 SWAP1 PUSH3 0x19C3 JUMP JUMPDEST PUSH1 0x20 PUSH1 0x40 MLOAD DUP1 DUP4 SUB DUP2 PUSH0 DUP8 GAS CALL SWAP3 POP POP POP DUP1 ISZERO PUSH3 0xCF4 JUMPI POP PUSH1 0x40 MLOAD RETURNDATASIZE PUSH1 0x1F NOT PUSH1 0x1F DUP3 ADD AND DUP3 ADD DUP1 PUSH1 0x40 MSTORE POP DUP2 ADD SWAP1 PUSH3 0xCF1 SWAP2 SWAP1 PUSH3 0x1A7F JUMP JUMPDEST PUSH1 0x1 JUMPDEST PUSH3 0xD7B JUMPI RETURNDATASIZE DUP1 PUSH0 DUP2 EQ PUSH3 0xD25 JUMPI PUSH1 0x40 MLOAD SWAP2 POP PUSH1 0x1F NOT PUSH1 0x3F RETURNDATASIZE ADD AND DUP3 ADD PUSH1 0x40 MSTORE RETURNDATASIZE DUP3 MSTORE RETURNDATASIZE PUSH0 PUSH1 0x20 DUP5 ADD RETURNDATACOPY PUSH3 0xD2A JUMP JUMPDEST PUSH1 0x60 SWAP2 POP JUMPDEST POP PUSH0 DUP2 MLOAD SUB PUSH3 0xD73 JUMPI DUP5 PUSH1 0x40 MLOAD PUSH32 0x57F447CE00000000000000000000000000000000000000000000000000000000 DUP2 MSTORE PUSH1 0x4 ADD PUSH3 0xD6A SWAP2 SWAP1 PUSH3 0x1753 JUMP JUMPDEST PUSH1 0x40 MLOAD DUP1 SWAP2 SUB SWAP1 REVERT JUMPDEST DUP1 MLOAD DUP2 PUSH1 0x20 ADD REVERT JUMPDEST PUSH4 0xF23A6E61 PUSH1 0xE0 SHL PUSH28 0xFFFFFFFFFFFFFFFFFFFFFFFFFFFFFFFFFFFFFFFFFFFFFFFFFFFFFFFF NOT AND DUP2 PUSH28 0xFFFFFFFFFFFFFFFFFFFFFFFFFFFFFFFFFFFFFFFFFFFFFFFFFFFFFFFF NOT AND EQ PUSH3 0xE07 JUMPI DUP5 PUSH1 0x40 MLOAD PUSH32 0x57F447CE00000000000000000000000000000000000000000000000000000000 DUP2 MSTORE PUSH1 0x4 ADD PUSH3 0xDFE SWAP2 SWAP1 PUSH3 0x1753 JUMP JUMPDEST PUSH1 0x40 MLOAD DUP1 SWAP2 SUB SWAP1 REVERT JUMPDEST POP JUMPDEST POP POP POP POP POP POP JUMP JUMPDEST PUSH0 DUP5 PUSH20 0xFFFFFFFFFFFFFFFFFFFFFFFFFFFFFFFFFFFFFFFF AND EXTCODESIZE GT ISZERO PUSH3 0xFC7 JUMPI DUP4 PUSH20 0xFFFFFFFFFFFFFFFFFFFFFFFFFFFFFFFFFFFFFFFF AND PUSH4 0xBC197C81 DUP8 DUP8 DUP7 DUP7 DUP7 PUSH1 0x40 MLOAD DUP7 PUSH4 0xFFFFFFFF AND PUSH1 0xE0 SHL DUP2 MSTORE PUSH1 0x4 ADD PUSH3 0xE74 SWAP6 SWAP5 SWAP4 SWAP3 SWAP2 SWAP1 PUSH3 0x1AAF JUMP JUMPDEST PUSH1 0x20 PUSH1 0x40 MLOAD DUP1 DUP4 SUB DUP2 PUSH0 DUP8 GAS CALL SWAP3 POP POP POP DUP1 ISZERO PUSH3 0xEB2 JUMPI POP PUSH1 0x40 MLOAD RETURNDATASIZE PUSH1 0x1F NOT PUSH1 0x1F DUP3 ADD AND DUP3 ADD DUP1 PUSH1 0x40 MSTORE POP DUP2 ADD SWAP1 PUSH3 0xEAF SWAP2 SWAP1 PUSH3 0x1A7F JUMP JUMPDEST PUSH1 0x1 JUMPDEST PUSH3 0xF39 JUMPI RETURNDATASIZE DUP1 PUSH0 DUP2 EQ PUSH3 0xEE3 JUMPI PUSH1 0x40 MLOAD SWAP2 POP PUSH1 0x1F NOT PUSH1 0x3F RETURNDATASIZE ADD AND DUP3 ADD PUSH1 0x40 MSTORE RETURNDATASIZE DUP3 MSTORE RETURNDATASIZE PUSH0 PUSH1 0x20 DUP5 ADD RETURNDATACOPY PUSH3 0xEE8 JUMP JUMPDEST PUSH1 0x60 SWAP2 POP JUMPDEST POP PUSH0 DUP2 MLOAD SUB PUSH3 0xF31 JUMPI DUP5 PUSH1 0x40 MLOAD PUSH32 0x57F447CE00000000000000000000000000000000000000000000000000000000 DUP2 MSTORE PUSH1 0x4 ADD PUSH3 0xF28 SWAP2 SWAP1 PUSH3 0x1753 JUMP JUMPDEST PUSH1 0x40 MLOAD DUP1 SWAP2 SUB SWAP1 REVERT JUMPDEST DUP1 MLOAD DUP2 PUSH1 0x20 ADD REVERT JUMPDEST PUSH4 0xBC197C81 PUSH1 0xE0 SHL PUSH28 0xFFFFFFFFFFFFFFFFFFFFFFFFFFFFFFFFFFFFFFFFFFFFFFFFFFFFFFFF NOT AND DUP2 PUSH28 0xFFFFFFFFFFFFFFFFFFFFFFFFFFFFFFFFFFFFFFFFFFFFFFFFFFFFFFFF NOT AND EQ PUSH3 0xFC5 JUMPI DUP5 PUSH1 0x40 MLOAD PUSH32 0x57F447CE00000000000000000000000000000000000000000000000000000000 DUP2 MSTORE PUSH1 0x4 ADD PUSH3 0xFBC SWAP2 SWAP1 PUSH3 0x1753 JUMP JUMPDEST PUSH1 0x40 MLOAD DUP1 SWAP2 SUB SWAP1 REVERT JUMPDEST POP JUMPDEST POP POP POP POP POP POP JUMP JUMPDEST PUSH0 DUP1 REVERT JUMPDEST PUSH0 PUSH20 0xFFFFFFFFFFFFFFFFFFFFFFFFFFFFFFFFFFFFFFFF DUP3 AND SWAP1 POP SWAP2 SWAP1 POP JUMP JUMPDEST PUSH0 PUSH3 0xFFE DUP3 PUSH3 0xFD3 JUMP JUMPDEST SWAP1 POP SWAP2 SWAP1 POP JUMP JUMPDEST PUSH3 0x1010 DUP2 PUSH3 0xFF2 JUMP JUMPDEST DUP2 EQ PUSH3 0x101B JUMPI PUSH0 DUP1 REVERT JUMPDEST POP JUMP JUMPDEST PUSH0 DUP2 MLOAD SWAP1 POP PUSH3 0x102E DUP2 PUSH3 0x1005 JUMP JUMPDEST SWAP3 SWAP2 POP POP JUMP JUMPDEST PUSH0 PUSH1 0x20 DUP3 DUP5 SUB SLT ISZERO PUSH3 0x104C JUMPI PUSH3 0x104B PUSH3 0xFCF JUMP JUMPDEST JUMPDEST PUSH0 PUSH3 0x105B DUP5 DUP3 DUP6 ADD PUSH3 0x101E JUMP JUMPDEST SWAP2 POP POP SWAP3 SWAP2 POP POP JUMP JUMPDEST PUSH0 PUSH1 0xFF DUP3 AND SWAP1 POP SWAP2 SWAP1 POP JUMP JUMPDEST PUSH3 0x107B DUP2 PUSH3 0x1064 JUMP JUMPDEST DUP2 EQ PUSH3 0x1086 JUMPI PUSH0 DUP1 REVERT JUMPDEST POP JUMP JUMPDEST PUSH0 DUP2 MLOAD SWAP1 POP PUSH3 0x1099 DUP2 PUSH3 0x1070 JUMP JUMPDEST SWAP3 SWAP2 POP POP JUMP JUMPDEST PUSH0 PUSH1 0x20 DUP3 DUP5 SUB SLT ISZERO PUSH3 0x10B7 JUMPI PUSH3 0x10B6 PUSH3 0xFCF JUMP JUMPDEST JUMPDEST PUSH0 PUSH3 0x10C6 DUP5 DUP3 DUP6 ADD PUSH3 0x1089 JUMP JUMPDEST SWAP2 POP POP SWAP3 SWAP2 POP POP JUMP JUMPDEST PUSH32 0x4E487B7100000000000000000000000000000000000000000000000000000000 PUSH0 MSTORE PUSH1 0x11 PUSH1 0x4 MSTORE PUSH1 0x24 PUSH0 REVERT JUMPDEST PUSH0 DUP2 PUSH1 0x1 SHR SWAP1 POP SWAP2 SWAP1 POP JUMP JUMPDEST PUSH0 DUP1 DUP3 SWAP2 POP DUP4 SWAP1 POP JUMPDEST PUSH1 0x1 DUP6 GT ISZERO PUSH3 0x1159 JUMPI DUP1 DUP7 DIV DUP2 GT ISZERO PUSH3 0x1131 JUMPI PUSH3 0x1130 PUSH3 0x10CF JUMP JUMPDEST JUMPDEST PUSH1 0x1 DUP6 AND ISZERO PUSH3 0x1141 JUMPI DUP1 DUP3 MUL SWAP2 POP JUMPDEST DUP1 DUP2 MUL SWAP1 POP PUSH3 0x1151 DUP6 PUSH3 0x10FC JUMP JUMPDEST SWAP5 POP PUSH3 0x1111 JUMP JUMPDEST SWAP5 POP SWAP5 SWAP3 POP POP POP JUMP JUMPDEST PUSH0 DUP3 PUSH3 0x1173 JUMPI PUSH1 0x1 SWAP1 POP PUSH3 0x1245 JUMP JUMPDEST DUP2 PUSH3 0x1182 JUMPI PUSH0 SWAP1 POP PUSH3 0x1245 JUMP JUMPDEST DUP2 PUSH1 0x1 DUP2 EQ PUSH3 0x119B JUMPI PUSH1 0x2 DUP2 EQ PUSH3 0x11A6 JUMPI PUSH3 0x11DC JUMP JUMPDEST PUSH1 0x1 SWAP2 POP POP PUSH3 0x1245 JUMP JUMPDEST PUSH1 0xFF DUP5 GT ISZERO PUSH3 0x11BB JUMPI PUSH3 0x11BA PUSH3 0x10CF JUMP JUMPDEST JUMPDEST DUP4 PUSH1 0x2 EXP SWAP2 POP DUP5 DUP3 GT ISZERO PUSH3 0x11D5 JUMPI PUSH3 0x11D4 PUSH3 0x10CF JUMP JUMPDEST JUMPDEST POP PUSH3 0x1245 JUMP JUMPDEST POP PUSH1 0x20 DUP4 LT PUSH2 0x133 DUP4 LT AND PUSH1 0x4E DUP5 LT PUSH1 0xB DUP5 LT AND OR ISZERO PUSH3 0x1216 JUMPI DUP3 DUP3 EXP SWAP1 POP DUP4 DUP2 GT ISZERO PUSH3 0x1210 JUMPI PUSH3 0x120F PUSH3 0x10CF JUMP JUMPDEST JUMPDEST PUSH3 0x1245 JUMP JUMPDEST PUSH3 0x1225 DUP5 DUP5 DUP5 PUSH1 0x1 PUSH3 0x1108 JUMP JUMPDEST SWAP3 POP SWAP1 POP DUP2 DUP5 DIV DUP2 GT ISZERO PUSH3 0x123F JUMPI PUSH3 0x123E PUSH3 0x10CF JUMP JUMPDEST JUMPDEST DUP2 DUP2 MUL SWAP1 POP JUMPDEST SWAP4 SWAP3 POP POP POP JUMP JUMPDEST PUSH0 DUP2 SWAP1 POP SWAP2 SWAP1 POP JUMP JUMPDEST PUSH0 PUSH3 0x1261 DUP3 PUSH3 0x124C JUMP JUMPDEST SWAP2 POP PUSH3 0x126E DUP4 PUSH3 0x1064 JUMP JUMPDEST SWAP3 POP PUSH3 0x129D PUSH32 0xFFFFFFFFFFFFFFFFFFFFFFFFFFFFFFFFFFFFFFFFFFFFFFFFFFFFFFFFFFFFFFFF DUP5 DUP5 PUSH3 0x1162 JUMP JUMPDEST SWAP1 POP SWAP3 SWAP2 POP POP JUMP JUMPDEST PUSH0 DUP2 MLOAD SWAP1 POP SWAP2 SWAP1 POP JUMP JUMPDEST PUSH32 0x4E487B7100000000000000000000000000000000000000000000000000000000 PUSH0 MSTORE PUSH1 0x41 PUSH1 0x4 MSTORE PUSH1 0x24 PUSH0 REVERT JUMPDEST PUSH32 0x4E487B7100000000000000000000000000000000000000000000000000000000 PUSH0 MSTORE PUSH1 0x22 PUSH1 0x4 MSTORE PUSH1 0x24 PUSH0 REVERT JUMPDEST PUSH0 PUSH1 0x2 DUP3 DIV SWAP1 POP PUSH1 0x1 DUP3 AND DUP1 PUSH3 0x1321 JUMPI PUSH1 0x7F DUP3 AND SWAP2 POP JUMPDEST PUSH1 0x20 DUP3 LT DUP2 SUB PUSH3 0x1337 JUMPI PUSH3 0x1336 PUSH3 0x12DC JUMP JUMPDEST JUMPDEST POP SWAP2 SWAP1 POP JUMP JUMPDEST PUSH0 DUP2 SWAP1 POP DUP2 PUSH0 MSTORE PUSH1 0x20 PUSH0 KECCAK256 SWAP1 POP SWAP2 SWAP1 POP JUMP JUMPDEST PUSH0 PUSH1 0x20 PUSH1 0x1F DUP4 ADD DIV SWAP1 POP SWAP2 SWAP1 POP JUMP JUMPDEST PUSH0 DUP3 DUP3 SHL SWAP1 POP SWAP3 SWAP2 POP POP JUMP JUMPDEST PUSH0 PUSH1 0x8 DUP4 MUL PUSH3 0x139B PUSH32 0xFFFFFFFFFFFFFFFFFFFFFFFFFFFFFFFFFFFFFFFFFFFFFFFFFFFFFFFFFFFFFFFF DUP3 PUSH3 0x135E JUMP JUMPDEST PUSH3 0x13A7 DUP7 DUP4 PUSH3 0x135E JUMP JUMPDEST SWAP6 POP DUP1 NOT DUP5 AND SWAP4 POP DUP1 DUP7 AND DUP5 OR SWAP3 POP POP POP SWAP4 SWAP3 POP POP POP JUMP JUMPDEST PUSH0 DUP2 SWAP1 POP SWAP2 SWAP1 POP JUMP JUMPDEST PUSH0 PUSH3 0x13E8 PUSH3 0x13E2 PUSH3 0x13DC DUP5 PUSH3 0x124C JUMP JUMPDEST PUSH3 0x13BF JUMP JUMPDEST PUSH3 0x124C JUMP JUMPDEST SWAP1 POP SWAP2 SWAP1 POP JUMP JUMPDEST PUSH0 DUP2 SWAP1 POP SWAP2 SWAP1 POP JUMP JUMPDEST PUSH3 0x1403 DUP4 PUSH3 0x13C8 JUMP JUMPDEST PUSH3 0x141B PUSH3 0x1412 DUP3 PUSH3 0x13EF JUMP JUMPDEST DUP5 DUP5 SLOAD PUSH3 0x136A JUMP JUMPDEST DUP3 SSTORE POP POP POP POP JUMP JUMPDEST PUSH0 SWAP1 JUMP JUMPDEST PUSH3 0x1431 PUSH3 0x1423 JUMP JUMPDEST PUSH3 0x143E DUP2 DUP5 DUP5 PUSH3 0x13F8 JUMP JUMPDEST POP POP POP JUMP JUMPDEST JUMPDEST DUP2 DUP2 LT ISZERO PUSH3 0x1465 JUMPI PUSH3 0x1459 PUSH0 DUP3 PUSH3 0x1427 JUMP JUMPDEST PUSH1 0x1 DUP2 ADD SWAP1 POP PUSH3 0x1444 JUMP JUMPDEST POP POP JUMP JUMPDEST PUSH1 0x1F DUP3 GT ISZERO PUSH3 0x14B4 JUMPI PUSH3 0x147E DUP2 PUSH3 0x133D JUMP JUMPDEST PUSH3 0x1489 DUP5 PUSH3 0x134F JUMP JUMPDEST DUP2 ADD PUSH1 0x20 DUP6 LT ISZERO PUSH3 0x1499 JUMPI DUP2 SWAP1 POP JUMPDEST PUSH3 0x14B1 PUSH3 0x14A8 DUP6 PUSH3 0x134F JUMP JUMPDEST DUP4 ADD DUP3 PUSH3 0x1443 JUMP JUMPDEST POP POP JUMPDEST POP POP POP JUMP JUMPDEST PUSH0 DUP3 DUP3 SHR SWAP1 POP SWAP3 SWAP2 POP POP JUMP JUMPDEST PUSH0 PUSH3 0x14D6 PUSH0 NOT DUP5 PUSH1 0x8 MUL PUSH3 0x14B9 JUMP JUMPDEST NOT DUP1 DUP4 AND SWAP2 POP POP SWAP3 SWAP2 POP POP JUMP JUMPDEST PUSH0 PUSH3 0x14F0 DUP4 DUP4 PUSH3 0x14C5 JUMP JUMPDEST SWAP2 POP DUP3 PUSH1 0x2 MUL DUP3 OR SWAP1 POP SWAP3 SWAP2 POP POP JUMP JUMPDEST PUSH3 0x150B DUP3 PUSH3 0x12A5 JUMP JUMPDEST PUSH8 0xFFFFFFFFFFFFFFFF DUP2 GT ISZERO PUSH3 0x1527 JUMPI PUSH3 0x1526 PUSH3 0x12AF JUMP JUMPDEST JUMPDEST PUSH3 0x1533 DUP3 SLOAD PUSH3 0x1309 JUMP JUMPDEST PUSH3 0x1540 DUP3 DUP3 DUP6 PUSH3 0x1469 JUMP JUMPDEST PUSH0 PUSH1 0x20 SWAP1 POP PUSH1 0x1F DUP4 GT PUSH1 0x1 DUP2 EQ PUSH3 0x1576 JUMPI PUSH0 DUP5 ISZERO PUSH3 0x1561 JUMPI DUP3 DUP8 ADD MLOAD SWAP1 POP JUMPDEST PUSH3 0x156D DUP6 DUP3 PUSH3 0x14E3 JUMP JUMPDEST DUP7 SSTORE POP PUSH3 0x15DC JUMP JUMPDEST PUSH1 0x1F NOT DUP5 AND PUSH3 0x1586 DUP7 PUSH3 0x133D JUMP JUMPDEST PUSH0 JUMPDEST DUP3 DUP2 LT ISZERO PUSH3 0x15AF JUMPI DUP5 DUP10 ADD MLOAD DUP3 SSTORE PUSH1 0x1 DUP3 ADD SWAP2 POP PUSH1 0x20 DUP6 ADD SWAP5 POP PUSH1 0x20 DUP2 ADD SWAP1 POP PUSH3 0x1588 JUMP JUMPDEST DUP7 DUP4 LT ISZERO PUSH3 0x15CF JUMPI DUP5 DUP10 ADD MLOAD PUSH3 0x15CB PUSH1 0x1F DUP10 AND DUP3 PUSH3 0x14C5 JUMP JUMPDEST DUP4 SSTORE POP JUMPDEST PUSH1 0x1 PUSH1 0x2 DUP9 MUL ADD DUP9 SSTORE POP POP POP JUMPDEST POP POP POP POP POP POP JUMP JUMPDEST PUSH0 DUP3 DUP3 MSTORE PUSH1 0x20 DUP3 ADD SWAP1 POP SWAP3 SWAP2 POP POP JUMP JUMPDEST PUSH32 0xD0A2D0BED0BBD18CD0BAD0BE20D0B2D0BBD0B0D0B4D0B5D0BBD0B5D18620D0BC PUSH0 DUP3 ADD MSTORE PUSH32 0xD0BED0B6D0B5D18220D18DD182D0BE20D0B8D181D0BFD0BED0BBD18CD0B7D0BE PUSH1 0x20 DUP3 ADD MSTORE PUSH32 0xD0B2D0B0D182D18C000000000000000000000000000000000000000000000000 PUSH1 0x40 DUP3 ADD MSTORE POP JUMP JUMPDEST PUSH0 PUSH3 0x1676 PUSH1 0x48 DUP4 PUSH3 0x15E4 JUMP JUMPDEST SWAP2 POP PUSH3 0x1683 DUP3 PUSH3 0x15F4 JUMP JUMPDEST PUSH1 0x60 DUP3 ADD SWAP1 POP SWAP2 SWAP1 POP JUMP JUMPDEST PUSH0 PUSH1 0x20 DUP3 ADD SWAP1 POP DUP2 DUP2 SUB PUSH0 DUP4 ADD MSTORE PUSH3 0x16A7 DUP2 PUSH3 0x1668 JUMP JUMPDEST SWAP1 POP SWAP2 SWAP1 POP JUMP JUMPDEST PUSH32 0x4E465420D18120D182D0B0D0BAD0B8D0BC20696420D183D0B6D0B520D0B5D181 PUSH0 DUP3 ADD MSTORE PUSH32 0xD182D18C20D0B220D181D0B8D181D182D0B5D0BCD0B500000000000000000000 PUSH1 0x20 DUP3 ADD MSTORE POP JUMP JUMPDEST PUSH0 PUSH3 0x170A PUSH1 0x36 DUP4 PUSH3 0x15E4 JUMP JUMPDEST SWAP2 POP PUSH3 0x1717 DUP3 PUSH3 0x16AE JUMP JUMPDEST PUSH1 0x40 DUP3 ADD SWAP1 POP SWAP2 SWAP1 POP JUMP JUMPDEST PUSH0 PUSH1 0x20 DUP3 ADD SWAP1 POP DUP2 DUP2 SUB PUSH0 DUP4 ADD MSTORE PUSH3 0x173B DUP2 PUSH3 0x16FC JUMP JUMPDEST SWAP1 POP SWAP2 SWAP1 POP JUMP JUMPDEST PUSH3 0x174D DUP2 PUSH3 0xFF2 JUMP JUMPDEST DUP3 MSTORE POP POP JUMP JUMPDEST PUSH0 PUSH1 0x20 DUP3 ADD SWAP1 POP PUSH3 0x1768 PUSH0 DUP4 ADD DUP5 PUSH3 0x1742 JUMP JUMPDEST SWAP3 SWAP2 POP POP JUMP JUMPDEST PUSH3 0x1779 DUP2 PUSH3 0x124C JUMP JUMPDEST DUP3 MSTORE POP POP JUMP JUMPDEST PUSH0 PUSH1 0x40 DUP3 ADD SWAP1 POP PUSH3 0x1794 PUSH0 DUP4 ADD DUP6 PUSH3 0x176E JUMP JUMPDEST PUSH3 0x17A3 PUSH1 0x20 DUP4 ADD DUP5 PUSH3 0x176E JUMP JUMPDEST SWAP4 SWAP3 POP POP POP JUMP JUMPDEST PUSH0 PUSH1 0x80 DUP3 ADD SWAP1 POP PUSH3 0x17BF PUSH0 DUP4 ADD DUP8 PUSH3 0x1742 JUMP JUMPDEST PUSH3 0x17CE PUSH1 0x20 DUP4 ADD DUP7 PUSH3 0x176E JUMP JUMPDEST PUSH3 0x17DD PUSH1 0x40 DUP4 ADD DUP6 PUSH3 0x176E JUMP JUMPDEST PUSH3 0x17EC PUSH1 0x60 DUP4 ADD DUP5 PUSH3 0x176E JUMP JUMPDEST SWAP6 SWAP5 POP POP POP POP POP JUMP JUMPDEST PUSH0 PUSH3 0x1801 DUP3 PUSH3 0x124C JUMP JUMPDEST SWAP2 POP PUSH3 0x180E DUP4 PUSH3 0x124C JUMP JUMPDEST SWAP3 POP DUP3 DUP3 ADD SWAP1 POP DUP1 DUP3 GT ISZERO PUSH3 0x1829 JUMPI PUSH3 0x1828 PUSH3 0x10CF JUMP JUMPDEST JUMPDEST SWAP3 SWAP2 POP POP JUMP JUMPDEST PUSH0 DUP2 MLOAD SWAP1 POP SWAP2 SWAP1 POP JUMP JUMPDEST PUSH0 DUP3 DUP3 MSTORE PUSH1 0x20 DUP3 ADD SWAP1 POP SWAP3 SWAP2 POP POP JUMP JUMPDEST PUSH0 DUP2 SWAP1 POP PUSH1 0x20 DUP3 ADD SWAP1 POP SWAP2 SWAP1 POP JUMP JUMPDEST PUSH3 0x1863 DUP2 PUSH3 0x124C JUMP JUMPDEST DUP3 MSTORE POP POP JUMP JUMPDEST PUSH0 PUSH3 0x1876 DUP4 DUP4 PUSH3 0x1858 JUMP JUMPDEST PUSH1 0x20 DUP4 ADD SWAP1 POP SWAP3 SWAP2 POP POP JUMP JUMPDEST PUSH0 PUSH1 0x20 DUP3 ADD SWAP1 POP SWAP2 SWAP1 POP JUMP JUMPDEST PUSH0 PUSH3 0x189A DUP3 PUSH3 0x182F JUMP JUMPDEST PUSH3 0x18A6 DUP2 DUP6 PUSH3 0x1839 JUMP JUMPDEST SWAP4 POP PUSH3 0x18B3 DUP4 PUSH3 0x1849 JUMP JUMPDEST DUP1 PUSH0 JUMPDEST DUP4 DUP2 LT ISZERO PUSH3 0x18E9 JUMPI DUP2 MLOAD PUSH3 0x18CD DUP9 DUP3 PUSH3 0x1869 JUMP JUMPDEST SWAP8 POP PUSH3 0x18DA DUP4 PUSH3 0x1882 JUMP JUMPDEST SWAP3 POP POP PUSH1 0x1 DUP2 ADD SWAP1 POP PUSH3 0x18B6 JUMP JUMPDEST POP DUP6 SWAP4 POP POP POP POP SWAP3 SWAP2 POP POP JUMP JUMPDEST PUSH0 PUSH1 0x40 DUP3 ADD SWAP1 POP DUP2 DUP2 SUB PUSH0 DUP4 ADD MSTORE PUSH3 0x1910 DUP2 DUP6 PUSH3 0x188E JUMP JUMPDEST SWAP1 POP DUP2 DUP2 SUB PUSH1 0x20 DUP4 ADD MSTORE PUSH3 0x1926 DUP2 DUP5 PUSH3 0x188E JUMP JUMPDEST SWAP1 POP SWAP4 SWAP3 POP POP POP JUMP JUMPDEST PUSH0 DUP2 MLOAD SWAP1 POP SWAP2 SWAP1 POP JUMP JUMPDEST PUSH0 DUP3 DUP3 MSTORE PUSH1 0x20 DUP3 ADD SWAP1 POP SWAP3 SWAP2 POP POP JUMP JUMPDEST PUSH0 JUMPDEST DUP4 DUP2 LT ISZERO PUSH3 0x1968 JUMPI DUP1 DUP3 ADD MLOAD DUP2 DUP5 ADD MSTORE PUSH1 0x20 DUP2 ADD SWAP1 POP PUSH3 0x194B JUMP JUMPDEST PUSH0 DUP5 DUP5 ADD MSTORE POP POP POP POP JUMP JUMPDEST PUSH0 PUSH1 0x1F NOT PUSH1 0x1F DUP4 ADD AND SWAP1 POP SWAP2 SWAP1 POP JUMP JUMPDEST PUSH0 PUSH3 0x198F DUP3 PUSH3 0x192F JUMP JUMPDEST PUSH3 0x199B DUP2 DUP6 PUSH3 0x1939 JUMP JUMPDEST SWAP4 POP PUSH3 0x19AD DUP2 DUP6 PUSH1 0x20 DUP7 ADD PUSH3 0x1949 JUMP JUMPDEST PUSH3 0x19B8 DUP2 PUSH3 0x1973 JUMP JUMPDEST DUP5 ADD SWAP2 POP POP SWAP3 SWAP2 POP POP JUMP JUMPDEST PUSH0 PUSH1 0xA0 DUP3 ADD SWAP1 POP PUSH3 0x19D8 PUSH0 DUP4 ADD DUP9 PUSH3 0x1742 JUMP JUMPDEST PUSH3 0x19E7 PUSH1 0x20 DUP4 ADD DUP8 PUSH3 0x1742 JUMP JUMPDEST PUSH3 0x19F6 PUSH1 0x40 DUP4 ADD DUP7 PUSH3 0x176E JUMP JUMPDEST PUSH3 0x1A05 PUSH1 0x60 DUP4 ADD DUP6 PUSH3 0x176E JUMP JUMPDEST DUP2 DUP2 SUB PUSH1 0x80 DUP4 ADD MSTORE PUSH3 0x1A19 DUP2 DUP5 PUSH3 0x1983 JUMP JUMPDEST SWAP1 POP SWAP7 SWAP6 POP POP POP POP POP POP JUMP JUMPDEST PUSH0 PUSH32 0xFFFFFFFF00000000000000000000000000000000000000000000000000000000 DUP3 AND SWAP1 POP SWAP2 SWAP1 POP JUMP JUMPDEST PUSH3 0x1A5B DUP2 PUSH3 0x1A25 JUMP JUMPDEST DUP2 EQ PUSH3 0x1A66 JUMPI PUSH0 DUP1 REVERT JUMPDEST POP JUMP JUMPDEST PUSH0 DUP2 MLOAD SWAP1 POP PUSH3 0x1A79 DUP2 PUSH3 0x1A50 JUMP JUMPDEST SWAP3 SWAP2 POP POP JUMP JUMPDEST PUSH0 PUSH1 0x20 DUP3 DUP5 SUB SLT ISZERO PUSH3 0x1A97 JUMPI PUSH3 0x1A96 PUSH3 0xFCF JUMP JUMPDEST JUMPDEST PUSH0 PUSH3 0x1AA6 DUP5 DUP3 DUP6 ADD PUSH3 0x1A69 JUMP JUMPDEST SWAP2 POP POP SWAP3 SWAP2 POP POP JUMP JUMPDEST PUSH0 PUSH1 0xA0 DUP3 ADD SWAP1 POP PUSH3 0x1AC4 PUSH0 DUP4 ADD DUP9 PUSH3 0x1742 JUMP JUMPDEST PUSH3 0x1AD3 PUSH1 0x20 DUP4 ADD DUP8 PUSH3 0x1742 JUMP JUMPDEST DUP2 DUP2 SUB PUSH1 0x40 DUP4 ADD MSTORE PUSH3 0x1AE7 DUP2 DUP7 PUSH3 0x188E JUMP JUMPDEST SWAP1 POP DUP2 DUP2 SUB PUSH1 0x60 DUP4 ADD MSTORE PUSH3 0x1AFD DUP2 DUP6 PUSH3 0x188E JUMP JUMPDEST SWAP1 POP DUP2 DUP2 SUB PUSH1 0x80 DUP4 ADD MSTORE PUSH3 0x1B13 DUP2 DUP5 PUSH3 0x1983 JUMP JUMPDEST SWAP1 POP SWAP7 SWAP6 POP POP POP POP POP POP JUMP JUMPDEST PUSH2 0x5345 DUP1 PUSH3 0x1B2D PUSH0 CODECOPY PUSH0 RETURN INVALID PUSH1 0x80 PUSH1 0x40 MSTORE CALLVALUE DUP1 ISZERO PUSH2 0xF JUMPI PUSH0 DUP1 REVERT JUMPDEST POP PUSH1 0x4 CALLDATASIZE LT PUSH2 0x113 JUMPI PUSH0 CALLDATALOAD PUSH1 0xE0 SHR DUP1 PUSH4 0x7BA9165C GT PUSH2 0xA0 JUMPI DUP1 PUSH4 0x97F588C6 GT PUSH2 0x6F JUMPI DUP1 PUSH4 0x97F588C6 EQ PUSH2 0x2E7 JUMPI DUP1 PUSH4 0xA22CB465 EQ PUSH2 0x303 JUMPI DUP1 PUSH4 0xA2A376CD EQ PUSH2 0x31F JUMPI DUP1 PUSH4 0xE985E9C5 EQ PUSH2 0x33D JUMPI DUP1 PUSH4 0xF242432A EQ PUSH2 0x36D JUMPI PUSH2 0x113 JUMP JUMPDEST DUP1 PUSH4 0x7BA9165C EQ PUSH2 0x277 JUMPI DUP1 PUSH4 0x845C54F6 EQ PUSH2 0x293 JUMPI DUP1 PUSH4 0x90420AEE EQ PUSH2 0x2AF JUMPI DUP1 PUSH4 0x958828E3 EQ PUSH2 0x2CB JUMPI PUSH2 0x113 JUMP JUMPDEST DUP1 PUSH4 0x3AACC912 GT PUSH2 0xE7 JUMPI DUP1 PUSH4 0x3AACC912 EQ PUSH2 0x1C3 JUMPI DUP1 PUSH4 0x4DAD2AAB EQ PUSH2 0x1DF JUMPI DUP1 PUSH4 0x4E1273F4 EQ PUSH2 0x20F JUMPI DUP1 PUSH4 0x68DADEC2 EQ PUSH2 0x23F JUMPI DUP1 PUSH4 0x694F82B4 EQ PUSH2 0x25B JUMPI PUSH2 0x113 JUMP JUMPDEST DUP1 PUSH3 0xFDD58E EQ PUSH2 0x117 JUMPI DUP1 PUSH4 0x1FFC9A7 EQ PUSH2 0x147 JUMPI DUP1 PUSH4 0xE89341C EQ PUSH2 0x177 JUMPI DUP1 PUSH4 0x2EB2C2D6 EQ PUSH2 0x1A7 JUMPI JUMPDEST PUSH0 DUP1 REVERT JUMPDEST PUSH2 0x131 PUSH1 0x4 DUP1 CALLDATASIZE SUB DUP2 ADD SWAP1 PUSH2 0x12C SWAP2 SWAP1 PUSH2 0x35E8 JUMP JUMPDEST PUSH2 0x389 JUMP JUMPDEST PUSH1 0x40 MLOAD PUSH2 0x13E SWAP2 SWAP1 PUSH2 0x3635 JUMP JUMPDEST PUSH1 0x40 MLOAD DUP1 SWAP2 SUB SWAP1 RETURN JUMPDEST PUSH2 0x161 PUSH1 0x4 DUP1 CALLDATASIZE SUB DUP2 ADD SWAP1 PUSH2 0x15C SWAP2 SWAP1 PUSH2 0x36A3 JUMP JUMPDEST PUSH2 0x3DE JUMP JUMPDEST PUSH1 0x40 MLOAD PUSH2 0x16E SWAP2 SWAP1 PUSH2 0x36E8 JUMP JUMPDEST PUSH1 0x40 MLOAD DUP1 SWAP2 SUB SWAP1 RETURN JUMPDEST PUSH2 0x191 PUSH1 0x4 DUP1 CALLDATASIZE SUB DUP2 ADD SWAP1 PUSH2 0x18C SWAP2 SWAP1 PUSH2 0x3701 JUMP JUMPDEST PUSH2 0x4BF JUMP JUMPDEST PUSH1 0x40 MLOAD PUSH2 0x19E SWAP2 SWAP1 PUSH2 0x37B6 JUMP JUMPDEST PUSH1 0x40 MLOAD DUP1 SWAP2 SUB SWAP1 RETURN JUMPDEST PUSH2 0x1C1 PUSH1 0x4 DUP1 CALLDATASIZE SUB DUP2 ADD SWAP1 PUSH2 0x1BC SWAP2 SWAP1 PUSH2 0x39C6 JUMP JUMPDEST PUSH2 0x551 JUMP JUMPDEST STOP JUMPDEST PUSH2 0x1DD PUSH1 0x4 DUP1 CALLDATASIZE SUB DUP2 ADD SWAP1 PUSH2 0x1D8 SWAP2 SWAP1 PUSH2 0x3A91 JUMP JUMPDEST PUSH2 0x5F8 JUMP JUMPDEST STOP JUMPDEST PUSH2 0x1F9 PUSH1 0x4 DUP1 CALLDATASIZE SUB DUP2 ADD SWAP1 PUSH2 0x1F4 SWAP2 SWAP1 PUSH2 0x3B4E JUMP JUMPDEST PUSH2 0xB31 JUMP JUMPDEST PUSH1 0x40 MLOAD PUSH2 0x206 SWAP2 SWAP1 PUSH2 0x37B6 JUMP JUMPDEST PUSH1 0x40 MLOAD DUP1 SWAP2 SUB SWAP1 RETURN JUMPDEST PUSH2 0x229 PUSH1 0x4 DUP1 CALLDATASIZE SUB DUP2 ADD SWAP1 PUSH2 0x224 SWAP2 SWAP1 PUSH2 0x3C59 JUMP JUMPDEST PUSH2 0xDCA JUMP JUMPDEST PUSH1 0x40 MLOAD PUSH2 0x236 SWAP2 SWAP1 PUSH2 0x3D86 JUMP JUMPDEST PUSH1 0x40 MLOAD DUP1 SWAP2 SUB SWAP1 RETURN JUMPDEST PUSH2 0x259 PUSH1 0x4 DUP1 CALLDATASIZE SUB DUP2 ADD SWAP1 PUSH2 0x254 SWAP2 SWAP1 PUSH2 0x3DA6 JUMP JUMPDEST PUSH2 0xED1 JUMP JUMPDEST STOP JUMPDEST PUSH2 0x275 PUSH1 0x4 DUP1 CALLDATASIZE SUB DUP2 ADD SWAP1 PUSH2 0x270 SWAP2 SWAP1 PUSH2 0x3E94 JUMP JUMPDEST PUSH2 0x17EB JUMP JUMPDEST STOP JUMPDEST PUSH2 0x291 PUSH1 0x4 DUP1 CALLDATASIZE SUB DUP2 ADD SWAP1 PUSH2 0x28C SWAP2 SWAP1 PUSH2 0x3F7B JUMP JUMPDEST PUSH2 0x1A58 JUMP JUMPDEST STOP JUMPDEST PUSH2 0x2AD PUSH1 0x4 DUP1 CALLDATASIZE SUB DUP2 ADD SWAP1 PUSH2 0x2A8 SWAP2 SWAP1 PUSH2 0x3FDF JUMP JUMPDEST PUSH2 0x1BE7 JUMP JUMPDEST STOP JUMPDEST PUSH2 0x2C9 PUSH1 0x4 DUP1 CALLDATASIZE SUB DUP2 ADD SWAP1 PUSH2 0x2C4 SWAP2 SWAP1 PUSH2 0x40D0 JUMP JUMPDEST PUSH2 0x1F40 JUMP JUMPDEST STOP JUMPDEST PUSH2 0x2E5 PUSH1 0x4 DUP1 CALLDATASIZE SUB DUP2 ADD SWAP1 PUSH2 0x2E0 SWAP2 SWAP1 PUSH2 0x410E JUMP JUMPDEST PUSH2 0x2029 JUMP JUMPDEST STOP JUMPDEST PUSH2 0x301 PUSH1 0x4 DUP1 CALLDATASIZE SUB DUP2 ADD SWAP1 PUSH2 0x2FC SWAP2 SWAP1 PUSH2 0x41AB JUMP JUMPDEST PUSH2 0x224C JUMP JUMPDEST STOP JUMPDEST PUSH2 0x31D PUSH1 0x4 DUP1 CALLDATASIZE SUB DUP2 ADD SWAP1 PUSH2 0x318 SWAP2 SWAP1 PUSH2 0x421C JUMP JUMPDEST PUSH2 0x24B0 JUMP JUMPDEST STOP JUMPDEST PUSH2 0x327 PUSH2 0x24C6 JUMP JUMPDEST PUSH1 0x40 MLOAD PUSH2 0x334 SWAP2 SWAP1 PUSH2 0x43B9 JUMP JUMPDEST PUSH1 0x40 MLOAD DUP1 SWAP2 SUB SWAP1 RETURN JUMPDEST PUSH2 0x357 PUSH1 0x4 DUP1 CALLDATASIZE SUB DUP2 ADD SWAP1 PUSH2 0x352 SWAP2 SWAP1 PUSH2 0x43D9 JUMP JUMPDEST PUSH2 0x2610 JUMP JUMPDEST PUSH1 0x40 MLOAD PUSH2 0x364 SWAP2 SWAP1 PUSH2 0x36E8 JUMP JUMPDEST PUSH1 0x40 MLOAD DUP1 SWAP2 SUB SWAP1 RETURN JUMPDEST PUSH2 0x387 PUSH1 0x4 DUP1 CALLDATASIZE SUB DUP2 ADD SWAP1 PUSH2 0x382 SWAP2 SWAP1 PUSH2 0x4417 JUMP JUMPDEST PUSH2 0x269E JUMP JUMPDEST STOP JUMPDEST PUSH0 DUP1 PUSH0 DUP4 DUP2 MSTORE PUSH1 0x20 ADD SWAP1 DUP2 MSTORE PUSH1 0x20 ADD PUSH0 KECCAK256 PUSH0 DUP5 PUSH20 0xFFFFFFFFFFFFFFFFFFFFFFFFFFFFFFFFFFFFFFFF AND PUSH20 0xFFFFFFFFFFFFFFFFFFFFFFFFFFFFFFFFFFFFFFFF AND DUP2 MSTORE PUSH1 0x20 ADD SWAP1 DUP2 MSTORE PUSH1 0x20 ADD PUSH0 KECCAK256 SLOAD SWAP1 POP SWAP3 SWAP2 POP POP JUMP JUMPDEST PUSH0 PUSH32 0xD9B67A2600000000000000000000000000000000000000000000000000000000 PUSH28 0xFFFFFFFFFFFFFFFFFFFFFFFFFFFFFFFFFFFFFFFFFFFFFFFFFFFFFFFF NOT AND DUP3 PUSH28 0xFFFFFFFFFFFFFFFFFFFFFFFFFFFFFFFFFFFFFFFFFFFFFFFFFFFFFFFF NOT AND EQ DUP1 PUSH2 0x4A8 JUMPI POP PUSH32 0xE89341C00000000000000000000000000000000000000000000000000000000 PUSH28 0xFFFFFFFFFFFFFFFFFFFFFFFFFFFFFFFFFFFFFFFFFFFFFFFFFFFFFFFF NOT AND DUP3 PUSH28 0xFFFFFFFFFFFFFFFFFFFFFFFFFFFFFFFFFFFFFFFFFFFFFFFFFFFFFFFF NOT AND EQ JUMPDEST DUP1 PUSH2 0x4B8 JUMPI POP PUSH2 0x4B7 DUP3 PUSH2 0x2745 JUMP JUMPDEST JUMPDEST SWAP1 POP SWAP2 SWAP1 POP JUMP JUMPDEST PUSH1 0x60 PUSH1 0x2 DUP1 SLOAD PUSH2 0x4CE SWAP1 PUSH2 0x44D7 JUMP JUMPDEST DUP1 PUSH1 0x1F ADD PUSH1 0x20 DUP1 SWAP2 DIV MUL PUSH1 0x20 ADD PUSH1 0x40 MLOAD SWAP1 DUP2 ADD PUSH1 0x40 MSTORE DUP1 SWAP3 SWAP2 SWAP1 DUP2 DUP2 MSTORE PUSH1 0x20 ADD DUP3 DUP1 SLOAD PUSH2 0x4FA SWAP1 PUSH2 0x44D7 JUMP JUMPDEST DUP1 ISZERO PUSH2 0x545 JUMPI DUP1 PUSH1 0x1F LT PUSH2 0x51C JUMPI PUSH2 0x100 DUP1 DUP4 SLOAD DIV MUL DUP4 MSTORE SWAP2 PUSH1 0x20 ADD SWAP2 PUSH2 0x545 JUMP JUMPDEST DUP3 ADD SWAP2 SWAP1 PUSH0 MSTORE PUSH1 0x20 PUSH0 KECCAK256 SWAP1 JUMPDEST DUP2 SLOAD DUP2 MSTORE SWAP1 PUSH1 0x1 ADD SWAP1 PUSH1 0x20 ADD DUP1 DUP4 GT PUSH2 0x528 JUMPI DUP3 SWAP1 SUB PUSH1 0x1F AND DUP3 ADD SWAP2 JUMPDEST POP POP POP POP POP SWAP1 POP SWAP2 SWAP1 POP JUMP JUMPDEST PUSH0 PUSH2 0x55A PUSH2 0x27AE JUMP JUMPDEST SWAP1 POP DUP1 PUSH20 0xFFFFFFFFFFFFFFFFFFFFFFFFFFFFFFFFFFFFFFFF AND DUP7 PUSH20 0xFFFFFFFFFFFFFFFFFFFFFFFFFFFFFFFFFFFFFFFF AND EQ ISZERO DUP1 ISZERO PUSH2 0x59F JUMPI POP PUSH2 0x59D DUP7 DUP3 PUSH2 0x2610 JUMP JUMPDEST ISZERO JUMPDEST ISZERO PUSH2 0x5E3 JUMPI DUP1 DUP7 PUSH1 0x40 MLOAD PUSH32 0xE237D92200000000000000000000000000000000000000000000000000000000 DUP2 MSTORE PUSH1 0x4 ADD PUSH2 0x5DA SWAP3 SWAP2 SWAP1 PUSH2 0x4516 JUMP JUMPDEST PUSH1 0x40 MLOAD DUP1 SWAP2 SUB SWAP1 REVERT JUMPDEST PUSH2 0x5F0 DUP7 DUP7 DUP7 DUP7 DUP7 PUSH2 0x27B5 JUMP JUMPDEST POP POP POP POP POP POP JUMP JUMPDEST PUSH2 0x613 CALLER DUP4 DUP7 DUP5 PUSH1 0x40 MLOAD DUP1 PUSH1 0x20 ADD PUSH1 0x40 MSTORE DUP1 PUSH0 DUP2 MSTORE POP PUSH2 0x28A9 JUMP JUMPDEST DUP1 PUSH1 0x9 PUSH0 CALLER PUSH20 0xFFFFFFFFFFFFFFFFFFFFFFFFFFFFFFFFFFFFFFFF AND PUSH20 0xFFFFFFFFFFFFFFFFFFFFFFFFFFFFFFFFFFFFFFFF AND DUP2 MSTORE PUSH1 0x20 ADD SWAP1 DUP2 MSTORE PUSH1 0x20 ADD PUSH0 KECCAK256 DUP5 DUP2 SLOAD DUP2 LT PUSH2 0x663 JUMPI PUSH2 0x662 PUSH2 0x453D JUMP JUMPDEST JUMPDEST SWAP1 PUSH0 MSTORE PUSH1 0x20 PUSH0 KECCAK256 SWAP1 PUSH1 0x8 MUL ADD PUSH1 0x6 ADD PUSH0 DUP3 DUP3 SLOAD PUSH2 0x680 SWAP2 SWAP1 PUSH2 0x4597 JUMP JUMPDEST SWAP3 POP POP DUP2 SWAP1 SSTORE POP PUSH1 0x9 PUSH0 DUP4 PUSH20 0xFFFFFFFFFFFFFFFFFFFFFFFFFFFFFFFFFFFFFFFF AND PUSH20 0xFFFFFFFFFFFFFFFFFFFFFFFFFFFFFFFFFFFFFFFF AND DUP2 MSTORE PUSH1 0x20 ADD SWAP1 DUP2 MSTORE PUSH1 0x20 ADD PUSH0 KECCAK256 PUSH1 0x40 MLOAD DUP1 PUSH2 0x100 ADD PUSH1 0x40 MSTORE DUP1 DUP7 DUP2 MSTORE PUSH1 0x20 ADD PUSH1 0x9 PUSH0 DUP7 PUSH20 0xFFFFFFFFFFFFFFFFFFFFFFFFFFFFFFFFFFFFFFFF AND PUSH20 0xFFFFFFFFFFFFFFFFFFFFFFFFFFFFFFFFFFFFFFFF AND DUP2 MSTORE PUSH1 0x20 ADD SWAP1 DUP2 MSTORE PUSH1 0x20 ADD PUSH0 KECCAK256 DUP1 SLOAD SWAP1 POP DUP2 MSTORE PUSH1 0x20 ADD PUSH1 0x8 PUSH0 DUP9 DUP2 MSTORE PUSH1 0x20 ADD SWAP1 DUP2 MSTORE PUSH1 0x20 ADD PUSH0 KECCAK256 PUSH1 0x2 ADD DUP1 SLOAD PUSH2 0x73B SWAP1 PUSH2 0x44D7 JUMP JUMPDEST DUP1 PUSH1 0x1F ADD PUSH1 0x20 DUP1 SWAP2 DIV MUL PUSH1 0x20 ADD PUSH1 0x40 MLOAD SWAP1 DUP2 ADD PUSH1 0x40 MSTORE DUP1 SWAP3 SWAP2 SWAP1 DUP2 DUP2 MSTORE PUSH1 0x20 ADD DUP3 DUP1 SLOAD PUSH2 0x767 SWAP1 PUSH2 0x44D7 JUMP JUMPDEST DUP1 ISZERO PUSH2 0x7B2 JUMPI DUP1 PUSH1 0x1F LT PUSH2 0x789 JUMPI PUSH2 0x100 DUP1 DUP4 SLOAD DIV MUL DUP4 MSTORE SWAP2 PUSH1 0x20 ADD SWAP2 PUSH2 0x7B2 JUMP JUMPDEST DUP3 ADD SWAP2 SWAP1 PUSH0 MSTORE PUSH1 0x20 PUSH0 KECCAK256 SWAP1 JUMPDEST DUP2 SLOAD DUP2 MSTORE SWAP1 PUSH1 0x1 ADD SWAP1 PUSH1 0x20 ADD DUP1 DUP4 GT PUSH2 0x795 JUMPI DUP3 SWAP1 SUB PUSH1 0x1F AND DUP3 ADD SWAP2 JUMPDEST POP POP POP POP POP DUP2 MSTORE PUSH1 0x20 ADD PUSH1 0x8 PUSH0 DUP9 DUP2 MSTORE PUSH1 0x20 ADD SWAP1 DUP2 MSTORE PUSH1 0x20 ADD PUSH0 KECCAK256 PUSH1 0x3 ADD DUP1 SLOAD PUSH2 0x7DB SWAP1 PUSH2 0x44D7 JUMP JUMPDEST DUP1 PUSH1 0x1F ADD PUSH1 0x20 DUP1 SWAP2 DIV MUL PUSH1 0x20 ADD PUSH1 0x40 MLOAD SWAP1 DUP2 ADD PUSH1 0x40 MSTORE DUP1 SWAP3 SWAP2 SWAP1 DUP2 DUP2 MSTORE PUSH1 0x20 ADD DUP3 DUP1 SLOAD PUSH2 0x807 SWAP1 PUSH2 0x44D7 JUMP JUMPDEST DUP1 ISZERO PUSH2 0x852 JUMPI DUP1 PUSH1 0x1F LT PUSH2 0x829 JUMPI PUSH2 0x100 DUP1 DUP4 SLOAD DIV MUL DUP4 MSTORE SWAP2 PUSH1 0x20 ADD SWAP2 PUSH2 0x852 JUMP JUMPDEST DUP3 ADD SWAP2 SWAP1 PUSH0 MSTORE PUSH1 0x20 PUSH0 KECCAK256 SWAP1 JUMPDEST DUP2 SLOAD DUP2 MSTORE SWAP1 PUSH1 0x1 ADD SWAP1 PUSH1 0x20 ADD DUP1 DUP4 GT PUSH2 0x835 JUMPI DUP3 SWAP1 SUB PUSH1 0x1F AND DUP3 ADD SWAP2 JUMPDEST POP POP POP POP POP DUP2 MSTORE PUSH1 0x20 ADD PUSH1 0x8 PUSH0 DUP9 DUP2 MSTORE PUSH1 0x20 ADD SWAP1 DUP2 MSTORE PUSH1 0x20 ADD PUSH0 KECCAK256 PUSH1 0x4 ADD DUP1 SLOAD PUSH2 0x87B SWAP1 PUSH2 0x44D7 JUMP JUMPDEST DUP1 PUSH1 0x1F ADD PUSH1 0x20 DUP1 SWAP2 DIV MUL PUSH1 0x20 ADD PUSH1 0x40 MLOAD SWAP1 DUP2 ADD PUSH1 0x40 MSTORE DUP1 SWAP3 SWAP2 SWAP1 DUP2 DUP2 MSTORE PUSH1 0x20 ADD DUP3 DUP1 SLOAD PUSH2 0x8A7 SWAP1 PUSH2 0x44D7 JUMP JUMPDEST DUP1 ISZERO PUSH2 0x8F2 JUMPI DUP1 PUSH1 0x1F LT PUSH2 0x8C9 JUMPI PUSH2 0x100 DUP1 DUP4 SLOAD DIV MUL DUP4 MSTORE SWAP2 PUSH1 0x20 ADD SWAP2 PUSH2 0x8F2 JUMP JUMPDEST DUP3 ADD SWAP2 SWAP1 PUSH0 MSTORE PUSH1 0x20 PUSH0 KECCAK256 SWAP1 JUMPDEST DUP2 SLOAD DUP2 MSTORE SWAP1 PUSH1 0x1 ADD SWAP1 PUSH1 0x20 ADD DUP1 DUP4 GT PUSH2 0x8D5 JUMPI DUP3 SWAP1 SUB PUSH1 0x1F AND DUP3 ADD SWAP2 JUMPDEST POP POP POP POP POP DUP2 MSTORE PUSH1 0x20 ADD DUP4 DUP2 MSTORE PUSH1 0x20 ADD PUSH1 0x9 PUSH0 CALLER PUSH20 0xFFFFFFFFFFFFFFFFFFFFFFFFFFFFFFFFFFFFFFFF AND PUSH20 0xFFFFFFFFFFFFFFFFFFFFFFFFFFFFFFFFFFFFFFFF AND DUP2 MSTORE PUSH1 0x20 ADD SWAP1 DUP2 MSTORE PUSH1 0x20 ADD PUSH0 KECCAK256 DUP7 DUP2 SLOAD DUP2 LT PUSH2 0x951 JUMPI PUSH2 0x950 PUSH2 0x453D JUMP JUMPDEST JUMPDEST SWAP1 PUSH0 MSTORE PUSH1 0x20 PUSH0 KECCAK256 SWAP1 PUSH1 0x8 MUL ADD PUSH1 0x5 ADD SLOAD DUP2 MSTORE PUSH1 0x20 ADD PUSH1 0x8 PUSH0 DUP9 DUP2 MSTORE PUSH1 0x20 ADD SWAP1 DUP2 MSTORE PUSH1 0x20 ADD PUSH0 KECCAK256 PUSH1 0x7 ADD SLOAD DUP2 MSTORE POP SWAP1 DUP1 PUSH1 0x1 DUP2 SLOAD ADD DUP1 DUP3 SSTORE DUP1 SWAP2 POP POP PUSH1 0x1 SWAP1 SUB SWAP1 PUSH0 MSTORE PUSH1 0x20 PUSH0 KECCAK256 SWAP1 PUSH1 0x8 MUL ADD PUSH0 SWAP1 SWAP2 SWAP1 SWAP2 SWAP1 SWAP2 POP PUSH0 DUP3 ADD MLOAD DUP2 PUSH0 ADD SSTORE PUSH1 0x20 DUP3 ADD MLOAD DUP2 PUSH1 0x1 ADD SSTORE PUSH1 0x40 DUP3 ADD MLOAD DUP2 PUSH1 0x2 ADD SWAP1 DUP2 PUSH2 0x9CB SWAP2 SWAP1 PUSH2 0x4767 JUMP JUMPDEST POP PUSH1 0x60 DUP3 ADD MLOAD DUP2 PUSH1 0x3 ADD SWAP1 DUP2 PUSH2 0x9E1 SWAP2 SWAP1 PUSH2 0x4767 JUMP JUMPDEST POP PUSH1 0x80 DUP3 ADD MLOAD DUP2 PUSH1 0x4 ADD SWAP1 DUP2 PUSH2 0x9F7 SWAP2 SWAP1 PUSH2 0x4767 JUMP JUMPDEST POP PUSH1 0xA0 DUP3 ADD MLOAD DUP2 PUSH1 0x5 ADD SSTORE PUSH1 0xC0 DUP3 ADD MLOAD DUP2 PUSH1 0x6 ADD SSTORE PUSH1 0xE0 DUP3 ADD MLOAD DUP2 PUSH1 0x7 ADD SSTORE POP POP PUSH0 PUSH1 0x9 PUSH0 CALLER PUSH20 0xFFFFFFFFFFFFFFFFFFFFFFFFFFFFFFFFFFFFFFFF AND PUSH20 0xFFFFFFFFFFFFFFFFFFFFFFFFFFFFFFFFFFFFFFFF AND DUP2 MSTORE PUSH1 0x20 ADD SWAP1 DUP2 MSTORE PUSH1 0x20 ADD PUSH0 KECCAK256 DUP5 DUP2 SLOAD DUP2 LT PUSH2 0xA68 JUMPI PUSH2 0xA67 PUSH2 0x453D JUMP JUMPDEST JUMPDEST SWAP1 PUSH0 MSTORE PUSH1 0x20 PUSH0 KECCAK256 SWAP1 PUSH1 0x8 MUL ADD PUSH1 0x6 ADD SLOAD SUB PUSH2 0xB2B JUMPI PUSH1 0x9 PUSH0 CALLER PUSH20 0xFFFFFFFFFFFFFFFFFFFFFFFFFFFFFFFFFFFFFFFF AND PUSH20 0xFFFFFFFFFFFFFFFFFFFFFFFFFFFFFFFFFFFFFFFF AND DUP2 MSTORE PUSH1 0x20 ADD SWAP1 DUP2 MSTORE PUSH1 0x20 ADD PUSH0 KECCAK256 DUP4 DUP2 SLOAD DUP2 LT PUSH2 0xACC JUMPI PUSH2 0xACB PUSH2 0x453D JUMP JUMPDEST JUMPDEST SWAP1 PUSH0 MSTORE PUSH1 0x20 PUSH0 KECCAK256 SWAP1 PUSH1 0x8 MUL ADD PUSH0 DUP1 DUP3 ADD PUSH0 SWAP1 SSTORE PUSH1 0x1 DUP3 ADD PUSH0 SWAP1 SSTORE PUSH1 0x2 DUP3 ADD PUSH0 PUSH2 0xAF5 SWAP2 SWAP1 PUSH2 0x3420 JUMP JUMPDEST PUSH1 0x3 DUP3 ADD PUSH0 PUSH2 0xB04 SWAP2 SWAP1 PUSH2 0x3420 JUMP JUMPDEST PUSH1 0x4 DUP3 ADD PUSH0 PUSH2 0xB13 SWAP2 SWAP1 PUSH2 0x3420 JUMP JUMPDEST PUSH1 0x5 DUP3 ADD PUSH0 SWAP1 SSTORE PUSH1 0x6 DUP3 ADD PUSH0 SWAP1 SSTORE PUSH1 0x7 DUP3 ADD PUSH0 SWAP1 SSTORE POP POP JUMPDEST POP POP POP POP JUMP JUMPDEST PUSH1 0x60 CALLER PUSH20 0xFFFFFFFFFFFFFFFFFFFFFFFFFFFFFFFFFFFFFFFF AND PUSH1 0x6 DUP5 DUP5 PUSH1 0x2 SWAP1 PUSH1 0x6 SWAP3 PUSH2 0xB60 SWAP4 SWAP3 SWAP2 SWAP1 PUSH2 0x483E JUMP JUMPDEST PUSH1 0x40 MLOAD PUSH1 0x20 ADD PUSH2 0xB71 SWAP3 SWAP2 SWAP1 PUSH2 0x48F2 JUMP JUMPDEST PUSH1 0x40 MLOAD PUSH1 0x20 DUP2 DUP4 SUB SUB DUP2 MSTORE SWAP1 PUSH1 0x40 MSTORE PUSH1 0x40 MLOAD PUSH2 0xB8D SWAP2 SWAP1 PUSH2 0x4958 JUMP JUMPDEST SWAP1 DUP2 MSTORE PUSH1 0x20 ADD PUSH1 0x40 MLOAD DUP1 SWAP2 SUB SWAP1 KECCAK256 PUSH1 0x1 ADD PUSH0 SWAP1 SLOAD SWAP1 PUSH2 0x100 EXP SWAP1 DIV PUSH20 0xFFFFFFFFFFFFFFFFFFFFFFFFFFFFFFFFFFFFFFFF AND PUSH20 0xFFFFFFFFFFFFFFFFFFFFFFFFFFFFFFFFFFFFFFFF AND SUB PUSH2 0xC14 JUMPI PUSH1 0x40 MLOAD PUSH32 0x8C379A000000000000000000000000000000000000000000000000000000000 DUP2 MSTORE PUSH1 0x4 ADD PUSH2 0xC0B SWAP1 PUSH2 0x49DE JUMP JUMPDEST PUSH1 0x40 MLOAD DUP1 SWAP2 SUB SWAP1 REVERT JUMPDEST PUSH0 DUP4 DUP4 PUSH1 0x2 SWAP1 PUSH1 0x6 SWAP3 PUSH2 0xC29 SWAP4 SWAP3 SWAP2 SWAP1 PUSH2 0x483E JUMP JUMPDEST PUSH1 0x40 MLOAD PUSH1 0x20 ADD PUSH2 0xC3A SWAP3 SWAP2 SWAP1 PUSH2 0x48F2 JUMP JUMPDEST PUSH1 0x40 MLOAD PUSH1 0x20 DUP2 DUP4 SUB SUB DUP2 MSTORE SWAP1 PUSH1 0x40 MSTORE SWAP1 POP PUSH1 0x40 MLOAD DUP1 PUSH1 0x60 ADD PUSH1 0x40 MSTORE DUP1 DUP3 DUP2 MSTORE PUSH1 0x20 ADD CALLER PUSH20 0xFFFFFFFFFFFFFFFFFFFFFFFFFFFFFFFFFFFFFFFF AND DUP2 MSTORE PUSH1 0x20 ADD PUSH0 DUP2 MSTORE POP PUSH1 0x6 DUP3 PUSH1 0x40 MLOAD PUSH2 0xC8C SWAP2 SWAP1 PUSH2 0x4958 JUMP JUMPDEST SWAP1 DUP2 MSTORE PUSH1 0x20 ADD PUSH1 0x40 MLOAD DUP1 SWAP2 SUB SWAP1 KECCAK256 PUSH0 DUP3 ADD MLOAD DUP2 PUSH0 ADD SWAP1 DUP2 PUSH2 0xCAD SWAP2 SWAP1 PUSH2 0x4767 JUMP JUMPDEST POP PUSH1 0x20 DUP3 ADD MLOAD DUP2 PUSH1 0x1 ADD PUSH0 PUSH2 0x100 EXP DUP2 SLOAD DUP2 PUSH20 0xFFFFFFFFFFFFFFFFFFFFFFFFFFFFFFFFFFFFFFFF MUL NOT AND SWAP1 DUP4 PUSH20 0xFFFFFFFFFFFFFFFFFFFFFFFFFFFFFFFFFFFFFFFF AND MUL OR SWAP1 SSTORE POP PUSH1 0x40 DUP3 ADD MLOAD DUP2 PUSH1 0x2 ADD SSTORE SWAP1 POP POP PUSH1 0xC PUSH1 0x40 MLOAD DUP1 PUSH1 0x60 ADD PUSH1 0x40 MSTORE DUP1 DUP4 DUP2 MSTORE PUSH1 0x20 ADD CALLER PUSH20 0xFFFFFFFFFFFFFFFFFFFFFFFFFFFFFFFFFFFFFFFF AND DUP2 MSTORE PUSH1 0x20 ADD PUSH0 DUP2 MSTORE POP SWAP1 DUP1 PUSH1 0x1 DUP2 SLOAD ADD DUP1 DUP3 SSTORE DUP1 SWAP2 POP POP PUSH1 0x1 SWAP1 SUB SWAP1 PUSH0 MSTORE PUSH1 0x20 PUSH0 KECCAK256 SWAP1 PUSH1 0x3 MUL ADD PUSH0 SWAP1 SWAP2 SWAP1 SWAP2 SWAP1 SWAP2 POP PUSH0 DUP3 ADD MLOAD DUP2 PUSH0 ADD SWAP1 DUP2 PUSH2 0xD6D SWAP2 SWAP1 PUSH2 0x4767 JUMP JUMPDEST POP PUSH1 0x20 DUP3 ADD MLOAD DUP2 PUSH1 0x1 ADD PUSH0 PUSH2 0x100 EXP DUP2 SLOAD DUP2 PUSH20 0xFFFFFFFFFFFFFFFFFFFFFFFFFFFFFFFFFFFFFFFF MUL NOT AND SWAP1 DUP4 PUSH20 0xFFFFFFFFFFFFFFFFFFFFFFFFFFFFFFFFFFFFFFFF AND MUL OR SWAP1 SSTORE POP PUSH1 0x40 DUP3 ADD MLOAD DUP2 PUSH1 0x2 ADD SSTORE POP POP DUP1 SWAP2 POP POP SWAP3 SWAP2 POP POP JUMP JUMPDEST PUSH1 0x60 DUP2 MLOAD DUP4 MLOAD EQ PUSH2 0xE16 JUMPI DUP2 MLOAD DUP4 MLOAD PUSH1 0x40 MLOAD PUSH32 0x5B05999100000000000000000000000000000000000000000000000000000000 DUP2 MSTORE PUSH1 0x4 ADD PUSH2 0xE0D SWAP3 SWAP2 SWAP1 PUSH2 0x49FC JUMP JUMPDEST PUSH1 0x40 MLOAD DUP1 SWAP2 SUB SWAP1 REVERT JUMPDEST PUSH0 DUP4 MLOAD PUSH8 0xFFFFFFFFFFFFFFFF DUP2 GT ISZERO PUSH2 0xE32 JUMPI PUSH2 0xE31 PUSH2 0x37DA JUMP JUMPDEST JUMPDEST PUSH1 0x40 MLOAD SWAP1 DUP1 DUP3 MSTORE DUP1 PUSH1 0x20 MUL PUSH1 0x20 ADD DUP3 ADD PUSH1 0x40 MSTORE DUP1 ISZERO PUSH2 0xE60 JUMPI DUP2 PUSH1 0x20 ADD PUSH1 0x20 DUP3 MUL DUP1 CALLDATASIZE DUP4 CALLDATACOPY DUP1 DUP3 ADD SWAP2 POP POP SWAP1 POP JUMPDEST POP SWAP1 POP PUSH0 JUMPDEST DUP5 MLOAD DUP2 LT ISZERO PUSH2 0xEC6 JUMPI PUSH2 0xE9C PUSH2 0xE84 DUP3 DUP8 PUSH2 0x29AF SWAP1 SWAP2 SWAP1 PUSH4 0xFFFFFFFF AND JUMP JUMPDEST PUSH2 0xE97 DUP4 DUP8 PUSH2 0x29C2 SWAP1 SWAP2 SWAP1 PUSH4 0xFFFFFFFF AND JUMP JUMPDEST PUSH2 0x389 JUMP JUMPDEST DUP3 DUP3 DUP2 MLOAD DUP2 LT PUSH2 0xEAF JUMPI PUSH2 0xEAE PUSH2 0x453D JUMP JUMPDEST JUMPDEST PUSH1 0x20 MUL PUSH1 0x20 ADD ADD DUP2 DUP2 MSTORE POP POP DUP1 PUSH1 0x1 ADD SWAP1 POP PUSH2 0xE65 JUMP JUMPDEST POP DUP1 SWAP2 POP POP SWAP3 SWAP2 POP POP JUMP JUMPDEST PUSH0 PUSH1 0x64 DUP3 DUP5 PUSH1 0xB DUP8 DUP2 SLOAD DUP2 LT PUSH2 0xEEA JUMPI PUSH2 0xEE9 PUSH2 0x453D JUMP JUMPDEST JUMPDEST SWAP1 PUSH0 MSTORE PUSH1 0x20 PUSH0 KECCAK256 SWAP1 PUSH1 0x6 MUL ADD PUSH1 0x5 ADD SLOAD PUSH2 0xF04 SWAP2 SWAP1 PUSH2 0x4A23 JUMP JUMPDEST PUSH2 0xF0E SWAP2 SWAP1 PUSH2 0x4A23 JUMP JUMPDEST PUSH2 0xF18 SWAP2 SWAP1 PUSH2 0x4A91 JUMP JUMPDEST DUP4 PUSH1 0xB DUP7 DUP2 SLOAD DUP2 LT PUSH2 0xF2D JUMPI PUSH2 0xF2C PUSH2 0x453D JUMP JUMPDEST JUMPDEST SWAP1 PUSH0 MSTORE PUSH1 0x20 PUSH0 KECCAK256 SWAP1 PUSH1 0x6 MUL ADD PUSH1 0x5 ADD SLOAD PUSH2 0xF47 SWAP2 SWAP1 PUSH2 0x4A23 JUMP JUMPDEST PUSH2 0xF51 SWAP2 SWAP1 PUSH2 0x4597 JUMP JUMPDEST SWAP1 POP DUP3 PUSH1 0xB DUP6 DUP2 SLOAD DUP2 LT PUSH2 0xF68 JUMPI PUSH2 0xF67 PUSH2 0x453D JUMP JUMPDEST JUMPDEST SWAP1 PUSH0 MSTORE PUSH1 0x20 PUSH0 KECCAK256 SWAP1 PUSH1 0x6 MUL ADD PUSH1 0x4 ADD SLOAD LT ISZERO PUSH2 0xFB9 JUMPI PUSH1 0x40 MLOAD PUSH32 0x8C379A000000000000000000000000000000000000000000000000000000000 DUP2 MSTORE PUSH1 0x4 ADD PUSH2 0xFB0 SWAP1 PUSH2 0x4B57 JUMP JUMPDEST PUSH1 0x40 MLOAD DUP1 SWAP2 SUB SWAP1 REVERT JUMPDEST PUSH2 0x1039 PUSH1 0xB DUP6 DUP2 SLOAD DUP2 LT PUSH2 0xFD0 JUMPI PUSH2 0xFCF PUSH2 0x453D JUMP JUMPDEST JUMPDEST SWAP1 PUSH0 MSTORE PUSH1 0x20 PUSH0 KECCAK256 SWAP1 PUSH1 0x6 MUL ADD PUSH1 0x3 ADD PUSH0 SWAP1 SLOAD SWAP1 PUSH2 0x100 EXP SWAP1 DIV PUSH20 0xFFFFFFFFFFFFFFFFFFFFFFFFFFFFFFFFFFFFFFFF AND CALLER PUSH1 0xB DUP8 DUP2 SLOAD DUP2 LT PUSH2 0x1014 JUMPI PUSH2 0x1013 PUSH2 0x453D JUMP JUMPDEST JUMPDEST SWAP1 PUSH0 MSTORE PUSH1 0x20 PUSH0 KECCAK256 SWAP1 PUSH1 0x6 MUL ADD PUSH1 0x1 ADD SLOAD DUP7 PUSH1 0x40 MLOAD DUP1 PUSH1 0x20 ADD PUSH1 0x40 MSTORE DUP1 PUSH0 DUP2 MSTORE POP PUSH2 0x28A9 JUMP JUMPDEST PUSH1 0x5 PUSH0 SWAP1 SLOAD SWAP1 PUSH2 0x100 EXP SWAP1 DIV PUSH20 0xFFFFFFFFFFFFFFFFFFFFFFFFFFFFFFFFFFFFFFFF AND PUSH20 0xFFFFFFFFFFFFFFFFFFFFFFFFFFFFFFFFFFFFFFFF AND PUSH4 0xF5537EDE CALLER PUSH1 0xB DUP8 DUP2 SLOAD DUP2 LT PUSH2 0x108B JUMPI PUSH2 0x108A PUSH2 0x453D JUMP JUMPDEST JUMPDEST SWAP1 PUSH0 MSTORE PUSH1 0x20 PUSH0 KECCAK256 SWAP1 PUSH1 0x6 MUL ADD PUSH1 0x3 ADD PUSH0 SWAP1 SLOAD SWAP1 PUSH2 0x100 EXP SWAP1 DIV PUSH20 0xFFFFFFFFFFFFFFFFFFFFFFFFFFFFFFFFFFFFFFFF AND DUP5 PUSH1 0x40 MLOAD DUP5 PUSH4 0xFFFFFFFF AND PUSH1 0xE0 SHL DUP2 MSTORE PUSH1 0x4 ADD PUSH2 0x10D9 SWAP4 SWAP3 SWAP2 SWAP1 PUSH2 0x4B75 JUMP JUMPDEST PUSH0 PUSH1 0x40 MLOAD DUP1 DUP4 SUB DUP2 PUSH0 DUP8 DUP1 EXTCODESIZE ISZERO DUP1 ISZERO PUSH2 0x10F0 JUMPI PUSH0 DUP1 REVERT JUMPDEST POP GAS CALL ISZERO DUP1 ISZERO PUSH2 0x1102 JUMPI RETURNDATASIZE PUSH0 DUP1 RETURNDATACOPY RETURNDATASIZE PUSH0 REVERT JUMPDEST POP POP POP POP DUP3 PUSH1 0xB DUP6 DUP2 SLOAD DUP2 LT PUSH2 0x111B JUMPI PUSH2 0x111A PUSH2 0x453D JUMP JUMPDEST JUMPDEST SWAP1 PUSH0 MSTORE PUSH1 0x20 PUSH0 KECCAK256 SWAP1 PUSH1 0x6 MUL ADD PUSH1 0x4 ADD PUSH0 DUP3 DUP3 SLOAD PUSH2 0x1138 SWAP2 SWAP1 PUSH2 0x4597 JUMP JUMPDEST SWAP3 POP POP DUP2 SWAP1 SSTORE POP DUP3 PUSH1 0x9 PUSH0 PUSH1 0xB DUP8 DUP2 SLOAD DUP2 LT PUSH2 0x1157 JUMPI PUSH2 0x1156 PUSH2 0x453D JUMP JUMPDEST JUMPDEST SWAP1 PUSH0 MSTORE PUSH1 0x20 PUSH0 KECCAK256 SWAP1 PUSH1 0x6 MUL ADD PUSH1 0x3 ADD PUSH0 SWAP1 SLOAD SWAP1 PUSH2 0x100 EXP SWAP1 DIV PUSH20 0xFFFFFFFFFFFFFFFFFFFFFFFFFFFFFFFFFFFFFFFF AND PUSH20 0xFFFFFFFFFFFFFFFFFFFFFFFFFFFFFFFFFFFFFFFF AND PUSH20 0xFFFFFFFFFFFFFFFFFFFFFFFFFFFFFFFFFFFFFFFF AND DUP2 MSTORE PUSH1 0x20 ADD SWAP1 DUP2 MSTORE PUSH1 0x20 ADD PUSH0 KECCAK256 PUSH1 0xB DUP7 DUP2 SLOAD DUP2 LT PUSH2 0x11D3 JUMPI PUSH2 0x11D2 PUSH2 0x453D JUMP JUMPDEST JUMPDEST SWAP1 PUSH0 MSTORE PUSH1 0x20 PUSH0 KECCAK256 SWAP1 PUSH1 0x6 MUL ADD PUSH1 0x1 ADD SLOAD DUP2 SLOAD DUP2 LT PUSH2 0x11F4 JUMPI PUSH2 0x11F3 PUSH2 0x453D JUMP JUMPDEST JUMPDEST SWAP1 PUSH0 MSTORE PUSH1 0x20 PUSH0 KECCAK256 SWAP1 PUSH1 0x8 MUL ADD PUSH1 0x6 ADD PUSH0 DUP3 DUP3 SLOAD PUSH2 0x1211 SWAP2 SWAP1 PUSH2 0x4597 JUMP JUMPDEST SWAP3 POP POP DUP2 SWAP1 SSTORE POP PUSH1 0x9 PUSH0 CALLER PUSH20 0xFFFFFFFFFFFFFFFFFFFFFFFFFFFFFFFFFFFFFFFF AND PUSH20 0xFFFFFFFFFFFFFFFFFFFFFFFFFFFFFFFFFFFFFFFF AND DUP2 MSTORE PUSH1 0x20 ADD SWAP1 DUP2 MSTORE PUSH1 0x20 ADD PUSH0 KECCAK256 PUSH1 0x40 MLOAD DUP1 PUSH2 0x100 ADD PUSH1 0x40 MSTORE DUP1 DUP7 DUP2 MSTORE PUSH1 0x20 ADD PUSH1 0x9 PUSH0 CALLER PUSH20 0xFFFFFFFFFFFFFFFFFFFFFFFFFFFFFFFFFFFFFFFF AND PUSH20 0xFFFFFFFFFFFFFFFFFFFFFFFFFFFFFFFFFFFFFFFF AND DUP2 MSTORE PUSH1 0x20 ADD SWAP1 DUP2 MSTORE PUSH1 0x20 ADD PUSH0 KECCAK256 DUP1 SLOAD SWAP1 POP DUP2 MSTORE PUSH1 0x20 ADD PUSH1 0x8 PUSH0 PUSH1 0xB DUP10 DUP2 SLOAD DUP2 LT PUSH2 0x12C4 JUMPI PUSH2 0x12C3 PUSH2 0x453D JUMP JUMPDEST JUMPDEST SWAP1 PUSH0 MSTORE PUSH1 0x20 PUSH0 KECCAK256 SWAP1 PUSH1 0x6 MUL ADD PUSH1 0x1 ADD SLOAD DUP2 MSTORE PUSH1 0x20 ADD SWAP1 DUP2 MSTORE PUSH1 0x20 ADD PUSH0 KECCAK256 PUSH1 0x2 ADD DUP1 SLOAD PUSH2 0x12EF SWAP1 PUSH2 0x44D7 JUMP JUMPDEST DUP1 PUSH1 0x1F ADD PUSH1 0x20 DUP1 SWAP2 DIV MUL PUSH1 0x20 ADD PUSH1 0x40 MLOAD SWAP1 DUP2 ADD PUSH1 0x40 MSTORE DUP1 SWAP3 SWAP2 SWAP1 DUP2 DUP2 MSTORE PUSH1 0x20 ADD DUP3 DUP1 SLOAD PUSH2 0x131B SWAP1 PUSH2 0x44D7 JUMP JUMPDEST DUP1 ISZERO PUSH2 0x1366 JUMPI DUP1 PUSH1 0x1F LT PUSH2 0x133D JUMPI PUSH2 0x100 DUP1 DUP4 SLOAD DIV MUL DUP4 MSTORE SWAP2 PUSH1 0x20 ADD SWAP2 PUSH2 0x1366 JUMP JUMPDEST DUP3 ADD SWAP2 SWAP1 PUSH0 MSTORE PUSH1 0x20 PUSH0 KECCAK256 SWAP1 JUMPDEST DUP2 SLOAD DUP2 MSTORE SWAP1 PUSH1 0x1 ADD SWAP1 PUSH1 0x20 ADD DUP1 DUP4 GT PUSH2 0x1349 JUMPI DUP3 SWAP1 SUB PUSH1 0x1F AND DUP3 ADD SWAP2 JUMPDEST POP POP POP POP POP DUP2 MSTORE PUSH1 0x20 ADD PUSH1 0x8 PUSH0 PUSH1 0xB DUP10 DUP2 SLOAD DUP2 LT PUSH2 0x1387 JUMPI PUSH2 0x1386 PUSH2 0x453D JUMP JUMPDEST JUMPDEST SWAP1 PUSH0 MSTORE PUSH1 0x20 PUSH0 KECCAK256 SWAP1 PUSH1 0x6 MUL ADD PUSH1 0x1 ADD SLOAD DUP2 MSTORE PUSH1 0x20 ADD SWAP1 DUP2 MSTORE PUSH1 0x20 ADD PUSH0 KECCAK256 PUSH1 0x3 ADD DUP1 SLOAD PUSH2 0x13B2 SWAP1 PUSH2 0x44D7 JUMP JUMPDEST DUP1 PUSH1 0x1F ADD PUSH1 0x20 DUP1 SWAP2 DIV MUL PUSH1 0x20 ADD PUSH1 0x40 MLOAD SWAP1 DUP2 ADD PUSH1 0x40 MSTORE DUP1 SWAP3 SWAP2 SWAP1 DUP2 DUP2 MSTORE PUSH1 0x20 ADD DUP3 DUP1 SLOAD PUSH2 0x13DE SWAP1 PUSH2 0x44D7 JUMP JUMPDEST DUP1 ISZERO PUSH2 0x1429 JUMPI DUP1 PUSH1 0x1F LT PUSH2 0x1400 JUMPI PUSH2 0x100 DUP1 DUP4 SLOAD DIV MUL DUP4 MSTORE SWAP2 PUSH1 0x20 ADD SWAP2 PUSH2 0x1429 JUMP JUMPDEST DUP3 ADD SWAP2 SWAP1 PUSH0 MSTORE PUSH1 0x20 PUSH0 KECCAK256 SWAP1 JUMPDEST DUP2 SLOAD DUP2 MSTORE SWAP1 PUSH1 0x1 ADD SWAP1 PUSH1 0x20 ADD DUP1 DUP4 GT PUSH2 0x140C JUMPI DUP3 SWAP1 SUB PUSH1 0x1F AND DUP3 ADD SWAP2 JUMPDEST POP POP POP POP POP DUP2 MSTORE PUSH1 0x20 ADD PUSH1 0x8 PUSH0 PUSH1 0xB DUP10 DUP2 SLOAD DUP2 LT PUSH2 0x144A JUMPI PUSH2 0x1449 PUSH2 0x453D JUMP JUMPDEST JUMPDEST SWAP1 PUSH0 MSTORE PUSH1 0x20 PUSH0 KECCAK256 SWAP1 PUSH1 0x6 MUL ADD PUSH1 0x1 ADD SLOAD DUP2 MSTORE PUSH1 0x20 ADD SWAP1 DUP2 MSTORE PUSH1 0x20 ADD PUSH0 KECCAK256 PUSH1 0x4 ADD DUP1 SLOAD PUSH2 0x1475 SWAP1 PUSH2 0x44D7 JUMP JUMPDEST DUP1 PUSH1 0x1F ADD PUSH1 0x20 DUP1 SWAP2 DIV MUL PUSH1 0x20 ADD PUSH1 0x40 MLOAD SWAP1 DUP2 ADD PUSH1 0x40 MSTORE DUP1 SWAP3 SWAP2 SWAP1 DUP2 DUP2 MSTORE PUSH1 0x20 ADD DUP3 DUP1 SLOAD PUSH2 0x14A1 SWAP1 PUSH2 0x44D7 JUMP JUMPDEST DUP1 ISZERO PUSH2 0x14EC JUMPI DUP1 PUSH1 0x1F LT PUSH2 0x14C3 JUMPI PUSH2 0x100 DUP1 DUP4 SLOAD DIV MUL DUP4 MSTORE SWAP2 PUSH1 0x20 ADD SWAP2 PUSH2 0x14EC JUMP JUMPDEST DUP3 ADD SWAP2 SWAP1 PUSH0 MSTORE PUSH1 0x20 PUSH0 KECCAK256 SWAP1 JUMPDEST DUP2 SLOAD DUP2 MSTORE SWAP1 PUSH1 0x1 ADD SWAP1 PUSH1 0x20 ADD DUP1 DUP4 GT PUSH2 0x14CF JUMPI DUP3 SWAP1 SUB PUSH1 0x1F AND DUP3 ADD SWAP2 JUMPDEST POP POP POP POP POP DUP2 MSTORE PUSH1 0x20 ADD DUP6 DUP2 MSTORE PUSH1 0x20 ADD PUSH1 0xB DUP8 DUP2 SLOAD DUP2 LT PUSH2 0x1510 JUMPI PUSH2 0x150F PUSH2 0x453D JUMP JUMPDEST JUMPDEST SWAP1 PUSH0 MSTORE PUSH1 0x20 PUSH0 KECCAK256 SWAP1 PUSH1 0x6 MUL ADD PUSH1 0x5 ADD SLOAD DUP2 MSTORE PUSH1 0x20 ADD PUSH1 0x8 PUSH0 PUSH1 0xB DUP10 DUP2 SLOAD DUP2 LT PUSH2 0x153C JUMPI PUSH2 0x153B PUSH2 0x453D JUMP JUMPDEST JUMPDEST SWAP1 PUSH0 MSTORE PUSH1 0x20 PUSH0 KECCAK256 SWAP1 PUSH1 0x6 MUL ADD PUSH1 0x1 ADD SLOAD DUP2 MSTORE PUSH1 0x20 ADD SWAP1 DUP2 MSTORE PUSH1 0x20 ADD PUSH0 KECCAK256 PUSH1 0x7 ADD SLOAD DUP2 MSTORE POP SWAP1 DUP1 PUSH1 0x1 DUP2 SLOAD ADD DUP1 DUP3 SSTORE DUP1 SWAP2 POP POP PUSH1 0x1 SWAP1 SUB SWAP1 PUSH0 MSTORE PUSH1 0x20 PUSH0 KECCAK256 SWAP1 PUSH1 0x8 MUL ADD PUSH0 SWAP1 SWAP2 SWAP1 SWAP2 SWAP1 SWAP2 POP PUSH0 DUP3 ADD MLOAD DUP2 PUSH0 ADD SSTORE PUSH1 0x20 DUP3 ADD MLOAD DUP2 PUSH1 0x1 ADD SSTORE PUSH1 0x40 DUP3 ADD MLOAD DUP2 PUSH1 0x2 ADD SWAP1 DUP2 PUSH2 0x15AD SWAP2 SWAP1 PUSH2 0x4767 JUMP JUMPDEST POP PUSH1 0x60 DUP3 ADD MLOAD DUP2 PUSH1 0x3 ADD SWAP1 DUP2 PUSH2 0x15C3 SWAP2 SWAP1 PUSH2 0x4767 JUMP JUMPDEST POP PUSH1 0x80 DUP3 ADD MLOAD DUP2 PUSH1 0x4 ADD SWAP1 DUP2 PUSH2 0x15D9 SWAP2 SWAP1 PUSH2 0x4767 JUMP JUMPDEST POP PUSH1 0xA0 DUP3 ADD MLOAD DUP2 PUSH1 0x5 ADD SSTORE PUSH1 0xC0 DUP3 ADD MLOAD DUP2 PUSH1 0x6 ADD SSTORE PUSH1 0xE0 DUP3 ADD MLOAD DUP2 PUSH1 0x7 ADD SSTORE POP POP PUSH0 PUSH1 0x9 PUSH0 PUSH1 0xB DUP8 DUP2 SLOAD DUP2 LT PUSH2 0x1612 JUMPI PUSH2 0x1611 PUSH2 0x453D JUMP JUMPDEST JUMPDEST SWAP1 PUSH0 MSTORE PUSH1 0x20 PUSH0 KECCAK256 SWAP1 PUSH1 0x6 MUL ADD PUSH1 0x3 ADD PUSH0 SWAP1 SLOAD SWAP1 PUSH2 0x100 EXP SWAP1 DIV PUSH20 0xFFFFFFFFFFFFFFFFFFFFFFFFFFFFFFFFFFFFFFFF AND PUSH20 0xFFFFFFFFFFFFFFFFFFFFFFFFFFFFFFFFFFFFFFFF AND PUSH20 0xFFFFFFFFFFFFFFFFFFFFFFFFFFFFFFFFFFFFFFFF AND DUP2 MSTORE PUSH1 0x20 ADD SWAP1 DUP2 MSTORE PUSH1 0x20 ADD PUSH0 KECCAK256 PUSH1 0xB DUP7 DUP2 SLOAD DUP2 LT PUSH2 0x168E JUMPI PUSH2 0x168D PUSH2 0x453D JUMP JUMPDEST JUMPDEST SWAP1 PUSH0 MSTORE PUSH1 0x20 PUSH0 KECCAK256 SWAP1 PUSH1 0x6 MUL ADD PUSH1 0x1 ADD SLOAD DUP2 SLOAD DUP2 LT PUSH2 0x16AF JUMPI PUSH2 0x16AE PUSH2 0x453D JUMP JUMPDEST JUMPDEST SWAP1 PUSH0 MSTORE PUSH1 0x20 PUSH0 KECCAK256 SWAP1 PUSH1 0x8 MUL ADD PUSH1 0x6 ADD SLOAD SUB PUSH2 0x174F JUMPI PUSH1 0x9 PUSH0 PUSH1 0xB DUP7 DUP2 SLOAD DUP2 LT PUSH2 0x16DB JUMPI PUSH2 0x16DA PUSH2 0x453D JUMP JUMPDEST JUMPDEST SWAP1 PUSH0 MSTORE PUSH1 0x20 PUSH0 KECCAK256 SWAP1 PUSH1 0x6 MUL ADD PUSH1 0x3 ADD PUSH0 SWAP1 SLOAD SWAP1 PUSH2 0x100 EXP SWAP1 DIV PUSH20 0xFFFFFFFFFFFFFFFFFFFFFFFFFFFFFFFFFFFFFFFF AND PUSH20 0xFFFFFFFFFFFFFFFFFFFFFFFFFFFFFFFFFFFFFFFF AND PUSH20 0xFFFFFFFFFFFFFFFFFFFFFFFFFFFFFFFFFFFFFFFF AND DUP2 MSTORE PUSH1 0x20 ADD SWAP1 DUP2 MSTORE PUSH1 0x20 ADD PUSH0 KECCAK256 PUSH0 PUSH2 0x174E SWAP2 SWAP1 PUSH2 0x345D JUMP JUMPDEST JUMPDEST PUSH0 PUSH1 0xB DUP6 DUP2 SLOAD DUP2 LT PUSH2 0x1764 JUMPI PUSH2 0x1763 PUSH2 0x453D JUMP JUMPDEST JUMPDEST SWAP1 PUSH0 MSTORE PUSH1 0x20 PUSH0 KECCAK256 SWAP1 PUSH1 0x6 MUL ADD PUSH1 0x4 ADD SLOAD SUB PUSH2 0x17E5 JUMPI PUSH1 0xB DUP5 DUP2 SLOAD DUP2 LT PUSH2 0x178D JUMPI PUSH2 0x178C PUSH2 0x453D JUMP JUMPDEST JUMPDEST SWAP1 PUSH0 MSTORE PUSH1 0x20 PUSH0 KECCAK256 SWAP1 PUSH1 0x6 MUL ADD PUSH0 DUP1 DUP3 ADD PUSH0 SWAP1 SSTORE PUSH1 0x1 DUP3 ADD PUSH0 SWAP1 SSTORE PUSH1 0x2 DUP3 ADD PUSH0 SWAP1 SSTORE PUSH1 0x3 DUP3 ADD PUSH0 PUSH2 0x100 EXP DUP2 SLOAD SWAP1 PUSH20 0xFFFFFFFFFFFFFFFFFFFFFFFFFFFFFFFFFFFFFFFF MUL NOT AND SWAP1 SSTORE PUSH1 0x4 DUP3 ADD PUSH0 SWAP1 SSTORE PUSH1 0x5 DUP3 ADD PUSH0 SWAP1 SSTORE POP POP JUMPDEST POP POP POP POP JUMP JUMPDEST PUSH1 0x4 PUSH0 SWAP1 SLOAD SWAP1 PUSH2 0x100 EXP SWAP1 DIV PUSH20 0xFFFFFFFFFFFFFFFFFFFFFFFFFFFFFFFFFFFFFFFF AND PUSH20 0xFFFFFFFFFFFFFFFFFFFFFFFFFFFFFFFFFFFFFFFF AND CALLER PUSH20 0xFFFFFFFFFFFFFFFFFFFFFFFFFFFFFFFFFFFFFFFF AND EQ PUSH2 0x187A JUMPI PUSH1 0x40 MLOAD PUSH32 0x8C379A000000000000000000000000000000000000000000000000000000000 DUP2 MSTORE PUSH1 0x4 ADD PUSH2 0x1871 SWAP1 PUSH2 0x4C40 JUMP JUMPDEST PUSH1 0x40 MLOAD DUP1 SWAP2 SUB SWAP1 REVERT JUMPDEST DUP5 PUSH1 0xA PUSH0 DUP8 DUP2 MSTORE PUSH1 0x20 ADD SWAP1 DUP2 MSTORE PUSH1 0x20 ADD PUSH0 KECCAK256 PUSH0 ADD SLOAD SUB PUSH2 0x18CF JUMPI PUSH1 0x40 MLOAD PUSH32 0x8C379A000000000000000000000000000000000000000000000000000000000 DUP2 MSTORE PUSH1 0x4 ADD PUSH2 0x18C6 SWAP1 PUSH2 0x4CCE JUMP JUMPDEST PUSH1 0x40 MLOAD DUP1 SWAP2 SUB SWAP1 REVERT JUMPDEST PUSH2 0x18E9 CALLER DUP4 DUP4 PUSH1 0x40 MLOAD DUP1 PUSH1 0x20 ADD PUSH1 0x40 MSTORE DUP1 PUSH0 DUP2 MSTORE POP PUSH2 0x29D5 JUMP JUMPDEST PUSH1 0x40 MLOAD DUP1 PUSH1 0xA0 ADD PUSH1 0x40 MSTORE DUP1 DUP7 DUP2 MSTORE PUSH1 0x20 ADD DUP6 DUP2 MSTORE PUSH1 0x20 ADD DUP5 DUP2 MSTORE PUSH1 0x20 ADD DUP4 DUP2 MSTORE PUSH1 0x20 ADD DUP3 DUP2 MSTORE POP PUSH1 0xA PUSH0 DUP8 DUP2 MSTORE PUSH1 0x20 ADD SWAP1 DUP2 MSTORE PUSH1 0x20 ADD PUSH0 KECCAK256 PUSH0 DUP3 ADD MLOAD DUP2 PUSH0 ADD SSTORE PUSH1 0x20 DUP3 ADD MLOAD DUP2 PUSH1 0x1 ADD SWAP1 DUP2 PUSH2 0x193E SWAP2 SWAP1 PUSH2 0x4767 JUMP JUMPDEST POP PUSH1 0x40 DUP3 ADD MLOAD DUP2 PUSH1 0x2 ADD SWAP1 DUP2 PUSH2 0x1954 SWAP2 SWAP1 PUSH2 0x4767 JUMP JUMPDEST POP PUSH1 0x60 DUP3 ADD MLOAD DUP2 PUSH1 0x3 ADD SWAP1 DUP1 MLOAD SWAP1 PUSH1 0x20 ADD SWAP1 PUSH2 0x1971 SWAP3 SWAP2 SWAP1 PUSH2 0x347E JUMP JUMPDEST POP PUSH1 0x80 DUP3 ADD MLOAD DUP2 PUSH1 0x4 ADD SWAP1 DUP1 MLOAD SWAP1 PUSH1 0x20 ADD SWAP1 PUSH2 0x198E SWAP3 SWAP2 SWAP1 PUSH2 0x347E JUMP JUMPDEST POP SWAP1 POP POP PUSH1 0xE PUSH1 0x40 MLOAD DUP1 PUSH1 0xA0 ADD PUSH1 0x40 MSTORE DUP1 DUP8 DUP2 MSTORE PUSH1 0x20 ADD DUP7 DUP2 MSTORE PUSH1 0x20 ADD DUP6 DUP2 MSTORE PUSH1 0x20 ADD DUP5 DUP2 MSTORE PUSH1 0x20 ADD DUP4 DUP2 MSTORE POP SWAP1 DUP1 PUSH1 0x1 DUP2 SLOAD ADD DUP1 DUP3 SSTORE DUP1 SWAP2 POP POP PUSH1 0x1 SWAP1 SUB SWAP1 PUSH0 MSTORE PUSH1 0x20 PUSH0 KECCAK256 SWAP1 PUSH1 0x5 MUL ADD PUSH0 SWAP1 SWAP2 SWAP1 SWAP2 SWAP1 SWAP2 POP PUSH0 DUP3 ADD MLOAD DUP2 PUSH0 ADD SSTORE PUSH1 0x20 DUP3 ADD MLOAD DUP2 PUSH1 0x1 ADD SWAP1 DUP2 PUSH2 0x19FE SWAP2 SWAP1 PUSH2 0x4767 JUMP JUMPDEST POP PUSH1 0x40 DUP3 ADD MLOAD DUP2 PUSH1 0x2 ADD SWAP1 DUP2 PUSH2 0x1A14 SWAP2 SWAP1 PUSH2 0x4767 JUMP JUMPDEST POP PUSH1 0x60 DUP3 ADD MLOAD DUP2 PUSH1 0x3 ADD SWAP1 DUP1 MLOAD SWAP1 PUSH1 0x20 ADD SWAP1 PUSH2 0x1A31 SWAP3 SWAP2 SWAP1 PUSH2 0x347E JUMP JUMPDEST POP PUSH1 0x80 DUP3 ADD MLOAD DUP2 PUSH1 0x4 ADD SWAP1 DUP1 MLOAD SWAP1 PUSH1 0x20 ADD SWAP1 PUSH2 0x1A4E SWAP3 SWAP2 SWAP1 PUSH2 0x347E JUMP JUMPDEST POP POP POP POP POP POP POP POP JUMP JUMPDEST DUP2 PUSH1 0x9 PUSH0 CALLER PUSH20 0xFFFFFFFFFFFFFFFFFFFFFFFFFFFFFFFFFFFFFFFF AND PUSH20 0xFFFFFFFFFFFFFFFFFFFFFFFFFFFFFFFFFFFFFFFF AND DUP2 MSTORE PUSH1 0x20 ADD SWAP1 DUP2 MSTORE PUSH1 0x20 ADD PUSH0 KECCAK256 DUP5 DUP2 SLOAD DUP2 LT PUSH2 0x1AA8 JUMPI PUSH2 0x1AA7 PUSH2 0x453D JUMP JUMPDEST JUMPDEST SWAP1 PUSH0 MSTORE PUSH1 0x20 PUSH0 KECCAK256 SWAP1 PUSH1 0x8 MUL ADD PUSH1 0x6 ADD SLOAD LT ISZERO PUSH2 0x1AF9 JUMPI PUSH1 0x40 MLOAD PUSH32 0x8C379A000000000000000000000000000000000000000000000000000000000 DUP2 MSTORE PUSH1 0x4 ADD PUSH2 0x1AF0 SWAP1 PUSH2 0x4D5C JUMP JUMPDEST PUSH1 0x40 MLOAD DUP1 SWAP2 SUB SWAP1 REVERT JUMPDEST PUSH1 0xB PUSH1 0x40 MLOAD DUP1 PUSH1 0xC0 ADD PUSH1 0x40 MSTORE DUP1 PUSH1 0xB DUP1 SLOAD SWAP1 POP DUP2 MSTORE PUSH1 0x20 ADD DUP7 DUP2 MSTORE PUSH1 0x20 ADD DUP6 DUP2 MSTORE PUSH1 0x20 ADD CALLER PUSH20 0xFFFFFFFFFFFFFFFFFFFFFFFFFFFFFFFFFFFFFFFF AND DUP2 MSTORE PUSH1 0x20 ADD DUP5 DUP2 MSTORE PUSH1 0x20 ADD DUP4 DUP2 MSTORE POP SWAP1 DUP1 PUSH1 0x1 DUP2 SLOAD ADD DUP1 DUP3 SSTORE DUP1 SWAP2 POP POP PUSH1 0x1 SWAP1 SUB SWAP1 PUSH0 MSTORE PUSH1 0x20 PUSH0 KECCAK256 SWAP1 PUSH1 0x6 MUL ADD PUSH0 SWAP1 SWAP2 SWAP1 SWAP2 SWAP1 SWAP2 POP PUSH0 DUP3 ADD MLOAD DUP2 PUSH0 ADD SSTORE PUSH1 0x20 DUP3 ADD MLOAD DUP2 PUSH1 0x1 ADD SSTORE PUSH1 0x40 DUP3 ADD MLOAD DUP2 PUSH1 0x2 ADD SSTORE PUSH1 0x60 DUP3 ADD MLOAD DUP2 PUSH1 0x3 ADD PUSH0 PUSH2 0x100 EXP DUP2 SLOAD DUP2 PUSH20 0xFFFFFFFFFFFFFFFFFFFFFFFFFFFFFFFFFFFFFFFF MUL NOT AND SWAP1 DUP4 PUSH20 0xFFFFFFFFFFFFFFFFFFFFFFFFFFFFFFFFFFFFFFFF AND MUL OR SWAP1 SSTORE POP PUSH1 0x80 DUP3 ADD MLOAD DUP2 PUSH1 0x4 ADD SSTORE PUSH1 0xA0 DUP3 ADD MLOAD DUP2 PUSH1 0x5 ADD SSTORE POP POP POP POP POP POP JUMP JUMPDEST PUSH1 0x4 PUSH0 SWAP1 SLOAD SWAP1 PUSH2 0x100 EXP SWAP1 DIV PUSH20 0xFFFFFFFFFFFFFFFFFFFFFFFFFFFFFFFFFFFFFFFF AND PUSH20 0xFFFFFFFFFFFFFFFFFFFFFFFFFFFFFFFFFFFFFFFF AND CALLER PUSH20 0xFFFFFFFFFFFFFFFFFFFFFFFFFFFFFFFFFFFFFFFF AND EQ PUSH2 0x1C76 JUMPI PUSH1 0x40 MLOAD PUSH32 0x8C379A000000000000000000000000000000000000000000000000000000000 DUP2 MSTORE PUSH1 0x4 ADD PUSH2 0x1C6D SWAP1 PUSH2 0x4C40 JUMP JUMPDEST PUSH1 0x40 MLOAD DUP1 SWAP2 SUB SWAP1 REVERT JUMPDEST PUSH0 PUSH1 0x8 PUSH0 DUP10 DUP2 MSTORE PUSH1 0x20 ADD SWAP1 DUP2 MSTORE PUSH1 0x20 ADD PUSH0 KECCAK256 PUSH1 0x5 ADD SLOAD EQ PUSH2 0x1CCC JUMPI PUSH1 0x40 MLOAD PUSH32 0x8C379A000000000000000000000000000000000000000000000000000000000 DUP2 MSTORE PUSH1 0x4 ADD PUSH2 0x1CC3 SWAP1 PUSH2 0x4DEA JUMP JUMPDEST PUSH1 0x40 MLOAD DUP1 SWAP2 SUB SWAP1 REVERT JUMPDEST PUSH2 0x1CE6 CALLER DUP9 DUP5 PUSH1 0x40 MLOAD DUP1 PUSH1 0x20 ADD PUSH1 0x40 MSTORE DUP1 PUSH0 DUP2 MSTORE POP PUSH2 0x2A58 JUMP JUMPDEST PUSH1 0x40 MLOAD DUP1 PUSH2 0x100 ADD PUSH1 0x40 MSTORE DUP1 DUP9 DUP2 MSTORE PUSH1 0x20 ADD PUSH1 0x9 PUSH0 CALLER PUSH20 0xFFFFFFFFFFFFFFFFFFFFFFFFFFFFFFFFFFFFFFFF AND PUSH20 0xFFFFFFFFFFFFFFFFFFFFFFFFFFFFFFFFFFFFFFFF AND DUP2 MSTORE PUSH1 0x20 ADD SWAP1 DUP2 MSTORE PUSH1 0x20 ADD PUSH0 KECCAK256 DUP1 SLOAD SWAP1 POP DUP2 MSTORE PUSH1 0x20 ADD DUP8 DUP2 MSTORE PUSH1 0x20 ADD DUP7 DUP2 MSTORE PUSH1 0x20 ADD DUP6 DUP2 MSTORE PUSH1 0x20 ADD DUP5 DUP2 MSTORE PUSH1 0x20 ADD DUP4 DUP2 MSTORE PUSH1 0x20 ADD DUP3 DUP2 MSTORE POP PUSH1 0x8 PUSH0 DUP10 DUP2 MSTORE PUSH1 0x20 ADD SWAP1 DUP2 MSTORE PUSH1 0x20 ADD PUSH0 KECCAK256 PUSH0 DUP3 ADD MLOAD DUP2 PUSH0 ADD SSTORE PUSH1 0x20 DUP3 ADD MLOAD DUP2 PUSH1 0x1 ADD SSTORE PUSH1 0x40 DUP3 ADD MLOAD DUP2 PUSH1 0x2 ADD SWAP1 DUP2 PUSH2 0x1D98 SWAP2 SWAP1 PUSH2 0x4767 JUMP JUMPDEST POP PUSH1 0x60 DUP3 ADD MLOAD DUP2 PUSH1 0x3 ADD SWAP1 DUP2 PUSH2 0x1DAE SWAP2 SWAP1 PUSH2 0x4767 JUMP JUMPDEST POP PUSH1 0x80 DUP3 ADD MLOAD DUP2 PUSH1 0x4 ADD SWAP1 DUP2 PUSH2 0x1DC4 SWAP2 SWAP1 PUSH2 0x4767 JUMP JUMPDEST POP PUSH1 0xA0 DUP3 ADD MLOAD DUP2 PUSH1 0x5 ADD SSTORE PUSH1 0xC0 DUP3 ADD MLOAD DUP2 PUSH1 0x6 ADD SSTORE PUSH1 0xE0 DUP3 ADD MLOAD DUP2 PUSH1 0x7 ADD SSTORE SWAP1 POP POP PUSH1 0x9 PUSH0 CALLER PUSH20 0xFFFFFFFFFFFFFFFFFFFFFFFFFFFFFFFFFFFFFFFF AND PUSH20 0xFFFFFFFFFFFFFFFFFFFFFFFFFFFFFFFFFFFFFFFF AND DUP2 MSTORE PUSH1 0x20 ADD SWAP1 DUP2 MSTORE PUSH1 0x20 ADD PUSH0 KECCAK256 PUSH1 0x40 MLOAD DUP1 PUSH2 0x100 ADD PUSH1 0x40 MSTORE DUP1 DUP10 DUP2 MSTORE PUSH1 0x20 ADD PUSH1 0x9 PUSH0 CALLER PUSH20 0xFFFFFFFFFFFFFFFFFFFFFFFFFFFFFFFFFFFFFFFF AND PUSH20 0xFFFFFFFFFFFFFFFFFFFFFFFFFFFFFFFFFFFFFFFF AND DUP2 MSTORE PUSH1 0x20 ADD SWAP1 DUP2 MSTORE PUSH1 0x20 ADD PUSH0 KECCAK256 DUP1 SLOAD SWAP1 POP DUP2 MSTORE PUSH1 0x20 ADD DUP9 DUP2 MSTORE PUSH1 0x20 ADD DUP8 DUP2 MSTORE PUSH1 0x20 ADD DUP7 DUP2 MSTORE PUSH1 0x20 ADD DUP6 DUP2 MSTORE PUSH1 0x20 ADD DUP5 DUP2 MSTORE PUSH1 0x20 ADD DUP4 DUP2 MSTORE POP SWAP1 DUP1 PUSH1 0x1 DUP2 SLOAD ADD DUP1 DUP3 SSTORE DUP1 SWAP2 POP POP PUSH1 0x1 SWAP1 SUB SWAP1 PUSH0 MSTORE PUSH1 0x20 PUSH0 KECCAK256 SWAP1 PUSH1 0x8 MUL ADD PUSH0 SWAP1 SWAP2 SWAP1 SWAP2 SWAP1 SWAP2 POP PUSH0 DUP3 ADD MLOAD DUP2 PUSH0 ADD SSTORE PUSH1 0x20 DUP3 ADD MLOAD DUP2 PUSH1 0x1 ADD SSTORE PUSH1 0x40 DUP3 ADD MLOAD DUP2 PUSH1 0x2 ADD SWAP1 DUP2 PUSH2 0x1EEA SWAP2 SWAP1 PUSH2 0x4767 JUMP JUMPDEST POP PUSH1 0x60 DUP3 ADD MLOAD DUP2 PUSH1 0x3 ADD SWAP1 DUP2 PUSH2 0x1F00 SWAP2 SWAP1 PUSH2 0x4767 JUMP JUMPDEST POP PUSH1 0x80 DUP3 ADD MLOAD DUP2 PUSH1 0x4 ADD SWAP1 DUP2 PUSH2 0x1F16 SWAP2 SWAP1 PUSH2 0x4767 JUMP JUMPDEST POP PUSH1 0xA0 DUP3 ADD MLOAD DUP2 PUSH1 0x5 ADD SSTORE PUSH1 0xC0 DUP3 ADD MLOAD DUP2 PUSH1 0x6 ADD SSTORE PUSH1 0xE0 DUP3 ADD MLOAD DUP2 PUSH1 0x7 ADD SSTORE POP POP POP POP POP POP POP POP POP JUMP JUMPDEST CALLER PUSH20 0xFFFFFFFFFFFFFFFFFFFFFFFFFFFFFFFFFFFFFFFF AND PUSH1 0xB DUP4 DUP2 SLOAD DUP2 LT PUSH2 0x1F6B JUMPI PUSH2 0x1F6A PUSH2 0x453D JUMP JUMPDEST JUMPDEST SWAP1 PUSH0 MSTORE PUSH1 0x20 PUSH0 KECCAK256 SWAP1 PUSH1 0x6 MUL ADD PUSH1 0x3 ADD PUSH0 SWAP1 SLOAD SWAP1 PUSH2 0x100 EXP SWAP1 DIV PUSH20 0xFFFFFFFFFFFFFFFFFFFFFFFFFFFFFFFFFFFFFFFF AND PUSH20 0xFFFFFFFFFFFFFFFFFFFFFFFFFFFFFFFFFFFFFFFF AND EQ PUSH2 0x1FF0 JUMPI PUSH1 0x40 MLOAD PUSH32 0x8C379A000000000000000000000000000000000000000000000000000000000 DUP2 MSTORE PUSH1 0x4 ADD PUSH2 0x1FE7 SWAP1 PUSH2 0x4E52 JUMP JUMPDEST PUSH1 0x40 MLOAD DUP1 SWAP2 SUB SWAP1 REVERT JUMPDEST PUSH1 0x3 SLOAD DUP2 PUSH2 0x1FFE SWAP2 SWAP1 PUSH2 0x4A23 JUMP JUMPDEST PUSH1 0xB DUP4 DUP2 SLOAD DUP2 LT PUSH2 0x2012 JUMPI PUSH2 0x2011 PUSH2 0x453D JUMP JUMPDEST JUMPDEST SWAP1 PUSH0 MSTORE PUSH1 0x20 PUSH0 KECCAK256 SWAP1 PUSH1 0x6 MUL ADD PUSH1 0x5 ADD DUP2 SWAP1 SSTORE POP POP POP JUMP JUMPDEST PUSH1 0x4 PUSH0 SWAP1 SLOAD SWAP1 PUSH2 0x100 EXP SWAP1 DIV PUSH20 0xFFFFFFFFFFFFFFFFFFFFFFFFFFFFFFFFFFFFFFFF AND PUSH20 0xFFFFFFFFFFFFFFFFFFFFFFFFFFFFFFFFFFFFFFFF AND CALLER PUSH20 0xFFFFFFFFFFFFFFFFFFFFFFFFFFFFFFFFFFFFFFFF AND EQ PUSH2 0x20B8 JUMPI PUSH1 0x40 MLOAD PUSH32 0x8C379A000000000000000000000000000000000000000000000000000000000 DUP2 MSTORE PUSH1 0x4 ADD PUSH2 0x20AF SWAP1 PUSH2 0x4C40 JUMP JUMPDEST PUSH1 0x40 MLOAD DUP1 SWAP2 SUB SWAP1 REVERT JUMPDEST PUSH0 JUMPDEST PUSH1 0xF DUP1 SLOAD SWAP1 POP DUP2 LT ISZERO PUSH2 0x2139 JUMPI DUP8 PUSH1 0xF DUP3 DUP2 SLOAD DUP2 LT PUSH2 0x20DC JUMPI PUSH2 0x20DB PUSH2 0x453D JUMP JUMPDEST JUMPDEST SWAP1 PUSH0 MSTORE PUSH1 0x20 PUSH0 KECCAK256 SWAP1 PUSH1 0x8 MUL ADD PUSH1 0x1 ADD SLOAD SUB PUSH2 0x212C JUMPI PUSH1 0x40 MLOAD PUSH32 0x8C379A000000000000000000000000000000000000000000000000000000000 DUP2 MSTORE PUSH1 0x4 ADD PUSH2 0x2123 SWAP1 PUSH2 0x4F06 JUMP JUMPDEST PUSH1 0x40 MLOAD DUP1 SWAP2 SUB SWAP1 REVERT JUMPDEST DUP1 DUP1 PUSH1 0x1 ADD SWAP2 POP POP PUSH2 0x20BA JUMP JUMPDEST POP PUSH1 0xF PUSH1 0x40 MLOAD DUP1 PUSH2 0x100 ADD PUSH1 0x40 MSTORE DUP1 PUSH1 0xF DUP1 SLOAD SWAP1 POP DUP2 MSTORE PUSH1 0x20 ADD DUP10 DUP2 MSTORE PUSH1 0x20 ADD DUP9 DUP2 MSTORE PUSH1 0x20 ADD DUP8 DUP2 MSTORE PUSH1 0x20 ADD DUP7 DUP2 MSTORE PUSH1 0x20 ADD DUP6 DUP2 MSTORE PUSH1 0x20 ADD DUP5 PUSH20 0xFFFFFFFFFFFFFFFFFFFFFFFFFFFFFFFFFFFFFFFF AND DUP2 MSTORE PUSH1 0x20 ADD DUP4 DUP2 MSTORE POP SWAP1 DUP1 PUSH1 0x1 DUP2 SLOAD ADD DUP1 DUP3 SSTORE DUP1 SWAP2 POP POP PUSH1 0x1 SWAP1 SUB SWAP1 PUSH0 MSTORE PUSH1 0x20 PUSH0 KECCAK256 SWAP1 PUSH1 0x8 MUL ADD PUSH0 SWAP1 SWAP2 SWAP1 SWAP2 SWAP1 SWAP2 POP PUSH0 DUP3 ADD MLOAD DUP2 PUSH0 ADD SSTORE PUSH1 0x20 DUP3 ADD MLOAD DUP2 PUSH1 0x1 ADD SSTORE PUSH1 0x40 DUP3 ADD MLOAD DUP2 PUSH1 0x2 ADD SSTORE PUSH1 0x60 DUP3 ADD MLOAD DUP2 PUSH1 0x3 ADD SSTORE PUSH1 0x80 DUP3 ADD MLOAD DUP2 PUSH1 0x4 ADD SSTORE PUSH1 0xA0 DUP3 ADD MLOAD DUP2 PUSH1 0x5 ADD SSTORE PUSH1 0xC0 DUP3 ADD MLOAD DUP2 PUSH1 0x6 ADD PUSH0 PUSH2 0x100 EXP DUP2 SLOAD DUP2 PUSH20 0xFFFFFFFFFFFFFFFFFFFFFFFFFFFFFFFFFFFFFFFF MUL NOT AND SWAP1 DUP4 PUSH20 0xFFFFFFFFFFFFFFFFFFFFFFFFFFFFFFFFFFFFFFFF AND MUL OR SWAP1 SSTORE POP PUSH1 0xE0 DUP3 ADD MLOAD DUP2 PUSH1 0x7 ADD SSTORE POP POP POP POP POP POP POP POP POP JUMP JUMPDEST DUP1 PUSH1 0x40 MLOAD PUSH1 0x20 ADD PUSH2 0x225D SWAP2 SWAP1 PUSH2 0x4958 JUMP JUMPDEST PUSH1 0x40 MLOAD PUSH1 0x20 DUP2 DUP4 SUB SUB DUP2 MSTORE SWAP1 PUSH1 0x40 MSTORE DUP1 MLOAD SWAP1 PUSH1 0x20 ADD KECCAK256 PUSH1 0x6 DUP3 PUSH1 0x40 MLOAD PUSH2 0x2283 SWAP2 SWAP1 PUSH2 0x4958 JUMP JUMPDEST SWAP1 DUP2 MSTORE PUSH1 0x20 ADD PUSH1 0x40 MLOAD DUP1 SWAP2 SUB SWAP1 KECCAK256 PUSH0 ADD PUSH1 0x40 MLOAD PUSH1 0x20 ADD PUSH2 0x22A3 SWAP2 SWAP1 PUSH2 0x4FA4 JUMP JUMPDEST PUSH1 0x40 MLOAD PUSH1 0x20 DUP2 DUP4 SUB SUB DUP2 MSTORE SWAP1 PUSH1 0x40 MSTORE DUP1 MLOAD SWAP1 PUSH1 0x20 ADD KECCAK256 EQ PUSH2 0x22F9 JUMPI PUSH1 0x40 MLOAD PUSH32 0x8C379A000000000000000000000000000000000000000000000000000000000 DUP2 MSTORE PUSH1 0x4 ADD PUSH2 0x22F0 SWAP1 PUSH2 0x5050 JUMP JUMPDEST PUSH1 0x40 MLOAD DUP1 SWAP2 SUB SWAP1 REVERT JUMPDEST PUSH1 0x1 ISZERO ISZERO PUSH1 0x7 PUSH0 CALLER PUSH20 0xFFFFFFFFFFFFFFFFFFFFFFFFFFFFFFFFFFFFFFFF AND PUSH20 0xFFFFFFFFFFFFFFFFFFFFFFFFFFFFFFFFFFFFFFFF AND DUP2 MSTORE PUSH1 0x20 ADD SWAP1 DUP2 MSTORE PUSH1 0x20 ADD PUSH0 KECCAK256 PUSH0 SWAP1 SLOAD SWAP1 PUSH2 0x100 EXP SWAP1 DIV PUSH1 0xFF AND ISZERO ISZERO SUB PUSH2 0x2389 JUMPI PUSH1 0x40 MLOAD PUSH32 0x8C379A000000000000000000000000000000000000000000000000000000000 DUP2 MSTORE PUSH1 0x4 ADD PUSH2 0x2380 SWAP1 PUSH2 0x50DE JUMP JUMPDEST PUSH1 0x40 MLOAD DUP1 SWAP2 SUB SWAP1 REVERT JUMPDEST PUSH1 0x5 PUSH0 SWAP1 SLOAD SWAP1 PUSH2 0x100 EXP SWAP1 DIV PUSH20 0xFFFFFFFFFFFFFFFFFFFFFFFFFFFFFFFFFFFFFFFF AND PUSH20 0xFFFFFFFFFFFFFFFFFFFFFFFFFFFFFFFFFFFFFFFF AND PUSH4 0x5CD07EE6 PUSH1 0x40 MLOAD DUP2 PUSH4 0xFFFFFFFF AND PUSH1 0xE0 SHL DUP2 MSTORE PUSH1 0x4 ADD PUSH0 PUSH1 0x40 MLOAD DUP1 DUP4 SUB DUP2 PUSH0 DUP8 DUP1 EXTCODESIZE ISZERO DUP1 ISZERO PUSH2 0x23EF JUMPI PUSH0 DUP1 REVERT JUMPDEST POP GAS CALL ISZERO DUP1 ISZERO PUSH2 0x2401 JUMPI RETURNDATASIZE PUSH0 DUP1 RETURNDATACOPY RETURNDATASIZE PUSH0 REVERT JUMPDEST POP POP POP POP PUSH1 0x1 PUSH1 0x7 PUSH0 CALLER PUSH20 0xFFFFFFFFFFFFFFFFFFFFFFFFFFFFFFFFFFFFFFFF AND PUSH20 0xFFFFFFFFFFFFFFFFFFFFFFFFFFFFFFFFFFFFFFFF AND DUP2 MSTORE PUSH1 0x20 ADD SWAP1 DUP2 MSTORE PUSH1 0x20 ADD PUSH0 KECCAK256 PUSH0 PUSH2 0x100 EXP DUP2 SLOAD DUP2 PUSH1 0xFF MUL NOT AND SWAP1 DUP4 ISZERO ISZERO MUL OR SWAP1 SSTORE POP PUSH1 0x1 PUSH1 0x6 DUP3 PUSH1 0x40 MLOAD PUSH2 0x246C SWAP2 SWAP1 PUSH2 0x4958 JUMP JUMPDEST SWAP1 DUP2 MSTORE PUSH1 0x20 ADD PUSH1 0x40 MLOAD DUP1 SWAP2 SUB SWAP1 KECCAK256 PUSH1 0x2 ADD SLOAD PUSH2 0x2488 SWAP2 SWAP1 PUSH2 0x50FC JUMP JUMPDEST PUSH1 0x6 DUP3 PUSH1 0x40 MLOAD PUSH2 0x2498 SWAP2 SWAP1 PUSH2 0x4958 JUMP JUMPDEST SWAP1 DUP2 MSTORE PUSH1 0x20 ADD PUSH1 0x40 MLOAD DUP1 SWAP2 SUB SWAP1 KECCAK256 PUSH1 0x2 ADD DUP2 SWAP1 SSTORE POP POP JUMP JUMPDEST PUSH2 0x24C2 PUSH2 0x24BB PUSH2 0x27AE JUMP JUMPDEST DUP4 DUP4 PUSH2 0x2AED JUMP JUMPDEST POP POP JUMP JUMPDEST PUSH1 0x60 PUSH1 0xC DUP1 SLOAD DUP1 PUSH1 0x20 MUL PUSH1 0x20 ADD PUSH1 0x40 MLOAD SWAP1 DUP2 ADD PUSH1 0x40 MSTORE DUP1 SWAP3 SWAP2 SWAP1 DUP2 DUP2 MSTORE PUSH1 0x20 ADD PUSH0 SWAP1 JUMPDEST DUP3 DUP3 LT ISZERO PUSH2 0x2607 JUMPI DUP4 DUP3 SWAP1 PUSH0 MSTORE PUSH1 0x20 PUSH0 KECCAK256 SWAP1 PUSH1 0x3 MUL ADD PUSH1 0x40 MLOAD DUP1 PUSH1 0x60 ADD PUSH1 0x40 MSTORE SWAP1 DUP2 PUSH0 DUP3 ADD DUP1 SLOAD PUSH2 0x2519 SWAP1 PUSH2 0x44D7 JUMP JUMPDEST DUP1 PUSH1 0x1F ADD PUSH1 0x20 DUP1 SWAP2 DIV MUL PUSH1 0x20 ADD PUSH1 0x40 MLOAD SWAP1 DUP2 ADD PUSH1 0x40 MSTORE DUP1 SWAP3 SWAP2 SWAP1 DUP2 DUP2 MSTORE PUSH1 0x20 ADD DUP3 DUP1 SLOAD PUSH2 0x2545 SWAP1 PUSH2 0x44D7 JUMP JUMPDEST DUP1 ISZERO PUSH2 0x2590 JUMPI DUP1 PUSH1 0x1F LT PUSH2 0x2567 JUMPI PUSH2 0x100 DUP1 DUP4 SLOAD DIV MUL DUP4 MSTORE SWAP2 PUSH1 0x20 ADD SWAP2 PUSH2 0x2590 JUMP JUMPDEST DUP3 ADD SWAP2 SWAP1 PUSH0 MSTORE PUSH1 0x20 PUSH0 KECCAK256 SWAP1 JUMPDEST DUP2 SLOAD DUP2 MSTORE SWAP1 PUSH1 0x1 ADD SWAP1 PUSH1 0x20 ADD DUP1 DUP4 GT PUSH2 0x2573 JUMPI DUP3 SWAP1 SUB PUSH1 0x1F AND DUP3 ADD SWAP2 JUMPDEST POP POP POP POP POP DUP2 MSTORE PUSH1 0x20 ADD PUSH1 0x1 DUP3 ADD PUSH0 SWAP1 SLOAD SWAP1 PUSH2 0x100 EXP SWAP1 DIV PUSH20 0xFFFFFFFFFFFFFFFFFFFFFFFFFFFFFFFFFFFFFFFF AND PUSH20 0xFFFFFFFFFFFFFFFFFFFFFFFFFFFFFFFFFFFFFFFF AND PUSH20 0xFFFFFFFFFFFFFFFFFFFFFFFFFFFFFFFFFFFFFFFF AND DUP2 MSTORE PUSH1 0x20 ADD PUSH1 0x2 DUP3 ADD SLOAD DUP2 MSTORE POP POP DUP2 MSTORE PUSH1 0x20 ADD SWAP1 PUSH1 0x1 ADD SWAP1 PUSH2 0x24E9 JUMP JUMPDEST POP POP POP POP SWAP1 POP SWAP1 JUMP JUMPDEST PUSH0 PUSH1 0x1 PUSH0 DUP5 PUSH20 0xFFFFFFFFFFFFFFFFFFFFFFFFFFFFFFFFFFFFFFFF AND PUSH20 0xFFFFFFFFFFFFFFFFFFFFFFFFFFFFFFFFFFFFFFFF AND DUP2 MSTORE PUSH1 0x20 ADD SWAP1 DUP2 MSTORE PUSH1 0x20 ADD PUSH0 KECCAK256 PUSH0 DUP4 PUSH20 0xFFFFFFFFFFFFFFFFFFFFFFFFFFFFFFFFFFFFFFFF AND PUSH20 0xFFFFFFFFFFFFFFFFFFFFFFFFFFFFFFFFFFFFFFFF AND DUP2 MSTORE PUSH1 0x20 ADD SWAP1 DUP2 MSTORE PUSH1 0x20 ADD PUSH0 KECCAK256 PUSH0 SWAP1 SLOAD SWAP1 PUSH2 0x100 EXP SWAP1 DIV PUSH1 0xFF AND SWAP1 POP SWAP3 SWAP2 POP POP JUMP JUMPDEST PUSH0 PUSH2 0x26A7 PUSH2 0x27AE JUMP JUMPDEST SWAP1 POP DUP1 PUSH20 0xFFFFFFFFFFFFFFFFFFFFFFFFFFFFFFFFFFFFFFFF AND DUP7 PUSH20 0xFFFFFFFFFFFFFFFFFFFFFFFFFFFFFFFFFFFFFFFF AND EQ ISZERO DUP1 ISZERO PUSH2 0x26EC JUMPI POP PUSH2 0x26EA DUP7 DUP3 PUSH2 0x2610 JUMP JUMPDEST ISZERO JUMPDEST ISZERO PUSH2 0x2730 JUMPI DUP1 DUP7 PUSH1 0x40 MLOAD PUSH32 0xE237D92200000000000000000000000000000000000000000000000000000000 DUP2 MSTORE PUSH1 0x4 ADD PUSH2 0x2727 SWAP3 SWAP2 SWAP1 PUSH2 0x4516 JUMP JUMPDEST PUSH1 0x40 MLOAD DUP1 SWAP2 SUB SWAP1 REVERT JUMPDEST PUSH2 0x273D DUP7 DUP7 DUP7 DUP7 DUP7 PUSH2 0x28A9 JUMP JUMPDEST POP POP POP POP POP POP JUMP JUMPDEST PUSH0 PUSH32 0x1FFC9A700000000000000000000000000000000000000000000000000000000 PUSH28 0xFFFFFFFFFFFFFFFFFFFFFFFFFFFFFFFFFFFFFFFFFFFFFFFFFFFFFFFF NOT AND DUP3 PUSH28 0xFFFFFFFFFFFFFFFFFFFFFFFFFFFFFFFFFFFFFFFFFFFFFFFFFFFFFFFF NOT AND EQ SWAP1 POP SWAP2 SWAP1 POP JUMP JUMPDEST PUSH0 CALLER SWAP1 POP SWAP1 JUMP JUMPDEST PUSH0 PUSH20 0xFFFFFFFFFFFFFFFFFFFFFFFFFFFFFFFFFFFFFFFF AND DUP5 PUSH20 0xFFFFFFFFFFFFFFFFFFFFFFFFFFFFFFFFFFFFFFFF AND SUB PUSH2 0x2825 JUMPI PUSH0 PUSH1 0x40 MLOAD PUSH32 0x57F447CE00000000000000000000000000000000000000000000000000000000 DUP2 MSTORE PUSH1 0x4 ADD PUSH2 0x281C SWAP2 SWAP1 PUSH2 0x512F JUMP JUMPDEST PUSH1 0x40 MLOAD DUP1 SWAP2 SUB SWAP1 REVERT JUMPDEST PUSH0 PUSH20 0xFFFFFFFFFFFFFFFFFFFFFFFFFFFFFFFFFFFFFFFF AND DUP6 PUSH20 0xFFFFFFFFFFFFFFFFFFFFFFFFFFFFFFFFFFFFFFFF AND SUB PUSH2 0x2895 JUMPI PUSH0 PUSH1 0x40 MLOAD PUSH32 0x1A8351400000000000000000000000000000000000000000000000000000000 DUP2 MSTORE PUSH1 0x4 ADD PUSH2 0x288C SWAP2 SWAP1 PUSH2 0x512F JUMP JUMPDEST PUSH1 0x40 MLOAD DUP1 SWAP2 SUB SWAP1 REVERT JUMPDEST PUSH2 0x28A2 DUP6 DUP6 DUP6 DUP6 DUP6 PUSH2 0x2C56 JUMP JUMPDEST POP POP POP POP POP JUMP JUMPDEST PUSH0 PUSH20 0xFFFFFFFFFFFFFFFFFFFFFFFFFFFFFFFFFFFFFFFF AND DUP5 PUSH20 0xFFFFFFFFFFFFFFFFFFFFFFFFFFFFFFFFFFFFFFFF AND SUB PUSH2 0x2919 JUMPI PUSH0 PUSH1 0x40 MLOAD PUSH32 0x57F447CE00000000000000000000000000000000000000000000000000000000 DUP2 MSTORE PUSH1 0x4 ADD PUSH2 0x2910 SWAP2 SWAP1 PUSH2 0x512F JUMP JUMPDEST PUSH1 0x40 MLOAD DUP1 SWAP2 SUB SWAP1 REVERT JUMPDEST PUSH0 PUSH20 0xFFFFFFFFFFFFFFFFFFFFFFFFFFFFFFFFFFFFFFFF AND DUP6 PUSH20 0xFFFFFFFFFFFFFFFFFFFFFFFFFFFFFFFFFFFFFFFF AND SUB PUSH2 0x2989 JUMPI PUSH0 PUSH1 0x40 MLOAD PUSH32 0x1A8351400000000000000000000000000000000000000000000000000000000 DUP2 MSTORE PUSH1 0x4 ADD PUSH2 0x2980 SWAP2 SWAP1 PUSH2 0x512F JUMP JUMPDEST PUSH1 0x40 MLOAD DUP1 SWAP2 SUB SWAP1 REVERT JUMPDEST PUSH0 DUP1 PUSH2 0x2995 DUP6 DUP6 PUSH2 0x2D02 JUMP JUMPDEST SWAP2 POP SWAP2 POP PUSH2 0x29A6 DUP8 DUP8 DUP5 DUP5 DUP8 PUSH2 0x2C56 JUMP JUMPDEST POP POP POP POP POP POP POP JUMP JUMPDEST PUSH0 PUSH1 0x20 DUP3 MUL PUSH1 0x20 DUP5 ADD ADD MLOAD SWAP1 POP SWAP3 SWAP2 POP POP JUMP JUMPDEST PUSH0 PUSH1 0x20 DUP3 MUL PUSH1 0x20 DUP5 ADD ADD MLOAD SWAP1 POP SWAP3 SWAP2 POP POP JUMP JUMPDEST PUSH0 PUSH20 0xFFFFFFFFFFFFFFFFFFFFFFFFFFFFFFFFFFFFFFFF AND DUP5 PUSH20 0xFFFFFFFFFFFFFFFFFFFFFFFFFFFFFFFFFFFFFFFF AND SUB PUSH2 0x2A45 JUMPI PUSH0 PUSH1 0x40 MLOAD PUSH32 0x57F447CE00000000000000000000000000000000000000000000000000000000 DUP2 MSTORE PUSH1 0x4 ADD PUSH2 0x2A3C SWAP2 SWAP1 PUSH2 0x512F JUMP JUMPDEST PUSH1 0x40 MLOAD DUP1 SWAP2 SUB SWAP1 REVERT JUMPDEST PUSH2 0x2A52 PUSH0 DUP6 DUP6 DUP6 DUP6 PUSH2 0x2C56 JUMP JUMPDEST POP POP POP POP JUMP JUMPDEST PUSH0 PUSH20 0xFFFFFFFFFFFFFFFFFFFFFFFFFFFFFFFFFFFFFFFF AND DUP5 PUSH20 0xFFFFFFFFFFFFFFFFFFFFFFFFFFFFFFFFFFFFFFFF AND SUB PUSH2 0x2AC8 JUMPI PUSH0 PUSH1 0x40 MLOAD PUSH32 0x57F447CE00000000000000000000000000000000000000000000000000000000 DUP2 MSTORE PUSH1 0x4 ADD PUSH2 0x2ABF SWAP2 SWAP1 PUSH2 0x512F JUMP JUMPDEST PUSH1 0x40 MLOAD DUP1 SWAP2 SUB SWAP1 REVERT JUMPDEST PUSH0 DUP1 PUSH2 0x2AD4 DUP6 DUP6 PUSH2 0x2D02 JUMP JUMPDEST SWAP2 POP SWAP2 POP PUSH2 0x2AE5 PUSH0 DUP8 DUP5 DUP5 DUP8 PUSH2 0x2C56 JUMP JUMPDEST POP POP POP POP POP POP JUMP JUMPDEST PUSH0 PUSH20 0xFFFFFFFFFFFFFFFFFFFFFFFFFFFFFFFFFFFFFFFF AND DUP3 PUSH20 0xFFFFFFFFFFFFFFFFFFFFFFFFFFFFFFFFFFFFFFFF AND SUB PUSH2 0x2B5D JUMPI PUSH0 PUSH1 0x40 MLOAD PUSH32 0xCED3E10000000000000000000000000000000000000000000000000000000000 DUP2 MSTORE PUSH1 0x4 ADD PUSH2 0x2B54 SWAP2 SWAP1 PUSH2 0x512F JUMP JUMPDEST PUSH1 0x40 MLOAD DUP1 SWAP2 SUB SWAP1 REVERT JUMPDEST DUP1 PUSH1 0x1 PUSH0 DUP6 PUSH20 0xFFFFFFFFFFFFFFFFFFFFFFFFFFFFFFFFFFFFFFFF AND PUSH20 0xFFFFFFFFFFFFFFFFFFFFFFFFFFFFFFFFFFFFFFFF AND DUP2 MSTORE PUSH1 0x20 ADD SWAP1 DUP2 MSTORE PUSH1 0x20 ADD PUSH0 KECCAK256 PUSH0 DUP5 PUSH20 0xFFFFFFFFFFFFFFFFFFFFFFFFFFFFFFFFFFFFFFFF AND PUSH20 0xFFFFFFFFFFFFFFFFFFFFFFFFFFFFFFFFFFFFFFFF AND DUP2 MSTORE PUSH1 0x20 ADD SWAP1 DUP2 MSTORE PUSH1 0x20 ADD PUSH0 KECCAK256 PUSH0 PUSH2 0x100 EXP DUP2 SLOAD DUP2 PUSH1 0xFF MUL NOT AND SWAP1 DUP4 ISZERO ISZERO MUL OR SWAP1 SSTORE POP DUP2 PUSH20 0xFFFFFFFFFFFFFFFFFFFFFFFFFFFFFFFFFFFFFFFF AND DUP4 PUSH20 0xFFFFFFFFFFFFFFFFFFFFFFFFFFFFFFFFFFFFFFFF AND PUSH32 0x17307EAB39AB6107E8899845AD3D59BD9653F200F220920489CA2B5937696C31 DUP4 PUSH1 0x40 MLOAD PUSH2 0x2C49 SWAP2 SWAP1 PUSH2 0x36E8 JUMP JUMPDEST PUSH1 0x40 MLOAD DUP1 SWAP2 SUB SWAP1 LOG3 POP POP POP JUMP JUMPDEST PUSH2 0x2C62 DUP6 DUP6 DUP6 DUP6 PUSH2 0x2D32 JUMP JUMPDEST PUSH0 PUSH20 0xFFFFFFFFFFFFFFFFFFFFFFFFFFFFFFFFFFFFFFFF AND DUP5 PUSH20 0xFFFFFFFFFFFFFFFFFFFFFFFFFFFFFFFFFFFFFFFF AND EQ PUSH2 0x2CFB JUMPI PUSH0 PUSH2 0x2C9E PUSH2 0x27AE JUMP JUMPDEST SWAP1 POP PUSH1 0x1 DUP5 MLOAD SUB PUSH2 0x2CEA JUMPI PUSH0 PUSH2 0x2CBD PUSH0 DUP7 PUSH2 0x29C2 SWAP1 SWAP2 SWAP1 PUSH4 0xFFFFFFFF AND JUMP JUMPDEST SWAP1 POP PUSH0 PUSH2 0x2CD3 PUSH0 DUP7 PUSH2 0x29C2 SWAP1 SWAP2 SWAP1 PUSH4 0xFFFFFFFF AND JUMP JUMPDEST SWAP1 POP PUSH2 0x2CE3 DUP4 DUP10 DUP10 DUP6 DUP6 DUP10 PUSH2 0x30C2 JUMP JUMPDEST POP POP PUSH2 0x2CF9 JUMP JUMPDEST PUSH2 0x2CF8 DUP2 DUP8 DUP8 DUP8 DUP8 DUP8 PUSH2 0x3271 JUMP JUMPDEST JUMPDEST POP JUMPDEST POP POP POP POP POP JUMP JUMPDEST PUSH1 0x60 DUP1 PUSH1 0x40 MLOAD SWAP2 POP PUSH1 0x1 DUP3 MSTORE DUP4 PUSH1 0x20 DUP4 ADD MSTORE PUSH1 0x40 DUP3 ADD SWAP1 POP PUSH1 0x1 DUP2 MSTORE DUP3 PUSH1 0x20 DUP3 ADD MSTORE PUSH1 0x40 DUP2 ADD PUSH1 0x40 MSTORE SWAP3 POP SWAP3 SWAP1 POP JUMP JUMPDEST DUP1 MLOAD DUP3 MLOAD EQ PUSH2 0x2D7C JUMPI DUP2 MLOAD DUP2 MLOAD PUSH1 0x40 MLOAD PUSH32 0x5B05999100000000000000000000000000000000000000000000000000000000 DUP2 MSTORE PUSH1 0x4 ADD PUSH2 0x2D73 SWAP3 SWAP2 SWAP1 PUSH2 0x49FC JUMP JUMPDEST PUSH1 0x40 MLOAD DUP1 SWAP2 SUB SWAP1 REVERT JUMPDEST PUSH0 PUSH2 0x2D85 PUSH2 0x27AE JUMP JUMPDEST SWAP1 POP PUSH0 JUMPDEST DUP4 MLOAD DUP2 LT ISZERO PUSH2 0x2F81 JUMPI PUSH0 PUSH2 0x2DA6 DUP3 DUP7 PUSH2 0x29C2 SWAP1 SWAP2 SWAP1 PUSH4 0xFFFFFFFF AND JUMP JUMPDEST SWAP1 POP PUSH0 PUSH2 0x2DBC DUP4 DUP7 PUSH2 0x29C2 SWAP1 SWAP2 SWAP1 PUSH4 0xFFFFFFFF AND JUMP JUMPDEST SWAP1 POP PUSH0 PUSH20 0xFFFFFFFFFFFFFFFFFFFFFFFFFFFFFFFFFFFFFFFF AND DUP9 PUSH20 0xFFFFFFFFFFFFFFFFFFFFFFFFFFFFFFFFFFFFFFFF AND EQ PUSH2 0x2EDF JUMPI PUSH0 DUP1 PUSH0 DUP5 DUP2 MSTORE PUSH1 0x20 ADD SWAP1 DUP2 MSTORE PUSH1 0x20 ADD PUSH0 KECCAK256 PUSH0 DUP11 PUSH20 0xFFFFFFFFFFFFFFFFFFFFFFFFFFFFFFFFFFFFFFFF AND PUSH20 0xFFFFFFFFFFFFFFFFFFFFFFFFFFFFFFFFFFFFFFFF AND DUP2 MSTORE PUSH1 0x20 ADD SWAP1 DUP2 MSTORE PUSH1 0x20 ADD PUSH0 KECCAK256 SLOAD SWAP1 POP DUP2 DUP2 LT ISZERO PUSH2 0x2E8B JUMPI DUP9 DUP2 DUP4 DUP6 PUSH1 0x40 MLOAD PUSH32 0x3DEE4C500000000000000000000000000000000000000000000000000000000 DUP2 MSTORE PUSH1 0x4 ADD PUSH2 0x2E82 SWAP5 SWAP4 SWAP3 SWAP2 SWAP1 PUSH2 0x5148 JUMP JUMPDEST PUSH1 0x40 MLOAD DUP1 SWAP2 SUB SWAP1 REVERT JUMPDEST DUP2 DUP2 SUB PUSH0 DUP1 DUP6 DUP2 MSTORE PUSH1 0x20 ADD SWAP1 DUP2 MSTORE PUSH1 0x20 ADD PUSH0 KECCAK256 PUSH0 DUP12 PUSH20 0xFFFFFFFFFFFFFFFFFFFFFFFFFFFFFFFFFFFFFFFF AND PUSH20 0xFFFFFFFFFFFFFFFFFFFFFFFFFFFFFFFFFFFFFFFF AND DUP2 MSTORE PUSH1 0x20 ADD SWAP1 DUP2 MSTORE PUSH1 0x20 ADD PUSH0 KECCAK256 DUP2 SWAP1 SSTORE POP POP JUMPDEST PUSH0 PUSH20 0xFFFFFFFFFFFFFFFFFFFFFFFFFFFFFFFFFFFFFFFF AND DUP8 PUSH20 0xFFFFFFFFFFFFFFFFFFFFFFFFFFFFFFFFFFFFFFFF AND EQ PUSH2 0x2F74 JUMPI DUP1 PUSH0 DUP1 DUP5 DUP2 MSTORE PUSH1 0x20 ADD SWAP1 DUP2 MSTORE PUSH1 0x20 ADD PUSH0 KECCAK256 PUSH0 DUP10 PUSH20 0xFFFFFFFFFFFFFFFFFFFFFFFFFFFFFFFFFFFFFFFF AND PUSH20 0xFFFFFFFFFFFFFFFFFFFFFFFFFFFFFFFFFFFFFFFF AND DUP2 MSTORE PUSH1 0x20 ADD SWAP1 DUP2 MSTORE PUSH1 0x20 ADD PUSH0 KECCAK256 PUSH0 DUP3 DUP3 SLOAD PUSH2 0x2F6C SWAP2 SWAP1 PUSH2 0x50FC JUMP JUMPDEST SWAP3 POP POP DUP2 SWAP1 SSTORE POP JUMPDEST POP POP DUP1 PUSH1 0x1 ADD SWAP1 POP PUSH2 0x2D89 JUMP JUMPDEST POP PUSH1 0x1 DUP4 MLOAD SUB PUSH2 0x303C JUMPI PUSH0 PUSH2 0x2F9F PUSH0 DUP6 PUSH2 0x29C2 SWAP1 SWAP2 SWAP1 PUSH4 0xFFFFFFFF AND JUMP JUMPDEST SWAP1 POP PUSH0 PUSH2 0x2FB5 PUSH0 DUP6 PUSH2 0x29C2 SWAP1 SWAP2 SWAP1 PUSH4 0xFFFFFFFF AND JUMP JUMPDEST SWAP1 POP DUP6 PUSH20 0xFFFFFFFFFFFFFFFFFFFFFFFFFFFFFFFFFFFFFFFF AND DUP8 PUSH20 0xFFFFFFFFFFFFFFFFFFFFFFFFFFFFFFFFFFFFFFFF AND DUP5 PUSH20 0xFFFFFFFFFFFFFFFFFFFFFFFFFFFFFFFFFFFFFFFF AND PUSH32 0xC3D58168C5AE7397731D063D5BBF3D657854427343F4C083240F7AACAA2D0F62 DUP6 DUP6 PUSH1 0x40 MLOAD PUSH2 0x302D SWAP3 SWAP2 SWAP1 PUSH2 0x49FC JUMP JUMPDEST PUSH1 0x40 MLOAD DUP1 SWAP2 SUB SWAP1 LOG4 POP POP PUSH2 0x30BB JUMP JUMPDEST DUP4 PUSH20 0xFFFFFFFFFFFFFFFFFFFFFFFFFFFFFFFFFFFFFFFF AND DUP6 PUSH20 0xFFFFFFFFFFFFFFFFFFFFFFFFFFFFFFFFFFFFFFFF AND DUP3 PUSH20 0xFFFFFFFFFFFFFFFFFFFFFFFFFFFFFFFFFFFFFFFF AND PUSH32 0x4A39DC06D4C0DBC64B70AF90FD698A233A518AA5D07E595D983B8C0526C8F7FB DUP7 DUP7 PUSH1 0x40 MLOAD PUSH2 0x30B2 SWAP3 SWAP2 SWAP1 PUSH2 0x518B JUMP JUMPDEST PUSH1 0x40 MLOAD DUP1 SWAP2 SUB SWAP1 LOG4 JUMPDEST POP POP POP POP POP JUMP JUMPDEST PUSH0 DUP5 PUSH20 0xFFFFFFFFFFFFFFFFFFFFFFFFFFFFFFFFFFFFFFFF AND EXTCODESIZE GT ISZERO PUSH2 0x3269 JUMPI DUP4 PUSH20 0xFFFFFFFFFFFFFFFFFFFFFFFFFFFFFFFFFFFFFFFF AND PUSH4 0xF23A6E61 DUP8 DUP8 DUP7 DUP7 DUP7 PUSH1 0x40 MLOAD DUP7 PUSH4 0xFFFFFFFF AND PUSH1 0xE0 SHL DUP2 MSTORE PUSH1 0x4 ADD PUSH2 0x3122 SWAP6 SWAP5 SWAP4 SWAP3 SWAP2 SWAP1 PUSH2 0x5212 JUMP JUMPDEST PUSH1 0x20 PUSH1 0x40 MLOAD DUP1 DUP4 SUB DUP2 PUSH0 DUP8 GAS CALL SWAP3 POP POP POP DUP1 ISZERO PUSH2 0x315D JUMPI POP PUSH1 0x40 MLOAD RETURNDATASIZE PUSH1 0x1F NOT PUSH1 0x1F DUP3 ADD AND DUP3 ADD DUP1 PUSH1 0x40 MSTORE POP DUP2 ADD SWAP1 PUSH2 0x315A SWAP2 SWAP1 PUSH2 0x527E JUMP JUMPDEST PUSH1 0x1 JUMPDEST PUSH2 0x31DE JUMPI RETURNDATASIZE DUP1 PUSH0 DUP2 EQ PUSH2 0x318B JUMPI PUSH1 0x40 MLOAD SWAP2 POP PUSH1 0x1F NOT PUSH1 0x3F RETURNDATASIZE ADD AND DUP3 ADD PUSH1 0x40 MSTORE RETURNDATASIZE DUP3 MSTORE RETURNDATASIZE PUSH0 PUSH1 0x20 DUP5 ADD RETURNDATACOPY PUSH2 0x3190 JUMP JUMPDEST PUSH1 0x60 SWAP2 POP JUMPDEST POP PUSH0 DUP2 MLOAD SUB PUSH2 0x31D6 JUMPI DUP5 PUSH1 0x40 MLOAD PUSH32 0x57F447CE00000000000000000000000000000000000000000000000000000000 DUP2 MSTORE PUSH1 0x4 ADD PUSH2 0x31CD SWAP2 SWAP1 PUSH2 0x512F JUMP JUMPDEST PUSH1 0x40 MLOAD DUP1 SWAP2 SUB SWAP1 REVERT JUMPDEST DUP1 MLOAD DUP2 PUSH1 0x20 ADD REVERT JUMPDEST PUSH4 0xF23A6E61 PUSH1 0xE0 SHL PUSH28 0xFFFFFFFFFFFFFFFFFFFFFFFFFFFFFFFFFFFFFFFFFFFFFFFFFFFFFFFF NOT AND DUP2 PUSH28 0xFFFFFFFFFFFFFFFFFFFFFFFFFFFFFFFFFFFFFFFFFFFFFFFFFFFFFFFF NOT AND EQ PUSH2 0x3267 JUMPI DUP5 PUSH1 0x40 MLOAD PUSH32 0x57F447CE00000000000000000000000000000000000000000000000000000000 DUP2 MSTORE PUSH1 0x4 ADD PUSH2 0x325E SWAP2 SWAP1 PUSH2 0x512F JUMP JUMPDEST PUSH1 0x40 MLOAD DUP1 SWAP2 SUB SWAP1 REVERT JUMPDEST POP JUMPDEST POP POP POP POP POP POP JUMP JUMPDEST PUSH0 DUP5 PUSH20 0xFFFFFFFFFFFFFFFFFFFFFFFFFFFFFFFFFFFFFFFF AND EXTCODESIZE GT ISZERO PUSH2 0x3418 JUMPI DUP4 PUSH20 0xFFFFFFFFFFFFFFFFFFFFFFFFFFFFFFFFFFFFFFFF AND PUSH4 0xBC197C81 DUP8 DUP8 DUP7 DUP7 DUP7 PUSH1 0x40 MLOAD DUP7 PUSH4 0xFFFFFFFF AND PUSH1 0xE0 SHL DUP2 MSTORE PUSH1 0x4 ADD PUSH2 0x32D1 SWAP6 SWAP5 SWAP4 SWAP3 SWAP2 SWAP1 PUSH2 0x52A9 JUMP JUMPDEST PUSH1 0x20 PUSH1 0x40 MLOAD DUP1 DUP4 SUB DUP2 PUSH0 DUP8 GAS CALL SWAP3 POP POP POP DUP1 ISZERO PUSH2 0x330C JUMPI POP PUSH1 0x40 MLOAD RETURNDATASIZE PUSH1 0x1F NOT PUSH1 0x1F DUP3 ADD AND DUP3 ADD DUP1 PUSH1 0x40 MSTORE POP DUP2 ADD SWAP1 PUSH2 0x3309 SWAP2 SWAP1 PUSH2 0x527E JUMP JUMPDEST PUSH1 0x1 JUMPDEST PUSH2 0x338D JUMPI RETURNDATASIZE DUP1 PUSH0 DUP2 EQ PUSH2 0x333A JUMPI PUSH1 0x40 MLOAD SWAP2 POP PUSH1 0x1F NOT PUSH1 0x3F RETURNDATASIZE ADD AND DUP3 ADD PUSH1 0x40 MSTORE RETURNDATASIZE DUP3 MSTORE RETURNDATASIZE PUSH0 PUSH1 0x20 DUP5 ADD RETURNDATACOPY PUSH2 0x333F JUMP JUMPDEST PUSH1 0x60 SWAP2 POP JUMPDEST POP PUSH0 DUP2 MLOAD SUB PUSH2 0x3385 JUMPI DUP5 PUSH1 0x40 MLOAD PUSH32 0x57F447CE00000000000000000000000000000000000000000000000000000000 DUP2 MSTORE PUSH1 0x4 ADD PUSH2 0x337C SWAP2 SWAP1 PUSH2 0x512F JUMP JUMPDEST PUSH1 0x40 MLOAD DUP1 SWAP2 SUB SWAP1 REVERT JUMPDEST DUP1 MLOAD DUP2 PUSH1 0x20 ADD REVERT JUMPDEST PUSH4 0xBC197C81 PUSH1 0xE0 SHL PUSH28 0xFFFFFFFFFFFFFFFFFFFFFFFFFFFFFFFFFFFFFFFFFFFFFFFFFFFFFFFF NOT AND DUP2 PUSH28 0xFFFFFFFFFFFFFFFFFFFFFFFFFFFFFFFFFFFFFFFFFFFFFFFFFFFFFFFF NOT AND EQ PUSH2 0x3416 JUMPI DUP5 PUSH1 0x40 MLOAD PUSH32 0x57F447CE00000000000000000000000000000000000000000000000000000000 DUP2 MSTORE PUSH1 0x4 ADD PUSH2 0x340D SWAP2 SWAP1 PUSH2 0x512F JUMP JUMPDEST PUSH1 0x40 MLOAD DUP1 SWAP2 SUB SWAP1 REVERT JUMPDEST POP JUMPDEST POP POP POP POP POP POP JUMP JUMPDEST POP DUP1 SLOAD PUSH2 0x342C SWAP1 PUSH2 0x44D7 JUMP JUMPDEST PUSH0 DUP3 SSTORE DUP1 PUSH1 0x1F LT PUSH2 0x343D JUMPI POP PUSH2 0x345A JUMP JUMPDEST PUSH1 0x1F ADD PUSH1 0x20 SWAP1 DIV SWAP1 PUSH0 MSTORE PUSH1 0x20 PUSH0 KECCAK256 SWAP1 DUP2 ADD SWAP1 PUSH2 0x3459 SWAP2 SWAP1 PUSH2 0x34C9 JUMP JUMPDEST JUMPDEST POP JUMP JUMPDEST POP DUP1 SLOAD PUSH0 DUP3 SSTORE PUSH1 0x8 MUL SWAP1 PUSH0 MSTORE PUSH1 0x20 PUSH0 KECCAK256 SWAP1 DUP2 ADD SWAP1 PUSH2 0x347B SWAP2 SWAP1 PUSH2 0x34E4 JUMP JUMPDEST POP JUMP JUMPDEST DUP3 DUP1 SLOAD DUP3 DUP3 SSTORE SWAP1 PUSH0 MSTORE PUSH1 0x20 PUSH0 KECCAK256 SWAP1 DUP2 ADD SWAP3 DUP3 ISZERO PUSH2 0x34B8 JUMPI SWAP2 PUSH1 0x20 MUL DUP3 ADD JUMPDEST DUP3 DUP2 GT ISZERO PUSH2 0x34B7 JUMPI DUP3 MLOAD DUP3 SSTORE SWAP2 PUSH1 0x20 ADD SWAP2 SWAP1 PUSH1 0x1 ADD SWAP1 PUSH2 0x349C JUMP JUMPDEST JUMPDEST POP SWAP1 POP PUSH2 0x34C5 SWAP2 SWAP1 PUSH2 0x34C9 JUMP JUMPDEST POP SWAP1 JUMP JUMPDEST JUMPDEST DUP1 DUP3 GT ISZERO PUSH2 0x34E0 JUMPI PUSH0 DUP2 PUSH0 SWAP1 SSTORE POP PUSH1 0x1 ADD PUSH2 0x34CA JUMP JUMPDEST POP SWAP1 JUMP JUMPDEST JUMPDEST DUP1 DUP3 GT ISZERO PUSH2 0x3546 JUMPI PUSH0 DUP1 DUP3 ADD PUSH0 SWAP1 SSTORE PUSH1 0x1 DUP3 ADD PUSH0 SWAP1 SSTORE PUSH1 0x2 DUP3 ADD PUSH0 PUSH2 0x350A SWAP2 SWAP1 PUSH2 0x3420 JUMP JUMPDEST PUSH1 0x3 DUP3 ADD PUSH0 PUSH2 0x3519 SWAP2 SWAP1 PUSH2 0x3420 JUMP JUMPDEST PUSH1 0x4 DUP3 ADD PUSH0 PUSH2 0x3528 SWAP2 SWAP1 PUSH2 0x3420 JUMP JUMPDEST PUSH1 0x5 DUP3 ADD PUSH0 SWAP1 SSTORE PUSH1 0x6 DUP3 ADD PUSH0 SWAP1 SSTORE PUSH1 0x7 DUP3 ADD PUSH0 SWAP1 SSTORE POP PUSH1 0x8 ADD PUSH2 0x34E5 JUMP JUMPDEST POP SWAP1 JUMP JUMPDEST PUSH0 PUSH1 0x40 MLOAD SWAP1 POP SWAP1 JUMP JUMPDEST PUSH0 DUP1 REVERT JUMPDEST PUSH0 DUP1 REVERT JUMPDEST PUSH0 PUSH20 0xFFFFFFFFFFFFFFFFFFFFFFFFFFFFFFFFFFFFFFFF DUP3 AND SWAP1 POP SWAP2 SWAP1 POP JUMP JUMPDEST PUSH0 PUSH2 0x3584 DUP3 PUSH2 0x355B JUMP JUMPDEST SWAP1 POP SWAP2 SWAP1 POP JUMP JUMPDEST PUSH2 0x3594 DUP2 PUSH2 0x357A JUMP JUMPDEST DUP2 EQ PUSH2 0x359E JUMPI PUSH0 DUP1 REVERT JUMPDEST POP JUMP JUMPDEST PUSH0 DUP2 CALLDATALOAD SWAP1 POP PUSH2 0x35AF DUP2 PUSH2 0x358B JUMP JUMPDEST SWAP3 SWAP2 POP POP JUMP JUMPDEST PUSH0 DUP2 SWAP1 POP SWAP2 SWAP1 POP JUMP JUMPDEST PUSH2 0x35C7 DUP2 PUSH2 0x35B5 JUMP JUMPDEST DUP2 EQ PUSH2 0x35D1 JUMPI PUSH0 DUP1 REVERT JUMPDEST POP JUMP JUMPDEST PUSH0 DUP2 CALLDATALOAD SWAP1 POP PUSH2 0x35E2 DUP2 PUSH2 0x35BE JUMP JUMPDEST SWAP3 SWAP2 POP POP JUMP JUMPDEST PUSH0 DUP1 PUSH1 0x40 DUP4 DUP6 SUB SLT ISZERO PUSH2 0x35FE JUMPI PUSH2 0x35FD PUSH2 0x3553 JUMP JUMPDEST JUMPDEST PUSH0 PUSH2 0x360B DUP6 DUP3 DUP7 ADD PUSH2 0x35A1 JUMP JUMPDEST SWAP3 POP POP PUSH1 0x20 PUSH2 0x361C DUP6 DUP3 DUP7 ADD PUSH2 0x35D4 JUMP JUMPDEST SWAP2 POP POP SWAP3 POP SWAP3 SWAP1 POP JUMP JUMPDEST PUSH2 0x362F DUP2 PUSH2 0x35B5 JUMP JUMPDEST DUP3 MSTORE POP POP JUMP JUMPDEST PUSH0 PUSH1 0x20 DUP3 ADD SWAP1 POP PUSH2 0x3648 PUSH0 DUP4 ADD DUP5 PUSH2 0x3626 JUMP JUMPDEST SWAP3 SWAP2 POP POP JUMP JUMPDEST PUSH0 PUSH32 0xFFFFFFFF00000000000000000000000000000000000000000000000000000000 DUP3 AND SWAP1 POP SWAP2 SWAP1 POP JUMP JUMPDEST PUSH2 0x3682 DUP2 PUSH2 0x364E JUMP JUMPDEST DUP2 EQ PUSH2 0x368C JUMPI PUSH0 DUP1 REVERT JUMPDEST POP JUMP JUMPDEST PUSH0 DUP2 CALLDATALOAD SWAP1 POP PUSH2 0x369D DUP2 PUSH2 0x3679 JUMP JUMPDEST SWAP3 SWAP2 POP POP JUMP JUMPDEST PUSH0 PUSH1 0x20 DUP3 DUP5 SUB SLT ISZERO PUSH2 0x36B8 JUMPI PUSH2 0x36B7 PUSH2 0x3553 JUMP JUMPDEST JUMPDEST PUSH0 PUSH2 0x36C5 DUP5 DUP3 DUP6 ADD PUSH2 0x368F JUMP JUMPDEST SWAP2 POP POP SWAP3 SWAP2 POP POP JUMP JUMPDEST PUSH0 DUP2 ISZERO ISZERO SWAP1 POP SWAP2 SWAP1 POP JUMP JUMPDEST PUSH2 0x36E2 DUP2 PUSH2 0x36CE JUMP JUMPDEST DUP3 MSTORE POP POP JUMP JUMPDEST PUSH0 PUSH1 0x20 DUP3 ADD SWAP1 POP PUSH2 0x36FB PUSH0 DUP4 ADD DUP5 PUSH2 0x36D9 JUMP JUMPDEST SWAP3 SWAP2 POP POP JUMP JUMPDEST PUSH0 PUSH1 0x20 DUP3 DUP5 SUB SLT ISZERO PUSH2 0x3716 JUMPI PUSH2 0x3715 PUSH2 0x3553 JUMP JUMPDEST JUMPDEST PUSH0 PUSH2 0x3723 DUP5 DUP3 DUP6 ADD PUSH2 0x35D4 JUMP JUMPDEST SWAP2 POP POP SWAP3 SWAP2 POP POP JUMP JUMPDEST PUSH0 DUP2 MLOAD SWAP1 POP SWAP2 SWAP1 POP JUMP JUMPDEST PUSH0 DUP3 DUP3 MSTORE PUSH1 0x20 DUP3 ADD SWAP1 POP SWAP3 SWAP2 POP POP JUMP JUMPDEST PUSH0 JUMPDEST DUP4 DUP2 LT ISZERO PUSH2 0x3763 JUMPI DUP1 DUP3 ADD MLOAD DUP2 DUP5 ADD MSTORE PUSH1 0x20 DUP2 ADD SWAP1 POP PUSH2 0x3748 JUMP JUMPDEST PUSH0 DUP5 DUP5 ADD MSTORE POP POP POP POP JUMP JUMPDEST PUSH0 PUSH1 0x1F NOT PUSH1 0x1F DUP4 ADD AND SWAP1 POP SWAP2 SWAP1 POP JUMP JUMPDEST PUSH0 PUSH2 0x3788 DUP3 PUSH2 0x372C JUMP JUMPDEST PUSH2 0x3792 DUP2 DUP6 PUSH2 0x3736 JUMP JUMPDEST SWAP4 POP PUSH2 0x37A2 DUP2 DUP6 PUSH1 0x20 DUP7 ADD PUSH2 0x3746 JUMP JUMPDEST PUSH2 0x37AB DUP2 PUSH2 0x376E JUMP JUMPDEST DUP5 ADD SWAP2 POP POP SWAP3 SWAP2 POP POP JUMP JUMPDEST PUSH0 PUSH1 0x20 DUP3 ADD SWAP1 POP DUP2 DUP2 SUB PUSH0 DUP4 ADD MSTORE PUSH2 0x37CE DUP2 DUP5 PUSH2 0x377E JUMP JUMPDEST SWAP1 POP SWAP3 SWAP2 POP POP JUMP JUMPDEST PUSH0 DUP1 REVERT JUMPDEST PUSH32 0x4E487B7100000000000000000000000000000000000000000000000000000000 PUSH0 MSTORE PUSH1 0x41 PUSH1 0x4 MSTORE PUSH1 0x24 PUSH0 REVERT JUMPDEST PUSH2 0x3810 DUP3 PUSH2 0x376E JUMP JUMPDEST DUP2 ADD DUP2 DUP2 LT PUSH8 0xFFFFFFFFFFFFFFFF DUP3 GT OR ISZERO PUSH2 0x382F JUMPI PUSH2 0x382E PUSH2 0x37DA JUMP JUMPDEST JUMPDEST DUP1 PUSH1 0x40 MSTORE POP POP POP JUMP JUMPDEST PUSH0 PUSH2 0x3841 PUSH2 0x354A JUMP JUMPDEST SWAP1 POP PUSH2 0x384D DUP3 DUP3 PUSH2 0x3807 JUMP JUMPDEST SWAP2 SWAP1 POP JUMP JUMPDEST PUSH0 PUSH8 0xFFFFFFFFFFFFFFFF DUP3 GT ISZERO PUSH2 0x386C JUMPI PUSH2 0x386B PUSH2 0x37DA JUMP JUMPDEST JUMPDEST PUSH1 0x20 DUP3 MUL SWAP1 POP PUSH1 0x20 DUP2 ADD SWAP1 POP SWAP2 SWAP1 POP JUMP JUMPDEST PUSH0 DUP1 REVERT JUMPDEST PUSH0 PUSH2 0x3893 PUSH2 0x388E DUP5 PUSH2 0x3852 JUMP JUMPDEST PUSH2 0x3838 JUMP JUMPDEST SWAP1 POP DUP1 DUP4 DUP3 MSTORE PUSH1 0x20 DUP3 ADD SWAP1 POP PUSH1 0x20 DUP5 MUL DUP4 ADD DUP6 DUP2 GT ISZERO PUSH2 0x38B6 JUMPI PUSH2 0x38B5 PUSH2 0x387D JUMP JUMPDEST JUMPDEST DUP4 JUMPDEST DUP2 DUP2 LT ISZERO PUSH2 0x38DF JUMPI DUP1 PUSH2 0x38CB DUP9 DUP3 PUSH2 0x35D4 JUMP JUMPDEST DUP5 MSTORE PUSH1 0x20 DUP5 ADD SWAP4 POP POP PUSH1 0x20 DUP2 ADD SWAP1 POP PUSH2 0x38B8 JUMP JUMPDEST POP POP POP SWAP4 SWAP3 POP POP POP JUMP JUMPDEST PUSH0 DUP3 PUSH1 0x1F DUP4 ADD SLT PUSH2 0x38FD JUMPI PUSH2 0x38FC PUSH2 0x37D6 JUMP JUMPDEST JUMPDEST DUP2 CALLDATALOAD PUSH2 0x390D DUP5 DUP3 PUSH1 0x20 DUP7 ADD PUSH2 0x3881 JUMP JUMPDEST SWAP2 POP POP SWAP3 SWAP2 POP POP JUMP JUMPDEST PUSH0 DUP1 REVERT JUMPDEST PUSH0 PUSH8 0xFFFFFFFFFFFFFFFF DUP3 GT ISZERO PUSH2 0x3934 JUMPI PUSH2 0x3933 PUSH2 0x37DA JUMP JUMPDEST JUMPDEST PUSH2 0x393D DUP3 PUSH2 0x376E JUMP JUMPDEST SWAP1 POP PUSH1 0x20 DUP2 ADD SWAP1 POP SWAP2 SWAP1 POP JUMP JUMPDEST DUP3 DUP2 DUP4 CALLDATACOPY PUSH0 DUP4 DUP4 ADD MSTORE POP POP POP JUMP JUMPDEST PUSH0 PUSH2 0x396A PUSH2 0x3965 DUP5 PUSH2 0x391A JUMP JUMPDEST PUSH2 0x3838 JUMP JUMPDEST SWAP1 POP DUP3 DUP2 MSTORE PUSH1 0x20 DUP2 ADD DUP5 DUP5 DUP5 ADD GT ISZERO PUSH2 0x3986 JUMPI PUSH2 0x3985 PUSH2 0x3916 JUMP JUMPDEST JUMPDEST PUSH2 0x3991 DUP5 DUP3 DUP6 PUSH2 0x394A JUMP JUMPDEST POP SWAP4 SWAP3 POP POP POP JUMP JUMPDEST PUSH0 DUP3 PUSH1 0x1F DUP4 ADD SLT PUSH2 0x39AD JUMPI PUSH2 0x39AC PUSH2 0x37D6 JUMP JUMPDEST JUMPDEST DUP2 CALLDATALOAD PUSH2 0x39BD DUP5 DUP3 PUSH1 0x20 DUP7 ADD PUSH2 0x3958 JUMP JUMPDEST SWAP2 POP POP SWAP3 SWAP2 POP POP JUMP JUMPDEST PUSH0 DUP1 PUSH0 DUP1 PUSH0 PUSH1 0xA0 DUP7 DUP9 SUB SLT ISZERO PUSH2 0x39DF JUMPI PUSH2 0x39DE PUSH2 0x3553 JUMP JUMPDEST JUMPDEST PUSH0 PUSH2 0x39EC DUP9 DUP3 DUP10 ADD PUSH2 0x35A1 JUMP JUMPDEST SWAP6 POP POP PUSH1 0x20 PUSH2 0x39FD DUP9 DUP3 DUP10 ADD PUSH2 0x35A1 JUMP JUMPDEST SWAP5 POP POP PUSH1 0x40 DUP7 ADD CALLDATALOAD PUSH8 0xFFFFFFFFFFFFFFFF DUP2 GT ISZERO PUSH2 0x3A1E JUMPI PUSH2 0x3A1D PUSH2 0x3557 JUMP JUMPDEST JUMPDEST PUSH2 0x3A2A DUP9 DUP3 DUP10 ADD PUSH2 0x38E9 JUMP JUMPDEST SWAP4 POP POP PUSH1 0x60 DUP7 ADD CALLDATALOAD PUSH8 0xFFFFFFFFFFFFFFFF DUP2 GT ISZERO PUSH2 0x3A4B JUMPI PUSH2 0x3A4A PUSH2 0x3557 JUMP JUMPDEST JUMPDEST PUSH2 0x3A57 DUP9 DUP3 DUP10 ADD PUSH2 0x38E9 JUMP JUMPDEST SWAP3 POP POP PUSH1 0x80 DUP7 ADD CALLDATALOAD PUSH8 0xFFFFFFFFFFFFFFFF DUP2 GT ISZERO PUSH2 0x3A78 JUMPI PUSH2 0x3A77 PUSH2 0x3557 JUMP JUMPDEST JUMPDEST PUSH2 0x3A84 DUP9 DUP3 DUP10 ADD PUSH2 0x3999 JUMP JUMPDEST SWAP2 POP POP SWAP3 SWAP6 POP SWAP3 SWAP6 SWAP1 SWAP4 POP JUMP JUMPDEST PUSH0 DUP1 PUSH0 DUP1 PUSH1 0x80 DUP6 DUP8 SUB SLT ISZERO PUSH2 0x3AA9 JUMPI PUSH2 0x3AA8 PUSH2 0x3553 JUMP JUMPDEST JUMPDEST PUSH0 PUSH2 0x3AB6 DUP8 DUP3 DUP9 ADD PUSH2 0x35D4 JUMP JUMPDEST SWAP5 POP POP PUSH1 0x20 PUSH2 0x3AC7 DUP8 DUP3 DUP9 ADD PUSH2 0x35D4 JUMP JUMPDEST SWAP4 POP POP PUSH1 0x40 PUSH2 0x3AD8 DUP8 DUP3 DUP9 ADD PUSH2 0x35A1 JUMP JUMPDEST SWAP3 POP POP PUSH1 0x60 PUSH2 0x3AE9 DUP8 DUP3 DUP9 ADD PUSH2 0x35D4 JUMP JUMPDEST SWAP2 POP POP SWAP3 SWAP6 SWAP2 SWAP5 POP SWAP3 POP JUMP JUMPDEST PUSH0 DUP1 REVERT JUMPDEST PUSH0 DUP1 DUP4 PUSH1 0x1F DUP5 ADD SLT PUSH2 0x3B0E JUMPI PUSH2 0x3B0D PUSH2 0x37D6 JUMP JUMPDEST JUMPDEST DUP3 CALLDATALOAD SWAP1 POP PUSH8 0xFFFFFFFFFFFFFFFF DUP2 GT ISZERO PUSH2 0x3B2B JUMPI PUSH2 0x3B2A PUSH2 0x3AF5 JUMP JUMPDEST JUMPDEST PUSH1 0x20 DUP4 ADD SWAP2 POP DUP4 PUSH1 0x1 DUP3 MUL DUP4 ADD GT ISZERO PUSH2 0x3B47 JUMPI PUSH2 0x3B46 PUSH2 0x387D JUMP JUMPDEST JUMPDEST SWAP3 POP SWAP3 SWAP1 POP JUMP JUMPDEST PUSH0 DUP1 PUSH1 0x20 DUP4 DUP6 SUB SLT ISZERO PUSH2 0x3B64 JUMPI PUSH2 0x3B63 PUSH2 0x3553 JUMP JUMPDEST JUMPDEST PUSH0 DUP4 ADD CALLDATALOAD PUSH8 0xFFFFFFFFFFFFFFFF DUP2 GT ISZERO PUSH2 0x3B81 JUMPI PUSH2 0x3B80 PUSH2 0x3557 JUMP JUMPDEST JUMPDEST PUSH2 0x3B8D DUP6 DUP3 DUP7 ADD PUSH2 0x3AF9 JUMP JUMPDEST SWAP3 POP SWAP3 POP POP SWAP3 POP SWAP3 SWAP1 POP JUMP JUMPDEST PUSH0 PUSH8 0xFFFFFFFFFFFFFFFF DUP3 GT ISZERO PUSH2 0x3BB3 JUMPI PUSH2 0x3BB2 PUSH2 0x37DA JUMP JUMPDEST JUMPDEST PUSH1 0x20 DUP3 MUL SWAP1 POP PUSH1 0x20 DUP2 ADD SWAP1 POP SWAP2 SWAP1 POP JUMP JUMPDEST PUSH0 PUSH2 0x3BD6 PUSH2 0x3BD1 DUP5 PUSH2 0x3B99 JUMP JUMPDEST PUSH2 0x3838 JUMP JUMPDEST SWAP1 POP DUP1 DUP4 DUP3 MSTORE PUSH1 0x20 DUP3 ADD SWAP1 POP PUSH1 0x20 DUP5 MUL DUP4 ADD DUP6 DUP2 GT ISZERO PUSH2 0x3BF9 JUMPI PUSH2 0x3BF8 PUSH2 0x387D JUMP JUMPDEST JUMPDEST DUP4 JUMPDEST DUP2 DUP2 LT ISZERO PUSH2 0x3C22 JUMPI DUP1 PUSH2 0x3C0E DUP9 DUP3 PUSH2 0x35A1 JUMP JUMPDEST DUP5 MSTORE PUSH1 0x20 DUP5 ADD SWAP4 POP POP PUSH1 0x20 DUP2 ADD SWAP1 POP PUSH2 0x3BFB JUMP JUMPDEST POP POP POP SWAP4 SWAP3 POP POP POP JUMP JUMPDEST PUSH0 DUP3 PUSH1 0x1F DUP4 ADD SLT PUSH2 0x3C40 JUMPI PUSH2 0x3C3F PUSH2 0x37D6 JUMP JUMPDEST JUMPDEST DUP2 CALLDATALOAD PUSH2 0x3C50 DUP5 DUP3 PUSH1 0x20 DUP7 ADD PUSH2 0x3BC4 JUMP JUMPDEST SWAP2 POP POP SWAP3 SWAP2 POP POP JUMP JUMPDEST PUSH0 DUP1 PUSH1 0x40 DUP4 DUP6 SUB SLT ISZERO PUSH2 0x3C6F JUMPI PUSH2 0x3C6E PUSH2 0x3553 JUMP JUMPDEST JUMPDEST PUSH0 DUP4 ADD CALLDATALOAD PUSH8 0xFFFFFFFFFFFFFFFF DUP2 GT ISZERO PUSH2 0x3C8C JUMPI PUSH2 0x3C8B PUSH2 0x3557 JUMP JUMPDEST JUMPDEST PUSH2 0x3C98 DUP6 DUP3 DUP7 ADD PUSH2 0x3C2C JUMP JUMPDEST SWAP3 POP POP PUSH1 0x20 DUP4 ADD CALLDATALOAD PUSH8 0xFFFFFFFFFFFFFFFF DUP2 GT ISZERO PUSH2 0x3CB9 JUMPI PUSH2 0x3CB8 PUSH2 0x3557 JUMP JUMPDEST JUMPDEST PUSH2 0x3CC5 DUP6 DUP3 DUP7 ADD PUSH2 0x38E9 JUMP JUMPDEST SWAP2 POP POP SWAP3 POP SWAP3 SWAP1 POP JUMP JUMPDEST PUSH0 DUP2 MLOAD SWAP1 POP SWAP2 SWAP1 POP JUMP JUMPDEST PUSH0 DUP3 DUP3 MSTORE PUSH1 0x20 DUP3 ADD SWAP1 POP SWAP3 SWAP2 POP POP JUMP JUMPDEST PUSH0 DUP2 SWAP1 POP PUSH1 0x20 DUP3 ADD SWAP1 POP SWAP2 SWAP1 POP JUMP JUMPDEST PUSH2 0x3D01 DUP2 PUSH2 0x35B5 JUMP JUMPDEST DUP3 MSTORE POP POP JUMP JUMPDEST PUSH0 PUSH2 0x3D12 DUP4 DUP4 PUSH2 0x3CF8 JUMP JUMPDEST PUSH1 0x20 DUP4 ADD SWAP1 POP SWAP3 SWAP2 POP POP JUMP JUMPDEST PUSH0 PUSH1 0x20 DUP3 ADD SWAP1 POP SWAP2 SWAP1 POP JUMP JUMPDEST PUSH0 PUSH2 0x3D34 DUP3 PUSH2 0x3CCF JUMP JUMPDEST PUSH2 0x3D3E DUP2 DUP6 PUSH2 0x3CD9 JUMP JUMPDEST SWAP4 POP PUSH2 0x3D49 DUP4 PUSH2 0x3CE9 JUMP JUMPDEST DUP1 PUSH0 JUMPDEST DUP4 DUP2 LT ISZERO PUSH2 0x3D79 JUMPI DUP2 MLOAD PUSH2 0x3D60 DUP9 DUP3 PUSH2 0x3D07 JUMP JUMPDEST SWAP8 POP PUSH2 0x3D6B DUP4 PUSH2 0x3D1E JUMP JUMPDEST SWAP3 POP POP PUSH1 0x1 DUP2 ADD SWAP1 POP PUSH2 0x3D4C JUMP JUMPDEST POP DUP6 SWAP4 POP POP POP POP SWAP3 SWAP2 POP POP JUMP JUMPDEST PUSH0 PUSH1 0x20 DUP3 ADD SWAP1 POP DUP2 DUP2 SUB PUSH0 DUP4 ADD MSTORE PUSH2 0x3D9E DUP2 DUP5 PUSH2 0x3D2A JUMP JUMPDEST SWAP1 POP SWAP3 SWAP2 POP POP JUMP JUMPDEST PUSH0 DUP1 PUSH0 PUSH1 0x60 DUP5 DUP7 SUB SLT ISZERO PUSH2 0x3DBD JUMPI PUSH2 0x3DBC PUSH2 0x3553 JUMP JUMPDEST JUMPDEST PUSH0 PUSH2 0x3DCA DUP7 DUP3 DUP8 ADD PUSH2 0x35D4 JUMP JUMPDEST SWAP4 POP POP PUSH1 0x20 PUSH2 0x3DDB DUP7 DUP3 DUP8 ADD PUSH2 0x35D4 JUMP JUMPDEST SWAP3 POP POP PUSH1 0x40 PUSH2 0x3DEC DUP7 DUP3 DUP8 ADD PUSH2 0x35D4 JUMP JUMPDEST SWAP2 POP POP SWAP3 POP SWAP3 POP SWAP3 JUMP JUMPDEST PUSH0 PUSH8 0xFFFFFFFFFFFFFFFF DUP3 GT ISZERO PUSH2 0x3E10 JUMPI PUSH2 0x3E0F PUSH2 0x37DA JUMP JUMPDEST JUMPDEST PUSH2 0x3E19 DUP3 PUSH2 0x376E JUMP JUMPDEST SWAP1 POP PUSH1 0x20 DUP2 ADD SWAP1 POP SWAP2 SWAP1 POP JUMP JUMPDEST PUSH0 PUSH2 0x3E38 PUSH2 0x3E33 DUP5 PUSH2 0x3DF6 JUMP JUMPDEST PUSH2 0x3838 JUMP JUMPDEST SWAP1 POP DUP3 DUP2 MSTORE PUSH1 0x20 DUP2 ADD DUP5 DUP5 DUP5 ADD GT ISZERO PUSH2 0x3E54 JUMPI PUSH2 0x3E53 PUSH2 0x3916 JUMP JUMPDEST JUMPDEST PUSH2 0x3E5F DUP5 DUP3 DUP6 PUSH2 0x394A JUMP JUMPDEST POP SWAP4 SWAP3 POP POP POP JUMP JUMPDEST PUSH0 DUP3 PUSH1 0x1F DUP4 ADD SLT PUSH2 0x3E7B JUMPI PUSH2 0x3E7A PUSH2 0x37D6 JUMP JUMPDEST JUMPDEST DUP2 CALLDATALOAD PUSH2 0x3E8B DUP5 DUP3 PUSH1 0x20 DUP7 ADD PUSH2 0x3E26 JUMP JUMPDEST SWAP2 POP POP SWAP3 SWAP2 POP POP JUMP JUMPDEST PUSH0 DUP1 PUSH0 DUP1 PUSH0 PUSH1 0xA0 DUP7 DUP9 SUB SLT ISZERO PUSH2 0x3EAD JUMPI PUSH2 0x3EAC PUSH2 0x3553 JUMP JUMPDEST JUMPDEST PUSH0 PUSH2 0x3EBA DUP9 DUP3 DUP10 ADD PUSH2 0x35D4 JUMP JUMPDEST SWAP6 POP POP PUSH1 0x20 DUP7 ADD CALLDATALOAD PUSH8 0xFFFFFFFFFFFFFFFF DUP2 GT ISZERO PUSH2 0x3EDB JUMPI PUSH2 0x3EDA PUSH2 0x3557 JUMP JUMPDEST JUMPDEST PUSH2 0x3EE7 DUP9 DUP3 DUP10 ADD PUSH2 0x3E67 JUMP JUMPDEST SWAP5 POP POP PUSH1 0x40 DUP7 ADD CALLDATALOAD PUSH8 0xFFFFFFFFFFFFFFFF DUP2 GT ISZERO PUSH2 0x3F08 JUMPI PUSH2 0x3F07 PUSH2 0x3557 JUMP JUMPDEST JUMPDEST PUSH2 0x3F14 DUP9 DUP3 DUP10 ADD PUSH2 0x3E67 JUMP JUMPDEST SWAP4 POP POP PUSH1 0x60 DUP7 ADD CALLDATALOAD PUSH8 0xFFFFFFFFFFFFFFFF DUP2 GT ISZERO PUSH2 0x3F35 JUMPI PUSH2 0x3F34 PUSH2 0x3557 JUMP JUMPDEST JUMPDEST PUSH2 0x3F41 DUP9 DUP3 DUP10 ADD PUSH2 0x38E9 JUMP JUMPDEST SWAP3 POP POP PUSH1 0x80 DUP7 ADD CALLDATALOAD PUSH8 0xFFFFFFFFFFFFFFFF DUP2 GT ISZERO PUSH2 0x3F62 JUMPI PUSH2 0x3F61 PUSH2 0x3557 JUMP JUMPDEST JUMPDEST PUSH2 0x3F6E DUP9 DUP3 DUP10 ADD PUSH2 0x38E9 JUMP JUMPDEST SWAP2 POP POP SWAP3 SWAP6 POP SWAP3 SWAP6 SWAP1 SWAP4 POP JUMP JUMPDEST PUSH0 DUP1 PUSH0 DUP1 PUSH1 0x80 DUP6 DUP8 SUB SLT ISZERO PUSH2 0x3F93 JUMPI PUSH2 0x3F92 PUSH2 0x3553 JUMP JUMPDEST JUMPDEST PUSH0 PUSH2 0x3FA0 DUP8 DUP3 DUP9 ADD PUSH2 0x35D4 JUMP JUMPDEST SWAP5 POP POP PUSH1 0x20 PUSH2 0x3FB1 DUP8 DUP3 DUP9 ADD PUSH2 0x35D4 JUMP JUMPDEST SWAP4 POP POP PUSH1 0x40 PUSH2 0x3FC2 DUP8 DUP3 DUP9 ADD PUSH2 0x35D4 JUMP JUMPDEST SWAP3 POP POP PUSH1 0x60 PUSH2 0x3FD3 DUP8 DUP3 DUP9 ADD PUSH2 0x35D4 JUMP JUMPDEST SWAP2 POP POP SWAP3 SWAP6 SWAP2 SWAP5 POP SWAP3 POP JUMP JUMPDEST PUSH0 DUP1 PUSH0 DUP1 PUSH0 DUP1 PUSH0 PUSH1 0xE0 DUP9 DUP11 SUB SLT ISZERO PUSH2 0x3FFA JUMPI PUSH2 0x3FF9 PUSH2 0x3553 JUMP JUMPDEST JUMPDEST PUSH0 PUSH2 0x4007 DUP11 DUP3 DUP12 ADD PUSH2 0x35D4 JUMP JUMPDEST SWAP8 POP POP PUSH1 0x20 DUP9 ADD CALLDATALOAD PUSH8 0xFFFFFFFFFFFFFFFF DUP2 GT ISZERO PUSH2 0x4028 JUMPI PUSH2 0x4027 PUSH2 0x3557 JUMP JUMPDEST JUMPDEST PUSH2 0x4034 DUP11 DUP3 DUP12 ADD PUSH2 0x3E67 JUMP JUMPDEST SWAP7 POP POP PUSH1 0x40 DUP9 ADD CALLDATALOAD PUSH8 0xFFFFFFFFFFFFFFFF DUP2 GT ISZERO PUSH2 0x4055 JUMPI PUSH2 0x4054 PUSH2 0x3557 JUMP JUMPDEST JUMPDEST PUSH2 0x4061 DUP11 DUP3 DUP12 ADD PUSH2 0x3E67 JUMP JUMPDEST SWAP6 POP POP PUSH1 0x60 DUP9 ADD CALLDATALOAD PUSH8 0xFFFFFFFFFFFFFFFF DUP2 GT ISZERO PUSH2 0x4082 JUMPI PUSH2 0x4081 PUSH2 0x3557 JUMP JUMPDEST JUMPDEST PUSH2 0x408E DUP11 DUP3 DUP12 ADD PUSH2 0x3E67 JUMP JUMPDEST SWAP5 POP POP PUSH1 0x80 PUSH2 0x409F DUP11 DUP3 DUP12 ADD PUSH2 0x35D4 JUMP JUMPDEST SWAP4 POP POP PUSH1 0xA0 PUSH2 0x40B0 DUP11 DUP3 DUP12 ADD PUSH2 0x35D4 JUMP JUMPDEST SWAP3 POP POP PUSH1 0xC0 PUSH2 0x40C1 DUP11 DUP3 DUP12 ADD PUSH2 0x35D4 JUMP JUMPDEST SWAP2 POP POP SWAP3 SWAP6 SWAP9 SWAP2 SWAP5 SWAP8 POP SWAP3 SWAP6 POP JUMP JUMPDEST PUSH0 DUP1 PUSH1 0x40 DUP4 DUP6 SUB SLT ISZERO PUSH2 0x40E6 JUMPI PUSH2 0x40E5 PUSH2 0x3553 JUMP JUMPDEST JUMPDEST PUSH0 PUSH2 0x40F3 DUP6 DUP3 DUP7 ADD PUSH2 0x35D4 JUMP JUMPDEST SWAP3 POP POP PUSH1 0x20 PUSH2 0x4104 DUP6 DUP3 DUP7 ADD PUSH2 0x35D4 JUMP JUMPDEST SWAP2 POP POP SWAP3 POP SWAP3 SWAP1 POP JUMP JUMPDEST PUSH0 DUP1 PUSH0 DUP1 PUSH0 DUP1 PUSH0 PUSH1 0xE0 DUP9 DUP11 SUB SLT ISZERO PUSH2 0x4129 JUMPI PUSH2 0x4128 PUSH2 0x3553 JUMP JUMPDEST JUMPDEST PUSH0 PUSH2 0x4136 DUP11 DUP3 DUP12 ADD PUSH2 0x35D4 JUMP JUMPDEST SWAP8 POP POP PUSH1 0x20 PUSH2 0x4147 DUP11 DUP3 DUP12 ADD PUSH2 0x35D4 JUMP JUMPDEST SWAP7 POP POP PUSH1 0x40 PUSH2 0x4158 DUP11 DUP3 DUP12 ADD PUSH2 0x35D4 JUMP JUMPDEST SWAP6 POP POP PUSH1 0x60 PUSH2 0x4169 DUP11 DUP3 DUP12 ADD PUSH2 0x35D4 JUMP JUMPDEST SWAP5 POP POP PUSH1 0x80 PUSH2 0x417A DUP11 DUP3 DUP12 ADD PUSH2 0x35D4 JUMP JUMPDEST SWAP4 POP POP PUSH1 0xA0 PUSH2 0x418B DUP11 DUP3 DUP12 ADD PUSH2 0x35A1 JUMP JUMPDEST SWAP3 POP POP PUSH1 0xC0 PUSH2 0x419C DUP11 DUP3 DUP12 ADD PUSH2 0x35D4 JUMP JUMPDEST SWAP2 POP POP SWAP3 SWAP6 SWAP9 SWAP2 SWAP5 SWAP8 POP SWAP3 SWAP6 POP JUMP JUMPDEST PUSH0 PUSH1 0x20 DUP3 DUP5 SUB SLT ISZERO PUSH2 0x41C0 JUMPI PUSH2 0x41BF PUSH2 0x3553 JUMP JUMPDEST JUMPDEST PUSH0 DUP3 ADD CALLDATALOAD PUSH8 0xFFFFFFFFFFFFFFFF DUP2 GT ISZERO PUSH2 0x41DD JUMPI PUSH2 0x41DC PUSH2 0x3557 JUMP JUMPDEST JUMPDEST PUSH2 0x41E9 DUP5 DUP3 DUP6 ADD PUSH2 0x3E67 JUMP JUMPDEST SWAP2 POP POP SWAP3 SWAP2 POP POP JUMP JUMPDEST PUSH2 0x41FB DUP2 PUSH2 0x36CE JUMP JUMPDEST DUP2 EQ PUSH2 0x4205 JUMPI PUSH0 DUP1 REVERT JUMPDEST POP JUMP JUMPDEST PUSH0 DUP2 CALLDATALOAD SWAP1 POP PUSH2 0x4216 DUP2 PUSH2 0x41F2 JUMP JUMPDEST SWAP3 SWAP2 POP POP JUMP JUMPDEST PUSH0 DUP1 PUSH1 0x40 DUP4 DUP6 SUB SLT ISZERO PUSH2 0x4232 JUMPI PUSH2 0x4231 PUSH2 0x3553 JUMP JUMPDEST JUMPDEST PUSH0 PUSH2 0x423F DUP6 DUP3 DUP7 ADD PUSH2 0x35A1 JUMP JUMPDEST SWAP3 POP POP PUSH1 0x20 PUSH2 0x4250 DUP6 DUP3 DUP7 ADD PUSH2 0x4208 JUMP JUMPDEST SWAP2 POP POP SWAP3 POP SWAP3 SWAP1 POP JUMP JUMPDEST PUSH0 DUP2 MLOAD SWAP1 POP SWAP2 SWAP1 POP JUMP JUMPDEST PUSH0 DUP3 DUP3 MSTORE PUSH1 0x20 DUP3 ADD SWAP1 POP SWAP3 SWAP2 POP POP JUMP JUMPDEST PUSH0 DUP2 SWAP1 POP PUSH1 0x20 DUP3 ADD SWAP1 POP SWAP2 SWAP1 POP JUMP JUMPDEST PUSH0 DUP3 DUP3 MSTORE PUSH1 0x20 DUP3 ADD SWAP1 POP SWAP3 SWAP2 POP POP JUMP JUMPDEST PUSH0 PUSH2 0x429D DUP3 PUSH2 0x372C JUMP JUMPDEST PUSH2 0x42A7 DUP2 DUP6 PUSH2 0x4283 JUMP JUMPDEST SWAP4 POP PUSH2 0x42B7 DUP2 DUP6 PUSH1 0x20 DUP7 ADD PUSH2 0x3746 JUMP JUMPDEST PUSH2 0x42C0 DUP2 PUSH2 0x376E JUMP JUMPDEST DUP5 ADD SWAP2 POP POP SWAP3 SWAP2 POP POP JUMP JUMPDEST PUSH2 0x42D4 DUP2 PUSH2 0x357A JUMP JUMPDEST DUP3 MSTORE POP POP JUMP JUMPDEST PUSH0 PUSH1 0x60 DUP4 ADD PUSH0 DUP4 ADD MLOAD DUP5 DUP3 SUB PUSH0 DUP7 ADD MSTORE PUSH2 0x42F4 DUP3 DUP3 PUSH2 0x4293 JUMP JUMPDEST SWAP2 POP POP PUSH1 0x20 DUP4 ADD MLOAD PUSH2 0x4309 PUSH1 0x20 DUP7 ADD DUP3 PUSH2 0x42CB JUMP JUMPDEST POP PUSH1 0x40 DUP4 ADD MLOAD PUSH2 0x431C PUSH1 0x40 DUP7 ADD DUP3 PUSH2 0x3CF8 JUMP JUMPDEST POP DUP1 SWAP2 POP POP SWAP3 SWAP2 POP POP JUMP JUMPDEST PUSH0 PUSH2 0x4332 DUP4 DUP4 PUSH2 0x42DA JUMP JUMPDEST SWAP1 POP SWAP3 SWAP2 POP POP JUMP JUMPDEST PUSH0 PUSH1 0x20 DUP3 ADD SWAP1 POP SWAP2 SWAP1 POP JUMP JUMPDEST PUSH0 PUSH2 0x4350 DUP3 PUSH2 0x425A JUMP JUMPDEST PUSH2 0x435A DUP2 DUP6 PUSH2 0x4264 JUMP JUMPDEST SWAP4 POP DUP4 PUSH1 0x20 DUP3 MUL DUP6 ADD PUSH2 0x436C DUP6 PUSH2 0x4274 JUMP JUMPDEST DUP1 PUSH0 JUMPDEST DUP6 DUP2 LT ISZERO PUSH2 0x43A7 JUMPI DUP5 DUP5 SUB DUP10 MSTORE DUP2 MLOAD PUSH2 0x4388 DUP6 DUP3 PUSH2 0x4327 JUMP JUMPDEST SWAP5 POP PUSH2 0x4393 DUP4 PUSH2 0x433A JUMP JUMPDEST SWAP3 POP PUSH1 0x20 DUP11 ADD SWAP10 POP POP PUSH1 0x1 DUP2 ADD SWAP1 POP PUSH2 0x436F JUMP JUMPDEST POP DUP3 SWAP8 POP DUP8 SWAP6 POP POP POP POP POP POP SWAP3 SWAP2 POP POP JUMP JUMPDEST PUSH0 PUSH1 0x20 DUP3 ADD SWAP1 POP DUP2 DUP2 SUB PUSH0 DUP4 ADD MSTORE PUSH2 0x43D1 DUP2 DUP5 PUSH2 0x4346 JUMP JUMPDEST SWAP1 POP SWAP3 SWAP2 POP POP JUMP JUMPDEST PUSH0 DUP1 PUSH1 0x40 DUP4 DUP6 SUB SLT ISZERO PUSH2 0x43EF JUMPI PUSH2 0x43EE PUSH2 0x3553 JUMP JUMPDEST JUMPDEST PUSH0 PUSH2 0x43FC DUP6 DUP3 DUP7 ADD PUSH2 0x35A1 JUMP JUMPDEST SWAP3 POP POP PUSH1 0x20 PUSH2 0x440D DUP6 DUP3 DUP7 ADD PUSH2 0x35A1 JUMP JUMPDEST SWAP2 POP POP SWAP3 POP SWAP3 SWAP1 POP JUMP JUMPDEST PUSH0 DUP1 PUSH0 DUP1 PUSH0 PUSH1 0xA0 DUP7 DUP9 SUB SLT ISZERO PUSH2 0x4430 JUMPI PUSH2 0x442F PUSH2 0x3553 JUMP JUMPDEST JUMPDEST PUSH0 PUSH2 0x443D DUP9 DUP3 DUP10 ADD PUSH2 0x35A1 JUMP JUMPDEST SWAP6 POP POP PUSH1 0x20 PUSH2 0x444E DUP9 DUP3 DUP10 ADD PUSH2 0x35A1 JUMP JUMPDEST SWAP5 POP POP PUSH1 0x40 PUSH2 0x445F DUP9 DUP3 DUP10 ADD PUSH2 0x35D4 JUMP JUMPDEST SWAP4 POP POP PUSH1 0x60 PUSH2 0x4470 DUP9 DUP3 DUP10 ADD PUSH2 0x35D4 JUMP JUMPDEST SWAP3 POP POP PUSH1 0x80 DUP7 ADD CALLDATALOAD PUSH8 0xFFFFFFFFFFFFFFFF DUP2 GT ISZERO PUSH2 0x4491 JUMPI PUSH2 0x4490 PUSH2 0x3557 JUMP JUMPDEST JUMPDEST PUSH2 0x449D DUP9 DUP3 DUP10 ADD PUSH2 0x3999 JUMP JUMPDEST SWAP2 POP POP SWAP3 SWAP6 POP SWAP3 SWAP6 SWAP1 SWAP4 POP JUMP JUMPDEST PUSH32 0x4E487B7100000000000000000000000000000000000000000000000000000000 PUSH0 MSTORE PUSH1 0x22 PUSH1 0x4 MSTORE PUSH1 0x24 PUSH0 REVERT JUMPDEST PUSH0 PUSH1 0x2 DUP3 DIV SWAP1 POP PUSH1 0x1 DUP3 AND DUP1 PUSH2 0x44EE JUMPI PUSH1 0x7F DUP3 AND SWAP2 POP JUMPDEST PUSH1 0x20 DUP3 LT DUP2 SUB PUSH2 0x4501 JUMPI PUSH2 0x4500 PUSH2 0x44AA JUMP JUMPDEST JUMPDEST POP SWAP2 SWAP1 POP JUMP JUMPDEST PUSH2 0x4510 DUP2 PUSH2 0x357A JUMP JUMPDEST DUP3 MSTORE POP POP JUMP JUMPDEST PUSH0 PUSH1 0x40 DUP3 ADD SWAP1 POP PUSH2 0x4529 PUSH0 DUP4 ADD DUP6 PUSH2 0x4507 JUMP JUMPDEST PUSH2 0x4536 PUSH1 0x20 DUP4 ADD DUP5 PUSH2 0x4507 JUMP JUMPDEST SWAP4 SWAP3 POP POP POP JUMP JUMPDEST PUSH32 0x4E487B7100000000000000000000000000000000000000000000000000000000 PUSH0 MSTORE PUSH1 0x32 PUSH1 0x4 MSTORE PUSH1 0x24 PUSH0 REVERT JUMPDEST PUSH32 0x4E487B7100000000000000000000000000000000000000000000000000000000 PUSH0 MSTORE PUSH1 0x11 PUSH1 0x4 MSTORE PUSH1 0x24 PUSH0 REVERT JUMPDEST PUSH0 PUSH2 0x45A1 DUP3 PUSH2 0x35B5 JUMP JUMPDEST SWAP2 POP PUSH2 0x45AC DUP4 PUSH2 0x35B5 JUMP JUMPDEST SWAP3 POP DUP3 DUP3 SUB SWAP1 POP DUP2 DUP2 GT ISZERO PUSH2 0x45C4 JUMPI PUSH2 0x45C3 PUSH2 0x456A JUMP JUMPDEST JUMPDEST SWAP3 SWAP2 POP POP JUMP JUMPDEST PUSH0 DUP2 SWAP1 POP DUP2 PUSH0 MSTORE PUSH1 0x20 PUSH0 KECCAK256 SWAP1 POP SWAP2 SWAP1 POP JUMP JUMPDEST PUSH0 PUSH1 0x20 PUSH1 0x1F DUP4 ADD DIV SWAP1 POP SWAP2 SWAP1 POP JUMP JUMPDEST PUSH0 DUP3 DUP3 SHL SWAP1 POP SWAP3 SWAP2 POP POP JUMP JUMPDEST PUSH0 PUSH1 0x8 DUP4 MUL PUSH2 0x4626 PUSH32 0xFFFFFFFFFFFFFFFFFFFFFFFFFFFFFFFFFFFFFFFFFFFFFFFFFFFFFFFFFFFFFFFF DUP3 PUSH2 0x45EB JUMP JUMPDEST PUSH2 0x4630 DUP7 DUP4 PUSH2 0x45EB JUMP JUMPDEST SWAP6 POP DUP1 NOT DUP5 AND SWAP4 POP DUP1 DUP7 AND DUP5 OR SWAP3 POP POP POP SWAP4 SWAP3 POP POP POP JUMP JUMPDEST PUSH0 DUP2 SWAP1 POP SWAP2 SWAP1 POP JUMP JUMPDEST PUSH0 PUSH2 0x466B PUSH2 0x4666 PUSH2 0x4661 DUP5 PUSH2 0x35B5 JUMP JUMPDEST PUSH2 0x4648 JUMP JUMPDEST PUSH2 0x35B5 JUMP JUMPDEST SWAP1 POP SWAP2 SWAP1 POP JUMP JUMPDEST PUSH0 DUP2 SWAP1 POP SWAP2 SWAP1 POP JUMP JUMPDEST PUSH2 0x4684 DUP4 PUSH2 0x4651 JUMP JUMPDEST PUSH2 0x4698 PUSH2 0x4690 DUP3 PUSH2 0x4672 JUMP JUMPDEST DUP5 DUP5 SLOAD PUSH2 0x45F7 JUMP JUMPDEST DUP3 SSTORE POP POP POP POP JUMP JUMPDEST PUSH0 SWAP1 JUMP JUMPDEST PUSH2 0x46AC PUSH2 0x46A0 JUMP JUMPDEST PUSH2 0x46B7 DUP2 DUP5 DUP5 PUSH2 0x467B JUMP JUMPDEST POP POP POP JUMP JUMPDEST JUMPDEST DUP2 DUP2 LT ISZERO PUSH2 0x46DA JUMPI PUSH2 0x46CF PUSH0 DUP3 PUSH2 0x46A4 JUMP JUMPDEST PUSH1 0x1 DUP2 ADD SWAP1 POP PUSH2 0x46BD JUMP JUMPDEST POP POP JUMP JUMPDEST PUSH1 0x1F DUP3 GT ISZERO PUSH2 0x471F JUMPI PUSH2 0x46F0 DUP2 PUSH2 0x45CA JUMP JUMPDEST PUSH2 0x46F9 DUP5 PUSH2 0x45DC JUMP JUMPDEST DUP2 ADD PUSH1 0x20 DUP6 LT ISZERO PUSH2 0x4708 JUMPI DUP2 SWAP1 POP JUMPDEST PUSH2 0x471C PUSH2 0x4714 DUP6 PUSH2 0x45DC JUMP JUMPDEST DUP4 ADD DUP3 PUSH2 0x46BC JUMP JUMPDEST POP POP JUMPDEST POP POP POP JUMP JUMPDEST PUSH0 DUP3 DUP3 SHR SWAP1 POP SWAP3 SWAP2 POP POP JUMP JUMPDEST PUSH0 PUSH2 0x473F PUSH0 NOT DUP5 PUSH1 0x8 MUL PUSH2 0x4724 JUMP JUMPDEST NOT DUP1 DUP4 AND SWAP2 POP POP SWAP3 SWAP2 POP POP JUMP JUMPDEST PUSH0 PUSH2 0x4757 DUP4 DUP4 PUSH2 0x4730 JUMP JUMPDEST SWAP2 POP DUP3 PUSH1 0x2 MUL DUP3 OR SWAP1 POP SWAP3 SWAP2 POP POP JUMP JUMPDEST PUSH2 0x4770 DUP3 PUSH2 0x372C JUMP JUMPDEST PUSH8 0xFFFFFFFFFFFFFFFF DUP2 GT ISZERO PUSH2 0x4789 JUMPI PUSH2 0x4788 PUSH2 0x37DA JUMP JUMPDEST JUMPDEST PUSH2 0x4793 DUP3 SLOAD PUSH2 0x44D7 JUMP JUMPDEST PUSH2 0x479E DUP3 DUP3 DUP6 PUSH2 0x46DE JUMP JUMPDEST PUSH0 PUSH1 0x20 SWAP1 POP PUSH1 0x1F DUP4 GT PUSH1 0x1 DUP2 EQ PUSH2 0x47CF JUMPI PUSH0 DUP5 ISZERO PUSH2 0x47BD JUMPI DUP3 DUP8 ADD MLOAD SWAP1 POP JUMPDEST PUSH2 0x47C7 DUP6 DUP3 PUSH2 0x474C JUMP JUMPDEST DUP7 SSTORE POP PUSH2 0x482E JUMP JUMPDEST PUSH1 0x1F NOT DUP5 AND PUSH2 0x47DD DUP7 PUSH2 0x45CA JUMP JUMPDEST PUSH0 JUMPDEST DUP3 DUP2 LT ISZERO PUSH2 0x4804 JUMPI DUP5 DUP10 ADD MLOAD DUP3 SSTORE PUSH1 0x1 DUP3 ADD SWAP2 POP PUSH1 0x20 DUP6 ADD SWAP5 POP PUSH1 0x20 DUP2 ADD SWAP1 POP PUSH2 0x47DF JUMP JUMPDEST DUP7 DUP4 LT ISZERO PUSH2 0x4821 JUMPI DUP5 DUP10 ADD MLOAD PUSH2 0x481D PUSH1 0x1F DUP10 AND DUP3 PUSH2 0x4730 JUMP JUMPDEST DUP4 SSTORE POP JUMPDEST PUSH1 0x1 PUSH1 0x2 DUP9 MUL ADD DUP9 SSTORE POP POP POP JUMPDEST POP POP POP POP POP POP JUMP JUMPDEST PUSH0 DUP1 REVERT JUMPDEST PUSH0 DUP1 REVERT JUMPDEST PUSH0 DUP1 DUP6 DUP6 GT ISZERO PUSH2 0x4851 JUMPI PUSH2 0x4850 PUSH2 0x4836 JUMP JUMPDEST JUMPDEST DUP4 DUP7 GT ISZERO PUSH2 0x4862 JUMPI PUSH2 0x4861 PUSH2 0x483A JUMP JUMPDEST JUMPDEST PUSH1 0x1 DUP6 MUL DUP4 ADD SWAP2 POP DUP5 DUP7 SUB SWAP1 POP SWAP5 POP SWAP5 SWAP3 POP POP POP JUMP JUMPDEST PUSH32 0x50524F46492D0000000000000000000000000000000000000000000000000000 DUP2 MSTORE POP JUMP JUMPDEST PUSH0 DUP2 SWAP1 POP SWAP3 SWAP2 POP POP JUMP JUMPDEST PUSH0 PUSH2 0x48B3 DUP4 DUP6 PUSH2 0x489E JUMP JUMPDEST SWAP4 POP PUSH2 0x48C0 DUP4 DUP6 DUP5 PUSH2 0x394A JUMP JUMPDEST DUP3 DUP5 ADD SWAP1 POP SWAP4 SWAP3 POP POP POP JUMP JUMPDEST PUSH32 0x3230323400000000000000000000000000000000000000000000000000000000 DUP2 MSTORE POP JUMP JUMPDEST PUSH0 PUSH2 0x48FC DUP3 PUSH2 0x4878 JUMP JUMPDEST PUSH1 0x6 DUP3 ADD SWAP2 POP PUSH2 0x490D DUP3 DUP5 DUP7 PUSH2 0x48A8 JUMP JUMPDEST SWAP2 POP PUSH2 0x4918 DUP3 PUSH2 0x48CC JUMP JUMPDEST PUSH1 0x4 DUP3 ADD SWAP2 POP DUP2 SWAP1 POP SWAP4 SWAP3 POP POP POP JUMP JUMPDEST PUSH0 PUSH2 0x4932 DUP3 PUSH2 0x372C JUMP JUMPDEST PUSH2 0x493C DUP2 DUP6 PUSH2 0x489E JUMP JUMPDEST SWAP4 POP PUSH2 0x494C DUP2 DUP6 PUSH1 0x20 DUP7 ADD PUSH2 0x3746 JUMP JUMPDEST DUP1 DUP5 ADD SWAP2 POP POP SWAP3 SWAP2 POP POP JUMP JUMPDEST PUSH0 PUSH2 0x4963 DUP3 DUP5 PUSH2 0x4928 JUMP JUMPDEST SWAP2 POP DUP2 SWAP1 POP SWAP3 SWAP2 POP POP JUMP JUMPDEST PUSH32 0xD092D18B20D183D0B6D0B520D181D0BED0B7D0B4D0B0D0BBD0B820D180D0B5D1 PUSH0 DUP3 ADD MSTORE PUSH32 0x84D0B5D180D0B0D0BB0000000000000000000000000000000000000000000000 PUSH1 0x20 DUP3 ADD MSTORE POP JUMP JUMPDEST PUSH0 PUSH2 0x49C8 PUSH1 0x29 DUP4 PUSH2 0x3736 JUMP JUMPDEST SWAP2 POP PUSH2 0x49D3 DUP3 PUSH2 0x496E JUMP JUMPDEST PUSH1 0x40 DUP3 ADD SWAP1 POP SWAP2 SWAP1 POP JUMP JUMPDEST PUSH0 PUSH1 0x20 DUP3 ADD SWAP1 POP DUP2 DUP2 SUB PUSH0 DUP4 ADD MSTORE PUSH2 0x49F5 DUP2 PUSH2 0x49BC JUMP JUMPDEST SWAP1 POP SWAP2 SWAP1 POP JUMP JUMPDEST PUSH0 PUSH1 0x40 DUP3 ADD SWAP1 POP PUSH2 0x4A0F PUSH0 DUP4 ADD DUP6 PUSH2 0x3626 JUMP JUMPDEST PUSH2 0x4A1C PUSH1 0x20 DUP4 ADD DUP5 PUSH2 0x3626 JUMP JUMPDEST SWAP4 SWAP3 POP POP POP JUMP JUMPDEST PUSH0 PUSH2 0x4A2D DUP3 PUSH2 0x35B5 JUMP JUMPDEST SWAP2 POP PUSH2 0x4A38 DUP4 PUSH2 0x35B5 JUMP JUMPDEST SWAP3 POP DUP3 DUP3 MUL PUSH2 0x4A46 DUP2 PUSH2 0x35B5 JUMP JUMPDEST SWAP2 POP DUP3 DUP3 DIV DUP5 EQ DUP4 ISZERO OR PUSH2 0x4A5D JUMPI PUSH2 0x4A5C PUSH2 0x456A JUMP JUMPDEST JUMPDEST POP SWAP3 SWAP2 POP POP JUMP JUMPDEST PUSH32 0x4E487B7100000000000000000000000000000000000000000000000000000000 PUSH0 MSTORE PUSH1 0x12 PUSH1 0x4 MSTORE PUSH1 0x24 PUSH0 REVERT JUMPDEST PUSH0 PUSH2 0x4A9B DUP3 PUSH2 0x35B5 JUMP JUMPDEST SWAP2 POP PUSH2 0x4AA6 DUP4 PUSH2 0x35B5 JUMP JUMPDEST SWAP3 POP DUP3 PUSH2 0x4AB6 JUMPI PUSH2 0x4AB5 PUSH2 0x4A64 JUMP JUMPDEST JUMPDEST DUP3 DUP3 DIV SWAP1 POP SWAP3 SWAP2 POP POP JUMP JUMPDEST PUSH32 0xD092D18B20D0BFD18BD182D0B0D0B5D182D0B5D181D18C20D0BAD183D0BFD0B8 PUSH0 DUP3 ADD MSTORE PUSH32 0xD182D18C20D0B1D0BED0BBD18CD188D0B52C20D187D0B5D0BC20D0B5D181D182 PUSH1 0x20 DUP3 ADD MSTORE PUSH32 0xD18C000000000000000000000000000000000000000000000000000000000000 PUSH1 0x40 DUP3 ADD MSTORE POP JUMP JUMPDEST PUSH0 PUSH2 0x4B41 PUSH1 0x42 DUP4 PUSH2 0x3736 JUMP JUMPDEST SWAP2 POP PUSH2 0x4B4C DUP3 PUSH2 0x4AC1 JUMP JUMPDEST PUSH1 0x60 DUP3 ADD SWAP1 POP SWAP2 SWAP1 POP JUMP JUMPDEST PUSH0 PUSH1 0x20 DUP3 ADD SWAP1 POP DUP2 DUP2 SUB PUSH0 DUP4 ADD MSTORE PUSH2 0x4B6E DUP2 PUSH2 0x4B35 JUMP JUMPDEST SWAP1 POP SWAP2 SWAP1 POP JUMP JUMPDEST PUSH0 PUSH1 0x60 DUP3 ADD SWAP1 POP PUSH2 0x4B88 PUSH0 DUP4 ADD DUP7 PUSH2 0x4507 JUMP JUMPDEST PUSH2 0x4B95 PUSH1 0x20 DUP4 ADD DUP6 PUSH2 0x4507 JUMP JUMPDEST PUSH2 0x4BA2 PUSH1 0x40 DUP4 ADD DUP5 PUSH2 0x3626 JUMP JUMPDEST SWAP5 SWAP4 POP POP POP POP JUMP JUMPDEST PUSH32 0xD0A2D0BED0BBD18CD0BAD0BE20D0B2D0BBD0B0D0B4D0B5D0BBD0B5D18620D0BC PUSH0 DUP3 ADD MSTORE PUSH32 0xD0BED0B6D0B5D18220D18DD182D0BE20D0B8D181D0BFD0BED0BBD18CD0B7D0BE PUSH1 0x20 DUP3 ADD MSTORE PUSH32 0xD0B2D0B0D182D18C000000000000000000000000000000000000000000000000 PUSH1 0x40 DUP3 ADD MSTORE POP JUMP JUMPDEST PUSH0 PUSH2 0x4C2A PUSH1 0x48 DUP4 PUSH2 0x3736 JUMP JUMPDEST SWAP2 POP PUSH2 0x4C35 DUP3 PUSH2 0x4BAA JUMP JUMPDEST PUSH1 0x60 DUP3 ADD SWAP1 POP SWAP2 SWAP1 POP JUMP JUMPDEST PUSH0 PUSH1 0x20 DUP3 ADD SWAP1 POP DUP2 DUP2 SUB PUSH0 DUP4 ADD MSTORE PUSH2 0x4C57 DUP2 PUSH2 0x4C1E JUMP JUMPDEST SWAP1 POP SWAP2 SWAP1 POP JUMP JUMPDEST PUSH32 0xD09AD0BED0BBD0BBD0B5D0BAD186D0B8D18F20D18120D182D0B0D0BAD0B8D0BC PUSH0 DUP3 ADD MSTORE PUSH32 0x20696420D183D0B6D0B520D181D183D189D0B5D181D182D0B2D183D0B5D18200 PUSH1 0x20 DUP3 ADD MSTORE POP JUMP JUMPDEST PUSH0 PUSH2 0x4CB8 PUSH1 0x3F DUP4 PUSH2 0x3736 JUMP JUMPDEST SWAP2 POP PUSH2 0x4CC3 DUP3 PUSH2 0x4C5E JUMP JUMPDEST PUSH1 0x40 DUP3 ADD SWAP1 POP SWAP2 SWAP1 POP JUMP JUMPDEST PUSH0 PUSH1 0x20 DUP3 ADD SWAP1 POP DUP2 DUP2 SUB PUSH0 DUP4 ADD MSTORE PUSH2 0x4CE5 DUP2 PUSH2 0x4CAC JUMP JUMPDEST SWAP1 POP SWAP2 SWAP1 POP JUMP JUMPDEST PUSH32 0xD0A320D0B2D0B0D18120D0BDD0B5D0B4D0BED181D182D0B0D182D0BED187D0BD PUSH0 DUP3 ADD MSTORE PUSH32 0xD0BE204E46540000000000000000000000000000000000000000000000000000 PUSH1 0x20 DUP3 ADD MSTORE POP JUMP JUMPDEST PUSH0 PUSH2 0x4D46 PUSH1 0x26 DUP4 PUSH2 0x3736 JUMP JUMPDEST SWAP2 POP PUSH2 0x4D51 DUP3 PUSH2 0x4CEC JUMP JUMPDEST PUSH1 0x40 DUP3 ADD SWAP1 POP SWAP2 SWAP1 POP JUMP JUMPDEST PUSH0 PUSH1 0x20 DUP3 ADD SWAP1 POP DUP2 DUP2 SUB PUSH0 DUP4 ADD MSTORE PUSH2 0x4D73 DUP2 PUSH2 0x4D3A JUMP JUMPDEST SWAP1 POP SWAP2 SWAP1 POP JUMP JUMPDEST PUSH32 0x4E465420D18120D182D0B0D0BAD0B8D0BC20696420D183D0B6D0B520D0B5D181 PUSH0 DUP3 ADD MSTORE PUSH32 0xD182D18C20D0B220D181D0B8D181D182D0B5D0BCD0B500000000000000000000 PUSH1 0x20 DUP3 ADD MSTORE POP JUMP JUMPDEST PUSH0 PUSH2 0x4DD4 PUSH1 0x36 DUP4 PUSH2 0x3736 JUMP JUMPDEST SWAP2 POP PUSH2 0x4DDF DUP3 PUSH2 0x4D7A JUMP JUMPDEST PUSH1 0x40 DUP3 ADD SWAP1 POP SWAP2 SWAP1 POP JUMP JUMPDEST PUSH0 PUSH1 0x20 DUP3 ADD SWAP1 POP DUP2 DUP2 SUB PUSH0 DUP4 ADD MSTORE PUSH2 0x4E01 DUP2 PUSH2 0x4DC8 JUMP JUMPDEST SWAP1 POP SWAP2 SWAP1 POP JUMP JUMPDEST PUSH32 0xD0ADD182D0BE20D0BDD0B520D0B2D0B0D18820D0BBD0BED18200000000000000 PUSH0 DUP3 ADD MSTORE POP JUMP JUMPDEST PUSH0 PUSH2 0x4E3C PUSH1 0x19 DUP4 PUSH2 0x3736 JUMP JUMPDEST SWAP2 POP PUSH2 0x4E47 DUP3 PUSH2 0x4E08 JUMP JUMPDEST PUSH1 0x20 DUP3 ADD SWAP1 POP SWAP2 SWAP1 POP JUMP JUMPDEST PUSH0 PUSH1 0x20 DUP3 ADD SWAP1 POP DUP2 DUP2 SUB PUSH0 DUP4 ADD MSTORE PUSH2 0x4E69 DUP2 PUSH2 0x4E30 JUMP JUMPDEST SWAP1 POP SWAP2 SWAP1 POP JUMP JUMPDEST PUSH32 0xD090D183D0BAD186D0B8D0BED0BD20D18120D182D0B0D0BAD0BED0B920D0BAD0 PUSH0 DUP3 ADD MSTORE PUSH32 0xBED0BBD0BBD0B5D0BAD186D0B8D0B5D0B920D183D0B6D0B520D0B7D0B0D0BFD1 PUSH1 0x20 DUP3 ADD MSTORE PUSH32 0x83D189D0B5D0BD00000000000000000000000000000000000000000000000000 PUSH1 0x40 DUP3 ADD MSTORE POP JUMP JUMPDEST PUSH0 PUSH2 0x4EF0 PUSH1 0x47 DUP4 PUSH2 0x3736 JUMP JUMPDEST SWAP2 POP PUSH2 0x4EFB DUP3 PUSH2 0x4E70 JUMP JUMPDEST PUSH1 0x60 DUP3 ADD SWAP1 POP SWAP2 SWAP1 POP JUMP JUMPDEST PUSH0 PUSH1 0x20 DUP3 ADD SWAP1 POP DUP2 DUP2 SUB PUSH0 DUP4 ADD MSTORE PUSH2 0x4F1D DUP2 PUSH2 0x4EE4 JUMP JUMPDEST SWAP1 POP SWAP2 SWAP1 POP JUMP JUMPDEST PUSH0 DUP2 SLOAD PUSH2 0x4F30 DUP2 PUSH2 0x44D7 JUMP JUMPDEST PUSH2 0x4F3A DUP2 DUP7 PUSH2 0x489E JUMP JUMPDEST SWAP5 POP PUSH1 0x1 DUP3 AND PUSH0 DUP2 EQ PUSH2 0x4F54 JUMPI PUSH1 0x1 DUP2 EQ PUSH2 0x4F69 JUMPI PUSH2 0x4F9B JUMP JUMPDEST PUSH1 0xFF NOT DUP4 AND DUP7 MSTORE DUP2 ISZERO ISZERO DUP3 MUL DUP7 ADD SWAP4 POP PUSH2 0x4F9B JUMP JUMPDEST PUSH2 0x4F72 DUP6 PUSH2 0x45CA JUMP JUMPDEST PUSH0 JUMPDEST DUP4 DUP2 LT ISZERO PUSH2 0x4F93 JUMPI DUP2 SLOAD DUP2 DUP10 ADD MSTORE PUSH1 0x1 DUP3 ADD SWAP2 POP PUSH1 0x20 DUP2 ADD SWAP1 POP PUSH2 0x4F74 JUMP JUMPDEST DUP4 DUP9 ADD SWAP6 POP POP POP JUMPDEST POP POP POP SWAP3 SWAP2 POP POP JUMP JUMPDEST PUSH0 PUSH2 0x4FAF DUP3 DUP5 PUSH2 0x4F24 JUMP JUMPDEST SWAP2 POP DUP2 SWAP1 POP SWAP3 SWAP2 POP POP JUMP JUMPDEST PUSH32 0xD0A2D0B0D0BAD0BED0B3D0BE20D180D0B5D184D0B5D180D0B0D0BBD18CD0BDD0 PUSH0 DUP3 ADD MSTORE PUSH32 0xBED0B3D0BE20D0BAD0BED0B4D0B020D0BDD0B5D18220D0B220D181D0B8D181D1 PUSH1 0x20 DUP3 ADD MSTORE PUSH32 0x82D0B5D0BCD0B500000000000000000000000000000000000000000000000000 PUSH1 0x40 DUP3 ADD MSTORE POP JUMP JUMPDEST PUSH0 PUSH2 0x503A PUSH1 0x47 DUP4 PUSH2 0x3736 JUMP JUMPDEST SWAP2 POP PUSH2 0x5045 DUP3 PUSH2 0x4FBA JUMP JUMPDEST PUSH1 0x60 DUP3 ADD SWAP1 POP SWAP2 SWAP1 POP JUMP JUMPDEST PUSH0 PUSH1 0x20 DUP3 ADD SWAP1 POP DUP2 DUP2 SUB PUSH0 DUP4 ADD MSTORE PUSH2 0x5067 DUP2 PUSH2 0x502E JUMP JUMPDEST SWAP1 POP SWAP2 SWAP1 POP JUMP JUMPDEST PUSH32 0xD092D18B20D183D0B6D0B520D0B8D181D0BFD0BED0BBD18CD0B7D0BED0B2D0B0 PUSH0 DUP3 ADD MSTORE PUSH32 0xD0BBD0B820D0BAD0BED0B4000000000000000000000000000000000000000000 PUSH1 0x20 DUP3 ADD MSTORE POP JUMP JUMPDEST PUSH0 PUSH2 0x50C8 PUSH1 0x2B DUP4 PUSH2 0x3736 JUMP JUMPDEST SWAP2 POP PUSH2 0x50D3 DUP3 PUSH2 0x506E JUMP JUMPDEST PUSH1 0x40 DUP3 ADD SWAP1 POP SWAP2 SWAP1 POP JUMP JUMPDEST PUSH0 PUSH1 0x20 DUP3 ADD SWAP1 POP DUP2 DUP2 SUB PUSH0 DUP4 ADD MSTORE PUSH2 0x50F5 DUP2 PUSH2 0x50BC JUMP JUMPDEST SWAP1 POP SWAP2 SWAP1 POP JUMP JUMPDEST PUSH0 PUSH2 0x5106 DUP3 PUSH2 0x35B5 JUMP JUMPDEST SWAP2 POP PUSH2 0x5111 DUP4 PUSH2 0x35B5 JUMP JUMPDEST SWAP3 POP DUP3 DUP3 ADD SWAP1 POP DUP1 DUP3 GT ISZERO PUSH2 0x5129 JUMPI PUSH2 0x5128 PUSH2 0x456A JUMP JUMPDEST JUMPDEST SWAP3 SWAP2 POP POP JUMP JUMPDEST PUSH0 PUSH1 0x20 DUP3 ADD SWAP1 POP PUSH2 0x5142 PUSH0 DUP4 ADD DUP5 PUSH2 0x4507 JUMP JUMPDEST SWAP3 SWAP2 POP POP JUMP JUMPDEST PUSH0 PUSH1 0x80 DUP3 ADD SWAP1 POP PUSH2 0x515B PUSH0 DUP4 ADD DUP8 PUSH2 0x4507 JUMP JUMPDEST PUSH2 0x5168 PUSH1 0x20 DUP4 ADD DUP7 PUSH2 0x3626 JUMP JUMPDEST PUSH2 0x5175 PUSH1 0x40 DUP4 ADD DUP6 PUSH2 0x3626 JUMP JUMPDEST PUSH2 0x5182 PUSH1 0x60 DUP4 ADD DUP5 PUSH2 0x3626 JUMP JUMPDEST SWAP6 SWAP5 POP POP POP POP POP JUMP JUMPDEST PUSH0 PUSH1 0x40 DUP3 ADD SWAP1 POP DUP2 DUP2 SUB PUSH0 DUP4 ADD MSTORE PUSH2 0x51A3 DUP2 DUP6 PUSH2 0x3D2A JUMP JUMPDEST SWAP1 POP DUP2 DUP2 SUB PUSH1 0x20 DUP4 ADD MSTORE PUSH2 0x51B7 DUP2 DUP5 PUSH2 0x3D2A JUMP JUMPDEST SWAP1 POP SWAP4 SWAP3 POP POP POP JUMP JUMPDEST PUSH0 DUP2 MLOAD SWAP1 POP SWAP2 SWAP1 POP JUMP JUMPDEST PUSH0 DUP3 DUP3 MSTORE PUSH1 0x20 DUP3 ADD SWAP1 POP SWAP3 SWAP2 POP POP JUMP JUMPDEST PUSH0 PUSH2 0x51E4 DUP3 PUSH2 0x51C0 JUMP JUMPDEST PUSH2 0x51EE DUP2 DUP6 PUSH2 0x51CA JUMP JUMPDEST SWAP4 POP PUSH2 0x51FE DUP2 DUP6 PUSH1 0x20 DUP7 ADD PUSH2 0x3746 JUMP JUMPDEST PUSH2 0x5207 DUP2 PUSH2 0x376E JUMP JUMPDEST DUP5 ADD SWAP2 POP POP SWAP3 SWAP2 POP POP JUMP JUMPDEST PUSH0 PUSH1 0xA0 DUP3 ADD SWAP1 POP PUSH2 0x5225 PUSH0 DUP4 ADD DUP9 PUSH2 0x4507 JUMP JUMPDEST PUSH2 0x5232 PUSH1 0x20 DUP4 ADD DUP8 PUSH2 0x4507 JUMP JUMPDEST PUSH2 0x523F PUSH1 0x40 DUP4 ADD DUP7 PUSH2 0x3626 JUMP JUMPDEST PUSH2 0x524C PUSH1 0x60 DUP4 ADD DUP6 PUSH2 0x3626 JUMP JUMPDEST DUP2 DUP2 SUB PUSH1 0x80 DUP4 ADD MSTORE PUSH2 0x525E DUP2 DUP5 PUSH2 0x51DA JUMP JUMPDEST SWAP1 POP SWAP7 SWAP6 POP POP POP POP POP POP JUMP JUMPDEST PUSH0 DUP2 MLOAD SWAP1 POP PUSH2 0x5278 DUP2 PUSH2 0x3679 JUMP JUMPDEST SWAP3 SWAP2 POP POP JUMP JUMPDEST PUSH0 PUSH1 0x20 DUP3 DUP5 SUB SLT ISZERO PUSH2 0x5293 JUMPI PUSH2 0x5292 PUSH2 0x3553 JUMP JUMPDEST JUMPDEST PUSH0 PUSH2 0x52A0 DUP5 DUP3 DUP6 ADD PUSH2 0x526A JUMP JUMPDEST SWAP2 POP POP SWAP3 SWAP2 POP POP JUMP JUMPDEST PUSH0 PUSH1 0xA0 DUP3 ADD SWAP1 POP PUSH2 0x52BC PUSH0 DUP4 ADD DUP9 PUSH2 0x4507 JUMP JUMPDEST PUSH2 0x52C9 PUSH1 0x20 DUP4 ADD DUP8 PUSH2 0x4507 JUMP JUMPDEST DUP2 DUP2 SUB PUSH1 0x40 DUP4 ADD MSTORE PUSH2 0x52DB DUP2 DUP7 PUSH2 0x3D2A JUMP JUMPDEST SWAP1 POP DUP2 DUP2 SUB PUSH1 0x60 DUP4 ADD MSTORE PUSH2 0x52EF DUP2 DUP6 PUSH2 0x3D2A JUMP JUMPDEST SWAP1 POP DUP2 DUP2 SUB PUSH1 0x80 DUP4 ADD MSTORE PUSH2 0x5303 DUP2 DUP5 PUSH2 0x51DA JUMP JUMPDEST SWAP1 POP SWAP7 SWAP6 POP POP POP POP POP POP JUMP INVALID LOG2 PUSH5 0x6970667358 0x22 SLT KECCAK256 SWAP11 PUSH20 0xF6EF234266EA6F1C20D68FCA2B16BBBABE2A6D9D PUSH10 0xF5F3DD8ECC555F780D64 PUSH20 0x6F6C63430008160033D09FD183D0B7D18BD180D0 0xB8 0xD0 0xBA KECCAK256 0xD0 0xBF 0xD0 0xBE 0xD1 DUP6 0xD0 0xB8 0xD1 DUP3 0xD0 0xB8 0xD0 0xBB KECCAK256 0xD0 0xBA 0xD0 0xBE 0xD1 DUP3 0xD0 0xB8 0xD0 0xBA 0xD0 0xB0 KECCAK256 0xD1 DUP2 KECCAK256 0xD0 SWAP8 0xD0 0xB5 0xD0 0xBC 0xD0 0xBB 0xD0 0xB8 0xD0 SWAP11 0xD0 0xBE 0xD0 0xBC 0xD0 0xBE 0xD1 DUP8 0xD0 0xB5 0xD0 0xBA KECCAK256 0xD1 DUP2 0xD0 0xBB 0xD0 0xB8 0xD0 0xBB 0xD1 DUP2 0xD1 DUP16 KECCAK256 0xD1 DUP2 KECCAK256 0xD0 0xBA 0xD0 0xBE 0xD1 DUP2 0xD0 0xBC 0xD0 0xBE 0xD1 DUP2 0xD0 0xBE 0xD0 0xBC 0xD0 SWAP3 0xD0 0xBA 0xD1 DUP4 0xD1 DUP2 0xD0 0xBD 0xD1 DUP16 0xD1 DUP9 0xD0 0xBA 0xD0 0xB0 KECCAK256 0xD0 0xB2 0xD0 0xBF 0xD0 0xB5 0xD1 DUP1 0xD0 0xB2 0xD1 DUP12 0xD0 0xB5 KECCAK256 0xD0 0xBF 0xD1 DUP1 0xD0 0xBE 0xD0 0xB1 0xD1 DUP4 0xD0 0xB5 0xD1 DUP3 KECCAK256 0xD1 DUP16 0xD0 0xBF 0xD0 0xBE 0xD0 0xBD 0xD1 DUP2 0xD0 0xBA 0xD1 DUP4 0xD1 DUP15 KECCAK256 0xD0 0xBA 0xD1 DUP4 0xD1 DUP6 0xD0 0xBD 0xD1 DUP15 "
		},
		"gasEstimates": {
			"creation": {
				"codeDepositCost": "4263400",
				"executionCost": "infinite",
				"totalCost": "infinite"
			},
			"external": {
				"balanceOf(address,uint256)": "infinite",
				"balanceOfBatch(address[],uint256[])": "infinite",
				"buyAsset(uint256,uint256,uint256)": "infinite",
				"changeSellPrice(uint256,uint256)": "infinite",
				"createAsset(uint256,string,string,string,uint256,uint256,uint256)": "infinite",
				"createCollection(uint256,string,string,uint256[],uint256[])": "infinite",
				"createRef(string)": "infinite",
				"getReferrals()": "infinite",
				"isApprovedForAll(address,address)": "infinite",
				"safeBatchTransferFrom(address,address,uint256[],uint256[],bytes)": "infinite",
				"safeTransferFrom(address,address,uint256,uint256,bytes)": "infinite",
				"sellAsset(uint256,uint256,uint256,uint256)": "infinite",
				"setApprovalForAll(address,bool)": "infinite",
				"startAuc(uint256,uint256,uint256,uint256,uint256,address,uint256)": "infinite",
				"supportsInterface(bytes4)": "809",
				"transferAsset(uint256,uint256,address,uint256)": "infinite",
				"uri(uint256)": "infinite",
				"useReferral(string)": "infinite"
			}
		},
		"methodIdentifiers": {
			"balanceOf(address,uint256)": "00fdd58e",
			"balanceOfBatch(address[],uint256[])": "4e1273f4",
			"buyAsset(uint256,uint256,uint256)": "68dadec2",
			"changeSellPrice(uint256,uint256)": "90420aee",
			"createAsset(uint256,string,string,string,uint256,uint256,uint256)": "845c54f6",
			"createCollection(uint256,string,string,uint256[],uint256[])": "694f82b4",
			"createRef(string)": "4dad2aab",
			"getReferrals()": "a2a376cd",
			"isApprovedForAll(address,address)": "e985e9c5",
			"safeBatchTransferFrom(address,address,uint256[],uint256[],bytes)": "2eb2c2d6",
			"safeTransferFrom(address,address,uint256,uint256,bytes)": "f242432a",
			"sellAsset(uint256,uint256,uint256,uint256)": "7ba9165c",
			"setApprovalForAll(address,bool)": "a22cb465",
			"startAuc(uint256,uint256,uint256,uint256,uint256,address,uint256)": "958828e3",
			"supportsInterface(bytes4)": "01ffc9a7",
			"transferAsset(uint256,uint256,address,uint256)": "3aacc912",
			"uri(uint256)": "0e89341c",
			"useReferral(string)": "97f588c6"
		}
	},
	"abi": [
		{
			"inputs": [
				{
					"internalType": "address",
					"name": "_contractAddress",
					"type": "address"
				}
			],
			"stateMutability": "nonpayable",
			"type": "constructor"
		},
		{
			"inputs": [
				{
					"internalType": "address",
					"name": "sender",
					"type": "address"
				},
				{
					"internalType": "uint256",
					"name": "balance",
					"type": "uint256"
				},
				{
					"internalType": "uint256",
					"name": "needed",
					"type": "uint256"
				},
				{
					"internalType": "uint256",
					"name": "tokenId",
					"type": "uint256"
				}
			],
			"name": "ERC1155InsufficientBalance",
			"type": "error"
		},
		{
			"inputs": [
				{
					"internalType": "address",
					"name": "approver",
					"type": "address"
				}
			],
			"name": "ERC1155InvalidApprover",
			"type": "error"
		},
		{
			"inputs": [
				{
					"internalType": "uint256",
					"name": "idsLength",
					"type": "uint256"
				},
				{
					"internalType": "uint256",
					"name": "valuesLength",
					"type": "uint256"
				}
			],
			"name": "ERC1155InvalidArrayLength",
			"type": "error"
		},
		{
			"inputs": [
				{
					"internalType": "address",
					"name": "operator",
					"type": "address"
				}
			],
			"name": "ERC1155InvalidOperator",
			"type": "error"
		},
		{
			"inputs": [
				{
					"internalType": "address",
					"name": "receiver",
					"type": "address"
				}
			],
			"name": "ERC1155InvalidReceiver",
			"type": "error"
		},
		{
			"inputs": [
				{
					"internalType": "address",
					"name": "sender",
					"type": "address"
				}
			],
			"name": "ERC1155InvalidSender",
			"type": "error"
		},
		{
			"inputs": [
				{
					"internalType": "address",
					"name": "operator",
					"type": "address"
				},
				{
					"internalType": "address",
					"name": "owner",
					"type": "address"
				}
			],
			"name": "ERC1155MissingApprovalForAll",
			"type": "error"
		},
		{
			"anonymous": false,
			"inputs": [
				{
					"indexed": true,
					"internalType": "address",
					"name": "account",
					"type": "address"
				},
				{
					"indexed": true,
					"internalType": "address",
					"name": "operator",
					"type": "address"
				},
				{
					"indexed": false,
					"internalType": "bool",
					"name": "approved",
					"type": "bool"
				}
			],
			"name": "ApprovalForAll",
			"type": "event"
		},
		{
			"anonymous": false,
			"inputs": [
				{
					"indexed": true,
					"internalType": "address",
					"name": "operator",
					"type": "address"
				},
				{
					"indexed": true,
					"internalType": "address",
					"name": "from",
					"type": "address"
				},
				{
					"indexed": true,
					"internalType": "address",
					"name": "to",
					"type": "address"
				},
				{
					"indexed": false,
					"internalType": "uint256[]",
					"name": "ids",
					"type": "uint256[]"
				},
				{
					"indexed": false,
					"internalType": "uint256[]",
					"name": "values",
					"type": "uint256[]"
				}
			],
			"name": "TransferBatch",
			"type": "event"
		},
		{
			"anonymous": false,
			"inputs": [
				{
					"indexed": true,
					"internalType": "address",
					"name": "operator",
					"type": "address"
				},
				{
					"indexed": true,
					"internalType": "address",
					"name": "from",
					"type": "address"
				},
				{
					"indexed": true,
					"internalType": "address",
					"name": "to",
					"type": "address"
				},
				{
					"indexed": false,
					"internalType": "uint256",
					"name": "id",
					"type": "uint256"
				},
				{
					"indexed": false,
					"internalType": "uint256",
					"name": "value",
					"type": "uint256"
				}
			],
			"name": "TransferSingle",
			"type": "event"
		},
		{
			"anonymous": false,
			"inputs": [
				{
					"indexed": false,
					"internalType": "string",
					"name": "value",
					"type": "string"
				},
				{
					"indexed": true,
					"internalType": "uint256",
					"name": "id",
					"type": "uint256"
				}
			],
			"name": "URI",
			"type": "event"
		},
		{
			"inputs": [
				{
					"internalType": "address",
					"name": "account",
					"type": "address"
				},
				{
					"internalType": "uint256",
					"name": "id",
					"type": "uint256"
				}
			],
			"name": "balanceOf",
			"outputs": [
				{
					"internalType": "uint256",
					"name": "",
					"type": "uint256"
				}
			],
			"stateMutability": "view",
			"type": "function"
		},
		{
			"inputs": [
				{
					"internalType": "address[]",
					"name": "accounts",
					"type": "address[]"
				},
				{
					"internalType": "uint256[]",
					"name": "ids",
					"type": "uint256[]"
				}
			],
			"name": "balanceOfBatch",
			"outputs": [
				{
					"internalType": "uint256[]",
					"name": "",
					"type": "uint256[]"
				}
			],
			"stateMutability": "view",
			"type": "function"
		},
		{
			"inputs": [
				{
					"internalType": "uint256",
					"name": "_id",
					"type": "uint256"
				},
				{
					"internalType": "uint256",
					"name": "_amount",
					"type": "uint256"
				},
				{
					"internalType": "uint256",
					"name": "_discount",
					"type": "uint256"
				}
			],
			"name": "buyAsset",
			"outputs": [],
			"stateMutability": "nonpayable",
			"type": "function"
		},
		{
			"inputs": [
				{
					"internalType": "uint256",
					"name": "_idx",
					"type": "uint256"
				},
				{
					"internalType": "uint256",
					"name": "_price",
					"type": "uint256"
				}
			],
			"name": "changeSellPrice",
			"outputs": [],
			"stateMutability": "nonpayable",
			"type": "function"
		},
		{
			"inputs": [
				{
					"internalType": "uint256",
					"name": "_id",
					"type": "uint256"
				},
				{
					"internalType": "string",
					"name": "_name",
					"type": "string"
				},
				{
					"internalType": "string",
					"name": "_desc",
					"type": "string"
				},
				{
					"internalType": "string",
					"name": "_img",
					"type": "string"
				},
				{
					"internalType": "uint256",
					"name": "_price",
					"type": "uint256"
				},
				{
					"internalType": "uint256",
					"name": "_releasedAmount",
					"type": "uint256"
				},
				{
					"internalType": "uint256",
					"name": "_dateCreate",
					"type": "uint256"
				}
			],
			"name": "createAsset",
			"outputs": [],
			"stateMutability": "nonpayable",
			"type": "function"
		},
		{
			"inputs": [
				{
					"internalType": "uint256",
					"name": "_id",
					"type": "uint256"
				},
				{
					"internalType": "string",
					"name": "_name",
					"type": "string"
				},
				{
					"internalType": "string",
					"name": "_desc",
					"type": "string"
				},
				{
					"internalType": "uint256[]",
					"name": "_ids",
					"type": "uint256[]"
				},
				{
					"internalType": "uint256[]",
					"name": "_amounts",
					"type": "uint256[]"
				}
			],
			"name": "createCollection",
			"outputs": [],
			"stateMutability": "nonpayable",
			"type": "function"
		},
		{
			"inputs": [
				{
					"internalType": "string",
					"name": "_wallet",
					"type": "string"
				}
			],
			"name": "createRef",
			"outputs": [
				{
					"internalType": "string",
					"name": "",
					"type": "string"
				}
			],
			"stateMutability": "nonpayable",
			"type": "function"
		},
		{
			"inputs": [],
			"name": "getReferrals",
			"outputs": [
				{
					"components": [
						{
							"internalType": "string",
							"name": "name",
							"type": "string"
						},
						{
							"internalType": "address",
							"name": "owner",
							"type": "address"
						},
						{
							"internalType": "uint256",
							"name": "discount",
							"type": "uint256"
						}
					],
					"internalType": "struct NFT.ReferralCode[]",
					"name": "",
					"type": "tuple[]"
				}
			],
			"stateMutability": "view",
			"type": "function"
		},
		{
			"inputs": [
				{
					"internalType": "address",
					"name": "account",
					"type": "address"
				},
				{
					"internalType": "address",
					"name": "operator",
					"type": "address"
				}
			],
			"name": "isApprovedForAll",
			"outputs": [
				{
					"internalType": "bool",
					"name": "",
					"type": "bool"
				}
			],
			"stateMutability": "view",
			"type": "function"
		},
		{
			"inputs": [
				{
					"internalType": "address",
					"name": "from",
					"type": "address"
				},
				{
					"internalType": "address",
					"name": "to",
					"type": "address"
				},
				{
					"internalType": "uint256[]",
					"name": "ids",
					"type": "uint256[]"
				},
				{
					"internalType": "uint256[]",
					"name": "values",
					"type": "uint256[]"
				},
				{
					"internalType": "bytes",
					"name": "data",
					"type": "bytes"
				}
			],
			"name": "safeBatchTransferFrom",
			"outputs": [],
			"stateMutability": "nonpayable",
			"type": "function"
		},
		{
			"inputs": [
				{
					"internalType": "address",
					"name": "from",
					"type": "address"
				},
				{
					"internalType": "address",
					"name": "to",
					"type": "address"
				},
				{
					"internalType": "uint256",
					"name": "id",
					"type": "uint256"
				},
				{
					"internalType": "uint256",
					"name": "value",
					"type": "uint256"
				},
				{
					"internalType": "bytes",
					"name": "data",
					"type": "bytes"
				}
			],
			"name": "safeTransferFrom",
			"outputs": [],
			"stateMutability": "nonpayable",
			"type": "function"
		},
		{
			"inputs": [
				{
					"internalType": "uint256",
					"name": "_id",
					"type": "uint256"
				},
				{
					"internalType": "uint256",
					"name": "_AssetIdx",
					"type": "uint256"
				},
				{
					"internalType": "uint256",
					"name": "_amount",
					"type": "uint256"
				},
				{
					"internalType": "uint256",
					"name": "_price",
					"type": "uint256"
				}
			],
			"name": "sellAsset",
			"outputs": [],
			"stateMutability": "nonpayable",
			"type": "function"
		},
		{
			"inputs": [
				{
					"internalType": "address",
					"name": "operator",
					"type": "address"
				},
				{
					"internalType": "bool",
					"name": "approved",
					"type": "bool"
				}
			],
			"name": "setApprovalForAll",
			"outputs": [],
			"stateMutability": "nonpayable",
			"type": "function"
		},
		{
			"inputs": [
				{
					"internalType": "uint256",
					"name": "_collectionId",
					"type": "uint256"
				},
				{
					"internalType": "uint256",
					"name": "_timeStart",
					"type": "uint256"
				},
				{
					"internalType": "uint256",
					"name": "_timeEnd",
					"type": "uint256"
				},
				{
					"internalType": "uint256",
					"name": "maxPrice",
					"type": "uint256"
				},
				{
					"internalType": "uint256",
					"name": "minPrice",
					"type": "uint256"
				},
				{
					"internalType": "address",
					"name": "leader",
					"type": "address"
				},
				{
					"internalType": "uint256",
					"name": "currentBet",
					"type": "uint256"
				}
			],
			"name": "startAuc",
			"outputs": [],
			"stateMutability": "nonpayable",
			"type": "function"
		},
		{
			"inputs": [
				{
					"internalType": "bytes4",
					"name": "interfaceId",
					"type": "bytes4"
				}
			],
			"name": "supportsInterface",
			"outputs": [
				{
					"internalType": "bool",
					"name": "",
					"type": "bool"
				}
			],
			"stateMutability": "view",
			"type": "function"
		},
		{
			"inputs": [
				{
					"internalType": "uint256",
					"name": "_id",
					"type": "uint256"
				},
				{
					"internalType": "uint256",
					"name": "_idx",
					"type": "uint256"
				},
				{
					"internalType": "address",
					"name": "_receiver",
					"type": "address"
				},
				{
					"internalType": "uint256",
					"name": "_amount",
					"type": "uint256"
				}
			],
			"name": "transferAsset",
			"outputs": [],
			"stateMutability": "nonpayable",
			"type": "function"
		},
		{
			"inputs": [
				{
					"internalType": "uint256",
					"name": "",
					"type": "uint256"
				}
			],
			"name": "uri",
			"outputs": [
				{
					"internalType": "string",
					"name": "",
					"type": "string"
				}
			],
			"stateMutability": "view",
			"type": "function"
		},
		{
			"inputs": [
				{
					"internalType": "string",
					"name": "_referral",
					"type": "string"
				}
			],
			"name": "useReferral",
			"outputs": [],
			"stateMutability": "nonpayable",
			"type": "function"
		}
	]
}