{
	"data": {
		"bytecode": {
			"linkReferences": {},
			"object": "608060405234801562000010575f80fd5b5060405162004c7d38038062004c7d833981016040819052620000339162000a5b565b60408051602081019091525f81526200004c8162000254565b50600580546001600160a01b0319166001600160a01b0383169081179091556040805163313ce56760e01b8152905163313ce567916004808201926020929091908290030181865afa158015620000a5573d5f803e3d5ffd5b505050506040513d601f19601f82011682018060405250810190620000cb919062000a8a565b620000d890600a62000bbb565b600355600480546001600160a01b03191633179055604080518082018252600e81526d684d685f685e685f68c3e85ae85d60911b602080830191909152825160608101909352602f80845262000163935f939290919062004c029083013960408051808201909152600c81526b6361745f6e6674312e706e6760a01b60208201525f60014262000266565b620001da5f604051806040016040528060128152602001710d092d0bad183d181d0bdd18fd188d0bad0b60741b8152506040518060800160405280604c815260200162004c31604c913960408051808201909152600c81526b6361745f6e6674322e706e6760a01b60208201525f60014262000266565b6200024d5f6040518060400160405280600e81526020016d684fe8c1e85be8c5e8c0685c685d60911b81525060405180606001604052806038815260200162004bca6038913960408051808201909152600c81526b6361745f6e6674332e706e6760a01b60208201525f60014262000266565b5062000ec8565b600262000262828262000c66565b5050565b6004546001600160a01b03163314620002fd5760405162461bcd60e51b815260206004820152604860248201527fd0a2d0bed0bbd18cd0bad0be20d0b2d0bbd0b0d0b4d0b5d0bbd0b5d18620d0bc60448201527fd0bed0b6d0b5d18220d18dd182d0be20d0b8d181d0bfd0bed0bbd18cd0b7d0be606482015267342cb42c3460b46360c21b608482015260a4015b60405180910390fd5b5f8781526008602052604090206005015415620003835760405162461bcd60e51b815260206004820152603660248201527f4e465420d18120d182d0b0d0bad0b8d0bc20696420d183d0b6d0b520d0b5d18160448201527fd182d18c20d0b220d181d0b8d181d182d0b5d0bcd0b5000000000000000000006064820152608401620002f4565b620003a533888460405180602001604052805f8152506200054a60201b60201c565b6040805161010081018252888152335f90815260096020908152838220548184019081528385018b8152606085018b9052608085018a905260a0850189905260c0850188905260e085018790528c845260089092529390912082518155925160018401555190919060028201906200041e908262000c66565b506060820151600382019062000435908262000c66565b50608082015160048201906200044c908262000c66565b5060a082810151600583015560c080840151600684015560e093840151600790930192909255335f9081526009602081815260408084208151610100810183528f815293835280548484018181529285018f8152606086018f9052608086018e90529685018c90529684018a90529683018890526001808701885596845292208151600890950201938455905193830193909355516002820190620004f2908262000c66565b506060820151600382019062000509908262000c66565b506080820151600482019062000520908262000c66565b5060a0820151816005015560c0820151816006015560e08201518160070155505050505050505050565b6001600160a01b0384166200057557604051632bfa23e760e11b81525f6004820152602401620002f4565b60408051600180825260208201869052818301908152606082018590526080820190925290620005a95f87848487620005b1565b505050505050565b620005bf8585858562000614565b6001600160a01b038416156200060d5782513390600103620005fd5760208481015190840151620005f583898985858962000832565b5050620005a9565b620005a981878787878762000969565b5050505050565b8051825114620006455781518151604051635b05999160e01b815260048101929092526024820152604401620002f4565b335f5b83518110156200074f576020818102858101820151908501909101516001600160a01b03881615620006fd575f828152602081815260408083206001600160a01b038c16845290915290205481811015620006d7576040516303dee4c560e01b81526001600160a01b038a166004820152602481018290526044810183905260648101849052608401620002f4565b5f838152602081815260408083206001600160a01b038d16845290915290209082900390555b6001600160a01b0387161562000744575f828152602081815260408083206001600160a01b038b168452909152812080548392906200073e90849062000d2e565b90915550505b505060010162000648565b508251600103620007d25760208301515f906020840151909150856001600160a01b0316876001600160a01b0316846001600160a01b03167fc3d58168c5ae7397731d063d5bbf3d657854427343f4c083240f7aacaa2d0f628585604051620007c2929190918252602082015260400190565b60405180910390a450506200060d565b836001600160a01b0316856001600160a01b0316826001600160a01b03167f4a39dc06d4c0dbc64b70af90fd698a233a518aa5d07e595d983b8c0526c8f7fb86866040516200082392919062000d80565b60405180910390a45050505050565b6001600160a01b0384163b15620005a95760405163f23a6e6160e01b81526001600160a01b0385169063f23a6e619062000879908990899088908890889060040162000df6565b6020604051808303815f875af1925050508015620008b6575060408051601f3d908101601f19168201909252620008b39181019062000e3c565b60015b62000922573d808015620008e6576040519150601f19603f3d011682016040523d82523d5f602084013e620008eb565b606091505b5080515f036200091a57604051632bfa23e760e11b81526001600160a01b0386166004820152602401620002f4565b805181602001fd5b6001600160e01b0319811663f23a6e6160e01b146200096057604051632bfa23e760e11b81526001600160a01b0386166004820152602401620002f4565b50505050505050565b6001600160a01b0384163b15620005a95760405163bc197c8160e01b81526001600160a01b0385169063bc197c8190620009b0908990899088908890889060040162000e65565b6020604051808303815f875af1925050508015620009ed575060408051601f3d908101601f19168201909252620009ea9181019062000e3c565b60015b62000a1d573d808015620008e6576040519150601f19603f3d011682016040523d82523d5f602084013e620008eb565b6001600160e01b0319811663bc197c8160e01b146200096057604051632bfa23e760e11b81526001600160a01b0386166004820152602401620002f4565b5f6020828403121562000a6c575f80fd5b81516001600160a01b038116811462000a83575f80fd5b9392505050565b5f6020828403121562000a9b575f80fd5b815160ff8116811462000a83575f80fd5b634e487b7160e01b5f52601160045260245ffd5b600181815b8085111562000b0057815f190482111562000ae45762000ae462000aac565b8085161562000af257918102915b93841c939080029062000ac5565b509250929050565b5f8262000b185750600162000bb5565b8162000b2657505f62000bb5565b816001811462000b3f576002811462000b4a5762000b6a565b600191505062000bb5565b60ff84111562000b5e5762000b5e62000aac565b50506001821b62000bb5565b5060208310610133831016604e8410600b841016171562000b8f575081810a62000bb5565b62000b9b838362000ac0565b805f190482111562000bb15762000bb162000aac565b0290505b92915050565b5f62000a8360ff84168362000b08565b634e487b7160e01b5f52604160045260245ffd5b600181811c9082168062000bf457607f821691505b60208210810362000c1357634e487b7160e01b5f52602260045260245ffd5b50919050565b601f82111562000c6157805f5260205f20601f840160051c8101602085101562000c405750805b601f840160051c820191505b818110156200060d575f815560010162000c4c565b505050565b81516001600160401b0381111562000c825762000c8262000bcb565b62000c9a8162000c93845462000bdf565b8462000c19565b602080601f83116001811462000cd0575f841562000cb85750858301515b5f19600386901b1c1916600185901b178555620005a9565b5f85815260208120601f198616915b8281101562000d005788860151825594840194600190910190840162000cdf565b508582101562000d1e57878501515f19600388901b60f8161c191681555b5050505050600190811b01905550565b8082018082111562000bb55762000bb562000aac565b5f815180845260208085019450602084015f5b8381101562000d755781518752958201959082019060010162000d57565b509495945050505050565b604081525f62000d94604083018562000d44565b828103602084015262000da8818562000d44565b95945050505050565b5f81518084525f5b8181101562000dd75760208185018101518683018201520162000db9565b505f602082860101526020601f19601f83011685010191505092915050565b6001600160a01b03868116825285166020820152604081018490526060810183905260a0608082018190525f9062000e319083018462000db1565b979650505050505050565b5f6020828403121562000e4d575f80fd5b81516001600160e01b03198116811462000a83575f80fd5b6001600160a01b0386811682528516602082015260a0604082018190525f9062000e929083018662000d44565b828103606084015262000ea6818662000d44565b9050828103608084015262000ebc818562000db1565b98975050505050505050565b613cf48062000ed65f395ff3fe608060405234801561000f575f80fd5b506004361061011b575f3560e01c8063694f82b4116100a957806397f588c61161006e57806397f588c614610268578063a22cb4651461027b578063a2a376cd1461028e578063e985e9c5146102a3578063f242432a146102b6575f80fd5b8063694f82b4146102095780637ba9165c1461021c578063845c54f61461022f57806390420aee14610242578063958828e314610255575f80fd5b80632eb2c2d6116100ef5780632eb2c2d61461019d5780633aacc912146101b05780634dad2aab146101c35780634e1273f4146101d657806368dadec2146101f6575f80fd5b8062fdd58e1461011f57806301ffc9a7146101455780630e89341c14610168578063222d9c5c14610188575b5f80fd5b61013261012d3660046130bd565b6102c9565b6040519081526020015b60405180910390f35b6101586101533660046130fa565b6102f0565b604051901515815260200161013c565b61017b61017636600461311c565b61033f565b60405161013c9190613180565b61019b61019636600461311c565b6103d1565b005b61019b6101ab3660046132d2565b610c75565b61019b6101be366004613375565b610cdc565b61017b6101d13660046133af565b6110e5565b6101e96101e436600461341b565b6112df565b60405161013c919061350f565b61019b610204366004613521565b6113aa565b61019b61021736600461354a565b611b72565b61019b61022a3660046135ec565b611dc3565b61019b61023d36600461361b565b611f9a565b61019b6102503660046136c0565b6121f4565b61019b6102633660046136e0565b6122b1565b61019b610276366004613737565b61253a565b61019b610289366004613771565b61276d565b61029661277c565b60405161013c91906137aa565b6101586102b1366004613834565b61288a565b61019b6102c4366004613865565b6128b7565b5f818152602081815260408083206001600160a01b03861684529091529020545b92915050565b5f6001600160e01b03198216636cdb3d1360e11b148061032057506001600160e01b031982166303a24d0760e21b145b806102ea57506301ffc9a760e01b6001600160e01b03198316146102ea565b60606002805461034e906138c5565b80601f016020809104026020016040519081016040528092919081815260200182805461037a906138c5565b80156103c55780601f1061039c576101008083540402835291602001916103c5565b820191905f5260205f20905b8154815290600101906020018083116103a857829003601f168201915b50505050509050919050565b6004546001600160a01b031633146104045760405162461bcd60e51b81526004016103fb906138fd565b60405180910390fd5b600454600f8054610582926001600160a01b031691908490811061042a5761042a61396b565b905f5260205f2090600802016006015f9054906101000a90046001600160a01b0316600e600f85815481106104615761046161396b565b905f5260205f20906008020160010154815481106104815761048161396b565b905f5260205f2090600502016003018054806020026020016040519081016040528092919081815260200182805480156104d857602002820191905f5260205f20905b8154815260200190600101908083116104c4575b5050505050600e600f86815481106104f2576104f261396b565b905f5260205f20906008020160010154815481106105125761051261396b565b905f5260205f20906005020160040180548060200260200160405190810160405280929190818152602001828054801561056957602002820191905f5260205f20905b815481526020019060010190808311610555575b505050505060405180602001604052805f815250612916565b5f5b600e600f83815481106105995761059961396b565b905f5260205f20906008020160010154815481106105b9576105b961396b565b905f5260205f20906005020160030180549050811015610c2b5760095f600f84815481106105e9576105e961396b565b905f5260205f2090600802016006015f9054906101000a90046001600160a01b03166001600160a01b03166001600160a01b031681526020019081526020015f20604051806101000160405280600e600f868154811061064b5761064b61396b565b905f5260205f209060080201600101548154811061066b5761066b61396b565b905f5260205f209060050201600301848154811061068b5761068b61396b565b905f5260205f200154815260200160095f600f87815481106106af576106af61396b565b905f5260205f2090600802016006015f9054906101000a90046001600160a01b03166001600160a01b03166001600160a01b031681526020019081526020015f2080549050815260200160085f600a5f600f89815481106107125761071261396b565b905f5260205f2090600802016001015481526020019081526020015f2060030186815481106107435761074361396b565b905f5260205f20015481526020019081526020015f206002018054610767906138c5565b80601f0160208091040260200160405190810160405280929190818152602001828054610793906138c5565b80156107de5780601f106107b5576101008083540402835291602001916107de565b820191905f5260205f20905b8154815290600101906020018083116107c157829003601f168201915b5050505050815260200160085f600a5f600f89815481106108015761080161396b565b905f5260205f2090600802016001015481526020019081526020015f2060030186815481106108325761083261396b565b905f5260205f20015481526020019081526020015f206003018054610856906138c5565b80601f0160208091040260200160405190810160405280929190818152602001828054610882906138c5565b80156108cd5780601f106108a4576101008083540402835291602001916108cd565b820191905f5260205f20905b8154815290600101906020018083116108b057829003601f168201915b5050505050815260200160085f600a5f600f89815481106108f0576108f061396b565b905f5260205f2090600802016001015481526020019081526020015f2060030186815481106109215761092161396b565b905f5260205f20015481526020019081526020015f206004018054610945906138c5565b80601f0160208091040260200160405190810160405280929190818152602001828054610971906138c5565b80156109bc5780601f10610993576101008083540402835291602001916109bc565b820191905f5260205f20905b81548152906001019060200180831161099f57829003601f168201915b5050505050815260200160085f600a5f600f89815481106109df576109df61396b565b905f5260205f2090600802016001015481526020019081526020015f206003018681548110610a1057610a1061396b565b905f5260205f20015481526020019081526020015f206006015481526020016003546001610a3e9190613993565b815260200160085f600a5f600f8981548110610a5c57610a5c61396b565b905f5260205f2090600802016001015481526020019081526020015f206003018681548110610a8d57610a8d61396b565b5f91825260208083209091015483528281019390935260409182018120600701549093528454600181810187559584529282902084516008909402019283559083015193820193909355918101519091906002820190610aed90826139f3565b5060608201516003820190610b0290826139f3565b5060808201516004820190610b1790826139f3565b5060a0820151600582015560c0820151600682015560e0909101516007909101556004546001600160a01b03165f908152600960205260408120600f805491926008929091600a9183919088908110610b7257610b7261396b565b905f5260205f2090600802016001015481526020019081526020015f206003018481548110610ba357610ba361396b565b905f5260205f20015481526020019081526020015f206001015481548110610bcd57610bcd61396b565b5f918252602082206008909102018181556001810182905590610bf36002830182612f96565b610c00600383015f612f96565b610c0d600483015f612f96565b505f6005820181905560068201819055600790910155600101610584565b505f600f8281548110610c4057610c4061396b565b905f5260205f2090600802016006015f6101000a8154816001600160a01b0302191690836001600160a01b0316021790555050565b336001600160a01b0386168114801590610c965750610c94868261288a565b155b15610cc75760405163711bec9160e11b81526001600160a01b038083166004830152871660248201526044016103fb565b610cd48686868686612916565b505050505050565b610cf73383868460405180602001604052805f81525061297b565b335f908152600960205260409020805482919085908110610d1a57610d1a61396b565b905f5260205f2090600802016006015f828254610d379190613aaf565b90915550506001600160a01b0382165f908152600960209081526040808320815161010081018352888152815481850152888552600890935292819020600201805491830191610d86906138c5565b80601f0160208091040260200160405190810160405280929190818152602001828054610db2906138c5565b8015610dfd5780601f10610dd457610100808354040283529160200191610dfd565b820191905f5260205f20905b815481529060010190602001808311610de057829003601f168201915b5050505050815260200160085f8881526020019081526020015f206003018054610e26906138c5565b80601f0160208091040260200160405190810160405280929190818152602001828054610e52906138c5565b8015610e9d5780601f10610e7457610100808354040283529160200191610e9d565b820191905f5260205f20905b815481529060010190602001808311610e8057829003601f168201915b5050505050815260200160085f8881526020019081526020015f206004018054610ec6906138c5565b80601f0160208091040260200160405190810160405280929190818152602001828054610ef2906138c5565b8015610f3d5780601f10610f1457610100808354040283529160200191610f3d565b820191905f5260205f20905b815481529060010190602001808311610f2057829003601f168201915b5050505050815260200183815260200160095f336001600160a01b03166001600160a01b031681526020019081526020015f208681548110610f8157610f8161396b565b5f91825260208083206008928302016005015484528983528181526040808420600701549482019490945285546001808201885596845292819020855193909202909101918255830151938101939093558101519091906002820190610fe790826139f3565b5060608201516003820190610ffc90826139f3565b506080820151600482019061101190826139f3565b5060a0820151600582015560c0820151600682015560e090910151600790910155335f9081526009602052604090208054849081106110525761105261396b565b905f5260205f209060080201600601545f036110df57335f9081526009602052604090208054849081106110885761108861396b565b5f9182526020822060089091020181815560018101829055906110ae6002830182612f96565b6110bb600383015f612f96565b6110c8600483015f612f96565b505f60058201819055600682018190556007909101555b50505050565b60603360066110f78160028688613ac2565b604051602001611108929190613ae9565b60408051601f198184030181529082905261112291613b16565b908152604051908190036020019020600101546001600160a01b03160361119d5760405162461bcd60e51b815260206004820152602960248201527fd092d18b20d183d0b6d0b520d181d0bed0b7d0b4d0b0d0bbd0b820d180d0b5d160448201526884d0b5d180d0b0d0bb60b81b60648201526084016103fb565b5f6111ac600660028587613ac2565b6040516020016111bd929190613ae9565b60408051601f198184030181526060830182528083523360208401525f8383015290519092506006906111f1908490613b16565b9081526040519081900360200190208151819061120e90826139f3565b50602082810151600180840180546001600160a01b039093166001600160a01b031990931692909217909155604093840151600290930192909255825160608101845284815233918101919091525f928101839052600c80549283018155909252815160039091027fdf6966c971051c3d54ec59162606531493a51404a002842f56009d7e5cf4a8c7019081906112a590826139f3565b5060208201516001820180546001600160a01b0319166001600160a01b039092169190911790556040909101516002909101559392505050565b606081518351146113105781518351604051635b05999160e01b8152600481019290925260248201526044016103fb565b5f835167ffffffffffffffff81111561132b5761132b613192565b604051908082528060200260200182016040528015611354578160200160208202803683370190505b5090505f5b84518110156113a25760208082028601015161137d906020808402870101516102c9565b82828151811061138f5761138f61396b565b6020908102919091010152600101611359565b509392505050565b5f60648284600b87815481106113c2576113c261396b565b905f5260205f209060060201600501546113dc9190613993565b6113e69190613993565b6113f09190613b31565b83600b86815481106114045761140461396b565b905f5260205f2090600602016005015461141e9190613993565b6114289190613aaf565b905082600b858154811061143e5761143e61396b565b905f5260205f2090600602016004015410156114cd5760405162461bcd60e51b815260206004820152604260248201527fd092d18b20d0bfd18bd182d0b0d0b5d182d0b5d181d18c20d0bad183d0bfd0b860448201527fd182d18c20d0b1d0bed0bbd18cd188d0b52c20d187d0b5d0bc20d0b5d181d182606482015261346360f21b608482015260a4016103fb565b61153e600b85815481106114e3576114e361396b565b905f5260205f2090600602016003015f9054906101000a90046001600160a01b031633600b87815481106115195761151961396b565b905f5260205f209060060201600101548660405180602001604052805f81525061297b565b600554600b80546001600160a01b039092169163f5537ede913391889081106115695761156961396b565b5f91825260209091206006909102016003015460405160e084901b6001600160e01b03191681526001600160a01b03928316600482015291166024820152604481018490526064015f604051808303815f87803b1580156115c8575f80fd5b505af11580156115da573d5f803e3d5ffd5b5050505082600b85815481106115f2576115f261396b565b905f5260205f2090600602016004015f82825461160f9190613aaf565b925050819055508260095f600b878154811061162d5761162d61396b565b5f9182526020808320600360069093020191909101546001600160a01b031683528201929092526040019020600b80548790811061166d5761166d61396b565b905f5260205f209060060201600101548154811061168d5761168d61396b565b905f5260205f2090600802016006015f8282546116aa9190613aaf565b9091555050335f8181526009602081815260408084208151610100810183528a8152958552928252825491850191909152600b80549294939184019260089291908a9081106116fb576116fb61396b565b905f5260205f2090600602016001015481526020019081526020015f206002018054611726906138c5565b80601f0160208091040260200160405190810160405280929190818152602001828054611752906138c5565b801561179d5780601f106117745761010080835404028352916020019161179d565b820191905f5260205f20905b81548152906001019060200180831161178057829003601f168201915b5050505050815260200160085f600b89815481106117bd576117bd61396b565b905f5260205f2090600602016001015481526020019081526020015f2060030180546117e8906138c5565b80601f0160208091040260200160405190810160405280929190818152602001828054611814906138c5565b801561185f5780601f106118365761010080835404028352916020019161185f565b820191905f5260205f20905b81548152906001019060200180831161184257829003601f168201915b5050505050815260200160085f600b898154811061187f5761187f61396b565b905f5260205f2090600602016001015481526020019081526020015f2060040180546118aa906138c5565b80601f01602080910402602001604051908101604052809291908181526020018280546118d6906138c5565b80156119215780601f106118f857610100808354040283529160200191611921565b820191905f5260205f20905b81548152906001019060200180831161190457829003601f168201915b50505050508152602001858152602001600b87815481106119445761194461396b565b905f5260205f20906006020160050154815260200160085f600b898154811061196f5761196f61396b565b5f918252602080832060016006909302018201548452838101949094526040928301822060070154909452855480850187559581528290208451600890960201948555908301519184019190915581015190919060028201906119d290826139f3565b50606082015160038201906119e790826139f3565b50608082015160048201906119fc90826139f3565b5060a0820151816005015560c0820151816006015560e08201518160070155505060095f600b8681548110611a3357611a3361396b565b5f9182526020808320600360069093020191909101546001600160a01b031683528201929092526040019020600b805486908110611a7357611a7361396b565b905f5260205f2090600602016001015481548110611a9357611a9361396b565b905f5260205f209060080201600601545f03611af45760095f600b8681548110611abf57611abf61396b565b5f9182526020808320600360069093020191909101546001600160a01b031683528201929092526040018120611af491612fd0565b600b8481548110611b0757611b0761396b565b905f5260205f209060060201600401545f036110df57600b8481548110611b3057611b3061396b565b5f9182526020822060069091020181815560018101829055600281018290556003810180546001600160a01b0319169055600481018290556005015550505050565b6004546001600160a01b03163314611b9c5760405162461bcd60e51b81526004016103fb906138fd565b5f858152600a6020526040902054859003611c1f5760405162461bcd60e51b815260206004820152603f60248201527fd09ad0bed0bbd0bbd0b5d0bad186d0b8d18f20d18120d182d0b0d0bad0b8d0bc60448201527f20696420d183d0b6d0b520d181d183d189d0b5d181d182d0b2d183d0b5d1820060648201526084016103fb565b611c3933838360405180602001604052805f815250612a07565b6040805160a081018252868152602080820187815282840187905260608301869052608083018590525f898152600a9092529290208151815591519091906001820190611c8690826139f3565b5060408201516002820190611c9b90826139f3565b5060608201518051611cb7916003840191602090910190612fee565b5060808201518051611cd3916004840191602090910190612fee565b50506040805160a081018252878152602081018781529181018690526060810185905260808101849052600e80546001810182555f91909152815160059091027fbb7b4a454dc3493923482f07822329ed19e8244eff582cc204f8554c3620c3fd81019182559251919350917fbb7b4a454dc3493923482f07822329ed19e8244eff582cc204f8554c3620c3fe0190611d6c90826139f3565b5060408201516002820190611d8190826139f3565b5060608201518051611d9d916003840191602090910190612fee565b5060808201518051611db9916004840191602090910190612fee565b5050505050505050565b335f908152600960205260409020805483919085908110611de657611de661396b565b905f5260205f209060080201600601541015611e535760405162461bcd60e51b815260206004820152602660248201527fd0a320d0b2d0b0d18120d0bdd0b5d0b4d0bed181d182d0b0d182d0bed187d0bd604482015265342f8813919560d21b60648201526084016103fb565b6040805160c081018252600b80548083526020830197885292820195865233606083019081526080830195865260a083019485526001840182555f9190915290517f0175b7a638427703f0dbe7bb9bbf987a2551717b34e79f33b5b1008d1fa01db960069093029283015594517f0175b7a638427703f0dbe7bb9bbf987a2551717b34e79f33b5b1008d1fa01dba82015592517f0175b7a638427703f0dbe7bb9bbf987a2551717b34e79f33b5b1008d1fa01dbb84015592517f0175b7a638427703f0dbe7bb9bbf987a2551717b34e79f33b5b1008d1fa01dbc830180546001600160a01b0319166001600160a01b03909216919091179055517f0175b7a638427703f0dbe7bb9bbf987a2551717b34e79f33b5b1008d1fa01dbd82015590517f0175b7a638427703f0dbe7bb9bbf987a2551717b34e79f33b5b1008d1fa01dbe90910155565b6004546001600160a01b03163314611fc45760405162461bcd60e51b81526004016103fb906138fd565b5f87815260086020526040902060050154156120415760405162461bcd60e51b815260206004820152603660248201527f4e465420d18120d182d0b0d0bad0b8d0bc20696420d183d0b6d0b520d0b5d181604482015275d182d18c20d0b220d181d0b8d181d182d0b5d0bcd0b560501b60648201526084016103fb565b61205b33888460405180602001604052805f815250612a3d565b6040805161010081018252888152335f90815260096020908152838220548184019081528385018b8152606085018b9052608085018a905260a0850189905260c0850188905260e085018790528c845260089092529390912082518155925160018401555190919060028201906120d290826139f3565b50606082015160038201906120e790826139f3565b50608082015160048201906120fc90826139f3565b5060a082810151600583015560c080840151600684015560e093840151600790930192909255335f9081526009602081815260408084208151610100810183528f815293835280548484018181529285018f8152606086018f9052608086018e90529685018c90529684018a905296830188905260018087018855968452922081516008909502019384559051938301939093555160028201906121a090826139f3565b50606082015160038201906121b590826139f3565b50608082015160048201906121ca90826139f3565b5060a0820151816005015560c0820151816006015560e08201518160070155505050505050505050565b336001600160a01b0316600b83815481106122115761221161396b565b5f9182526020909120600360069092020101546001600160a01b03161461227a5760405162461bcd60e51b815260206004820152601960248201527fd0add182d0be20d0bdd0b520d0b2d0b0d18820d0bbd0bed1820000000000000060448201526064016103fb565b6003546122879082613993565b600b838154811061229a5761229a61396b565b905f5260205f209060060201600501819055505050565b6004546001600160a01b031633146122db5760405162461bcd60e51b81526004016103fb906138fd565b5f5b600f548110156123965787600f82815481106122fb576122fb61396b565b905f5260205f209060080201600101540361238e5760405162461bcd60e51b815260206004820152604760248201527fd090d183d0bad186d0b8d0bed0bd20d18120d182d0b0d0bad0bed0b920d0bad060448201527fbed0bbd0bbd0b5d0bad186d0b8d0b5d0b920d183d0b6d0b520d0b7d0b0d0bfd160648201526683d189d0b5d0bd60c81b608482015260a4016103fb565b6001016122dd565b506040805161010081018252600f8054808352602083019a8b52928201988952606082019788526080820196875260a082019586526001600160a01b0394851660c0830190815260e083019485526001840182555f9190915290517f8d1108e10bcb7c27dddfc02ed9d693a074039d026cf4ea4240b40f7d581ac80260089093029283015597517f8d1108e10bcb7c27dddfc02ed9d693a074039d026cf4ea4240b40f7d581ac80382015595517f8d1108e10bcb7c27dddfc02ed9d693a074039d026cf4ea4240b40f7d581ac80487015593517f8d1108e10bcb7c27dddfc02ed9d693a074039d026cf4ea4240b40f7d581ac80586015591517f8d1108e10bcb7c27dddfc02ed9d693a074039d026cf4ea4240b40f7d581ac806850155517f8d1108e10bcb7c27dddfc02ed9d693a074039d026cf4ea4240b40f7d581ac80784015592517f8d1108e10bcb7c27dddfc02ed9d693a074039d026cf4ea4240b40f7d581ac808830180546001600160a01b031916919094161790925590517f8d1108e10bcb7c27dddfc02ed9d693a074039d026cf4ea4240b40f7d581ac80990910155565b8060405160200161254b9190613b16565b604051602081830303815290604052805190602001206006826040516125719190613b16565b9081526040516020918190038201812061258d92909101613b50565b60405160208183030381529060405280519060200120146126265760405162461bcd60e51b815260206004820152604760248201527fd0a2d0b0d0bad0bed0b3d0be20d180d0b5d184d0b5d180d0b0d0bbd18cd0bdd060448201527fbed0b3d0be20d0bad0bed0b4d0b020d0bdd0b5d18220d0b220d181d0b8d181d160648201526682d0b5d0bcd0b560c81b608482015260a4016103fb565b335f9081526007602052604090205460ff16151560010361269d5760405162461bcd60e51b815260206004820152602b60248201527fd092d18b20d183d0b6d0b520d0b8d181d0bfd0bed0bbd18cd0b7d0bed0b2d0b060448201526a342ef42e08342eb42fb42d60aa1b60648201526084016103fb565b60055f9054906101000a90046001600160a01b03166001600160a01b0316635cd07ee66040518163ffffffff1660e01b81526004015f604051808303815f87803b1580156126e9575f80fd5b505af11580156126fb573d5f803e3d5ffd5b5050335f9081526007602052604090819020805460ff19166001179055516006925061272991508390613b16565b90815260200160405180910390206002015460016127479190613bc2565b6006826040516127579190613b16565b9081526040519081900360200190206002015550565b612778338383612a98565b5050565b6060600c805480602002602001604051908101604052809291908181526020015f905b82821015612881578382905f5260205f2090600302016040518060600160405290815f820180546127cf906138c5565b80601f01602080910402602001604051908101604052809291908181526020018280546127fb906138c5565b80156128465780601f1061281d57610100808354040283529160200191612846565b820191905f5260205f20905b81548152906001019060200180831161282957829003601f168201915b50505091835250506001828101546001600160a01b03166020808401919091526002909301546040909201919091529183529201910161279f565b50505050905090565b6001600160a01b039182165f90815260016020908152604080832093909416825291909152205460ff1690565b336001600160a01b03861681148015906128d857506128d6868261288a565b155b156129095760405163711bec9160e11b81526001600160a01b038083166004830152871660248201526044016103fb565b610cd4868686868661297b565b6001600160a01b03841661293f57604051632bfa23e760e11b81525f60048201526024016103fb565b6001600160a01b03851661296757604051626a0d4560e21b81525f60048201526024016103fb565b6129748585858585612b2c565b5050505050565b6001600160a01b0384166129a457604051632bfa23e760e11b81525f60048201526024016103fb565b6001600160a01b0385166129cc57604051626a0d4560e21b81525f60048201526024016103fb565b604080516001808252602082018690528183019081526060820185905260808201909252906129fe8787848487612b2c565b50505050505050565b6001600160a01b038416612a3057604051632bfa23e760e11b81525f60048201526024016103fb565b6110df5f85858585612b2c565b6001600160a01b038416612a6657604051632bfa23e760e11b81525f60048201526024016103fb565b60408051600180825260208201869052818301908152606082018590526080820190925290610cd45f87848487612b2c565b6001600160a01b038216612ac05760405162ced3e160e81b81525f60048201526024016103fb565b6001600160a01b038381165f81815260016020908152604080832094871680845294825291829020805460ff191686151590811790915591519182527f17307eab39ab6107e8899845ad3d59bd9653f200f220920489ca2b5937696c31910160405180910390a3505050565b612b3885858585612b7f565b6001600160a01b038416156129745782513390600103612b715760208481015190840151612b6a838989858589612d8e565b5050610cd4565b610cd4818787878787612eaf565b8051825114612bae5781518151604051635b05999160e01b8152600481019290925260248201526044016103fb565b335f5b8351811015612cb0576020818102858101820151908501909101516001600160a01b03881615612c62575f828152602081815260408083206001600160a01b038c16845290915290205481811015612c3c576040516303dee4c560e01b81526001600160a01b038a1660048201526024810182905260448101839052606481018490526084016103fb565b5f838152602081815260408083206001600160a01b038d16845290915290209082900390555b6001600160a01b03871615612ca6575f828152602081815260408083206001600160a01b038b16845290915281208054839290612ca0908490613bc2565b90915550505b5050600101612bb1565b508251600103612d305760208301515f906020840151909150856001600160a01b0316876001600160a01b0316846001600160a01b03167fc3d58168c5ae7397731d063d5bbf3d657854427343f4c083240f7aacaa2d0f628585604051612d21929190918252602082015260400190565b60405180910390a45050612974565b836001600160a01b0316856001600160a01b0316826001600160a01b03167f4a39dc06d4c0dbc64b70af90fd698a233a518aa5d07e595d983b8c0526c8f7fb8686604051612d7f929190613bd5565b60405180910390a45050505050565b6001600160a01b0384163b15610cd45760405163f23a6e6160e01b81526001600160a01b0385169063f23a6e6190612dd29089908990889088908890600401613c02565b6020604051808303815f875af1925050508015612e0c575060408051601f3d908101601f19168201909252612e0991810190613c46565b60015b612e73573d808015612e39576040519150601f19603f3d011682016040523d82523d5f602084013e612e3e565b606091505b5080515f03612e6b57604051632bfa23e760e11b81526001600160a01b03861660048201526024016103fb565b805181602001fd5b6001600160e01b0319811663f23a6e6160e01b146129fe57604051632bfa23e760e11b81526001600160a01b03861660048201526024016103fb565b6001600160a01b0384163b15610cd45760405163bc197c8160e01b81526001600160a01b0385169063bc197c8190612ef39089908990889088908890600401613c61565b6020604051808303815f875af1925050508015612f2d575060408051601f3d908101601f19168201909252612f2a91810190613c46565b60015b612f5a573d808015612e39576040519150601f19603f3d011682016040523d82523d5f602084013e612e3e565b6001600160e01b0319811663bc197c8160e01b146129fe57604051632bfa23e760e11b81526001600160a01b03861660048201526024016103fb565b508054612fa2906138c5565b5f825580601f10612fb1575050565b601f0160209004905f5260205f2090810190612fcd9190613037565b50565b5080545f8255600802905f5260205f2090810190612fcd919061304b565b828054828255905f5260205f20908101928215613027579160200282015b8281111561302757825182559160200191906001019061300c565b50613033929150613037565b5090565b5b80821115613033575f8155600101613038565b80821115613033575f8082556001820181905561306b6002830182612f96565b613078600383015f612f96565b613085600483015f612f96565b505f6005820181905560068201819055600782015560080161304b565b80356001600160a01b03811681146130b8575f80fd5b919050565b5f80604083850312156130ce575f80fd5b6130d7836130a2565b946020939093013593505050565b6001600160e01b031981168114612fcd575f80fd5b5f6020828403121561310a575f80fd5b8135613115816130e5565b9392505050565b5f6020828403121561312c575f80fd5b5035919050565b5f5b8381101561314d578181015183820152602001613135565b50505f910152565b5f815180845261316c816020860160208601613133565b601f01601f19169290920160200192915050565b602081525f6131156020830184613155565b634e487b7160e01b5f52604160045260245ffd5b604051601f8201601f1916810167ffffffffffffffff811182821017156131cf576131cf613192565b604052919050565b5f67ffffffffffffffff8211156131f0576131f0613192565b5060051b60200190565b5f82601f830112613209575f80fd5b8135602061321e613219836131d7565b6131a6565b8083825260208201915060208460051b87010193508684111561323f575f80fd5b602086015b8481101561325b5780358352918301918301613244565b509695505050505050565b5f82601f830112613275575f80fd5b813567ffffffffffffffff81111561328f5761328f613192565b6132a2601f8201601f19166020016131a6565b8181528460208386010111156132b6575f80fd5b816020850160208301375f918101602001919091529392505050565b5f805f805f60a086880312156132e6575f80fd5b6132ef866130a2565b94506132fd602087016130a2565b9350604086013567ffffffffffffffff80821115613319575f80fd5b61332589838a016131fa565b9450606088013591508082111561333a575f80fd5b61334689838a016131fa565b9350608088013591508082111561335b575f80fd5b5061336888828901613266565b9150509295509295909350565b5f805f8060808587031215613388575f80fd5b843593506020850135925061339f604086016130a2565b9396929550929360600135925050565b5f80602083850312156133c0575f80fd5b823567ffffffffffffffff808211156133d7575f80fd5b818501915085601f8301126133ea575f80fd5b8135818111156133f8575f80fd5b866020828501011115613409575f80fd5b60209290920196919550909350505050565b5f806040838503121561342c575f80fd5b823567ffffffffffffffff80821115613443575f80fd5b818501915085601f830112613456575f80fd5b81356020613466613219836131d7565b82815260059290921b84018101918181019089841115613484575f80fd5b948201945b838610156134a95761349a866130a2565b82529482019490820190613489565b965050860135925050808211156134be575f80fd5b506134cb858286016131fa565b9150509250929050565b5f815180845260208085019450602084015f5b83811015613504578151875295820195908201906001016134e8565b509495945050505050565b602081525f61311560208301846134d5565b5f805f60608486031215613533575f80fd5b505081359360208301359350604090920135919050565b5f805f805f60a0868803121561355e575f80fd5b85359450602086013567ffffffffffffffff8082111561357c575f80fd5b61358889838a01613266565b9550604088013591508082111561359d575f80fd5b6135a989838a01613266565b945060608801359150808211156135be575f80fd5b6135ca89838a016131fa565b935060808801359150808211156135df575f80fd5b50613368888289016131fa565b5f805f80608085870312156135ff575f80fd5b5050823594602084013594506040840135936060013592509050565b5f805f805f805f60e0888a031215613631575f80fd5b87359650602088013567ffffffffffffffff8082111561364f575f80fd5b61365b8b838c01613266565b975060408a0135915080821115613670575f80fd5b61367c8b838c01613266565b965060608a0135915080821115613691575f80fd5b5061369e8a828b01613266565b979a969950949760808101359660a0820135965060c090910135945092505050565b5f80604083850312156136d1575f80fd5b50508035926020909101359150565b5f805f805f805f60e0888a0312156136f6575f80fd5b873596506020880135955060408801359450606088013593506080880135925061372260a089016130a2565b915060c0880135905092959891949750929550565b5f60208284031215613747575f80fd5b813567ffffffffffffffff81111561375d575f80fd5b61376984828501613266565b949350505050565b5f8060408385031215613782575f80fd5b61378b836130a2565b91506020830135801515811461379f575f80fd5b809150509250929050565b5f60208083018184528085518083526040925060408601915060408160051b8701018488015f5b8381101561382657603f198984030185528151606081518186526137f782870182613155565b838b01516001600160a01b0316878c0152928901519589019590955250948701949250908601906001016137d1565b509098975050505050505050565b5f8060408385031215613845575f80fd5b61384e836130a2565b915061385c602084016130a2565b90509250929050565b5f805f805f60a08688031215613879575f80fd5b613882866130a2565b9450613890602087016130a2565b93506040860135925060608601359150608086013567ffffffffffffffff8111156138b9575f80fd5b61336888828901613266565b600181811c908216806138d957607f821691505b6020821081036138f757634e487b7160e01b5f52602260045260245ffd5b50919050565b60208082526048908201527fd0a2d0bed0bbd18cd0bad0be20d0b2d0bbd0b0d0b4d0b5d0bbd0b5d18620d0bc60408201527fd0bed0b6d0b5d18220d18dd182d0be20d0b8d181d0bfd0bed0bbd18cd0b7d0be606082015267342cb42c3460b46360c21b608082015260a00190565b634e487b7160e01b5f52603260045260245ffd5b634e487b7160e01b5f52601160045260245ffd5b80820281158282048414176102ea576102ea61397f565b601f8211156139ee57805f5260205f20601f840160051c810160208510156139cf5750805b601f840160051c820191505b81811015612974575f81556001016139db565b505050565b815167ffffffffffffffff811115613a0d57613a0d613192565b613a2181613a1b84546138c5565b846139aa565b602080601f831160018114613a54575f8415613a3d5750858301515b5f19600386901b1c1916600185901b178555610cd4565b5f85815260208120601f198616915b82811015613a8257888601518255948401946001909101908401613a63565b5085821015613a9f57878501515f19600388901b60f8161c191681555b5050505050600190811b01905550565b818103818111156102ea576102ea61397f565b5f8085851115613ad0575f80fd5b83861115613adc575f80fd5b5050820193919092039150565b6550524f46492d60d01b815281836006830137630c8c0c8d60e21b91016006810191909152600a01919050565b5f8251613b27818460208701613133565b9190910192915050565b5f82613b4b57634e487b7160e01b5f52601260045260245ffd5b500490565b5f808354613b5d816138c5565b60018281168015613b755760018114613b8a57613bb6565b60ff1984168752821515830287019450613bb6565b875f526020805f205f5b85811015613bad5781548a820152908401908201613b94565b50505082870194505b50929695505050505050565b808201808211156102ea576102ea61397f565b604081525f613be760408301856134d5565b8281036020840152613bf981856134d5565b95945050505050565b6001600160a01b03868116825285166020820152604081018490526060810183905260a0608082018190525f90613c3b90830184613155565b979650505050505050565b5f60208284031215613c56575f80fd5b8151613115816130e5565b6001600160a01b0386811682528516602082015260a0604082018190525f90613c8c908301866134d5565b8281036060840152613c9e81866134d5565b90508281036080840152613cb28185613155565b9897505050505050505056fea26469706673582212209617486a8efc27351d77498a3c5773b6d0d0b66167f6425f835080789775fcbd64736f6c63430008160033d09fd183d0b7d18bd180d0b8d0ba20d0bfd0bed185d0b8d182d0b8d0bb20d0bad0bed182d0b8d0bad0b020d18120d097d0b5d0bcd0bbd0b8d09ad0bed0bcd0bed187d0b5d0ba20d181d0bbd0b8d0bbd181d18f20d18120d0bad0bed181d0bcd0bed181d0bed0bcd092d0bad183d181d0bdd18fd188d0bad0b020d0b2d0bfd0b5d180d0b2d18bd0b520d0bfd180d0bed0b1d183d0b5d18220d18fd0bfd0bed0bdd181d0bad183d18e20d0bad183d185d0bdd18e",
			"opcodes": "PUSH1 0x80 PUSH1 0x40 MSTORE CALLVALUE DUP1 ISZERO PUSH3 0x10 JUMPI PUSH0 DUP1 REVERT JUMPDEST POP PUSH1 0x40 MLOAD PUSH3 0x4C7D CODESIZE SUB DUP1 PUSH3 0x4C7D DUP4 CODECOPY DUP2 ADD PUSH1 0x40 DUP2 SWAP1 MSTORE PUSH3 0x33 SWAP2 PUSH3 0xA5B JUMP JUMPDEST PUSH1 0x40 DUP1 MLOAD PUSH1 0x20 DUP2 ADD SWAP1 SWAP2 MSTORE PUSH0 DUP2 MSTORE PUSH3 0x4C DUP2 PUSH3 0x254 JUMP JUMPDEST POP PUSH1 0x5 DUP1 SLOAD PUSH1 0x1 PUSH1 0x1 PUSH1 0xA0 SHL SUB NOT AND PUSH1 0x1 PUSH1 0x1 PUSH1 0xA0 SHL SUB DUP4 AND SWAP1 DUP2 OR SWAP1 SWAP2 SSTORE PUSH1 0x40 DUP1 MLOAD PUSH4 0x313CE567 PUSH1 0xE0 SHL DUP2 MSTORE SWAP1 MLOAD PUSH4 0x313CE567 SWAP2 PUSH1 0x4 DUP1 DUP3 ADD SWAP3 PUSH1 0x20 SWAP3 SWAP1 SWAP2 SWAP1 DUP3 SWAP1 SUB ADD DUP2 DUP7 GAS STATICCALL ISZERO DUP1 ISZERO PUSH3 0xA5 JUMPI RETURNDATASIZE PUSH0 DUP1 RETURNDATACOPY RETURNDATASIZE PUSH0 REVERT JUMPDEST POP POP POP POP PUSH1 0x40 MLOAD RETURNDATASIZE PUSH1 0x1F NOT PUSH1 0x1F DUP3 ADD AND DUP3 ADD DUP1 PUSH1 0x40 MSTORE POP DUP2 ADD SWAP1 PUSH3 0xCB SWAP2 SWAP1 PUSH3 0xA8A JUMP JUMPDEST PUSH3 0xD8 SWAP1 PUSH1 0xA PUSH3 0xBBB JUMP JUMPDEST PUSH1 0x3 SSTORE PUSH1 0x4 DUP1 SLOAD PUSH1 0x1 PUSH1 0x1 PUSH1 0xA0 SHL SUB NOT AND CALLER OR SWAP1 SSTORE PUSH1 0x40 DUP1 MLOAD DUP1 DUP3 ADD DUP3 MSTORE PUSH1 0xE DUP2 MSTORE PUSH14 0x684D685F685E685F68C3E85AE85D PUSH1 0x91 SHL PUSH1 0x20 DUP1 DUP4 ADD SWAP2 SWAP1 SWAP2 MSTORE DUP3 MLOAD PUSH1 0x60 DUP2 ADD SWAP1 SWAP4 MSTORE PUSH1 0x2F DUP1 DUP5 MSTORE PUSH3 0x163 SWAP4 PUSH0 SWAP4 SWAP3 SWAP1 SWAP2 SWAP1 PUSH3 0x4C02 SWAP1 DUP4 ADD CODECOPY PUSH1 0x40 DUP1 MLOAD DUP1 DUP3 ADD SWAP1 SWAP2 MSTORE PUSH1 0xC DUP2 MSTORE PUSH12 0x6361745F6E6674312E706E67 PUSH1 0xA0 SHL PUSH1 0x20 DUP3 ADD MSTORE PUSH0 PUSH1 0x1 TIMESTAMP PUSH3 0x266 JUMP JUMPDEST PUSH3 0x1DA PUSH0 PUSH1 0x40 MLOAD DUP1 PUSH1 0x40 ADD PUSH1 0x40 MSTORE DUP1 PUSH1 0x12 DUP2 MSTORE PUSH1 0x20 ADD PUSH18 0xD092D0BAD183D181D0BDD18FD188D0BAD0B PUSH1 0x74 SHL DUP2 MSTORE POP PUSH1 0x40 MLOAD DUP1 PUSH1 0x80 ADD PUSH1 0x40 MSTORE DUP1 PUSH1 0x4C DUP2 MSTORE PUSH1 0x20 ADD PUSH3 0x4C31 PUSH1 0x4C SWAP2 CODECOPY PUSH1 0x40 DUP1 MLOAD DUP1 DUP3 ADD SWAP1 SWAP2 MSTORE PUSH1 0xC DUP2 MSTORE PUSH12 0x6361745F6E6674322E706E67 PUSH1 0xA0 SHL PUSH1 0x20 DUP3 ADD MSTORE PUSH0 PUSH1 0x1 TIMESTAMP PUSH3 0x266 JUMP JUMPDEST PUSH3 0x24D PUSH0 PUSH1 0x40 MLOAD DUP1 PUSH1 0x40 ADD PUSH1 0x40 MSTORE DUP1 PUSH1 0xE DUP2 MSTORE PUSH1 0x20 ADD PUSH14 0x684FE8C1E85BE8C5E8C0685C685D PUSH1 0x91 SHL DUP2 MSTORE POP PUSH1 0x40 MLOAD DUP1 PUSH1 0x60 ADD PUSH1 0x40 MSTORE DUP1 PUSH1 0x38 DUP2 MSTORE PUSH1 0x20 ADD PUSH3 0x4BCA PUSH1 0x38 SWAP2 CODECOPY PUSH1 0x40 DUP1 MLOAD DUP1 DUP3 ADD SWAP1 SWAP2 MSTORE PUSH1 0xC DUP2 MSTORE PUSH12 0x6361745F6E6674332E706E67 PUSH1 0xA0 SHL PUSH1 0x20 DUP3 ADD MSTORE PUSH0 PUSH1 0x1 TIMESTAMP PUSH3 0x266 JUMP JUMPDEST POP PUSH3 0xEC8 JUMP JUMPDEST PUSH1 0x2 PUSH3 0x262 DUP3 DUP3 PUSH3 0xC66 JUMP JUMPDEST POP POP JUMP JUMPDEST PUSH1 0x4 SLOAD PUSH1 0x1 PUSH1 0x1 PUSH1 0xA0 SHL SUB AND CALLER EQ PUSH3 0x2FD JUMPI PUSH1 0x40 MLOAD PUSH3 0x461BCD PUSH1 0xE5 SHL DUP2 MSTORE PUSH1 0x20 PUSH1 0x4 DUP3 ADD MSTORE PUSH1 0x48 PUSH1 0x24 DUP3 ADD MSTORE PUSH32 0xD0A2D0BED0BBD18CD0BAD0BE20D0B2D0BBD0B0D0B4D0B5D0BBD0B5D18620D0BC PUSH1 0x44 DUP3 ADD MSTORE PUSH32 0xD0BED0B6D0B5D18220D18DD182D0BE20D0B8D181D0BFD0BED0BBD18CD0B7D0BE PUSH1 0x64 DUP3 ADD MSTORE PUSH8 0x342CB42C3460B463 PUSH1 0xC2 SHL PUSH1 0x84 DUP3 ADD MSTORE PUSH1 0xA4 ADD JUMPDEST PUSH1 0x40 MLOAD DUP1 SWAP2 SUB SWAP1 REVERT JUMPDEST PUSH0 DUP8 DUP2 MSTORE PUSH1 0x8 PUSH1 0x20 MSTORE PUSH1 0x40 SWAP1 KECCAK256 PUSH1 0x5 ADD SLOAD ISZERO PUSH3 0x383 JUMPI PUSH1 0x40 MLOAD PUSH3 0x461BCD PUSH1 0xE5 SHL DUP2 MSTORE PUSH1 0x20 PUSH1 0x4 DUP3 ADD MSTORE PUSH1 0x36 PUSH1 0x24 DUP3 ADD MSTORE PUSH32 0x4E465420D18120D182D0B0D0BAD0B8D0BC20696420D183D0B6D0B520D0B5D181 PUSH1 0x44 DUP3 ADD MSTORE PUSH32 0xD182D18C20D0B220D181D0B8D181D182D0B5D0BCD0B500000000000000000000 PUSH1 0x64 DUP3 ADD MSTORE PUSH1 0x84 ADD PUSH3 0x2F4 JUMP JUMPDEST PUSH3 0x3A5 CALLER DUP9 DUP5 PUSH1 0x40 MLOAD DUP1 PUSH1 0x20 ADD PUSH1 0x40 MSTORE DUP1 PUSH0 DUP2 MSTORE POP PUSH3 0x54A PUSH1 0x20 SHL PUSH1 0x20 SHR JUMP JUMPDEST PUSH1 0x40 DUP1 MLOAD PUSH2 0x100 DUP2 ADD DUP3 MSTORE DUP9 DUP2 MSTORE CALLER PUSH0 SWAP1 DUP2 MSTORE PUSH1 0x9 PUSH1 0x20 SWAP1 DUP2 MSTORE DUP4 DUP3 KECCAK256 SLOAD DUP2 DUP5 ADD SWAP1 DUP2 MSTORE DUP4 DUP6 ADD DUP12 DUP2 MSTORE PUSH1 0x60 DUP6 ADD DUP12 SWAP1 MSTORE PUSH1 0x80 DUP6 ADD DUP11 SWAP1 MSTORE PUSH1 0xA0 DUP6 ADD DUP10 SWAP1 MSTORE PUSH1 0xC0 DUP6 ADD DUP9 SWAP1 MSTORE PUSH1 0xE0 DUP6 ADD DUP8 SWAP1 MSTORE DUP13 DUP5 MSTORE PUSH1 0x8 SWAP1 SWAP3 MSTORE SWAP4 SWAP1 SWAP2 KECCAK256 DUP3 MLOAD DUP2 SSTORE SWAP3 MLOAD PUSH1 0x1 DUP5 ADD SSTORE MLOAD SWAP1 SWAP2 SWAP1 PUSH1 0x2 DUP3 ADD SWAP1 PUSH3 0x41E SWAP1 DUP3 PUSH3 0xC66 JUMP JUMPDEST POP PUSH1 0x60 DUP3 ADD MLOAD PUSH1 0x3 DUP3 ADD SWAP1 PUSH3 0x435 SWAP1 DUP3 PUSH3 0xC66 JUMP JUMPDEST POP PUSH1 0x80 DUP3 ADD MLOAD PUSH1 0x4 DUP3 ADD SWAP1 PUSH3 0x44C SWAP1 DUP3 PUSH3 0xC66 JUMP JUMPDEST POP PUSH1 0xA0 DUP3 DUP2 ADD MLOAD PUSH1 0x5 DUP4 ADD SSTORE PUSH1 0xC0 DUP1 DUP5 ADD MLOAD PUSH1 0x6 DUP5 ADD SSTORE PUSH1 0xE0 SWAP4 DUP5 ADD MLOAD PUSH1 0x7 SWAP1 SWAP4 ADD SWAP3 SWAP1 SWAP3 SSTORE CALLER PUSH0 SWAP1 DUP2 MSTORE PUSH1 0x9 PUSH1 0x20 DUP2 DUP2 MSTORE PUSH1 0x40 DUP1 DUP5 KECCAK256 DUP2 MLOAD PUSH2 0x100 DUP2 ADD DUP4 MSTORE DUP16 DUP2 MSTORE SWAP4 DUP4 MSTORE DUP1 SLOAD DUP5 DUP5 ADD DUP2 DUP2 MSTORE SWAP3 DUP6 ADD DUP16 DUP2 MSTORE PUSH1 0x60 DUP7 ADD DUP16 SWAP1 MSTORE PUSH1 0x80 DUP7 ADD DUP15 SWAP1 MSTORE SWAP7 DUP6 ADD DUP13 SWAP1 MSTORE SWAP7 DUP5 ADD DUP11 SWAP1 MSTORE SWAP7 DUP4 ADD DUP9 SWAP1 MSTORE PUSH1 0x1 DUP1 DUP8 ADD DUP9 SSTORE SWAP7 DUP5 MSTORE SWAP3 KECCAK256 DUP2 MLOAD PUSH1 0x8 SWAP1 SWAP6 MUL ADD SWAP4 DUP5 SSTORE SWAP1 MLOAD SWAP4 DUP4 ADD SWAP4 SWAP1 SWAP4 SSTORE MLOAD PUSH1 0x2 DUP3 ADD SWAP1 PUSH3 0x4F2 SWAP1 DUP3 PUSH3 0xC66 JUMP JUMPDEST POP PUSH1 0x60 DUP3 ADD MLOAD PUSH1 0x3 DUP3 ADD SWAP1 PUSH3 0x509 SWAP1 DUP3 PUSH3 0xC66 JUMP JUMPDEST POP PUSH1 0x80 DUP3 ADD MLOAD PUSH1 0x4 DUP3 ADD SWAP1 PUSH3 0x520 SWAP1 DUP3 PUSH3 0xC66 JUMP JUMPDEST POP PUSH1 0xA0 DUP3 ADD MLOAD DUP2 PUSH1 0x5 ADD SSTORE PUSH1 0xC0 DUP3 ADD MLOAD DUP2 PUSH1 0x6 ADD SSTORE PUSH1 0xE0 DUP3 ADD MLOAD DUP2 PUSH1 0x7 ADD SSTORE POP POP POP POP POP POP POP POP POP JUMP JUMPDEST PUSH1 0x1 PUSH1 0x1 PUSH1 0xA0 SHL SUB DUP5 AND PUSH3 0x575 JUMPI PUSH1 0x40 MLOAD PUSH4 0x2BFA23E7 PUSH1 0xE1 SHL DUP2 MSTORE PUSH0 PUSH1 0x4 DUP3 ADD MSTORE PUSH1 0x24 ADD PUSH3 0x2F4 JUMP JUMPDEST PUSH1 0x40 DUP1 MLOAD PUSH1 0x1 DUP1 DUP3 MSTORE PUSH1 0x20 DUP3 ADD DUP7 SWAP1 MSTORE DUP2 DUP4 ADD SWAP1 DUP2 MSTORE PUSH1 0x60 DUP3 ADD DUP6 SWAP1 MSTORE PUSH1 0x80 DUP3 ADD SWAP1 SWAP3 MSTORE SWAP1 PUSH3 0x5A9 PUSH0 DUP8 DUP5 DUP5 DUP8 PUSH3 0x5B1 JUMP JUMPDEST POP POP POP POP POP POP JUMP JUMPDEST PUSH3 0x5BF DUP6 DUP6 DUP6 DUP6 PUSH3 0x614 JUMP JUMPDEST PUSH1 0x1 PUSH1 0x1 PUSH1 0xA0 SHL SUB DUP5 AND ISZERO PUSH3 0x60D JUMPI DUP3 MLOAD CALLER SWAP1 PUSH1 0x1 SUB PUSH3 0x5FD JUMPI PUSH1 0x20 DUP5 DUP2 ADD MLOAD SWAP1 DUP5 ADD MLOAD PUSH3 0x5F5 DUP4 DUP10 DUP10 DUP6 DUP6 DUP10 PUSH3 0x832 JUMP JUMPDEST POP POP PUSH3 0x5A9 JUMP JUMPDEST PUSH3 0x5A9 DUP2 DUP8 DUP8 DUP8 DUP8 DUP8 PUSH3 0x969 JUMP JUMPDEST POP POP POP POP POP JUMP JUMPDEST DUP1 MLOAD DUP3 MLOAD EQ PUSH3 0x645 JUMPI DUP2 MLOAD DUP2 MLOAD PUSH1 0x40 MLOAD PUSH4 0x5B059991 PUSH1 0xE0 SHL DUP2 MSTORE PUSH1 0x4 DUP2 ADD SWAP3 SWAP1 SWAP3 MSTORE PUSH1 0x24 DUP3 ADD MSTORE PUSH1 0x44 ADD PUSH3 0x2F4 JUMP JUMPDEST CALLER PUSH0 JUMPDEST DUP4 MLOAD DUP2 LT ISZERO PUSH3 0x74F JUMPI PUSH1 0x20 DUP2 DUP2 MUL DUP6 DUP2 ADD DUP3 ADD MLOAD SWAP1 DUP6 ADD SWAP1 SWAP2 ADD MLOAD PUSH1 0x1 PUSH1 0x1 PUSH1 0xA0 SHL SUB DUP9 AND ISZERO PUSH3 0x6FD JUMPI PUSH0 DUP3 DUP2 MSTORE PUSH1 0x20 DUP2 DUP2 MSTORE PUSH1 0x40 DUP1 DUP4 KECCAK256 PUSH1 0x1 PUSH1 0x1 PUSH1 0xA0 SHL SUB DUP13 AND DUP5 MSTORE SWAP1 SWAP2 MSTORE SWAP1 KECCAK256 SLOAD DUP2 DUP2 LT ISZERO PUSH3 0x6D7 JUMPI PUSH1 0x40 MLOAD PUSH4 0x3DEE4C5 PUSH1 0xE0 SHL DUP2 MSTORE PUSH1 0x1 PUSH1 0x1 PUSH1 0xA0 SHL SUB DUP11 AND PUSH1 0x4 DUP3 ADD MSTORE PUSH1 0x24 DUP2 ADD DUP3 SWAP1 MSTORE PUSH1 0x44 DUP2 ADD DUP4 SWAP1 MSTORE PUSH1 0x64 DUP2 ADD DUP5 SWAP1 MSTORE PUSH1 0x84 ADD PUSH3 0x2F4 JUMP JUMPDEST PUSH0 DUP4 DUP2 MSTORE PUSH1 0x20 DUP2 DUP2 MSTORE PUSH1 0x40 DUP1 DUP4 KECCAK256 PUSH1 0x1 PUSH1 0x1 PUSH1 0xA0 SHL SUB DUP14 AND DUP5 MSTORE SWAP1 SWAP2 MSTORE SWAP1 KECCAK256 SWAP1 DUP3 SWAP1 SUB SWAP1 SSTORE JUMPDEST PUSH1 0x1 PUSH1 0x1 PUSH1 0xA0 SHL SUB DUP8 AND ISZERO PUSH3 0x744 JUMPI PUSH0 DUP3 DUP2 MSTORE PUSH1 0x20 DUP2 DUP2 MSTORE PUSH1 0x40 DUP1 DUP4 KECCAK256 PUSH1 0x1 PUSH1 0x1 PUSH1 0xA0 SHL SUB DUP12 AND DUP5 MSTORE SWAP1 SWAP2 MSTORE DUP2 KECCAK256 DUP1 SLOAD DUP4 SWAP3 SWAP1 PUSH3 0x73E SWAP1 DUP5 SWAP1 PUSH3 0xD2E JUMP JUMPDEST SWAP1 SWAP2 SSTORE POP POP JUMPDEST POP POP PUSH1 0x1 ADD PUSH3 0x648 JUMP JUMPDEST POP DUP3 MLOAD PUSH1 0x1 SUB PUSH3 0x7D2 JUMPI PUSH1 0x20 DUP4 ADD MLOAD PUSH0 SWAP1 PUSH1 0x20 DUP5 ADD MLOAD SWAP1 SWAP2 POP DUP6 PUSH1 0x1 PUSH1 0x1 PUSH1 0xA0 SHL SUB AND DUP8 PUSH1 0x1 PUSH1 0x1 PUSH1 0xA0 SHL SUB AND DUP5 PUSH1 0x1 PUSH1 0x1 PUSH1 0xA0 SHL SUB AND PUSH32 0xC3D58168C5AE7397731D063D5BBF3D657854427343F4C083240F7AACAA2D0F62 DUP6 DUP6 PUSH1 0x40 MLOAD PUSH3 0x7C2 SWAP3 SWAP2 SWAP1 SWAP2 DUP3 MSTORE PUSH1 0x20 DUP3 ADD MSTORE PUSH1 0x40 ADD SWAP1 JUMP JUMPDEST PUSH1 0x40 MLOAD DUP1 SWAP2 SUB SWAP1 LOG4 POP POP PUSH3 0x60D JUMP JUMPDEST DUP4 PUSH1 0x1 PUSH1 0x1 PUSH1 0xA0 SHL SUB AND DUP6 PUSH1 0x1 PUSH1 0x1 PUSH1 0xA0 SHL SUB AND DUP3 PUSH1 0x1 PUSH1 0x1 PUSH1 0xA0 SHL SUB AND PUSH32 0x4A39DC06D4C0DBC64B70AF90FD698A233A518AA5D07E595D983B8C0526C8F7FB DUP7 DUP7 PUSH1 0x40 MLOAD PUSH3 0x823 SWAP3 SWAP2 SWAP1 PUSH3 0xD80 JUMP JUMPDEST PUSH1 0x40 MLOAD DUP1 SWAP2 SUB SWAP1 LOG4 POP POP POP POP POP JUMP JUMPDEST PUSH1 0x1 PUSH1 0x1 PUSH1 0xA0 SHL SUB DUP5 AND EXTCODESIZE ISZERO PUSH3 0x5A9 JUMPI PUSH1 0x40 MLOAD PUSH4 0xF23A6E61 PUSH1 0xE0 SHL DUP2 MSTORE PUSH1 0x1 PUSH1 0x1 PUSH1 0xA0 SHL SUB DUP6 AND SWAP1 PUSH4 0xF23A6E61 SWAP1 PUSH3 0x879 SWAP1 DUP10 SWAP1 DUP10 SWAP1 DUP9 SWAP1 DUP9 SWAP1 DUP9 SWAP1 PUSH1 0x4 ADD PUSH3 0xDF6 JUMP JUMPDEST PUSH1 0x20 PUSH1 0x40 MLOAD DUP1 DUP4 SUB DUP2 PUSH0 DUP8 GAS CALL SWAP3 POP POP POP DUP1 ISZERO PUSH3 0x8B6 JUMPI POP PUSH1 0x40 DUP1 MLOAD PUSH1 0x1F RETURNDATASIZE SWAP1 DUP2 ADD PUSH1 0x1F NOT AND DUP3 ADD SWAP1 SWAP3 MSTORE PUSH3 0x8B3 SWAP2 DUP2 ADD SWAP1 PUSH3 0xE3C JUMP JUMPDEST PUSH1 0x1 JUMPDEST PUSH3 0x922 JUMPI RETURNDATASIZE DUP1 DUP1 ISZERO PUSH3 0x8E6 JUMPI PUSH1 0x40 MLOAD SWAP2 POP PUSH1 0x1F NOT PUSH1 0x3F RETURNDATASIZE ADD AND DUP3 ADD PUSH1 0x40 MSTORE RETURNDATASIZE DUP3 MSTORE RETURNDATASIZE PUSH0 PUSH1 0x20 DUP5 ADD RETURNDATACOPY PUSH3 0x8EB JUMP JUMPDEST PUSH1 0x60 SWAP2 POP JUMPDEST POP DUP1 MLOAD PUSH0 SUB PUSH3 0x91A JUMPI PUSH1 0x40 MLOAD PUSH4 0x2BFA23E7 PUSH1 0xE1 SHL DUP2 MSTORE PUSH1 0x1 PUSH1 0x1 PUSH1 0xA0 SHL SUB DUP7 AND PUSH1 0x4 DUP3 ADD MSTORE PUSH1 0x24 ADD PUSH3 0x2F4 JUMP JUMPDEST DUP1 MLOAD DUP2 PUSH1 0x20 ADD REVERT JUMPDEST PUSH1 0x1 PUSH1 0x1 PUSH1 0xE0 SHL SUB NOT DUP2 AND PUSH4 0xF23A6E61 PUSH1 0xE0 SHL EQ PUSH3 0x960 JUMPI PUSH1 0x40 MLOAD PUSH4 0x2BFA23E7 PUSH1 0xE1 SHL DUP2 MSTORE PUSH1 0x1 PUSH1 0x1 PUSH1 0xA0 SHL SUB DUP7 AND PUSH1 0x4 DUP3 ADD MSTORE PUSH1 0x24 ADD PUSH3 0x2F4 JUMP JUMPDEST POP POP POP POP POP POP POP JUMP JUMPDEST PUSH1 0x1 PUSH1 0x1 PUSH1 0xA0 SHL SUB DUP5 AND EXTCODESIZE ISZERO PUSH3 0x5A9 JUMPI PUSH1 0x40 MLOAD PUSH4 0xBC197C81 PUSH1 0xE0 SHL DUP2 MSTORE PUSH1 0x1 PUSH1 0x1 PUSH1 0xA0 SHL SUB DUP6 AND SWAP1 PUSH4 0xBC197C81 SWAP1 PUSH3 0x9B0 SWAP1 DUP10 SWAP1 DUP10 SWAP1 DUP9 SWAP1 DUP9 SWAP1 DUP9 SWAP1 PUSH1 0x4 ADD PUSH3 0xE65 JUMP JUMPDEST PUSH1 0x20 PUSH1 0x40 MLOAD DUP1 DUP4 SUB DUP2 PUSH0 DUP8 GAS CALL SWAP3 POP POP POP DUP1 ISZERO PUSH3 0x9ED JUMPI POP PUSH1 0x40 DUP1 MLOAD PUSH1 0x1F RETURNDATASIZE SWAP1 DUP2 ADD PUSH1 0x1F NOT AND DUP3 ADD SWAP1 SWAP3 MSTORE PUSH3 0x9EA SWAP2 DUP2 ADD SWAP1 PUSH3 0xE3C JUMP JUMPDEST PUSH1 0x1 JUMPDEST PUSH3 0xA1D JUMPI RETURNDATASIZE DUP1 DUP1 ISZERO PUSH3 0x8E6 JUMPI PUSH1 0x40 MLOAD SWAP2 POP PUSH1 0x1F NOT PUSH1 0x3F RETURNDATASIZE ADD AND DUP3 ADD PUSH1 0x40 MSTORE RETURNDATASIZE DUP3 MSTORE RETURNDATASIZE PUSH0 PUSH1 0x20 DUP5 ADD RETURNDATACOPY PUSH3 0x8EB JUMP JUMPDEST PUSH1 0x1 PUSH1 0x1 PUSH1 0xE0 SHL SUB NOT DUP2 AND PUSH4 0xBC197C81 PUSH1 0xE0 SHL EQ PUSH3 0x960 JUMPI PUSH1 0x40 MLOAD PUSH4 0x2BFA23E7 PUSH1 0xE1 SHL DUP2 MSTORE PUSH1 0x1 PUSH1 0x1 PUSH1 0xA0 SHL SUB DUP7 AND PUSH1 0x4 DUP3 ADD MSTORE PUSH1 0x24 ADD PUSH3 0x2F4 JUMP JUMPDEST PUSH0 PUSH1 0x20 DUP3 DUP5 SUB SLT ISZERO PUSH3 0xA6C JUMPI PUSH0 DUP1 REVERT JUMPDEST DUP2 MLOAD PUSH1 0x1 PUSH1 0x1 PUSH1 0xA0 SHL SUB DUP2 AND DUP2 EQ PUSH3 0xA83 JUMPI PUSH0 DUP1 REVERT JUMPDEST SWAP4 SWAP3 POP POP POP JUMP JUMPDEST PUSH0 PUSH1 0x20 DUP3 DUP5 SUB SLT ISZERO PUSH3 0xA9B JUMPI PUSH0 DUP1 REVERT JUMPDEST DUP2 MLOAD PUSH1 0xFF DUP2 AND DUP2 EQ PUSH3 0xA83 JUMPI PUSH0 DUP1 REVERT JUMPDEST PUSH4 0x4E487B71 PUSH1 0xE0 SHL PUSH0 MSTORE PUSH1 0x11 PUSH1 0x4 MSTORE PUSH1 0x24 PUSH0 REVERT JUMPDEST PUSH1 0x1 DUP2 DUP2 JUMPDEST DUP1 DUP6 GT ISZERO PUSH3 0xB00 JUMPI DUP2 PUSH0 NOT DIV DUP3 GT ISZERO PUSH3 0xAE4 JUMPI PUSH3 0xAE4 PUSH3 0xAAC JUMP JUMPDEST DUP1 DUP6 AND ISZERO PUSH3 0xAF2 JUMPI SWAP2 DUP2 MUL SWAP2 JUMPDEST SWAP4 DUP5 SHR SWAP4 SWAP1 DUP1 MUL SWAP1 PUSH3 0xAC5 JUMP JUMPDEST POP SWAP3 POP SWAP3 SWAP1 POP JUMP JUMPDEST PUSH0 DUP3 PUSH3 0xB18 JUMPI POP PUSH1 0x1 PUSH3 0xBB5 JUMP JUMPDEST DUP2 PUSH3 0xB26 JUMPI POP PUSH0 PUSH3 0xBB5 JUMP JUMPDEST DUP2 PUSH1 0x1 DUP2 EQ PUSH3 0xB3F JUMPI PUSH1 0x2 DUP2 EQ PUSH3 0xB4A JUMPI PUSH3 0xB6A JUMP JUMPDEST PUSH1 0x1 SWAP2 POP POP PUSH3 0xBB5 JUMP JUMPDEST PUSH1 0xFF DUP5 GT ISZERO PUSH3 0xB5E JUMPI PUSH3 0xB5E PUSH3 0xAAC JUMP JUMPDEST POP POP PUSH1 0x1 DUP3 SHL PUSH3 0xBB5 JUMP JUMPDEST POP PUSH1 0x20 DUP4 LT PUSH2 0x133 DUP4 LT AND PUSH1 0x4E DUP5 LT PUSH1 0xB DUP5 LT AND OR ISZERO PUSH3 0xB8F JUMPI POP DUP2 DUP2 EXP PUSH3 0xBB5 JUMP JUMPDEST PUSH3 0xB9B DUP4 DUP4 PUSH3 0xAC0 JUMP JUMPDEST DUP1 PUSH0 NOT DIV DUP3 GT ISZERO PUSH3 0xBB1 JUMPI PUSH3 0xBB1 PUSH3 0xAAC JUMP JUMPDEST MUL SWAP1 POP JUMPDEST SWAP3 SWAP2 POP POP JUMP JUMPDEST PUSH0 PUSH3 0xA83 PUSH1 0xFF DUP5 AND DUP4 PUSH3 0xB08 JUMP JUMPDEST PUSH4 0x4E487B71 PUSH1 0xE0 SHL PUSH0 MSTORE PUSH1 0x41 PUSH1 0x4 MSTORE PUSH1 0x24 PUSH0 REVERT JUMPDEST PUSH1 0x1 DUP2 DUP2 SHR SWAP1 DUP3 AND DUP1 PUSH3 0xBF4 JUMPI PUSH1 0x7F DUP3 AND SWAP2 POP JUMPDEST PUSH1 0x20 DUP3 LT DUP2 SUB PUSH3 0xC13 JUMPI PUSH4 0x4E487B71 PUSH1 0xE0 SHL PUSH0 MSTORE PUSH1 0x22 PUSH1 0x4 MSTORE PUSH1 0x24 PUSH0 REVERT JUMPDEST POP SWAP2 SWAP1 POP JUMP JUMPDEST PUSH1 0x1F DUP3 GT ISZERO PUSH3 0xC61 JUMPI DUP1 PUSH0 MSTORE PUSH1 0x20 PUSH0 KECCAK256 PUSH1 0x1F DUP5 ADD PUSH1 0x5 SHR DUP2 ADD PUSH1 0x20 DUP6 LT ISZERO PUSH3 0xC40 JUMPI POP DUP1 JUMPDEST PUSH1 0x1F DUP5 ADD PUSH1 0x5 SHR DUP3 ADD SWAP2 POP JUMPDEST DUP2 DUP2 LT ISZERO PUSH3 0x60D JUMPI PUSH0 DUP2 SSTORE PUSH1 0x1 ADD PUSH3 0xC4C JUMP JUMPDEST POP POP POP JUMP JUMPDEST DUP2 MLOAD PUSH1 0x1 PUSH1 0x1 PUSH1 0x40 SHL SUB DUP2 GT ISZERO PUSH3 0xC82 JUMPI PUSH3 0xC82 PUSH3 0xBCB JUMP JUMPDEST PUSH3 0xC9A DUP2 PUSH3 0xC93 DUP5 SLOAD PUSH3 0xBDF JUMP JUMPDEST DUP5 PUSH3 0xC19 JUMP JUMPDEST PUSH1 0x20 DUP1 PUSH1 0x1F DUP4 GT PUSH1 0x1 DUP2 EQ PUSH3 0xCD0 JUMPI PUSH0 DUP5 ISZERO PUSH3 0xCB8 JUMPI POP DUP6 DUP4 ADD MLOAD JUMPDEST PUSH0 NOT PUSH1 0x3 DUP7 SWAP1 SHL SHR NOT AND PUSH1 0x1 DUP6 SWAP1 SHL OR DUP6 SSTORE PUSH3 0x5A9 JUMP JUMPDEST PUSH0 DUP6 DUP2 MSTORE PUSH1 0x20 DUP2 KECCAK256 PUSH1 0x1F NOT DUP7 AND SWAP2 JUMPDEST DUP3 DUP2 LT ISZERO PUSH3 0xD00 JUMPI DUP9 DUP7 ADD MLOAD DUP3 SSTORE SWAP5 DUP5 ADD SWAP5 PUSH1 0x1 SWAP1 SWAP2 ADD SWAP1 DUP5 ADD PUSH3 0xCDF JUMP JUMPDEST POP DUP6 DUP3 LT ISZERO PUSH3 0xD1E JUMPI DUP8 DUP6 ADD MLOAD PUSH0 NOT PUSH1 0x3 DUP9 SWAP1 SHL PUSH1 0xF8 AND SHR NOT AND DUP2 SSTORE JUMPDEST POP POP POP POP POP PUSH1 0x1 SWAP1 DUP2 SHL ADD SWAP1 SSTORE POP JUMP JUMPDEST DUP1 DUP3 ADD DUP1 DUP3 GT ISZERO PUSH3 0xBB5 JUMPI PUSH3 0xBB5 PUSH3 0xAAC JUMP JUMPDEST PUSH0 DUP2 MLOAD DUP1 DUP5 MSTORE PUSH1 0x20 DUP1 DUP6 ADD SWAP5 POP PUSH1 0x20 DUP5 ADD PUSH0 JUMPDEST DUP4 DUP2 LT ISZERO PUSH3 0xD75 JUMPI DUP2 MLOAD DUP8 MSTORE SWAP6 DUP3 ADD SWAP6 SWAP1 DUP3 ADD SWAP1 PUSH1 0x1 ADD PUSH3 0xD57 JUMP JUMPDEST POP SWAP5 SWAP6 SWAP5 POP POP POP POP POP JUMP JUMPDEST PUSH1 0x40 DUP2 MSTORE PUSH0 PUSH3 0xD94 PUSH1 0x40 DUP4 ADD DUP6 PUSH3 0xD44 JUMP JUMPDEST DUP3 DUP2 SUB PUSH1 0x20 DUP5 ADD MSTORE PUSH3 0xDA8 DUP2 DUP6 PUSH3 0xD44 JUMP JUMPDEST SWAP6 SWAP5 POP POP POP POP POP JUMP JUMPDEST PUSH0 DUP2 MLOAD DUP1 DUP5 MSTORE PUSH0 JUMPDEST DUP2 DUP2 LT ISZERO PUSH3 0xDD7 JUMPI PUSH1 0x20 DUP2 DUP6 ADD DUP2 ADD MLOAD DUP7 DUP4 ADD DUP3 ADD MSTORE ADD PUSH3 0xDB9 JUMP JUMPDEST POP PUSH0 PUSH1 0x20 DUP3 DUP7 ADD ADD MSTORE PUSH1 0x20 PUSH1 0x1F NOT PUSH1 0x1F DUP4 ADD AND DUP6 ADD ADD SWAP2 POP POP SWAP3 SWAP2 POP POP JUMP JUMPDEST PUSH1 0x1 PUSH1 0x1 PUSH1 0xA0 SHL SUB DUP7 DUP2 AND DUP3 MSTORE DUP6 AND PUSH1 0x20 DUP3 ADD MSTORE PUSH1 0x40 DUP2 ADD DUP5 SWAP1 MSTORE PUSH1 0x60 DUP2 ADD DUP4 SWAP1 MSTORE PUSH1 0xA0 PUSH1 0x80 DUP3 ADD DUP2 SWAP1 MSTORE PUSH0 SWAP1 PUSH3 0xE31 SWAP1 DUP4 ADD DUP5 PUSH3 0xDB1 JUMP JUMPDEST SWAP8 SWAP7 POP POP POP POP POP POP POP JUMP JUMPDEST PUSH0 PUSH1 0x20 DUP3 DUP5 SUB SLT ISZERO PUSH3 0xE4D JUMPI PUSH0 DUP1 REVERT JUMPDEST DUP2 MLOAD PUSH1 0x1 PUSH1 0x1 PUSH1 0xE0 SHL SUB NOT DUP2 AND DUP2 EQ PUSH3 0xA83 JUMPI PUSH0 DUP1 REVERT JUMPDEST PUSH1 0x1 PUSH1 0x1 PUSH1 0xA0 SHL SUB DUP7 DUP2 AND DUP3 MSTORE DUP6 AND PUSH1 0x20 DUP3 ADD MSTORE PUSH1 0xA0 PUSH1 0x40 DUP3 ADD DUP2 SWAP1 MSTORE PUSH0 SWAP1 PUSH3 0xE92 SWAP1 DUP4 ADD DUP7 PUSH3 0xD44 JUMP JUMPDEST DUP3 DUP2 SUB PUSH1 0x60 DUP5 ADD MSTORE PUSH3 0xEA6 DUP2 DUP7 PUSH3 0xD44 JUMP JUMPDEST SWAP1 POP DUP3 DUP2 SUB PUSH1 0x80 DUP5 ADD MSTORE PUSH3 0xEBC DUP2 DUP6 PUSH3 0xDB1 JUMP JUMPDEST SWAP9 SWAP8 POP POP POP POP POP POP POP POP JUMP JUMPDEST PUSH2 0x3CF4 DUP1 PUSH3 0xED6 PUSH0 CODECOPY PUSH0 RETURN INVALID PUSH1 0x80 PUSH1 0x40 MSTORE CALLVALUE DUP1 ISZERO PUSH2 0xF JUMPI PUSH0 DUP1 REVERT JUMPDEST POP PUSH1 0x4 CALLDATASIZE LT PUSH2 0x11B JUMPI PUSH0 CALLDATALOAD PUSH1 0xE0 SHR DUP1 PUSH4 0x694F82B4 GT PUSH2 0xA9 JUMPI DUP1 PUSH4 0x97F588C6 GT PUSH2 0x6E JUMPI DUP1 PUSH4 0x97F588C6 EQ PUSH2 0x268 JUMPI DUP1 PUSH4 0xA22CB465 EQ PUSH2 0x27B JUMPI DUP1 PUSH4 0xA2A376CD EQ PUSH2 0x28E JUMPI DUP1 PUSH4 0xE985E9C5 EQ PUSH2 0x2A3 JUMPI DUP1 PUSH4 0xF242432A EQ PUSH2 0x2B6 JUMPI PUSH0 DUP1 REVERT JUMPDEST DUP1 PUSH4 0x694F82B4 EQ PUSH2 0x209 JUMPI DUP1 PUSH4 0x7BA9165C EQ PUSH2 0x21C JUMPI DUP1 PUSH4 0x845C54F6 EQ PUSH2 0x22F JUMPI DUP1 PUSH4 0x90420AEE EQ PUSH2 0x242 JUMPI DUP1 PUSH4 0x958828E3 EQ PUSH2 0x255 JUMPI PUSH0 DUP1 REVERT JUMPDEST DUP1 PUSH4 0x2EB2C2D6 GT PUSH2 0xEF JUMPI DUP1 PUSH4 0x2EB2C2D6 EQ PUSH2 0x19D JUMPI DUP1 PUSH4 0x3AACC912 EQ PUSH2 0x1B0 JUMPI DUP1 PUSH4 0x4DAD2AAB EQ PUSH2 0x1C3 JUMPI DUP1 PUSH4 0x4E1273F4 EQ PUSH2 0x1D6 JUMPI DUP1 PUSH4 0x68DADEC2 EQ PUSH2 0x1F6 JUMPI PUSH0 DUP1 REVERT JUMPDEST DUP1 PUSH3 0xFDD58E EQ PUSH2 0x11F JUMPI DUP1 PUSH4 0x1FFC9A7 EQ PUSH2 0x145 JUMPI DUP1 PUSH4 0xE89341C EQ PUSH2 0x168 JUMPI DUP1 PUSH4 0x222D9C5C EQ PUSH2 0x188 JUMPI JUMPDEST PUSH0 DUP1 REVERT JUMPDEST PUSH2 0x132 PUSH2 0x12D CALLDATASIZE PUSH1 0x4 PUSH2 0x30BD JUMP JUMPDEST PUSH2 0x2C9 JUMP JUMPDEST PUSH1 0x40 MLOAD SWAP1 DUP2 MSTORE PUSH1 0x20 ADD JUMPDEST PUSH1 0x40 MLOAD DUP1 SWAP2 SUB SWAP1 RETURN JUMPDEST PUSH2 0x158 PUSH2 0x153 CALLDATASIZE PUSH1 0x4 PUSH2 0x30FA JUMP JUMPDEST PUSH2 0x2F0 JUMP JUMPDEST PUSH1 0x40 MLOAD SWAP1 ISZERO ISZERO DUP2 MSTORE PUSH1 0x20 ADD PUSH2 0x13C JUMP JUMPDEST PUSH2 0x17B PUSH2 0x176 CALLDATASIZE PUSH1 0x4 PUSH2 0x311C JUMP JUMPDEST PUSH2 0x33F JUMP JUMPDEST PUSH1 0x40 MLOAD PUSH2 0x13C SWAP2 SWAP1 PUSH2 0x3180 JUMP JUMPDEST PUSH2 0x19B PUSH2 0x196 CALLDATASIZE PUSH1 0x4 PUSH2 0x311C JUMP JUMPDEST PUSH2 0x3D1 JUMP JUMPDEST STOP JUMPDEST PUSH2 0x19B PUSH2 0x1AB CALLDATASIZE PUSH1 0x4 PUSH2 0x32D2 JUMP JUMPDEST PUSH2 0xC75 JUMP JUMPDEST PUSH2 0x19B PUSH2 0x1BE CALLDATASIZE PUSH1 0x4 PUSH2 0x3375 JUMP JUMPDEST PUSH2 0xCDC JUMP JUMPDEST PUSH2 0x17B PUSH2 0x1D1 CALLDATASIZE PUSH1 0x4 PUSH2 0x33AF JUMP JUMPDEST PUSH2 0x10E5 JUMP JUMPDEST PUSH2 0x1E9 PUSH2 0x1E4 CALLDATASIZE PUSH1 0x4 PUSH2 0x341B JUMP JUMPDEST PUSH2 0x12DF JUMP JUMPDEST PUSH1 0x40 MLOAD PUSH2 0x13C SWAP2 SWAP1 PUSH2 0x350F JUMP JUMPDEST PUSH2 0x19B PUSH2 0x204 CALLDATASIZE PUSH1 0x4 PUSH2 0x3521 JUMP JUMPDEST PUSH2 0x13AA JUMP JUMPDEST PUSH2 0x19B PUSH2 0x217 CALLDATASIZE PUSH1 0x4 PUSH2 0x354A JUMP JUMPDEST PUSH2 0x1B72 JUMP JUMPDEST PUSH2 0x19B PUSH2 0x22A CALLDATASIZE PUSH1 0x4 PUSH2 0x35EC JUMP JUMPDEST PUSH2 0x1DC3 JUMP JUMPDEST PUSH2 0x19B PUSH2 0x23D CALLDATASIZE PUSH1 0x4 PUSH2 0x361B JUMP JUMPDEST PUSH2 0x1F9A JUMP JUMPDEST PUSH2 0x19B PUSH2 0x250 CALLDATASIZE PUSH1 0x4 PUSH2 0x36C0 JUMP JUMPDEST PUSH2 0x21F4 JUMP JUMPDEST PUSH2 0x19B PUSH2 0x263 CALLDATASIZE PUSH1 0x4 PUSH2 0x36E0 JUMP JUMPDEST PUSH2 0x22B1 JUMP JUMPDEST PUSH2 0x19B PUSH2 0x276 CALLDATASIZE PUSH1 0x4 PUSH2 0x3737 JUMP JUMPDEST PUSH2 0x253A JUMP JUMPDEST PUSH2 0x19B PUSH2 0x289 CALLDATASIZE PUSH1 0x4 PUSH2 0x3771 JUMP JUMPDEST PUSH2 0x276D JUMP JUMPDEST PUSH2 0x296 PUSH2 0x277C JUMP JUMPDEST PUSH1 0x40 MLOAD PUSH2 0x13C SWAP2 SWAP1 PUSH2 0x37AA JUMP JUMPDEST PUSH2 0x158 PUSH2 0x2B1 CALLDATASIZE PUSH1 0x4 PUSH2 0x3834 JUMP JUMPDEST PUSH2 0x288A JUMP JUMPDEST PUSH2 0x19B PUSH2 0x2C4 CALLDATASIZE PUSH1 0x4 PUSH2 0x3865 JUMP JUMPDEST PUSH2 0x28B7 JUMP JUMPDEST PUSH0 DUP2 DUP2 MSTORE PUSH1 0x20 DUP2 DUP2 MSTORE PUSH1 0x40 DUP1 DUP4 KECCAK256 PUSH1 0x1 PUSH1 0x1 PUSH1 0xA0 SHL SUB DUP7 AND DUP5 MSTORE SWAP1 SWAP2 MSTORE SWAP1 KECCAK256 SLOAD JUMPDEST SWAP3 SWAP2 POP POP JUMP JUMPDEST PUSH0 PUSH1 0x1 PUSH1 0x1 PUSH1 0xE0 SHL SUB NOT DUP3 AND PUSH4 0x6CDB3D13 PUSH1 0xE1 SHL EQ DUP1 PUSH2 0x320 JUMPI POP PUSH1 0x1 PUSH1 0x1 PUSH1 0xE0 SHL SUB NOT DUP3 AND PUSH4 0x3A24D07 PUSH1 0xE2 SHL EQ JUMPDEST DUP1 PUSH2 0x2EA JUMPI POP PUSH4 0x1FFC9A7 PUSH1 0xE0 SHL PUSH1 0x1 PUSH1 0x1 PUSH1 0xE0 SHL SUB NOT DUP4 AND EQ PUSH2 0x2EA JUMP JUMPDEST PUSH1 0x60 PUSH1 0x2 DUP1 SLOAD PUSH2 0x34E SWAP1 PUSH2 0x38C5 JUMP JUMPDEST DUP1 PUSH1 0x1F ADD PUSH1 0x20 DUP1 SWAP2 DIV MUL PUSH1 0x20 ADD PUSH1 0x40 MLOAD SWAP1 DUP2 ADD PUSH1 0x40 MSTORE DUP1 SWAP3 SWAP2 SWAP1 DUP2 DUP2 MSTORE PUSH1 0x20 ADD DUP3 DUP1 SLOAD PUSH2 0x37A SWAP1 PUSH2 0x38C5 JUMP JUMPDEST DUP1 ISZERO PUSH2 0x3C5 JUMPI DUP1 PUSH1 0x1F LT PUSH2 0x39C JUMPI PUSH2 0x100 DUP1 DUP4 SLOAD DIV MUL DUP4 MSTORE SWAP2 PUSH1 0x20 ADD SWAP2 PUSH2 0x3C5 JUMP JUMPDEST DUP3 ADD SWAP2 SWAP1 PUSH0 MSTORE PUSH1 0x20 PUSH0 KECCAK256 SWAP1 JUMPDEST DUP2 SLOAD DUP2 MSTORE SWAP1 PUSH1 0x1 ADD SWAP1 PUSH1 0x20 ADD DUP1 DUP4 GT PUSH2 0x3A8 JUMPI DUP3 SWAP1 SUB PUSH1 0x1F AND DUP3 ADD SWAP2 JUMPDEST POP POP POP POP POP SWAP1 POP SWAP2 SWAP1 POP JUMP JUMPDEST PUSH1 0x4 SLOAD PUSH1 0x1 PUSH1 0x1 PUSH1 0xA0 SHL SUB AND CALLER EQ PUSH2 0x404 JUMPI PUSH1 0x40 MLOAD PUSH3 0x461BCD PUSH1 0xE5 SHL DUP2 MSTORE PUSH1 0x4 ADD PUSH2 0x3FB SWAP1 PUSH2 0x38FD JUMP JUMPDEST PUSH1 0x40 MLOAD DUP1 SWAP2 SUB SWAP1 REVERT JUMPDEST PUSH1 0x4 SLOAD PUSH1 0xF DUP1 SLOAD PUSH2 0x582 SWAP3 PUSH1 0x1 PUSH1 0x1 PUSH1 0xA0 SHL SUB AND SWAP2 SWAP1 DUP5 SWAP1 DUP2 LT PUSH2 0x42A JUMPI PUSH2 0x42A PUSH2 0x396B JUMP JUMPDEST SWAP1 PUSH0 MSTORE PUSH1 0x20 PUSH0 KECCAK256 SWAP1 PUSH1 0x8 MUL ADD PUSH1 0x6 ADD PUSH0 SWAP1 SLOAD SWAP1 PUSH2 0x100 EXP SWAP1 DIV PUSH1 0x1 PUSH1 0x1 PUSH1 0xA0 SHL SUB AND PUSH1 0xE PUSH1 0xF DUP6 DUP2 SLOAD DUP2 LT PUSH2 0x461 JUMPI PUSH2 0x461 PUSH2 0x396B JUMP JUMPDEST SWAP1 PUSH0 MSTORE PUSH1 0x20 PUSH0 KECCAK256 SWAP1 PUSH1 0x8 MUL ADD PUSH1 0x1 ADD SLOAD DUP2 SLOAD DUP2 LT PUSH2 0x481 JUMPI PUSH2 0x481 PUSH2 0x396B JUMP JUMPDEST SWAP1 PUSH0 MSTORE PUSH1 0x20 PUSH0 KECCAK256 SWAP1 PUSH1 0x5 MUL ADD PUSH1 0x3 ADD DUP1 SLOAD DUP1 PUSH1 0x20 MUL PUSH1 0x20 ADD PUSH1 0x40 MLOAD SWAP1 DUP2 ADD PUSH1 0x40 MSTORE DUP1 SWAP3 SWAP2 SWAP1 DUP2 DUP2 MSTORE PUSH1 0x20 ADD DUP3 DUP1 SLOAD DUP1 ISZERO PUSH2 0x4D8 JUMPI PUSH1 0x20 MUL DUP3 ADD SWAP2 SWAP1 PUSH0 MSTORE PUSH1 0x20 PUSH0 KECCAK256 SWAP1 JUMPDEST DUP2 SLOAD DUP2 MSTORE PUSH1 0x20 ADD SWAP1 PUSH1 0x1 ADD SWAP1 DUP1 DUP4 GT PUSH2 0x4C4 JUMPI JUMPDEST POP POP POP POP POP PUSH1 0xE PUSH1 0xF DUP7 DUP2 SLOAD DUP2 LT PUSH2 0x4F2 JUMPI PUSH2 0x4F2 PUSH2 0x396B JUMP JUMPDEST SWAP1 PUSH0 MSTORE PUSH1 0x20 PUSH0 KECCAK256 SWAP1 PUSH1 0x8 MUL ADD PUSH1 0x1 ADD SLOAD DUP2 SLOAD DUP2 LT PUSH2 0x512 JUMPI PUSH2 0x512 PUSH2 0x396B JUMP JUMPDEST SWAP1 PUSH0 MSTORE PUSH1 0x20 PUSH0 KECCAK256 SWAP1 PUSH1 0x5 MUL ADD PUSH1 0x4 ADD DUP1 SLOAD DUP1 PUSH1 0x20 MUL PUSH1 0x20 ADD PUSH1 0x40 MLOAD SWAP1 DUP2 ADD PUSH1 0x40 MSTORE DUP1 SWAP3 SWAP2 SWAP1 DUP2 DUP2 MSTORE PUSH1 0x20 ADD DUP3 DUP1 SLOAD DUP1 ISZERO PUSH2 0x569 JUMPI PUSH1 0x20 MUL DUP3 ADD SWAP2 SWAP1 PUSH0 MSTORE PUSH1 0x20 PUSH0 KECCAK256 SWAP1 JUMPDEST DUP2 SLOAD DUP2 MSTORE PUSH1 0x20 ADD SWAP1 PUSH1 0x1 ADD SWAP1 DUP1 DUP4 GT PUSH2 0x555 JUMPI JUMPDEST POP POP POP POP POP PUSH1 0x40 MLOAD DUP1 PUSH1 0x20 ADD PUSH1 0x40 MSTORE DUP1 PUSH0 DUP2 MSTORE POP PUSH2 0x2916 JUMP JUMPDEST PUSH0 JUMPDEST PUSH1 0xE PUSH1 0xF DUP4 DUP2 SLOAD DUP2 LT PUSH2 0x599 JUMPI PUSH2 0x599 PUSH2 0x396B JUMP JUMPDEST SWAP1 PUSH0 MSTORE PUSH1 0x20 PUSH0 KECCAK256 SWAP1 PUSH1 0x8 MUL ADD PUSH1 0x1 ADD SLOAD DUP2 SLOAD DUP2 LT PUSH2 0x5B9 JUMPI PUSH2 0x5B9 PUSH2 0x396B JUMP JUMPDEST SWAP1 PUSH0 MSTORE PUSH1 0x20 PUSH0 KECCAK256 SWAP1 PUSH1 0x5 MUL ADD PUSH1 0x3 ADD DUP1 SLOAD SWAP1 POP DUP2 LT ISZERO PUSH2 0xC2B JUMPI PUSH1 0x9 PUSH0 PUSH1 0xF DUP5 DUP2 SLOAD DUP2 LT PUSH2 0x5E9 JUMPI PUSH2 0x5E9 PUSH2 0x396B JUMP JUMPDEST SWAP1 PUSH0 MSTORE PUSH1 0x20 PUSH0 KECCAK256 SWAP1 PUSH1 0x8 MUL ADD PUSH1 0x6 ADD PUSH0 SWAP1 SLOAD SWAP1 PUSH2 0x100 EXP SWAP1 DIV PUSH1 0x1 PUSH1 0x1 PUSH1 0xA0 SHL SUB AND PUSH1 0x1 PUSH1 0x1 PUSH1 0xA0 SHL SUB AND PUSH1 0x1 PUSH1 0x1 PUSH1 0xA0 SHL SUB AND DUP2 MSTORE PUSH1 0x20 ADD SWAP1 DUP2 MSTORE PUSH1 0x20 ADD PUSH0 KECCAK256 PUSH1 0x40 MLOAD DUP1 PUSH2 0x100 ADD PUSH1 0x40 MSTORE DUP1 PUSH1 0xE PUSH1 0xF DUP7 DUP2 SLOAD DUP2 LT PUSH2 0x64B JUMPI PUSH2 0x64B PUSH2 0x396B JUMP JUMPDEST SWAP1 PUSH0 MSTORE PUSH1 0x20 PUSH0 KECCAK256 SWAP1 PUSH1 0x8 MUL ADD PUSH1 0x1 ADD SLOAD DUP2 SLOAD DUP2 LT PUSH2 0x66B JUMPI PUSH2 0x66B PUSH2 0x396B JUMP JUMPDEST SWAP1 PUSH0 MSTORE PUSH1 0x20 PUSH0 KECCAK256 SWAP1 PUSH1 0x5 MUL ADD PUSH1 0x3 ADD DUP5 DUP2 SLOAD DUP2 LT PUSH2 0x68B JUMPI PUSH2 0x68B PUSH2 0x396B JUMP JUMPDEST SWAP1 PUSH0 MSTORE PUSH1 0x20 PUSH0 KECCAK256 ADD SLOAD DUP2 MSTORE PUSH1 0x20 ADD PUSH1 0x9 PUSH0 PUSH1 0xF DUP8 DUP2 SLOAD DUP2 LT PUSH2 0x6AF JUMPI PUSH2 0x6AF PUSH2 0x396B JUMP JUMPDEST SWAP1 PUSH0 MSTORE PUSH1 0x20 PUSH0 KECCAK256 SWAP1 PUSH1 0x8 MUL ADD PUSH1 0x6 ADD PUSH0 SWAP1 SLOAD SWAP1 PUSH2 0x100 EXP SWAP1 DIV PUSH1 0x1 PUSH1 0x1 PUSH1 0xA0 SHL SUB AND PUSH1 0x1 PUSH1 0x1 PUSH1 0xA0 SHL SUB AND PUSH1 0x1 PUSH1 0x1 PUSH1 0xA0 SHL SUB AND DUP2 MSTORE PUSH1 0x20 ADD SWAP1 DUP2 MSTORE PUSH1 0x20 ADD PUSH0 KECCAK256 DUP1 SLOAD SWAP1 POP DUP2 MSTORE PUSH1 0x20 ADD PUSH1 0x8 PUSH0 PUSH1 0xA PUSH0 PUSH1 0xF DUP10 DUP2 SLOAD DUP2 LT PUSH2 0x712 JUMPI PUSH2 0x712 PUSH2 0x396B JUMP JUMPDEST SWAP1 PUSH0 MSTORE PUSH1 0x20 PUSH0 KECCAK256 SWAP1 PUSH1 0x8 MUL ADD PUSH1 0x1 ADD SLOAD DUP2 MSTORE PUSH1 0x20 ADD SWAP1 DUP2 MSTORE PUSH1 0x20 ADD PUSH0 KECCAK256 PUSH1 0x3 ADD DUP7 DUP2 SLOAD DUP2 LT PUSH2 0x743 JUMPI PUSH2 0x743 PUSH2 0x396B JUMP JUMPDEST SWAP1 PUSH0 MSTORE PUSH1 0x20 PUSH0 KECCAK256 ADD SLOAD DUP2 MSTORE PUSH1 0x20 ADD SWAP1 DUP2 MSTORE PUSH1 0x20 ADD PUSH0 KECCAK256 PUSH1 0x2 ADD DUP1 SLOAD PUSH2 0x767 SWAP1 PUSH2 0x38C5 JUMP JUMPDEST DUP1 PUSH1 0x1F ADD PUSH1 0x20 DUP1 SWAP2 DIV MUL PUSH1 0x20 ADD PUSH1 0x40 MLOAD SWAP1 DUP2 ADD PUSH1 0x40 MSTORE DUP1 SWAP3 SWAP2 SWAP1 DUP2 DUP2 MSTORE PUSH1 0x20 ADD DUP3 DUP1 SLOAD PUSH2 0x793 SWAP1 PUSH2 0x38C5 JUMP JUMPDEST DUP1 ISZERO PUSH2 0x7DE JUMPI DUP1 PUSH1 0x1F LT PUSH2 0x7B5 JUMPI PUSH2 0x100 DUP1 DUP4 SLOAD DIV MUL DUP4 MSTORE SWAP2 PUSH1 0x20 ADD SWAP2 PUSH2 0x7DE JUMP JUMPDEST DUP3 ADD SWAP2 SWAP1 PUSH0 MSTORE PUSH1 0x20 PUSH0 KECCAK256 SWAP1 JUMPDEST DUP2 SLOAD DUP2 MSTORE SWAP1 PUSH1 0x1 ADD SWAP1 PUSH1 0x20 ADD DUP1 DUP4 GT PUSH2 0x7C1 JUMPI DUP3 SWAP1 SUB PUSH1 0x1F AND DUP3 ADD SWAP2 JUMPDEST POP POP POP POP POP DUP2 MSTORE PUSH1 0x20 ADD PUSH1 0x8 PUSH0 PUSH1 0xA PUSH0 PUSH1 0xF DUP10 DUP2 SLOAD DUP2 LT PUSH2 0x801 JUMPI PUSH2 0x801 PUSH2 0x396B JUMP JUMPDEST SWAP1 PUSH0 MSTORE PUSH1 0x20 PUSH0 KECCAK256 SWAP1 PUSH1 0x8 MUL ADD PUSH1 0x1 ADD SLOAD DUP2 MSTORE PUSH1 0x20 ADD SWAP1 DUP2 MSTORE PUSH1 0x20 ADD PUSH0 KECCAK256 PUSH1 0x3 ADD DUP7 DUP2 SLOAD DUP2 LT PUSH2 0x832 JUMPI PUSH2 0x832 PUSH2 0x396B JUMP JUMPDEST SWAP1 PUSH0 MSTORE PUSH1 0x20 PUSH0 KECCAK256 ADD SLOAD DUP2 MSTORE PUSH1 0x20 ADD SWAP1 DUP2 MSTORE PUSH1 0x20 ADD PUSH0 KECCAK256 PUSH1 0x3 ADD DUP1 SLOAD PUSH2 0x856 SWAP1 PUSH2 0x38C5 JUMP JUMPDEST DUP1 PUSH1 0x1F ADD PUSH1 0x20 DUP1 SWAP2 DIV MUL PUSH1 0x20 ADD PUSH1 0x40 MLOAD SWAP1 DUP2 ADD PUSH1 0x40 MSTORE DUP1 SWAP3 SWAP2 SWAP1 DUP2 DUP2 MSTORE PUSH1 0x20 ADD DUP3 DUP1 SLOAD PUSH2 0x882 SWAP1 PUSH2 0x38C5 JUMP JUMPDEST DUP1 ISZERO PUSH2 0x8CD JUMPI DUP1 PUSH1 0x1F LT PUSH2 0x8A4 JUMPI PUSH2 0x100 DUP1 DUP4 SLOAD DIV MUL DUP4 MSTORE SWAP2 PUSH1 0x20 ADD SWAP2 PUSH2 0x8CD JUMP JUMPDEST DUP3 ADD SWAP2 SWAP1 PUSH0 MSTORE PUSH1 0x20 PUSH0 KECCAK256 SWAP1 JUMPDEST DUP2 SLOAD DUP2 MSTORE SWAP1 PUSH1 0x1 ADD SWAP1 PUSH1 0x20 ADD DUP1 DUP4 GT PUSH2 0x8B0 JUMPI DUP3 SWAP1 SUB PUSH1 0x1F AND DUP3 ADD SWAP2 JUMPDEST POP POP POP POP POP DUP2 MSTORE PUSH1 0x20 ADD PUSH1 0x8 PUSH0 PUSH1 0xA PUSH0 PUSH1 0xF DUP10 DUP2 SLOAD DUP2 LT PUSH2 0x8F0 JUMPI PUSH2 0x8F0 PUSH2 0x396B JUMP JUMPDEST SWAP1 PUSH0 MSTORE PUSH1 0x20 PUSH0 KECCAK256 SWAP1 PUSH1 0x8 MUL ADD PUSH1 0x1 ADD SLOAD DUP2 MSTORE PUSH1 0x20 ADD SWAP1 DUP2 MSTORE PUSH1 0x20 ADD PUSH0 KECCAK256 PUSH1 0x3 ADD DUP7 DUP2 SLOAD DUP2 LT PUSH2 0x921 JUMPI PUSH2 0x921 PUSH2 0x396B JUMP JUMPDEST SWAP1 PUSH0 MSTORE PUSH1 0x20 PUSH0 KECCAK256 ADD SLOAD DUP2 MSTORE PUSH1 0x20 ADD SWAP1 DUP2 MSTORE PUSH1 0x20 ADD PUSH0 KECCAK256 PUSH1 0x4 ADD DUP1 SLOAD PUSH2 0x945 SWAP1 PUSH2 0x38C5 JUMP JUMPDEST DUP1 PUSH1 0x1F ADD PUSH1 0x20 DUP1 SWAP2 DIV MUL PUSH1 0x20 ADD PUSH1 0x40 MLOAD SWAP1 DUP2 ADD PUSH1 0x40 MSTORE DUP1 SWAP3 SWAP2 SWAP1 DUP2 DUP2 MSTORE PUSH1 0x20 ADD DUP3 DUP1 SLOAD PUSH2 0x971 SWAP1 PUSH2 0x38C5 JUMP JUMPDEST DUP1 ISZERO PUSH2 0x9BC JUMPI DUP1 PUSH1 0x1F LT PUSH2 0x993 JUMPI PUSH2 0x100 DUP1 DUP4 SLOAD DIV MUL DUP4 MSTORE SWAP2 PUSH1 0x20 ADD SWAP2 PUSH2 0x9BC JUMP JUMPDEST DUP3 ADD SWAP2 SWAP1 PUSH0 MSTORE PUSH1 0x20 PUSH0 KECCAK256 SWAP1 JUMPDEST DUP2 SLOAD DUP2 MSTORE SWAP1 PUSH1 0x1 ADD SWAP1 PUSH1 0x20 ADD DUP1 DUP4 GT PUSH2 0x99F JUMPI DUP3 SWAP1 SUB PUSH1 0x1F AND DUP3 ADD SWAP2 JUMPDEST POP POP POP POP POP DUP2 MSTORE PUSH1 0x20 ADD PUSH1 0x8 PUSH0 PUSH1 0xA PUSH0 PUSH1 0xF DUP10 DUP2 SLOAD DUP2 LT PUSH2 0x9DF JUMPI PUSH2 0x9DF PUSH2 0x396B JUMP JUMPDEST SWAP1 PUSH0 MSTORE PUSH1 0x20 PUSH0 KECCAK256 SWAP1 PUSH1 0x8 MUL ADD PUSH1 0x1 ADD SLOAD DUP2 MSTORE PUSH1 0x20 ADD SWAP1 DUP2 MSTORE PUSH1 0x20 ADD PUSH0 KECCAK256 PUSH1 0x3 ADD DUP7 DUP2 SLOAD DUP2 LT PUSH2 0xA10 JUMPI PUSH2 0xA10 PUSH2 0x396B JUMP JUMPDEST SWAP1 PUSH0 MSTORE PUSH1 0x20 PUSH0 KECCAK256 ADD SLOAD DUP2 MSTORE PUSH1 0x20 ADD SWAP1 DUP2 MSTORE PUSH1 0x20 ADD PUSH0 KECCAK256 PUSH1 0x6 ADD SLOAD DUP2 MSTORE PUSH1 0x20 ADD PUSH1 0x3 SLOAD PUSH1 0x1 PUSH2 0xA3E SWAP2 SWAP1 PUSH2 0x3993 JUMP JUMPDEST DUP2 MSTORE PUSH1 0x20 ADD PUSH1 0x8 PUSH0 PUSH1 0xA PUSH0 PUSH1 0xF DUP10 DUP2 SLOAD DUP2 LT PUSH2 0xA5C JUMPI PUSH2 0xA5C PUSH2 0x396B JUMP JUMPDEST SWAP1 PUSH0 MSTORE PUSH1 0x20 PUSH0 KECCAK256 SWAP1 PUSH1 0x8 MUL ADD PUSH1 0x1 ADD SLOAD DUP2 MSTORE PUSH1 0x20 ADD SWAP1 DUP2 MSTORE PUSH1 0x20 ADD PUSH0 KECCAK256 PUSH1 0x3 ADD DUP7 DUP2 SLOAD DUP2 LT PUSH2 0xA8D JUMPI PUSH2 0xA8D PUSH2 0x396B JUMP JUMPDEST PUSH0 SWAP2 DUP3 MSTORE PUSH1 0x20 DUP1 DUP4 KECCAK256 SWAP1 SWAP2 ADD SLOAD DUP4 MSTORE DUP3 DUP2 ADD SWAP4 SWAP1 SWAP4 MSTORE PUSH1 0x40 SWAP2 DUP3 ADD DUP2 KECCAK256 PUSH1 0x7 ADD SLOAD SWAP1 SWAP4 MSTORE DUP5 SLOAD PUSH1 0x1 DUP2 DUP2 ADD DUP8 SSTORE SWAP6 DUP5 MSTORE SWAP3 DUP3 SWAP1 KECCAK256 DUP5 MLOAD PUSH1 0x8 SWAP1 SWAP5 MUL ADD SWAP3 DUP4 SSTORE SWAP1 DUP4 ADD MLOAD SWAP4 DUP3 ADD SWAP4 SWAP1 SWAP4 SSTORE SWAP2 DUP2 ADD MLOAD SWAP1 SWAP2 SWAP1 PUSH1 0x2 DUP3 ADD SWAP1 PUSH2 0xAED SWAP1 DUP3 PUSH2 0x39F3 JUMP JUMPDEST POP PUSH1 0x60 DUP3 ADD MLOAD PUSH1 0x3 DUP3 ADD SWAP1 PUSH2 0xB02 SWAP1 DUP3 PUSH2 0x39F3 JUMP JUMPDEST POP PUSH1 0x80 DUP3 ADD MLOAD PUSH1 0x4 DUP3 ADD SWAP1 PUSH2 0xB17 SWAP1 DUP3 PUSH2 0x39F3 JUMP JUMPDEST POP PUSH1 0xA0 DUP3 ADD MLOAD PUSH1 0x5 DUP3 ADD SSTORE PUSH1 0xC0 DUP3 ADD MLOAD PUSH1 0x6 DUP3 ADD SSTORE PUSH1 0xE0 SWAP1 SWAP2 ADD MLOAD PUSH1 0x7 SWAP1 SWAP2 ADD SSTORE PUSH1 0x4 SLOAD PUSH1 0x1 PUSH1 0x1 PUSH1 0xA0 SHL SUB AND PUSH0 SWAP1 DUP2 MSTORE PUSH1 0x9 PUSH1 0x20 MSTORE PUSH1 0x40 DUP2 KECCAK256 PUSH1 0xF DUP1 SLOAD SWAP2 SWAP3 PUSH1 0x8 SWAP3 SWAP1 SWAP2 PUSH1 0xA SWAP2 DUP4 SWAP2 SWAP1 DUP9 SWAP1 DUP2 LT PUSH2 0xB72 JUMPI PUSH2 0xB72 PUSH2 0x396B JUMP JUMPDEST SWAP1 PUSH0 MSTORE PUSH1 0x20 PUSH0 KECCAK256 SWAP1 PUSH1 0x8 MUL ADD PUSH1 0x1 ADD SLOAD DUP2 MSTORE PUSH1 0x20 ADD SWAP1 DUP2 MSTORE PUSH1 0x20 ADD PUSH0 KECCAK256 PUSH1 0x3 ADD DUP5 DUP2 SLOAD DUP2 LT PUSH2 0xBA3 JUMPI PUSH2 0xBA3 PUSH2 0x396B JUMP JUMPDEST SWAP1 PUSH0 MSTORE PUSH1 0x20 PUSH0 KECCAK256 ADD SLOAD DUP2 MSTORE PUSH1 0x20 ADD SWAP1 DUP2 MSTORE PUSH1 0x20 ADD PUSH0 KECCAK256 PUSH1 0x1 ADD SLOAD DUP2 SLOAD DUP2 LT PUSH2 0xBCD JUMPI PUSH2 0xBCD PUSH2 0x396B JUMP JUMPDEST PUSH0 SWAP2 DUP3 MSTORE PUSH1 0x20 DUP3 KECCAK256 PUSH1 0x8 SWAP1 SWAP2 MUL ADD DUP2 DUP2 SSTORE PUSH1 0x1 DUP2 ADD DUP3 SWAP1 SSTORE SWAP1 PUSH2 0xBF3 PUSH1 0x2 DUP4 ADD DUP3 PUSH2 0x2F96 JUMP JUMPDEST PUSH2 0xC00 PUSH1 0x3 DUP4 ADD PUSH0 PUSH2 0x2F96 JUMP JUMPDEST PUSH2 0xC0D PUSH1 0x4 DUP4 ADD PUSH0 PUSH2 0x2F96 JUMP JUMPDEST POP PUSH0 PUSH1 0x5 DUP3 ADD DUP2 SWAP1 SSTORE PUSH1 0x6 DUP3 ADD DUP2 SWAP1 SSTORE PUSH1 0x7 SWAP1 SWAP2 ADD SSTORE PUSH1 0x1 ADD PUSH2 0x584 JUMP JUMPDEST POP PUSH0 PUSH1 0xF DUP3 DUP2 SLOAD DUP2 LT PUSH2 0xC40 JUMPI PUSH2 0xC40 PUSH2 0x396B JUMP JUMPDEST SWAP1 PUSH0 MSTORE PUSH1 0x20 PUSH0 KECCAK256 SWAP1 PUSH1 0x8 MUL ADD PUSH1 0x6 ADD PUSH0 PUSH2 0x100 EXP DUP2 SLOAD DUP2 PUSH1 0x1 PUSH1 0x1 PUSH1 0xA0 SHL SUB MUL NOT AND SWAP1 DUP4 PUSH1 0x1 PUSH1 0x1 PUSH1 0xA0 SHL SUB AND MUL OR SWAP1 SSTORE POP POP JUMP JUMPDEST CALLER PUSH1 0x1 PUSH1 0x1 PUSH1 0xA0 SHL SUB DUP7 AND DUP2 EQ DUP1 ISZERO SWAP1 PUSH2 0xC96 JUMPI POP PUSH2 0xC94 DUP7 DUP3 PUSH2 0x288A JUMP JUMPDEST ISZERO JUMPDEST ISZERO PUSH2 0xCC7 JUMPI PUSH1 0x40 MLOAD PUSH4 0x711BEC91 PUSH1 0xE1 SHL DUP2 MSTORE PUSH1 0x1 PUSH1 0x1 PUSH1 0xA0 SHL SUB DUP1 DUP4 AND PUSH1 0x4 DUP4 ADD MSTORE DUP8 AND PUSH1 0x24 DUP3 ADD MSTORE PUSH1 0x44 ADD PUSH2 0x3FB JUMP JUMPDEST PUSH2 0xCD4 DUP7 DUP7 DUP7 DUP7 DUP7 PUSH2 0x2916 JUMP JUMPDEST POP POP POP POP POP POP JUMP JUMPDEST PUSH2 0xCF7 CALLER DUP4 DUP7 DUP5 PUSH1 0x40 MLOAD DUP1 PUSH1 0x20 ADD PUSH1 0x40 MSTORE DUP1 PUSH0 DUP2 MSTORE POP PUSH2 0x297B JUMP JUMPDEST CALLER PUSH0 SWAP1 DUP2 MSTORE PUSH1 0x9 PUSH1 0x20 MSTORE PUSH1 0x40 SWAP1 KECCAK256 DUP1 SLOAD DUP3 SWAP2 SWAP1 DUP6 SWAP1 DUP2 LT PUSH2 0xD1A JUMPI PUSH2 0xD1A PUSH2 0x396B JUMP JUMPDEST SWAP1 PUSH0 MSTORE PUSH1 0x20 PUSH0 KECCAK256 SWAP1 PUSH1 0x8 MUL ADD PUSH1 0x6 ADD PUSH0 DUP3 DUP3 SLOAD PUSH2 0xD37 SWAP2 SWAP1 PUSH2 0x3AAF JUMP JUMPDEST SWAP1 SWAP2 SSTORE POP POP PUSH1 0x1 PUSH1 0x1 PUSH1 0xA0 SHL SUB DUP3 AND PUSH0 SWAP1 DUP2 MSTORE PUSH1 0x9 PUSH1 0x20 SWAP1 DUP2 MSTORE PUSH1 0x40 DUP1 DUP4 KECCAK256 DUP2 MLOAD PUSH2 0x100 DUP2 ADD DUP4 MSTORE DUP9 DUP2 MSTORE DUP2 SLOAD DUP2 DUP6 ADD MSTORE DUP9 DUP6 MSTORE PUSH1 0x8 SWAP1 SWAP4 MSTORE SWAP3 DUP2 SWAP1 KECCAK256 PUSH1 0x2 ADD DUP1 SLOAD SWAP2 DUP4 ADD SWAP2 PUSH2 0xD86 SWAP1 PUSH2 0x38C5 JUMP JUMPDEST DUP1 PUSH1 0x1F ADD PUSH1 0x20 DUP1 SWAP2 DIV MUL PUSH1 0x20 ADD PUSH1 0x40 MLOAD SWAP1 DUP2 ADD PUSH1 0x40 MSTORE DUP1 SWAP3 SWAP2 SWAP1 DUP2 DUP2 MSTORE PUSH1 0x20 ADD DUP3 DUP1 SLOAD PUSH2 0xDB2 SWAP1 PUSH2 0x38C5 JUMP JUMPDEST DUP1 ISZERO PUSH2 0xDFD JUMPI DUP1 PUSH1 0x1F LT PUSH2 0xDD4 JUMPI PUSH2 0x100 DUP1 DUP4 SLOAD DIV MUL DUP4 MSTORE SWAP2 PUSH1 0x20 ADD SWAP2 PUSH2 0xDFD JUMP JUMPDEST DUP3 ADD SWAP2 SWAP1 PUSH0 MSTORE PUSH1 0x20 PUSH0 KECCAK256 SWAP1 JUMPDEST DUP2 SLOAD DUP2 MSTORE SWAP1 PUSH1 0x1 ADD SWAP1 PUSH1 0x20 ADD DUP1 DUP4 GT PUSH2 0xDE0 JUMPI DUP3 SWAP1 SUB PUSH1 0x1F AND DUP3 ADD SWAP2 JUMPDEST POP POP POP POP POP DUP2 MSTORE PUSH1 0x20 ADD PUSH1 0x8 PUSH0 DUP9 DUP2 MSTORE PUSH1 0x20 ADD SWAP1 DUP2 MSTORE PUSH1 0x20 ADD PUSH0 KECCAK256 PUSH1 0x3 ADD DUP1 SLOAD PUSH2 0xE26 SWAP1 PUSH2 0x38C5 JUMP JUMPDEST DUP1 PUSH1 0x1F ADD PUSH1 0x20 DUP1 SWAP2 DIV MUL PUSH1 0x20 ADD PUSH1 0x40 MLOAD SWAP1 DUP2 ADD PUSH1 0x40 MSTORE DUP1 SWAP3 SWAP2 SWAP1 DUP2 DUP2 MSTORE PUSH1 0x20 ADD DUP3 DUP1 SLOAD PUSH2 0xE52 SWAP1 PUSH2 0x38C5 JUMP JUMPDEST DUP1 ISZERO PUSH2 0xE9D JUMPI DUP1 PUSH1 0x1F LT PUSH2 0xE74 JUMPI PUSH2 0x100 DUP1 DUP4 SLOAD DIV MUL DUP4 MSTORE SWAP2 PUSH1 0x20 ADD SWAP2 PUSH2 0xE9D JUMP JUMPDEST DUP3 ADD SWAP2 SWAP1 PUSH0 MSTORE PUSH1 0x20 PUSH0 KECCAK256 SWAP1 JUMPDEST DUP2 SLOAD DUP2 MSTORE SWAP1 PUSH1 0x1 ADD SWAP1 PUSH1 0x20 ADD DUP1 DUP4 GT PUSH2 0xE80 JUMPI DUP3 SWAP1 SUB PUSH1 0x1F AND DUP3 ADD SWAP2 JUMPDEST POP POP POP POP POP DUP2 MSTORE PUSH1 0x20 ADD PUSH1 0x8 PUSH0 DUP9 DUP2 MSTORE PUSH1 0x20 ADD SWAP1 DUP2 MSTORE PUSH1 0x20 ADD PUSH0 KECCAK256 PUSH1 0x4 ADD DUP1 SLOAD PUSH2 0xEC6 SWAP1 PUSH2 0x38C5 JUMP JUMPDEST DUP1 PUSH1 0x1F ADD PUSH1 0x20 DUP1 SWAP2 DIV MUL PUSH1 0x20 ADD PUSH1 0x40 MLOAD SWAP1 DUP2 ADD PUSH1 0x40 MSTORE DUP1 SWAP3 SWAP2 SWAP1 DUP2 DUP2 MSTORE PUSH1 0x20 ADD DUP3 DUP1 SLOAD PUSH2 0xEF2 SWAP1 PUSH2 0x38C5 JUMP JUMPDEST DUP1 ISZERO PUSH2 0xF3D JUMPI DUP1 PUSH1 0x1F LT PUSH2 0xF14 JUMPI PUSH2 0x100 DUP1 DUP4 SLOAD DIV MUL DUP4 MSTORE SWAP2 PUSH1 0x20 ADD SWAP2 PUSH2 0xF3D JUMP JUMPDEST DUP3 ADD SWAP2 SWAP1 PUSH0 MSTORE PUSH1 0x20 PUSH0 KECCAK256 SWAP1 JUMPDEST DUP2 SLOAD DUP2 MSTORE SWAP1 PUSH1 0x1 ADD SWAP1 PUSH1 0x20 ADD DUP1 DUP4 GT PUSH2 0xF20 JUMPI DUP3 SWAP1 SUB PUSH1 0x1F AND DUP3 ADD SWAP2 JUMPDEST POP POP POP POP POP DUP2 MSTORE PUSH1 0x20 ADD DUP4 DUP2 MSTORE PUSH1 0x20 ADD PUSH1 0x9 PUSH0 CALLER PUSH1 0x1 PUSH1 0x1 PUSH1 0xA0 SHL SUB AND PUSH1 0x1 PUSH1 0x1 PUSH1 0xA0 SHL SUB AND DUP2 MSTORE PUSH1 0x20 ADD SWAP1 DUP2 MSTORE PUSH1 0x20 ADD PUSH0 KECCAK256 DUP7 DUP2 SLOAD DUP2 LT PUSH2 0xF81 JUMPI PUSH2 0xF81 PUSH2 0x396B JUMP JUMPDEST PUSH0 SWAP2 DUP3 MSTORE PUSH1 0x20 DUP1 DUP4 KECCAK256 PUSH1 0x8 SWAP3 DUP4 MUL ADD PUSH1 0x5 ADD SLOAD DUP5 MSTORE DUP10 DUP4 MSTORE DUP2 DUP2 MSTORE PUSH1 0x40 DUP1 DUP5 KECCAK256 PUSH1 0x7 ADD SLOAD SWAP5 DUP3 ADD SWAP5 SWAP1 SWAP5 MSTORE DUP6 SLOAD PUSH1 0x1 DUP1 DUP3 ADD DUP9 SSTORE SWAP7 DUP5 MSTORE SWAP3 DUP2 SWAP1 KECCAK256 DUP6 MLOAD SWAP4 SWAP1 SWAP3 MUL SWAP1 SWAP2 ADD SWAP2 DUP3 SSTORE DUP4 ADD MLOAD SWAP4 DUP2 ADD SWAP4 SWAP1 SWAP4 SSTORE DUP2 ADD MLOAD SWAP1 SWAP2 SWAP1 PUSH1 0x2 DUP3 ADD SWAP1 PUSH2 0xFE7 SWAP1 DUP3 PUSH2 0x39F3 JUMP JUMPDEST POP PUSH1 0x60 DUP3 ADD MLOAD PUSH1 0x3 DUP3 ADD SWAP1 PUSH2 0xFFC SWAP1 DUP3 PUSH2 0x39F3 JUMP JUMPDEST POP PUSH1 0x80 DUP3 ADD MLOAD PUSH1 0x4 DUP3 ADD SWAP1 PUSH2 0x1011 SWAP1 DUP3 PUSH2 0x39F3 JUMP JUMPDEST POP PUSH1 0xA0 DUP3 ADD MLOAD PUSH1 0x5 DUP3 ADD SSTORE PUSH1 0xC0 DUP3 ADD MLOAD PUSH1 0x6 DUP3 ADD SSTORE PUSH1 0xE0 SWAP1 SWAP2 ADD MLOAD PUSH1 0x7 SWAP1 SWAP2 ADD SSTORE CALLER PUSH0 SWAP1 DUP2 MSTORE PUSH1 0x9 PUSH1 0x20 MSTORE PUSH1 0x40 SWAP1 KECCAK256 DUP1 SLOAD DUP5 SWAP1 DUP2 LT PUSH2 0x1052 JUMPI PUSH2 0x1052 PUSH2 0x396B JUMP JUMPDEST SWAP1 PUSH0 MSTORE PUSH1 0x20 PUSH0 KECCAK256 SWAP1 PUSH1 0x8 MUL ADD PUSH1 0x6 ADD SLOAD PUSH0 SUB PUSH2 0x10DF JUMPI CALLER PUSH0 SWAP1 DUP2 MSTORE PUSH1 0x9 PUSH1 0x20 MSTORE PUSH1 0x40 SWAP1 KECCAK256 DUP1 SLOAD DUP5 SWAP1 DUP2 LT PUSH2 0x1088 JUMPI PUSH2 0x1088 PUSH2 0x396B JUMP JUMPDEST PUSH0 SWAP2 DUP3 MSTORE PUSH1 0x20 DUP3 KECCAK256 PUSH1 0x8 SWAP1 SWAP2 MUL ADD DUP2 DUP2 SSTORE PUSH1 0x1 DUP2 ADD DUP3 SWAP1 SSTORE SWAP1 PUSH2 0x10AE PUSH1 0x2 DUP4 ADD DUP3 PUSH2 0x2F96 JUMP JUMPDEST PUSH2 0x10BB PUSH1 0x3 DUP4 ADD PUSH0 PUSH2 0x2F96 JUMP JUMPDEST PUSH2 0x10C8 PUSH1 0x4 DUP4 ADD PUSH0 PUSH2 0x2F96 JUMP JUMPDEST POP PUSH0 PUSH1 0x5 DUP3 ADD DUP2 SWAP1 SSTORE PUSH1 0x6 DUP3 ADD DUP2 SWAP1 SSTORE PUSH1 0x7 SWAP1 SWAP2 ADD SSTORE JUMPDEST POP POP POP POP JUMP JUMPDEST PUSH1 0x60 CALLER PUSH1 0x6 PUSH2 0x10F7 DUP2 PUSH1 0x2 DUP7 DUP9 PUSH2 0x3AC2 JUMP JUMPDEST PUSH1 0x40 MLOAD PUSH1 0x20 ADD PUSH2 0x1108 SWAP3 SWAP2 SWAP1 PUSH2 0x3AE9 JUMP JUMPDEST PUSH1 0x40 DUP1 MLOAD PUSH1 0x1F NOT DUP2 DUP5 SUB ADD DUP2 MSTORE SWAP1 DUP3 SWAP1 MSTORE PUSH2 0x1122 SWAP2 PUSH2 0x3B16 JUMP JUMPDEST SWAP1 DUP2 MSTORE PUSH1 0x40 MLOAD SWAP1 DUP2 SWAP1 SUB PUSH1 0x20 ADD SWAP1 KECCAK256 PUSH1 0x1 ADD SLOAD PUSH1 0x1 PUSH1 0x1 PUSH1 0xA0 SHL SUB AND SUB PUSH2 0x119D JUMPI PUSH1 0x40 MLOAD PUSH3 0x461BCD PUSH1 0xE5 SHL DUP2 MSTORE PUSH1 0x20 PUSH1 0x4 DUP3 ADD MSTORE PUSH1 0x29 PUSH1 0x24 DUP3 ADD MSTORE PUSH32 0xD092D18B20D183D0B6D0B520D181D0BED0B7D0B4D0B0D0BBD0B820D180D0B5D1 PUSH1 0x44 DUP3 ADD MSTORE PUSH9 0x84D0B5D180D0B0D0BB PUSH1 0xB8 SHL PUSH1 0x64 DUP3 ADD MSTORE PUSH1 0x84 ADD PUSH2 0x3FB JUMP JUMPDEST PUSH0 PUSH2 0x11AC PUSH1 0x6 PUSH1 0x2 DUP6 DUP8 PUSH2 0x3AC2 JUMP JUMPDEST PUSH1 0x40 MLOAD PUSH1 0x20 ADD PUSH2 0x11BD SWAP3 SWAP2 SWAP1 PUSH2 0x3AE9 JUMP JUMPDEST PUSH1 0x40 DUP1 MLOAD PUSH1 0x1F NOT DUP2 DUP5 SUB ADD DUP2 MSTORE PUSH1 0x60 DUP4 ADD DUP3 MSTORE DUP1 DUP4 MSTORE CALLER PUSH1 0x20 DUP5 ADD MSTORE PUSH0 DUP4 DUP4 ADD MSTORE SWAP1 MLOAD SWAP1 SWAP3 POP PUSH1 0x6 SWAP1 PUSH2 0x11F1 SWAP1 DUP5 SWAP1 PUSH2 0x3B16 JUMP JUMPDEST SWAP1 DUP2 MSTORE PUSH1 0x40 MLOAD SWAP1 DUP2 SWAP1 SUB PUSH1 0x20 ADD SWAP1 KECCAK256 DUP2 MLOAD DUP2 SWAP1 PUSH2 0x120E SWAP1 DUP3 PUSH2 0x39F3 JUMP JUMPDEST POP PUSH1 0x20 DUP3 DUP2 ADD MLOAD PUSH1 0x1 DUP1 DUP5 ADD DUP1 SLOAD PUSH1 0x1 PUSH1 0x1 PUSH1 0xA0 SHL SUB SWAP1 SWAP4 AND PUSH1 0x1 PUSH1 0x1 PUSH1 0xA0 SHL SUB NOT SWAP1 SWAP4 AND SWAP3 SWAP1 SWAP3 OR SWAP1 SWAP2 SSTORE PUSH1 0x40 SWAP4 DUP5 ADD MLOAD PUSH1 0x2 SWAP1 SWAP4 ADD SWAP3 SWAP1 SWAP3 SSTORE DUP3 MLOAD PUSH1 0x60 DUP2 ADD DUP5 MSTORE DUP5 DUP2 MSTORE CALLER SWAP2 DUP2 ADD SWAP2 SWAP1 SWAP2 MSTORE PUSH0 SWAP3 DUP2 ADD DUP4 SWAP1 MSTORE PUSH1 0xC DUP1 SLOAD SWAP3 DUP4 ADD DUP2 SSTORE SWAP1 SWAP3 MSTORE DUP2 MLOAD PUSH1 0x3 SWAP1 SWAP2 MUL PUSH32 0xDF6966C971051C3D54EC59162606531493A51404A002842F56009D7E5CF4A8C7 ADD SWAP1 DUP2 SWAP1 PUSH2 0x12A5 SWAP1 DUP3 PUSH2 0x39F3 JUMP JUMPDEST POP PUSH1 0x20 DUP3 ADD MLOAD PUSH1 0x1 DUP3 ADD DUP1 SLOAD PUSH1 0x1 PUSH1 0x1 PUSH1 0xA0 SHL SUB NOT AND PUSH1 0x1 PUSH1 0x1 PUSH1 0xA0 SHL SUB SWAP1 SWAP3 AND SWAP2 SWAP1 SWAP2 OR SWAP1 SSTORE PUSH1 0x40 SWAP1 SWAP2 ADD MLOAD PUSH1 0x2 SWAP1 SWAP2 ADD SSTORE SWAP4 SWAP3 POP POP POP JUMP JUMPDEST PUSH1 0x60 DUP2 MLOAD DUP4 MLOAD EQ PUSH2 0x1310 JUMPI DUP2 MLOAD DUP4 MLOAD PUSH1 0x40 MLOAD PUSH4 0x5B059991 PUSH1 0xE0 SHL DUP2 MSTORE PUSH1 0x4 DUP2 ADD SWAP3 SWAP1 SWAP3 MSTORE PUSH1 0x24 DUP3 ADD MSTORE PUSH1 0x44 ADD PUSH2 0x3FB JUMP JUMPDEST PUSH0 DUP4 MLOAD PUSH8 0xFFFFFFFFFFFFFFFF DUP2 GT ISZERO PUSH2 0x132B JUMPI PUSH2 0x132B PUSH2 0x3192 JUMP JUMPDEST PUSH1 0x40 MLOAD SWAP1 DUP1 DUP3 MSTORE DUP1 PUSH1 0x20 MUL PUSH1 0x20 ADD DUP3 ADD PUSH1 0x40 MSTORE DUP1 ISZERO PUSH2 0x1354 JUMPI DUP2 PUSH1 0x20 ADD PUSH1 0x20 DUP3 MUL DUP1 CALLDATASIZE DUP4 CALLDATACOPY ADD SWAP1 POP JUMPDEST POP SWAP1 POP PUSH0 JUMPDEST DUP5 MLOAD DUP2 LT ISZERO PUSH2 0x13A2 JUMPI PUSH1 0x20 DUP1 DUP3 MUL DUP7 ADD ADD MLOAD PUSH2 0x137D SWAP1 PUSH1 0x20 DUP1 DUP5 MUL DUP8 ADD ADD MLOAD PUSH2 0x2C9 JUMP JUMPDEST DUP3 DUP3 DUP2 MLOAD DUP2 LT PUSH2 0x138F JUMPI PUSH2 0x138F PUSH2 0x396B JUMP JUMPDEST PUSH1 0x20 SWAP1 DUP2 MUL SWAP2 SWAP1 SWAP2 ADD ADD MSTORE PUSH1 0x1 ADD PUSH2 0x1359 JUMP JUMPDEST POP SWAP4 SWAP3 POP POP POP JUMP JUMPDEST PUSH0 PUSH1 0x64 DUP3 DUP5 PUSH1 0xB DUP8 DUP2 SLOAD DUP2 LT PUSH2 0x13C2 JUMPI PUSH2 0x13C2 PUSH2 0x396B JUMP JUMPDEST SWAP1 PUSH0 MSTORE PUSH1 0x20 PUSH0 KECCAK256 SWAP1 PUSH1 0x6 MUL ADD PUSH1 0x5 ADD SLOAD PUSH2 0x13DC SWAP2 SWAP1 PUSH2 0x3993 JUMP JUMPDEST PUSH2 0x13E6 SWAP2 SWAP1 PUSH2 0x3993 JUMP JUMPDEST PUSH2 0x13F0 SWAP2 SWAP1 PUSH2 0x3B31 JUMP JUMPDEST DUP4 PUSH1 0xB DUP7 DUP2 SLOAD DUP2 LT PUSH2 0x1404 JUMPI PUSH2 0x1404 PUSH2 0x396B JUMP JUMPDEST SWAP1 PUSH0 MSTORE PUSH1 0x20 PUSH0 KECCAK256 SWAP1 PUSH1 0x6 MUL ADD PUSH1 0x5 ADD SLOAD PUSH2 0x141E SWAP2 SWAP1 PUSH2 0x3993 JUMP JUMPDEST PUSH2 0x1428 SWAP2 SWAP1 PUSH2 0x3AAF JUMP JUMPDEST SWAP1 POP DUP3 PUSH1 0xB DUP6 DUP2 SLOAD DUP2 LT PUSH2 0x143E JUMPI PUSH2 0x143E PUSH2 0x396B JUMP JUMPDEST SWAP1 PUSH0 MSTORE PUSH1 0x20 PUSH0 KECCAK256 SWAP1 PUSH1 0x6 MUL ADD PUSH1 0x4 ADD SLOAD LT ISZERO PUSH2 0x14CD JUMPI PUSH1 0x40 MLOAD PUSH3 0x461BCD PUSH1 0xE5 SHL DUP2 MSTORE PUSH1 0x20 PUSH1 0x4 DUP3 ADD MSTORE PUSH1 0x42 PUSH1 0x24 DUP3 ADD MSTORE PUSH32 0xD092D18B20D0BFD18BD182D0B0D0B5D182D0B5D181D18C20D0BAD183D0BFD0B8 PUSH1 0x44 DUP3 ADD MSTORE PUSH32 0xD182D18C20D0B1D0BED0BBD18CD188D0B52C20D187D0B5D0BC20D0B5D181D182 PUSH1 0x64 DUP3 ADD MSTORE PUSH2 0x3463 PUSH1 0xF2 SHL PUSH1 0x84 DUP3 ADD MSTORE PUSH1 0xA4 ADD PUSH2 0x3FB JUMP JUMPDEST PUSH2 0x153E PUSH1 0xB DUP6 DUP2 SLOAD DUP2 LT PUSH2 0x14E3 JUMPI PUSH2 0x14E3 PUSH2 0x396B JUMP JUMPDEST SWAP1 PUSH0 MSTORE PUSH1 0x20 PUSH0 KECCAK256 SWAP1 PUSH1 0x6 MUL ADD PUSH1 0x3 ADD PUSH0 SWAP1 SLOAD SWAP1 PUSH2 0x100 EXP SWAP1 DIV PUSH1 0x1 PUSH1 0x1 PUSH1 0xA0 SHL SUB AND CALLER PUSH1 0xB DUP8 DUP2 SLOAD DUP2 LT PUSH2 0x1519 JUMPI PUSH2 0x1519 PUSH2 0x396B JUMP JUMPDEST SWAP1 PUSH0 MSTORE PUSH1 0x20 PUSH0 KECCAK256 SWAP1 PUSH1 0x6 MUL ADD PUSH1 0x1 ADD SLOAD DUP7 PUSH1 0x40 MLOAD DUP1 PUSH1 0x20 ADD PUSH1 0x40 MSTORE DUP1 PUSH0 DUP2 MSTORE POP PUSH2 0x297B JUMP JUMPDEST PUSH1 0x5 SLOAD PUSH1 0xB DUP1 SLOAD PUSH1 0x1 PUSH1 0x1 PUSH1 0xA0 SHL SUB SWAP1 SWAP3 AND SWAP2 PUSH4 0xF5537EDE SWAP2 CALLER SWAP2 DUP9 SWAP1 DUP2 LT PUSH2 0x1569 JUMPI PUSH2 0x1569 PUSH2 0x396B JUMP JUMPDEST PUSH0 SWAP2 DUP3 MSTORE PUSH1 0x20 SWAP1 SWAP2 KECCAK256 PUSH1 0x6 SWAP1 SWAP2 MUL ADD PUSH1 0x3 ADD SLOAD PUSH1 0x40 MLOAD PUSH1 0xE0 DUP5 SWAP1 SHL PUSH1 0x1 PUSH1 0x1 PUSH1 0xE0 SHL SUB NOT AND DUP2 MSTORE PUSH1 0x1 PUSH1 0x1 PUSH1 0xA0 SHL SUB SWAP3 DUP4 AND PUSH1 0x4 DUP3 ADD MSTORE SWAP2 AND PUSH1 0x24 DUP3 ADD MSTORE PUSH1 0x44 DUP2 ADD DUP5 SWAP1 MSTORE PUSH1 0x64 ADD PUSH0 PUSH1 0x40 MLOAD DUP1 DUP4 SUB DUP2 PUSH0 DUP8 DUP1 EXTCODESIZE ISZERO DUP1 ISZERO PUSH2 0x15C8 JUMPI PUSH0 DUP1 REVERT JUMPDEST POP GAS CALL ISZERO DUP1 ISZERO PUSH2 0x15DA JUMPI RETURNDATASIZE PUSH0 DUP1 RETURNDATACOPY RETURNDATASIZE PUSH0 REVERT JUMPDEST POP POP POP POP DUP3 PUSH1 0xB DUP6 DUP2 SLOAD DUP2 LT PUSH2 0x15F2 JUMPI PUSH2 0x15F2 PUSH2 0x396B JUMP JUMPDEST SWAP1 PUSH0 MSTORE PUSH1 0x20 PUSH0 KECCAK256 SWAP1 PUSH1 0x6 MUL ADD PUSH1 0x4 ADD PUSH0 DUP3 DUP3 SLOAD PUSH2 0x160F SWAP2 SWAP1 PUSH2 0x3AAF JUMP JUMPDEST SWAP3 POP POP DUP2 SWAP1 SSTORE POP DUP3 PUSH1 0x9 PUSH0 PUSH1 0xB DUP8 DUP2 SLOAD DUP2 LT PUSH2 0x162D JUMPI PUSH2 0x162D PUSH2 0x396B JUMP JUMPDEST PUSH0 SWAP2 DUP3 MSTORE PUSH1 0x20 DUP1 DUP4 KECCAK256 PUSH1 0x3 PUSH1 0x6 SWAP1 SWAP4 MUL ADD SWAP2 SWAP1 SWAP2 ADD SLOAD PUSH1 0x1 PUSH1 0x1 PUSH1 0xA0 SHL SUB AND DUP4 MSTORE DUP3 ADD SWAP3 SWAP1 SWAP3 MSTORE PUSH1 0x40 ADD SWAP1 KECCAK256 PUSH1 0xB DUP1 SLOAD DUP8 SWAP1 DUP2 LT PUSH2 0x166D JUMPI PUSH2 0x166D PUSH2 0x396B JUMP JUMPDEST SWAP1 PUSH0 MSTORE PUSH1 0x20 PUSH0 KECCAK256 SWAP1 PUSH1 0x6 MUL ADD PUSH1 0x1 ADD SLOAD DUP2 SLOAD DUP2 LT PUSH2 0x168D JUMPI PUSH2 0x168D PUSH2 0x396B JUMP JUMPDEST SWAP1 PUSH0 MSTORE PUSH1 0x20 PUSH0 KECCAK256 SWAP1 PUSH1 0x8 MUL ADD PUSH1 0x6 ADD PUSH0 DUP3 DUP3 SLOAD PUSH2 0x16AA SWAP2 SWAP1 PUSH2 0x3AAF JUMP JUMPDEST SWAP1 SWAP2 SSTORE POP POP CALLER PUSH0 DUP2 DUP2 MSTORE PUSH1 0x9 PUSH1 0x20 DUP2 DUP2 MSTORE PUSH1 0x40 DUP1 DUP5 KECCAK256 DUP2 MLOAD PUSH2 0x100 DUP2 ADD DUP4 MSTORE DUP11 DUP2 MSTORE SWAP6 DUP6 MSTORE SWAP3 DUP3 MSTORE DUP3 SLOAD SWAP2 DUP6 ADD SWAP2 SWAP1 SWAP2 MSTORE PUSH1 0xB DUP1 SLOAD SWAP3 SWAP5 SWAP4 SWAP2 DUP5 ADD SWAP3 PUSH1 0x8 SWAP3 SWAP2 SWAP1 DUP11 SWAP1 DUP2 LT PUSH2 0x16FB JUMPI PUSH2 0x16FB PUSH2 0x396B JUMP JUMPDEST SWAP1 PUSH0 MSTORE PUSH1 0x20 PUSH0 KECCAK256 SWAP1 PUSH1 0x6 MUL ADD PUSH1 0x1 ADD SLOAD DUP2 MSTORE PUSH1 0x20 ADD SWAP1 DUP2 MSTORE PUSH1 0x20 ADD PUSH0 KECCAK256 PUSH1 0x2 ADD DUP1 SLOAD PUSH2 0x1726 SWAP1 PUSH2 0x38C5 JUMP JUMPDEST DUP1 PUSH1 0x1F ADD PUSH1 0x20 DUP1 SWAP2 DIV MUL PUSH1 0x20 ADD PUSH1 0x40 MLOAD SWAP1 DUP2 ADD PUSH1 0x40 MSTORE DUP1 SWAP3 SWAP2 SWAP1 DUP2 DUP2 MSTORE PUSH1 0x20 ADD DUP3 DUP1 SLOAD PUSH2 0x1752 SWAP1 PUSH2 0x38C5 JUMP JUMPDEST DUP1 ISZERO PUSH2 0x179D JUMPI DUP1 PUSH1 0x1F LT PUSH2 0x1774 JUMPI PUSH2 0x100 DUP1 DUP4 SLOAD DIV MUL DUP4 MSTORE SWAP2 PUSH1 0x20 ADD SWAP2 PUSH2 0x179D JUMP JUMPDEST DUP3 ADD SWAP2 SWAP1 PUSH0 MSTORE PUSH1 0x20 PUSH0 KECCAK256 SWAP1 JUMPDEST DUP2 SLOAD DUP2 MSTORE SWAP1 PUSH1 0x1 ADD SWAP1 PUSH1 0x20 ADD DUP1 DUP4 GT PUSH2 0x1780 JUMPI DUP3 SWAP1 SUB PUSH1 0x1F AND DUP3 ADD SWAP2 JUMPDEST POP POP POP POP POP DUP2 MSTORE PUSH1 0x20 ADD PUSH1 0x8 PUSH0 PUSH1 0xB DUP10 DUP2 SLOAD DUP2 LT PUSH2 0x17BD JUMPI PUSH2 0x17BD PUSH2 0x396B JUMP JUMPDEST SWAP1 PUSH0 MSTORE PUSH1 0x20 PUSH0 KECCAK256 SWAP1 PUSH1 0x6 MUL ADD PUSH1 0x1 ADD SLOAD DUP2 MSTORE PUSH1 0x20 ADD SWAP1 DUP2 MSTORE PUSH1 0x20 ADD PUSH0 KECCAK256 PUSH1 0x3 ADD DUP1 SLOAD PUSH2 0x17E8 SWAP1 PUSH2 0x38C5 JUMP JUMPDEST DUP1 PUSH1 0x1F ADD PUSH1 0x20 DUP1 SWAP2 DIV MUL PUSH1 0x20 ADD PUSH1 0x40 MLOAD SWAP1 DUP2 ADD PUSH1 0x40 MSTORE DUP1 SWAP3 SWAP2 SWAP1 DUP2 DUP2 MSTORE PUSH1 0x20 ADD DUP3 DUP1 SLOAD PUSH2 0x1814 SWAP1 PUSH2 0x38C5 JUMP JUMPDEST DUP1 ISZERO PUSH2 0x185F JUMPI DUP1 PUSH1 0x1F LT PUSH2 0x1836 JUMPI PUSH2 0x100 DUP1 DUP4 SLOAD DIV MUL DUP4 MSTORE SWAP2 PUSH1 0x20 ADD SWAP2 PUSH2 0x185F JUMP JUMPDEST DUP3 ADD SWAP2 SWAP1 PUSH0 MSTORE PUSH1 0x20 PUSH0 KECCAK256 SWAP1 JUMPDEST DUP2 SLOAD DUP2 MSTORE SWAP1 PUSH1 0x1 ADD SWAP1 PUSH1 0x20 ADD DUP1 DUP4 GT PUSH2 0x1842 JUMPI DUP3 SWAP1 SUB PUSH1 0x1F AND DUP3 ADD SWAP2 JUMPDEST POP POP POP POP POP DUP2 MSTORE PUSH1 0x20 ADD PUSH1 0x8 PUSH0 PUSH1 0xB DUP10 DUP2 SLOAD DUP2 LT PUSH2 0x187F JUMPI PUSH2 0x187F PUSH2 0x396B JUMP JUMPDEST SWAP1 PUSH0 MSTORE PUSH1 0x20 PUSH0 KECCAK256 SWAP1 PUSH1 0x6 MUL ADD PUSH1 0x1 ADD SLOAD DUP2 MSTORE PUSH1 0x20 ADD SWAP1 DUP2 MSTORE PUSH1 0x20 ADD PUSH0 KECCAK256 PUSH1 0x4 ADD DUP1 SLOAD PUSH2 0x18AA SWAP1 PUSH2 0x38C5 JUMP JUMPDEST DUP1 PUSH1 0x1F ADD PUSH1 0x20 DUP1 SWAP2 DIV MUL PUSH1 0x20 ADD PUSH1 0x40 MLOAD SWAP1 DUP2 ADD PUSH1 0x40 MSTORE DUP1 SWAP3 SWAP2 SWAP1 DUP2 DUP2 MSTORE PUSH1 0x20 ADD DUP3 DUP1 SLOAD PUSH2 0x18D6 SWAP1 PUSH2 0x38C5 JUMP JUMPDEST DUP1 ISZERO PUSH2 0x1921 JUMPI DUP1 PUSH1 0x1F LT PUSH2 0x18F8 JUMPI PUSH2 0x100 DUP1 DUP4 SLOAD DIV MUL DUP4 MSTORE SWAP2 PUSH1 0x20 ADD SWAP2 PUSH2 0x1921 JUMP JUMPDEST DUP3 ADD SWAP2 SWAP1 PUSH0 MSTORE PUSH1 0x20 PUSH0 KECCAK256 SWAP1 JUMPDEST DUP2 SLOAD DUP2 MSTORE SWAP1 PUSH1 0x1 ADD SWAP1 PUSH1 0x20 ADD DUP1 DUP4 GT PUSH2 0x1904 JUMPI DUP3 SWAP1 SUB PUSH1 0x1F AND DUP3 ADD SWAP2 JUMPDEST POP POP POP POP POP DUP2 MSTORE PUSH1 0x20 ADD DUP6 DUP2 MSTORE PUSH1 0x20 ADD PUSH1 0xB DUP8 DUP2 SLOAD DUP2 LT PUSH2 0x1944 JUMPI PUSH2 0x1944 PUSH2 0x396B JUMP JUMPDEST SWAP1 PUSH0 MSTORE PUSH1 0x20 PUSH0 KECCAK256 SWAP1 PUSH1 0x6 MUL ADD PUSH1 0x5 ADD SLOAD DUP2 MSTORE PUSH1 0x20 ADD PUSH1 0x8 PUSH0 PUSH1 0xB DUP10 DUP2 SLOAD DUP2 LT PUSH2 0x196F JUMPI PUSH2 0x196F PUSH2 0x396B JUMP JUMPDEST PUSH0 SWAP2 DUP3 MSTORE PUSH1 0x20 DUP1 DUP4 KECCAK256 PUSH1 0x1 PUSH1 0x6 SWAP1 SWAP4 MUL ADD DUP3 ADD SLOAD DUP5 MSTORE DUP4 DUP2 ADD SWAP5 SWAP1 SWAP5 MSTORE PUSH1 0x40 SWAP3 DUP4 ADD DUP3 KECCAK256 PUSH1 0x7 ADD SLOAD SWAP1 SWAP5 MSTORE DUP6 SLOAD DUP1 DUP6 ADD DUP8 SSTORE SWAP6 DUP2 MSTORE DUP3 SWAP1 KECCAK256 DUP5 MLOAD PUSH1 0x8 SWAP1 SWAP7 MUL ADD SWAP5 DUP6 SSTORE SWAP1 DUP4 ADD MLOAD SWAP2 DUP5 ADD SWAP2 SWAP1 SWAP2 SSTORE DUP2 ADD MLOAD SWAP1 SWAP2 SWAP1 PUSH1 0x2 DUP3 ADD SWAP1 PUSH2 0x19D2 SWAP1 DUP3 PUSH2 0x39F3 JUMP JUMPDEST POP PUSH1 0x60 DUP3 ADD MLOAD PUSH1 0x3 DUP3 ADD SWAP1 PUSH2 0x19E7 SWAP1 DUP3 PUSH2 0x39F3 JUMP JUMPDEST POP PUSH1 0x80 DUP3 ADD MLOAD PUSH1 0x4 DUP3 ADD SWAP1 PUSH2 0x19FC SWAP1 DUP3 PUSH2 0x39F3 JUMP JUMPDEST POP PUSH1 0xA0 DUP3 ADD MLOAD DUP2 PUSH1 0x5 ADD SSTORE PUSH1 0xC0 DUP3 ADD MLOAD DUP2 PUSH1 0x6 ADD SSTORE PUSH1 0xE0 DUP3 ADD MLOAD DUP2 PUSH1 0x7 ADD SSTORE POP POP PUSH1 0x9 PUSH0 PUSH1 0xB DUP7 DUP2 SLOAD DUP2 LT PUSH2 0x1A33 JUMPI PUSH2 0x1A33 PUSH2 0x396B JUMP JUMPDEST PUSH0 SWAP2 DUP3 MSTORE PUSH1 0x20 DUP1 DUP4 KECCAK256 PUSH1 0x3 PUSH1 0x6 SWAP1 SWAP4 MUL ADD SWAP2 SWAP1 SWAP2 ADD SLOAD PUSH1 0x1 PUSH1 0x1 PUSH1 0xA0 SHL SUB AND DUP4 MSTORE DUP3 ADD SWAP3 SWAP1 SWAP3 MSTORE PUSH1 0x40 ADD SWAP1 KECCAK256 PUSH1 0xB DUP1 SLOAD DUP7 SWAP1 DUP2 LT PUSH2 0x1A73 JUMPI PUSH2 0x1A73 PUSH2 0x396B JUMP JUMPDEST SWAP1 PUSH0 MSTORE PUSH1 0x20 PUSH0 KECCAK256 SWAP1 PUSH1 0x6 MUL ADD PUSH1 0x1 ADD SLOAD DUP2 SLOAD DUP2 LT PUSH2 0x1A93 JUMPI PUSH2 0x1A93 PUSH2 0x396B JUMP JUMPDEST SWAP1 PUSH0 MSTORE PUSH1 0x20 PUSH0 KECCAK256 SWAP1 PUSH1 0x8 MUL ADD PUSH1 0x6 ADD SLOAD PUSH0 SUB PUSH2 0x1AF4 JUMPI PUSH1 0x9 PUSH0 PUSH1 0xB DUP7 DUP2 SLOAD DUP2 LT PUSH2 0x1ABF JUMPI PUSH2 0x1ABF PUSH2 0x396B JUMP JUMPDEST PUSH0 SWAP2 DUP3 MSTORE PUSH1 0x20 DUP1 DUP4 KECCAK256 PUSH1 0x3 PUSH1 0x6 SWAP1 SWAP4 MUL ADD SWAP2 SWAP1 SWAP2 ADD SLOAD PUSH1 0x1 PUSH1 0x1 PUSH1 0xA0 SHL SUB AND DUP4 MSTORE DUP3 ADD SWAP3 SWAP1 SWAP3 MSTORE PUSH1 0x40 ADD DUP2 KECCAK256 PUSH2 0x1AF4 SWAP2 PUSH2 0x2FD0 JUMP JUMPDEST PUSH1 0xB DUP5 DUP2 SLOAD DUP2 LT PUSH2 0x1B07 JUMPI PUSH2 0x1B07 PUSH2 0x396B JUMP JUMPDEST SWAP1 PUSH0 MSTORE PUSH1 0x20 PUSH0 KECCAK256 SWAP1 PUSH1 0x6 MUL ADD PUSH1 0x4 ADD SLOAD PUSH0 SUB PUSH2 0x10DF JUMPI PUSH1 0xB DUP5 DUP2 SLOAD DUP2 LT PUSH2 0x1B30 JUMPI PUSH2 0x1B30 PUSH2 0x396B JUMP JUMPDEST PUSH0 SWAP2 DUP3 MSTORE PUSH1 0x20 DUP3 KECCAK256 PUSH1 0x6 SWAP1 SWAP2 MUL ADD DUP2 DUP2 SSTORE PUSH1 0x1 DUP2 ADD DUP3 SWAP1 SSTORE PUSH1 0x2 DUP2 ADD DUP3 SWAP1 SSTORE PUSH1 0x3 DUP2 ADD DUP1 SLOAD PUSH1 0x1 PUSH1 0x1 PUSH1 0xA0 SHL SUB NOT AND SWAP1 SSTORE PUSH1 0x4 DUP2 ADD DUP3 SWAP1 SSTORE PUSH1 0x5 ADD SSTORE POP POP POP POP JUMP JUMPDEST PUSH1 0x4 SLOAD PUSH1 0x1 PUSH1 0x1 PUSH1 0xA0 SHL SUB AND CALLER EQ PUSH2 0x1B9C JUMPI PUSH1 0x40 MLOAD PUSH3 0x461BCD PUSH1 0xE5 SHL DUP2 MSTORE PUSH1 0x4 ADD PUSH2 0x3FB SWAP1 PUSH2 0x38FD JUMP JUMPDEST PUSH0 DUP6 DUP2 MSTORE PUSH1 0xA PUSH1 0x20 MSTORE PUSH1 0x40 SWAP1 KECCAK256 SLOAD DUP6 SWAP1 SUB PUSH2 0x1C1F JUMPI PUSH1 0x40 MLOAD PUSH3 0x461BCD PUSH1 0xE5 SHL DUP2 MSTORE PUSH1 0x20 PUSH1 0x4 DUP3 ADD MSTORE PUSH1 0x3F PUSH1 0x24 DUP3 ADD MSTORE PUSH32 0xD09AD0BED0BBD0BBD0B5D0BAD186D0B8D18F20D18120D182D0B0D0BAD0B8D0BC PUSH1 0x44 DUP3 ADD MSTORE PUSH32 0x20696420D183D0B6D0B520D181D183D189D0B5D181D182D0B2D183D0B5D18200 PUSH1 0x64 DUP3 ADD MSTORE PUSH1 0x84 ADD PUSH2 0x3FB JUMP JUMPDEST PUSH2 0x1C39 CALLER DUP4 DUP4 PUSH1 0x40 MLOAD DUP1 PUSH1 0x20 ADD PUSH1 0x40 MSTORE DUP1 PUSH0 DUP2 MSTORE POP PUSH2 0x2A07 JUMP JUMPDEST PUSH1 0x40 DUP1 MLOAD PUSH1 0xA0 DUP2 ADD DUP3 MSTORE DUP7 DUP2 MSTORE PUSH1 0x20 DUP1 DUP3 ADD DUP8 DUP2 MSTORE DUP3 DUP5 ADD DUP8 SWAP1 MSTORE PUSH1 0x60 DUP4 ADD DUP7 SWAP1 MSTORE PUSH1 0x80 DUP4 ADD DUP6 SWAP1 MSTORE PUSH0 DUP10 DUP2 MSTORE PUSH1 0xA SWAP1 SWAP3 MSTORE SWAP3 SWAP1 KECCAK256 DUP2 MLOAD DUP2 SSTORE SWAP2 MLOAD SWAP1 SWAP2 SWAP1 PUSH1 0x1 DUP3 ADD SWAP1 PUSH2 0x1C86 SWAP1 DUP3 PUSH2 0x39F3 JUMP JUMPDEST POP PUSH1 0x40 DUP3 ADD MLOAD PUSH1 0x2 DUP3 ADD SWAP1 PUSH2 0x1C9B SWAP1 DUP3 PUSH2 0x39F3 JUMP JUMPDEST POP PUSH1 0x60 DUP3 ADD MLOAD DUP1 MLOAD PUSH2 0x1CB7 SWAP2 PUSH1 0x3 DUP5 ADD SWAP2 PUSH1 0x20 SWAP1 SWAP2 ADD SWAP1 PUSH2 0x2FEE JUMP JUMPDEST POP PUSH1 0x80 DUP3 ADD MLOAD DUP1 MLOAD PUSH2 0x1CD3 SWAP2 PUSH1 0x4 DUP5 ADD SWAP2 PUSH1 0x20 SWAP1 SWAP2 ADD SWAP1 PUSH2 0x2FEE JUMP JUMPDEST POP POP PUSH1 0x40 DUP1 MLOAD PUSH1 0xA0 DUP2 ADD DUP3 MSTORE DUP8 DUP2 MSTORE PUSH1 0x20 DUP2 ADD DUP8 DUP2 MSTORE SWAP2 DUP2 ADD DUP7 SWAP1 MSTORE PUSH1 0x60 DUP2 ADD DUP6 SWAP1 MSTORE PUSH1 0x80 DUP2 ADD DUP5 SWAP1 MSTORE PUSH1 0xE DUP1 SLOAD PUSH1 0x1 DUP2 ADD DUP3 SSTORE PUSH0 SWAP2 SWAP1 SWAP2 MSTORE DUP2 MLOAD PUSH1 0x5 SWAP1 SWAP2 MUL PUSH32 0xBB7B4A454DC3493923482F07822329ED19E8244EFF582CC204F8554C3620C3FD DUP2 ADD SWAP2 DUP3 SSTORE SWAP3 MLOAD SWAP2 SWAP4 POP SWAP2 PUSH32 0xBB7B4A454DC3493923482F07822329ED19E8244EFF582CC204F8554C3620C3FE ADD SWAP1 PUSH2 0x1D6C SWAP1 DUP3 PUSH2 0x39F3 JUMP JUMPDEST POP PUSH1 0x40 DUP3 ADD MLOAD PUSH1 0x2 DUP3 ADD SWAP1 PUSH2 0x1D81 SWAP1 DUP3 PUSH2 0x39F3 JUMP JUMPDEST POP PUSH1 0x60 DUP3 ADD MLOAD DUP1 MLOAD PUSH2 0x1D9D SWAP2 PUSH1 0x3 DUP5 ADD SWAP2 PUSH1 0x20 SWAP1 SWAP2 ADD SWAP1 PUSH2 0x2FEE JUMP JUMPDEST POP PUSH1 0x80 DUP3 ADD MLOAD DUP1 MLOAD PUSH2 0x1DB9 SWAP2 PUSH1 0x4 DUP5 ADD SWAP2 PUSH1 0x20 SWAP1 SWAP2 ADD SWAP1 PUSH2 0x2FEE JUMP JUMPDEST POP POP POP POP POP POP POP POP JUMP JUMPDEST CALLER PUSH0 SWAP1 DUP2 MSTORE PUSH1 0x9 PUSH1 0x20 MSTORE PUSH1 0x40 SWAP1 KECCAK256 DUP1 SLOAD DUP4 SWAP2 SWAP1 DUP6 SWAP1 DUP2 LT PUSH2 0x1DE6 JUMPI PUSH2 0x1DE6 PUSH2 0x396B JUMP JUMPDEST SWAP1 PUSH0 MSTORE PUSH1 0x20 PUSH0 KECCAK256 SWAP1 PUSH1 0x8 MUL ADD PUSH1 0x6 ADD SLOAD LT ISZERO PUSH2 0x1E53 JUMPI PUSH1 0x40 MLOAD PUSH3 0x461BCD PUSH1 0xE5 SHL DUP2 MSTORE PUSH1 0x20 PUSH1 0x4 DUP3 ADD MSTORE PUSH1 0x26 PUSH1 0x24 DUP3 ADD MSTORE PUSH32 0xD0A320D0B2D0B0D18120D0BDD0B5D0B4D0BED181D182D0B0D182D0BED187D0BD PUSH1 0x44 DUP3 ADD MSTORE PUSH6 0x342F88139195 PUSH1 0xD2 SHL PUSH1 0x64 DUP3 ADD MSTORE PUSH1 0x84 ADD PUSH2 0x3FB JUMP JUMPDEST PUSH1 0x40 DUP1 MLOAD PUSH1 0xC0 DUP2 ADD DUP3 MSTORE PUSH1 0xB DUP1 SLOAD DUP1 DUP4 MSTORE PUSH1 0x20 DUP4 ADD SWAP8 DUP9 MSTORE SWAP3 DUP3 ADD SWAP6 DUP7 MSTORE CALLER PUSH1 0x60 DUP4 ADD SWAP1 DUP2 MSTORE PUSH1 0x80 DUP4 ADD SWAP6 DUP7 MSTORE PUSH1 0xA0 DUP4 ADD SWAP5 DUP6 MSTORE PUSH1 0x1 DUP5 ADD DUP3 SSTORE PUSH0 SWAP2 SWAP1 SWAP2 MSTORE SWAP1 MLOAD PUSH32 0x175B7A638427703F0DBE7BB9BBF987A2551717B34E79F33B5B1008D1FA01DB9 PUSH1 0x6 SWAP1 SWAP4 MUL SWAP3 DUP4 ADD SSTORE SWAP5 MLOAD PUSH32 0x175B7A638427703F0DBE7BB9BBF987A2551717B34E79F33B5B1008D1FA01DBA DUP3 ADD SSTORE SWAP3 MLOAD PUSH32 0x175B7A638427703F0DBE7BB9BBF987A2551717B34E79F33B5B1008D1FA01DBB DUP5 ADD SSTORE SWAP3 MLOAD PUSH32 0x175B7A638427703F0DBE7BB9BBF987A2551717B34E79F33B5B1008D1FA01DBC DUP4 ADD DUP1 SLOAD PUSH1 0x1 PUSH1 0x1 PUSH1 0xA0 SHL SUB NOT AND PUSH1 0x1 PUSH1 0x1 PUSH1 0xA0 SHL SUB SWAP1 SWAP3 AND SWAP2 SWAP1 SWAP2 OR SWAP1 SSTORE MLOAD PUSH32 0x175B7A638427703F0DBE7BB9BBF987A2551717B34E79F33B5B1008D1FA01DBD DUP3 ADD SSTORE SWAP1 MLOAD PUSH32 0x175B7A638427703F0DBE7BB9BBF987A2551717B34E79F33B5B1008D1FA01DBE SWAP1 SWAP2 ADD SSTORE JUMP JUMPDEST PUSH1 0x4 SLOAD PUSH1 0x1 PUSH1 0x1 PUSH1 0xA0 SHL SUB AND CALLER EQ PUSH2 0x1FC4 JUMPI PUSH1 0x40 MLOAD PUSH3 0x461BCD PUSH1 0xE5 SHL DUP2 MSTORE PUSH1 0x4 ADD PUSH2 0x3FB SWAP1 PUSH2 0x38FD JUMP JUMPDEST PUSH0 DUP8 DUP2 MSTORE PUSH1 0x8 PUSH1 0x20 MSTORE PUSH1 0x40 SWAP1 KECCAK256 PUSH1 0x5 ADD SLOAD ISZERO PUSH2 0x2041 JUMPI PUSH1 0x40 MLOAD PUSH3 0x461BCD PUSH1 0xE5 SHL DUP2 MSTORE PUSH1 0x20 PUSH1 0x4 DUP3 ADD MSTORE PUSH1 0x36 PUSH1 0x24 DUP3 ADD MSTORE PUSH32 0x4E465420D18120D182D0B0D0BAD0B8D0BC20696420D183D0B6D0B520D0B5D181 PUSH1 0x44 DUP3 ADD MSTORE PUSH22 0xD182D18C20D0B220D181D0B8D181D182D0B5D0BCD0B5 PUSH1 0x50 SHL PUSH1 0x64 DUP3 ADD MSTORE PUSH1 0x84 ADD PUSH2 0x3FB JUMP JUMPDEST PUSH2 0x205B CALLER DUP9 DUP5 PUSH1 0x40 MLOAD DUP1 PUSH1 0x20 ADD PUSH1 0x40 MSTORE DUP1 PUSH0 DUP2 MSTORE POP PUSH2 0x2A3D JUMP JUMPDEST PUSH1 0x40 DUP1 MLOAD PUSH2 0x100 DUP2 ADD DUP3 MSTORE DUP9 DUP2 MSTORE CALLER PUSH0 SWAP1 DUP2 MSTORE PUSH1 0x9 PUSH1 0x20 SWAP1 DUP2 MSTORE DUP4 DUP3 KECCAK256 SLOAD DUP2 DUP5 ADD SWAP1 DUP2 MSTORE DUP4 DUP6 ADD DUP12 DUP2 MSTORE PUSH1 0x60 DUP6 ADD DUP12 SWAP1 MSTORE PUSH1 0x80 DUP6 ADD DUP11 SWAP1 MSTORE PUSH1 0xA0 DUP6 ADD DUP10 SWAP1 MSTORE PUSH1 0xC0 DUP6 ADD DUP9 SWAP1 MSTORE PUSH1 0xE0 DUP6 ADD DUP8 SWAP1 MSTORE DUP13 DUP5 MSTORE PUSH1 0x8 SWAP1 SWAP3 MSTORE SWAP4 SWAP1 SWAP2 KECCAK256 DUP3 MLOAD DUP2 SSTORE SWAP3 MLOAD PUSH1 0x1 DUP5 ADD SSTORE MLOAD SWAP1 SWAP2 SWAP1 PUSH1 0x2 DUP3 ADD SWAP1 PUSH2 0x20D2 SWAP1 DUP3 PUSH2 0x39F3 JUMP JUMPDEST POP PUSH1 0x60 DUP3 ADD MLOAD PUSH1 0x3 DUP3 ADD SWAP1 PUSH2 0x20E7 SWAP1 DUP3 PUSH2 0x39F3 JUMP JUMPDEST POP PUSH1 0x80 DUP3 ADD MLOAD PUSH1 0x4 DUP3 ADD SWAP1 PUSH2 0x20FC SWAP1 DUP3 PUSH2 0x39F3 JUMP JUMPDEST POP PUSH1 0xA0 DUP3 DUP2 ADD MLOAD PUSH1 0x5 DUP4 ADD SSTORE PUSH1 0xC0 DUP1 DUP5 ADD MLOAD PUSH1 0x6 DUP5 ADD SSTORE PUSH1 0xE0 SWAP4 DUP5 ADD MLOAD PUSH1 0x7 SWAP1 SWAP4 ADD SWAP3 SWAP1 SWAP3 SSTORE CALLER PUSH0 SWAP1 DUP2 MSTORE PUSH1 0x9 PUSH1 0x20 DUP2 DUP2 MSTORE PUSH1 0x40 DUP1 DUP5 KECCAK256 DUP2 MLOAD PUSH2 0x100 DUP2 ADD DUP4 MSTORE DUP16 DUP2 MSTORE SWAP4 DUP4 MSTORE DUP1 SLOAD DUP5 DUP5 ADD DUP2 DUP2 MSTORE SWAP3 DUP6 ADD DUP16 DUP2 MSTORE PUSH1 0x60 DUP7 ADD DUP16 SWAP1 MSTORE PUSH1 0x80 DUP7 ADD DUP15 SWAP1 MSTORE SWAP7 DUP6 ADD DUP13 SWAP1 MSTORE SWAP7 DUP5 ADD DUP11 SWAP1 MSTORE SWAP7 DUP4 ADD DUP9 SWAP1 MSTORE PUSH1 0x1 DUP1 DUP8 ADD DUP9 SSTORE SWAP7 DUP5 MSTORE SWAP3 KECCAK256 DUP2 MLOAD PUSH1 0x8 SWAP1 SWAP6 MUL ADD SWAP4 DUP5 SSTORE SWAP1 MLOAD SWAP4 DUP4 ADD SWAP4 SWAP1 SWAP4 SSTORE MLOAD PUSH1 0x2 DUP3 ADD SWAP1 PUSH2 0x21A0 SWAP1 DUP3 PUSH2 0x39F3 JUMP JUMPDEST POP PUSH1 0x60 DUP3 ADD MLOAD PUSH1 0x3 DUP3 ADD SWAP1 PUSH2 0x21B5 SWAP1 DUP3 PUSH2 0x39F3 JUMP JUMPDEST POP PUSH1 0x80 DUP3 ADD MLOAD PUSH1 0x4 DUP3 ADD SWAP1 PUSH2 0x21CA SWAP1 DUP3 PUSH2 0x39F3 JUMP JUMPDEST POP PUSH1 0xA0 DUP3 ADD MLOAD DUP2 PUSH1 0x5 ADD SSTORE PUSH1 0xC0 DUP3 ADD MLOAD DUP2 PUSH1 0x6 ADD SSTORE PUSH1 0xE0 DUP3 ADD MLOAD DUP2 PUSH1 0x7 ADD SSTORE POP POP POP POP POP POP POP POP POP JUMP JUMPDEST CALLER PUSH1 0x1 PUSH1 0x1 PUSH1 0xA0 SHL SUB AND PUSH1 0xB DUP4 DUP2 SLOAD DUP2 LT PUSH2 0x2211 JUMPI PUSH2 0x2211 PUSH2 0x396B JUMP JUMPDEST PUSH0 SWAP2 DUP3 MSTORE PUSH1 0x20 SWAP1 SWAP2 KECCAK256 PUSH1 0x3 PUSH1 0x6 SWAP1 SWAP3 MUL ADD ADD SLOAD PUSH1 0x1 PUSH1 0x1 PUSH1 0xA0 SHL SUB AND EQ PUSH2 0x227A JUMPI PUSH1 0x40 MLOAD PUSH3 0x461BCD PUSH1 0xE5 SHL DUP2 MSTORE PUSH1 0x20 PUSH1 0x4 DUP3 ADD MSTORE PUSH1 0x19 PUSH1 0x24 DUP3 ADD MSTORE PUSH32 0xD0ADD182D0BE20D0BDD0B520D0B2D0B0D18820D0BBD0BED18200000000000000 PUSH1 0x44 DUP3 ADD MSTORE PUSH1 0x64 ADD PUSH2 0x3FB JUMP JUMPDEST PUSH1 0x3 SLOAD PUSH2 0x2287 SWAP1 DUP3 PUSH2 0x3993 JUMP JUMPDEST PUSH1 0xB DUP4 DUP2 SLOAD DUP2 LT PUSH2 0x229A JUMPI PUSH2 0x229A PUSH2 0x396B JUMP JUMPDEST SWAP1 PUSH0 MSTORE PUSH1 0x20 PUSH0 KECCAK256 SWAP1 PUSH1 0x6 MUL ADD PUSH1 0x5 ADD DUP2 SWAP1 SSTORE POP POP POP JUMP JUMPDEST PUSH1 0x4 SLOAD PUSH1 0x1 PUSH1 0x1 PUSH1 0xA0 SHL SUB AND CALLER EQ PUSH2 0x22DB JUMPI PUSH1 0x40 MLOAD PUSH3 0x461BCD PUSH1 0xE5 SHL DUP2 MSTORE PUSH1 0x4 ADD PUSH2 0x3FB SWAP1 PUSH2 0x38FD JUMP JUMPDEST PUSH0 JUMPDEST PUSH1 0xF SLOAD DUP2 LT ISZERO PUSH2 0x2396 JUMPI DUP8 PUSH1 0xF DUP3 DUP2 SLOAD DUP2 LT PUSH2 0x22FB JUMPI PUSH2 0x22FB PUSH2 0x396B JUMP JUMPDEST SWAP1 PUSH0 MSTORE PUSH1 0x20 PUSH0 KECCAK256 SWAP1 PUSH1 0x8 MUL ADD PUSH1 0x1 ADD SLOAD SUB PUSH2 0x238E JUMPI PUSH1 0x40 MLOAD PUSH3 0x461BCD PUSH1 0xE5 SHL DUP2 MSTORE PUSH1 0x20 PUSH1 0x4 DUP3 ADD MSTORE PUSH1 0x47 PUSH1 0x24 DUP3 ADD MSTORE PUSH32 0xD090D183D0BAD186D0B8D0BED0BD20D18120D182D0B0D0BAD0BED0B920D0BAD0 PUSH1 0x44 DUP3 ADD MSTORE PUSH32 0xBED0BBD0BBD0B5D0BAD186D0B8D0B5D0B920D183D0B6D0B520D0B7D0B0D0BFD1 PUSH1 0x64 DUP3 ADD MSTORE PUSH7 0x83D189D0B5D0BD PUSH1 0xC8 SHL PUSH1 0x84 DUP3 ADD MSTORE PUSH1 0xA4 ADD PUSH2 0x3FB JUMP JUMPDEST PUSH1 0x1 ADD PUSH2 0x22DD JUMP JUMPDEST POP PUSH1 0x40 DUP1 MLOAD PUSH2 0x100 DUP2 ADD DUP3 MSTORE PUSH1 0xF DUP1 SLOAD DUP1 DUP4 MSTORE PUSH1 0x20 DUP4 ADD SWAP11 DUP12 MSTORE SWAP3 DUP3 ADD SWAP9 DUP10 MSTORE PUSH1 0x60 DUP3 ADD SWAP8 DUP9 MSTORE PUSH1 0x80 DUP3 ADD SWAP7 DUP8 MSTORE PUSH1 0xA0 DUP3 ADD SWAP6 DUP7 MSTORE PUSH1 0x1 PUSH1 0x1 PUSH1 0xA0 SHL SUB SWAP5 DUP6 AND PUSH1 0xC0 DUP4 ADD SWAP1 DUP2 MSTORE PUSH1 0xE0 DUP4 ADD SWAP5 DUP6 MSTORE PUSH1 0x1 DUP5 ADD DUP3 SSTORE PUSH0 SWAP2 SWAP1 SWAP2 MSTORE SWAP1 MLOAD PUSH32 0x8D1108E10BCB7C27DDDFC02ED9D693A074039D026CF4EA4240B40F7D581AC802 PUSH1 0x8 SWAP1 SWAP4 MUL SWAP3 DUP4 ADD SSTORE SWAP8 MLOAD PUSH32 0x8D1108E10BCB7C27DDDFC02ED9D693A074039D026CF4EA4240B40F7D581AC803 DUP3 ADD SSTORE SWAP6 MLOAD PUSH32 0x8D1108E10BCB7C27DDDFC02ED9D693A074039D026CF4EA4240B40F7D581AC804 DUP8 ADD SSTORE SWAP4 MLOAD PUSH32 0x8D1108E10BCB7C27DDDFC02ED9D693A074039D026CF4EA4240B40F7D581AC805 DUP7 ADD SSTORE SWAP2 MLOAD PUSH32 0x8D1108E10BCB7C27DDDFC02ED9D693A074039D026CF4EA4240B40F7D581AC806 DUP6 ADD SSTORE MLOAD PUSH32 0x8D1108E10BCB7C27DDDFC02ED9D693A074039D026CF4EA4240B40F7D581AC807 DUP5 ADD SSTORE SWAP3 MLOAD PUSH32 0x8D1108E10BCB7C27DDDFC02ED9D693A074039D026CF4EA4240B40F7D581AC808 DUP4 ADD DUP1 SLOAD PUSH1 0x1 PUSH1 0x1 PUSH1 0xA0 SHL SUB NOT AND SWAP2 SWAP1 SWAP5 AND OR SWAP1 SWAP3 SSTORE SWAP1 MLOAD PUSH32 0x8D1108E10BCB7C27DDDFC02ED9D693A074039D026CF4EA4240B40F7D581AC809 SWAP1 SWAP2 ADD SSTORE JUMP JUMPDEST DUP1 PUSH1 0x40 MLOAD PUSH1 0x20 ADD PUSH2 0x254B SWAP2 SWAP1 PUSH2 0x3B16 JUMP JUMPDEST PUSH1 0x40 MLOAD PUSH1 0x20 DUP2 DUP4 SUB SUB DUP2 MSTORE SWAP1 PUSH1 0x40 MSTORE DUP1 MLOAD SWAP1 PUSH1 0x20 ADD KECCAK256 PUSH1 0x6 DUP3 PUSH1 0x40 MLOAD PUSH2 0x2571 SWAP2 SWAP1 PUSH2 0x3B16 JUMP JUMPDEST SWAP1 DUP2 MSTORE PUSH1 0x40 MLOAD PUSH1 0x20 SWAP2 DUP2 SWAP1 SUB DUP3 ADD DUP2 KECCAK256 PUSH2 0x258D SWAP3 SWAP1 SWAP2 ADD PUSH2 0x3B50 JUMP JUMPDEST PUSH1 0x40 MLOAD PUSH1 0x20 DUP2 DUP4 SUB SUB DUP2 MSTORE SWAP1 PUSH1 0x40 MSTORE DUP1 MLOAD SWAP1 PUSH1 0x20 ADD KECCAK256 EQ PUSH2 0x2626 JUMPI PUSH1 0x40 MLOAD PUSH3 0x461BCD PUSH1 0xE5 SHL DUP2 MSTORE PUSH1 0x20 PUSH1 0x4 DUP3 ADD MSTORE PUSH1 0x47 PUSH1 0x24 DUP3 ADD MSTORE PUSH32 0xD0A2D0B0D0BAD0BED0B3D0BE20D180D0B5D184D0B5D180D0B0D0BBD18CD0BDD0 PUSH1 0x44 DUP3 ADD MSTORE PUSH32 0xBED0B3D0BE20D0BAD0BED0B4D0B020D0BDD0B5D18220D0B220D181D0B8D181D1 PUSH1 0x64 DUP3 ADD MSTORE PUSH7 0x82D0B5D0BCD0B5 PUSH1 0xC8 SHL PUSH1 0x84 DUP3 ADD MSTORE PUSH1 0xA4 ADD PUSH2 0x3FB JUMP JUMPDEST CALLER PUSH0 SWAP1 DUP2 MSTORE PUSH1 0x7 PUSH1 0x20 MSTORE PUSH1 0x40 SWAP1 KECCAK256 SLOAD PUSH1 0xFF AND ISZERO ISZERO PUSH1 0x1 SUB PUSH2 0x269D JUMPI PUSH1 0x40 MLOAD PUSH3 0x461BCD PUSH1 0xE5 SHL DUP2 MSTORE PUSH1 0x20 PUSH1 0x4 DUP3 ADD MSTORE PUSH1 0x2B PUSH1 0x24 DUP3 ADD MSTORE PUSH32 0xD092D18B20D183D0B6D0B520D0B8D181D0BFD0BED0BBD18CD0B7D0BED0B2D0B0 PUSH1 0x44 DUP3 ADD MSTORE PUSH11 0x342EF42E08342EB42FB42D PUSH1 0xAA SHL PUSH1 0x64 DUP3 ADD MSTORE PUSH1 0x84 ADD PUSH2 0x3FB JUMP JUMPDEST PUSH1 0x5 PUSH0 SWAP1 SLOAD SWAP1 PUSH2 0x100 EXP SWAP1 DIV PUSH1 0x1 PUSH1 0x1 PUSH1 0xA0 SHL SUB AND PUSH1 0x1 PUSH1 0x1 PUSH1 0xA0 SHL SUB AND PUSH4 0x5CD07EE6 PUSH1 0x40 MLOAD DUP2 PUSH4 0xFFFFFFFF AND PUSH1 0xE0 SHL DUP2 MSTORE PUSH1 0x4 ADD PUSH0 PUSH1 0x40 MLOAD DUP1 DUP4 SUB DUP2 PUSH0 DUP8 DUP1 EXTCODESIZE ISZERO DUP1 ISZERO PUSH2 0x26E9 JUMPI PUSH0 DUP1 REVERT JUMPDEST POP GAS CALL ISZERO DUP1 ISZERO PUSH2 0x26FB JUMPI RETURNDATASIZE PUSH0 DUP1 RETURNDATACOPY RETURNDATASIZE PUSH0 REVERT JUMPDEST POP POP CALLER PUSH0 SWAP1 DUP2 MSTORE PUSH1 0x7 PUSH1 0x20 MSTORE PUSH1 0x40 SWAP1 DUP2 SWAP1 KECCAK256 DUP1 SLOAD PUSH1 0xFF NOT AND PUSH1 0x1 OR SWAP1 SSTORE MLOAD PUSH1 0x6 SWAP3 POP PUSH2 0x2729 SWAP2 POP DUP4 SWAP1 PUSH2 0x3B16 JUMP JUMPDEST SWAP1 DUP2 MSTORE PUSH1 0x20 ADD PUSH1 0x40 MLOAD DUP1 SWAP2 SUB SWAP1 KECCAK256 PUSH1 0x2 ADD SLOAD PUSH1 0x1 PUSH2 0x2747 SWAP2 SWAP1 PUSH2 0x3BC2 JUMP JUMPDEST PUSH1 0x6 DUP3 PUSH1 0x40 MLOAD PUSH2 0x2757 SWAP2 SWAP1 PUSH2 0x3B16 JUMP JUMPDEST SWAP1 DUP2 MSTORE PUSH1 0x40 MLOAD SWAP1 DUP2 SWAP1 SUB PUSH1 0x20 ADD SWAP1 KECCAK256 PUSH1 0x2 ADD SSTORE POP JUMP JUMPDEST PUSH2 0x2778 CALLER DUP4 DUP4 PUSH2 0x2A98 JUMP JUMPDEST POP POP JUMP JUMPDEST PUSH1 0x60 PUSH1 0xC DUP1 SLOAD DUP1 PUSH1 0x20 MUL PUSH1 0x20 ADD PUSH1 0x40 MLOAD SWAP1 DUP2 ADD PUSH1 0x40 MSTORE DUP1 SWAP3 SWAP2 SWAP1 DUP2 DUP2 MSTORE PUSH1 0x20 ADD PUSH0 SWAP1 JUMPDEST DUP3 DUP3 LT ISZERO PUSH2 0x2881 JUMPI DUP4 DUP3 SWAP1 PUSH0 MSTORE PUSH1 0x20 PUSH0 KECCAK256 SWAP1 PUSH1 0x3 MUL ADD PUSH1 0x40 MLOAD DUP1 PUSH1 0x60 ADD PUSH1 0x40 MSTORE SWAP1 DUP2 PUSH0 DUP3 ADD DUP1 SLOAD PUSH2 0x27CF SWAP1 PUSH2 0x38C5 JUMP JUMPDEST DUP1 PUSH1 0x1F ADD PUSH1 0x20 DUP1 SWAP2 DIV MUL PUSH1 0x20 ADD PUSH1 0x40 MLOAD SWAP1 DUP2 ADD PUSH1 0x40 MSTORE DUP1 SWAP3 SWAP2 SWAP1 DUP2 DUP2 MSTORE PUSH1 0x20 ADD DUP3 DUP1 SLOAD PUSH2 0x27FB SWAP1 PUSH2 0x38C5 JUMP JUMPDEST DUP1 ISZERO PUSH2 0x2846 JUMPI DUP1 PUSH1 0x1F LT PUSH2 0x281D JUMPI PUSH2 0x100 DUP1 DUP4 SLOAD DIV MUL DUP4 MSTORE SWAP2 PUSH1 0x20 ADD SWAP2 PUSH2 0x2846 JUMP JUMPDEST DUP3 ADD SWAP2 SWAP1 PUSH0 MSTORE PUSH1 0x20 PUSH0 KECCAK256 SWAP1 JUMPDEST DUP2 SLOAD DUP2 MSTORE SWAP1 PUSH1 0x1 ADD SWAP1 PUSH1 0x20 ADD DUP1 DUP4 GT PUSH2 0x2829 JUMPI DUP3 SWAP1 SUB PUSH1 0x1F AND DUP3 ADD SWAP2 JUMPDEST POP POP POP SWAP2 DUP4 MSTORE POP POP PUSH1 0x1 DUP3 DUP2 ADD SLOAD PUSH1 0x1 PUSH1 0x1 PUSH1 0xA0 SHL SUB AND PUSH1 0x20 DUP1 DUP5 ADD SWAP2 SWAP1 SWAP2 MSTORE PUSH1 0x2 SWAP1 SWAP4 ADD SLOAD PUSH1 0x40 SWAP1 SWAP3 ADD SWAP2 SWAP1 SWAP2 MSTORE SWAP2 DUP4 MSTORE SWAP3 ADD SWAP2 ADD PUSH2 0x279F JUMP JUMPDEST POP POP POP POP SWAP1 POP SWAP1 JUMP JUMPDEST PUSH1 0x1 PUSH1 0x1 PUSH1 0xA0 SHL SUB SWAP2 DUP3 AND PUSH0 SWAP1 DUP2 MSTORE PUSH1 0x1 PUSH1 0x20 SWAP1 DUP2 MSTORE PUSH1 0x40 DUP1 DUP4 KECCAK256 SWAP4 SWAP1 SWAP5 AND DUP3 MSTORE SWAP2 SWAP1 SWAP2 MSTORE KECCAK256 SLOAD PUSH1 0xFF AND SWAP1 JUMP JUMPDEST CALLER PUSH1 0x1 PUSH1 0x1 PUSH1 0xA0 SHL SUB DUP7 AND DUP2 EQ DUP1 ISZERO SWAP1 PUSH2 0x28D8 JUMPI POP PUSH2 0x28D6 DUP7 DUP3 PUSH2 0x288A JUMP JUMPDEST ISZERO JUMPDEST ISZERO PUSH2 0x2909 JUMPI PUSH1 0x40 MLOAD PUSH4 0x711BEC91 PUSH1 0xE1 SHL DUP2 MSTORE PUSH1 0x1 PUSH1 0x1 PUSH1 0xA0 SHL SUB DUP1 DUP4 AND PUSH1 0x4 DUP4 ADD MSTORE DUP8 AND PUSH1 0x24 DUP3 ADD MSTORE PUSH1 0x44 ADD PUSH2 0x3FB JUMP JUMPDEST PUSH2 0xCD4 DUP7 DUP7 DUP7 DUP7 DUP7 PUSH2 0x297B JUMP JUMPDEST PUSH1 0x1 PUSH1 0x1 PUSH1 0xA0 SHL SUB DUP5 AND PUSH2 0x293F JUMPI PUSH1 0x40 MLOAD PUSH4 0x2BFA23E7 PUSH1 0xE1 SHL DUP2 MSTORE PUSH0 PUSH1 0x4 DUP3 ADD MSTORE PUSH1 0x24 ADD PUSH2 0x3FB JUMP JUMPDEST PUSH1 0x1 PUSH1 0x1 PUSH1 0xA0 SHL SUB DUP6 AND PUSH2 0x2967 JUMPI PUSH1 0x40 MLOAD PUSH3 0x6A0D45 PUSH1 0xE2 SHL DUP2 MSTORE PUSH0 PUSH1 0x4 DUP3 ADD MSTORE PUSH1 0x24 ADD PUSH2 0x3FB JUMP JUMPDEST PUSH2 0x2974 DUP6 DUP6 DUP6 DUP6 DUP6 PUSH2 0x2B2C JUMP JUMPDEST POP POP POP POP POP JUMP JUMPDEST PUSH1 0x1 PUSH1 0x1 PUSH1 0xA0 SHL SUB DUP5 AND PUSH2 0x29A4 JUMPI PUSH1 0x40 MLOAD PUSH4 0x2BFA23E7 PUSH1 0xE1 SHL DUP2 MSTORE PUSH0 PUSH1 0x4 DUP3 ADD MSTORE PUSH1 0x24 ADD PUSH2 0x3FB JUMP JUMPDEST PUSH1 0x1 PUSH1 0x1 PUSH1 0xA0 SHL SUB DUP6 AND PUSH2 0x29CC JUMPI PUSH1 0x40 MLOAD PUSH3 0x6A0D45 PUSH1 0xE2 SHL DUP2 MSTORE PUSH0 PUSH1 0x4 DUP3 ADD MSTORE PUSH1 0x24 ADD PUSH2 0x3FB JUMP JUMPDEST PUSH1 0x40 DUP1 MLOAD PUSH1 0x1 DUP1 DUP3 MSTORE PUSH1 0x20 DUP3 ADD DUP7 SWAP1 MSTORE DUP2 DUP4 ADD SWAP1 DUP2 MSTORE PUSH1 0x60 DUP3 ADD DUP6 SWAP1 MSTORE PUSH1 0x80 DUP3 ADD SWAP1 SWAP3 MSTORE SWAP1 PUSH2 0x29FE DUP8 DUP8 DUP5 DUP5 DUP8 PUSH2 0x2B2C JUMP JUMPDEST POP POP POP POP POP POP POP JUMP JUMPDEST PUSH1 0x1 PUSH1 0x1 PUSH1 0xA0 SHL SUB DUP5 AND PUSH2 0x2A30 JUMPI PUSH1 0x40 MLOAD PUSH4 0x2BFA23E7 PUSH1 0xE1 SHL DUP2 MSTORE PUSH0 PUSH1 0x4 DUP3 ADD MSTORE PUSH1 0x24 ADD PUSH2 0x3FB JUMP JUMPDEST PUSH2 0x10DF PUSH0 DUP6 DUP6 DUP6 DUP6 PUSH2 0x2B2C JUMP JUMPDEST PUSH1 0x1 PUSH1 0x1 PUSH1 0xA0 SHL SUB DUP5 AND PUSH2 0x2A66 JUMPI PUSH1 0x40 MLOAD PUSH4 0x2BFA23E7 PUSH1 0xE1 SHL DUP2 MSTORE PUSH0 PUSH1 0x4 DUP3 ADD MSTORE PUSH1 0x24 ADD PUSH2 0x3FB JUMP JUMPDEST PUSH1 0x40 DUP1 MLOAD PUSH1 0x1 DUP1 DUP3 MSTORE PUSH1 0x20 DUP3 ADD DUP7 SWAP1 MSTORE DUP2 DUP4 ADD SWAP1 DUP2 MSTORE PUSH1 0x60 DUP3 ADD DUP6 SWAP1 MSTORE PUSH1 0x80 DUP3 ADD SWAP1 SWAP3 MSTORE SWAP1 PUSH2 0xCD4 PUSH0 DUP8 DUP5 DUP5 DUP8 PUSH2 0x2B2C JUMP JUMPDEST PUSH1 0x1 PUSH1 0x1 PUSH1 0xA0 SHL SUB DUP3 AND PUSH2 0x2AC0 JUMPI PUSH1 0x40 MLOAD PUSH3 0xCED3E1 PUSH1 0xE8 SHL DUP2 MSTORE PUSH0 PUSH1 0x4 DUP3 ADD MSTORE PUSH1 0x24 ADD PUSH2 0x3FB JUMP JUMPDEST PUSH1 0x1 PUSH1 0x1 PUSH1 0xA0 SHL SUB DUP4 DUP2 AND PUSH0 DUP2 DUP2 MSTORE PUSH1 0x1 PUSH1 0x20 SWAP1 DUP2 MSTORE PUSH1 0x40 DUP1 DUP4 KECCAK256 SWAP5 DUP8 AND DUP1 DUP5 MSTORE SWAP5 DUP3 MSTORE SWAP2 DUP3 SWAP1 KECCAK256 DUP1 SLOAD PUSH1 0xFF NOT AND DUP7 ISZERO ISZERO SWAP1 DUP2 OR SWAP1 SWAP2 SSTORE SWAP2 MLOAD SWAP2 DUP3 MSTORE PUSH32 0x17307EAB39AB6107E8899845AD3D59BD9653F200F220920489CA2B5937696C31 SWAP2 ADD PUSH1 0x40 MLOAD DUP1 SWAP2 SUB SWAP1 LOG3 POP POP POP JUMP JUMPDEST PUSH2 0x2B38 DUP6 DUP6 DUP6 DUP6 PUSH2 0x2B7F JUMP JUMPDEST PUSH1 0x1 PUSH1 0x1 PUSH1 0xA0 SHL SUB DUP5 AND ISZERO PUSH2 0x2974 JUMPI DUP3 MLOAD CALLER SWAP1 PUSH1 0x1 SUB PUSH2 0x2B71 JUMPI PUSH1 0x20 DUP5 DUP2 ADD MLOAD SWAP1 DUP5 ADD MLOAD PUSH2 0x2B6A DUP4 DUP10 DUP10 DUP6 DUP6 DUP10 PUSH2 0x2D8E JUMP JUMPDEST POP POP PUSH2 0xCD4 JUMP JUMPDEST PUSH2 0xCD4 DUP2 DUP8 DUP8 DUP8 DUP8 DUP8 PUSH2 0x2EAF JUMP JUMPDEST DUP1 MLOAD DUP3 MLOAD EQ PUSH2 0x2BAE JUMPI DUP2 MLOAD DUP2 MLOAD PUSH1 0x40 MLOAD PUSH4 0x5B059991 PUSH1 0xE0 SHL DUP2 MSTORE PUSH1 0x4 DUP2 ADD SWAP3 SWAP1 SWAP3 MSTORE PUSH1 0x24 DUP3 ADD MSTORE PUSH1 0x44 ADD PUSH2 0x3FB JUMP JUMPDEST CALLER PUSH0 JUMPDEST DUP4 MLOAD DUP2 LT ISZERO PUSH2 0x2CB0 JUMPI PUSH1 0x20 DUP2 DUP2 MUL DUP6 DUP2 ADD DUP3 ADD MLOAD SWAP1 DUP6 ADD SWAP1 SWAP2 ADD MLOAD PUSH1 0x1 PUSH1 0x1 PUSH1 0xA0 SHL SUB DUP9 AND ISZERO PUSH2 0x2C62 JUMPI PUSH0 DUP3 DUP2 MSTORE PUSH1 0x20 DUP2 DUP2 MSTORE PUSH1 0x40 DUP1 DUP4 KECCAK256 PUSH1 0x1 PUSH1 0x1 PUSH1 0xA0 SHL SUB DUP13 AND DUP5 MSTORE SWAP1 SWAP2 MSTORE SWAP1 KECCAK256 SLOAD DUP2 DUP2 LT ISZERO PUSH2 0x2C3C JUMPI PUSH1 0x40 MLOAD PUSH4 0x3DEE4C5 PUSH1 0xE0 SHL DUP2 MSTORE PUSH1 0x1 PUSH1 0x1 PUSH1 0xA0 SHL SUB DUP11 AND PUSH1 0x4 DUP3 ADD MSTORE PUSH1 0x24 DUP2 ADD DUP3 SWAP1 MSTORE PUSH1 0x44 DUP2 ADD DUP4 SWAP1 MSTORE PUSH1 0x64 DUP2 ADD DUP5 SWAP1 MSTORE PUSH1 0x84 ADD PUSH2 0x3FB JUMP JUMPDEST PUSH0 DUP4 DUP2 MSTORE PUSH1 0x20 DUP2 DUP2 MSTORE PUSH1 0x40 DUP1 DUP4 KECCAK256 PUSH1 0x1 PUSH1 0x1 PUSH1 0xA0 SHL SUB DUP14 AND DUP5 MSTORE SWAP1 SWAP2 MSTORE SWAP1 KECCAK256 SWAP1 DUP3 SWAP1 SUB SWAP1 SSTORE JUMPDEST PUSH1 0x1 PUSH1 0x1 PUSH1 0xA0 SHL SUB DUP8 AND ISZERO PUSH2 0x2CA6 JUMPI PUSH0 DUP3 DUP2 MSTORE PUSH1 0x20 DUP2 DUP2 MSTORE PUSH1 0x40 DUP1 DUP4 KECCAK256 PUSH1 0x1 PUSH1 0x1 PUSH1 0xA0 SHL SUB DUP12 AND DUP5 MSTORE SWAP1 SWAP2 MSTORE DUP2 KECCAK256 DUP1 SLOAD DUP4 SWAP3 SWAP1 PUSH2 0x2CA0 SWAP1 DUP5 SWAP1 PUSH2 0x3BC2 JUMP JUMPDEST SWAP1 SWAP2 SSTORE POP POP JUMPDEST POP POP PUSH1 0x1 ADD PUSH2 0x2BB1 JUMP JUMPDEST POP DUP3 MLOAD PUSH1 0x1 SUB PUSH2 0x2D30 JUMPI PUSH1 0x20 DUP4 ADD MLOAD PUSH0 SWAP1 PUSH1 0x20 DUP5 ADD MLOAD SWAP1 SWAP2 POP DUP6 PUSH1 0x1 PUSH1 0x1 PUSH1 0xA0 SHL SUB AND DUP8 PUSH1 0x1 PUSH1 0x1 PUSH1 0xA0 SHL SUB AND DUP5 PUSH1 0x1 PUSH1 0x1 PUSH1 0xA0 SHL SUB AND PUSH32 0xC3D58168C5AE7397731D063D5BBF3D657854427343F4C083240F7AACAA2D0F62 DUP6 DUP6 PUSH1 0x40 MLOAD PUSH2 0x2D21 SWAP3 SWAP2 SWAP1 SWAP2 DUP3 MSTORE PUSH1 0x20 DUP3 ADD MSTORE PUSH1 0x40 ADD SWAP1 JUMP JUMPDEST PUSH1 0x40 MLOAD DUP1 SWAP2 SUB SWAP1 LOG4 POP POP PUSH2 0x2974 JUMP JUMPDEST DUP4 PUSH1 0x1 PUSH1 0x1 PUSH1 0xA0 SHL SUB AND DUP6 PUSH1 0x1 PUSH1 0x1 PUSH1 0xA0 SHL SUB AND DUP3 PUSH1 0x1 PUSH1 0x1 PUSH1 0xA0 SHL SUB AND PUSH32 0x4A39DC06D4C0DBC64B70AF90FD698A233A518AA5D07E595D983B8C0526C8F7FB DUP7 DUP7 PUSH1 0x40 MLOAD PUSH2 0x2D7F SWAP3 SWAP2 SWAP1 PUSH2 0x3BD5 JUMP JUMPDEST PUSH1 0x40 MLOAD DUP1 SWAP2 SUB SWAP1 LOG4 POP POP POP POP POP JUMP JUMPDEST PUSH1 0x1 PUSH1 0x1 PUSH1 0xA0 SHL SUB DUP5 AND EXTCODESIZE ISZERO PUSH2 0xCD4 JUMPI PUSH1 0x40 MLOAD PUSH4 0xF23A6E61 PUSH1 0xE0 SHL DUP2 MSTORE PUSH1 0x1 PUSH1 0x1 PUSH1 0xA0 SHL SUB DUP6 AND SWAP1 PUSH4 0xF23A6E61 SWAP1 PUSH2 0x2DD2 SWAP1 DUP10 SWAP1 DUP10 SWAP1 DUP9 SWAP1 DUP9 SWAP1 DUP9 SWAP1 PUSH1 0x4 ADD PUSH2 0x3C02 JUMP JUMPDEST PUSH1 0x20 PUSH1 0x40 MLOAD DUP1 DUP4 SUB DUP2 PUSH0 DUP8 GAS CALL SWAP3 POP POP POP DUP1 ISZERO PUSH2 0x2E0C JUMPI POP PUSH1 0x40 DUP1 MLOAD PUSH1 0x1F RETURNDATASIZE SWAP1 DUP2 ADD PUSH1 0x1F NOT AND DUP3 ADD SWAP1 SWAP3 MSTORE PUSH2 0x2E09 SWAP2 DUP2 ADD SWAP1 PUSH2 0x3C46 JUMP JUMPDEST PUSH1 0x1 JUMPDEST PUSH2 0x2E73 JUMPI RETURNDATASIZE DUP1 DUP1 ISZERO PUSH2 0x2E39 JUMPI PUSH1 0x40 MLOAD SWAP2 POP PUSH1 0x1F NOT PUSH1 0x3F RETURNDATASIZE ADD AND DUP3 ADD PUSH1 0x40 MSTORE RETURNDATASIZE DUP3 MSTORE RETURNDATASIZE PUSH0 PUSH1 0x20 DUP5 ADD RETURNDATACOPY PUSH2 0x2E3E JUMP JUMPDEST PUSH1 0x60 SWAP2 POP JUMPDEST POP DUP1 MLOAD PUSH0 SUB PUSH2 0x2E6B JUMPI PUSH1 0x40 MLOAD PUSH4 0x2BFA23E7 PUSH1 0xE1 SHL DUP2 MSTORE PUSH1 0x1 PUSH1 0x1 PUSH1 0xA0 SHL SUB DUP7 AND PUSH1 0x4 DUP3 ADD MSTORE PUSH1 0x24 ADD PUSH2 0x3FB JUMP JUMPDEST DUP1 MLOAD DUP2 PUSH1 0x20 ADD REVERT JUMPDEST PUSH1 0x1 PUSH1 0x1 PUSH1 0xE0 SHL SUB NOT DUP2 AND PUSH4 0xF23A6E61 PUSH1 0xE0 SHL EQ PUSH2 0x29FE JUMPI PUSH1 0x40 MLOAD PUSH4 0x2BFA23E7 PUSH1 0xE1 SHL DUP2 MSTORE PUSH1 0x1 PUSH1 0x1 PUSH1 0xA0 SHL SUB DUP7 AND PUSH1 0x4 DUP3 ADD MSTORE PUSH1 0x24 ADD PUSH2 0x3FB JUMP JUMPDEST PUSH1 0x1 PUSH1 0x1 PUSH1 0xA0 SHL SUB DUP5 AND EXTCODESIZE ISZERO PUSH2 0xCD4 JUMPI PUSH1 0x40 MLOAD PUSH4 0xBC197C81 PUSH1 0xE0 SHL DUP2 MSTORE PUSH1 0x1 PUSH1 0x1 PUSH1 0xA0 SHL SUB DUP6 AND SWAP1 PUSH4 0xBC197C81 SWAP1 PUSH2 0x2EF3 SWAP1 DUP10 SWAP1 DUP10 SWAP1 DUP9 SWAP1 DUP9 SWAP1 DUP9 SWAP1 PUSH1 0x4 ADD PUSH2 0x3C61 JUMP JUMPDEST PUSH1 0x20 PUSH1 0x40 MLOAD DUP1 DUP4 SUB DUP2 PUSH0 DUP8 GAS CALL SWAP3 POP POP POP DUP1 ISZERO PUSH2 0x2F2D JUMPI POP PUSH1 0x40 DUP1 MLOAD PUSH1 0x1F RETURNDATASIZE SWAP1 DUP2 ADD PUSH1 0x1F NOT AND DUP3 ADD SWAP1 SWAP3 MSTORE PUSH2 0x2F2A SWAP2 DUP2 ADD SWAP1 PUSH2 0x3C46 JUMP JUMPDEST PUSH1 0x1 JUMPDEST PUSH2 0x2F5A JUMPI RETURNDATASIZE DUP1 DUP1 ISZERO PUSH2 0x2E39 JUMPI PUSH1 0x40 MLOAD SWAP2 POP PUSH1 0x1F NOT PUSH1 0x3F RETURNDATASIZE ADD AND DUP3 ADD PUSH1 0x40 MSTORE RETURNDATASIZE DUP3 MSTORE RETURNDATASIZE PUSH0 PUSH1 0x20 DUP5 ADD RETURNDATACOPY PUSH2 0x2E3E JUMP JUMPDEST PUSH1 0x1 PUSH1 0x1 PUSH1 0xE0 SHL SUB NOT DUP2 AND PUSH4 0xBC197C81 PUSH1 0xE0 SHL EQ PUSH2 0x29FE JUMPI PUSH1 0x40 MLOAD PUSH4 0x2BFA23E7 PUSH1 0xE1 SHL DUP2 MSTORE PUSH1 0x1 PUSH1 0x1 PUSH1 0xA0 SHL SUB DUP7 AND PUSH1 0x4 DUP3 ADD MSTORE PUSH1 0x24 ADD PUSH2 0x3FB JUMP JUMPDEST POP DUP1 SLOAD PUSH2 0x2FA2 SWAP1 PUSH2 0x38C5 JUMP JUMPDEST PUSH0 DUP3 SSTORE DUP1 PUSH1 0x1F LT PUSH2 0x2FB1 JUMPI POP POP JUMP JUMPDEST PUSH1 0x1F ADD PUSH1 0x20 SWAP1 DIV SWAP1 PUSH0 MSTORE PUSH1 0x20 PUSH0 KECCAK256 SWAP1 DUP2 ADD SWAP1 PUSH2 0x2FCD SWAP2 SWAP1 PUSH2 0x3037 JUMP JUMPDEST POP JUMP JUMPDEST POP DUP1 SLOAD PUSH0 DUP3 SSTORE PUSH1 0x8 MUL SWAP1 PUSH0 MSTORE PUSH1 0x20 PUSH0 KECCAK256 SWAP1 DUP2 ADD SWAP1 PUSH2 0x2FCD SWAP2 SWAP1 PUSH2 0x304B JUMP JUMPDEST DUP3 DUP1 SLOAD DUP3 DUP3 SSTORE SWAP1 PUSH0 MSTORE PUSH1 0x20 PUSH0 KECCAK256 SWAP1 DUP2 ADD SWAP3 DUP3 ISZERO PUSH2 0x3027 JUMPI SWAP2 PUSH1 0x20 MUL DUP3 ADD JUMPDEST DUP3 DUP2 GT ISZERO PUSH2 0x3027 JUMPI DUP3 MLOAD DUP3 SSTORE SWAP2 PUSH1 0x20 ADD SWAP2 SWAP1 PUSH1 0x1 ADD SWAP1 PUSH2 0x300C JUMP JUMPDEST POP PUSH2 0x3033 SWAP3 SWAP2 POP PUSH2 0x3037 JUMP JUMPDEST POP SWAP1 JUMP JUMPDEST JUMPDEST DUP1 DUP3 GT ISZERO PUSH2 0x3033 JUMPI PUSH0 DUP2 SSTORE PUSH1 0x1 ADD PUSH2 0x3038 JUMP JUMPDEST DUP1 DUP3 GT ISZERO PUSH2 0x3033 JUMPI PUSH0 DUP1 DUP3 SSTORE PUSH1 0x1 DUP3 ADD DUP2 SWAP1 SSTORE PUSH2 0x306B PUSH1 0x2 DUP4 ADD DUP3 PUSH2 0x2F96 JUMP JUMPDEST PUSH2 0x3078 PUSH1 0x3 DUP4 ADD PUSH0 PUSH2 0x2F96 JUMP JUMPDEST PUSH2 0x3085 PUSH1 0x4 DUP4 ADD PUSH0 PUSH2 0x2F96 JUMP JUMPDEST POP PUSH0 PUSH1 0x5 DUP3 ADD DUP2 SWAP1 SSTORE PUSH1 0x6 DUP3 ADD DUP2 SWAP1 SSTORE PUSH1 0x7 DUP3 ADD SSTORE PUSH1 0x8 ADD PUSH2 0x304B JUMP JUMPDEST DUP1 CALLDATALOAD PUSH1 0x1 PUSH1 0x1 PUSH1 0xA0 SHL SUB DUP2 AND DUP2 EQ PUSH2 0x30B8 JUMPI PUSH0 DUP1 REVERT JUMPDEST SWAP2 SWAP1 POP JUMP JUMPDEST PUSH0 DUP1 PUSH1 0x40 DUP4 DUP6 SUB SLT ISZERO PUSH2 0x30CE JUMPI PUSH0 DUP1 REVERT JUMPDEST PUSH2 0x30D7 DUP4 PUSH2 0x30A2 JUMP JUMPDEST SWAP5 PUSH1 0x20 SWAP4 SWAP1 SWAP4 ADD CALLDATALOAD SWAP4 POP POP POP JUMP JUMPDEST PUSH1 0x1 PUSH1 0x1 PUSH1 0xE0 SHL SUB NOT DUP2 AND DUP2 EQ PUSH2 0x2FCD JUMPI PUSH0 DUP1 REVERT JUMPDEST PUSH0 PUSH1 0x20 DUP3 DUP5 SUB SLT ISZERO PUSH2 0x310A JUMPI PUSH0 DUP1 REVERT JUMPDEST DUP2 CALLDATALOAD PUSH2 0x3115 DUP2 PUSH2 0x30E5 JUMP JUMPDEST SWAP4 SWAP3 POP POP POP JUMP JUMPDEST PUSH0 PUSH1 0x20 DUP3 DUP5 SUB SLT ISZERO PUSH2 0x312C JUMPI PUSH0 DUP1 REVERT JUMPDEST POP CALLDATALOAD SWAP2 SWAP1 POP JUMP JUMPDEST PUSH0 JUMPDEST DUP4 DUP2 LT ISZERO PUSH2 0x314D JUMPI DUP2 DUP2 ADD MLOAD DUP4 DUP3 ADD MSTORE PUSH1 0x20 ADD PUSH2 0x3135 JUMP JUMPDEST POP POP PUSH0 SWAP2 ADD MSTORE JUMP JUMPDEST PUSH0 DUP2 MLOAD DUP1 DUP5 MSTORE PUSH2 0x316C DUP2 PUSH1 0x20 DUP7 ADD PUSH1 0x20 DUP7 ADD PUSH2 0x3133 JUMP JUMPDEST PUSH1 0x1F ADD PUSH1 0x1F NOT AND SWAP3 SWAP1 SWAP3 ADD PUSH1 0x20 ADD SWAP3 SWAP2 POP POP JUMP JUMPDEST PUSH1 0x20 DUP2 MSTORE PUSH0 PUSH2 0x3115 PUSH1 0x20 DUP4 ADD DUP5 PUSH2 0x3155 JUMP JUMPDEST PUSH4 0x4E487B71 PUSH1 0xE0 SHL PUSH0 MSTORE PUSH1 0x41 PUSH1 0x4 MSTORE PUSH1 0x24 PUSH0 REVERT JUMPDEST PUSH1 0x40 MLOAD PUSH1 0x1F DUP3 ADD PUSH1 0x1F NOT AND DUP2 ADD PUSH8 0xFFFFFFFFFFFFFFFF DUP2 GT DUP3 DUP3 LT OR ISZERO PUSH2 0x31CF JUMPI PUSH2 0x31CF PUSH2 0x3192 JUMP JUMPDEST PUSH1 0x40 MSTORE SWAP2 SWAP1 POP JUMP JUMPDEST PUSH0 PUSH8 0xFFFFFFFFFFFFFFFF DUP3 GT ISZERO PUSH2 0x31F0 JUMPI PUSH2 0x31F0 PUSH2 0x3192 JUMP JUMPDEST POP PUSH1 0x5 SHL PUSH1 0x20 ADD SWAP1 JUMP JUMPDEST PUSH0 DUP3 PUSH1 0x1F DUP4 ADD SLT PUSH2 0x3209 JUMPI PUSH0 DUP1 REVERT JUMPDEST DUP2 CALLDATALOAD PUSH1 0x20 PUSH2 0x321E PUSH2 0x3219 DUP4 PUSH2 0x31D7 JUMP JUMPDEST PUSH2 0x31A6 JUMP JUMPDEST DUP1 DUP4 DUP3 MSTORE PUSH1 0x20 DUP3 ADD SWAP2 POP PUSH1 0x20 DUP5 PUSH1 0x5 SHL DUP8 ADD ADD SWAP4 POP DUP7 DUP5 GT ISZERO PUSH2 0x323F JUMPI PUSH0 DUP1 REVERT JUMPDEST PUSH1 0x20 DUP7 ADD JUMPDEST DUP5 DUP2 LT ISZERO PUSH2 0x325B JUMPI DUP1 CALLDATALOAD DUP4 MSTORE SWAP2 DUP4 ADD SWAP2 DUP4 ADD PUSH2 0x3244 JUMP JUMPDEST POP SWAP7 SWAP6 POP POP POP POP POP POP JUMP JUMPDEST PUSH0 DUP3 PUSH1 0x1F DUP4 ADD SLT PUSH2 0x3275 JUMPI PUSH0 DUP1 REVERT JUMPDEST DUP2 CALLDATALOAD PUSH8 0xFFFFFFFFFFFFFFFF DUP2 GT ISZERO PUSH2 0x328F JUMPI PUSH2 0x328F PUSH2 0x3192 JUMP JUMPDEST PUSH2 0x32A2 PUSH1 0x1F DUP3 ADD PUSH1 0x1F NOT AND PUSH1 0x20 ADD PUSH2 0x31A6 JUMP JUMPDEST DUP2 DUP2 MSTORE DUP5 PUSH1 0x20 DUP4 DUP7 ADD ADD GT ISZERO PUSH2 0x32B6 JUMPI PUSH0 DUP1 REVERT JUMPDEST DUP2 PUSH1 0x20 DUP6 ADD PUSH1 0x20 DUP4 ADD CALLDATACOPY PUSH0 SWAP2 DUP2 ADD PUSH1 0x20 ADD SWAP2 SWAP1 SWAP2 MSTORE SWAP4 SWAP3 POP POP POP JUMP JUMPDEST PUSH0 DUP1 PUSH0 DUP1 PUSH0 PUSH1 0xA0 DUP7 DUP9 SUB SLT ISZERO PUSH2 0x32E6 JUMPI PUSH0 DUP1 REVERT JUMPDEST PUSH2 0x32EF DUP7 PUSH2 0x30A2 JUMP JUMPDEST SWAP5 POP PUSH2 0x32FD PUSH1 0x20 DUP8 ADD PUSH2 0x30A2 JUMP JUMPDEST SWAP4 POP PUSH1 0x40 DUP7 ADD CALLDATALOAD PUSH8 0xFFFFFFFFFFFFFFFF DUP1 DUP3 GT ISZERO PUSH2 0x3319 JUMPI PUSH0 DUP1 REVERT JUMPDEST PUSH2 0x3325 DUP10 DUP4 DUP11 ADD PUSH2 0x31FA JUMP JUMPDEST SWAP5 POP PUSH1 0x60 DUP9 ADD CALLDATALOAD SWAP2 POP DUP1 DUP3 GT ISZERO PUSH2 0x333A JUMPI PUSH0 DUP1 REVERT JUMPDEST PUSH2 0x3346 DUP10 DUP4 DUP11 ADD PUSH2 0x31FA JUMP JUMPDEST SWAP4 POP PUSH1 0x80 DUP9 ADD CALLDATALOAD SWAP2 POP DUP1 DUP3 GT ISZERO PUSH2 0x335B JUMPI PUSH0 DUP1 REVERT JUMPDEST POP PUSH2 0x3368 DUP9 DUP3 DUP10 ADD PUSH2 0x3266 JUMP JUMPDEST SWAP2 POP POP SWAP3 SWAP6 POP SWAP3 SWAP6 SWAP1 SWAP4 POP JUMP JUMPDEST PUSH0 DUP1 PUSH0 DUP1 PUSH1 0x80 DUP6 DUP8 SUB SLT ISZERO PUSH2 0x3388 JUMPI PUSH0 DUP1 REVERT JUMPDEST DUP5 CALLDATALOAD SWAP4 POP PUSH1 0x20 DUP6 ADD CALLDATALOAD SWAP3 POP PUSH2 0x339F PUSH1 0x40 DUP7 ADD PUSH2 0x30A2 JUMP JUMPDEST SWAP4 SWAP7 SWAP3 SWAP6 POP SWAP3 SWAP4 PUSH1 0x60 ADD CALLDATALOAD SWAP3 POP POP JUMP JUMPDEST PUSH0 DUP1 PUSH1 0x20 DUP4 DUP6 SUB SLT ISZERO PUSH2 0x33C0 JUMPI PUSH0 DUP1 REVERT JUMPDEST DUP3 CALLDATALOAD PUSH8 0xFFFFFFFFFFFFFFFF DUP1 DUP3 GT ISZERO PUSH2 0x33D7 JUMPI PUSH0 DUP1 REVERT JUMPDEST DUP2 DUP6 ADD SWAP2 POP DUP6 PUSH1 0x1F DUP4 ADD SLT PUSH2 0x33EA JUMPI PUSH0 DUP1 REVERT JUMPDEST DUP2 CALLDATALOAD DUP2 DUP2 GT ISZERO PUSH2 0x33F8 JUMPI PUSH0 DUP1 REVERT JUMPDEST DUP7 PUSH1 0x20 DUP3 DUP6 ADD ADD GT ISZERO PUSH2 0x3409 JUMPI PUSH0 DUP1 REVERT JUMPDEST PUSH1 0x20 SWAP3 SWAP1 SWAP3 ADD SWAP7 SWAP2 SWAP6 POP SWAP1 SWAP4 POP POP POP POP JUMP JUMPDEST PUSH0 DUP1 PUSH1 0x40 DUP4 DUP6 SUB SLT ISZERO PUSH2 0x342C JUMPI PUSH0 DUP1 REVERT JUMPDEST DUP3 CALLDATALOAD PUSH8 0xFFFFFFFFFFFFFFFF DUP1 DUP3 GT ISZERO PUSH2 0x3443 JUMPI PUSH0 DUP1 REVERT JUMPDEST DUP2 DUP6 ADD SWAP2 POP DUP6 PUSH1 0x1F DUP4 ADD SLT PUSH2 0x3456 JUMPI PUSH0 DUP1 REVERT JUMPDEST DUP2 CALLDATALOAD PUSH1 0x20 PUSH2 0x3466 PUSH2 0x3219 DUP4 PUSH2 0x31D7 JUMP JUMPDEST DUP3 DUP2 MSTORE PUSH1 0x5 SWAP3 SWAP1 SWAP3 SHL DUP5 ADD DUP2 ADD SWAP2 DUP2 DUP2 ADD SWAP1 DUP10 DUP5 GT ISZERO PUSH2 0x3484 JUMPI PUSH0 DUP1 REVERT JUMPDEST SWAP5 DUP3 ADD SWAP5 JUMPDEST DUP4 DUP7 LT ISZERO PUSH2 0x34A9 JUMPI PUSH2 0x349A DUP7 PUSH2 0x30A2 JUMP JUMPDEST DUP3 MSTORE SWAP5 DUP3 ADD SWAP5 SWAP1 DUP3 ADD SWAP1 PUSH2 0x3489 JUMP JUMPDEST SWAP7 POP POP DUP7 ADD CALLDATALOAD SWAP3 POP POP DUP1 DUP3 GT ISZERO PUSH2 0x34BE JUMPI PUSH0 DUP1 REVERT JUMPDEST POP PUSH2 0x34CB DUP6 DUP3 DUP7 ADD PUSH2 0x31FA JUMP JUMPDEST SWAP2 POP POP SWAP3 POP SWAP3 SWAP1 POP JUMP JUMPDEST PUSH0 DUP2 MLOAD DUP1 DUP5 MSTORE PUSH1 0x20 DUP1 DUP6 ADD SWAP5 POP PUSH1 0x20 DUP5 ADD PUSH0 JUMPDEST DUP4 DUP2 LT ISZERO PUSH2 0x3504 JUMPI DUP2 MLOAD DUP8 MSTORE SWAP6 DUP3 ADD SWAP6 SWAP1 DUP3 ADD SWAP1 PUSH1 0x1 ADD PUSH2 0x34E8 JUMP JUMPDEST POP SWAP5 SWAP6 SWAP5 POP POP POP POP POP JUMP JUMPDEST PUSH1 0x20 DUP2 MSTORE PUSH0 PUSH2 0x3115 PUSH1 0x20 DUP4 ADD DUP5 PUSH2 0x34D5 JUMP JUMPDEST PUSH0 DUP1 PUSH0 PUSH1 0x60 DUP5 DUP7 SUB SLT ISZERO PUSH2 0x3533 JUMPI PUSH0 DUP1 REVERT JUMPDEST POP POP DUP2 CALLDATALOAD SWAP4 PUSH1 0x20 DUP4 ADD CALLDATALOAD SWAP4 POP PUSH1 0x40 SWAP1 SWAP3 ADD CALLDATALOAD SWAP2 SWAP1 POP JUMP JUMPDEST PUSH0 DUP1 PUSH0 DUP1 PUSH0 PUSH1 0xA0 DUP7 DUP9 SUB SLT ISZERO PUSH2 0x355E JUMPI PUSH0 DUP1 REVERT JUMPDEST DUP6 CALLDATALOAD SWAP5 POP PUSH1 0x20 DUP7 ADD CALLDATALOAD PUSH8 0xFFFFFFFFFFFFFFFF DUP1 DUP3 GT ISZERO PUSH2 0x357C JUMPI PUSH0 DUP1 REVERT JUMPDEST PUSH2 0x3588 DUP10 DUP4 DUP11 ADD PUSH2 0x3266 JUMP JUMPDEST SWAP6 POP PUSH1 0x40 DUP9 ADD CALLDATALOAD SWAP2 POP DUP1 DUP3 GT ISZERO PUSH2 0x359D JUMPI PUSH0 DUP1 REVERT JUMPDEST PUSH2 0x35A9 DUP10 DUP4 DUP11 ADD PUSH2 0x3266 JUMP JUMPDEST SWAP5 POP PUSH1 0x60 DUP9 ADD CALLDATALOAD SWAP2 POP DUP1 DUP3 GT ISZERO PUSH2 0x35BE JUMPI PUSH0 DUP1 REVERT JUMPDEST PUSH2 0x35CA DUP10 DUP4 DUP11 ADD PUSH2 0x31FA JUMP JUMPDEST SWAP4 POP PUSH1 0x80 DUP9 ADD CALLDATALOAD SWAP2 POP DUP1 DUP3 GT ISZERO PUSH2 0x35DF JUMPI PUSH0 DUP1 REVERT JUMPDEST POP PUSH2 0x3368 DUP9 DUP3 DUP10 ADD PUSH2 0x31FA JUMP JUMPDEST PUSH0 DUP1 PUSH0 DUP1 PUSH1 0x80 DUP6 DUP8 SUB SLT ISZERO PUSH2 0x35FF JUMPI PUSH0 DUP1 REVERT JUMPDEST POP POP DUP3 CALLDATALOAD SWAP5 PUSH1 0x20 DUP5 ADD CALLDATALOAD SWAP5 POP PUSH1 0x40 DUP5 ADD CALLDATALOAD SWAP4 PUSH1 0x60 ADD CALLDATALOAD SWAP3 POP SWAP1 POP JUMP JUMPDEST PUSH0 DUP1 PUSH0 DUP1 PUSH0 DUP1 PUSH0 PUSH1 0xE0 DUP9 DUP11 SUB SLT ISZERO PUSH2 0x3631 JUMPI PUSH0 DUP1 REVERT JUMPDEST DUP8 CALLDATALOAD SWAP7 POP PUSH1 0x20 DUP9 ADD CALLDATALOAD PUSH8 0xFFFFFFFFFFFFFFFF DUP1 DUP3 GT ISZERO PUSH2 0x364F JUMPI PUSH0 DUP1 REVERT JUMPDEST PUSH2 0x365B DUP12 DUP4 DUP13 ADD PUSH2 0x3266 JUMP JUMPDEST SWAP8 POP PUSH1 0x40 DUP11 ADD CALLDATALOAD SWAP2 POP DUP1 DUP3 GT ISZERO PUSH2 0x3670 JUMPI PUSH0 DUP1 REVERT JUMPDEST PUSH2 0x367C DUP12 DUP4 DUP13 ADD PUSH2 0x3266 JUMP JUMPDEST SWAP7 POP PUSH1 0x60 DUP11 ADD CALLDATALOAD SWAP2 POP DUP1 DUP3 GT ISZERO PUSH2 0x3691 JUMPI PUSH0 DUP1 REVERT JUMPDEST POP PUSH2 0x369E DUP11 DUP3 DUP12 ADD PUSH2 0x3266 JUMP JUMPDEST SWAP8 SWAP11 SWAP7 SWAP10 POP SWAP5 SWAP8 PUSH1 0x80 DUP2 ADD CALLDATALOAD SWAP7 PUSH1 0xA0 DUP3 ADD CALLDATALOAD SWAP7 POP PUSH1 0xC0 SWAP1 SWAP2 ADD CALLDATALOAD SWAP5 POP SWAP3 POP POP POP JUMP JUMPDEST PUSH0 DUP1 PUSH1 0x40 DUP4 DUP6 SUB SLT ISZERO PUSH2 0x36D1 JUMPI PUSH0 DUP1 REVERT JUMPDEST POP POP DUP1 CALLDATALOAD SWAP3 PUSH1 0x20 SWAP1 SWAP2 ADD CALLDATALOAD SWAP2 POP JUMP JUMPDEST PUSH0 DUP1 PUSH0 DUP1 PUSH0 DUP1 PUSH0 PUSH1 0xE0 DUP9 DUP11 SUB SLT ISZERO PUSH2 0x36F6 JUMPI PUSH0 DUP1 REVERT JUMPDEST DUP8 CALLDATALOAD SWAP7 POP PUSH1 0x20 DUP9 ADD CALLDATALOAD SWAP6 POP PUSH1 0x40 DUP9 ADD CALLDATALOAD SWAP5 POP PUSH1 0x60 DUP9 ADD CALLDATALOAD SWAP4 POP PUSH1 0x80 DUP9 ADD CALLDATALOAD SWAP3 POP PUSH2 0x3722 PUSH1 0xA0 DUP10 ADD PUSH2 0x30A2 JUMP JUMPDEST SWAP2 POP PUSH1 0xC0 DUP9 ADD CALLDATALOAD SWAP1 POP SWAP3 SWAP6 SWAP9 SWAP2 SWAP5 SWAP8 POP SWAP3 SWAP6 POP JUMP JUMPDEST PUSH0 PUSH1 0x20 DUP3 DUP5 SUB SLT ISZERO PUSH2 0x3747 JUMPI PUSH0 DUP1 REVERT JUMPDEST DUP2 CALLDATALOAD PUSH8 0xFFFFFFFFFFFFFFFF DUP2 GT ISZERO PUSH2 0x375D JUMPI PUSH0 DUP1 REVERT JUMPDEST PUSH2 0x3769 DUP5 DUP3 DUP6 ADD PUSH2 0x3266 JUMP JUMPDEST SWAP5 SWAP4 POP POP POP POP JUMP JUMPDEST PUSH0 DUP1 PUSH1 0x40 DUP4 DUP6 SUB SLT ISZERO PUSH2 0x3782 JUMPI PUSH0 DUP1 REVERT JUMPDEST PUSH2 0x378B DUP4 PUSH2 0x30A2 JUMP JUMPDEST SWAP2 POP PUSH1 0x20 DUP4 ADD CALLDATALOAD DUP1 ISZERO ISZERO DUP2 EQ PUSH2 0x379F JUMPI PUSH0 DUP1 REVERT JUMPDEST DUP1 SWAP2 POP POP SWAP3 POP SWAP3 SWAP1 POP JUMP JUMPDEST PUSH0 PUSH1 0x20 DUP1 DUP4 ADD DUP2 DUP5 MSTORE DUP1 DUP6 MLOAD DUP1 DUP4 MSTORE PUSH1 0x40 SWAP3 POP PUSH1 0x40 DUP7 ADD SWAP2 POP PUSH1 0x40 DUP2 PUSH1 0x5 SHL DUP8 ADD ADD DUP5 DUP9 ADD PUSH0 JUMPDEST DUP4 DUP2 LT ISZERO PUSH2 0x3826 JUMPI PUSH1 0x3F NOT DUP10 DUP5 SUB ADD DUP6 MSTORE DUP2 MLOAD PUSH1 0x60 DUP2 MLOAD DUP2 DUP7 MSTORE PUSH2 0x37F7 DUP3 DUP8 ADD DUP3 PUSH2 0x3155 JUMP JUMPDEST DUP4 DUP12 ADD MLOAD PUSH1 0x1 PUSH1 0x1 PUSH1 0xA0 SHL SUB AND DUP8 DUP13 ADD MSTORE SWAP3 DUP10 ADD MLOAD SWAP6 DUP10 ADD SWAP6 SWAP1 SWAP6 MSTORE POP SWAP5 DUP8 ADD SWAP5 SWAP3 POP SWAP1 DUP7 ADD SWAP1 PUSH1 0x1 ADD PUSH2 0x37D1 JUMP JUMPDEST POP SWAP1 SWAP9 SWAP8 POP POP POP POP POP POP POP POP JUMP JUMPDEST PUSH0 DUP1 PUSH1 0x40 DUP4 DUP6 SUB SLT ISZERO PUSH2 0x3845 JUMPI PUSH0 DUP1 REVERT JUMPDEST PUSH2 0x384E DUP4 PUSH2 0x30A2 JUMP JUMPDEST SWAP2 POP PUSH2 0x385C PUSH1 0x20 DUP5 ADD PUSH2 0x30A2 JUMP JUMPDEST SWAP1 POP SWAP3 POP SWAP3 SWAP1 POP JUMP JUMPDEST PUSH0 DUP1 PUSH0 DUP1 PUSH0 PUSH1 0xA0 DUP7 DUP9 SUB SLT ISZERO PUSH2 0x3879 JUMPI PUSH0 DUP1 REVERT JUMPDEST PUSH2 0x3882 DUP7 PUSH2 0x30A2 JUMP JUMPDEST SWAP5 POP PUSH2 0x3890 PUSH1 0x20 DUP8 ADD PUSH2 0x30A2 JUMP JUMPDEST SWAP4 POP PUSH1 0x40 DUP7 ADD CALLDATALOAD SWAP3 POP PUSH1 0x60 DUP7 ADD CALLDATALOAD SWAP2 POP PUSH1 0x80 DUP7 ADD CALLDATALOAD PUSH8 0xFFFFFFFFFFFFFFFF DUP2 GT ISZERO PUSH2 0x38B9 JUMPI PUSH0 DUP1 REVERT JUMPDEST PUSH2 0x3368 DUP9 DUP3 DUP10 ADD PUSH2 0x3266 JUMP JUMPDEST PUSH1 0x1 DUP2 DUP2 SHR SWAP1 DUP3 AND DUP1 PUSH2 0x38D9 JUMPI PUSH1 0x7F DUP3 AND SWAP2 POP JUMPDEST PUSH1 0x20 DUP3 LT DUP2 SUB PUSH2 0x38F7 JUMPI PUSH4 0x4E487B71 PUSH1 0xE0 SHL PUSH0 MSTORE PUSH1 0x22 PUSH1 0x4 MSTORE PUSH1 0x24 PUSH0 REVERT JUMPDEST POP SWAP2 SWAP1 POP JUMP JUMPDEST PUSH1 0x20 DUP1 DUP3 MSTORE PUSH1 0x48 SWAP1 DUP3 ADD MSTORE PUSH32 0xD0A2D0BED0BBD18CD0BAD0BE20D0B2D0BBD0B0D0B4D0B5D0BBD0B5D18620D0BC PUSH1 0x40 DUP3 ADD MSTORE PUSH32 0xD0BED0B6D0B5D18220D18DD182D0BE20D0B8D181D0BFD0BED0BBD18CD0B7D0BE PUSH1 0x60 DUP3 ADD MSTORE PUSH8 0x342CB42C3460B463 PUSH1 0xC2 SHL PUSH1 0x80 DUP3 ADD MSTORE PUSH1 0xA0 ADD SWAP1 JUMP JUMPDEST PUSH4 0x4E487B71 PUSH1 0xE0 SHL PUSH0 MSTORE PUSH1 0x32 PUSH1 0x4 MSTORE PUSH1 0x24 PUSH0 REVERT JUMPDEST PUSH4 0x4E487B71 PUSH1 0xE0 SHL PUSH0 MSTORE PUSH1 0x11 PUSH1 0x4 MSTORE PUSH1 0x24 PUSH0 REVERT JUMPDEST DUP1 DUP3 MUL DUP2 ISZERO DUP3 DUP3 DIV DUP5 EQ OR PUSH2 0x2EA JUMPI PUSH2 0x2EA PUSH2 0x397F JUMP JUMPDEST PUSH1 0x1F DUP3 GT ISZERO PUSH2 0x39EE JUMPI DUP1 PUSH0 MSTORE PUSH1 0x20 PUSH0 KECCAK256 PUSH1 0x1F DUP5 ADD PUSH1 0x5 SHR DUP2 ADD PUSH1 0x20 DUP6 LT ISZERO PUSH2 0x39CF JUMPI POP DUP1 JUMPDEST PUSH1 0x1F DUP5 ADD PUSH1 0x5 SHR DUP3 ADD SWAP2 POP JUMPDEST DUP2 DUP2 LT ISZERO PUSH2 0x2974 JUMPI PUSH0 DUP2 SSTORE PUSH1 0x1 ADD PUSH2 0x39DB JUMP JUMPDEST POP POP POP JUMP JUMPDEST DUP2 MLOAD PUSH8 0xFFFFFFFFFFFFFFFF DUP2 GT ISZERO PUSH2 0x3A0D JUMPI PUSH2 0x3A0D PUSH2 0x3192 JUMP JUMPDEST PUSH2 0x3A21 DUP2 PUSH2 0x3A1B DUP5 SLOAD PUSH2 0x38C5 JUMP JUMPDEST DUP5 PUSH2 0x39AA JUMP JUMPDEST PUSH1 0x20 DUP1 PUSH1 0x1F DUP4 GT PUSH1 0x1 DUP2 EQ PUSH2 0x3A54 JUMPI PUSH0 DUP5 ISZERO PUSH2 0x3A3D JUMPI POP DUP6 DUP4 ADD MLOAD JUMPDEST PUSH0 NOT PUSH1 0x3 DUP7 SWAP1 SHL SHR NOT AND PUSH1 0x1 DUP6 SWAP1 SHL OR DUP6 SSTORE PUSH2 0xCD4 JUMP JUMPDEST PUSH0 DUP6 DUP2 MSTORE PUSH1 0x20 DUP2 KECCAK256 PUSH1 0x1F NOT DUP7 AND SWAP2 JUMPDEST DUP3 DUP2 LT ISZERO PUSH2 0x3A82 JUMPI DUP9 DUP7 ADD MLOAD DUP3 SSTORE SWAP5 DUP5 ADD SWAP5 PUSH1 0x1 SWAP1 SWAP2 ADD SWAP1 DUP5 ADD PUSH2 0x3A63 JUMP JUMPDEST POP DUP6 DUP3 LT ISZERO PUSH2 0x3A9F JUMPI DUP8 DUP6 ADD MLOAD PUSH0 NOT PUSH1 0x3 DUP9 SWAP1 SHL PUSH1 0xF8 AND SHR NOT AND DUP2 SSTORE JUMPDEST POP POP POP POP POP PUSH1 0x1 SWAP1 DUP2 SHL ADD SWAP1 SSTORE POP JUMP JUMPDEST DUP2 DUP2 SUB DUP2 DUP2 GT ISZERO PUSH2 0x2EA JUMPI PUSH2 0x2EA PUSH2 0x397F JUMP JUMPDEST PUSH0 DUP1 DUP6 DUP6 GT ISZERO PUSH2 0x3AD0 JUMPI PUSH0 DUP1 REVERT JUMPDEST DUP4 DUP7 GT ISZERO PUSH2 0x3ADC JUMPI PUSH0 DUP1 REVERT JUMPDEST POP POP DUP3 ADD SWAP4 SWAP2 SWAP1 SWAP3 SUB SWAP2 POP JUMP JUMPDEST PUSH6 0x50524F46492D PUSH1 0xD0 SHL DUP2 MSTORE DUP2 DUP4 PUSH1 0x6 DUP4 ADD CALLDATACOPY PUSH4 0xC8C0C8D PUSH1 0xE2 SHL SWAP2 ADD PUSH1 0x6 DUP2 ADD SWAP2 SWAP1 SWAP2 MSTORE PUSH1 0xA ADD SWAP2 SWAP1 POP JUMP JUMPDEST PUSH0 DUP3 MLOAD PUSH2 0x3B27 DUP2 DUP5 PUSH1 0x20 DUP8 ADD PUSH2 0x3133 JUMP JUMPDEST SWAP2 SWAP1 SWAP2 ADD SWAP3 SWAP2 POP POP JUMP JUMPDEST PUSH0 DUP3 PUSH2 0x3B4B JUMPI PUSH4 0x4E487B71 PUSH1 0xE0 SHL PUSH0 MSTORE PUSH1 0x12 PUSH1 0x4 MSTORE PUSH1 0x24 PUSH0 REVERT JUMPDEST POP DIV SWAP1 JUMP JUMPDEST PUSH0 DUP1 DUP4 SLOAD PUSH2 0x3B5D DUP2 PUSH2 0x38C5 JUMP JUMPDEST PUSH1 0x1 DUP3 DUP2 AND DUP1 ISZERO PUSH2 0x3B75 JUMPI PUSH1 0x1 DUP2 EQ PUSH2 0x3B8A JUMPI PUSH2 0x3BB6 JUMP JUMPDEST PUSH1 0xFF NOT DUP5 AND DUP8 MSTORE DUP3 ISZERO ISZERO DUP4 MUL DUP8 ADD SWAP5 POP PUSH2 0x3BB6 JUMP JUMPDEST DUP8 PUSH0 MSTORE PUSH1 0x20 DUP1 PUSH0 KECCAK256 PUSH0 JUMPDEST DUP6 DUP2 LT ISZERO PUSH2 0x3BAD JUMPI DUP2 SLOAD DUP11 DUP3 ADD MSTORE SWAP1 DUP5 ADD SWAP1 DUP3 ADD PUSH2 0x3B94 JUMP JUMPDEST POP POP POP DUP3 DUP8 ADD SWAP5 POP JUMPDEST POP SWAP3 SWAP7 SWAP6 POP POP POP POP POP POP JUMP JUMPDEST DUP1 DUP3 ADD DUP1 DUP3 GT ISZERO PUSH2 0x2EA JUMPI PUSH2 0x2EA PUSH2 0x397F JUMP JUMPDEST PUSH1 0x40 DUP2 MSTORE PUSH0 PUSH2 0x3BE7 PUSH1 0x40 DUP4 ADD DUP6 PUSH2 0x34D5 JUMP JUMPDEST DUP3 DUP2 SUB PUSH1 0x20 DUP5 ADD MSTORE PUSH2 0x3BF9 DUP2 DUP6 PUSH2 0x34D5 JUMP JUMPDEST SWAP6 SWAP5 POP POP POP POP POP JUMP JUMPDEST PUSH1 0x1 PUSH1 0x1 PUSH1 0xA0 SHL SUB DUP7 DUP2 AND DUP3 MSTORE DUP6 AND PUSH1 0x20 DUP3 ADD MSTORE PUSH1 0x40 DUP2 ADD DUP5 SWAP1 MSTORE PUSH1 0x60 DUP2 ADD DUP4 SWAP1 MSTORE PUSH1 0xA0 PUSH1 0x80 DUP3 ADD DUP2 SWAP1 MSTORE PUSH0 SWAP1 PUSH2 0x3C3B SWAP1 DUP4 ADD DUP5 PUSH2 0x3155 JUMP JUMPDEST SWAP8 SWAP7 POP POP POP POP POP POP POP JUMP JUMPDEST PUSH0 PUSH1 0x20 DUP3 DUP5 SUB SLT ISZERO PUSH2 0x3C56 JUMPI PUSH0 DUP1 REVERT JUMPDEST DUP2 MLOAD PUSH2 0x3115 DUP2 PUSH2 0x30E5 JUMP JUMPDEST PUSH1 0x1 PUSH1 0x1 PUSH1 0xA0 SHL SUB DUP7 DUP2 AND DUP3 MSTORE DUP6 AND PUSH1 0x20 DUP3 ADD MSTORE PUSH1 0xA0 PUSH1 0x40 DUP3 ADD DUP2 SWAP1 MSTORE PUSH0 SWAP1 PUSH2 0x3C8C SWAP1 DUP4 ADD DUP7 PUSH2 0x34D5 JUMP JUMPDEST DUP3 DUP2 SUB PUSH1 0x60 DUP5 ADD MSTORE PUSH2 0x3C9E DUP2 DUP7 PUSH2 0x34D5 JUMP JUMPDEST SWAP1 POP DUP3 DUP2 SUB PUSH1 0x80 DUP5 ADD MSTORE PUSH2 0x3CB2 DUP2 DUP6 PUSH2 0x3155 JUMP JUMPDEST SWAP9 SWAP8 POP POP POP POP POP POP POP POP JUMP INVALID LOG2 PUSH5 0x6970667358 0x22 SLT KECCAK256 SWAP7 OR BASEFEE PUSH11 0x8EFC27351D77498A3C5773 0xB6 0xD0 0xD0 0xB6 PUSH2 0x67F6 TIMESTAMP PUSH0 DUP4 POP DUP1 PUSH25 0x9775FCBD64736F6C63430008160033D09FD183D0B7D18BD180 0xD0 0xB8 0xD0 0xBA KECCAK256 0xD0 0xBF 0xD0 0xBE 0xD1 DUP6 0xD0 0xB8 0xD1 DUP3 0xD0 0xB8 0xD0 0xBB KECCAK256 0xD0 0xBA 0xD0 0xBE 0xD1 DUP3 0xD0 0xB8 0xD0 0xBA 0xD0 0xB0 KECCAK256 0xD1 DUP2 KECCAK256 0xD0 SWAP8 0xD0 0xB5 0xD0 0xBC 0xD0 0xBB 0xD0 0xB8 0xD0 SWAP11 0xD0 0xBE 0xD0 0xBC 0xD0 0xBE 0xD1 DUP8 0xD0 0xB5 0xD0 0xBA KECCAK256 0xD1 DUP2 0xD0 0xBB 0xD0 0xB8 0xD0 0xBB 0xD1 DUP2 0xD1 DUP16 KECCAK256 0xD1 DUP2 KECCAK256 0xD0 0xBA 0xD0 0xBE 0xD1 DUP2 0xD0 0xBC 0xD0 0xBE 0xD1 DUP2 0xD0 0xBE 0xD0 0xBC 0xD0 SWAP3 0xD0 0xBA 0xD1 DUP4 0xD1 DUP2 0xD0 0xBD 0xD1 DUP16 0xD1 DUP9 0xD0 0xBA 0xD0 0xB0 KECCAK256 0xD0 0xB2 0xD0 0xBF 0xD0 0xB5 0xD1 DUP1 0xD0 0xB2 0xD1 DUP12 0xD0 0xB5 KECCAK256 0xD0 0xBF 0xD1 DUP1 0xD0 0xBE 0xD0 0xB1 0xD1 DUP4 0xD0 0xB5 0xD1 DUP3 KECCAK256 0xD1 DUP16 0xD0 0xBF 0xD0 0xBE 0xD0 0xBD 0xD1 DUP2 0xD0 0xBA 0xD1 DUP4 0xD1 DUP15 KECCAK256 0xD0 0xBA 0xD1 DUP4 0xD1 DUP6 0xD0 0xBD 0xD1 DUP15 "
		},
		"gasEstimates": {
			"creation": {
				"codeDepositCost": "3120800",
				"executionCost": "infinite",
				"totalCost": "infinite"
			},
			"external": {
				"balanceOf(address,uint256)": "2657",
				"balanceOfBatch(address[],uint256[])": "infinite",
				"buyAsset(uint256,uint256,uint256)": "infinite",
				"changeSellPrice(uint256,uint256)": "31198",
				"createAsset(uint256,string,string,string,uint256,uint256,uint256)": "infinite",
				"createCollection(uint256,string,string,uint256[],uint256[])": "infinite",
				"createRef(string)": "infinite",
				"finishAuc(uint256)": "infinite",
				"getReferrals()": "infinite",
				"isApprovedForAll(address,address)": "infinite",
				"safeBatchTransferFrom(address,address,uint256[],uint256[],bytes)": "infinite",
				"safeTransferFrom(address,address,uint256,uint256,bytes)": "infinite",
				"sellAsset(uint256,uint256,uint256,uint256)": "163968",
				"setApprovalForAll(address,bool)": "26700",
				"startAuc(uint256,uint256,uint256,uint256,uint256,address,uint256)": "infinite",
				"supportsInterface(bytes4)": "575",
				"transferAsset(uint256,uint256,address,uint256)": "infinite",
				"uri(uint256)": "infinite",
				"useReferral(string)": "infinite"
			}
		},
		"methodIdentifiers": {
			"balanceOf(address,uint256)": "00fdd58e",
			"balanceOfBatch(address[],uint256[])": "4e1273f4",
			"buyAsset(uint256,uint256,uint256)": "68dadec2",
			"changeSellPrice(uint256,uint256)": "90420aee",
			"createAsset(uint256,string,string,string,uint256,uint256,uint256)": "845c54f6",
			"createCollection(uint256,string,string,uint256[],uint256[])": "694f82b4",
			"createRef(string)": "4dad2aab",
			"finishAuc(uint256)": "222d9c5c",
			"getReferrals()": "a2a376cd",
			"isApprovedForAll(address,address)": "e985e9c5",
			"safeBatchTransferFrom(address,address,uint256[],uint256[],bytes)": "2eb2c2d6",
			"safeTransferFrom(address,address,uint256,uint256,bytes)": "f242432a",
			"sellAsset(uint256,uint256,uint256,uint256)": "7ba9165c",
			"setApprovalForAll(address,bool)": "a22cb465",
			"startAuc(uint256,uint256,uint256,uint256,uint256,address,uint256)": "958828e3",
			"supportsInterface(bytes4)": "01ffc9a7",
			"transferAsset(uint256,uint256,address,uint256)": "3aacc912",
			"uri(uint256)": "0e89341c",
			"useReferral(string)": "97f588c6"
		}
	},
	"abi": [
		{
			"inputs": [
				{
					"internalType": "address",
					"name": "_contractAddress",
					"type": "address"
				}
			],
			"stateMutability": "nonpayable",
			"type": "constructor"
		},
		{
			"inputs": [
				{
					"internalType": "address",
					"name": "sender",
					"type": "address"
				},
				{
					"internalType": "uint256",
					"name": "balance",
					"type": "uint256"
				},
				{
					"internalType": "uint256",
					"name": "needed",
					"type": "uint256"
				},
				{
					"internalType": "uint256",
					"name": "tokenId",
					"type": "uint256"
				}
			],
			"name": "ERC1155InsufficientBalance",
			"type": "error"
		},
		{
			"inputs": [
				{
					"internalType": "address",
					"name": "approver",
					"type": "address"
				}
			],
			"name": "ERC1155InvalidApprover",
			"type": "error"
		},
		{
			"inputs": [
				{
					"internalType": "uint256",
					"name": "idsLength",
					"type": "uint256"
				},
				{
					"internalType": "uint256",
					"name": "valuesLength",
					"type": "uint256"
				}
			],
			"name": "ERC1155InvalidArrayLength",
			"type": "error"
		},
		{
			"inputs": [
				{
					"internalType": "address",
					"name": "operator",
					"type": "address"
				}
			],
			"name": "ERC1155InvalidOperator",
			"type": "error"
		},
		{
			"inputs": [
				{
					"internalType": "address",
					"name": "receiver",
					"type": "address"
				}
			],
			"name": "ERC1155InvalidReceiver",
			"type": "error"
		},
		{
			"inputs": [
				{
					"internalType": "address",
					"name": "sender",
					"type": "address"
				}
			],
			"name": "ERC1155InvalidSender",
			"type": "error"
		},
		{
			"inputs": [
				{
					"internalType": "address",
					"name": "operator",
					"type": "address"
				},
				{
					"internalType": "address",
					"name": "owner",
					"type": "address"
				}
			],
			"name": "ERC1155MissingApprovalForAll",
			"type": "error"
		},
		{
			"anonymous": false,
			"inputs": [
				{
					"indexed": true,
					"internalType": "address",
					"name": "account",
					"type": "address"
				},
				{
					"indexed": true,
					"internalType": "address",
					"name": "operator",
					"type": "address"
				},
				{
					"indexed": false,
					"internalType": "bool",
					"name": "approved",
					"type": "bool"
				}
			],
			"name": "ApprovalForAll",
			"type": "event"
		},
		{
			"anonymous": false,
			"inputs": [
				{
					"indexed": true,
					"internalType": "address",
					"name": "operator",
					"type": "address"
				},
				{
					"indexed": true,
					"internalType": "address",
					"name": "from",
					"type": "address"
				},
				{
					"indexed": true,
					"internalType": "address",
					"name": "to",
					"type": "address"
				},
				{
					"indexed": false,
					"internalType": "uint256[]",
					"name": "ids",
					"type": "uint256[]"
				},
				{
					"indexed": false,
					"internalType": "uint256[]",
					"name": "values",
					"type": "uint256[]"
				}
			],
			"name": "TransferBatch",
			"type": "event"
		},
		{
			"anonymous": false,
			"inputs": [
				{
					"indexed": true,
					"internalType": "address",
					"name": "operator",
					"type": "address"
				},
				{
					"indexed": true,
					"internalType": "address",
					"name": "from",
					"type": "address"
				},
				{
					"indexed": true,
					"internalType": "address",
					"name": "to",
					"type": "address"
				},
				{
					"indexed": false,
					"internalType": "uint256",
					"name": "id",
					"type": "uint256"
				},
				{
					"indexed": false,
					"internalType": "uint256",
					"name": "value",
					"type": "uint256"
				}
			],
			"name": "TransferSingle",
			"type": "event"
		},
		{
			"anonymous": false,
			"inputs": [
				{
					"indexed": false,
					"internalType": "string",
					"name": "value",
					"type": "string"
				},
				{
					"indexed": true,
					"internalType": "uint256",
					"name": "id",
					"type": "uint256"
				}
			],
			"name": "URI",
			"type": "event"
		},
		{
			"inputs": [
				{
					"internalType": "address",
					"name": "account",
					"type": "address"
				},
				{
					"internalType": "uint256",
					"name": "id",
					"type": "uint256"
				}
			],
			"name": "balanceOf",
			"outputs": [
				{
					"internalType": "uint256",
					"name": "",
					"type": "uint256"
				}
			],
			"stateMutability": "view",
			"type": "function"
		},
		{
			"inputs": [
				{
					"internalType": "address[]",
					"name": "accounts",
					"type": "address[]"
				},
				{
					"internalType": "uint256[]",
					"name": "ids",
					"type": "uint256[]"
				}
			],
			"name": "balanceOfBatch",
			"outputs": [
				{
					"internalType": "uint256[]",
					"name": "",
					"type": "uint256[]"
				}
			],
			"stateMutability": "view",
			"type": "function"
		},
		{
			"inputs": [
				{
					"internalType": "uint256",
					"name": "_id",
					"type": "uint256"
				},
				{
					"internalType": "uint256",
					"name": "_amount",
					"type": "uint256"
				},
				{
					"internalType": "uint256",
					"name": "_discount",
					"type": "uint256"
				}
			],
			"name": "buyAsset",
			"outputs": [],
			"stateMutability": "nonpayable",
			"type": "function"
		},
		{
			"inputs": [
				{
					"internalType": "uint256",
					"name": "_idx",
					"type": "uint256"
				},
				{
					"internalType": "uint256",
					"name": "_price",
					"type": "uint256"
				}
			],
			"name": "changeSellPrice",
			"outputs": [],
			"stateMutability": "nonpayable",
			"type": "function"
		},
		{
			"inputs": [
				{
					"internalType": "uint256",
					"name": "_id",
					"type": "uint256"
				},
				{
					"internalType": "string",
					"name": "_name",
					"type": "string"
				},
				{
					"internalType": "string",
					"name": "_desc",
					"type": "string"
				},
				{
					"internalType": "string",
					"name": "_img",
					"type": "string"
				},
				{
					"internalType": "uint256",
					"name": "_price",
					"type": "uint256"
				},
				{
					"internalType": "uint256",
					"name": "_releasedAmount",
					"type": "uint256"
				},
				{
					"internalType": "uint256",
					"name": "_dateCreate",
					"type": "uint256"
				}
			],
			"name": "createAsset",
			"outputs": [],
			"stateMutability": "nonpayable",
			"type": "function"
		},
		{
			"inputs": [
				{
					"internalType": "uint256",
					"name": "_id",
					"type": "uint256"
				},
				{
					"internalType": "string",
					"name": "_name",
					"type": "string"
				},
				{
					"internalType": "string",
					"name": "_desc",
					"type": "string"
				},
				{
					"internalType": "uint256[]",
					"name": "_ids",
					"type": "uint256[]"
				},
				{
					"internalType": "uint256[]",
					"name": "_amounts",
					"type": "uint256[]"
				}
			],
			"name": "createCollection",
			"outputs": [],
			"stateMutability": "nonpayable",
			"type": "function"
		},
		{
			"inputs": [
				{
					"internalType": "string",
					"name": "_wallet",
					"type": "string"
				}
			],
			"name": "createRef",
			"outputs": [
				{
					"internalType": "string",
					"name": "",
					"type": "string"
				}
			],
			"stateMutability": "nonpayable",
			"type": "function"
		},
		{
			"inputs": [
				{
					"internalType": "uint256",
					"name": "_idx",
					"type": "uint256"
				}
			],
			"name": "finishAuc",
			"outputs": [],
			"stateMutability": "nonpayable",
			"type": "function"
		},
		{
			"inputs": [],
			"name": "getReferrals",
			"outputs": [
				{
					"components": [
						{
							"internalType": "string",
							"name": "name",
							"type": "string"
						},
						{
							"internalType": "address",
							"name": "owner",
							"type": "address"
						},
						{
							"internalType": "uint256",
							"name": "discount",
							"type": "uint256"
						}
					],
					"internalType": "struct NFT.ReferralCode[]",
					"name": "",
					"type": "tuple[]"
				}
			],
			"stateMutability": "view",
			"type": "function"
		},
		{
			"inputs": [
				{
					"internalType": "address",
					"name": "account",
					"type": "address"
				},
				{
					"internalType": "address",
					"name": "operator",
					"type": "address"
				}
			],
			"name": "isApprovedForAll",
			"outputs": [
				{
					"internalType": "bool",
					"name": "",
					"type": "bool"
				}
			],
			"stateMutability": "view",
			"type": "function"
		},
		{
			"inputs": [
				{
					"internalType": "address",
					"name": "from",
					"type": "address"
				},
				{
					"internalType": "address",
					"name": "to",
					"type": "address"
				},
				{
					"internalType": "uint256[]",
					"name": "ids",
					"type": "uint256[]"
				},
				{
					"internalType": "uint256[]",
					"name": "values",
					"type": "uint256[]"
				},
				{
					"internalType": "bytes",
					"name": "data",
					"type": "bytes"
				}
			],
			"name": "safeBatchTransferFrom",
			"outputs": [],
			"stateMutability": "nonpayable",
			"type": "function"
		},
		{
			"inputs": [
				{
					"internalType": "address",
					"name": "from",
					"type": "address"
				},
				{
					"internalType": "address",
					"name": "to",
					"type": "address"
				},
				{
					"internalType": "uint256",
					"name": "id",
					"type": "uint256"
				},
				{
					"internalType": "uint256",
					"name": "value",
					"type": "uint256"
				},
				{
					"internalType": "bytes",
					"name": "data",
					"type": "bytes"
				}
			],
			"name": "safeTransferFrom",
			"outputs": [],
			"stateMutability": "nonpayable",
			"type": "function"
		},
		{
			"inputs": [
				{
					"internalType": "uint256",
					"name": "_id",
					"type": "uint256"
				},
				{
					"internalType": "uint256",
					"name": "_AssetIdx",
					"type": "uint256"
				},
				{
					"internalType": "uint256",
					"name": "_amount",
					"type": "uint256"
				},
				{
					"internalType": "uint256",
					"name": "_price",
					"type": "uint256"
				}
			],
			"name": "sellAsset",
			"outputs": [],
			"stateMutability": "nonpayable",
			"type": "function"
		},
		{
			"inputs": [
				{
					"internalType": "address",
					"name": "operator",
					"type": "address"
				},
				{
					"internalType": "bool",
					"name": "approved",
					"type": "bool"
				}
			],
			"name": "setApprovalForAll",
			"outputs": [],
			"stateMutability": "nonpayable",
			"type": "function"
		},
		{
			"inputs": [
				{
					"internalType": "uint256",
					"name": "_collectionId",
					"type": "uint256"
				},
				{
					"internalType": "uint256",
					"name": "_timeStart",
					"type": "uint256"
				},
				{
					"internalType": "uint256",
					"name": "_timeEnd",
					"type": "uint256"
				},
				{
					"internalType": "uint256",
					"name": "maxPrice",
					"type": "uint256"
				},
				{
					"internalType": "uint256",
					"name": "minPrice",
					"type": "uint256"
				},
				{
					"internalType": "address",
					"name": "leader",
					"type": "address"
				},
				{
					"internalType": "uint256",
					"name": "currentBet",
					"type": "uint256"
				}
			],
			"name": "startAuc",
			"outputs": [],
			"stateMutability": "nonpayable",
			"type": "function"
		},
		{
			"inputs": [
				{
					"internalType": "bytes4",
					"name": "interfaceId",
					"type": "bytes4"
				}
			],
			"name": "supportsInterface",
			"outputs": [
				{
					"internalType": "bool",
					"name": "",
					"type": "bool"
				}
			],
			"stateMutability": "view",
			"type": "function"
		},
		{
			"inputs": [
				{
					"internalType": "uint256",
					"name": "_id",
					"type": "uint256"
				},
				{
					"internalType": "uint256",
					"name": "_idx",
					"type": "uint256"
				},
				{
					"internalType": "address",
					"name": "_receiver",
					"type": "address"
				},
				{
					"internalType": "uint256",
					"name": "_amount",
					"type": "uint256"
				}
			],
			"name": "transferAsset",
			"outputs": [],
			"stateMutability": "nonpayable",
			"type": "function"
		},
		{
			"inputs": [
				{
					"internalType": "uint256",
					"name": "",
					"type": "uint256"
				}
			],
			"name": "uri",
			"outputs": [
				{
					"internalType": "string",
					"name": "",
					"type": "string"
				}
			],
			"stateMutability": "view",
			"type": "function"
		},
		{
			"inputs": [
				{
					"internalType": "string",
					"name": "_referral",
					"type": "string"
				}
			],
			"name": "useReferral",
			"outputs": [],
			"stateMutability": "nonpayable",
			"type": "function"
		}
	]
}